{
  "_format": "hh-sol-artifact-1",
  "contractName": "ERC721Facet",
  "sourceName": "contracts/facets/ERC721/ERC721Facet.sol",
  "abi": [
    {
      "anonymous": false,
      "inputs": [
        {
          "indexed": true,
          "internalType": "address",
          "name": "owner",
          "type": "address"
        },
        {
          "indexed": true,
          "internalType": "address",
          "name": "approved",
          "type": "address"
        },
        {
          "indexed": true,
          "internalType": "uint256",
          "name": "tokenId",
          "type": "uint256"
        }
      ],
      "name": "Approval",
      "type": "event"
    },
    {
      "anonymous": false,
      "inputs": [
        {
          "indexed": true,
          "internalType": "address",
          "name": "owner",
          "type": "address"
        },
        {
          "indexed": true,
          "internalType": "address",
          "name": "operator",
          "type": "address"
        },
        {
          "indexed": false,
          "internalType": "bool",
          "name": "approved",
          "type": "bool"
        }
      ],
      "name": "ApprovalForAll",
      "type": "event"
    },
    {
      "anonymous": false,
      "inputs": [
        {
          "indexed": true,
          "internalType": "address",
          "name": "from",
          "type": "address"
        },
        {
          "indexed": true,
          "internalType": "address",
          "name": "to",
          "type": "address"
        },
        {
          "indexed": true,
          "internalType": "uint256",
          "name": "tokenId",
          "type": "uint256"
        }
      ],
      "name": "Transfer",
      "type": "event"
    },
    {
      "inputs": [
        {
          "internalType": "address",
          "name": "to",
          "type": "address"
        },
        {
          "internalType": "uint256",
          "name": "tokenId",
          "type": "uint256"
        }
      ],
      "name": "approve",
      "outputs": [],
      "stateMutability": "nonpayable",
      "type": "function"
    },
    {
      "inputs": [
        {
          "internalType": "address",
          "name": "owner",
          "type": "address"
        }
      ],
      "name": "balanceOf",
      "outputs": [
        {
          "internalType": "uint256",
          "name": "",
          "type": "uint256"
        }
      ],
      "stateMutability": "view",
      "type": "function"
    },
    {
      "inputs": [
        {
          "internalType": "uint256",
          "name": "tokenId",
          "type": "uint256"
        }
      ],
      "name": "getApproved",
      "outputs": [
        {
          "internalType": "address",
          "name": "",
          "type": "address"
        }
      ],
      "stateMutability": "view",
      "type": "function"
    },
    {
      "inputs": [],
      "name": "name",
      "outputs": [
        {
          "internalType": "string",
          "name": "",
          "type": "string"
        }
      ],
      "stateMutability": "view",
      "type": "function"
    },
    {
      "inputs": [
        {
          "internalType": "uint256",
          "name": "tokenId",
          "type": "uint256"
        }
      ],
      "name": "ownerOf",
      "outputs": [
        {
          "internalType": "address",
          "name": "",
          "type": "address"
        }
      ],
      "stateMutability": "view",
      "type": "function"
    },
    {
      "inputs": [
        {
          "internalType": "address",
          "name": "from",
          "type": "address"
        },
        {
          "internalType": "address",
          "name": "to",
          "type": "address"
        },
        {
          "internalType": "uint256",
          "name": "tokenId",
          "type": "uint256"
        }
      ],
      "name": "safeTransferFrom",
      "outputs": [],
      "stateMutability": "nonpayable",
      "type": "function"
    },
    {
      "inputs": [
        {
          "internalType": "address",
          "name": "from",
          "type": "address"
        },
        {
          "internalType": "address",
          "name": "to",
          "type": "address"
        },
        {
          "internalType": "uint256",
          "name": "tokenId",
          "type": "uint256"
        },
        {
          "internalType": "bytes",
          "name": "_data",
          "type": "bytes"
        }
      ],
      "name": "safeTransferFrom",
      "outputs": [],
      "stateMutability": "nonpayable",
      "type": "function"
    },
    {
      "inputs": [],
      "name": "symbol",
      "outputs": [
        {
          "internalType": "string",
          "name": "",
          "type": "string"
        }
      ],
      "stateMutability": "view",
      "type": "function"
    },
    {
      "inputs": [
        {
          "internalType": "uint256",
          "name": "tokenId",
          "type": "uint256"
        }
      ],
      "name": "tokenURI",
      "outputs": [
        {
          "internalType": "string",
          "name": "",
          "type": "string"
        }
      ],
      "stateMutability": "view",
      "type": "function"
    },
    {
      "inputs": [
        {
          "internalType": "address",
          "name": "from",
          "type": "address"
        },
        {
          "internalType": "address",
          "name": "to",
          "type": "address"
        },
        {
          "internalType": "uint256",
          "name": "tokenId",
          "type": "uint256"
        }
      ],
      "name": "transferFrom",
      "outputs": [],
      "stateMutability": "nonpayable",
      "type": "function"
    }
  ],
  "bytecode": "0x608060405234801561001057600080fd5b50611ff4806100206000396000f3fe608060405234801561001057600080fd5b506004361061009e5760003560e01c80636352211e116100665780636352211e1461014557806370a082311461017557806395d89b41146101a5578063b88d4fde146101c3578063c87b56dd146101df5761009e565b806306fdde03146100a3578063081812fc146100c1578063095ea7b3146100f157806323b872dd1461010d57806342842e0e14610129575b600080fd5b6100ab61020f565b6040516100b8919061120c565b60405180910390f35b6100db60048036038101906100d69190611278565b6102b0565b6040516100e891906112e6565b60405180910390f35b61010b6004803603810190610106919061132d565b610344565b005b6101276004803603810190610122919061136d565b6104df565b005b610143600480360381019061013e919061136d565b61053f565b005b61015f600480360381019061015a9190611278565b61055f565b60405161016c91906112e6565b60405180910390f35b61018f600480360381019061018a91906113c0565b610620565b60405161019c91906113fc565b60405180910390f35b6101ad6106e7565b6040516101ba919061120c565b60405180910390f35b6101dd60048036038101906101d8919061154c565b610788565b005b6101f960048036038101906101f49190611278565b6107ea565b604051610206919061120c565b60405180910390f35b6060600061021b610891565b905080600001805461022c906115fe565b80601f0160208091040260200160405190810160405280929190818152602001828054610258906115fe565b80156102a55780601f1061027a576101008083540402835291602001916102a5565b820191906000526020600020905b81548152906001019060200180831161028857829003601f168201915b505050505091505090565b60006102bb826108be565b6102fa576040517f08c379a00000000000000000000000000000000000000000000000000000000081526004016102f1906116a2565b60405180910390fd5b6000610304610891565b905080600401600084815260200190815260200160002060009054906101000a900473ffffffffffffffffffffffffffffffffffffffff16915050919050565b600061034f8261055f565b90508073ffffffffffffffffffffffffffffffffffffffff168373ffffffffffffffffffffffffffffffffffffffff1614156103c0576040517f08c379a00000000000000000000000000000000000000000000000000000000081526004016103b790611734565b60405180910390fd5b8073ffffffffffffffffffffffffffffffffffffffff166103df610939565b73ffffffffffffffffffffffffffffffffffffffff1614806104915750600060010160008273ffffffffffffffffffffffffffffffffffffffff1673ffffffffffffffffffffffffffffffffffffffff1681526020019081526020016000206000610448610939565b73ffffffffffffffffffffffffffffffffffffffff1673ffffffffffffffffffffffffffffffffffffffff16815260200190815260200160002060009054906101000a900460ff165b6104d0576040517f08c379a00000000000000000000000000000000000000000000000000000000081526004016104c7906117c6565b60405180910390fd5b6104da8383610941565b505050565b6104f06104ea610939565b82610a09565b61052f576040517f08c379a000000000000000000000000000000000000000000000000000000000815260040161052690611858565b60405180910390fd5b61053a838383610b71565b505050565b61055a83838360405180602001604052806000815250610788565b505050565b60008061056a610891565b9050600081600201600085815260200190815260200160002060009054906101000a900473ffffffffffffffffffffffffffffffffffffffff169050600073ffffffffffffffffffffffffffffffffffffffff168173ffffffffffffffffffffffffffffffffffffffff161415610616576040517f08c379a000000000000000000000000000000000000000000000000000000000815260040161060d906118ea565b60405180910390fd5b8092505050919050565b60008073ffffffffffffffffffffffffffffffffffffffff168273ffffffffffffffffffffffffffffffffffffffff161415610691576040517f08c379a00000000000000000000000000000000000000000000000000000000081526004016106889061197c565b60405180910390fd5b600061069b610891565b90508060030160008473ffffffffffffffffffffffffffffffffffffffff1673ffffffffffffffffffffffffffffffffffffffff16815260200190815260200160002054915050919050565b606060006106f3610891565b9050806001018054610704906115fe565b80601f0160208091040260200160405190810160405280929190818152602001828054610730906115fe565b801561077d5780601f106107525761010080835404028352916020019161077d565b820191906000526020600020905b81548152906001019060200180831161076057829003601f168201915b505050505091505090565b610799610793610939565b83610a09565b6107d8576040517f08c379a00000000000000000000000000000000000000000000000000000000081526004016107cf90611858565b60405180910390fd5b6107e484848484610de0565b50505050565b60606107f5826108be565b610834576040517f08c379a000000000000000000000000000000000000000000000000000000000815260040161082b90611a0e565b60405180910390fd5b600061083e610e3c565b9050600081511161085e5760405180602001604052806000815250610889565b8061086884610e53565b604051602001610879929190611a6a565b6040516020818303038152906040525b915050919050565b6000807f27d4b8eb827745c1478e1390415e0b68ca5ace988a610b45757dd674616b25ad90508091505090565b6000806108c9610891565b9050600073ffffffffffffffffffffffffffffffffffffffff1681600201600085815260200190815260200160002060009054906101000a900473ffffffffffffffffffffffffffffffffffffffff1673ffffffffffffffffffffffffffffffffffffffff161415915050919050565b600033905090565b600061094b610891565b90508281600401600084815260200190815260200160002060006101000a81548173ffffffffffffffffffffffffffffffffffffffff021916908373ffffffffffffffffffffffffffffffffffffffff160217905550818373ffffffffffffffffffffffffffffffffffffffff166109c28461055f565b73ffffffffffffffffffffffffffffffffffffffff167f8c5be1e5ebec7d5bd14f71427d1e84f3dd0314c0f7b2291e5b200ac8c7c3b92560405160405180910390a4505050565b6000610a14826108be565b610a53576040517f08c379a0000000000000000000000000000000000000000000000000000000008152600401610a4a90611b00565b60405180910390fd5b6000610a5e8361055f565b90508073ffffffffffffffffffffffffffffffffffffffff168473ffffffffffffffffffffffffffffffffffffffff161480610acd57508373ffffffffffffffffffffffffffffffffffffffff16610ab5846102b0565b73ffffffffffffffffffffffffffffffffffffffff16145b80610b685750600060010160008273ffffffffffffffffffffffffffffffffffffffff1673ffffffffffffffffffffffffffffffffffffffff1681526020019081526020016000206000610b1f610939565b73ffffffffffffffffffffffffffffffffffffffff1673ffffffffffffffffffffffffffffffffffffffff16815260200190815260200160002060009054906101000a900460ff165b91505092915050565b8273ffffffffffffffffffffffffffffffffffffffff16610b918261055f565b73ffffffffffffffffffffffffffffffffffffffff1614610be7576040517f08c379a0000000000000000000000000000000000000000000000000000000008152600401610bde90611b92565b60405180910390fd5b600073ffffffffffffffffffffffffffffffffffffffff168273ffffffffffffffffffffffffffffffffffffffff161415610c57576040517f08c379a0000000000000000000000000000000000000000000000000000000008152600401610c4e90611c24565b60405180910390fd5b610c62838383610fb4565b610c6d600082610941565b6000610c77610891565b905060018160030160008673ffffffffffffffffffffffffffffffffffffffff1673ffffffffffffffffffffffffffffffffffffffff1681526020019081526020016000206000828254610ccb9190611c73565b9250508190555060018160030160008573ffffffffffffffffffffffffffffffffffffffff1673ffffffffffffffffffffffffffffffffffffffff1681526020019081526020016000206000828254610d249190611ca7565b925050819055508281600201600084815260200190815260200160002060006101000a81548173ffffffffffffffffffffffffffffffffffffffff021916908373ffffffffffffffffffffffffffffffffffffffff160217905550818373ffffffffffffffffffffffffffffffffffffffff168573ffffffffffffffffffffffffffffffffffffffff167fddf252ad1be2c89b69c2b068fc378daa952ba7f163c4a11628f55a4df523b3ef60405160405180910390a450505050565b610deb848484610b71565b610df784848484610fb9565b610e36576040517f08c379a0000000000000000000000000000000000000000000000000000000008152600401610e2d90611d6f565b60405180910390fd5b50505050565b606060405180602001604052806000815250905090565b60606000821415610e9b576040518060400160405280600181526020017f30000000000000000000000000000000000000000000000000000000000000008152509050610faf565b600082905060005b60008214610ecd578080610eb690611d8f565b915050600a82610ec69190611e07565b9150610ea3565b60008167ffffffffffffffff811115610ee957610ee8611421565b5b6040519080825280601f01601f191660200182016040528015610f1b5781602001600182028036833780820191505090505b5090505b60008514610fa857600182610f349190611c73565b9150600a85610f439190611e38565b6030610f4f9190611ca7565b60f81b818381518110610f6557610f64611e69565b5b60200101907effffffffffffffffffffffffffffffffffffffffffffffffffffffffffffff1916908160001a905350600a85610fa19190611e07565b9450610f1f565b8093505050505b919050565b505050565b6000610fda8473ffffffffffffffffffffffffffffffffffffffff16611150565b15611143578373ffffffffffffffffffffffffffffffffffffffff1663150b7a02611003610939565b8786866040518563ffffffff1660e01b81526004016110259493929190611eed565b602060405180830381600087803b15801561103f57600080fd5b505af192505050801561107057506040513d601f19601f8201168201806040525081019061106d9190611f91565b60015b6110f3573d80600081146110a0576040519150601f19603f3d011682016040523d82523d6000602084013e6110a5565b606091505b506000815114156110eb576040517f08c379a00000000000000000000000000000000000000000000000000000000081526004016110e290611d6f565b60405180910390fd5b805181602001fd5b63150b7a0260e01b7bffffffffffffffffffffffffffffffffffffffffffffffffffffffff1916817bffffffffffffffffffffffffffffffffffffffffffffffffffffffff191614915050611148565b600190505b949350505050565b6000808273ffffffffffffffffffffffffffffffffffffffff163b119050919050565b600081519050919050565b600082825260208201905092915050565b60005b838110156111ad578082015181840152602081019050611192565b838111156111bc576000848401525b50505050565b6000601f19601f8301169050919050565b60006111de82611173565b6111e8818561117e565b93506111f881856020860161118f565b611201816111c2565b840191505092915050565b6000602082019050818103600083015261122681846111d3565b905092915050565b6000604051905090565b600080fd5b600080fd5b6000819050919050565b61125581611242565b811461126057600080fd5b50565b6000813590506112728161124c565b92915050565b60006020828403121561128e5761128d611238565b5b600061129c84828501611263565b91505092915050565b600073ffffffffffffffffffffffffffffffffffffffff82169050919050565b60006112d0826112a5565b9050919050565b6112e0816112c5565b82525050565b60006020820190506112fb60008301846112d7565b92915050565b61130a816112c5565b811461131557600080fd5b50565b60008135905061132781611301565b92915050565b6000806040838503121561134457611343611238565b5b600061135285828601611318565b925050602061136385828601611263565b9150509250929050565b60008060006060848603121561138657611385611238565b5b600061139486828701611318565b93505060206113a586828701611318565b92505060406113b686828701611263565b9150509250925092565b6000602082840312156113d6576113d5611238565b5b60006113e484828501611318565b91505092915050565b6113f681611242565b82525050565b600060208201905061141160008301846113ed565b92915050565b600080fd5b600080fd5b7f4e487b7100000000000000000000000000000000000000000000000000000000600052604160045260246000fd5b611459826111c2565b810181811067ffffffffffffffff8211171561147857611477611421565b5b80604052505050565b600061148b61122e565b90506114978282611450565b919050565b600067ffffffffffffffff8211156114b7576114b6611421565b5b6114c0826111c2565b9050602081019050919050565b82818337600083830152505050565b60006114ef6114ea8461149c565b611481565b90508281526020810184848401111561150b5761150a61141c565b5b6115168482856114cd565b509392505050565b600082601f83011261153357611532611417565b5b81356115438482602086016114dc565b91505092915050565b6000806000806080858703121561156657611565611238565b5b600061157487828801611318565b945050602061158587828801611318565b935050604061159687828801611263565b925050606085013567ffffffffffffffff8111156115b7576115b661123d565b5b6115c38782880161151e565b91505092959194509250565b7f4e487b7100000000000000000000000000000000000000000000000000000000600052602260045260246000fd5b6000600282049050600182168061161657607f821691505b6020821081141561162a576116296115cf565b5b50919050565b7f4552433732313a20617070726f76656420717565727920666f72206e6f6e657860008201527f697374656e7420746f6b656e0000000000000000000000000000000000000000602082015250565b600061168c602c8361117e565b915061169782611630565b604082019050919050565b600060208201905081810360008301526116bb8161167f565b9050919050565b7f4552433732313a20617070726f76616c20746f2063757272656e74206f776e6560008201527f7200000000000000000000000000000000000000000000000000000000000000602082015250565b600061171e60218361117e565b9150611729826116c2565b604082019050919050565b6000602082019050818103600083015261174d81611711565b9050919050565b7f4552433732313a20617070726f76652063616c6c6572206973206e6f74206f7760008201527f6e6572206e6f7220617070726f76656420666f7220616c6c0000000000000000602082015250565b60006117b060388361117e565b91506117bb82611754565b604082019050919050565b600060208201905081810360008301526117df816117a3565b9050919050565b7f4552433732313a207472616e736665722063616c6c6572206973206e6f74206f60008201527f776e6572206e6f7220617070726f766564000000000000000000000000000000602082015250565b600061184260318361117e565b915061184d826117e6565b604082019050919050565b6000602082019050818103600083015261187181611835565b9050919050565b7f4552433732313a206f776e657220717565727920666f72206e6f6e657869737460008201527f656e7420746f6b656e0000000000000000000000000000000000000000000000602082015250565b60006118d460298361117e565b91506118df82611878565b604082019050919050565b60006020820190508181036000830152611903816118c7565b9050919050565b7f4552433732313a2062616c616e636520717565727920666f7220746865207a6560008201527f726f206164647265737300000000000000000000000000000000000000000000602082015250565b6000611966602a8361117e565b91506119718261190a565b604082019050919050565b6000602082019050818103600083015261199581611959565b9050919050565b7f4552433732314d657461646174613a2055524920717565727920666f72206e6f60008201527f6e6578697374656e7420746f6b656e0000000000000000000000000000000000602082015250565b60006119f8602f8361117e565b9150611a038261199c565b604082019050919050565b60006020820190508181036000830152611a27816119eb565b9050919050565b600081905092915050565b6000611a4482611173565b611a4e8185611a2e565b9350611a5e81856020860161118f565b80840191505092915050565b6000611a768285611a39565b9150611a828284611a39565b91508190509392505050565b7f4552433732313a206f70657261746f7220717565727920666f72206e6f6e657860008201527f697374656e7420746f6b656e0000000000000000000000000000000000000000602082015250565b6000611aea602c8361117e565b9150611af582611a8e565b604082019050919050565b60006020820190508181036000830152611b1981611add565b9050919050565b7f4552433732313a207472616e73666572206f6620746f6b656e2074686174206960008201527f73206e6f74206f776e0000000000000000000000000000000000000000000000602082015250565b6000611b7c60298361117e565b9150611b8782611b20565b604082019050919050565b60006020820190508181036000830152611bab81611b6f565b9050919050565b7f4552433732313a207472616e7366657220746f20746865207a65726f2061646460008201527f7265737300000000000000000000000000000000000000000000000000000000602082015250565b6000611c0e60248361117e565b9150611c1982611bb2565b604082019050919050565b60006020820190508181036000830152611c3d81611c01565b9050919050565b7f4e487b7100000000000000000000000000000000000000000000000000000000600052601160045260246000fd5b6000611c7e82611242565b9150611c8983611242565b925082821015611c9c57611c9b611c44565b5b828203905092915050565b6000611cb282611242565b9150611cbd83611242565b9250827fffffffffffffffffffffffffffffffffffffffffffffffffffffffffffffffff03821115611cf257611cf1611c44565b5b828201905092915050565b7f4552433732313a207472616e7366657220746f206e6f6e20455243373231526560008201527f63656976657220696d706c656d656e7465720000000000000000000000000000602082015250565b6000611d5960328361117e565b9150611d6482611cfd565b604082019050919050565b60006020820190508181036000830152611d8881611d4c565b9050919050565b6000611d9a82611242565b91507fffffffffffffffffffffffffffffffffffffffffffffffffffffffffffffffff821415611dcd57611dcc611c44565b5b600182019050919050565b7f4e487b7100000000000000000000000000000000000000000000000000000000600052601260045260246000fd5b6000611e1282611242565b9150611e1d83611242565b925082611e2d57611e2c611dd8565b5b828204905092915050565b6000611e4382611242565b9150611e4e83611242565b925082611e5e57611e5d611dd8565b5b828206905092915050565b7f4e487b7100000000000000000000000000000000000000000000000000000000600052603260045260246000fd5b600081519050919050565b600082825260208201905092915050565b6000611ebf82611e98565b611ec98185611ea3565b9350611ed981856020860161118f565b611ee2816111c2565b840191505092915050565b6000608082019050611f0260008301876112d7565b611f0f60208301866112d7565b611f1c60408301856113ed565b8181036060830152611f2e8184611eb4565b905095945050505050565b60007fffffffff0000000000000000000000000000000000000000000000000000000082169050919050565b611f6e81611f39565b8114611f7957600080fd5b50565b600081519050611f8b81611f65565b92915050565b600060208284031215611fa757611fa6611238565b5b6000611fb584828501611f7c565b9150509291505056fea2646970667358221220ad53f2574e85f2ef262a57f78f9b558b2e4e1983ace2e82fd5e0150a7f8d55ad64736f6c63430008090033",
  "linkReferences": {},
  "deployedLinkReferences": {}
}