{
  "_format": "hh-sol-artifact-1",
  "contractName": "ERC721Facet",
  "sourceName": "contracts/facets/ERC721/ERC721Facet.sol",
  "abi": [
    {
      "anonymous": false,
      "inputs": [
        {
          "indexed": true,
          "internalType": "address",
          "name": "owner",
          "type": "address"
        },
        {
          "indexed": true,
          "internalType": "address",
          "name": "approved",
          "type": "address"
        },
        {
          "indexed": true,
          "internalType": "uint256",
          "name": "tokenId",
          "type": "uint256"
        }
      ],
      "name": "Approval",
      "type": "event"
    },
    {
      "anonymous": false,
      "inputs": [
        {
          "indexed": true,
          "internalType": "address",
          "name": "owner",
          "type": "address"
        },
        {
          "indexed": true,
          "internalType": "address",
          "name": "operator",
          "type": "address"
        },
        {
          "indexed": false,
          "internalType": "bool",
          "name": "approved",
          "type": "bool"
        }
      ],
      "name": "ApprovalForAll",
      "type": "event"
    },
    {
      "anonymous": false,
      "inputs": [
        {
          "indexed": true,
          "internalType": "address",
          "name": "from",
          "type": "address"
        },
        {
          "indexed": true,
          "internalType": "address",
          "name": "to",
          "type": "address"
        },
        {
          "indexed": true,
          "internalType": "uint256",
          "name": "tokenId",
          "type": "uint256"
        }
      ],
      "name": "Transfer",
      "type": "event"
    },
    {
      "inputs": [
        {
          "internalType": "address",
          "name": "to",
          "type": "address"
        },
        {
          "internalType": "uint256",
          "name": "tokenId",
          "type": "uint256"
        }
      ],
      "name": "approve",
      "outputs": [],
      "stateMutability": "nonpayable",
      "type": "function"
    },
    {
      "inputs": [
        {
          "internalType": "address",
          "name": "owner",
          "type": "address"
        }
      ],
      "name": "balanceOf",
      "outputs": [
        {
          "internalType": "uint256",
          "name": "",
          "type": "uint256"
        }
      ],
      "stateMutability": "view",
      "type": "function"
    },
    {
      "inputs": [
        {
          "internalType": "uint256",
          "name": "tokenId",
          "type": "uint256"
        }
      ],
      "name": "getApproved",
      "outputs": [
        {
          "internalType": "address",
          "name": "",
          "type": "address"
        }
      ],
      "stateMutability": "view",
      "type": "function"
    },
    {
      "inputs": [],
      "name": "name",
      "outputs": [
        {
          "internalType": "string",
          "name": "",
          "type": "string"
        }
      ],
      "stateMutability": "view",
      "type": "function"
    },
    {
      "inputs": [
        {
          "internalType": "uint256",
          "name": "tokenId",
          "type": "uint256"
        }
      ],
      "name": "ownerOf",
      "outputs": [
        {
          "internalType": "address",
          "name": "",
          "type": "address"
        }
      ],
      "stateMutability": "view",
      "type": "function"
    },
    {
      "inputs": [
        {
          "internalType": "address",
          "name": "from",
          "type": "address"
        },
        {
          "internalType": "address",
          "name": "to",
          "type": "address"
        },
        {
          "internalType": "uint256",
          "name": "tokenId",
          "type": "uint256"
        }
      ],
      "name": "safeTransferFrom",
      "outputs": [],
      "stateMutability": "nonpayable",
      "type": "function"
    },
    {
      "inputs": [
        {
          "internalType": "address",
          "name": "from",
          "type": "address"
        },
        {
          "internalType": "address",
          "name": "to",
          "type": "address"
        },
        {
          "internalType": "uint256",
          "name": "tokenId",
          "type": "uint256"
        },
        {
          "internalType": "bytes",
          "name": "_data",
          "type": "bytes"
        }
      ],
      "name": "safeTransferFrom",
      "outputs": [],
      "stateMutability": "nonpayable",
      "type": "function"
    },
    {
      "inputs": [
        {
          "internalType": "address",
          "name": "operator",
          "type": "address"
        },
        {
          "internalType": "bool",
          "name": "approved",
          "type": "bool"
        }
      ],
      "name": "setApprovalForAll",
      "outputs": [],
      "stateMutability": "nonpayable",
      "type": "function"
    },
    {
      "inputs": [],
      "name": "symbol",
      "outputs": [
        {
          "internalType": "string",
          "name": "",
          "type": "string"
        }
      ],
      "stateMutability": "view",
      "type": "function"
    },
    {
      "inputs": [
        {
          "internalType": "uint256",
          "name": "tokenId",
          "type": "uint256"
        }
      ],
      "name": "tokenURI",
      "outputs": [
        {
          "internalType": "string",
          "name": "",
          "type": "string"
        }
      ],
      "stateMutability": "view",
      "type": "function"
    },
    {
      "inputs": [
        {
          "internalType": "address",
          "name": "from",
          "type": "address"
        },
        {
          "internalType": "address",
          "name": "to",
          "type": "address"
        },
        {
          "internalType": "uint256",
          "name": "tokenId",
          "type": "uint256"
        }
      ],
      "name": "transferFrom",
      "outputs": [],
      "stateMutability": "nonpayable",
      "type": "function"
    }
  ],
  "bytecode": "0x608060405234801561001057600080fd5b506121cb806100206000396000f3fe608060405234801561001057600080fd5b50600436106100a95760003560e01c80636352211e116100715780636352211e1461015057806370a082311461018057806395d89b41146101b0578063a22cb465146101ce578063b88d4fde146101ea578063c87b56dd14610206576100a9565b806306fdde03146100ae578063081812fc146100cc578063095ea7b3146100fc57806323b872dd1461011857806342842e0e14610134575b600080fd5b6100b6610236565b6040516100c39190611840565b60405180910390f35b6100e660048036038101906100e1919061151c565b6102d7565b6040516100f391906117be565b60405180910390f35b610116600480360381019061011191906114af565b61036b565b005b610132600480360381019061012d9190611399565b610506565b005b61014e60048036038101906101499190611399565b610566565b005b61016a6004803603810190610165919061151c565b610586565b60405161017791906117be565b60405180910390f35b61019a6004803603810190610195919061136c565b610647565b6040516101a791906119c2565b60405180910390f35b6101b861070e565b6040516101c59190611840565b60405180910390f35b6101e860048036038101906101e3919061146f565b6107af565b005b61020460048036038101906101ff91906113ec565b6108bd565b005b610220600480360381019061021b919061151c565b61091f565b60405161022d9190611840565b60405180910390f35b606060006102426109c6565b905080600001805461025390611be7565b80601f016020809104026020016040519081016040528092919081815260200182805461027f90611be7565b80156102cc5780601f106102a1576101008083540402835291602001916102cc565b820191906000526020600020905b8154815290600101906020018083116102af57829003601f168201915b505050505091505090565b60006102e2826109f3565b610321576040517f08c379a000000000000000000000000000000000000000000000000000000000815260040161031890611922565b60405180910390fd5b600061032b6109c6565b905080600401600084815260200190815260200160002060009054906101000a900473ffffffffffffffffffffffffffffffffffffffff16915050919050565b600061037682610586565b90508073ffffffffffffffffffffffffffffffffffffffff168373ffffffffffffffffffffffffffffffffffffffff1614156103e7576040517f08c379a00000000000000000000000000000000000000000000000000000000081526004016103de90611982565b60405180910390fd5b8073ffffffffffffffffffffffffffffffffffffffff16610406610a6e565b73ffffffffffffffffffffffffffffffffffffffff1614806104b85750600060010160008273ffffffffffffffffffffffffffffffffffffffff1673ffffffffffffffffffffffffffffffffffffffff168152602001908152602001600020600061046f610a6e565b73ffffffffffffffffffffffffffffffffffffffff1673ffffffffffffffffffffffffffffffffffffffff16815260200190815260200160002060009054906101000a900460ff165b6104f7576040517f08c379a00000000000000000000000000000000000000000000000000000000081526004016104ee906118c2565b60405180910390fd5b6105018383610a76565b505050565b610517610511610a6e565b82610b3e565b610556576040517f08c379a000000000000000000000000000000000000000000000000000000000815260040161054d906119a2565b60405180910390fd5b610561838383610ca6565b505050565b610581838383604051806020016040528060008152506108bd565b505050565b6000806105916109c6565b9050600081600201600085815260200190815260200160002060009054906101000a900473ffffffffffffffffffffffffffffffffffffffff169050600073ffffffffffffffffffffffffffffffffffffffff168173ffffffffffffffffffffffffffffffffffffffff16141561063d576040517f08c379a000000000000000000000000000000000000000000000000000000000815260040161063490611902565b60405180910390fd5b8092505050919050565b60008073ffffffffffffffffffffffffffffffffffffffff168273ffffffffffffffffffffffffffffffffffffffff1614156106b8576040517f08c379a00000000000000000000000000000000000000000000000000000000081526004016106af906118e2565b60405180910390fd5b60006106c26109c6565b90508060030160008473ffffffffffffffffffffffffffffffffffffffff1673ffffffffffffffffffffffffffffffffffffffff16815260200190815260200160002054915050919050565b6060600061071a6109c6565b905080600101805461072b90611be7565b80601f016020809104026020016040519081016040528092919081815260200182805461075790611be7565b80156107a45780601f10610779576101008083540402835291602001916107a4565b820191906000526020600020905b81548152906001019060200180831161078757829003601f168201915b505050505091505090565b80600060010160006107bf610a6e565b73ffffffffffffffffffffffffffffffffffffffff1673ffffffffffffffffffffffffffffffffffffffff16815260200190815260200160002060008473ffffffffffffffffffffffffffffffffffffffff1673ffffffffffffffffffffffffffffffffffffffff16815260200190815260200160002060006101000a81548160ff0219169083151502179055508173ffffffffffffffffffffffffffffffffffffffff1661086c610a6e565b73ffffffffffffffffffffffffffffffffffffffff167f17307eab39ab6107e8899845ad3d59bd9653f200f220920489ca2b5937696c31836040516108b19190611825565b60405180910390a35050565b6108ce6108c8610a6e565b83610b3e565b61090d576040517f08c379a0000000000000000000000000000000000000000000000000000000008152600401610904906119a2565b60405180910390fd5b61091984848484610f15565b50505050565b606061092a826109f3565b610969576040517f08c379a000000000000000000000000000000000000000000000000000000000815260040161096090611962565b60405180910390fd5b6000610973610f71565b9050600081511161099357604051806020016040528060008152506109be565b8061099d84610f88565b6040516020016109ae92919061179a565b6040516020818303038152906040525b915050919050565b6000807f27d4b8eb827745c1478e1390415e0b68ca5ace988a610b45757dd674616b25ad90508091505090565b6000806109fe6109c6565b9050600073ffffffffffffffffffffffffffffffffffffffff1681600201600085815260200190815260200160002060009054906101000a900473ffffffffffffffffffffffffffffffffffffffff1673ffffffffffffffffffffffffffffffffffffffff161415915050919050565b600033905090565b6000610a806109c6565b90508281600401600084815260200190815260200160002060006101000a81548173ffffffffffffffffffffffffffffffffffffffff021916908373ffffffffffffffffffffffffffffffffffffffff160217905550818373ffffffffffffffffffffffffffffffffffffffff16610af784610586565b73ffffffffffffffffffffffffffffffffffffffff167f8c5be1e5ebec7d5bd14f71427d1e84f3dd0314c0f7b2291e5b200ac8c7c3b92560405160405180910390a4505050565b6000610b49826109f3565b610b88576040517f08c379a0000000000000000000000000000000000000000000000000000000008152600401610b7f906118a2565b60405180910390fd5b6000610b9383610586565b90508073ffffffffffffffffffffffffffffffffffffffff168473ffffffffffffffffffffffffffffffffffffffff161480610c0257508373ffffffffffffffffffffffffffffffffffffffff16610bea846102d7565b73ffffffffffffffffffffffffffffffffffffffff16145b80610c9d5750600060010160008273ffffffffffffffffffffffffffffffffffffffff1673ffffffffffffffffffffffffffffffffffffffff1681526020019081526020016000206000610c54610a6e565b73ffffffffffffffffffffffffffffffffffffffff1673ffffffffffffffffffffffffffffffffffffffff16815260200190815260200160002060009054906101000a900460ff165b91505092915050565b8273ffffffffffffffffffffffffffffffffffffffff16610cc682610586565b73ffffffffffffffffffffffffffffffffffffffff1614610d1c576040517f08c379a0000000000000000000000000000000000000000000000000000000008152600401610d1390611942565b60405180910390fd5b600073ffffffffffffffffffffffffffffffffffffffff168273ffffffffffffffffffffffffffffffffffffffff161415610d8c576040517f08c379a0000000000000000000000000000000000000000000000000000000008152600401610d8390611882565b60405180910390fd5b610d978383836110e9565b610da2600082610a76565b6000610dac6109c6565b905060018160030160008673ffffffffffffffffffffffffffffffffffffffff1673ffffffffffffffffffffffffffffffffffffffff1681526020019081526020016000206000828254610e009190611afd565b9250508190555060018160030160008573ffffffffffffffffffffffffffffffffffffffff1673ffffffffffffffffffffffffffffffffffffffff1681526020019081526020016000206000828254610e599190611a76565b925050819055508281600201600084815260200190815260200160002060006101000a81548173ffffffffffffffffffffffffffffffffffffffff021916908373ffffffffffffffffffffffffffffffffffffffff160217905550818373ffffffffffffffffffffffffffffffffffffffff168573ffffffffffffffffffffffffffffffffffffffff167fddf252ad1be2c89b69c2b068fc378daa952ba7f163c4a11628f55a4df523b3ef60405160405180910390a450505050565b610f20848484610ca6565b610f2c848484846110ee565b610f6b576040517f08c379a0000000000000000000000000000000000000000000000000000000008152600401610f6290611862565b60405180910390fd5b50505050565b606060405180602001604052806000815250905090565b60606000821415610fd0576040518060400160405280600181526020017f300000000000000000000000000000000000000000000000000000000000000081525090506110e4565b600082905060005b60008214611002578080610feb90611c4a565b915050600a82610ffb9190611acc565b9150610fd8565b60008167ffffffffffffffff81111561101e5761101d611d80565b5b6040519080825280601f01601f1916602001820160405280156110505781602001600182028036833780820191505090505b5090505b600085146110dd576001826110699190611afd565b9150600a856110789190611c93565b60306110849190611a76565b60f81b81838151811061109a57611099611d51565b5b60200101907effffffffffffffffffffffffffffffffffffffffffffffffffffffffffffff1916908160001a905350600a856110d69190611acc565b9450611054565b8093505050505b919050565b505050565b600061110f8473ffffffffffffffffffffffffffffffffffffffff16611285565b15611278578373ffffffffffffffffffffffffffffffffffffffff1663150b7a02611138610a6e565b8786866040518563ffffffff1660e01b815260040161115a94939291906117d9565b602060405180830381600087803b15801561117457600080fd5b505af19250505080156111a557506040513d601f19601f820116820180604052508101906111a291906114ef565b60015b611228573d80600081146111d5576040519150601f19603f3d011682016040523d82523d6000602084013e6111da565b606091505b50600081511415611220576040517f08c379a000000000000000000000000000000000000000000000000000000000815260040161121790611862565b60405180910390fd5b805181602001fd5b63150b7a0260e01b7bffffffffffffffffffffffffffffffffffffffffffffffffffffffff1916817bffffffffffffffffffffffffffffffffffffffffffffffffffffffff19161491505061127d565b600190505b949350505050565b6000808273ffffffffffffffffffffffffffffffffffffffff163b119050919050565b60006112bb6112b684611a02565b6119dd565b9050828152602081018484840111156112d7576112d6611db4565b5b6112e2848285611ba5565b509392505050565b6000813590506112f981612139565b92915050565b60008135905061130e81612150565b92915050565b60008151905061132381612167565b92915050565b600082601f83011261133e5761133d611daf565b5b813561134e8482602086016112a8565b91505092915050565b6000813590506113668161217e565b92915050565b60006020828403121561138257611381611dbe565b5b6000611390848285016112ea565b91505092915050565b6000806000606084860312156113b2576113b1611dbe565b5b60006113c0868287016112ea565b93505060206113d1868287016112ea565b92505060406113e286828701611357565b9150509250925092565b6000806000806080858703121561140657611405611dbe565b5b6000611414878288016112ea565b9450506020611425878288016112ea565b935050604061143687828801611357565b925050606085013567ffffffffffffffff81111561145757611456611db9565b5b61146387828801611329565b91505092959194509250565b6000806040838503121561148657611485611dbe565b5b6000611494858286016112ea565b92505060206114a5858286016112ff565b9150509250929050565b600080604083850312156114c6576114c5611dbe565b5b60006114d4858286016112ea565b92505060206114e585828601611357565b9150509250929050565b60006020828403121561150557611504611dbe565b5b600061151384828501611314565b91505092915050565b60006020828403121561153257611531611dbe565b5b600061154084828501611357565b91505092915050565b61155281611b31565b82525050565b61156181611b43565b82525050565b600061157282611a33565b61157c8185611a49565b935061158c818560208601611bb4565b61159581611dc3565b840191505092915050565b60006115ab82611a3e565b6115b58185611a5a565b93506115c5818560208601611bb4565b6115ce81611dc3565b840191505092915050565b60006115e482611a3e565b6115ee8185611a6b565b93506115fe818560208601611bb4565b80840191505092915050565b6000611617603283611a5a565b915061162282611dd4565b604082019050919050565b600061163a602483611a5a565b915061164582611e23565b604082019050919050565b600061165d602c83611a5a565b915061166882611e72565b604082019050919050565b6000611680603883611a5a565b915061168b82611ec1565b604082019050919050565b60006116a3602a83611a5a565b91506116ae82611f10565b604082019050919050565b60006116c6602983611a5a565b91506116d182611f5f565b604082019050919050565b60006116e9602c83611a5a565b91506116f482611fae565b604082019050919050565b600061170c602983611a5a565b915061171782611ffd565b604082019050919050565b600061172f602f83611a5a565b915061173a8261204c565b604082019050919050565b6000611752602183611a5a565b915061175d8261209b565b604082019050919050565b6000611775603183611a5a565b9150611780826120ea565b604082019050919050565b61179481611b9b565b82525050565b60006117a682856115d9565b91506117b282846115d9565b91508190509392505050565b60006020820190506117d36000830184611549565b92915050565b60006080820190506117ee6000830187611549565b6117fb6020830186611549565b611808604083018561178b565b818103606083015261181a8184611567565b905095945050505050565b600060208201905061183a6000830184611558565b92915050565b6000602082019050818103600083015261185a81846115a0565b905092915050565b6000602082019050818103600083015261187b8161160a565b9050919050565b6000602082019050818103600083015261189b8161162d565b9050919050565b600060208201905081810360008301526118bb81611650565b9050919050565b600060208201905081810360008301526118db81611673565b9050919050565b600060208201905081810360008301526118fb81611696565b9050919050565b6000602082019050818103600083015261191b816116b9565b9050919050565b6000602082019050818103600083015261193b816116dc565b9050919050565b6000602082019050818103600083015261195b816116ff565b9050919050565b6000602082019050818103600083015261197b81611722565b9050919050565b6000602082019050818103600083015261199b81611745565b9050919050565b600060208201905081810360008301526119bb81611768565b9050919050565b60006020820190506119d7600083018461178b565b92915050565b60006119e76119f8565b90506119f38282611c19565b919050565b6000604051905090565b600067ffffffffffffffff821115611a1d57611a1c611d80565b5b611a2682611dc3565b9050602081019050919050565b600081519050919050565b600081519050919050565b600082825260208201905092915050565b600082825260208201905092915050565b600081905092915050565b6000611a8182611b9b565b9150611a8c83611b9b565b9250827fffffffffffffffffffffffffffffffffffffffffffffffffffffffffffffffff03821115611ac157611ac0611cc4565b5b828201905092915050565b6000611ad782611b9b565b9150611ae283611b9b565b925082611af257611af1611cf3565b5b828204905092915050565b6000611b0882611b9b565b9150611b1383611b9b565b925082821015611b2657611b25611cc4565b5b828203905092915050565b6000611b3c82611b7b565b9050919050565b60008115159050919050565b60007fffffffff0000000000000000000000000000000000000000000000000000000082169050919050565b600073ffffffffffffffffffffffffffffffffffffffff82169050919050565b6000819050919050565b82818337600083830152505050565b60005b83811015611bd2578082015181840152602081019050611bb7565b83811115611be1576000848401525b50505050565b60006002820490506001821680611bff57607f821691505b60208210811415611c1357611c12611d22565b5b50919050565b611c2282611dc3565b810181811067ffffffffffffffff82111715611c4157611c40611d80565b5b80604052505050565b6000611c5582611b9b565b91507fffffffffffffffffffffffffffffffffffffffffffffffffffffffffffffffff821415611c8857611c87611cc4565b5b600182019050919050565b6000611c9e82611b9b565b9150611ca983611b9b565b925082611cb957611cb8611cf3565b5b828206905092915050565b7f4e487b7100000000000000000000000000000000000000000000000000000000600052601160045260246000fd5b7f4e487b7100000000000000000000000000000000000000000000000000000000600052601260045260246000fd5b7f4e487b7100000000000000000000000000000000000000000000000000000000600052602260045260246000fd5b7f4e487b7100000000000000000000000000000000000000000000000000000000600052603260045260246000fd5b7f4e487b7100000000000000000000000000000000000000000000000000000000600052604160045260246000fd5b600080fd5b600080fd5b600080fd5b600080fd5b6000601f19601f8301169050919050565b7f4552433732313a207472616e7366657220746f206e6f6e20455243373231526560008201527f63656976657220696d706c656d656e7465720000000000000000000000000000602082015250565b7f4552433732313a207472616e7366657220746f20746865207a65726f2061646460008201527f7265737300000000000000000000000000000000000000000000000000000000602082015250565b7f4552433732313a206f70657261746f7220717565727920666f72206e6f6e657860008201527f697374656e7420746f6b656e0000000000000000000000000000000000000000602082015250565b7f4552433732313a20617070726f76652063616c6c6572206973206e6f74206f7760008201527f6e6572206e6f7220617070726f76656420666f7220616c6c0000000000000000602082015250565b7f4552433732313a2062616c616e636520717565727920666f7220746865207a6560008201527f726f206164647265737300000000000000000000000000000000000000000000602082015250565b7f4552433732313a206f776e657220717565727920666f72206e6f6e657869737460008201527f656e7420746f6b656e0000000000000000000000000000000000000000000000602082015250565b7f4552433732313a20617070726f76656420717565727920666f72206e6f6e657860008201527f697374656e7420746f6b656e0000000000000000000000000000000000000000602082015250565b7f4552433732313a207472616e73666572206f6620746f6b656e2074686174206960008201527f73206e6f74206f776e0000000000000000000000000000000000000000000000602082015250565b7f4552433732314d657461646174613a2055524920717565727920666f72206e6f60008201527f6e6578697374656e7420746f6b656e0000000000000000000000000000000000602082015250565b7f4552433732313a20617070726f76616c20746f2063757272656e74206f776e6560008201527f7200000000000000000000000000000000000000000000000000000000000000602082015250565b7f4552433732313a207472616e736665722063616c6c6572206973206e6f74206f60008201527f776e6572206e6f7220617070726f766564000000000000000000000000000000602082015250565b61214281611b31565b811461214d57600080fd5b50565b61215981611b43565b811461216457600080fd5b50565b61217081611b4f565b811461217b57600080fd5b50565b61218781611b9b565b811461219257600080fd5b5056fea26469706673582212200f05f292f5c85c0908879fa058ee1136961a4c00e704eb1eb051cb6c5bdf1c3464736f6c63430008060033",
  "linkReferences": {},
  "deployedLinkReferences": {}
}