{
  "_format": "hh-sol-artifact-1",
  "contractName": "ERC721Facet",
  "sourceName": "contracts/facets/ERC721/ERC721Facet.sol",
  "abi": [
    {
      "anonymous": false,
      "inputs": [
        {
          "indexed": true,
          "internalType": "address",
          "name": "owner",
          "type": "address"
        },
        {
          "indexed": true,
          "internalType": "address",
          "name": "approved",
          "type": "address"
        },
        {
          "indexed": true,
          "internalType": "uint256",
          "name": "tokenId",
          "type": "uint256"
        }
      ],
      "name": "Approval",
      "type": "event"
    },
    {
      "anonymous": false,
      "inputs": [
        {
          "indexed": true,
          "internalType": "address",
          "name": "owner",
          "type": "address"
        },
        {
          "indexed": true,
          "internalType": "address",
          "name": "operator",
          "type": "address"
        },
        {
          "indexed": false,
          "internalType": "bool",
          "name": "approved",
          "type": "bool"
        }
      ],
      "name": "ApprovalForAll",
      "type": "event"
    },
    {
      "anonymous": false,
      "inputs": [
        {
          "indexed": true,
          "internalType": "address",
          "name": "from",
          "type": "address"
        },
        {
          "indexed": true,
          "internalType": "address",
          "name": "to",
          "type": "address"
        },
        {
          "indexed": true,
          "internalType": "uint256",
          "name": "tokenId",
          "type": "uint256"
        }
      ],
      "name": "Transfer",
      "type": "event"
    },
    {
      "inputs": [
        {
          "internalType": "address",
          "name": "to",
          "type": "address"
        },
        {
          "internalType": "uint256",
          "name": "tokenId",
          "type": "uint256"
        }
      ],
      "name": "approve",
      "outputs": [],
      "stateMutability": "nonpayable",
      "type": "function"
    },
    {
      "inputs": [
        {
          "internalType": "address",
          "name": "owner",
          "type": "address"
        }
      ],
      "name": "balanceOf721",
      "outputs": [
        {
          "internalType": "uint256",
          "name": "",
          "type": "uint256"
        }
      ],
      "stateMutability": "view",
      "type": "function"
    },
    {
      "inputs": [
        {
          "internalType": "uint256",
          "name": "tokenId",
          "type": "uint256"
        }
      ],
      "name": "getApproved",
      "outputs": [
        {
          "internalType": "address",
          "name": "",
          "type": "address"
        }
      ],
      "stateMutability": "view",
      "type": "function"
    },
    {
      "inputs": [],
      "name": "name",
      "outputs": [
        {
          "internalType": "string",
          "name": "",
          "type": "string"
        }
      ],
      "stateMutability": "view",
      "type": "function"
    },
    {
      "inputs": [
        {
          "internalType": "uint256",
          "name": "tokenId",
          "type": "uint256"
        }
      ],
      "name": "ownerOf",
      "outputs": [
        {
          "internalType": "address",
          "name": "",
          "type": "address"
        }
      ],
      "stateMutability": "view",
      "type": "function"
    },
    {
      "inputs": [
        {
          "internalType": "address",
          "name": "from",
          "type": "address"
        },
        {
          "internalType": "address",
          "name": "to",
          "type": "address"
        },
        {
          "internalType": "uint256",
          "name": "tokenId",
          "type": "uint256"
        }
      ],
      "name": "safeTransferFrom721",
      "outputs": [],
      "stateMutability": "nonpayable",
      "type": "function"
    },
    {
      "inputs": [
        {
          "internalType": "address",
          "name": "from",
          "type": "address"
        },
        {
          "internalType": "address",
          "name": "to",
          "type": "address"
        },
        {
          "internalType": "uint256",
          "name": "tokenId",
          "type": "uint256"
        },
        {
          "internalType": "bytes",
          "name": "_data",
          "type": "bytes"
        }
      ],
      "name": "safeTransferFrom721",
      "outputs": [],
      "stateMutability": "nonpayable",
      "type": "function"
    },
    {
      "inputs": [
        {
          "internalType": "address",
          "name": "operator",
          "type": "address"
        },
        {
          "internalType": "bool",
          "name": "approved",
          "type": "bool"
        }
      ],
      "name": "setApprovalForAll721",
      "outputs": [],
      "stateMutability": "nonpayable",
      "type": "function"
    },
    {
      "inputs": [],
      "name": "symbol",
      "outputs": [
        {
          "internalType": "string",
          "name": "",
          "type": "string"
        }
      ],
      "stateMutability": "view",
      "type": "function"
    },
    {
      "inputs": [
        {
          "internalType": "uint256",
          "name": "tokenId",
          "type": "uint256"
        }
      ],
      "name": "tokenURI",
      "outputs": [
        {
          "internalType": "string",
          "name": "",
          "type": "string"
        }
      ],
      "stateMutability": "view",
      "type": "function"
    },
    {
      "inputs": [
        {
          "internalType": "address",
          "name": "from",
          "type": "address"
        },
        {
          "internalType": "address",
          "name": "to",
          "type": "address"
        },
        {
          "internalType": "uint256",
          "name": "tokenId",
          "type": "uint256"
        }
      ],
      "name": "transferFrom",
      "outputs": [],
      "stateMutability": "nonpayable",
      "type": "function"
    }
  ],
  "bytecode": "0x608060405234801561001057600080fd5b506121bc806100206000396000f3fe608060405234801561001057600080fd5b50600436106100a95760003560e01c806395d89b411161007157806395d89b4114610164578063c87b56dd14610182578063ce66cdf4146101b2578063e2e1d83b146101ce578063e4aa15cd146101fe578063f8116f001461021a576100a9565b806306fdde03146100ae578063081812fc146100cc578063095ea7b3146100fc57806323b872dd146101185780636352211e14610134575b600080fd5b6100b6610236565b6040516100c39190611332565b60405180910390f35b6100e660048036038101906100e1919061139e565b6102d7565b6040516100f3919061140c565b60405180910390f35b61011660048036038101906101119190611453565b61036b565b005b610132600480360381019061012d9190611493565b610506565b005b61014e6004803603810190610149919061139e565b610566565b60405161015b919061140c565b60405180910390f35b61016c610627565b6040516101799190611332565b60405180910390f35b61019c6004803603810190610197919061139e565b6106c8565b6040516101a99190611332565b60405180910390f35b6101cc60048036038101906101c79190611493565b61076f565b005b6101e860048036038101906101e391906114e6565b61078f565b6040516101f59190611522565b60405180910390f35b61021860048036038101906102139190611672565b610856565b005b610234600480360381019061022f919061172d565b6108b8565b005b606060006102426109c6565b90508060000180546102539061179c565b80601f016020809104026020016040519081016040528092919081815260200182805461027f9061179c565b80156102cc5780601f106102a1576101008083540402835291602001916102cc565b820191906000526020600020905b8154815290600101906020018083116102af57829003601f168201915b505050505091505090565b60006102e2826109f3565b610321576040517f08c379a000000000000000000000000000000000000000000000000000000000815260040161031890611840565b60405180910390fd5b600061032b6109c6565b905080600401600084815260200190815260200160002060009054906101000a900473ffffffffffffffffffffffffffffffffffffffff16915050919050565b600061037682610566565b90508073ffffffffffffffffffffffffffffffffffffffff168373ffffffffffffffffffffffffffffffffffffffff1614156103e7576040517f08c379a00000000000000000000000000000000000000000000000000000000081526004016103de906118d2565b60405180910390fd5b8073ffffffffffffffffffffffffffffffffffffffff16610406610a6e565b73ffffffffffffffffffffffffffffffffffffffff1614806104b85750600060010160008273ffffffffffffffffffffffffffffffffffffffff1673ffffffffffffffffffffffffffffffffffffffff168152602001908152602001600020600061046f610a6e565b73ffffffffffffffffffffffffffffffffffffffff1673ffffffffffffffffffffffffffffffffffffffff16815260200190815260200160002060009054906101000a900460ff165b6104f7576040517f08c379a00000000000000000000000000000000000000000000000000000000081526004016104ee90611964565b60405180910390fd5b6105018383610a76565b505050565b610517610511610a6e565b82610b3e565b610556576040517f08c379a000000000000000000000000000000000000000000000000000000000815260040161054d906119f6565b60405180910390fd5b610561838383610ca6565b505050565b6000806105716109c6565b9050600081600201600085815260200190815260200160002060009054906101000a900473ffffffffffffffffffffffffffffffffffffffff169050600073ffffffffffffffffffffffffffffffffffffffff168173ffffffffffffffffffffffffffffffffffffffff16141561061d576040517f08c379a000000000000000000000000000000000000000000000000000000000815260040161061490611a88565b60405180910390fd5b8092505050919050565b606060006106336109c6565b90508060010180546106449061179c565b80601f01602080910402602001604051908101604052809291908181526020018280546106709061179c565b80156106bd5780601f10610692576101008083540402835291602001916106bd565b820191906000526020600020905b8154815290600101906020018083116106a057829003601f168201915b505050505091505090565b60606106d3826109f3565b610712576040517f08c379a000000000000000000000000000000000000000000000000000000000815260040161070990611b1a565b60405180910390fd5b600061071c610f15565b9050600081511161073c5760405180602001604052806000815250610767565b8061074684610f2c565b604051602001610757929190611b76565b6040516020818303038152906040525b915050919050565b61078a83838360405180602001604052806000815250610856565b505050565b60008073ffffffffffffffffffffffffffffffffffffffff168273ffffffffffffffffffffffffffffffffffffffff161415610800576040517f08c379a00000000000000000000000000000000000000000000000000000000081526004016107f790611c0c565b60405180910390fd5b600061080a6109c6565b90508060030160008473ffffffffffffffffffffffffffffffffffffffff1673ffffffffffffffffffffffffffffffffffffffff16815260200190815260200160002054915050919050565b610867610861610a6e565b83610b3e565b6108a6576040517f08c379a000000000000000000000000000000000000000000000000000000000815260040161089d906119f6565b60405180910390fd5b6108b28484848461108d565b50505050565b80600060010160006108c8610a6e565b73ffffffffffffffffffffffffffffffffffffffff1673ffffffffffffffffffffffffffffffffffffffff16815260200190815260200160002060008473ffffffffffffffffffffffffffffffffffffffff1673ffffffffffffffffffffffffffffffffffffffff16815260200190815260200160002060006101000a81548160ff0219169083151502179055508173ffffffffffffffffffffffffffffffffffffffff16610975610a6e565b73ffffffffffffffffffffffffffffffffffffffff167f17307eab39ab6107e8899845ad3d59bd9653f200f220920489ca2b5937696c31836040516109ba9190611c3b565b60405180910390a35050565b6000807f27d4b8eb827745c1478e1390415e0b68ca5ace988a610b45757dd674616b25ad90508091505090565b6000806109fe6109c6565b9050600073ffffffffffffffffffffffffffffffffffffffff1681600201600085815260200190815260200160002060009054906101000a900473ffffffffffffffffffffffffffffffffffffffff1673ffffffffffffffffffffffffffffffffffffffff161415915050919050565b600033905090565b6000610a806109c6565b90508281600401600084815260200190815260200160002060006101000a81548173ffffffffffffffffffffffffffffffffffffffff021916908373ffffffffffffffffffffffffffffffffffffffff160217905550818373ffffffffffffffffffffffffffffffffffffffff16610af784610566565b73ffffffffffffffffffffffffffffffffffffffff167f8c5be1e5ebec7d5bd14f71427d1e84f3dd0314c0f7b2291e5b200ac8c7c3b92560405160405180910390a4505050565b6000610b49826109f3565b610b88576040517f08c379a0000000000000000000000000000000000000000000000000000000008152600401610b7f90611cc8565b60405180910390fd5b6000610b9383610566565b90508073ffffffffffffffffffffffffffffffffffffffff168473ffffffffffffffffffffffffffffffffffffffff161480610c0257508373ffffffffffffffffffffffffffffffffffffffff16610bea846102d7565b73ffffffffffffffffffffffffffffffffffffffff16145b80610c9d5750600060010160008273ffffffffffffffffffffffffffffffffffffffff1673ffffffffffffffffffffffffffffffffffffffff1681526020019081526020016000206000610c54610a6e565b73ffffffffffffffffffffffffffffffffffffffff1673ffffffffffffffffffffffffffffffffffffffff16815260200190815260200160002060009054906101000a900460ff165b91505092915050565b8273ffffffffffffffffffffffffffffffffffffffff16610cc682610566565b73ffffffffffffffffffffffffffffffffffffffff1614610d1c576040517f08c379a0000000000000000000000000000000000000000000000000000000008152600401610d1390611d5a565b60405180910390fd5b600073ffffffffffffffffffffffffffffffffffffffff168273ffffffffffffffffffffffffffffffffffffffff161415610d8c576040517f08c379a0000000000000000000000000000000000000000000000000000000008152600401610d8390611dec565b60405180910390fd5b610d978383836110e9565b610da2600082610a76565b6000610dac6109c6565b905060018160030160008673ffffffffffffffffffffffffffffffffffffffff1673ffffffffffffffffffffffffffffffffffffffff1681526020019081526020016000206000828254610e009190611e3b565b9250508190555060018160030160008573ffffffffffffffffffffffffffffffffffffffff1673ffffffffffffffffffffffffffffffffffffffff1681526020019081526020016000206000828254610e599190611e6f565b925050819055508281600201600084815260200190815260200160002060006101000a81548173ffffffffffffffffffffffffffffffffffffffff021916908373ffffffffffffffffffffffffffffffffffffffff160217905550818373ffffffffffffffffffffffffffffffffffffffff168573ffffffffffffffffffffffffffffffffffffffff167fddf252ad1be2c89b69c2b068fc378daa952ba7f163c4a11628f55a4df523b3ef60405160405180910390a450505050565b606060405180602001604052806000815250905090565b60606000821415610f74576040518060400160405280600181526020017f30000000000000000000000000000000000000000000000000000000000000008152509050611088565b600082905060005b60008214610fa6578080610f8f90611ec5565b915050600a82610f9f9190611f3d565b9150610f7c565b60008167ffffffffffffffff811115610fc257610fc1611547565b5b6040519080825280601f01601f191660200182016040528015610ff45781602001600182028036833780820191505090505b5090505b600085146110815760018261100d9190611e3b565b9150600a8561101c9190611f6e565b60306110289190611e6f565b60f81b81838151811061103e5761103d611f9f565b5b60200101907effffffffffffffffffffffffffffffffffffffffffffffffffffffffffffff1916908160001a905350600a8561107a9190611f3d565b9450610ff8565b8093505050505b919050565b611098848484610ca6565b6110a4848484846110ee565b6110e3576040517f08c379a00000000000000000000000000000000000000000000000000000000081526004016110da90612040565b60405180910390fd5b50505050565b505050565b600061110f8473ffffffffffffffffffffffffffffffffffffffff16611276565b15611269578373ffffffffffffffffffffffffffffffffffffffff1663150b7a02611138610a6e565b8786866040518563ffffffff1660e01b815260040161115a94939291906120b5565b6020604051808303816000875af192505050801561119657506040513d601f19601f820116820180604052508101906111939190612159565b60015b611219573d80600081146111c6576040519150601f19603f3d011682016040523d82523d6000602084013e6111cb565b606091505b50600081511415611211576040517f08c379a000000000000000000000000000000000000000000000000000000000815260040161120890612040565b60405180910390fd5b805181602001fd5b63150b7a0260e01b7bffffffffffffffffffffffffffffffffffffffffffffffffffffffff1916817bffffffffffffffffffffffffffffffffffffffffffffffffffffffff19161491505061126e565b600190505b949350505050565b6000808273ffffffffffffffffffffffffffffffffffffffff163b119050919050565b600081519050919050565b600082825260208201905092915050565b60005b838110156112d35780820151818401526020810190506112b8565b838111156112e2576000848401525b50505050565b6000601f19601f8301169050919050565b600061130482611299565b61130e81856112a4565b935061131e8185602086016112b5565b611327816112e8565b840191505092915050565b6000602082019050818103600083015261134c81846112f9565b905092915050565b6000604051905090565b600080fd5b600080fd5b6000819050919050565b61137b81611368565b811461138657600080fd5b50565b60008135905061139881611372565b92915050565b6000602082840312156113b4576113b361135e565b5b60006113c284828501611389565b91505092915050565b600073ffffffffffffffffffffffffffffffffffffffff82169050919050565b60006113f6826113cb565b9050919050565b611406816113eb565b82525050565b600060208201905061142160008301846113fd565b92915050565b611430816113eb565b811461143b57600080fd5b50565b60008135905061144d81611427565b92915050565b6000806040838503121561146a5761146961135e565b5b60006114788582860161143e565b925050602061148985828601611389565b9150509250929050565b6000806000606084860312156114ac576114ab61135e565b5b60006114ba8682870161143e565b93505060206114cb8682870161143e565b92505060406114dc86828701611389565b9150509250925092565b6000602082840312156114fc576114fb61135e565b5b600061150a8482850161143e565b91505092915050565b61151c81611368565b82525050565b60006020820190506115376000830184611513565b92915050565b600080fd5b600080fd5b7f4e487b7100000000000000000000000000000000000000000000000000000000600052604160045260246000fd5b61157f826112e8565b810181811067ffffffffffffffff8211171561159e5761159d611547565b5b80604052505050565b60006115b1611354565b90506115bd8282611576565b919050565b600067ffffffffffffffff8211156115dd576115dc611547565b5b6115e6826112e8565b9050602081019050919050565b82818337600083830152505050565b6000611615611610846115c2565b6115a7565b90508281526020810184848401111561163157611630611542565b5b61163c8482856115f3565b509392505050565b600082601f8301126116595761165861153d565b5b8135611669848260208601611602565b91505092915050565b6000806000806080858703121561168c5761168b61135e565b5b600061169a8782880161143e565b94505060206116ab8782880161143e565b93505060406116bc87828801611389565b925050606085013567ffffffffffffffff8111156116dd576116dc611363565b5b6116e987828801611644565b91505092959194509250565b60008115159050919050565b61170a816116f5565b811461171557600080fd5b50565b60008135905061172781611701565b92915050565b600080604083850312156117445761174361135e565b5b60006117528582860161143e565b925050602061176385828601611718565b9150509250929050565b7f4e487b7100000000000000000000000000000000000000000000000000000000600052602260045260246000fd5b600060028204905060018216806117b457607f821691505b602082108114156117c8576117c761176d565b5b50919050565b7f4552433732313a20617070726f76656420717565727920666f72206e6f6e657860008201527f697374656e7420746f6b656e0000000000000000000000000000000000000000602082015250565b600061182a602c836112a4565b9150611835826117ce565b604082019050919050565b600060208201905081810360008301526118598161181d565b9050919050565b7f4552433732313a20617070726f76616c20746f2063757272656e74206f776e6560008201527f7200000000000000000000000000000000000000000000000000000000000000602082015250565b60006118bc6021836112a4565b91506118c782611860565b604082019050919050565b600060208201905081810360008301526118eb816118af565b9050919050565b7f4552433732313a20617070726f76652063616c6c6572206973206e6f74206f7760008201527f6e6572206e6f7220617070726f76656420666f7220616c6c0000000000000000602082015250565b600061194e6038836112a4565b9150611959826118f2565b604082019050919050565b6000602082019050818103600083015261197d81611941565b9050919050565b7f4552433732313a207472616e736665722063616c6c6572206973206e6f74206f60008201527f776e6572206e6f7220617070726f766564000000000000000000000000000000602082015250565b60006119e06031836112a4565b91506119eb82611984565b604082019050919050565b60006020820190508181036000830152611a0f816119d3565b9050919050565b7f4552433732313a206f776e657220717565727920666f72206e6f6e657869737460008201527f656e7420746f6b656e0000000000000000000000000000000000000000000000602082015250565b6000611a726029836112a4565b9150611a7d82611a16565b604082019050919050565b60006020820190508181036000830152611aa181611a65565b9050919050565b7f4552433732314d657461646174613a2055524920717565727920666f72206e6f60008201527f6e6578697374656e7420746f6b656e0000000000000000000000000000000000602082015250565b6000611b04602f836112a4565b9150611b0f82611aa8565b604082019050919050565b60006020820190508181036000830152611b3381611af7565b9050919050565b600081905092915050565b6000611b5082611299565b611b5a8185611b3a565b9350611b6a8185602086016112b5565b80840191505092915050565b6000611b828285611b45565b9150611b8e8284611b45565b91508190509392505050565b7f4552433732313a2062616c616e636520717565727920666f7220746865207a6560008201527f726f206164647265737300000000000000000000000000000000000000000000602082015250565b6000611bf6602a836112a4565b9150611c0182611b9a565b604082019050919050565b60006020820190508181036000830152611c2581611be9565b9050919050565b611c35816116f5565b82525050565b6000602082019050611c506000830184611c2c565b92915050565b7f4552433732313a206f70657261746f7220717565727920666f72206e6f6e657860008201527f697374656e7420746f6b656e0000000000000000000000000000000000000000602082015250565b6000611cb2602c836112a4565b9150611cbd82611c56565b604082019050919050565b60006020820190508181036000830152611ce181611ca5565b9050919050565b7f4552433732313a207472616e73666572206f6620746f6b656e2074686174206960008201527f73206e6f74206f776e0000000000000000000000000000000000000000000000602082015250565b6000611d446029836112a4565b9150611d4f82611ce8565b604082019050919050565b60006020820190508181036000830152611d7381611d37565b9050919050565b7f4552433732313a207472616e7366657220746f20746865207a65726f2061646460008201527f7265737300000000000000000000000000000000000000000000000000000000602082015250565b6000611dd66024836112a4565b9150611de182611d7a565b604082019050919050565b60006020820190508181036000830152611e0581611dc9565b9050919050565b7f4e487b7100000000000000000000000000000000000000000000000000000000600052601160045260246000fd5b6000611e4682611368565b9150611e5183611368565b925082821015611e6457611e63611e0c565b5b828203905092915050565b6000611e7a82611368565b9150611e8583611368565b9250827fffffffffffffffffffffffffffffffffffffffffffffffffffffffffffffffff03821115611eba57611eb9611e0c565b5b828201905092915050565b6000611ed082611368565b91507fffffffffffffffffffffffffffffffffffffffffffffffffffffffffffffffff821415611f0357611f02611e0c565b5b600182019050919050565b7f4e487b7100000000000000000000000000000000000000000000000000000000600052601260045260246000fd5b6000611f4882611368565b9150611f5383611368565b925082611f6357611f62611f0e565b5b828204905092915050565b6000611f7982611368565b9150611f8483611368565b925082611f9457611f93611f0e565b5b828206905092915050565b7f4e487b7100000000000000000000000000000000000000000000000000000000600052603260045260246000fd5b7f4552433732313a207472616e7366657220746f206e6f6e20455243373231526560008201527f63656976657220696d706c656d656e7465720000000000000000000000000000602082015250565b600061202a6032836112a4565b915061203582611fce565b604082019050919050565b600060208201905081810360008301526120598161201d565b9050919050565b600081519050919050565b600082825260208201905092915050565b600061208782612060565b612091818561206b565b93506120a18185602086016112b5565b6120aa816112e8565b840191505092915050565b60006080820190506120ca60008301876113fd565b6120d760208301866113fd565b6120e46040830185611513565b81810360608301526120f6818461207c565b905095945050505050565b60007fffffffff0000000000000000000000000000000000000000000000000000000082169050919050565b61213681612101565b811461214157600080fd5b50565b6000815190506121538161212d565b92915050565b60006020828403121561216f5761216e61135e565b5b600061217d84828501612144565b9150509291505056fea2646970667358221220516cecc4f35f570ca657cc48f402bf9e1f44303953577f13b79d24cb0bee8d6164736f6c634300080a0033",
  "linkReferences": {},
  "deployedLinkReferences": {}
}