{
  "_format": "hh-sol-artifact-1",
  "contractName": "ERC721Facet",
  "sourceName": "contracts/facets/ERC721/ERC721Facet.sol",
  "abi": [
    {
      "anonymous": false,
      "inputs": [
        {
          "indexed": true,
          "internalType": "address",
          "name": "owner",
          "type": "address"
        },
        {
          "indexed": true,
          "internalType": "address",
          "name": "approved",
          "type": "address"
        },
        {
          "indexed": true,
          "internalType": "uint256",
          "name": "tokenId",
          "type": "uint256"
        }
      ],
      "name": "Approval",
      "type": "event"
    },
    {
      "anonymous": false,
      "inputs": [
        {
          "indexed": true,
          "internalType": "address",
          "name": "owner",
          "type": "address"
        },
        {
          "indexed": true,
          "internalType": "address",
          "name": "operator",
          "type": "address"
        },
        {
          "indexed": false,
          "internalType": "bool",
          "name": "approved",
          "type": "bool"
        }
      ],
      "name": "ApprovalForAll",
      "type": "event"
    },
    {
      "anonymous": false,
      "inputs": [
        {
          "indexed": true,
          "internalType": "address",
          "name": "from",
          "type": "address"
        },
        {
          "indexed": true,
          "internalType": "address",
          "name": "to",
          "type": "address"
        },
        {
          "indexed": true,
          "internalType": "uint256",
          "name": "tokenId",
          "type": "uint256"
        }
      ],
      "name": "Transfer",
      "type": "event"
    },
    {
      "inputs": [
        {
          "internalType": "address",
          "name": "to",
          "type": "address"
        },
        {
          "internalType": "uint256",
          "name": "tokenId",
          "type": "uint256"
        }
      ],
      "name": "approve",
      "outputs": [],
      "stateMutability": "nonpayable",
      "type": "function"
    },
    {
      "inputs": [
        {
          "internalType": "address",
          "name": "owner",
          "type": "address"
        }
      ],
      "name": "balanceOf",
      "outputs": [
        {
          "internalType": "uint256",
          "name": "",
          "type": "uint256"
        }
      ],
      "stateMutability": "view",
      "type": "function"
    },
    {
      "inputs": [
        {
          "internalType": "uint256",
          "name": "tokenId",
          "type": "uint256"
        }
      ],
      "name": "getApproved",
      "outputs": [
        {
          "internalType": "address",
          "name": "",
          "type": "address"
        }
      ],
      "stateMutability": "view",
      "type": "function"
    },
    {
      "inputs": [],
      "name": "name",
      "outputs": [
        {
          "internalType": "string",
          "name": "",
          "type": "string"
        }
      ],
      "stateMutability": "view",
      "type": "function"
    },
    {
      "inputs": [
        {
          "internalType": "uint256",
          "name": "tokenId",
          "type": "uint256"
        }
      ],
      "name": "ownerOf",
      "outputs": [
        {
          "internalType": "address",
          "name": "",
          "type": "address"
        }
      ],
      "stateMutability": "view",
      "type": "function"
    },
    {
      "inputs": [
        {
          "internalType": "address",
          "name": "from",
          "type": "address"
        },
        {
          "internalType": "address",
          "name": "to",
          "type": "address"
        },
        {
          "internalType": "uint256",
          "name": "tokenId",
          "type": "uint256"
        }
      ],
      "name": "safeTransferFrom",
      "outputs": [],
      "stateMutability": "nonpayable",
      "type": "function"
    },
    {
      "inputs": [
        {
          "internalType": "address",
          "name": "from",
          "type": "address"
        },
        {
          "internalType": "address",
          "name": "to",
          "type": "address"
        },
        {
          "internalType": "uint256",
          "name": "tokenId",
          "type": "uint256"
        },
        {
          "internalType": "bytes",
          "name": "_data",
          "type": "bytes"
        }
      ],
      "name": "safeTransferFrom",
      "outputs": [],
      "stateMutability": "nonpayable",
      "type": "function"
    },
    {
      "inputs": [],
      "name": "symbol",
      "outputs": [
        {
          "internalType": "string",
          "name": "",
          "type": "string"
        }
      ],
      "stateMutability": "view",
      "type": "function"
    },
    {
      "inputs": [
        {
          "internalType": "uint256",
          "name": "tokenId",
          "type": "uint256"
        }
      ],
      "name": "tokenURI",
      "outputs": [
        {
          "internalType": "string",
          "name": "",
          "type": "string"
        }
      ],
      "stateMutability": "view",
      "type": "function"
    },
    {
      "inputs": [
        {
          "internalType": "address",
          "name": "from",
          "type": "address"
        },
        {
          "internalType": "address",
          "name": "to",
          "type": "address"
        },
        {
          "internalType": "uint256",
          "name": "tokenId",
          "type": "uint256"
        }
      ],
      "name": "transferFrom",
      "outputs": [],
      "stateMutability": "nonpayable",
      "type": "function"
    }
  ],
  "bytecode": "0x608060405234801561001057600080fd5b50611ff4806100206000396000f3fe608060405234801561001057600080fd5b506004361061009e5760003560e01c80636352211e116100665780636352211e1461014557806370a082311461017557806395d89b41146101a5578063b88d4fde146101c3578063c87b56dd146101df5761009e565b806306fdde03146100a3578063081812fc146100c1578063095ea7b3146100f157806323b872dd1461010d57806342842e0e14610129575b600080fd5b6100ab61020f565b6040516100b8919061168c565b60405180910390f35b6100db60048036038101906100d69190611392565b6102b0565b6040516100e89190611625565b60405180910390f35b61010b60048036038101906101069190611325565b610344565b005b6101276004803603810190610122919061124f565b6104df565b005b610143600480360381019061013e919061124f565b61053f565b005b61015f600480360381019061015a9190611392565b61055f565b60405161016c9190611625565b60405180910390f35b61018f600480360381019061018a9190611222565b610620565b60405161019c919061180e565b60405180910390f35b6101ad6106e7565b6040516101ba919061168c565b60405180910390f35b6101dd60048036038101906101d891906112a2565b610788565b005b6101f960048036038101906101f49190611392565b6107ea565b604051610206919061168c565b60405180910390f35b6060600061021b610891565b905080600001805461022c90611a27565b80601f016020809104026020016040519081016040528092919081815260200182805461025890611a27565b80156102a55780601f1061027a576101008083540402835291602001916102a5565b820191906000526020600020905b81548152906001019060200180831161028857829003601f168201915b505050505091505090565b60006102bb826108be565b6102fa576040517f08c379a00000000000000000000000000000000000000000000000000000000081526004016102f19061176e565b60405180910390fd5b6000610304610891565b905080600401600084815260200190815260200160002060009054906101000a900473ffffffffffffffffffffffffffffffffffffffff16915050919050565b600061034f8261055f565b90508073ffffffffffffffffffffffffffffffffffffffff168373ffffffffffffffffffffffffffffffffffffffff1614156103c0576040517f08c379a00000000000000000000000000000000000000000000000000000000081526004016103b7906117ce565b60405180910390fd5b8073ffffffffffffffffffffffffffffffffffffffff166103df610939565b73ffffffffffffffffffffffffffffffffffffffff1614806104915750600060010160008273ffffffffffffffffffffffffffffffffffffffff1673ffffffffffffffffffffffffffffffffffffffff1681526020019081526020016000206000610448610939565b73ffffffffffffffffffffffffffffffffffffffff1673ffffffffffffffffffffffffffffffffffffffff16815260200190815260200160002060009054906101000a900460ff165b6104d0576040517f08c379a00000000000000000000000000000000000000000000000000000000081526004016104c79061170e565b60405180910390fd5b6104da8383610941565b505050565b6104f06104ea610939565b82610a09565b61052f576040517f08c379a0000000000000000000000000000000000000000000000000000000008152600401610526906117ee565b60405180910390fd5b61053a838383610b71565b505050565b61055a83838360405180602001604052806000815250610788565b505050565b60008061056a610891565b9050600081600201600085815260200190815260200160002060009054906101000a900473ffffffffffffffffffffffffffffffffffffffff169050600073ffffffffffffffffffffffffffffffffffffffff168173ffffffffffffffffffffffffffffffffffffffff161415610616576040517f08c379a000000000000000000000000000000000000000000000000000000000815260040161060d9061174e565b60405180910390fd5b8092505050919050565b60008073ffffffffffffffffffffffffffffffffffffffff168273ffffffffffffffffffffffffffffffffffffffff161415610691576040517f08c379a00000000000000000000000000000000000000000000000000000000081526004016106889061172e565b60405180910390fd5b600061069b610891565b90508060030160008473ffffffffffffffffffffffffffffffffffffffff1673ffffffffffffffffffffffffffffffffffffffff16815260200190815260200160002054915050919050565b606060006106f3610891565b905080600101805461070490611a27565b80601f016020809104026020016040519081016040528092919081815260200182805461073090611a27565b801561077d5780601f106107525761010080835404028352916020019161077d565b820191906000526020600020905b81548152906001019060200180831161076057829003601f168201915b505050505091505090565b610799610793610939565b83610a09565b6107d8576040517f08c379a00000000000000000000000000000000000000000000000000000000081526004016107cf906117ee565b60405180910390fd5b6107e484848484610de0565b50505050565b60606107f5826108be565b610834576040517f08c379a000000000000000000000000000000000000000000000000000000000815260040161082b906117ae565b60405180910390fd5b600061083e610e3c565b9050600081511161085e5760405180602001604052806000815250610889565b8061086884610e53565b604051602001610879929190611601565b6040516020818303038152906040525b915050919050565b6000807f27d4b8eb827745c1478e1390415e0b68ca5ace988a610b45757dd674616b25ad90508091505090565b6000806108c9610891565b9050600073ffffffffffffffffffffffffffffffffffffffff1681600201600085815260200190815260200160002060009054906101000a900473ffffffffffffffffffffffffffffffffffffffff1673ffffffffffffffffffffffffffffffffffffffff161415915050919050565b600033905090565b600061094b610891565b90508281600401600084815260200190815260200160002060006101000a81548173ffffffffffffffffffffffffffffffffffffffff021916908373ffffffffffffffffffffffffffffffffffffffff160217905550818373ffffffffffffffffffffffffffffffffffffffff166109c28461055f565b73ffffffffffffffffffffffffffffffffffffffff167f8c5be1e5ebec7d5bd14f71427d1e84f3dd0314c0f7b2291e5b200ac8c7c3b92560405160405180910390a4505050565b6000610a14826108be565b610a53576040517f08c379a0000000000000000000000000000000000000000000000000000000008152600401610a4a906116ee565b60405180910390fd5b6000610a5e8361055f565b90508073ffffffffffffffffffffffffffffffffffffffff168473ffffffffffffffffffffffffffffffffffffffff161480610acd57508373ffffffffffffffffffffffffffffffffffffffff16610ab5846102b0565b73ffffffffffffffffffffffffffffffffffffffff16145b80610b685750600060010160008273ffffffffffffffffffffffffffffffffffffffff1673ffffffffffffffffffffffffffffffffffffffff1681526020019081526020016000206000610b1f610939565b73ffffffffffffffffffffffffffffffffffffffff1673ffffffffffffffffffffffffffffffffffffffff16815260200190815260200160002060009054906101000a900460ff165b91505092915050565b8273ffffffffffffffffffffffffffffffffffffffff16610b918261055f565b73ffffffffffffffffffffffffffffffffffffffff1614610be7576040517f08c379a0000000000000000000000000000000000000000000000000000000008152600401610bde9061178e565b60405180910390fd5b600073ffffffffffffffffffffffffffffffffffffffff168273ffffffffffffffffffffffffffffffffffffffff161415610c57576040517f08c379a0000000000000000000000000000000000000000000000000000000008152600401610c4e906116ce565b60405180910390fd5b610c62838383610fb4565b610c6d600082610941565b6000610c77610891565b905060018160030160008673ffffffffffffffffffffffffffffffffffffffff1673ffffffffffffffffffffffffffffffffffffffff1681526020019081526020016000206000828254610ccb9190611949565b9250508190555060018160030160008573ffffffffffffffffffffffffffffffffffffffff1673ffffffffffffffffffffffffffffffffffffffff1681526020019081526020016000206000828254610d2491906118c2565b925050819055508281600201600084815260200190815260200160002060006101000a81548173ffffffffffffffffffffffffffffffffffffffff021916908373ffffffffffffffffffffffffffffffffffffffff160217905550818373ffffffffffffffffffffffffffffffffffffffff168573ffffffffffffffffffffffffffffffffffffffff167fddf252ad1be2c89b69c2b068fc378daa952ba7f163c4a11628f55a4df523b3ef60405160405180910390a450505050565b610deb848484610b71565b610df784848484610fb9565b610e36576040517f08c379a0000000000000000000000000000000000000000000000000000000008152600401610e2d906116ae565b60405180910390fd5b50505050565b606060405180602001604052806000815250905090565b60606000821415610e9b576040518060400160405280600181526020017f30000000000000000000000000000000000000000000000000000000000000008152509050610faf565b600082905060005b60008214610ecd578080610eb690611a8a565b915050600a82610ec69190611918565b9150610ea3565b60008167ffffffffffffffff811115610ee957610ee8611bc0565b5b6040519080825280601f01601f191660200182016040528015610f1b5781602001600182028036833780820191505090505b5090505b60008514610fa857600182610f349190611949565b9150600a85610f439190611ad3565b6030610f4f91906118c2565b60f81b818381518110610f6557610f64611b91565b5b60200101907effffffffffffffffffffffffffffffffffffffffffffffffffffffffffffff1916908160001a905350600a85610fa19190611918565b9450610f1f565b8093505050505b919050565b505050565b6000610fda8473ffffffffffffffffffffffffffffffffffffffff16611150565b15611143578373ffffffffffffffffffffffffffffffffffffffff1663150b7a02611003610939565b8786866040518563ffffffff1660e01b81526004016110259493929190611640565b602060405180830381600087803b15801561103f57600080fd5b505af192505050801561107057506040513d601f19601f8201168201806040525081019061106d9190611365565b60015b6110f3573d80600081146110a0576040519150601f19603f3d011682016040523d82523d6000602084013e6110a5565b606091505b506000815114156110eb576040517f08c379a00000000000000000000000000000000000000000000000000000000081526004016110e2906116ae565b60405180910390fd5b805181602001fd5b63150b7a0260e01b7bffffffffffffffffffffffffffffffffffffffffffffffffffffffff1916817bffffffffffffffffffffffffffffffffffffffffffffffffffffffff191614915050611148565b600190505b949350505050565b6000808273ffffffffffffffffffffffffffffffffffffffff163b119050919050565b60006111866111818461184e565b611829565b9050828152602081018484840111156111a2576111a1611bf4565b5b6111ad8482856119e5565b509392505050565b6000813590506111c481611f79565b92915050565b6000815190506111d981611f90565b92915050565b600082601f8301126111f4576111f3611bef565b5b8135611204848260208601611173565b91505092915050565b60008135905061121c81611fa7565b92915050565b60006020828403121561123857611237611bfe565b5b6000611246848285016111b5565b91505092915050565b60008060006060848603121561126857611267611bfe565b5b6000611276868287016111b5565b9350506020611287868287016111b5565b92505060406112988682870161120d565b9150509250925092565b600080600080608085870312156112bc576112bb611bfe565b5b60006112ca878288016111b5565b94505060206112db878288016111b5565b93505060406112ec8782880161120d565b925050606085013567ffffffffffffffff81111561130d5761130c611bf9565b5b611319878288016111df565b91505092959194509250565b6000806040838503121561133c5761133b611bfe565b5b600061134a858286016111b5565b925050602061135b8582860161120d565b9150509250929050565b60006020828403121561137b5761137a611bfe565b5b6000611389848285016111ca565b91505092915050565b6000602082840312156113a8576113a7611bfe565b5b60006113b68482850161120d565b91505092915050565b6113c88161197d565b82525050565b60006113d98261187f565b6113e38185611895565b93506113f38185602086016119f4565b6113fc81611c03565b840191505092915050565b60006114128261188a565b61141c81856118a6565b935061142c8185602086016119f4565b61143581611c03565b840191505092915050565b600061144b8261188a565b61145581856118b7565b93506114658185602086016119f4565b80840191505092915050565b600061147e6032836118a6565b915061148982611c14565b604082019050919050565b60006114a16024836118a6565b91506114ac82611c63565b604082019050919050565b60006114c4602c836118a6565b91506114cf82611cb2565b604082019050919050565b60006114e76038836118a6565b91506114f282611d01565b604082019050919050565b600061150a602a836118a6565b915061151582611d50565b604082019050919050565b600061152d6029836118a6565b915061153882611d9f565b604082019050919050565b6000611550602c836118a6565b915061155b82611dee565b604082019050919050565b60006115736029836118a6565b915061157e82611e3d565b604082019050919050565b6000611596602f836118a6565b91506115a182611e8c565b604082019050919050565b60006115b96021836118a6565b91506115c482611edb565b604082019050919050565b60006115dc6031836118a6565b91506115e782611f2a565b604082019050919050565b6115fb816119db565b82525050565b600061160d8285611440565b91506116198284611440565b91508190509392505050565b600060208201905061163a60008301846113bf565b92915050565b600060808201905061165560008301876113bf565b61166260208301866113bf565b61166f60408301856115f2565b818103606083015261168181846113ce565b905095945050505050565b600060208201905081810360008301526116a68184611407565b905092915050565b600060208201905081810360008301526116c781611471565b9050919050565b600060208201905081810360008301526116e781611494565b9050919050565b60006020820190508181036000830152611707816114b7565b9050919050565b60006020820190508181036000830152611727816114da565b9050919050565b60006020820190508181036000830152611747816114fd565b9050919050565b6000602082019050818103600083015261176781611520565b9050919050565b6000602082019050818103600083015261178781611543565b9050919050565b600060208201905081810360008301526117a781611566565b9050919050565b600060208201905081810360008301526117c781611589565b9050919050565b600060208201905081810360008301526117e7816115ac565b9050919050565b60006020820190508181036000830152611807816115cf565b9050919050565b600060208201905061182360008301846115f2565b92915050565b6000611833611844565b905061183f8282611a59565b919050565b6000604051905090565b600067ffffffffffffffff82111561186957611868611bc0565b5b61187282611c03565b9050602081019050919050565b600081519050919050565b600081519050919050565b600082825260208201905092915050565b600082825260208201905092915050565b600081905092915050565b60006118cd826119db565b91506118d8836119db565b9250827fffffffffffffffffffffffffffffffffffffffffffffffffffffffffffffffff0382111561190d5761190c611b04565b5b828201905092915050565b6000611923826119db565b915061192e836119db565b92508261193e5761193d611b33565b5b828204905092915050565b6000611954826119db565b915061195f836119db565b92508282101561197257611971611b04565b5b828203905092915050565b6000611988826119bb565b9050919050565b60007fffffffff0000000000000000000000000000000000000000000000000000000082169050919050565b600073ffffffffffffffffffffffffffffffffffffffff82169050919050565b6000819050919050565b82818337600083830152505050565b60005b83811015611a125780820151818401526020810190506119f7565b83811115611a21576000848401525b50505050565b60006002820490506001821680611a3f57607f821691505b60208210811415611a5357611a52611b62565b5b50919050565b611a6282611c03565b810181811067ffffffffffffffff82111715611a8157611a80611bc0565b5b80604052505050565b6000611a95826119db565b91507fffffffffffffffffffffffffffffffffffffffffffffffffffffffffffffffff821415611ac857611ac7611b04565b5b600182019050919050565b6000611ade826119db565b9150611ae9836119db565b925082611af957611af8611b33565b5b828206905092915050565b7f4e487b7100000000000000000000000000000000000000000000000000000000600052601160045260246000fd5b7f4e487b7100000000000000000000000000000000000000000000000000000000600052601260045260246000fd5b7f4e487b7100000000000000000000000000000000000000000000000000000000600052602260045260246000fd5b7f4e487b7100000000000000000000000000000000000000000000000000000000600052603260045260246000fd5b7f4e487b7100000000000000000000000000000000000000000000000000000000600052604160045260246000fd5b600080fd5b600080fd5b600080fd5b600080fd5b6000601f19601f8301169050919050565b7f4552433732313a207472616e7366657220746f206e6f6e20455243373231526560008201527f63656976657220696d706c656d656e7465720000000000000000000000000000602082015250565b7f4552433732313a207472616e7366657220746f20746865207a65726f2061646460008201527f7265737300000000000000000000000000000000000000000000000000000000602082015250565b7f4552433732313a206f70657261746f7220717565727920666f72206e6f6e657860008201527f697374656e7420746f6b656e0000000000000000000000000000000000000000602082015250565b7f4552433732313a20617070726f76652063616c6c6572206973206e6f74206f7760008201527f6e6572206e6f7220617070726f76656420666f7220616c6c0000000000000000602082015250565b7f4552433732313a2062616c616e636520717565727920666f7220746865207a6560008201527f726f206164647265737300000000000000000000000000000000000000000000602082015250565b7f4552433732313a206f776e657220717565727920666f72206e6f6e657869737460008201527f656e7420746f6b656e0000000000000000000000000000000000000000000000602082015250565b7f4552433732313a20617070726f76656420717565727920666f72206e6f6e657860008201527f697374656e7420746f6b656e0000000000000000000000000000000000000000602082015250565b7f4552433732313a207472616e73666572206f6620746f6b656e2074686174206960008201527f73206e6f74206f776e0000000000000000000000000000000000000000000000602082015250565b7f4552433732314d657461646174613a2055524920717565727920666f72206e6f60008201527f6e6578697374656e7420746f6b656e0000000000000000000000000000000000602082015250565b7f4552433732313a20617070726f76616c20746f2063757272656e74206f776e6560008201527f7200000000000000000000000000000000000000000000000000000000000000602082015250565b7f4552433732313a207472616e736665722063616c6c6572206973206e6f74206f60008201527f776e6572206e6f7220617070726f766564000000000000000000000000000000602082015250565b611f828161197d565b8114611f8d57600080fd5b50565b611f998161198f565b8114611fa457600080fd5b50565b611fb0816119db565b8114611fbb57600080fd5b5056fea2646970667358221220ec4ae1968e14414d01544e0bd4d17c5fbdb37619aa304284b106350b7414cd7364736f6c63430008060033",
  "linkReferences": {},
  "deployedLinkReferences": {}
}