{
  "_format": "hh-sol-artifact-1",
  "contractName": "ERC721A",
  "sourceName": "contracts/ERC721A.sol",
  "abi": [
    {
      "inputs": [
        {
          "internalType": "string",
          "name": "name_",
          "type": "string"
        },
        {
          "internalType": "string",
          "name": "symbol_",
          "type": "string"
        }
      ],
      "stateMutability": "nonpayable",
      "type": "constructor"
    },
    {
      "inputs": [],
      "name": "ApprovalCallerNotOwnerNorApproved",
      "type": "error"
    },
    {
      "inputs": [],
      "name": "ApprovalQueryForNonexistentToken",
      "type": "error"
    },
    {
      "inputs": [],
      "name": "ApprovalToCurrentOwner",
      "type": "error"
    },
    {
      "inputs": [],
      "name": "ApproveToCaller",
      "type": "error"
    },
    {
      "inputs": [],
      "name": "BalanceQueryForZeroAddress",
      "type": "error"
    },
    {
      "inputs": [],
      "name": "MintToZeroAddress",
      "type": "error"
    },
    {
      "inputs": [],
      "name": "MintZeroQuantity",
      "type": "error"
    },
    {
      "inputs": [],
      "name": "OwnerQueryForNonexistentToken",
      "type": "error"
    },
    {
      "inputs": [],
      "name": "TransferCallerNotOwnerNorApproved",
      "type": "error"
    },
    {
      "inputs": [],
      "name": "TransferFromIncorrectOwner",
      "type": "error"
    },
    {
      "inputs": [],
      "name": "TransferToNonERC721ReceiverImplementer",
      "type": "error"
    },
    {
      "inputs": [],
      "name": "TransferToZeroAddress",
      "type": "error"
    },
    {
      "inputs": [],
      "name": "URIQueryForNonexistentToken",
      "type": "error"
    },
    {
      "anonymous": false,
      "inputs": [
        {
          "indexed": true,
          "internalType": "address",
          "name": "owner",
          "type": "address"
        },
        {
          "indexed": true,
          "internalType": "address",
          "name": "approved",
          "type": "address"
        },
        {
          "indexed": true,
          "internalType": "uint256",
          "name": "tokenId",
          "type": "uint256"
        }
      ],
      "name": "Approval",
      "type": "event"
    },
    {
      "anonymous": false,
      "inputs": [
        {
          "indexed": true,
          "internalType": "address",
          "name": "owner",
          "type": "address"
        },
        {
          "indexed": true,
          "internalType": "address",
          "name": "operator",
          "type": "address"
        },
        {
          "indexed": false,
          "internalType": "bool",
          "name": "approved",
          "type": "bool"
        }
      ],
      "name": "ApprovalForAll",
      "type": "event"
    },
    {
      "anonymous": false,
      "inputs": [
        {
          "indexed": true,
          "internalType": "address",
          "name": "from",
          "type": "address"
        },
        {
          "indexed": true,
          "internalType": "address",
          "name": "to",
          "type": "address"
        },
        {
          "indexed": true,
          "internalType": "uint256",
          "name": "tokenId",
          "type": "uint256"
        }
      ],
      "name": "Transfer",
      "type": "event"
    },
    {
      "inputs": [],
      "name": "_currentIndex",
      "outputs": [
        {
          "internalType": "uint256",
          "name": "",
          "type": "uint256"
        }
      ],
      "stateMutability": "view",
      "type": "function"
    },
    {
      "inputs": [],
      "name": "_name",
      "outputs": [
        {
          "internalType": "string",
          "name": "",
          "type": "string"
        }
      ],
      "stateMutability": "view",
      "type": "function"
    },
    {
      "inputs": [],
      "name": "_symbol",
      "outputs": [
        {
          "internalType": "string",
          "name": "",
          "type": "string"
        }
      ],
      "stateMutability": "view",
      "type": "function"
    },
    {
      "inputs": [
        {
          "internalType": "address",
          "name": "to",
          "type": "address"
        },
        {
          "internalType": "uint256",
          "name": "tokenId",
          "type": "uint256"
        }
      ],
      "name": "approve",
      "outputs": [],
      "stateMutability": "nonpayable",
      "type": "function"
    },
    {
      "inputs": [
        {
          "internalType": "address",
          "name": "owner",
          "type": "address"
        }
      ],
      "name": "balanceOf",
      "outputs": [
        {
          "internalType": "uint256",
          "name": "",
          "type": "uint256"
        }
      ],
      "stateMutability": "view",
      "type": "function"
    },
    {
      "inputs": [
        {
          "internalType": "uint256",
          "name": "tokenId",
          "type": "uint256"
        }
      ],
      "name": "getApproved",
      "outputs": [
        {
          "internalType": "address",
          "name": "",
          "type": "address"
        }
      ],
      "stateMutability": "view",
      "type": "function"
    },
    {
      "inputs": [
        {
          "internalType": "address",
          "name": "owner",
          "type": "address"
        },
        {
          "internalType": "address",
          "name": "operator",
          "type": "address"
        }
      ],
      "name": "isApprovedForAll",
      "outputs": [
        {
          "internalType": "bool",
          "name": "",
          "type": "bool"
        }
      ],
      "stateMutability": "view",
      "type": "function"
    },
    {
      "inputs": [],
      "name": "name",
      "outputs": [
        {
          "internalType": "string",
          "name": "",
          "type": "string"
        }
      ],
      "stateMutability": "view",
      "type": "function"
    },
    {
      "inputs": [
        {
          "internalType": "uint256",
          "name": "tokenId",
          "type": "uint256"
        }
      ],
      "name": "ownerOf",
      "outputs": [
        {
          "internalType": "address",
          "name": "",
          "type": "address"
        }
      ],
      "stateMutability": "view",
      "type": "function"
    },
    {
      "inputs": [
        {
          "internalType": "address",
          "name": "from",
          "type": "address"
        },
        {
          "internalType": "address",
          "name": "to",
          "type": "address"
        },
        {
          "internalType": "uint256",
          "name": "tokenId",
          "type": "uint256"
        }
      ],
      "name": "safeTransferFrom",
      "outputs": [],
      "stateMutability": "nonpayable",
      "type": "function"
    },
    {
      "inputs": [
        {
          "internalType": "address",
          "name": "from",
          "type": "address"
        },
        {
          "internalType": "address",
          "name": "to",
          "type": "address"
        },
        {
          "internalType": "uint256",
          "name": "tokenId",
          "type": "uint256"
        },
        {
          "internalType": "bytes",
          "name": "_data",
          "type": "bytes"
        }
      ],
      "name": "safeTransferFrom",
      "outputs": [],
      "stateMutability": "nonpayable",
      "type": "function"
    },
    {
      "inputs": [
        {
          "internalType": "address",
          "name": "operator",
          "type": "address"
        },
        {
          "internalType": "bool",
          "name": "approved",
          "type": "bool"
        }
      ],
      "name": "setApprovalForAll",
      "outputs": [],
      "stateMutability": "nonpayable",
      "type": "function"
    },
    {
      "inputs": [
        {
          "internalType": "bytes4",
          "name": "interfaceId",
          "type": "bytes4"
        }
      ],
      "name": "supportsInterface",
      "outputs": [
        {
          "internalType": "bool",
          "name": "",
          "type": "bool"
        }
      ],
      "stateMutability": "view",
      "type": "function"
    },
    {
      "inputs": [],
      "name": "symbol",
      "outputs": [
        {
          "internalType": "string",
          "name": "",
          "type": "string"
        }
      ],
      "stateMutability": "view",
      "type": "function"
    },
    {
      "inputs": [
        {
          "internalType": "uint256",
          "name": "tokenId",
          "type": "uint256"
        }
      ],
      "name": "tokenURI",
      "outputs": [
        {
          "internalType": "string",
          "name": "",
          "type": "string"
        }
      ],
      "stateMutability": "view",
      "type": "function"
    },
    {
      "inputs": [],
      "name": "totalSupply",
      "outputs": [
        {
          "internalType": "uint256",
          "name": "",
          "type": "uint256"
        }
      ],
      "stateMutability": "view",
      "type": "function"
    },
    {
      "inputs": [
        {
          "internalType": "address",
          "name": "from",
          "type": "address"
        },
        {
          "internalType": "address",
          "name": "to",
          "type": "address"
        },
        {
          "internalType": "uint256",
          "name": "tokenId",
          "type": "uint256"
        }
      ],
      "name": "transferFrom",
      "outputs": [],
      "stateMutability": "nonpayable",
      "type": "function"
    }
  ],
  "bytecode": "0x60806040523480156200001157600080fd5b5060405162001ed038038062001ed08339818101604052810190620000379190620002d9565b81600290805190602001906200004f9291906200008c565b508060039080519060200190620000689291906200008c565b50620000796200008760201b60201c565b6000819055505050620003c3565b600090565b8280546200009a906200038d565b90600052602060002090601f016020900481019282620000be57600085556200010a565b82601f10620000d957805160ff19168380011785556200010a565b828001600101855582156200010a579182015b8281111562000109578251825591602001919060010190620000ec565b5b5090506200011991906200011d565b5090565b5b80821115620001385760008160009055506001016200011e565b5090565b6000604051905090565b600080fd5b600080fd5b600080fd5b600080fd5b6000601f19601f8301169050919050565b7f4e487b7100000000000000000000000000000000000000000000000000000000600052604160045260246000fd5b620001a5826200015a565b810181811067ffffffffffffffff82111715620001c757620001c66200016b565b5b80604052505050565b6000620001dc6200013c565b9050620001ea82826200019a565b919050565b600067ffffffffffffffff8211156200020d576200020c6200016b565b5b62000218826200015a565b9050602081019050919050565b60005b838110156200024557808201518184015260208101905062000228565b8381111562000255576000848401525b50505050565b6000620002726200026c84620001ef565b620001d0565b90508281526020810184848401111562000291576200029062000155565b5b6200029e84828562000225565b509392505050565b600082601f830112620002be57620002bd62000150565b5b8151620002d08482602086016200025b565b91505092915050565b60008060408385031215620002f357620002f262000146565b5b600083015167ffffffffffffffff8111156200031457620003136200014b565b5b6200032285828601620002a6565b925050602083015167ffffffffffffffff8111156200034657620003456200014b565b5b6200035485828601620002a6565b9150509250929050565b7f4e487b7100000000000000000000000000000000000000000000000000000000600052602260045260246000fd5b60006002820490506001821680620003a657607f821691505b60208210811415620003bd57620003bc6200035e565b5b50919050565b611afd80620003d36000396000f3fe608060405234801561001057600080fd5b506004361061010b5760003560e01c806370a08231116100a2578063b09f126611610071578063b09f1266146102b8578063b88d4fde146102d6578063c87b56dd146102f2578063d28d885214610322578063e985e9c5146103405761010b565b806370a08231146102305780639451c99a1461026057806395d89b411461027e578063a22cb4651461029c5761010b565b806318160ddd116100de57806318160ddd146101aa57806323b872dd146101c857806342842e0e146101e45780636352211e146102005761010b565b806301ffc9a71461011057806306fdde0314610140578063081812fc1461015e578063095ea7b31461018e575b600080fd5b61012a600480360381019061012591906113cc565b610370565b6040516101379190611414565b60405180910390f35b610148610402565b60405161015591906114c8565b60405180910390f35b61017860048036038101906101739190611520565b610494565b604051610185919061158e565b60405180910390f35b6101a860048036038101906101a391906115d5565b610510565b005b6101b26106b7565b6040516101bf9190611624565b60405180910390f35b6101e260048036038101906101dd919061163f565b6106ce565b005b6101fe60048036038101906101f9919061163f565b6106de565b005b61021a60048036038101906102159190611520565b6106fe565b604051610227919061158e565b60405180910390f35b61024a60048036038101906102459190611692565b610710565b6040516102579190611624565b60405180910390f35b6102686107a5565b6040516102759190611624565b60405180910390f35b6102866107ab565b60405161029391906114c8565b60405180910390f35b6102b660048036038101906102b191906116eb565b61083d565b005b6102c06109b5565b6040516102cd91906114c8565b60405180910390f35b6102f060048036038101906102eb9190611860565b610a43565b005b61030c60048036038101906103079190611520565b610ab6565b60405161031991906114c8565b60405180910390f35b61032a610b55565b60405161033791906114c8565b60405180910390f35b61035a600480360381019061035591906118e3565b610be3565b6040516103679190611414565b60405180910390f35b60006301ffc9a760e01b827bffffffffffffffffffffffffffffffffffffffffffffffffffffffff191614806103cb57506380ac58cd60e01b827bffffffffffffffffffffffffffffffffffffffffffffffffffffffff1916145b806103fb5750635b5e139f60e01b827bffffffffffffffffffffffffffffffffffffffffffffffffffffffff1916145b9050919050565b60606002805461041190611952565b80601f016020809104026020016040519081016040528092919081815260200182805461043d90611952565b801561048a5780601f1061045f5761010080835404028352916020019161048a565b820191906000526020600020905b81548152906001019060200180831161046d57829003601f168201915b5050505050905090565b600061049f82610c77565b6104d5576040517fcf4700e400000000000000000000000000000000000000000000000000000000815260040160405180910390fd5b6006600083815260200190815260200160002060009054906101000a900473ffffffffffffffffffffffffffffffffffffffff169050919050565b600061051b82610cd6565b90508073ffffffffffffffffffffffffffffffffffffffff168373ffffffffffffffffffffffffffffffffffffffff161415610583576040517f943f7b8c00000000000000000000000000000000000000000000000000000000815260040160405180910390fd5b8073ffffffffffffffffffffffffffffffffffffffff166105a2610da4565b73ffffffffffffffffffffffffffffffffffffffff1614610605576105ce816105c9610da4565b610be3565b610604576040517fcfb3b94200000000000000000000000000000000000000000000000000000000815260040160405180910390fd5b5b826006600084815260200190815260200160002060006101000a81548173ffffffffffffffffffffffffffffffffffffffff021916908373ffffffffffffffffffffffffffffffffffffffff160217905550818373ffffffffffffffffffffffffffffffffffffffff168273ffffffffffffffffffffffffffffffffffffffff167f8c5be1e5ebec7d5bd14f71427d1e84f3dd0314c0f7b2291e5b200ac8c7c3b92560405160405180910390a4505050565b60006106c1610dac565b6001546000540303905090565b6106d9838383610db1565b505050565b6106f983838360405180602001604052806000815250610a43565b505050565b600061070982610cd6565b9050919050565b60008061071c83611179565b1415610754576040517f8f4eb60400000000000000000000000000000000000000000000000000000000815260040160405180910390fd5b67ffffffffffffffff600560008473ffffffffffffffffffffffffffffffffffffffff1673ffffffffffffffffffffffffffffffffffffffff16815260200190815260200160002054169050919050565b60005481565b6060600380546107ba90611952565b80601f01602080910402602001604051908101604052809291908181526020018280546107e690611952565b80156108335780601f1061080857610100808354040283529160200191610833565b820191906000526020600020905b81548152906001019060200180831161081657829003601f168201915b5050505050905090565b610845610da4565b73ffffffffffffffffffffffffffffffffffffffff168273ffffffffffffffffffffffffffffffffffffffff1614156108aa576040517fb06307db00000000000000000000000000000000000000000000000000000000815260040160405180910390fd5b80600760006108b7610da4565b73ffffffffffffffffffffffffffffffffffffffff1673ffffffffffffffffffffffffffffffffffffffff16815260200190815260200160002060008473ffffffffffffffffffffffffffffffffffffffff1673ffffffffffffffffffffffffffffffffffffffff16815260200190815260200160002060006101000a81548160ff0219169083151502179055508173ffffffffffffffffffffffffffffffffffffffff16610964610da4565b73ffffffffffffffffffffffffffffffffffffffff167f17307eab39ab6107e8899845ad3d59bd9653f200f220920489ca2b5937696c31836040516109a99190611414565b60405180910390a35050565b600380546109c290611952565b80601f01602080910402602001604051908101604052809291908181526020018280546109ee90611952565b8015610a3b5780601f10610a1057610100808354040283529160200191610a3b565b820191906000526020600020905b815481529060010190602001808311610a1e57829003601f168201915b505050505081565b610a4e848484610db1565b60008373ffffffffffffffffffffffffffffffffffffffff163b14610ab057610a7984848484611183565b610aaf576040517fd1a57ed600000000000000000000000000000000000000000000000000000000815260040160405180910390fd5b5b50505050565b6060610ac182610c77565b610af7576040517fa14c4b5000000000000000000000000000000000000000000000000000000000815260040160405180910390fd5b6000610b016112e3565b9050600081511415610b225760405180602001604052806000815250610b4d565b80610b2c846112fa565b604051602001610b3d9291906119c0565b6040516020818303038152906040525b915050919050565b60028054610b6290611952565b80601f0160208091040260200160405190810160405280929190818152602001828054610b8e90611952565b8015610bdb5780601f10610bb057610100808354040283529160200191610bdb565b820191906000526020600020905b815481529060010190602001808311610bbe57829003601f168201915b505050505081565b6000600760008473ffffffffffffffffffffffffffffffffffffffff1673ffffffffffffffffffffffffffffffffffffffff16815260200190815260200160002060008373ffffffffffffffffffffffffffffffffffffffff1673ffffffffffffffffffffffffffffffffffffffff16815260200190815260200160002060009054906101000a900460ff16905092915050565b600081610c82610dac565b11158015610c91575060005482105b8015610ccf575060007c0100000000000000000000000000000000000000000000000000000000600460008581526020019081526020016000205416145b9050919050565b60008082905080610ce5610dac565b11610d6d57600054811015610d6c5760006004600083815260200190815260200160002054905060007c010000000000000000000000000000000000000000000000000000000082161415610d6a575b6000811415610d60576004600083600190039350838152602001908152602001600020549050610d35565b8092505050610d9f565b505b5b6040517fdf2d9b4200000000000000000000000000000000000000000000000000000000815260040160405180910390fd5b919050565b600033905090565b600090565b6000610dbc82610cd6565b90508373ffffffffffffffffffffffffffffffffffffffff168173ffffffffffffffffffffffffffffffffffffffff1614610e23576040517fa114810000000000000000000000000000000000000000000000000000000000815260040160405180910390fd5b60006006600084815260200190815260200160002060009054906101000a900473ffffffffffffffffffffffffffffffffffffffff16905060008573ffffffffffffffffffffffffffffffffffffffff16610e7c610da4565b73ffffffffffffffffffffffffffffffffffffffff161480610eab5750610eaa86610ea5610da4565b610be3565b5b80610ee85750610eb9610da4565b73ffffffffffffffffffffffffffffffffffffffff168273ffffffffffffffffffffffffffffffffffffffff16145b905080610f21576040517f59c896be00000000000000000000000000000000000000000000000000000000815260040160405180910390fd5b6000610f2c86611179565b1415610f64576040517fea553b3400000000000000000000000000000000000000000000000000000000815260040160405180910390fd5b610f718686866001611354565b6000610f7c83611179565b14610fb8576006600085815260200190815260200160002060006101000a81549073ffffffffffffffffffffffffffffffffffffffff02191690555b600560008773ffffffffffffffffffffffffffffffffffffffff1673ffffffffffffffffffffffffffffffffffffffff168152602001908152602001600020600081546001900391905081905550600560008673ffffffffffffffffffffffffffffffffffffffff1673ffffffffffffffffffffffffffffffffffffffff16815260200190815260200160002060008154600101919050819055507c020000000000000000000000000000000000000000000000000000000060a042901b61107f87611179565b1717600460008681526020019081526020016000208190555060007c020000000000000000000000000000000000000000000000000000000084161415611109576000600185019050600060046000838152602001908152602001600020541415611107576000548114611106578360046000838152602001908152602001600020819055505b5b505b838573ffffffffffffffffffffffffffffffffffffffff168773ffffffffffffffffffffffffffffffffffffffff167fddf252ad1be2c89b69c2b068fc378daa952ba7f163c4a11628f55a4df523b3ef60405160405180910390a4611171868686600161135a565b505050505050565b6000819050919050565b60008373ffffffffffffffffffffffffffffffffffffffff1663150b7a026111a9610da4565b8786866040518563ffffffff1660e01b81526004016111cb9493929190611a39565b602060405180830381600087803b1580156111e557600080fd5b505af192505050801561121657506040513d601f19601f820116820180604052508101906112139190611a9a565b60015b611290573d8060008114611246576040519150601f19603f3d011682016040523d82523d6000602084013e61124b565b606091505b50600081511415611288576040517fd1a57ed600000000000000000000000000000000000000000000000000000000815260040160405180910390fd5b805181602001fd5b63150b7a0260e01b7bffffffffffffffffffffffffffffffffffffffffffffffffffffffff1916817bffffffffffffffffffffffffffffffffffffffffffffffffffffffff191614915050949350505050565b606060405180602001604052806000815250905090565b60606080604051019050806040528082600183039250600a81066030018353600a810490505b801561134057600183039250600a81066030018353600a81049050611320565b508181036020830392508083525050919050565b50505050565b50505050565b6000604051905090565b600080fd5b600080fd5b60007fffffffff0000000000000000000000000000000000000000000000000000000082169050919050565b6113a981611374565b81146113b457600080fd5b50565b6000813590506113c6816113a0565b92915050565b6000602082840312156113e2576113e161136a565b5b60006113f0848285016113b7565b91505092915050565b60008115159050919050565b61140e816113f9565b82525050565b60006020820190506114296000830184611405565b92915050565b600081519050919050565b600082825260208201905092915050565b60005b8381101561146957808201518184015260208101905061144e565b83811115611478576000848401525b50505050565b6000601f19601f8301169050919050565b600061149a8261142f565b6114a4818561143a565b93506114b481856020860161144b565b6114bd8161147e565b840191505092915050565b600060208201905081810360008301526114e2818461148f565b905092915050565b6000819050919050565b6114fd816114ea565b811461150857600080fd5b50565b60008135905061151a816114f4565b92915050565b6000602082840312156115365761153561136a565b5b60006115448482850161150b565b91505092915050565b600073ffffffffffffffffffffffffffffffffffffffff82169050919050565b60006115788261154d565b9050919050565b6115888161156d565b82525050565b60006020820190506115a3600083018461157f565b92915050565b6115b28161156d565b81146115bd57600080fd5b50565b6000813590506115cf816115a9565b92915050565b600080604083850312156115ec576115eb61136a565b5b60006115fa858286016115c0565b925050602061160b8582860161150b565b9150509250929050565b61161e816114ea565b82525050565b60006020820190506116396000830184611615565b92915050565b6000806000606084860312156116585761165761136a565b5b6000611666868287016115c0565b9350506020611677868287016115c0565b92505060406116888682870161150b565b9150509250925092565b6000602082840312156116a8576116a761136a565b5b60006116b6848285016115c0565b91505092915050565b6116c8816113f9565b81146116d357600080fd5b50565b6000813590506116e5816116bf565b92915050565b600080604083850312156117025761170161136a565b5b6000611710858286016115c0565b9250506020611721858286016116d6565b9150509250929050565b600080fd5b600080fd5b7f4e487b7100000000000000000000000000000000000000000000000000000000600052604160045260246000fd5b61176d8261147e565b810181811067ffffffffffffffff8211171561178c5761178b611735565b5b80604052505050565b600061179f611360565b90506117ab8282611764565b919050565b600067ffffffffffffffff8211156117cb576117ca611735565b5b6117d48261147e565b9050602081019050919050565b82818337600083830152505050565b60006118036117fe846117b0565b611795565b90508281526020810184848401111561181f5761181e611730565b5b61182a8482856117e1565b509392505050565b600082601f8301126118475761184661172b565b5b81356118578482602086016117f0565b91505092915050565b6000806000806080858703121561187a5761187961136a565b5b6000611888878288016115c0565b9450506020611899878288016115c0565b93505060406118aa8782880161150b565b925050606085013567ffffffffffffffff8111156118cb576118ca61136f565b5b6118d787828801611832565b91505092959194509250565b600080604083850312156118fa576118f961136a565b5b6000611908858286016115c0565b9250506020611919858286016115c0565b9150509250929050565b7f4e487b7100000000000000000000000000000000000000000000000000000000600052602260045260246000fd5b6000600282049050600182168061196a57607f821691505b6020821081141561197e5761197d611923565b5b50919050565b600081905092915050565b600061199a8261142f565b6119a48185611984565b93506119b481856020860161144b565b80840191505092915050565b60006119cc828561198f565b91506119d8828461198f565b91508190509392505050565b600081519050919050565b600082825260208201905092915050565b6000611a0b826119e4565b611a1581856119ef565b9350611a2581856020860161144b565b611a2e8161147e565b840191505092915050565b6000608082019050611a4e600083018761157f565b611a5b602083018661157f565b611a686040830185611615565b8181036060830152611a7a8184611a00565b905095945050505050565b600081519050611a94816113a0565b92915050565b600060208284031215611ab057611aaf61136a565b5b6000611abe84828501611a85565b9150509291505056fea2646970667358221220c22c05ed785c7501d2198e10fd083f03319f97e1de3d8449a900f5e26a8a9af264736f6c63430008090033",
  "linkReferences": {},
  "deployedLinkReferences": {}
}