{
  "contracts/facets/Test2Facet.sol": {
    "Test2Facet": {
      "abi": [
        {
          "inputs": [],
          "name": "test2Func1",
          "outputs": [],
          "stateMutability": "nonpayable",
          "type": "function"
        },
        {
          "inputs": [],
          "name": "test2Func10",
          "outputs": [],
          "stateMutability": "nonpayable",
          "type": "function"
        },
        {
          "inputs": [],
          "name": "test2Func11",
          "outputs": [],
          "stateMutability": "nonpayable",
          "type": "function"
        },
        {
          "inputs": [],
          "name": "test2Func12",
          "outputs": [],
          "stateMutability": "nonpayable",
          "type": "function"
        },
        {
          "inputs": [],
          "name": "test2Func13",
          "outputs": [],
          "stateMutability": "nonpayable",
          "type": "function"
        },
        {
          "inputs": [],
          "name": "test2Func14",
          "outputs": [],
          "stateMutability": "nonpayable",
          "type": "function"
        },
        {
          "inputs": [],
          "name": "test2Func15",
          "outputs": [],
          "stateMutability": "nonpayable",
          "type": "function"
        },
        {
          "inputs": [],
          "name": "test2Func16",
          "outputs": [],
          "stateMutability": "nonpayable",
          "type": "function"
        },
        {
          "inputs": [],
          "name": "test2Func17",
          "outputs": [],
          "stateMutability": "nonpayable",
          "type": "function"
        },
        {
          "inputs": [],
          "name": "test2Func18",
          "outputs": [],
          "stateMutability": "nonpayable",
          "type": "function"
        },
        {
          "inputs": [],
          "name": "test2Func19",
          "outputs": [],
          "stateMutability": "nonpayable",
          "type": "function"
        },
        {
          "inputs": [],
          "name": "test2Func2",
          "outputs": [],
          "stateMutability": "nonpayable",
          "type": "function"
        },
        {
          "inputs": [],
          "name": "test2Func20",
          "outputs": [],
          "stateMutability": "nonpayable",
          "type": "function"
        },
        {
          "inputs": [],
          "name": "test2Func3",
          "outputs": [],
          "stateMutability": "nonpayable",
          "type": "function"
        },
        {
          "inputs": [],
          "name": "test2Func4",
          "outputs": [],
          "stateMutability": "nonpayable",
          "type": "function"
        },
        {
          "inputs": [],
          "name": "test2Func5",
          "outputs": [],
          "stateMutability": "nonpayable",
          "type": "function"
        },
        {
          "inputs": [],
          "name": "test2Func6",
          "outputs": [],
          "stateMutability": "nonpayable",
          "type": "function"
        },
        {
          "inputs": [],
          "name": "test2Func7",
          "outputs": [],
          "stateMutability": "nonpayable",
          "type": "function"
        },
        {
          "inputs": [],
          "name": "test2Func8",
          "outputs": [],
          "stateMutability": "nonpayable",
          "type": "function"
        },
        {
          "inputs": [],
          "name": "test2Func9",
          "outputs": [],
          "stateMutability": "nonpayable",
          "type": "function"
        }
      ],
      "evm": {
        "bytecode": {
          "linkReferences": {},
          "object": "608060405234801561001057600080fd5b50610257806100206000396000f3fe608060405234801561001057600080fd5b506004361061012c5760003560e01c80638ee8be30116100ad578063d2f0c73e11610071578063d2f0c73e146101c7578063e5f687b2146101d1578063e7de23a4146101db578063ea36b558146101e5578063ef3f4d78146101ef5761012c565b80638ee8be301461019557806391d0396b1461019f578063c670641d146101a9578063ca5fa5c0146101b3578063caae8f23146101bd5761012c565b80632e463958116100f45780632e463958146101635780635fd6312b1461016d5780636dc16b0114610177578063792a8e2e14610181578063884280a61461018b5761012c565b806303feeeae146101315780630c103a931461013b5780630e4cd7fc14610145578063148843091461014f57806317fd06e714610159575b600080fd5b6101396101f9565b005b6101436101fb565b005b61014d6101fd565b005b6101576101ff565b005b610161610201565b005b61016b610203565b005b610175610205565b005b61017f610207565b005b610189610209565b005b61019361020b565b005b61019d61020d565b005b6101a761020f565b005b6101b1610211565b005b6101bb610213565b005b6101c5610215565b005b6101cf610217565b005b6101d9610219565b005b6101e361021b565b005b6101ed61021d565b005b6101f761021f565b005b565b565b565b565b565b565b565b565b565b565b565b565b565b565b565b565b565b565b565b56fea264697066735822122069ce94af01d1c1097e2fb82d1f4a5e3f47b3204c85269e12d01146874c722afd64736f6c63430008090033",
          "opcodes": "PUSH1 0x80 PUSH1 0x40 MSTORE CALLVALUE DUP1 ISZERO PUSH2 0x10 JUMPI PUSH1 0x0 DUP1 REVERT JUMPDEST POP PUSH2 0x257 DUP1 PUSH2 0x20 PUSH1 0x0 CODECOPY PUSH1 0x0 RETURN INVALID PUSH1 0x80 PUSH1 0x40 MSTORE CALLVALUE DUP1 ISZERO PUSH2 0x10 JUMPI PUSH1 0x0 DUP1 REVERT JUMPDEST POP PUSH1 0x4 CALLDATASIZE LT PUSH2 0x12C JUMPI PUSH1 0x0 CALLDATALOAD PUSH1 0xE0 SHR DUP1 PUSH4 0x8EE8BE30 GT PUSH2 0xAD JUMPI DUP1 PUSH4 0xD2F0C73E GT PUSH2 0x71 JUMPI DUP1 PUSH4 0xD2F0C73E EQ PUSH2 0x1C7 JUMPI DUP1 PUSH4 0xE5F687B2 EQ PUSH2 0x1D1 JUMPI DUP1 PUSH4 0xE7DE23A4 EQ PUSH2 0x1DB JUMPI DUP1 PUSH4 0xEA36B558 EQ PUSH2 0x1E5 JUMPI DUP1 PUSH4 0xEF3F4D78 EQ PUSH2 0x1EF JUMPI PUSH2 0x12C JUMP JUMPDEST DUP1 PUSH4 0x8EE8BE30 EQ PUSH2 0x195 JUMPI DUP1 PUSH4 0x91D0396B EQ PUSH2 0x19F JUMPI DUP1 PUSH4 0xC670641D EQ PUSH2 0x1A9 JUMPI DUP1 PUSH4 0xCA5FA5C0 EQ PUSH2 0x1B3 JUMPI DUP1 PUSH4 0xCAAE8F23 EQ PUSH2 0x1BD JUMPI PUSH2 0x12C JUMP JUMPDEST DUP1 PUSH4 0x2E463958 GT PUSH2 0xF4 JUMPI DUP1 PUSH4 0x2E463958 EQ PUSH2 0x163 JUMPI DUP1 PUSH4 0x5FD6312B EQ PUSH2 0x16D JUMPI DUP1 PUSH4 0x6DC16B01 EQ PUSH2 0x177 JUMPI DUP1 PUSH4 0x792A8E2E EQ PUSH2 0x181 JUMPI DUP1 PUSH4 0x884280A6 EQ PUSH2 0x18B JUMPI PUSH2 0x12C JUMP JUMPDEST DUP1 PUSH4 0x3FEEEAE EQ PUSH2 0x131 JUMPI DUP1 PUSH4 0xC103A93 EQ PUSH2 0x13B JUMPI DUP1 PUSH4 0xE4CD7FC EQ PUSH2 0x145 JUMPI DUP1 PUSH4 0x14884309 EQ PUSH2 0x14F JUMPI DUP1 PUSH4 0x17FD06E7 EQ PUSH2 0x159 JUMPI JUMPDEST PUSH1 0x0 DUP1 REVERT JUMPDEST PUSH2 0x139 PUSH2 0x1F9 JUMP JUMPDEST STOP JUMPDEST PUSH2 0x143 PUSH2 0x1FB JUMP JUMPDEST STOP JUMPDEST PUSH2 0x14D PUSH2 0x1FD JUMP JUMPDEST STOP JUMPDEST PUSH2 0x157 PUSH2 0x1FF JUMP JUMPDEST STOP JUMPDEST PUSH2 0x161 PUSH2 0x201 JUMP JUMPDEST STOP JUMPDEST PUSH2 0x16B PUSH2 0x203 JUMP JUMPDEST STOP JUMPDEST PUSH2 0x175 PUSH2 0x205 JUMP JUMPDEST STOP JUMPDEST PUSH2 0x17F PUSH2 0x207 JUMP JUMPDEST STOP JUMPDEST PUSH2 0x189 PUSH2 0x209 JUMP JUMPDEST STOP JUMPDEST PUSH2 0x193 PUSH2 0x20B JUMP JUMPDEST STOP JUMPDEST PUSH2 0x19D PUSH2 0x20D JUMP JUMPDEST STOP JUMPDEST PUSH2 0x1A7 PUSH2 0x20F JUMP JUMPDEST STOP JUMPDEST PUSH2 0x1B1 PUSH2 0x211 JUMP JUMPDEST STOP JUMPDEST PUSH2 0x1BB PUSH2 0x213 JUMP JUMPDEST STOP JUMPDEST PUSH2 0x1C5 PUSH2 0x215 JUMP JUMPDEST STOP JUMPDEST PUSH2 0x1CF PUSH2 0x217 JUMP JUMPDEST STOP JUMPDEST PUSH2 0x1D9 PUSH2 0x219 JUMP JUMPDEST STOP JUMPDEST PUSH2 0x1E3 PUSH2 0x21B JUMP JUMPDEST STOP JUMPDEST PUSH2 0x1ED PUSH2 0x21D JUMP JUMPDEST STOP JUMPDEST PUSH2 0x1F7 PUSH2 0x21F JUMP JUMPDEST STOP JUMPDEST JUMP JUMPDEST JUMP JUMPDEST JUMP JUMPDEST JUMP JUMPDEST JUMP JUMPDEST JUMP JUMPDEST JUMP JUMPDEST JUMP JUMPDEST JUMP JUMPDEST JUMP JUMPDEST JUMP JUMPDEST JUMP JUMPDEST JUMP JUMPDEST JUMP JUMPDEST JUMP JUMPDEST JUMP JUMPDEST JUMP JUMPDEST JUMP JUMPDEST JUMP JUMPDEST JUMP INVALID LOG2 PUSH5 0x6970667358 0x22 SLT KECCAK256 PUSH10 0xCE94AF01D1C1097E2FB8 0x2D 0x1F 0x4A 0x5E EXTCODEHASH SELFBALANCE 0xB3 KECCAK256 0x4C DUP6 0x26 SWAP15 SLT 0xD0 GT CHAINID DUP8 0x4C PUSH19 0x2AFD64736F6C63430008090033000000000000 "
        },
        "methodIdentifiers": {
          "test2Func1()": "ea36b558",
          "test2Func10()": "8ee8be30",
          "test2Func11()": "884280a6",
          "test2Func12()": "ca5fa5c0",
          "test2Func13()": "6dc16b01",
          "test2Func14()": "91d0396b",
          "test2Func15()": "03feeeae",
          "test2Func16()": "2e463958",
          "test2Func17()": "14884309",
          "test2Func18()": "0c103a93",
          "test2Func19()": "5fd6312b",
          "test2Func2()": "e7de23a4",
          "test2Func20()": "792a8e2e",
          "test2Func3()": "0e4cd7fc",
          "test2Func4()": "c670641d",
          "test2Func5()": "d2f0c73e",
          "test2Func6()": "17fd06e7",
          "test2Func7()": "ef3f4d78",
          "test2Func8()": "e5f687b2",
          "test2Func9()": "caae8f23"
        }
      }
    }
  }
}