{
  "_format": "hh-sol-artifact-1",
  "contractName": "ERC1155Factory",
  "sourceName": "contracts/factoryContracts/ERC1155Factory.sol",
  "abi": [
    {
      "inputs": [
        {
          "internalType": "string",
          "name": "name_",
          "type": "string"
        },
        {
          "internalType": "string",
          "name": "symbol_",
          "type": "string"
        },
        {
          "internalType": "bool",
          "name": "defaultRoyalty",
          "type": "bool"
        },
        {
          "internalType": "address[]",
          "name": "royaltyReceiver",
          "type": "address[]"
        },
        {
          "internalType": "uint96[]",
          "name": "royaltyFeesInBips",
          "type": "uint96[]"
        }
      ],
      "stateMutability": "nonpayable",
      "type": "constructor"
    },
    {
      "anonymous": false,
      "inputs": [
        {
          "indexed": true,
          "internalType": "address",
          "name": "account",
          "type": "address"
        },
        {
          "indexed": true,
          "internalType": "address",
          "name": "operator",
          "type": "address"
        },
        {
          "indexed": false,
          "internalType": "bool",
          "name": "approved",
          "type": "bool"
        }
      ],
      "name": "ApprovalForAll",
      "type": "event"
    },
    {
      "anonymous": false,
      "inputs": [
        {
          "indexed": true,
          "internalType": "address",
          "name": "previousOwner",
          "type": "address"
        },
        {
          "indexed": true,
          "internalType": "address",
          "name": "newOwner",
          "type": "address"
        }
      ],
      "name": "OwnershipTransferred",
      "type": "event"
    },
    {
      "anonymous": false,
      "inputs": [
        {
          "indexed": false,
          "internalType": "address",
          "name": "account",
          "type": "address"
        }
      ],
      "name": "Paused",
      "type": "event"
    },
    {
      "anonymous": false,
      "inputs": [
        {
          "indexed": true,
          "internalType": "address",
          "name": "operator",
          "type": "address"
        },
        {
          "indexed": true,
          "internalType": "address",
          "name": "from",
          "type": "address"
        },
        {
          "indexed": true,
          "internalType": "address",
          "name": "to",
          "type": "address"
        },
        {
          "indexed": false,
          "internalType": "uint256[]",
          "name": "ids",
          "type": "uint256[]"
        },
        {
          "indexed": false,
          "internalType": "uint256[]",
          "name": "values",
          "type": "uint256[]"
        }
      ],
      "name": "TransferBatch",
      "type": "event"
    },
    {
      "anonymous": false,
      "inputs": [
        {
          "indexed": true,
          "internalType": "address",
          "name": "operator",
          "type": "address"
        },
        {
          "indexed": true,
          "internalType": "address",
          "name": "from",
          "type": "address"
        },
        {
          "indexed": true,
          "internalType": "address",
          "name": "to",
          "type": "address"
        },
        {
          "indexed": false,
          "internalType": "uint256",
          "name": "id",
          "type": "uint256"
        },
        {
          "indexed": false,
          "internalType": "uint256",
          "name": "value",
          "type": "uint256"
        }
      ],
      "name": "TransferSingle",
      "type": "event"
    },
    {
      "anonymous": false,
      "inputs": [
        {
          "indexed": false,
          "internalType": "string",
          "name": "value",
          "type": "string"
        },
        {
          "indexed": true,
          "internalType": "uint256",
          "name": "id",
          "type": "uint256"
        }
      ],
      "name": "URI",
      "type": "event"
    },
    {
      "anonymous": false,
      "inputs": [
        {
          "indexed": false,
          "internalType": "address",
          "name": "account",
          "type": "address"
        }
      ],
      "name": "Unpaused",
      "type": "event"
    },
    {
      "anonymous": false,
      "inputs": [
        {
          "indexed": false,
          "internalType": "bool",
          "name": "whitelistEnabled",
          "type": "bool"
        }
      ],
      "name": "WhiteListEnabled",
      "type": "event"
    },
    {
      "inputs": [
        {
          "internalType": "uint256",
          "name": "",
          "type": "uint256"
        }
      ],
      "name": "_creators",
      "outputs": [
        {
          "internalType": "address",
          "name": "",
          "type": "address"
        }
      ],
      "stateMutability": "view",
      "type": "function"
    },
    {
      "inputs": [
        {
          "internalType": "address",
          "name": "account",
          "type": "address"
        },
        {
          "internalType": "uint256",
          "name": "id",
          "type": "uint256"
        }
      ],
      "name": "balanceOf",
      "outputs": [
        {
          "internalType": "uint256",
          "name": "",
          "type": "uint256"
        }
      ],
      "stateMutability": "view",
      "type": "function"
    },
    {
      "inputs": [
        {
          "internalType": "address[]",
          "name": "accounts",
          "type": "address[]"
        },
        {
          "internalType": "uint256[]",
          "name": "ids",
          "type": "uint256[]"
        }
      ],
      "name": "balanceOfBatch",
      "outputs": [
        {
          "internalType": "uint256[]",
          "name": "",
          "type": "uint256[]"
        }
      ],
      "stateMutability": "view",
      "type": "function"
    },
    {
      "inputs": [
        {
          "internalType": "address",
          "name": "_from",
          "type": "address"
        },
        {
          "internalType": "uint256",
          "name": "_tokenId",
          "type": "uint256"
        },
        {
          "internalType": "uint256",
          "name": "_amount",
          "type": "uint256"
        }
      ],
      "name": "burn",
      "outputs": [],
      "stateMutability": "nonpayable",
      "type": "function"
    },
    {
      "inputs": [
        {
          "internalType": "address",
          "name": "account",
          "type": "address"
        },
        {
          "internalType": "address",
          "name": "operator",
          "type": "address"
        }
      ],
      "name": "isApprovedForAll",
      "outputs": [
        {
          "internalType": "bool",
          "name": "",
          "type": "bool"
        }
      ],
      "stateMutability": "view",
      "type": "function"
    },
    {
      "inputs": [
        {
          "internalType": "address",
          "name": "creator",
          "type": "address"
        },
        {
          "internalType": "string",
          "name": "tokenURI",
          "type": "string"
        },
        {
          "internalType": "uint256",
          "name": "copies",
          "type": "uint256"
        },
        {
          "internalType": "bool",
          "name": "tokenRoyalty",
          "type": "bool"
        },
        {
          "internalType": "address[]",
          "name": "royaltyReceiver",
          "type": "address[]"
        },
        {
          "internalType": "uint96[]",
          "name": "tokenRoyaltyInBips",
          "type": "uint96[]"
        }
      ],
      "name": "mint",
      "outputs": [
        {
          "internalType": "uint256",
          "name": "",
          "type": "uint256"
        },
        {
          "internalType": "uint256",
          "name": "",
          "type": "uint256"
        }
      ],
      "stateMutability": "nonpayable",
      "type": "function"
    },
    {
      "inputs": [],
      "name": "name",
      "outputs": [
        {
          "internalType": "string",
          "name": "",
          "type": "string"
        }
      ],
      "stateMutability": "view",
      "type": "function"
    },
    {
      "inputs": [],
      "name": "owner",
      "outputs": [
        {
          "internalType": "address",
          "name": "",
          "type": "address"
        }
      ],
      "stateMutability": "view",
      "type": "function"
    },
    {
      "inputs": [],
      "name": "paused",
      "outputs": [
        {
          "internalType": "bool",
          "name": "",
          "type": "bool"
        }
      ],
      "stateMutability": "view",
      "type": "function"
    },
    {
      "inputs": [
        {
          "internalType": "address[]",
          "name": "currentAddresses",
          "type": "address[]"
        }
      ],
      "name": "removeWhitelist",
      "outputs": [],
      "stateMutability": "nonpayable",
      "type": "function"
    },
    {
      "inputs": [],
      "name": "renounceOwnership",
      "outputs": [],
      "stateMutability": "nonpayable",
      "type": "function"
    },
    {
      "inputs": [
        {
          "internalType": "uint256",
          "name": "_tokenId",
          "type": "uint256"
        },
        {
          "internalType": "uint256",
          "name": "_salePrice",
          "type": "uint256"
        }
      ],
      "name": "royaltyInfo",
      "outputs": [
        {
          "internalType": "address[]",
          "name": "",
          "type": "address[]"
        },
        {
          "internalType": "uint256[]",
          "name": "",
          "type": "uint256[]"
        }
      ],
      "stateMutability": "view",
      "type": "function"
    },
    {
      "inputs": [
        {
          "internalType": "address",
          "name": "from",
          "type": "address"
        },
        {
          "internalType": "address",
          "name": "to",
          "type": "address"
        },
        {
          "internalType": "uint256[]",
          "name": "ids",
          "type": "uint256[]"
        },
        {
          "internalType": "uint256[]",
          "name": "amounts",
          "type": "uint256[]"
        },
        {
          "internalType": "bytes",
          "name": "data",
          "type": "bytes"
        }
      ],
      "name": "safeBatchTransferFrom",
      "outputs": [],
      "stateMutability": "nonpayable",
      "type": "function"
    },
    {
      "inputs": [
        {
          "internalType": "address",
          "name": "from",
          "type": "address"
        },
        {
          "internalType": "address",
          "name": "to",
          "type": "address"
        },
        {
          "internalType": "uint256",
          "name": "id",
          "type": "uint256"
        },
        {
          "internalType": "uint256",
          "name": "amount",
          "type": "uint256"
        },
        {
          "internalType": "bytes",
          "name": "data",
          "type": "bytes"
        }
      ],
      "name": "safeTransferFrom",
      "outputs": [],
      "stateMutability": "nonpayable",
      "type": "function"
    },
    {
      "inputs": [
        {
          "internalType": "address",
          "name": "operator",
          "type": "address"
        },
        {
          "internalType": "bool",
          "name": "approved",
          "type": "bool"
        }
      ],
      "name": "setApprovalForAll",
      "outputs": [],
      "stateMutability": "nonpayable",
      "type": "function"
    },
    {
      "inputs": [
        {
          "internalType": "address[]",
          "name": "newAddresses",
          "type": "address[]"
        }
      ],
      "name": "setWhitelist",
      "outputs": [],
      "stateMutability": "nonpayable",
      "type": "function"
    },
    {
      "inputs": [
        {
          "internalType": "bool",
          "name": "_state",
          "type": "bool"
        }
      ],
      "name": "setWhitelistEnabled",
      "outputs": [],
      "stateMutability": "nonpayable",
      "type": "function"
    },
    {
      "inputs": [
        {
          "internalType": "bytes4",
          "name": "interfaceId",
          "type": "bytes4"
        }
      ],
      "name": "supportsInterface",
      "outputs": [
        {
          "internalType": "bool",
          "name": "",
          "type": "bool"
        }
      ],
      "stateMutability": "view",
      "type": "function"
    },
    {
      "inputs": [],
      "name": "symbol",
      "outputs": [
        {
          "internalType": "string",
          "name": "",
          "type": "string"
        }
      ],
      "stateMutability": "view",
      "type": "function"
    },
    {
      "inputs": [
        {
          "internalType": "address",
          "name": "_from",
          "type": "address"
        },
        {
          "internalType": "address",
          "name": "_to",
          "type": "address"
        },
        {
          "internalType": "uint256",
          "name": "_tokenId",
          "type": "uint256"
        },
        {
          "internalType": "uint256",
          "name": "_copies",
          "type": "uint256"
        }
      ],
      "name": "transfer",
      "outputs": [
        {
          "internalType": "bool",
          "name": "",
          "type": "bool"
        }
      ],
      "stateMutability": "nonpayable",
      "type": "function"
    },
    {
      "inputs": [
        {
          "internalType": "address",
          "name": "newOwner",
          "type": "address"
        }
      ],
      "name": "transferOwnership",
      "outputs": [],
      "stateMutability": "nonpayable",
      "type": "function"
    },
    {
      "inputs": [
        {
          "internalType": "uint256",
          "name": "tokenId",
          "type": "uint256"
        }
      ],
      "name": "uri",
      "outputs": [
        {
          "internalType": "string",
          "name": "",
          "type": "string"
        }
      ],
      "stateMutability": "view",
      "type": "function"
    },
    {
      "inputs": [
        {
          "internalType": "address",
          "name": "",
          "type": "address"
        }
      ],
      "name": "whitelist",
      "outputs": [
        {
          "internalType": "bool",
          "name": "",
          "type": "bool"
        }
      ],
      "stateMutability": "view",
      "type": "function"
    },
    {
      "inputs": [],
      "name": "whitelistEnabled",
      "outputs": [
        {
          "internalType": "bool",
          "name": "",
          "type": "bool"
        }
      ],
      "stateMutability": "view",
      "type": "function"
    }
  ],
  "bytecode": "0x60806040526000600b60006101000a81548160ff0219169083151502179055506000600d553480156200003157600080fd5b5060405162005dd238038062005dd2833981810160405281019062000057919062000a6f565b848460008060006101000a81548160ff02191690831515021790555081600190805190602001906200008b92919062000428565b508060029080519060200190620000a492919062000428565b505050620000c7620000bb6200014f60201b60201c565b6200015760201b60201c565b600085905060008590506000825114158015620000e657506000815114155b62000128576040517f08c379a00000000000000000000000000000000000000000000000000000000081526004016200011f9062000bfa565b60405180910390fd5b841562000142576200014184846200021d60201b60201c565b5b5050505050505062000fce565b600033905090565b6000600960009054906101000a900473ffffffffffffffffffffffffffffffffffffffff16905081600960006101000a81548173ffffffffffffffffffffffffffffffffffffffff021916908373ffffffffffffffffffffffffffffffffffffffff1602179055508173ffffffffffffffffffffffffffffffffffffffff168173ffffffffffffffffffffffffffffffffffffffff167f8be0079c531659141344cd1fd0a4f28419497f9722a3daafe3b4186f6b6457e060405160405180910390a35050565b600082511162000264576040517f08c379a00000000000000000000000000000000000000000000000000000000081526004016200025b9062000c6c565b60405180910390fd5b600582511115620002ac576040517f08c379a0000000000000000000000000000000000000000000000000000000008152600401620002a39062000d04565b60405180910390fd5b8051825114620002f3576040517f08c379a0000000000000000000000000000000000000000000000000000000008152600401620002ea9062000d9c565b60405180910390fd5b6000805b8251811015620003525782818151811062000317576200031662000dbe565b5b60200260200101516bffffffffffffffffffffffff16826200033a919062000e26565b91508080620003499062000e83565b915050620002f7565b50620003636200041e60201b60201c565b6bffffffffffffffffffffffff16811115620003b6576040517f08c379a0000000000000000000000000000000000000000000000000000000008152600401620003ad9062000f47565b60405180910390fd5b60608084905083915060405180604001604052808281526020018381525060066000820151816000019080519060200190620003f4929190620004b9565b5060208201518160010190805190602001906200041392919062000548565b509050505050505050565b6000612710905090565b828054620004369062000f98565b90600052602060002090601f0160209004810192826200045a5760008555620004a6565b82601f106200047557805160ff1916838001178555620004a6565b82800160010185558215620004a6579182015b82811115620004a557825182559160200191906001019062000488565b5b509050620004b5919062000617565b5090565b82805482825590600052602060002090810192821562000535579160200282015b82811115620005345782518260006101000a81548173ffffffffffffffffffffffffffffffffffffffff021916908373ffffffffffffffffffffffffffffffffffffffff16021790555091602001919060010190620004da565b5b50905062000544919062000617565b5090565b82805482825590600052602060002090600101600290048101928215620006045791602002820160005b83821115620005c857835183826101000a8154816bffffffffffffffffffffffff02191690836bffffffffffffffffffffffff1602179055509260200192600c01602081600b0104928301926001030262000572565b8015620006025782816101000a8154906bffffffffffffffffffffffff0219169055600c01602081600b01049283019260010302620005c8565b505b50905062000613919062000617565b5090565b5b808211156200063257600081600090555060010162000618565b5090565b6000604051905090565b600080fd5b600080fd5b600080fd5b600080fd5b6000601f19601f8301169050919050565b7f4e487b7100000000000000000000000000000000000000000000000000000000600052604160045260246000fd5b6200069f8262000654565b810181811067ffffffffffffffff82111715620006c157620006c062000665565b5b80604052505050565b6000620006d662000636565b9050620006e4828262000694565b919050565b600067ffffffffffffffff82111562000707576200070662000665565b5b620007128262000654565b9050602081019050919050565b60005b838110156200073f57808201518184015260208101905062000722565b838111156200074f576000848401525b50505050565b60006200076c6200076684620006e9565b620006ca565b9050828152602081018484840111156200078b576200078a6200064f565b5b620007988482856200071f565b509392505050565b600082601f830112620007b857620007b76200064a565b5b8151620007ca84826020860162000755565b91505092915050565b60008115159050919050565b620007ea81620007d3565b8114620007f657600080fd5b50565b6000815190506200080a81620007df565b92915050565b600067ffffffffffffffff8211156200082e576200082d62000665565b5b602082029050602081019050919050565b600080fd5b600073ffffffffffffffffffffffffffffffffffffffff82169050919050565b6000620008718262000844565b9050919050565b620008838162000864565b81146200088f57600080fd5b50565b600081519050620008a38162000878565b92915050565b6000620008c0620008ba8462000810565b620006ca565b90508083825260208201905060208402830185811115620008e657620008e56200083f565b5b835b81811015620009135780620008fe888262000892565b845260208401935050602081019050620008e8565b5050509392505050565b600082601f8301126200093557620009346200064a565b5b815162000947848260208601620008a9565b91505092915050565b600067ffffffffffffffff8211156200096e576200096d62000665565b5b602082029050602081019050919050565b60006bffffffffffffffffffffffff82169050919050565b620009a2816200097f565b8114620009ae57600080fd5b50565b600081519050620009c28162000997565b92915050565b6000620009df620009d98462000950565b620006ca565b9050808382526020820190506020840283018581111562000a055762000a046200083f565b5b835b8181101562000a32578062000a1d8882620009b1565b84526020840193505060208101905062000a07565b5050509392505050565b600082601f83011262000a545762000a536200064a565b5b815162000a66848260208601620009c8565b91505092915050565b600080600080600060a0868803121562000a8e5762000a8d62000640565b5b600086015167ffffffffffffffff81111562000aaf5762000aae62000645565b5b62000abd88828901620007a0565b955050602086015167ffffffffffffffff81111562000ae15762000ae062000645565b5b62000aef88828901620007a0565b945050604062000b0288828901620007f9565b935050606086015167ffffffffffffffff81111562000b265762000b2562000645565b5b62000b34888289016200091d565b925050608086015167ffffffffffffffff81111562000b585762000b5762000645565b5b62000b668882890162000a3c565b9150509295509295909350565b600082825260208201905092915050565b7f455243313135353a2043686f6f73652061206e616d6520616e642073796d626f60008201527f6c00000000000000000000000000000000000000000000000000000000000000602082015250565b600062000be260218362000b73565b915062000bef8262000b84565b604082019050919050565b6000602082019050818103600083015262000c158162000bd3565b9050919050565b7f4e6f20526f79616c74792064657461696c732070726f76696465640000000000600082015250565b600062000c54601b8362000b73565b915062000c618262000c1c565b602082019050919050565b6000602082019050818103600083015262000c878162000c45565b9050919050565b7f546f6f206d616e7920726f79616c74792072656369657665727320646574616960008201527f6c73000000000000000000000000000000000000000000000000000000000000602082015250565b600062000cec60228362000b73565b915062000cf98262000c8e565b604082019050919050565b6000602082019050818103600083015262000d1f8162000cdd565b9050919050565b7f4d69736d61746368206f6620526f79616c74792072656369657665727320616e60008201527f6420746865697220666565730000000000000000000000000000000000000000602082015250565b600062000d84602c8362000b73565b915062000d918262000d26565b604082019050919050565b6000602082019050818103600083015262000db78162000d75565b9050919050565b7f4e487b7100000000000000000000000000000000000000000000000000000000600052603260045260246000fd5b6000819050919050565b7f4e487b7100000000000000000000000000000000000000000000000000000000600052601160045260246000fd5b600062000e338262000ded565b915062000e408362000ded565b9250827fffffffffffffffffffffffffffffffffffffffffffffffffffffffffffffffff0382111562000e785762000e7762000df7565b5b828201905092915050565b600062000e908262000ded565b91507fffffffffffffffffffffffffffffffffffffffffffffffffffffffffffffffff82141562000ec65762000ec562000df7565b5b600182019050919050565b7f455243323938313a20726f79616c7479206665652077696c6c2065786365656460008201527f2073616c65507269636500000000000000000000000000000000000000000000602082015250565b600062000f2f602a8362000b73565b915062000f3c8262000ed1565b604082019050919050565b6000602082019050818103600083015262000f628162000f20565b9050919050565b7f4e487b7100000000000000000000000000000000000000000000000000000000600052602260045260246000fd5b6000600282049050600182168062000fb157607f821691505b6020821081141562000fc85762000fc762000f69565b5b50919050565b614df48062000fde6000396000f3fe608060405234801561001057600080fd5b50600436106101575760003560e01c8063596bbe0c116100c3578063a22cb4651161007c578063a22cb46514610402578063e985e9c51461041e578063f242432a1461044e578063f2fde38b1461046a578063f421764814610486578063f5298aca146104a257610157565b8063596bbe0c1461033d5780635c975abb1461036e578063715018a61461038c5780638da5cb5b1461039657806395d89b41146103b45780639b19251a146103d257610157565b8063232452161161011557806323245216146102565780632a55205a146102725780632eb2c2d6146102a35780634816edf4146102bf5780634e1273f4146102ef57806351fb012d1461031f57610157565b8062fdd58e1461015c57806301ffc9a71461018c5780630411b252146101bc578063052d9e7e146101ec57806306fdde03146102085780630e89341c14610226575b600080fd5b61017660048036038101906101719190612d33565b6104be565b6040516101839190612d82565b60405180910390f35b6101a660048036038101906101a19190612df5565b610588565b6040516101b39190612e3d565b60405180910390f35b6101d660048036038101906101d19190612e58565b61066a565b6040516101e39190612e3d565b60405180910390f35b61020660048036038101906102019190612eeb565b6106e0565b005b61021061074b565b60405161021d9190612fb1565b60405180910390f35b610240600480360381019061023b9190612fd3565b6107d9565b60405161024d9190612fb1565b60405180910390f35b610270600480360381019061026b9190613065565b61087e565b005b61028c600480360381019061028791906130b2565b6109c7565b60405161029a92919061326e565b60405180910390f35b6102bd60048036038101906102b89190613498565b610d4e565b005b6102d960048036038101906102d49190612fd3565b610def565b6040516102e69190613576565b60405180910390f35b61030960048036038101906103049190613654565b610e22565b60405161031691906136cc565b60405180910390f35b610327610f3b565b6040516103349190612e3d565b60405180910390f35b61035760048036038101906103529190613896565b610f4e565b604051610365929190613977565b60405180910390f35b6103766110f4565b6040516103839190612e3d565b60405180910390f35b61039461110a565b005b61039e61111e565b6040516103ab9190613576565b60405180910390f35b6103bc611148565b6040516103c99190612fb1565b60405180910390f35b6103ec60048036038101906103e791906139a0565b6111d6565b6040516103f99190612e3d565b60405180910390f35b61041c600480360381019061041791906139cd565b6111f6565b005b61043860048036038101906104339190613a0d565b61120c565b6040516104459190612e3d565b60405180910390f35b61046860048036038101906104639190613a4d565b6112a0565b005b610484600480360381019061047f91906139a0565b611341565b005b6104a0600480360381019061049b9190613065565b6113c5565b005b6104bc60048036038101906104b79190613ae4565b61155d565b005b60008073ffffffffffffffffffffffffffffffffffffffff168373ffffffffffffffffffffffffffffffffffffffff16141561052f576040517f08c379a000000000000000000000000000000000000000000000000000000000815260040161052690613ba9565b60405180910390fd5b6003600083815260200190815260200160002060008473ffffffffffffffffffffffffffffffffffffffff1673ffffffffffffffffffffffffffffffffffffffff16815260200190815260200160002054905092915050565b60007fd9b67a26000000000000000000000000000000000000000000000000000000007bffffffffffffffffffffffffffffffffffffffffffffffffffffffff1916827bffffffffffffffffffffffffffffffffffffffffffffffffffffffff1916148061065357507f0e89341c000000000000000000000000000000000000000000000000000000007bffffffffffffffffffffffffffffffffffffffffffffffffffffffff1916827bffffffffffffffffffffffffffffffffffffffffffffffffffffffff1916145b80610663575061066282611606565b5b9050919050565b60008161067786856104be565b10156106b8576040517f08c379a00000000000000000000000000000000000000000000000000000000081526004016106af90613c15565b60405180910390fd5b6106d485858585604051806020016040528060008152506112a0565b60019050949350505050565b6106e8611680565b80600b60006101000a81548160ff0219169083151502179055507f218e591c4b0d49651b4b42843cb8cc59080122def3d2271f56ef2e21896753ec600b60009054906101000a900460ff166040516107409190612e3d565b60405180910390a150565b6001805461075890613c64565b80601f016020809104026020016040519081016040528092919081815260200182805461078490613c64565b80156107d15780601f106107a6576101008083540402835291602001916107d1565b820191906000526020600020905b8154815290600101906020018083116107b457829003601f168201915b505050505081565b6060600f600083815260200190815260200160002080546107f990613c64565b80601f016020809104026020016040519081016040528092919081815260200182805461082590613c64565b80156108725780601f1061084757610100808354040283529160200191610872565b820191906000526020600020905b81548152906001019060200180831161085557829003601f168201915b50505050509050919050565b610886611680565b600082829050116108cc576040517f08c379a00000000000000000000000000000000000000000000000000000000081526004016108c390613ce2565b60405180910390fd5b6005828290501115610913576040517f08c379a000000000000000000000000000000000000000000000000000000000815260040161090a90613d4e565b60405180910390fd5b60005b828290508110156109c257600c600084848481811061093857610937613d6e565b5b905060200201602081019061094d91906139a0565b73ffffffffffffffffffffffffffffffffffffffff1673ffffffffffffffffffffffffffffffffffffffff16815260200190815260200160002060006101000a81549060ff0219169055600d60008154809291906109aa90613dcc565b919050555080806109ba90613df6565b915050610916565b505050565b60608060006008600086815260200190815260200160002060405180604001604052908160008201805480602002602001604051908101604052809291908181526020018280548015610a6f57602002820191906000526020600020905b8160009054906101000a900473ffffffffffffffffffffffffffffffffffffffff1673ffffffffffffffffffffffffffffffffffffffff1681526020019060010190808311610a25575b5050505050815260200160018201805480602002602001604051908101604052809291908181526020018280548015610b0357602002820191906000526020600020906000905b82829054906101000a90046bffffffffffffffffffffffff166bffffffffffffffffffffffff16815260200190600c0190602082600b01049283019260010382029150808411610ab65790505b505050505081525050905060008160000151511415610c4e57600660405180604001604052908160008201805480602002602001604051908101604052809291908181526020018280548015610bae57602002820191906000526020600020905b8160009054906101000a900473ffffffffffffffffffffffffffffffffffffffff1673ffffffffffffffffffffffffffffffffffffffff1681526020019060010190808311610b64575b5050505050815260200160018201805480602002602001604051908101604052809291908181526020018280548015610c4257602002820191906000526020600020906000905b82829054906101000a90046bffffffffffffffffffffffff166bffffffffffffffffffffffff16815260200190600c0190602082600b01049283019260010382029150808411610bf55790505b50505050508152505090505b600081600001515167ffffffffffffffff811115610c6f57610c6e6132a5565b5b604051908082528060200260200182016040528015610c9d5781602001602082028036833780820191505090505b50905060005b826000015151811015610d3a57610cb86116fe565b6bffffffffffffffffffffffff1683602001518281518110610cdd57610cdc613d6e565b5b60200260200101516bffffffffffffffffffffffff1687610cfe9190613e3f565b610d089190613ec8565b828281518110610d1b57610d1a613d6e565b5b6020026020010181815250508080610d3290613df6565b915050610ca3565b508160000151819350935050509250929050565b610d56611708565b73ffffffffffffffffffffffffffffffffffffffff168573ffffffffffffffffffffffffffffffffffffffff161480610d9c5750610d9b85610d96611708565b61120c565b5b610ddb576040517f08c379a0000000000000000000000000000000000000000000000000000000008152600401610dd290613f6b565b60405180910390fd5b610de88585858585611710565b5050505050565b600e6020528060005260406000206000915054906101000a900473ffffffffffffffffffffffffffffffffffffffff1681565b60608151835114610e68576040517f08c379a0000000000000000000000000000000000000000000000000000000008152600401610e5f90613ffd565b60405180910390fd5b6000835167ffffffffffffffff811115610e8557610e846132a5565b5b604051908082528060200260200182016040528015610eb35781602001602082028036833780820191505090505b50905060005b8451811015610f3057610f00858281518110610ed857610ed7613d6e565b5b6020026020010151858381518110610ef357610ef2613d6e565b5b60200260200101516104be565b828281518110610f1357610f12613d6e565b5b60200260200101818152505080610f2990613df6565b9050610eb9565b508091505092915050565b600b60009054906101000a900460ff1681565b60008060001515600b60009054906101000a900460ff1615151415610fe357610f7561111e565b73ffffffffffffffffffffffffffffffffffffffff163373ffffffffffffffffffffffffffffffffffffffff1614610fe2576040517f08c379a0000000000000000000000000000000000000000000000000000000008152600401610fd990614069565b60405180910390fd5b5b60011515600b60009054906101000a900460ff161515141561109357600c600061100b611708565b73ffffffffffffffffffffffffffffffffffffffff1673ffffffffffffffffffffffffffffffffffffffff16815260200190815260200160002060009054906101000a900460ff16611092576040517f08c379a000000000000000000000000000000000000000000000000000000000815260040161108990614069565b60405180910390fd5b5b600061109f600a611a27565b90506110bc89828960405180602001604052806000815250611a35565b6110c68189611bcc565b85156110d8576110d7818686611bf8565b5b6110e2600a611dea565b80879250925050965096945050505050565b60008060009054906101000a900460ff16905090565b611112611680565b61111c6000611e00565b565b6000600960009054906101000a900473ffffffffffffffffffffffffffffffffffffffff16905090565b6002805461115590613c64565b80601f016020809104026020016040519081016040528092919081815260200182805461118190613c64565b80156111ce5780601f106111a3576101008083540402835291602001916111ce565b820191906000526020600020905b8154815290600101906020018083116111b157829003601f168201915b505050505081565b600c6020528060005260406000206000915054906101000a900460ff1681565b611208611201611708565b8383611ec6565b5050565b6000600460008473ffffffffffffffffffffffffffffffffffffffff1673ffffffffffffffffffffffffffffffffffffffff16815260200190815260200160002060008373ffffffffffffffffffffffffffffffffffffffff1673ffffffffffffffffffffffffffffffffffffffff16815260200190815260200160002060009054906101000a900460ff16905092915050565b6112a8611708565b73ffffffffffffffffffffffffffffffffffffffff168573ffffffffffffffffffffffffffffffffffffffff1614806112ee57506112ed856112e8611708565b61120c565b5b61132d576040517f08c379a0000000000000000000000000000000000000000000000000000000008152600401611324906140fb565b60405180910390fd5b61133a8585858585612033565b5050505050565b611349611680565b600073ffffffffffffffffffffffffffffffffffffffff168173ffffffffffffffffffffffffffffffffffffffff1614156113b9576040517f08c379a00000000000000000000000000000000000000000000000000000000081526004016113b09061418d565b60405180910390fd5b6113c281611e00565b50565b6113cd611680565b60008282905011611413576040517f08c379a000000000000000000000000000000000000000000000000000000000815260040161140a90613ce2565b60405180910390fd5b6107d0828290501061145a576040517f08c379a000000000000000000000000000000000000000000000000000000000815260040161145190613d4e565b60405180910390fd5b60005b82829050811015611558576107d0600d54106114ae576040517f08c379a00000000000000000000000000000000000000000000000000000000081526004016114a59061421f565b60405180910390fd5b6001600c60008585858181106114c7576114c6613d6e565b5b90506020020160208101906114dc91906139a0565b73ffffffffffffffffffffffffffffffffffffffff1673ffffffffffffffffffffffffffffffffffffffff16815260200190815260200160002060006101000a81548160ff021916908315150217905550600d600081548092919061154090613df6565b9190505550808061155090613df6565b91505061145d565b505050565b600061156933846104be565b14156115aa576040517f08c379a00000000000000000000000000000000000000000000000000000000081526004016115a1906142b1565b60405180910390fd5b806115b533846104be565b10156115f6576040517f08c379a00000000000000000000000000000000000000000000000000000000081526004016115ed90614343565b60405180910390fd5b6116018383836122b8565b505050565b60007f2a55205a000000000000000000000000000000000000000000000000000000007bffffffffffffffffffffffffffffffffffffffffffffffffffffffff1916827bffffffffffffffffffffffffffffffffffffffffffffffffffffffff191614806116795750611678826124d7565b5b9050919050565b611688611708565b73ffffffffffffffffffffffffffffffffffffffff166116a661111e565b73ffffffffffffffffffffffffffffffffffffffff16146116fc576040517f08c379a00000000000000000000000000000000000000000000000000000000081526004016116f3906143af565b60405180910390fd5b565b6000612710905090565b600033905090565b8151835114611754576040517f08c379a000000000000000000000000000000000000000000000000000000000815260040161174b90614441565b60405180910390fd5b600073ffffffffffffffffffffffffffffffffffffffff168473ffffffffffffffffffffffffffffffffffffffff1614156117c4576040517f08c379a00000000000000000000000000000000000000000000000000000000081526004016117bb906144d3565b60405180910390fd5b60006117ce611708565b90506117de8187878787876125b9565b60005b84518110156119925760008582815181106117ff576117fe613d6e565b5b60200260200101519050600085838151811061181e5761181d613d6e565b5b6020026020010151905060006003600084815260200190815260200160002060008b73ffffffffffffffffffffffffffffffffffffffff1673ffffffffffffffffffffffffffffffffffffffff168152602001908152602001600020549050818110156118c0576040517f08c379a00000000000000000000000000000000000000000000000000000000081526004016118b790614565565b60405180910390fd5b8181036003600085815260200190815260200160002060008c73ffffffffffffffffffffffffffffffffffffffff1673ffffffffffffffffffffffffffffffffffffffff16815260200190815260200160002081905550816003600085815260200190815260200160002060008b73ffffffffffffffffffffffffffffffffffffffff1673ffffffffffffffffffffffffffffffffffffffff16815260200190815260200160002060008282546119779190614585565b925050819055505050508061198b90613df6565b90506117e1565b508473ffffffffffffffffffffffffffffffffffffffff168673ffffffffffffffffffffffffffffffffffffffff168273ffffffffffffffffffffffffffffffffffffffff167f4a39dc06d4c0dbc64b70af90fd698a233a518aa5d07e595d983b8c0526c8f7fb8787604051611a099291906145db565b60405180910390a4611a1f8187878787876125c1565b505050505050565b600081600001549050919050565b600073ffffffffffffffffffffffffffffffffffffffff168473ffffffffffffffffffffffffffffffffffffffff161415611aa5576040517f08c379a0000000000000000000000000000000000000000000000000000000008152600401611a9c90614684565b60405180910390fd5b6000611aaf611708565b9050611ad081600087611ac1886127a8565b611aca886127a8565b876125b9565b826003600086815260200190815260200160002060008773ffffffffffffffffffffffffffffffffffffffff1673ffffffffffffffffffffffffffffffffffffffff1681526020019081526020016000206000828254611b309190614585565b925050819055508473ffffffffffffffffffffffffffffffffffffffff16600073ffffffffffffffffffffffffffffffffffffffff168273ffffffffffffffffffffffffffffffffffffffff167fc3d58168c5ae7397731d063d5bbf3d657854427343f4c083240f7aacaa2d0f628787604051611bae929190613977565b60405180910390a4611bc581600087878787612822565b5050505050565b80600f60008481526020019081526020016000209080519060200190611bf3929190612a96565b505050565b6000825111611c3c576040517f08c379a0000000000000000000000000000000000000000000000000000000008152600401611c33906146f0565b60405180910390fd5b600582511115611c81576040517f08c379a0000000000000000000000000000000000000000000000000000000008152600401611c7890614782565b60405180910390fd5b8051825114611cc5576040517f08c379a0000000000000000000000000000000000000000000000000000000008152600401611cbc90614814565b60405180910390fd5b6000805b8251811015611d1b57828181518110611ce557611ce4613d6e565b5b60200260200101516bffffffffffffffffffffffff1682611d069190614585565b91508080611d1390613df6565b915050611cc9565b50611d246116fe565b6bffffffffffffffffffffffff16811115611d74576040517f08c379a0000000000000000000000000000000000000000000000000000000008152600401611d6b906148a6565b60405180910390fd5b606080849050839150604051806040016040528082815260200183815250600860008881526020019081526020016000206000820151816000019080519060200190611dc1929190612b1c565b506020820151816001019080519060200190611dde929190612ba6565b50905050505050505050565b6001816000016000828254019250508190555050565b6000600960009054906101000a900473ffffffffffffffffffffffffffffffffffffffff16905081600960006101000a81548173ffffffffffffffffffffffffffffffffffffffff021916908373ffffffffffffffffffffffffffffffffffffffff1602179055508173ffffffffffffffffffffffffffffffffffffffff168173ffffffffffffffffffffffffffffffffffffffff167f8be0079c531659141344cd1fd0a4f28419497f9722a3daafe3b4186f6b6457e060405160405180910390a35050565b8173ffffffffffffffffffffffffffffffffffffffff168373ffffffffffffffffffffffffffffffffffffffff161415611f35576040517f08c379a0000000000000000000000000000000000000000000000000000000008152600401611f2c90614938565b60405180910390fd5b80600460008573ffffffffffffffffffffffffffffffffffffffff1673ffffffffffffffffffffffffffffffffffffffff16815260200190815260200160002060008473ffffffffffffffffffffffffffffffffffffffff1673ffffffffffffffffffffffffffffffffffffffff16815260200190815260200160002060006101000a81548160ff0219169083151502179055508173ffffffffffffffffffffffffffffffffffffffff168373ffffffffffffffffffffffffffffffffffffffff167f17307eab39ab6107e8899845ad3d59bd9653f200f220920489ca2b5937696c31836040516120269190612e3d565b60405180910390a3505050565b600073ffffffffffffffffffffffffffffffffffffffff168473ffffffffffffffffffffffffffffffffffffffff1614156120a3576040517f08c379a000000000000000000000000000000000000000000000000000000000815260040161209a906144d3565b60405180910390fd5b60006120ad611708565b90506120cd8187876120be886127a8565b6120c7886127a8565b876125b9565b60006003600086815260200190815260200160002060008873ffffffffffffffffffffffffffffffffffffffff1673ffffffffffffffffffffffffffffffffffffffff16815260200190815260200160002054905083811015612165576040517f08c379a000000000000000000000000000000000000000000000000000000000815260040161215c90614565565b60405180910390fd5b8381036003600087815260200190815260200160002060008973ffffffffffffffffffffffffffffffffffffffff1673ffffffffffffffffffffffffffffffffffffffff16815260200190815260200160002081905550836003600087815260200190815260200160002060008873ffffffffffffffffffffffffffffffffffffffff1673ffffffffffffffffffffffffffffffffffffffff168152602001908152602001600020600082825461221c9190614585565b925050819055508573ffffffffffffffffffffffffffffffffffffffff168773ffffffffffffffffffffffffffffffffffffffff168373ffffffffffffffffffffffffffffffffffffffff167fc3d58168c5ae7397731d063d5bbf3d657854427343f4c083240f7aacaa2d0f628888604051612299929190613977565b60405180910390a46122af828888888888612822565b50505050505050565b600073ffffffffffffffffffffffffffffffffffffffff168373ffffffffffffffffffffffffffffffffffffffff161415612328576040517f08c379a000000000000000000000000000000000000000000000000000000000815260040161231f906149ca565b60405180910390fd5b6000612332611708565b905061236281856000612344876127a8565b61234d876127a8565b604051806020016040528060008152506125b9565b60006003600085815260200190815260200160002060008673ffffffffffffffffffffffffffffffffffffffff1673ffffffffffffffffffffffffffffffffffffffff168152602001908152602001600020549050828110156123fa576040517f08c379a00000000000000000000000000000000000000000000000000000000081526004016123f190614a5c565b60405180910390fd5b8281036003600086815260200190815260200160002060008773ffffffffffffffffffffffffffffffffffffffff1673ffffffffffffffffffffffffffffffffffffffff16815260200190815260200160002081905550600073ffffffffffffffffffffffffffffffffffffffff168573ffffffffffffffffffffffffffffffffffffffff168373ffffffffffffffffffffffffffffffffffffffff167fc3d58168c5ae7397731d063d5bbf3d657854427343f4c083240f7aacaa2d0f6287876040516124c8929190613977565b60405180910390a45050505050565b60007fd9b67a26000000000000000000000000000000000000000000000000000000007bffffffffffffffffffffffffffffffffffffffffffffffffffffffff1916827bffffffffffffffffffffffffffffffffffffffffffffffffffffffff191614806125a257507f0e89341c000000000000000000000000000000000000000000000000000000007bffffffffffffffffffffffffffffffffffffffffffffffffffffffff1916827bffffffffffffffffffffffffffffffffffffffffffffffffffffffff1916145b806125b257506125b182612a09565b5b9050919050565b505050505050565b6125e08473ffffffffffffffffffffffffffffffffffffffff16612a73565b156127a0578373ffffffffffffffffffffffffffffffffffffffff1663bc197c8187878686866040518663ffffffff1660e01b8152600401612626959493929190614ad1565b602060405180830381600087803b15801561264057600080fd5b505af192505050801561267157506040513d601f19601f8201168201806040525081019061266e9190614b4e565b60015b6127175761267d614b88565b806308c379a014156126da5750612692614baa565b8061269d57506126dc565b806040517f08c379a00000000000000000000000000000000000000000000000000000000081526004016126d19190612fb1565b60405180910390fd5b505b6040517f08c379a000000000000000000000000000000000000000000000000000000000815260040161270e90614cb2565b60405180910390fd5b63bc197c8160e01b7bffffffffffffffffffffffffffffffffffffffffffffffffffffffff1916817bffffffffffffffffffffffffffffffffffffffffffffffffffffffff19161461279e576040517f08c379a000000000000000000000000000000000000000000000000000000000815260040161279590614d44565b60405180910390fd5b505b505050505050565b60606000600167ffffffffffffffff8111156127c7576127c66132a5565b5b6040519080825280602002602001820160405280156127f55781602001602082028036833780820191505090505b509050828160008151811061280d5761280c613d6e565b5b60200260200101818152505080915050919050565b6128418473ffffffffffffffffffffffffffffffffffffffff16612a73565b15612a01578373ffffffffffffffffffffffffffffffffffffffff1663f23a6e6187878686866040518663ffffffff1660e01b8152600401612887959493929190614d64565b602060405180830381600087803b1580156128a157600080fd5b505af19250505080156128d257506040513d601f19601f820116820180604052508101906128cf9190614b4e565b60015b612978576128de614b88565b806308c379a0141561293b57506128f3614baa565b806128fe575061293d565b806040517f08c379a00000000000000000000000000000000000000000000000000000000081526004016129329190612fb1565b60405180910390fd5b505b6040517f08c379a000000000000000000000000000000000000000000000000000000000815260040161296f90614cb2565b60405180910390fd5b63f23a6e6160e01b7bffffffffffffffffffffffffffffffffffffffffffffffffffffffff1916817bffffffffffffffffffffffffffffffffffffffffffffffffffffffff1916146129ff576040517f08c379a00000000000000000000000000000000000000000000000000000000081526004016129f690614d44565b60405180910390fd5b505b505050505050565b60007f01ffc9a7000000000000000000000000000000000000000000000000000000007bffffffffffffffffffffffffffffffffffffffffffffffffffffffff1916827bffffffffffffffffffffffffffffffffffffffffffffffffffffffff1916149050919050565b6000808273ffffffffffffffffffffffffffffffffffffffff163b119050919050565b828054612aa290613c64565b90600052602060002090601f016020900481019282612ac45760008555612b0b565b82601f10612add57805160ff1916838001178555612b0b565b82800160010185558215612b0b579182015b82811115612b0a578251825591602001919060010190612aef565b5b509050612b189190612c6e565b5090565b828054828255906000526020600020908101928215612b95579160200282015b82811115612b945782518260006101000a81548173ffffffffffffffffffffffffffffffffffffffff021916908373ffffffffffffffffffffffffffffffffffffffff16021790555091602001919060010190612b3c565b5b509050612ba29190612c6e565b5090565b82805482825590600052602060002090600101600290048101928215612c5d5791602002820160005b83821115612c2357835183826101000a8154816bffffffffffffffffffffffff02191690836bffffffffffffffffffffffff1602179055509260200192600c01602081600b01049283019260010302612bcf565b8015612c5b5782816101000a8154906bffffffffffffffffffffffff0219169055600c01602081600b01049283019260010302612c23565b505b509050612c6a9190612c6e565b5090565b5b80821115612c87576000816000905550600101612c6f565b5090565b6000604051905090565b600080fd5b600080fd5b600073ffffffffffffffffffffffffffffffffffffffff82169050919050565b6000612cca82612c9f565b9050919050565b612cda81612cbf565b8114612ce557600080fd5b50565b600081359050612cf781612cd1565b92915050565b6000819050919050565b612d1081612cfd565b8114612d1b57600080fd5b50565b600081359050612d2d81612d07565b92915050565b60008060408385031215612d4a57612d49612c95565b5b6000612d5885828601612ce8565b9250506020612d6985828601612d1e565b9150509250929050565b612d7c81612cfd565b82525050565b6000602082019050612d976000830184612d73565b92915050565b60007fffffffff0000000000000000000000000000000000000000000000000000000082169050919050565b612dd281612d9d565b8114612ddd57600080fd5b50565b600081359050612def81612dc9565b92915050565b600060208284031215612e0b57612e0a612c95565b5b6000612e1984828501612de0565b91505092915050565b60008115159050919050565b612e3781612e22565b82525050565b6000602082019050612e526000830184612e2e565b92915050565b60008060008060808587031215612e7257612e71612c95565b5b6000612e8087828801612ce8565b9450506020612e9187828801612ce8565b9350506040612ea287828801612d1e565b9250506060612eb387828801612d1e565b91505092959194509250565b612ec881612e22565b8114612ed357600080fd5b50565b600081359050612ee581612ebf565b92915050565b600060208284031215612f0157612f00612c95565b5b6000612f0f84828501612ed6565b91505092915050565b600081519050919050565b600082825260208201905092915050565b60005b83811015612f52578082015181840152602081019050612f37565b83811115612f61576000848401525b50505050565b6000601f19601f8301169050919050565b6000612f8382612f18565b612f8d8185612f23565b9350612f9d818560208601612f34565b612fa681612f67565b840191505092915050565b60006020820190508181036000830152612fcb8184612f78565b905092915050565b600060208284031215612fe957612fe8612c95565b5b6000612ff784828501612d1e565b91505092915050565b600080fd5b600080fd5b600080fd5b60008083601f84011261302557613024613000565b5b8235905067ffffffffffffffff81111561304257613041613005565b5b60208301915083602082028301111561305e5761305d61300a565b5b9250929050565b6000806020838503121561307c5761307b612c95565b5b600083013567ffffffffffffffff81111561309a57613099612c9a565b5b6130a68582860161300f565b92509250509250929050565b600080604083850312156130c9576130c8612c95565b5b60006130d785828601612d1e565b92505060206130e885828601612d1e565b9150509250929050565b600081519050919050565b600082825260208201905092915050565b6000819050602082019050919050565b61312781612cbf565b82525050565b6000613139838361311e565b60208301905092915050565b6000602082019050919050565b600061315d826130f2565b61316781856130fd565b93506131728361310e565b8060005b838110156131a357815161318a888261312d565b975061319583613145565b925050600181019050613176565b5085935050505092915050565b600081519050919050565b600082825260208201905092915050565b6000819050602082019050919050565b6131e581612cfd565b82525050565b60006131f783836131dc565b60208301905092915050565b6000602082019050919050565b600061321b826131b0565b61322581856131bb565b9350613230836131cc565b8060005b8381101561326157815161324888826131eb565b975061325383613203565b925050600181019050613234565b5085935050505092915050565b600060408201905081810360008301526132888185613152565b9050818103602083015261329c8184613210565b90509392505050565b7f4e487b7100000000000000000000000000000000000000000000000000000000600052604160045260246000fd5b6132dd82612f67565b810181811067ffffffffffffffff821117156132fc576132fb6132a5565b5b80604052505050565b600061330f612c8b565b905061331b82826132d4565b919050565b600067ffffffffffffffff82111561333b5761333a6132a5565b5b602082029050602081019050919050565b600061335f61335a84613320565b613305565b905080838252602082019050602084028301858111156133825761338161300a565b5b835b818110156133ab57806133978882612d1e565b845260208401935050602081019050613384565b5050509392505050565b600082601f8301126133ca576133c9613000565b5b81356133da84826020860161334c565b91505092915050565b600080fd5b600067ffffffffffffffff821115613403576134026132a5565b5b61340c82612f67565b9050602081019050919050565b82818337600083830152505050565b600061343b613436846133e8565b613305565b905082815260208101848484011115613457576134566133e3565b5b613462848285613419565b509392505050565b600082601f83011261347f5761347e613000565b5b813561348f848260208601613428565b91505092915050565b600080600080600060a086880312156134b4576134b3612c95565b5b60006134c288828901612ce8565b95505060206134d388828901612ce8565b945050604086013567ffffffffffffffff8111156134f4576134f3612c9a565b5b613500888289016133b5565b935050606086013567ffffffffffffffff81111561352157613520612c9a565b5b61352d888289016133b5565b925050608086013567ffffffffffffffff81111561354e5761354d612c9a565b5b61355a8882890161346a565b9150509295509295909350565b61357081612cbf565b82525050565b600060208201905061358b6000830184613567565b92915050565b600067ffffffffffffffff8211156135ac576135ab6132a5565b5b602082029050602081019050919050565b60006135d06135cb84613591565b613305565b905080838252602082019050602084028301858111156135f3576135f261300a565b5b835b8181101561361c57806136088882612ce8565b8452602084019350506020810190506135f5565b5050509392505050565b600082601f83011261363b5761363a613000565b5b813561364b8482602086016135bd565b91505092915050565b6000806040838503121561366b5761366a612c95565b5b600083013567ffffffffffffffff81111561368957613688612c9a565b5b61369585828601613626565b925050602083013567ffffffffffffffff8111156136b6576136b5612c9a565b5b6136c2858286016133b5565b9150509250929050565b600060208201905081810360008301526136e68184613210565b905092915050565b600067ffffffffffffffff821115613709576137086132a5565b5b61371282612f67565b9050602081019050919050565b600061373261372d846136ee565b613305565b90508281526020810184848401111561374e5761374d6133e3565b5b613759848285613419565b509392505050565b600082601f83011261377657613775613000565b5b813561378684826020860161371f565b91505092915050565b600067ffffffffffffffff8211156137aa576137a96132a5565b5b602082029050602081019050919050565b60006bffffffffffffffffffffffff82169050919050565b6137dc816137bb565b81146137e757600080fd5b50565b6000813590506137f9816137d3565b92915050565b600061381261380d8461378f565b613305565b905080838252602082019050602084028301858111156138355761383461300a565b5b835b8181101561385e578061384a88826137ea565b845260208401935050602081019050613837565b5050509392505050565b600082601f83011261387d5761387c613000565b5b813561388d8482602086016137ff565b91505092915050565b60008060008060008060c087890312156138b3576138b2612c95565b5b60006138c189828a01612ce8565b965050602087013567ffffffffffffffff8111156138e2576138e1612c9a565b5b6138ee89828a01613761565b95505060406138ff89828a01612d1e565b945050606061391089828a01612ed6565b935050608087013567ffffffffffffffff81111561393157613930612c9a565b5b61393d89828a01613626565b92505060a087013567ffffffffffffffff81111561395e5761395d612c9a565b5b61396a89828a01613868565b9150509295509295509295565b600060408201905061398c6000830185612d73565b6139996020830184612d73565b9392505050565b6000602082840312156139b6576139b5612c95565b5b60006139c484828501612ce8565b91505092915050565b600080604083850312156139e4576139e3612c95565b5b60006139f285828601612ce8565b9250506020613a0385828601612ed6565b9150509250929050565b60008060408385031215613a2457613a23612c95565b5b6000613a3285828601612ce8565b9250506020613a4385828601612ce8565b9150509250929050565b600080600080600060a08688031215613a6957613a68612c95565b5b6000613a7788828901612ce8565b9550506020613a8888828901612ce8565b9450506040613a9988828901612d1e565b9350506060613aaa88828901612d1e565b925050608086013567ffffffffffffffff811115613acb57613aca612c9a565b5b613ad78882890161346a565b9150509295509295909350565b600080600060608486031215613afd57613afc612c95565b5b6000613b0b86828701612ce8565b9350506020613b1c86828701612d1e565b9250506040613b2d86828701612d1e565b9150509250925092565b7f455243313135353a2062616c616e636520717565727920666f7220746865207a60008201527f65726f2061646472657373000000000000000000000000000000000000000000602082015250565b6000613b93602b83612f23565b9150613b9e82613b37565b604082019050919050565b60006020820190508181036000830152613bc281613b86565b9050919050565b7f455243313135353a204e6f7420656e6f75676820636f70696573000000000000600082015250565b6000613bff601a83612f23565b9150613c0a82613bc9565b602082019050919050565b60006020820190508181036000830152613c2e81613bf2565b9050919050565b7f4e487b7100000000000000000000000000000000000000000000000000000000600052602260045260246000fd5b60006002820490506001821680613c7c57607f821691505b60208210811415613c9057613c8f613c35565b5b50919050565b7f4e6f20757365722064657461696c732070726f76696465640000000000000000600082015250565b6000613ccc601883612f23565b9150613cd782613c96565b602082019050919050565b60006020820190508181036000830152613cfb81613cbf565b9050919050565b7f546f6f206d616e792075736572737320746f2077686974656c69737400000000600082015250565b6000613d38601c83612f23565b9150613d4382613d02565b602082019050919050565b60006020820190508181036000830152613d6781613d2b565b9050919050565b7f4e487b7100000000000000000000000000000000000000000000000000000000600052603260045260246000fd5b7f4e487b7100000000000000000000000000000000000000000000000000000000600052601160045260246000fd5b6000613dd782612cfd565b91506000821415613deb57613dea613d9d565b5b600182039050919050565b6000613e0182612cfd565b91507fffffffffffffffffffffffffffffffffffffffffffffffffffffffffffffffff821415613e3457613e33613d9d565b5b600182019050919050565b6000613e4a82612cfd565b9150613e5583612cfd565b9250817fffffffffffffffffffffffffffffffffffffffffffffffffffffffffffffffff0483118215151615613e8e57613e8d613d9d565b5b828202905092915050565b7f4e487b7100000000000000000000000000000000000000000000000000000000600052601260045260246000fd5b6000613ed382612cfd565b9150613ede83612cfd565b925082613eee57613eed613e99565b5b828204905092915050565b7f455243313135353a207472616e736665722063616c6c6572206973206e6f742060008201527f6f776e6572206e6f7220617070726f7665640000000000000000000000000000602082015250565b6000613f55603283612f23565b9150613f6082613ef9565b604082019050919050565b60006020820190508181036000830152613f8481613f48565b9050919050565b7f455243313135353a206163636f756e747320616e6420696473206c656e67746860008201527f206d69736d617463680000000000000000000000000000000000000000000000602082015250565b6000613fe7602983612f23565b9150613ff282613f8b565b604082019050919050565b6000602082019050818103600083015261401681613fda565b9050919050565b7f41646472657373206e6f742077686974656c6973746564000000000000000000600082015250565b6000614053601783612f23565b915061405e8261401d565b602082019050919050565b6000602082019050818103600083015261408281614046565b9050919050565b7f455243313135353a2063616c6c6572206973206e6f74206f776e6572206e6f7260008201527f20617070726f7665640000000000000000000000000000000000000000000000602082015250565b60006140e5602983612f23565b91506140f082614089565b604082019050919050565b60006020820190508181036000830152614114816140d8565b9050919050565b7f4f776e61626c653a206e6577206f776e657220697320746865207a65726f206160008201527f6464726573730000000000000000000000000000000000000000000000000000602082015250565b6000614177602683612f23565b91506141828261411b565b604082019050919050565b600060208201905081810360008301526141a68161416a565b9050919050565b7f4d6178696d756d20557365727320616c72656164792077686974656c6973746560008201527f6400000000000000000000000000000000000000000000000000000000000000602082015250565b6000614209602183612f23565b9150614214826141ad565b604082019050919050565b60006020820190508181036000830152614238816141fc565b9050919050565b7f455243313135353a204e6f7420746865206f776e6572206f662074686973207460008201527f6f6b656e00000000000000000000000000000000000000000000000000000000602082015250565b600061429b602483612f23565b91506142a68261423f565b604082019050919050565b600060208201905081810360008301526142ca8161428e565b9050919050565b7f455243313135353a204e6f7420656e6f756768207175616e7469747920746f2060008201527f6275726e00000000000000000000000000000000000000000000000000000000602082015250565b600061432d602483612f23565b9150614338826142d1565b604082019050919050565b6000602082019050818103600083015261435c81614320565b9050919050565b7f4f776e61626c653a2063616c6c6572206973206e6f7420746865206f776e6572600082015250565b6000614399602083612f23565b91506143a482614363565b602082019050919050565b600060208201905081810360008301526143c88161438c565b9050919050565b7f455243313135353a2069647320616e6420616d6f756e7473206c656e6774682060008201527f6d69736d61746368000000000000000000000000000000000000000000000000602082015250565b600061442b602883612f23565b9150614436826143cf565b604082019050919050565b6000602082019050818103600083015261445a8161441e565b9050919050565b7f455243313135353a207472616e7366657220746f20746865207a65726f20616460008201527f6472657373000000000000000000000000000000000000000000000000000000602082015250565b60006144bd602583612f23565b91506144c882614461565b604082019050919050565b600060208201905081810360008301526144ec816144b0565b9050919050565b7f455243313135353a20696e73756666696369656e742062616c616e636520666f60008201527f72207472616e7366657200000000000000000000000000000000000000000000602082015250565b600061454f602a83612f23565b915061455a826144f3565b604082019050919050565b6000602082019050818103600083015261457e81614542565b9050919050565b600061459082612cfd565b915061459b83612cfd565b9250827fffffffffffffffffffffffffffffffffffffffffffffffffffffffffffffffff038211156145d0576145cf613d9d565b5b828201905092915050565b600060408201905081810360008301526145f58185613210565b905081810360208301526146098184613210565b90509392505050565b7f455243313135353a206d696e7420746f20746865207a65726f2061646472657360008201527f7300000000000000000000000000000000000000000000000000000000000000602082015250565b600061466e602183612f23565b915061467982614612565b604082019050919050565b6000602082019050818103600083015261469d81614661565b9050919050565b7f4e6f20526f79616c74792064657461696c732070726f76696465640000000000600082015250565b60006146da601b83612f23565b91506146e5826146a4565b602082019050919050565b60006020820190508181036000830152614709816146cd565b9050919050565b7f546f6f206d616e7920726f79616c74792072656369657665727320646574616960008201527f6c73000000000000000000000000000000000000000000000000000000000000602082015250565b600061476c602283612f23565b915061477782614710565b604082019050919050565b6000602082019050818103600083015261479b8161475f565b9050919050565b7f4d69736d61746368206f6620526f79616c74792072656369657665727320616e60008201527f6420746865697220666565730000000000000000000000000000000000000000602082015250565b60006147fe602c83612f23565b9150614809826147a2565b604082019050919050565b6000602082019050818103600083015261482d816147f1565b9050919050565b7f455243323938313a20726f79616c7479206665652077696c6c2065786365656460008201527f2073616c65507269636500000000000000000000000000000000000000000000602082015250565b6000614890602a83612f23565b915061489b82614834565b604082019050919050565b600060208201905081810360008301526148bf81614883565b9050919050565b7f455243313135353a2073657474696e6720617070726f76616c2073746174757360008201527f20666f722073656c660000000000000000000000000000000000000000000000602082015250565b6000614922602983612f23565b915061492d826148c6565b604082019050919050565b6000602082019050818103600083015261495181614915565b9050919050565b7f455243313135353a206275726e2066726f6d20746865207a65726f206164647260008201527f6573730000000000000000000000000000000000000000000000000000000000602082015250565b60006149b4602383612f23565b91506149bf82614958565b604082019050919050565b600060208201905081810360008301526149e3816149a7565b9050919050565b7f455243313135353a206275726e20616d6f756e7420657863656564732062616c60008201527f616e636500000000000000000000000000000000000000000000000000000000602082015250565b6000614a46602483612f23565b9150614a51826149ea565b604082019050919050565b60006020820190508181036000830152614a7581614a39565b9050919050565b600081519050919050565b600082825260208201905092915050565b6000614aa382614a7c565b614aad8185614a87565b9350614abd818560208601612f34565b614ac681612f67565b840191505092915050565b600060a082019050614ae66000830188613567565b614af36020830187613567565b8181036040830152614b058186613210565b90508181036060830152614b198185613210565b90508181036080830152614b2d8184614a98565b90509695505050505050565b600081519050614b4881612dc9565b92915050565b600060208284031215614b6457614b63612c95565b5b6000614b7284828501614b39565b91505092915050565b60008160e01c9050919050565b600060033d1115614ba75760046000803e614ba4600051614b7b565b90505b90565b600060443d1015614bba57614c3d565b614bc2612c8b565b60043d036004823e80513d602482011167ffffffffffffffff82111715614bea575050614c3d565b808201805167ffffffffffffffff811115614c085750505050614c3d565b80602083010160043d038501811115614c25575050505050614c3d565b614c34826020018501866132d4565b82955050505050505b90565b7f455243313135353a207472616e7366657220746f206e6f6e204552433131353560008201527f526563656976657220696d706c656d656e746572000000000000000000000000602082015250565b6000614c9c603483612f23565b9150614ca782614c40565b604082019050919050565b60006020820190508181036000830152614ccb81614c8f565b9050919050565b7f455243313135353a204552433131353552656365697665722072656a6563746560008201527f6420746f6b656e73000000000000000000000000000000000000000000000000602082015250565b6000614d2e602883612f23565b9150614d3982614cd2565b604082019050919050565b60006020820190508181036000830152614d5d81614d21565b9050919050565b600060a082019050614d796000830188613567565b614d866020830187613567565b614d936040830186612d73565b614da06060830185612d73565b8181036080830152614db28184614a98565b9050969550505050505056fea2646970667358221220d490d4f7589fec03f026cf184f86a71d2d9aa2c8fd94c12c992c6c854686798d64736f6c63430008090033",
  "linkReferences": {},
  "deployedLinkReferences": {}
}