{
  "_format": "hh-sol-artifact-1",
  "contractName": "ERC1155Factory",
  "sourceName": "contracts/factoryContracts/ERC1155Factory.sol",
  "abi": [
    {
      "inputs": [
        {
          "internalType": "string",
          "name": "name_",
          "type": "string"
        },
        {
          "internalType": "string",
          "name": "symbol_",
          "type": "string"
        },
        {
          "internalType": "bool",
          "name": "defaultRoyalty",
          "type": "bool"
        },
        {
          "internalType": "address[]",
          "name": "royaltyReceiver",
          "type": "address[]"
        },
        {
          "internalType": "uint96[]",
          "name": "royaltyFeesInBips",
          "type": "uint96[]"
        }
      ],
      "stateMutability": "nonpayable",
      "type": "constructor"
    },
    {
      "anonymous": false,
      "inputs": [
        {
          "indexed": true,
          "internalType": "address",
          "name": "account",
          "type": "address"
        },
        {
          "indexed": true,
          "internalType": "address",
          "name": "operator",
          "type": "address"
        },
        {
          "indexed": false,
          "internalType": "bool",
          "name": "approved",
          "type": "bool"
        }
      ],
      "name": "ApprovalForAll",
      "type": "event"
    },
    {
      "anonymous": false,
      "inputs": [
        {
          "indexed": false,
          "internalType": "string",
          "name": "uri",
          "type": "string"
        }
      ],
      "name": "BaseURI",
      "type": "event"
    },
    {
      "anonymous": false,
      "inputs": [
        {
          "indexed": true,
          "internalType": "address",
          "name": "previousOwner",
          "type": "address"
        },
        {
          "indexed": true,
          "internalType": "address",
          "name": "newOwner",
          "type": "address"
        }
      ],
      "name": "OwnershipTransferred",
      "type": "event"
    },
    {
      "anonymous": false,
      "inputs": [
        {
          "indexed": true,
          "internalType": "address",
          "name": "operator",
          "type": "address"
        },
        {
          "indexed": true,
          "internalType": "address",
          "name": "from",
          "type": "address"
        },
        {
          "indexed": true,
          "internalType": "address",
          "name": "to",
          "type": "address"
        },
        {
          "indexed": false,
          "internalType": "uint256[]",
          "name": "ids",
          "type": "uint256[]"
        },
        {
          "indexed": false,
          "internalType": "uint256[]",
          "name": "values",
          "type": "uint256[]"
        }
      ],
      "name": "TransferBatch",
      "type": "event"
    },
    {
      "anonymous": false,
      "inputs": [
        {
          "indexed": true,
          "internalType": "address",
          "name": "operator",
          "type": "address"
        },
        {
          "indexed": true,
          "internalType": "address",
          "name": "from",
          "type": "address"
        },
        {
          "indexed": true,
          "internalType": "address",
          "name": "to",
          "type": "address"
        },
        {
          "indexed": false,
          "internalType": "uint256",
          "name": "id",
          "type": "uint256"
        },
        {
          "indexed": false,
          "internalType": "uint256",
          "name": "value",
          "type": "uint256"
        }
      ],
      "name": "TransferSingle",
      "type": "event"
    },
    {
      "anonymous": false,
      "inputs": [
        {
          "indexed": false,
          "internalType": "string",
          "name": "value",
          "type": "string"
        },
        {
          "indexed": true,
          "internalType": "uint256",
          "name": "id",
          "type": "uint256"
        }
      ],
      "name": "URI",
      "type": "event"
    },
    {
      "anonymous": false,
      "inputs": [
        {
          "indexed": false,
          "internalType": "bool",
          "name": "whitelistEnabled",
          "type": "bool"
        }
      ],
      "name": "WhiteListEnabled",
      "type": "event"
    },
    {
      "inputs": [
        {
          "internalType": "uint256",
          "name": "",
          "type": "uint256"
        }
      ],
      "name": "_creators",
      "outputs": [
        {
          "internalType": "address",
          "name": "",
          "type": "address"
        }
      ],
      "stateMutability": "view",
      "type": "function"
    },
    {
      "inputs": [
        {
          "internalType": "address",
          "name": "account",
          "type": "address"
        },
        {
          "internalType": "uint256",
          "name": "id",
          "type": "uint256"
        }
      ],
      "name": "balanceOf",
      "outputs": [
        {
          "internalType": "uint256",
          "name": "",
          "type": "uint256"
        }
      ],
      "stateMutability": "view",
      "type": "function"
    },
    {
      "inputs": [
        {
          "internalType": "address[]",
          "name": "accounts",
          "type": "address[]"
        },
        {
          "internalType": "uint256[]",
          "name": "ids",
          "type": "uint256[]"
        }
      ],
      "name": "balanceOfBatch",
      "outputs": [
        {
          "internalType": "uint256[]",
          "name": "",
          "type": "uint256[]"
        }
      ],
      "stateMutability": "view",
      "type": "function"
    },
    {
      "inputs": [],
      "name": "baseURI",
      "outputs": [
        {
          "internalType": "string",
          "name": "",
          "type": "string"
        }
      ],
      "stateMutability": "view",
      "type": "function"
    },
    {
      "inputs": [
        {
          "internalType": "address",
          "name": "_from",
          "type": "address"
        },
        {
          "internalType": "uint256",
          "name": "_tokenId",
          "type": "uint256"
        },
        {
          "internalType": "uint256",
          "name": "_amount",
          "type": "uint256"
        }
      ],
      "name": "burn",
      "outputs": [],
      "stateMutability": "nonpayable",
      "type": "function"
    },
    {
      "inputs": [
        {
          "internalType": "address",
          "name": "account",
          "type": "address"
        },
        {
          "internalType": "address",
          "name": "operator",
          "type": "address"
        }
      ],
      "name": "isApprovedForAll",
      "outputs": [
        {
          "internalType": "bool",
          "name": "",
          "type": "bool"
        }
      ],
      "stateMutability": "view",
      "type": "function"
    },
    {
      "inputs": [
        {
          "internalType": "address",
          "name": "creator",
          "type": "address"
        },
        {
          "internalType": "string",
          "name": "tokenURI",
          "type": "string"
        },
        {
          "internalType": "uint256",
          "name": "copies",
          "type": "uint256"
        },
        {
          "internalType": "bool",
          "name": "tokenRoyalty",
          "type": "bool"
        },
        {
          "internalType": "address[]",
          "name": "royaltyReceiver",
          "type": "address[]"
        },
        {
          "internalType": "uint96[]",
          "name": "tokenRoyaltyInBips",
          "type": "uint96[]"
        }
      ],
      "name": "mint",
      "outputs": [
        {
          "internalType": "uint256",
          "name": "",
          "type": "uint256"
        },
        {
          "internalType": "uint256",
          "name": "",
          "type": "uint256"
        }
      ],
      "stateMutability": "nonpayable",
      "type": "function"
    },
    {
      "inputs": [],
      "name": "name",
      "outputs": [
        {
          "internalType": "string",
          "name": "",
          "type": "string"
        }
      ],
      "stateMutability": "view",
      "type": "function"
    },
    {
      "inputs": [],
      "name": "owner",
      "outputs": [
        {
          "internalType": "address",
          "name": "",
          "type": "address"
        }
      ],
      "stateMutability": "view",
      "type": "function"
    },
    {
      "inputs": [
        {
          "internalType": "address[]",
          "name": "currentAddresses",
          "type": "address[]"
        }
      ],
      "name": "removeWhitelist",
      "outputs": [],
      "stateMutability": "nonpayable",
      "type": "function"
    },
    {
      "inputs": [],
      "name": "renounceOwnership",
      "outputs": [],
      "stateMutability": "nonpayable",
      "type": "function"
    },
    {
      "inputs": [
        {
          "internalType": "uint256",
          "name": "_tokenId",
          "type": "uint256"
        },
        {
          "internalType": "uint256",
          "name": "_salePrice",
          "type": "uint256"
        }
      ],
      "name": "royaltyInfo",
      "outputs": [
        {
          "internalType": "address[]",
          "name": "",
          "type": "address[]"
        },
        {
          "internalType": "uint256[]",
          "name": "",
          "type": "uint256[]"
        }
      ],
      "stateMutability": "view",
      "type": "function"
    },
    {
      "inputs": [
        {
          "internalType": "address",
          "name": "from",
          "type": "address"
        },
        {
          "internalType": "address",
          "name": "to",
          "type": "address"
        },
        {
          "internalType": "uint256[]",
          "name": "ids",
          "type": "uint256[]"
        },
        {
          "internalType": "uint256[]",
          "name": "amounts",
          "type": "uint256[]"
        },
        {
          "internalType": "bytes",
          "name": "data",
          "type": "bytes"
        }
      ],
      "name": "safeBatchTransferFrom",
      "outputs": [],
      "stateMutability": "nonpayable",
      "type": "function"
    },
    {
      "inputs": [
        {
          "internalType": "address",
          "name": "from",
          "type": "address"
        },
        {
          "internalType": "address",
          "name": "to",
          "type": "address"
        },
        {
          "internalType": "uint256",
          "name": "id",
          "type": "uint256"
        },
        {
          "internalType": "uint256",
          "name": "amount",
          "type": "uint256"
        },
        {
          "internalType": "bytes",
          "name": "data",
          "type": "bytes"
        }
      ],
      "name": "safeTransferFrom",
      "outputs": [],
      "stateMutability": "nonpayable",
      "type": "function"
    },
    {
      "inputs": [
        {
          "internalType": "address",
          "name": "operator",
          "type": "address"
        },
        {
          "internalType": "bool",
          "name": "approved",
          "type": "bool"
        }
      ],
      "name": "setApprovalForAll",
      "outputs": [],
      "stateMutability": "nonpayable",
      "type": "function"
    },
    {
      "inputs": [
        {
          "internalType": "string",
          "name": "baseURI_",
          "type": "string"
        }
      ],
      "name": "setBaseURI",
      "outputs": [],
      "stateMutability": "nonpayable",
      "type": "function"
    },
    {
      "inputs": [
        {
          "internalType": "address[]",
          "name": "newAddresses",
          "type": "address[]"
        }
      ],
      "name": "setWhitelist",
      "outputs": [],
      "stateMutability": "nonpayable",
      "type": "function"
    },
    {
      "inputs": [
        {
          "internalType": "bool",
          "name": "_state",
          "type": "bool"
        }
      ],
      "name": "setWhitelistEnabled",
      "outputs": [],
      "stateMutability": "nonpayable",
      "type": "function"
    },
    {
      "inputs": [
        {
          "internalType": "bytes4",
          "name": "interfaceId",
          "type": "bytes4"
        }
      ],
      "name": "supportsInterface",
      "outputs": [
        {
          "internalType": "bool",
          "name": "",
          "type": "bool"
        }
      ],
      "stateMutability": "view",
      "type": "function"
    },
    {
      "inputs": [],
      "name": "symbol",
      "outputs": [
        {
          "internalType": "string",
          "name": "",
          "type": "string"
        }
      ],
      "stateMutability": "view",
      "type": "function"
    },
    {
      "inputs": [
        {
          "internalType": "uint256",
          "name": "_tokenId",
          "type": "uint256"
        }
      ],
      "name": "tokenURI",
      "outputs": [
        {
          "internalType": "string",
          "name": "",
          "type": "string"
        }
      ],
      "stateMutability": "view",
      "type": "function"
    },
    {
      "inputs": [
        {
          "internalType": "address",
          "name": "_from",
          "type": "address"
        },
        {
          "internalType": "address",
          "name": "_to",
          "type": "address"
        },
        {
          "internalType": "uint256",
          "name": "_tokenId",
          "type": "uint256"
        },
        {
          "internalType": "uint256",
          "name": "_copies",
          "type": "uint256"
        }
      ],
      "name": "transfer",
      "outputs": [
        {
          "internalType": "bool",
          "name": "",
          "type": "bool"
        }
      ],
      "stateMutability": "nonpayable",
      "type": "function"
    },
    {
      "inputs": [
        {
          "internalType": "address",
          "name": "newOwner",
          "type": "address"
        }
      ],
      "name": "transferOwnership",
      "outputs": [],
      "stateMutability": "nonpayable",
      "type": "function"
    },
    {
      "inputs": [
        {
          "internalType": "uint256",
          "name": "",
          "type": "uint256"
        }
      ],
      "name": "uri",
      "outputs": [
        {
          "internalType": "string",
          "name": "",
          "type": "string"
        }
      ],
      "stateMutability": "view",
      "type": "function"
    },
    {
      "inputs": [],
      "name": "uriSuffix",
      "outputs": [
        {
          "internalType": "string",
          "name": "",
          "type": "string"
        }
      ],
      "stateMutability": "view",
      "type": "function"
    },
    {
      "inputs": [
        {
          "internalType": "address",
          "name": "",
          "type": "address"
        }
      ],
      "name": "whitelist",
      "outputs": [
        {
          "internalType": "bool",
          "name": "",
          "type": "bool"
        }
      ],
      "stateMutability": "view",
      "type": "function"
    },
    {
      "inputs": [],
      "name": "whitelistEnabled",
      "outputs": [
        {
          "internalType": "bool",
          "name": "",
          "type": "bool"
        }
      ],
      "stateMutability": "view",
      "type": "function"
    }
  ],
  "bytecode": "0x608060405260405180602001604052806000815250600a90805190602001906200002b92919062000484565b506040518060400160405280600581526020017f2e6a736f6e000000000000000000000000000000000000000000000000000000815250600b90805190602001906200007992919062000484565b506000600c556000600d60006101000a81548160ff021916908315150217905550348015620000a757600080fd5b5060405162006588380380620065888339818101604052810190620000cd919062000acb565b84848160009080519060200190620000e792919062000484565b5080600190805190602001906200010092919062000484565b5050506200012362000117620001ab60201b60201c565b620001b360201b60201c565b6000859050600085905060008251141580156200014257506000815114155b62000184576040517f08c379a00000000000000000000000000000000000000000000000000000000081526004016200017b9062000c56565b60405180910390fd5b84156200019e576200019d84846200027960201b60201c565b5b505050505050506200102a565b600033905090565b6000600860009054906101000a900473ffffffffffffffffffffffffffffffffffffffff16905081600860006101000a81548173ffffffffffffffffffffffffffffffffffffffff021916908373ffffffffffffffffffffffffffffffffffffffff1602179055508173ffffffffffffffffffffffffffffffffffffffff168173ffffffffffffffffffffffffffffffffffffffff167f8be0079c531659141344cd1fd0a4f28419497f9722a3daafe3b4186f6b6457e060405160405180910390a35050565b6000825111620002c0576040517f08c379a0000000000000000000000000000000000000000000000000000000008152600401620002b79062000cc8565b60405180910390fd5b60058251111562000308576040517f08c379a0000000000000000000000000000000000000000000000000000000008152600401620002ff9062000d60565b60405180910390fd5b80518251146200034f576040517f08c379a0000000000000000000000000000000000000000000000000000000008152600401620003469062000df8565b60405180910390fd5b6000805b8251811015620003ae5782818151811062000373576200037262000e1a565b5b60200260200101516bffffffffffffffffffffffff168262000396919062000e82565b91508080620003a59062000edf565b91505062000353565b50620003bf6200047a60201b60201c565b6bffffffffffffffffffffffff1681111562000412576040517f08c379a0000000000000000000000000000000000000000000000000000000008152600401620004099062000fa3565b60405180910390fd5b606080849050839150604051806040016040528082815260200183815250600560008201518160000190805190602001906200045092919062000515565b5060208201518160010190805190602001906200046f929190620005a4565b509050505050505050565b6000612710905090565b828054620004929062000ff4565b90600052602060002090601f016020900481019282620004b6576000855562000502565b82601f10620004d157805160ff191683800117855562000502565b8280016001018555821562000502579182015b8281111562000501578251825591602001919060010190620004e4565b5b50905062000511919062000673565b5090565b82805482825590600052602060002090810192821562000591579160200282015b82811115620005905782518260006101000a81548173ffffffffffffffffffffffffffffffffffffffff021916908373ffffffffffffffffffffffffffffffffffffffff1602179055509160200191906001019062000536565b5b509050620005a0919062000673565b5090565b82805482825590600052602060002090600101600290048101928215620006605791602002820160005b838211156200062457835183826101000a8154816bffffffffffffffffffffffff02191690836bffffffffffffffffffffffff1602179055509260200192600c01602081600b01049283019260010302620005ce565b80156200065e5782816101000a8154906bffffffffffffffffffffffff0219169055600c01602081600b0104928301926001030262000624565b505b5090506200066f919062000673565b5090565b5b808211156200068e57600081600090555060010162000674565b5090565b6000604051905090565b600080fd5b600080fd5b600080fd5b600080fd5b6000601f19601f8301169050919050565b7f4e487b7100000000000000000000000000000000000000000000000000000000600052604160045260246000fd5b620006fb82620006b0565b810181811067ffffffffffffffff821117156200071d576200071c620006c1565b5b80604052505050565b60006200073262000692565b9050620007408282620006f0565b919050565b600067ffffffffffffffff821115620007635762000762620006c1565b5b6200076e82620006b0565b9050602081019050919050565b60005b838110156200079b5780820151818401526020810190506200077e565b83811115620007ab576000848401525b50505050565b6000620007c8620007c28462000745565b62000726565b905082815260208101848484011115620007e757620007e6620006ab565b5b620007f48482856200077b565b509392505050565b600082601f830112620008145762000813620006a6565b5b815162000826848260208601620007b1565b91505092915050565b60008115159050919050565b62000846816200082f565b81146200085257600080fd5b50565b60008151905062000866816200083b565b92915050565b600067ffffffffffffffff8211156200088a5762000889620006c1565b5b602082029050602081019050919050565b600080fd5b600073ffffffffffffffffffffffffffffffffffffffff82169050919050565b6000620008cd82620008a0565b9050919050565b620008df81620008c0565b8114620008eb57600080fd5b50565b600081519050620008ff81620008d4565b92915050565b60006200091c62000916846200086c565b62000726565b905080838252602082019050602084028301858111156200094257620009416200089b565b5b835b818110156200096f57806200095a8882620008ee565b84526020840193505060208101905062000944565b5050509392505050565b600082601f830112620009915762000990620006a6565b5b8151620009a384826020860162000905565b91505092915050565b600067ffffffffffffffff821115620009ca57620009c9620006c1565b5b602082029050602081019050919050565b60006bffffffffffffffffffffffff82169050919050565b620009fe81620009db565b811462000a0a57600080fd5b50565b60008151905062000a1e81620009f3565b92915050565b600062000a3b62000a3584620009ac565b62000726565b9050808382526020820190506020840283018581111562000a615762000a606200089b565b5b835b8181101562000a8e578062000a79888262000a0d565b84526020840193505060208101905062000a63565b5050509392505050565b600082601f83011262000ab05762000aaf620006a6565b5b815162000ac284826020860162000a24565b91505092915050565b600080600080600060a0868803121562000aea5762000ae96200069c565b5b600086015167ffffffffffffffff81111562000b0b5762000b0a620006a1565b5b62000b1988828901620007fc565b955050602086015167ffffffffffffffff81111562000b3d5762000b3c620006a1565b5b62000b4b88828901620007fc565b945050604062000b5e8882890162000855565b935050606086015167ffffffffffffffff81111562000b825762000b81620006a1565b5b62000b908882890162000979565b925050608086015167ffffffffffffffff81111562000bb45762000bb3620006a1565b5b62000bc28882890162000a98565b9150509295509295909350565b600082825260208201905092915050565b7f455243313135353a2043686f6f73652061206e616d6520616e642073796d626f60008201527f6c00000000000000000000000000000000000000000000000000000000000000602082015250565b600062000c3e60218362000bcf565b915062000c4b8262000be0565b604082019050919050565b6000602082019050818103600083015262000c718162000c2f565b9050919050565b7f4e6f20526f79616c74792064657461696c732070726f76696465640000000000600082015250565b600062000cb0601b8362000bcf565b915062000cbd8262000c78565b602082019050919050565b6000602082019050818103600083015262000ce38162000ca1565b9050919050565b7f546f6f206d616e7920726f79616c74792072656369657665727320646574616960008201527f6c73000000000000000000000000000000000000000000000000000000000000602082015250565b600062000d4860228362000bcf565b915062000d558262000cea565b604082019050919050565b6000602082019050818103600083015262000d7b8162000d39565b9050919050565b7f4d69736d61746368206f6620526f79616c74792072656369657665727320616e60008201527f6420746865697220666565730000000000000000000000000000000000000000602082015250565b600062000de0602c8362000bcf565b915062000ded8262000d82565b604082019050919050565b6000602082019050818103600083015262000e138162000dd1565b9050919050565b7f4e487b7100000000000000000000000000000000000000000000000000000000600052603260045260246000fd5b6000819050919050565b7f4e487b7100000000000000000000000000000000000000000000000000000000600052601160045260246000fd5b600062000e8f8262000e49565b915062000e9c8362000e49565b9250827fffffffffffffffffffffffffffffffffffffffffffffffffffffffffffffffff0382111562000ed45762000ed362000e53565b5b828201905092915050565b600062000eec8262000e49565b91507fffffffffffffffffffffffffffffffffffffffffffffffffffffffffffffffff82141562000f225762000f2162000e53565b5b600182019050919050565b7f455243323938313a20726f79616c7479206665652077696c6c2065786365656460008201527f2073616c65507269636500000000000000000000000000000000000000000000602082015250565b600062000f8b602a8362000bcf565b915062000f988262000f2d565b604082019050919050565b6000602082019050818103600083015262000fbe8162000f7c565b9050919050565b7f4e487b7100000000000000000000000000000000000000000000000000000000600052602260045260246000fd5b600060028204905060018216806200100d57607f821691505b6020821081141562001024576200102362000fc5565b5b50919050565b61554e806200103a6000396000f3fe608060405234801561001057600080fd5b50600436106101a85760003560e01c806355f804b3116100f9578063a22cb46511610097578063f242432a11610071578063f242432a14610509578063f2fde38b14610525578063f421764814610541578063f5298aca1461055d576101a8565b8063a22cb4651461048d578063c87b56dd146104a9578063e985e9c5146104d9576101a8565b8063715018a6116100d3578063715018a6146104175780638da5cb5b1461042157806395d89b411461043f5780639b19251a1461045d576101a8565b806355f804b3146103ac578063596bbe0c146103c85780636c0360eb146103f9576101a8565b806323245216116101665780634816edf4116101405780634816edf4146103105780634e1273f41461034057806351fb012d146103705780635503a0e81461038e576101a8565b806323245216146102a75780632a55205a146102c35780632eb2c2d6146102f4576101a8565b8062fdd58e146101ad57806301ffc9a7146101dd5780630411b2521461020d578063052d9e7e1461023d57806306fdde03146102595780630e89341c14610277575b600080fd5b6101c760048036038101906101c291906131aa565b610579565b6040516101d491906131f9565b60405180910390f35b6101f760048036038101906101f2919061326c565b610643565b60405161020491906132b4565b60405180910390f35b610227600480360381019061022291906132cf565b610725565b60405161023491906132b4565b60405180910390f35b61025760048036038101906102529190613362565b61079b565b005b610261610806565b60405161026e9190613428565b60405180910390f35b610291600480360381019061028c919061344a565b610894565b60405161029e9190613428565b60405180910390f35b6102c160048036038101906102bc91906134dc565b610928565b005b6102dd60048036038101906102d89190613529565b610a72565b6040516102eb9291906136e5565b60405180910390f35b61030e6004803603810190610309919061390f565b610df9565b005b61032a6004803603810190610325919061344a565b610e9a565b60405161033791906139ed565b60405180910390f35b61035a60048036038101906103559190613acb565b610ecd565b6040516103679190613b43565b60405180910390f35b610378610fe6565b60405161038591906132b4565b60405180910390f35b610396610ff9565b6040516103a39190613428565b60405180910390f35b6103c660048036038101906103c19190613c06565b611087565b005b6103e260048036038101906103dd9190613d56565b6110e1565b6040516103f0929190613e37565b60405180910390f35b61040161127d565b60405161040e9190613428565b60405180910390f35b61041f61130b565b005b61042961131f565b60405161043691906139ed565b60405180910390f35b610447611349565b6040516104549190613428565b60405180910390f35b61047760048036038101906104729190613e60565b6113d7565b60405161048491906132b4565b60405180910390f35b6104a760048036038101906104a29190613e8d565b6113f7565b005b6104c360048036038101906104be919061344a565b61140d565b6040516104d09190613428565b60405180910390f35b6104f360048036038101906104ee9190613ecd565b6114bc565b60405161050091906132b4565b60405180910390f35b610523600480360381019061051e9190613f0d565b611550565b005b61053f600480360381019061053a9190613e60565b6115f1565b005b61055b600480360381019061055691906134dc565b611675565b005b61057760048036038101906105729190613fa4565b61180d565b005b60008073ffffffffffffffffffffffffffffffffffffffff168373ffffffffffffffffffffffffffffffffffffffff1614156105ea576040517f08c379a00000000000000000000000000000000000000000000000000000000081526004016105e190614069565b60405180910390fd5b6002600083815260200190815260200160002060008473ffffffffffffffffffffffffffffffffffffffff1673ffffffffffffffffffffffffffffffffffffffff16815260200190815260200160002054905092915050565b60007fd9b67a26000000000000000000000000000000000000000000000000000000007bffffffffffffffffffffffffffffffffffffffffffffffffffffffff1916827bffffffffffffffffffffffffffffffffffffffffffffffffffffffff1916148061070e57507f0e89341c000000000000000000000000000000000000000000000000000000007bffffffffffffffffffffffffffffffffffffffffffffffffffffffff1916827bffffffffffffffffffffffffffffffffffffffffffffffffffffffff1916145b8061071e575061071d826118b6565b5b9050919050565b6000816107328685610579565b1015610773576040517f08c379a000000000000000000000000000000000000000000000000000000000815260040161076a906140d5565b60405180910390fd5b61078f8585858560405180602001604052806000815250611550565b60019050949350505050565b6107a3611930565b80600d60006101000a81548160ff0219169083151502179055507f218e591c4b0d49651b4b42843cb8cc59080122def3d2271f56ef2e21896753ec600d60009054906101000a900460ff166040516107fb91906132b4565b60405180910390a150565b6000805461081390614124565b80601f016020809104026020016040519081016040528092919081815260200182805461083f90614124565b801561088c5780601f106108615761010080835404028352916020019161088c565b820191906000526020600020905b81548152906001019060200180831161086f57829003601f168201915b505050505081565b6060600480546108a390614124565b80601f01602080910402602001604051908101604052809291908181526020018280546108cf90614124565b801561091c5780601f106108f15761010080835404028352916020019161091c565b820191906000526020600020905b8154815290600101906020018083116108ff57829003601f168201915b50505050509050919050565b610930611930565b60008282905011610976576040517f08c379a000000000000000000000000000000000000000000000000000000000815260040161096d906141a2565b60405180910390fd5b6107d08282905011156109be576040517f08c379a00000000000000000000000000000000000000000000000000000000081526004016109b59061420e565b60405180910390fd5b60005b82829050811015610a6d57600e60008484848181106109e3576109e261422e565b5b90506020020160208101906109f89190613e60565b73ffffffffffffffffffffffffffffffffffffffff1673ffffffffffffffffffffffffffffffffffffffff16815260200190815260200160002060006101000a81549060ff0219169055600c6000815480929190610a559061428c565b91905055508080610a65906142b6565b9150506109c1565b505050565b60608060006007600086815260200190815260200160002060405180604001604052908160008201805480602002602001604051908101604052809291908181526020018280548015610b1a57602002820191906000526020600020905b8160009054906101000a900473ffffffffffffffffffffffffffffffffffffffff1673ffffffffffffffffffffffffffffffffffffffff1681526020019060010190808311610ad0575b5050505050815260200160018201805480602002602001604051908101604052809291908181526020018280548015610bae57602002820191906000526020600020906000905b82829054906101000a90046bffffffffffffffffffffffff166bffffffffffffffffffffffff16815260200190600c0190602082600b01049283019260010382029150808411610b615790505b505050505081525050905060008160000151511415610cf957600560405180604001604052908160008201805480602002602001604051908101604052809291908181526020018280548015610c5957602002820191906000526020600020905b8160009054906101000a900473ffffffffffffffffffffffffffffffffffffffff1673ffffffffffffffffffffffffffffffffffffffff1681526020019060010190808311610c0f575b5050505050815260200160018201805480602002602001604051908101604052809291908181526020018280548015610ced57602002820191906000526020600020906000905b82829054906101000a90046bffffffffffffffffffffffff166bffffffffffffffffffffffff16815260200190600c0190602082600b01049283019260010382029150808411610ca05790505b50505050508152505090505b600081600001515167ffffffffffffffff811115610d1a57610d1961371c565b5b604051908082528060200260200182016040528015610d485781602001602082028036833780820191505090505b50905060005b826000015151811015610de557610d636119ae565b6bffffffffffffffffffffffff1683602001518281518110610d8857610d8761422e565b5b60200260200101516bffffffffffffffffffffffff1687610da991906142ff565b610db39190614388565b828281518110610dc657610dc561422e565b5b6020026020010181815250508080610ddd906142b6565b915050610d4e565b508160000151819350935050509250929050565b610e016119b8565b73ffffffffffffffffffffffffffffffffffffffff168573ffffffffffffffffffffffffffffffffffffffff161480610e475750610e4685610e416119b8565b6114bc565b5b610e86576040517f08c379a0000000000000000000000000000000000000000000000000000000008152600401610e7d9061442b565b60405180910390fd5b610e9385858585856119c0565b5050505050565b600f6020528060005260406000206000915054906101000a900473ffffffffffffffffffffffffffffffffffffffff1681565b60608151835114610f13576040517f08c379a0000000000000000000000000000000000000000000000000000000008152600401610f0a906144bd565b60405180910390fd5b6000835167ffffffffffffffff811115610f3057610f2f61371c565b5b604051908082528060200260200182016040528015610f5e5781602001602082028036833780820191505090505b50905060005b8451811015610fdb57610fab858281518110610f8357610f8261422e565b5b6020026020010151858381518110610f9e57610f9d61422e565b5b6020026020010151610579565b828281518110610fbe57610fbd61422e565b5b60200260200101818152505080610fd4906142b6565b9050610f64565b508091505092915050565b600d60009054906101000a900460ff1681565b600b805461100690614124565b80601f016020809104026020016040519081016040528092919081815260200182805461103290614124565b801561107f5780601f106110545761010080835404028352916020019161107f565b820191906000526020600020905b81548152906001019060200180831161106257829003601f168201915b505050505081565b61108f611930565b80600a90805190602001906110a5929190612f0d565b507f01e56a02aca7f26a28165a040851ba78f30282b55ca81c63a804cdc1e2dcea72600a6040516110d69190614572565b60405180910390a150565b60008060001515600d60009054906101000a900460ff16151514156111765761110861131f565b73ffffffffffffffffffffffffffffffffffffffff163373ffffffffffffffffffffffffffffffffffffffff1614611175576040517f08c379a000000000000000000000000000000000000000000000000000000000815260040161116c906145e0565b60405180910390fd5b5b60011515600d60009054906101000a900460ff161515141561122657600e600061119e6119b8565b73ffffffffffffffffffffffffffffffffffffffff1673ffffffffffffffffffffffffffffffffffffffff16815260200190815260200160002060009054906101000a900460ff16611225576040517f08c379a000000000000000000000000000000000000000000000000000000000815260040161121c906145e0565b60405180910390fd5b5b60006112326009611cd7565b905061124f89828960405180602001604052806000815250611ce5565b851561126157611260818686611e7c565b5b61126b600961206e565b80879250925050965096945050505050565b600a805461128a90614124565b80601f01602080910402602001604051908101604052809291908181526020018280546112b690614124565b80156113035780601f106112d857610100808354040283529160200191611303565b820191906000526020600020905b8154815290600101906020018083116112e657829003601f168201915b505050505081565b611313611930565b61131d6000612084565b565b6000600860009054906101000a900473ffffffffffffffffffffffffffffffffffffffff16905090565b6001805461135690614124565b80601f016020809104026020016040519081016040528092919081815260200182805461138290614124565b80156113cf5780601f106113a4576101008083540402835291602001916113cf565b820191906000526020600020905b8154815290600101906020018083116113b257829003601f168201915b505050505081565b600e6020528060005260406000206000915054906101000a900460ff1681565b6114096114026119b8565b838361214a565b5050565b6060600061141b3384610579565b141561145c576040517f08c379a000000000000000000000000000000000000000000000000000000000815260040161145390614672565b60405180910390fd5b60006114666122b7565b9050600081511161148657604051806020016040528060008152506114b4565b8061149084612349565b600b6040516020016114a49392919061474d565b6040516020818303038152906040525b915050919050565b6000600360008473ffffffffffffffffffffffffffffffffffffffff1673ffffffffffffffffffffffffffffffffffffffff16815260200190815260200160002060008373ffffffffffffffffffffffffffffffffffffffff1673ffffffffffffffffffffffffffffffffffffffff16815260200190815260200160002060009054906101000a900460ff16905092915050565b6115586119b8565b73ffffffffffffffffffffffffffffffffffffffff168573ffffffffffffffffffffffffffffffffffffffff16148061159e575061159d856115986119b8565b6114bc565b5b6115dd576040517f08c379a00000000000000000000000000000000000000000000000000000000081526004016115d4906147f0565b60405180910390fd5b6115ea85858585856124aa565b5050505050565b6115f9611930565b600073ffffffffffffffffffffffffffffffffffffffff168173ffffffffffffffffffffffffffffffffffffffff161415611669576040517f08c379a000000000000000000000000000000000000000000000000000000000815260040161166090614882565b60405180910390fd5b61167281612084565b50565b61167d611930565b600082829050116116c3576040517f08c379a00000000000000000000000000000000000000000000000000000000081526004016116ba906141a2565b60405180910390fd5b6107d0828290501061170a576040517f08c379a00000000000000000000000000000000000000000000000000000000081526004016117019061420e565b60405180910390fd5b60005b82829050811015611808576107d0600c541061175e576040517f08c379a000000000000000000000000000000000000000000000000000000000815260040161175590614914565b60405180910390fd5b6001600e60008585858181106117775761177661422e565b5b905060200201602081019061178c9190613e60565b73ffffffffffffffffffffffffffffffffffffffff1673ffffffffffffffffffffffffffffffffffffffff16815260200190815260200160002060006101000a81548160ff021916908315150217905550600c60008154809291906117f0906142b6565b91905055508080611800906142b6565b91505061170d565b505050565b60006118193384610579565b141561185a576040517f08c379a0000000000000000000000000000000000000000000000000000000008152600401611851906149a6565b60405180910390fd5b806118653384610579565b10156118a6576040517f08c379a000000000000000000000000000000000000000000000000000000000815260040161189d90614a38565b60405180910390fd5b6118b183838361272f565b505050565b60007f2a55205a000000000000000000000000000000000000000000000000000000007bffffffffffffffffffffffffffffffffffffffffffffffffffffffff1916827bffffffffffffffffffffffffffffffffffffffffffffffffffffffff1916148061192957506119288261294e565b5b9050919050565b6119386119b8565b73ffffffffffffffffffffffffffffffffffffffff1661195661131f565b73ffffffffffffffffffffffffffffffffffffffff16146119ac576040517f08c379a00000000000000000000000000000000000000000000000000000000081526004016119a390614aa4565b60405180910390fd5b565b6000612710905090565b600033905090565b8151835114611a04576040517f08c379a00000000000000000000000000000000000000000000000000000000081526004016119fb90614b36565b60405180910390fd5b600073ffffffffffffffffffffffffffffffffffffffff168473ffffffffffffffffffffffffffffffffffffffff161415611a74576040517f08c379a0000000000000000000000000000000000000000000000000000000008152600401611a6b90614bc8565b60405180910390fd5b6000611a7e6119b8565b9050611a8e818787878787612a30565b60005b8451811015611c42576000858281518110611aaf57611aae61422e565b5b602002602001015190506000858381518110611ace57611acd61422e565b5b6020026020010151905060006002600084815260200190815260200160002060008b73ffffffffffffffffffffffffffffffffffffffff1673ffffffffffffffffffffffffffffffffffffffff16815260200190815260200160002054905081811015611b70576040517f08c379a0000000000000000000000000000000000000000000000000000000008152600401611b6790614c5a565b60405180910390fd5b8181036002600085815260200190815260200160002060008c73ffffffffffffffffffffffffffffffffffffffff1673ffffffffffffffffffffffffffffffffffffffff16815260200190815260200160002081905550816002600085815260200190815260200160002060008b73ffffffffffffffffffffffffffffffffffffffff1673ffffffffffffffffffffffffffffffffffffffff1681526020019081526020016000206000828254611c279190614c7a565b9250508190555050505080611c3b906142b6565b9050611a91565b508473ffffffffffffffffffffffffffffffffffffffff168673ffffffffffffffffffffffffffffffffffffffff168273ffffffffffffffffffffffffffffffffffffffff167f4a39dc06d4c0dbc64b70af90fd698a233a518aa5d07e595d983b8c0526c8f7fb8787604051611cb9929190614cd0565b60405180910390a4611ccf818787878787612a38565b505050505050565b600081600001549050919050565b600073ffffffffffffffffffffffffffffffffffffffff168473ffffffffffffffffffffffffffffffffffffffff161415611d55576040517f08c379a0000000000000000000000000000000000000000000000000000000008152600401611d4c90614d79565b60405180910390fd5b6000611d5f6119b8565b9050611d8081600087611d7188612c1f565b611d7a88612c1f565b87612a30565b826002600086815260200190815260200160002060008773ffffffffffffffffffffffffffffffffffffffff1673ffffffffffffffffffffffffffffffffffffffff1681526020019081526020016000206000828254611de09190614c7a565b925050819055508473ffffffffffffffffffffffffffffffffffffffff16600073ffffffffffffffffffffffffffffffffffffffff168273ffffffffffffffffffffffffffffffffffffffff167fc3d58168c5ae7397731d063d5bbf3d657854427343f4c083240f7aacaa2d0f628787604051611e5e929190613e37565b60405180910390a4611e7581600087878787612c99565b5050505050565b6000825111611ec0576040517f08c379a0000000000000000000000000000000000000000000000000000000008152600401611eb790614de5565b60405180910390fd5b600582511115611f05576040517f08c379a0000000000000000000000000000000000000000000000000000000008152600401611efc90614e77565b60405180910390fd5b8051825114611f49576040517f08c379a0000000000000000000000000000000000000000000000000000000008152600401611f4090614f09565b60405180910390fd5b6000805b8251811015611f9f57828181518110611f6957611f6861422e565b5b60200260200101516bffffffffffffffffffffffff1682611f8a9190614c7a565b91508080611f97906142b6565b915050611f4d565b50611fa86119ae565b6bffffffffffffffffffffffff16811115611ff8576040517f08c379a0000000000000000000000000000000000000000000000000000000008152600401611fef90614f9b565b60405180910390fd5b606080849050839150604051806040016040528082815260200183815250600760008881526020019081526020016000206000820151816000019080519060200190612045929190612f93565b50602082015181600101908051906020019061206292919061301d565b50905050505050505050565b6001816000016000828254019250508190555050565b6000600860009054906101000a900473ffffffffffffffffffffffffffffffffffffffff16905081600860006101000a81548173ffffffffffffffffffffffffffffffffffffffff021916908373ffffffffffffffffffffffffffffffffffffffff1602179055508173ffffffffffffffffffffffffffffffffffffffff168173ffffffffffffffffffffffffffffffffffffffff167f8be0079c531659141344cd1fd0a4f28419497f9722a3daafe3b4186f6b6457e060405160405180910390a35050565b8173ffffffffffffffffffffffffffffffffffffffff168373ffffffffffffffffffffffffffffffffffffffff1614156121b9576040517f08c379a00000000000000000000000000000000000000000000000000000000081526004016121b09061502d565b60405180910390fd5b80600360008573ffffffffffffffffffffffffffffffffffffffff1673ffffffffffffffffffffffffffffffffffffffff16815260200190815260200160002060008473ffffffffffffffffffffffffffffffffffffffff1673ffffffffffffffffffffffffffffffffffffffff16815260200190815260200160002060006101000a81548160ff0219169083151502179055508173ffffffffffffffffffffffffffffffffffffffff168373ffffffffffffffffffffffffffffffffffffffff167f17307eab39ab6107e8899845ad3d59bd9653f200f220920489ca2b5937696c31836040516122aa91906132b4565b60405180910390a3505050565b6060600a80546122c690614124565b80601f01602080910402602001604051908101604052809291908181526020018280546122f290614124565b801561233f5780601f106123145761010080835404028352916020019161233f565b820191906000526020600020905b81548152906001019060200180831161232257829003601f168201915b5050505050905090565b60606000821415612391576040518060400160405280600181526020017f300000000000000000000000000000000000000000000000000000000000000081525090506124a5565b600082905060005b600082146123c35780806123ac906142b6565b915050600a826123bc9190614388565b9150612399565b60008167ffffffffffffffff8111156123df576123de61371c565b5b6040519080825280601f01601f1916602001820160405280156124115781602001600182028036833780820191505090505b5090505b6000851461249e5760018261242a919061504d565b9150600a856124399190615081565b60306124459190614c7a565b60f81b81838151811061245b5761245a61422e565b5b60200101907effffffffffffffffffffffffffffffffffffffffffffffffffffffffffffff1916908160001a905350600a856124979190614388565b9450612415565b8093505050505b919050565b600073ffffffffffffffffffffffffffffffffffffffff168473ffffffffffffffffffffffffffffffffffffffff16141561251a576040517f08c379a000000000000000000000000000000000000000000000000000000000815260040161251190614bc8565b60405180910390fd5b60006125246119b8565b905061254481878761253588612c1f565b61253e88612c1f565b87612a30565b60006002600086815260200190815260200160002060008873ffffffffffffffffffffffffffffffffffffffff1673ffffffffffffffffffffffffffffffffffffffff168152602001908152602001600020549050838110156125dc576040517f08c379a00000000000000000000000000000000000000000000000000000000081526004016125d390614c5a565b60405180910390fd5b8381036002600087815260200190815260200160002060008973ffffffffffffffffffffffffffffffffffffffff1673ffffffffffffffffffffffffffffffffffffffff16815260200190815260200160002081905550836002600087815260200190815260200160002060008873ffffffffffffffffffffffffffffffffffffffff1673ffffffffffffffffffffffffffffffffffffffff16815260200190815260200160002060008282546126939190614c7a565b925050819055508573ffffffffffffffffffffffffffffffffffffffff168773ffffffffffffffffffffffffffffffffffffffff168373ffffffffffffffffffffffffffffffffffffffff167fc3d58168c5ae7397731d063d5bbf3d657854427343f4c083240f7aacaa2d0f628888604051612710929190613e37565b60405180910390a4612726828888888888612c99565b50505050505050565b600073ffffffffffffffffffffffffffffffffffffffff168373ffffffffffffffffffffffffffffffffffffffff16141561279f576040517f08c379a000000000000000000000000000000000000000000000000000000000815260040161279690615124565b60405180910390fd5b60006127a96119b8565b90506127d9818560006127bb87612c1f565b6127c487612c1f565b60405180602001604052806000815250612a30565b60006002600085815260200190815260200160002060008673ffffffffffffffffffffffffffffffffffffffff1673ffffffffffffffffffffffffffffffffffffffff16815260200190815260200160002054905082811015612871576040517f08c379a0000000000000000000000000000000000000000000000000000000008152600401612868906151b6565b60405180910390fd5b8281036002600086815260200190815260200160002060008773ffffffffffffffffffffffffffffffffffffffff1673ffffffffffffffffffffffffffffffffffffffff16815260200190815260200160002081905550600073ffffffffffffffffffffffffffffffffffffffff168573ffffffffffffffffffffffffffffffffffffffff168373ffffffffffffffffffffffffffffffffffffffff167fc3d58168c5ae7397731d063d5bbf3d657854427343f4c083240f7aacaa2d0f62878760405161293f929190613e37565b60405180910390a45050505050565b60007fd9b67a26000000000000000000000000000000000000000000000000000000007bffffffffffffffffffffffffffffffffffffffffffffffffffffffff1916827bffffffffffffffffffffffffffffffffffffffffffffffffffffffff19161480612a1957507f0e89341c000000000000000000000000000000000000000000000000000000007bffffffffffffffffffffffffffffffffffffffffffffffffffffffff1916827bffffffffffffffffffffffffffffffffffffffffffffffffffffffff1916145b80612a295750612a2882612e80565b5b9050919050565b505050505050565b612a578473ffffffffffffffffffffffffffffffffffffffff16612eea565b15612c17578373ffffffffffffffffffffffffffffffffffffffff1663bc197c8187878686866040518663ffffffff1660e01b8152600401612a9d95949392919061522b565b602060405180830381600087803b158015612ab757600080fd5b505af1925050508015612ae857506040513d601f19601f82011682018060405250810190612ae591906152a8565b60015b612b8e57612af46152e2565b806308c379a01415612b515750612b09615304565b80612b145750612b53565b806040517f08c379a0000000000000000000000000000000000000000000000000000000008152600401612b489190613428565b60405180910390fd5b505b6040517f08c379a0000000000000000000000000000000000000000000000000000000008152600401612b859061540c565b60405180910390fd5b63bc197c8160e01b7bffffffffffffffffffffffffffffffffffffffffffffffffffffffff1916817bffffffffffffffffffffffffffffffffffffffffffffffffffffffff191614612c15576040517f08c379a0000000000000000000000000000000000000000000000000000000008152600401612c0c9061549e565b60405180910390fd5b505b505050505050565b60606000600167ffffffffffffffff811115612c3e57612c3d61371c565b5b604051908082528060200260200182016040528015612c6c5781602001602082028036833780820191505090505b5090508281600081518110612c8457612c8361422e565b5b60200260200101818152505080915050919050565b612cb88473ffffffffffffffffffffffffffffffffffffffff16612eea565b15612e78578373ffffffffffffffffffffffffffffffffffffffff1663f23a6e6187878686866040518663ffffffff1660e01b8152600401612cfe9594939291906154be565b602060405180830381600087803b158015612d1857600080fd5b505af1925050508015612d4957506040513d601f19601f82011682018060405250810190612d4691906152a8565b60015b612def57612d556152e2565b806308c379a01415612db25750612d6a615304565b80612d755750612db4565b806040517f08c379a0000000000000000000000000000000000000000000000000000000008152600401612da99190613428565b60405180910390fd5b505b6040517f08c379a0000000000000000000000000000000000000000000000000000000008152600401612de69061540c565b60405180910390fd5b63f23a6e6160e01b7bffffffffffffffffffffffffffffffffffffffffffffffffffffffff1916817bffffffffffffffffffffffffffffffffffffffffffffffffffffffff191614612e76576040517f08c379a0000000000000000000000000000000000000000000000000000000008152600401612e6d9061549e565b60405180910390fd5b505b505050505050565b60007f01ffc9a7000000000000000000000000000000000000000000000000000000007bffffffffffffffffffffffffffffffffffffffffffffffffffffffff1916827bffffffffffffffffffffffffffffffffffffffffffffffffffffffff1916149050919050565b6000808273ffffffffffffffffffffffffffffffffffffffff163b119050919050565b828054612f1990614124565b90600052602060002090601f016020900481019282612f3b5760008555612f82565b82601f10612f5457805160ff1916838001178555612f82565b82800160010185558215612f82579182015b82811115612f81578251825591602001919060010190612f66565b5b509050612f8f91906130e5565b5090565b82805482825590600052602060002090810192821561300c579160200282015b8281111561300b5782518260006101000a81548173ffffffffffffffffffffffffffffffffffffffff021916908373ffffffffffffffffffffffffffffffffffffffff16021790555091602001919060010190612fb3565b5b50905061301991906130e5565b5090565b828054828255906000526020600020906001016002900481019282156130d45791602002820160005b8382111561309a57835183826101000a8154816bffffffffffffffffffffffff02191690836bffffffffffffffffffffffff1602179055509260200192600c01602081600b01049283019260010302613046565b80156130d25782816101000a8154906bffffffffffffffffffffffff0219169055600c01602081600b0104928301926001030261309a565b505b5090506130e191906130e5565b5090565b5b808211156130fe5760008160009055506001016130e6565b5090565b6000604051905090565b600080fd5b600080fd5b600073ffffffffffffffffffffffffffffffffffffffff82169050919050565b600061314182613116565b9050919050565b61315181613136565b811461315c57600080fd5b50565b60008135905061316e81613148565b92915050565b6000819050919050565b61318781613174565b811461319257600080fd5b50565b6000813590506131a48161317e565b92915050565b600080604083850312156131c1576131c061310c565b5b60006131cf8582860161315f565b92505060206131e085828601613195565b9150509250929050565b6131f381613174565b82525050565b600060208201905061320e60008301846131ea565b92915050565b60007fffffffff0000000000000000000000000000000000000000000000000000000082169050919050565b61324981613214565b811461325457600080fd5b50565b60008135905061326681613240565b92915050565b6000602082840312156132825761328161310c565b5b600061329084828501613257565b91505092915050565b60008115159050919050565b6132ae81613299565b82525050565b60006020820190506132c960008301846132a5565b92915050565b600080600080608085870312156132e9576132e861310c565b5b60006132f78782880161315f565b94505060206133088782880161315f565b935050604061331987828801613195565b925050606061332a87828801613195565b91505092959194509250565b61333f81613299565b811461334a57600080fd5b50565b60008135905061335c81613336565b92915050565b6000602082840312156133785761337761310c565b5b60006133868482850161334d565b91505092915050565b600081519050919050565b600082825260208201905092915050565b60005b838110156133c95780820151818401526020810190506133ae565b838111156133d8576000848401525b50505050565b6000601f19601f8301169050919050565b60006133fa8261338f565b613404818561339a565b93506134148185602086016133ab565b61341d816133de565b840191505092915050565b6000602082019050818103600083015261344281846133ef565b905092915050565b6000602082840312156134605761345f61310c565b5b600061346e84828501613195565b91505092915050565b600080fd5b600080fd5b600080fd5b60008083601f84011261349c5761349b613477565b5b8235905067ffffffffffffffff8111156134b9576134b861347c565b5b6020830191508360208202830111156134d5576134d4613481565b5b9250929050565b600080602083850312156134f3576134f261310c565b5b600083013567ffffffffffffffff81111561351157613510613111565b5b61351d85828601613486565b92509250509250929050565b600080604083850312156135405761353f61310c565b5b600061354e85828601613195565b925050602061355f85828601613195565b9150509250929050565b600081519050919050565b600082825260208201905092915050565b6000819050602082019050919050565b61359e81613136565b82525050565b60006135b08383613595565b60208301905092915050565b6000602082019050919050565b60006135d482613569565b6135de8185613574565b93506135e983613585565b8060005b8381101561361a57815161360188826135a4565b975061360c836135bc565b9250506001810190506135ed565b5085935050505092915050565b600081519050919050565b600082825260208201905092915050565b6000819050602082019050919050565b61365c81613174565b82525050565b600061366e8383613653565b60208301905092915050565b6000602082019050919050565b600061369282613627565b61369c8185613632565b93506136a783613643565b8060005b838110156136d85781516136bf8882613662565b97506136ca8361367a565b9250506001810190506136ab565b5085935050505092915050565b600060408201905081810360008301526136ff81856135c9565b905081810360208301526137138184613687565b90509392505050565b7f4e487b7100000000000000000000000000000000000000000000000000000000600052604160045260246000fd5b613754826133de565b810181811067ffffffffffffffff821117156137735761377261371c565b5b80604052505050565b6000613786613102565b9050613792828261374b565b919050565b600067ffffffffffffffff8211156137b2576137b161371c565b5b602082029050602081019050919050565b60006137d66137d184613797565b61377c565b905080838252602082019050602084028301858111156137f9576137f8613481565b5b835b81811015613822578061380e8882613195565b8452602084019350506020810190506137fb565b5050509392505050565b600082601f83011261384157613840613477565b5b81356138518482602086016137c3565b91505092915050565b600080fd5b600067ffffffffffffffff82111561387a5761387961371c565b5b613883826133de565b9050602081019050919050565b82818337600083830152505050565b60006138b26138ad8461385f565b61377c565b9050828152602081018484840111156138ce576138cd61385a565b5b6138d9848285613890565b509392505050565b600082601f8301126138f6576138f5613477565b5b813561390684826020860161389f565b91505092915050565b600080600080600060a0868803121561392b5761392a61310c565b5b60006139398882890161315f565b955050602061394a8882890161315f565b945050604086013567ffffffffffffffff81111561396b5761396a613111565b5b6139778882890161382c565b935050606086013567ffffffffffffffff81111561399857613997613111565b5b6139a48882890161382c565b925050608086013567ffffffffffffffff8111156139c5576139c4613111565b5b6139d1888289016138e1565b9150509295509295909350565b6139e781613136565b82525050565b6000602082019050613a0260008301846139de565b92915050565b600067ffffffffffffffff821115613a2357613a2261371c565b5b602082029050602081019050919050565b6000613a47613a4284613a08565b61377c565b90508083825260208201905060208402830185811115613a6a57613a69613481565b5b835b81811015613a935780613a7f888261315f565b845260208401935050602081019050613a6c565b5050509392505050565b600082601f830112613ab257613ab1613477565b5b8135613ac2848260208601613a34565b91505092915050565b60008060408385031215613ae257613ae161310c565b5b600083013567ffffffffffffffff811115613b0057613aff613111565b5b613b0c85828601613a9d565b925050602083013567ffffffffffffffff811115613b2d57613b2c613111565b5b613b398582860161382c565b9150509250929050565b60006020820190508181036000830152613b5d8184613687565b905092915050565b600067ffffffffffffffff821115613b8057613b7f61371c565b5b613b89826133de565b9050602081019050919050565b6000613ba9613ba484613b65565b61377c565b905082815260208101848484011115613bc557613bc461385a565b5b613bd0848285613890565b509392505050565b600082601f830112613bed57613bec613477565b5b8135613bfd848260208601613b96565b91505092915050565b600060208284031215613c1c57613c1b61310c565b5b600082013567ffffffffffffffff811115613c3a57613c39613111565b5b613c4684828501613bd8565b91505092915050565b600067ffffffffffffffff821115613c6a57613c6961371c565b5b602082029050602081019050919050565b60006bffffffffffffffffffffffff82169050919050565b613c9c81613c7b565b8114613ca757600080fd5b50565b600081359050613cb981613c93565b92915050565b6000613cd2613ccd84613c4f565b61377c565b90508083825260208201905060208402830185811115613cf557613cf4613481565b5b835b81811015613d1e5780613d0a8882613caa565b845260208401935050602081019050613cf7565b5050509392505050565b600082601f830112613d3d57613d3c613477565b5b8135613d4d848260208601613cbf565b91505092915050565b60008060008060008060c08789031215613d7357613d7261310c565b5b6000613d8189828a0161315f565b965050602087013567ffffffffffffffff811115613da257613da1613111565b5b613dae89828a01613bd8565b9550506040613dbf89828a01613195565b9450506060613dd089828a0161334d565b935050608087013567ffffffffffffffff811115613df157613df0613111565b5b613dfd89828a01613a9d565b92505060a087013567ffffffffffffffff811115613e1e57613e1d613111565b5b613e2a89828a01613d28565b9150509295509295509295565b6000604082019050613e4c60008301856131ea565b613e5960208301846131ea565b9392505050565b600060208284031215613e7657613e7561310c565b5b6000613e848482850161315f565b91505092915050565b60008060408385031215613ea457613ea361310c565b5b6000613eb28582860161315f565b9250506020613ec38582860161334d565b9150509250929050565b60008060408385031215613ee457613ee361310c565b5b6000613ef28582860161315f565b9250506020613f038582860161315f565b9150509250929050565b600080600080600060a08688031215613f2957613f2861310c565b5b6000613f378882890161315f565b9550506020613f488882890161315f565b9450506040613f5988828901613195565b9350506060613f6a88828901613195565b925050608086013567ffffffffffffffff811115613f8b57613f8a613111565b5b613f97888289016138e1565b9150509295509295909350565b600080600060608486031215613fbd57613fbc61310c565b5b6000613fcb8682870161315f565b9350506020613fdc86828701613195565b9250506040613fed86828701613195565b9150509250925092565b7f455243313135353a2062616c616e636520717565727920666f7220746865207a60008201527f65726f2061646472657373000000000000000000000000000000000000000000602082015250565b6000614053602b8361339a565b915061405e82613ff7565b604082019050919050565b6000602082019050818103600083015261408281614046565b9050919050565b7f455243313135353a204e6f7420656e6f75676820636f70696573000000000000600082015250565b60006140bf601a8361339a565b91506140ca82614089565b602082019050919050565b600060208201905081810360008301526140ee816140b2565b9050919050565b7f4e487b7100000000000000000000000000000000000000000000000000000000600052602260045260246000fd5b6000600282049050600182168061413c57607f821691505b602082108114156141505761414f6140f5565b5b50919050565b7f4e6f20757365722064657461696c732070726f76696465640000000000000000600082015250565b600061418c60188361339a565b915061419782614156565b602082019050919050565b600060208201905081810360008301526141bb8161417f565b9050919050565b7f546f6f206d616e792075736572737320746f2077686974656c69737400000000600082015250565b60006141f8601c8361339a565b9150614203826141c2565b602082019050919050565b60006020820190508181036000830152614227816141eb565b9050919050565b7f4e487b7100000000000000000000000000000000000000000000000000000000600052603260045260246000fd5b7f4e487b7100000000000000000000000000000000000000000000000000000000600052601160045260246000fd5b600061429782613174565b915060008214156142ab576142aa61425d565b5b600182039050919050565b60006142c182613174565b91507fffffffffffffffffffffffffffffffffffffffffffffffffffffffffffffffff8214156142f4576142f361425d565b5b600182019050919050565b600061430a82613174565b915061431583613174565b9250817fffffffffffffffffffffffffffffffffffffffffffffffffffffffffffffffff048311821515161561434e5761434d61425d565b5b828202905092915050565b7f4e487b7100000000000000000000000000000000000000000000000000000000600052601260045260246000fd5b600061439382613174565b915061439e83613174565b9250826143ae576143ad614359565b5b828204905092915050565b7f455243313135353a207472616e736665722063616c6c6572206973206e6f742060008201527f6f776e6572206e6f7220617070726f7665640000000000000000000000000000602082015250565b600061441560328361339a565b9150614420826143b9565b604082019050919050565b6000602082019050818103600083015261444481614408565b9050919050565b7f455243313135353a206163636f756e747320616e6420696473206c656e67746860008201527f206d69736d617463680000000000000000000000000000000000000000000000602082015250565b60006144a760298361339a565b91506144b28261444b565b604082019050919050565b600060208201905081810360008301526144d68161449a565b9050919050565b60008190508160005260206000209050919050565b600081546144ff81614124565b614509818661339a565b94506001821660008114614524576001811461453657614569565b60ff1983168652602086019350614569565b61453f856144dd565b60005b8381101561456157815481890152600182019150602081019050614542565b808801955050505b50505092915050565b6000602082019050818103600083015261458c81846144f2565b905092915050565b7f41646472657373206e6f742077686974656c6973746564000000000000000000600082015250565b60006145ca60178361339a565b91506145d582614594565b602082019050919050565b600060208201905081810360008301526145f9816145bd565b9050919050565b7f455243313135354d657461646174613a2055524920717565727920666f72206e60008201527f6f6e6578697374656e7420746f6b656e00000000000000000000000000000000602082015250565b600061465c60308361339a565b915061466782614600565b604082019050919050565b6000602082019050818103600083015261468b8161464f565b9050919050565b600081905092915050565b60006146a88261338f565b6146b28185614692565b93506146c28185602086016133ab565b80840191505092915050565b600081546146db81614124565b6146e58186614692565b94506001821660008114614700576001811461471157614744565b60ff19831686528186019350614744565b61471a856144dd565b60005b8381101561473c5781548189015260018201915060208101905061471d565b838801955050505b50505092915050565b6000614759828661469d565b9150614765828561469d565b915061477182846146ce565b9150819050949350505050565b7f455243313135353a2063616c6c6572206973206e6f74206f776e6572206e6f7260008201527f20617070726f7665640000000000000000000000000000000000000000000000602082015250565b60006147da60298361339a565b91506147e58261477e565b604082019050919050565b60006020820190508181036000830152614809816147cd565b9050919050565b7f4f776e61626c653a206e6577206f776e657220697320746865207a65726f206160008201527f6464726573730000000000000000000000000000000000000000000000000000602082015250565b600061486c60268361339a565b915061487782614810565b604082019050919050565b6000602082019050818103600083015261489b8161485f565b9050919050565b7f4d6178696d756d20557365727320616c72656164792077686974656c6973746560008201527f6400000000000000000000000000000000000000000000000000000000000000602082015250565b60006148fe60218361339a565b9150614909826148a2565b604082019050919050565b6000602082019050818103600083015261492d816148f1565b9050919050565b7f455243313135353a204e6f7420746865206f776e6572206f662074686973207460008201527f6f6b656e00000000000000000000000000000000000000000000000000000000602082015250565b600061499060248361339a565b915061499b82614934565b604082019050919050565b600060208201905081810360008301526149bf81614983565b9050919050565b7f455243313135353a204e6f7420656e6f756768207175616e7469747920746f2060008201527f6275726e00000000000000000000000000000000000000000000000000000000602082015250565b6000614a2260248361339a565b9150614a2d826149c6565b604082019050919050565b60006020820190508181036000830152614a5181614a15565b9050919050565b7f4f776e61626c653a2063616c6c6572206973206e6f7420746865206f776e6572600082015250565b6000614a8e60208361339a565b9150614a9982614a58565b602082019050919050565b60006020820190508181036000830152614abd81614a81565b9050919050565b7f455243313135353a2069647320616e6420616d6f756e7473206c656e6774682060008201527f6d69736d61746368000000000000000000000000000000000000000000000000602082015250565b6000614b2060288361339a565b9150614b2b82614ac4565b604082019050919050565b60006020820190508181036000830152614b4f81614b13565b9050919050565b7f455243313135353a207472616e7366657220746f20746865207a65726f20616460008201527f6472657373000000000000000000000000000000000000000000000000000000602082015250565b6000614bb260258361339a565b9150614bbd82614b56565b604082019050919050565b60006020820190508181036000830152614be181614ba5565b9050919050565b7f455243313135353a20696e73756666696369656e742062616c616e636520666f60008201527f72207472616e7366657200000000000000000000000000000000000000000000602082015250565b6000614c44602a8361339a565b9150614c4f82614be8565b604082019050919050565b60006020820190508181036000830152614c7381614c37565b9050919050565b6000614c8582613174565b9150614c9083613174565b9250827fffffffffffffffffffffffffffffffffffffffffffffffffffffffffffffffff03821115614cc557614cc461425d565b5b828201905092915050565b60006040820190508181036000830152614cea8185613687565b90508181036020830152614cfe8184613687565b90509392505050565b7f455243313135353a206d696e7420746f20746865207a65726f2061646472657360008201527f7300000000000000000000000000000000000000000000000000000000000000602082015250565b6000614d6360218361339a565b9150614d6e82614d07565b604082019050919050565b60006020820190508181036000830152614d9281614d56565b9050919050565b7f4e6f20526f79616c74792064657461696c732070726f76696465640000000000600082015250565b6000614dcf601b8361339a565b9150614dda82614d99565b602082019050919050565b60006020820190508181036000830152614dfe81614dc2565b9050919050565b7f546f6f206d616e7920726f79616c74792072656369657665727320646574616960008201527f6c73000000000000000000000000000000000000000000000000000000000000602082015250565b6000614e6160228361339a565b9150614e6c82614e05565b604082019050919050565b60006020820190508181036000830152614e9081614e54565b9050919050565b7f4d69736d61746368206f6620526f79616c74792072656369657665727320616e60008201527f6420746865697220666565730000000000000000000000000000000000000000602082015250565b6000614ef3602c8361339a565b9150614efe82614e97565b604082019050919050565b60006020820190508181036000830152614f2281614ee6565b9050919050565b7f455243323938313a20726f79616c7479206665652077696c6c2065786365656460008201527f2073616c65507269636500000000000000000000000000000000000000000000602082015250565b6000614f85602a8361339a565b9150614f9082614f29565b604082019050919050565b60006020820190508181036000830152614fb481614f78565b9050919050565b7f455243313135353a2073657474696e6720617070726f76616c2073746174757360008201527f20666f722073656c660000000000000000000000000000000000000000000000602082015250565b600061501760298361339a565b915061502282614fbb565b604082019050919050565b600060208201905081810360008301526150468161500a565b9050919050565b600061505882613174565b915061506383613174565b9250828210156150765761507561425d565b5b828203905092915050565b600061508c82613174565b915061509783613174565b9250826150a7576150a6614359565b5b828206905092915050565b7f455243313135353a206275726e2066726f6d20746865207a65726f206164647260008201527f6573730000000000000000000000000000000000000000000000000000000000602082015250565b600061510e60238361339a565b9150615119826150b2565b604082019050919050565b6000602082019050818103600083015261513d81615101565b9050919050565b7f455243313135353a206275726e20616d6f756e7420657863656564732062616c60008201527f616e636500000000000000000000000000000000000000000000000000000000602082015250565b60006151a060248361339a565b91506151ab82615144565b604082019050919050565b600060208201905081810360008301526151cf81615193565b9050919050565b600081519050919050565b600082825260208201905092915050565b60006151fd826151d6565b61520781856151e1565b93506152178185602086016133ab565b615220816133de565b840191505092915050565b600060a08201905061524060008301886139de565b61524d60208301876139de565b818103604083015261525f8186613687565b905081810360608301526152738185613687565b9050818103608083015261528781846151f2565b90509695505050505050565b6000815190506152a281613240565b92915050565b6000602082840312156152be576152bd61310c565b5b60006152cc84828501615293565b91505092915050565b60008160e01c9050919050565b600060033d11156153015760046000803e6152fe6000516152d5565b90505b90565b600060443d101561531457615397565b61531c613102565b60043d036004823e80513d602482011167ffffffffffffffff82111715615344575050615397565b808201805167ffffffffffffffff8111156153625750505050615397565b80602083010160043d03850181111561537f575050505050615397565b61538e8260200185018661374b565b82955050505050505b90565b7f455243313135353a207472616e7366657220746f206e6f6e204552433131353560008201527f526563656976657220696d706c656d656e746572000000000000000000000000602082015250565b60006153f660348361339a565b91506154018261539a565b604082019050919050565b60006020820190508181036000830152615425816153e9565b9050919050565b7f455243313135353a204552433131353552656365697665722072656a6563746560008201527f6420746f6b656e73000000000000000000000000000000000000000000000000602082015250565b600061548860288361339a565b91506154938261542c565b604082019050919050565b600060208201905081810360008301526154b78161547b565b9050919050565b600060a0820190506154d360008301886139de565b6154e060208301876139de565b6154ed60408301866131ea565b6154fa60608301856131ea565b818103608083015261550c81846151f2565b9050969550505050505056fea2646970667358221220552fe402862e20396c7372d0e9a3434262602cd87bd193a3f901903fa4ba24e364736f6c63430008090033",
  "linkReferences": {},
  "deployedLinkReferences": {}
}