{
  "_format": "hh-sol-artifact-1",
  "contractName": "ERC1155",
  "sourceName": "contracts/ERC1155.sol",
  "abi": [
    {
      "inputs": [
        {
          "internalType": "string",
          "name": "name_",
          "type": "string"
        },
        {
          "internalType": "string",
          "name": "symbol_",
          "type": "string"
        }
      ],
      "stateMutability": "nonpayable",
      "type": "constructor"
    },
    {
      "anonymous": false,
      "inputs": [
        {
          "indexed": true,
          "internalType": "address",
          "name": "account",
          "type": "address"
        },
        {
          "indexed": true,
          "internalType": "address",
          "name": "operator",
          "type": "address"
        },
        {
          "indexed": false,
          "internalType": "bool",
          "name": "approved",
          "type": "bool"
        }
      ],
      "name": "ApprovalForAll",
      "type": "event"
    },
    {
      "anonymous": false,
      "inputs": [
        {
          "indexed": true,
          "internalType": "address",
          "name": "operator",
          "type": "address"
        },
        {
          "indexed": true,
          "internalType": "address",
          "name": "from",
          "type": "address"
        },
        {
          "indexed": true,
          "internalType": "address",
          "name": "to",
          "type": "address"
        },
        {
          "indexed": false,
          "internalType": "uint256[]",
          "name": "ids",
          "type": "uint256[]"
        },
        {
          "indexed": false,
          "internalType": "uint256[]",
          "name": "values",
          "type": "uint256[]"
        }
      ],
      "name": "TransferBatch",
      "type": "event"
    },
    {
      "anonymous": false,
      "inputs": [
        {
          "indexed": true,
          "internalType": "address",
          "name": "operator",
          "type": "address"
        },
        {
          "indexed": true,
          "internalType": "address",
          "name": "from",
          "type": "address"
        },
        {
          "indexed": true,
          "internalType": "address",
          "name": "to",
          "type": "address"
        },
        {
          "indexed": false,
          "internalType": "uint256",
          "name": "id",
          "type": "uint256"
        },
        {
          "indexed": false,
          "internalType": "uint256",
          "name": "value",
          "type": "uint256"
        }
      ],
      "name": "TransferSingle",
      "type": "event"
    },
    {
      "anonymous": false,
      "inputs": [
        {
          "indexed": false,
          "internalType": "string",
          "name": "value",
          "type": "string"
        },
        {
          "indexed": true,
          "internalType": "uint256",
          "name": "id",
          "type": "uint256"
        }
      ],
      "name": "URI",
      "type": "event"
    },
    {
      "inputs": [
        {
          "internalType": "address",
          "name": "account",
          "type": "address"
        },
        {
          "internalType": "uint256",
          "name": "id",
          "type": "uint256"
        }
      ],
      "name": "balanceOf",
      "outputs": [
        {
          "internalType": "uint256",
          "name": "",
          "type": "uint256"
        }
      ],
      "stateMutability": "view",
      "type": "function"
    },
    {
      "inputs": [
        {
          "internalType": "address[]",
          "name": "accounts",
          "type": "address[]"
        },
        {
          "internalType": "uint256[]",
          "name": "ids",
          "type": "uint256[]"
        }
      ],
      "name": "balanceOfBatch",
      "outputs": [
        {
          "internalType": "uint256[]",
          "name": "",
          "type": "uint256[]"
        }
      ],
      "stateMutability": "view",
      "type": "function"
    },
    {
      "inputs": [
        {
          "internalType": "address",
          "name": "account",
          "type": "address"
        },
        {
          "internalType": "address",
          "name": "operator",
          "type": "address"
        }
      ],
      "name": "isApprovedForAll",
      "outputs": [
        {
          "internalType": "bool",
          "name": "",
          "type": "bool"
        }
      ],
      "stateMutability": "view",
      "type": "function"
    },
    {
      "inputs": [],
      "name": "name",
      "outputs": [
        {
          "internalType": "string",
          "name": "",
          "type": "string"
        }
      ],
      "stateMutability": "view",
      "type": "function"
    },
    {
      "inputs": [
        {
          "internalType": "address",
          "name": "from",
          "type": "address"
        },
        {
          "internalType": "address",
          "name": "to",
          "type": "address"
        },
        {
          "internalType": "uint256[]",
          "name": "ids",
          "type": "uint256[]"
        },
        {
          "internalType": "uint256[]",
          "name": "amounts",
          "type": "uint256[]"
        },
        {
          "internalType": "bytes",
          "name": "data",
          "type": "bytes"
        }
      ],
      "name": "safeBatchTransferFrom",
      "outputs": [],
      "stateMutability": "nonpayable",
      "type": "function"
    },
    {
      "inputs": [
        {
          "internalType": "address",
          "name": "from",
          "type": "address"
        },
        {
          "internalType": "address",
          "name": "to",
          "type": "address"
        },
        {
          "internalType": "uint256",
          "name": "id",
          "type": "uint256"
        },
        {
          "internalType": "uint256",
          "name": "amount",
          "type": "uint256"
        },
        {
          "internalType": "bytes",
          "name": "data",
          "type": "bytes"
        }
      ],
      "name": "safeTransferFrom",
      "outputs": [],
      "stateMutability": "nonpayable",
      "type": "function"
    },
    {
      "inputs": [
        {
          "internalType": "address",
          "name": "operator",
          "type": "address"
        },
        {
          "internalType": "bool",
          "name": "approved",
          "type": "bool"
        }
      ],
      "name": "setApprovalForAll",
      "outputs": [],
      "stateMutability": "nonpayable",
      "type": "function"
    },
    {
      "inputs": [
        {
          "internalType": "bytes4",
          "name": "interfaceId",
          "type": "bytes4"
        }
      ],
      "name": "supportsInterface",
      "outputs": [
        {
          "internalType": "bool",
          "name": "",
          "type": "bool"
        }
      ],
      "stateMutability": "view",
      "type": "function"
    },
    {
      "inputs": [],
      "name": "symbol",
      "outputs": [
        {
          "internalType": "string",
          "name": "",
          "type": "string"
        }
      ],
      "stateMutability": "view",
      "type": "function"
    },
    {
      "inputs": [
        {
          "internalType": "uint256",
          "name": "",
          "type": "uint256"
        }
      ],
      "name": "uri",
      "outputs": [
        {
          "internalType": "string",
          "name": "",
          "type": "string"
        }
      ],
      "stateMutability": "view",
      "type": "function"
    }
  ],
  "bytecode": "0x60806040523480156200001157600080fd5b5060405162002add38038062002add8339818101604052810190620000379190620002be565b81600090805190602001906200004f92919062000071565b5080600190805190602001906200006892919062000071565b505050620003a8565b8280546200007f9062000372565b90600052602060002090601f016020900481019282620000a35760008555620000ef565b82601f10620000be57805160ff1916838001178555620000ef565b82800160010185558215620000ef579182015b82811115620000ee578251825591602001919060010190620000d1565b5b509050620000fe919062000102565b5090565b5b808211156200011d57600081600090555060010162000103565b5090565b6000604051905090565b600080fd5b600080fd5b600080fd5b600080fd5b6000601f19601f8301169050919050565b7f4e487b7100000000000000000000000000000000000000000000000000000000600052604160045260246000fd5b6200018a826200013f565b810181811067ffffffffffffffff82111715620001ac57620001ab62000150565b5b80604052505050565b6000620001c162000121565b9050620001cf82826200017f565b919050565b600067ffffffffffffffff821115620001f257620001f162000150565b5b620001fd826200013f565b9050602081019050919050565b60005b838110156200022a5780820151818401526020810190506200020d565b838111156200023a576000848401525b50505050565b6000620002576200025184620001d4565b620001b5565b9050828152602081018484840111156200027657620002756200013a565b5b620002838482856200020a565b509392505050565b600082601f830112620002a357620002a262000135565b5b8151620002b584826020860162000240565b91505092915050565b60008060408385031215620002d857620002d76200012b565b5b600083015167ffffffffffffffff811115620002f957620002f862000130565b5b62000307858286016200028b565b925050602083015167ffffffffffffffff8111156200032b576200032a62000130565b5b62000339858286016200028b565b9150509250929050565b7f4e487b7100000000000000000000000000000000000000000000000000000000600052602260045260246000fd5b600060028204905060018216806200038b57607f821691505b60208210811415620003a257620003a162000343565b5b50919050565b61272580620003b86000396000f3fe608060405234801561001057600080fd5b506004361061009d5760003560e01c80634e1273f4116100665780634e1273f41461016c57806395d89b411461019c578063a22cb465146101ba578063e985e9c5146101d6578063f242432a146102065761009d565b8062fdd58e146100a257806301ffc9a7146100d257806306fdde03146101025780630e89341c146101205780632eb2c2d614610150575b600080fd5b6100bc60048036038101906100b79190611519565b610222565b6040516100c99190611568565b60405180910390f35b6100ec60048036038101906100e791906115db565b6102ec565b6040516100f99190611623565b60405180910390f35b61010a6103ce565b60405161011791906116d7565b60405180910390f35b61013a600480360381019061013591906116f9565b61045c565b60405161014791906116d7565b60405180910390f35b61016a60048036038101906101659190611923565b6104f0565b005b61018660048036038101906101819190611ab5565b610591565b6040516101939190611beb565b60405180910390f35b6101a46106aa565b6040516101b191906116d7565b60405180910390f35b6101d460048036038101906101cf9190611c39565b610738565b005b6101f060048036038101906101eb9190611c79565b61074e565b6040516101fd9190611623565b60405180910390f35b610220600480360381019061021b9190611cb9565b6107e2565b005b60008073ffffffffffffffffffffffffffffffffffffffff168373ffffffffffffffffffffffffffffffffffffffff161415610293576040517f08c379a000000000000000000000000000000000000000000000000000000000815260040161028a90611dc2565b60405180910390fd5b6002600083815260200190815260200160002060008473ffffffffffffffffffffffffffffffffffffffff1673ffffffffffffffffffffffffffffffffffffffff16815260200190815260200160002054905092915050565b60007fd9b67a26000000000000000000000000000000000000000000000000000000007bffffffffffffffffffffffffffffffffffffffffffffffffffffffff1916827bffffffffffffffffffffffffffffffffffffffffffffffffffffffff191614806103b757507f0e89341c000000000000000000000000000000000000000000000000000000007bffffffffffffffffffffffffffffffffffffffffffffffffffffffff1916827bffffffffffffffffffffffffffffffffffffffffffffffffffffffff1916145b806103c757506103c682610883565b5b9050919050565b600080546103db90611e11565b80601f016020809104026020016040519081016040528092919081815260200182805461040790611e11565b80156104545780601f1061042957610100808354040283529160200191610454565b820191906000526020600020905b81548152906001019060200180831161043757829003601f168201915b505050505081565b60606004805461046b90611e11565b80601f016020809104026020016040519081016040528092919081815260200182805461049790611e11565b80156104e45780601f106104b9576101008083540402835291602001916104e4565b820191906000526020600020905b8154815290600101906020018083116104c757829003601f168201915b50505050509050919050565b6104f86108ed565b73ffffffffffffffffffffffffffffffffffffffff168573ffffffffffffffffffffffffffffffffffffffff16148061053e575061053d856105386108ed565b61074e565b5b61057d576040517f08c379a000000000000000000000000000000000000000000000000000000000815260040161057490611eb5565b60405180910390fd5b61058a85858585856108f5565b5050505050565b606081518351146105d7576040517f08c379a00000000000000000000000000000000000000000000000000000000081526004016105ce90611f47565b60405180910390fd5b6000835167ffffffffffffffff8111156105f4576105f361172b565b5b6040519080825280602002602001820160405280156106225781602001602082028036833780820191505090505b50905060005b845181101561069f5761066f85828151811061064757610646611f67565b5b602002602001015185838151811061066257610661611f67565b5b6020026020010151610222565b82828151811061068257610681611f67565b5b6020026020010181815250508061069890611fc5565b9050610628565b508091505092915050565b600180546106b790611e11565b80601f01602080910402602001604051908101604052809291908181526020018280546106e390611e11565b80156107305780601f1061070557610100808354040283529160200191610730565b820191906000526020600020905b81548152906001019060200180831161071357829003601f168201915b505050505081565b61074a6107436108ed565b8383610c0c565b5050565b6000600360008473ffffffffffffffffffffffffffffffffffffffff1673ffffffffffffffffffffffffffffffffffffffff16815260200190815260200160002060008373ffffffffffffffffffffffffffffffffffffffff1673ffffffffffffffffffffffffffffffffffffffff16815260200190815260200160002060009054906101000a900460ff16905092915050565b6107ea6108ed565b73ffffffffffffffffffffffffffffffffffffffff168573ffffffffffffffffffffffffffffffffffffffff161480610830575061082f8561082a6108ed565b61074e565b5b61086f576040517f08c379a000000000000000000000000000000000000000000000000000000000815260040161086690612080565b60405180910390fd5b61087c8585858585610d79565b5050505050565b60007f01ffc9a7000000000000000000000000000000000000000000000000000000007bffffffffffffffffffffffffffffffffffffffffffffffffffffffff1916827bffffffffffffffffffffffffffffffffffffffffffffffffffffffff1916149050919050565b600033905090565b8151835114610939576040517f08c379a000000000000000000000000000000000000000000000000000000000815260040161093090612112565b60405180910390fd5b600073ffffffffffffffffffffffffffffffffffffffff168473ffffffffffffffffffffffffffffffffffffffff1614156109a9576040517f08c379a00000000000000000000000000000000000000000000000000000000081526004016109a0906121a4565b60405180910390fd5b60006109b36108ed565b90506109c3818787878787610ffe565b60005b8451811015610b775760008582815181106109e4576109e3611f67565b5b602002602001015190506000858381518110610a0357610a02611f67565b5b6020026020010151905060006002600084815260200190815260200160002060008b73ffffffffffffffffffffffffffffffffffffffff1673ffffffffffffffffffffffffffffffffffffffff16815260200190815260200160002054905081811015610aa5576040517f08c379a0000000000000000000000000000000000000000000000000000000008152600401610a9c90612236565b60405180910390fd5b8181036002600085815260200190815260200160002060008c73ffffffffffffffffffffffffffffffffffffffff1673ffffffffffffffffffffffffffffffffffffffff16815260200190815260200160002081905550816002600085815260200190815260200160002060008b73ffffffffffffffffffffffffffffffffffffffff1673ffffffffffffffffffffffffffffffffffffffff1681526020019081526020016000206000828254610b5c9190612256565b9250508190555050505080610b7090611fc5565b90506109c6565b508473ffffffffffffffffffffffffffffffffffffffff168673ffffffffffffffffffffffffffffffffffffffff168273ffffffffffffffffffffffffffffffffffffffff167f4a39dc06d4c0dbc64b70af90fd698a233a518aa5d07e595d983b8c0526c8f7fb8787604051610bee9291906122ac565b60405180910390a4610c04818787878787611006565b505050505050565b8173ffffffffffffffffffffffffffffffffffffffff168373ffffffffffffffffffffffffffffffffffffffff161415610c7b576040517f08c379a0000000000000000000000000000000000000000000000000000000008152600401610c7290612355565b60405180910390fd5b80600360008573ffffffffffffffffffffffffffffffffffffffff1673ffffffffffffffffffffffffffffffffffffffff16815260200190815260200160002060008473ffffffffffffffffffffffffffffffffffffffff1673ffffffffffffffffffffffffffffffffffffffff16815260200190815260200160002060006101000a81548160ff0219169083151502179055508173ffffffffffffffffffffffffffffffffffffffff168373ffffffffffffffffffffffffffffffffffffffff167f17307eab39ab6107e8899845ad3d59bd9653f200f220920489ca2b5937696c3183604051610d6c9190611623565b60405180910390a3505050565b600073ffffffffffffffffffffffffffffffffffffffff168473ffffffffffffffffffffffffffffffffffffffff161415610de9576040517f08c379a0000000000000000000000000000000000000000000000000000000008152600401610de0906121a4565b60405180910390fd5b6000610df36108ed565b9050610e13818787610e04886111ed565b610e0d886111ed565b87610ffe565b60006002600086815260200190815260200160002060008873ffffffffffffffffffffffffffffffffffffffff1673ffffffffffffffffffffffffffffffffffffffff16815260200190815260200160002054905083811015610eab576040517f08c379a0000000000000000000000000000000000000000000000000000000008152600401610ea290612236565b60405180910390fd5b8381036002600087815260200190815260200160002060008973ffffffffffffffffffffffffffffffffffffffff1673ffffffffffffffffffffffffffffffffffffffff16815260200190815260200160002081905550836002600087815260200190815260200160002060008873ffffffffffffffffffffffffffffffffffffffff1673ffffffffffffffffffffffffffffffffffffffff1681526020019081526020016000206000828254610f629190612256565b925050819055508573ffffffffffffffffffffffffffffffffffffffff168773ffffffffffffffffffffffffffffffffffffffff168373ffffffffffffffffffffffffffffffffffffffff167fc3d58168c5ae7397731d063d5bbf3d657854427343f4c083240f7aacaa2d0f628888604051610fdf929190612375565b60405180910390a4610ff5828888888888611267565b50505050505050565b505050505050565b6110258473ffffffffffffffffffffffffffffffffffffffff1661144e565b156111e5578373ffffffffffffffffffffffffffffffffffffffff1663bc197c8187878686866040518663ffffffff1660e01b815260040161106b959493929190612402565b602060405180830381600087803b15801561108557600080fd5b505af19250505080156110b657506040513d601f19601f820116820180604052508101906110b3919061247f565b60015b61115c576110c26124b9565b806308c379a0141561111f57506110d76124db565b806110e25750611121565b806040517f08c379a000000000000000000000000000000000000000000000000000000000815260040161111691906116d7565b60405180910390fd5b505b6040517f08c379a0000000000000000000000000000000000000000000000000000000008152600401611153906125e3565b60405180910390fd5b63bc197c8160e01b7bffffffffffffffffffffffffffffffffffffffffffffffffffffffff1916817bffffffffffffffffffffffffffffffffffffffffffffffffffffffff1916146111e3576040517f08c379a00000000000000000000000000000000000000000000000000000000081526004016111da90612675565b60405180910390fd5b505b505050505050565b60606000600167ffffffffffffffff81111561120c5761120b61172b565b5b60405190808252806020026020018201604052801561123a5781602001602082028036833780820191505090505b509050828160008151811061125257611251611f67565b5b60200260200101818152505080915050919050565b6112868473ffffffffffffffffffffffffffffffffffffffff1661144e565b15611446578373ffffffffffffffffffffffffffffffffffffffff1663f23a6e6187878686866040518663ffffffff1660e01b81526004016112cc959493929190612695565b602060405180830381600087803b1580156112e657600080fd5b505af192505050801561131757506040513d601f19601f82011682018060405250810190611314919061247f565b60015b6113bd576113236124b9565b806308c379a0141561138057506113386124db565b806113435750611382565b806040517f08c379a000000000000000000000000000000000000000000000000000000000815260040161137791906116d7565b60405180910390fd5b505b6040517f08c379a00000000000000000000000000000000000000000000000000000000081526004016113b4906125e3565b60405180910390fd5b63f23a6e6160e01b7bffffffffffffffffffffffffffffffffffffffffffffffffffffffff1916817bffffffffffffffffffffffffffffffffffffffffffffffffffffffff191614611444576040517f08c379a000000000000000000000000000000000000000000000000000000000815260040161143b90612675565b60405180910390fd5b505b505050505050565b6000808273ffffffffffffffffffffffffffffffffffffffff163b119050919050565b6000604051905090565b600080fd5b600080fd5b600073ffffffffffffffffffffffffffffffffffffffff82169050919050565b60006114b082611485565b9050919050565b6114c0816114a5565b81146114cb57600080fd5b50565b6000813590506114dd816114b7565b92915050565b6000819050919050565b6114f6816114e3565b811461150157600080fd5b50565b600081359050611513816114ed565b92915050565b600080604083850312156115305761152f61147b565b5b600061153e858286016114ce565b925050602061154f85828601611504565b9150509250929050565b611562816114e3565b82525050565b600060208201905061157d6000830184611559565b92915050565b60007fffffffff0000000000000000000000000000000000000000000000000000000082169050919050565b6115b881611583565b81146115c357600080fd5b50565b6000813590506115d5816115af565b92915050565b6000602082840312156115f1576115f061147b565b5b60006115ff848285016115c6565b91505092915050565b60008115159050919050565b61161d81611608565b82525050565b60006020820190506116386000830184611614565b92915050565b600081519050919050565b600082825260208201905092915050565b60005b8381101561167857808201518184015260208101905061165d565b83811115611687576000848401525b50505050565b6000601f19601f8301169050919050565b60006116a98261163e565b6116b38185611649565b93506116c381856020860161165a565b6116cc8161168d565b840191505092915050565b600060208201905081810360008301526116f1818461169e565b905092915050565b60006020828403121561170f5761170e61147b565b5b600061171d84828501611504565b91505092915050565b600080fd5b7f4e487b7100000000000000000000000000000000000000000000000000000000600052604160045260246000fd5b6117638261168d565b810181811067ffffffffffffffff821117156117825761178161172b565b5b80604052505050565b6000611795611471565b90506117a1828261175a565b919050565b600067ffffffffffffffff8211156117c1576117c061172b565b5b602082029050602081019050919050565b600080fd5b60006117ea6117e5846117a6565b61178b565b9050808382526020820190506020840283018581111561180d5761180c6117d2565b5b835b8181101561183657806118228882611504565b84526020840193505060208101905061180f565b5050509392505050565b600082601f83011261185557611854611726565b5b81356118658482602086016117d7565b91505092915050565b600080fd5b600067ffffffffffffffff82111561188e5761188d61172b565b5b6118978261168d565b9050602081019050919050565b82818337600083830152505050565b60006118c66118c184611873565b61178b565b9050828152602081018484840111156118e2576118e161186e565b5b6118ed8482856118a4565b509392505050565b600082601f83011261190a57611909611726565b5b813561191a8482602086016118b3565b91505092915050565b600080600080600060a0868803121561193f5761193e61147b565b5b600061194d888289016114ce565b955050602061195e888289016114ce565b945050604086013567ffffffffffffffff81111561197f5761197e611480565b5b61198b88828901611840565b935050606086013567ffffffffffffffff8111156119ac576119ab611480565b5b6119b888828901611840565b925050608086013567ffffffffffffffff8111156119d9576119d8611480565b5b6119e5888289016118f5565b9150509295509295909350565b600067ffffffffffffffff821115611a0d57611a0c61172b565b5b602082029050602081019050919050565b6000611a31611a2c846119f2565b61178b565b90508083825260208201905060208402830185811115611a5457611a536117d2565b5b835b81811015611a7d5780611a6988826114ce565b845260208401935050602081019050611a56565b5050509392505050565b600082601f830112611a9c57611a9b611726565b5b8135611aac848260208601611a1e565b91505092915050565b60008060408385031215611acc57611acb61147b565b5b600083013567ffffffffffffffff811115611aea57611ae9611480565b5b611af685828601611a87565b925050602083013567ffffffffffffffff811115611b1757611b16611480565b5b611b2385828601611840565b9150509250929050565b600081519050919050565b600082825260208201905092915050565b6000819050602082019050919050565b611b62816114e3565b82525050565b6000611b748383611b59565b60208301905092915050565b6000602082019050919050565b6000611b9882611b2d565b611ba28185611b38565b9350611bad83611b49565b8060005b83811015611bde578151611bc58882611b68565b9750611bd083611b80565b925050600181019050611bb1565b5085935050505092915050565b60006020820190508181036000830152611c058184611b8d565b905092915050565b611c1681611608565b8114611c2157600080fd5b50565b600081359050611c3381611c0d565b92915050565b60008060408385031215611c5057611c4f61147b565b5b6000611c5e858286016114ce565b9250506020611c6f85828601611c24565b9150509250929050565b60008060408385031215611c9057611c8f61147b565b5b6000611c9e858286016114ce565b9250506020611caf858286016114ce565b9150509250929050565b600080600080600060a08688031215611cd557611cd461147b565b5b6000611ce3888289016114ce565b9550506020611cf4888289016114ce565b9450506040611d0588828901611504565b9350506060611d1688828901611504565b925050608086013567ffffffffffffffff811115611d3757611d36611480565b5b611d43888289016118f5565b9150509295509295909350565b7f455243313135353a2062616c616e636520717565727920666f7220746865207a60008201527f65726f2061646472657373000000000000000000000000000000000000000000602082015250565b6000611dac602b83611649565b9150611db782611d50565b604082019050919050565b60006020820190508181036000830152611ddb81611d9f565b9050919050565b7f4e487b7100000000000000000000000000000000000000000000000000000000600052602260045260246000fd5b60006002820490506001821680611e2957607f821691505b60208210811415611e3d57611e3c611de2565b5b50919050565b7f455243313135353a207472616e736665722063616c6c6572206973206e6f742060008201527f6f776e6572206e6f7220617070726f7665640000000000000000000000000000602082015250565b6000611e9f603283611649565b9150611eaa82611e43565b604082019050919050565b60006020820190508181036000830152611ece81611e92565b9050919050565b7f455243313135353a206163636f756e747320616e6420696473206c656e67746860008201527f206d69736d617463680000000000000000000000000000000000000000000000602082015250565b6000611f31602983611649565b9150611f3c82611ed5565b604082019050919050565b60006020820190508181036000830152611f6081611f24565b9050919050565b7f4e487b7100000000000000000000000000000000000000000000000000000000600052603260045260246000fd5b7f4e487b7100000000000000000000000000000000000000000000000000000000600052601160045260246000fd5b6000611fd0826114e3565b91507fffffffffffffffffffffffffffffffffffffffffffffffffffffffffffffffff82141561200357612002611f96565b5b600182019050919050565b7f455243313135353a2063616c6c6572206973206e6f74206f776e6572206e6f7260008201527f20617070726f7665640000000000000000000000000000000000000000000000602082015250565b600061206a602983611649565b91506120758261200e565b604082019050919050565b600060208201905081810360008301526120998161205d565b9050919050565b7f455243313135353a2069647320616e6420616d6f756e7473206c656e6774682060008201527f6d69736d61746368000000000000000000000000000000000000000000000000602082015250565b60006120fc602883611649565b9150612107826120a0565b604082019050919050565b6000602082019050818103600083015261212b816120ef565b9050919050565b7f455243313135353a207472616e7366657220746f20746865207a65726f20616460008201527f6472657373000000000000000000000000000000000000000000000000000000602082015250565b600061218e602583611649565b915061219982612132565b604082019050919050565b600060208201905081810360008301526121bd81612181565b9050919050565b7f455243313135353a20696e73756666696369656e742062616c616e636520666f60008201527f72207472616e7366657200000000000000000000000000000000000000000000602082015250565b6000612220602a83611649565b915061222b826121c4565b604082019050919050565b6000602082019050818103600083015261224f81612213565b9050919050565b6000612261826114e3565b915061226c836114e3565b9250827fffffffffffffffffffffffffffffffffffffffffffffffffffffffffffffffff038211156122a1576122a0611f96565b5b828201905092915050565b600060408201905081810360008301526122c68185611b8d565b905081810360208301526122da8184611b8d565b90509392505050565b7f455243313135353a2073657474696e6720617070726f76616c2073746174757360008201527f20666f722073656c660000000000000000000000000000000000000000000000602082015250565b600061233f602983611649565b915061234a826122e3565b604082019050919050565b6000602082019050818103600083015261236e81612332565b9050919050565b600060408201905061238a6000830185611559565b6123976020830184611559565b9392505050565b6123a7816114a5565b82525050565b600081519050919050565b600082825260208201905092915050565b60006123d4826123ad565b6123de81856123b8565b93506123ee81856020860161165a565b6123f78161168d565b840191505092915050565b600060a082019050612417600083018861239e565b612424602083018761239e565b81810360408301526124368186611b8d565b9050818103606083015261244a8185611b8d565b9050818103608083015261245e81846123c9565b90509695505050505050565b600081519050612479816115af565b92915050565b6000602082840312156124955761249461147b565b5b60006124a38482850161246a565b91505092915050565b60008160e01c9050919050565b600060033d11156124d85760046000803e6124d56000516124ac565b90505b90565b600060443d10156124eb5761256e565b6124f3611471565b60043d036004823e80513d602482011167ffffffffffffffff8211171561251b57505061256e565b808201805167ffffffffffffffff811115612539575050505061256e565b80602083010160043d03850181111561255657505050505061256e565b6125658260200185018661175a565b82955050505050505b90565b7f455243313135353a207472616e7366657220746f206e6f6e204552433131353560008201527f526563656976657220696d706c656d656e746572000000000000000000000000602082015250565b60006125cd603483611649565b91506125d882612571565b604082019050919050565b600060208201905081810360008301526125fc816125c0565b9050919050565b7f455243313135353a204552433131353552656365697665722072656a6563746560008201527f6420746f6b656e73000000000000000000000000000000000000000000000000602082015250565b600061265f602883611649565b915061266a82612603565b604082019050919050565b6000602082019050818103600083015261268e81612652565b9050919050565b600060a0820190506126aa600083018861239e565b6126b7602083018761239e565b6126c46040830186611559565b6126d16060830185611559565b81810360808301526126e381846123c9565b9050969550505050505056fea26469706673582212204a69dfa9663e7a5478c514dda6af13e28a973d7d4100fe6e906ac51c635882cd64736f6c63430008090033",
  "linkReferences": {},
  "deployedLinkReferences": {}
}