{
  "_format": "hh-sol-artifact-1",
  "contractName": "ERC721FactoryFacet",
  "sourceName": "contracts/facets/ERC721Factory/ERC721FactoryFacet.sol",
  "abi": [
    {
      "anonymous": false,
      "inputs": [
        {
          "indexed": true,
          "internalType": "address",
          "name": "owner",
          "type": "address"
        },
        {
          "indexed": true,
          "internalType": "address",
          "name": "approved",
          "type": "address"
        },
        {
          "indexed": true,
          "internalType": "uint256",
          "name": "tokenId",
          "type": "uint256"
        }
      ],
      "name": "Approval",
      "type": "event"
    },
    {
      "anonymous": false,
      "inputs": [
        {
          "indexed": true,
          "internalType": "address",
          "name": "owner",
          "type": "address"
        },
        {
          "indexed": true,
          "internalType": "address",
          "name": "operator",
          "type": "address"
        },
        {
          "indexed": false,
          "internalType": "bool",
          "name": "approved",
          "type": "bool"
        }
      ],
      "name": "ApprovalForAll",
      "type": "event"
    },
    {
      "anonymous": false,
      "inputs": [
        {
          "indexed": true,
          "internalType": "address",
          "name": "from",
          "type": "address"
        },
        {
          "indexed": true,
          "internalType": "address",
          "name": "to",
          "type": "address"
        },
        {
          "indexed": true,
          "internalType": "uint256",
          "name": "tokenId",
          "type": "uint256"
        }
      ],
      "name": "Transfer",
      "type": "event"
    },
    {
      "inputs": [
        {
          "internalType": "uint256",
          "name": "tokenId",
          "type": "uint256"
        }
      ],
      "name": "_tokenExists",
      "outputs": [
        {
          "internalType": "bool",
          "name": "",
          "type": "bool"
        }
      ],
      "stateMutability": "view",
      "type": "function"
    },
    {
      "inputs": [
        {
          "internalType": "address",
          "name": "to",
          "type": "address"
        },
        {
          "internalType": "uint256",
          "name": "tokenId",
          "type": "uint256"
        }
      ],
      "name": "approve",
      "outputs": [],
      "stateMutability": "nonpayable",
      "type": "function"
    },
    {
      "inputs": [
        {
          "internalType": "address",
          "name": "owner",
          "type": "address"
        }
      ],
      "name": "balanceOf",
      "outputs": [
        {
          "internalType": "uint256",
          "name": "",
          "type": "uint256"
        }
      ],
      "stateMutability": "view",
      "type": "function"
    },
    {
      "inputs": [
        {
          "internalType": "uint256",
          "name": "tokenId",
          "type": "uint256"
        }
      ],
      "name": "burn",
      "outputs": [],
      "stateMutability": "nonpayable",
      "type": "function"
    },
    {
      "inputs": [
        {
          "internalType": "string",
          "name": "name_",
          "type": "string"
        },
        {
          "internalType": "string",
          "name": "symbol_",
          "type": "string"
        }
      ],
      "name": "erc721FactoryFacetInit",
      "outputs": [],
      "stateMutability": "nonpayable",
      "type": "function"
    },
    {
      "inputs": [
        {
          "internalType": "uint256",
          "name": "tokenId",
          "type": "uint256"
        }
      ],
      "name": "getApproved",
      "outputs": [
        {
          "internalType": "address",
          "name": "",
          "type": "address"
        }
      ],
      "stateMutability": "view",
      "type": "function"
    },
    {
      "inputs": [
        {
          "internalType": "uint256",
          "name": "tokenId",
          "type": "uint256"
        },
        {
          "internalType": "address",
          "name": "creator",
          "type": "address"
        },
        {
          "internalType": "string",
          "name": "_tokenURI",
          "type": "string"
        },
        {
          "internalType": "bool",
          "name": "tokenRoyalty",
          "type": "bool"
        },
        {
          "internalType": "address[]",
          "name": "royaltyReceiver",
          "type": "address[]"
        },
        {
          "internalType": "uint96[]",
          "name": "tokenRoyaltyInBips",
          "type": "uint96[]"
        }
      ],
      "name": "mint",
      "outputs": [],
      "stateMutability": "nonpayable",
      "type": "function"
    },
    {
      "inputs": [],
      "name": "name",
      "outputs": [
        {
          "internalType": "string",
          "name": "",
          "type": "string"
        }
      ],
      "stateMutability": "view",
      "type": "function"
    },
    {
      "inputs": [
        {
          "internalType": "uint256",
          "name": "tokenId",
          "type": "uint256"
        }
      ],
      "name": "ownerOf",
      "outputs": [
        {
          "internalType": "address",
          "name": "",
          "type": "address"
        }
      ],
      "stateMutability": "view",
      "type": "function"
    },
    {
      "inputs": [
        {
          "internalType": "uint256",
          "name": "_tokenID",
          "type": "uint256"
        },
        {
          "internalType": "uint256",
          "name": "_salePrice",
          "type": "uint256"
        }
      ],
      "name": "royaltyInfo721",
      "outputs": [
        {
          "internalType": "address[]",
          "name": "",
          "type": "address[]"
        },
        {
          "internalType": "uint256[]",
          "name": "",
          "type": "uint256[]"
        }
      ],
      "stateMutability": "view",
      "type": "function"
    },
    {
      "inputs": [
        {
          "internalType": "address",
          "name": "from",
          "type": "address"
        },
        {
          "internalType": "address",
          "name": "to",
          "type": "address"
        },
        {
          "internalType": "uint256",
          "name": "tokenId",
          "type": "uint256"
        }
      ],
      "name": "safeTransferFrom",
      "outputs": [],
      "stateMutability": "nonpayable",
      "type": "function"
    },
    {
      "inputs": [
        {
          "internalType": "address",
          "name": "from",
          "type": "address"
        },
        {
          "internalType": "address",
          "name": "to",
          "type": "address"
        },
        {
          "internalType": "uint256",
          "name": "tokenId",
          "type": "uint256"
        },
        {
          "internalType": "bytes",
          "name": "_data",
          "type": "bytes"
        }
      ],
      "name": "safeTransferFrom",
      "outputs": [],
      "stateMutability": "nonpayable",
      "type": "function"
    },
    {
      "inputs": [],
      "name": "symbol",
      "outputs": [
        {
          "internalType": "string",
          "name": "",
          "type": "string"
        }
      ],
      "stateMutability": "view",
      "type": "function"
    },
    {
      "inputs": [
        {
          "internalType": "uint256",
          "name": "tokenId",
          "type": "uint256"
        }
      ],
      "name": "tokenURI",
      "outputs": [
        {
          "internalType": "string",
          "name": "",
          "type": "string"
        }
      ],
      "stateMutability": "view",
      "type": "function"
    },
    {
      "inputs": [
        {
          "internalType": "address",
          "name": "from",
          "type": "address"
        },
        {
          "internalType": "address",
          "name": "to",
          "type": "address"
        },
        {
          "internalType": "uint256",
          "name": "tokenId",
          "type": "uint256"
        }
      ],
      "name": "transferFrom",
      "outputs": [],
      "stateMutability": "nonpayable",
      "type": "function"
    }
  ],
  "bytecode": "0x608060405234801561001057600080fd5b50613ad6806100206000396000f3fe608060405234801561001057600080fd5b50600436106100f55760003560e01c80636352211e11610097578063a47404a311610066578063a47404a314610282578063b88d4fde146102b3578063c87b56dd146102cf578063ed795a24146102ff576100f5565b80636352211e146101d457806370a0823114610204578063895e8b231461023457806395d89b4114610264576100f5565b806323b872dd116100d357806323b872dd1461016457806342842e0e1461018057806342966c681461019c57806346faa8b2146101b8576100f5565b806306fdde03146100fa578063081812fc14610118578063095ea7b314610148575b600080fd5b61010261031b565b60405161010f91906120c7565b60405180910390f35b610132600480360381019061012d9190612133565b6103bc565b60405161013f91906121a1565b60405180910390f35b610162600480360381019061015d91906121e8565b610450565b005b61017e60048036038101906101799190612228565b6105eb565b005b61019a60048036038101906101959190612228565b61064b565b005b6101b660048036038101906101b19190612133565b61066b565b005b6101d260048036038101906101cd91906123b0565b6106bc565b005b6101ee60048036038101906101e99190612133565b61082a565b6040516101fb91906121a1565b60405180910390f35b61021e60048036038101906102199190612428565b6108eb565b60405161022b9190612464565b60405180910390f35b61024e60048036038101906102499190612133565b6109b2565b60405161025b919061249a565b60405180910390f35b61026c6109c4565b60405161027991906120c7565b60405180910390f35b61029c600480360381019061029791906124b5565b610a65565b6040516102aa929190612671565b60405180910390f35b6102cd60048036038101906102c89190612749565b610cae565b005b6102e960048036038101906102e49190612133565b610d10565b6040516102f691906120c7565b60405180910390f35b610319600480360381019061031491906129c7565b610e12565b005b60606000610327611010565b905080600001805461033890612ad7565b80601f016020809104026020016040519081016040528092919081815260200182805461036490612ad7565b80156103b15780601f10610386576101008083540402835291602001916103b1565b820191906000526020600020905b81548152906001019060200180831161039457829003601f168201915b505050505091505090565b60006103c78261103d565b610406576040517f08c379a00000000000000000000000000000000000000000000000000000000081526004016103fd90612b7b565b60405180910390fd5b6000610410611010565b905080600401600084815260200190815260200160002060009054906101000a900473ffffffffffffffffffffffffffffffffffffffff16915050919050565b600061045b8261082a565b90508073ffffffffffffffffffffffffffffffffffffffff168373ffffffffffffffffffffffffffffffffffffffff1614156104cc576040517f08c379a00000000000000000000000000000000000000000000000000000000081526004016104c390612c0d565b60405180910390fd5b8073ffffffffffffffffffffffffffffffffffffffff166104eb6110b8565b73ffffffffffffffffffffffffffffffffffffffff16148061059d5750600060010160008273ffffffffffffffffffffffffffffffffffffffff1673ffffffffffffffffffffffffffffffffffffffff16815260200190815260200160002060006105546110b8565b73ffffffffffffffffffffffffffffffffffffffff1673ffffffffffffffffffffffffffffffffffffffff16815260200190815260200160002060009054906101000a900460ff165b6105dc576040517f08c379a00000000000000000000000000000000000000000000000000000000081526004016105d390612c9f565b60405180910390fd5b6105e683836110c0565b505050565b6105fc6105f66110b8565b82611188565b61063b576040517f08c379a000000000000000000000000000000000000000000000000000000000815260040161063290612d31565b60405180910390fd5b6106468383836112f0565b505050565b61066683838360405180602001604052806000815250610cae565b505050565b600061067561155f565b90506106808261158c565b80600101600083815260200190815260200160002060006101000a81549073ffffffffffffffffffffffffffffffffffffffff02191690555050565b60006106c66116ae565b905060006106d261155f565b905060008160030180546106e590612ad7565b90501480156107045750600081600401805461070090612ad7565b9050145b61070d57600080fd5b600084511415801561072157506000835114155b610760576040517f08c379a000000000000000000000000000000000000000000000000000000000815260040161075790612d9d565b60405180910390fd5b8160040160009054906101000a900473ffffffffffffffffffffffffffffffffffffffff1673ffffffffffffffffffffffffffffffffffffffff163373ffffffffffffffffffffffffffffffffffffffff16146107f2576040517f08c379a00000000000000000000000000000000000000000000000000000000081526004016107e990612e09565b60405180910390fd5b8381600301908051906020019061080a929190611e1f565b5082816004019080519060200190610823929190611e1f565b5050505050565b600080610835611010565b9050600081600201600085815260200190815260200160002060009054906101000a900473ffffffffffffffffffffffffffffffffffffffff169050600073ffffffffffffffffffffffffffffffffffffffff168173ffffffffffffffffffffffffffffffffffffffff1614156108e1576040517f08c379a00000000000000000000000000000000000000000000000000000000081526004016108d890612e9b565b60405180910390fd5b8092505050919050565b60008073ffffffffffffffffffffffffffffffffffffffff168273ffffffffffffffffffffffffffffffffffffffff16141561095c576040517f08c379a000000000000000000000000000000000000000000000000000000000815260040161095390612f2d565b60405180910390fd5b6000610966611010565b90508060030160008473ffffffffffffffffffffffffffffffffffffffff1673ffffffffffffffffffffffffffffffffffffffff16815260200190815260200160002054915050919050565b60006109bd8261103d565b9050919050565b606060006109d0611010565b90508060010180546109e190612ad7565b80601f0160208091040260200160405190810160405280929190818152602001828054610a0d90612ad7565b8015610a5a5780601f10610a2f57610100808354040283529160200191610a5a565b820191906000526020600020905b815481529060010190602001808311610a3d57829003601f168201915b505050505091505090565b6060806000610a7261155f565b90506000816006016000878152602001908152602001600020600001805480602002602001604051908101604052809291908181526020018280548015610b0e57602002820191906000526020600020905b8160009054906101000a900473ffffffffffffffffffffffffffffffffffffffff1673ffffffffffffffffffffffffffffffffffffffff1681526020019060010190808311610ac4575b505050505090506000826006016000888152602001908152602001600020600101805480602002602001604051908101604052809291908181526020018280548015610bb557602002820191906000526020600020906000905b82829054906101000a90046bffffffffffffffffffffffff166bffffffffffffffffffffffff16815260200190600c0190602082600b01049283019260010382029150808411610b685790505b505050505090506000815167ffffffffffffffff811115610bd957610bd8612285565b5b604051908082528060200260200182016040528015610c075781602001602082028036833780820191505090505b50905060005b8151811015610c9c57610c1e6116db565b6bffffffffffffffffffffffff16838281518110610c3f57610c3e612f4d565b5b60200260200101516bffffffffffffffffffffffff1689610c609190612fab565b610c6a9190613034565b828281518110610c7d57610c7c612f4d565b5b6020026020010181815250508080610c9490613065565b915050610c0d565b50828195509550505050509250929050565b610cbf610cb96110b8565b83611188565b610cfe576040517f08c379a0000000000000000000000000000000000000000000000000000000008152600401610cf590612d31565b60405180910390fd5b610d0a848484846116e5565b50505050565b6060610d1b8261103d565b610d5a576040517f08c379a0000000000000000000000000000000000000000000000000000000008152600401610d5190613120565b60405180910390fd5b6000610d6461155f565b905060008160020160008581526020019081526020016000208054610d8890612ad7565b80601f0160208091040260200160405190810160405280929190818152602001828054610db490612ad7565b8015610e015780601f10610dd657610100808354040283529160200191610e01565b820191906000526020600020905b815481529060010190602001808311610de457829003601f168201915b505050505090508092505050919050565b6000800160009054906101000a900473ffffffffffffffffffffffffffffffffffffffff1673ffffffffffffffffffffffffffffffffffffffff163373ffffffffffffffffffffffffffffffffffffffff1614610ea4576040517f08c379a0000000000000000000000000000000000000000000000000000000008152600401610e9b906131b2565b60405180910390fd5b8215610f3f578051825114610eee576040517f08c379a0000000000000000000000000000000000000000000000000000000008152600401610ee59061326a565b60405180910390fd5b600582511115610f33576040517f08c379a0000000000000000000000000000000000000000000000000000000008152600401610f2a906132fc565b60405180910390fd5b610f3e868383611741565b5b6000610f4961155f565b90508581600001600089815260200190815260200160002060006101000a81548173ffffffffffffffffffffffffffffffffffffffff021916908373ffffffffffffffffffffffffffffffffffffffff1602179055508581600101600089815260200190815260200160002060006101000a81548173ffffffffffffffffffffffffffffffffffffffff021916908373ffffffffffffffffffffffffffffffffffffffff160217905550610ffd8688611985565b61100787866119a3565b50505050505050565b6000807f27d4b8eb827745c1478e1390415e0b68ca5ace988a610b45757dd674616b25ad90508091505090565b600080611048611010565b9050600073ffffffffffffffffffffffffffffffffffffffff1681600201600085815260200190815260200160002060009054906101000a900473ffffffffffffffffffffffffffffffffffffffff1673ffffffffffffffffffffffffffffffffffffffff161415915050919050565b600033905090565b60006110ca611010565b90508281600401600084815260200190815260200160002060006101000a81548173ffffffffffffffffffffffffffffffffffffffff021916908373ffffffffffffffffffffffffffffffffffffffff160217905550818373ffffffffffffffffffffffffffffffffffffffff166111418461082a565b73ffffffffffffffffffffffffffffffffffffffff167f8c5be1e5ebec7d5bd14f71427d1e84f3dd0314c0f7b2291e5b200ac8c7c3b92560405160405180910390a4505050565b60006111938261103d565b6111d2576040517f08c379a00000000000000000000000000000000000000000000000000000000081526004016111c99061338e565b60405180910390fd5b60006111dd8361082a565b90508073ffffffffffffffffffffffffffffffffffffffff168473ffffffffffffffffffffffffffffffffffffffff16148061124c57508373ffffffffffffffffffffffffffffffffffffffff16611234846103bc565b73ffffffffffffffffffffffffffffffffffffffff16145b806112e75750600060010160008273ffffffffffffffffffffffffffffffffffffffff1673ffffffffffffffffffffffffffffffffffffffff168152602001908152602001600020600061129e6110b8565b73ffffffffffffffffffffffffffffffffffffffff1673ffffffffffffffffffffffffffffffffffffffff16815260200190815260200160002060009054906101000a900460ff165b91505092915050565b8273ffffffffffffffffffffffffffffffffffffffff166113108261082a565b73ffffffffffffffffffffffffffffffffffffffff1614611366576040517f08c379a000000000000000000000000000000000000000000000000000000000815260040161135d90613420565b60405180910390fd5b600073ffffffffffffffffffffffffffffffffffffffff168273ffffffffffffffffffffffffffffffffffffffff1614156113d6576040517f08c379a00000000000000000000000000000000000000000000000000000000081526004016113cd906134b2565b60405180910390fd5b6113e1838383611a26565b6113ec6000826110c0565b60006113f6611010565b905060018160030160008673ffffffffffffffffffffffffffffffffffffffff1673ffffffffffffffffffffffffffffffffffffffff168152602001908152602001600020600082825461144a91906134d2565b9250508190555060018160030160008573ffffffffffffffffffffffffffffffffffffffff1673ffffffffffffffffffffffffffffffffffffffff16815260200190815260200160002060008282546114a39190613506565b925050819055508281600201600084815260200190815260200160002060006101000a81548173ffffffffffffffffffffffffffffffffffffffff021916908373ffffffffffffffffffffffffffffffffffffffff160217905550818373ffffffffffffffffffffffffffffffffffffffff168573ffffffffffffffffffffffffffffffffffffffff167fddf252ad1be2c89b69c2b068fc378daa952ba7f163c4a11628f55a4df523b3ef60405160405180910390a450505050565b6000807f7336099884d9097f82a586e8d7e322fd089b07b96831a9d9ee42fb0a34564cf790508091505090565b60006115978261082a565b90506115a581600084611a26565b6115b06000836110c0565b60006115ba611010565b905060018160030160008473ffffffffffffffffffffffffffffffffffffffff1673ffffffffffffffffffffffffffffffffffffffff168152602001908152602001600020600082825461160e91906134d2565b9250508190555080600201600084815260200190815260200160002060006101000a81549073ffffffffffffffffffffffffffffffffffffffff021916905582600073ffffffffffffffffffffffffffffffffffffffff168373ffffffffffffffffffffffffffffffffffffffff167fddf252ad1be2c89b69c2b068fc378daa952ba7f163c4a11628f55a4df523b3ef60405160405180910390a4505050565b6000807fc8fcad8db84d3cc18b4c41d551ea0ee66dd599cde068d998e57d5e09332c131c90508091505090565b6000612710905090565b6116f08484846112f0565b6116fc84848484611a2b565b61173b576040517f08c379a0000000000000000000000000000000000000000000000000000000008152600401611732906135ce565b60405180910390fd5b50505050565b600073ffffffffffffffffffffffffffffffffffffffff168260008151811061176d5761176c612f4d565b5b602002602001015173ffffffffffffffffffffffffffffffffffffffff1614156117cc576040517f08c379a00000000000000000000000000000000000000000000000000000000081526004016117c39061363a565b60405180910390fd5b600582511115611811576040517f08c379a0000000000000000000000000000000000000000000000000000000008152600401611808906136cc565b60405180910390fd5b8051825114611855576040517f08c379a000000000000000000000000000000000000000000000000000000000815260040161184c9061375e565b60405180910390fd5b6000805b82518110156118ab5782818151811061187557611874612f4d565b5b60200260200101516bffffffffffffffffffffffff16826118969190613506565b915080806118a390613065565b915050611859565b506118b46116db565b6bffffffffffffffffffffffff16811115611904576040517f08c379a00000000000000000000000000000000000000000000000000000000081526004016118fb906137f0565b60405180910390fd5b600061190e61155f565b9050611918611ea5565b84816000018190525083816020018190525080826006016000888152602001908152602001600020600082015181600001908051906020019061195c929190611ebf565b506020820151816001019080519060200190611979929190611f49565b50905050505050505050565b61199f828260405180602001604052806000815250611bc2565b5050565b6119ac8261103d565b6119eb576040517f08c379a00000000000000000000000000000000000000000000000000000000081526004016119e290613882565b60405180910390fd5b60006119f561155f565b9050818160020160008581526020019081526020016000209080519060200190611a20929190611e1f565b50505050565b505050565b6000611a4c8473ffffffffffffffffffffffffffffffffffffffff16611c1d565b15611bb5578373ffffffffffffffffffffffffffffffffffffffff1663150b7a02611a756110b8565b8786866040518563ffffffff1660e01b8152600401611a9794939291906138f7565b602060405180830381600087803b158015611ab157600080fd5b505af1925050508015611ae257506040513d601f19601f82011682018060405250810190611adf919061399b565b60015b611b65573d8060008114611b12576040519150601f19603f3d011682016040523d82523d6000602084013e611b17565b606091505b50600081511415611b5d576040517f08c379a0000000000000000000000000000000000000000000000000000000008152600401611b54906135ce565b60405180910390fd5b805181602001fd5b63150b7a0260e01b7bffffffffffffffffffffffffffffffffffffffffffffffffffffffff1916817bffffffffffffffffffffffffffffffffffffffffffffffffffffffff191614915050611bba565b600190505b949350505050565b611bcc8383611c40565b611bd96000848484611a2b565b611c18576040517f08c379a0000000000000000000000000000000000000000000000000000000008152600401611c0f906135ce565b60405180910390fd5b505050565b6000808273ffffffffffffffffffffffffffffffffffffffff163b119050919050565b600073ffffffffffffffffffffffffffffffffffffffff168273ffffffffffffffffffffffffffffffffffffffff161415611cb0576040517f08c379a0000000000000000000000000000000000000000000000000000000008152600401611ca790613a14565b60405180910390fd5b611cb98161103d565b15611cf9576040517f08c379a0000000000000000000000000000000000000000000000000000000008152600401611cf090613a80565b60405180910390fd5b611d0560008383611a26565b6000611d0f611010565b905060018160030160008573ffffffffffffffffffffffffffffffffffffffff1673ffffffffffffffffffffffffffffffffffffffff1681526020019081526020016000206000828254611d639190613506565b925050819055508281600201600084815260200190815260200160002060006101000a81548173ffffffffffffffffffffffffffffffffffffffff021916908373ffffffffffffffffffffffffffffffffffffffff160217905550818373ffffffffffffffffffffffffffffffffffffffff16600073ffffffffffffffffffffffffffffffffffffffff167fddf252ad1be2c89b69c2b068fc378daa952ba7f163c4a11628f55a4df523b3ef60405160405180910390a4505050565b828054611e2b90612ad7565b90600052602060002090601f016020900481019282611e4d5760008555611e94565b82601f10611e6657805160ff1916838001178555611e94565b82800160010185558215611e94579182015b82811115611e93578251825591602001919060010190611e78565b5b509050611ea19190612011565b5090565b604051806040016040528060608152602001606081525090565b828054828255906000526020600020908101928215611f38579160200282015b82811115611f375782518260006101000a81548173ffffffffffffffffffffffffffffffffffffffff021916908373ffffffffffffffffffffffffffffffffffffffff16021790555091602001919060010190611edf565b5b509050611f459190612011565b5090565b828054828255906000526020600020906001016002900481019282156120005791602002820160005b83821115611fc657835183826101000a8154816bffffffffffffffffffffffff02191690836bffffffffffffffffffffffff1602179055509260200192600c01602081600b01049283019260010302611f72565b8015611ffe5782816101000a8154906bffffffffffffffffffffffff0219169055600c01602081600b01049283019260010302611fc6565b505b50905061200d9190612011565b5090565b5b8082111561202a576000816000905550600101612012565b5090565b600081519050919050565b600082825260208201905092915050565b60005b8381101561206857808201518184015260208101905061204d565b83811115612077576000848401525b50505050565b6000601f19601f8301169050919050565b60006120998261202e565b6120a38185612039565b93506120b381856020860161204a565b6120bc8161207d565b840191505092915050565b600060208201905081810360008301526120e1818461208e565b905092915050565b6000604051905090565b600080fd5b600080fd5b6000819050919050565b612110816120fd565b811461211b57600080fd5b50565b60008135905061212d81612107565b92915050565b600060208284031215612149576121486120f3565b5b60006121578482850161211e565b91505092915050565b600073ffffffffffffffffffffffffffffffffffffffff82169050919050565b600061218b82612160565b9050919050565b61219b81612180565b82525050565b60006020820190506121b66000830184612192565b92915050565b6121c581612180565b81146121d057600080fd5b50565b6000813590506121e2816121bc565b92915050565b600080604083850312156121ff576121fe6120f3565b5b600061220d858286016121d3565b925050602061221e8582860161211e565b9150509250929050565b600080600060608486031215612241576122406120f3565b5b600061224f868287016121d3565b9350506020612260868287016121d3565b92505060406122718682870161211e565b9150509250925092565b600080fd5b600080fd5b7f4e487b7100000000000000000000000000000000000000000000000000000000600052604160045260246000fd5b6122bd8261207d565b810181811067ffffffffffffffff821117156122dc576122db612285565b5b80604052505050565b60006122ef6120e9565b90506122fb82826122b4565b919050565b600067ffffffffffffffff82111561231b5761231a612285565b5b6123248261207d565b9050602081019050919050565b82818337600083830152505050565b600061235361234e84612300565b6122e5565b90508281526020810184848401111561236f5761236e612280565b5b61237a848285612331565b509392505050565b600082601f8301126123975761239661227b565b5b81356123a7848260208601612340565b91505092915050565b600080604083850312156123c7576123c66120f3565b5b600083013567ffffffffffffffff8111156123e5576123e46120f8565b5b6123f185828601612382565b925050602083013567ffffffffffffffff811115612412576124116120f8565b5b61241e85828601612382565b9150509250929050565b60006020828403121561243e5761243d6120f3565b5b600061244c848285016121d3565b91505092915050565b61245e816120fd565b82525050565b60006020820190506124796000830184612455565b92915050565b60008115159050919050565b6124948161247f565b82525050565b60006020820190506124af600083018461248b565b92915050565b600080604083850312156124cc576124cb6120f3565b5b60006124da8582860161211e565b92505060206124eb8582860161211e565b9150509250929050565b600081519050919050565b600082825260208201905092915050565b6000819050602082019050919050565b61252a81612180565b82525050565b600061253c8383612521565b60208301905092915050565b6000602082019050919050565b6000612560826124f5565b61256a8185612500565b935061257583612511565b8060005b838110156125a657815161258d8882612530565b975061259883612548565b925050600181019050612579565b5085935050505092915050565b600081519050919050565b600082825260208201905092915050565b6000819050602082019050919050565b6125e8816120fd565b82525050565b60006125fa83836125df565b60208301905092915050565b6000602082019050919050565b600061261e826125b3565b61262881856125be565b9350612633836125cf565b8060005b8381101561266457815161264b88826125ee565b975061265683612606565b925050600181019050612637565b5085935050505092915050565b6000604082019050818103600083015261268b8185612555565b9050818103602083015261269f8184612613565b90509392505050565b600067ffffffffffffffff8211156126c3576126c2612285565b5b6126cc8261207d565b9050602081019050919050565b60006126ec6126e7846126a8565b6122e5565b90508281526020810184848401111561270857612707612280565b5b612713848285612331565b509392505050565b600082601f8301126127305761272f61227b565b5b81356127408482602086016126d9565b91505092915050565b60008060008060808587031215612763576127626120f3565b5b6000612771878288016121d3565b9450506020612782878288016121d3565b93505060406127938782880161211e565b925050606085013567ffffffffffffffff8111156127b4576127b36120f8565b5b6127c08782880161271b565b91505092959194509250565b6127d58161247f565b81146127e057600080fd5b50565b6000813590506127f2816127cc565b92915050565b600067ffffffffffffffff82111561281357612812612285565b5b602082029050602081019050919050565b600080fd5b600061283c612837846127f8565b6122e5565b9050808382526020820190506020840283018581111561285f5761285e612824565b5b835b81811015612888578061287488826121d3565b845260208401935050602081019050612861565b5050509392505050565b600082601f8301126128a7576128a661227b565b5b81356128b7848260208601612829565b91505092915050565b600067ffffffffffffffff8211156128db576128da612285565b5b602082029050602081019050919050565b60006bffffffffffffffffffffffff82169050919050565b61290d816128ec565b811461291857600080fd5b50565b60008135905061292a81612904565b92915050565b600061294361293e846128c0565b6122e5565b9050808382526020820190506020840283018581111561296657612965612824565b5b835b8181101561298f578061297b888261291b565b845260208401935050602081019050612968565b5050509392505050565b600082601f8301126129ae576129ad61227b565b5b81356129be848260208601612930565b91505092915050565b60008060008060008060c087890312156129e4576129e36120f3565b5b60006129f289828a0161211e565b9650506020612a0389828a016121d3565b955050604087013567ffffffffffffffff811115612a2457612a236120f8565b5b612a3089828a01612382565b9450506060612a4189828a016127e3565b935050608087013567ffffffffffffffff811115612a6257612a616120f8565b5b612a6e89828a01612892565b92505060a087013567ffffffffffffffff811115612a8f57612a8e6120f8565b5b612a9b89828a01612999565b9150509295509295509295565b7f4e487b7100000000000000000000000000000000000000000000000000000000600052602260045260246000fd5b60006002820490506001821680612aef57607f821691505b60208210811415612b0357612b02612aa8565b5b50919050565b7f4552433732313a20617070726f76656420717565727920666f72206e6f6e657860008201527f697374656e7420746f6b656e0000000000000000000000000000000000000000602082015250565b6000612b65602c83612039565b9150612b7082612b09565b604082019050919050565b60006020820190508181036000830152612b9481612b58565b9050919050565b7f4552433732313a20617070726f76616c20746f2063757272656e74206f776e6560008201527f7200000000000000000000000000000000000000000000000000000000000000602082015250565b6000612bf7602183612039565b9150612c0282612b9b565b604082019050919050565b60006020820190508181036000830152612c2681612bea565b9050919050565b7f4552433732313a20617070726f76652063616c6c6572206973206e6f74206f7760008201527f6e6572206e6f7220617070726f76656420666f7220616c6c0000000000000000602082015250565b6000612c89603883612039565b9150612c9482612c2d565b604082019050919050565b60006020820190508181036000830152612cb881612c7c565b9050919050565b7f4552433732313a207472616e736665722063616c6c6572206973206e6f74206f60008201527f776e6572206e6f7220617070726f766564000000000000000000000000000000602082015250565b6000612d1b603183612039565b9150612d2682612cbf565b604082019050919050565b60006020820190508181036000830152612d4a81612d0e565b9050919050565b7f494e56414c49445f504152414d53000000000000000000000000000000000000600082015250565b6000612d87600e83612039565b9150612d9282612d51565b602082019050919050565b60006020820190508181036000830152612db681612d7a565b9050919050565b7f4d757374206f776e2074686520636f6e74726163742e00000000000000000000600082015250565b6000612df3601683612039565b9150612dfe82612dbd565b602082019050919050565b60006020820190508181036000830152612e2281612de6565b9050919050565b7f4552433732313a206f776e657220717565727920666f72206e6f6e657869737460008201527f656e7420746f6b656e0000000000000000000000000000000000000000000000602082015250565b6000612e85602983612039565b9150612e9082612e29565b604082019050919050565b60006020820190508181036000830152612eb481612e78565b9050919050565b7f4552433732313a2062616c616e636520717565727920666f7220746865207a6560008201527f726f206164647265737300000000000000000000000000000000000000000000602082015250565b6000612f17602a83612039565b9150612f2282612ebb565b604082019050919050565b60006020820190508181036000830152612f4681612f0a565b9050919050565b7f4e487b7100000000000000000000000000000000000000000000000000000000600052603260045260246000fd5b7f4e487b7100000000000000000000000000000000000000000000000000000000600052601160045260246000fd5b6000612fb6826120fd565b9150612fc1836120fd565b9250817fffffffffffffffffffffffffffffffffffffffffffffffffffffffffffffffff0483118215151615612ffa57612ff9612f7c565b5b828202905092915050565b7f4e487b7100000000000000000000000000000000000000000000000000000000600052601260045260246000fd5b600061303f826120fd565b915061304a836120fd565b92508261305a57613059613005565b5b828204905092915050565b6000613070826120fd565b91507fffffffffffffffffffffffffffffffffffffffffffffffffffffffffffffffff8214156130a3576130a2612f7c565b5b600182019050919050565b7f4552433732314d657461646174613a2055524920717565727920666f72206e6f60008201527f6e6578697374656e7420746f6b656e0000000000000000000000000000000000602082015250565b600061310a602f83612039565b9150613115826130ae565b604082019050919050565b60006020820190508181036000830152613139816130fd565b9050919050565b7f455243373231466163746f72793a20556e617574686f72697a6564204163636560008201527f7373210000000000000000000000000000000000000000000000000000000000602082015250565b600061319c602383612039565b91506131a782613140565b604082019050919050565b600060208201905081810360008301526131cb8161318f565b9050919050565b7f4552433732313a20746865206c656e677468206f6620726f79616c747920616460008201527f64726573736573206973206e6f7420657175616c20746f20746865206c656e6760208201527f7468206f66207368617265730000000000000000000000000000000000000000604082015250565b6000613254604c83612039565b915061325f826131d2565b606082019050919050565b6000602082019050818103600083015261328381613247565b9050919050565b7f4552433732313a20746f6f206d616e7920726f79616c7479206164647265737360008201527f657320686173206265656e207365740000000000000000000000000000000000602082015250565b60006132e6602f83612039565b91506132f18261328a565b604082019050919050565b60006020820190508181036000830152613315816132d9565b9050919050565b7f4552433732313a206f70657261746f7220717565727920666f72206e6f6e657860008201527f697374656e7420746f6b656e0000000000000000000000000000000000000000602082015250565b6000613378602c83612039565b91506133838261331c565b604082019050919050565b600060208201905081810360008301526133a78161336b565b9050919050565b7f4552433732313a207472616e73666572206f6620746f6b656e2074686174206960008201527f73206e6f74206f776e0000000000000000000000000000000000000000000000602082015250565b600061340a602983612039565b9150613415826133ae565b604082019050919050565b60006020820190508181036000830152613439816133fd565b9050919050565b7f4552433732313a207472616e7366657220746f20746865207a65726f2061646460008201527f7265737300000000000000000000000000000000000000000000000000000000602082015250565b600061349c602483612039565b91506134a782613440565b604082019050919050565b600060208201905081810360008301526134cb8161348f565b9050919050565b60006134dd826120fd565b91506134e8836120fd565b9250828210156134fb576134fa612f7c565b5b828203905092915050565b6000613511826120fd565b915061351c836120fd565b9250827fffffffffffffffffffffffffffffffffffffffffffffffffffffffffffffffff0382111561355157613550612f7c565b5b828201905092915050565b7f4552433732313a207472616e7366657220746f206e6f6e20455243373231526560008201527f63656976657220696d706c656d656e7465720000000000000000000000000000602082015250565b60006135b8603283612039565b91506135c38261355c565b604082019050919050565b600060208201905081810360008301526135e7816135ab565b9050919050565b7f455243323938313a20696e76616c696420726563656976657200000000000000600082015250565b6000613624601983612039565b915061362f826135ee565b602082019050919050565b6000602082019050818103600083015261365381613617565b9050919050565b7f526f79616c7479207265636965766572732063616e6e6f74206265206d6f726560008201527f207468616e203500000000000000000000000000000000000000000000000000602082015250565b60006136b6602783612039565b91506136c18261365a565b604082019050919050565b600060208201905081810360008301526136e5816136a9565b9050919050565b7f4d69736d61746368206f6620526f79616c74792052656378696576657220616460008201527f647265737320616e642074686569722073686172650000000000000000000000602082015250565b6000613748603583612039565b9150613753826136ec565b604082019050919050565b600060208201905081810360008301526137778161373b565b9050919050565b7f455243323938313a20726f79616c7479206665652077696c6c2065786365656460008201527f2073616c65507269636500000000000000000000000000000000000000000000602082015250565b60006137da602a83612039565b91506137e58261377e565b604082019050919050565b60006020820190508181036000830152613809816137cd565b9050919050565b7f4552433732314d657461646174613a2055524920736574206f66206e6f6e657860008201527f697374656e7420746f6b656e0000000000000000000000000000000000000000602082015250565b600061386c602c83612039565b915061387782613810565b604082019050919050565b6000602082019050818103600083015261389b8161385f565b9050919050565b600081519050919050565b600082825260208201905092915050565b60006138c9826138a2565b6138d381856138ad565b93506138e381856020860161204a565b6138ec8161207d565b840191505092915050565b600060808201905061390c6000830187612192565b6139196020830186612192565b6139266040830185612455565b818103606083015261393881846138be565b905095945050505050565b60007fffffffff0000000000000000000000000000000000000000000000000000000082169050919050565b61397881613943565b811461398357600080fd5b50565b6000815190506139958161396f565b92915050565b6000602082840312156139b1576139b06120f3565b5b60006139bf84828501613986565b91505092915050565b7f4552433732313a206d696e7420746f20746865207a65726f2061646472657373600082015250565b60006139fe602083612039565b9150613a09826139c8565b602082019050919050565b60006020820190508181036000830152613a2d816139f1565b9050919050565b7f4552433732313a20746f6b656e20616c7265616479206d696e74656400000000600082015250565b6000613a6a601c83612039565b9150613a7582613a34565b602082019050919050565b60006020820190508181036000830152613a9981613a5d565b905091905056fea26469706673582212204f4e0421e6b421be1ff618c456568a8f942ee4e03f3d4cfb0287fbaf6adcc68964736f6c63430008090033",
  "linkReferences": {},
  "deployedLinkReferences": {}
}