{
  "_format": "hh-sol-artifact-1",
  "contractName": "ERC1155FactoryFacet",
  "sourceName": "contracts/facets/ERC1155Factory/ERC1155FactoryFacet.sol",
  "abi": [
    {
      "anonymous": false,
      "inputs": [
        {
          "indexed": true,
          "internalType": "address",
          "name": "account",
          "type": "address"
        },
        {
          "indexed": true,
          "internalType": "address",
          "name": "operator",
          "type": "address"
        },
        {
          "indexed": false,
          "internalType": "bool",
          "name": "approved",
          "type": "bool"
        }
      ],
      "name": "ApprovalForAll",
      "type": "event"
    },
    {
      "anonymous": false,
      "inputs": [
        {
          "indexed": true,
          "internalType": "address",
          "name": "operator",
          "type": "address"
        },
        {
          "indexed": true,
          "internalType": "address",
          "name": "from",
          "type": "address"
        },
        {
          "indexed": true,
          "internalType": "address",
          "name": "to",
          "type": "address"
        },
        {
          "indexed": false,
          "internalType": "uint256[]",
          "name": "ids",
          "type": "uint256[]"
        },
        {
          "indexed": false,
          "internalType": "uint256[]",
          "name": "values",
          "type": "uint256[]"
        }
      ],
      "name": "TransferBatch",
      "type": "event"
    },
    {
      "anonymous": false,
      "inputs": [
        {
          "indexed": true,
          "internalType": "address",
          "name": "operator",
          "type": "address"
        },
        {
          "indexed": true,
          "internalType": "address",
          "name": "from",
          "type": "address"
        },
        {
          "indexed": true,
          "internalType": "address",
          "name": "to",
          "type": "address"
        },
        {
          "indexed": false,
          "internalType": "uint256",
          "name": "id",
          "type": "uint256"
        },
        {
          "indexed": false,
          "internalType": "uint256",
          "name": "value",
          "type": "uint256"
        }
      ],
      "name": "TransferSingle",
      "type": "event"
    },
    {
      "inputs": [
        {
          "internalType": "address",
          "name": "account",
          "type": "address"
        },
        {
          "internalType": "uint256",
          "name": "id",
          "type": "uint256"
        }
      ],
      "name": "balanceOf",
      "outputs": [
        {
          "internalType": "uint256",
          "name": "",
          "type": "uint256"
        }
      ],
      "stateMutability": "view",
      "type": "function"
    },
    {
      "inputs": [
        {
          "internalType": "address[]",
          "name": "accounts",
          "type": "address[]"
        },
        {
          "internalType": "uint256[]",
          "name": "ids",
          "type": "uint256[]"
        }
      ],
      "name": "balanceOfBatch",
      "outputs": [
        {
          "internalType": "uint256[]",
          "name": "",
          "type": "uint256[]"
        }
      ],
      "stateMutability": "view",
      "type": "function"
    },
    {
      "inputs": [
        {
          "internalType": "address",
          "name": "from",
          "type": "address"
        },
        {
          "internalType": "uint256",
          "name": "tokenId",
          "type": "uint256"
        },
        {
          "internalType": "uint256",
          "name": "amount",
          "type": "uint256"
        }
      ],
      "name": "burn",
      "outputs": [],
      "stateMutability": "nonpayable",
      "type": "function"
    },
    {
      "inputs": [
        {
          "internalType": "string",
          "name": "name_",
          "type": "string"
        },
        {
          "internalType": "string",
          "name": "symbol_",
          "type": "string"
        }
      ],
      "name": "erc1155FactoryFacetInit",
      "outputs": [],
      "stateMutability": "nonpayable",
      "type": "function"
    },
    {
      "inputs": [
        {
          "internalType": "uint256",
          "name": "tokenId",
          "type": "uint256"
        },
        {
          "internalType": "address",
          "name": "creator",
          "type": "address"
        },
        {
          "internalType": "uint256",
          "name": "totalSupply",
          "type": "uint256"
        },
        {
          "internalType": "string",
          "name": "tokenURI",
          "type": "string"
        },
        {
          "internalType": "bool",
          "name": "tokenRoyalty",
          "type": "bool"
        },
        {
          "internalType": "address[]",
          "name": "royaltyReceiver",
          "type": "address[]"
        },
        {
          "internalType": "uint96[]",
          "name": "tokenRoyaltyInBips",
          "type": "uint96[]"
        }
      ],
      "name": "mint",
      "outputs": [],
      "stateMutability": "nonpayable",
      "type": "function"
    },
    {
      "inputs": [
        {
          "internalType": "uint256",
          "name": "_tokenID",
          "type": "uint256"
        },
        {
          "internalType": "uint256",
          "name": "_salePrice",
          "type": "uint256"
        }
      ],
      "name": "royaltyInfo1155",
      "outputs": [
        {
          "internalType": "address[]",
          "name": "",
          "type": "address[]"
        },
        {
          "internalType": "uint256[]",
          "name": "",
          "type": "uint256[]"
        }
      ],
      "stateMutability": "nonpayable",
      "type": "function"
    },
    {
      "inputs": [
        {
          "internalType": "address",
          "name": "from",
          "type": "address"
        },
        {
          "internalType": "address",
          "name": "to",
          "type": "address"
        },
        {
          "internalType": "uint256[]",
          "name": "ids",
          "type": "uint256[]"
        },
        {
          "internalType": "uint256[]",
          "name": "amounts",
          "type": "uint256[]"
        },
        {
          "internalType": "bytes",
          "name": "data",
          "type": "bytes"
        }
      ],
      "name": "safeBatchTransferFrom",
      "outputs": [],
      "stateMutability": "nonpayable",
      "type": "function"
    },
    {
      "inputs": [
        {
          "internalType": "address",
          "name": "from",
          "type": "address"
        },
        {
          "internalType": "address",
          "name": "to",
          "type": "address"
        },
        {
          "internalType": "uint256",
          "name": "id",
          "type": "uint256"
        },
        {
          "internalType": "uint256",
          "name": "amount",
          "type": "uint256"
        },
        {
          "internalType": "bytes",
          "name": "data",
          "type": "bytes"
        }
      ],
      "name": "safeTransferFrom",
      "outputs": [],
      "stateMutability": "nonpayable",
      "type": "function"
    },
    {
      "inputs": [
        {
          "internalType": "address",
          "name": "operator",
          "type": "address"
        },
        {
          "internalType": "bool",
          "name": "approved",
          "type": "bool"
        }
      ],
      "name": "setApprovalForAll",
      "outputs": [],
      "stateMutability": "nonpayable",
      "type": "function"
    },
    {
      "inputs": [
        {
          "internalType": "address",
          "name": "_from",
          "type": "address"
        },
        {
          "internalType": "address",
          "name": "_to",
          "type": "address"
        },
        {
          "internalType": "uint256",
          "name": "_tokenID",
          "type": "uint256"
        },
        {
          "internalType": "uint256",
          "name": "_amount",
          "type": "uint256"
        }
      ],
      "name": "transfer",
      "outputs": [
        {
          "internalType": "bool",
          "name": "",
          "type": "bool"
        }
      ],
      "stateMutability": "nonpayable",
      "type": "function"
    },
    {
      "inputs": [
        {
          "internalType": "uint256",
          "name": "",
          "type": "uint256"
        }
      ],
      "name": "uri",
      "outputs": [
        {
          "internalType": "string",
          "name": "",
          "type": "string"
        }
      ],
      "stateMutability": "view",
      "type": "function"
    }
  ],
  "bytecode": "0x608060405234801561001057600080fd5b50613973806100206000396000f3fe608060405234801561001057600080fd5b50600436106100a85760003560e01c80634e1273f4116100715780634e1273f414610175578063a22cb465146101a5578063dcbb855e146101c1578063eed32458146101dd578063f242432a1461020e578063f5298aca1461022a576100a8565b8062fdd58e146100ad5780630411b252146100dd5780630e89341c1461010d5780632eb2c2d61461013d5780634135c78314610159575b600080fd5b6100c760048036038101906100c29190611de6565b610246565b6040516100d49190611e35565b60405180910390f35b6100f760048036038101906100f29190611e50565b61031f565b6040516101049190611ed2565b60405180910390f35b61012760048036038101906101229190611eed565b6103b8565b6040516101349190611fb3565b60405180910390f35b610157600480360381019061015291906121d2565b61045b565b005b610173600480360381019061016e9190612538565b61057f565b005b61018f600480360381019061018a919061262e565b610784565b60405161019c9190612764565b60405180910390f35b6101bf60048036038101906101ba9190612786565b61089d565b005b6101db60048036038101906101d691906127c6565b6109ab565b005b6101f760048036038101906101f2919061283e565b610b4f565b60405161020592919061293c565b60405180910390f35b61022860048036038101906102239190612973565b610d98565b005b610244600480360381019061023f9190612a0a565b610dac565b005b60008073ffffffffffffffffffffffffffffffffffffffff168373ffffffffffffffffffffffffffffffffffffffff1614156102b7576040517f08c379a00000000000000000000000000000000000000000000000000000000081526004016102ae90612acf565b60405180910390fd5b60006102c1610dbc565b905080600201600084815260200190815260200160002060008573ffffffffffffffffffffffffffffffffffffffff1673ffffffffffffffffffffffffffffffffffffffff1681526020019081526020016000205491505092915050565b60008073ffffffffffffffffffffffffffffffffffffffff168473ffffffffffffffffffffffffffffffffffffffff161415610390576040517f08c379a000000000000000000000000000000000000000000000000000000000815260040161038790612b61565b60405180910390fd5b6103ac8585858560405180602001604052806000815250610d98565b60019050949350505050565b606060006103c4610dbc565b90508060030180546103d590612bb0565b80601f016020809104026020016040519081016040528092919081815260200182805461040190612bb0565b801561044e5780601f106104235761010080835404028352916020019161044e565b820191906000526020600020905b81548152906001019060200180831161043157829003601f168201915b5050505050915050919050565b610463610de9565b73ffffffffffffffffffffffffffffffffffffffff168573ffffffffffffffffffffffffffffffffffffffff16148061052c5750600060010160008673ffffffffffffffffffffffffffffffffffffffff1673ffffffffffffffffffffffffffffffffffffffff16815260200190815260200160002060006104e3610de9565b73ffffffffffffffffffffffffffffffffffffffff1673ffffffffffffffffffffffffffffffffffffffff16815260200190815260200160002060009054906101000a900460ff165b61056b576040517f08c379a000000000000000000000000000000000000000000000000000000000815260040161056290612c54565b60405180910390fd5b6105788585858585610df1565b5050505050565b6000800160009054906101000a900473ffffffffffffffffffffffffffffffffffffffff1673ffffffffffffffffffffffffffffffffffffffff163373ffffffffffffffffffffffffffffffffffffffff1614610611576040517f08c379a000000000000000000000000000000000000000000000000000000000815260040161060890612ce6565b60405180910390fd5b82156106a157805182511461065b576040517f08c379a000000000000000000000000000000000000000000000000000000000815260040161065290612d9e565b60405180910390fd5b6005825111156106a0576040517f08c379a000000000000000000000000000000000000000000000000000000000815260040161069790612e30565b60405180910390fd5b5b60006106ab61111b565b9050868160000160008a815260200190815260200160002060006101000a81548173ffffffffffffffffffffffffffffffffffffffff021916908373ffffffffffffffffffffffffffffffffffffffff160217905550868160010160008a815260200190815260200160002060006101000a81548173ffffffffffffffffffffffffffffffffffffffff021916908373ffffffffffffffffffffffffffffffffffffffff16021790555061077087898860405180602001604052806000815250611148565b61077a88866112ee565b5050505050505050565b606081518351146107ca576040517f08c379a00000000000000000000000000000000000000000000000000000000081526004016107c190612ec2565b60405180910390fd5b6000835167ffffffffffffffff8111156107e7576107e6611fda565b5b6040519080825280602002602001820160405280156108155781602001602082028036833780820191505090505b50905060005b84518110156108925761086285828151811061083a57610839612ee2565b5b602002602001015185838151811061085557610854612ee2565b5b6020026020010151610246565b82828151811061087557610874612ee2565b5b6020026020010181815250508061088b90612f40565b905061081b565b508091505092915050565b80600060010160006108ad610de9565b73ffffffffffffffffffffffffffffffffffffffff1673ffffffffffffffffffffffffffffffffffffffff16815260200190815260200160002060008473ffffffffffffffffffffffffffffffffffffffff1673ffffffffffffffffffffffffffffffffffffffff16815260200190815260200160002060006101000a81548160ff0219169083151502179055508173ffffffffffffffffffffffffffffffffffffffff1661095a610de9565b73ffffffffffffffffffffffffffffffffffffffff167f17307eab39ab6107e8899845ad3d59bd9653f200f220920489ca2b5937696c318360405161099f9190611ed2565b60405180910390a35050565b60006109b5611329565b905060006109c161111b565b905060008160020180546109d490612bb0565b90501480156109f3575060008160030180546109ef90612bb0565b9050145b610a32576040517f08c379a0000000000000000000000000000000000000000000000000000000008152600401610a2990612fd5565b60405180910390fd5b6000845114158015610a4657506000835114155b610a85576040517f08c379a0000000000000000000000000000000000000000000000000000000008152600401610a7c90613041565b60405180910390fd5b8160040160009054906101000a900473ffffffffffffffffffffffffffffffffffffffff1673ffffffffffffffffffffffffffffffffffffffff163373ffffffffffffffffffffffffffffffffffffffff1614610b17576040517f08c379a0000000000000000000000000000000000000000000000000000000008152600401610b0e906130ad565b60405180910390fd5b83816002019080519060200190610b2f929190611c9b565b5082816003019080519060200190610b48929190611c9b565b5050505050565b6060806000610b5c61111b565b90506000816006016000878152602001908152602001600020600001805480602002602001604051908101604052809291908181526020018280548015610bf857602002820191906000526020600020905b8160009054906101000a900473ffffffffffffffffffffffffffffffffffffffff1673ffffffffffffffffffffffffffffffffffffffff1681526020019060010190808311610bae575b505050505090506000826006016000888152602001908152602001600020600101805480602002602001604051908101604052809291908181526020018280548015610c9f57602002820191906000526020600020906000905b82829054906101000a90046bffffffffffffffffffffffff166bffffffffffffffffffffffff16815260200190600c0190602082600b01049283019260010382029150808411610c525790505b505050505090506000815167ffffffffffffffff811115610cc357610cc2611fda565b5b604051908082528060200260200182016040528015610cf15781602001602082028036833780820191505090505b50905060005b8251811015610d8657610d08611356565b6bffffffffffffffffffffffff16838281518110610d2957610d28612ee2565b5b60200260200101516bffffffffffffffffffffffff1689610d4a91906130cd565b610d549190613156565b828281518110610d6757610d66612ee2565b5b6020026020010181815250508080610d7e90612f40565b915050610cf7565b50828195509550505050509250929050565b610da58585858585611360565b5050505050565b610db78383836115f8565b505050565b6000807fd1fd1ec9eb6f457e5e32da0d2921ff6daf7fd2085ec060a076b391ca2400b28290508091505090565b600033905090565b8151835114610e35576040517f08c379a0000000000000000000000000000000000000000000000000000000008152600401610e2c906131f9565b60405180910390fd5b600073ffffffffffffffffffffffffffffffffffffffff168473ffffffffffffffffffffffffffffffffffffffff161415610ea5576040517f08c379a0000000000000000000000000000000000000000000000000000000008152600401610e9c9061328b565b60405180910390fd5b6000610eaf610de9565b9050610ebf818787878787611828565b6000610ec9610dbc565b905060005b8551811015611085576000868281518110610eec57610eeb612ee2565b5b602002602001015190506000868381518110610f0b57610f0a612ee2565b5b60200260200101519050600084600201600084815260200190815260200160002060008c73ffffffffffffffffffffffffffffffffffffffff1673ffffffffffffffffffffffffffffffffffffffff16815260200190815260200160002054905081811015610faf576040517f08c379a0000000000000000000000000000000000000000000000000000000008152600401610fa69061331d565b60405180910390fd5b81810385600201600085815260200190815260200160002060008d73ffffffffffffffffffffffffffffffffffffffff1673ffffffffffffffffffffffffffffffffffffffff168152602001908152602001600020819055508185600201600085815260200190815260200160002060008c73ffffffffffffffffffffffffffffffffffffffff1673ffffffffffffffffffffffffffffffffffffffff168152602001908152602001600020600082825461106a919061333d565b925050819055505050508061107e90612f40565b9050610ece565b508573ffffffffffffffffffffffffffffffffffffffff168773ffffffffffffffffffffffffffffffffffffffff168373ffffffffffffffffffffffffffffffffffffffff167f4a39dc06d4c0dbc64b70af90fd698a233a518aa5d07e595d983b8c0526c8f7fb88886040516110fc929190613393565b60405180910390a4611112828888888888611830565b50505050505050565b6000807fa0302aa70960e6dc7a538844f5df4354a0261cba8bcae9d7c5b34d8719f88c9790508091505090565b600073ffffffffffffffffffffffffffffffffffffffff168473ffffffffffffffffffffffffffffffffffffffff1614156111b8576040517f08c379a00000000000000000000000000000000000000000000000000000000081526004016111af9061343c565b60405180910390fd5b60006111c2610de9565b90506111e3816000876111d488611a17565b6111dd88611a17565b87611828565b60006111ed610dbc565b90508381600201600087815260200190815260200160002060008873ffffffffffffffffffffffffffffffffffffffff1673ffffffffffffffffffffffffffffffffffffffff1681526020019081526020016000206000828254611251919061333d565b925050819055508573ffffffffffffffffffffffffffffffffffffffff16600073ffffffffffffffffffffffffffffffffffffffff168373ffffffffffffffffffffffffffffffffffffffff167fc3d58168c5ae7397731d063d5bbf3d657854427343f4c083240f7aacaa2d0f6288886040516112cf92919061345c565b60405180910390a46112e682600088888888611a91565b505050505050565b60006112f861111b565b9050818160040160008581526020019081526020016000209080519060200190611323929190611c9b565b50505050565b6000807fc8fcad8db84d3cc18b4c41d551ea0ee66dd599cde068d998e57d5e09332c131c90508091505090565b6000612710905090565b600073ffffffffffffffffffffffffffffffffffffffff168473ffffffffffffffffffffffffffffffffffffffff1614156113d0576040517f08c379a00000000000000000000000000000000000000000000000000000000081526004016113c79061328b565b60405180910390fd5b60006113da610de9565b90506113fa8187876113eb88611a17565b6113f488611a17565b87611828565b6000611404610dbc565b9050600081600201600087815260200190815260200160002060008973ffffffffffffffffffffffffffffffffffffffff1673ffffffffffffffffffffffffffffffffffffffff168152602001908152602001600020549050848110156114a0576040517f08c379a00000000000000000000000000000000000000000000000000000000081526004016114979061331d565b60405180910390fd5b84810382600201600088815260200190815260200160002060008a73ffffffffffffffffffffffffffffffffffffffff1673ffffffffffffffffffffffffffffffffffffffff168152602001908152602001600020819055508482600201600088815260200190815260200160002060008973ffffffffffffffffffffffffffffffffffffffff1673ffffffffffffffffffffffffffffffffffffffff168152602001908152602001600020600082825461155b919061333d565b925050819055508673ffffffffffffffffffffffffffffffffffffffff168873ffffffffffffffffffffffffffffffffffffffff168473ffffffffffffffffffffffffffffffffffffffff167fc3d58168c5ae7397731d063d5bbf3d657854427343f4c083240f7aacaa2d0f6289896040516115d892919061345c565b60405180910390a46115ee838989898989611a91565b5050505050505050565b600073ffffffffffffffffffffffffffffffffffffffff168373ffffffffffffffffffffffffffffffffffffffff161415611668576040517f08c379a000000000000000000000000000000000000000000000000000000000815260040161165f906134f7565b60405180910390fd5b6000611672610de9565b90506116a28185600061168487611a17565b61168d87611a17565b60405180602001604052806000815250611828565b60006116ac610dbc565b9050600081600201600086815260200190815260200160002060008773ffffffffffffffffffffffffffffffffffffffff1673ffffffffffffffffffffffffffffffffffffffff16815260200190815260200160002054905083811015611748576040517f08c379a000000000000000000000000000000000000000000000000000000000815260040161173f90613589565b60405180910390fd5b83810382600201600087815260200190815260200160002060008873ffffffffffffffffffffffffffffffffffffffff1673ffffffffffffffffffffffffffffffffffffffff16815260200190815260200160002081905550600073ffffffffffffffffffffffffffffffffffffffff168673ffffffffffffffffffffffffffffffffffffffff168473ffffffffffffffffffffffffffffffffffffffff167fc3d58168c5ae7397731d063d5bbf3d657854427343f4c083240f7aacaa2d0f62888860405161181892919061345c565b60405180910390a4505050505050565b505050505050565b61184f8473ffffffffffffffffffffffffffffffffffffffff16611c78565b15611a0f578373ffffffffffffffffffffffffffffffffffffffff1663bc197c8187878686866040518663ffffffff1660e01b815260040161189595949392919061360d565b602060405180830381600087803b1580156118af57600080fd5b505af19250505080156118e057506040513d601f19601f820116820180604052508101906118dd91906136cd565b60015b611986576118ec613707565b806308c379a014156119495750611901613729565b8061190c575061194b565b806040517f08c379a00000000000000000000000000000000000000000000000000000000081526004016119409190611fb3565b60405180910390fd5b505b6040517f08c379a000000000000000000000000000000000000000000000000000000000815260040161197d90613831565b60405180910390fd5b63bc197c8160e01b7bffffffffffffffffffffffffffffffffffffffffffffffffffffffff1916817bffffffffffffffffffffffffffffffffffffffffffffffffffffffff191614611a0d576040517f08c379a0000000000000000000000000000000000000000000000000000000008152600401611a04906138c3565b60405180910390fd5b505b505050505050565b60606000600167ffffffffffffffff811115611a3657611a35611fda565b5b604051908082528060200260200182016040528015611a645781602001602082028036833780820191505090505b5090508281600081518110611a7c57611a7b612ee2565b5b60200260200101818152505080915050919050565b611ab08473ffffffffffffffffffffffffffffffffffffffff16611c78565b15611c70578373ffffffffffffffffffffffffffffffffffffffff1663f23a6e6187878686866040518663ffffffff1660e01b8152600401611af69594939291906138e3565b602060405180830381600087803b158015611b1057600080fd5b505af1925050508015611b4157506040513d601f19601f82011682018060405250810190611b3e91906136cd565b60015b611be757611b4d613707565b806308c379a01415611baa5750611b62613729565b80611b6d5750611bac565b806040517f08c379a0000000000000000000000000000000000000000000000000000000008152600401611ba19190611fb3565b60405180910390fd5b505b6040517f08c379a0000000000000000000000000000000000000000000000000000000008152600401611bde90613831565b60405180910390fd5b63f23a6e6160e01b7bffffffffffffffffffffffffffffffffffffffffffffffffffffffff1916817bffffffffffffffffffffffffffffffffffffffffffffffffffffffff191614611c6e576040517f08c379a0000000000000000000000000000000000000000000000000000000008152600401611c65906138c3565b60405180910390fd5b505b505050505050565b6000808273ffffffffffffffffffffffffffffffffffffffff163b119050919050565b828054611ca790612bb0565b90600052602060002090601f016020900481019282611cc95760008555611d10565b82601f10611ce257805160ff1916838001178555611d10565b82800160010185558215611d10579182015b82811115611d0f578251825591602001919060010190611cf4565b5b509050611d1d9190611d21565b5090565b5b80821115611d3a576000816000905550600101611d22565b5090565b6000604051905090565b600080fd5b600080fd5b600073ffffffffffffffffffffffffffffffffffffffff82169050919050565b6000611d7d82611d52565b9050919050565b611d8d81611d72565b8114611d9857600080fd5b50565b600081359050611daa81611d84565b92915050565b6000819050919050565b611dc381611db0565b8114611dce57600080fd5b50565b600081359050611de081611dba565b92915050565b60008060408385031215611dfd57611dfc611d48565b5b6000611e0b85828601611d9b565b9250506020611e1c85828601611dd1565b9150509250929050565b611e2f81611db0565b82525050565b6000602082019050611e4a6000830184611e26565b92915050565b60008060008060808587031215611e6a57611e69611d48565b5b6000611e7887828801611d9b565b9450506020611e8987828801611d9b565b9350506040611e9a87828801611dd1565b9250506060611eab87828801611dd1565b91505092959194509250565b60008115159050919050565b611ecc81611eb7565b82525050565b6000602082019050611ee76000830184611ec3565b92915050565b600060208284031215611f0357611f02611d48565b5b6000611f1184828501611dd1565b91505092915050565b600081519050919050565b600082825260208201905092915050565b60005b83811015611f54578082015181840152602081019050611f39565b83811115611f63576000848401525b50505050565b6000601f19601f8301169050919050565b6000611f8582611f1a565b611f8f8185611f25565b9350611f9f818560208601611f36565b611fa881611f69565b840191505092915050565b60006020820190508181036000830152611fcd8184611f7a565b905092915050565b600080fd5b7f4e487b7100000000000000000000000000000000000000000000000000000000600052604160045260246000fd5b61201282611f69565b810181811067ffffffffffffffff8211171561203157612030611fda565b5b80604052505050565b6000612044611d3e565b90506120508282612009565b919050565b600067ffffffffffffffff8211156120705761206f611fda565b5b602082029050602081019050919050565b600080fd5b600061209961209484612055565b61203a565b905080838252602082019050602084028301858111156120bc576120bb612081565b5b835b818110156120e557806120d18882611dd1565b8452602084019350506020810190506120be565b5050509392505050565b600082601f83011261210457612103611fd5565b5b8135612114848260208601612086565b91505092915050565b600080fd5b600067ffffffffffffffff82111561213d5761213c611fda565b5b61214682611f69565b9050602081019050919050565b82818337600083830152505050565b600061217561217084612122565b61203a565b9050828152602081018484840111156121915761219061211d565b5b61219c848285612153565b509392505050565b600082601f8301126121b9576121b8611fd5565b5b81356121c9848260208601612162565b91505092915050565b600080600080600060a086880312156121ee576121ed611d48565b5b60006121fc88828901611d9b565b955050602061220d88828901611d9b565b945050604086013567ffffffffffffffff81111561222e5761222d611d4d565b5b61223a888289016120ef565b935050606086013567ffffffffffffffff81111561225b5761225a611d4d565b5b612267888289016120ef565b925050608086013567ffffffffffffffff81111561228857612287611d4d565b5b612294888289016121a4565b9150509295509295909350565b600067ffffffffffffffff8211156122bc576122bb611fda565b5b6122c582611f69565b9050602081019050919050565b60006122e56122e0846122a1565b61203a565b9050828152602081018484840111156123015761230061211d565b5b61230c848285612153565b509392505050565b600082601f83011261232957612328611fd5565b5b81356123398482602086016122d2565b91505092915050565b61234b81611eb7565b811461235657600080fd5b50565b60008135905061236881612342565b92915050565b600067ffffffffffffffff82111561238957612388611fda565b5b602082029050602081019050919050565b60006123ad6123a88461236e565b61203a565b905080838252602082019050602084028301858111156123d0576123cf612081565b5b835b818110156123f957806123e58882611d9b565b8452602084019350506020810190506123d2565b5050509392505050565b600082601f83011261241857612417611fd5565b5b813561242884826020860161239a565b91505092915050565b600067ffffffffffffffff82111561244c5761244b611fda565b5b602082029050602081019050919050565b60006bffffffffffffffffffffffff82169050919050565b61247e8161245d565b811461248957600080fd5b50565b60008135905061249b81612475565b92915050565b60006124b46124af84612431565b61203a565b905080838252602082019050602084028301858111156124d7576124d6612081565b5b835b8181101561250057806124ec888261248c565b8452602084019350506020810190506124d9565b5050509392505050565b600082601f83011261251f5761251e611fd5565b5b813561252f8482602086016124a1565b91505092915050565b600080600080600080600060e0888a03121561255757612556611d48565b5b60006125658a828b01611dd1565b97505060206125768a828b01611d9b565b96505060406125878a828b01611dd1565b955050606088013567ffffffffffffffff8111156125a8576125a7611d4d565b5b6125b48a828b01612314565b94505060806125c58a828b01612359565b93505060a088013567ffffffffffffffff8111156125e6576125e5611d4d565b5b6125f28a828b01612403565b92505060c088013567ffffffffffffffff81111561261357612612611d4d565b5b61261f8a828b0161250a565b91505092959891949750929550565b6000806040838503121561264557612644611d48565b5b600083013567ffffffffffffffff81111561266357612662611d4d565b5b61266f85828601612403565b925050602083013567ffffffffffffffff8111156126905761268f611d4d565b5b61269c858286016120ef565b9150509250929050565b600081519050919050565b600082825260208201905092915050565b6000819050602082019050919050565b6126db81611db0565b82525050565b60006126ed83836126d2565b60208301905092915050565b6000602082019050919050565b6000612711826126a6565b61271b81856126b1565b9350612726836126c2565b8060005b8381101561275757815161273e88826126e1565b9750612749836126f9565b92505060018101905061272a565b5085935050505092915050565b6000602082019050818103600083015261277e8184612706565b905092915050565b6000806040838503121561279d5761279c611d48565b5b60006127ab85828601611d9b565b92505060206127bc85828601612359565b9150509250929050565b600080604083850312156127dd576127dc611d48565b5b600083013567ffffffffffffffff8111156127fb576127fa611d4d565b5b61280785828601612314565b925050602083013567ffffffffffffffff81111561282857612827611d4d565b5b61283485828601612314565b9150509250929050565b6000806040838503121561285557612854611d48565b5b600061286385828601611dd1565b925050602061287485828601611dd1565b9150509250929050565b600081519050919050565b600082825260208201905092915050565b6000819050602082019050919050565b6128b381611d72565b82525050565b60006128c583836128aa565b60208301905092915050565b6000602082019050919050565b60006128e98261287e565b6128f38185612889565b93506128fe8361289a565b8060005b8381101561292f57815161291688826128b9565b9750612921836128d1565b925050600181019050612902565b5085935050505092915050565b6000604082019050818103600083015261295681856128de565b9050818103602083015261296a8184612706565b90509392505050565b600080600080600060a0868803121561298f5761298e611d48565b5b600061299d88828901611d9b565b95505060206129ae88828901611d9b565b94505060406129bf88828901611dd1565b93505060606129d088828901611dd1565b925050608086013567ffffffffffffffff8111156129f1576129f0611d4d565b5b6129fd888289016121a4565b9150509295509295909350565b600080600060608486031215612a2357612a22611d48565b5b6000612a3186828701611d9b565b9350506020612a4286828701611dd1565b9250506040612a5386828701611dd1565b9150509250925092565b7f455243313135353a2062616c616e636520717565727920666f7220746865207a60008201527f65726f2061646472657373000000000000000000000000000000000000000000602082015250565b6000612ab9602b83611f25565b9150612ac482612a5d565b604082019050919050565b60006020820190508181036000830152612ae881612aac565b9050919050565b7f45524331313535466163746f72793a205f746f206d757374206265206e6f6e2d60008201527f7a65726f2e000000000000000000000000000000000000000000000000000000602082015250565b6000612b4b602583611f25565b9150612b5682612aef565b604082019050919050565b60006020820190508181036000830152612b7a81612b3e565b9050919050565b7f4e487b7100000000000000000000000000000000000000000000000000000000600052602260045260246000fd5b60006002820490506001821680612bc857607f821691505b60208210811415612bdc57612bdb612b81565b5b50919050565b7f455243313135353a207472616e736665722063616c6c6572206973206e6f742060008201527f6f776e6572206e6f7220617070726f7665640000000000000000000000000000602082015250565b6000612c3e603283611f25565b9150612c4982612be2565b604082019050919050565b60006020820190508181036000830152612c6d81612c31565b9050919050565b7f455243373231466163746f72793a20556e617574686f72697a6564204163636560008201527f7373210000000000000000000000000000000000000000000000000000000000602082015250565b6000612cd0602383611f25565b9150612cdb82612c74565b604082019050919050565b60006020820190508181036000830152612cff81612cc3565b9050919050565b7f455243313135353a20746865206c656e677468206f6620726f79616c7479206160008201527f6464726573736573206973206e6f7420657175616c20746f20746865206c656e60208201527f677468206f662073686172657300000000000000000000000000000000000000604082015250565b6000612d88604d83611f25565b9150612d9382612d06565b606082019050919050565b60006020820190508181036000830152612db781612d7b565b9050919050565b7f455243313135353a20746f6f206d616e7920726f79616c74792061646472657360008201527f73657320686173206265656e2073657400000000000000000000000000000000602082015250565b6000612e1a603083611f25565b9150612e2582612dbe565b604082019050919050565b60006020820190508181036000830152612e4981612e0d565b9050919050565b7f455243313135353a206163636f756e747320616e6420696473206c656e67746860008201527f206d69736d617463680000000000000000000000000000000000000000000000602082015250565b6000612eac602983611f25565b9150612eb782612e50565b604082019050919050565b60006020820190508181036000830152612edb81612e9f565b9050919050565b7f4e487b7100000000000000000000000000000000000000000000000000000000600052603260045260246000fd5b7f4e487b7100000000000000000000000000000000000000000000000000000000600052601160045260246000fd5b6000612f4b82611db0565b91507fffffffffffffffffffffffffffffffffffffffffffffffffffffffffffffffff821415612f7e57612f7d612f11565b5b600182019050919050565b7f414c52454144595f494e495449414c495a454400000000000000000000000000600082015250565b6000612fbf601383611f25565b9150612fca82612f89565b602082019050919050565b60006020820190508181036000830152612fee81612fb2565b9050919050565b7f494e56414c49445f504152414d53000000000000000000000000000000000000600082015250565b600061302b600e83611f25565b915061303682612ff5565b602082019050919050565b6000602082019050818103600083015261305a8161301e565b9050919050565b7f4d757374206f776e2074686520636f6e74726163742e00000000000000000000600082015250565b6000613097601683611f25565b91506130a282613061565b602082019050919050565b600060208201905081810360008301526130c68161308a565b9050919050565b60006130d882611db0565b91506130e383611db0565b9250817fffffffffffffffffffffffffffffffffffffffffffffffffffffffffffffffff048311821515161561311c5761311b612f11565b5b828202905092915050565b7f4e487b7100000000000000000000000000000000000000000000000000000000600052601260045260246000fd5b600061316182611db0565b915061316c83611db0565b92508261317c5761317b613127565b5b828204905092915050565b7f455243313135353a2069647320616e6420616d6f756e7473206c656e6774682060008201527f6d69736d61746368000000000000000000000000000000000000000000000000602082015250565b60006131e3602883611f25565b91506131ee82613187565b604082019050919050565b60006020820190508181036000830152613212816131d6565b9050919050565b7f455243313135353a207472616e7366657220746f20746865207a65726f20616460008201527f6472657373000000000000000000000000000000000000000000000000000000602082015250565b6000613275602583611f25565b915061328082613219565b604082019050919050565b600060208201905081810360008301526132a481613268565b9050919050565b7f455243313135353a20696e73756666696369656e742062616c616e636520666f60008201527f72207472616e7366657200000000000000000000000000000000000000000000602082015250565b6000613307602a83611f25565b9150613312826132ab565b604082019050919050565b60006020820190508181036000830152613336816132fa565b9050919050565b600061334882611db0565b915061335383611db0565b9250827fffffffffffffffffffffffffffffffffffffffffffffffffffffffffffffffff0382111561338857613387612f11565b5b828201905092915050565b600060408201905081810360008301526133ad8185612706565b905081810360208301526133c18184612706565b90509392505050565b7f455243313135353a206d696e7420746f20746865207a65726f2061646472657360008201527f7300000000000000000000000000000000000000000000000000000000000000602082015250565b6000613426602183611f25565b9150613431826133ca565b604082019050919050565b6000602082019050818103600083015261345581613419565b9050919050565b60006040820190506134716000830185611e26565b61347e6020830184611e26565b9392505050565b7f455243313135353a206275726e2066726f6d20746865207a65726f206164647260008201527f6573730000000000000000000000000000000000000000000000000000000000602082015250565b60006134e1602383611f25565b91506134ec82613485565b604082019050919050565b60006020820190508181036000830152613510816134d4565b9050919050565b7f455243313135353a206275726e20616d6f756e7420657863656564732062616c60008201527f616e636500000000000000000000000000000000000000000000000000000000602082015250565b6000613573602483611f25565b915061357e82613517565b604082019050919050565b600060208201905081810360008301526135a281613566565b9050919050565b6135b281611d72565b82525050565b600081519050919050565b600082825260208201905092915050565b60006135df826135b8565b6135e981856135c3565b93506135f9818560208601611f36565b61360281611f69565b840191505092915050565b600060a08201905061362260008301886135a9565b61362f60208301876135a9565b81810360408301526136418186612706565b905081810360608301526136558185612706565b9050818103608083015261366981846135d4565b90509695505050505050565b60007fffffffff0000000000000000000000000000000000000000000000000000000082169050919050565b6136aa81613675565b81146136b557600080fd5b50565b6000815190506136c7816136a1565b92915050565b6000602082840312156136e3576136e2611d48565b5b60006136f1848285016136b8565b91505092915050565b60008160e01c9050919050565b600060033d11156137265760046000803e6137236000516136fa565b90505b90565b600060443d1015613739576137bc565b613741611d3e565b60043d036004823e80513d602482011167ffffffffffffffff821117156137695750506137bc565b808201805167ffffffffffffffff81111561378757505050506137bc565b80602083010160043d0385018111156137a45750505050506137bc565b6137b382602001850186612009565b82955050505050505b90565b7f455243313135353a207472616e7366657220746f206e6f6e204552433131353560008201527f526563656976657220696d706c656d656e746572000000000000000000000000602082015250565b600061381b603483611f25565b9150613826826137bf565b604082019050919050565b6000602082019050818103600083015261384a8161380e565b9050919050565b7f455243313135353a204552433131353552656365697665722072656a6563746560008201527f6420746f6b656e73000000000000000000000000000000000000000000000000602082015250565b60006138ad602883611f25565b91506138b882613851565b604082019050919050565b600060208201905081810360008301526138dc816138a0565b9050919050565b600060a0820190506138f860008301886135a9565b61390560208301876135a9565b6139126040830186611e26565b61391f6060830185611e26565b818103608083015261393181846135d4565b9050969550505050505056fea2646970667358221220f3c90711141962cf80ca6aa3eb77d00e46fa67ea54e960b10147dcdfc299ca2164736f6c63430008090033",
  "linkReferences": {},
  "deployedLinkReferences": {}
}