{
  "_format": "hh-sol-artifact-1",
  "contractName": "ERC1155Facet",
  "sourceName": "contracts/facets/ERC1155/ERC1155Facet.sol",
  "abi": [
    {
      "anonymous": false,
      "inputs": [
        {
          "indexed": true,
          "internalType": "address",
          "name": "account",
          "type": "address"
        },
        {
          "indexed": true,
          "internalType": "address",
          "name": "operator",
          "type": "address"
        },
        {
          "indexed": false,
          "internalType": "bool",
          "name": "approved",
          "type": "bool"
        }
      ],
      "name": "ApprovalForAll",
      "type": "event"
    },
    {
      "anonymous": false,
      "inputs": [
        {
          "indexed": true,
          "internalType": "address",
          "name": "operator",
          "type": "address"
        },
        {
          "indexed": true,
          "internalType": "address",
          "name": "from",
          "type": "address"
        },
        {
          "indexed": true,
          "internalType": "address",
          "name": "to",
          "type": "address"
        },
        {
          "indexed": false,
          "internalType": "uint256[]",
          "name": "ids",
          "type": "uint256[]"
        },
        {
          "indexed": false,
          "internalType": "uint256[]",
          "name": "values",
          "type": "uint256[]"
        }
      ],
      "name": "TransferBatch",
      "type": "event"
    },
    {
      "anonymous": false,
      "inputs": [
        {
          "indexed": true,
          "internalType": "address",
          "name": "operator",
          "type": "address"
        },
        {
          "indexed": true,
          "internalType": "address",
          "name": "from",
          "type": "address"
        },
        {
          "indexed": true,
          "internalType": "address",
          "name": "to",
          "type": "address"
        },
        {
          "indexed": false,
          "internalType": "uint256",
          "name": "id",
          "type": "uint256"
        },
        {
          "indexed": false,
          "internalType": "uint256",
          "name": "value",
          "type": "uint256"
        }
      ],
      "name": "TransferSingle",
      "type": "event"
    },
    {
      "inputs": [
        {
          "internalType": "address",
          "name": "account",
          "type": "address"
        },
        {
          "internalType": "uint256",
          "name": "id",
          "type": "uint256"
        }
      ],
      "name": "balanceOf",
      "outputs": [
        {
          "internalType": "uint256",
          "name": "",
          "type": "uint256"
        }
      ],
      "stateMutability": "view",
      "type": "function"
    },
    {
      "inputs": [
        {
          "internalType": "address[]",
          "name": "accounts",
          "type": "address[]"
        },
        {
          "internalType": "uint256[]",
          "name": "ids",
          "type": "uint256[]"
        }
      ],
      "name": "balanceOfBatch",
      "outputs": [
        {
          "internalType": "uint256[]",
          "name": "",
          "type": "uint256[]"
        }
      ],
      "stateMutability": "view",
      "type": "function"
    },
    {
      "inputs": [
        {
          "internalType": "address",
          "name": "from",
          "type": "address"
        },
        {
          "internalType": "address",
          "name": "to",
          "type": "address"
        },
        {
          "internalType": "uint256[]",
          "name": "ids",
          "type": "uint256[]"
        },
        {
          "internalType": "uint256[]",
          "name": "amounts",
          "type": "uint256[]"
        },
        {
          "internalType": "bytes",
          "name": "data",
          "type": "bytes"
        }
      ],
      "name": "safeBatchTransferFrom",
      "outputs": [],
      "stateMutability": "nonpayable",
      "type": "function"
    },
    {
      "inputs": [
        {
          "internalType": "address",
          "name": "from",
          "type": "address"
        },
        {
          "internalType": "address",
          "name": "to",
          "type": "address"
        },
        {
          "internalType": "uint256",
          "name": "id",
          "type": "uint256"
        },
        {
          "internalType": "uint256",
          "name": "amount",
          "type": "uint256"
        },
        {
          "internalType": "bytes",
          "name": "data",
          "type": "bytes"
        }
      ],
      "name": "safeTransferFrom",
      "outputs": [],
      "stateMutability": "nonpayable",
      "type": "function"
    },
    {
      "inputs": [
        {
          "internalType": "address",
          "name": "operator",
          "type": "address"
        },
        {
          "internalType": "bool",
          "name": "approved",
          "type": "bool"
        }
      ],
      "name": "setApprovalForAll",
      "outputs": [],
      "stateMutability": "nonpayable",
      "type": "function"
    },
    {
      "inputs": [
        {
          "internalType": "uint256",
          "name": "",
          "type": "uint256"
        }
      ],
      "name": "uri",
      "outputs": [
        {
          "internalType": "string",
          "name": "",
          "type": "string"
        }
      ],
      "stateMutability": "view",
      "type": "function"
    }
  ],
  "bytecode": "0x608060405234801561001057600080fd5b5061219d806100206000396000f3fe608060405234801561001057600080fd5b50600436106100615760003560e01c8062fdd58e146100665780630e89341c146100965780632eb2c2d6146100c65780634e1273f4146100e2578063a22cb46514610112578063f242432a1461012e575b600080fd5b610080600480360381019061007b9190611137565b61014a565b60405161008d9190611186565b60405180910390f35b6100b060048036038101906100ab91906111a1565b610223565b6040516100bd9190611267565b60405180910390f35b6100e060048036038101906100db9190611486565b6102c6565b005b6100fc60048036038101906100f79190611618565b6103ea565b604051610109919061174e565b60405180910390f35b61012c600480360381019061012791906117a8565b610503565b005b610148600480360381019061014391906117e8565b610611565b005b60008073ffffffffffffffffffffffffffffffffffffffff168373ffffffffffffffffffffffffffffffffffffffff1614156101bb576040517f08c379a00000000000000000000000000000000000000000000000000000000081526004016101b2906118f1565b60405180910390fd5b60006101c5610625565b905080600201600084815260200190815260200160002060008573ffffffffffffffffffffffffffffffffffffffff1673ffffffffffffffffffffffffffffffffffffffff1681526020019081526020016000205491505092915050565b6060600061022f610625565b905080600301805461024090611940565b80601f016020809104026020016040519081016040528092919081815260200182805461026c90611940565b80156102b95780601f1061028e576101008083540402835291602001916102b9565b820191906000526020600020905b81548152906001019060200180831161029c57829003601f168201915b5050505050915050919050565b6102ce610652565b73ffffffffffffffffffffffffffffffffffffffff168573ffffffffffffffffffffffffffffffffffffffff1614806103975750600060010160008673ffffffffffffffffffffffffffffffffffffffff1673ffffffffffffffffffffffffffffffffffffffff168152602001908152602001600020600061034e610652565b73ffffffffffffffffffffffffffffffffffffffff1673ffffffffffffffffffffffffffffffffffffffff16815260200190815260200160002060009054906101000a900460ff165b6103d6576040517f08c379a00000000000000000000000000000000000000000000000000000000081526004016103cd906119e4565b60405180910390fd5b6103e3858585858561065a565b5050505050565b60608151835114610430576040517f08c379a000000000000000000000000000000000000000000000000000000000815260040161042790611a76565b60405180910390fd5b6000835167ffffffffffffffff81111561044d5761044c61128e565b5b60405190808252806020026020018201604052801561047b5781602001602082028036833780820191505090505b50905060005b84518110156104f8576104c88582815181106104a05761049f611a96565b5b60200260200101518583815181106104bb576104ba611a96565b5b602002602001015161014a565b8282815181106104db576104da611a96565b5b602002602001018181525050806104f190611af4565b9050610481565b508091505092915050565b8060006001016000610513610652565b73ffffffffffffffffffffffffffffffffffffffff1673ffffffffffffffffffffffffffffffffffffffff16815260200190815260200160002060008473ffffffffffffffffffffffffffffffffffffffff1673ffffffffffffffffffffffffffffffffffffffff16815260200190815260200160002060006101000a81548160ff0219169083151502179055508173ffffffffffffffffffffffffffffffffffffffff166105c0610652565b73ffffffffffffffffffffffffffffffffffffffff167f17307eab39ab6107e8899845ad3d59bd9653f200f220920489ca2b5937696c31836040516106059190611b4c565b60405180910390a35050565b61061e8585858585610984565b5050505050565b6000807fd1fd1ec9eb6f457e5e32da0d2921ff6daf7fd2085ec060a076b391ca2400b28290508091505090565b600033905090565b815183511461069e576040517f08c379a000000000000000000000000000000000000000000000000000000000815260040161069590611bd9565b60405180910390fd5b600073ffffffffffffffffffffffffffffffffffffffff168473ffffffffffffffffffffffffffffffffffffffff16141561070e576040517f08c379a000000000000000000000000000000000000000000000000000000000815260040161070590611c6b565b60405180910390fd5b6000610718610652565b9050610728818787878787610c1c565b6000610732610625565b905060005b85518110156108ee57600086828151811061075557610754611a96565b5b60200260200101519050600086838151811061077457610773611a96565b5b60200260200101519050600084600201600084815260200190815260200160002060008c73ffffffffffffffffffffffffffffffffffffffff1673ffffffffffffffffffffffffffffffffffffffff16815260200190815260200160002054905081811015610818576040517f08c379a000000000000000000000000000000000000000000000000000000000815260040161080f90611cfd565b60405180910390fd5b81810385600201600085815260200190815260200160002060008d73ffffffffffffffffffffffffffffffffffffffff1673ffffffffffffffffffffffffffffffffffffffff168152602001908152602001600020819055508185600201600085815260200190815260200160002060008c73ffffffffffffffffffffffffffffffffffffffff1673ffffffffffffffffffffffffffffffffffffffff16815260200190815260200160002060008282546108d39190611d1d565b92505081905550505050806108e790611af4565b9050610737565b508573ffffffffffffffffffffffffffffffffffffffff168773ffffffffffffffffffffffffffffffffffffffff168373ffffffffffffffffffffffffffffffffffffffff167f4a39dc06d4c0dbc64b70af90fd698a233a518aa5d07e595d983b8c0526c8f7fb8888604051610965929190611d73565b60405180910390a461097b828888888888610c24565b50505050505050565b600073ffffffffffffffffffffffffffffffffffffffff168473ffffffffffffffffffffffffffffffffffffffff1614156109f4576040517f08c379a00000000000000000000000000000000000000000000000000000000081526004016109eb90611c6b565b60405180910390fd5b60006109fe610652565b9050610a1e818787610a0f88610e0b565b610a1888610e0b565b87610c1c565b6000610a28610625565b9050600081600201600087815260200190815260200160002060008973ffffffffffffffffffffffffffffffffffffffff1673ffffffffffffffffffffffffffffffffffffffff16815260200190815260200160002054905084811015610ac4576040517f08c379a0000000000000000000000000000000000000000000000000000000008152600401610abb90611cfd565b60405180910390fd5b84810382600201600088815260200190815260200160002060008a73ffffffffffffffffffffffffffffffffffffffff1673ffffffffffffffffffffffffffffffffffffffff168152602001908152602001600020819055508482600201600088815260200190815260200160002060008973ffffffffffffffffffffffffffffffffffffffff1673ffffffffffffffffffffffffffffffffffffffff1681526020019081526020016000206000828254610b7f9190611d1d565b925050819055508673ffffffffffffffffffffffffffffffffffffffff168873ffffffffffffffffffffffffffffffffffffffff168473ffffffffffffffffffffffffffffffffffffffff167fc3d58168c5ae7397731d063d5bbf3d657854427343f4c083240f7aacaa2d0f628989604051610bfc929190611daa565b60405180910390a4610c12838989898989610e85565b5050505050505050565b505050505050565b610c438473ffffffffffffffffffffffffffffffffffffffff1661106c565b15610e03578373ffffffffffffffffffffffffffffffffffffffff1663bc197c8187878686866040518663ffffffff1660e01b8152600401610c89959493929190611e37565b602060405180830381600087803b158015610ca357600080fd5b505af1925050508015610cd457506040513d601f19601f82011682018060405250810190610cd19190611ef7565b60015b610d7a57610ce0611f31565b806308c379a01415610d3d5750610cf5611f53565b80610d005750610d3f565b806040517f08c379a0000000000000000000000000000000000000000000000000000000008152600401610d349190611267565b60405180910390fd5b505b6040517f08c379a0000000000000000000000000000000000000000000000000000000008152600401610d719061205b565b60405180910390fd5b63bc197c8160e01b7bffffffffffffffffffffffffffffffffffffffffffffffffffffffff1916817bffffffffffffffffffffffffffffffffffffffffffffffffffffffff191614610e01576040517f08c379a0000000000000000000000000000000000000000000000000000000008152600401610df8906120ed565b60405180910390fd5b505b505050505050565b60606000600167ffffffffffffffff811115610e2a57610e2961128e565b5b604051908082528060200260200182016040528015610e585781602001602082028036833780820191505090505b5090508281600081518110610e7057610e6f611a96565b5b60200260200101818152505080915050919050565b610ea48473ffffffffffffffffffffffffffffffffffffffff1661106c565b15611064578373ffffffffffffffffffffffffffffffffffffffff1663f23a6e6187878686866040518663ffffffff1660e01b8152600401610eea95949392919061210d565b602060405180830381600087803b158015610f0457600080fd5b505af1925050508015610f3557506040513d601f19601f82011682018060405250810190610f329190611ef7565b60015b610fdb57610f41611f31565b806308c379a01415610f9e5750610f56611f53565b80610f615750610fa0565b806040517f08c379a0000000000000000000000000000000000000000000000000000000008152600401610f959190611267565b60405180910390fd5b505b6040517f08c379a0000000000000000000000000000000000000000000000000000000008152600401610fd29061205b565b60405180910390fd5b63f23a6e6160e01b7bffffffffffffffffffffffffffffffffffffffffffffffffffffffff1916817bffffffffffffffffffffffffffffffffffffffffffffffffffffffff191614611062576040517f08c379a0000000000000000000000000000000000000000000000000000000008152600401611059906120ed565b60405180910390fd5b505b505050505050565b6000808273ffffffffffffffffffffffffffffffffffffffff163b119050919050565b6000604051905090565b600080fd5b600080fd5b600073ffffffffffffffffffffffffffffffffffffffff82169050919050565b60006110ce826110a3565b9050919050565b6110de816110c3565b81146110e957600080fd5b50565b6000813590506110fb816110d5565b92915050565b6000819050919050565b61111481611101565b811461111f57600080fd5b50565b6000813590506111318161110b565b92915050565b6000806040838503121561114e5761114d611099565b5b600061115c858286016110ec565b925050602061116d85828601611122565b9150509250929050565b61118081611101565b82525050565b600060208201905061119b6000830184611177565b92915050565b6000602082840312156111b7576111b6611099565b5b60006111c584828501611122565b91505092915050565b600081519050919050565b600082825260208201905092915050565b60005b838110156112085780820151818401526020810190506111ed565b83811115611217576000848401525b50505050565b6000601f19601f8301169050919050565b6000611239826111ce565b61124381856111d9565b93506112538185602086016111ea565b61125c8161121d565b840191505092915050565b60006020820190508181036000830152611281818461122e565b905092915050565b600080fd5b7f4e487b7100000000000000000000000000000000000000000000000000000000600052604160045260246000fd5b6112c68261121d565b810181811067ffffffffffffffff821117156112e5576112e461128e565b5b80604052505050565b60006112f861108f565b905061130482826112bd565b919050565b600067ffffffffffffffff8211156113245761132361128e565b5b602082029050602081019050919050565b600080fd5b600061134d61134884611309565b6112ee565b905080838252602082019050602084028301858111156113705761136f611335565b5b835b8181101561139957806113858882611122565b845260208401935050602081019050611372565b5050509392505050565b600082601f8301126113b8576113b7611289565b5b81356113c884826020860161133a565b91505092915050565b600080fd5b600067ffffffffffffffff8211156113f1576113f061128e565b5b6113fa8261121d565b9050602081019050919050565b82818337600083830152505050565b6000611429611424846113d6565b6112ee565b905082815260208101848484011115611445576114446113d1565b5b611450848285611407565b509392505050565b600082601f83011261146d5761146c611289565b5b813561147d848260208601611416565b91505092915050565b600080600080600060a086880312156114a2576114a1611099565b5b60006114b0888289016110ec565b95505060206114c1888289016110ec565b945050604086013567ffffffffffffffff8111156114e2576114e161109e565b5b6114ee888289016113a3565b935050606086013567ffffffffffffffff81111561150f5761150e61109e565b5b61151b888289016113a3565b925050608086013567ffffffffffffffff81111561153c5761153b61109e565b5b61154888828901611458565b9150509295509295909350565b600067ffffffffffffffff8211156115705761156f61128e565b5b602082029050602081019050919050565b600061159461158f84611555565b6112ee565b905080838252602082019050602084028301858111156115b7576115b6611335565b5b835b818110156115e057806115cc88826110ec565b8452602084019350506020810190506115b9565b5050509392505050565b600082601f8301126115ff576115fe611289565b5b813561160f848260208601611581565b91505092915050565b6000806040838503121561162f5761162e611099565b5b600083013567ffffffffffffffff81111561164d5761164c61109e565b5b611659858286016115ea565b925050602083013567ffffffffffffffff81111561167a5761167961109e565b5b611686858286016113a3565b9150509250929050565b600081519050919050565b600082825260208201905092915050565b6000819050602082019050919050565b6116c581611101565b82525050565b60006116d783836116bc565b60208301905092915050565b6000602082019050919050565b60006116fb82611690565b611705818561169b565b9350611710836116ac565b8060005b8381101561174157815161172888826116cb565b9750611733836116e3565b925050600181019050611714565b5085935050505092915050565b6000602082019050818103600083015261176881846116f0565b905092915050565b60008115159050919050565b61178581611770565b811461179057600080fd5b50565b6000813590506117a28161177c565b92915050565b600080604083850312156117bf576117be611099565b5b60006117cd858286016110ec565b92505060206117de85828601611793565b9150509250929050565b600080600080600060a0868803121561180457611803611099565b5b6000611812888289016110ec565b9550506020611823888289016110ec565b945050604061183488828901611122565b935050606061184588828901611122565b925050608086013567ffffffffffffffff8111156118665761186561109e565b5b61187288828901611458565b9150509295509295909350565b7f455243313135353a2062616c616e636520717565727920666f7220746865207a60008201527f65726f2061646472657373000000000000000000000000000000000000000000602082015250565b60006118db602b836111d9565b91506118e68261187f565b604082019050919050565b6000602082019050818103600083015261190a816118ce565b9050919050565b7f4e487b7100000000000000000000000000000000000000000000000000000000600052602260045260246000fd5b6000600282049050600182168061195857607f821691505b6020821081141561196c5761196b611911565b5b50919050565b7f455243313135353a207472616e736665722063616c6c6572206973206e6f742060008201527f6f776e6572206e6f7220617070726f7665640000000000000000000000000000602082015250565b60006119ce6032836111d9565b91506119d982611972565b604082019050919050565b600060208201905081810360008301526119fd816119c1565b9050919050565b7f455243313135353a206163636f756e747320616e6420696473206c656e67746860008201527f206d69736d617463680000000000000000000000000000000000000000000000602082015250565b6000611a606029836111d9565b9150611a6b82611a04565b604082019050919050565b60006020820190508181036000830152611a8f81611a53565b9050919050565b7f4e487b7100000000000000000000000000000000000000000000000000000000600052603260045260246000fd5b7f4e487b7100000000000000000000000000000000000000000000000000000000600052601160045260246000fd5b6000611aff82611101565b91507fffffffffffffffffffffffffffffffffffffffffffffffffffffffffffffffff821415611b3257611b31611ac5565b5b600182019050919050565b611b4681611770565b82525050565b6000602082019050611b616000830184611b3d565b92915050565b7f455243313135353a2069647320616e6420616d6f756e7473206c656e6774682060008201527f6d69736d61746368000000000000000000000000000000000000000000000000602082015250565b6000611bc36028836111d9565b9150611bce82611b67565b604082019050919050565b60006020820190508181036000830152611bf281611bb6565b9050919050565b7f455243313135353a207472616e7366657220746f20746865207a65726f20616460008201527f6472657373000000000000000000000000000000000000000000000000000000602082015250565b6000611c556025836111d9565b9150611c6082611bf9565b604082019050919050565b60006020820190508181036000830152611c8481611c48565b9050919050565b7f455243313135353a20696e73756666696369656e742062616c616e636520666f60008201527f72207472616e7366657200000000000000000000000000000000000000000000602082015250565b6000611ce7602a836111d9565b9150611cf282611c8b565b604082019050919050565b60006020820190508181036000830152611d1681611cda565b9050919050565b6000611d2882611101565b9150611d3383611101565b9250827fffffffffffffffffffffffffffffffffffffffffffffffffffffffffffffffff03821115611d6857611d67611ac5565b5b828201905092915050565b60006040820190508181036000830152611d8d81856116f0565b90508181036020830152611da181846116f0565b90509392505050565b6000604082019050611dbf6000830185611177565b611dcc6020830184611177565b9392505050565b611ddc816110c3565b82525050565b600081519050919050565b600082825260208201905092915050565b6000611e0982611de2565b611e138185611ded565b9350611e238185602086016111ea565b611e2c8161121d565b840191505092915050565b600060a082019050611e4c6000830188611dd3565b611e596020830187611dd3565b8181036040830152611e6b81866116f0565b90508181036060830152611e7f81856116f0565b90508181036080830152611e938184611dfe565b90509695505050505050565b60007fffffffff0000000000000000000000000000000000000000000000000000000082169050919050565b611ed481611e9f565b8114611edf57600080fd5b50565b600081519050611ef181611ecb565b92915050565b600060208284031215611f0d57611f0c611099565b5b6000611f1b84828501611ee2565b91505092915050565b60008160e01c9050919050565b600060033d1115611f505760046000803e611f4d600051611f24565b90505b90565b600060443d1015611f6357611fe6565b611f6b61108f565b60043d036004823e80513d602482011167ffffffffffffffff82111715611f93575050611fe6565b808201805167ffffffffffffffff811115611fb15750505050611fe6565b80602083010160043d038501811115611fce575050505050611fe6565b611fdd826020018501866112bd565b82955050505050505b90565b7f455243313135353a207472616e7366657220746f206e6f6e204552433131353560008201527f526563656976657220696d706c656d656e746572000000000000000000000000602082015250565b60006120456034836111d9565b915061205082611fe9565b604082019050919050565b6000602082019050818103600083015261207481612038565b9050919050565b7f455243313135353a204552433131353552656365697665722072656a6563746560008201527f6420746f6b656e73000000000000000000000000000000000000000000000000602082015250565b60006120d76028836111d9565b91506120e28261207b565b604082019050919050565b60006020820190508181036000830152612106816120ca565b9050919050565b600060a0820190506121226000830188611dd3565b61212f6020830187611dd3565b61213c6040830186611177565b6121496060830185611177565b818103608083015261215b8184611dfe565b9050969550505050505056fea2646970667358221220b2c022dac162c2eea9e75f737d52658607fb81c2727cc25d03381af72d0bd8ef64736f6c63430008090033",
  "linkReferences": {},
  "deployedLinkReferences": {}
}