{
  "_format": "hh-sol-artifact-1",
  "contractName": "MediaFacet",
  "sourceName": "contracts/facets/Media/MediaFacet.sol",
  "abi": [
    {
      "inputs": [
        {
          "internalType": "string",
          "name": "_contractType",
          "type": "string"
        },
        {
          "internalType": "address",
          "name": "_nftContAddress",
          "type": "address"
        },
        {
          "internalType": "address",
          "name": "_currencyAddress",
          "type": "address"
        },
        {
          "internalType": "address",
          "name": "_seller",
          "type": "address"
        },
        {
          "internalType": "address",
          "name": "_bidder",
          "type": "address"
        },
        {
          "internalType": "uint256",
          "name": "_tokenID",
          "type": "uint256"
        },
        {
          "internalType": "uint256",
          "name": "_bid",
          "type": "uint256"
        },
        {
          "internalType": "uint256",
          "name": "_copies",
          "type": "uint256"
        },
        {
          "internalType": "bytes",
          "name": "_bidderSig",
          "type": "bytes"
        },
        {
          "internalType": "bytes",
          "name": "_sellerSig",
          "type": "bytes"
        }
      ],
      "name": "acceptBidMedia",
      "outputs": [],
      "stateMutability": "nonpayable",
      "type": "function"
    },
    {
      "inputs": [],
      "name": "approveMarketForAllMedia",
      "outputs": [],
      "stateMutability": "nonpayable",
      "type": "function"
    },
    {
      "inputs": [
        {
          "internalType": "uint256",
          "name": "_tokenID",
          "type": "uint256"
        },
        {
          "internalType": "string",
          "name": "_contractType",
          "type": "string"
        },
        {
          "internalType": "uint256",
          "name": "amount",
          "type": "uint256"
        }
      ],
      "name": "burnTokenMedia",
      "outputs": [],
      "stateMutability": "nonpayable",
      "type": "function"
    },
    {
      "inputs": [],
      "name": "getAdminCommissionPercentageMedia",
      "outputs": [
        {
          "internalType": "uint96",
          "name": "",
          "type": "uint96"
        }
      ],
      "stateMutability": "view",
      "type": "function"
    },
    {
      "inputs": [
        {
          "internalType": "address",
          "name": "_currencyAddress",
          "type": "address"
        }
      ],
      "name": "getApprovedCryptoMedia",
      "outputs": [
        {
          "internalType": "bool",
          "name": "",
          "type": "bool"
        }
      ],
      "stateMutability": "view",
      "type": "function"
    },
    {
      "inputs": [
        {
          "internalType": "address",
          "name": "_nftAddress",
          "type": "address"
        },
        {
          "internalType": "uint256",
          "name": "_tokenID",
          "type": "uint256"
        }
      ],
      "name": "getCollaboratorsMedia",
      "outputs": [
        {
          "components": [
            {
              "internalType": "address[]",
              "name": "collaborators",
              "type": "address[]"
            },
            {
              "internalType": "uint96[]",
              "name": "collabFraction",
              "type": "uint96[]"
            }
          ],
          "internalType": "struct LibMarketStorage.Collaborators",
          "name": "",
          "type": "tuple"
        }
      ],
      "stateMutability": "view",
      "type": "function"
    },
    {
      "inputs": [
        {
          "internalType": "uint256",
          "name": "_tokenID",
          "type": "uint256"
        },
        {
          "internalType": "string",
          "name": "_contractType",
          "type": "string"
        }
      ],
      "name": "istokenIdExistMedia",
      "outputs": [
        {
          "internalType": "bool",
          "name": "",
          "type": "bool"
        }
      ],
      "stateMutability": "view",
      "type": "function"
    },
    {
      "inputs": [
        {
          "internalType": "address",
          "name": "_diamondAddress",
          "type": "address"
        }
      ],
      "name": "mediaFacetInit",
      "outputs": [],
      "stateMutability": "nonpayable",
      "type": "function"
    },
    {
      "inputs": [
        {
          "internalType": "address",
          "name": "_to",
          "type": "address"
        },
        {
          "internalType": "uint256",
          "name": "_id",
          "type": "uint256"
        },
        {
          "internalType": "string",
          "name": "_contractType",
          "type": "string"
        },
        {
          "internalType": "uint256",
          "name": "_copies",
          "type": "uint256"
        },
        {
          "internalType": "string",
          "name": "_uri",
          "type": "string"
        },
        {
          "internalType": "bool",
          "name": "tokenRoyalty",
          "type": "bool"
        },
        {
          "internalType": "address[]",
          "name": "_royaltyReceivers",
          "type": "address[]"
        },
        {
          "internalType": "uint96[]",
          "name": "_tokenRoyaltyInBips",
          "type": "uint96[]"
        }
      ],
      "name": "mintTokenMedia",
      "outputs": [
        {
          "internalType": "uint256",
          "name": "",
          "type": "uint256"
        }
      ],
      "stateMutability": "nonpayable",
      "type": "function"
    },
    {
      "inputs": [
        {
          "internalType": "address",
          "name": "_currencyAddress",
          "type": "address"
        },
        {
          "internalType": "bool",
          "name": "approving",
          "type": "bool"
        }
      ],
      "name": "setApprovedCryptoMedia",
      "outputs": [],
      "stateMutability": "nonpayable",
      "type": "function"
    },
    {
      "inputs": [
        {
          "internalType": "address",
          "name": "_nftAddress",
          "type": "address"
        },
        {
          "internalType": "uint256",
          "name": "_tokenID",
          "type": "uint256"
        },
        {
          "internalType": "address[]",
          "name": "_collaborators",
          "type": "address[]"
        },
        {
          "internalType": "uint96[]",
          "name": "_collabFraction",
          "type": "uint96[]"
        }
      ],
      "name": "setCollaboratorsMedia",
      "outputs": [],
      "stateMutability": "nonpayable",
      "type": "function"
    },
    {
      "inputs": [
        {
          "internalType": "uint96",
          "name": "_newCommissionPercentage",
          "type": "uint96"
        }
      ],
      "name": "setCommissionPercentageMedia",
      "outputs": [
        {
          "internalType": "bool",
          "name": "",
          "type": "bool"
        }
      ],
      "stateMutability": "nonpayable",
      "type": "function"
    }
  ],
  "bytecode": "0x608060405234801561001057600080fd5b50612d88806100206000396000f3fe608060405234801561001057600080fd5b50600436106100b45760003560e01c80638c4e3295116100715780638c4e32951461017957806393d16b74146101a9578063b5f06d6d146101c5578063bb5b4bdb146101e1578063bfbff05f14610211578063c0b4f4391461022d576100b4565b80632dd1aca5146100b957806332c03468146100e957806333257b1c1461010557806345b13312146101355780636000c41b1461015157806376197b1e1461015b575b600080fd5b6100d360048036038101906100ce9190611aad565b61025d565b6040516100e09190612619565b60405180910390f35b61010360048036038101906100fe9190611986565b610424565b005b61011f600480360381019061011a91906119c6565b6105d5565b60405161012c91906125f7565b60405180910390f35b61014f600480360381019061014a9190611de1565b6106a6565b005b610159610880565b005b610163610945565b6040516101709190612736565b60405180910390f35b610193600480360381019061018e919061192c565b6109fa565b6040516101a0919061242b565b60405180910390f35b6101c360048036038101906101be9190611c09565b610abc565b005b6101df60048036038101906101da919061192c565b610b76565b005b6101fb60048036038101906101f69190611e50565b610dae565b604051610208919061242b565b60405180910390f35b61022b60048036038101906102269190611a06565b611028565b005b61024760048036038101906102429190611d85565b6113b9565b604051610254919061242b565b60405180910390f35b6000806102686114d5565b9050600060405160200161027b9061231b565b604051602081830303815290604052805190602001208b6040516020016102a291906122ef565b60405160208183030381529060405280519060200120146102c45760006102c7565b60015b90508015610373578160000160009054906101000a900473ffffffffffffffffffffffffffffffffffffffff1673ffffffffffffffffffffffffffffffffffffffff16634135c7838d8f8d8d8d8d8d8d8d6040518a63ffffffff1660e01b815260040161033c999897969594939291906126ae565b600060405180830381600087803b15801561035657600080fd5b505af115801561036a573d6000803e3d6000fd5b50505050610411565b8160000160009054906101000a900473ffffffffffffffffffffffffffffffffffffffff1673ffffffffffffffffffffffffffffffffffffffff1663ed795a248d8f8c8c8c8c8c8c6040518963ffffffff1660e01b81526004016103de989796959493929190612634565b600060405180830381600087803b1580156103f857600080fd5b505af115801561040c573d6000803e3d6000fd5b505050505b8b925050509a9950505050505050505050565b600061042e6114d5565b90508060000160009054906101000a900473ffffffffffffffffffffffffffffffffffffffff1673ffffffffffffffffffffffffffffffffffffffff1663b2e6b9126040518163ffffffff1660e01b815260040160206040518083038186803b15801561049a57600080fd5b505afa1580156104ae573d6000803e3d6000fd5b505050506040513d601f19601f820116820180604052508101906104d29190611959565b73ffffffffffffffffffffffffffffffffffffffff163373ffffffffffffffffffffffffffffffffffffffff161461053f576040517f08c379a000000000000000000000000000000000000000000000000000000000815260040161053690612537565b60405180910390fd5b8060000160009054906101000a900473ffffffffffffffffffffffffffffffffffffffff1673ffffffffffffffffffffffffffffffffffffffff1663dccf625384846040518363ffffffff1660e01b815260040161059e92919061234b565b600060405180830381600087803b1580156105b857600080fd5b505af11580156105cc573d6000803e3d6000fd5b50505050505050565b6105dd61152f565b60006105e76114d5565b90508060000160009054906101000a900473ffffffffffffffffffffffffffffffffffffffff1673ffffffffffffffffffffffffffffffffffffffff1663107262b185856040518363ffffffff1660e01b8152600401610648929190612374565b60006040518083038186803b15801561066057600080fd5b505afa158015610674573d6000803e3d6000fd5b505050506040513d6000823e3d601f19601f8201168201806040525081019061069d9190611d3c565b91505092915050565b60006106b06114d5565b90506040516020016106c190612306565b60405160208183030381529060405280519060200120836040516020016106e891906122ef565b604051602081830303815290604052805190602001201415610794578060000160009054906101000a900473ffffffffffffffffffffffffffffffffffffffff1673ffffffffffffffffffffffffffffffffffffffff166342966c68856040518263ffffffff1660e01b81526004016107619190612619565b600060405180830381600087803b15801561077b57600080fd5b505af115801561078f573d6000803e3d6000fd5b505050505b6040516020016107a39061231b565b60405160208183030381529060405280519060200120836040516020016107ca91906122ef565b60405160208183030381529060405280519060200120141561087a578060000160009054906101000a900473ffffffffffffffffffffffffffffffffffffffff1673ffffffffffffffffffffffffffffffffffffffff1663f5298aca3386856040518463ffffffff1660e01b8152600401610847939291906123f4565b600060405180830381600087803b15801561086157600080fd5b505af1158015610875573d6000803e3d6000fd5b505050505b50505050565b600061088a6114d5565b90508060000160009054906101000a900473ffffffffffffffffffffffffffffffffffffffff1673ffffffffffffffffffffffffffffffffffffffff1663a22cb4658260000160009054906101000a900473ffffffffffffffffffffffffffffffffffffffff1660016040518363ffffffff1660e01b815260040161091092919061234b565b600060405180830381600087803b15801561092a57600080fd5b505af115801561093e573d6000803e3d6000fd5b5050505050565b6000806109506114d5565b90508060000160009054906101000a900473ffffffffffffffffffffffffffffffffffffffff1673ffffffffffffffffffffffffffffffffffffffff1663a5dbd8146040518163ffffffff1660e01b815260040160206040518083038186803b1580156109bc57600080fd5b505afa1580156109d0573d6000803e3d6000fd5b505050506040513d601f19601f820116820180604052508101906109f49190611e7d565b91505090565b600080610a056114d5565b90508060000160009054906101000a900473ffffffffffffffffffffffffffffffffffffffff1673ffffffffffffffffffffffffffffffffffffffff166384c6ba57846040518263ffffffff1660e01b8152600401610a649190612330565b60206040518083038186803b158015610a7c57600080fd5b505afa158015610a90573d6000803e3d6000fd5b505050506040513d601f19601f82011682018060405250810190610ab49190611bdc565b915050919050565b6000610ac66114d5565b90508060000160009054906101000a900473ffffffffffffffffffffffffffffffffffffffff1673ffffffffffffffffffffffffffffffffffffffff16639e9666d98c8c8c8c8c8c8c8c8c8c6040518b63ffffffff1660e01b8152600401610b379a99989796959493929190612446565b600060405180830381600087803b158015610b5157600080fd5b505af1158015610b65573d6000803e3d6000fd5b505050505050505050505050505050565b6000610b80611502565b90506000610b8c6114d5565b9050600073ffffffffffffffffffffffffffffffffffffffff168160000160009054906101000a900473ffffffffffffffffffffffffffffffffffffffff1673ffffffffffffffffffffffffffffffffffffffff1614610c21576040517f08c379a0000000000000000000000000000000000000000000000000000000008152600401610c1890612557565b60405180910390fd5b600073ffffffffffffffffffffffffffffffffffffffff168373ffffffffffffffffffffffffffffffffffffffff161415610c91576040517f08c379a0000000000000000000000000000000000000000000000000000000008152600401610c88906125d7565b60405180910390fd5b8160040160009054906101000a900473ffffffffffffffffffffffffffffffffffffffff1673ffffffffffffffffffffffffffffffffffffffff163373ffffffffffffffffffffffffffffffffffffffff1614610d23576040517f08c379a0000000000000000000000000000000000000000000000000000000008152600401610d1a90612517565b60405180910390fd5b828160000160006101000a81548173ffffffffffffffffffffffffffffffffffffffff021916908373ffffffffffffffffffffffffffffffffffffffff160217905550826000800160006101000a81548173ffffffffffffffffffffffffffffffffffffffff021916908373ffffffffffffffffffffffffffffffffffffffff160217905550505050565b600080610db96114d5565b90508060000160009054906101000a900473ffffffffffffffffffffffffffffffffffffffff1673ffffffffffffffffffffffffffffffffffffffff1663b2e6b9126040518163ffffffff1660e01b815260040160206040518083038186803b158015610e2557600080fd5b505afa158015610e39573d6000803e3d6000fd5b505050506040513d601f19601f82011682018060405250810190610e5d9190611959565b73ffffffffffffffffffffffffffffffffffffffff163373ffffffffffffffffffffffffffffffffffffffff1614610eca576040517f08c379a0000000000000000000000000000000000000000000000000000000008152600401610ec1906124f7565b60405180910390fd5b6000836bffffffffffffffffffffffff1611610f1b576040517f08c379a0000000000000000000000000000000000000000000000000000000008152600401610f12906125b7565b60405180910390fd5b612710836bffffffffffffffffffffffff161115610f6e576040517f08c379a0000000000000000000000000000000000000000000000000000000008152600401610f6590612597565b60405180910390fd5b8060000160009054906101000a900473ffffffffffffffffffffffffffffffffffffffff1673ffffffffffffffffffffffffffffffffffffffff16634a5ececd846040518263ffffffff1660e01b8152600401610fcb9190612736565b602060405180830381600087803b158015610fe557600080fd5b505af1158015610ff9573d6000803e3d6000fd5b505050506040513d601f19601f8201168201806040525081019061101d9190611bdc565b506001915050919050565b60006110326114d5565b90508060000160009054906101000a900473ffffffffffffffffffffffffffffffffffffffff1673ffffffffffffffffffffffffffffffffffffffff168773ffffffffffffffffffffffffffffffffffffffff161415611220573373ffffffffffffffffffffffffffffffffffffffff168773ffffffffffffffffffffffffffffffffffffffff16636352211e886040518263ffffffff1660e01b81526004016110dc9190612619565b60206040518083038186803b1580156110f457600080fd5b505afa158015611108573d6000803e3d6000fd5b505050506040513d601f19601f8201168201806040525081019061112c9190611959565b73ffffffffffffffffffffffffffffffffffffffff1614611182576040517f08c379a000000000000000000000000000000000000000000000000000000000815260040161117990612577565b60405180910390fd5b8060000160009054906101000a900473ffffffffffffffffffffffffffffffffffffffff1673ffffffffffffffffffffffffffffffffffffffff166372b360a68888888888886040518763ffffffff1660e01b81526004016111e99695949392919061239d565b600060405180830381600087803b15801561120357600080fd5b505af1158015611217573d6000803e3d6000fd5b505050506113b0565b3373ffffffffffffffffffffffffffffffffffffffff168773ffffffffffffffffffffffffffffffffffffffff16636352211e886040518263ffffffff1660e01b81526004016112709190612619565b60206040518083038186803b15801561128857600080fd5b505afa15801561129c573d6000803e3d6000fd5b505050506040513d601f19601f820116820180604052508101906112c09190611959565b73ffffffffffffffffffffffffffffffffffffffff1614611316576040517f08c379a000000000000000000000000000000000000000000000000000000000815260040161130d90612577565b60405180910390fd5b8060000160009054906101000a900473ffffffffffffffffffffffffffffffffffffffff1673ffffffffffffffffffffffffffffffffffffffff166372b360a68888888888886040518763ffffffff1660e01b815260040161137d9695949392919061239d565b600060405180830381600087803b15801561139757600080fd5b505af11580156113ab573d6000803e3d6000fd5b505050505b50505050505050565b6000806113c46114d5565b90506040516020016113d590612306565b60405160208183030381529060405280519060200120836040516020016113fc91906122ef565b6040516020818303038152906040528051906020012014156114cd578060000160009054906101000a900473ffffffffffffffffffffffffffffffffffffffff1673ffffffffffffffffffffffffffffffffffffffff1663895e8b23856040518263ffffffff1660e01b81526004016114759190612619565b60206040518083038186803b15801561148d57600080fd5b505afa1580156114a1573d6000803e3d6000fd5b505050506040513d601f19601f820116820180604052508101906114c59190611bdc565b9150506114cf565b505b92915050565b6000807f3b3f04a0bcf864519d4afdd212b45a9436ba8c61bb2a6474fb0ba61a120a7b9090508091505090565b6000807fc8fcad8db84d3cc18b4c41d551ea0ee66dd599cde068d998e57d5e09332c131c90508091505090565b604051806040016040528060608152602001606081525090565b600061155c61155784612776565b612751565b9050808382526020820190508285602086028201111561157f5761157e612a79565b5b60005b858110156115af578161159588826116c2565b845260208401935060208301925050600181019050611582565b5050509392505050565b60006115cc6115c7846127a2565b612751565b905080838252602082019050828560208602820111156115ef576115ee612a79565b5b60005b8581101561161f57816116058882611917565b8452602084019350602083019250506001810190506115f2565b5050509392505050565b600061163c611637846127ce565b612751565b90508281526020810184848401111561165857611657612a7e565b5b6116638482856129c3565b509392505050565b600061167e611679846127ff565b612751565b90508281526020810184848401111561169a57611699612a7e565b5b6116a58482856129c3565b509392505050565b6000813590506116bc81612cf6565b92915050565b6000815190506116d181612cf6565b92915050565b60008083601f8401126116ed576116ec612a6a565b5b8235905067ffffffffffffffff81111561170a57611709612a65565b5b60208301915083602082028301111561172657611725612a79565b5b9250929050565b600082601f83011261174257611741612a6a565b5b8151611752848260208601611549565b91505092915050565b60008083601f84011261177157611770612a6a565b5b8235905067ffffffffffffffff81111561178e5761178d612a65565b5b6020830191508360208202830111156117aa576117a9612a79565b5b9250929050565b600082601f8301126117c6576117c5612a6a565b5b81516117d68482602086016115b9565b91505092915050565b6000813590506117ee81612d0d565b92915050565b60008151905061180381612d0d565b92915050565b600082601f83011261181e5761181d612a6a565b5b813561182e848260208601611629565b91505092915050565b600082601f83011261184c5761184b612a6a565b5b813561185c84826020860161166b565b91505092915050565b60006040828403121561187b5761187a612a6f565b5b6118856040612751565b9050600082015167ffffffffffffffff8111156118a5576118a4612a74565b5b6118b18482850161172d565b600083015250602082015167ffffffffffffffff8111156118d5576118d4612a74565b5b6118e1848285016117b1565b60208301525092915050565b6000813590506118fc81612d24565b92915050565b60008135905061191181612d3b565b92915050565b60008151905061192681612d3b565b92915050565b60006020828403121561194257611941612a88565b5b6000611950848285016116ad565b91505092915050565b60006020828403121561196f5761196e612a88565b5b600061197d848285016116c2565b91505092915050565b6000806040838503121561199d5761199c612a88565b5b60006119ab858286016116ad565b92505060206119bc858286016117df565b9150509250929050565b600080604083850312156119dd576119dc612a88565b5b60006119eb858286016116ad565b92505060206119fc858286016118ed565b9150509250929050565b60008060008060008060808789031215611a2357611a22612a88565b5b6000611a3189828a016116ad565b9650506020611a4289828a016118ed565b955050604087013567ffffffffffffffff811115611a6357611a62612a83565b5b611a6f89828a016116d7565b9450945050606087013567ffffffffffffffff811115611a9257611a91612a83565b5b611a9e89828a0161175b565b92509250509295509295509295565b6000806000806000806000806000806101008b8d031215611ad157611ad0612a88565b5b6000611adf8d828e016116ad565b9a50506020611af08d828e016118ed565b99505060408b013567ffffffffffffffff811115611b1157611b10612a83565b5b611b1d8d828e01611837565b9850506060611b2e8d828e016118ed565b97505060808b013567ffffffffffffffff811115611b4f57611b4e612a83565b5b611b5b8d828e01611837565b96505060a0611b6c8d828e016117df565b95505060c08b013567ffffffffffffffff811115611b8d57611b8c612a83565b5b611b998d828e016116d7565b945094505060e08b013567ffffffffffffffff811115611bbc57611bbb612a83565b5b611bc88d828e0161175b565b92509250509295989b9194979a5092959850565b600060208284031215611bf257611bf1612a88565b5b6000611c00848285016117f4565b91505092915050565b6000806000806000806000806000806101408b8d031215611c2d57611c2c612a88565b5b60008b013567ffffffffffffffff811115611c4b57611c4a612a83565b5b611c578d828e01611837565b9a50506020611c688d828e016116ad565b9950506040611c798d828e016116ad565b9850506060611c8a8d828e016116ad565b9750506080611c9b8d828e016116ad565b96505060a0611cac8d828e016118ed565b95505060c0611cbd8d828e016118ed565b94505060e0611cce8d828e016118ed565b9350506101008b013567ffffffffffffffff811115611cf057611cef612a83565b5b611cfc8d828e01611809565b9250506101208b013567ffffffffffffffff811115611d1e57611d1d612a83565b5b611d2a8d828e01611809565b9150509295989b9194979a5092959850565b600060208284031215611d5257611d51612a88565b5b600082015167ffffffffffffffff811115611d7057611d6f612a83565b5b611d7c84828501611865565b91505092915050565b60008060408385031215611d9c57611d9b612a88565b5b6000611daa858286016118ed565b925050602083013567ffffffffffffffff811115611dcb57611dca612a83565b5b611dd785828601611837565b9150509250929050565b600080600060608486031215611dfa57611df9612a88565b5b6000611e08868287016118ed565b935050602084013567ffffffffffffffff811115611e2957611e28612a83565b5b611e3586828701611837565b9250506040611e46868287016118ed565b9150509250925092565b600060208284031215611e6657611e65612a88565b5b6000611e7484828501611902565b91505092915050565b600060208284031215611e9357611e92612a88565b5b6000611ea184828501611917565b91505092915050565b6000611eb68383611eda565b60208301905092915050565b6000611ece83836122d1565b60208301905092915050565b611ee381612963565b82525050565b611ef281612963565b82525050565b6000611f0483856128d5565b9350611f0f82612830565b8060005b85811015611f4857611f258284612935565b611f2f8882611eaa565b9750611f3a83612890565b925050600181019050611f13565b5085925050509392505050565b6000611f6082612864565b611f6a81856128c4565b9350611f758361283a565b8060005b83811015611fa6578151611f8d8882611eaa565b9750611f988361289d565b925050600181019050611f79565b5085935050505092915050565b6000611fbf83856128f7565b9350611fca8261284a565b8060005b8581101561200357611fe0828461294c565b611fea8882611ec2565b9750611ff5836128aa565b925050600181019050611fce565b5085925050509392505050565b600061201b8261286f565b61202581856128e6565b935061203083612854565b8060005b838110156120615781516120488882611ec2565b9750612053836128b7565b925050600181019050612034565b5085935050505092915050565b61207781612975565b82525050565b60006120888261287a565b6120928185612908565b93506120a28185602086016129d2565b6120ab81612a8d565b840191505092915050565b60006120c182612885565b6120cb8185612919565b93506120db8185602086016129d2565b6120e481612a8d565b840191505092915050565b60006120fa82612885565b612104818561292a565b93506121148185602086016129d2565b80840191505092915050565b600061212d603083612919565b915061213882612a9e565b604082019050919050565b6000612150601683612919565b915061215b82612aed565b602082019050919050565b6000612173603783612919565b915061217e82612b16565b604082019050919050565b6000612196601383612919565b91506121a182612b65565b602082019050919050565b60006121b9602983612919565b91506121c482612b8e565b604082019050919050565b60006121dc60068361292a565b91506121e782612bdd565b600682019050919050565b60006121ff603383612919565b915061220a82612c06565b604082019050919050565b600061222260078361292a565b915061222d82612c55565b600782019050919050565b6000612245602483612919565b915061225082612c7e565b604082019050919050565b6000612268601783612919565b915061227382612ccd565b602082019050919050565b6000604083016000830151848203600086015261229b8282611f55565b915050602083015184820360208601526122b58282612010565b9150508091505092915050565b6122cb816129a1565b82525050565b6122da816129ab565b82525050565b6122e9816129ab565b82525050565b60006122fb82846120ef565b915081905092915050565b6000612311826121cf565b9150819050919050565b600061232682612215565b9150819050919050565b60006020820190506123456000830184611ee9565b92915050565b60006040820190506123606000830185611ee9565b61236d602083018461206e565b9392505050565b60006040820190506123896000830185611ee9565b61239660208301846122c2565b9392505050565b60006080820190506123b26000830189611ee9565b6123bf60208301886122c2565b81810360408301526123d2818688611ef8565b905081810360608301526123e7818486611fb3565b9050979650505050505050565b60006060820190506124096000830186611ee9565b61241660208301856122c2565b61242360408301846122c2565b949350505050565b6000602082019050612440600083018461206e565b92915050565b6000610140820190508181036000830152612461818d6120b6565b9050612470602083018c611ee9565b61247d604083018b611ee9565b61248a606083018a611ee9565b6124976080830189611ee9565b6124a460a08301886122c2565b6124b160c08301876122c2565b6124be60e08301866122c2565b8181036101008301526124d1818561207d565b90508181036101208301526124e6818461207d565b90509b9a5050505050505050505050565b6000602082019050818103600083015261251081612120565b9050919050565b6000602082019050818103600083015261253081612143565b9050919050565b6000602082019050818103600083015261255081612166565b9050919050565b6000602082019050818103600083015261257081612189565b9050919050565b60006020820190508181036000830152612590816121ac565b9050919050565b600060208201905081810360008301526125b0816121f2565b9050919050565b600060208201905081810360008301526125d081612238565b9050919050565b600060208201905081810360008301526125f08161225b565b9050919050565b60006020820190508181036000830152612611818461227e565b905092915050565b600060208201905061262e60008301846122c2565b92915050565b600060c082019050612649600083018b6122c2565b612656602083018a611ee9565b818103604083015261266881896120b6565b9050612677606083018861206e565b818103608083015261268a818688611ef8565b905081810360a083015261269f818486611fb3565b90509998505050505050505050565b600060e0820190506126c3600083018c6122c2565b6126d0602083018b611ee9565b6126dd604083018a6122c2565b81810360608301526126ef81896120b6565b90506126fe608083018861206e565b81810360a0830152612711818688611ef8565b905081810360c0830152612726818486611fb3565b90509a9950505050505050505050565b600060208201905061274b60008301846122e0565b92915050565b600061275b61276c565b90506127678282612a05565b919050565b6000604051905090565b600067ffffffffffffffff82111561279157612790612a36565b5b602082029050602081019050919050565b600067ffffffffffffffff8211156127bd576127bc612a36565b5b602082029050602081019050919050565b600067ffffffffffffffff8211156127e9576127e8612a36565b5b6127f282612a8d565b9050602081019050919050565b600067ffffffffffffffff82111561281a57612819612a36565b5b61282382612a8d565b9050602081019050919050565b6000819050919050565b6000819050602082019050919050565b6000819050919050565b6000819050602082019050919050565b600081519050919050565b600081519050919050565b600081519050919050565b600081519050919050565b6000602082019050919050565b6000602082019050919050565b6000602082019050919050565b6000602082019050919050565b600082825260208201905092915050565b600082825260208201905092915050565b600082825260208201905092915050565b600082825260208201905092915050565b600082825260208201905092915050565b600082825260208201905092915050565b600081905092915050565b600061294460208401846116ad565b905092915050565b600061295b6020840184611902565b905092915050565b600061296e82612981565b9050919050565b60008115159050919050565b600073ffffffffffffffffffffffffffffffffffffffff82169050919050565b6000819050919050565b60006bffffffffffffffffffffffff82169050919050565b82818337600083830152505050565b60005b838110156129f05780820151818401526020810190506129d5565b838111156129ff576000848401525b50505050565b612a0e82612a8d565b810181811067ffffffffffffffff82111715612a2d57612a2c612a36565b5b80604052505050565b7f4e487b7100000000000000000000000000000000000000000000000000000000600052604160045260246000fd5b600080fd5b600080fd5b600080fd5b600080fd5b600080fd5b600080fd5b600080fd5b600080fd5b6000601f19601f8301169050919050565b7f4d656469613a204f6e6c792041646d696e2043616e2053657420436f6d6d697360008201527f73696f6e2050657263656e746167652100000000000000000000000000000000602082015250565b7f4d757374206f776e2074686520636f6e74726163742e00000000000000000000600082015250565b7f4d656469613a2043616c6c6572206973206e6f74207468652061646d696e206f60008201527f66206d61726b657420706c61636520636f6e7472616374000000000000000000602082015250565b7f414c52454144595f494e495449414c495a454400000000000000000000000000600082015250565b7f4f6e6c7920746f6b656e206f776e657220636f756c642063616c6c207468697360008201527f2066756e6374696f6e0000000000000000000000000000000000000000000000602082015250565b7f4552433732310000000000000000000000000000000000000000000000000000600082015250565b7f4d656469613a20436f6d6d697373696f6e2050657263656e74616765204d757360008201527f74204265204c657373205468616e203130302100000000000000000000000000602082015250565b7f4552433131353500000000000000000000000000000000000000000000000000600082015250565b7f4d656469613a20496e76616c696420436f6d6d697373696f6e2050657263656e60008201527f7461676500000000000000000000000000000000000000000000000000000000602082015250565b7f4d656469613a20496e76616c6964204164647265737321000000000000000000600082015250565b612cff81612963565b8114612d0a57600080fd5b50565b612d1681612975565b8114612d2157600080fd5b50565b612d2d816129a1565b8114612d3857600080fd5b50565b612d44816129ab565b8114612d4f57600080fd5b5056fea2646970667358221220a2ea31d0ad1418b901ca8aeeafa7033fb369c0426e993d90538be7d8b5f1587e64736f6c63430008060033",
  "linkReferences": {},
  "deployedLinkReferences": {}
}