{
  "_format": "hh-sol-artifact-1",
  "contractName": "MediaFacet",
  "sourceName": "contracts/facets/Media/MediaFacet.sol",
  "abi": [
    {
      "inputs": [
        {
          "internalType": "address",
          "name": "_nftAddress",
          "type": "address"
        },
        {
          "internalType": "uint256",
          "name": "_tokenID",
          "type": "uint256"
        },
        {
          "internalType": "address[]",
          "name": "_collaborators",
          "type": "address[]"
        },
        {
          "internalType": "uint96[]",
          "name": "_collabFraction",
          "type": "uint96[]"
        }
      ],
      "name": "_setCollaboratorsMedia",
      "outputs": [],
      "stateMutability": "nonpayable",
      "type": "function"
    },
    {
      "inputs": [
        {
          "internalType": "string",
          "name": "_contractType",
          "type": "string"
        },
        {
          "internalType": "address",
          "name": "_nftContAddress",
          "type": "address"
        },
        {
          "internalType": "address",
          "name": "_currencyAddress",
          "type": "address"
        },
        {
          "internalType": "address",
          "name": "_seller",
          "type": "address"
        },
        {
          "internalType": "address",
          "name": "_bidder",
          "type": "address"
        },
        {
          "internalType": "uint256",
          "name": "_tokenID",
          "type": "uint256"
        },
        {
          "internalType": "uint256",
          "name": "_bid",
          "type": "uint256"
        },
        {
          "internalType": "uint256",
          "name": "_copies",
          "type": "uint256"
        },
        {
          "internalType": "bytes",
          "name": "_bidderSig",
          "type": "bytes"
        },
        {
          "internalType": "bytes",
          "name": "_sellerSig",
          "type": "bytes"
        }
      ],
      "name": "acceptBidMedia",
      "outputs": [],
      "stateMutability": "nonpayable",
      "type": "function"
    },
    {
      "inputs": [
        {
          "internalType": "address",
          "name": "_nftAddress",
          "type": "address"
        }
      ],
      "name": "approveMarketFor1155Media",
      "outputs": [],
      "stateMutability": "nonpayable",
      "type": "function"
    },
    {
      "inputs": [
        {
          "internalType": "address",
          "name": "_nftAddress",
          "type": "address"
        },
        {
          "internalType": "uint256",
          "name": "tokenID",
          "type": "uint256"
        }
      ],
      "name": "approveMarketFor721Media",
      "outputs": [],
      "stateMutability": "nonpayable",
      "type": "function"
    },
    {
      "inputs": [],
      "name": "getAdminCommissionPercentageMedia",
      "outputs": [
        {
          "internalType": "uint96",
          "name": "",
          "type": "uint96"
        }
      ],
      "stateMutability": "view",
      "type": "function"
    },
    {
      "inputs": [
        {
          "internalType": "address",
          "name": "_diamondAddress",
          "type": "address"
        }
      ],
      "name": "mediaFacetInit",
      "outputs": [],
      "stateMutability": "nonpayable",
      "type": "function"
    },
    {
      "inputs": [
        {
          "internalType": "address",
          "name": "_to",
          "type": "address"
        },
        {
          "internalType": "uint256",
          "name": "_id",
          "type": "uint256"
        },
        {
          "internalType": "string",
          "name": "_contractType",
          "type": "string"
        },
        {
          "internalType": "address",
          "name": "_tokenContract",
          "type": "address"
        },
        {
          "internalType": "uint256",
          "name": "_copies",
          "type": "uint256"
        },
        {
          "internalType": "string",
          "name": "_uri",
          "type": "string"
        },
        {
          "internalType": "address[]",
          "name": "_royaltyReceivers",
          "type": "address[]"
        },
        {
          "internalType": "uint96[]",
          "name": "_tokenRoyaltyInBips",
          "type": "uint96[]"
        }
      ],
      "name": "mintTokenMedia",
      "outputs": [
        {
          "internalType": "uint256",
          "name": "",
          "type": "uint256"
        }
      ],
      "stateMutability": "nonpayable",
      "type": "function"
    },
    {
      "inputs": [
        {
          "internalType": "uint96",
          "name": "_newCommissionPercentage",
          "type": "uint96"
        }
      ],
      "name": "setCommissionPercentageMedia",
      "outputs": [
        {
          "internalType": "bool",
          "name": "",
          "type": "bool"
        }
      ],
      "stateMutability": "nonpayable",
      "type": "function"
    }
  ],
  "bytecode": "0x608060405234801561001057600080fd5b50611f0b806100206000396000f3fe608060405234801561001057600080fd5b50600436106100885760003560e01c8063a3ffe3f71161005b578063a3ffe3f7146100ff578063b5f06d6d1461011b578063bb5b4bdb14610137578063f77c3b101461016757610088565b806348d9afa11461008d57806376197b1e146100a957806389b6283a146100c757806393d16b74146100e3575b600080fd5b6100a760048036038101906100a29190610db6565b610197565b005b6100b161025e565b6040516100be9190610e1d565b60405180910390f35b6100e160048036038101906100dc9190610e38565b610304565b005b6100fd60048036038101906100f8919061104c565b6103ca565b005b61011960048036038101906101149190611235565b610484565b005b61013560048036038101906101309190610e38565b6106a0565b005b610151600480360381019061014c9190611308565b610895565b60405161015e9190611350565b60405180910390f35b610181600480360381019061017c919061136b565b610af1565b60405161018e91906114a9565b60405180910390f35b60006101a1610cb4565b90508060000160009054906101000a900473ffffffffffffffffffffffffffffffffffffffff1673ffffffffffffffffffffffffffffffffffffffff1663f8116f008260000160009054906101000a900473ffffffffffffffffffffffffffffffffffffffff1660016040518363ffffffff1660e01b81526004016102279291906114d3565b600060405180830381600087803b15801561024157600080fd5b505af1158015610255573d6000803e3d6000fd5b50505050505050565b600080610269610cb4565b90508060000160009054906101000a900473ffffffffffffffffffffffffffffffffffffffff1673ffffffffffffffffffffffffffffffffffffffff1663a5dbd8146040518163ffffffff1660e01b8152600401602060405180830381865afa1580156102da573d6000803e3d6000fd5b505050506040513d601f19601f820116820180604052508101906102fe9190611511565b91505090565b600061030e610cb4565b90508060000160009054906101000a900473ffffffffffffffffffffffffffffffffffffffff1673ffffffffffffffffffffffffffffffffffffffff16633db332108260000160009054906101000a900473ffffffffffffffffffffffffffffffffffffffff1660016040518363ffffffff1660e01b81526004016103949291906114d3565b600060405180830381600087803b1580156103ae57600080fd5b505af11580156103c2573d6000803e3d6000fd5b505050505050565b60006103d4610cb4565b90508060000160009054906101000a900473ffffffffffffffffffffffffffffffffffffffff1673ffffffffffffffffffffffffffffffffffffffff16639e9666d98c8c8c8c8c8c8c8c8c8c6040518b63ffffffff1660e01b81526004016104459a9998979695949392919061161b565b600060405180830381600087803b15801561045f57600080fd5b505af1158015610473573d6000803e3d6000fd5b505050505050505050505050505050565b600061048e610cb4565b90503373ffffffffffffffffffffffffffffffffffffffff168773ffffffffffffffffffffffffffffffffffffffff16636352211e886040518263ffffffff1660e01b81526004016104e091906114a9565b602060405180830381865afa1580156104fd573d6000803e3d6000fd5b505050506040513d601f19601f8201168201806040525081019061052191906116e1565b73ffffffffffffffffffffffffffffffffffffffff1614806105bf575060008773ffffffffffffffffffffffffffffffffffffffff1663ea9db06833896040518363ffffffff1660e01b815260040161057b92919061170e565b602060405180830381865afa158015610598573d6000803e3d6000fd5b505050506040513d601f19601f820116820180604052508101906105bc919061174c565b14155b6105fe576040517f08c379a00000000000000000000000000000000000000000000000000000000081526004016105f5906117eb565b60405180910390fd5b8060000160009054906101000a900473ffffffffffffffffffffffffffffffffffffffff1673ffffffffffffffffffffffffffffffffffffffff166372b360a68888888888886040518763ffffffff1660e01b815260040161066596959493929190611991565b600060405180830381600087803b15801561067f57600080fd5b505af1158015610693573d6000803e3d6000fd5b5050505050505050505050565b60006106aa610ce1565b905060006106b6610cb4565b9050600073ffffffffffffffffffffffffffffffffffffffff168160000160009054906101000a900473ffffffffffffffffffffffffffffffffffffffff1673ffffffffffffffffffffffffffffffffffffffff161461074b576040517f08c379a000000000000000000000000000000000000000000000000000000000815260040161074290611a34565b60405180910390fd5b600073ffffffffffffffffffffffffffffffffffffffff168373ffffffffffffffffffffffffffffffffffffffff1614156107bb576040517f08c379a00000000000000000000000000000000000000000000000000000000081526004016107b290611aa0565b60405180910390fd5b8160040160009054906101000a900473ffffffffffffffffffffffffffffffffffffffff1673ffffffffffffffffffffffffffffffffffffffff163373ffffffffffffffffffffffffffffffffffffffff161461084d576040517f08c379a000000000000000000000000000000000000000000000000000000000815260040161084490611b0c565b60405180910390fd5b828160000160006101000a81548173ffffffffffffffffffffffffffffffffffffffff021916908373ffffffffffffffffffffffffffffffffffffffff160217905550505050565b6000806108a0610cb4565b90508060000160009054906101000a900473ffffffffffffffffffffffffffffffffffffffff1673ffffffffffffffffffffffffffffffffffffffff1663b2e6b9126040518163ffffffff1660e01b8152600401602060405180830381865afa158015610911573d6000803e3d6000fd5b505050506040513d601f19601f8201168201806040525081019061093591906116e1565b73ffffffffffffffffffffffffffffffffffffffff163373ffffffffffffffffffffffffffffffffffffffff16146109a2576040517f08c379a000000000000000000000000000000000000000000000000000000000815260040161099990611b9e565b60405180910390fd5b6000836bffffffffffffffffffffffff16116109f3576040517f08c379a00000000000000000000000000000000000000000000000000000000081526004016109ea90611c30565b60405180910390fd5b612710836bffffffffffffffffffffffff161115610a46576040517f08c379a0000000000000000000000000000000000000000000000000000000008152600401610a3d90611cc2565b60405180910390fd5b8060000160009054906101000a900473ffffffffffffffffffffffffffffffffffffffff1673ffffffffffffffffffffffffffffffffffffffff16634a5ececd846040518263ffffffff1660e01b8152600401610aa39190610e1d565b6020604051808303816000875af1158015610ac2573d6000803e3d6000fd5b505050506040513d601f19601f82011682018060405250810190610ae69190611d0e565b506001915050919050565b600080610afc610cb4565b90506000604051602001610b0f90611d92565b604051602081830303815290604052805190602001208b604051602001610b369190611dd8565b6040516020818303038152906040528051906020012014610b58576000610b5b565b60015b90508015610c05578160000160009054906101000a900473ffffffffffffffffffffffffffffffffffffffff1673ffffffffffffffffffffffffffffffffffffffff1663c7e2311b8d8f8c8c8c8c8c8c6040518963ffffffff1660e01b8152600401610bce989796959493929190611def565b600060405180830381600087803b158015610be857600080fd5b505af1158015610bfc573d6000803e3d6000fd5b50505050610ca1565b8160000160009054906101000a900473ffffffffffffffffffffffffffffffffffffffff1673ffffffffffffffffffffffffffffffffffffffff16633868ba678d8f8b8b8b8b8b6040518863ffffffff1660e01b8152600401610c6e9796959493929190611e69565b600060405180830381600087803b158015610c8857600080fd5b505af1158015610c9c573d6000803e3d6000fd5b505050505b8b925050509a9950505050505050505050565b6000807f3b3f04a0bcf864519d4afdd212b45a9436ba8c61bb2a6474fb0ba61a120a7b9090508091505090565b6000807fc8fcad8db84d3cc18b4c41d551ea0ee66dd599cde068d998e57d5e09332c131c90508091505090565b6000604051905090565b600080fd5b600080fd5b600073ffffffffffffffffffffffffffffffffffffffff82169050919050565b6000610d4d82610d22565b9050919050565b610d5d81610d42565b8114610d6857600080fd5b50565b600081359050610d7a81610d54565b92915050565b6000819050919050565b610d9381610d80565b8114610d9e57600080fd5b50565b600081359050610db081610d8a565b92915050565b60008060408385031215610dcd57610dcc610d18565b5b6000610ddb85828601610d6b565b9250506020610dec85828601610da1565b9150509250929050565b60006bffffffffffffffffffffffff82169050919050565b610e1781610df6565b82525050565b6000602082019050610e326000830184610e0e565b92915050565b600060208284031215610e4e57610e4d610d18565b5b6000610e5c84828501610d6b565b91505092915050565b600080fd5b600080fd5b6000601f19601f8301169050919050565b7f4e487b7100000000000000000000000000000000000000000000000000000000600052604160045260246000fd5b610eb882610e6f565b810181811067ffffffffffffffff82111715610ed757610ed6610e80565b5b80604052505050565b6000610eea610d0e565b9050610ef68282610eaf565b919050565b600067ffffffffffffffff821115610f1657610f15610e80565b5b610f1f82610e6f565b9050602081019050919050565b82818337600083830152505050565b6000610f4e610f4984610efb565b610ee0565b905082815260208101848484011115610f6a57610f69610e6a565b5b610f75848285610f2c565b509392505050565b600082601f830112610f9257610f91610e65565b5b8135610fa2848260208601610f3b565b91505092915050565b600067ffffffffffffffff821115610fc657610fc5610e80565b5b610fcf82610e6f565b9050602081019050919050565b6000610fef610fea84610fab565b610ee0565b90508281526020810184848401111561100b5761100a610e6a565b5b611016848285610f2c565b509392505050565b600082601f83011261103357611032610e65565b5b8135611043848260208601610fdc565b91505092915050565b6000806000806000806000806000806101408b8d0312156110705761106f610d18565b5b60008b013567ffffffffffffffff81111561108e5761108d610d1d565b5b61109a8d828e01610f7d565b9a505060206110ab8d828e01610d6b565b99505060406110bc8d828e01610d6b565b98505060606110cd8d828e01610d6b565b97505060806110de8d828e01610d6b565b96505060a06110ef8d828e01610da1565b95505060c06111008d828e01610da1565b94505060e06111118d828e01610da1565b9350506101008b013567ffffffffffffffff81111561113357611132610d1d565b5b61113f8d828e0161101e565b9250506101208b013567ffffffffffffffff81111561116157611160610d1d565b5b61116d8d828e0161101e565b9150509295989b9194979a5092959850565b600080fd5b600080fd5b60008083601f84011261119f5761119e610e65565b5b8235905067ffffffffffffffff8111156111bc576111bb61117f565b5b6020830191508360208202830111156111d8576111d7611184565b5b9250929050565b60008083601f8401126111f5576111f4610e65565b5b8235905067ffffffffffffffff8111156112125761121161117f565b5b60208301915083602082028301111561122e5761122d611184565b5b9250929050565b6000806000806000806080878903121561125257611251610d18565b5b600061126089828a01610d6b565b965050602061127189828a01610da1565b955050604087013567ffffffffffffffff81111561129257611291610d1d565b5b61129e89828a01611189565b9450945050606087013567ffffffffffffffff8111156112c1576112c0610d1d565b5b6112cd89828a016111df565b92509250509295509295509295565b6112e581610df6565b81146112f057600080fd5b50565b600081359050611302816112dc565b92915050565b60006020828403121561131e5761131d610d18565b5b600061132c848285016112f3565b91505092915050565b60008115159050919050565b61134a81611335565b82525050565b60006020820190506113656000830184611341565b92915050565b6000806000806000806000806000806101008b8d03121561138f5761138e610d18565b5b600061139d8d828e01610d6b565b9a505060206113ae8d828e01610da1565b99505060408b013567ffffffffffffffff8111156113cf576113ce610d1d565b5b6113db8d828e01610f7d565b98505060606113ec8d828e01610d6b565b97505060806113fd8d828e01610da1565b96505060a08b013567ffffffffffffffff81111561141e5761141d610d1d565b5b61142a8d828e01610f7d565b95505060c08b013567ffffffffffffffff81111561144b5761144a610d1d565b5b6114578d828e01611189565b945094505060e08b013567ffffffffffffffff81111561147a57611479610d1d565b5b6114868d828e016111df565b92509250509295989b9194979a5092959850565b6114a381610d80565b82525050565b60006020820190506114be600083018461149a565b92915050565b6114cd81610d42565b82525050565b60006040820190506114e860008301856114c4565b6114f56020830184611341565b9392505050565b60008151905061150b816112dc565b92915050565b60006020828403121561152757611526610d18565b5b6000611535848285016114fc565b91505092915050565b600081519050919050565b600082825260208201905092915050565b60005b8381101561157857808201518184015260208101905061155d565b83811115611587576000848401525b50505050565b60006115988261153e565b6115a28185611549565b93506115b281856020860161155a565b6115bb81610e6f565b840191505092915050565b600081519050919050565b600082825260208201905092915050565b60006115ed826115c6565b6115f781856115d1565b935061160781856020860161155a565b61161081610e6f565b840191505092915050565b6000610140820190508181036000830152611636818d61158d565b9050611645602083018c6114c4565b611652604083018b6114c4565b61165f606083018a6114c4565b61166c60808301896114c4565b61167960a083018861149a565b61168660c083018761149a565b61169360e083018661149a565b8181036101008301526116a681856115e2565b90508181036101208301526116bb81846115e2565b90509b9a5050505050505050505050565b6000815190506116db81610d54565b92915050565b6000602082840312156116f7576116f6610d18565b5b6000611705848285016116cc565b91505092915050565b600060408201905061172360008301856114c4565b611730602083018461149a565b9392505050565b60008151905061174681610d8a565b92915050565b60006020828403121561176257611761610d18565b5b600061177084828501611737565b91505092915050565b7f4f6e6c7920746f6b656e206f776e657220636f756c642063616c6c207468697360008201527f2066756e6374696f6e0000000000000000000000000000000000000000000000602082015250565b60006117d5602983611549565b91506117e082611779565b604082019050919050565b60006020820190508181036000830152611804816117c8565b9050919050565b600082825260208201905092915050565b6000819050919050565b61182f81610d42565b82525050565b60006118418383611826565b60208301905092915050565b600061185c6020840184610d6b565b905092915050565b6000602082019050919050565b600061187d838561180b565b93506118888261181c565b8060005b858110156118c15761189e828461184d565b6118a88882611835565b97506118b383611864565b92505060018101905061188c565b5085925050509392505050565b600082825260208201905092915050565b6000819050919050565b6118f281610df6565b82525050565b600061190483836118e9565b60208301905092915050565b600061191f60208401846112f3565b905092915050565b6000602082019050919050565b600061194083856118ce565b935061194b826118df565b8060005b85811015611984576119618284611910565b61196b88826118f8565b975061197683611927565b92505060018101905061194f565b5085925050509392505050565b60006080820190506119a660008301896114c4565b6119b3602083018861149a565b81810360408301526119c6818688611871565b905081810360608301526119db818486611934565b9050979650505050505050565b7f414c52454144595f494e495449414c495a454400000000000000000000000000600082015250565b6000611a1e601383611549565b9150611a29826119e8565b602082019050919050565b60006020820190508181036000830152611a4d81611a11565b9050919050565b7f4d656469613a20496e76616c6964204164647265737321000000000000000000600082015250565b6000611a8a601783611549565b9150611a9582611a54565b602082019050919050565b60006020820190508181036000830152611ab981611a7d565b9050919050565b7f4d757374206f776e2074686520636f6e74726163742e00000000000000000000600082015250565b6000611af6601683611549565b9150611b0182611ac0565b602082019050919050565b60006020820190508181036000830152611b2581611ae9565b9050919050565b7f4d656469613a204f6e6c792041646d696e2043616e2053657420436f6d6d697360008201527f73696f6e2050657263656e746167652100000000000000000000000000000000602082015250565b6000611b88603083611549565b9150611b9382611b2c565b604082019050919050565b60006020820190508181036000830152611bb781611b7b565b9050919050565b7f4d656469613a20496e76616c696420436f6d6d697373696f6e2050657263656e60008201527f7461676500000000000000000000000000000000000000000000000000000000602082015250565b6000611c1a602483611549565b9150611c2582611bbe565b604082019050919050565b60006020820190508181036000830152611c4981611c0d565b9050919050565b7f4d656469613a20436f6d6d697373696f6e2050657263656e74616765204d757360008201527f74204265204c657373205468616e203130302100000000000000000000000000602082015250565b6000611cac603383611549565b9150611cb782611c50565b604082019050919050565b60006020820190508181036000830152611cdb81611c9f565b9050919050565b611ceb81611335565b8114611cf657600080fd5b50565b600081519050611d0881611ce2565b92915050565b600060208284031215611d2457611d23610d18565b5b6000611d3284828501611cf9565b91505092915050565b600081905092915050565b7f4552433131353500000000000000000000000000000000000000000000000000600082015250565b6000611d7c600783611d3b565b9150611d8782611d46565b600782019050919050565b6000611d9d82611d6f565b9150819050919050565b6000611db28261153e565b611dbc8185611d3b565b9350611dcc81856020860161155a565b80840191505092915050565b6000611de48284611da7565b915081905092915050565b600060c082019050611e04600083018b61149a565b611e11602083018a6114c4565b611e1e604083018961149a565b8181036060830152611e30818861158d565b90508181036080830152611e45818688611871565b905081810360a0830152611e5a818486611934565b90509998505050505050505050565b600060a082019050611e7e600083018a61149a565b611e8b60208301896114c4565b8181036040830152611e9d818861158d565b90508181036060830152611eb2818688611871565b90508181036080830152611ec7818486611934565b90509897505050505050505056fea26469706673582212204cc83975c9509c49ddf15fe0a2c6b784bf7d730d5dffa3c94b92086fe4ea24f064736f6c634300080a0033",
  "linkReferences": {},
  "deployedLinkReferences": {}
}