{
  "_format": "hh-sol-artifact-1",
  "contractName": "MediaFacet",
  "sourceName": "contracts/facets/Media/MediaFacet.sol",
  "abi": [
    {
      "inputs": [
        {
          "internalType": "address",
          "name": "_nftAddress",
          "type": "address"
        },
        {
          "internalType": "uint256",
          "name": "_tokenID",
          "type": "uint256"
        },
        {
          "internalType": "address[]",
          "name": "_collaborators",
          "type": "address[]"
        },
        {
          "internalType": "uint96[]",
          "name": "_collabFraction",
          "type": "uint96[]"
        }
      ],
      "name": "_setCollaboratorsMedia",
      "outputs": [],
      "stateMutability": "nonpayable",
      "type": "function"
    },
    {
      "inputs": [
        {
          "internalType": "string",
          "name": "_contractType",
          "type": "string"
        },
        {
          "internalType": "address",
          "name": "_nftContAddress",
          "type": "address"
        },
        {
          "internalType": "address",
          "name": "_currencyAddress",
          "type": "address"
        },
        {
          "internalType": "address",
          "name": "_seller",
          "type": "address"
        },
        {
          "internalType": "address",
          "name": "_bidder",
          "type": "address"
        },
        {
          "internalType": "uint256",
          "name": "_tokenID",
          "type": "uint256"
        },
        {
          "internalType": "uint256",
          "name": "_bid",
          "type": "uint256"
        },
        {
          "internalType": "uint256",
          "name": "_copies",
          "type": "uint256"
        },
        {
          "internalType": "bytes",
          "name": "_bidderSig",
          "type": "bytes"
        },
        {
          "internalType": "bytes",
          "name": "_sellerSig",
          "type": "bytes"
        }
      ],
      "name": "acceptBidMedia",
      "outputs": [],
      "stateMutability": "nonpayable",
      "type": "function"
    },
    {
      "inputs": [],
      "name": "approveMarketForAllMedia",
      "outputs": [],
      "stateMutability": "nonpayable",
      "type": "function"
    },
    {
      "inputs": [],
      "name": "getAdminCommissionPercentageMedia",
      "outputs": [
        {
          "internalType": "uint96",
          "name": "",
          "type": "uint96"
        }
      ],
      "stateMutability": "view",
      "type": "function"
    },
    {
      "inputs": [
        {
          "internalType": "address",
          "name": "_diamondAddress",
          "type": "address"
        }
      ],
      "name": "mediaFacetInit",
      "outputs": [],
      "stateMutability": "nonpayable",
      "type": "function"
    },
    {
      "inputs": [
        {
          "internalType": "address",
          "name": "_to",
          "type": "address"
        },
        {
          "internalType": "uint256",
          "name": "_id",
          "type": "uint256"
        },
        {
          "internalType": "string",
          "name": "_contractType",
          "type": "string"
        },
        {
          "internalType": "address",
          "name": "_tokenContract",
          "type": "address"
        },
        {
          "internalType": "uint256",
          "name": "_copies",
          "type": "uint256"
        },
        {
          "internalType": "string",
          "name": "_uri",
          "type": "string"
        },
        {
          "internalType": "address[]",
          "name": "_royaltyReceivers",
          "type": "address[]"
        },
        {
          "internalType": "uint96[]",
          "name": "_tokenRoyaltyInBips",
          "type": "uint96[]"
        }
      ],
      "name": "mintTokenMedia",
      "outputs": [
        {
          "internalType": "uint256",
          "name": "",
          "type": "uint256"
        }
      ],
      "stateMutability": "nonpayable",
      "type": "function"
    },
    {
      "inputs": [
        {
          "internalType": "uint96",
          "name": "_newCommissionPercentage",
          "type": "uint96"
        }
      ],
      "name": "setCommissionPercentageMedia",
      "outputs": [
        {
          "internalType": "bool",
          "name": "",
          "type": "bool"
        }
      ],
      "stateMutability": "nonpayable",
      "type": "function"
    }
  ],
  "bytecode": "0x608060405234801561001057600080fd5b50611e0c806100206000396000f3fe608060405234801561001057600080fd5b506004361061007d5760003560e01c8063a3ffe3f71161005b578063a3ffe3f7146100c6578063b5f06d6d146100e2578063bb5b4bdb146100fe578063f77c3b101461012e5761007d565b80636000c41b1461008257806376197b1e1461008c57806393d16b74146100aa575b600080fd5b61008a61015e565b005b610094610223565b6040516100a19190610c76565b60405180910390f35b6100c460048036038101906100bf9190610f20565b6102c9565b005b6100e060048036038101906100db9190611109565b610383565b005b6100fc60048036038101906100f791906111b0565b61059e565b005b61011860048036038101906101139190611209565b6107d6565b6040516101259190611251565b60405180910390f35b6101486004803603810190610143919061126c565b610a32565b60405161015591906113aa565b60405180910390f35b6000610168610bf5565b90508060000160009054906101000a900473ffffffffffffffffffffffffffffffffffffffff1673ffffffffffffffffffffffffffffffffffffffff1663a22cb4658260000160009054906101000a900473ffffffffffffffffffffffffffffffffffffffff1660016040518363ffffffff1660e01b81526004016101ee9291906113d4565b600060405180830381600087803b15801561020857600080fd5b505af115801561021c573d6000803e3d6000fd5b5050505050565b60008061022e610bf5565b90508060000160009054906101000a900473ffffffffffffffffffffffffffffffffffffffff1673ffffffffffffffffffffffffffffffffffffffff1663a5dbd8146040518163ffffffff1660e01b8152600401602060405180830381865afa15801561029f573d6000803e3d6000fd5b505050506040513d601f19601f820116820180604052508101906102c39190611412565b91505090565b60006102d3610bf5565b90508060000160009054906101000a900473ffffffffffffffffffffffffffffffffffffffff1673ffffffffffffffffffffffffffffffffffffffff16639e9666d98c8c8c8c8c8c8c8c8c8c6040518b63ffffffff1660e01b81526004016103449a9998979695949392919061151c565b600060405180830381600087803b15801561035e57600080fd5b505af1158015610372573d6000803e3d6000fd5b505050505050505050505050505050565b600061038d610bf5565b90503373ffffffffffffffffffffffffffffffffffffffff168773ffffffffffffffffffffffffffffffffffffffff16636352211e886040518263ffffffff1660e01b81526004016103df91906113aa565b602060405180830381865afa1580156103fc573d6000803e3d6000fd5b505050506040513d601f19601f8201168201806040525081019061042091906115e2565b73ffffffffffffffffffffffffffffffffffffffff1614806104bd575060008773ffffffffffffffffffffffffffffffffffffffff1662fdd58e33896040518363ffffffff1660e01b815260040161047992919061160f565b602060405180830381865afa158015610496573d6000803e3d6000fd5b505050506040513d601f19601f820116820180604052508101906104ba919061164d565b14155b6104fc576040517f08c379a00000000000000000000000000000000000000000000000000000000081526004016104f3906116ec565b60405180910390fd5b8060000160009054906101000a900473ffffffffffffffffffffffffffffffffffffffff1673ffffffffffffffffffffffffffffffffffffffff166372b360a68888888888886040518763ffffffff1660e01b815260040161056396959493929190611892565b600060405180830381600087803b15801561057d57600080fd5b505af1158015610591573d6000803e3d6000fd5b5050505050505050505050565b60006105a8610c22565b905060006105b4610bf5565b9050600073ffffffffffffffffffffffffffffffffffffffff168160000160009054906101000a900473ffffffffffffffffffffffffffffffffffffffff1673ffffffffffffffffffffffffffffffffffffffff1614610649576040517f08c379a000000000000000000000000000000000000000000000000000000000815260040161064090611935565b60405180910390fd5b600073ffffffffffffffffffffffffffffffffffffffff168373ffffffffffffffffffffffffffffffffffffffff1614156106b9576040517f08c379a00000000000000000000000000000000000000000000000000000000081526004016106b0906119a1565b60405180910390fd5b8160040160009054906101000a900473ffffffffffffffffffffffffffffffffffffffff1673ffffffffffffffffffffffffffffffffffffffff163373ffffffffffffffffffffffffffffffffffffffff161461074b576040517f08c379a000000000000000000000000000000000000000000000000000000000815260040161074290611a0d565b60405180910390fd5b828160000160006101000a81548173ffffffffffffffffffffffffffffffffffffffff021916908373ffffffffffffffffffffffffffffffffffffffff160217905550826000800160006101000a81548173ffffffffffffffffffffffffffffffffffffffff021916908373ffffffffffffffffffffffffffffffffffffffff160217905550505050565b6000806107e1610bf5565b90508060000160009054906101000a900473ffffffffffffffffffffffffffffffffffffffff1673ffffffffffffffffffffffffffffffffffffffff1663b2e6b9126040518163ffffffff1660e01b8152600401602060405180830381865afa158015610852573d6000803e3d6000fd5b505050506040513d601f19601f8201168201806040525081019061087691906115e2565b73ffffffffffffffffffffffffffffffffffffffff163373ffffffffffffffffffffffffffffffffffffffff16146108e3576040517f08c379a00000000000000000000000000000000000000000000000000000000081526004016108da90611a9f565b60405180910390fd5b6000836bffffffffffffffffffffffff1611610934576040517f08c379a000000000000000000000000000000000000000000000000000000000815260040161092b90611b31565b60405180910390fd5b612710836bffffffffffffffffffffffff161115610987576040517f08c379a000000000000000000000000000000000000000000000000000000000815260040161097e90611bc3565b60405180910390fd5b8060000160009054906101000a900473ffffffffffffffffffffffffffffffffffffffff1673ffffffffffffffffffffffffffffffffffffffff16634a5ececd846040518263ffffffff1660e01b81526004016109e49190610c76565b6020604051808303816000875af1158015610a03573d6000803e3d6000fd5b505050506040513d601f19601f82011682018060405250810190610a279190611c0f565b506001915050919050565b600080610a3d610bf5565b90506000604051602001610a5090611c93565b604051602081830303815290604052805190602001208b604051602001610a779190611cd9565b6040516020818303038152906040528051906020012014610a99576000610a9c565b60015b90508015610b46578160000160009054906101000a900473ffffffffffffffffffffffffffffffffffffffff1673ffffffffffffffffffffffffffffffffffffffff166370839f798d8f8c8c8c8c8c8c6040518963ffffffff1660e01b8152600401610b0f989796959493929190611cf0565b600060405180830381600087803b158015610b2957600080fd5b505af1158015610b3d573d6000803e3d6000fd5b50505050610be2565b8160000160009054906101000a900473ffffffffffffffffffffffffffffffffffffffff1673ffffffffffffffffffffffffffffffffffffffff1663b1fea9ba8d8f8b8b8b8b8b6040518863ffffffff1660e01b8152600401610baf9796959493929190611d6a565b600060405180830381600087803b158015610bc957600080fd5b505af1158015610bdd573d6000803e3d6000fd5b505050505b8b925050509a9950505050505050505050565b6000807f3b3f04a0bcf864519d4afdd212b45a9436ba8c61bb2a6474fb0ba61a120a7b9090508091505090565b6000807fc8fcad8db84d3cc18b4c41d551ea0ee66dd599cde068d998e57d5e09332c131c90508091505090565b60006bffffffffffffffffffffffff82169050919050565b610c7081610c4f565b82525050565b6000602082019050610c8b6000830184610c67565b92915050565b6000604051905090565b600080fd5b600080fd5b600080fd5b600080fd5b6000601f19601f8301169050919050565b7f4e487b7100000000000000000000000000000000000000000000000000000000600052604160045260246000fd5b610cf882610caf565b810181811067ffffffffffffffff82111715610d1757610d16610cc0565b5b80604052505050565b6000610d2a610c91565b9050610d368282610cef565b919050565b600067ffffffffffffffff821115610d5657610d55610cc0565b5b610d5f82610caf565b9050602081019050919050565b82818337600083830152505050565b6000610d8e610d8984610d3b565b610d20565b905082815260208101848484011115610daa57610da9610caa565b5b610db5848285610d6c565b509392505050565b600082601f830112610dd257610dd1610ca5565b5b8135610de2848260208601610d7b565b91505092915050565b600073ffffffffffffffffffffffffffffffffffffffff82169050919050565b6000610e1682610deb565b9050919050565b610e2681610e0b565b8114610e3157600080fd5b50565b600081359050610e4381610e1d565b92915050565b6000819050919050565b610e5c81610e49565b8114610e6757600080fd5b50565b600081359050610e7981610e53565b92915050565b600067ffffffffffffffff821115610e9a57610e99610cc0565b5b610ea382610caf565b9050602081019050919050565b6000610ec3610ebe84610e7f565b610d20565b905082815260208101848484011115610edf57610ede610caa565b5b610eea848285610d6c565b509392505050565b600082601f830112610f0757610f06610ca5565b5b8135610f17848260208601610eb0565b91505092915050565b6000806000806000806000806000806101408b8d031215610f4457610f43610c9b565b5b60008b013567ffffffffffffffff811115610f6257610f61610ca0565b5b610f6e8d828e01610dbd565b9a50506020610f7f8d828e01610e34565b9950506040610f908d828e01610e34565b9850506060610fa18d828e01610e34565b9750506080610fb28d828e01610e34565b96505060a0610fc38d828e01610e6a565b95505060c0610fd48d828e01610e6a565b94505060e0610fe58d828e01610e6a565b9350506101008b013567ffffffffffffffff81111561100757611006610ca0565b5b6110138d828e01610ef2565b9250506101208b013567ffffffffffffffff81111561103557611034610ca0565b5b6110418d828e01610ef2565b9150509295989b9194979a5092959850565b600080fd5b600080fd5b60008083601f84011261107357611072610ca5565b5b8235905067ffffffffffffffff8111156110905761108f611053565b5b6020830191508360208202830111156110ac576110ab611058565b5b9250929050565b60008083601f8401126110c9576110c8610ca5565b5b8235905067ffffffffffffffff8111156110e6576110e5611053565b5b60208301915083602082028301111561110257611101611058565b5b9250929050565b6000806000806000806080878903121561112657611125610c9b565b5b600061113489828a01610e34565b965050602061114589828a01610e6a565b955050604087013567ffffffffffffffff81111561116657611165610ca0565b5b61117289828a0161105d565b9450945050606087013567ffffffffffffffff81111561119557611194610ca0565b5b6111a189828a016110b3565b92509250509295509295509295565b6000602082840312156111c6576111c5610c9b565b5b60006111d484828501610e34565b91505092915050565b6111e681610c4f565b81146111f157600080fd5b50565b600081359050611203816111dd565b92915050565b60006020828403121561121f5761121e610c9b565b5b600061122d848285016111f4565b91505092915050565b60008115159050919050565b61124b81611236565b82525050565b60006020820190506112666000830184611242565b92915050565b6000806000806000806000806000806101008b8d0312156112905761128f610c9b565b5b600061129e8d828e01610e34565b9a505060206112af8d828e01610e6a565b99505060408b013567ffffffffffffffff8111156112d0576112cf610ca0565b5b6112dc8d828e01610dbd565b98505060606112ed8d828e01610e34565b97505060806112fe8d828e01610e6a565b96505060a08b013567ffffffffffffffff81111561131f5761131e610ca0565b5b61132b8d828e01610dbd565b95505060c08b013567ffffffffffffffff81111561134c5761134b610ca0565b5b6113588d828e0161105d565b945094505060e08b013567ffffffffffffffff81111561137b5761137a610ca0565b5b6113878d828e016110b3565b92509250509295989b9194979a5092959850565b6113a481610e49565b82525050565b60006020820190506113bf600083018461139b565b92915050565b6113ce81610e0b565b82525050565b60006040820190506113e960008301856113c5565b6113f66020830184611242565b9392505050565b60008151905061140c816111dd565b92915050565b60006020828403121561142857611427610c9b565b5b6000611436848285016113fd565b91505092915050565b600081519050919050565b600082825260208201905092915050565b60005b8381101561147957808201518184015260208101905061145e565b83811115611488576000848401525b50505050565b60006114998261143f565b6114a3818561144a565b93506114b381856020860161145b565b6114bc81610caf565b840191505092915050565b600081519050919050565b600082825260208201905092915050565b60006114ee826114c7565b6114f881856114d2565b935061150881856020860161145b565b61151181610caf565b840191505092915050565b6000610140820190508181036000830152611537818d61148e565b9050611546602083018c6113c5565b611553604083018b6113c5565b611560606083018a6113c5565b61156d60808301896113c5565b61157a60a083018861139b565b61158760c083018761139b565b61159460e083018661139b565b8181036101008301526115a781856114e3565b90508181036101208301526115bc81846114e3565b90509b9a5050505050505050505050565b6000815190506115dc81610e1d565b92915050565b6000602082840312156115f8576115f7610c9b565b5b6000611606848285016115cd565b91505092915050565b600060408201905061162460008301856113c5565b611631602083018461139b565b9392505050565b60008151905061164781610e53565b92915050565b60006020828403121561166357611662610c9b565b5b600061167184828501611638565b91505092915050565b7f4f6e6c7920746f6b656e206f776e657220636f756c642063616c6c207468697360008201527f2066756e6374696f6e0000000000000000000000000000000000000000000000602082015250565b60006116d660298361144a565b91506116e18261167a565b604082019050919050565b60006020820190508181036000830152611705816116c9565b9050919050565b600082825260208201905092915050565b6000819050919050565b61173081610e0b565b82525050565b60006117428383611727565b60208301905092915050565b600061175d6020840184610e34565b905092915050565b6000602082019050919050565b600061177e838561170c565b93506117898261171d565b8060005b858110156117c25761179f828461174e565b6117a98882611736565b97506117b483611765565b92505060018101905061178d565b5085925050509392505050565b600082825260208201905092915050565b6000819050919050565b6117f381610c4f565b82525050565b600061180583836117ea565b60208301905092915050565b600061182060208401846111f4565b905092915050565b6000602082019050919050565b600061184183856117cf565b935061184c826117e0565b8060005b85811015611885576118628284611811565b61186c88826117f9565b975061187783611828565b925050600181019050611850565b5085925050509392505050565b60006080820190506118a760008301896113c5565b6118b4602083018861139b565b81810360408301526118c7818688611772565b905081810360608301526118dc818486611835565b9050979650505050505050565b7f414c52454144595f494e495449414c495a454400000000000000000000000000600082015250565b600061191f60138361144a565b915061192a826118e9565b602082019050919050565b6000602082019050818103600083015261194e81611912565b9050919050565b7f4d656469613a20496e76616c6964204164647265737321000000000000000000600082015250565b600061198b60178361144a565b915061199682611955565b602082019050919050565b600060208201905081810360008301526119ba8161197e565b9050919050565b7f4d757374206f776e2074686520636f6e74726163742e00000000000000000000600082015250565b60006119f760168361144a565b9150611a02826119c1565b602082019050919050565b60006020820190508181036000830152611a26816119ea565b9050919050565b7f4d656469613a204f6e6c792041646d696e2043616e2053657420436f6d6d697360008201527f73696f6e2050657263656e746167652100000000000000000000000000000000602082015250565b6000611a8960308361144a565b9150611a9482611a2d565b604082019050919050565b60006020820190508181036000830152611ab881611a7c565b9050919050565b7f4d656469613a20496e76616c696420436f6d6d697373696f6e2050657263656e60008201527f7461676500000000000000000000000000000000000000000000000000000000602082015250565b6000611b1b60248361144a565b9150611b2682611abf565b604082019050919050565b60006020820190508181036000830152611b4a81611b0e565b9050919050565b7f4d656469613a20436f6d6d697373696f6e2050657263656e74616765204d757360008201527f74204265204c657373205468616e203130302100000000000000000000000000602082015250565b6000611bad60338361144a565b9150611bb882611b51565b604082019050919050565b60006020820190508181036000830152611bdc81611ba0565b9050919050565b611bec81611236565b8114611bf757600080fd5b50565b600081519050611c0981611be3565b92915050565b600060208284031215611c2557611c24610c9b565b5b6000611c3384828501611bfa565b91505092915050565b600081905092915050565b7f4552433131353500000000000000000000000000000000000000000000000000600082015250565b6000611c7d600783611c3c565b9150611c8882611c47565b600782019050919050565b6000611c9e82611c70565b9150819050919050565b6000611cb38261143f565b611cbd8185611c3c565b9350611ccd81856020860161145b565b80840191505092915050565b6000611ce58284611ca8565b915081905092915050565b600060c082019050611d05600083018b61139b565b611d12602083018a6113c5565b611d1f604083018961139b565b8181036060830152611d31818861148e565b90508181036080830152611d46818688611772565b905081810360a0830152611d5b818486611835565b90509998505050505050505050565b600060a082019050611d7f600083018a61139b565b611d8c60208301896113c5565b8181036040830152611d9e818861148e565b90508181036060830152611db3818688611772565b90508181036080830152611dc8818486611835565b90509897505050505050505056fea2646970667358221220b646143eba9e005fae75ee42d5edbc4a6d4b115d43667b193028a2f274ad2a0364736f6c634300080a0033",
  "linkReferences": {},
  "deployedLinkReferences": {}
}