{
  "_format": "hh-sol-artifact-1",
  "contractName": "MediaFacet",
  "sourceName": "contracts/facets/Media/MediaFacet.sol",
  "abi": [
    {
      "inputs": [
        {
          "internalType": "string",
          "name": "_contractType",
          "type": "string"
        },
        {
          "internalType": "address",
          "name": "_nftContAddress",
          "type": "address"
        },
        {
          "internalType": "address",
          "name": "_currencyAddress",
          "type": "address"
        },
        {
          "internalType": "address",
          "name": "_seller",
          "type": "address"
        },
        {
          "internalType": "address",
          "name": "_bidder",
          "type": "address"
        },
        {
          "internalType": "uint256",
          "name": "_tokenID",
          "type": "uint256"
        },
        {
          "internalType": "uint256",
          "name": "_bid",
          "type": "uint256"
        },
        {
          "internalType": "uint256",
          "name": "_copies",
          "type": "uint256"
        },
        {
          "internalType": "bytes",
          "name": "_bidderSig",
          "type": "bytes"
        },
        {
          "internalType": "bytes",
          "name": "_sellerSig",
          "type": "bytes"
        }
      ],
      "name": "acceptBidMedia",
      "outputs": [],
      "stateMutability": "nonpayable",
      "type": "function"
    },
    {
      "inputs": [],
      "name": "approveMarketForAllMedia",
      "outputs": [],
      "stateMutability": "nonpayable",
      "type": "function"
    },
    {
      "inputs": [],
      "name": "getAdminCommissionPercentageMedia",
      "outputs": [
        {
          "internalType": "uint96",
          "name": "",
          "type": "uint96"
        }
      ],
      "stateMutability": "view",
      "type": "function"
    },
    {
      "inputs": [
        {
          "internalType": "address",
          "name": "_currencyAddress",
          "type": "address"
        }
      ],
      "name": "getApprovedCryptoMedia",
      "outputs": [
        {
          "internalType": "bool",
          "name": "",
          "type": "bool"
        }
      ],
      "stateMutability": "view",
      "type": "function"
    },
    {
      "inputs": [
        {
          "internalType": "address",
          "name": "_nftAddress",
          "type": "address"
        },
        {
          "internalType": "uint256",
          "name": "_tokenID",
          "type": "uint256"
        }
      ],
      "name": "getCollaboratorsMedia",
      "outputs": [
        {
          "components": [
            {
              "internalType": "address[]",
              "name": "collaborators",
              "type": "address[]"
            },
            {
              "internalType": "uint96[]",
              "name": "collabFraction",
              "type": "uint96[]"
            }
          ],
          "internalType": "struct LibMarketStorage.Collaborators",
          "name": "",
          "type": "tuple"
        }
      ],
      "stateMutability": "view",
      "type": "function"
    },
    {
      "inputs": [
        {
          "internalType": "uint256",
          "name": "_tokenID",
          "type": "uint256"
        },
        {
          "internalType": "string",
          "name": "_contractType",
          "type": "string"
        }
      ],
      "name": "istokenIdExistMedia",
      "outputs": [
        {
          "internalType": "bool",
          "name": "",
          "type": "bool"
        }
      ],
      "stateMutability": "view",
      "type": "function"
    },
    {
      "inputs": [
        {
          "internalType": "address",
          "name": "_diamondAddress",
          "type": "address"
        }
      ],
      "name": "mediaFacetInit",
      "outputs": [],
      "stateMutability": "nonpayable",
      "type": "function"
    },
    {
      "inputs": [
        {
          "internalType": "address",
          "name": "_to",
          "type": "address"
        },
        {
          "internalType": "uint256",
          "name": "_id",
          "type": "uint256"
        },
        {
          "internalType": "string",
          "name": "_contractType",
          "type": "string"
        },
        {
          "internalType": "address",
          "name": "_tokenContract",
          "type": "address"
        },
        {
          "internalType": "uint256",
          "name": "_copies",
          "type": "uint256"
        },
        {
          "internalType": "string",
          "name": "_uri",
          "type": "string"
        },
        {
          "internalType": "address[]",
          "name": "_royaltyReceivers",
          "type": "address[]"
        },
        {
          "internalType": "uint96[]",
          "name": "_tokenRoyaltyInBips",
          "type": "uint96[]"
        }
      ],
      "name": "mintTokenMedia",
      "outputs": [
        {
          "internalType": "uint256",
          "name": "",
          "type": "uint256"
        }
      ],
      "stateMutability": "nonpayable",
      "type": "function"
    },
    {
      "inputs": [
        {
          "internalType": "address",
          "name": "_currencyAddress",
          "type": "address"
        },
        {
          "internalType": "bool",
          "name": "approving",
          "type": "bool"
        }
      ],
      "name": "setApprovedCryptoMedia",
      "outputs": [],
      "stateMutability": "nonpayable",
      "type": "function"
    },
    {
      "inputs": [
        {
          "internalType": "address",
          "name": "_nftAddress",
          "type": "address"
        },
        {
          "internalType": "uint256",
          "name": "_tokenID",
          "type": "uint256"
        },
        {
          "internalType": "address[]",
          "name": "_collaborators",
          "type": "address[]"
        },
        {
          "internalType": "uint96[]",
          "name": "_collabFraction",
          "type": "uint96[]"
        }
      ],
      "name": "setCollaboratorsMedia",
      "outputs": [],
      "stateMutability": "nonpayable",
      "type": "function"
    },
    {
      "inputs": [
        {
          "internalType": "uint96",
          "name": "_newCommissionPercentage",
          "type": "uint96"
        }
      ],
      "name": "setCommissionPercentageMedia",
      "outputs": [
        {
          "internalType": "bool",
          "name": "",
          "type": "bool"
        }
      ],
      "stateMutability": "nonpayable",
      "type": "function"
    }
  ],
  "bytecode": "0x608060405234801561001057600080fd5b50612916806100206000396000f3fe608060405234801561001057600080fd5b50600436106100a95760003560e01c806393d16b741161007157806393d16b7414610152578063b5f06d6d1461016e578063bb5b4bdb1461018a578063bfbff05f146101ba578063c0b4f439146101d6578063f77c3b1014610206576100a9565b806332c03468146100ae57806333257b1c146100ca5780636000c41b146100fa57806376197b1e146101045780638c4e329514610122575b600080fd5b6100c860048036038101906100c3919061120f565b610236565b005b6100e460048036038101906100df9190611285565b6103d8565b6040516100f1919061149d565b60405180910390f35b61010261049a565b005b61010c61055f565b60405161011991906114ce565b60405180910390f35b61013c600480360381019061013791906114e9565b610605565b6040516101499190611525565b60405180910390f35b61016c60048036038101906101679190611727565b6106b8565b005b610188600480360381019061018391906114e9565b610772565b005b6101a4600480360381019061019f9190611886565b6109aa565b6040516101b19190611525565b60405180910390f35b6101d460048036038101906101cf9190611969565b610c06565b005b6101f060048036038101906101eb9190611a10565b610e21565b6040516101fd9190611525565b60405180910390f35b610220600480360381019061021b9190611a6c565b610f2e565b60405161022d9190611baa565b60405180910390f35b60006102406110f1565b90508060000160009054906101000a900473ffffffffffffffffffffffffffffffffffffffff1673ffffffffffffffffffffffffffffffffffffffff1663b2e6b9126040518163ffffffff1660e01b8152600401602060405180830381865afa1580156102b1573d6000803e3d6000fd5b505050506040513d601f19601f820116820180604052508101906102d59190611bda565b73ffffffffffffffffffffffffffffffffffffffff163373ffffffffffffffffffffffffffffffffffffffff1614610342576040517f08c379a000000000000000000000000000000000000000000000000000000000815260040161033990611c8a565b60405180910390fd5b8060000160009054906101000a900473ffffffffffffffffffffffffffffffffffffffff1673ffffffffffffffffffffffffffffffffffffffff1663dccf625384846040518363ffffffff1660e01b81526004016103a1929190611cb9565b600060405180830381600087803b1580156103bb57600080fd5b505af11580156103cf573d6000803e3d6000fd5b50505050505050565b6103e061114b565b60006103ea6110f1565b90508060000160009054906101000a900473ffffffffffffffffffffffffffffffffffffffff1673ffffffffffffffffffffffffffffffffffffffff1663107262b185856040518363ffffffff1660e01b815260040161044b929190611ce2565b600060405180830381865afa158015610468573d6000803e3d6000fd5b505050506040513d6000823e3d601f19601f820116820180604052508101906104919190611f38565b91505092915050565b60006104a46110f1565b90508060000160009054906101000a900473ffffffffffffffffffffffffffffffffffffffff1673ffffffffffffffffffffffffffffffffffffffff1663a22cb4658260000160009054906101000a900473ffffffffffffffffffffffffffffffffffffffff1660016040518363ffffffff1660e01b815260040161052a929190611cb9565b600060405180830381600087803b15801561054457600080fd5b505af1158015610558573d6000803e3d6000fd5b5050505050565b60008061056a6110f1565b90508060000160009054906101000a900473ffffffffffffffffffffffffffffffffffffffff1673ffffffffffffffffffffffffffffffffffffffff1663a5dbd8146040518163ffffffff1660e01b8152600401602060405180830381865afa1580156105db573d6000803e3d6000fd5b505050506040513d601f19601f820116820180604052508101906105ff9190611f81565b91505090565b6000806106106110f1565b90508060000160009054906101000a900473ffffffffffffffffffffffffffffffffffffffff1673ffffffffffffffffffffffffffffffffffffffff166384c6ba57846040518263ffffffff1660e01b815260040161066f9190611fae565b602060405180830381865afa15801561068c573d6000803e3d6000fd5b505050506040513d601f19601f820116820180604052508101906106b09190611fde565b915050919050565b60006106c26110f1565b90508060000160009054906101000a900473ffffffffffffffffffffffffffffffffffffffff1673ffffffffffffffffffffffffffffffffffffffff16639e9666d98c8c8c8c8c8c8c8c8c8c6040518b63ffffffff1660e01b81526004016107339a999897969594939291906120d7565b600060405180830381600087803b15801561074d57600080fd5b505af1158015610761573d6000803e3d6000fd5b505050505050505050505050505050565b600061077c61111e565b905060006107886110f1565b9050600073ffffffffffffffffffffffffffffffffffffffff168160000160009054906101000a900473ffffffffffffffffffffffffffffffffffffffff1673ffffffffffffffffffffffffffffffffffffffff161461081d576040517f08c379a0000000000000000000000000000000000000000000000000000000008152600401610814906121d4565b60405180910390fd5b600073ffffffffffffffffffffffffffffffffffffffff168373ffffffffffffffffffffffffffffffffffffffff16141561088d576040517f08c379a000000000000000000000000000000000000000000000000000000000815260040161088490612240565b60405180910390fd5b8160040160009054906101000a900473ffffffffffffffffffffffffffffffffffffffff1673ffffffffffffffffffffffffffffffffffffffff163373ffffffffffffffffffffffffffffffffffffffff161461091f576040517f08c379a0000000000000000000000000000000000000000000000000000000008152600401610916906122ac565b60405180910390fd5b828160000160006101000a81548173ffffffffffffffffffffffffffffffffffffffff021916908373ffffffffffffffffffffffffffffffffffffffff160217905550826000800160006101000a81548173ffffffffffffffffffffffffffffffffffffffff021916908373ffffffffffffffffffffffffffffffffffffffff160217905550505050565b6000806109b56110f1565b90508060000160009054906101000a900473ffffffffffffffffffffffffffffffffffffffff1673ffffffffffffffffffffffffffffffffffffffff1663b2e6b9126040518163ffffffff1660e01b8152600401602060405180830381865afa158015610a26573d6000803e3d6000fd5b505050506040513d601f19601f82011682018060405250810190610a4a9190611bda565b73ffffffffffffffffffffffffffffffffffffffff163373ffffffffffffffffffffffffffffffffffffffff1614610ab7576040517f08c379a0000000000000000000000000000000000000000000000000000000008152600401610aae9061233e565b60405180910390fd5b6000836bffffffffffffffffffffffff1611610b08576040517f08c379a0000000000000000000000000000000000000000000000000000000008152600401610aff906123d0565b60405180910390fd5b612710836bffffffffffffffffffffffff161115610b5b576040517f08c379a0000000000000000000000000000000000000000000000000000000008152600401610b5290612462565b60405180910390fd5b8060000160009054906101000a900473ffffffffffffffffffffffffffffffffffffffff1673ffffffffffffffffffffffffffffffffffffffff16634a5ececd846040518263ffffffff1660e01b8152600401610bb891906114ce565b6020604051808303816000875af1158015610bd7573d6000803e3d6000fd5b505050506040513d601f19601f82011682018060405250810190610bfb9190611fde565b506001915050919050565b6000610c106110f1565b90503373ffffffffffffffffffffffffffffffffffffffff168773ffffffffffffffffffffffffffffffffffffffff16636352211e886040518263ffffffff1660e01b8152600401610c629190611baa565b602060405180830381865afa158015610c7f573d6000803e3d6000fd5b505050506040513d601f19601f82011682018060405250810190610ca39190611bda565b73ffffffffffffffffffffffffffffffffffffffff161480610d40575060008773ffffffffffffffffffffffffffffffffffffffff1662fdd58e33896040518363ffffffff1660e01b8152600401610cfc929190611ce2565b602060405180830381865afa158015610d19573d6000803e3d6000fd5b505050506040513d601f19601f82011682018060405250810190610d3d9190612497565b14155b610d7f576040517f08c379a0000000000000000000000000000000000000000000000000000000008152600401610d7690612536565b60405180910390fd5b8060000160009054906101000a900473ffffffffffffffffffffffffffffffffffffffff1673ffffffffffffffffffffffffffffffffffffffff166372b360a68888888888886040518763ffffffff1660e01b8152600401610de69695949392919061268e565b600060405180830381600087803b158015610e0057600080fd5b505af1158015610e14573d6000803e3d6000fd5b5050505050505050505050565b600080610e2c6110f1565b9050604051602001610e3d9061273c565b6040516020818303038152906040528051906020012083604051602001610e649190612782565b604051602081830303815290604052805190602001201415610f26578060000160009054906101000a900473ffffffffffffffffffffffffffffffffffffffff1673ffffffffffffffffffffffffffffffffffffffff1663895e8b23856040518263ffffffff1660e01b8152600401610edd9190611baa565b602060405180830381865afa158015610efa573d6000803e3d6000fd5b505050506040513d601f19601f82011682018060405250810190610f1e9190611fde565b915050610f28565b505b92915050565b600080610f396110f1565b90506000604051602001610f4c906127e5565b604051602081830303815290604052805190602001208b604051602001610f739190612782565b6040516020818303038152906040528051906020012014610f95576000610f98565b60015b90508015611042578160000160009054906101000a900473ffffffffffffffffffffffffffffffffffffffff1673ffffffffffffffffffffffffffffffffffffffff166370839f798d8f8c8c8c8c8c8c6040518963ffffffff1660e01b815260040161100b9897969594939291906127fa565b600060405180830381600087803b15801561102557600080fd5b505af1158015611039573d6000803e3d6000fd5b505050506110de565b8160000160009054906101000a900473ffffffffffffffffffffffffffffffffffffffff1673ffffffffffffffffffffffffffffffffffffffff1663b1fea9ba8d8f8b8b8b8b8b6040518863ffffffff1660e01b81526004016110ab9796959493929190612874565b600060405180830381600087803b1580156110c557600080fd5b505af11580156110d9573d6000803e3d6000fd5b505050505b8b925050509a9950505050505050505050565b6000807f3b3f04a0bcf864519d4afdd212b45a9436ba8c61bb2a6474fb0ba61a120a7b9090508091505090565b6000807fc8fcad8db84d3cc18b4c41d551ea0ee66dd599cde068d998e57d5e09332c131c90508091505090565b604051806040016040528060608152602001606081525090565b6000604051905090565b600080fd5b600080fd5b600073ffffffffffffffffffffffffffffffffffffffff82169050919050565b60006111a482611179565b9050919050565b6111b481611199565b81146111bf57600080fd5b50565b6000813590506111d1816111ab565b92915050565b60008115159050919050565b6111ec816111d7565b81146111f757600080fd5b50565b600081359050611209816111e3565b92915050565b600080604083850312156112265761122561116f565b5b6000611234858286016111c2565b9250506020611245858286016111fa565b9150509250929050565b6000819050919050565b6112628161124f565b811461126d57600080fd5b50565b60008135905061127f81611259565b92915050565b6000806040838503121561129c5761129b61116f565b5b60006112aa858286016111c2565b92505060206112bb85828601611270565b9150509250929050565b600081519050919050565b600082825260208201905092915050565b6000819050602082019050919050565b6112fa81611199565b82525050565b600061130c83836112f1565b60208301905092915050565b6000602082019050919050565b6000611330826112c5565b61133a81856112d0565b9350611345836112e1565b8060005b8381101561137657815161135d8882611300565b975061136883611318565b925050600181019050611349565b5085935050505092915050565b600081519050919050565b600082825260208201905092915050565b6000819050602082019050919050565b60006bffffffffffffffffffffffff82169050919050565b6113d0816113af565b82525050565b60006113e283836113c7565b60208301905092915050565b6000602082019050919050565b600061140682611383565b611410818561138e565b935061141b8361139f565b8060005b8381101561144c57815161143388826113d6565b975061143e836113ee565b92505060018101905061141f565b5085935050505092915050565b600060408301600083015184820360008601526114768282611325565b9150506020830151848203602086015261149082826113fb565b9150508091505092915050565b600060208201905081810360008301526114b78184611459565b905092915050565b6114c8816113af565b82525050565b60006020820190506114e360008301846114bf565b92915050565b6000602082840312156114ff576114fe61116f565b5b600061150d848285016111c2565b91505092915050565b61151f816111d7565b82525050565b600060208201905061153a6000830184611516565b92915050565b600080fd5b600080fd5b6000601f19601f8301169050919050565b7f4e487b7100000000000000000000000000000000000000000000000000000000600052604160045260246000fd5b6115938261154a565b810181811067ffffffffffffffff821117156115b2576115b161155b565b5b80604052505050565b60006115c5611165565b90506115d1828261158a565b919050565b600067ffffffffffffffff8211156115f1576115f061155b565b5b6115fa8261154a565b9050602081019050919050565b82818337600083830152505050565b6000611629611624846115d6565b6115bb565b90508281526020810184848401111561164557611644611545565b5b611650848285611607565b509392505050565b600082601f83011261166d5761166c611540565b5b813561167d848260208601611616565b91505092915050565b600067ffffffffffffffff8211156116a1576116a061155b565b5b6116aa8261154a565b9050602081019050919050565b60006116ca6116c584611686565b6115bb565b9050828152602081018484840111156116e6576116e5611545565b5b6116f1848285611607565b509392505050565b600082601f83011261170e5761170d611540565b5b813561171e8482602086016116b7565b91505092915050565b6000806000806000806000806000806101408b8d03121561174b5761174a61116f565b5b60008b013567ffffffffffffffff81111561176957611768611174565b5b6117758d828e01611658565b9a505060206117868d828e016111c2565b99505060406117978d828e016111c2565b98505060606117a88d828e016111c2565b97505060806117b98d828e016111c2565b96505060a06117ca8d828e01611270565b95505060c06117db8d828e01611270565b94505060e06117ec8d828e01611270565b9350506101008b013567ffffffffffffffff81111561180e5761180d611174565b5b61181a8d828e016116f9565b9250506101208b013567ffffffffffffffff81111561183c5761183b611174565b5b6118488d828e016116f9565b9150509295989b9194979a5092959850565b611863816113af565b811461186e57600080fd5b50565b6000813590506118808161185a565b92915050565b60006020828403121561189c5761189b61116f565b5b60006118aa84828501611871565b91505092915050565b600080fd5b600080fd5b60008083601f8401126118d3576118d2611540565b5b8235905067ffffffffffffffff8111156118f0576118ef6118b3565b5b60208301915083602082028301111561190c5761190b6118b8565b5b9250929050565b60008083601f84011261192957611928611540565b5b8235905067ffffffffffffffff811115611946576119456118b3565b5b602083019150836020820283011115611962576119616118b8565b5b9250929050565b600080600080600080608087890312156119865761198561116f565b5b600061199489828a016111c2565b96505060206119a589828a01611270565b955050604087013567ffffffffffffffff8111156119c6576119c5611174565b5b6119d289828a016118bd565b9450945050606087013567ffffffffffffffff8111156119f5576119f4611174565b5b611a0189828a01611913565b92509250509295509295509295565b60008060408385031215611a2757611a2661116f565b5b6000611a3585828601611270565b925050602083013567ffffffffffffffff811115611a5657611a55611174565b5b611a6285828601611658565b9150509250929050565b6000806000806000806000806000806101008b8d031215611a9057611a8f61116f565b5b6000611a9e8d828e016111c2565b9a50506020611aaf8d828e01611270565b99505060408b013567ffffffffffffffff811115611ad057611acf611174565b5b611adc8d828e01611658565b9850506060611aed8d828e016111c2565b9750506080611afe8d828e01611270565b96505060a08b013567ffffffffffffffff811115611b1f57611b1e611174565b5b611b2b8d828e01611658565b95505060c08b013567ffffffffffffffff811115611b4c57611b4b611174565b5b611b588d828e016118bd565b945094505060e08b013567ffffffffffffffff811115611b7b57611b7a611174565b5b611b878d828e01611913565b92509250509295989b9194979a5092959850565b611ba48161124f565b82525050565b6000602082019050611bbf6000830184611b9b565b92915050565b600081519050611bd4816111ab565b92915050565b600060208284031215611bf057611bef61116f565b5b6000611bfe84828501611bc5565b91505092915050565b600082825260208201905092915050565b7f4d656469613a2043616c6c6572206973206e6f74207468652061646d696e206f60008201527f66206d61726b657420706c61636520636f6e7472616374000000000000000000602082015250565b6000611c74603783611c07565b9150611c7f82611c18565b604082019050919050565b60006020820190508181036000830152611ca381611c67565b9050919050565b611cb381611199565b82525050565b6000604082019050611cce6000830185611caa565b611cdb6020830184611516565b9392505050565b6000604082019050611cf76000830185611caa565b611d046020830184611b9b565b9392505050565b600080fd5b600080fd5b600067ffffffffffffffff821115611d3057611d2f61155b565b5b602082029050602081019050919050565b6000611d54611d4f84611d15565b6115bb565b90508083825260208201905060208402830185811115611d7757611d766118b8565b5b835b81811015611da05780611d8c8882611bc5565b845260208401935050602081019050611d79565b5050509392505050565b600082601f830112611dbf57611dbe611540565b5b8151611dcf848260208601611d41565b91505092915050565b600067ffffffffffffffff821115611df357611df261155b565b5b602082029050602081019050919050565b600081519050611e138161185a565b92915050565b6000611e2c611e2784611dd8565b6115bb565b90508083825260208201905060208402830185811115611e4f57611e4e6118b8565b5b835b81811015611e785780611e648882611e04565b845260208401935050602081019050611e51565b5050509392505050565b600082601f830112611e9757611e96611540565b5b8151611ea7848260208601611e19565b91505092915050565b600060408284031215611ec657611ec5611d0b565b5b611ed060406115bb565b9050600082015167ffffffffffffffff811115611ef057611eef611d10565b5b611efc84828501611daa565b600083015250602082015167ffffffffffffffff811115611f2057611f1f611d10565b5b611f2c84828501611e82565b60208301525092915050565b600060208284031215611f4e57611f4d61116f565b5b600082015167ffffffffffffffff811115611f6c57611f6b611174565b5b611f7884828501611eb0565b91505092915050565b600060208284031215611f9757611f9661116f565b5b6000611fa584828501611e04565b91505092915050565b6000602082019050611fc36000830184611caa565b92915050565b600081519050611fd8816111e3565b92915050565b600060208284031215611ff457611ff361116f565b5b600061200284828501611fc9565b91505092915050565b600081519050919050565b60005b83811015612034578082015181840152602081019050612019565b83811115612043576000848401525b50505050565b60006120548261200b565b61205e8185611c07565b935061206e818560208601612016565b6120778161154a565b840191505092915050565b600081519050919050565b600082825260208201905092915050565b60006120a982612082565b6120b3818561208d565b93506120c3818560208601612016565b6120cc8161154a565b840191505092915050565b60006101408201905081810360008301526120f2818d612049565b9050612101602083018c611caa565b61210e604083018b611caa565b61211b606083018a611caa565b6121286080830189611caa565b61213560a0830188611b9b565b61214260c0830187611b9b565b61214f60e0830186611b9b565b818103610100830152612162818561209e565b9050818103610120830152612177818461209e565b90509b9a5050505050505050505050565b7f414c52454144595f494e495449414c495a454400000000000000000000000000600082015250565b60006121be601383611c07565b91506121c982612188565b602082019050919050565b600060208201905081810360008301526121ed816121b1565b9050919050565b7f4d656469613a20496e76616c6964204164647265737321000000000000000000600082015250565b600061222a601783611c07565b9150612235826121f4565b602082019050919050565b600060208201905081810360008301526122598161221d565b9050919050565b7f4d757374206f776e2074686520636f6e74726163742e00000000000000000000600082015250565b6000612296601683611c07565b91506122a182612260565b602082019050919050565b600060208201905081810360008301526122c581612289565b9050919050565b7f4d656469613a204f6e6c792041646d696e2043616e2053657420436f6d6d697360008201527f73696f6e2050657263656e746167652100000000000000000000000000000000602082015250565b6000612328603083611c07565b9150612333826122cc565b604082019050919050565b600060208201905081810360008301526123578161231b565b9050919050565b7f4d656469613a20496e76616c696420436f6d6d697373696f6e2050657263656e60008201527f7461676500000000000000000000000000000000000000000000000000000000602082015250565b60006123ba602483611c07565b91506123c58261235e565b604082019050919050565b600060208201905081810360008301526123e9816123ad565b9050919050565b7f4d656469613a20436f6d6d697373696f6e2050657263656e74616765204d757360008201527f74204265204c657373205468616e203130302100000000000000000000000000602082015250565b600061244c603383611c07565b9150612457826123f0565b604082019050919050565b6000602082019050818103600083015261247b8161243f565b9050919050565b60008151905061249181611259565b92915050565b6000602082840312156124ad576124ac61116f565b5b60006124bb84828501612482565b91505092915050565b7f4f6e6c7920746f6b656e206f776e657220636f756c642063616c6c207468697360008201527f2066756e6374696f6e0000000000000000000000000000000000000000000000602082015250565b6000612520602983611c07565b915061252b826124c4565b604082019050919050565b6000602082019050818103600083015261254f81612513565b9050919050565b600082825260208201905092915050565b6000819050919050565b600061258060208401846111c2565b905092915050565b6000602082019050919050565b60006125a18385612556565b93506125ac82612567565b8060005b858110156125e5576125c28284612571565b6125cc8882611300565b97506125d783612588565b9250506001810190506125b0565b5085925050509392505050565b600082825260208201905092915050565b6000819050919050565b600061261c6020840184611871565b905092915050565b6000602082019050919050565b600061263d83856125f2565b935061264882612603565b8060005b858110156126815761265e828461260d565b61266888826113d6565b975061267383612624565b92505060018101905061264c565b5085925050509392505050565b60006080820190506126a36000830189611caa565b6126b06020830188611b9b565b81810360408301526126c3818688612595565b905081810360608301526126d8818486612631565b9050979650505050505050565b600081905092915050565b7f4552433732310000000000000000000000000000000000000000000000000000600082015250565b60006127266006836126e5565b9150612731826126f0565b600682019050919050565b600061274782612719565b9150819050919050565b600061275c8261200b565b61276681856126e5565b9350612776818560208601612016565b80840191505092915050565b600061278e8284612751565b915081905092915050565b7f4552433131353500000000000000000000000000000000000000000000000000600082015250565b60006127cf6007836126e5565b91506127da82612799565b600782019050919050565b60006127f0826127c2565b9150819050919050565b600060c08201905061280f600083018b611b9b565b61281c602083018a611caa565b6128296040830189611b9b565b818103606083015261283b8188612049565b90508181036080830152612850818688612595565b905081810360a0830152612865818486612631565b90509998505050505050505050565b600060a082019050612889600083018a611b9b565b6128966020830189611caa565b81810360408301526128a88188612049565b905081810360608301526128bd818688612595565b905081810360808301526128d2818486612631565b90509897505050505050505056fea2646970667358221220225c21c68a97e36f18d6312d8501c8e728834e27d87dcadb834a7451b5f7b42564736f6c634300080a0033",
  "linkReferences": {},
  "deployedLinkReferences": {}
}