{
  "_format": "hh-sol-artifact-1",
  "contractName": "MediaFacet",
  "sourceName": "contracts/facets/Media/MediaFacet.sol",
  "abi": [
    {
      "inputs": [
        {
          "internalType": "address",
          "name": "_nftAddress",
          "type": "address"
        },
        {
          "internalType": "uint256",
          "name": "_tokenID",
          "type": "uint256"
        },
        {
          "internalType": "address[]",
          "name": "_collaborators",
          "type": "address[]"
        },
        {
          "internalType": "uint96[]",
          "name": "_collabFraction",
          "type": "uint96[]"
        }
      ],
      "name": "_setCollaboratorsMedia",
      "outputs": [],
      "stateMutability": "nonpayable",
      "type": "function"
    },
    {
      "inputs": [
        {
          "internalType": "string",
          "name": "_contractType",
          "type": "string"
        },
        {
          "internalType": "address",
          "name": "_nftContAddress",
          "type": "address"
        },
        {
          "internalType": "address",
          "name": "_currencyAddress",
          "type": "address"
        },
        {
          "internalType": "address",
          "name": "_seller",
          "type": "address"
        },
        {
          "internalType": "address",
          "name": "_bidder",
          "type": "address"
        },
        {
          "internalType": "uint256",
          "name": "_tokenID",
          "type": "uint256"
        },
        {
          "internalType": "uint256",
          "name": "_bid",
          "type": "uint256"
        },
        {
          "internalType": "uint256",
          "name": "_copies",
          "type": "uint256"
        },
        {
          "internalType": "bytes",
          "name": "_bidderSig",
          "type": "bytes"
        },
        {
          "internalType": "bytes",
          "name": "_sellerSig",
          "type": "bytes"
        }
      ],
      "name": "acceptBidMedia",
      "outputs": [],
      "stateMutability": "nonpayable",
      "type": "function"
    },
    {
      "inputs": [],
      "name": "approveMarketForAllMedia",
      "outputs": [],
      "stateMutability": "nonpayable",
      "type": "function"
    },
    {
      "inputs": [],
      "name": "getAdminCommissionPercentageMedia",
      "outputs": [
        {
          "internalType": "uint96",
          "name": "",
          "type": "uint96"
        }
      ],
      "stateMutability": "view",
      "type": "function"
    },
    {
      "inputs": [
        {
          "internalType": "address",
          "name": "_diamondAddress",
          "type": "address"
        }
      ],
      "name": "mediaFacetInit",
      "outputs": [],
      "stateMutability": "nonpayable",
      "type": "function"
    },
    {
      "inputs": [
        {
          "internalType": "address",
          "name": "_to",
          "type": "address"
        },
        {
          "internalType": "uint256",
          "name": "_id",
          "type": "uint256"
        },
        {
          "internalType": "string",
          "name": "_contractType",
          "type": "string"
        },
        {
          "internalType": "address",
          "name": "_tokenContract",
          "type": "address"
        },
        {
          "internalType": "uint256",
          "name": "_copies",
          "type": "uint256"
        },
        {
          "internalType": "string",
          "name": "_uri",
          "type": "string"
        },
        {
          "internalType": "address[]",
          "name": "_royaltyReceivers",
          "type": "address[]"
        },
        {
          "internalType": "uint96[]",
          "name": "_tokenRoyaltyInBips",
          "type": "uint96[]"
        }
      ],
      "name": "mintTokenMedia",
      "outputs": [
        {
          "internalType": "uint256",
          "name": "",
          "type": "uint256"
        }
      ],
      "stateMutability": "nonpayable",
      "type": "function"
    },
    {
      "inputs": [
        {
          "internalType": "uint96",
          "name": "_newCommissionPercentage",
          "type": "uint96"
        }
      ],
      "name": "setCommissionPercentageMedia",
      "outputs": [
        {
          "internalType": "bool",
          "name": "",
          "type": "bool"
        }
      ],
      "stateMutability": "nonpayable",
      "type": "function"
    }
  ],
  "bytecode": "0x608060405234801561001057600080fd5b50611e57806100206000396000f3fe608060405234801561001057600080fd5b506004361061007d5760003560e01c8063a3ffe3f71161005b578063a3ffe3f7146100c6578063b5f06d6d146100e2578063bb5b4bdb146100fe578063f77c3b101461012e5761007d565b80636000c41b1461008257806376197b1e1461008c57806393d16b74146100aa575b600080fd5b61008a61015e565b005b610094610223565b6040516100a19190611951565b60405180910390f35b6100c460048036038101906100bf9190611116565b6102d8565b005b6100e060048036038101906100db9190610f13565b610392565b005b6100fc60048036038101906100f79190610eb9565b6105cb565b005b61011860048036038101906101139190611276565b610803565b60405161012591906116a4565b60405180910390f35b61014860048036038101906101439190610fba565b610a7d565b6040516101559190611850565b60405180910390f35b6000610168610c40565b90508060000160009054906101000a900473ffffffffffffffffffffffffffffffffffffffff1673ffffffffffffffffffffffffffffffffffffffff1663a22cb4658260000160009054906101000a900473ffffffffffffffffffffffffffffffffffffffff1660016040518363ffffffff1660e01b81526004016101ee9291906115fb565b600060405180830381600087803b15801561020857600080fd5b505af115801561021c573d6000803e3d6000fd5b5050505050565b60008061022e610c40565b90508060000160009054906101000a900473ffffffffffffffffffffffffffffffffffffffff1673ffffffffffffffffffffffffffffffffffffffff1663a5dbd8146040518163ffffffff1660e01b815260040160206040518083038186803b15801561029a57600080fd5b505afa1580156102ae573d6000803e3d6000fd5b505050506040513d601f19601f820116820180604052508101906102d291906112a3565b91505090565b60006102e2610c40565b90508060000160009054906101000a900473ffffffffffffffffffffffffffffffffffffffff1673ffffffffffffffffffffffffffffffffffffffff16639e9666d98c8c8c8c8c8c8c8c8c8c6040518b63ffffffff1660e01b81526004016103539a999897969594939291906116bf565b600060405180830381600087803b15801561036d57600080fd5b505af1158015610381573d6000803e3d6000fd5b505050505050505050505050505050565b600061039c610c40565b90503373ffffffffffffffffffffffffffffffffffffffff168773ffffffffffffffffffffffffffffffffffffffff16636352211e886040518263ffffffff1660e01b81526004016103ee9190611850565b60206040518083038186803b15801561040657600080fd5b505afa15801561041a573d6000803e3d6000fd5b505050506040513d601f19601f8201168201806040525081019061043e9190610ee6565b73ffffffffffffffffffffffffffffffffffffffff1614806104ea575060008773ffffffffffffffffffffffffffffffffffffffff1662fdd58e33896040518363ffffffff1660e01b8152600401610497929190611624565b60206040518083038186803b1580156104af57600080fd5b505afa1580156104c3573d6000803e3d6000fd5b505050506040513d601f19601f820116820180604052508101906104e79190611249565b14155b610529576040517f08c379a0000000000000000000000000000000000000000000000000000000008152600401610520906117d0565b60405180910390fd5b8060000160009054906101000a900473ffffffffffffffffffffffffffffffffffffffff1673ffffffffffffffffffffffffffffffffffffffff166372b360a68888888888886040518763ffffffff1660e01b81526004016105909695949392919061164d565b600060405180830381600087803b1580156105aa57600080fd5b505af11580156105be573d6000803e3d6000fd5b5050505050505050505050565b60006105d5610c6d565b905060006105e1610c40565b9050600073ffffffffffffffffffffffffffffffffffffffff168160000160009054906101000a900473ffffffffffffffffffffffffffffffffffffffff1673ffffffffffffffffffffffffffffffffffffffff1614610676576040517f08c379a000000000000000000000000000000000000000000000000000000000815260040161066d906117b0565b60405180910390fd5b600073ffffffffffffffffffffffffffffffffffffffff168373ffffffffffffffffffffffffffffffffffffffff1614156106e6576040517f08c379a00000000000000000000000000000000000000000000000000000000081526004016106dd90611830565b60405180910390fd5b8160040160009054906101000a900473ffffffffffffffffffffffffffffffffffffffff1673ffffffffffffffffffffffffffffffffffffffff163373ffffffffffffffffffffffffffffffffffffffff1614610778576040517f08c379a000000000000000000000000000000000000000000000000000000000815260040161076f90611790565b60405180910390fd5b828160000160006101000a81548173ffffffffffffffffffffffffffffffffffffffff021916908373ffffffffffffffffffffffffffffffffffffffff160217905550826000800160006101000a81548173ffffffffffffffffffffffffffffffffffffffff021916908373ffffffffffffffffffffffffffffffffffffffff160217905550505050565b60008061080e610c40565b90508060000160009054906101000a900473ffffffffffffffffffffffffffffffffffffffff1673ffffffffffffffffffffffffffffffffffffffff1663b2e6b9126040518163ffffffff1660e01b815260040160206040518083038186803b15801561087a57600080fd5b505afa15801561088e573d6000803e3d6000fd5b505050506040513d601f19601f820116820180604052508101906108b29190610ee6565b73ffffffffffffffffffffffffffffffffffffffff163373ffffffffffffffffffffffffffffffffffffffff161461091f576040517f08c379a000000000000000000000000000000000000000000000000000000000815260040161091690611770565b60405180910390fd5b6000836bffffffffffffffffffffffff1611610970576040517f08c379a000000000000000000000000000000000000000000000000000000000815260040161096790611810565b60405180910390fd5b612710836bffffffffffffffffffffffff1611156109c3576040517f08c379a00000000000000000000000000000000000000000000000000000000081526004016109ba906117f0565b60405180910390fd5b8060000160009054906101000a900473ffffffffffffffffffffffffffffffffffffffff1673ffffffffffffffffffffffffffffffffffffffff16634a5ececd846040518263ffffffff1660e01b8152600401610a209190611951565b602060405180830381600087803b158015610a3a57600080fd5b505af1158015610a4e573d6000803e3d6000fd5b505050506040513d601f19601f82011682018060405250810190610a7291906110e9565b506001915050919050565b600080610a88610c40565b90506000604051602001610a9b906115e6565b604051602081830303815290604052805190602001208b604051602001610ac291906115cf565b6040516020818303038152906040528051906020012014610ae4576000610ae7565b60015b90508015610b91578160000160009054906101000a900473ffffffffffffffffffffffffffffffffffffffff1673ffffffffffffffffffffffffffffffffffffffff166370839f798d8f8c8c8c8c8c8c6040518963ffffffff1660e01b8152600401610b5a9897969594939291906118d7565b600060405180830381600087803b158015610b7457600080fd5b505af1158015610b88573d6000803e3d6000fd5b50505050610c2d565b8160000160009054906101000a900473ffffffffffffffffffffffffffffffffffffffff1673ffffffffffffffffffffffffffffffffffffffff1663b1fea9ba8d8f8b8b8b8b8b6040518863ffffffff1660e01b8152600401610bfa979695949392919061186b565b600060405180830381600087803b158015610c1457600080fd5b505af1158015610c28573d6000803e3d6000fd5b505050505b8b925050509a9950505050505050505050565b6000807f3b3f04a0bcf864519d4afdd212b45a9436ba8c61bb2a6474fb0ba61a120a7b9090508091505090565b6000807fc8fcad8db84d3cc18b4c41d551ea0ee66dd599cde068d998e57d5e09332c131c90508091505090565b6000610cad610ca884611991565b61196c565b905082815260208101848484011115610cc957610cc8611bc5565b5b610cd4848285611b14565b509392505050565b6000610cef610cea846119c2565b61196c565b905082815260208101848484011115610d0b57610d0a611bc5565b5b610d16848285611b14565b509392505050565b600081359050610d2d81611dc5565b92915050565b600081519050610d4281611dc5565b92915050565b60008083601f840112610d5e57610d5d611bbb565b5b8235905067ffffffffffffffff811115610d7b57610d7a611bb6565b5b602083019150836020820283011115610d9757610d96611bc0565b5b9250929050565b60008083601f840112610db457610db3611bbb565b5b8235905067ffffffffffffffff811115610dd157610dd0611bb6565b5b602083019150836020820283011115610ded57610dec611bc0565b5b9250929050565b600081519050610e0381611ddc565b92915050565b600082601f830112610e1e57610e1d611bbb565b5b8135610e2e848260208601610c9a565b91505092915050565b600082601f830112610e4c57610e4b611bbb565b5b8135610e5c848260208601610cdc565b91505092915050565b600081359050610e7481611df3565b92915050565b600081519050610e8981611df3565b92915050565b600081359050610e9e81611e0a565b92915050565b600081519050610eb381611e0a565b92915050565b600060208284031215610ecf57610ece611bcf565b5b6000610edd84828501610d1e565b91505092915050565b600060208284031215610efc57610efb611bcf565b5b6000610f0a84828501610d33565b91505092915050565b60008060008060008060808789031215610f3057610f2f611bcf565b5b6000610f3e89828a01610d1e565b9650506020610f4f89828a01610e65565b955050604087013567ffffffffffffffff811115610f7057610f6f611bca565b5b610f7c89828a01610d48565b9450945050606087013567ffffffffffffffff811115610f9f57610f9e611bca565b5b610fab89828a01610d9e565b92509250509295509295509295565b6000806000806000806000806000806101008b8d031215610fde57610fdd611bcf565b5b6000610fec8d828e01610d1e565b9a50506020610ffd8d828e01610e65565b99505060408b013567ffffffffffffffff81111561101e5761101d611bca565b5b61102a8d828e01610e37565b985050606061103b8d828e01610d1e565b975050608061104c8d828e01610e65565b96505060a08b013567ffffffffffffffff81111561106d5761106c611bca565b5b6110798d828e01610e37565b95505060c08b013567ffffffffffffffff81111561109a57611099611bca565b5b6110a68d828e01610d48565b945094505060e08b013567ffffffffffffffff8111156110c9576110c8611bca565b5b6110d58d828e01610d9e565b92509250509295989b9194979a5092959850565b6000602082840312156110ff576110fe611bcf565b5b600061110d84828501610df4565b91505092915050565b6000806000806000806000806000806101408b8d03121561113a57611139611bcf565b5b60008b013567ffffffffffffffff81111561115857611157611bca565b5b6111648d828e01610e37565b9a505060206111758d828e01610d1e565b99505060406111868d828e01610d1e565b98505060606111978d828e01610d1e565b97505060806111a88d828e01610d1e565b96505060a06111b98d828e01610e65565b95505060c06111ca8d828e01610e65565b94505060e06111db8d828e01610e65565b9350506101008b013567ffffffffffffffff8111156111fd576111fc611bca565b5b6112098d828e01610e09565b9250506101208b013567ffffffffffffffff81111561122b5761122a611bca565b5b6112378d828e01610e09565b9150509295989b9194979a5092959850565b60006020828403121561125f5761125e611bcf565b5b600061126d84828501610e7a565b91505092915050565b60006020828403121561128c5761128b611bcf565b5b600061129a84828501610e8f565b91505092915050565b6000602082840312156112b9576112b8611bcf565b5b60006112c784828501610ea4565b91505092915050565b60006112dc8383611300565b60208301905092915050565b60006112f483836115b1565b60208301905092915050565b61130981611ab4565b82525050565b61131881611ab4565b82525050565b600061132a8385611a37565b9350611335826119f3565b8060005b8581101561136e5761134b8284611a86565b61135588826112d0565b975061136083611a1d565b925050600181019050611339565b5085925050509392505050565b60006113878385611a48565b9350611392826119fd565b8060005b858110156113cb576113a88284611a9d565b6113b288826112e8565b97506113bd83611a2a565b925050600181019050611396565b5085925050509392505050565b6113e181611ac6565b82525050565b60006113f282611a07565b6113fc8185611a59565b935061140c818560208601611b23565b61141581611bd4565b840191505092915050565b600061142b82611a12565b6114358185611a6a565b9350611445818560208601611b23565b61144e81611bd4565b840191505092915050565b600061146482611a12565b61146e8185611a7b565b935061147e818560208601611b23565b80840191505092915050565b6000611497603083611a6a565b91506114a282611be5565b604082019050919050565b60006114ba601683611a6a565b91506114c582611c34565b602082019050919050565b60006114dd601383611a6a565b91506114e882611c5d565b602082019050919050565b6000611500602983611a6a565b915061150b82611c86565b604082019050919050565b6000611523603383611a6a565b915061152e82611cd5565b604082019050919050565b6000611546600783611a7b565b915061155182611d24565b600782019050919050565b6000611569602483611a6a565b915061157482611d4d565b604082019050919050565b600061158c601783611a6a565b915061159782611d9c565b602082019050919050565b6115ab81611af2565b82525050565b6115ba81611afc565b82525050565b6115c981611afc565b82525050565b60006115db8284611459565b915081905092915050565b60006115f182611539565b9150819050919050565b6000604082019050611610600083018561130f565b61161d60208301846113d8565b9392505050565b6000604082019050611639600083018561130f565b61164660208301846115a2565b9392505050565b6000608082019050611662600083018961130f565b61166f60208301886115a2565b818103604083015261168281868861131e565b9050818103606083015261169781848661137b565b9050979650505050505050565b60006020820190506116b960008301846113d8565b92915050565b60006101408201905081810360008301526116da818d611420565b90506116e9602083018c61130f565b6116f6604083018b61130f565b611703606083018a61130f565b611710608083018961130f565b61171d60a08301886115a2565b61172a60c08301876115a2565b61173760e08301866115a2565b81810361010083015261174a81856113e7565b905081810361012083015261175f81846113e7565b90509b9a5050505050505050505050565b600060208201905081810360008301526117898161148a565b9050919050565b600060208201905081810360008301526117a9816114ad565b9050919050565b600060208201905081810360008301526117c9816114d0565b9050919050565b600060208201905081810360008301526117e9816114f3565b9050919050565b6000602082019050818103600083015261180981611516565b9050919050565b600060208201905081810360008301526118298161155c565b9050919050565b600060208201905081810360008301526118498161157f565b9050919050565b600060208201905061186560008301846115a2565b92915050565b600060a082019050611880600083018a6115a2565b61188d602083018961130f565b818103604083015261189f8188611420565b905081810360608301526118b481868861131e565b905081810360808301526118c981848661137b565b905098975050505050505050565b600060c0820190506118ec600083018b6115a2565b6118f9602083018a61130f565b61190660408301896115a2565b81810360608301526119188188611420565b9050818103608083015261192d81868861131e565b905081810360a083015261194281848661137b565b90509998505050505050505050565b600060208201905061196660008301846115c0565b92915050565b6000611976611987565b90506119828282611b56565b919050565b6000604051905090565b600067ffffffffffffffff8211156119ac576119ab611b87565b5b6119b582611bd4565b9050602081019050919050565b600067ffffffffffffffff8211156119dd576119dc611b87565b5b6119e682611bd4565b9050602081019050919050565b6000819050919050565b6000819050919050565b600081519050919050565b600081519050919050565b6000602082019050919050565b6000602082019050919050565b600082825260208201905092915050565b600082825260208201905092915050565b600082825260208201905092915050565b600082825260208201905092915050565b600081905092915050565b6000611a956020840184610d1e565b905092915050565b6000611aac6020840184610e8f565b905092915050565b6000611abf82611ad2565b9050919050565b60008115159050919050565b600073ffffffffffffffffffffffffffffffffffffffff82169050919050565b6000819050919050565b60006bffffffffffffffffffffffff82169050919050565b82818337600083830152505050565b60005b83811015611b41578082015181840152602081019050611b26565b83811115611b50576000848401525b50505050565b611b5f82611bd4565b810181811067ffffffffffffffff82111715611b7e57611b7d611b87565b5b80604052505050565b7f4e487b7100000000000000000000000000000000000000000000000000000000600052604160045260246000fd5b600080fd5b600080fd5b600080fd5b600080fd5b600080fd5b600080fd5b6000601f19601f8301169050919050565b7f4d656469613a204f6e6c792041646d696e2043616e2053657420436f6d6d697360008201527f73696f6e2050657263656e746167652100000000000000000000000000000000602082015250565b7f4d757374206f776e2074686520636f6e74726163742e00000000000000000000600082015250565b7f414c52454144595f494e495449414c495a454400000000000000000000000000600082015250565b7f4f6e6c7920746f6b656e206f776e657220636f756c642063616c6c207468697360008201527f2066756e6374696f6e0000000000000000000000000000000000000000000000602082015250565b7f4d656469613a20436f6d6d697373696f6e2050657263656e74616765204d757360008201527f74204265204c657373205468616e203130302100000000000000000000000000602082015250565b7f4552433131353500000000000000000000000000000000000000000000000000600082015250565b7f4d656469613a20496e76616c696420436f6d6d697373696f6e2050657263656e60008201527f7461676500000000000000000000000000000000000000000000000000000000602082015250565b7f4d656469613a20496e76616c6964204164647265737321000000000000000000600082015250565b611dce81611ab4565b8114611dd957600080fd5b50565b611de581611ac6565b8114611df057600080fd5b50565b611dfc81611af2565b8114611e0757600080fd5b50565b611e1381611afc565b8114611e1e57600080fd5b5056fea2646970667358221220ff3ef41f5883de2228496f74635797261d7de8986721a78e7e760ef5f8d195b464736f6c63430008060033",
  "linkReferences": {},
  "deployedLinkReferences": {}
}