{
  "_format": "hh-sol-artifact-1",
  "contractName": "MediaFacet",
  "sourceName": "contracts/facets/Media/MediaFacet.sol",
  "abi": [
    {
      "inputs": [
        {
          "internalType": "string",
          "name": "_contractType",
          "type": "string"
        },
        {
          "internalType": "address",
          "name": "_nftContAddress",
          "type": "address"
        },
        {
          "internalType": "address",
          "name": "_currencyAddress",
          "type": "address"
        },
        {
          "internalType": "address",
          "name": "_seller",
          "type": "address"
        },
        {
          "internalType": "address",
          "name": "_bidder",
          "type": "address"
        },
        {
          "internalType": "uint256",
          "name": "_tokenID",
          "type": "uint256"
        },
        {
          "internalType": "uint256",
          "name": "_bid",
          "type": "uint256"
        },
        {
          "internalType": "uint256",
          "name": "_copies",
          "type": "uint256"
        },
        {
          "internalType": "bytes",
          "name": "_bidderSig",
          "type": "bytes"
        },
        {
          "internalType": "bytes",
          "name": "_sellerSig",
          "type": "bytes"
        }
      ],
      "name": "acceptBidMedia",
      "outputs": [],
      "stateMutability": "nonpayable",
      "type": "function"
    },
    {
      "inputs": [],
      "name": "approveMarketForAllMedia",
      "outputs": [],
      "stateMutability": "nonpayable",
      "type": "function"
    },
    {
      "inputs": [],
      "name": "getAdminCommissionPercentageMedia",
      "outputs": [
        {
          "internalType": "uint96",
          "name": "",
          "type": "uint96"
        }
      ],
      "stateMutability": "view",
      "type": "function"
    },
    {
      "inputs": [
        {
          "internalType": "address",
          "name": "_currencyAddress",
          "type": "address"
        }
      ],
      "name": "getApprovedCryptoMedia",
      "outputs": [
        {
          "internalType": "bool",
          "name": "",
          "type": "bool"
        }
      ],
      "stateMutability": "view",
      "type": "function"
    },
    {
      "inputs": [
        {
          "internalType": "address",
          "name": "_nftAddress",
          "type": "address"
        },
        {
          "internalType": "uint256",
          "name": "_tokenID",
          "type": "uint256"
        }
      ],
      "name": "getCollaboratorsMedia",
      "outputs": [
        {
          "components": [
            {
              "internalType": "address[]",
              "name": "collaborators",
              "type": "address[]"
            },
            {
              "internalType": "uint96[]",
              "name": "collabFraction",
              "type": "uint96[]"
            }
          ],
          "internalType": "struct LibMarketStorage.Collaborators",
          "name": "",
          "type": "tuple"
        }
      ],
      "stateMutability": "view",
      "type": "function"
    },
    {
      "inputs": [
        {
          "internalType": "address",
          "name": "_diamondAddress",
          "type": "address"
        }
      ],
      "name": "mediaFacetInit",
      "outputs": [],
      "stateMutability": "nonpayable",
      "type": "function"
    },
    {
      "inputs": [
        {
          "internalType": "address",
          "name": "_to",
          "type": "address"
        },
        {
          "internalType": "uint256",
          "name": "_id",
          "type": "uint256"
        },
        {
          "internalType": "string",
          "name": "_contractType",
          "type": "string"
        },
        {
          "internalType": "address",
          "name": "_tokenContract",
          "type": "address"
        },
        {
          "internalType": "uint256",
          "name": "_copies",
          "type": "uint256"
        },
        {
          "internalType": "string",
          "name": "_uri",
          "type": "string"
        },
        {
          "internalType": "address[]",
          "name": "_royaltyReceivers",
          "type": "address[]"
        },
        {
          "internalType": "uint96[]",
          "name": "_tokenRoyaltyInBips",
          "type": "uint96[]"
        }
      ],
      "name": "mintTokenMedia",
      "outputs": [
        {
          "internalType": "uint256",
          "name": "",
          "type": "uint256"
        }
      ],
      "stateMutability": "nonpayable",
      "type": "function"
    },
    {
      "inputs": [
        {
          "internalType": "address",
          "name": "_currencyAddress",
          "type": "address"
        },
        {
          "internalType": "bool",
          "name": "approving",
          "type": "bool"
        }
      ],
      "name": "setApprovedCryptoMedia",
      "outputs": [],
      "stateMutability": "nonpayable",
      "type": "function"
    },
    {
      "inputs": [
        {
          "internalType": "address",
          "name": "_nftAddress",
          "type": "address"
        },
        {
          "internalType": "uint256",
          "name": "_tokenID",
          "type": "uint256"
        },
        {
          "internalType": "address[]",
          "name": "_collaborators",
          "type": "address[]"
        },
        {
          "internalType": "uint96[]",
          "name": "_collabFraction",
          "type": "uint96[]"
        }
      ],
      "name": "setCollaboratorsMedia",
      "outputs": [],
      "stateMutability": "nonpayable",
      "type": "function"
    },
    {
      "inputs": [
        {
          "internalType": "uint96",
          "name": "_newCommissionPercentage",
          "type": "uint96"
        }
      ],
      "name": "setCommissionPercentageMedia",
      "outputs": [
        {
          "internalType": "bool",
          "name": "",
          "type": "bool"
        }
      ],
      "stateMutability": "nonpayable",
      "type": "function"
    }
  ],
  "bytecode": "0x608060405234801561001057600080fd5b50612711806100206000396000f3fe608060405234801561001057600080fd5b506004361061009e5760003560e01c806393d16b741161006657806393d16b7414610147578063b5f06d6d14610163578063bb5b4bdb1461017f578063bfbff05f146101af578063f77c3b10146101cb5761009e565b806332c03468146100a357806333257b1c146100bf5780636000c41b146100ef57806376197b1e146100f95780638c4e329514610117575b600080fd5b6100bd60048036038101906100b891906110c7565b6101fb565b005b6100d960048036038101906100d4919061113d565b61039d565b6040516100e69190611355565b60405180910390f35b6100f761045f565b005b610101610524565b60405161010e9190611386565b60405180910390f35b610131600480360381019061012c91906113a1565b6105ca565b60405161013e91906113dd565b60405180910390f35b610161600480360381019061015c91906115df565b61067d565b005b61017d600480360381019061017891906113a1565b610737565b005b6101996004803603810190610194919061173e565b61096f565b6040516101a691906113dd565b60405180910390f35b6101c960048036038101906101c49190611821565b610bcb565b005b6101e560048036038101906101e091906118c8565b610de6565b6040516101f29190611a06565b60405180910390f35b6000610205610fa9565b90508060000160009054906101000a900473ffffffffffffffffffffffffffffffffffffffff1673ffffffffffffffffffffffffffffffffffffffff1663b2e6b9126040518163ffffffff1660e01b8152600401602060405180830381865afa158015610276573d6000803e3d6000fd5b505050506040513d601f19601f8201168201806040525081019061029a9190611a36565b73ffffffffffffffffffffffffffffffffffffffff163373ffffffffffffffffffffffffffffffffffffffff1614610307576040517f08c379a00000000000000000000000000000000000000000000000000000000081526004016102fe90611ae6565b60405180910390fd5b8060000160009054906101000a900473ffffffffffffffffffffffffffffffffffffffff1673ffffffffffffffffffffffffffffffffffffffff1663dccf625384846040518363ffffffff1660e01b8152600401610366929190611b15565b600060405180830381600087803b15801561038057600080fd5b505af1158015610394573d6000803e3d6000fd5b50505050505050565b6103a5611003565b60006103af610fa9565b90508060000160009054906101000a900473ffffffffffffffffffffffffffffffffffffffff1673ffffffffffffffffffffffffffffffffffffffff1663107262b185856040518363ffffffff1660e01b8152600401610410929190611b3e565b600060405180830381865afa15801561042d573d6000803e3d6000fd5b505050506040513d6000823e3d601f19601f820116820180604052508101906104569190611d94565b91505092915050565b6000610469610fa9565b90508060000160009054906101000a900473ffffffffffffffffffffffffffffffffffffffff1673ffffffffffffffffffffffffffffffffffffffff1663a22cb4658260000160009054906101000a900473ffffffffffffffffffffffffffffffffffffffff1660016040518363ffffffff1660e01b81526004016104ef929190611b15565b600060405180830381600087803b15801561050957600080fd5b505af115801561051d573d6000803e3d6000fd5b5050505050565b60008061052f610fa9565b90508060000160009054906101000a900473ffffffffffffffffffffffffffffffffffffffff1673ffffffffffffffffffffffffffffffffffffffff1663a5dbd8146040518163ffffffff1660e01b8152600401602060405180830381865afa1580156105a0573d6000803e3d6000fd5b505050506040513d601f19601f820116820180604052508101906105c49190611ddd565b91505090565b6000806105d5610fa9565b90508060000160009054906101000a900473ffffffffffffffffffffffffffffffffffffffff1673ffffffffffffffffffffffffffffffffffffffff166384c6ba57846040518263ffffffff1660e01b81526004016106349190611e0a565b602060405180830381865afa158015610651573d6000803e3d6000fd5b505050506040513d601f19601f820116820180604052508101906106759190611e3a565b915050919050565b6000610687610fa9565b90508060000160009054906101000a900473ffffffffffffffffffffffffffffffffffffffff1673ffffffffffffffffffffffffffffffffffffffff16639e9666d98c8c8c8c8c8c8c8c8c8c6040518b63ffffffff1660e01b81526004016106f89a99989796959493929190611f33565b600060405180830381600087803b15801561071257600080fd5b505af1158015610726573d6000803e3d6000fd5b505050505050505050505050505050565b6000610741610fd6565b9050600061074d610fa9565b9050600073ffffffffffffffffffffffffffffffffffffffff168160000160009054906101000a900473ffffffffffffffffffffffffffffffffffffffff1673ffffffffffffffffffffffffffffffffffffffff16146107e2576040517f08c379a00000000000000000000000000000000000000000000000000000000081526004016107d990612030565b60405180910390fd5b600073ffffffffffffffffffffffffffffffffffffffff168373ffffffffffffffffffffffffffffffffffffffff161415610852576040517f08c379a00000000000000000000000000000000000000000000000000000000081526004016108499061209c565b60405180910390fd5b8160040160009054906101000a900473ffffffffffffffffffffffffffffffffffffffff1673ffffffffffffffffffffffffffffffffffffffff163373ffffffffffffffffffffffffffffffffffffffff16146108e4576040517f08c379a00000000000000000000000000000000000000000000000000000000081526004016108db90612108565b60405180910390fd5b828160000160006101000a81548173ffffffffffffffffffffffffffffffffffffffff021916908373ffffffffffffffffffffffffffffffffffffffff160217905550826000800160006101000a81548173ffffffffffffffffffffffffffffffffffffffff021916908373ffffffffffffffffffffffffffffffffffffffff160217905550505050565b60008061097a610fa9565b90508060000160009054906101000a900473ffffffffffffffffffffffffffffffffffffffff1673ffffffffffffffffffffffffffffffffffffffff1663b2e6b9126040518163ffffffff1660e01b8152600401602060405180830381865afa1580156109eb573d6000803e3d6000fd5b505050506040513d601f19601f82011682018060405250810190610a0f9190611a36565b73ffffffffffffffffffffffffffffffffffffffff163373ffffffffffffffffffffffffffffffffffffffff1614610a7c576040517f08c379a0000000000000000000000000000000000000000000000000000000008152600401610a739061219a565b60405180910390fd5b6000836bffffffffffffffffffffffff1611610acd576040517f08c379a0000000000000000000000000000000000000000000000000000000008152600401610ac49061222c565b60405180910390fd5b612710836bffffffffffffffffffffffff161115610b20576040517f08c379a0000000000000000000000000000000000000000000000000000000008152600401610b17906122be565b60405180910390fd5b8060000160009054906101000a900473ffffffffffffffffffffffffffffffffffffffff1673ffffffffffffffffffffffffffffffffffffffff16634a5ececd846040518263ffffffff1660e01b8152600401610b7d9190611386565b6020604051808303816000875af1158015610b9c573d6000803e3d6000fd5b505050506040513d601f19601f82011682018060405250810190610bc09190611e3a565b506001915050919050565b6000610bd5610fa9565b90503373ffffffffffffffffffffffffffffffffffffffff168773ffffffffffffffffffffffffffffffffffffffff16636352211e886040518263ffffffff1660e01b8152600401610c279190611a06565b602060405180830381865afa158015610c44573d6000803e3d6000fd5b505050506040513d601f19601f82011682018060405250810190610c689190611a36565b73ffffffffffffffffffffffffffffffffffffffff161480610d05575060008773ffffffffffffffffffffffffffffffffffffffff1662fdd58e33896040518363ffffffff1660e01b8152600401610cc1929190611b3e565b602060405180830381865afa158015610cde573d6000803e3d6000fd5b505050506040513d601f19601f82011682018060405250810190610d0291906122f3565b14155b610d44576040517f08c379a0000000000000000000000000000000000000000000000000000000008152600401610d3b90612392565b60405180910390fd5b8060000160009054906101000a900473ffffffffffffffffffffffffffffffffffffffff1673ffffffffffffffffffffffffffffffffffffffff166372b360a68888888888886040518763ffffffff1660e01b8152600401610dab969594939291906124ea565b600060405180830381600087803b158015610dc557600080fd5b505af1158015610dd9573d6000803e3d6000fd5b5050505050505050505050565b600080610df1610fa9565b90506000604051602001610e0490612598565b604051602081830303815290604052805190602001208b604051602001610e2b91906125de565b6040516020818303038152906040528051906020012014610e4d576000610e50565b60015b90508015610efa578160000160009054906101000a900473ffffffffffffffffffffffffffffffffffffffff1673ffffffffffffffffffffffffffffffffffffffff166370839f798d8f8c8c8c8c8c8c6040518963ffffffff1660e01b8152600401610ec39897969594939291906125f5565b600060405180830381600087803b158015610edd57600080fd5b505af1158015610ef1573d6000803e3d6000fd5b50505050610f96565b8160000160009054906101000a900473ffffffffffffffffffffffffffffffffffffffff1673ffffffffffffffffffffffffffffffffffffffff1663b1fea9ba8d8f8b8b8b8b8b6040518863ffffffff1660e01b8152600401610f63979695949392919061266f565b600060405180830381600087803b158015610f7d57600080fd5b505af1158015610f91573d6000803e3d6000fd5b505050505b8b925050509a9950505050505050505050565b6000807f3b3f04a0bcf864519d4afdd212b45a9436ba8c61bb2a6474fb0ba61a120a7b9090508091505090565b6000807fc8fcad8db84d3cc18b4c41d551ea0ee66dd599cde068d998e57d5e09332c131c90508091505090565b604051806040016040528060608152602001606081525090565b6000604051905090565b600080fd5b600080fd5b600073ffffffffffffffffffffffffffffffffffffffff82169050919050565b600061105c82611031565b9050919050565b61106c81611051565b811461107757600080fd5b50565b60008135905061108981611063565b92915050565b60008115159050919050565b6110a48161108f565b81146110af57600080fd5b50565b6000813590506110c18161109b565b92915050565b600080604083850312156110de576110dd611027565b5b60006110ec8582860161107a565b92505060206110fd858286016110b2565b9150509250929050565b6000819050919050565b61111a81611107565b811461112557600080fd5b50565b60008135905061113781611111565b92915050565b6000806040838503121561115457611153611027565b5b60006111628582860161107a565b925050602061117385828601611128565b9150509250929050565b600081519050919050565b600082825260208201905092915050565b6000819050602082019050919050565b6111b281611051565b82525050565b60006111c483836111a9565b60208301905092915050565b6000602082019050919050565b60006111e88261117d565b6111f28185611188565b93506111fd83611199565b8060005b8381101561122e57815161121588826111b8565b9750611220836111d0565b925050600181019050611201565b5085935050505092915050565b600081519050919050565b600082825260208201905092915050565b6000819050602082019050919050565b60006bffffffffffffffffffffffff82169050919050565b61128881611267565b82525050565b600061129a838361127f565b60208301905092915050565b6000602082019050919050565b60006112be8261123b565b6112c88185611246565b93506112d383611257565b8060005b838110156113045781516112eb888261128e565b97506112f6836112a6565b9250506001810190506112d7565b5085935050505092915050565b6000604083016000830151848203600086015261132e82826111dd565b9150506020830151848203602086015261134882826112b3565b9150508091505092915050565b6000602082019050818103600083015261136f8184611311565b905092915050565b61138081611267565b82525050565b600060208201905061139b6000830184611377565b92915050565b6000602082840312156113b7576113b6611027565b5b60006113c58482850161107a565b91505092915050565b6113d78161108f565b82525050565b60006020820190506113f260008301846113ce565b92915050565b600080fd5b600080fd5b6000601f19601f8301169050919050565b7f4e487b7100000000000000000000000000000000000000000000000000000000600052604160045260246000fd5b61144b82611402565b810181811067ffffffffffffffff8211171561146a57611469611413565b5b80604052505050565b600061147d61101d565b90506114898282611442565b919050565b600067ffffffffffffffff8211156114a9576114a8611413565b5b6114b282611402565b9050602081019050919050565b82818337600083830152505050565b60006114e16114dc8461148e565b611473565b9050828152602081018484840111156114fd576114fc6113fd565b5b6115088482856114bf565b509392505050565b600082601f830112611525576115246113f8565b5b81356115358482602086016114ce565b91505092915050565b600067ffffffffffffffff82111561155957611558611413565b5b61156282611402565b9050602081019050919050565b600061158261157d8461153e565b611473565b90508281526020810184848401111561159e5761159d6113fd565b5b6115a98482856114bf565b509392505050565b600082601f8301126115c6576115c56113f8565b5b81356115d684826020860161156f565b91505092915050565b6000806000806000806000806000806101408b8d03121561160357611602611027565b5b60008b013567ffffffffffffffff8111156116215761162061102c565b5b61162d8d828e01611510565b9a5050602061163e8d828e0161107a565b995050604061164f8d828e0161107a565b98505060606116608d828e0161107a565b97505060806116718d828e0161107a565b96505060a06116828d828e01611128565b95505060c06116938d828e01611128565b94505060e06116a48d828e01611128565b9350506101008b013567ffffffffffffffff8111156116c6576116c561102c565b5b6116d28d828e016115b1565b9250506101208b013567ffffffffffffffff8111156116f4576116f361102c565b5b6117008d828e016115b1565b9150509295989b9194979a5092959850565b61171b81611267565b811461172657600080fd5b50565b60008135905061173881611712565b92915050565b60006020828403121561175457611753611027565b5b600061176284828501611729565b91505092915050565b600080fd5b600080fd5b60008083601f84011261178b5761178a6113f8565b5b8235905067ffffffffffffffff8111156117a8576117a761176b565b5b6020830191508360208202830111156117c4576117c3611770565b5b9250929050565b60008083601f8401126117e1576117e06113f8565b5b8235905067ffffffffffffffff8111156117fe576117fd61176b565b5b60208301915083602082028301111561181a57611819611770565b5b9250929050565b6000806000806000806080878903121561183e5761183d611027565b5b600061184c89828a0161107a565b965050602061185d89828a01611128565b955050604087013567ffffffffffffffff81111561187e5761187d61102c565b5b61188a89828a01611775565b9450945050606087013567ffffffffffffffff8111156118ad576118ac61102c565b5b6118b989828a016117cb565b92509250509295509295509295565b6000806000806000806000806000806101008b8d0312156118ec576118eb611027565b5b60006118fa8d828e0161107a565b9a5050602061190b8d828e01611128565b99505060408b013567ffffffffffffffff81111561192c5761192b61102c565b5b6119388d828e01611510565b98505060606119498d828e0161107a565b975050608061195a8d828e01611128565b96505060a08b013567ffffffffffffffff81111561197b5761197a61102c565b5b6119878d828e01611510565b95505060c08b013567ffffffffffffffff8111156119a8576119a761102c565b5b6119b48d828e01611775565b945094505060e08b013567ffffffffffffffff8111156119d7576119d661102c565b5b6119e38d828e016117cb565b92509250509295989b9194979a5092959850565b611a0081611107565b82525050565b6000602082019050611a1b60008301846119f7565b92915050565b600081519050611a3081611063565b92915050565b600060208284031215611a4c57611a4b611027565b5b6000611a5a84828501611a21565b91505092915050565b600082825260208201905092915050565b7f4d656469613a2043616c6c6572206973206e6f74207468652061646d696e206f60008201527f66206d61726b657420706c61636520636f6e7472616374000000000000000000602082015250565b6000611ad0603783611a63565b9150611adb82611a74565b604082019050919050565b60006020820190508181036000830152611aff81611ac3565b9050919050565b611b0f81611051565b82525050565b6000604082019050611b2a6000830185611b06565b611b3760208301846113ce565b9392505050565b6000604082019050611b536000830185611b06565b611b6060208301846119f7565b9392505050565b600080fd5b600080fd5b600067ffffffffffffffff821115611b8c57611b8b611413565b5b602082029050602081019050919050565b6000611bb0611bab84611b71565b611473565b90508083825260208201905060208402830185811115611bd357611bd2611770565b5b835b81811015611bfc5780611be88882611a21565b845260208401935050602081019050611bd5565b5050509392505050565b600082601f830112611c1b57611c1a6113f8565b5b8151611c2b848260208601611b9d565b91505092915050565b600067ffffffffffffffff821115611c4f57611c4e611413565b5b602082029050602081019050919050565b600081519050611c6f81611712565b92915050565b6000611c88611c8384611c34565b611473565b90508083825260208201905060208402830185811115611cab57611caa611770565b5b835b81811015611cd45780611cc08882611c60565b845260208401935050602081019050611cad565b5050509392505050565b600082601f830112611cf357611cf26113f8565b5b8151611d03848260208601611c75565b91505092915050565b600060408284031215611d2257611d21611b67565b5b611d2c6040611473565b9050600082015167ffffffffffffffff811115611d4c57611d4b611b6c565b5b611d5884828501611c06565b600083015250602082015167ffffffffffffffff811115611d7c57611d7b611b6c565b5b611d8884828501611cde565b60208301525092915050565b600060208284031215611daa57611da9611027565b5b600082015167ffffffffffffffff811115611dc857611dc761102c565b5b611dd484828501611d0c565b91505092915050565b600060208284031215611df357611df2611027565b5b6000611e0184828501611c60565b91505092915050565b6000602082019050611e1f6000830184611b06565b92915050565b600081519050611e348161109b565b92915050565b600060208284031215611e5057611e4f611027565b5b6000611e5e84828501611e25565b91505092915050565b600081519050919050565b60005b83811015611e90578082015181840152602081019050611e75565b83811115611e9f576000848401525b50505050565b6000611eb082611e67565b611eba8185611a63565b9350611eca818560208601611e72565b611ed381611402565b840191505092915050565b600081519050919050565b600082825260208201905092915050565b6000611f0582611ede565b611f0f8185611ee9565b9350611f1f818560208601611e72565b611f2881611402565b840191505092915050565b6000610140820190508181036000830152611f4e818d611ea5565b9050611f5d602083018c611b06565b611f6a604083018b611b06565b611f77606083018a611b06565b611f846080830189611b06565b611f9160a08301886119f7565b611f9e60c08301876119f7565b611fab60e08301866119f7565b818103610100830152611fbe8185611efa565b9050818103610120830152611fd38184611efa565b90509b9a5050505050505050505050565b7f414c52454144595f494e495449414c495a454400000000000000000000000000600082015250565b600061201a601383611a63565b915061202582611fe4565b602082019050919050565b600060208201905081810360008301526120498161200d565b9050919050565b7f4d656469613a20496e76616c6964204164647265737321000000000000000000600082015250565b6000612086601783611a63565b915061209182612050565b602082019050919050565b600060208201905081810360008301526120b581612079565b9050919050565b7f4d757374206f776e2074686520636f6e74726163742e00000000000000000000600082015250565b60006120f2601683611a63565b91506120fd826120bc565b602082019050919050565b60006020820190508181036000830152612121816120e5565b9050919050565b7f4d656469613a204f6e6c792041646d696e2043616e2053657420436f6d6d697360008201527f73696f6e2050657263656e746167652100000000000000000000000000000000602082015250565b6000612184603083611a63565b915061218f82612128565b604082019050919050565b600060208201905081810360008301526121b381612177565b9050919050565b7f4d656469613a20496e76616c696420436f6d6d697373696f6e2050657263656e60008201527f7461676500000000000000000000000000000000000000000000000000000000602082015250565b6000612216602483611a63565b9150612221826121ba565b604082019050919050565b6000602082019050818103600083015261224581612209565b9050919050565b7f4d656469613a20436f6d6d697373696f6e2050657263656e74616765204d757360008201527f74204265204c657373205468616e203130302100000000000000000000000000602082015250565b60006122a8603383611a63565b91506122b38261224c565b604082019050919050565b600060208201905081810360008301526122d78161229b565b9050919050565b6000815190506122ed81611111565b92915050565b60006020828403121561230957612308611027565b5b6000612317848285016122de565b91505092915050565b7f4f6e6c7920746f6b656e206f776e657220636f756c642063616c6c207468697360008201527f2066756e6374696f6e0000000000000000000000000000000000000000000000602082015250565b600061237c602983611a63565b915061238782612320565b604082019050919050565b600060208201905081810360008301526123ab8161236f565b9050919050565b600082825260208201905092915050565b6000819050919050565b60006123dc602084018461107a565b905092915050565b6000602082019050919050565b60006123fd83856123b2565b9350612408826123c3565b8060005b858110156124415761241e82846123cd565b61242888826111b8565b9750612433836123e4565b92505060018101905061240c565b5085925050509392505050565b600082825260208201905092915050565b6000819050919050565b60006124786020840184611729565b905092915050565b6000602082019050919050565b6000612499838561244e565b93506124a48261245f565b8060005b858110156124dd576124ba8284612469565b6124c4888261128e565b97506124cf83612480565b9250506001810190506124a8565b5085925050509392505050565b60006080820190506124ff6000830189611b06565b61250c60208301886119f7565b818103604083015261251f8186886123f1565b9050818103606083015261253481848661248d565b9050979650505050505050565b600081905092915050565b7f4552433131353500000000000000000000000000000000000000000000000000600082015250565b6000612582600783612541565b915061258d8261254c565b600782019050919050565b60006125a382612575565b9150819050919050565b60006125b882611e67565b6125c28185612541565b93506125d2818560208601611e72565b80840191505092915050565b60006125ea82846125ad565b915081905092915050565b600060c08201905061260a600083018b6119f7565b612617602083018a611b06565b61262460408301896119f7565b81810360608301526126368188611ea5565b9050818103608083015261264b8186886123f1565b905081810360a083015261266081848661248d565b90509998505050505050505050565b600060a082019050612684600083018a6119f7565b6126916020830189611b06565b81810360408301526126a38188611ea5565b905081810360608301526126b88186886123f1565b905081810360808301526126cd81848661248d565b90509897505050505050505056fea2646970667358221220c0160120264232c87f183d338009f8a8c9da7105c30e9e0c345c910d0e25e22264736f6c634300080a0033",
  "linkReferences": {},
  "deployedLinkReferences": {}
}