{
  "_format": "hh-sol-artifact-1",
  "contractName": "MediaFacet",
  "sourceName": "contracts/facets/Media/MediaFacet.sol",
  "abi": [
    {
      "inputs": [
        {
          "internalType": "string",
          "name": "_contractType",
          "type": "string"
        },
        {
          "internalType": "address",
          "name": "_nftContAddress",
          "type": "address"
        },
        {
          "internalType": "address",
          "name": "_currencyAddress",
          "type": "address"
        },
        {
          "internalType": "address",
          "name": "_seller",
          "type": "address"
        },
        {
          "internalType": "address",
          "name": "_bidder",
          "type": "address"
        },
        {
          "internalType": "uint256",
          "name": "_tokenID",
          "type": "uint256"
        },
        {
          "internalType": "uint256",
          "name": "_bid",
          "type": "uint256"
        },
        {
          "internalType": "uint256",
          "name": "_copies",
          "type": "uint256"
        },
        {
          "internalType": "bytes",
          "name": "_bidderSig",
          "type": "bytes"
        },
        {
          "internalType": "bytes",
          "name": "_sellerSig",
          "type": "bytes"
        }
      ],
      "name": "acceptBidMedia",
      "outputs": [],
      "stateMutability": "nonpayable",
      "type": "function"
    },
    {
      "inputs": [],
      "name": "approveMarketForAllMedia",
      "outputs": [],
      "stateMutability": "nonpayable",
      "type": "function"
    },
    {
      "inputs": [
        {
          "internalType": "uint256",
          "name": "_tokenID",
          "type": "uint256"
        },
        {
          "internalType": "string",
          "name": "_contractType",
          "type": "string"
        },
        {
          "internalType": "uint256",
          "name": "amount",
          "type": "uint256"
        }
      ],
      "name": "burnTokenMedia",
      "outputs": [],
      "stateMutability": "nonpayable",
      "type": "function"
    },
    {
      "inputs": [],
      "name": "getAdminCommissionPercentageMedia",
      "outputs": [
        {
          "internalType": "uint96",
          "name": "",
          "type": "uint96"
        }
      ],
      "stateMutability": "view",
      "type": "function"
    },
    {
      "inputs": [
        {
          "internalType": "address",
          "name": "_currencyAddress",
          "type": "address"
        }
      ],
      "name": "getApprovedCryptoMedia",
      "outputs": [
        {
          "internalType": "bool",
          "name": "",
          "type": "bool"
        }
      ],
      "stateMutability": "view",
      "type": "function"
    },
    {
      "inputs": [
        {
          "internalType": "address",
          "name": "_nftAddress",
          "type": "address"
        },
        {
          "internalType": "uint256",
          "name": "_tokenID",
          "type": "uint256"
        }
      ],
      "name": "getCollaboratorsMedia",
      "outputs": [
        {
          "components": [
            {
              "internalType": "address[]",
              "name": "collaborators",
              "type": "address[]"
            },
            {
              "internalType": "uint96[]",
              "name": "collabFraction",
              "type": "uint96[]"
            }
          ],
          "internalType": "struct LibMarketStorage.Collaborators",
          "name": "",
          "type": "tuple"
        }
      ],
      "stateMutability": "view",
      "type": "function"
    },
    {
      "inputs": [
        {
          "internalType": "uint256",
          "name": "_tokenID",
          "type": "uint256"
        },
        {
          "internalType": "string",
          "name": "_contractType",
          "type": "string"
        }
      ],
      "name": "istokenIdExistMedia",
      "outputs": [
        {
          "internalType": "bool",
          "name": "",
          "type": "bool"
        }
      ],
      "stateMutability": "view",
      "type": "function"
    },
    {
      "inputs": [
        {
          "internalType": "address",
          "name": "_diamondAddress",
          "type": "address"
        }
      ],
      "name": "mediaFacetInit",
      "outputs": [],
      "stateMutability": "nonpayable",
      "type": "function"
    },
    {
      "inputs": [
        {
          "internalType": "address",
          "name": "_to",
          "type": "address"
        },
        {
          "internalType": "uint256",
          "name": "_id",
          "type": "uint256"
        },
        {
          "internalType": "string",
          "name": "_contractType",
          "type": "string"
        },
        {
          "internalType": "uint256",
          "name": "_copies",
          "type": "uint256"
        },
        {
          "internalType": "string",
          "name": "_uri",
          "type": "string"
        },
        {
          "internalType": "bool",
          "name": "tokenRoyalty",
          "type": "bool"
        },
        {
          "internalType": "address[]",
          "name": "_royaltyReceivers",
          "type": "address[]"
        },
        {
          "internalType": "uint96[]",
          "name": "_tokenRoyaltyInBips",
          "type": "uint96[]"
        }
      ],
      "name": "mintTokenMedia",
      "outputs": [
        {
          "internalType": "uint256",
          "name": "",
          "type": "uint256"
        }
      ],
      "stateMutability": "nonpayable",
      "type": "function"
    },
    {
      "inputs": [
        {
          "internalType": "address",
          "name": "_currencyAddress",
          "type": "address"
        },
        {
          "internalType": "bool",
          "name": "approving",
          "type": "bool"
        }
      ],
      "name": "setApprovedCryptoMedia",
      "outputs": [],
      "stateMutability": "nonpayable",
      "type": "function"
    },
    {
      "inputs": [
        {
          "internalType": "address",
          "name": "_nftAddress",
          "type": "address"
        },
        {
          "internalType": "uint256",
          "name": "_tokenID",
          "type": "uint256"
        },
        {
          "internalType": "address[]",
          "name": "_collaborators",
          "type": "address[]"
        },
        {
          "internalType": "uint96[]",
          "name": "_collabFraction",
          "type": "uint96[]"
        }
      ],
      "name": "setCollaboratorsMedia",
      "outputs": [],
      "stateMutability": "nonpayable",
      "type": "function"
    },
    {
      "inputs": [
        {
          "internalType": "uint96",
          "name": "_newCommissionPercentage",
          "type": "uint96"
        }
      ],
      "name": "setCommissionPercentageMedia",
      "outputs": [
        {
          "internalType": "bool",
          "name": "",
          "type": "bool"
        }
      ],
      "stateMutability": "nonpayable",
      "type": "function"
    }
  ],
  "bytecode": "0x608060405234801561001057600080fd5b50612fb9806100206000396000f3fe608060405234801561001057600080fd5b50600436106100b45760003560e01c80638c4e3295116100715780638c4e32951461017957806393d16b74146101a9578063b5f06d6d146101c5578063bb5b4bdb146101e1578063bfbff05f14610211578063c0b4f4391461022d576100b4565b80632dd1aca5146100b957806332c03468146100e957806333257b1c1461010557806345b13312146101355780636000c41b1461015157806376197b1e1461015b575b600080fd5b6100d360048036038101906100ce91906118fa565b61025d565b6040516100e09190611a38565b60405180910390f35b61010360048036038101906100fe9190611a53565b610424565b005b61011f600480360381019061011a9190611a93565b6105d5565b60405161012c9190611cab565b60405180910390f35b61014f600480360381019061014a9190611ccd565b6106a6565b005b610159610880565b005b610163610945565b6040516101709190611d4b565b60405180910390f35b610193600480360381019061018e9190611d66565b6109fa565b6040516101a09190611da2565b60405180910390f35b6101c360048036038101906101be9190611e5e565b610abc565b005b6101df60048036038101906101da9190611d66565b610b76565b005b6101fb60048036038101906101f69190611fbd565b610dae565b6040516102089190611da2565b60405180910390f35b61022b60048036038101906102269190611fea565b611028565b005b61024760048036038101906102429190612091565b61148e565b6040516102549190611da2565b60405180910390f35b6000806102686115aa565b9050600060405160200161027b90612144565b604051602081830303815290604052805190602001208b6040516020016102a291906121c8565b60405160208183030381529060405280519060200120146102c45760006102c7565b60015b90508015610373578160000160009054906101000a900473ffffffffffffffffffffffffffffffffffffffff1673ffffffffffffffffffffffffffffffffffffffff16634135c7838d8f8d8d8d8d8d8d8d6040518a63ffffffff1660e01b815260040161033c99989796959493929190612370565b600060405180830381600087803b15801561035657600080fd5b505af115801561036a573d6000803e3d6000fd5b50505050610411565b8160000160009054906101000a900473ffffffffffffffffffffffffffffffffffffffff1673ffffffffffffffffffffffffffffffffffffffff1663ed795a248d8f8c8c8c8c8c8c6040518963ffffffff1660e01b81526004016103de9897969594939291906123f8565b600060405180830381600087803b1580156103f857600080fd5b505af115801561040c573d6000803e3d6000fd5b505050505b8b925050509a9950505050505050505050565b600061042e6115aa565b90508060000160009054906101000a900473ffffffffffffffffffffffffffffffffffffffff1673ffffffffffffffffffffffffffffffffffffffff1663b2e6b9126040518163ffffffff1660e01b815260040160206040518083038186803b15801561049a57600080fd5b505afa1580156104ae573d6000803e3d6000fd5b505050506040513d601f19601f820116820180604052508101906104d29190612487565b73ffffffffffffffffffffffffffffffffffffffff163373ffffffffffffffffffffffffffffffffffffffff161461053f576040517f08c379a000000000000000000000000000000000000000000000000000000000815260040161053690612526565b60405180910390fd5b8060000160009054906101000a900473ffffffffffffffffffffffffffffffffffffffff1673ffffffffffffffffffffffffffffffffffffffff1663dccf625384846040518363ffffffff1660e01b815260040161059e929190612546565b600060405180830381600087803b1580156105b857600080fd5b505af11580156105cc573d6000803e3d6000fd5b50505050505050565b6105dd611604565b60006105e76115aa565b90508060000160009054906101000a900473ffffffffffffffffffffffffffffffffffffffff1673ffffffffffffffffffffffffffffffffffffffff1663107262b185856040518363ffffffff1660e01b815260040161064892919061256f565b60006040518083038186803b15801561066057600080fd5b505afa158015610674573d6000803e3d6000fd5b505050506040513d6000823e3d601f19601f8201168201806040525081019061069d91906127c5565b91505092915050565b60006106b06115aa565b90506040516020016106c19061285a565b60405160208183030381529060405280519060200120836040516020016106e891906121c8565b604051602081830303815290604052805190602001201415610794578060000160009054906101000a900473ffffffffffffffffffffffffffffffffffffffff1673ffffffffffffffffffffffffffffffffffffffff166342966c68856040518263ffffffff1660e01b81526004016107619190611a38565b600060405180830381600087803b15801561077b57600080fd5b505af115801561078f573d6000803e3d6000fd5b505050505b6040516020016107a390612144565b60405160208183030381529060405280519060200120836040516020016107ca91906121c8565b60405160208183030381529060405280519060200120141561087a578060000160009054906101000a900473ffffffffffffffffffffffffffffffffffffffff1673ffffffffffffffffffffffffffffffffffffffff1663f5298aca3386856040518463ffffffff1660e01b81526004016108479392919061286f565b600060405180830381600087803b15801561086157600080fd5b505af1158015610875573d6000803e3d6000fd5b505050505b50505050565b600061088a6115aa565b90508060000160009054906101000a900473ffffffffffffffffffffffffffffffffffffffff1673ffffffffffffffffffffffffffffffffffffffff1663a22cb4658260000160009054906101000a900473ffffffffffffffffffffffffffffffffffffffff1660016040518363ffffffff1660e01b8152600401610910929190612546565b600060405180830381600087803b15801561092a57600080fd5b505af115801561093e573d6000803e3d6000fd5b5050505050565b6000806109506115aa565b90508060000160009054906101000a900473ffffffffffffffffffffffffffffffffffffffff1673ffffffffffffffffffffffffffffffffffffffff1663a5dbd8146040518163ffffffff1660e01b815260040160206040518083038186803b1580156109bc57600080fd5b505afa1580156109d0573d6000803e3d6000fd5b505050506040513d601f19601f820116820180604052508101906109f491906128a6565b91505090565b600080610a056115aa565b90508060000160009054906101000a900473ffffffffffffffffffffffffffffffffffffffff1673ffffffffffffffffffffffffffffffffffffffff166384c6ba57846040518263ffffffff1660e01b8152600401610a6491906128d3565b60206040518083038186803b158015610a7c57600080fd5b505afa158015610a90573d6000803e3d6000fd5b505050506040513d601f19601f82011682018060405250810190610ab49190612903565b915050919050565b6000610ac66115aa565b90508060000160009054906101000a900473ffffffffffffffffffffffffffffffffffffffff1673ffffffffffffffffffffffffffffffffffffffff16639e9666d98c8c8c8c8c8c8c8c8c8c6040518b63ffffffff1660e01b8152600401610b379a99989796959493929190612985565b600060405180830381600087803b158015610b5157600080fd5b505af1158015610b65573d6000803e3d6000fd5b505050505050505050505050505050565b6000610b806115d7565b90506000610b8c6115aa565b9050600073ffffffffffffffffffffffffffffffffffffffff168160000160009054906101000a900473ffffffffffffffffffffffffffffffffffffffff1673ffffffffffffffffffffffffffffffffffffffff1614610c21576040517f08c379a0000000000000000000000000000000000000000000000000000000008152600401610c1890612a82565b60405180910390fd5b600073ffffffffffffffffffffffffffffffffffffffff168373ffffffffffffffffffffffffffffffffffffffff161415610c91576040517f08c379a0000000000000000000000000000000000000000000000000000000008152600401610c8890612aee565b60405180910390fd5b8160040160009054906101000a900473ffffffffffffffffffffffffffffffffffffffff1673ffffffffffffffffffffffffffffffffffffffff163373ffffffffffffffffffffffffffffffffffffffff1614610d23576040517f08c379a0000000000000000000000000000000000000000000000000000000008152600401610d1a90612b5a565b60405180910390fd5b828160000160006101000a81548173ffffffffffffffffffffffffffffffffffffffff021916908373ffffffffffffffffffffffffffffffffffffffff160217905550826000800160006101000a81548173ffffffffffffffffffffffffffffffffffffffff021916908373ffffffffffffffffffffffffffffffffffffffff160217905550505050565b600080610db96115aa565b90508060000160009054906101000a900473ffffffffffffffffffffffffffffffffffffffff1673ffffffffffffffffffffffffffffffffffffffff1663b2e6b9126040518163ffffffff1660e01b815260040160206040518083038186803b158015610e2557600080fd5b505afa158015610e39573d6000803e3d6000fd5b505050506040513d601f19601f82011682018060405250810190610e5d9190612487565b73ffffffffffffffffffffffffffffffffffffffff163373ffffffffffffffffffffffffffffffffffffffff1614610eca576040517f08c379a0000000000000000000000000000000000000000000000000000000008152600401610ec190612bec565b60405180910390fd5b6000836bffffffffffffffffffffffff1611610f1b576040517f08c379a0000000000000000000000000000000000000000000000000000000008152600401610f1290612c7e565b60405180910390fd5b6101f4836bffffffffffffffffffffffff161115610f6e576040517f08c379a0000000000000000000000000000000000000000000000000000000008152600401610f6590612d10565b60405180910390fd5b8060000160009054906101000a900473ffffffffffffffffffffffffffffffffffffffff1673ffffffffffffffffffffffffffffffffffffffff16634a5ececd846040518263ffffffff1660e01b8152600401610fcb9190611d4b565b602060405180830381600087803b158015610fe557600080fd5b505af1158015610ff9573d6000803e3d6000fd5b505050506040513d601f19601f8201168201806040525081019061101d9190612903565b506001915050919050565b60006110326115aa565b9050600585859050111561107b576040517f08c379a000000000000000000000000000000000000000000000000000000000815260040161107290612d7c565b60405180910390fd5b600085859050116110c1576040517f08c379a00000000000000000000000000000000000000000000000000000000081526004016110b890612de8565b60405180910390fd5b828290508585905014611109576040517f08c379a000000000000000000000000000000000000000000000000000000000815260040161110090612e7a565b60405180910390fd5b8060000160009054906101000a900473ffffffffffffffffffffffffffffffffffffffff1673ffffffffffffffffffffffffffffffffffffffff168773ffffffffffffffffffffffffffffffffffffffff1614156112f5573373ffffffffffffffffffffffffffffffffffffffff168773ffffffffffffffffffffffffffffffffffffffff16636352211e886040518263ffffffff1660e01b81526004016111b19190611a38565b60206040518083038186803b1580156111c957600080fd5b505afa1580156111dd573d6000803e3d6000fd5b505050506040513d601f19601f820116820180604052508101906112019190612487565b73ffffffffffffffffffffffffffffffffffffffff1614611257576040517f08c379a000000000000000000000000000000000000000000000000000000000815260040161124e90612f0c565b60405180910390fd5b8060000160009054906101000a900473ffffffffffffffffffffffffffffffffffffffff1673ffffffffffffffffffffffffffffffffffffffff166372b360a68888888888886040518763ffffffff1660e01b81526004016112be96959493929190612f2c565b600060405180830381600087803b1580156112d857600080fd5b505af11580156112ec573d6000803e3d6000fd5b50505050611485565b3373ffffffffffffffffffffffffffffffffffffffff168773ffffffffffffffffffffffffffffffffffffffff16636352211e886040518263ffffffff1660e01b81526004016113459190611a38565b60206040518083038186803b15801561135d57600080fd5b505afa158015611371573d6000803e3d6000fd5b505050506040513d601f19601f820116820180604052508101906113959190612487565b73ffffffffffffffffffffffffffffffffffffffff16146113eb576040517f08c379a00000000000000000000000000000000000000000000000000000000081526004016113e290612f0c565b60405180910390fd5b8060000160009054906101000a900473ffffffffffffffffffffffffffffffffffffffff1673ffffffffffffffffffffffffffffffffffffffff166372b360a68888888888886040518763ffffffff1660e01b815260040161145296959493929190612f2c565b600060405180830381600087803b15801561146c57600080fd5b505af1158015611480573d6000803e3d6000fd5b505050505b50505050505050565b6000806114996115aa565b90506040516020016114aa9061285a565b60405160208183030381529060405280519060200120836040516020016114d191906121c8565b6040516020818303038152906040528051906020012014156115a2578060000160009054906101000a900473ffffffffffffffffffffffffffffffffffffffff1673ffffffffffffffffffffffffffffffffffffffff1663895e8b23856040518263ffffffff1660e01b815260040161154a9190611a38565b60206040518083038186803b15801561156257600080fd5b505afa158015611576573d6000803e3d6000fd5b505050506040513d601f19601f8201168201806040525081019061159a9190612903565b9150506115a4565b505b92915050565b6000807f3b3f04a0bcf864519d4afdd212b45a9436ba8c61bb2a6474fb0ba61a120a7b9090508091505090565b6000807fc8fcad8db84d3cc18b4c41d551ea0ee66dd599cde068d998e57d5e09332c131c90508091505090565b604051806040016040528060608152602001606081525090565b6000604051905090565b600080fd5b600080fd5b600073ffffffffffffffffffffffffffffffffffffffff82169050919050565b600061165d82611632565b9050919050565b61166d81611652565b811461167857600080fd5b50565b60008135905061168a81611664565b92915050565b6000819050919050565b6116a381611690565b81146116ae57600080fd5b50565b6000813590506116c08161169a565b92915050565b600080fd5b600080fd5b6000601f19601f8301169050919050565b7f4e487b7100000000000000000000000000000000000000000000000000000000600052604160045260246000fd5b611719826116d0565b810181811067ffffffffffffffff82111715611738576117376116e1565b5b80604052505050565b600061174b61161e565b90506117578282611710565b919050565b600067ffffffffffffffff821115611777576117766116e1565b5b611780826116d0565b9050602081019050919050565b82818337600083830152505050565b60006117af6117aa8461175c565b611741565b9050828152602081018484840111156117cb576117ca6116cb565b5b6117d684828561178d565b509392505050565b600082601f8301126117f3576117f26116c6565b5b813561180384826020860161179c565b91505092915050565b60008115159050919050565b6118218161180c565b811461182c57600080fd5b50565b60008135905061183e81611818565b92915050565b600080fd5b600080fd5b60008083601f840112611864576118636116c6565b5b8235905067ffffffffffffffff81111561188157611880611844565b5b60208301915083602082028301111561189d5761189c611849565b5b9250929050565b60008083601f8401126118ba576118b96116c6565b5b8235905067ffffffffffffffff8111156118d7576118d6611844565b5b6020830191508360208202830111156118f3576118f2611849565b5b9250929050565b6000806000806000806000806000806101008b8d03121561191e5761191d611628565b5b600061192c8d828e0161167b565b9a5050602061193d8d828e016116b1565b99505060408b013567ffffffffffffffff81111561195e5761195d61162d565b5b61196a8d828e016117de565b985050606061197b8d828e016116b1565b97505060808b013567ffffffffffffffff81111561199c5761199b61162d565b5b6119a88d828e016117de565b96505060a06119b98d828e0161182f565b95505060c08b013567ffffffffffffffff8111156119da576119d961162d565b5b6119e68d828e0161184e565b945094505060e08b013567ffffffffffffffff811115611a0957611a0861162d565b5b611a158d828e016118a4565b92509250509295989b9194979a5092959850565b611a3281611690565b82525050565b6000602082019050611a4d6000830184611a29565b92915050565b60008060408385031215611a6a57611a69611628565b5b6000611a788582860161167b565b9250506020611a898582860161182f565b9150509250929050565b60008060408385031215611aaa57611aa9611628565b5b6000611ab88582860161167b565b9250506020611ac9858286016116b1565b9150509250929050565b600081519050919050565b600082825260208201905092915050565b6000819050602082019050919050565b611b0881611652565b82525050565b6000611b1a8383611aff565b60208301905092915050565b6000602082019050919050565b6000611b3e82611ad3565b611b488185611ade565b9350611b5383611aef565b8060005b83811015611b84578151611b6b8882611b0e565b9750611b7683611b26565b925050600181019050611b57565b5085935050505092915050565b600081519050919050565b600082825260208201905092915050565b6000819050602082019050919050565b60006bffffffffffffffffffffffff82169050919050565b611bde81611bbd565b82525050565b6000611bf08383611bd5565b60208301905092915050565b6000602082019050919050565b6000611c1482611b91565b611c1e8185611b9c565b9350611c2983611bad565b8060005b83811015611c5a578151611c418882611be4565b9750611c4c83611bfc565b925050600181019050611c2d565b5085935050505092915050565b60006040830160008301518482036000860152611c848282611b33565b91505060208301518482036020860152611c9e8282611c09565b9150508091505092915050565b60006020820190508181036000830152611cc58184611c67565b905092915050565b600080600060608486031215611ce657611ce5611628565b5b6000611cf4868287016116b1565b935050602084013567ffffffffffffffff811115611d1557611d1461162d565b5b611d21868287016117de565b9250506040611d32868287016116b1565b9150509250925092565b611d4581611bbd565b82525050565b6000602082019050611d606000830184611d3c565b92915050565b600060208284031215611d7c57611d7b611628565b5b6000611d8a8482850161167b565b91505092915050565b611d9c8161180c565b82525050565b6000602082019050611db76000830184611d93565b92915050565b600067ffffffffffffffff821115611dd857611dd76116e1565b5b611de1826116d0565b9050602081019050919050565b6000611e01611dfc84611dbd565b611741565b905082815260208101848484011115611e1d57611e1c6116cb565b5b611e2884828561178d565b509392505050565b600082601f830112611e4557611e446116c6565b5b8135611e55848260208601611dee565b91505092915050565b6000806000806000806000806000806101408b8d031215611e8257611e81611628565b5b60008b013567ffffffffffffffff811115611ea057611e9f61162d565b5b611eac8d828e016117de565b9a50506020611ebd8d828e0161167b565b9950506040611ece8d828e0161167b565b9850506060611edf8d828e0161167b565b9750506080611ef08d828e0161167b565b96505060a0611f018d828e016116b1565b95505060c0611f128d828e016116b1565b94505060e0611f238d828e016116b1565b9350506101008b013567ffffffffffffffff811115611f4557611f4461162d565b5b611f518d828e01611e30565b9250506101208b013567ffffffffffffffff811115611f7357611f7261162d565b5b611f7f8d828e01611e30565b9150509295989b9194979a5092959850565b611f9a81611bbd565b8114611fa557600080fd5b50565b600081359050611fb781611f91565b92915050565b600060208284031215611fd357611fd2611628565b5b6000611fe184828501611fa8565b91505092915050565b6000806000806000806080878903121561200757612006611628565b5b600061201589828a0161167b565b965050602061202689828a016116b1565b955050604087013567ffffffffffffffff8111156120475761204661162d565b5b61205389828a0161184e565b9450945050606087013567ffffffffffffffff8111156120765761207561162d565b5b61208289828a016118a4565b92509250509295509295509295565b600080604083850312156120a8576120a7611628565b5b60006120b6858286016116b1565b925050602083013567ffffffffffffffff8111156120d7576120d661162d565b5b6120e3858286016117de565b9150509250929050565b600081905092915050565b7f4552433131353500000000000000000000000000000000000000000000000000600082015250565b600061212e6007836120ed565b9150612139826120f8565b600782019050919050565b600061214f82612121565b9150819050919050565b600081519050919050565b60005b83811015612182578082015181840152602081019050612167565b83811115612191576000848401525b50505050565b60006121a282612159565b6121ac81856120ed565b93506121bc818560208601612164565b80840191505092915050565b60006121d48284612197565b915081905092915050565b6121e881611652565b82525050565b600082825260208201905092915050565b600061220a82612159565b61221481856121ee565b9350612224818560208601612164565b61222d816116d0565b840191505092915050565b600082825260208201905092915050565b6000819050919050565b6000612262602084018461167b565b905092915050565b6000602082019050919050565b60006122838385612238565b935061228e82612249565b8060005b858110156122c7576122a48284612253565b6122ae8882611b0e565b97506122b98361226a565b925050600181019050612292565b5085925050509392505050565b600082825260208201905092915050565b6000819050919050565b60006122fe6020840184611fa8565b905092915050565b6000602082019050919050565b600061231f83856122d4565b935061232a826122e5565b8060005b858110156123635761234082846122ef565b61234a8882611be4565b975061235583612306565b92505060018101905061232e565b5085925050509392505050565b600060e082019050612385600083018c611a29565b612392602083018b6121df565b61239f604083018a611a29565b81810360608301526123b181896121ff565b90506123c06080830188611d93565b81810360a08301526123d3818688612277565b905081810360c08301526123e8818486612313565b90509a9950505050505050505050565b600060c08201905061240d600083018b611a29565b61241a602083018a6121df565b818103604083015261242c81896121ff565b905061243b6060830188611d93565b818103608083015261244e818688612277565b905081810360a0830152612463818486612313565b90509998505050505050505050565b60008151905061248181611664565b92915050565b60006020828403121561249d5761249c611628565b5b60006124ab84828501612472565b91505092915050565b7f4d656469613a2043616c6c6572206973206e6f74207468652061646d696e206f60008201527f66206d61726b657420706c61636520636f6e7472616374000000000000000000602082015250565b60006125106037836121ee565b915061251b826124b4565b604082019050919050565b6000602082019050818103600083015261253f81612503565b9050919050565b600060408201905061255b60008301856121df565b6125686020830184611d93565b9392505050565b600060408201905061258460008301856121df565b6125916020830184611a29565b9392505050565b600080fd5b600080fd5b600067ffffffffffffffff8211156125bd576125bc6116e1565b5b602082029050602081019050919050565b60006125e16125dc846125a2565b611741565b9050808382526020820190506020840283018581111561260457612603611849565b5b835b8181101561262d57806126198882612472565b845260208401935050602081019050612606565b5050509392505050565b600082601f83011261264c5761264b6116c6565b5b815161265c8482602086016125ce565b91505092915050565b600067ffffffffffffffff8211156126805761267f6116e1565b5b602082029050602081019050919050565b6000815190506126a081611f91565b92915050565b60006126b96126b484612665565b611741565b905080838252602082019050602084028301858111156126dc576126db611849565b5b835b8181101561270557806126f18882612691565b8452602084019350506020810190506126de565b5050509392505050565b600082601f830112612724576127236116c6565b5b81516127348482602086016126a6565b91505092915050565b60006040828403121561275357612752612598565b5b61275d6040611741565b9050600082015167ffffffffffffffff81111561277d5761277c61259d565b5b61278984828501612637565b600083015250602082015167ffffffffffffffff8111156127ad576127ac61259d565b5b6127b98482850161270f565b60208301525092915050565b6000602082840312156127db576127da611628565b5b600082015167ffffffffffffffff8111156127f9576127f861162d565b5b6128058482850161273d565b91505092915050565b7f4552433732310000000000000000000000000000000000000000000000000000600082015250565b60006128446006836120ed565b915061284f8261280e565b600682019050919050565b600061286582612837565b9150819050919050565b600060608201905061288460008301866121df565b6128916020830185611a29565b61289e6040830184611a29565b949350505050565b6000602082840312156128bc576128bb611628565b5b60006128ca84828501612691565b91505092915050565b60006020820190506128e860008301846121df565b92915050565b6000815190506128fd81611818565b92915050565b60006020828403121561291957612918611628565b5b6000612927848285016128ee565b91505092915050565b600081519050919050565b600082825260208201905092915050565b600061295782612930565b612961818561293b565b9350612971818560208601612164565b61297a816116d0565b840191505092915050565b60006101408201905081810360008301526129a0818d6121ff565b90506129af602083018c6121df565b6129bc604083018b6121df565b6129c9606083018a6121df565b6129d660808301896121df565b6129e360a0830188611a29565b6129f060c0830187611a29565b6129fd60e0830186611a29565b818103610100830152612a10818561294c565b9050818103610120830152612a25818461294c565b90509b9a5050505050505050505050565b7f414c52454144595f494e495449414c495a454400000000000000000000000000600082015250565b6000612a6c6013836121ee565b9150612a7782612a36565b602082019050919050565b60006020820190508181036000830152612a9b81612a5f565b9050919050565b7f4d656469613a20496e76616c6964204164647265737321000000000000000000600082015250565b6000612ad86017836121ee565b9150612ae382612aa2565b602082019050919050565b60006020820190508181036000830152612b0781612acb565b9050919050565b7f4d757374206f776e2074686520636f6e74726163742e00000000000000000000600082015250565b6000612b446016836121ee565b9150612b4f82612b0e565b602082019050919050565b60006020820190508181036000830152612b7381612b37565b9050919050565b7f4d656469613a204f6e6c792041646d696e2043616e2053657420436f6d6d697360008201527f73696f6e2050657263656e746167652100000000000000000000000000000000602082015250565b6000612bd66030836121ee565b9150612be182612b7a565b604082019050919050565b60006020820190508181036000830152612c0581612bc9565b9050919050565b7f4d656469613a20496e76616c696420436f6d6d697373696f6e2050657263656e60008201527f7461676500000000000000000000000000000000000000000000000000000000602082015250565b6000612c686024836121ee565b9150612c7382612c0c565b604082019050919050565b60006020820190508181036000830152612c9781612c5b565b9050919050565b7f4d656469613a20436f6d6d697373696f6e2050657263656e74616765204d757360008201527f74204265204c657373205468616e203525210000000000000000000000000000602082015250565b6000612cfa6032836121ee565b9150612d0582612c9e565b604082019050919050565b60006020820190508181036000830152612d2981612ced565b9050919050565b7f546f6f206d616e7920436f6c6c61626f7261746f727300000000000000000000600082015250565b6000612d666016836121ee565b9150612d7182612d30565b602082019050919050565b60006020820190508181036000830152612d9581612d59565b9050919050565b7f436f6c6c61626f7261746f7273206e6f74207365740000000000000000000000600082015250565b6000612dd26015836121ee565b9150612ddd82612d9c565b602082019050919050565b60006020820190508181036000830152612e0181612dc5565b9050919050565b7f4d69736d61746368206f6620436f6c6c61626f7261746f727320616e6420746860008201527f6569722073686172650000000000000000000000000000000000000000000000602082015250565b6000612e646029836121ee565b9150612e6f82612e08565b604082019050919050565b60006020820190508181036000830152612e9381612e57565b9050919050565b7f4f6e6c7920746f6b656e206f776e657220636f756c642063616c6c207468697360008201527f2066756e6374696f6e0000000000000000000000000000000000000000000000602082015250565b6000612ef66029836121ee565b9150612f0182612e9a565b604082019050919050565b60006020820190508181036000830152612f2581612ee9565b9050919050565b6000608082019050612f4160008301896121df565b612f4e6020830188611a29565b8181036040830152612f61818688612277565b90508181036060830152612f76818486612313565b905097965050505050505056fea2646970667358221220d00b082c19e6fb712f4643c738040a3f7304e37292acb0e815291b252a57f9cf64736f6c63430008090033",
  "linkReferences": {},
  "deployedLinkReferences": {}
}