{
  "_format": "hh-sol-artifact-1",
  "contractName": "ERC721AFactory",
  "sourceName": "contracts/factoryContracts/ERC721AFactory.sol",
  "abi": [
    {
      "inputs": [
        {
          "internalType": "string",
          "name": "name_",
          "type": "string"
        },
        {
          "internalType": "string",
          "name": "symbol_",
          "type": "string"
        }
      ],
      "stateMutability": "nonpayable",
      "type": "constructor"
    },
    {
      "inputs": [],
      "name": "ApprovalCallerNotOwnerNorApproved",
      "type": "error"
    },
    {
      "inputs": [],
      "name": "ApprovalQueryForNonexistentToken",
      "type": "error"
    },
    {
      "inputs": [],
      "name": "ApprovalToCurrentOwner",
      "type": "error"
    },
    {
      "inputs": [],
      "name": "ApproveToCaller",
      "type": "error"
    },
    {
      "inputs": [],
      "name": "BalanceQueryForZeroAddress",
      "type": "error"
    },
    {
      "inputs": [],
      "name": "MintToZeroAddress",
      "type": "error"
    },
    {
      "inputs": [],
      "name": "MintZeroQuantity",
      "type": "error"
    },
    {
      "inputs": [],
      "name": "OwnerQueryForNonexistentToken",
      "type": "error"
    },
    {
      "inputs": [],
      "name": "TransferCallerNotOwnerNorApproved",
      "type": "error"
    },
    {
      "inputs": [],
      "name": "TransferFromIncorrectOwner",
      "type": "error"
    },
    {
      "inputs": [],
      "name": "TransferToNonERC721ReceiverImplementer",
      "type": "error"
    },
    {
      "inputs": [],
      "name": "TransferToZeroAddress",
      "type": "error"
    },
    {
      "inputs": [],
      "name": "URIQueryForNonexistentToken",
      "type": "error"
    },
    {
      "anonymous": false,
      "inputs": [
        {
          "indexed": true,
          "internalType": "address",
          "name": "owner",
          "type": "address"
        },
        {
          "indexed": true,
          "internalType": "address",
          "name": "approved",
          "type": "address"
        },
        {
          "indexed": true,
          "internalType": "uint256",
          "name": "tokenId",
          "type": "uint256"
        }
      ],
      "name": "Approval",
      "type": "event"
    },
    {
      "anonymous": false,
      "inputs": [
        {
          "indexed": true,
          "internalType": "address",
          "name": "owner",
          "type": "address"
        },
        {
          "indexed": true,
          "internalType": "address",
          "name": "operator",
          "type": "address"
        },
        {
          "indexed": false,
          "internalType": "bool",
          "name": "approved",
          "type": "bool"
        }
      ],
      "name": "ApprovalForAll",
      "type": "event"
    },
    {
      "anonymous": false,
      "inputs": [
        {
          "indexed": false,
          "internalType": "string",
          "name": "uri",
          "type": "string"
        }
      ],
      "name": "BaseURI",
      "type": "event"
    },
    {
      "anonymous": false,
      "inputs": [
        {
          "indexed": true,
          "internalType": "address",
          "name": "previousOwner",
          "type": "address"
        },
        {
          "indexed": true,
          "internalType": "address",
          "name": "newOwner",
          "type": "address"
        }
      ],
      "name": "OwnershipTransferred",
      "type": "event"
    },
    {
      "anonymous": false,
      "inputs": [
        {
          "indexed": true,
          "internalType": "address",
          "name": "from",
          "type": "address"
        },
        {
          "indexed": true,
          "internalType": "address",
          "name": "to",
          "type": "address"
        },
        {
          "indexed": true,
          "internalType": "uint256",
          "name": "tokenId",
          "type": "uint256"
        }
      ],
      "name": "Transfer",
      "type": "event"
    },
    {
      "anonymous": false,
      "inputs": [
        {
          "indexed": false,
          "internalType": "bool",
          "name": "whitelistEnabled",
          "type": "bool"
        }
      ],
      "name": "WhiteListEnabled",
      "type": "event"
    },
    {
      "inputs": [],
      "name": "_currentIndex",
      "outputs": [
        {
          "internalType": "uint256",
          "name": "",
          "type": "uint256"
        }
      ],
      "stateMutability": "view",
      "type": "function"
    },
    {
      "inputs": [],
      "name": "_name",
      "outputs": [
        {
          "internalType": "string",
          "name": "",
          "type": "string"
        }
      ],
      "stateMutability": "view",
      "type": "function"
    },
    {
      "inputs": [],
      "name": "_symbol",
      "outputs": [
        {
          "internalType": "string",
          "name": "",
          "type": "string"
        }
      ],
      "stateMutability": "view",
      "type": "function"
    },
    {
      "inputs": [
        {
          "internalType": "address",
          "name": "to",
          "type": "address"
        },
        {
          "internalType": "uint256",
          "name": "tokenId",
          "type": "uint256"
        }
      ],
      "name": "approve",
      "outputs": [],
      "stateMutability": "nonpayable",
      "type": "function"
    },
    {
      "inputs": [
        {
          "internalType": "address",
          "name": "owner",
          "type": "address"
        }
      ],
      "name": "balanceOf",
      "outputs": [
        {
          "internalType": "uint256",
          "name": "",
          "type": "uint256"
        }
      ],
      "stateMutability": "view",
      "type": "function"
    },
    {
      "inputs": [],
      "name": "baseURI",
      "outputs": [
        {
          "internalType": "string",
          "name": "",
          "type": "string"
        }
      ],
      "stateMutability": "view",
      "type": "function"
    },
    {
      "inputs": [
        {
          "internalType": "uint256",
          "name": "tokenId",
          "type": "uint256"
        }
      ],
      "name": "burn",
      "outputs": [],
      "stateMutability": "nonpayable",
      "type": "function"
    },
    {
      "inputs": [
        {
          "internalType": "uint256",
          "name": "tokenId",
          "type": "uint256"
        }
      ],
      "name": "getApproved",
      "outputs": [
        {
          "internalType": "address",
          "name": "",
          "type": "address"
        }
      ],
      "stateMutability": "view",
      "type": "function"
    },
    {
      "inputs": [
        {
          "internalType": "address",
          "name": "owner",
          "type": "address"
        },
        {
          "internalType": "address",
          "name": "operator",
          "type": "address"
        }
      ],
      "name": "isApprovedForAll",
      "outputs": [
        {
          "internalType": "bool",
          "name": "",
          "type": "bool"
        }
      ],
      "stateMutability": "view",
      "type": "function"
    },
    {
      "inputs": [
        {
          "internalType": "uint256",
          "name": "_quantity",
          "type": "uint256"
        },
        {
          "internalType": "address",
          "name": "_creator",
          "type": "address"
        }
      ],
      "name": "mint",
      "outputs": [],
      "stateMutability": "nonpayable",
      "type": "function"
    },
    {
      "inputs": [],
      "name": "name",
      "outputs": [
        {
          "internalType": "string",
          "name": "",
          "type": "string"
        }
      ],
      "stateMutability": "view",
      "type": "function"
    },
    {
      "inputs": [],
      "name": "owner",
      "outputs": [
        {
          "internalType": "address",
          "name": "",
          "type": "address"
        }
      ],
      "stateMutability": "view",
      "type": "function"
    },
    {
      "inputs": [
        {
          "internalType": "uint256",
          "name": "tokenId",
          "type": "uint256"
        }
      ],
      "name": "ownerOf",
      "outputs": [
        {
          "internalType": "address",
          "name": "",
          "type": "address"
        }
      ],
      "stateMutability": "view",
      "type": "function"
    },
    {
      "inputs": [
        {
          "internalType": "address[]",
          "name": "currentAddresses",
          "type": "address[]"
        }
      ],
      "name": "removeWhitelist",
      "outputs": [],
      "stateMutability": "nonpayable",
      "type": "function"
    },
    {
      "inputs": [],
      "name": "renounceOwnership",
      "outputs": [],
      "stateMutability": "nonpayable",
      "type": "function"
    },
    {
      "inputs": [
        {
          "internalType": "address",
          "name": "from",
          "type": "address"
        },
        {
          "internalType": "address",
          "name": "to",
          "type": "address"
        },
        {
          "internalType": "uint256",
          "name": "tokenId",
          "type": "uint256"
        }
      ],
      "name": "safeTransferFrom",
      "outputs": [],
      "stateMutability": "nonpayable",
      "type": "function"
    },
    {
      "inputs": [
        {
          "internalType": "address",
          "name": "from",
          "type": "address"
        },
        {
          "internalType": "address",
          "name": "to",
          "type": "address"
        },
        {
          "internalType": "uint256",
          "name": "tokenId",
          "type": "uint256"
        },
        {
          "internalType": "bytes",
          "name": "_data",
          "type": "bytes"
        }
      ],
      "name": "safeTransferFrom",
      "outputs": [],
      "stateMutability": "nonpayable",
      "type": "function"
    },
    {
      "inputs": [
        {
          "internalType": "address",
          "name": "operator",
          "type": "address"
        },
        {
          "internalType": "bool",
          "name": "approved",
          "type": "bool"
        }
      ],
      "name": "setApprovalForAll",
      "outputs": [],
      "stateMutability": "nonpayable",
      "type": "function"
    },
    {
      "inputs": [
        {
          "internalType": "string",
          "name": "baseURI_",
          "type": "string"
        }
      ],
      "name": "setBaseURI",
      "outputs": [],
      "stateMutability": "nonpayable",
      "type": "function"
    },
    {
      "inputs": [
        {
          "internalType": "string",
          "name": "_uriSuffix",
          "type": "string"
        }
      ],
      "name": "setUriSuffix",
      "outputs": [],
      "stateMutability": "nonpayable",
      "type": "function"
    },
    {
      "inputs": [
        {
          "internalType": "address[]",
          "name": "newAddresses",
          "type": "address[]"
        }
      ],
      "name": "setWhitelist",
      "outputs": [],
      "stateMutability": "nonpayable",
      "type": "function"
    },
    {
      "inputs": [
        {
          "internalType": "bool",
          "name": "_state",
          "type": "bool"
        }
      ],
      "name": "setWhitelistEnabled",
      "outputs": [],
      "stateMutability": "nonpayable",
      "type": "function"
    },
    {
      "inputs": [
        {
          "internalType": "bytes4",
          "name": "interfaceId",
          "type": "bytes4"
        }
      ],
      "name": "supportsInterface",
      "outputs": [
        {
          "internalType": "bool",
          "name": "",
          "type": "bool"
        }
      ],
      "stateMutability": "view",
      "type": "function"
    },
    {
      "inputs": [],
      "name": "symbol",
      "outputs": [
        {
          "internalType": "string",
          "name": "",
          "type": "string"
        }
      ],
      "stateMutability": "view",
      "type": "function"
    },
    {
      "inputs": [
        {
          "internalType": "uint256",
          "name": "_tokenId",
          "type": "uint256"
        }
      ],
      "name": "tokenURI",
      "outputs": [
        {
          "internalType": "string",
          "name": "",
          "type": "string"
        }
      ],
      "stateMutability": "view",
      "type": "function"
    },
    {
      "inputs": [],
      "name": "totalSupply",
      "outputs": [
        {
          "internalType": "uint256",
          "name": "",
          "type": "uint256"
        }
      ],
      "stateMutability": "view",
      "type": "function"
    },
    {
      "inputs": [
        {
          "internalType": "address",
          "name": "from",
          "type": "address"
        },
        {
          "internalType": "address",
          "name": "to",
          "type": "address"
        },
        {
          "internalType": "uint256",
          "name": "tokenId",
          "type": "uint256"
        }
      ],
      "name": "transferFrom",
      "outputs": [],
      "stateMutability": "nonpayable",
      "type": "function"
    },
    {
      "inputs": [
        {
          "internalType": "address",
          "name": "newOwner",
          "type": "address"
        }
      ],
      "name": "transferOwnership",
      "outputs": [],
      "stateMutability": "nonpayable",
      "type": "function"
    },
    {
      "inputs": [],
      "name": "uriSuffix",
      "outputs": [
        {
          "internalType": "string",
          "name": "",
          "type": "string"
        }
      ],
      "stateMutability": "view",
      "type": "function"
    },
    {
      "inputs": [
        {
          "internalType": "address",
          "name": "",
          "type": "address"
        }
      ],
      "name": "whitelist",
      "outputs": [
        {
          "internalType": "bool",
          "name": "",
          "type": "bool"
        }
      ],
      "stateMutability": "view",
      "type": "function"
    },
    {
      "inputs": [],
      "name": "whitelistEnabled",
      "outputs": [
        {
          "internalType": "bool",
          "name": "",
          "type": "bool"
        }
      ],
      "stateMutability": "view",
      "type": "function"
    }
  ],
  "bytecode": "0x608060405260405180602001604052806000815250600990805190602001906200002b92919062000277565b506040518060400160405280600581526020017f2e6a736f6e000000000000000000000000000000000000000000000000000000815250600a90805190602001906200007992919062000277565b506000600b556000600c60006101000a81548160ff021916908315150217905550348015620000a757600080fd5b5060405162003cf438038062003cf48339818101604052810190620000cd9190620004c4565b81818160029080519060200190620000e792919062000277565b5080600390805190602001906200010092919062000277565b5062000111620001a460201b60201c565b6000819055505050620001396200012d620001a960201b60201c565b620001b160201b60201c565b6000829050600082905060008251141580156200015857506000815114155b6200019a576040517f08c379a00000000000000000000000000000000000000000000000000000000081526004016200019190620005d0565b60405180910390fd5b5050505062000657565b600090565b600033905090565b6000600860009054906101000a900473ffffffffffffffffffffffffffffffffffffffff16905081600860006101000a81548173ffffffffffffffffffffffffffffffffffffffff021916908373ffffffffffffffffffffffffffffffffffffffff1602179055508173ffffffffffffffffffffffffffffffffffffffff168173ffffffffffffffffffffffffffffffffffffffff167f8be0079c531659141344cd1fd0a4f28419497f9722a3daafe3b4186f6b6457e060405160405180910390a35050565b828054620002859062000621565b90600052602060002090601f016020900481019282620002a95760008555620002f5565b82601f10620002c457805160ff1916838001178555620002f5565b82800160010185558215620002f5579182015b82811115620002f4578251825591602001919060010190620002d7565b5b50905062000304919062000308565b5090565b5b808211156200032357600081600090555060010162000309565b5090565b6000604051905090565b600080fd5b600080fd5b600080fd5b600080fd5b6000601f19601f8301169050919050565b7f4e487b7100000000000000000000000000000000000000000000000000000000600052604160045260246000fd5b620003908262000345565b810181811067ffffffffffffffff82111715620003b257620003b162000356565b5b80604052505050565b6000620003c762000327565b9050620003d5828262000385565b919050565b600067ffffffffffffffff821115620003f857620003f762000356565b5b620004038262000345565b9050602081019050919050565b60005b838110156200043057808201518184015260208101905062000413565b8381111562000440576000848401525b50505050565b60006200045d6200045784620003da565b620003bb565b9050828152602081018484840111156200047c576200047b62000340565b5b6200048984828562000410565b509392505050565b600082601f830112620004a957620004a86200033b565b5b8151620004bb84826020860162000446565b91505092915050565b60008060408385031215620004de57620004dd62000331565b5b600083015167ffffffffffffffff811115620004ff57620004fe62000336565b5b6200050d8582860162000491565b925050602083015167ffffffffffffffff81111562000531576200053062000336565b5b6200053f8582860162000491565b9150509250929050565b600082825260208201905092915050565b7f455243373231413a2043686f6f73652061206e616d6520616e642073796d626f60008201527f6c00000000000000000000000000000000000000000000000000000000000000602082015250565b6000620005b860218362000549565b9150620005c5826200055a565b604082019050919050565b60006020820190508181036000830152620005eb81620005a9565b9050919050565b7f4e487b7100000000000000000000000000000000000000000000000000000000600052602260045260246000fd5b600060028204905060018216806200063a57607f821691505b60208210811415620006515762000650620005f2565b5b50919050565b61368d80620006676000396000f3fe608060405234801561001057600080fd5b50600436106101e55760003560e01c80636c0360eb1161010f578063a22cb465116100a2578063d28d885211610071578063d28d885214610556578063e985e9c514610574578063f2fde38b146105a4578063f4217648146105c0576101e5565b8063a22cb465146104d0578063b09f1266146104ec578063b88d4fde1461050a578063c87b56dd14610526576101e5565b80639451c99a116100de5780639451c99a1461044857806394bf804d1461046657806395d89b41146104825780639b19251a146104a0576101e5565b80636c0360eb146103d257806370a08231146103f0578063715018a6146104205780638da5cb5b1461042a576101e5565b8063232452161161018757806351fb012d1161015657806351fb012d1461034a5780635503a0e81461036857806355f804b3146103865780636352211e146103a2576101e5565b806323245216146102da57806323b872dd146102f657806342842e0e1461031257806342966c681461032e576101e5565b8063081812fc116101c3578063081812fc14610254578063095ea7b31461028457806316ba10e0146102a057806318160ddd146102bc576101e5565b806301ffc9a7146101ea578063052d9e7e1461021a57806306fdde0314610236575b600080fd5b61020460048036038101906101ff91906126c3565b6105dc565b604051610211919061270b565b60405180910390f35b610234600480360381019061022f9190612752565b61066e565b005b61023e6106d9565b60405161024b9190612818565b60405180910390f35b61026e60048036038101906102699190612870565b61076b565b60405161027b91906128de565b60405180910390f35b61029e60048036038101906102999190612925565b6107e7565b005b6102ba60048036038101906102b59190612a9a565b61098e565b005b6102c46109b0565b6040516102d19190612af2565b60405180910390f35b6102f460048036038101906102ef9190612b6d565b6109c7565b005b610310600480360381019061030b9190612bba565b610b10565b005b61032c60048036038101906103279190612bba565b610b20565b005b61034860048036038101906103439190612870565b610b40565b005b610352610b4c565b60405161035f919061270b565b60405180910390f35b610370610b5f565b60405161037d9190612818565b60405180910390f35b6103a0600480360381019061039b9190612a9a565b610bed565b005b6103bc60048036038101906103b79190612870565b610c47565b6040516103c991906128de565b60405180910390f35b6103da610c59565b6040516103e79190612818565b60405180910390f35b61040a60048036038101906104059190612c0d565b610ce7565b6040516104179190612af2565b60405180910390f35b610428610d7c565b005b610432610d90565b60405161043f91906128de565b60405180910390f35b610450610dba565b60405161045d9190612af2565b60405180910390f35b610480600480360381019061047b9190612c3a565b610dc0565b005b61048a610f09565b6040516104979190612818565b60405180910390f35b6104ba60048036038101906104b59190612c0d565b610f9b565b6040516104c7919061270b565b60405180910390f35b6104ea60048036038101906104e59190612c7a565b610fbb565b005b6104f4611133565b6040516105019190612818565b60405180910390f35b610524600480360381019061051f9190612d5b565b6111c1565b005b610540600480360381019061053b9190612870565b611234565b60405161054d9190612818565b60405180910390f35b61055e6112de565b60405161056b9190612818565b60405180910390f35b61058e60048036038101906105899190612dde565b61136c565b60405161059b919061270b565b60405180910390f35b6105be60048036038101906105b99190612c0d565b611400565b005b6105da60048036038101906105d59190612b6d565b611484565b005b60006301ffc9a760e01b827bffffffffffffffffffffffffffffffffffffffffffffffffffffffff1916148061063757506380ac58cd60e01b827bffffffffffffffffffffffffffffffffffffffffffffffffffffffff1916145b806106675750635b5e139f60e01b827bffffffffffffffffffffffffffffffffffffffffffffffffffffffff1916145b9050919050565b61067661161c565b80600c60006101000a81548160ff0219169083151502179055507f218e591c4b0d49651b4b42843cb8cc59080122def3d2271f56ef2e21896753ec600c60009054906101000a900460ff166040516106ce919061270b565b60405180910390a150565b6060600280546106e890612e4d565b80601f016020809104026020016040519081016040528092919081815260200182805461071490612e4d565b80156107615780601f1061073657610100808354040283529160200191610761565b820191906000526020600020905b81548152906001019060200180831161074457829003601f168201915b5050505050905090565b60006107768261169a565b6107ac576040517fcf4700e400000000000000000000000000000000000000000000000000000000815260040160405180910390fd5b6006600083815260200190815260200160002060009054906101000a900473ffffffffffffffffffffffffffffffffffffffff169050919050565b60006107f2826116f9565b90508073ffffffffffffffffffffffffffffffffffffffff168373ffffffffffffffffffffffffffffffffffffffff16141561085a576040517f943f7b8c00000000000000000000000000000000000000000000000000000000815260040160405180910390fd5b8073ffffffffffffffffffffffffffffffffffffffff166108796117c7565b73ffffffffffffffffffffffffffffffffffffffff16146108dc576108a5816108a06117c7565b61136c565b6108db576040517fcfb3b94200000000000000000000000000000000000000000000000000000000815260040160405180910390fd5b5b826006600084815260200190815260200160002060006101000a81548173ffffffffffffffffffffffffffffffffffffffff021916908373ffffffffffffffffffffffffffffffffffffffff160217905550818373ffffffffffffffffffffffffffffffffffffffff168273ffffffffffffffffffffffffffffffffffffffff167f8c5be1e5ebec7d5bd14f71427d1e84f3dd0314c0f7b2291e5b200ac8c7c3b92560405160405180910390a4505050565b61099661161c565b80600a90805190602001906109ac9291906125b4565b5050565b60006109ba6117cf565b6001546000540303905090565b6109cf61161c565b60008282905011610a15576040517f08c379a0000000000000000000000000000000000000000000000000000000008152600401610a0c90612ecb565b60405180910390fd5b6005828290501115610a5c576040517f08c379a0000000000000000000000000000000000000000000000000000000008152600401610a5390612f37565b60405180910390fd5b60005b82829050811015610b0b57600d6000848484818110610a8157610a80612f57565b5b9050602002016020810190610a969190612c0d565b73ffffffffffffffffffffffffffffffffffffffff1673ffffffffffffffffffffffffffffffffffffffff16815260200190815260200160002060006101000a81549060ff0219169055600b6000815480929190610af390612fb5565b91905055508080610b0390612fdf565b915050610a5f565b505050565b610b1b8383836117d4565b505050565b610b3b838383604051806020016040528060008152506111c1565b505050565b610b4981611b9c565b50565b600c60009054906101000a900460ff1681565b600a8054610b6c90612e4d565b80601f0160208091040260200160405190810160405280929190818152602001828054610b9890612e4d565b8015610be55780601f10610bba57610100808354040283529160200191610be5565b820191906000526020600020905b815481529060010190602001808311610bc857829003601f168201915b505050505081565b610bf561161c565b8060099080519060200190610c0b9291906125b4565b507f01e56a02aca7f26a28165a040851ba78f30282b55ca81c63a804cdc1e2dcea726009604051610c3c91906130bd565b60405180910390a150565b6000610c52826116f9565b9050919050565b60098054610c6690612e4d565b80601f0160208091040260200160405190810160405280929190818152602001828054610c9290612e4d565b8015610cdf5780601f10610cb457610100808354040283529160200191610cdf565b820191906000526020600020905b815481529060010190602001808311610cc257829003601f168201915b505050505081565b600080610cf383611baa565b1415610d2b576040517f8f4eb60400000000000000000000000000000000000000000000000000000000815260040160405180910390fd5b67ffffffffffffffff600560008473ffffffffffffffffffffffffffffffffffffffff1673ffffffffffffffffffffffffffffffffffffffff16815260200190815260200160002054169050919050565b610d8461161c565b610d8e6000611bb4565b565b6000600860009054906101000a900473ffffffffffffffffffffffffffffffffffffffff16905090565b60005481565b60001515600c60009054906101000a900460ff1615151415610e5257610de4610d90565b73ffffffffffffffffffffffffffffffffffffffff163373ffffffffffffffffffffffffffffffffffffffff1614610e51576040517f08c379a0000000000000000000000000000000000000000000000000000000008152600401610e489061312b565b60405180910390fd5b5b60011515600c60009054906101000a900460ff1615151415610efb57600d60003373ffffffffffffffffffffffffffffffffffffffff1673ffffffffffffffffffffffffffffffffffffffff16815260200190815260200160002060009054906101000a900460ff16610efa576040517f08c379a0000000000000000000000000000000000000000000000000000000008152600401610ef19061312b565b60405180910390fd5b5b610f058183611c7a565b5050565b606060038054610f1890612e4d565b80601f0160208091040260200160405190810160405280929190818152602001828054610f4490612e4d565b8015610f915780601f10610f6657610100808354040283529160200191610f91565b820191906000526020600020905b815481529060010190602001808311610f7457829003601f168201915b5050505050905090565b600d6020528060005260406000206000915054906101000a900460ff1681565b610fc36117c7565b73ffffffffffffffffffffffffffffffffffffffff168273ffffffffffffffffffffffffffffffffffffffff161415611028576040517fb06307db00000000000000000000000000000000000000000000000000000000815260040160405180910390fd5b80600760006110356117c7565b73ffffffffffffffffffffffffffffffffffffffff1673ffffffffffffffffffffffffffffffffffffffff16815260200190815260200160002060008473ffffffffffffffffffffffffffffffffffffffff1673ffffffffffffffffffffffffffffffffffffffff16815260200190815260200160002060006101000a81548160ff0219169083151502179055508173ffffffffffffffffffffffffffffffffffffffff166110e26117c7565b73ffffffffffffffffffffffffffffffffffffffff167f17307eab39ab6107e8899845ad3d59bd9653f200f220920489ca2b5937696c3183604051611127919061270b565b60405180910390a35050565b6003805461114090612e4d565b80601f016020809104026020016040519081016040528092919081815260200182805461116c90612e4d565b80156111b95780601f1061118e576101008083540402835291602001916111b9565b820191906000526020600020905b81548152906001019060200180831161119c57829003601f168201915b505050505081565b6111cc8484846117d4565b60008373ffffffffffffffffffffffffffffffffffffffff163b1461122e576111f784848484611c98565b61122d576040517fd1a57ed600000000000000000000000000000000000000000000000000000000815260040160405180910390fd5b5b50505050565b606061123f8261169a565b61127e576040517f08c379a0000000000000000000000000000000000000000000000000000000008152600401611275906131bd565b60405180910390fd5b6000611288611df8565b905060008151116112a857604051806020016040528060008152506112d6565b806112b284611e8a565b600a6040516020016112c693929190613298565b6040516020818303038152906040525b915050919050565b600280546112eb90612e4d565b80601f016020809104026020016040519081016040528092919081815260200182805461131790612e4d565b80156113645780601f1061133957610100808354040283529160200191611364565b820191906000526020600020905b81548152906001019060200180831161134757829003601f168201915b505050505081565b6000600760008473ffffffffffffffffffffffffffffffffffffffff1673ffffffffffffffffffffffffffffffffffffffff16815260200190815260200160002060008373ffffffffffffffffffffffffffffffffffffffff1673ffffffffffffffffffffffffffffffffffffffff16815260200190815260200160002060009054906101000a900460ff16905092915050565b61140861161c565b600073ffffffffffffffffffffffffffffffffffffffff168173ffffffffffffffffffffffffffffffffffffffff161415611478576040517f08c379a000000000000000000000000000000000000000000000000000000000815260040161146f9061333b565b60405180910390fd5b61148181611bb4565b50565b61148c61161c565b600082829050116114d2576040517f08c379a00000000000000000000000000000000000000000000000000000000081526004016114c990612ecb565b60405180910390fd5b6107d08282905010611519576040517f08c379a000000000000000000000000000000000000000000000000000000000815260040161151090612f37565b60405180910390fd5b60005b82829050811015611617576107d0600b541061156d576040517f08c379a0000000000000000000000000000000000000000000000000000000008152600401611564906133cd565b60405180910390fd5b6001600d600085858581811061158657611585612f57565b5b905060200201602081019061159b9190612c0d565b73ffffffffffffffffffffffffffffffffffffffff1673ffffffffffffffffffffffffffffffffffffffff16815260200190815260200160002060006101000a81548160ff021916908315150217905550600b60008154809291906115ff90612fdf565b9190505550808061160f90612fdf565b91505061151c565b505050565b611624611feb565b73ffffffffffffffffffffffffffffffffffffffff16611642610d90565b73ffffffffffffffffffffffffffffffffffffffff1614611698576040517f08c379a000000000000000000000000000000000000000000000000000000000815260040161168f90613439565b60405180910390fd5b565b6000816116a56117cf565b111580156116b4575060005482105b80156116f2575060007c0100000000000000000000000000000000000000000000000000000000600460008581526020019081526020016000205416145b9050919050565b600080829050806117086117cf565b116117905760005481101561178f5760006004600083815260200190815260200160002054905060007c01000000000000000000000000000000000000000000000000000000008216141561178d575b6000811415611783576004600083600190039350838152602001908152602001600020549050611758565b80925050506117c2565b505b5b6040517fdf2d9b4200000000000000000000000000000000000000000000000000000000815260040160405180910390fd5b919050565b600033905090565b600090565b60006117df826116f9565b90508373ffffffffffffffffffffffffffffffffffffffff168173ffffffffffffffffffffffffffffffffffffffff1614611846576040517fa114810000000000000000000000000000000000000000000000000000000000815260040160405180910390fd5b60006006600084815260200190815260200160002060009054906101000a900473ffffffffffffffffffffffffffffffffffffffff16905060008573ffffffffffffffffffffffffffffffffffffffff1661189f6117c7565b73ffffffffffffffffffffffffffffffffffffffff1614806118ce57506118cd866118c86117c7565b61136c565b5b8061190b57506118dc6117c7565b73ffffffffffffffffffffffffffffffffffffffff168273ffffffffffffffffffffffffffffffffffffffff16145b905080611944576040517f59c896be00000000000000000000000000000000000000000000000000000000815260040160405180910390fd5b600061194f86611baa565b1415611987576040517fea553b3400000000000000000000000000000000000000000000000000000000815260040160405180910390fd5b6119948686866001611ff3565b600061199f83611baa565b146119db576006600085815260200190815260200160002060006101000a81549073ffffffffffffffffffffffffffffffffffffffff02191690555b600560008773ffffffffffffffffffffffffffffffffffffffff1673ffffffffffffffffffffffffffffffffffffffff168152602001908152602001600020600081546001900391905081905550600560008673ffffffffffffffffffffffffffffffffffffffff1673ffffffffffffffffffffffffffffffffffffffff16815260200190815260200160002060008154600101919050819055507c020000000000000000000000000000000000000000000000000000000060a042901b611aa287611baa565b1717600460008681526020019081526020016000208190555060007c020000000000000000000000000000000000000000000000000000000084161415611b2c576000600185019050600060046000838152602001908152602001600020541415611b2a576000548114611b29578360046000838152602001908152602001600020819055505b5b505b838573ffffffffffffffffffffffffffffffffffffffff168773ffffffffffffffffffffffffffffffffffffffff167fddf252ad1be2c89b69c2b068fc378daa952ba7f163c4a11628f55a4df523b3ef60405160405180910390a4611b948686866001611ff9565b505050505050565b611ba7816000611fff565b50565b6000819050919050565b6000600860009054906101000a900473ffffffffffffffffffffffffffffffffffffffff16905081600860006101000a81548173ffffffffffffffffffffffffffffffffffffffff021916908373ffffffffffffffffffffffffffffffffffffffff1602179055508173ffffffffffffffffffffffffffffffffffffffff168173ffffffffffffffffffffffffffffffffffffffff167f8be0079c531659141344cd1fd0a4f28419497f9722a3daafe3b4186f6b6457e060405160405180910390a35050565b611c94828260405180602001604052806000815250612319565b5050565b60008373ffffffffffffffffffffffffffffffffffffffff1663150b7a02611cbe6117c7565b8786866040518563ffffffff1660e01b8152600401611ce094939291906134ae565b602060405180830381600087803b158015611cfa57600080fd5b505af1925050508015611d2b57506040513d601f19601f82011682018060405250810190611d28919061350f565b60015b611da5573d8060008114611d5b576040519150601f19603f3d011682016040523d82523d6000602084013e611d60565b606091505b50600081511415611d9d576040517fd1a57ed600000000000000000000000000000000000000000000000000000000815260040160405180910390fd5b805181602001fd5b63150b7a0260e01b7bffffffffffffffffffffffffffffffffffffffffffffffffffffffff1916817bffffffffffffffffffffffffffffffffffffffffffffffffffffffff191614915050949350505050565b606060098054611e0790612e4d565b80601f0160208091040260200160405190810160405280929190818152602001828054611e3390612e4d565b8015611e805780601f10611e5557610100808354040283529160200191611e80565b820191906000526020600020905b815481529060010190602001808311611e6357829003601f168201915b5050505050905090565b60606000821415611ed2576040518060400160405280600181526020017f30000000000000000000000000000000000000000000000000000000000000008152509050611fe6565b600082905060005b60008214611f04578080611eed90612fdf565b915050600a82611efd919061356b565b9150611eda565b60008167ffffffffffffffff811115611f2057611f1f61296f565b5b6040519080825280601f01601f191660200182016040528015611f525781602001600182028036833780820191505090505b5090505b60008514611fdf57600182611f6b919061359c565b9150600a85611f7a91906135d0565b6030611f869190613601565b60f81b818381518110611f9c57611f9b612f57565b5b60200101907effffffffffffffffffffffffffffffffffffffffffffffffffffffffffffff1916908160001a905350600a85611fd8919061356b565b9450611f56565b8093505050505b919050565b600033905090565b50505050565b50505050565b600061200a836116f9565b9050600081905060006006600086815260200190815260200160002060009054906101000a900473ffffffffffffffffffffffffffffffffffffffff16905083156121175760008273ffffffffffffffffffffffffffffffffffffffff166120706117c7565b73ffffffffffffffffffffffffffffffffffffffff16148061209f575061209e836120996117c7565b61136c565b5b806120dc57506120ad6117c7565b73ffffffffffffffffffffffffffffffffffffffff168273ffffffffffffffffffffffffffffffffffffffff16145b905080612115576040517f59c896be00000000000000000000000000000000000000000000000000000000815260040160405180910390fd5b505b612125826000876001611ff3565b600061213082611baa565b1461216c576006600086815260200190815260200160002060006101000a81549073ffffffffffffffffffffffffffffffffffffffff02191690555b600160806001901b03600560008473ffffffffffffffffffffffffffffffffffffffff1673ffffffffffffffffffffffffffffffffffffffff168152602001908152602001600020600082825401925050819055507c02000000000000000000000000000000000000000000000000000000007c010000000000000000000000000000000000000000000000000000000060a042901b61220b85611baa565b171717600460008781526020019081526020016000208190555060007c020000000000000000000000000000000000000000000000000000000084161415612296576000600186019050600060046000838152602001908152602001600020541415612294576000548114612293578360046000838152602001908152602001600020819055505b5b505b84600073ffffffffffffffffffffffffffffffffffffffff168373ffffffffffffffffffffffffffffffffffffffff167fddf252ad1be2c89b69c2b068fc378daa952ba7f163c4a11628f55a4df523b3ef60405160405180910390a4612300826000876001611ff9565b6001600081548092919060010191905055505050505050565b600080549050600061232a85611baa565b1415612362576040517f2e07630000000000000000000000000000000000000000000000000000000000815260040160405180910390fd5b600083141561239d576040517fb562e8dd00000000000000000000000000000000000000000000000000000000815260040160405180910390fd5b6123aa6000858386611ff3565b600160406001901b178302600560008673ffffffffffffffffffffffffffffffffffffffff1673ffffffffffffffffffffffffffffffffffffffff1681526020019081526020016000206000828254019250508190555060e161240f600185146125aa565b901b60a042901b61241f86611baa565b1717600460008381526020019081526020016000208190555060008190506000848201905060008673ffffffffffffffffffffffffffffffffffffffff163b14612523575b818673ffffffffffffffffffffffffffffffffffffffff16600073ffffffffffffffffffffffffffffffffffffffff167fddf252ad1be2c89b69c2b068fc378daa952ba7f163c4a11628f55a4df523b3ef60405160405180910390a46124d36000878480600101955087611c98565b612509576040517fd1a57ed600000000000000000000000000000000000000000000000000000000815260040160405180910390fd5b80821061246457826000541461251e57600080fd5b61258e565b5b818060010192508673ffffffffffffffffffffffffffffffffffffffff16600073ffffffffffffffffffffffffffffffffffffffff167fddf252ad1be2c89b69c2b068fc378daa952ba7f163c4a11628f55a4df523b3ef60405160405180910390a4808210612524575b8160008190555050506125a46000858386611ff9565b50505050565b6000819050919050565b8280546125c090612e4d565b90600052602060002090601f0160209004810192826125e25760008555612629565b82601f106125fb57805160ff1916838001178555612629565b82800160010185558215612629579182015b8281111561262857825182559160200191906001019061260d565b5b509050612636919061263a565b5090565b5b8082111561265357600081600090555060010161263b565b5090565b6000604051905090565b600080fd5b600080fd5b60007fffffffff0000000000000000000000000000000000000000000000000000000082169050919050565b6126a08161266b565b81146126ab57600080fd5b50565b6000813590506126bd81612697565b92915050565b6000602082840312156126d9576126d8612661565b5b60006126e7848285016126ae565b91505092915050565b60008115159050919050565b612705816126f0565b82525050565b600060208201905061272060008301846126fc565b92915050565b61272f816126f0565b811461273a57600080fd5b50565b60008135905061274c81612726565b92915050565b60006020828403121561276857612767612661565b5b60006127768482850161273d565b91505092915050565b600081519050919050565b600082825260208201905092915050565b60005b838110156127b957808201518184015260208101905061279e565b838111156127c8576000848401525b50505050565b6000601f19601f8301169050919050565b60006127ea8261277f565b6127f4818561278a565b935061280481856020860161279b565b61280d816127ce565b840191505092915050565b6000602082019050818103600083015261283281846127df565b905092915050565b6000819050919050565b61284d8161283a565b811461285857600080fd5b50565b60008135905061286a81612844565b92915050565b60006020828403121561288657612885612661565b5b60006128948482850161285b565b91505092915050565b600073ffffffffffffffffffffffffffffffffffffffff82169050919050565b60006128c88261289d565b9050919050565b6128d8816128bd565b82525050565b60006020820190506128f360008301846128cf565b92915050565b612902816128bd565b811461290d57600080fd5b50565b60008135905061291f816128f9565b92915050565b6000806040838503121561293c5761293b612661565b5b600061294a85828601612910565b925050602061295b8582860161285b565b9150509250929050565b600080fd5b600080fd5b7f4e487b7100000000000000000000000000000000000000000000000000000000600052604160045260246000fd5b6129a7826127ce565b810181811067ffffffffffffffff821117156129c6576129c561296f565b5b80604052505050565b60006129d9612657565b90506129e5828261299e565b919050565b600067ffffffffffffffff821115612a0557612a0461296f565b5b612a0e826127ce565b9050602081019050919050565b82818337600083830152505050565b6000612a3d612a38846129ea565b6129cf565b905082815260208101848484011115612a5957612a5861296a565b5b612a64848285612a1b565b509392505050565b600082601f830112612a8157612a80612965565b5b8135612a91848260208601612a2a565b91505092915050565b600060208284031215612ab057612aaf612661565b5b600082013567ffffffffffffffff811115612ace57612acd612666565b5b612ada84828501612a6c565b91505092915050565b612aec8161283a565b82525050565b6000602082019050612b076000830184612ae3565b92915050565b600080fd5b600080fd5b60008083601f840112612b2d57612b2c612965565b5b8235905067ffffffffffffffff811115612b4a57612b49612b0d565b5b602083019150836020820283011115612b6657612b65612b12565b5b9250929050565b60008060208385031215612b8457612b83612661565b5b600083013567ffffffffffffffff811115612ba257612ba1612666565b5b612bae85828601612b17565b92509250509250929050565b600080600060608486031215612bd357612bd2612661565b5b6000612be186828701612910565b9350506020612bf286828701612910565b9250506040612c038682870161285b565b9150509250925092565b600060208284031215612c2357612c22612661565b5b6000612c3184828501612910565b91505092915050565b60008060408385031215612c5157612c50612661565b5b6000612c5f8582860161285b565b9250506020612c7085828601612910565b9150509250929050565b60008060408385031215612c9157612c90612661565b5b6000612c9f85828601612910565b9250506020612cb08582860161273d565b9150509250929050565b600067ffffffffffffffff821115612cd557612cd461296f565b5b612cde826127ce565b9050602081019050919050565b6000612cfe612cf984612cba565b6129cf565b905082815260208101848484011115612d1a57612d1961296a565b5b612d25848285612a1b565b509392505050565b600082601f830112612d4257612d41612965565b5b8135612d52848260208601612ceb565b91505092915050565b60008060008060808587031215612d7557612d74612661565b5b6000612d8387828801612910565b9450506020612d9487828801612910565b9350506040612da58782880161285b565b925050606085013567ffffffffffffffff811115612dc657612dc5612666565b5b612dd287828801612d2d565b91505092959194509250565b60008060408385031215612df557612df4612661565b5b6000612e0385828601612910565b9250506020612e1485828601612910565b9150509250929050565b7f4e487b7100000000000000000000000000000000000000000000000000000000600052602260045260246000fd5b60006002820490506001821680612e6557607f821691505b60208210811415612e7957612e78612e1e565b5b50919050565b7f4e6f20757365722064657461696c732070726f76696465640000000000000000600082015250565b6000612eb560188361278a565b9150612ec082612e7f565b602082019050919050565b60006020820190508181036000830152612ee481612ea8565b9050919050565b7f546f6f206d616e792075736572737320746f2077686974656c69737400000000600082015250565b6000612f21601c8361278a565b9150612f2c82612eeb565b602082019050919050565b60006020820190508181036000830152612f5081612f14565b9050919050565b7f4e487b7100000000000000000000000000000000000000000000000000000000600052603260045260246000fd5b7f4e487b7100000000000000000000000000000000000000000000000000000000600052601160045260246000fd5b6000612fc08261283a565b91506000821415612fd457612fd3612f86565b5b600182039050919050565b6000612fea8261283a565b91507fffffffffffffffffffffffffffffffffffffffffffffffffffffffffffffffff82141561301d5761301c612f86565b5b600182019050919050565b60008190508160005260206000209050919050565b6000815461304a81612e4d565b613054818661278a565b9450600182166000811461306f5760018114613081576130b4565b60ff19831686526020860193506130b4565b61308a85613028565b60005b838110156130ac5781548189015260018201915060208101905061308d565b808801955050505b50505092915050565b600060208201905081810360008301526130d7818461303d565b905092915050565b7f41646472657373206e6f742077686974656c6973746564000000000000000000600082015250565b600061311560178361278a565b9150613120826130df565b602082019050919050565b6000602082019050818103600083015261314481613108565b9050919050565b7f4552433732314d657461646174613a2055524920717565727920666f72206e6f60008201527f6e6578697374656e7420746f6b656e0000000000000000000000000000000000602082015250565b60006131a7602f8361278a565b91506131b28261314b565b604082019050919050565b600060208201905081810360008301526131d68161319a565b9050919050565b600081905092915050565b60006131f38261277f565b6131fd81856131dd565b935061320d81856020860161279b565b80840191505092915050565b6000815461322681612e4d565b61323081866131dd565b9450600182166000811461324b576001811461325c5761328f565b60ff1983168652818601935061328f565b61326585613028565b60005b8381101561328757815481890152600182019150602081019050613268565b838801955050505b50505092915050565b60006132a482866131e8565b91506132b082856131e8565b91506132bc8284613219565b9150819050949350505050565b7f4f776e61626c653a206e6577206f776e657220697320746865207a65726f206160008201527f6464726573730000000000000000000000000000000000000000000000000000602082015250565b600061332560268361278a565b9150613330826132c9565b604082019050919050565b6000602082019050818103600083015261335481613318565b9050919050565b7f4d6178696d756d20557365727320616c72656164792077686974656c6973746560008201527f6400000000000000000000000000000000000000000000000000000000000000602082015250565b60006133b760218361278a565b91506133c28261335b565b604082019050919050565b600060208201905081810360008301526133e6816133aa565b9050919050565b7f4f776e61626c653a2063616c6c6572206973206e6f7420746865206f776e6572600082015250565b600061342360208361278a565b915061342e826133ed565b602082019050919050565b6000602082019050818103600083015261345281613416565b9050919050565b600081519050919050565b600082825260208201905092915050565b600061348082613459565b61348a8185613464565b935061349a81856020860161279b565b6134a3816127ce565b840191505092915050565b60006080820190506134c360008301876128cf565b6134d060208301866128cf565b6134dd6040830185612ae3565b81810360608301526134ef8184613475565b905095945050505050565b60008151905061350981612697565b92915050565b60006020828403121561352557613524612661565b5b6000613533848285016134fa565b91505092915050565b7f4e487b7100000000000000000000000000000000000000000000000000000000600052601260045260246000fd5b60006135768261283a565b91506135818361283a565b9250826135915761359061353c565b5b828204905092915050565b60006135a78261283a565b91506135b28361283a565b9250828210156135c5576135c4612f86565b5b828203905092915050565b60006135db8261283a565b91506135e68361283a565b9250826135f6576135f561353c565b5b828206905092915050565b600061360c8261283a565b91506136178361283a565b9250827fffffffffffffffffffffffffffffffffffffffffffffffffffffffffffffffff0382111561364c5761364b612f86565b5b82820190509291505056fea2646970667358221220d9948794d938a417ac8d67969ad79f9eaf6c1ac5af8c0fc7b08782a8120d58b564736f6c63430008090033",
  "linkReferences": {},
  "deployedLinkReferences": {}
}