{
  "_format": "hh-sol-artifact-1",
  "contractName": "ERC721AFactory",
  "sourceName": "contracts/factoryContracts/ERC721AFactory.sol",
  "abi": [
    {
      "inputs": [
        {
          "internalType": "string",
          "name": "name_",
          "type": "string"
        },
        {
          "internalType": "string",
          "name": "symbol_",
          "type": "string"
        }
      ],
      "stateMutability": "nonpayable",
      "type": "constructor"
    },
    {
      "inputs": [],
      "name": "ApprovalCallerNotOwnerNorApproved",
      "type": "error"
    },
    {
      "inputs": [],
      "name": "ApprovalQueryForNonexistentToken",
      "type": "error"
    },
    {
      "inputs": [],
      "name": "ApprovalToCurrentOwner",
      "type": "error"
    },
    {
      "inputs": [],
      "name": "ApproveToCaller",
      "type": "error"
    },
    {
      "inputs": [],
      "name": "BalanceQueryForZeroAddress",
      "type": "error"
    },
    {
      "inputs": [],
      "name": "MintToZeroAddress",
      "type": "error"
    },
    {
      "inputs": [],
      "name": "MintZeroQuantity",
      "type": "error"
    },
    {
      "inputs": [],
      "name": "OwnerQueryForNonexistentToken",
      "type": "error"
    },
    {
      "inputs": [],
      "name": "TransferCallerNotOwnerNorApproved",
      "type": "error"
    },
    {
      "inputs": [],
      "name": "TransferFromIncorrectOwner",
      "type": "error"
    },
    {
      "inputs": [],
      "name": "TransferToNonERC721ReceiverImplementer",
      "type": "error"
    },
    {
      "inputs": [],
      "name": "TransferToZeroAddress",
      "type": "error"
    },
    {
      "inputs": [],
      "name": "URIQueryForNonexistentToken",
      "type": "error"
    },
    {
      "anonymous": false,
      "inputs": [
        {
          "indexed": true,
          "internalType": "address",
          "name": "owner",
          "type": "address"
        },
        {
          "indexed": true,
          "internalType": "address",
          "name": "approved",
          "type": "address"
        },
        {
          "indexed": true,
          "internalType": "uint256",
          "name": "tokenId",
          "type": "uint256"
        }
      ],
      "name": "Approval",
      "type": "event"
    },
    {
      "anonymous": false,
      "inputs": [
        {
          "indexed": true,
          "internalType": "address",
          "name": "owner",
          "type": "address"
        },
        {
          "indexed": true,
          "internalType": "address",
          "name": "operator",
          "type": "address"
        },
        {
          "indexed": false,
          "internalType": "bool",
          "name": "approved",
          "type": "bool"
        }
      ],
      "name": "ApprovalForAll",
      "type": "event"
    },
    {
      "anonymous": false,
      "inputs": [
        {
          "indexed": false,
          "internalType": "string",
          "name": "uri",
          "type": "string"
        }
      ],
      "name": "BaseURI",
      "type": "event"
    },
    {
      "anonymous": false,
      "inputs": [
        {
          "indexed": true,
          "internalType": "address",
          "name": "previousOwner",
          "type": "address"
        },
        {
          "indexed": true,
          "internalType": "address",
          "name": "newOwner",
          "type": "address"
        }
      ],
      "name": "OwnershipTransferred",
      "type": "event"
    },
    {
      "anonymous": false,
      "inputs": [
        {
          "indexed": true,
          "internalType": "address",
          "name": "from",
          "type": "address"
        },
        {
          "indexed": true,
          "internalType": "address",
          "name": "to",
          "type": "address"
        },
        {
          "indexed": true,
          "internalType": "uint256",
          "name": "tokenId",
          "type": "uint256"
        }
      ],
      "name": "Transfer",
      "type": "event"
    },
    {
      "anonymous": false,
      "inputs": [
        {
          "indexed": false,
          "internalType": "bool",
          "name": "whitelistEnabled",
          "type": "bool"
        }
      ],
      "name": "WhiteListEnabled",
      "type": "event"
    },
    {
      "inputs": [],
      "name": "_currentIndex",
      "outputs": [
        {
          "internalType": "uint256",
          "name": "",
          "type": "uint256"
        }
      ],
      "stateMutability": "view",
      "type": "function"
    },
    {
      "inputs": [],
      "name": "_name",
      "outputs": [
        {
          "internalType": "string",
          "name": "",
          "type": "string"
        }
      ],
      "stateMutability": "view",
      "type": "function"
    },
    {
      "inputs": [],
      "name": "_symbol",
      "outputs": [
        {
          "internalType": "string",
          "name": "",
          "type": "string"
        }
      ],
      "stateMutability": "view",
      "type": "function"
    },
    {
      "inputs": [
        {
          "internalType": "address",
          "name": "to",
          "type": "address"
        },
        {
          "internalType": "uint256",
          "name": "tokenId",
          "type": "uint256"
        }
      ],
      "name": "approve",
      "outputs": [],
      "stateMutability": "nonpayable",
      "type": "function"
    },
    {
      "inputs": [
        {
          "internalType": "address",
          "name": "owner",
          "type": "address"
        }
      ],
      "name": "balanceOf",
      "outputs": [
        {
          "internalType": "uint256",
          "name": "",
          "type": "uint256"
        }
      ],
      "stateMutability": "view",
      "type": "function"
    },
    {
      "inputs": [],
      "name": "baseURI",
      "outputs": [
        {
          "internalType": "string",
          "name": "",
          "type": "string"
        }
      ],
      "stateMutability": "view",
      "type": "function"
    },
    {
      "inputs": [
        {
          "internalType": "uint256",
          "name": "tokenId",
          "type": "uint256"
        }
      ],
      "name": "burn",
      "outputs": [],
      "stateMutability": "nonpayable",
      "type": "function"
    },
    {
      "inputs": [
        {
          "internalType": "uint256",
          "name": "tokenId",
          "type": "uint256"
        }
      ],
      "name": "getApproved",
      "outputs": [
        {
          "internalType": "address",
          "name": "",
          "type": "address"
        }
      ],
      "stateMutability": "view",
      "type": "function"
    },
    {
      "inputs": [
        {
          "internalType": "address",
          "name": "owner",
          "type": "address"
        },
        {
          "internalType": "address",
          "name": "operator",
          "type": "address"
        }
      ],
      "name": "isApprovedForAll",
      "outputs": [
        {
          "internalType": "bool",
          "name": "",
          "type": "bool"
        }
      ],
      "stateMutability": "view",
      "type": "function"
    },
    {
      "inputs": [
        {
          "internalType": "uint256",
          "name": "_quantity",
          "type": "uint256"
        },
        {
          "internalType": "address",
          "name": "_creator",
          "type": "address"
        }
      ],
      "name": "mint",
      "outputs": [],
      "stateMutability": "nonpayable",
      "type": "function"
    },
    {
      "inputs": [],
      "name": "name",
      "outputs": [
        {
          "internalType": "string",
          "name": "",
          "type": "string"
        }
      ],
      "stateMutability": "view",
      "type": "function"
    },
    {
      "inputs": [],
      "name": "owner",
      "outputs": [
        {
          "internalType": "address",
          "name": "",
          "type": "address"
        }
      ],
      "stateMutability": "view",
      "type": "function"
    },
    {
      "inputs": [
        {
          "internalType": "uint256",
          "name": "tokenId",
          "type": "uint256"
        }
      ],
      "name": "ownerOf",
      "outputs": [
        {
          "internalType": "address",
          "name": "",
          "type": "address"
        }
      ],
      "stateMutability": "view",
      "type": "function"
    },
    {
      "inputs": [
        {
          "internalType": "address[]",
          "name": "currentAddresses",
          "type": "address[]"
        }
      ],
      "name": "removeWhitelist",
      "outputs": [],
      "stateMutability": "nonpayable",
      "type": "function"
    },
    {
      "inputs": [],
      "name": "renounceOwnership",
      "outputs": [],
      "stateMutability": "nonpayable",
      "type": "function"
    },
    {
      "inputs": [
        {
          "internalType": "address",
          "name": "from",
          "type": "address"
        },
        {
          "internalType": "address",
          "name": "to",
          "type": "address"
        },
        {
          "internalType": "uint256",
          "name": "tokenId",
          "type": "uint256"
        }
      ],
      "name": "safeTransferFrom",
      "outputs": [],
      "stateMutability": "nonpayable",
      "type": "function"
    },
    {
      "inputs": [
        {
          "internalType": "address",
          "name": "from",
          "type": "address"
        },
        {
          "internalType": "address",
          "name": "to",
          "type": "address"
        },
        {
          "internalType": "uint256",
          "name": "tokenId",
          "type": "uint256"
        },
        {
          "internalType": "bytes",
          "name": "_data",
          "type": "bytes"
        }
      ],
      "name": "safeTransferFrom",
      "outputs": [],
      "stateMutability": "nonpayable",
      "type": "function"
    },
    {
      "inputs": [
        {
          "internalType": "address",
          "name": "operator",
          "type": "address"
        },
        {
          "internalType": "bool",
          "name": "approved",
          "type": "bool"
        }
      ],
      "name": "setApprovalForAll",
      "outputs": [],
      "stateMutability": "nonpayable",
      "type": "function"
    },
    {
      "inputs": [
        {
          "internalType": "string",
          "name": "baseURI_",
          "type": "string"
        }
      ],
      "name": "setBaseURI",
      "outputs": [],
      "stateMutability": "nonpayable",
      "type": "function"
    },
    {
      "inputs": [
        {
          "internalType": "string",
          "name": "_uriSuffix",
          "type": "string"
        }
      ],
      "name": "setUriSuffix",
      "outputs": [],
      "stateMutability": "nonpayable",
      "type": "function"
    },
    {
      "inputs": [
        {
          "internalType": "address[]",
          "name": "newAddresses",
          "type": "address[]"
        }
      ],
      "name": "setWhitelist",
      "outputs": [],
      "stateMutability": "nonpayable",
      "type": "function"
    },
    {
      "inputs": [
        {
          "internalType": "bool",
          "name": "_state",
          "type": "bool"
        }
      ],
      "name": "setWhitelistEnabled",
      "outputs": [],
      "stateMutability": "nonpayable",
      "type": "function"
    },
    {
      "inputs": [
        {
          "internalType": "bytes4",
          "name": "interfaceId",
          "type": "bytes4"
        }
      ],
      "name": "supportsInterface",
      "outputs": [
        {
          "internalType": "bool",
          "name": "",
          "type": "bool"
        }
      ],
      "stateMutability": "view",
      "type": "function"
    },
    {
      "inputs": [],
      "name": "symbol",
      "outputs": [
        {
          "internalType": "string",
          "name": "",
          "type": "string"
        }
      ],
      "stateMutability": "view",
      "type": "function"
    },
    {
      "inputs": [
        {
          "internalType": "uint256",
          "name": "_tokenId",
          "type": "uint256"
        }
      ],
      "name": "tokenURI",
      "outputs": [
        {
          "internalType": "string",
          "name": "",
          "type": "string"
        }
      ],
      "stateMutability": "view",
      "type": "function"
    },
    {
      "inputs": [],
      "name": "totalSupply",
      "outputs": [
        {
          "internalType": "uint256",
          "name": "",
          "type": "uint256"
        }
      ],
      "stateMutability": "view",
      "type": "function"
    },
    {
      "inputs": [
        {
          "internalType": "address",
          "name": "from",
          "type": "address"
        },
        {
          "internalType": "address",
          "name": "to",
          "type": "address"
        },
        {
          "internalType": "uint256",
          "name": "tokenId",
          "type": "uint256"
        }
      ],
      "name": "transferFrom",
      "outputs": [],
      "stateMutability": "nonpayable",
      "type": "function"
    },
    {
      "inputs": [
        {
          "internalType": "address",
          "name": "newOwner",
          "type": "address"
        }
      ],
      "name": "transferOwnership",
      "outputs": [],
      "stateMutability": "nonpayable",
      "type": "function"
    },
    {
      "inputs": [],
      "name": "uriSuffix",
      "outputs": [
        {
          "internalType": "string",
          "name": "",
          "type": "string"
        }
      ],
      "stateMutability": "view",
      "type": "function"
    },
    {
      "inputs": [
        {
          "internalType": "address",
          "name": "",
          "type": "address"
        }
      ],
      "name": "whitelist",
      "outputs": [
        {
          "internalType": "bool",
          "name": "",
          "type": "bool"
        }
      ],
      "stateMutability": "view",
      "type": "function"
    },
    {
      "inputs": [],
      "name": "whitelistEnabled",
      "outputs": [
        {
          "internalType": "bool",
          "name": "",
          "type": "bool"
        }
      ],
      "stateMutability": "view",
      "type": "function"
    }
  ],
  "bytecode": "0x608060405260405180602001604052806000815250600990805190602001906200002b92919062000277565b506040518060400160405280600581526020017f2e6a736f6e000000000000000000000000000000000000000000000000000000815250600a90805190602001906200007992919062000277565b506000600b556000600c60006101000a81548160ff021916908315150217905550348015620000a757600080fd5b5060405162003d9e38038062003d9e8339818101604052810190620000cd9190620004c4565b81818160029080519060200190620000e792919062000277565b5080600390805190602001906200010092919062000277565b5062000111620001a460201b60201c565b6000819055505050620001396200012d620001a960201b60201c565b620001b160201b60201c565b6000829050600082905060008251141580156200015857506000815114155b6200019a576040517f08c379a00000000000000000000000000000000000000000000000000000000081526004016200019190620005d0565b60405180910390fd5b5050505062000657565b600090565b600033905090565b6000600860009054906101000a900473ffffffffffffffffffffffffffffffffffffffff16905081600860006101000a81548173ffffffffffffffffffffffffffffffffffffffff021916908373ffffffffffffffffffffffffffffffffffffffff1602179055508173ffffffffffffffffffffffffffffffffffffffff168173ffffffffffffffffffffffffffffffffffffffff167f8be0079c531659141344cd1fd0a4f28419497f9722a3daafe3b4186f6b6457e060405160405180910390a35050565b828054620002859062000621565b90600052602060002090601f016020900481019282620002a95760008555620002f5565b82601f10620002c457805160ff1916838001178555620002f5565b82800160010185558215620002f5579182015b82811115620002f4578251825591602001919060010190620002d7565b5b50905062000304919062000308565b5090565b5b808211156200032357600081600090555060010162000309565b5090565b6000604051905090565b600080fd5b600080fd5b600080fd5b600080fd5b6000601f19601f8301169050919050565b7f4e487b7100000000000000000000000000000000000000000000000000000000600052604160045260246000fd5b620003908262000345565b810181811067ffffffffffffffff82111715620003b257620003b162000356565b5b80604052505050565b6000620003c762000327565b9050620003d5828262000385565b919050565b600067ffffffffffffffff821115620003f857620003f762000356565b5b620004038262000345565b9050602081019050919050565b60005b838110156200043057808201518184015260208101905062000413565b8381111562000440576000848401525b50505050565b60006200045d6200045784620003da565b620003bb565b9050828152602081018484840111156200047c576200047b62000340565b5b6200048984828562000410565b509392505050565b600082601f830112620004a957620004a86200033b565b5b8151620004bb84826020860162000446565b91505092915050565b60008060408385031215620004de57620004dd62000331565b5b600083015167ffffffffffffffff811115620004ff57620004fe62000336565b5b6200050d8582860162000491565b925050602083015167ffffffffffffffff81111562000531576200053062000336565b5b6200053f8582860162000491565b9150509250929050565b600082825260208201905092915050565b7f455243373231413a2043686f6f73652061206e616d6520616e642073796d626f60008201527f6c00000000000000000000000000000000000000000000000000000000000000602082015250565b6000620005b860218362000549565b9150620005c5826200055a565b604082019050919050565b60006020820190508181036000830152620005eb81620005a9565b9050919050565b7f4e487b7100000000000000000000000000000000000000000000000000000000600052602260045260246000fd5b600060028204905060018216806200063a57607f821691505b60208210811415620006515762000650620005f2565b5b50919050565b61373780620006676000396000f3fe608060405234801561001057600080fd5b50600436106101e55760003560e01c80636c0360eb1161010f578063a22cb465116100a2578063d28d885211610071578063d28d885214610556578063e985e9c514610574578063f2fde38b146105a4578063f4217648146105c0576101e5565b8063a22cb465146104d0578063b09f1266146104ec578063b88d4fde1461050a578063c87b56dd14610526576101e5565b80639451c99a116100de5780639451c99a1461044857806394bf804d1461046657806395d89b41146104825780639b19251a146104a0576101e5565b80636c0360eb146103d257806370a08231146103f0578063715018a6146104205780638da5cb5b1461042a576101e5565b8063232452161161018757806351fb012d1161015657806351fb012d1461034a5780635503a0e81461036857806355f804b3146103865780636352211e146103a2576101e5565b806323245216146102da57806323b872dd146102f657806342842e0e1461031257806342966c681461032e576101e5565b8063081812fc116101c3578063081812fc14610254578063095ea7b31461028457806316ba10e0146102a057806318160ddd146102bc576101e5565b806301ffc9a7146101ea578063052d9e7e1461021a57806306fdde0314610236575b600080fd5b61020460048036038101906101ff9190612701565b6105dc565b6040516102119190612749565b60405180910390f35b610234600480360381019061022f9190612790565b61066e565b005b61023e6106d9565b60405161024b9190612856565b60405180910390f35b61026e600480360381019061026991906128ae565b61076b565b60405161027b919061291c565b60405180910390f35b61029e60048036038101906102999190612963565b6107e7565b005b6102ba60048036038101906102b59190612ad8565b61098e565b005b6102c46109b0565b6040516102d19190612b30565b60405180910390f35b6102f460048036038101906102ef9190612bab565b6109c7565b005b610310600480360381019061030b9190612bf8565b610b11565b005b61032c60048036038101906103279190612bf8565b610b21565b005b610348600480360381019061034391906128ae565b610b41565b005b610352610b4d565b60405161035f9190612749565b60405180910390f35b610370610b60565b60405161037d9190612856565b60405180910390f35b6103a0600480360381019061039b9190612ad8565b610bee565b005b6103bc60048036038101906103b791906128ae565b610c48565b6040516103c9919061291c565b60405180910390f35b6103da610c5a565b6040516103e79190612856565b60405180910390f35b61040a60048036038101906104059190612c4b565b610ce8565b6040516104179190612b30565b60405180910390f35b610428610d7d565b005b610432610d91565b60405161043f919061291c565b60405180910390f35b610450610dbb565b60405161045d9190612b30565b60405180910390f35b610480600480360381019061047b9190612c78565b610dc1565b005b61048a610f47565b6040516104979190612856565b60405180910390f35b6104ba60048036038101906104b59190612c4b565b610fd9565b6040516104c79190612749565b60405180910390f35b6104ea60048036038101906104e59190612cb8565b610ff9565b005b6104f4611171565b6040516105019190612856565b60405180910390f35b610524600480360381019061051f9190612d99565b6111ff565b005b610540600480360381019061053b91906128ae565b611272565b60405161054d9190612856565b60405180910390f35b61055e61131c565b60405161056b9190612856565b60405180910390f35b61058e60048036038101906105899190612e1c565b6113aa565b60405161059b9190612749565b60405180910390f35b6105be60048036038101906105b99190612c4b565b61143e565b005b6105da60048036038101906105d59190612bab565b6114c2565b005b60006301ffc9a760e01b827bffffffffffffffffffffffffffffffffffffffffffffffffffffffff1916148061063757506380ac58cd60e01b827bffffffffffffffffffffffffffffffffffffffffffffffffffffffff1916145b806106675750635b5e139f60e01b827bffffffffffffffffffffffffffffffffffffffffffffffffffffffff1916145b9050919050565b61067661165a565b80600c60006101000a81548160ff0219169083151502179055507f218e591c4b0d49651b4b42843cb8cc59080122def3d2271f56ef2e21896753ec600c60009054906101000a900460ff166040516106ce9190612749565b60405180910390a150565b6060600280546106e890612e8b565b80601f016020809104026020016040519081016040528092919081815260200182805461071490612e8b565b80156107615780601f1061073657610100808354040283529160200191610761565b820191906000526020600020905b81548152906001019060200180831161074457829003601f168201915b5050505050905090565b6000610776826116d8565b6107ac576040517fcf4700e400000000000000000000000000000000000000000000000000000000815260040160405180910390fd5b6006600083815260200190815260200160002060009054906101000a900473ffffffffffffffffffffffffffffffffffffffff169050919050565b60006107f282611737565b90508073ffffffffffffffffffffffffffffffffffffffff168373ffffffffffffffffffffffffffffffffffffffff16141561085a576040517f943f7b8c00000000000000000000000000000000000000000000000000000000815260040160405180910390fd5b8073ffffffffffffffffffffffffffffffffffffffff16610879611805565b73ffffffffffffffffffffffffffffffffffffffff16146108dc576108a5816108a0611805565b6113aa565b6108db576040517fcfb3b94200000000000000000000000000000000000000000000000000000000815260040160405180910390fd5b5b826006600084815260200190815260200160002060006101000a81548173ffffffffffffffffffffffffffffffffffffffff021916908373ffffffffffffffffffffffffffffffffffffffff160217905550818373ffffffffffffffffffffffffffffffffffffffff168273ffffffffffffffffffffffffffffffffffffffff167f8c5be1e5ebec7d5bd14f71427d1e84f3dd0314c0f7b2291e5b200ac8c7c3b92560405160405180910390a4505050565b61099661165a565b80600a90805190602001906109ac9291906125f2565b5050565b60006109ba61180d565b6001546000540303905090565b6109cf61165a565b60008282905011610a15576040517f08c379a0000000000000000000000000000000000000000000000000000000008152600401610a0c90612f09565b60405180910390fd5b6101f4828290501115610a5d576040517f08c379a0000000000000000000000000000000000000000000000000000000008152600401610a5490612f75565b60405180910390fd5b60005b82829050811015610b0c57600d6000848484818110610a8257610a81612f95565b5b9050602002016020810190610a979190612c4b565b73ffffffffffffffffffffffffffffffffffffffff1673ffffffffffffffffffffffffffffffffffffffff16815260200190815260200160002060006101000a81549060ff0219169055600b6000815480929190610af490612ff3565b91905055508080610b049061301d565b915050610a60565b505050565b610b1c838383611812565b505050565b610b3c838383604051806020016040528060008152506111ff565b505050565b610b4a81611bda565b50565b600c60009054906101000a900460ff1681565b600a8054610b6d90612e8b565b80601f0160208091040260200160405190810160405280929190818152602001828054610b9990612e8b565b8015610be65780601f10610bbb57610100808354040283529160200191610be6565b820191906000526020600020905b815481529060010190602001808311610bc957829003601f168201915b505050505081565b610bf661165a565b8060099080519060200190610c0c9291906125f2565b507f01e56a02aca7f26a28165a040851ba78f30282b55ca81c63a804cdc1e2dcea726009604051610c3d91906130fb565b60405180910390a150565b6000610c5382611737565b9050919050565b60098054610c6790612e8b565b80601f0160208091040260200160405190810160405280929190818152602001828054610c9390612e8b565b8015610ce05780601f10610cb557610100808354040283529160200191610ce0565b820191906000526020600020905b815481529060010190602001808311610cc357829003601f168201915b505050505081565b600080610cf483611be8565b1415610d2c576040517f8f4eb60400000000000000000000000000000000000000000000000000000000815260040160405180910390fd5b67ffffffffffffffff600560008473ffffffffffffffffffffffffffffffffffffffff1673ffffffffffffffffffffffffffffffffffffffff16815260200190815260200160002054169050919050565b610d8561165a565b610d8f6000611bf2565b565b6000600860009054906101000a900473ffffffffffffffffffffffffffffffffffffffff16905090565b60005481565b60001515600c60009054906101000a900460ff1615151415610e5357610de5610d91565b73ffffffffffffffffffffffffffffffffffffffff163373ffffffffffffffffffffffffffffffffffffffff1614610e52576040517f08c379a0000000000000000000000000000000000000000000000000000000008152600401610e4990613169565b60405180910390fd5b5b60011515600c60009054906101000a900460ff1615151415610f3957600d60003373ffffffffffffffffffffffffffffffffffffffff1673ffffffffffffffffffffffffffffffffffffffff16815260200190815260200160002060009054906101000a900460ff1680610ef95750610eca610d91565b73ffffffffffffffffffffffffffffffffffffffff163373ffffffffffffffffffffffffffffffffffffffff16145b610f38576040517f08c379a0000000000000000000000000000000000000000000000000000000008152600401610f2f906131d5565b60405180910390fd5b5b610f438183611cb8565b5050565b606060038054610f5690612e8b565b80601f0160208091040260200160405190810160405280929190818152602001828054610f8290612e8b565b8015610fcf5780601f10610fa457610100808354040283529160200191610fcf565b820191906000526020600020905b815481529060010190602001808311610fb257829003601f168201915b5050505050905090565b600d6020528060005260406000206000915054906101000a900460ff1681565b611001611805565b73ffffffffffffffffffffffffffffffffffffffff168273ffffffffffffffffffffffffffffffffffffffff161415611066576040517fb06307db00000000000000000000000000000000000000000000000000000000815260040160405180910390fd5b8060076000611073611805565b73ffffffffffffffffffffffffffffffffffffffff1673ffffffffffffffffffffffffffffffffffffffff16815260200190815260200160002060008473ffffffffffffffffffffffffffffffffffffffff1673ffffffffffffffffffffffffffffffffffffffff16815260200190815260200160002060006101000a81548160ff0219169083151502179055508173ffffffffffffffffffffffffffffffffffffffff16611120611805565b73ffffffffffffffffffffffffffffffffffffffff167f17307eab39ab6107e8899845ad3d59bd9653f200f220920489ca2b5937696c31836040516111659190612749565b60405180910390a35050565b6003805461117e90612e8b565b80601f01602080910402602001604051908101604052809291908181526020018280546111aa90612e8b565b80156111f75780601f106111cc576101008083540402835291602001916111f7565b820191906000526020600020905b8154815290600101906020018083116111da57829003601f168201915b505050505081565b61120a848484611812565b60008373ffffffffffffffffffffffffffffffffffffffff163b1461126c5761123584848484611cd6565b61126b576040517fd1a57ed600000000000000000000000000000000000000000000000000000000815260040160405180910390fd5b5b50505050565b606061127d826116d8565b6112bc576040517f08c379a00000000000000000000000000000000000000000000000000000000081526004016112b390613267565b60405180910390fd5b60006112c6611e36565b905060008151116112e65760405180602001604052806000815250611314565b806112f084611ec8565b600a60405160200161130493929190613342565b6040516020818303038152906040525b915050919050565b6002805461132990612e8b565b80601f016020809104026020016040519081016040528092919081815260200182805461135590612e8b565b80156113a25780601f10611377576101008083540402835291602001916113a2565b820191906000526020600020905b81548152906001019060200180831161138557829003601f168201915b505050505081565b6000600760008473ffffffffffffffffffffffffffffffffffffffff1673ffffffffffffffffffffffffffffffffffffffff16815260200190815260200160002060008373ffffffffffffffffffffffffffffffffffffffff1673ffffffffffffffffffffffffffffffffffffffff16815260200190815260200160002060009054906101000a900460ff16905092915050565b61144661165a565b600073ffffffffffffffffffffffffffffffffffffffff168173ffffffffffffffffffffffffffffffffffffffff1614156114b6576040517f08c379a00000000000000000000000000000000000000000000000000000000081526004016114ad906133e5565b60405180910390fd5b6114bf81611bf2565b50565b6114ca61165a565b60008282905011611510576040517f08c379a000000000000000000000000000000000000000000000000000000000815260040161150790612f09565b60405180910390fd5b6101f48282905010611557576040517f08c379a000000000000000000000000000000000000000000000000000000000815260040161154e90612f75565b60405180910390fd5b60005b82829050811015611655576107d0600b54106115ab576040517f08c379a00000000000000000000000000000000000000000000000000000000081526004016115a290613477565b60405180910390fd5b6001600d60008585858181106115c4576115c3612f95565b5b90506020020160208101906115d99190612c4b565b73ffffffffffffffffffffffffffffffffffffffff1673ffffffffffffffffffffffffffffffffffffffff16815260200190815260200160002060006101000a81548160ff021916908315150217905550600b600081548092919061163d9061301d565b9190505550808061164d9061301d565b91505061155a565b505050565b611662612029565b73ffffffffffffffffffffffffffffffffffffffff16611680610d91565b73ffffffffffffffffffffffffffffffffffffffff16146116d6576040517f08c379a00000000000000000000000000000000000000000000000000000000081526004016116cd906134e3565b60405180910390fd5b565b6000816116e361180d565b111580156116f2575060005482105b8015611730575060007c0100000000000000000000000000000000000000000000000000000000600460008581526020019081526020016000205416145b9050919050565b6000808290508061174661180d565b116117ce576000548110156117cd5760006004600083815260200190815260200160002054905060007c0100000000000000000000000000000000000000000000000000000000821614156117cb575b60008114156117c1576004600083600190039350838152602001908152602001600020549050611796565b8092505050611800565b505b5b6040517fdf2d9b4200000000000000000000000000000000000000000000000000000000815260040160405180910390fd5b919050565b600033905090565b600090565b600061181d82611737565b90508373ffffffffffffffffffffffffffffffffffffffff168173ffffffffffffffffffffffffffffffffffffffff1614611884576040517fa114810000000000000000000000000000000000000000000000000000000000815260040160405180910390fd5b60006006600084815260200190815260200160002060009054906101000a900473ffffffffffffffffffffffffffffffffffffffff16905060008573ffffffffffffffffffffffffffffffffffffffff166118dd611805565b73ffffffffffffffffffffffffffffffffffffffff16148061190c575061190b86611906611805565b6113aa565b5b80611949575061191a611805565b73ffffffffffffffffffffffffffffffffffffffff168273ffffffffffffffffffffffffffffffffffffffff16145b905080611982576040517f59c896be00000000000000000000000000000000000000000000000000000000815260040160405180910390fd5b600061198d86611be8565b14156119c5576040517fea553b3400000000000000000000000000000000000000000000000000000000815260040160405180910390fd5b6119d28686866001612031565b60006119dd83611be8565b14611a19576006600085815260200190815260200160002060006101000a81549073ffffffffffffffffffffffffffffffffffffffff02191690555b600560008773ffffffffffffffffffffffffffffffffffffffff1673ffffffffffffffffffffffffffffffffffffffff168152602001908152602001600020600081546001900391905081905550600560008673ffffffffffffffffffffffffffffffffffffffff1673ffffffffffffffffffffffffffffffffffffffff16815260200190815260200160002060008154600101919050819055507c020000000000000000000000000000000000000000000000000000000060a042901b611ae087611be8565b1717600460008681526020019081526020016000208190555060007c020000000000000000000000000000000000000000000000000000000084161415611b6a576000600185019050600060046000838152602001908152602001600020541415611b68576000548114611b67578360046000838152602001908152602001600020819055505b5b505b838573ffffffffffffffffffffffffffffffffffffffff168773ffffffffffffffffffffffffffffffffffffffff167fddf252ad1be2c89b69c2b068fc378daa952ba7f163c4a11628f55a4df523b3ef60405160405180910390a4611bd28686866001612037565b505050505050565b611be581600061203d565b50565b6000819050919050565b6000600860009054906101000a900473ffffffffffffffffffffffffffffffffffffffff16905081600860006101000a81548173ffffffffffffffffffffffffffffffffffffffff021916908373ffffffffffffffffffffffffffffffffffffffff1602179055508173ffffffffffffffffffffffffffffffffffffffff168173ffffffffffffffffffffffffffffffffffffffff167f8be0079c531659141344cd1fd0a4f28419497f9722a3daafe3b4186f6b6457e060405160405180910390a35050565b611cd2828260405180602001604052806000815250612357565b5050565b60008373ffffffffffffffffffffffffffffffffffffffff1663150b7a02611cfc611805565b8786866040518563ffffffff1660e01b8152600401611d1e9493929190613558565b602060405180830381600087803b158015611d3857600080fd5b505af1925050508015611d6957506040513d601f19601f82011682018060405250810190611d6691906135b9565b60015b611de3573d8060008114611d99576040519150601f19603f3d011682016040523d82523d6000602084013e611d9e565b606091505b50600081511415611ddb576040517fd1a57ed600000000000000000000000000000000000000000000000000000000815260040160405180910390fd5b805181602001fd5b63150b7a0260e01b7bffffffffffffffffffffffffffffffffffffffffffffffffffffffff1916817bffffffffffffffffffffffffffffffffffffffffffffffffffffffff191614915050949350505050565b606060098054611e4590612e8b565b80601f0160208091040260200160405190810160405280929190818152602001828054611e7190612e8b565b8015611ebe5780601f10611e9357610100808354040283529160200191611ebe565b820191906000526020600020905b815481529060010190602001808311611ea157829003601f168201915b5050505050905090565b60606000821415611f10576040518060400160405280600181526020017f30000000000000000000000000000000000000000000000000000000000000008152509050612024565b600082905060005b60008214611f42578080611f2b9061301d565b915050600a82611f3b9190613615565b9150611f18565b60008167ffffffffffffffff811115611f5e57611f5d6129ad565b5b6040519080825280601f01601f191660200182016040528015611f905781602001600182028036833780820191505090505b5090505b6000851461201d57600182611fa99190613646565b9150600a85611fb8919061367a565b6030611fc491906136ab565b60f81b818381518110611fda57611fd9612f95565b5b60200101907effffffffffffffffffffffffffffffffffffffffffffffffffffffffffffff1916908160001a905350600a856120169190613615565b9450611f94565b8093505050505b919050565b600033905090565b50505050565b50505050565b600061204883611737565b9050600081905060006006600086815260200190815260200160002060009054906101000a900473ffffffffffffffffffffffffffffffffffffffff16905083156121555760008273ffffffffffffffffffffffffffffffffffffffff166120ae611805565b73ffffffffffffffffffffffffffffffffffffffff1614806120dd57506120dc836120d7611805565b6113aa565b5b8061211a57506120eb611805565b73ffffffffffffffffffffffffffffffffffffffff168273ffffffffffffffffffffffffffffffffffffffff16145b905080612153576040517f59c896be00000000000000000000000000000000000000000000000000000000815260040160405180910390fd5b505b612163826000876001612031565b600061216e82611be8565b146121aa576006600086815260200190815260200160002060006101000a81549073ffffffffffffffffffffffffffffffffffffffff02191690555b600160806001901b03600560008473ffffffffffffffffffffffffffffffffffffffff1673ffffffffffffffffffffffffffffffffffffffff168152602001908152602001600020600082825401925050819055507c02000000000000000000000000000000000000000000000000000000007c010000000000000000000000000000000000000000000000000000000060a042901b61224985611be8565b171717600460008781526020019081526020016000208190555060007c0200000000000000000000000000000000000000000000000000000000841614156122d45760006001860190506000600460008381526020019081526020016000205414156122d25760005481146122d1578360046000838152602001908152602001600020819055505b5b505b84600073ffffffffffffffffffffffffffffffffffffffff168373ffffffffffffffffffffffffffffffffffffffff167fddf252ad1be2c89b69c2b068fc378daa952ba7f163c4a11628f55a4df523b3ef60405160405180910390a461233e826000876001612037565b6001600081548092919060010191905055505050505050565b600080549050600061236885611be8565b14156123a0576040517f2e07630000000000000000000000000000000000000000000000000000000000815260040160405180910390fd5b60008314156123db576040517fb562e8dd00000000000000000000000000000000000000000000000000000000815260040160405180910390fd5b6123e86000858386612031565b600160406001901b178302600560008673ffffffffffffffffffffffffffffffffffffffff1673ffffffffffffffffffffffffffffffffffffffff1681526020019081526020016000206000828254019250508190555060e161244d600185146125e8565b901b60a042901b61245d86611be8565b1717600460008381526020019081526020016000208190555060008190506000848201905060008673ffffffffffffffffffffffffffffffffffffffff163b14612561575b818673ffffffffffffffffffffffffffffffffffffffff16600073ffffffffffffffffffffffffffffffffffffffff167fddf252ad1be2c89b69c2b068fc378daa952ba7f163c4a11628f55a4df523b3ef60405160405180910390a46125116000878480600101955087611cd6565b612547576040517fd1a57ed600000000000000000000000000000000000000000000000000000000815260040160405180910390fd5b8082106124a257826000541461255c57600080fd5b6125cc565b5b818060010192508673ffffffffffffffffffffffffffffffffffffffff16600073ffffffffffffffffffffffffffffffffffffffff167fddf252ad1be2c89b69c2b068fc378daa952ba7f163c4a11628f55a4df523b3ef60405160405180910390a4808210612562575b8160008190555050506125e26000858386612037565b50505050565b6000819050919050565b8280546125fe90612e8b565b90600052602060002090601f0160209004810192826126205760008555612667565b82601f1061263957805160ff1916838001178555612667565b82800160010185558215612667579182015b8281111561266657825182559160200191906001019061264b565b5b5090506126749190612678565b5090565b5b80821115612691576000816000905550600101612679565b5090565b6000604051905090565b600080fd5b600080fd5b60007fffffffff0000000000000000000000000000000000000000000000000000000082169050919050565b6126de816126a9565b81146126e957600080fd5b50565b6000813590506126fb816126d5565b92915050565b6000602082840312156127175761271661269f565b5b6000612725848285016126ec565b91505092915050565b60008115159050919050565b6127438161272e565b82525050565b600060208201905061275e600083018461273a565b92915050565b61276d8161272e565b811461277857600080fd5b50565b60008135905061278a81612764565b92915050565b6000602082840312156127a6576127a561269f565b5b60006127b48482850161277b565b91505092915050565b600081519050919050565b600082825260208201905092915050565b60005b838110156127f75780820151818401526020810190506127dc565b83811115612806576000848401525b50505050565b6000601f19601f8301169050919050565b6000612828826127bd565b61283281856127c8565b93506128428185602086016127d9565b61284b8161280c565b840191505092915050565b60006020820190508181036000830152612870818461281d565b905092915050565b6000819050919050565b61288b81612878565b811461289657600080fd5b50565b6000813590506128a881612882565b92915050565b6000602082840312156128c4576128c361269f565b5b60006128d284828501612899565b91505092915050565b600073ffffffffffffffffffffffffffffffffffffffff82169050919050565b6000612906826128db565b9050919050565b612916816128fb565b82525050565b6000602082019050612931600083018461290d565b92915050565b612940816128fb565b811461294b57600080fd5b50565b60008135905061295d81612937565b92915050565b6000806040838503121561297a5761297961269f565b5b60006129888582860161294e565b925050602061299985828601612899565b9150509250929050565b600080fd5b600080fd5b7f4e487b7100000000000000000000000000000000000000000000000000000000600052604160045260246000fd5b6129e58261280c565b810181811067ffffffffffffffff82111715612a0457612a036129ad565b5b80604052505050565b6000612a17612695565b9050612a2382826129dc565b919050565b600067ffffffffffffffff821115612a4357612a426129ad565b5b612a4c8261280c565b9050602081019050919050565b82818337600083830152505050565b6000612a7b612a7684612a28565b612a0d565b905082815260208101848484011115612a9757612a966129a8565b5b612aa2848285612a59565b509392505050565b600082601f830112612abf57612abe6129a3565b5b8135612acf848260208601612a68565b91505092915050565b600060208284031215612aee57612aed61269f565b5b600082013567ffffffffffffffff811115612b0c57612b0b6126a4565b5b612b1884828501612aaa565b91505092915050565b612b2a81612878565b82525050565b6000602082019050612b456000830184612b21565b92915050565b600080fd5b600080fd5b60008083601f840112612b6b57612b6a6129a3565b5b8235905067ffffffffffffffff811115612b8857612b87612b4b565b5b602083019150836020820283011115612ba457612ba3612b50565b5b9250929050565b60008060208385031215612bc257612bc161269f565b5b600083013567ffffffffffffffff811115612be057612bdf6126a4565b5b612bec85828601612b55565b92509250509250929050565b600080600060608486031215612c1157612c1061269f565b5b6000612c1f8682870161294e565b9350506020612c308682870161294e565b9250506040612c4186828701612899565b9150509250925092565b600060208284031215612c6157612c6061269f565b5b6000612c6f8482850161294e565b91505092915050565b60008060408385031215612c8f57612c8e61269f565b5b6000612c9d85828601612899565b9250506020612cae8582860161294e565b9150509250929050565b60008060408385031215612ccf57612cce61269f565b5b6000612cdd8582860161294e565b9250506020612cee8582860161277b565b9150509250929050565b600067ffffffffffffffff821115612d1357612d126129ad565b5b612d1c8261280c565b9050602081019050919050565b6000612d3c612d3784612cf8565b612a0d565b905082815260208101848484011115612d5857612d576129a8565b5b612d63848285612a59565b509392505050565b600082601f830112612d8057612d7f6129a3565b5b8135612d90848260208601612d29565b91505092915050565b60008060008060808587031215612db357612db261269f565b5b6000612dc18782880161294e565b9450506020612dd28782880161294e565b9350506040612de387828801612899565b925050606085013567ffffffffffffffff811115612e0457612e036126a4565b5b612e1087828801612d6b565b91505092959194509250565b60008060408385031215612e3357612e3261269f565b5b6000612e418582860161294e565b9250506020612e528582860161294e565b9150509250929050565b7f4e487b7100000000000000000000000000000000000000000000000000000000600052602260045260246000fd5b60006002820490506001821680612ea357607f821691505b60208210811415612eb757612eb6612e5c565b5b50919050565b7f4e6f20757365722064657461696c732070726f76696465640000000000000000600082015250565b6000612ef36018836127c8565b9150612efe82612ebd565b602082019050919050565b60006020820190508181036000830152612f2281612ee6565b9050919050565b7f546f6f206d616e792075736572737320746f2077686974656c69737400000000600082015250565b6000612f5f601c836127c8565b9150612f6a82612f29565b602082019050919050565b60006020820190508181036000830152612f8e81612f52565b9050919050565b7f4e487b7100000000000000000000000000000000000000000000000000000000600052603260045260246000fd5b7f4e487b7100000000000000000000000000000000000000000000000000000000600052601160045260246000fd5b6000612ffe82612878565b9150600082141561301257613011612fc4565b5b600182039050919050565b600061302882612878565b91507fffffffffffffffffffffffffffffffffffffffffffffffffffffffffffffffff82141561305b5761305a612fc4565b5b600182019050919050565b60008190508160005260206000209050919050565b6000815461308881612e8b565b61309281866127c8565b945060018216600081146130ad57600181146130bf576130f2565b60ff19831686526020860193506130f2565b6130c885613066565b60005b838110156130ea578154818901526001820191506020810190506130cb565b808801955050505b50505092915050565b60006020820190508181036000830152613115818461307b565b905092915050565b7f4f776e61626c653a204e6f7420746865206f776e657200000000000000000000600082015250565b60006131536016836127c8565b915061315e8261311d565b602082019050919050565b6000602082019050818103600083015261318281613146565b9050919050565b7f41646472657373206e6f742077686974656c6973746564000000000000000000600082015250565b60006131bf6017836127c8565b91506131ca82613189565b602082019050919050565b600060208201905081810360008301526131ee816131b2565b9050919050565b7f4552433732314d657461646174613a2055524920717565727920666f72206e6f60008201527f6e6578697374656e7420746f6b656e0000000000000000000000000000000000602082015250565b6000613251602f836127c8565b915061325c826131f5565b604082019050919050565b6000602082019050818103600083015261328081613244565b9050919050565b600081905092915050565b600061329d826127bd565b6132a78185613287565b93506132b78185602086016127d9565b80840191505092915050565b600081546132d081612e8b565b6132da8186613287565b945060018216600081146132f5576001811461330657613339565b60ff19831686528186019350613339565b61330f85613066565b60005b8381101561333157815481890152600182019150602081019050613312565b838801955050505b50505092915050565b600061334e8286613292565b915061335a8285613292565b915061336682846132c3565b9150819050949350505050565b7f4f776e61626c653a206e6577206f776e657220697320746865207a65726f206160008201527f6464726573730000000000000000000000000000000000000000000000000000602082015250565b60006133cf6026836127c8565b91506133da82613373565b604082019050919050565b600060208201905081810360008301526133fe816133c2565b9050919050565b7f4d6178696d756d20557365727320616c72656164792077686974656c6973746560008201527f6400000000000000000000000000000000000000000000000000000000000000602082015250565b60006134616021836127c8565b915061346c82613405565b604082019050919050565b6000602082019050818103600083015261349081613454565b9050919050565b7f4f776e61626c653a2063616c6c6572206973206e6f7420746865206f776e6572600082015250565b60006134cd6020836127c8565b91506134d882613497565b602082019050919050565b600060208201905081810360008301526134fc816134c0565b9050919050565b600081519050919050565b600082825260208201905092915050565b600061352a82613503565b613534818561350e565b93506135448185602086016127d9565b61354d8161280c565b840191505092915050565b600060808201905061356d600083018761290d565b61357a602083018661290d565b6135876040830185612b21565b8181036060830152613599818461351f565b905095945050505050565b6000815190506135b3816126d5565b92915050565b6000602082840312156135cf576135ce61269f565b5b60006135dd848285016135a4565b91505092915050565b7f4e487b7100000000000000000000000000000000000000000000000000000000600052601260045260246000fd5b600061362082612878565b915061362b83612878565b92508261363b5761363a6135e6565b5b828204905092915050565b600061365182612878565b915061365c83612878565b92508282101561366f5761366e612fc4565b5b828203905092915050565b600061368582612878565b915061369083612878565b9250826136a05761369f6135e6565b5b828206905092915050565b60006136b682612878565b91506136c183612878565b9250827fffffffffffffffffffffffffffffffffffffffffffffffffffffffffffffffff038211156136f6576136f5612fc4565b5b82820190509291505056fea26469706673582212201c2039b5e5c61b0aa36a8022f7a65c75bff787bd6759eb01513349f55aa6df7c64736f6c63430008090033",
  "linkReferences": {},
  "deployedLinkReferences": {}
}