{
  "_format": "hh-sol-artifact-1",
  "contractName": "ERC721AFactory",
  "sourceName": "contracts/factoryContracts/ERC721AFactory.sol",
  "abi": [
    {
      "inputs": [
        {
          "internalType": "string",
          "name": "name_",
          "type": "string"
        },
        {
          "internalType": "string",
          "name": "symbol_",
          "type": "string"
        }
      ],
      "stateMutability": "nonpayable",
      "type": "constructor"
    },
    {
      "inputs": [],
      "name": "ApprovalCallerNotOwnerNorApproved",
      "type": "error"
    },
    {
      "inputs": [],
      "name": "ApprovalQueryForNonexistentToken",
      "type": "error"
    },
    {
      "inputs": [],
      "name": "ApprovalToCurrentOwner",
      "type": "error"
    },
    {
      "inputs": [],
      "name": "ApproveToCaller",
      "type": "error"
    },
    {
      "inputs": [],
      "name": "BalanceQueryForZeroAddress",
      "type": "error"
    },
    {
      "inputs": [],
      "name": "MintToZeroAddress",
      "type": "error"
    },
    {
      "inputs": [],
      "name": "MintZeroQuantity",
      "type": "error"
    },
    {
      "inputs": [],
      "name": "OwnerQueryForNonexistentToken",
      "type": "error"
    },
    {
      "inputs": [],
      "name": "TransferCallerNotOwnerNorApproved",
      "type": "error"
    },
    {
      "inputs": [],
      "name": "TransferFromIncorrectOwner",
      "type": "error"
    },
    {
      "inputs": [],
      "name": "TransferToNonERC721ReceiverImplementer",
      "type": "error"
    },
    {
      "inputs": [],
      "name": "TransferToZeroAddress",
      "type": "error"
    },
    {
      "inputs": [],
      "name": "URIQueryForNonexistentToken",
      "type": "error"
    },
    {
      "anonymous": false,
      "inputs": [
        {
          "indexed": true,
          "internalType": "address",
          "name": "owner",
          "type": "address"
        },
        {
          "indexed": true,
          "internalType": "address",
          "name": "approved",
          "type": "address"
        },
        {
          "indexed": true,
          "internalType": "uint256",
          "name": "tokenId",
          "type": "uint256"
        }
      ],
      "name": "Approval",
      "type": "event"
    },
    {
      "anonymous": false,
      "inputs": [
        {
          "indexed": true,
          "internalType": "address",
          "name": "owner",
          "type": "address"
        },
        {
          "indexed": true,
          "internalType": "address",
          "name": "operator",
          "type": "address"
        },
        {
          "indexed": false,
          "internalType": "bool",
          "name": "approved",
          "type": "bool"
        }
      ],
      "name": "ApprovalForAll",
      "type": "event"
    },
    {
      "anonymous": false,
      "inputs": [
        {
          "indexed": false,
          "internalType": "string",
          "name": "uri",
          "type": "string"
        }
      ],
      "name": "BaseURI",
      "type": "event"
    },
    {
      "anonymous": false,
      "inputs": [
        {
          "indexed": true,
          "internalType": "address",
          "name": "previousOwner",
          "type": "address"
        },
        {
          "indexed": true,
          "internalType": "address",
          "name": "newOwner",
          "type": "address"
        }
      ],
      "name": "OwnershipTransferred",
      "type": "event"
    },
    {
      "anonymous": false,
      "inputs": [
        {
          "indexed": true,
          "internalType": "address",
          "name": "from",
          "type": "address"
        },
        {
          "indexed": true,
          "internalType": "address",
          "name": "to",
          "type": "address"
        },
        {
          "indexed": true,
          "internalType": "uint256",
          "name": "tokenId",
          "type": "uint256"
        }
      ],
      "name": "Transfer",
      "type": "event"
    },
    {
      "anonymous": false,
      "inputs": [
        {
          "indexed": false,
          "internalType": "bool",
          "name": "whitelistEnabled",
          "type": "bool"
        }
      ],
      "name": "WhiteListEnabled",
      "type": "event"
    },
    {
      "inputs": [],
      "name": "_currentIndex",
      "outputs": [
        {
          "internalType": "uint256",
          "name": "",
          "type": "uint256"
        }
      ],
      "stateMutability": "view",
      "type": "function"
    },
    {
      "inputs": [],
      "name": "_name",
      "outputs": [
        {
          "internalType": "string",
          "name": "",
          "type": "string"
        }
      ],
      "stateMutability": "view",
      "type": "function"
    },
    {
      "inputs": [],
      "name": "_symbol",
      "outputs": [
        {
          "internalType": "string",
          "name": "",
          "type": "string"
        }
      ],
      "stateMutability": "view",
      "type": "function"
    },
    {
      "inputs": [
        {
          "internalType": "address",
          "name": "to",
          "type": "address"
        },
        {
          "internalType": "uint256",
          "name": "tokenId",
          "type": "uint256"
        }
      ],
      "name": "approve",
      "outputs": [],
      "stateMutability": "nonpayable",
      "type": "function"
    },
    {
      "inputs": [
        {
          "internalType": "address",
          "name": "owner",
          "type": "address"
        }
      ],
      "name": "balanceOf",
      "outputs": [
        {
          "internalType": "uint256",
          "name": "",
          "type": "uint256"
        }
      ],
      "stateMutability": "view",
      "type": "function"
    },
    {
      "inputs": [],
      "name": "baseURI",
      "outputs": [
        {
          "internalType": "string",
          "name": "",
          "type": "string"
        }
      ],
      "stateMutability": "view",
      "type": "function"
    },
    {
      "inputs": [
        {
          "internalType": "uint256",
          "name": "tokenId",
          "type": "uint256"
        }
      ],
      "name": "burn",
      "outputs": [],
      "stateMutability": "nonpayable",
      "type": "function"
    },
    {
      "inputs": [
        {
          "internalType": "uint256",
          "name": "tokenId",
          "type": "uint256"
        }
      ],
      "name": "getApproved",
      "outputs": [
        {
          "internalType": "address",
          "name": "",
          "type": "address"
        }
      ],
      "stateMutability": "view",
      "type": "function"
    },
    {
      "inputs": [
        {
          "internalType": "address",
          "name": "owner",
          "type": "address"
        },
        {
          "internalType": "address",
          "name": "operator",
          "type": "address"
        }
      ],
      "name": "isApprovedForAll",
      "outputs": [
        {
          "internalType": "bool",
          "name": "",
          "type": "bool"
        }
      ],
      "stateMutability": "view",
      "type": "function"
    },
    {
      "inputs": [],
      "name": "mapSize",
      "outputs": [
        {
          "internalType": "uint256",
          "name": "",
          "type": "uint256"
        }
      ],
      "stateMutability": "view",
      "type": "function"
    },
    {
      "inputs": [
        {
          "internalType": "uint256",
          "name": "_quantity",
          "type": "uint256"
        },
        {
          "internalType": "address",
          "name": "_creator",
          "type": "address"
        }
      ],
      "name": "mint",
      "outputs": [],
      "stateMutability": "nonpayable",
      "type": "function"
    },
    {
      "inputs": [],
      "name": "name",
      "outputs": [
        {
          "internalType": "string",
          "name": "",
          "type": "string"
        }
      ],
      "stateMutability": "view",
      "type": "function"
    },
    {
      "inputs": [],
      "name": "owner",
      "outputs": [
        {
          "internalType": "address",
          "name": "",
          "type": "address"
        }
      ],
      "stateMutability": "view",
      "type": "function"
    },
    {
      "inputs": [
        {
          "internalType": "uint256",
          "name": "tokenId",
          "type": "uint256"
        }
      ],
      "name": "ownerOf",
      "outputs": [
        {
          "internalType": "address",
          "name": "",
          "type": "address"
        }
      ],
      "stateMutability": "view",
      "type": "function"
    },
    {
      "inputs": [
        {
          "internalType": "address[]",
          "name": "currentAddresses",
          "type": "address[]"
        }
      ],
      "name": "removeWhitelist",
      "outputs": [],
      "stateMutability": "nonpayable",
      "type": "function"
    },
    {
      "inputs": [],
      "name": "renounceOwnership",
      "outputs": [],
      "stateMutability": "nonpayable",
      "type": "function"
    },
    {
      "inputs": [
        {
          "internalType": "address",
          "name": "from",
          "type": "address"
        },
        {
          "internalType": "address",
          "name": "to",
          "type": "address"
        },
        {
          "internalType": "uint256",
          "name": "tokenId",
          "type": "uint256"
        }
      ],
      "name": "safeTransferFrom",
      "outputs": [],
      "stateMutability": "nonpayable",
      "type": "function"
    },
    {
      "inputs": [
        {
          "internalType": "address",
          "name": "from",
          "type": "address"
        },
        {
          "internalType": "address",
          "name": "to",
          "type": "address"
        },
        {
          "internalType": "uint256",
          "name": "tokenId",
          "type": "uint256"
        },
        {
          "internalType": "bytes",
          "name": "_data",
          "type": "bytes"
        }
      ],
      "name": "safeTransferFrom",
      "outputs": [],
      "stateMutability": "nonpayable",
      "type": "function"
    },
    {
      "inputs": [
        {
          "internalType": "address",
          "name": "operator",
          "type": "address"
        },
        {
          "internalType": "bool",
          "name": "approved",
          "type": "bool"
        }
      ],
      "name": "setApprovalForAll",
      "outputs": [],
      "stateMutability": "nonpayable",
      "type": "function"
    },
    {
      "inputs": [
        {
          "internalType": "string",
          "name": "baseURI_",
          "type": "string"
        }
      ],
      "name": "setBaseURI",
      "outputs": [],
      "stateMutability": "nonpayable",
      "type": "function"
    },
    {
      "inputs": [
        {
          "internalType": "string",
          "name": "_uriSuffix",
          "type": "string"
        }
      ],
      "name": "setUriSuffix",
      "outputs": [],
      "stateMutability": "nonpayable",
      "type": "function"
    },
    {
      "inputs": [
        {
          "internalType": "address[]",
          "name": "newAddresses",
          "type": "address[]"
        }
      ],
      "name": "setWhitelist",
      "outputs": [],
      "stateMutability": "nonpayable",
      "type": "function"
    },
    {
      "inputs": [
        {
          "internalType": "bool",
          "name": "_state",
          "type": "bool"
        }
      ],
      "name": "setWhitelistEnabled",
      "outputs": [],
      "stateMutability": "nonpayable",
      "type": "function"
    },
    {
      "inputs": [
        {
          "internalType": "bytes4",
          "name": "interfaceId",
          "type": "bytes4"
        }
      ],
      "name": "supportsInterface",
      "outputs": [
        {
          "internalType": "bool",
          "name": "",
          "type": "bool"
        }
      ],
      "stateMutability": "view",
      "type": "function"
    },
    {
      "inputs": [],
      "name": "symbol",
      "outputs": [
        {
          "internalType": "string",
          "name": "",
          "type": "string"
        }
      ],
      "stateMutability": "view",
      "type": "function"
    },
    {
      "inputs": [
        {
          "internalType": "uint256",
          "name": "_tokenId",
          "type": "uint256"
        }
      ],
      "name": "tokenURI",
      "outputs": [
        {
          "internalType": "string",
          "name": "",
          "type": "string"
        }
      ],
      "stateMutability": "view",
      "type": "function"
    },
    {
      "inputs": [],
      "name": "totalSupply",
      "outputs": [
        {
          "internalType": "uint256",
          "name": "",
          "type": "uint256"
        }
      ],
      "stateMutability": "view",
      "type": "function"
    },
    {
      "inputs": [
        {
          "internalType": "address",
          "name": "from",
          "type": "address"
        },
        {
          "internalType": "address",
          "name": "to",
          "type": "address"
        },
        {
          "internalType": "uint256",
          "name": "tokenId",
          "type": "uint256"
        }
      ],
      "name": "transferFrom",
      "outputs": [],
      "stateMutability": "nonpayable",
      "type": "function"
    },
    {
      "inputs": [
        {
          "internalType": "address",
          "name": "newOwner",
          "type": "address"
        }
      ],
      "name": "transferOwnership",
      "outputs": [],
      "stateMutability": "nonpayable",
      "type": "function"
    },
    {
      "inputs": [],
      "name": "uriSuffix",
      "outputs": [
        {
          "internalType": "string",
          "name": "",
          "type": "string"
        }
      ],
      "stateMutability": "view",
      "type": "function"
    },
    {
      "inputs": [
        {
          "internalType": "address",
          "name": "",
          "type": "address"
        }
      ],
      "name": "whitelist",
      "outputs": [
        {
          "internalType": "bool",
          "name": "",
          "type": "bool"
        }
      ],
      "stateMutability": "view",
      "type": "function"
    },
    {
      "inputs": [],
      "name": "whitelistEnabled",
      "outputs": [
        {
          "internalType": "bool",
          "name": "",
          "type": "bool"
        }
      ],
      "stateMutability": "view",
      "type": "function"
    }
  ],
  "bytecode": "0x608060405260405180602001604052806000815250600990805190602001906200002b92919062000277565b506040518060400160405280600581526020017f2e6a736f6e000000000000000000000000000000000000000000000000000000815250600a90805190602001906200007992919062000277565b506000600b556000600c60006101000a81548160ff021916908315150217905550348015620000a757600080fd5b5060405162003dcd38038062003dcd8339818101604052810190620000cd9190620004c4565b81818160029080519060200190620000e792919062000277565b5080600390805190602001906200010092919062000277565b5062000111620001a460201b60201c565b6000819055505050620001396200012d620001a960201b60201c565b620001b160201b60201c565b6000829050600082905060008251141580156200015857506000815114155b6200019a576040517f08c379a00000000000000000000000000000000000000000000000000000000081526004016200019190620005d0565b60405180910390fd5b5050505062000657565b600090565b600033905090565b6000600860009054906101000a900473ffffffffffffffffffffffffffffffffffffffff16905081600860006101000a81548173ffffffffffffffffffffffffffffffffffffffff021916908373ffffffffffffffffffffffffffffffffffffffff1602179055508173ffffffffffffffffffffffffffffffffffffffff168173ffffffffffffffffffffffffffffffffffffffff167f8be0079c531659141344cd1fd0a4f28419497f9722a3daafe3b4186f6b6457e060405160405180910390a35050565b828054620002859062000621565b90600052602060002090601f016020900481019282620002a95760008555620002f5565b82601f10620002c457805160ff1916838001178555620002f5565b82800160010185558215620002f5579182015b82811115620002f4578251825591602001919060010190620002d7565b5b50905062000304919062000308565b5090565b5b808211156200032357600081600090555060010162000309565b5090565b6000604051905090565b600080fd5b600080fd5b600080fd5b600080fd5b6000601f19601f8301169050919050565b7f4e487b7100000000000000000000000000000000000000000000000000000000600052604160045260246000fd5b620003908262000345565b810181811067ffffffffffffffff82111715620003b257620003b162000356565b5b80604052505050565b6000620003c762000327565b9050620003d5828262000385565b919050565b600067ffffffffffffffff821115620003f857620003f762000356565b5b620004038262000345565b9050602081019050919050565b60005b838110156200043057808201518184015260208101905062000413565b8381111562000440576000848401525b50505050565b60006200045d6200045784620003da565b620003bb565b9050828152602081018484840111156200047c576200047b62000340565b5b6200048984828562000410565b509392505050565b600082601f830112620004a957620004a86200033b565b5b8151620004bb84826020860162000446565b91505092915050565b60008060408385031215620004de57620004dd62000331565b5b600083015167ffffffffffffffff811115620004ff57620004fe62000336565b5b6200050d8582860162000491565b925050602083015167ffffffffffffffff81111562000531576200053062000336565b5b6200053f8582860162000491565b9150509250929050565b600082825260208201905092915050565b7f455243373231413a2043686f6f73652061206e616d6520616e642073796d626f60008201527f6c00000000000000000000000000000000000000000000000000000000000000602082015250565b6000620005b860218362000549565b9150620005c5826200055a565b604082019050919050565b60006020820190508181036000830152620005eb81620005a9565b9050919050565b7f4e487b7100000000000000000000000000000000000000000000000000000000600052602260045260246000fd5b600060028204905060018216806200063a57607f821691505b60208210811415620006515762000650620005f2565b5b50919050565b61376680620006676000396000f3fe608060405234801561001057600080fd5b50600436106101f05760003560e01c80636c0360eb1161010f578063a22cb465116100a2578063d28d885211610071578063d28d88521461057f578063e985e9c51461059d578063f2fde38b146105cd578063f4217648146105e9576101f0565b8063a22cb465146104f9578063b09f126614610515578063b88d4fde14610533578063c87b56dd1461054f576101f0565b80639451c99a116100de5780639451c99a1461047157806394bf804d1461048f57806395d89b41146104ab5780639b19251a146104c9576101f0565b80636c0360eb146103fb57806370a0823114610419578063715018a6146104495780638da5cb5b14610453576101f0565b8063232452161161018757806351fb012d1161015657806351fb012d146103735780635503a0e81461039157806355f804b3146103af5780636352211e146103cb576101f0565b8063232452161461030357806323b872dd1461031f57806342842e0e1461033b57806342966c6814610357576101f0565b8063095ea7b3116101c3578063095ea7b31461028f57806316ba10e0146102ab57806318160ddd146102c75780631a32ebb6146102e5576101f0565b806301ffc9a7146101f5578063052d9e7e1461022557806306fdde0314610241578063081812fc1461025f575b600080fd5b61020f600480360381019061020a9190612730565b610605565b60405161021c9190612778565b60405180910390f35b61023f600480360381019061023a91906127bf565b610697565b005b610249610702565b6040516102569190612885565b60405180910390f35b610279600480360381019061027491906128dd565b610794565b604051610286919061294b565b60405180910390f35b6102a960048036038101906102a49190612992565b610810565b005b6102c560048036038101906102c09190612b07565b6109b7565b005b6102cf6109d9565b6040516102dc9190612b5f565b60405180910390f35b6102ed6109f0565b6040516102fa9190612b5f565b60405180910390f35b61031d60048036038101906103189190612bda565b6109f6565b005b61033960048036038101906103349190612c27565b610b40565b005b61035560048036038101906103509190612c27565b610b50565b005b610371600480360381019061036c91906128dd565b610b70565b005b61037b610b7c565b6040516103889190612778565b60405180910390f35b610399610b8f565b6040516103a69190612885565b60405180910390f35b6103c960048036038101906103c49190612b07565b610c1d565b005b6103e560048036038101906103e091906128dd565b610c77565b6040516103f2919061294b565b60405180910390f35b610403610c89565b6040516104109190612885565b60405180910390f35b610433600480360381019061042e9190612c7a565b610d17565b6040516104409190612b5f565b60405180910390f35b610451610dac565b005b61045b610dc0565b604051610468919061294b565b60405180910390f35b610479610dea565b6040516104869190612b5f565b60405180910390f35b6104a960048036038101906104a49190612ca7565b610df0565b005b6104b3610f76565b6040516104c09190612885565b60405180910390f35b6104e360048036038101906104de9190612c7a565b611008565b6040516104f09190612778565b60405180910390f35b610513600480360381019061050e9190612ce7565b611028565b005b61051d6111a0565b60405161052a9190612885565b60405180910390f35b61054d60048036038101906105489190612dc8565b61122e565b005b610569600480360381019061056491906128dd565b6112a1565b6040516105769190612885565b60405180910390f35b61058761134b565b6040516105949190612885565b60405180910390f35b6105b760048036038101906105b29190612e4b565b6113d9565b6040516105c49190612778565b60405180910390f35b6105e760048036038101906105e29190612c7a565b61146d565b005b61060360048036038101906105fe9190612bda565b6114f1565b005b60006301ffc9a760e01b827bffffffffffffffffffffffffffffffffffffffffffffffffffffffff1916148061066057506380ac58cd60e01b827bffffffffffffffffffffffffffffffffffffffffffffffffffffffff1916145b806106905750635b5e139f60e01b827bffffffffffffffffffffffffffffffffffffffffffffffffffffffff1916145b9050919050565b61069f611689565b80600c60006101000a81548160ff0219169083151502179055507f218e591c4b0d49651b4b42843cb8cc59080122def3d2271f56ef2e21896753ec600c60009054906101000a900460ff166040516106f79190612778565b60405180910390a150565b60606002805461071190612eba565b80601f016020809104026020016040519081016040528092919081815260200182805461073d90612eba565b801561078a5780601f1061075f5761010080835404028352916020019161078a565b820191906000526020600020905b81548152906001019060200180831161076d57829003601f168201915b5050505050905090565b600061079f82611707565b6107d5576040517fcf4700e400000000000000000000000000000000000000000000000000000000815260040160405180910390fd5b6006600083815260200190815260200160002060009054906101000a900473ffffffffffffffffffffffffffffffffffffffff169050919050565b600061081b82611766565b90508073ffffffffffffffffffffffffffffffffffffffff168373ffffffffffffffffffffffffffffffffffffffff161415610883576040517f943f7b8c00000000000000000000000000000000000000000000000000000000815260040160405180910390fd5b8073ffffffffffffffffffffffffffffffffffffffff166108a2611834565b73ffffffffffffffffffffffffffffffffffffffff1614610905576108ce816108c9611834565b6113d9565b610904576040517fcfb3b94200000000000000000000000000000000000000000000000000000000815260040160405180910390fd5b5b826006600084815260200190815260200160002060006101000a81548173ffffffffffffffffffffffffffffffffffffffff021916908373ffffffffffffffffffffffffffffffffffffffff160217905550818373ffffffffffffffffffffffffffffffffffffffff168273ffffffffffffffffffffffffffffffffffffffff167f8c5be1e5ebec7d5bd14f71427d1e84f3dd0314c0f7b2291e5b200ac8c7c3b92560405160405180910390a4505050565b6109bf611689565b80600a90805190602001906109d5929190612621565b5050565b60006109e361183c565b6001546000540303905090565b600b5481565b6109fe611689565b60008282905011610a44576040517f08c379a0000000000000000000000000000000000000000000000000000000008152600401610a3b90612f38565b60405180910390fd5b6101f4828290501115610a8c576040517f08c379a0000000000000000000000000000000000000000000000000000000008152600401610a8390612fa4565b60405180910390fd5b60005b82829050811015610b3b57600d6000848484818110610ab157610ab0612fc4565b5b9050602002016020810190610ac69190612c7a565b73ffffffffffffffffffffffffffffffffffffffff1673ffffffffffffffffffffffffffffffffffffffff16815260200190815260200160002060006101000a81549060ff0219169055600b6000815480929190610b2390613022565b91905055508080610b339061304c565b915050610a8f565b505050565b610b4b838383611841565b505050565b610b6b8383836040518060200160405280600081525061122e565b505050565b610b7981611c09565b50565b600c60009054906101000a900460ff1681565b600a8054610b9c90612eba565b80601f0160208091040260200160405190810160405280929190818152602001828054610bc890612eba565b8015610c155780601f10610bea57610100808354040283529160200191610c15565b820191906000526020600020905b815481529060010190602001808311610bf857829003601f168201915b505050505081565b610c25611689565b8060099080519060200190610c3b929190612621565b507f01e56a02aca7f26a28165a040851ba78f30282b55ca81c63a804cdc1e2dcea726009604051610c6c919061312a565b60405180910390a150565b6000610c8282611766565b9050919050565b60098054610c9690612eba565b80601f0160208091040260200160405190810160405280929190818152602001828054610cc290612eba565b8015610d0f5780601f10610ce457610100808354040283529160200191610d0f565b820191906000526020600020905b815481529060010190602001808311610cf257829003601f168201915b505050505081565b600080610d2383611c17565b1415610d5b576040517f8f4eb60400000000000000000000000000000000000000000000000000000000815260040160405180910390fd5b67ffffffffffffffff600560008473ffffffffffffffffffffffffffffffffffffffff1673ffffffffffffffffffffffffffffffffffffffff16815260200190815260200160002054169050919050565b610db4611689565b610dbe6000611c21565b565b6000600860009054906101000a900473ffffffffffffffffffffffffffffffffffffffff16905090565b60005481565b60001515600c60009054906101000a900460ff1615151415610e8257610e14610dc0565b73ffffffffffffffffffffffffffffffffffffffff163373ffffffffffffffffffffffffffffffffffffffff1614610e81576040517f08c379a0000000000000000000000000000000000000000000000000000000008152600401610e7890613198565b60405180910390fd5b5b60011515600c60009054906101000a900460ff1615151415610f6857600d60003373ffffffffffffffffffffffffffffffffffffffff1673ffffffffffffffffffffffffffffffffffffffff16815260200190815260200160002060009054906101000a900460ff1680610f285750610ef9610dc0565b73ffffffffffffffffffffffffffffffffffffffff163373ffffffffffffffffffffffffffffffffffffffff16145b610f67576040517f08c379a0000000000000000000000000000000000000000000000000000000008152600401610f5e90613204565b60405180910390fd5b5b610f728183611ce7565b5050565b606060038054610f8590612eba565b80601f0160208091040260200160405190810160405280929190818152602001828054610fb190612eba565b8015610ffe5780601f10610fd357610100808354040283529160200191610ffe565b820191906000526020600020905b815481529060010190602001808311610fe157829003601f168201915b5050505050905090565b600d6020528060005260406000206000915054906101000a900460ff1681565b611030611834565b73ffffffffffffffffffffffffffffffffffffffff168273ffffffffffffffffffffffffffffffffffffffff161415611095576040517fb06307db00000000000000000000000000000000000000000000000000000000815260040160405180910390fd5b80600760006110a2611834565b73ffffffffffffffffffffffffffffffffffffffff1673ffffffffffffffffffffffffffffffffffffffff16815260200190815260200160002060008473ffffffffffffffffffffffffffffffffffffffff1673ffffffffffffffffffffffffffffffffffffffff16815260200190815260200160002060006101000a81548160ff0219169083151502179055508173ffffffffffffffffffffffffffffffffffffffff1661114f611834565b73ffffffffffffffffffffffffffffffffffffffff167f17307eab39ab6107e8899845ad3d59bd9653f200f220920489ca2b5937696c31836040516111949190612778565b60405180910390a35050565b600380546111ad90612eba565b80601f01602080910402602001604051908101604052809291908181526020018280546111d990612eba565b80156112265780601f106111fb57610100808354040283529160200191611226565b820191906000526020600020905b81548152906001019060200180831161120957829003601f168201915b505050505081565b611239848484611841565b60008373ffffffffffffffffffffffffffffffffffffffff163b1461129b5761126484848484611d05565b61129a576040517fd1a57ed600000000000000000000000000000000000000000000000000000000815260040160405180910390fd5b5b50505050565b60606112ac82611707565b6112eb576040517f08c379a00000000000000000000000000000000000000000000000000000000081526004016112e290613296565b60405180910390fd5b60006112f5611e65565b905060008151116113155760405180602001604052806000815250611343565b8061131f84611ef7565b600a60405160200161133393929190613371565b6040516020818303038152906040525b915050919050565b6002805461135890612eba565b80601f016020809104026020016040519081016040528092919081815260200182805461138490612eba565b80156113d15780601f106113a6576101008083540402835291602001916113d1565b820191906000526020600020905b8154815290600101906020018083116113b457829003601f168201915b505050505081565b6000600760008473ffffffffffffffffffffffffffffffffffffffff1673ffffffffffffffffffffffffffffffffffffffff16815260200190815260200160002060008373ffffffffffffffffffffffffffffffffffffffff1673ffffffffffffffffffffffffffffffffffffffff16815260200190815260200160002060009054906101000a900460ff16905092915050565b611475611689565b600073ffffffffffffffffffffffffffffffffffffffff168173ffffffffffffffffffffffffffffffffffffffff1614156114e5576040517f08c379a00000000000000000000000000000000000000000000000000000000081526004016114dc90613414565b60405180910390fd5b6114ee81611c21565b50565b6114f9611689565b6000828290501161153f576040517f08c379a000000000000000000000000000000000000000000000000000000000815260040161153690612f38565b60405180910390fd5b6101f48282905010611586576040517f08c379a000000000000000000000000000000000000000000000000000000000815260040161157d90612fa4565b60405180910390fd5b60005b82829050811015611684576107d0600b54106115da576040517f08c379a00000000000000000000000000000000000000000000000000000000081526004016115d1906134a6565b60405180910390fd5b6001600d60008585858181106115f3576115f2612fc4565b5b90506020020160208101906116089190612c7a565b73ffffffffffffffffffffffffffffffffffffffff1673ffffffffffffffffffffffffffffffffffffffff16815260200190815260200160002060006101000a81548160ff021916908315150217905550600b600081548092919061166c9061304c565b9190505550808061167c9061304c565b915050611589565b505050565b611691612058565b73ffffffffffffffffffffffffffffffffffffffff166116af610dc0565b73ffffffffffffffffffffffffffffffffffffffff1614611705576040517f08c379a00000000000000000000000000000000000000000000000000000000081526004016116fc90613512565b60405180910390fd5b565b60008161171261183c565b11158015611721575060005482105b801561175f575060007c0100000000000000000000000000000000000000000000000000000000600460008581526020019081526020016000205416145b9050919050565b6000808290508061177561183c565b116117fd576000548110156117fc5760006004600083815260200190815260200160002054905060007c0100000000000000000000000000000000000000000000000000000000821614156117fa575b60008114156117f05760046000836001900393508381526020019081526020016000205490506117c5565b809250505061182f565b505b5b6040517fdf2d9b4200000000000000000000000000000000000000000000000000000000815260040160405180910390fd5b919050565b600033905090565b600090565b600061184c82611766565b90508373ffffffffffffffffffffffffffffffffffffffff168173ffffffffffffffffffffffffffffffffffffffff16146118b3576040517fa114810000000000000000000000000000000000000000000000000000000000815260040160405180910390fd5b60006006600084815260200190815260200160002060009054906101000a900473ffffffffffffffffffffffffffffffffffffffff16905060008573ffffffffffffffffffffffffffffffffffffffff1661190c611834565b73ffffffffffffffffffffffffffffffffffffffff16148061193b575061193a86611935611834565b6113d9565b5b806119785750611949611834565b73ffffffffffffffffffffffffffffffffffffffff168273ffffffffffffffffffffffffffffffffffffffff16145b9050806119b1576040517f59c896be00000000000000000000000000000000000000000000000000000000815260040160405180910390fd5b60006119bc86611c17565b14156119f4576040517fea553b3400000000000000000000000000000000000000000000000000000000815260040160405180910390fd5b611a018686866001612060565b6000611a0c83611c17565b14611a48576006600085815260200190815260200160002060006101000a81549073ffffffffffffffffffffffffffffffffffffffff02191690555b600560008773ffffffffffffffffffffffffffffffffffffffff1673ffffffffffffffffffffffffffffffffffffffff168152602001908152602001600020600081546001900391905081905550600560008673ffffffffffffffffffffffffffffffffffffffff1673ffffffffffffffffffffffffffffffffffffffff16815260200190815260200160002060008154600101919050819055507c020000000000000000000000000000000000000000000000000000000060a042901b611b0f87611c17565b1717600460008681526020019081526020016000208190555060007c020000000000000000000000000000000000000000000000000000000084161415611b99576000600185019050600060046000838152602001908152602001600020541415611b97576000548114611b96578360046000838152602001908152602001600020819055505b5b505b838573ffffffffffffffffffffffffffffffffffffffff168773ffffffffffffffffffffffffffffffffffffffff167fddf252ad1be2c89b69c2b068fc378daa952ba7f163c4a11628f55a4df523b3ef60405160405180910390a4611c018686866001612066565b505050505050565b611c1481600061206c565b50565b6000819050919050565b6000600860009054906101000a900473ffffffffffffffffffffffffffffffffffffffff16905081600860006101000a81548173ffffffffffffffffffffffffffffffffffffffff021916908373ffffffffffffffffffffffffffffffffffffffff1602179055508173ffffffffffffffffffffffffffffffffffffffff168173ffffffffffffffffffffffffffffffffffffffff167f8be0079c531659141344cd1fd0a4f28419497f9722a3daafe3b4186f6b6457e060405160405180910390a35050565b611d01828260405180602001604052806000815250612386565b5050565b60008373ffffffffffffffffffffffffffffffffffffffff1663150b7a02611d2b611834565b8786866040518563ffffffff1660e01b8152600401611d4d9493929190613587565b602060405180830381600087803b158015611d6757600080fd5b505af1925050508015611d9857506040513d601f19601f82011682018060405250810190611d9591906135e8565b60015b611e12573d8060008114611dc8576040519150601f19603f3d011682016040523d82523d6000602084013e611dcd565b606091505b50600081511415611e0a576040517fd1a57ed600000000000000000000000000000000000000000000000000000000815260040160405180910390fd5b805181602001fd5b63150b7a0260e01b7bffffffffffffffffffffffffffffffffffffffffffffffffffffffff1916817bffffffffffffffffffffffffffffffffffffffffffffffffffffffff191614915050949350505050565b606060098054611e7490612eba565b80601f0160208091040260200160405190810160405280929190818152602001828054611ea090612eba565b8015611eed5780601f10611ec257610100808354040283529160200191611eed565b820191906000526020600020905b815481529060010190602001808311611ed057829003601f168201915b5050505050905090565b60606000821415611f3f576040518060400160405280600181526020017f30000000000000000000000000000000000000000000000000000000000000008152509050612053565b600082905060005b60008214611f71578080611f5a9061304c565b915050600a82611f6a9190613644565b9150611f47565b60008167ffffffffffffffff811115611f8d57611f8c6129dc565b5b6040519080825280601f01601f191660200182016040528015611fbf5781602001600182028036833780820191505090505b5090505b6000851461204c57600182611fd89190613675565b9150600a85611fe791906136a9565b6030611ff391906136da565b60f81b81838151811061200957612008612fc4565b5b60200101907effffffffffffffffffffffffffffffffffffffffffffffffffffffffffffff1916908160001a905350600a856120459190613644565b9450611fc3565b8093505050505b919050565b600033905090565b50505050565b50505050565b600061207783611766565b9050600081905060006006600086815260200190815260200160002060009054906101000a900473ffffffffffffffffffffffffffffffffffffffff16905083156121845760008273ffffffffffffffffffffffffffffffffffffffff166120dd611834565b73ffffffffffffffffffffffffffffffffffffffff16148061210c575061210b83612106611834565b6113d9565b5b80612149575061211a611834565b73ffffffffffffffffffffffffffffffffffffffff168273ffffffffffffffffffffffffffffffffffffffff16145b905080612182576040517f59c896be00000000000000000000000000000000000000000000000000000000815260040160405180910390fd5b505b612192826000876001612060565b600061219d82611c17565b146121d9576006600086815260200190815260200160002060006101000a81549073ffffffffffffffffffffffffffffffffffffffff02191690555b600160806001901b03600560008473ffffffffffffffffffffffffffffffffffffffff1673ffffffffffffffffffffffffffffffffffffffff168152602001908152602001600020600082825401925050819055507c02000000000000000000000000000000000000000000000000000000007c010000000000000000000000000000000000000000000000000000000060a042901b61227885611c17565b171717600460008781526020019081526020016000208190555060007c020000000000000000000000000000000000000000000000000000000084161415612303576000600186019050600060046000838152602001908152602001600020541415612301576000548114612300578360046000838152602001908152602001600020819055505b5b505b84600073ffffffffffffffffffffffffffffffffffffffff168373ffffffffffffffffffffffffffffffffffffffff167fddf252ad1be2c89b69c2b068fc378daa952ba7f163c4a11628f55a4df523b3ef60405160405180910390a461236d826000876001612066565b6001600081548092919060010191905055505050505050565b600080549050600061239785611c17565b14156123cf576040517f2e07630000000000000000000000000000000000000000000000000000000000815260040160405180910390fd5b600083141561240a576040517fb562e8dd00000000000000000000000000000000000000000000000000000000815260040160405180910390fd5b6124176000858386612060565b600160406001901b178302600560008673ffffffffffffffffffffffffffffffffffffffff1673ffffffffffffffffffffffffffffffffffffffff1681526020019081526020016000206000828254019250508190555060e161247c60018514612617565b901b60a042901b61248c86611c17565b1717600460008381526020019081526020016000208190555060008190506000848201905060008673ffffffffffffffffffffffffffffffffffffffff163b14612590575b818673ffffffffffffffffffffffffffffffffffffffff16600073ffffffffffffffffffffffffffffffffffffffff167fddf252ad1be2c89b69c2b068fc378daa952ba7f163c4a11628f55a4df523b3ef60405160405180910390a46125406000878480600101955087611d05565b612576576040517fd1a57ed600000000000000000000000000000000000000000000000000000000815260040160405180910390fd5b8082106124d157826000541461258b57600080fd5b6125fb565b5b818060010192508673ffffffffffffffffffffffffffffffffffffffff16600073ffffffffffffffffffffffffffffffffffffffff167fddf252ad1be2c89b69c2b068fc378daa952ba7f163c4a11628f55a4df523b3ef60405160405180910390a4808210612591575b8160008190555050506126116000858386612066565b50505050565b6000819050919050565b82805461262d90612eba565b90600052602060002090601f01602090048101928261264f5760008555612696565b82601f1061266857805160ff1916838001178555612696565b82800160010185558215612696579182015b8281111561269557825182559160200191906001019061267a565b5b5090506126a391906126a7565b5090565b5b808211156126c05760008160009055506001016126a8565b5090565b6000604051905090565b600080fd5b600080fd5b60007fffffffff0000000000000000000000000000000000000000000000000000000082169050919050565b61270d816126d8565b811461271857600080fd5b50565b60008135905061272a81612704565b92915050565b600060208284031215612746576127456126ce565b5b60006127548482850161271b565b91505092915050565b60008115159050919050565b6127728161275d565b82525050565b600060208201905061278d6000830184612769565b92915050565b61279c8161275d565b81146127a757600080fd5b50565b6000813590506127b981612793565b92915050565b6000602082840312156127d5576127d46126ce565b5b60006127e3848285016127aa565b91505092915050565b600081519050919050565b600082825260208201905092915050565b60005b8381101561282657808201518184015260208101905061280b565b83811115612835576000848401525b50505050565b6000601f19601f8301169050919050565b6000612857826127ec565b61286181856127f7565b9350612871818560208601612808565b61287a8161283b565b840191505092915050565b6000602082019050818103600083015261289f818461284c565b905092915050565b6000819050919050565b6128ba816128a7565b81146128c557600080fd5b50565b6000813590506128d7816128b1565b92915050565b6000602082840312156128f3576128f26126ce565b5b6000612901848285016128c8565b91505092915050565b600073ffffffffffffffffffffffffffffffffffffffff82169050919050565b60006129358261290a565b9050919050565b6129458161292a565b82525050565b6000602082019050612960600083018461293c565b92915050565b61296f8161292a565b811461297a57600080fd5b50565b60008135905061298c81612966565b92915050565b600080604083850312156129a9576129a86126ce565b5b60006129b78582860161297d565b92505060206129c8858286016128c8565b9150509250929050565b600080fd5b600080fd5b7f4e487b7100000000000000000000000000000000000000000000000000000000600052604160045260246000fd5b612a148261283b565b810181811067ffffffffffffffff82111715612a3357612a326129dc565b5b80604052505050565b6000612a466126c4565b9050612a528282612a0b565b919050565b600067ffffffffffffffff821115612a7257612a716129dc565b5b612a7b8261283b565b9050602081019050919050565b82818337600083830152505050565b6000612aaa612aa584612a57565b612a3c565b905082815260208101848484011115612ac657612ac56129d7565b5b612ad1848285612a88565b509392505050565b600082601f830112612aee57612aed6129d2565b5b8135612afe848260208601612a97565b91505092915050565b600060208284031215612b1d57612b1c6126ce565b5b600082013567ffffffffffffffff811115612b3b57612b3a6126d3565b5b612b4784828501612ad9565b91505092915050565b612b59816128a7565b82525050565b6000602082019050612b746000830184612b50565b92915050565b600080fd5b600080fd5b60008083601f840112612b9a57612b996129d2565b5b8235905067ffffffffffffffff811115612bb757612bb6612b7a565b5b602083019150836020820283011115612bd357612bd2612b7f565b5b9250929050565b60008060208385031215612bf157612bf06126ce565b5b600083013567ffffffffffffffff811115612c0f57612c0e6126d3565b5b612c1b85828601612b84565b92509250509250929050565b600080600060608486031215612c4057612c3f6126ce565b5b6000612c4e8682870161297d565b9350506020612c5f8682870161297d565b9250506040612c70868287016128c8565b9150509250925092565b600060208284031215612c9057612c8f6126ce565b5b6000612c9e8482850161297d565b91505092915050565b60008060408385031215612cbe57612cbd6126ce565b5b6000612ccc858286016128c8565b9250506020612cdd8582860161297d565b9150509250929050565b60008060408385031215612cfe57612cfd6126ce565b5b6000612d0c8582860161297d565b9250506020612d1d858286016127aa565b9150509250929050565b600067ffffffffffffffff821115612d4257612d416129dc565b5b612d4b8261283b565b9050602081019050919050565b6000612d6b612d6684612d27565b612a3c565b905082815260208101848484011115612d8757612d866129d7565b5b612d92848285612a88565b509392505050565b600082601f830112612daf57612dae6129d2565b5b8135612dbf848260208601612d58565b91505092915050565b60008060008060808587031215612de257612de16126ce565b5b6000612df08782880161297d565b9450506020612e018782880161297d565b9350506040612e12878288016128c8565b925050606085013567ffffffffffffffff811115612e3357612e326126d3565b5b612e3f87828801612d9a565b91505092959194509250565b60008060408385031215612e6257612e616126ce565b5b6000612e708582860161297d565b9250506020612e818582860161297d565b9150509250929050565b7f4e487b7100000000000000000000000000000000000000000000000000000000600052602260045260246000fd5b60006002820490506001821680612ed257607f821691505b60208210811415612ee657612ee5612e8b565b5b50919050565b7f4e6f20757365722064657461696c732070726f76696465640000000000000000600082015250565b6000612f226018836127f7565b9150612f2d82612eec565b602082019050919050565b60006020820190508181036000830152612f5181612f15565b9050919050565b7f546f6f206d616e792075736572737320746f2077686974656c69737400000000600082015250565b6000612f8e601c836127f7565b9150612f9982612f58565b602082019050919050565b60006020820190508181036000830152612fbd81612f81565b9050919050565b7f4e487b7100000000000000000000000000000000000000000000000000000000600052603260045260246000fd5b7f4e487b7100000000000000000000000000000000000000000000000000000000600052601160045260246000fd5b600061302d826128a7565b9150600082141561304157613040612ff3565b5b600182039050919050565b6000613057826128a7565b91507fffffffffffffffffffffffffffffffffffffffffffffffffffffffffffffffff82141561308a57613089612ff3565b5b600182019050919050565b60008190508160005260206000209050919050565b600081546130b781612eba565b6130c181866127f7565b945060018216600081146130dc57600181146130ee57613121565b60ff1983168652602086019350613121565b6130f785613095565b60005b83811015613119578154818901526001820191506020810190506130fa565b808801955050505b50505092915050565b6000602082019050818103600083015261314481846130aa565b905092915050565b7f4f776e61626c653a204e6f7420746865206f776e657200000000000000000000600082015250565b60006131826016836127f7565b915061318d8261314c565b602082019050919050565b600060208201905081810360008301526131b181613175565b9050919050565b7f41646472657373206e6f742077686974656c6973746564000000000000000000600082015250565b60006131ee6017836127f7565b91506131f9826131b8565b602082019050919050565b6000602082019050818103600083015261321d816131e1565b9050919050565b7f4552433732314d657461646174613a2055524920717565727920666f72206e6f60008201527f6e6578697374656e7420746f6b656e0000000000000000000000000000000000602082015250565b6000613280602f836127f7565b915061328b82613224565b604082019050919050565b600060208201905081810360008301526132af81613273565b9050919050565b600081905092915050565b60006132cc826127ec565b6132d681856132b6565b93506132e6818560208601612808565b80840191505092915050565b600081546132ff81612eba565b61330981866132b6565b94506001821660008114613324576001811461333557613368565b60ff19831686528186019350613368565b61333e85613095565b60005b8381101561336057815481890152600182019150602081019050613341565b838801955050505b50505092915050565b600061337d82866132c1565b915061338982856132c1565b915061339582846132f2565b9150819050949350505050565b7f4f776e61626c653a206e6577206f776e657220697320746865207a65726f206160008201527f6464726573730000000000000000000000000000000000000000000000000000602082015250565b60006133fe6026836127f7565b9150613409826133a2565b604082019050919050565b6000602082019050818103600083015261342d816133f1565b9050919050565b7f4d6178696d756d20557365727320616c72656164792077686974656c6973746560008201527f6400000000000000000000000000000000000000000000000000000000000000602082015250565b60006134906021836127f7565b915061349b82613434565b604082019050919050565b600060208201905081810360008301526134bf81613483565b9050919050565b7f4f776e61626c653a2063616c6c6572206973206e6f7420746865206f776e6572600082015250565b60006134fc6020836127f7565b9150613507826134c6565b602082019050919050565b6000602082019050818103600083015261352b816134ef565b9050919050565b600081519050919050565b600082825260208201905092915050565b600061355982613532565b613563818561353d565b9350613573818560208601612808565b61357c8161283b565b840191505092915050565b600060808201905061359c600083018761293c565b6135a9602083018661293c565b6135b66040830185612b50565b81810360608301526135c8818461354e565b905095945050505050565b6000815190506135e281612704565b92915050565b6000602082840312156135fe576135fd6126ce565b5b600061360c848285016135d3565b91505092915050565b7f4e487b7100000000000000000000000000000000000000000000000000000000600052601260045260246000fd5b600061364f826128a7565b915061365a836128a7565b92508261366a57613669613615565b5b828204905092915050565b6000613680826128a7565b915061368b836128a7565b92508282101561369e5761369d612ff3565b5b828203905092915050565b60006136b4826128a7565b91506136bf836128a7565b9250826136cf576136ce613615565b5b828206905092915050565b60006136e5826128a7565b91506136f0836128a7565b9250827fffffffffffffffffffffffffffffffffffffffffffffffffffffffffffffffff0382111561372557613724612ff3565b5b82820190509291505056fea2646970667358221220846f7c86a62d313f0a83a0656180b50c9b05dbc18bc4a2c6abbc3a521477e26364736f6c63430008090033",
  "linkReferences": {},
  "deployedLinkReferences": {}
}