{
  "_format": "hh-sol-artifact-1",
  "contractName": "ERC721RFactory",
  "sourceName": "contracts/factoryContracts/ERC721RFactory.sol",
  "abi": [
    {
      "inputs": [
        {
          "internalType": "string",
          "name": "name",
          "type": "string"
        },
        {
          "internalType": "string",
          "name": "symbol",
          "type": "string"
        },
        {
          "internalType": "uint256",
          "name": "mintSupply",
          "type": "uint256"
        },
        {
          "internalType": "uint256",
          "name": "mintingPrice",
          "type": "uint256"
        },
        {
          "internalType": "uint256",
          "name": "refundTime",
          "type": "uint256"
        },
        {
          "internalType": "uint256",
          "name": "maxMintPerUser",
          "type": "uint256"
        }
      ],
      "stateMutability": "nonpayable",
      "type": "constructor"
    },
    {
      "inputs": [],
      "name": "ApprovalCallerNotOwnerNorApproved",
      "type": "error"
    },
    {
      "inputs": [],
      "name": "ApprovalQueryForNonexistentToken",
      "type": "error"
    },
    {
      "inputs": [],
      "name": "ApprovalToCurrentOwner",
      "type": "error"
    },
    {
      "inputs": [],
      "name": "ApproveToCaller",
      "type": "error"
    },
    {
      "inputs": [],
      "name": "BalanceQueryForZeroAddress",
      "type": "error"
    },
    {
      "inputs": [],
      "name": "MintToZeroAddress",
      "type": "error"
    },
    {
      "inputs": [],
      "name": "MintZeroQuantity",
      "type": "error"
    },
    {
      "inputs": [],
      "name": "OwnerQueryForNonexistentToken",
      "type": "error"
    },
    {
      "inputs": [],
      "name": "TransferCallerNotOwnerNorApproved",
      "type": "error"
    },
    {
      "inputs": [],
      "name": "TransferFromIncorrectOwner",
      "type": "error"
    },
    {
      "inputs": [],
      "name": "TransferToNonERC721ReceiverImplementer",
      "type": "error"
    },
    {
      "inputs": [],
      "name": "TransferToZeroAddress",
      "type": "error"
    },
    {
      "inputs": [],
      "name": "URIQueryForNonexistentToken",
      "type": "error"
    },
    {
      "anonymous": false,
      "inputs": [
        {
          "indexed": true,
          "internalType": "address",
          "name": "owner",
          "type": "address"
        },
        {
          "indexed": true,
          "internalType": "address",
          "name": "approved",
          "type": "address"
        },
        {
          "indexed": true,
          "internalType": "uint256",
          "name": "tokenId",
          "type": "uint256"
        }
      ],
      "name": "Approval",
      "type": "event"
    },
    {
      "anonymous": false,
      "inputs": [
        {
          "indexed": true,
          "internalType": "address",
          "name": "owner",
          "type": "address"
        },
        {
          "indexed": true,
          "internalType": "address",
          "name": "operator",
          "type": "address"
        },
        {
          "indexed": false,
          "internalType": "bool",
          "name": "approved",
          "type": "bool"
        }
      ],
      "name": "ApprovalForAll",
      "type": "event"
    },
    {
      "anonymous": false,
      "inputs": [
        {
          "indexed": false,
          "internalType": "string",
          "name": "uri",
          "type": "string"
        }
      ],
      "name": "BaseURI",
      "type": "event"
    },
    {
      "anonymous": false,
      "inputs": [
        {
          "indexed": true,
          "internalType": "address",
          "name": "previousOwner",
          "type": "address"
        },
        {
          "indexed": true,
          "internalType": "address",
          "name": "newOwner",
          "type": "address"
        }
      ],
      "name": "OwnershipTransferred",
      "type": "event"
    },
    {
      "anonymous": false,
      "inputs": [
        {
          "indexed": false,
          "internalType": "bool",
          "name": "presaleActive",
          "type": "bool"
        }
      ],
      "name": "PresaleToggled",
      "type": "event"
    },
    {
      "anonymous": false,
      "inputs": [
        {
          "indexed": false,
          "internalType": "bool",
          "name": "publicSaleActive",
          "type": "bool"
        }
      ],
      "name": "PublicSaleSet",
      "type": "event"
    },
    {
      "anonymous": false,
      "inputs": [
        {
          "indexed": false,
          "internalType": "uint256",
          "name": "refundEndTime",
          "type": "uint256"
        }
      ],
      "name": "RefundCountDownSet",
      "type": "event"
    },
    {
      "anonymous": false,
      "inputs": [
        {
          "indexed": true,
          "internalType": "address",
          "name": "from",
          "type": "address"
        },
        {
          "indexed": true,
          "internalType": "address",
          "name": "to",
          "type": "address"
        },
        {
          "indexed": true,
          "internalType": "uint256",
          "name": "tokenId",
          "type": "uint256"
        }
      ],
      "name": "Transfer",
      "type": "event"
    },
    {
      "anonymous": false,
      "inputs": [
        {
          "indexed": false,
          "internalType": "bool",
          "name": "whitelistEnabled",
          "type": "bool"
        }
      ],
      "name": "WhiteListEnabled",
      "type": "event"
    },
    {
      "inputs": [],
      "name": "_name",
      "outputs": [
        {
          "internalType": "string",
          "name": "",
          "type": "string"
        }
      ],
      "stateMutability": "view",
      "type": "function"
    },
    {
      "inputs": [],
      "name": "_symbol",
      "outputs": [
        {
          "internalType": "string",
          "name": "",
          "type": "string"
        }
      ],
      "stateMutability": "view",
      "type": "function"
    },
    {
      "inputs": [
        {
          "internalType": "address",
          "name": "to",
          "type": "address"
        },
        {
          "internalType": "uint256",
          "name": "tokenId",
          "type": "uint256"
        }
      ],
      "name": "approve",
      "outputs": [],
      "stateMutability": "nonpayable",
      "type": "function"
    },
    {
      "inputs": [
        {
          "internalType": "address",
          "name": "owner",
          "type": "address"
        }
      ],
      "name": "balanceOf",
      "outputs": [
        {
          "internalType": "uint256",
          "name": "",
          "type": "uint256"
        }
      ],
      "stateMutability": "view",
      "type": "function"
    },
    {
      "inputs": [
        {
          "internalType": "uint256",
          "name": "tokenId",
          "type": "uint256"
        }
      ],
      "name": "getApproved",
      "outputs": [
        {
          "internalType": "address",
          "name": "",
          "type": "address"
        }
      ],
      "stateMutability": "view",
      "type": "function"
    },
    {
      "inputs": [],
      "name": "getRefundGuaranteeEndTime",
      "outputs": [
        {
          "internalType": "uint256",
          "name": "",
          "type": "uint256"
        }
      ],
      "stateMutability": "view",
      "type": "function"
    },
    {
      "inputs": [
        {
          "internalType": "uint256",
          "name": "",
          "type": "uint256"
        }
      ],
      "name": "hasRefunded",
      "outputs": [
        {
          "internalType": "bool",
          "name": "",
          "type": "bool"
        }
      ],
      "stateMutability": "view",
      "type": "function"
    },
    {
      "inputs": [
        {
          "internalType": "address",
          "name": "owner",
          "type": "address"
        },
        {
          "internalType": "address",
          "name": "operator",
          "type": "address"
        }
      ],
      "name": "isApprovedForAll",
      "outputs": [
        {
          "internalType": "bool",
          "name": "",
          "type": "bool"
        }
      ],
      "stateMutability": "view",
      "type": "function"
    },
    {
      "inputs": [
        {
          "internalType": "uint256",
          "name": "",
          "type": "uint256"
        }
      ],
      "name": "isOwnerMint",
      "outputs": [
        {
          "internalType": "bool",
          "name": "",
          "type": "bool"
        }
      ],
      "stateMutability": "view",
      "type": "function"
    },
    {
      "inputs": [],
      "name": "isRefundGuaranteeActive",
      "outputs": [
        {
          "internalType": "bool",
          "name": "",
          "type": "bool"
        }
      ],
      "stateMutability": "view",
      "type": "function"
    },
    {
      "inputs": [],
      "name": "maxMintSupply",
      "outputs": [
        {
          "internalType": "uint256",
          "name": "",
          "type": "uint256"
        }
      ],
      "stateMutability": "view",
      "type": "function"
    },
    {
      "inputs": [],
      "name": "maxUserMintAmount",
      "outputs": [
        {
          "internalType": "uint256",
          "name": "",
          "type": "uint256"
        }
      ],
      "stateMutability": "view",
      "type": "function"
    },
    {
      "inputs": [],
      "name": "mintPrice",
      "outputs": [
        {
          "internalType": "uint256",
          "name": "",
          "type": "uint256"
        }
      ],
      "stateMutability": "view",
      "type": "function"
    },
    {
      "inputs": [],
      "name": "name",
      "outputs": [
        {
          "internalType": "string",
          "name": "",
          "type": "string"
        }
      ],
      "stateMutability": "view",
      "type": "function"
    },
    {
      "inputs": [],
      "name": "owner",
      "outputs": [
        {
          "internalType": "address",
          "name": "",
          "type": "address"
        }
      ],
      "stateMutability": "view",
      "type": "function"
    },
    {
      "inputs": [
        {
          "internalType": "uint256",
          "name": "quantity",
          "type": "uint256"
        }
      ],
      "name": "ownerMint",
      "outputs": [],
      "stateMutability": "nonpayable",
      "type": "function"
    },
    {
      "inputs": [
        {
          "internalType": "uint256",
          "name": "tokenId",
          "type": "uint256"
        }
      ],
      "name": "ownerOf",
      "outputs": [
        {
          "internalType": "address",
          "name": "",
          "type": "address"
        }
      ],
      "stateMutability": "view",
      "type": "function"
    },
    {
      "inputs": [
        {
          "internalType": "uint256",
          "name": "quantity",
          "type": "uint256"
        }
      ],
      "name": "preSaleMint",
      "outputs": [],
      "stateMutability": "payable",
      "type": "function"
    },
    {
      "inputs": [],
      "name": "presaleActive",
      "outputs": [
        {
          "internalType": "bool",
          "name": "",
          "type": "bool"
        }
      ],
      "stateMutability": "view",
      "type": "function"
    },
    {
      "inputs": [],
      "name": "publicSaleActive",
      "outputs": [
        {
          "internalType": "bool",
          "name": "",
          "type": "bool"
        }
      ],
      "stateMutability": "view",
      "type": "function"
    },
    {
      "inputs": [
        {
          "internalType": "uint256",
          "name": "quantity",
          "type": "uint256"
        }
      ],
      "name": "publicSaleMint",
      "outputs": [],
      "stateMutability": "payable",
      "type": "function"
    },
    {
      "inputs": [
        {
          "internalType": "uint256[]",
          "name": "tokenIds",
          "type": "uint256[]"
        }
      ],
      "name": "refund",
      "outputs": [],
      "stateMutability": "nonpayable",
      "type": "function"
    },
    {
      "inputs": [],
      "name": "refundAddress",
      "outputs": [
        {
          "internalType": "address",
          "name": "",
          "type": "address"
        }
      ],
      "stateMutability": "view",
      "type": "function"
    },
    {
      "inputs": [],
      "name": "refundEndTime",
      "outputs": [
        {
          "internalType": "uint256",
          "name": "",
          "type": "uint256"
        }
      ],
      "stateMutability": "view",
      "type": "function"
    },
    {
      "inputs": [],
      "name": "refundPeriod",
      "outputs": [
        {
          "internalType": "uint256",
          "name": "",
          "type": "uint256"
        }
      ],
      "stateMutability": "view",
      "type": "function"
    },
    {
      "inputs": [
        {
          "internalType": "address[]",
          "name": "currentAddresses",
          "type": "address[]"
        }
      ],
      "name": "removeWhitelist",
      "outputs": [],
      "stateMutability": "nonpayable",
      "type": "function"
    },
    {
      "inputs": [],
      "name": "renounceOwnership",
      "outputs": [],
      "stateMutability": "nonpayable",
      "type": "function"
    },
    {
      "inputs": [
        {
          "internalType": "address",
          "name": "from",
          "type": "address"
        },
        {
          "internalType": "address",
          "name": "to",
          "type": "address"
        },
        {
          "internalType": "uint256",
          "name": "tokenId",
          "type": "uint256"
        }
      ],
      "name": "safeTransferFrom",
      "outputs": [],
      "stateMutability": "nonpayable",
      "type": "function"
    },
    {
      "inputs": [
        {
          "internalType": "address",
          "name": "from",
          "type": "address"
        },
        {
          "internalType": "address",
          "name": "to",
          "type": "address"
        },
        {
          "internalType": "uint256",
          "name": "tokenId",
          "type": "uint256"
        },
        {
          "internalType": "bytes",
          "name": "_data",
          "type": "bytes"
        }
      ],
      "name": "safeTransferFrom",
      "outputs": [],
      "stateMutability": "nonpayable",
      "type": "function"
    },
    {
      "inputs": [
        {
          "internalType": "address",
          "name": "operator",
          "type": "address"
        },
        {
          "internalType": "bool",
          "name": "approved",
          "type": "bool"
        }
      ],
      "name": "setApprovalForAll",
      "outputs": [],
      "stateMutability": "nonpayable",
      "type": "function"
    },
    {
      "inputs": [
        {
          "internalType": "string",
          "name": "uri",
          "type": "string"
        }
      ],
      "name": "setBaseURI",
      "outputs": [],
      "stateMutability": "nonpayable",
      "type": "function"
    },
    {
      "inputs": [
        {
          "internalType": "address",
          "name": "_refundAddress",
          "type": "address"
        }
      ],
      "name": "setRefundAddress",
      "outputs": [],
      "stateMutability": "nonpayable",
      "type": "function"
    },
    {
      "inputs": [
        {
          "internalType": "string",
          "name": "_uriSuffix",
          "type": "string"
        }
      ],
      "name": "setUriSuffix",
      "outputs": [],
      "stateMutability": "nonpayable",
      "type": "function"
    },
    {
      "inputs": [
        {
          "internalType": "address[]",
          "name": "newAddresses",
          "type": "address[]"
        }
      ],
      "name": "setWhitelist",
      "outputs": [],
      "stateMutability": "nonpayable",
      "type": "function"
    },
    {
      "inputs": [
        {
          "internalType": "bool",
          "name": "_state",
          "type": "bool"
        }
      ],
      "name": "setWhitelistEnabled",
      "outputs": [],
      "stateMutability": "nonpayable",
      "type": "function"
    },
    {
      "inputs": [
        {
          "internalType": "bytes4",
          "name": "interfaceId",
          "type": "bytes4"
        }
      ],
      "name": "supportsInterface",
      "outputs": [
        {
          "internalType": "bool",
          "name": "",
          "type": "bool"
        }
      ],
      "stateMutability": "view",
      "type": "function"
    },
    {
      "inputs": [],
      "name": "symbol",
      "outputs": [
        {
          "internalType": "string",
          "name": "",
          "type": "string"
        }
      ],
      "stateMutability": "view",
      "type": "function"
    },
    {
      "inputs": [],
      "name": "togglePresaleStatus",
      "outputs": [],
      "stateMutability": "nonpayable",
      "type": "function"
    },
    {
      "inputs": [],
      "name": "togglePublicSaleStatus",
      "outputs": [],
      "stateMutability": "nonpayable",
      "type": "function"
    },
    {
      "inputs": [],
      "name": "toggleRefundCountdown",
      "outputs": [],
      "stateMutability": "nonpayable",
      "type": "function"
    },
    {
      "inputs": [
        {
          "internalType": "uint256",
          "name": "_tokenId",
          "type": "uint256"
        }
      ],
      "name": "tokenURI",
      "outputs": [
        {
          "internalType": "string",
          "name": "",
          "type": "string"
        }
      ],
      "stateMutability": "view",
      "type": "function"
    },
    {
      "inputs": [],
      "name": "totalSupply",
      "outputs": [
        {
          "internalType": "uint256",
          "name": "",
          "type": "uint256"
        }
      ],
      "stateMutability": "view",
      "type": "function"
    },
    {
      "inputs": [
        {
          "internalType": "address",
          "name": "from",
          "type": "address"
        },
        {
          "internalType": "address",
          "name": "to",
          "type": "address"
        },
        {
          "internalType": "uint256",
          "name": "tokenId",
          "type": "uint256"
        }
      ],
      "name": "transferFrom",
      "outputs": [],
      "stateMutability": "nonpayable",
      "type": "function"
    },
    {
      "inputs": [
        {
          "internalType": "address",
          "name": "newOwner",
          "type": "address"
        }
      ],
      "name": "transferOwnership",
      "outputs": [],
      "stateMutability": "nonpayable",
      "type": "function"
    },
    {
      "inputs": [],
      "name": "uriSuffix",
      "outputs": [
        {
          "internalType": "string",
          "name": "",
          "type": "string"
        }
      ],
      "stateMutability": "view",
      "type": "function"
    },
    {
      "inputs": [
        {
          "internalType": "address",
          "name": "",
          "type": "address"
        }
      ],
      "name": "whitelist",
      "outputs": [
        {
          "internalType": "bool",
          "name": "",
          "type": "bool"
        }
      ],
      "stateMutability": "view",
      "type": "function"
    },
    {
      "inputs": [],
      "name": "whitelistEnabled",
      "outputs": [
        {
          "internalType": "bool",
          "name": "",
          "type": "bool"
        }
      ],
      "stateMutability": "view",
      "type": "function"
    },
    {
      "inputs": [],
      "name": "withdraw",
      "outputs": [],
      "stateMutability": "nonpayable",
      "type": "function"
    }
  ],
  "bytecode": "0x60806040526040518060400160405280600581526020017f2e6a736f6e000000000000000000000000000000000000000000000000000000815250600d908051906020019062000051929190620003de565b506000601160146101000a81548160ff02191690831515021790555060006012553480156200007f57600080fd5b5060405162004f3a38038062004f3a8339818101604052810190620000a5919062000666565b85858160029080519060200190620000bf929190620003de565b508060039080519060200190620000d8929190620003de565b50620000e9620001ed60201b60201c565b60008190555050506200011162000105620001f260201b60201c565b620001fa60201b60201c565b6000869050600086905060008251141580156200013057506000815114155b62000172576040517f08c379a00000000000000000000000000000000000000000000000000000000081526004016200016990620007c7565b60405180910390fd5b33601160006101000a81548173ffffffffffffffffffffffffffffffffffffffff021916908373ffffffffffffffffffffffffffffffffffffffff1602179055508560098190555084600a8190555083600f8190555082600b81905550620001df620002c060201b60201c565b50505050505050506200097a565b600090565b600033905090565b6000600860009054906101000a900473ffffffffffffffffffffffffffffffffffffffff16905081600860006101000a81548173ffffffffffffffffffffffffffffffffffffffff021916908373ffffffffffffffffffffffffffffffffffffffff1602179055508173ffffffffffffffffffffffffffffffffffffffff168173ffffffffffffffffffffffffffffffffffffffff167f8be0079c531659141344cd1fd0a4f28419497f9722a3daafe3b4186f6b6457e060405160405180910390a35050565b620002d06200032360201b60201c565b600f5442620002e0919062000818565b6010819055507f8c7f828c45e9721cfd644b2a4f2ff1eba1c36125ea260c43c4d47ebcb59d314160105460405162000319919062000886565b60405180910390a1565b62000333620001f260201b60201c565b73ffffffffffffffffffffffffffffffffffffffff1662000359620003b460201b60201c565b73ffffffffffffffffffffffffffffffffffffffff1614620003b2576040517f08c379a0000000000000000000000000000000000000000000000000000000008152600401620003a990620008f3565b60405180910390fd5b565b6000600860009054906101000a900473ffffffffffffffffffffffffffffffffffffffff16905090565b828054620003ec9062000944565b90600052602060002090601f0160209004810192826200041057600085556200045c565b82601f106200042b57805160ff19168380011785556200045c565b828001600101855582156200045c579182015b828111156200045b5782518255916020019190600101906200043e565b5b5090506200046b91906200046f565b5090565b5b808211156200048a57600081600090555060010162000470565b5090565b6000604051905090565b600080fd5b600080fd5b600080fd5b600080fd5b6000601f19601f8301169050919050565b7f4e487b7100000000000000000000000000000000000000000000000000000000600052604160045260246000fd5b620004f782620004ac565b810181811067ffffffffffffffff82111715620005195762000518620004bd565b5b80604052505050565b60006200052e6200048e565b90506200053c8282620004ec565b919050565b600067ffffffffffffffff8211156200055f576200055e620004bd565b5b6200056a82620004ac565b9050602081019050919050565b60005b83811015620005975780820151818401526020810190506200057a565b83811115620005a7576000848401525b50505050565b6000620005c4620005be8462000541565b62000522565b905082815260208101848484011115620005e357620005e2620004a7565b5b620005f084828562000577565b509392505050565b600082601f83011262000610576200060f620004a2565b5b815162000622848260208601620005ad565b91505092915050565b6000819050919050565b62000640816200062b565b81146200064c57600080fd5b50565b600081519050620006608162000635565b92915050565b60008060008060008060c0878903121562000686576200068562000498565b5b600087015167ffffffffffffffff811115620006a757620006a66200049d565b5b620006b589828a01620005f8565b965050602087015167ffffffffffffffff811115620006d957620006d86200049d565b5b620006e789828a01620005f8565b9550506040620006fa89828a016200064f565b94505060606200070d89828a016200064f565b93505060806200072089828a016200064f565b92505060a06200073389828a016200064f565b9150509295509295509295565b600082825260208201905092915050565b7f455243373231523a2043686f6f73652061206e616d6520616e642073796d626f60008201527f6c00000000000000000000000000000000000000000000000000000000000000602082015250565b6000620007af60218362000740565b9150620007bc8262000751565b604082019050919050565b60006020820190508181036000830152620007e281620007a0565b9050919050565b7f4e487b7100000000000000000000000000000000000000000000000000000000600052601160045260246000fd5b600062000825826200062b565b915062000832836200062b565b9250827fffffffffffffffffffffffffffffffffffffffffffffffffffffffffffffffff038211156200086a5762000869620007e9565b5b828201905092915050565b62000880816200062b565b82525050565b60006020820190506200089d600083018462000875565b92915050565b7f4f776e61626c653a2063616c6c6572206973206e6f7420746865206f776e6572600082015250565b6000620008db60208362000740565b9150620008e882620008a3565b602082019050919050565b600060208201905081810360008301526200090e81620008cc565b9050919050565b7f4e487b7100000000000000000000000000000000000000000000000000000000600052602260045260246000fd5b600060028204905060018216806200095d57607f821691505b6020821081141562000974576200097362000915565b5b50919050565b6145b0806200098a6000396000f3fe6080604052600436106102935760003560e01c80637bffb4ce1161015a578063bc8893b4116100c1578063e985e9c51161007a578063e985e9c51461098c578063f19e75d4146109c9578063f2fde38b146109f2578063f421764814610a1b578063f7a3031314610a44578063faf762bd14610a8157610293565b8063bc8893b414610866578063c23fcdef14610891578063c285e107146108ce578063c4ea0845146108f9578063c87b56dd14610924578063d28d88521461096157610293565b8063a6a3b5b411610113578063a6a3b5b41461078b578063aa613df5146107b6578063b09f1266146107df578063b3ab66b01461080a578063b88d4fde14610826578063b9ad9fde1461084f57610293565b80637bffb4ce1461068d5780638da5cb5b146106a4578063921d28a9146106cf57806395d89b41146106fa5780639b19251a14610725578063a22cb4651461076257610293565b80633ccfd60b116101fe5780636352211e116101b75780636352211e1461058a5780636817c76c146105c757806370a08231146105f2578063715018a61461062f57806373fddd16146106465780637835c6351461067157610293565b80633ccfd60b146104a057806342842e0e146104b757806351fb012d146104e057806353135ca01461050b5780635503a0e81461053657806355f804b31461056157610293565b806315b75bea1161025057806315b75bea146103ba57806316ba10e0146103e357806318160ddd1461040c578063232452161461043757806323b872dd146104605780632e9be8211461048957610293565b806301ffc9a714610298578063052d9e7e146102d557806306fdde03146102fe578063081812fc14610329578063095ea7b3146103665780630cb61f6c1461038f575b600080fd5b3480156102a457600080fd5b506102bf60048036038101906102ba9190613085565b610aac565b6040516102cc91906130cd565b60405180910390f35b3480156102e157600080fd5b506102fc60048036038101906102f79190613114565b610b3e565b005b34801561030a57600080fd5b50610313610ba9565b60405161032091906131da565b60405180910390f35b34801561033557600080fd5b50610350600480360381019061034b9190613232565b610c3b565b60405161035d91906132a0565b60405180910390f35b34801561037257600080fd5b5061038d600480360381019061038891906132e7565b610cb7565b005b34801561039b57600080fd5b506103a4610e5e565b6040516103b191906132a0565b60405180910390f35b3480156103c657600080fd5b506103e160048036038101906103dc9190613327565b610e84565b005b3480156103ef57600080fd5b5061040a60048036038101906104059190613489565b610ed0565b005b34801561041857600080fd5b50610421610ef2565b60405161042e91906134e1565b60405180910390f35b34801561044357600080fd5b5061045e6004803603810190610459919061355c565b610f09565b005b34801561046c57600080fd5b50610487600480360381019061048291906135a9565b611052565b005b34801561049557600080fd5b5061049e611062565b005b3480156104ac57600080fd5b506104b56110b9565b005b3480156104c357600080fd5b506104de60048036038101906104d991906135a9565b611185565b005b3480156104ec57600080fd5b506104f56111a5565b60405161050291906130cd565b60405180910390f35b34801561051757600080fd5b506105206111b8565b60405161052d91906130cd565b60405180910390f35b34801561054257600080fd5b5061054b6111cb565b60405161055891906131da565b60405180910390f35b34801561056d57600080fd5b5061058860048036038101906105839190613489565b611259565b005b34801561059657600080fd5b506105b160048036038101906105ac9190613232565b6112b3565b6040516105be91906132a0565b60405180910390f35b3480156105d357600080fd5b506105dc6112c5565b6040516105e991906134e1565b60405180910390f35b3480156105fe57600080fd5b5061061960048036038101906106149190613327565b6112cb565b60405161062691906134e1565b60405180910390f35b34801561063b57600080fd5b50610644611360565b005b34801561065257600080fd5b5061065b611374565b60405161066891906134e1565b60405180910390f35b61068b60048036038101906106869190613232565b61137a565b005b34801561069957600080fd5b506106a261157e565b005b3480156106b057600080fd5b506106b96115f8565b6040516106c691906132a0565b60405180910390f35b3480156106db57600080fd5b506106e4611622565b6040516106f191906134e1565b60405180910390f35b34801561070657600080fd5b5061070f611628565b60405161071c91906131da565b60405180910390f35b34801561073157600080fd5b5061074c60048036038101906107479190613327565b6116ba565b60405161075991906130cd565b60405180910390f35b34801561076e57600080fd5b50610789600480360381019061078491906135fc565b6116da565b005b34801561079757600080fd5b506107a0611852565b6040516107ad91906134e1565b60405180910390f35b3480156107c257600080fd5b506107dd60048036038101906107d89190613692565b611858565b005b3480156107eb57600080fd5b506107f4611b02565b60405161080191906131da565b60405180910390f35b610824600480360381019061081f9190613232565b611b90565b005b34801561083257600080fd5b5061084d60048036038101906108489190613780565b611ceb565b005b34801561085b57600080fd5b50610864611d5e565b005b34801561087257600080fd5b5061087b611dd8565b60405161088891906130cd565b60405180910390f35b34801561089d57600080fd5b506108b860048036038101906108b39190613232565b611deb565b6040516108c591906130cd565b60405180910390f35b3480156108da57600080fd5b506108e3611e0b565b6040516108f091906134e1565b60405180910390f35b34801561090557600080fd5b5061090e611e11565b60405161091b91906130cd565b60405180910390f35b34801561093057600080fd5b5061094b60048036038101906109469190613232565b611e1e565b60405161095891906131da565b60405180910390f35b34801561096d57600080fd5b50610976611ec8565b60405161098391906131da565b60405180910390f35b34801561099857600080fd5b506109b360048036038101906109ae9190613803565b611f56565b6040516109c091906130cd565b60405180910390f35b3480156109d557600080fd5b506109f060048036038101906109eb9190613232565b611fea565b005b3480156109fe57600080fd5b50610a196004803603810190610a149190613327565b612056565b005b348015610a2757600080fd5b50610a426004803603810190610a3d919061355c565b6120da565b005b348015610a5057600080fd5b50610a6b6004803603810190610a669190613232565b612272565b604051610a7891906130cd565b60405180910390f35b348015610a8d57600080fd5b50610a96612292565b604051610aa391906134e1565b60405180910390f35b60006301ffc9a760e01b827bffffffffffffffffffffffffffffffffffffffffffffffffffffffff19161480610b0757506380ac58cd60e01b827bffffffffffffffffffffffffffffffffffffffffffffffffffffffff1916145b80610b375750635b5e139f60e01b827bffffffffffffffffffffffffffffffffffffffffffffffffffffffff1916145b9050919050565b610b4661229c565b80601160146101000a81548160ff0219169083151502179055507f218e591c4b0d49651b4b42843cb8cc59080122def3d2271f56ef2e21896753ec601160149054906101000a900460ff16604051610b9e91906130cd565b60405180910390a150565b606060028054610bb890613872565b80601f0160208091040260200160405190810160405280929190818152602001828054610be490613872565b8015610c315780601f10610c0657610100808354040283529160200191610c31565b820191906000526020600020905b815481529060010190602001808311610c1457829003601f168201915b5050505050905090565b6000610c468261231a565b610c7c576040517fcf4700e400000000000000000000000000000000000000000000000000000000815260040160405180910390fd5b6006600083815260200190815260200160002060009054906101000a900473ffffffffffffffffffffffffffffffffffffffff169050919050565b6000610cc282612379565b90508073ffffffffffffffffffffffffffffffffffffffff168373ffffffffffffffffffffffffffffffffffffffff161415610d2a576040517f943f7b8c00000000000000000000000000000000000000000000000000000000815260040160405180910390fd5b8073ffffffffffffffffffffffffffffffffffffffff16610d49612447565b73ffffffffffffffffffffffffffffffffffffffff1614610dac57610d7581610d70612447565b611f56565b610dab576040517fcfb3b94200000000000000000000000000000000000000000000000000000000815260040160405180910390fd5b5b826006600084815260200190815260200160002060006101000a81548173ffffffffffffffffffffffffffffffffffffffff021916908373ffffffffffffffffffffffffffffffffffffffff160217905550818373ffffffffffffffffffffffffffffffffffffffff168273ffffffffffffffffffffffffffffffffffffffff167f8c5be1e5ebec7d5bd14f71427d1e84f3dd0314c0f7b2291e5b200ac8c7c3b92560405160405180910390a4505050565b601160009054906101000a900473ffffffffffffffffffffffffffffffffffffffff1681565b610e8c61229c565b80601160006101000a81548173ffffffffffffffffffffffffffffffffffffffff021916908373ffffffffffffffffffffffffffffffffffffffff16021790555050565b610ed861229c565b80600d9080519060200190610eee929190612f76565b5050565b6000610efc61244f565b6001546000540303905090565b610f1161229c565b60008282905011610f57576040517f08c379a0000000000000000000000000000000000000000000000000000000008152600401610f4e906138f0565b60405180910390fd5b6005828290501115610f9e576040517f08c379a0000000000000000000000000000000000000000000000000000000008152600401610f959061395c565b60405180910390fd5b60005b8282905081101561104d5760136000848484818110610fc357610fc261397c565b5b9050602002016020810190610fd89190613327565b73ffffffffffffffffffffffffffffffffffffffff1673ffffffffffffffffffffffffffffffffffffffff16815260200190815260200160002060006101000a81549060ff021916905560126000815480929190611035906139da565b9190505550808061104590613a04565b915050610fa1565b505050565b61105d838383612454565b505050565b61106a61229c565b600f54426110789190613a4d565b6010819055507f8c7f828c45e9721cfd644b2a4f2ff1eba1c36125ea260c43c4d47ebcb59d31416010546040516110af91906134e1565b60405180910390a1565b6110c161229c565b6010544211611105576040517f08c379a00000000000000000000000000000000000000000000000000000000081526004016110fc90613aef565b60405180910390fd5b600061110f6115f8565b73ffffffffffffffffffffffffffffffffffffffff164760405161113290613b40565b60006040518083038185875af1925050503d806000811461116f576040519150601f19603f3d011682016040523d82523d6000602084013e611174565b606091505b505090508061118257600080fd5b50565b6111a083838360405180602001604052806000815250611ceb565b505050565b601160149054906101000a900460ff1681565b600e60019054906101000a900460ff1681565b600d80546111d890613872565b80601f016020809104026020016040519081016040528092919081815260200182805461120490613872565b80156112515780601f1061122657610100808354040283529160200191611251565b820191906000526020600020905b81548152906001019060200180831161123457829003601f168201915b505050505081565b61126161229c565b80600c9080519060200190611277929190612f76565b507f01e56a02aca7f26a28165a040851ba78f30282b55ca81c63a804cdc1e2dcea72600c6040516112a89190613bea565b60405180910390a150565b60006112be82612379565b9050919050565b600a5481565b6000806112d78361281c565b141561130f576040517f8f4eb60400000000000000000000000000000000000000000000000000000000815260040160405180910390fd5b67ffffffffffffffff600560008473ffffffffffffffffffffffffffffffffffffffff1673ffffffffffffffffffffffffffffffffffffffff16815260200190815260200160002054169050919050565b61136861229c565b6113726000612826565b565b60105481565b600e60019054906101000a900460ff166113c9576040517f08c379a00000000000000000000000000000000000000000000000000000000081526004016113c090613c58565b60405180910390fd5b600a54816113d79190613c78565b341015611419576040517f08c379a000000000000000000000000000000000000000000000000000000000815260040161141090613d1e565b60405180910390fd5b60011515601160149054906101000a900460ff16151514156114c257601360003373ffffffffffffffffffffffffffffffffffffffff1673ffffffffffffffffffffffffffffffffffffffff16815260200190815260200160002060009054906101000a900460ff166114c1576040517f08c379a00000000000000000000000000000000000000000000000000000000081526004016114b890613d8a565b60405180910390fd5b5b600b54816114cf336128ec565b6114d99190613a4d565b111561151a576040517f08c379a000000000000000000000000000000000000000000000000000000000815260040161151190613df6565b60405180910390fd5b60095481611526612943565b6115309190613a4d565b1115611571576040517f08c379a000000000000000000000000000000000000000000000000000000000815260040161156890613e62565b60405180910390fd5b61157b3382612956565b50565b61158661229c565b600e60019054906101000a900460ff1615600e60016101000a81548160ff0219169083151502179055507f1894dedbea928d98b9226ddf41dc827e1ce8e5b17fdef6cf7170b15d305dcfcb600e60019054906101000a900460ff166040516115ee91906130cd565b60405180910390a1565b6000600860009054906101000a900473ffffffffffffffffffffffffffffffffffffffff16905090565b600b5481565b60606003805461163790613872565b80601f016020809104026020016040519081016040528092919081815260200182805461166390613872565b80156116b05780601f10611685576101008083540402835291602001916116b0565b820191906000526020600020905b81548152906001019060200180831161169357829003601f168201915b5050505050905090565b60136020528060005260406000206000915054906101000a900460ff1681565b6116e2612447565b73ffffffffffffffffffffffffffffffffffffffff168273ffffffffffffffffffffffffffffffffffffffff161415611747576040517fb06307db00000000000000000000000000000000000000000000000000000000815260040160405180910390fd5b8060076000611754612447565b73ffffffffffffffffffffffffffffffffffffffff1673ffffffffffffffffffffffffffffffffffffffff16815260200190815260200160002060008473ffffffffffffffffffffffffffffffffffffffff1673ffffffffffffffffffffffffffffffffffffffff16815260200190815260200160002060006101000a81548160ff0219169083151502179055508173ffffffffffffffffffffffffffffffffffffffff16611801612447565b73ffffffffffffffffffffffffffffffffffffffff167f17307eab39ab6107e8899845ad3d59bd9653f200f220920489ca2b5937696c318360405161184691906130cd565b60405180910390a35050565b600f5481565b611860611e11565b61189f576040517f08c379a000000000000000000000000000000000000000000000000000000000815260040161189690613ece565b60405180910390fd5b60005b82829050811015611a705760008383838181106118c2576118c161397c565b5b9050602002013590506118d4816112b3565b73ffffffffffffffffffffffffffffffffffffffff163373ffffffffffffffffffffffffffffffffffffffff1614611941576040517f08c379a000000000000000000000000000000000000000000000000000000000815260040161193890613f3a565b60405180910390fd5b6014600082815260200190815260200160002060009054906101000a900460ff16156119a2576040517f08c379a000000000000000000000000000000000000000000000000000000000815260040161199990613fa6565b60405180910390fd5b6015600082815260200190815260200160002060009054906101000a900460ff1615611a03576040517f08c379a00000000000000000000000000000000000000000000000000000000081526004016119fa90614038565b60405180910390fd5b60016014600083815260200190815260200160002060006101000a81548160ff021916908315150217905550611a5c33601160009054906101000a900473ffffffffffffffffffffffffffffffffffffffff1683611052565b508080611a6890613a04565b9150506118a2565b506000600a5483839050611a849190613c78565b905060003373ffffffffffffffffffffffffffffffffffffffff1682604051611aac90613b40565b60006040518083038185875af1925050503d8060008114611ae9576040519150601f19603f3d011682016040523d82523d6000602084013e611aee565b606091505b5050905080611afc57600080fd5b50505050565b60038054611b0f90613872565b80601f0160208091040260200160405190810160405280929190818152602001828054611b3b90613872565b8015611b885780601f10611b5d57610100808354040283529160200191611b88565b820191906000526020600020905b815481529060010190602001808311611b6b57829003601f168201915b505050505081565b600e60009054906101000a900460ff16611bdf576040517f08c379a0000000000000000000000000000000000000000000000000000000008152600401611bd6906140a4565b60405180910390fd5b600a5481611bed9190613c78565b341015611c2f576040517f08c379a0000000000000000000000000000000000000000000000000000000008152600401611c2690613d1e565b60405180910390fd5b600b5481611c3c336128ec565b611c469190613a4d565b1115611c87576040517f08c379a0000000000000000000000000000000000000000000000000000000008152600401611c7e90613df6565b60405180910390fd5b60095481611c93612943565b611c9d9190613a4d565b1115611cde576040517f08c379a0000000000000000000000000000000000000000000000000000000008152600401611cd590613e62565b60405180910390fd5b611ce83382612956565b50565b611cf6848484612454565b60008373ffffffffffffffffffffffffffffffffffffffff163b14611d5857611d2184848484612974565b611d57576040517fd1a57ed600000000000000000000000000000000000000000000000000000000815260040160405180910390fd5b5b50505050565b611d6661229c565b600e60009054906101000a900460ff1615600e60006101000a81548160ff0219169083151502179055507f28b42d64cef88205a656230fafa4bc31b0bd28f99b5d006c276a037fb00ec969600e60009054906101000a900460ff16604051611dce91906130cd565b60405180910390a1565b600e60009054906101000a900460ff1681565b60146020528060005260406000206000915054906101000a900460ff1681565b60095481565b6000601054421115905090565b6060611e298261231a565b611e68576040517f08c379a0000000000000000000000000000000000000000000000000000000008152600401611e5f90614136565b60405180910390fd5b6000611e72612ad4565b90506000815111611e925760405180602001604052806000815250611ec0565b80611e9c84612b66565b600d604051602001611eb093929190614211565b6040516020818303038152906040525b915050919050565b60028054611ed590613872565b80601f0160208091040260200160405190810160405280929190818152602001828054611f0190613872565b8015611f4e5780601f10611f2357610100808354040283529160200191611f4e565b820191906000526020600020905b815481529060010190602001808311611f3157829003601f168201915b505050505081565b6000600760008473ffffffffffffffffffffffffffffffffffffffff1673ffffffffffffffffffffffffffffffffffffffff16815260200190815260200160002060008373ffffffffffffffffffffffffffffffffffffffff1673ffffffffffffffffffffffffffffffffffffffff16815260200190815260200160002060009054906101000a900460ff16905092915050565b611ff261229c565b60095481611ffe612943565b6120089190613a4d565b1115612049576040517f08c379a000000000000000000000000000000000000000000000000000000000815260040161204090613e62565b60405180910390fd5b6120533382612956565b50565b61205e61229c565b600073ffffffffffffffffffffffffffffffffffffffff168173ffffffffffffffffffffffffffffffffffffffff1614156120ce576040517f08c379a00000000000000000000000000000000000000000000000000000000081526004016120c5906142b4565b60405180910390fd5b6120d781612826565b50565b6120e261229c565b60008282905011612128576040517f08c379a000000000000000000000000000000000000000000000000000000000815260040161211f906138f0565b60405180910390fd5b6107d0828290501061216f576040517f08c379a00000000000000000000000000000000000000000000000000000000081526004016121669061395c565b60405180910390fd5b60005b8282905081101561226d576107d0601254106121c3576040517f08c379a00000000000000000000000000000000000000000000000000000000081526004016121ba90614346565b60405180910390fd5b6001601360008585858181106121dc576121db61397c565b5b90506020020160208101906121f19190613327565b73ffffffffffffffffffffffffffffffffffffffff1673ffffffffffffffffffffffffffffffffffffffff16815260200190815260200160002060006101000a81548160ff0219169083151502179055506012600081548092919061225590613a04565b9190505550808061226590613a04565b915050612172565b505050565b60156020528060005260406000206000915054906101000a900460ff1681565b6000601054905090565b6122a4612cc7565b73ffffffffffffffffffffffffffffffffffffffff166122c26115f8565b73ffffffffffffffffffffffffffffffffffffffff1614612318576040517f08c379a000000000000000000000000000000000000000000000000000000000815260040161230f906143b2565b60405180910390fd5b565b60008161232561244f565b11158015612334575060005482105b8015612372575060007c0100000000000000000000000000000000000000000000000000000000600460008581526020019081526020016000205416145b9050919050565b6000808290508061238861244f565b116124105760005481101561240f5760006004600083815260200190815260200160002054905060007c01000000000000000000000000000000000000000000000000000000008216141561240d575b60008114156124035760046000836001900393508381526020019081526020016000205490506123d8565b8092505050612442565b505b5b6040517fdf2d9b4200000000000000000000000000000000000000000000000000000000815260040160405180910390fd5b919050565b600033905090565b600090565b600061245f82612379565b90508373ffffffffffffffffffffffffffffffffffffffff168173ffffffffffffffffffffffffffffffffffffffff16146124c6576040517fa114810000000000000000000000000000000000000000000000000000000000815260040160405180910390fd5b60006006600084815260200190815260200160002060009054906101000a900473ffffffffffffffffffffffffffffffffffffffff16905060008573ffffffffffffffffffffffffffffffffffffffff1661251f612447565b73ffffffffffffffffffffffffffffffffffffffff16148061254e575061254d86612548612447565b611f56565b5b8061258b575061255c612447565b73ffffffffffffffffffffffffffffffffffffffff168273ffffffffffffffffffffffffffffffffffffffff16145b9050806125c4576040517f59c896be00000000000000000000000000000000000000000000000000000000815260040160405180910390fd5b60006125cf8661281c565b1415612607576040517fea553b3400000000000000000000000000000000000000000000000000000000815260040160405180910390fd5b6126148686866001612ccf565b600061261f8361281c565b1461265b576006600085815260200190815260200160002060006101000a81549073ffffffffffffffffffffffffffffffffffffffff02191690555b600560008773ffffffffffffffffffffffffffffffffffffffff1673ffffffffffffffffffffffffffffffffffffffff168152602001908152602001600020600081546001900391905081905550600560008673ffffffffffffffffffffffffffffffffffffffff1673ffffffffffffffffffffffffffffffffffffffff16815260200190815260200160002060008154600101919050819055507c020000000000000000000000000000000000000000000000000000000060a042901b6127228761281c565b1717600460008681526020019081526020016000208190555060007c0200000000000000000000000000000000000000000000000000000000841614156127ac5760006001850190506000600460008381526020019081526020016000205414156127aa5760005481146127a9578360046000838152602001908152602001600020819055505b5b505b838573ffffffffffffffffffffffffffffffffffffffff168773ffffffffffffffffffffffffffffffffffffffff167fddf252ad1be2c89b69c2b068fc378daa952ba7f163c4a11628f55a4df523b3ef60405160405180910390a46128148686866001612cd5565b505050505050565b6000819050919050565b6000600860009054906101000a900473ffffffffffffffffffffffffffffffffffffffff16905081600860006101000a81548173ffffffffffffffffffffffffffffffffffffffff021916908373ffffffffffffffffffffffffffffffffffffffff1602179055508173ffffffffffffffffffffffffffffffffffffffff168173ffffffffffffffffffffffffffffffffffffffff167f8be0079c531659141344cd1fd0a4f28419497f9722a3daafe3b4186f6b6457e060405160405180910390a35050565b600067ffffffffffffffff6040600560008573ffffffffffffffffffffffffffffffffffffffff1673ffffffffffffffffffffffffffffffffffffffff16815260200190815260200160002054901c169050919050565b600061294d61244f565b60005403905090565b612970828260405180602001604052806000815250612cdb565b5050565b60008373ffffffffffffffffffffffffffffffffffffffff1663150b7a0261299a612447565b8786866040518563ffffffff1660e01b81526004016129bc9493929190614427565b602060405180830381600087803b1580156129d657600080fd5b505af1925050508015612a0757506040513d601f19601f82011682018060405250810190612a049190614488565b60015b612a81573d8060008114612a37576040519150601f19603f3d011682016040523d82523d6000602084013e612a3c565b606091505b50600081511415612a79576040517fd1a57ed600000000000000000000000000000000000000000000000000000000815260040160405180910390fd5b805181602001fd5b63150b7a0260e01b7bffffffffffffffffffffffffffffffffffffffffffffffffffffffff1916817bffffffffffffffffffffffffffffffffffffffffffffffffffffffff191614915050949350505050565b6060600c8054612ae390613872565b80601f0160208091040260200160405190810160405280929190818152602001828054612b0f90613872565b8015612b5c5780601f10612b3157610100808354040283529160200191612b5c565b820191906000526020600020905b815481529060010190602001808311612b3f57829003601f168201915b5050505050905090565b60606000821415612bae576040518060400160405280600181526020017f30000000000000000000000000000000000000000000000000000000000000008152509050612cc2565b600082905060005b60008214612be0578080612bc990613a04565b915050600a82612bd991906144e4565b9150612bb6565b60008167ffffffffffffffff811115612bfc57612bfb61335e565b5b6040519080825280601f01601f191660200182016040528015612c2e5781602001600182028036833780820191505090505b5090505b60008514612cbb57600182612c479190614515565b9150600a85612c569190614549565b6030612c629190613a4d565b60f81b818381518110612c7857612c7761397c565b5b60200101907effffffffffffffffffffffffffffffffffffffffffffffffffffffffffffff1916908160001a905350600a85612cb491906144e4565b9450612c32565b8093505050505b919050565b600033905090565b50505050565b50505050565b6000805490506000612cec8561281c565b1415612d24576040517f2e07630000000000000000000000000000000000000000000000000000000000815260040160405180910390fd5b6000831415612d5f576040517fb562e8dd00000000000000000000000000000000000000000000000000000000815260040160405180910390fd5b612d6c6000858386612ccf565b600160406001901b178302600560008673ffffffffffffffffffffffffffffffffffffffff1673ffffffffffffffffffffffffffffffffffffffff1681526020019081526020016000206000828254019250508190555060e1612dd160018514612f6c565b901b60a042901b612de18661281c565b1717600460008381526020019081526020016000208190555060008190506000848201905060008673ffffffffffffffffffffffffffffffffffffffff163b14612ee5575b818673ffffffffffffffffffffffffffffffffffffffff16600073ffffffffffffffffffffffffffffffffffffffff167fddf252ad1be2c89b69c2b068fc378daa952ba7f163c4a11628f55a4df523b3ef60405160405180910390a4612e956000878480600101955087612974565b612ecb576040517fd1a57ed600000000000000000000000000000000000000000000000000000000815260040160405180910390fd5b808210612e26578260005414612ee057600080fd5b612f50565b5b818060010192508673ffffffffffffffffffffffffffffffffffffffff16600073ffffffffffffffffffffffffffffffffffffffff167fddf252ad1be2c89b69c2b068fc378daa952ba7f163c4a11628f55a4df523b3ef60405160405180910390a4808210612ee6575b816000819055505050612f666000858386612cd5565b50505050565b6000819050919050565b828054612f8290613872565b90600052602060002090601f016020900481019282612fa45760008555612feb565b82601f10612fbd57805160ff1916838001178555612feb565b82800160010185558215612feb579182015b82811115612fea578251825591602001919060010190612fcf565b5b509050612ff89190612ffc565b5090565b5b80821115613015576000816000905550600101612ffd565b5090565b6000604051905090565b600080fd5b600080fd5b60007fffffffff0000000000000000000000000000000000000000000000000000000082169050919050565b6130628161302d565b811461306d57600080fd5b50565b60008135905061307f81613059565b92915050565b60006020828403121561309b5761309a613023565b5b60006130a984828501613070565b91505092915050565b60008115159050919050565b6130c7816130b2565b82525050565b60006020820190506130e260008301846130be565b92915050565b6130f1816130b2565b81146130fc57600080fd5b50565b60008135905061310e816130e8565b92915050565b60006020828403121561312a57613129613023565b5b6000613138848285016130ff565b91505092915050565b600081519050919050565b600082825260208201905092915050565b60005b8381101561317b578082015181840152602081019050613160565b8381111561318a576000848401525b50505050565b6000601f19601f8301169050919050565b60006131ac82613141565b6131b6818561314c565b93506131c681856020860161315d565b6131cf81613190565b840191505092915050565b600060208201905081810360008301526131f481846131a1565b905092915050565b6000819050919050565b61320f816131fc565b811461321a57600080fd5b50565b60008135905061322c81613206565b92915050565b60006020828403121561324857613247613023565b5b60006132568482850161321d565b91505092915050565b600073ffffffffffffffffffffffffffffffffffffffff82169050919050565b600061328a8261325f565b9050919050565b61329a8161327f565b82525050565b60006020820190506132b56000830184613291565b92915050565b6132c48161327f565b81146132cf57600080fd5b50565b6000813590506132e1816132bb565b92915050565b600080604083850312156132fe576132fd613023565b5b600061330c858286016132d2565b925050602061331d8582860161321d565b9150509250929050565b60006020828403121561333d5761333c613023565b5b600061334b848285016132d2565b91505092915050565b600080fd5b600080fd5b7f4e487b7100000000000000000000000000000000000000000000000000000000600052604160045260246000fd5b61339682613190565b810181811067ffffffffffffffff821117156133b5576133b461335e565b5b80604052505050565b60006133c8613019565b90506133d4828261338d565b919050565b600067ffffffffffffffff8211156133f4576133f361335e565b5b6133fd82613190565b9050602081019050919050565b82818337600083830152505050565b600061342c613427846133d9565b6133be565b90508281526020810184848401111561344857613447613359565b5b61345384828561340a565b509392505050565b600082601f8301126134705761346f613354565b5b8135613480848260208601613419565b91505092915050565b60006020828403121561349f5761349e613023565b5b600082013567ffffffffffffffff8111156134bd576134bc613028565b5b6134c98482850161345b565b91505092915050565b6134db816131fc565b82525050565b60006020820190506134f660008301846134d2565b92915050565b600080fd5b600080fd5b60008083601f84011261351c5761351b613354565b5b8235905067ffffffffffffffff811115613539576135386134fc565b5b60208301915083602082028301111561355557613554613501565b5b9250929050565b6000806020838503121561357357613572613023565b5b600083013567ffffffffffffffff81111561359157613590613028565b5b61359d85828601613506565b92509250509250929050565b6000806000606084860312156135c2576135c1613023565b5b60006135d0868287016132d2565b93505060206135e1868287016132d2565b92505060406135f28682870161321d565b9150509250925092565b6000806040838503121561361357613612613023565b5b6000613621858286016132d2565b9250506020613632858286016130ff565b9150509250929050565b60008083601f84011261365257613651613354565b5b8235905067ffffffffffffffff81111561366f5761366e6134fc565b5b60208301915083602082028301111561368b5761368a613501565b5b9250929050565b600080602083850312156136a9576136a8613023565b5b600083013567ffffffffffffffff8111156136c7576136c6613028565b5b6136d38582860161363c565b92509250509250929050565b600067ffffffffffffffff8211156136fa576136f961335e565b5b61370382613190565b9050602081019050919050565b600061372361371e846136df565b6133be565b90508281526020810184848401111561373f5761373e613359565b5b61374a84828561340a565b509392505050565b600082601f83011261376757613766613354565b5b8135613777848260208601613710565b91505092915050565b6000806000806080858703121561379a57613799613023565b5b60006137a8878288016132d2565b94505060206137b9878288016132d2565b93505060406137ca8782880161321d565b925050606085013567ffffffffffffffff8111156137eb576137ea613028565b5b6137f787828801613752565b91505092959194509250565b6000806040838503121561381a57613819613023565b5b6000613828858286016132d2565b9250506020613839858286016132d2565b9150509250929050565b7f4e487b7100000000000000000000000000000000000000000000000000000000600052602260045260246000fd5b6000600282049050600182168061388a57607f821691505b6020821081141561389e5761389d613843565b5b50919050565b7f4e6f20757365722064657461696c732070726f76696465640000000000000000600082015250565b60006138da60188361314c565b91506138e5826138a4565b602082019050919050565b60006020820190508181036000830152613909816138cd565b9050919050565b7f546f6f206d616e792075736572737320746f2077686974656c69737400000000600082015250565b6000613946601c8361314c565b915061395182613910565b602082019050919050565b6000602082019050818103600083015261397581613939565b9050919050565b7f4e487b7100000000000000000000000000000000000000000000000000000000600052603260045260246000fd5b7f4e487b7100000000000000000000000000000000000000000000000000000000600052601160045260246000fd5b60006139e5826131fc565b915060008214156139f9576139f86139ab565b5b600182039050919050565b6000613a0f826131fc565b91507fffffffffffffffffffffffffffffffffffffffffffffffffffffffffffffffff821415613a4257613a416139ab565b5b600182019050919050565b6000613a58826131fc565b9150613a63836131fc565b9250827fffffffffffffffffffffffffffffffffffffffffffffffffffffffffffffffff03821115613a9857613a976139ab565b5b828201905092915050565b7f526566756e6420706572696f64206e6f74206f76657200000000000000000000600082015250565b6000613ad960168361314c565b9150613ae482613aa3565b602082019050919050565b60006020820190508181036000830152613b0881613acc565b9050919050565b600081905092915050565b50565b6000613b2a600083613b0f565b9150613b3582613b1a565b600082019050919050565b6000613b4b82613b1d565b9150819050919050565b60008190508160005260206000209050919050565b60008154613b7781613872565b613b81818661314c565b94506001821660008114613b9c5760018114613bae57613be1565b60ff1983168652602086019350613be1565b613bb785613b55565b60005b83811015613bd957815481890152600182019150602081019050613bba565b808801955050505b50505092915050565b60006020820190508181036000830152613c048184613b6a565b905092915050565b7f50726573616c65206973206e6f74206163746976650000000000000000000000600082015250565b6000613c4260158361314c565b9150613c4d82613c0c565b602082019050919050565b60006020820190508181036000830152613c7181613c35565b9050919050565b6000613c83826131fc565b9150613c8e836131fc565b9250817fffffffffffffffffffffffffffffffffffffffffffffffffffffffffffffffff0483118215151615613cc757613cc66139ab565b5b828202905092915050565b7f4e6f7420656e6f756768206574682073656e7400000000000000000000000000600082015250565b6000613d0860138361314c565b9150613d1382613cd2565b602082019050919050565b60006020820190508181036000830152613d3781613cfb565b9050919050565b7f41646472657373206e6f742077686974656c6973746564000000000000000000600082015250565b6000613d7460178361314c565b9150613d7f82613d3e565b602082019050919050565b60006020820190508181036000830152613da381613d67565b9050919050565b7f4f766572206d696e74206c696d69740000000000000000000000000000000000600082015250565b6000613de0600f8361314c565b9150613deb82613daa565b602082019050919050565b60006020820190508181036000830152613e0f81613dd3565b9050919050565b7f4d6178206d696e7420737570706c792072656163686564000000000000000000600082015250565b6000613e4c60178361314c565b9150613e5782613e16565b602082019050919050565b60006020820190508181036000830152613e7b81613e3f565b9050919050565b7f526566756e642065787069726564000000000000000000000000000000000000600082015250565b6000613eb8600e8361314c565b9150613ec382613e82565b602082019050919050565b60006020820190508181036000830152613ee781613eab565b9050919050565b7f4e6f7420746f6b656e206f776e65720000000000000000000000000000000000600082015250565b6000613f24600f8361314c565b9150613f2f82613eee565b602082019050919050565b60006020820190508181036000830152613f5381613f17565b9050919050565b7f416c726561647920726566756e64656400000000000000000000000000000000600082015250565b6000613f9060108361314c565b9150613f9b82613f5a565b602082019050919050565b60006020820190508181036000830152613fbf81613f83565b9050919050565b7f467265656c79206d696e746564204e4654732063616e6e6f742062652072656660008201527f756e646564000000000000000000000000000000000000000000000000000000602082015250565b600061402260258361314c565b915061402d82613fc6565b604082019050919050565b6000602082019050818103600083015261405181614015565b9050919050565b7f5075626c69632073616c65206973206e6f742061637469766500000000000000600082015250565b600061408e60198361314c565b915061409982614058565b602082019050919050565b600060208201905081810360008301526140bd81614081565b9050919050565b7f4552433732314d657461646174613a2055524920717565727920666f72206e6f60008201527f6e6578697374656e7420746f6b656e0000000000000000000000000000000000602082015250565b6000614120602f8361314c565b915061412b826140c4565b604082019050919050565b6000602082019050818103600083015261414f81614113565b9050919050565b600081905092915050565b600061416c82613141565b6141768185614156565b935061418681856020860161315d565b80840191505092915050565b6000815461419f81613872565b6141a98186614156565b945060018216600081146141c457600181146141d557614208565b60ff19831686528186019350614208565b6141de85613b55565b60005b83811015614200578154818901526001820191506020810190506141e1565b838801955050505b50505092915050565b600061421d8286614161565b91506142298285614161565b91506142358284614192565b9150819050949350505050565b7f4f776e61626c653a206e6577206f776e657220697320746865207a65726f206160008201527f6464726573730000000000000000000000000000000000000000000000000000602082015250565b600061429e60268361314c565b91506142a982614242565b604082019050919050565b600060208201905081810360008301526142cd81614291565b9050919050565b7f4d6178696d756d20557365727320616c72656164792077686974656c6973746560008201527f6400000000000000000000000000000000000000000000000000000000000000602082015250565b600061433060218361314c565b915061433b826142d4565b604082019050919050565b6000602082019050818103600083015261435f81614323565b9050919050565b7f4f776e61626c653a2063616c6c6572206973206e6f7420746865206f776e6572600082015250565b600061439c60208361314c565b91506143a782614366565b602082019050919050565b600060208201905081810360008301526143cb8161438f565b9050919050565b600081519050919050565b600082825260208201905092915050565b60006143f9826143d2565b61440381856143dd565b935061441381856020860161315d565b61441c81613190565b840191505092915050565b600060808201905061443c6000830187613291565b6144496020830186613291565b61445660408301856134d2565b818103606083015261446881846143ee565b905095945050505050565b60008151905061448281613059565b92915050565b60006020828403121561449e5761449d613023565b5b60006144ac84828501614473565b91505092915050565b7f4e487b7100000000000000000000000000000000000000000000000000000000600052601260045260246000fd5b60006144ef826131fc565b91506144fa836131fc565b92508261450a576145096144b5565b5b828204905092915050565b6000614520826131fc565b915061452b836131fc565b92508282101561453e5761453d6139ab565b5b828203905092915050565b6000614554826131fc565b915061455f836131fc565b92508261456f5761456e6144b5565b5b82820690509291505056fea26469706673582212206545a98be2d887650b189e0b256983e76e7bf8650397e2d938e292d67aa6ca4a64736f6c63430008090033",
  "linkReferences": {},
  "deployedLinkReferences": {}
}