{
  "_format": "hh-sol-artifact-1",
  "contractName": "ERC721RFactory",
  "sourceName": "contracts/factoryContracts/ERC721RFactory.sol",
  "abi": [
    {
      "inputs": [
        {
          "internalType": "string",
          "name": "name",
          "type": "string"
        },
        {
          "internalType": "string",
          "name": "symbol",
          "type": "string"
        },
        {
          "internalType": "uint256",
          "name": "mintSupply",
          "type": "uint256"
        },
        {
          "internalType": "uint256",
          "name": "mintingPrice",
          "type": "uint256"
        },
        {
          "internalType": "uint256",
          "name": "refundTime",
          "type": "uint256"
        },
        {
          "internalType": "uint256",
          "name": "maxMintPerUser",
          "type": "uint256"
        }
      ],
      "stateMutability": "nonpayable",
      "type": "constructor"
    },
    {
      "inputs": [],
      "name": "ApprovalCallerNotOwnerNorApproved",
      "type": "error"
    },
    {
      "inputs": [],
      "name": "ApprovalQueryForNonexistentToken",
      "type": "error"
    },
    {
      "inputs": [],
      "name": "ApprovalToCurrentOwner",
      "type": "error"
    },
    {
      "inputs": [],
      "name": "ApproveToCaller",
      "type": "error"
    },
    {
      "inputs": [],
      "name": "BalanceQueryForZeroAddress",
      "type": "error"
    },
    {
      "inputs": [],
      "name": "MintToZeroAddress",
      "type": "error"
    },
    {
      "inputs": [],
      "name": "MintZeroQuantity",
      "type": "error"
    },
    {
      "inputs": [],
      "name": "OwnerQueryForNonexistentToken",
      "type": "error"
    },
    {
      "inputs": [],
      "name": "TransferCallerNotOwnerNorApproved",
      "type": "error"
    },
    {
      "inputs": [],
      "name": "TransferFromIncorrectOwner",
      "type": "error"
    },
    {
      "inputs": [],
      "name": "TransferToNonERC721ReceiverImplementer",
      "type": "error"
    },
    {
      "inputs": [],
      "name": "TransferToZeroAddress",
      "type": "error"
    },
    {
      "inputs": [],
      "name": "URIQueryForNonexistentToken",
      "type": "error"
    },
    {
      "anonymous": false,
      "inputs": [
        {
          "indexed": true,
          "internalType": "address",
          "name": "owner",
          "type": "address"
        },
        {
          "indexed": true,
          "internalType": "address",
          "name": "approved",
          "type": "address"
        },
        {
          "indexed": true,
          "internalType": "uint256",
          "name": "tokenId",
          "type": "uint256"
        }
      ],
      "name": "Approval",
      "type": "event"
    },
    {
      "anonymous": false,
      "inputs": [
        {
          "indexed": true,
          "internalType": "address",
          "name": "owner",
          "type": "address"
        },
        {
          "indexed": true,
          "internalType": "address",
          "name": "operator",
          "type": "address"
        },
        {
          "indexed": false,
          "internalType": "bool",
          "name": "approved",
          "type": "bool"
        }
      ],
      "name": "ApprovalForAll",
      "type": "event"
    },
    {
      "anonymous": false,
      "inputs": [
        {
          "indexed": false,
          "internalType": "string",
          "name": "uri",
          "type": "string"
        }
      ],
      "name": "BaseURI",
      "type": "event"
    },
    {
      "anonymous": false,
      "inputs": [
        {
          "indexed": true,
          "internalType": "address",
          "name": "previousOwner",
          "type": "address"
        },
        {
          "indexed": true,
          "internalType": "address",
          "name": "newOwner",
          "type": "address"
        }
      ],
      "name": "OwnershipTransferred",
      "type": "event"
    },
    {
      "anonymous": false,
      "inputs": [
        {
          "indexed": false,
          "internalType": "bool",
          "name": "presaleActive",
          "type": "bool"
        }
      ],
      "name": "PresaleToggled",
      "type": "event"
    },
    {
      "anonymous": false,
      "inputs": [
        {
          "indexed": false,
          "internalType": "bool",
          "name": "publicSaleActive",
          "type": "bool"
        }
      ],
      "name": "PublicSaleSet",
      "type": "event"
    },
    {
      "anonymous": false,
      "inputs": [
        {
          "indexed": false,
          "internalType": "uint256",
          "name": "refundEndTime",
          "type": "uint256"
        }
      ],
      "name": "RefundCountDownSet",
      "type": "event"
    },
    {
      "anonymous": false,
      "inputs": [
        {
          "indexed": true,
          "internalType": "address",
          "name": "from",
          "type": "address"
        },
        {
          "indexed": true,
          "internalType": "address",
          "name": "to",
          "type": "address"
        },
        {
          "indexed": true,
          "internalType": "uint256",
          "name": "tokenId",
          "type": "uint256"
        }
      ],
      "name": "Transfer",
      "type": "event"
    },
    {
      "anonymous": false,
      "inputs": [
        {
          "indexed": false,
          "internalType": "bool",
          "name": "whitelistEnabled",
          "type": "bool"
        }
      ],
      "name": "WhiteListEnabled",
      "type": "event"
    },
    {
      "inputs": [],
      "name": "_currentIndex",
      "outputs": [
        {
          "internalType": "uint256",
          "name": "",
          "type": "uint256"
        }
      ],
      "stateMutability": "view",
      "type": "function"
    },
    {
      "inputs": [],
      "name": "_name",
      "outputs": [
        {
          "internalType": "string",
          "name": "",
          "type": "string"
        }
      ],
      "stateMutability": "view",
      "type": "function"
    },
    {
      "inputs": [],
      "name": "_symbol",
      "outputs": [
        {
          "internalType": "string",
          "name": "",
          "type": "string"
        }
      ],
      "stateMutability": "view",
      "type": "function"
    },
    {
      "inputs": [
        {
          "internalType": "address",
          "name": "to",
          "type": "address"
        },
        {
          "internalType": "uint256",
          "name": "tokenId",
          "type": "uint256"
        }
      ],
      "name": "approve",
      "outputs": [],
      "stateMutability": "nonpayable",
      "type": "function"
    },
    {
      "inputs": [
        {
          "internalType": "address",
          "name": "owner",
          "type": "address"
        }
      ],
      "name": "balanceOf",
      "outputs": [
        {
          "internalType": "uint256",
          "name": "",
          "type": "uint256"
        }
      ],
      "stateMutability": "view",
      "type": "function"
    },
    {
      "inputs": [
        {
          "internalType": "uint256",
          "name": "tokenId",
          "type": "uint256"
        }
      ],
      "name": "getApproved",
      "outputs": [
        {
          "internalType": "address",
          "name": "",
          "type": "address"
        }
      ],
      "stateMutability": "view",
      "type": "function"
    },
    {
      "inputs": [],
      "name": "getRefundGuaranteeEndTime",
      "outputs": [
        {
          "internalType": "uint256",
          "name": "",
          "type": "uint256"
        }
      ],
      "stateMutability": "view",
      "type": "function"
    },
    {
      "inputs": [
        {
          "internalType": "uint256",
          "name": "",
          "type": "uint256"
        }
      ],
      "name": "hasRefunded",
      "outputs": [
        {
          "internalType": "bool",
          "name": "",
          "type": "bool"
        }
      ],
      "stateMutability": "view",
      "type": "function"
    },
    {
      "inputs": [
        {
          "internalType": "address",
          "name": "owner",
          "type": "address"
        },
        {
          "internalType": "address",
          "name": "operator",
          "type": "address"
        }
      ],
      "name": "isApprovedForAll",
      "outputs": [
        {
          "internalType": "bool",
          "name": "",
          "type": "bool"
        }
      ],
      "stateMutability": "view",
      "type": "function"
    },
    {
      "inputs": [
        {
          "internalType": "uint256",
          "name": "",
          "type": "uint256"
        }
      ],
      "name": "isOwnerMint",
      "outputs": [
        {
          "internalType": "bool",
          "name": "",
          "type": "bool"
        }
      ],
      "stateMutability": "view",
      "type": "function"
    },
    {
      "inputs": [],
      "name": "isRefundGuaranteeActive",
      "outputs": [
        {
          "internalType": "bool",
          "name": "",
          "type": "bool"
        }
      ],
      "stateMutability": "view",
      "type": "function"
    },
    {
      "inputs": [],
      "name": "maxMintSupply",
      "outputs": [
        {
          "internalType": "uint256",
          "name": "",
          "type": "uint256"
        }
      ],
      "stateMutability": "view",
      "type": "function"
    },
    {
      "inputs": [],
      "name": "maxUserMintAmount",
      "outputs": [
        {
          "internalType": "uint256",
          "name": "",
          "type": "uint256"
        }
      ],
      "stateMutability": "view",
      "type": "function"
    },
    {
      "inputs": [],
      "name": "mintPrice",
      "outputs": [
        {
          "internalType": "uint256",
          "name": "",
          "type": "uint256"
        }
      ],
      "stateMutability": "view",
      "type": "function"
    },
    {
      "inputs": [],
      "name": "name",
      "outputs": [
        {
          "internalType": "string",
          "name": "",
          "type": "string"
        }
      ],
      "stateMutability": "view",
      "type": "function"
    },
    {
      "inputs": [],
      "name": "owner",
      "outputs": [
        {
          "internalType": "address",
          "name": "",
          "type": "address"
        }
      ],
      "stateMutability": "view",
      "type": "function"
    },
    {
      "inputs": [
        {
          "internalType": "uint256",
          "name": "quantity",
          "type": "uint256"
        }
      ],
      "name": "ownerMint",
      "outputs": [],
      "stateMutability": "nonpayable",
      "type": "function"
    },
    {
      "inputs": [
        {
          "internalType": "uint256",
          "name": "tokenId",
          "type": "uint256"
        }
      ],
      "name": "ownerOf",
      "outputs": [
        {
          "internalType": "address",
          "name": "",
          "type": "address"
        }
      ],
      "stateMutability": "view",
      "type": "function"
    },
    {
      "inputs": [
        {
          "internalType": "uint256",
          "name": "quantity",
          "type": "uint256"
        }
      ],
      "name": "preSaleMint",
      "outputs": [],
      "stateMutability": "payable",
      "type": "function"
    },
    {
      "inputs": [],
      "name": "presaleActive",
      "outputs": [
        {
          "internalType": "bool",
          "name": "",
          "type": "bool"
        }
      ],
      "stateMutability": "view",
      "type": "function"
    },
    {
      "inputs": [],
      "name": "publicSaleActive",
      "outputs": [
        {
          "internalType": "bool",
          "name": "",
          "type": "bool"
        }
      ],
      "stateMutability": "view",
      "type": "function"
    },
    {
      "inputs": [
        {
          "internalType": "uint256",
          "name": "quantity",
          "type": "uint256"
        }
      ],
      "name": "publicSaleMint",
      "outputs": [],
      "stateMutability": "payable",
      "type": "function"
    },
    {
      "inputs": [
        {
          "internalType": "uint256[]",
          "name": "tokenIds",
          "type": "uint256[]"
        }
      ],
      "name": "refund",
      "outputs": [],
      "stateMutability": "nonpayable",
      "type": "function"
    },
    {
      "inputs": [],
      "name": "refundAddress",
      "outputs": [
        {
          "internalType": "address",
          "name": "",
          "type": "address"
        }
      ],
      "stateMutability": "view",
      "type": "function"
    },
    {
      "inputs": [],
      "name": "refundEndTime",
      "outputs": [
        {
          "internalType": "uint256",
          "name": "",
          "type": "uint256"
        }
      ],
      "stateMutability": "view",
      "type": "function"
    },
    {
      "inputs": [],
      "name": "refundPeriod",
      "outputs": [
        {
          "internalType": "uint256",
          "name": "",
          "type": "uint256"
        }
      ],
      "stateMutability": "view",
      "type": "function"
    },
    {
      "inputs": [
        {
          "internalType": "address[]",
          "name": "currentAddresses",
          "type": "address[]"
        }
      ],
      "name": "removeWhitelist",
      "outputs": [],
      "stateMutability": "nonpayable",
      "type": "function"
    },
    {
      "inputs": [],
      "name": "renounceOwnership",
      "outputs": [],
      "stateMutability": "nonpayable",
      "type": "function"
    },
    {
      "inputs": [
        {
          "internalType": "address",
          "name": "from",
          "type": "address"
        },
        {
          "internalType": "address",
          "name": "to",
          "type": "address"
        },
        {
          "internalType": "uint256",
          "name": "tokenId",
          "type": "uint256"
        }
      ],
      "name": "safeTransferFrom",
      "outputs": [],
      "stateMutability": "nonpayable",
      "type": "function"
    },
    {
      "inputs": [
        {
          "internalType": "address",
          "name": "from",
          "type": "address"
        },
        {
          "internalType": "address",
          "name": "to",
          "type": "address"
        },
        {
          "internalType": "uint256",
          "name": "tokenId",
          "type": "uint256"
        },
        {
          "internalType": "bytes",
          "name": "_data",
          "type": "bytes"
        }
      ],
      "name": "safeTransferFrom",
      "outputs": [],
      "stateMutability": "nonpayable",
      "type": "function"
    },
    {
      "inputs": [
        {
          "internalType": "address",
          "name": "operator",
          "type": "address"
        },
        {
          "internalType": "bool",
          "name": "approved",
          "type": "bool"
        }
      ],
      "name": "setApprovalForAll",
      "outputs": [],
      "stateMutability": "nonpayable",
      "type": "function"
    },
    {
      "inputs": [
        {
          "internalType": "string",
          "name": "uri",
          "type": "string"
        }
      ],
      "name": "setBaseURI",
      "outputs": [],
      "stateMutability": "nonpayable",
      "type": "function"
    },
    {
      "inputs": [
        {
          "internalType": "address",
          "name": "_refundAddress",
          "type": "address"
        }
      ],
      "name": "setRefundAddress",
      "outputs": [],
      "stateMutability": "nonpayable",
      "type": "function"
    },
    {
      "inputs": [
        {
          "internalType": "string",
          "name": "_uriSuffix",
          "type": "string"
        }
      ],
      "name": "setUriSuffix",
      "outputs": [],
      "stateMutability": "nonpayable",
      "type": "function"
    },
    {
      "inputs": [
        {
          "internalType": "address[]",
          "name": "newAddresses",
          "type": "address[]"
        }
      ],
      "name": "setWhitelist",
      "outputs": [],
      "stateMutability": "nonpayable",
      "type": "function"
    },
    {
      "inputs": [
        {
          "internalType": "bool",
          "name": "_state",
          "type": "bool"
        }
      ],
      "name": "setWhitelistEnabled",
      "outputs": [],
      "stateMutability": "nonpayable",
      "type": "function"
    },
    {
      "inputs": [
        {
          "internalType": "bytes4",
          "name": "interfaceId",
          "type": "bytes4"
        }
      ],
      "name": "supportsInterface",
      "outputs": [
        {
          "internalType": "bool",
          "name": "",
          "type": "bool"
        }
      ],
      "stateMutability": "view",
      "type": "function"
    },
    {
      "inputs": [],
      "name": "symbol",
      "outputs": [
        {
          "internalType": "string",
          "name": "",
          "type": "string"
        }
      ],
      "stateMutability": "view",
      "type": "function"
    },
    {
      "inputs": [],
      "name": "togglePresaleStatus",
      "outputs": [],
      "stateMutability": "nonpayable",
      "type": "function"
    },
    {
      "inputs": [],
      "name": "togglePublicSaleStatus",
      "outputs": [],
      "stateMutability": "nonpayable",
      "type": "function"
    },
    {
      "inputs": [],
      "name": "toggleRefundCountdown",
      "outputs": [],
      "stateMutability": "nonpayable",
      "type": "function"
    },
    {
      "inputs": [
        {
          "internalType": "uint256",
          "name": "_tokenId",
          "type": "uint256"
        }
      ],
      "name": "tokenURI",
      "outputs": [
        {
          "internalType": "string",
          "name": "",
          "type": "string"
        }
      ],
      "stateMutability": "view",
      "type": "function"
    },
    {
      "inputs": [],
      "name": "totalSupply",
      "outputs": [
        {
          "internalType": "uint256",
          "name": "",
          "type": "uint256"
        }
      ],
      "stateMutability": "view",
      "type": "function"
    },
    {
      "inputs": [
        {
          "internalType": "address",
          "name": "from",
          "type": "address"
        },
        {
          "internalType": "address",
          "name": "to",
          "type": "address"
        },
        {
          "internalType": "uint256",
          "name": "tokenId",
          "type": "uint256"
        }
      ],
      "name": "transferFrom",
      "outputs": [],
      "stateMutability": "nonpayable",
      "type": "function"
    },
    {
      "inputs": [
        {
          "internalType": "address",
          "name": "newOwner",
          "type": "address"
        }
      ],
      "name": "transferOwnership",
      "outputs": [],
      "stateMutability": "nonpayable",
      "type": "function"
    },
    {
      "inputs": [],
      "name": "uriSuffix",
      "outputs": [
        {
          "internalType": "string",
          "name": "",
          "type": "string"
        }
      ],
      "stateMutability": "view",
      "type": "function"
    },
    {
      "inputs": [
        {
          "internalType": "address",
          "name": "",
          "type": "address"
        }
      ],
      "name": "whitelist",
      "outputs": [
        {
          "internalType": "bool",
          "name": "",
          "type": "bool"
        }
      ],
      "stateMutability": "view",
      "type": "function"
    },
    {
      "inputs": [],
      "name": "whitelistEnabled",
      "outputs": [
        {
          "internalType": "bool",
          "name": "",
          "type": "bool"
        }
      ],
      "stateMutability": "view",
      "type": "function"
    },
    {
      "inputs": [],
      "name": "withdraw",
      "outputs": [],
      "stateMutability": "nonpayable",
      "type": "function"
    }
  ],
  "bytecode": "0x60806040526040518060400160405280600581526020017f2e6a736f6e000000000000000000000000000000000000000000000000000000815250600d908051906020019062000051929190620003de565b506000601160146101000a81548160ff02191690831515021790555060006012553480156200007f57600080fd5b5060405162004fe338038062004fe38339818101604052810190620000a5919062000666565b85858160029080519060200190620000bf929190620003de565b508060039080519060200190620000d8929190620003de565b50620000e9620001ed60201b60201c565b60008190555050506200011162000105620001f260201b60201c565b620001fa60201b60201c565b6000869050600086905060008251141580156200013057506000815114155b62000172576040517f08c379a00000000000000000000000000000000000000000000000000000000081526004016200016990620007c7565b60405180910390fd5b33601160006101000a81548173ffffffffffffffffffffffffffffffffffffffff021916908373ffffffffffffffffffffffffffffffffffffffff1602179055508560098190555084600a8190555083600f8190555082600b81905550620001df620002c060201b60201c565b50505050505050506200097a565b600090565b600033905090565b6000600860009054906101000a900473ffffffffffffffffffffffffffffffffffffffff16905081600860006101000a81548173ffffffffffffffffffffffffffffffffffffffff021916908373ffffffffffffffffffffffffffffffffffffffff1602179055508173ffffffffffffffffffffffffffffffffffffffff168173ffffffffffffffffffffffffffffffffffffffff167f8be0079c531659141344cd1fd0a4f28419497f9722a3daafe3b4186f6b6457e060405160405180910390a35050565b620002d06200032360201b60201c565b600f5442620002e0919062000818565b6010819055507f8c7f828c45e9721cfd644b2a4f2ff1eba1c36125ea260c43c4d47ebcb59d314160105460405162000319919062000886565b60405180910390a1565b62000333620001f260201b60201c565b73ffffffffffffffffffffffffffffffffffffffff1662000359620003b460201b60201c565b73ffffffffffffffffffffffffffffffffffffffff1614620003b2576040517f08c379a0000000000000000000000000000000000000000000000000000000008152600401620003a990620008f3565b60405180910390fd5b565b6000600860009054906101000a900473ffffffffffffffffffffffffffffffffffffffff16905090565b828054620003ec9062000944565b90600052602060002090601f0160209004810192826200041057600085556200045c565b82601f106200042b57805160ff19168380011785556200045c565b828001600101855582156200045c579182015b828111156200045b5782518255916020019190600101906200043e565b5b5090506200046b91906200046f565b5090565b5b808211156200048a57600081600090555060010162000470565b5090565b6000604051905090565b600080fd5b600080fd5b600080fd5b600080fd5b6000601f19601f8301169050919050565b7f4e487b7100000000000000000000000000000000000000000000000000000000600052604160045260246000fd5b620004f782620004ac565b810181811067ffffffffffffffff82111715620005195762000518620004bd565b5b80604052505050565b60006200052e6200048e565b90506200053c8282620004ec565b919050565b600067ffffffffffffffff8211156200055f576200055e620004bd565b5b6200056a82620004ac565b9050602081019050919050565b60005b83811015620005975780820151818401526020810190506200057a565b83811115620005a7576000848401525b50505050565b6000620005c4620005be8462000541565b62000522565b905082815260208101848484011115620005e357620005e2620004a7565b5b620005f084828562000577565b509392505050565b600082601f83011262000610576200060f620004a2565b5b815162000622848260208601620005ad565b91505092915050565b6000819050919050565b62000640816200062b565b81146200064c57600080fd5b50565b600081519050620006608162000635565b92915050565b60008060008060008060c0878903121562000686576200068562000498565b5b600087015167ffffffffffffffff811115620006a757620006a66200049d565b5b620006b589828a01620005f8565b965050602087015167ffffffffffffffff811115620006d957620006d86200049d565b5b620006e789828a01620005f8565b9550506040620006fa89828a016200064f565b94505060606200070d89828a016200064f565b93505060806200072089828a016200064f565b92505060a06200073389828a016200064f565b9150509295509295509295565b600082825260208201905092915050565b7f455243373231523a2043686f6f73652061206e616d6520616e642073796d626f60008201527f6c00000000000000000000000000000000000000000000000000000000000000602082015250565b6000620007af60218362000740565b9150620007bc8262000751565b604082019050919050565b60006020820190508181036000830152620007e281620007a0565b9050919050565b7f4e487b7100000000000000000000000000000000000000000000000000000000600052601160045260246000fd5b600062000825826200062b565b915062000832836200062b565b9250827fffffffffffffffffffffffffffffffffffffffffffffffffffffffffffffffff038211156200086a5762000869620007e9565b5b828201905092915050565b62000880816200062b565b82525050565b60006020820190506200089d600083018462000875565b92915050565b7f4f776e61626c653a2063616c6c6572206973206e6f7420746865206f776e6572600082015250565b6000620008db60208362000740565b9150620008e882620008a3565b602082019050919050565b600060208201905081810360008301526200090e81620008cc565b9050919050565b7f4e487b7100000000000000000000000000000000000000000000000000000000600052602260045260246000fd5b600060028204905060018216806200095d57607f821691505b6020821081141562000974576200097362000915565b5b50919050565b614659806200098a6000396000f3fe6080604052600436106102ae5760003560e01c80637bffb4ce11610175578063b9ad9fde116100dc578063d28d885211610095578063f2fde38b1161006f578063f2fde38b14610a38578063f421764814610a61578063f7a3031314610a8a578063faf762bd14610ac7576102ae565b8063d28d8852146109a7578063e985e9c5146109d2578063f19e75d414610a0f576102ae565b8063b9ad9fde14610895578063bc8893b4146108ac578063c23fcdef146108d7578063c285e10714610914578063c4ea08451461093f578063c87b56dd1461096a576102ae565b8063a22cb4651161012e578063a22cb465146107a8578063a6a3b5b4146107d1578063aa613df5146107fc578063b09f126614610825578063b3ab66b014610850578063b88d4fde1461086c576102ae565b80637bffb4ce146106a85780638da5cb5b146106bf578063921d28a9146106ea5780639451c99a1461071557806395d89b41146107405780639b19251a1461076b576102ae565b80633ccfd60b116102195780636352211e116101d25780636352211e146105a55780636817c76c146105e257806370a082311461060d578063715018a61461064a57806373fddd16146106615780637835c6351461068c576102ae565b80633ccfd60b146104bb57806342842e0e146104d257806351fb012d146104fb57806353135ca0146105265780635503a0e81461055157806355f804b31461057c576102ae565b806315b75bea1161026b57806315b75bea146103d557806316ba10e0146103fe57806318160ddd14610427578063232452161461045257806323b872dd1461047b5780632e9be821146104a4576102ae565b806301ffc9a7146102b3578063052d9e7e146102f057806306fdde0314610319578063081812fc14610344578063095ea7b3146103815780630cb61f6c146103aa575b600080fd5b3480156102bf57600080fd5b506102da60048036038101906102d5919061312e565b610af2565b6040516102e79190613176565b60405180910390f35b3480156102fc57600080fd5b50610317600480360381019061031291906131bd565b610b84565b005b34801561032557600080fd5b5061032e610bef565b60405161033b9190613283565b60405180910390f35b34801561035057600080fd5b5061036b600480360381019061036691906132db565b610c81565b6040516103789190613349565b60405180910390f35b34801561038d57600080fd5b506103a860048036038101906103a39190613390565b610cfd565b005b3480156103b657600080fd5b506103bf610ea4565b6040516103cc9190613349565b60405180910390f35b3480156103e157600080fd5b506103fc60048036038101906103f791906133d0565b610eca565b005b34801561040a57600080fd5b5061042560048036038101906104209190613532565b610f16565b005b34801561043357600080fd5b5061043c610f38565b604051610449919061358a565b60405180910390f35b34801561045e57600080fd5b5061047960048036038101906104749190613605565b610f4f565b005b34801561048757600080fd5b506104a2600480360381019061049d9190613652565b611098565b005b3480156104b057600080fd5b506104b96110a8565b005b3480156104c757600080fd5b506104d06110ff565b005b3480156104de57600080fd5b506104f960048036038101906104f49190613652565b6111cb565b005b34801561050757600080fd5b506105106111eb565b60405161051d9190613176565b60405180910390f35b34801561053257600080fd5b5061053b6111fe565b6040516105489190613176565b60405180910390f35b34801561055d57600080fd5b50610566611211565b6040516105739190613283565b60405180910390f35b34801561058857600080fd5b506105a3600480360381019061059e9190613532565b61129f565b005b3480156105b157600080fd5b506105cc60048036038101906105c791906132db565b6112f9565b6040516105d99190613349565b60405180910390f35b3480156105ee57600080fd5b506105f761130b565b604051610604919061358a565b60405180910390f35b34801561061957600080fd5b50610634600480360381019061062f91906133d0565b611311565b604051610641919061358a565b60405180910390f35b34801561065657600080fd5b5061065f6113a6565b005b34801561066d57600080fd5b506106766113ba565b604051610683919061358a565b60405180910390f35b6106a660048036038101906106a191906132db565b6113c0565b005b3480156106b457600080fd5b506106bd6115c4565b005b3480156106cb57600080fd5b506106d461163e565b6040516106e19190613349565b60405180910390f35b3480156106f657600080fd5b506106ff611668565b60405161070c919061358a565b60405180910390f35b34801561072157600080fd5b5061072a61166e565b604051610737919061358a565b60405180910390f35b34801561074c57600080fd5b50610755611674565b6040516107629190613283565b60405180910390f35b34801561077757600080fd5b50610792600480360381019061078d91906133d0565b611706565b60405161079f9190613176565b60405180910390f35b3480156107b457600080fd5b506107cf60048036038101906107ca91906136a5565b611726565b005b3480156107dd57600080fd5b506107e661189e565b6040516107f3919061358a565b60405180910390f35b34801561080857600080fd5b50610823600480360381019061081e919061373b565b6118a4565b005b34801561083157600080fd5b5061083a611b4e565b6040516108479190613283565b60405180910390f35b61086a600480360381019061086591906132db565b611bdc565b005b34801561087857600080fd5b50610893600480360381019061088e9190613829565b611d37565b005b3480156108a157600080fd5b506108aa611daa565b005b3480156108b857600080fd5b506108c1611e24565b6040516108ce9190613176565b60405180910390f35b3480156108e357600080fd5b506108fe60048036038101906108f991906132db565b611e37565b60405161090b9190613176565b60405180910390f35b34801561092057600080fd5b50610929611e57565b604051610936919061358a565b60405180910390f35b34801561094b57600080fd5b50610954611e5d565b6040516109619190613176565b60405180910390f35b34801561097657600080fd5b50610991600480360381019061098c91906132db565b611e6a565b60405161099e9190613283565b60405180910390f35b3480156109b357600080fd5b506109bc611f14565b6040516109c99190613283565b60405180910390f35b3480156109de57600080fd5b506109f960048036038101906109f491906138ac565b611fa2565b604051610a069190613176565b60405180910390f35b348015610a1b57600080fd5b50610a366004803603810190610a3191906132db565b612036565b005b348015610a4457600080fd5b50610a5f6004803603810190610a5a91906133d0565b6120ff565b005b348015610a6d57600080fd5b50610a886004803603810190610a839190613605565b612183565b005b348015610a9657600080fd5b50610ab16004803603810190610aac91906132db565b61231b565b604051610abe9190613176565b60405180910390f35b348015610ad357600080fd5b50610adc61233b565b604051610ae9919061358a565b60405180910390f35b60006301ffc9a760e01b827bffffffffffffffffffffffffffffffffffffffffffffffffffffffff19161480610b4d57506380ac58cd60e01b827bffffffffffffffffffffffffffffffffffffffffffffffffffffffff1916145b80610b7d5750635b5e139f60e01b827bffffffffffffffffffffffffffffffffffffffffffffffffffffffff1916145b9050919050565b610b8c612345565b80601160146101000a81548160ff0219169083151502179055507f218e591c4b0d49651b4b42843cb8cc59080122def3d2271f56ef2e21896753ec601160149054906101000a900460ff16604051610be49190613176565b60405180910390a150565b606060028054610bfe9061391b565b80601f0160208091040260200160405190810160405280929190818152602001828054610c2a9061391b565b8015610c775780601f10610c4c57610100808354040283529160200191610c77565b820191906000526020600020905b815481529060010190602001808311610c5a57829003601f168201915b5050505050905090565b6000610c8c826123c3565b610cc2576040517fcf4700e400000000000000000000000000000000000000000000000000000000815260040160405180910390fd5b6006600083815260200190815260200160002060009054906101000a900473ffffffffffffffffffffffffffffffffffffffff169050919050565b6000610d0882612422565b90508073ffffffffffffffffffffffffffffffffffffffff168373ffffffffffffffffffffffffffffffffffffffff161415610d70576040517f943f7b8c00000000000000000000000000000000000000000000000000000000815260040160405180910390fd5b8073ffffffffffffffffffffffffffffffffffffffff16610d8f6124f0565b73ffffffffffffffffffffffffffffffffffffffff1614610df257610dbb81610db66124f0565b611fa2565b610df1576040517fcfb3b94200000000000000000000000000000000000000000000000000000000815260040160405180910390fd5b5b826006600084815260200190815260200160002060006101000a81548173ffffffffffffffffffffffffffffffffffffffff021916908373ffffffffffffffffffffffffffffffffffffffff160217905550818373ffffffffffffffffffffffffffffffffffffffff168273ffffffffffffffffffffffffffffffffffffffff167f8c5be1e5ebec7d5bd14f71427d1e84f3dd0314c0f7b2291e5b200ac8c7c3b92560405160405180910390a4505050565b601160009054906101000a900473ffffffffffffffffffffffffffffffffffffffff1681565b610ed2612345565b80601160006101000a81548173ffffffffffffffffffffffffffffffffffffffff021916908373ffffffffffffffffffffffffffffffffffffffff16021790555050565b610f1e612345565b80600d9080519060200190610f3492919061301f565b5050565b6000610f426124f8565b6001546000540303905090565b610f57612345565b60008282905011610f9d576040517f08c379a0000000000000000000000000000000000000000000000000000000008152600401610f9490613999565b60405180910390fd5b6005828290501115610fe4576040517f08c379a0000000000000000000000000000000000000000000000000000000008152600401610fdb90613a05565b60405180910390fd5b60005b82829050811015611093576013600084848481811061100957611008613a25565b5b905060200201602081019061101e91906133d0565b73ffffffffffffffffffffffffffffffffffffffff1673ffffffffffffffffffffffffffffffffffffffff16815260200190815260200160002060006101000a81549060ff02191690556012600081548092919061107b90613a83565b9190505550808061108b90613aad565b915050610fe7565b505050565b6110a38383836124fd565b505050565b6110b0612345565b600f54426110be9190613af6565b6010819055507f8c7f828c45e9721cfd644b2a4f2ff1eba1c36125ea260c43c4d47ebcb59d31416010546040516110f5919061358a565b60405180910390a1565b611107612345565b601054421161114b576040517f08c379a000000000000000000000000000000000000000000000000000000000815260040161114290613b98565b60405180910390fd5b600061115561163e565b73ffffffffffffffffffffffffffffffffffffffff164760405161117890613be9565b60006040518083038185875af1925050503d80600081146111b5576040519150601f19603f3d011682016040523d82523d6000602084013e6111ba565b606091505b50509050806111c857600080fd5b50565b6111e683838360405180602001604052806000815250611d37565b505050565b601160149054906101000a900460ff1681565b600e60019054906101000a900460ff1681565b600d805461121e9061391b565b80601f016020809104026020016040519081016040528092919081815260200182805461124a9061391b565b80156112975780601f1061126c57610100808354040283529160200191611297565b820191906000526020600020905b81548152906001019060200180831161127a57829003601f168201915b505050505081565b6112a7612345565b80600c90805190602001906112bd92919061301f565b507f01e56a02aca7f26a28165a040851ba78f30282b55ca81c63a804cdc1e2dcea72600c6040516112ee9190613c93565b60405180910390a150565b600061130482612422565b9050919050565b600a5481565b60008061131d836128c5565b1415611355576040517f8f4eb60400000000000000000000000000000000000000000000000000000000815260040160405180910390fd5b67ffffffffffffffff600560008473ffffffffffffffffffffffffffffffffffffffff1673ffffffffffffffffffffffffffffffffffffffff16815260200190815260200160002054169050919050565b6113ae612345565b6113b860006128cf565b565b60105481565b600e60019054906101000a900460ff1661140f576040517f08c379a000000000000000000000000000000000000000000000000000000000815260040161140690613d01565b60405180910390fd5b600a548161141d9190613d21565b34101561145f576040517f08c379a000000000000000000000000000000000000000000000000000000000815260040161145690613dc7565b60405180910390fd5b60011515601160149054906101000a900460ff161515141561150857601360003373ffffffffffffffffffffffffffffffffffffffff1673ffffffffffffffffffffffffffffffffffffffff16815260200190815260200160002060009054906101000a900460ff16611507576040517f08c379a00000000000000000000000000000000000000000000000000000000081526004016114fe90613e33565b60405180910390fd5b5b600b548161151533612995565b61151f9190613af6565b1115611560576040517f08c379a000000000000000000000000000000000000000000000000000000000815260040161155790613e9f565b60405180910390fd5b6009548161156c6129ec565b6115769190613af6565b11156115b7576040517f08c379a00000000000000000000000000000000000000000000000000000000081526004016115ae90613f0b565b60405180910390fd5b6115c133826129ff565b50565b6115cc612345565b600e60019054906101000a900460ff1615600e60016101000a81548160ff0219169083151502179055507f1894dedbea928d98b9226ddf41dc827e1ce8e5b17fdef6cf7170b15d305dcfcb600e60019054906101000a900460ff166040516116349190613176565b60405180910390a1565b6000600860009054906101000a900473ffffffffffffffffffffffffffffffffffffffff16905090565b600b5481565b60005481565b6060600380546116839061391b565b80601f01602080910402602001604051908101604052809291908181526020018280546116af9061391b565b80156116fc5780601f106116d1576101008083540402835291602001916116fc565b820191906000526020600020905b8154815290600101906020018083116116df57829003601f168201915b5050505050905090565b60136020528060005260406000206000915054906101000a900460ff1681565b61172e6124f0565b73ffffffffffffffffffffffffffffffffffffffff168273ffffffffffffffffffffffffffffffffffffffff161415611793576040517fb06307db00000000000000000000000000000000000000000000000000000000815260040160405180910390fd5b80600760006117a06124f0565b73ffffffffffffffffffffffffffffffffffffffff1673ffffffffffffffffffffffffffffffffffffffff16815260200190815260200160002060008473ffffffffffffffffffffffffffffffffffffffff1673ffffffffffffffffffffffffffffffffffffffff16815260200190815260200160002060006101000a81548160ff0219169083151502179055508173ffffffffffffffffffffffffffffffffffffffff1661184d6124f0565b73ffffffffffffffffffffffffffffffffffffffff167f17307eab39ab6107e8899845ad3d59bd9653f200f220920489ca2b5937696c31836040516118929190613176565b60405180910390a35050565b600f5481565b6118ac611e5d565b6118eb576040517f08c379a00000000000000000000000000000000000000000000000000000000081526004016118e290613f77565b60405180910390fd5b60005b82829050811015611abc57600083838381811061190e5761190d613a25565b5b905060200201359050611920816112f9565b73ffffffffffffffffffffffffffffffffffffffff163373ffffffffffffffffffffffffffffffffffffffff161461198d576040517f08c379a000000000000000000000000000000000000000000000000000000000815260040161198490613fe3565b60405180910390fd5b6014600082815260200190815260200160002060009054906101000a900460ff16156119ee576040517f08c379a00000000000000000000000000000000000000000000000000000000081526004016119e59061404f565b60405180910390fd5b6015600082815260200190815260200160002060009054906101000a900460ff1615611a4f576040517f08c379a0000000000000000000000000000000000000000000000000000000008152600401611a46906140e1565b60405180910390fd5b60016014600083815260200190815260200160002060006101000a81548160ff021916908315150217905550611aa833601160009054906101000a900473ffffffffffffffffffffffffffffffffffffffff1683611098565b508080611ab490613aad565b9150506118ee565b506000600a5483839050611ad09190613d21565b905060003373ffffffffffffffffffffffffffffffffffffffff1682604051611af890613be9565b60006040518083038185875af1925050503d8060008114611b35576040519150601f19603f3d011682016040523d82523d6000602084013e611b3a565b606091505b5050905080611b4857600080fd5b50505050565b60038054611b5b9061391b565b80601f0160208091040260200160405190810160405280929190818152602001828054611b879061391b565b8015611bd45780601f10611ba957610100808354040283529160200191611bd4565b820191906000526020600020905b815481529060010190602001808311611bb757829003601f168201915b505050505081565b600e60009054906101000a900460ff16611c2b576040517f08c379a0000000000000000000000000000000000000000000000000000000008152600401611c229061414d565b60405180910390fd5b600a5481611c399190613d21565b341015611c7b576040517f08c379a0000000000000000000000000000000000000000000000000000000008152600401611c7290613dc7565b60405180910390fd5b600b5481611c8833612995565b611c929190613af6565b1115611cd3576040517f08c379a0000000000000000000000000000000000000000000000000000000008152600401611cca90613e9f565b60405180910390fd5b60095481611cdf6129ec565b611ce99190613af6565b1115611d2a576040517f08c379a0000000000000000000000000000000000000000000000000000000008152600401611d2190613f0b565b60405180910390fd5b611d3433826129ff565b50565b611d428484846124fd565b60008373ffffffffffffffffffffffffffffffffffffffff163b14611da457611d6d84848484612a1d565b611da3576040517fd1a57ed600000000000000000000000000000000000000000000000000000000815260040160405180910390fd5b5b50505050565b611db2612345565b600e60009054906101000a900460ff1615600e60006101000a81548160ff0219169083151502179055507f28b42d64cef88205a656230fafa4bc31b0bd28f99b5d006c276a037fb00ec969600e60009054906101000a900460ff16604051611e1a9190613176565b60405180910390a1565b600e60009054906101000a900460ff1681565b60146020528060005260406000206000915054906101000a900460ff1681565b60095481565b6000601054421115905090565b6060611e75826123c3565b611eb4576040517f08c379a0000000000000000000000000000000000000000000000000000000008152600401611eab906141df565b60405180910390fd5b6000611ebe612b7d565b90506000815111611ede5760405180602001604052806000815250611f0c565b80611ee884612c0f565b600d604051602001611efc939291906142ba565b6040516020818303038152906040525b915050919050565b60028054611f219061391b565b80601f0160208091040260200160405190810160405280929190818152602001828054611f4d9061391b565b8015611f9a5780601f10611f6f57610100808354040283529160200191611f9a565b820191906000526020600020905b815481529060010190602001808311611f7d57829003601f168201915b505050505081565b6000600760008473ffffffffffffffffffffffffffffffffffffffff1673ffffffffffffffffffffffffffffffffffffffff16815260200190815260200160002060008373ffffffffffffffffffffffffffffffffffffffff1673ffffffffffffffffffffffffffffffffffffffff16815260200190815260200160002060009054906101000a900460ff16905092915050565b61203e612345565b6009548161204a6129ec565b6120549190613af6565b1115612095576040517f08c379a000000000000000000000000000000000000000000000000000000000815260040161208c90613f0b565b60405180910390fd5b61209f33826129ff565b6000816000546120af91906142eb565b90505b6000548110156120fb5760016015600083815260200190815260200160002060006101000a81548160ff02191690831515021790555080806120f390613aad565b9150506120b2565b5050565b612107612345565b600073ffffffffffffffffffffffffffffffffffffffff168173ffffffffffffffffffffffffffffffffffffffff161415612177576040517f08c379a000000000000000000000000000000000000000000000000000000000815260040161216e90614391565b60405180910390fd5b612180816128cf565b50565b61218b612345565b600082829050116121d1576040517f08c379a00000000000000000000000000000000000000000000000000000000081526004016121c890613999565b60405180910390fd5b6107d08282905010612218576040517f08c379a000000000000000000000000000000000000000000000000000000000815260040161220f90613a05565b60405180910390fd5b60005b82829050811015612316576107d06012541061226c576040517f08c379a000000000000000000000000000000000000000000000000000000000815260040161226390614423565b60405180910390fd5b60016013600085858581811061228557612284613a25565b5b905060200201602081019061229a91906133d0565b73ffffffffffffffffffffffffffffffffffffffff1673ffffffffffffffffffffffffffffffffffffffff16815260200190815260200160002060006101000a81548160ff021916908315150217905550601260008154809291906122fe90613aad565b9190505550808061230e90613aad565b91505061221b565b505050565b60156020528060005260406000206000915054906101000a900460ff1681565b6000601054905090565b61234d612d70565b73ffffffffffffffffffffffffffffffffffffffff1661236b61163e565b73ffffffffffffffffffffffffffffffffffffffff16146123c1576040517f08c379a00000000000000000000000000000000000000000000000000000000081526004016123b89061448f565b60405180910390fd5b565b6000816123ce6124f8565b111580156123dd575060005482105b801561241b575060007c0100000000000000000000000000000000000000000000000000000000600460008581526020019081526020016000205416145b9050919050565b600080829050806124316124f8565b116124b9576000548110156124b85760006004600083815260200190815260200160002054905060007c0100000000000000000000000000000000000000000000000000000000821614156124b6575b60008114156124ac576004600083600190039350838152602001908152602001600020549050612481565b80925050506124eb565b505b5b6040517fdf2d9b4200000000000000000000000000000000000000000000000000000000815260040160405180910390fd5b919050565b600033905090565b600090565b600061250882612422565b90508373ffffffffffffffffffffffffffffffffffffffff168173ffffffffffffffffffffffffffffffffffffffff161461256f576040517fa114810000000000000000000000000000000000000000000000000000000000815260040160405180910390fd5b60006006600084815260200190815260200160002060009054906101000a900473ffffffffffffffffffffffffffffffffffffffff16905060008573ffffffffffffffffffffffffffffffffffffffff166125c86124f0565b73ffffffffffffffffffffffffffffffffffffffff1614806125f757506125f6866125f16124f0565b611fa2565b5b8061263457506126056124f0565b73ffffffffffffffffffffffffffffffffffffffff168273ffffffffffffffffffffffffffffffffffffffff16145b90508061266d576040517f59c896be00000000000000000000000000000000000000000000000000000000815260040160405180910390fd5b6000612678866128c5565b14156126b0576040517fea553b3400000000000000000000000000000000000000000000000000000000815260040160405180910390fd5b6126bd8686866001612d78565b60006126c8836128c5565b14612704576006600085815260200190815260200160002060006101000a81549073ffffffffffffffffffffffffffffffffffffffff02191690555b600560008773ffffffffffffffffffffffffffffffffffffffff1673ffffffffffffffffffffffffffffffffffffffff168152602001908152602001600020600081546001900391905081905550600560008673ffffffffffffffffffffffffffffffffffffffff1673ffffffffffffffffffffffffffffffffffffffff16815260200190815260200160002060008154600101919050819055507c020000000000000000000000000000000000000000000000000000000060a042901b6127cb876128c5565b1717600460008681526020019081526020016000208190555060007c020000000000000000000000000000000000000000000000000000000084161415612855576000600185019050600060046000838152602001908152602001600020541415612853576000548114612852578360046000838152602001908152602001600020819055505b5b505b838573ffffffffffffffffffffffffffffffffffffffff168773ffffffffffffffffffffffffffffffffffffffff167fddf252ad1be2c89b69c2b068fc378daa952ba7f163c4a11628f55a4df523b3ef60405160405180910390a46128bd8686866001612d7e565b505050505050565b6000819050919050565b6000600860009054906101000a900473ffffffffffffffffffffffffffffffffffffffff16905081600860006101000a81548173ffffffffffffffffffffffffffffffffffffffff021916908373ffffffffffffffffffffffffffffffffffffffff1602179055508173ffffffffffffffffffffffffffffffffffffffff168173ffffffffffffffffffffffffffffffffffffffff167f8be0079c531659141344cd1fd0a4f28419497f9722a3daafe3b4186f6b6457e060405160405180910390a35050565b600067ffffffffffffffff6040600560008573ffffffffffffffffffffffffffffffffffffffff1673ffffffffffffffffffffffffffffffffffffffff16815260200190815260200160002054901c169050919050565b60006129f66124f8565b60005403905090565b612a19828260405180602001604052806000815250612d84565b5050565b60008373ffffffffffffffffffffffffffffffffffffffff1663150b7a02612a436124f0565b8786866040518563ffffffff1660e01b8152600401612a659493929190614504565b602060405180830381600087803b158015612a7f57600080fd5b505af1925050508015612ab057506040513d601f19601f82011682018060405250810190612aad9190614565565b60015b612b2a573d8060008114612ae0576040519150601f19603f3d011682016040523d82523d6000602084013e612ae5565b606091505b50600081511415612b22576040517fd1a57ed600000000000000000000000000000000000000000000000000000000815260040160405180910390fd5b805181602001fd5b63150b7a0260e01b7bffffffffffffffffffffffffffffffffffffffffffffffffffffffff1916817bffffffffffffffffffffffffffffffffffffffffffffffffffffffff191614915050949350505050565b6060600c8054612b8c9061391b565b80601f0160208091040260200160405190810160405280929190818152602001828054612bb89061391b565b8015612c055780601f10612bda57610100808354040283529160200191612c05565b820191906000526020600020905b815481529060010190602001808311612be857829003601f168201915b5050505050905090565b60606000821415612c57576040518060400160405280600181526020017f30000000000000000000000000000000000000000000000000000000000000008152509050612d6b565b600082905060005b60008214612c89578080612c7290613aad565b915050600a82612c8291906145c1565b9150612c5f565b60008167ffffffffffffffff811115612ca557612ca4613407565b5b6040519080825280601f01601f191660200182016040528015612cd75781602001600182028036833780820191505090505b5090505b60008514612d6457600182612cf091906142eb565b9150600a85612cff91906145f2565b6030612d0b9190613af6565b60f81b818381518110612d2157612d20613a25565b5b60200101907effffffffffffffffffffffffffffffffffffffffffffffffffffffffffffff1916908160001a905350600a85612d5d91906145c1565b9450612cdb565b8093505050505b919050565b600033905090565b50505050565b50505050565b6000805490506000612d95856128c5565b1415612dcd576040517f2e07630000000000000000000000000000000000000000000000000000000000815260040160405180910390fd5b6000831415612e08576040517fb562e8dd00000000000000000000000000000000000000000000000000000000815260040160405180910390fd5b612e156000858386612d78565b600160406001901b178302600560008673ffffffffffffffffffffffffffffffffffffffff1673ffffffffffffffffffffffffffffffffffffffff1681526020019081526020016000206000828254019250508190555060e1612e7a60018514613015565b901b60a042901b612e8a866128c5565b1717600460008381526020019081526020016000208190555060008190506000848201905060008673ffffffffffffffffffffffffffffffffffffffff163b14612f8e575b818673ffffffffffffffffffffffffffffffffffffffff16600073ffffffffffffffffffffffffffffffffffffffff167fddf252ad1be2c89b69c2b068fc378daa952ba7f163c4a11628f55a4df523b3ef60405160405180910390a4612f3e6000878480600101955087612a1d565b612f74576040517fd1a57ed600000000000000000000000000000000000000000000000000000000815260040160405180910390fd5b808210612ecf578260005414612f8957600080fd5b612ff9565b5b818060010192508673ffffffffffffffffffffffffffffffffffffffff16600073ffffffffffffffffffffffffffffffffffffffff167fddf252ad1be2c89b69c2b068fc378daa952ba7f163c4a11628f55a4df523b3ef60405160405180910390a4808210612f8f575b81600081905550505061300f6000858386612d7e565b50505050565b6000819050919050565b82805461302b9061391b565b90600052602060002090601f01602090048101928261304d5760008555613094565b82601f1061306657805160ff1916838001178555613094565b82800160010185558215613094579182015b82811115613093578251825591602001919060010190613078565b5b5090506130a191906130a5565b5090565b5b808211156130be5760008160009055506001016130a6565b5090565b6000604051905090565b600080fd5b600080fd5b60007fffffffff0000000000000000000000000000000000000000000000000000000082169050919050565b61310b816130d6565b811461311657600080fd5b50565b60008135905061312881613102565b92915050565b600060208284031215613144576131436130cc565b5b600061315284828501613119565b91505092915050565b60008115159050919050565b6131708161315b565b82525050565b600060208201905061318b6000830184613167565b92915050565b61319a8161315b565b81146131a557600080fd5b50565b6000813590506131b781613191565b92915050565b6000602082840312156131d3576131d26130cc565b5b60006131e1848285016131a8565b91505092915050565b600081519050919050565b600082825260208201905092915050565b60005b83811015613224578082015181840152602081019050613209565b83811115613233576000848401525b50505050565b6000601f19601f8301169050919050565b6000613255826131ea565b61325f81856131f5565b935061326f818560208601613206565b61327881613239565b840191505092915050565b6000602082019050818103600083015261329d818461324a565b905092915050565b6000819050919050565b6132b8816132a5565b81146132c357600080fd5b50565b6000813590506132d5816132af565b92915050565b6000602082840312156132f1576132f06130cc565b5b60006132ff848285016132c6565b91505092915050565b600073ffffffffffffffffffffffffffffffffffffffff82169050919050565b600061333382613308565b9050919050565b61334381613328565b82525050565b600060208201905061335e600083018461333a565b92915050565b61336d81613328565b811461337857600080fd5b50565b60008135905061338a81613364565b92915050565b600080604083850312156133a7576133a66130cc565b5b60006133b58582860161337b565b92505060206133c6858286016132c6565b9150509250929050565b6000602082840312156133e6576133e56130cc565b5b60006133f48482850161337b565b91505092915050565b600080fd5b600080fd5b7f4e487b7100000000000000000000000000000000000000000000000000000000600052604160045260246000fd5b61343f82613239565b810181811067ffffffffffffffff8211171561345e5761345d613407565b5b80604052505050565b60006134716130c2565b905061347d8282613436565b919050565b600067ffffffffffffffff82111561349d5761349c613407565b5b6134a682613239565b9050602081019050919050565b82818337600083830152505050565b60006134d56134d084613482565b613467565b9050828152602081018484840111156134f1576134f0613402565b5b6134fc8482856134b3565b509392505050565b600082601f830112613519576135186133fd565b5b81356135298482602086016134c2565b91505092915050565b600060208284031215613548576135476130cc565b5b600082013567ffffffffffffffff811115613566576135656130d1565b5b61357284828501613504565b91505092915050565b613584816132a5565b82525050565b600060208201905061359f600083018461357b565b92915050565b600080fd5b600080fd5b60008083601f8401126135c5576135c46133fd565b5b8235905067ffffffffffffffff8111156135e2576135e16135a5565b5b6020830191508360208202830111156135fe576135fd6135aa565b5b9250929050565b6000806020838503121561361c5761361b6130cc565b5b600083013567ffffffffffffffff81111561363a576136396130d1565b5b613646858286016135af565b92509250509250929050565b60008060006060848603121561366b5761366a6130cc565b5b60006136798682870161337b565b935050602061368a8682870161337b565b925050604061369b868287016132c6565b9150509250925092565b600080604083850312156136bc576136bb6130cc565b5b60006136ca8582860161337b565b92505060206136db858286016131a8565b9150509250929050565b60008083601f8401126136fb576136fa6133fd565b5b8235905067ffffffffffffffff811115613718576137176135a5565b5b602083019150836020820283011115613734576137336135aa565b5b9250929050565b60008060208385031215613752576137516130cc565b5b600083013567ffffffffffffffff8111156137705761376f6130d1565b5b61377c858286016136e5565b92509250509250929050565b600067ffffffffffffffff8211156137a3576137a2613407565b5b6137ac82613239565b9050602081019050919050565b60006137cc6137c784613788565b613467565b9050828152602081018484840111156137e8576137e7613402565b5b6137f38482856134b3565b509392505050565b600082601f8301126138105761380f6133fd565b5b81356138208482602086016137b9565b91505092915050565b60008060008060808587031215613843576138426130cc565b5b60006138518782880161337b565b94505060206138628782880161337b565b9350506040613873878288016132c6565b925050606085013567ffffffffffffffff811115613894576138936130d1565b5b6138a0878288016137fb565b91505092959194509250565b600080604083850312156138c3576138c26130cc565b5b60006138d18582860161337b565b92505060206138e28582860161337b565b9150509250929050565b7f4e487b7100000000000000000000000000000000000000000000000000000000600052602260045260246000fd5b6000600282049050600182168061393357607f821691505b60208210811415613947576139466138ec565b5b50919050565b7f4e6f20757365722064657461696c732070726f76696465640000000000000000600082015250565b60006139836018836131f5565b915061398e8261394d565b602082019050919050565b600060208201905081810360008301526139b281613976565b9050919050565b7f546f6f206d616e792075736572737320746f2077686974656c69737400000000600082015250565b60006139ef601c836131f5565b91506139fa826139b9565b602082019050919050565b60006020820190508181036000830152613a1e816139e2565b9050919050565b7f4e487b7100000000000000000000000000000000000000000000000000000000600052603260045260246000fd5b7f4e487b7100000000000000000000000000000000000000000000000000000000600052601160045260246000fd5b6000613a8e826132a5565b91506000821415613aa257613aa1613a54565b5b600182039050919050565b6000613ab8826132a5565b91507fffffffffffffffffffffffffffffffffffffffffffffffffffffffffffffffff821415613aeb57613aea613a54565b5b600182019050919050565b6000613b01826132a5565b9150613b0c836132a5565b9250827fffffffffffffffffffffffffffffffffffffffffffffffffffffffffffffffff03821115613b4157613b40613a54565b5b828201905092915050565b7f526566756e6420706572696f64206e6f74206f76657200000000000000000000600082015250565b6000613b826016836131f5565b9150613b8d82613b4c565b602082019050919050565b60006020820190508181036000830152613bb181613b75565b9050919050565b600081905092915050565b50565b6000613bd3600083613bb8565b9150613bde82613bc3565b600082019050919050565b6000613bf482613bc6565b9150819050919050565b60008190508160005260206000209050919050565b60008154613c208161391b565b613c2a81866131f5565b94506001821660008114613c455760018114613c5757613c8a565b60ff1983168652602086019350613c8a565b613c6085613bfe565b60005b83811015613c8257815481890152600182019150602081019050613c63565b808801955050505b50505092915050565b60006020820190508181036000830152613cad8184613c13565b905092915050565b7f50726573616c65206973206e6f74206163746976650000000000000000000000600082015250565b6000613ceb6015836131f5565b9150613cf682613cb5565b602082019050919050565b60006020820190508181036000830152613d1a81613cde565b9050919050565b6000613d2c826132a5565b9150613d37836132a5565b9250817fffffffffffffffffffffffffffffffffffffffffffffffffffffffffffffffff0483118215151615613d7057613d6f613a54565b5b828202905092915050565b7f4e6f7420656e6f756768206574682073656e7400000000000000000000000000600082015250565b6000613db16013836131f5565b9150613dbc82613d7b565b602082019050919050565b60006020820190508181036000830152613de081613da4565b9050919050565b7f41646472657373206e6f742077686974656c6973746564000000000000000000600082015250565b6000613e1d6017836131f5565b9150613e2882613de7565b602082019050919050565b60006020820190508181036000830152613e4c81613e10565b9050919050565b7f4f766572206d696e74206c696d69740000000000000000000000000000000000600082015250565b6000613e89600f836131f5565b9150613e9482613e53565b602082019050919050565b60006020820190508181036000830152613eb881613e7c565b9050919050565b7f4d6178206d696e7420737570706c792072656163686564000000000000000000600082015250565b6000613ef56017836131f5565b9150613f0082613ebf565b602082019050919050565b60006020820190508181036000830152613f2481613ee8565b9050919050565b7f526566756e642065787069726564000000000000000000000000000000000000600082015250565b6000613f61600e836131f5565b9150613f6c82613f2b565b602082019050919050565b60006020820190508181036000830152613f9081613f54565b9050919050565b7f4e6f7420746f6b656e206f776e65720000000000000000000000000000000000600082015250565b6000613fcd600f836131f5565b9150613fd882613f97565b602082019050919050565b60006020820190508181036000830152613ffc81613fc0565b9050919050565b7f416c726561647920726566756e64656400000000000000000000000000000000600082015250565b60006140396010836131f5565b915061404482614003565b602082019050919050565b600060208201905081810360008301526140688161402c565b9050919050565b7f467265656c79206d696e746564204e4654732063616e6e6f742062652072656660008201527f756e646564000000000000000000000000000000000000000000000000000000602082015250565b60006140cb6025836131f5565b91506140d68261406f565b604082019050919050565b600060208201905081810360008301526140fa816140be565b9050919050565b7f5075626c69632073616c65206973206e6f742061637469766500000000000000600082015250565b60006141376019836131f5565b915061414282614101565b602082019050919050565b600060208201905081810360008301526141668161412a565b9050919050565b7f4552433732314d657461646174613a2055524920717565727920666f72206e6f60008201527f6e6578697374656e7420746f6b656e0000000000000000000000000000000000602082015250565b60006141c9602f836131f5565b91506141d48261416d565b604082019050919050565b600060208201905081810360008301526141f8816141bc565b9050919050565b600081905092915050565b6000614215826131ea565b61421f81856141ff565b935061422f818560208601613206565b80840191505092915050565b600081546142488161391b565b61425281866141ff565b9450600182166000811461426d576001811461427e576142b1565b60ff198316865281860193506142b1565b61428785613bfe565b60005b838110156142a95781548189015260018201915060208101905061428a565b838801955050505b50505092915050565b60006142c6828661420a565b91506142d2828561420a565b91506142de828461423b565b9150819050949350505050565b60006142f6826132a5565b9150614301836132a5565b92508282101561431457614313613a54565b5b828203905092915050565b7f4f776e61626c653a206e6577206f776e657220697320746865207a65726f206160008201527f6464726573730000000000000000000000000000000000000000000000000000602082015250565b600061437b6026836131f5565b91506143868261431f565b604082019050919050565b600060208201905081810360008301526143aa8161436e565b9050919050565b7f4d6178696d756d20557365727320616c72656164792077686974656c6973746560008201527f6400000000000000000000000000000000000000000000000000000000000000602082015250565b600061440d6021836131f5565b9150614418826143b1565b604082019050919050565b6000602082019050818103600083015261443c81614400565b9050919050565b7f4f776e61626c653a2063616c6c6572206973206e6f7420746865206f776e6572600082015250565b60006144796020836131f5565b915061448482614443565b602082019050919050565b600060208201905081810360008301526144a88161446c565b9050919050565b600081519050919050565b600082825260208201905092915050565b60006144d6826144af565b6144e081856144ba565b93506144f0818560208601613206565b6144f981613239565b840191505092915050565b6000608082019050614519600083018761333a565b614526602083018661333a565b614533604083018561357b565b818103606083015261454581846144cb565b905095945050505050565b60008151905061455f81613102565b92915050565b60006020828403121561457b5761457a6130cc565b5b600061458984828501614550565b91505092915050565b7f4e487b7100000000000000000000000000000000000000000000000000000000600052601260045260246000fd5b60006145cc826132a5565b91506145d7836132a5565b9250826145e7576145e6614592565b5b828204905092915050565b60006145fd826132a5565b9150614608836132a5565b92508261461857614617614592565b5b82820690509291505056fea2646970667358221220f4c4932111176606e231e5d48d30a1052f114dcf872ba1c268ab51f758f58a2464736f6c63430008090033",
  "linkReferences": {},
  "deployedLinkReferences": {}
}