{
  "_format": "hh-sol-artifact-1",
  "contractName": "ERC721RFactory",
  "sourceName": "contracts/factoryContracts/ERC721RFactory.sol",
  "abi": [
    {
      "inputs": [
        {
          "internalType": "string",
          "name": "name",
          "type": "string"
        },
        {
          "internalType": "string",
          "name": "symbol",
          "type": "string"
        },
        {
          "internalType": "uint256",
          "name": "mintSupply",
          "type": "uint256"
        },
        {
          "internalType": "uint256",
          "name": "mintingPrice",
          "type": "uint256"
        },
        {
          "internalType": "uint256",
          "name": "refundTime",
          "type": "uint256"
        },
        {
          "internalType": "uint256",
          "name": "maxMintPerUser",
          "type": "uint256"
        }
      ],
      "stateMutability": "nonpayable",
      "type": "constructor"
    },
    {
      "inputs": [],
      "name": "ApprovalCallerNotOwnerNorApproved",
      "type": "error"
    },
    {
      "inputs": [],
      "name": "ApprovalQueryForNonexistentToken",
      "type": "error"
    },
    {
      "inputs": [],
      "name": "ApprovalToCurrentOwner",
      "type": "error"
    },
    {
      "inputs": [],
      "name": "ApproveToCaller",
      "type": "error"
    },
    {
      "inputs": [],
      "name": "BalanceQueryForZeroAddress",
      "type": "error"
    },
    {
      "inputs": [],
      "name": "MintToZeroAddress",
      "type": "error"
    },
    {
      "inputs": [],
      "name": "MintZeroQuantity",
      "type": "error"
    },
    {
      "inputs": [],
      "name": "OwnerQueryForNonexistentToken",
      "type": "error"
    },
    {
      "inputs": [],
      "name": "TransferCallerNotOwnerNorApproved",
      "type": "error"
    },
    {
      "inputs": [],
      "name": "TransferFromIncorrectOwner",
      "type": "error"
    },
    {
      "inputs": [],
      "name": "TransferToNonERC721ReceiverImplementer",
      "type": "error"
    },
    {
      "inputs": [],
      "name": "TransferToZeroAddress",
      "type": "error"
    },
    {
      "inputs": [],
      "name": "URIQueryForNonexistentToken",
      "type": "error"
    },
    {
      "anonymous": false,
      "inputs": [
        {
          "indexed": true,
          "internalType": "address",
          "name": "owner",
          "type": "address"
        },
        {
          "indexed": true,
          "internalType": "address",
          "name": "approved",
          "type": "address"
        },
        {
          "indexed": true,
          "internalType": "uint256",
          "name": "tokenId",
          "type": "uint256"
        }
      ],
      "name": "Approval",
      "type": "event"
    },
    {
      "anonymous": false,
      "inputs": [
        {
          "indexed": true,
          "internalType": "address",
          "name": "owner",
          "type": "address"
        },
        {
          "indexed": true,
          "internalType": "address",
          "name": "operator",
          "type": "address"
        },
        {
          "indexed": false,
          "internalType": "bool",
          "name": "approved",
          "type": "bool"
        }
      ],
      "name": "ApprovalForAll",
      "type": "event"
    },
    {
      "anonymous": false,
      "inputs": [
        {
          "indexed": false,
          "internalType": "string",
          "name": "uri",
          "type": "string"
        }
      ],
      "name": "BaseURI",
      "type": "event"
    },
    {
      "anonymous": false,
      "inputs": [
        {
          "indexed": true,
          "internalType": "address",
          "name": "previousOwner",
          "type": "address"
        },
        {
          "indexed": true,
          "internalType": "address",
          "name": "newOwner",
          "type": "address"
        }
      ],
      "name": "OwnershipTransferred",
      "type": "event"
    },
    {
      "anonymous": false,
      "inputs": [
        {
          "indexed": false,
          "internalType": "bool",
          "name": "presaleActive",
          "type": "bool"
        }
      ],
      "name": "PresaleToggled",
      "type": "event"
    },
    {
      "anonymous": false,
      "inputs": [
        {
          "indexed": false,
          "internalType": "bool",
          "name": "publicSaleActive",
          "type": "bool"
        }
      ],
      "name": "PublicSaleSet",
      "type": "event"
    },
    {
      "anonymous": false,
      "inputs": [
        {
          "indexed": false,
          "internalType": "uint256",
          "name": "refundEndTime",
          "type": "uint256"
        }
      ],
      "name": "RefundCountDownSet",
      "type": "event"
    },
    {
      "anonymous": false,
      "inputs": [
        {
          "indexed": true,
          "internalType": "address",
          "name": "from",
          "type": "address"
        },
        {
          "indexed": true,
          "internalType": "address",
          "name": "to",
          "type": "address"
        },
        {
          "indexed": true,
          "internalType": "uint256",
          "name": "tokenId",
          "type": "uint256"
        }
      ],
      "name": "Transfer",
      "type": "event"
    },
    {
      "anonymous": false,
      "inputs": [
        {
          "indexed": false,
          "internalType": "bool",
          "name": "whitelistEnabled",
          "type": "bool"
        }
      ],
      "name": "WhiteListEnabled",
      "type": "event"
    },
    {
      "inputs": [],
      "name": "_currentIndex",
      "outputs": [
        {
          "internalType": "uint256",
          "name": "",
          "type": "uint256"
        }
      ],
      "stateMutability": "view",
      "type": "function"
    },
    {
      "inputs": [],
      "name": "_name",
      "outputs": [
        {
          "internalType": "string",
          "name": "",
          "type": "string"
        }
      ],
      "stateMutability": "view",
      "type": "function"
    },
    {
      "inputs": [],
      "name": "_symbol",
      "outputs": [
        {
          "internalType": "string",
          "name": "",
          "type": "string"
        }
      ],
      "stateMutability": "view",
      "type": "function"
    },
    {
      "inputs": [
        {
          "internalType": "address",
          "name": "to",
          "type": "address"
        },
        {
          "internalType": "uint256",
          "name": "tokenId",
          "type": "uint256"
        }
      ],
      "name": "approve",
      "outputs": [],
      "stateMutability": "nonpayable",
      "type": "function"
    },
    {
      "inputs": [
        {
          "internalType": "address",
          "name": "owner",
          "type": "address"
        }
      ],
      "name": "balanceOf",
      "outputs": [
        {
          "internalType": "uint256",
          "name": "",
          "type": "uint256"
        }
      ],
      "stateMutability": "view",
      "type": "function"
    },
    {
      "inputs": [
        {
          "internalType": "uint256",
          "name": "tokenId",
          "type": "uint256"
        }
      ],
      "name": "getApproved",
      "outputs": [
        {
          "internalType": "address",
          "name": "",
          "type": "address"
        }
      ],
      "stateMutability": "view",
      "type": "function"
    },
    {
      "inputs": [],
      "name": "getRefundGuaranteeEndTime",
      "outputs": [
        {
          "internalType": "uint256",
          "name": "",
          "type": "uint256"
        }
      ],
      "stateMutability": "view",
      "type": "function"
    },
    {
      "inputs": [
        {
          "internalType": "uint256",
          "name": "",
          "type": "uint256"
        }
      ],
      "name": "hasRefunded",
      "outputs": [
        {
          "internalType": "bool",
          "name": "",
          "type": "bool"
        }
      ],
      "stateMutability": "view",
      "type": "function"
    },
    {
      "inputs": [
        {
          "internalType": "address",
          "name": "owner",
          "type": "address"
        },
        {
          "internalType": "address",
          "name": "operator",
          "type": "address"
        }
      ],
      "name": "isApprovedForAll",
      "outputs": [
        {
          "internalType": "bool",
          "name": "",
          "type": "bool"
        }
      ],
      "stateMutability": "view",
      "type": "function"
    },
    {
      "inputs": [
        {
          "internalType": "uint256",
          "name": "",
          "type": "uint256"
        }
      ],
      "name": "isOwnerMint",
      "outputs": [
        {
          "internalType": "bool",
          "name": "",
          "type": "bool"
        }
      ],
      "stateMutability": "view",
      "type": "function"
    },
    {
      "inputs": [],
      "name": "isRefundGuaranteeActive",
      "outputs": [
        {
          "internalType": "bool",
          "name": "",
          "type": "bool"
        }
      ],
      "stateMutability": "view",
      "type": "function"
    },
    {
      "inputs": [],
      "name": "maxMintSupply",
      "outputs": [
        {
          "internalType": "uint256",
          "name": "",
          "type": "uint256"
        }
      ],
      "stateMutability": "view",
      "type": "function"
    },
    {
      "inputs": [],
      "name": "maxUserMintAmount",
      "outputs": [
        {
          "internalType": "uint256",
          "name": "",
          "type": "uint256"
        }
      ],
      "stateMutability": "view",
      "type": "function"
    },
    {
      "inputs": [],
      "name": "mintPrice",
      "outputs": [
        {
          "internalType": "uint256",
          "name": "",
          "type": "uint256"
        }
      ],
      "stateMutability": "view",
      "type": "function"
    },
    {
      "inputs": [],
      "name": "name",
      "outputs": [
        {
          "internalType": "string",
          "name": "",
          "type": "string"
        }
      ],
      "stateMutability": "view",
      "type": "function"
    },
    {
      "inputs": [],
      "name": "owner",
      "outputs": [
        {
          "internalType": "address",
          "name": "",
          "type": "address"
        }
      ],
      "stateMutability": "view",
      "type": "function"
    },
    {
      "inputs": [
        {
          "internalType": "uint256",
          "name": "quantity",
          "type": "uint256"
        }
      ],
      "name": "ownerMint",
      "outputs": [],
      "stateMutability": "nonpayable",
      "type": "function"
    },
    {
      "inputs": [
        {
          "internalType": "uint256",
          "name": "tokenId",
          "type": "uint256"
        }
      ],
      "name": "ownerOf",
      "outputs": [
        {
          "internalType": "address",
          "name": "",
          "type": "address"
        }
      ],
      "stateMutability": "view",
      "type": "function"
    },
    {
      "inputs": [
        {
          "internalType": "uint256",
          "name": "quantity",
          "type": "uint256"
        }
      ],
      "name": "preSaleMint",
      "outputs": [],
      "stateMutability": "payable",
      "type": "function"
    },
    {
      "inputs": [],
      "name": "presaleActive",
      "outputs": [
        {
          "internalType": "bool",
          "name": "",
          "type": "bool"
        }
      ],
      "stateMutability": "view",
      "type": "function"
    },
    {
      "inputs": [],
      "name": "publicSaleActive",
      "outputs": [
        {
          "internalType": "bool",
          "name": "",
          "type": "bool"
        }
      ],
      "stateMutability": "view",
      "type": "function"
    },
    {
      "inputs": [
        {
          "internalType": "uint256",
          "name": "quantity",
          "type": "uint256"
        }
      ],
      "name": "publicSaleMint",
      "outputs": [],
      "stateMutability": "payable",
      "type": "function"
    },
    {
      "inputs": [
        {
          "internalType": "uint256[]",
          "name": "tokenIds",
          "type": "uint256[]"
        }
      ],
      "name": "refund",
      "outputs": [],
      "stateMutability": "nonpayable",
      "type": "function"
    },
    {
      "inputs": [],
      "name": "refundAddress",
      "outputs": [
        {
          "internalType": "address",
          "name": "",
          "type": "address"
        }
      ],
      "stateMutability": "view",
      "type": "function"
    },
    {
      "inputs": [],
      "name": "refundEndTime",
      "outputs": [
        {
          "internalType": "uint256",
          "name": "",
          "type": "uint256"
        }
      ],
      "stateMutability": "view",
      "type": "function"
    },
    {
      "inputs": [],
      "name": "refundPeriod",
      "outputs": [
        {
          "internalType": "uint256",
          "name": "",
          "type": "uint256"
        }
      ],
      "stateMutability": "view",
      "type": "function"
    },
    {
      "inputs": [
        {
          "internalType": "address[]",
          "name": "currentAddresses",
          "type": "address[]"
        }
      ],
      "name": "removeWhitelist",
      "outputs": [],
      "stateMutability": "nonpayable",
      "type": "function"
    },
    {
      "inputs": [],
      "name": "renounceOwnership",
      "outputs": [],
      "stateMutability": "nonpayable",
      "type": "function"
    },
    {
      "inputs": [
        {
          "internalType": "address",
          "name": "from",
          "type": "address"
        },
        {
          "internalType": "address",
          "name": "to",
          "type": "address"
        },
        {
          "internalType": "uint256",
          "name": "tokenId",
          "type": "uint256"
        }
      ],
      "name": "safeTransferFrom",
      "outputs": [],
      "stateMutability": "nonpayable",
      "type": "function"
    },
    {
      "inputs": [
        {
          "internalType": "address",
          "name": "from",
          "type": "address"
        },
        {
          "internalType": "address",
          "name": "to",
          "type": "address"
        },
        {
          "internalType": "uint256",
          "name": "tokenId",
          "type": "uint256"
        },
        {
          "internalType": "bytes",
          "name": "_data",
          "type": "bytes"
        }
      ],
      "name": "safeTransferFrom",
      "outputs": [],
      "stateMutability": "nonpayable",
      "type": "function"
    },
    {
      "inputs": [
        {
          "internalType": "address",
          "name": "operator",
          "type": "address"
        },
        {
          "internalType": "bool",
          "name": "approved",
          "type": "bool"
        }
      ],
      "name": "setApprovalForAll",
      "outputs": [],
      "stateMutability": "nonpayable",
      "type": "function"
    },
    {
      "inputs": [
        {
          "internalType": "string",
          "name": "uri",
          "type": "string"
        }
      ],
      "name": "setBaseURI",
      "outputs": [],
      "stateMutability": "nonpayable",
      "type": "function"
    },
    {
      "inputs": [
        {
          "internalType": "address",
          "name": "_refundAddress",
          "type": "address"
        }
      ],
      "name": "setRefundAddress",
      "outputs": [],
      "stateMutability": "nonpayable",
      "type": "function"
    },
    {
      "inputs": [
        {
          "internalType": "string",
          "name": "_uriSuffix",
          "type": "string"
        }
      ],
      "name": "setUriSuffix",
      "outputs": [],
      "stateMutability": "nonpayable",
      "type": "function"
    },
    {
      "inputs": [
        {
          "internalType": "address[]",
          "name": "newAddresses",
          "type": "address[]"
        }
      ],
      "name": "setWhitelist",
      "outputs": [],
      "stateMutability": "nonpayable",
      "type": "function"
    },
    {
      "inputs": [
        {
          "internalType": "bool",
          "name": "_state",
          "type": "bool"
        }
      ],
      "name": "setWhitelistEnabled",
      "outputs": [],
      "stateMutability": "nonpayable",
      "type": "function"
    },
    {
      "inputs": [
        {
          "internalType": "bytes4",
          "name": "interfaceId",
          "type": "bytes4"
        }
      ],
      "name": "supportsInterface",
      "outputs": [
        {
          "internalType": "bool",
          "name": "",
          "type": "bool"
        }
      ],
      "stateMutability": "view",
      "type": "function"
    },
    {
      "inputs": [],
      "name": "symbol",
      "outputs": [
        {
          "internalType": "string",
          "name": "",
          "type": "string"
        }
      ],
      "stateMutability": "view",
      "type": "function"
    },
    {
      "inputs": [],
      "name": "togglePresaleStatus",
      "outputs": [],
      "stateMutability": "nonpayable",
      "type": "function"
    },
    {
      "inputs": [],
      "name": "togglePublicSaleStatus",
      "outputs": [],
      "stateMutability": "nonpayable",
      "type": "function"
    },
    {
      "inputs": [],
      "name": "toggleRefundCountdown",
      "outputs": [],
      "stateMutability": "nonpayable",
      "type": "function"
    },
    {
      "inputs": [
        {
          "internalType": "uint256",
          "name": "_tokenId",
          "type": "uint256"
        }
      ],
      "name": "tokenURI",
      "outputs": [
        {
          "internalType": "string",
          "name": "",
          "type": "string"
        }
      ],
      "stateMutability": "view",
      "type": "function"
    },
    {
      "inputs": [],
      "name": "totalSupply",
      "outputs": [
        {
          "internalType": "uint256",
          "name": "",
          "type": "uint256"
        }
      ],
      "stateMutability": "view",
      "type": "function"
    },
    {
      "inputs": [
        {
          "internalType": "address",
          "name": "from",
          "type": "address"
        },
        {
          "internalType": "address",
          "name": "to",
          "type": "address"
        },
        {
          "internalType": "uint256",
          "name": "tokenId",
          "type": "uint256"
        }
      ],
      "name": "transferFrom",
      "outputs": [],
      "stateMutability": "nonpayable",
      "type": "function"
    },
    {
      "inputs": [
        {
          "internalType": "address",
          "name": "newOwner",
          "type": "address"
        }
      ],
      "name": "transferOwnership",
      "outputs": [],
      "stateMutability": "nonpayable",
      "type": "function"
    },
    {
      "inputs": [],
      "name": "uriSuffix",
      "outputs": [
        {
          "internalType": "string",
          "name": "",
          "type": "string"
        }
      ],
      "stateMutability": "view",
      "type": "function"
    },
    {
      "inputs": [
        {
          "internalType": "address",
          "name": "",
          "type": "address"
        }
      ],
      "name": "whitelist",
      "outputs": [
        {
          "internalType": "bool",
          "name": "",
          "type": "bool"
        }
      ],
      "stateMutability": "view",
      "type": "function"
    },
    {
      "inputs": [],
      "name": "whitelistEnabled",
      "outputs": [
        {
          "internalType": "bool",
          "name": "",
          "type": "bool"
        }
      ],
      "stateMutability": "view",
      "type": "function"
    },
    {
      "inputs": [],
      "name": "withdraw",
      "outputs": [],
      "stateMutability": "nonpayable",
      "type": "function"
    }
  ],
  "bytecode": "0x60806040526040518060400160405280600581526020017f2e6a736f6e000000000000000000000000000000000000000000000000000000815250600d908051906020019062000051929190620003de565b506000601160146101000a81548160ff02191690831515021790555060006012553480156200007f57600080fd5b5060405162004f8638038062004f868339818101604052810190620000a5919062000666565b85858160029080519060200190620000bf929190620003de565b508060039080519060200190620000d8929190620003de565b50620000e9620001ed60201b60201c565b60008190555050506200011162000105620001f260201b60201c565b620001fa60201b60201c565b6000869050600086905060008251141580156200013057506000815114155b62000172576040517f08c379a00000000000000000000000000000000000000000000000000000000081526004016200016990620007c7565b60405180910390fd5b33601160006101000a81548173ffffffffffffffffffffffffffffffffffffffff021916908373ffffffffffffffffffffffffffffffffffffffff1602179055508560098190555084600a8190555083600f8190555082600b81905550620001df620002c060201b60201c565b50505050505050506200097a565b600090565b600033905090565b6000600860009054906101000a900473ffffffffffffffffffffffffffffffffffffffff16905081600860006101000a81548173ffffffffffffffffffffffffffffffffffffffff021916908373ffffffffffffffffffffffffffffffffffffffff1602179055508173ffffffffffffffffffffffffffffffffffffffff168173ffffffffffffffffffffffffffffffffffffffff167f8be0079c531659141344cd1fd0a4f28419497f9722a3daafe3b4186f6b6457e060405160405180910390a35050565b620002d06200032360201b60201c565b600f5442620002e0919062000818565b6010819055507f8c7f828c45e9721cfd644b2a4f2ff1eba1c36125ea260c43c4d47ebcb59d314160105460405162000319919062000886565b60405180910390a1565b62000333620001f260201b60201c565b73ffffffffffffffffffffffffffffffffffffffff1662000359620003b460201b60201c565b73ffffffffffffffffffffffffffffffffffffffff1614620003b2576040517f08c379a0000000000000000000000000000000000000000000000000000000008152600401620003a990620008f3565b60405180910390fd5b565b6000600860009054906101000a900473ffffffffffffffffffffffffffffffffffffffff16905090565b828054620003ec9062000944565b90600052602060002090601f0160209004810192826200041057600085556200045c565b82601f106200042b57805160ff19168380011785556200045c565b828001600101855582156200045c579182015b828111156200045b5782518255916020019190600101906200043e565b5b5090506200046b91906200046f565b5090565b5b808211156200048a57600081600090555060010162000470565b5090565b6000604051905090565b600080fd5b600080fd5b600080fd5b600080fd5b6000601f19601f8301169050919050565b7f4e487b7100000000000000000000000000000000000000000000000000000000600052604160045260246000fd5b620004f782620004ac565b810181811067ffffffffffffffff82111715620005195762000518620004bd565b5b80604052505050565b60006200052e6200048e565b90506200053c8282620004ec565b919050565b600067ffffffffffffffff8211156200055f576200055e620004bd565b5b6200056a82620004ac565b9050602081019050919050565b60005b83811015620005975780820151818401526020810190506200057a565b83811115620005a7576000848401525b50505050565b6000620005c4620005be8462000541565b62000522565b905082815260208101848484011115620005e357620005e2620004a7565b5b620005f084828562000577565b509392505050565b600082601f83011262000610576200060f620004a2565b5b815162000622848260208601620005ad565b91505092915050565b6000819050919050565b62000640816200062b565b81146200064c57600080fd5b50565b600081519050620006608162000635565b92915050565b60008060008060008060c0878903121562000686576200068562000498565b5b600087015167ffffffffffffffff811115620006a757620006a66200049d565b5b620006b589828a01620005f8565b965050602087015167ffffffffffffffff811115620006d957620006d86200049d565b5b620006e789828a01620005f8565b9550506040620006fa89828a016200064f565b94505060606200070d89828a016200064f565b93505060806200072089828a016200064f565b92505060a06200073389828a016200064f565b9150509295509295509295565b600082825260208201905092915050565b7f455243373231523a2043686f6f73652061206e616d6520616e642073796d626f60008201527f6c00000000000000000000000000000000000000000000000000000000000000602082015250565b6000620007af60218362000740565b9150620007bc8262000751565b604082019050919050565b60006020820190508181036000830152620007e281620007a0565b9050919050565b7f4e487b7100000000000000000000000000000000000000000000000000000000600052601160045260246000fd5b600062000825826200062b565b915062000832836200062b565b9250827fffffffffffffffffffffffffffffffffffffffffffffffffffffffffffffffff038211156200086a5762000869620007e9565b5b828201905092915050565b62000880816200062b565b82525050565b60006020820190506200089d600083018462000875565b92915050565b7f4f776e61626c653a2063616c6c6572206973206e6f7420746865206f776e6572600082015250565b6000620008db60208362000740565b9150620008e882620008a3565b602082019050919050565b600060208201905081810360008301526200090e81620008cc565b9050919050565b7f4e487b7100000000000000000000000000000000000000000000000000000000600052602260045260246000fd5b600060028204905060018216806200095d57607f821691505b6020821081141562000974576200097362000915565b5b50919050565b6145fc806200098a6000396000f3fe6080604052600436106102ae5760003560e01c80637bffb4ce11610175578063b9ad9fde116100dc578063d28d885211610095578063f2fde38b1161006f578063f2fde38b14610a38578063f421764814610a61578063f7a3031314610a8a578063faf762bd14610ac7576102ae565b8063d28d8852146109a7578063e985e9c5146109d2578063f19e75d414610a0f576102ae565b8063b9ad9fde14610895578063bc8893b4146108ac578063c23fcdef146108d7578063c285e10714610914578063c4ea08451461093f578063c87b56dd1461096a576102ae565b8063a22cb4651161012e578063a22cb465146107a8578063a6a3b5b4146107d1578063aa613df5146107fc578063b09f126614610825578063b3ab66b014610850578063b88d4fde1461086c576102ae565b80637bffb4ce146106a85780638da5cb5b146106bf578063921d28a9146106ea5780639451c99a1461071557806395d89b41146107405780639b19251a1461076b576102ae565b80633ccfd60b116102195780636352211e116101d25780636352211e146105a55780636817c76c146105e257806370a082311461060d578063715018a61461064a57806373fddd16146106615780637835c6351461068c576102ae565b80633ccfd60b146104bb57806342842e0e146104d257806351fb012d146104fb57806353135ca0146105265780635503a0e81461055157806355f804b31461057c576102ae565b806315b75bea1161026b57806315b75bea146103d557806316ba10e0146103fe57806318160ddd14610427578063232452161461045257806323b872dd1461047b5780632e9be821146104a4576102ae565b806301ffc9a7146102b3578063052d9e7e146102f057806306fdde0314610319578063081812fc14610344578063095ea7b3146103815780630cb61f6c146103aa575b600080fd5b3480156102bf57600080fd5b506102da60048036038101906102d591906130d1565b610af2565b6040516102e79190613119565b60405180910390f35b3480156102fc57600080fd5b5061031760048036038101906103129190613160565b610b84565b005b34801561032557600080fd5b5061032e610bef565b60405161033b9190613226565b60405180910390f35b34801561035057600080fd5b5061036b6004803603810190610366919061327e565b610c81565b60405161037891906132ec565b60405180910390f35b34801561038d57600080fd5b506103a860048036038101906103a39190613333565b610cfd565b005b3480156103b657600080fd5b506103bf610ea4565b6040516103cc91906132ec565b60405180910390f35b3480156103e157600080fd5b506103fc60048036038101906103f79190613373565b610eca565b005b34801561040a57600080fd5b50610425600480360381019061042091906134d5565b610f16565b005b34801561043357600080fd5b5061043c610f38565b604051610449919061352d565b60405180910390f35b34801561045e57600080fd5b50610479600480360381019061047491906135a8565b610f4f565b005b34801561048757600080fd5b506104a2600480360381019061049d91906135f5565b611098565b005b3480156104b057600080fd5b506104b96110a8565b005b3480156104c757600080fd5b506104d06110ff565b005b3480156104de57600080fd5b506104f960048036038101906104f491906135f5565b6111cb565b005b34801561050757600080fd5b506105106111eb565b60405161051d9190613119565b60405180910390f35b34801561053257600080fd5b5061053b6111fe565b6040516105489190613119565b60405180910390f35b34801561055d57600080fd5b50610566611211565b6040516105739190613226565b60405180910390f35b34801561058857600080fd5b506105a3600480360381019061059e91906134d5565b61129f565b005b3480156105b157600080fd5b506105cc60048036038101906105c7919061327e565b6112f9565b6040516105d991906132ec565b60405180910390f35b3480156105ee57600080fd5b506105f761130b565b604051610604919061352d565b60405180910390f35b34801561061957600080fd5b50610634600480360381019061062f9190613373565b611311565b604051610641919061352d565b60405180910390f35b34801561065657600080fd5b5061065f6113a6565b005b34801561066d57600080fd5b506106766113ba565b604051610683919061352d565b60405180910390f35b6106a660048036038101906106a1919061327e565b6113c0565b005b3480156106b457600080fd5b506106bd6115c4565b005b3480156106cb57600080fd5b506106d461163e565b6040516106e191906132ec565b60405180910390f35b3480156106f657600080fd5b506106ff611668565b60405161070c919061352d565b60405180910390f35b34801561072157600080fd5b5061072a61166e565b604051610737919061352d565b60405180910390f35b34801561074c57600080fd5b50610755611674565b6040516107629190613226565b60405180910390f35b34801561077757600080fd5b50610792600480360381019061078d9190613373565b611706565b60405161079f9190613119565b60405180910390f35b3480156107b457600080fd5b506107cf60048036038101906107ca9190613648565b611726565b005b3480156107dd57600080fd5b506107e661189e565b6040516107f3919061352d565b60405180910390f35b34801561080857600080fd5b50610823600480360381019061081e91906136de565b6118a4565b005b34801561083157600080fd5b5061083a611b4e565b6040516108479190613226565b60405180910390f35b61086a6004803603810190610865919061327e565b611bdc565b005b34801561087857600080fd5b50610893600480360381019061088e91906137cc565b611d37565b005b3480156108a157600080fd5b506108aa611daa565b005b3480156108b857600080fd5b506108c1611e24565b6040516108ce9190613119565b60405180910390f35b3480156108e357600080fd5b506108fe60048036038101906108f9919061327e565b611e37565b60405161090b9190613119565b60405180910390f35b34801561092057600080fd5b50610929611e57565b604051610936919061352d565b60405180910390f35b34801561094b57600080fd5b50610954611e5d565b6040516109619190613119565b60405180910390f35b34801561097657600080fd5b50610991600480360381019061098c919061327e565b611e6a565b60405161099e9190613226565b60405180910390f35b3480156109b357600080fd5b506109bc611f14565b6040516109c99190613226565b60405180910390f35b3480156109de57600080fd5b506109f960048036038101906109f4919061384f565b611fa2565b604051610a069190613119565b60405180910390f35b348015610a1b57600080fd5b50610a366004803603810190610a31919061327e565b612036565b005b348015610a4457600080fd5b50610a5f6004803603810190610a5a9190613373565b6120a2565b005b348015610a6d57600080fd5b50610a886004803603810190610a8391906135a8565b612126565b005b348015610a9657600080fd5b50610ab16004803603810190610aac919061327e565b6122be565b604051610abe9190613119565b60405180910390f35b348015610ad357600080fd5b50610adc6122de565b604051610ae9919061352d565b60405180910390f35b60006301ffc9a760e01b827bffffffffffffffffffffffffffffffffffffffffffffffffffffffff19161480610b4d57506380ac58cd60e01b827bffffffffffffffffffffffffffffffffffffffffffffffffffffffff1916145b80610b7d5750635b5e139f60e01b827bffffffffffffffffffffffffffffffffffffffffffffffffffffffff1916145b9050919050565b610b8c6122e8565b80601160146101000a81548160ff0219169083151502179055507f218e591c4b0d49651b4b42843cb8cc59080122def3d2271f56ef2e21896753ec601160149054906101000a900460ff16604051610be49190613119565b60405180910390a150565b606060028054610bfe906138be565b80601f0160208091040260200160405190810160405280929190818152602001828054610c2a906138be565b8015610c775780601f10610c4c57610100808354040283529160200191610c77565b820191906000526020600020905b815481529060010190602001808311610c5a57829003601f168201915b5050505050905090565b6000610c8c82612366565b610cc2576040517fcf4700e400000000000000000000000000000000000000000000000000000000815260040160405180910390fd5b6006600083815260200190815260200160002060009054906101000a900473ffffffffffffffffffffffffffffffffffffffff169050919050565b6000610d08826123c5565b90508073ffffffffffffffffffffffffffffffffffffffff168373ffffffffffffffffffffffffffffffffffffffff161415610d70576040517f943f7b8c00000000000000000000000000000000000000000000000000000000815260040160405180910390fd5b8073ffffffffffffffffffffffffffffffffffffffff16610d8f612493565b73ffffffffffffffffffffffffffffffffffffffff1614610df257610dbb81610db6612493565b611fa2565b610df1576040517fcfb3b94200000000000000000000000000000000000000000000000000000000815260040160405180910390fd5b5b826006600084815260200190815260200160002060006101000a81548173ffffffffffffffffffffffffffffffffffffffff021916908373ffffffffffffffffffffffffffffffffffffffff160217905550818373ffffffffffffffffffffffffffffffffffffffff168273ffffffffffffffffffffffffffffffffffffffff167f8c5be1e5ebec7d5bd14f71427d1e84f3dd0314c0f7b2291e5b200ac8c7c3b92560405160405180910390a4505050565b601160009054906101000a900473ffffffffffffffffffffffffffffffffffffffff1681565b610ed26122e8565b80601160006101000a81548173ffffffffffffffffffffffffffffffffffffffff021916908373ffffffffffffffffffffffffffffffffffffffff16021790555050565b610f1e6122e8565b80600d9080519060200190610f34929190612fc2565b5050565b6000610f4261249b565b6001546000540303905090565b610f576122e8565b60008282905011610f9d576040517f08c379a0000000000000000000000000000000000000000000000000000000008152600401610f949061393c565b60405180910390fd5b6005828290501115610fe4576040517f08c379a0000000000000000000000000000000000000000000000000000000008152600401610fdb906139a8565b60405180910390fd5b60005b828290508110156110935760136000848484818110611009576110086139c8565b5b905060200201602081019061101e9190613373565b73ffffffffffffffffffffffffffffffffffffffff1673ffffffffffffffffffffffffffffffffffffffff16815260200190815260200160002060006101000a81549060ff02191690556012600081548092919061107b90613a26565b9190505550808061108b90613a50565b915050610fe7565b505050565b6110a38383836124a0565b505050565b6110b06122e8565b600f54426110be9190613a99565b6010819055507f8c7f828c45e9721cfd644b2a4f2ff1eba1c36125ea260c43c4d47ebcb59d31416010546040516110f5919061352d565b60405180910390a1565b6111076122e8565b601054421161114b576040517f08c379a000000000000000000000000000000000000000000000000000000000815260040161114290613b3b565b60405180910390fd5b600061115561163e565b73ffffffffffffffffffffffffffffffffffffffff164760405161117890613b8c565b60006040518083038185875af1925050503d80600081146111b5576040519150601f19603f3d011682016040523d82523d6000602084013e6111ba565b606091505b50509050806111c857600080fd5b50565b6111e683838360405180602001604052806000815250611d37565b505050565b601160149054906101000a900460ff1681565b600e60019054906101000a900460ff1681565b600d805461121e906138be565b80601f016020809104026020016040519081016040528092919081815260200182805461124a906138be565b80156112975780601f1061126c57610100808354040283529160200191611297565b820191906000526020600020905b81548152906001019060200180831161127a57829003601f168201915b505050505081565b6112a76122e8565b80600c90805190602001906112bd929190612fc2565b507f01e56a02aca7f26a28165a040851ba78f30282b55ca81c63a804cdc1e2dcea72600c6040516112ee9190613c36565b60405180910390a150565b6000611304826123c5565b9050919050565b600a5481565b60008061131d83612868565b1415611355576040517f8f4eb60400000000000000000000000000000000000000000000000000000000815260040160405180910390fd5b67ffffffffffffffff600560008473ffffffffffffffffffffffffffffffffffffffff1673ffffffffffffffffffffffffffffffffffffffff16815260200190815260200160002054169050919050565b6113ae6122e8565b6113b86000612872565b565b60105481565b600e60019054906101000a900460ff1661140f576040517f08c379a000000000000000000000000000000000000000000000000000000000815260040161140690613ca4565b60405180910390fd5b600a548161141d9190613cc4565b34101561145f576040517f08c379a000000000000000000000000000000000000000000000000000000000815260040161145690613d6a565b60405180910390fd5b60011515601160149054906101000a900460ff161515141561150857601360003373ffffffffffffffffffffffffffffffffffffffff1673ffffffffffffffffffffffffffffffffffffffff16815260200190815260200160002060009054906101000a900460ff16611507576040517f08c379a00000000000000000000000000000000000000000000000000000000081526004016114fe90613dd6565b60405180910390fd5b5b600b548161151533612938565b61151f9190613a99565b1115611560576040517f08c379a000000000000000000000000000000000000000000000000000000000815260040161155790613e42565b60405180910390fd5b6009548161156c61298f565b6115769190613a99565b11156115b7576040517f08c379a00000000000000000000000000000000000000000000000000000000081526004016115ae90613eae565b60405180910390fd5b6115c133826129a2565b50565b6115cc6122e8565b600e60019054906101000a900460ff1615600e60016101000a81548160ff0219169083151502179055507f1894dedbea928d98b9226ddf41dc827e1ce8e5b17fdef6cf7170b15d305dcfcb600e60019054906101000a900460ff166040516116349190613119565b60405180910390a1565b6000600860009054906101000a900473ffffffffffffffffffffffffffffffffffffffff16905090565b600b5481565b60005481565b606060038054611683906138be565b80601f01602080910402602001604051908101604052809291908181526020018280546116af906138be565b80156116fc5780601f106116d1576101008083540402835291602001916116fc565b820191906000526020600020905b8154815290600101906020018083116116df57829003601f168201915b5050505050905090565b60136020528060005260406000206000915054906101000a900460ff1681565b61172e612493565b73ffffffffffffffffffffffffffffffffffffffff168273ffffffffffffffffffffffffffffffffffffffff161415611793576040517fb06307db00000000000000000000000000000000000000000000000000000000815260040160405180910390fd5b80600760006117a0612493565b73ffffffffffffffffffffffffffffffffffffffff1673ffffffffffffffffffffffffffffffffffffffff16815260200190815260200160002060008473ffffffffffffffffffffffffffffffffffffffff1673ffffffffffffffffffffffffffffffffffffffff16815260200190815260200160002060006101000a81548160ff0219169083151502179055508173ffffffffffffffffffffffffffffffffffffffff1661184d612493565b73ffffffffffffffffffffffffffffffffffffffff167f17307eab39ab6107e8899845ad3d59bd9653f200f220920489ca2b5937696c31836040516118929190613119565b60405180910390a35050565b600f5481565b6118ac611e5d565b6118eb576040517f08c379a00000000000000000000000000000000000000000000000000000000081526004016118e290613f1a565b60405180910390fd5b60005b82829050811015611abc57600083838381811061190e5761190d6139c8565b5b905060200201359050611920816112f9565b73ffffffffffffffffffffffffffffffffffffffff163373ffffffffffffffffffffffffffffffffffffffff161461198d576040517f08c379a000000000000000000000000000000000000000000000000000000000815260040161198490613f86565b60405180910390fd5b6014600082815260200190815260200160002060009054906101000a900460ff16156119ee576040517f08c379a00000000000000000000000000000000000000000000000000000000081526004016119e590613ff2565b60405180910390fd5b6015600082815260200190815260200160002060009054906101000a900460ff1615611a4f576040517f08c379a0000000000000000000000000000000000000000000000000000000008152600401611a4690614084565b60405180910390fd5b60016014600083815260200190815260200160002060006101000a81548160ff021916908315150217905550611aa833601160009054906101000a900473ffffffffffffffffffffffffffffffffffffffff1683611098565b508080611ab490613a50565b9150506118ee565b506000600a5483839050611ad09190613cc4565b905060003373ffffffffffffffffffffffffffffffffffffffff1682604051611af890613b8c565b60006040518083038185875af1925050503d8060008114611b35576040519150601f19603f3d011682016040523d82523d6000602084013e611b3a565b606091505b5050905080611b4857600080fd5b50505050565b60038054611b5b906138be565b80601f0160208091040260200160405190810160405280929190818152602001828054611b87906138be565b8015611bd45780601f10611ba957610100808354040283529160200191611bd4565b820191906000526020600020905b815481529060010190602001808311611bb757829003601f168201915b505050505081565b600e60009054906101000a900460ff16611c2b576040517f08c379a0000000000000000000000000000000000000000000000000000000008152600401611c22906140f0565b60405180910390fd5b600a5481611c399190613cc4565b341015611c7b576040517f08c379a0000000000000000000000000000000000000000000000000000000008152600401611c7290613d6a565b60405180910390fd5b600b5481611c8833612938565b611c929190613a99565b1115611cd3576040517f08c379a0000000000000000000000000000000000000000000000000000000008152600401611cca90613e42565b60405180910390fd5b60095481611cdf61298f565b611ce99190613a99565b1115611d2a576040517f08c379a0000000000000000000000000000000000000000000000000000000008152600401611d2190613eae565b60405180910390fd5b611d3433826129a2565b50565b611d428484846124a0565b60008373ffffffffffffffffffffffffffffffffffffffff163b14611da457611d6d848484846129c0565b611da3576040517fd1a57ed600000000000000000000000000000000000000000000000000000000815260040160405180910390fd5b5b50505050565b611db26122e8565b600e60009054906101000a900460ff1615600e60006101000a81548160ff0219169083151502179055507f28b42d64cef88205a656230fafa4bc31b0bd28f99b5d006c276a037fb00ec969600e60009054906101000a900460ff16604051611e1a9190613119565b60405180910390a1565b600e60009054906101000a900460ff1681565b60146020528060005260406000206000915054906101000a900460ff1681565b60095481565b6000601054421115905090565b6060611e7582612366565b611eb4576040517f08c379a0000000000000000000000000000000000000000000000000000000008152600401611eab90614182565b60405180910390fd5b6000611ebe612b20565b90506000815111611ede5760405180602001604052806000815250611f0c565b80611ee884612bb2565b600d604051602001611efc9392919061425d565b6040516020818303038152906040525b915050919050565b60028054611f21906138be565b80601f0160208091040260200160405190810160405280929190818152602001828054611f4d906138be565b8015611f9a5780601f10611f6f57610100808354040283529160200191611f9a565b820191906000526020600020905b815481529060010190602001808311611f7d57829003601f168201915b505050505081565b6000600760008473ffffffffffffffffffffffffffffffffffffffff1673ffffffffffffffffffffffffffffffffffffffff16815260200190815260200160002060008373ffffffffffffffffffffffffffffffffffffffff1673ffffffffffffffffffffffffffffffffffffffff16815260200190815260200160002060009054906101000a900460ff16905092915050565b61203e6122e8565b6009548161204a61298f565b6120549190613a99565b1115612095576040517f08c379a000000000000000000000000000000000000000000000000000000000815260040161208c90613eae565b60405180910390fd5b61209f33826129a2565b50565b6120aa6122e8565b600073ffffffffffffffffffffffffffffffffffffffff168173ffffffffffffffffffffffffffffffffffffffff16141561211a576040517f08c379a000000000000000000000000000000000000000000000000000000000815260040161211190614300565b60405180910390fd5b61212381612872565b50565b61212e6122e8565b60008282905011612174576040517f08c379a000000000000000000000000000000000000000000000000000000000815260040161216b9061393c565b60405180910390fd5b6107d082829050106121bb576040517f08c379a00000000000000000000000000000000000000000000000000000000081526004016121b2906139a8565b60405180910390fd5b60005b828290508110156122b9576107d06012541061220f576040517f08c379a000000000000000000000000000000000000000000000000000000000815260040161220690614392565b60405180910390fd5b600160136000858585818110612228576122276139c8565b5b905060200201602081019061223d9190613373565b73ffffffffffffffffffffffffffffffffffffffff1673ffffffffffffffffffffffffffffffffffffffff16815260200190815260200160002060006101000a81548160ff021916908315150217905550601260008154809291906122a190613a50565b919050555080806122b190613a50565b9150506121be565b505050565b60156020528060005260406000206000915054906101000a900460ff1681565b6000601054905090565b6122f0612d13565b73ffffffffffffffffffffffffffffffffffffffff1661230e61163e565b73ffffffffffffffffffffffffffffffffffffffff1614612364576040517f08c379a000000000000000000000000000000000000000000000000000000000815260040161235b906143fe565b60405180910390fd5b565b60008161237161249b565b11158015612380575060005482105b80156123be575060007c0100000000000000000000000000000000000000000000000000000000600460008581526020019081526020016000205416145b9050919050565b600080829050806123d461249b565b1161245c5760005481101561245b5760006004600083815260200190815260200160002054905060007c010000000000000000000000000000000000000000000000000000000082161415612459575b600081141561244f576004600083600190039350838152602001908152602001600020549050612424565b809250505061248e565b505b5b6040517fdf2d9b4200000000000000000000000000000000000000000000000000000000815260040160405180910390fd5b919050565b600033905090565b600090565b60006124ab826123c5565b90508373ffffffffffffffffffffffffffffffffffffffff168173ffffffffffffffffffffffffffffffffffffffff1614612512576040517fa114810000000000000000000000000000000000000000000000000000000000815260040160405180910390fd5b60006006600084815260200190815260200160002060009054906101000a900473ffffffffffffffffffffffffffffffffffffffff16905060008573ffffffffffffffffffffffffffffffffffffffff1661256b612493565b73ffffffffffffffffffffffffffffffffffffffff16148061259a575061259986612594612493565b611fa2565b5b806125d757506125a8612493565b73ffffffffffffffffffffffffffffffffffffffff168273ffffffffffffffffffffffffffffffffffffffff16145b905080612610576040517f59c896be00000000000000000000000000000000000000000000000000000000815260040160405180910390fd5b600061261b86612868565b1415612653576040517fea553b3400000000000000000000000000000000000000000000000000000000815260040160405180910390fd5b6126608686866001612d1b565b600061266b83612868565b146126a7576006600085815260200190815260200160002060006101000a81549073ffffffffffffffffffffffffffffffffffffffff02191690555b600560008773ffffffffffffffffffffffffffffffffffffffff1673ffffffffffffffffffffffffffffffffffffffff168152602001908152602001600020600081546001900391905081905550600560008673ffffffffffffffffffffffffffffffffffffffff1673ffffffffffffffffffffffffffffffffffffffff16815260200190815260200160002060008154600101919050819055507c020000000000000000000000000000000000000000000000000000000060a042901b61276e87612868565b1717600460008681526020019081526020016000208190555060007c0200000000000000000000000000000000000000000000000000000000841614156127f85760006001850190506000600460008381526020019081526020016000205414156127f65760005481146127f5578360046000838152602001908152602001600020819055505b5b505b838573ffffffffffffffffffffffffffffffffffffffff168773ffffffffffffffffffffffffffffffffffffffff167fddf252ad1be2c89b69c2b068fc378daa952ba7f163c4a11628f55a4df523b3ef60405160405180910390a46128608686866001612d21565b505050505050565b6000819050919050565b6000600860009054906101000a900473ffffffffffffffffffffffffffffffffffffffff16905081600860006101000a81548173ffffffffffffffffffffffffffffffffffffffff021916908373ffffffffffffffffffffffffffffffffffffffff1602179055508173ffffffffffffffffffffffffffffffffffffffff168173ffffffffffffffffffffffffffffffffffffffff167f8be0079c531659141344cd1fd0a4f28419497f9722a3daafe3b4186f6b6457e060405160405180910390a35050565b600067ffffffffffffffff6040600560008573ffffffffffffffffffffffffffffffffffffffff1673ffffffffffffffffffffffffffffffffffffffff16815260200190815260200160002054901c169050919050565b600061299961249b565b60005403905090565b6129bc828260405180602001604052806000815250612d27565b5050565b60008373ffffffffffffffffffffffffffffffffffffffff1663150b7a026129e6612493565b8786866040518563ffffffff1660e01b8152600401612a089493929190614473565b602060405180830381600087803b158015612a2257600080fd5b505af1925050508015612a5357506040513d601f19601f82011682018060405250810190612a5091906144d4565b60015b612acd573d8060008114612a83576040519150601f19603f3d011682016040523d82523d6000602084013e612a88565b606091505b50600081511415612ac5576040517fd1a57ed600000000000000000000000000000000000000000000000000000000815260040160405180910390fd5b805181602001fd5b63150b7a0260e01b7bffffffffffffffffffffffffffffffffffffffffffffffffffffffff1916817bffffffffffffffffffffffffffffffffffffffffffffffffffffffff191614915050949350505050565b6060600c8054612b2f906138be565b80601f0160208091040260200160405190810160405280929190818152602001828054612b5b906138be565b8015612ba85780601f10612b7d57610100808354040283529160200191612ba8565b820191906000526020600020905b815481529060010190602001808311612b8b57829003601f168201915b5050505050905090565b60606000821415612bfa576040518060400160405280600181526020017f30000000000000000000000000000000000000000000000000000000000000008152509050612d0e565b600082905060005b60008214612c2c578080612c1590613a50565b915050600a82612c259190614530565b9150612c02565b60008167ffffffffffffffff811115612c4857612c476133aa565b5b6040519080825280601f01601f191660200182016040528015612c7a5781602001600182028036833780820191505090505b5090505b60008514612d0757600182612c939190614561565b9150600a85612ca29190614595565b6030612cae9190613a99565b60f81b818381518110612cc457612cc36139c8565b5b60200101907effffffffffffffffffffffffffffffffffffffffffffffffffffffffffffff1916908160001a905350600a85612d009190614530565b9450612c7e565b8093505050505b919050565b600033905090565b50505050565b50505050565b6000805490506000612d3885612868565b1415612d70576040517f2e07630000000000000000000000000000000000000000000000000000000000815260040160405180910390fd5b6000831415612dab576040517fb562e8dd00000000000000000000000000000000000000000000000000000000815260040160405180910390fd5b612db86000858386612d1b565b600160406001901b178302600560008673ffffffffffffffffffffffffffffffffffffffff1673ffffffffffffffffffffffffffffffffffffffff1681526020019081526020016000206000828254019250508190555060e1612e1d60018514612fb8565b901b60a042901b612e2d86612868565b1717600460008381526020019081526020016000208190555060008190506000848201905060008673ffffffffffffffffffffffffffffffffffffffff163b14612f31575b818673ffffffffffffffffffffffffffffffffffffffff16600073ffffffffffffffffffffffffffffffffffffffff167fddf252ad1be2c89b69c2b068fc378daa952ba7f163c4a11628f55a4df523b3ef60405160405180910390a4612ee160008784806001019550876129c0565b612f17576040517fd1a57ed600000000000000000000000000000000000000000000000000000000815260040160405180910390fd5b808210612e72578260005414612f2c57600080fd5b612f9c565b5b818060010192508673ffffffffffffffffffffffffffffffffffffffff16600073ffffffffffffffffffffffffffffffffffffffff167fddf252ad1be2c89b69c2b068fc378daa952ba7f163c4a11628f55a4df523b3ef60405160405180910390a4808210612f32575b816000819055505050612fb26000858386612d21565b50505050565b6000819050919050565b828054612fce906138be565b90600052602060002090601f016020900481019282612ff05760008555613037565b82601f1061300957805160ff1916838001178555613037565b82800160010185558215613037579182015b8281111561303657825182559160200191906001019061301b565b5b5090506130449190613048565b5090565b5b80821115613061576000816000905550600101613049565b5090565b6000604051905090565b600080fd5b600080fd5b60007fffffffff0000000000000000000000000000000000000000000000000000000082169050919050565b6130ae81613079565b81146130b957600080fd5b50565b6000813590506130cb816130a5565b92915050565b6000602082840312156130e7576130e661306f565b5b60006130f5848285016130bc565b91505092915050565b60008115159050919050565b613113816130fe565b82525050565b600060208201905061312e600083018461310a565b92915050565b61313d816130fe565b811461314857600080fd5b50565b60008135905061315a81613134565b92915050565b6000602082840312156131765761317561306f565b5b60006131848482850161314b565b91505092915050565b600081519050919050565b600082825260208201905092915050565b60005b838110156131c75780820151818401526020810190506131ac565b838111156131d6576000848401525b50505050565b6000601f19601f8301169050919050565b60006131f88261318d565b6132028185613198565b93506132128185602086016131a9565b61321b816131dc565b840191505092915050565b6000602082019050818103600083015261324081846131ed565b905092915050565b6000819050919050565b61325b81613248565b811461326657600080fd5b50565b60008135905061327881613252565b92915050565b6000602082840312156132945761329361306f565b5b60006132a284828501613269565b91505092915050565b600073ffffffffffffffffffffffffffffffffffffffff82169050919050565b60006132d6826132ab565b9050919050565b6132e6816132cb565b82525050565b600060208201905061330160008301846132dd565b92915050565b613310816132cb565b811461331b57600080fd5b50565b60008135905061332d81613307565b92915050565b6000806040838503121561334a5761334961306f565b5b60006133588582860161331e565b925050602061336985828601613269565b9150509250929050565b6000602082840312156133895761338861306f565b5b60006133978482850161331e565b91505092915050565b600080fd5b600080fd5b7f4e487b7100000000000000000000000000000000000000000000000000000000600052604160045260246000fd5b6133e2826131dc565b810181811067ffffffffffffffff82111715613401576134006133aa565b5b80604052505050565b6000613414613065565b905061342082826133d9565b919050565b600067ffffffffffffffff8211156134405761343f6133aa565b5b613449826131dc565b9050602081019050919050565b82818337600083830152505050565b600061347861347384613425565b61340a565b905082815260208101848484011115613494576134936133a5565b5b61349f848285613456565b509392505050565b600082601f8301126134bc576134bb6133a0565b5b81356134cc848260208601613465565b91505092915050565b6000602082840312156134eb576134ea61306f565b5b600082013567ffffffffffffffff81111561350957613508613074565b5b613515848285016134a7565b91505092915050565b61352781613248565b82525050565b6000602082019050613542600083018461351e565b92915050565b600080fd5b600080fd5b60008083601f840112613568576135676133a0565b5b8235905067ffffffffffffffff81111561358557613584613548565b5b6020830191508360208202830111156135a1576135a061354d565b5b9250929050565b600080602083850312156135bf576135be61306f565b5b600083013567ffffffffffffffff8111156135dd576135dc613074565b5b6135e985828601613552565b92509250509250929050565b60008060006060848603121561360e5761360d61306f565b5b600061361c8682870161331e565b935050602061362d8682870161331e565b925050604061363e86828701613269565b9150509250925092565b6000806040838503121561365f5761365e61306f565b5b600061366d8582860161331e565b925050602061367e8582860161314b565b9150509250929050565b60008083601f84011261369e5761369d6133a0565b5b8235905067ffffffffffffffff8111156136bb576136ba613548565b5b6020830191508360208202830111156136d7576136d661354d565b5b9250929050565b600080602083850312156136f5576136f461306f565b5b600083013567ffffffffffffffff81111561371357613712613074565b5b61371f85828601613688565b92509250509250929050565b600067ffffffffffffffff821115613746576137456133aa565b5b61374f826131dc565b9050602081019050919050565b600061376f61376a8461372b565b61340a565b90508281526020810184848401111561378b5761378a6133a5565b5b613796848285613456565b509392505050565b600082601f8301126137b3576137b26133a0565b5b81356137c384826020860161375c565b91505092915050565b600080600080608085870312156137e6576137e561306f565b5b60006137f48782880161331e565b94505060206138058782880161331e565b935050604061381687828801613269565b925050606085013567ffffffffffffffff81111561383757613836613074565b5b6138438782880161379e565b91505092959194509250565b600080604083850312156138665761386561306f565b5b60006138748582860161331e565b92505060206138858582860161331e565b9150509250929050565b7f4e487b7100000000000000000000000000000000000000000000000000000000600052602260045260246000fd5b600060028204905060018216806138d657607f821691505b602082108114156138ea576138e961388f565b5b50919050565b7f4e6f20757365722064657461696c732070726f76696465640000000000000000600082015250565b6000613926601883613198565b9150613931826138f0565b602082019050919050565b6000602082019050818103600083015261395581613919565b9050919050565b7f546f6f206d616e792075736572737320746f2077686974656c69737400000000600082015250565b6000613992601c83613198565b915061399d8261395c565b602082019050919050565b600060208201905081810360008301526139c181613985565b9050919050565b7f4e487b7100000000000000000000000000000000000000000000000000000000600052603260045260246000fd5b7f4e487b7100000000000000000000000000000000000000000000000000000000600052601160045260246000fd5b6000613a3182613248565b91506000821415613a4557613a446139f7565b5b600182039050919050565b6000613a5b82613248565b91507fffffffffffffffffffffffffffffffffffffffffffffffffffffffffffffffff821415613a8e57613a8d6139f7565b5b600182019050919050565b6000613aa482613248565b9150613aaf83613248565b9250827fffffffffffffffffffffffffffffffffffffffffffffffffffffffffffffffff03821115613ae457613ae36139f7565b5b828201905092915050565b7f526566756e6420706572696f64206e6f74206f76657200000000000000000000600082015250565b6000613b25601683613198565b9150613b3082613aef565b602082019050919050565b60006020820190508181036000830152613b5481613b18565b9050919050565b600081905092915050565b50565b6000613b76600083613b5b565b9150613b8182613b66565b600082019050919050565b6000613b9782613b69565b9150819050919050565b60008190508160005260206000209050919050565b60008154613bc3816138be565b613bcd8186613198565b94506001821660008114613be85760018114613bfa57613c2d565b60ff1983168652602086019350613c2d565b613c0385613ba1565b60005b83811015613c2557815481890152600182019150602081019050613c06565b808801955050505b50505092915050565b60006020820190508181036000830152613c508184613bb6565b905092915050565b7f50726573616c65206973206e6f74206163746976650000000000000000000000600082015250565b6000613c8e601583613198565b9150613c9982613c58565b602082019050919050565b60006020820190508181036000830152613cbd81613c81565b9050919050565b6000613ccf82613248565b9150613cda83613248565b9250817fffffffffffffffffffffffffffffffffffffffffffffffffffffffffffffffff0483118215151615613d1357613d126139f7565b5b828202905092915050565b7f4e6f7420656e6f756768206574682073656e7400000000000000000000000000600082015250565b6000613d54601383613198565b9150613d5f82613d1e565b602082019050919050565b60006020820190508181036000830152613d8381613d47565b9050919050565b7f41646472657373206e6f742077686974656c6973746564000000000000000000600082015250565b6000613dc0601783613198565b9150613dcb82613d8a565b602082019050919050565b60006020820190508181036000830152613def81613db3565b9050919050565b7f4f766572206d696e74206c696d69740000000000000000000000000000000000600082015250565b6000613e2c600f83613198565b9150613e3782613df6565b602082019050919050565b60006020820190508181036000830152613e5b81613e1f565b9050919050565b7f4d6178206d696e7420737570706c792072656163686564000000000000000000600082015250565b6000613e98601783613198565b9150613ea382613e62565b602082019050919050565b60006020820190508181036000830152613ec781613e8b565b9050919050565b7f526566756e642065787069726564000000000000000000000000000000000000600082015250565b6000613f04600e83613198565b9150613f0f82613ece565b602082019050919050565b60006020820190508181036000830152613f3381613ef7565b9050919050565b7f4e6f7420746f6b656e206f776e65720000000000000000000000000000000000600082015250565b6000613f70600f83613198565b9150613f7b82613f3a565b602082019050919050565b60006020820190508181036000830152613f9f81613f63565b9050919050565b7f416c726561647920726566756e64656400000000000000000000000000000000600082015250565b6000613fdc601083613198565b9150613fe782613fa6565b602082019050919050565b6000602082019050818103600083015261400b81613fcf565b9050919050565b7f467265656c79206d696e746564204e4654732063616e6e6f742062652072656660008201527f756e646564000000000000000000000000000000000000000000000000000000602082015250565b600061406e602583613198565b915061407982614012565b604082019050919050565b6000602082019050818103600083015261409d81614061565b9050919050565b7f5075626c69632073616c65206973206e6f742061637469766500000000000000600082015250565b60006140da601983613198565b91506140e5826140a4565b602082019050919050565b60006020820190508181036000830152614109816140cd565b9050919050565b7f4552433732314d657461646174613a2055524920717565727920666f72206e6f60008201527f6e6578697374656e7420746f6b656e0000000000000000000000000000000000602082015250565b600061416c602f83613198565b915061417782614110565b604082019050919050565b6000602082019050818103600083015261419b8161415f565b9050919050565b600081905092915050565b60006141b88261318d565b6141c281856141a2565b93506141d28185602086016131a9565b80840191505092915050565b600081546141eb816138be565b6141f581866141a2565b94506001821660008114614210576001811461422157614254565b60ff19831686528186019350614254565b61422a85613ba1565b60005b8381101561424c5781548189015260018201915060208101905061422d565b838801955050505b50505092915050565b600061426982866141ad565b915061427582856141ad565b915061428182846141de565b9150819050949350505050565b7f4f776e61626c653a206e6577206f776e657220697320746865207a65726f206160008201527f6464726573730000000000000000000000000000000000000000000000000000602082015250565b60006142ea602683613198565b91506142f58261428e565b604082019050919050565b60006020820190508181036000830152614319816142dd565b9050919050565b7f4d6178696d756d20557365727320616c72656164792077686974656c6973746560008201527f6400000000000000000000000000000000000000000000000000000000000000602082015250565b600061437c602183613198565b915061438782614320565b604082019050919050565b600060208201905081810360008301526143ab8161436f565b9050919050565b7f4f776e61626c653a2063616c6c6572206973206e6f7420746865206f776e6572600082015250565b60006143e8602083613198565b91506143f3826143b2565b602082019050919050565b60006020820190508181036000830152614417816143db565b9050919050565b600081519050919050565b600082825260208201905092915050565b60006144458261441e565b61444f8185614429565b935061445f8185602086016131a9565b614468816131dc565b840191505092915050565b600060808201905061448860008301876132dd565b61449560208301866132dd565b6144a2604083018561351e565b81810360608301526144b4818461443a565b905095945050505050565b6000815190506144ce816130a5565b92915050565b6000602082840312156144ea576144e961306f565b5b60006144f8848285016144bf565b91505092915050565b7f4e487b7100000000000000000000000000000000000000000000000000000000600052601260045260246000fd5b600061453b82613248565b915061454683613248565b92508261455657614555614501565b5b828204905092915050565b600061456c82613248565b915061457783613248565b92508282101561458a576145896139f7565b5b828203905092915050565b60006145a082613248565b91506145ab83613248565b9250826145bb576145ba614501565b5b82820690509291505056fea2646970667358221220800549cfb80a2137c529c0e174036ee9502d54704a25386a3ac9d17d891e4c2364736f6c63430008090033",
  "linkReferences": {},
  "deployedLinkReferences": {}
}