{
  "_format": "hh-sol-artifact-1",
  "contractName": "ERC721Factory",
  "sourceName": "contracts/factoryContracts/ERC721Factory.sol",
  "abi": [
    {
      "inputs": [
        {
          "internalType": "string",
          "name": "_name",
          "type": "string"
        },
        {
          "internalType": "string",
          "name": "_symbol",
          "type": "string"
        },
        {
          "internalType": "bool",
          "name": "defaultRoyalty",
          "type": "bool"
        },
        {
          "internalType": "address[]",
          "name": "royaltyReceiver",
          "type": "address[]"
        },
        {
          "internalType": "uint96[]",
          "name": "royaltyFeesInBips",
          "type": "uint96[]"
        }
      ],
      "stateMutability": "nonpayable",
      "type": "constructor"
    },
    {
      "anonymous": false,
      "inputs": [
        {
          "indexed": true,
          "internalType": "address",
          "name": "owner",
          "type": "address"
        },
        {
          "indexed": true,
          "internalType": "address",
          "name": "approved",
          "type": "address"
        },
        {
          "indexed": true,
          "internalType": "uint256",
          "name": "tokenId",
          "type": "uint256"
        }
      ],
      "name": "Approval",
      "type": "event"
    },
    {
      "anonymous": false,
      "inputs": [
        {
          "indexed": true,
          "internalType": "address",
          "name": "owner",
          "type": "address"
        },
        {
          "indexed": true,
          "internalType": "address",
          "name": "operator",
          "type": "address"
        },
        {
          "indexed": false,
          "internalType": "bool",
          "name": "approved",
          "type": "bool"
        }
      ],
      "name": "ApprovalForAll",
      "type": "event"
    },
    {
      "anonymous": false,
      "inputs": [
        {
          "indexed": false,
          "internalType": "string",
          "name": "uri",
          "type": "string"
        }
      ],
      "name": "BaseURI",
      "type": "event"
    },
    {
      "anonymous": false,
      "inputs": [
        {
          "indexed": true,
          "internalType": "address",
          "name": "previousOwner",
          "type": "address"
        },
        {
          "indexed": true,
          "internalType": "address",
          "name": "newOwner",
          "type": "address"
        }
      ],
      "name": "OwnershipTransferred",
      "type": "event"
    },
    {
      "anonymous": false,
      "inputs": [
        {
          "indexed": true,
          "internalType": "address",
          "name": "from",
          "type": "address"
        },
        {
          "indexed": true,
          "internalType": "address",
          "name": "to",
          "type": "address"
        },
        {
          "indexed": true,
          "internalType": "uint256",
          "name": "tokenId",
          "type": "uint256"
        }
      ],
      "name": "Transfer",
      "type": "event"
    },
    {
      "anonymous": false,
      "inputs": [
        {
          "indexed": false,
          "internalType": "bool",
          "name": "whitelistEnabled",
          "type": "bool"
        }
      ],
      "name": "WhiteListEnabled",
      "type": "event"
    },
    {
      "inputs": [
        {
          "internalType": "uint256",
          "name": "",
          "type": "uint256"
        }
      ],
      "name": "_creators",
      "outputs": [
        {
          "internalType": "address",
          "name": "",
          "type": "address"
        }
      ],
      "stateMutability": "view",
      "type": "function"
    },
    {
      "inputs": [
        {
          "internalType": "address",
          "name": "to",
          "type": "address"
        },
        {
          "internalType": "uint256",
          "name": "tokenId",
          "type": "uint256"
        }
      ],
      "name": "approve",
      "outputs": [],
      "stateMutability": "nonpayable",
      "type": "function"
    },
    {
      "inputs": [
        {
          "internalType": "address",
          "name": "owner",
          "type": "address"
        }
      ],
      "name": "balanceOf",
      "outputs": [
        {
          "internalType": "uint256",
          "name": "",
          "type": "uint256"
        }
      ],
      "stateMutability": "view",
      "type": "function"
    },
    {
      "inputs": [],
      "name": "baseURI",
      "outputs": [
        {
          "internalType": "string",
          "name": "",
          "type": "string"
        }
      ],
      "stateMutability": "view",
      "type": "function"
    },
    {
      "inputs": [
        {
          "internalType": "uint256",
          "name": "tokenId",
          "type": "uint256"
        }
      ],
      "name": "burn",
      "outputs": [],
      "stateMutability": "nonpayable",
      "type": "function"
    },
    {
      "inputs": [
        {
          "internalType": "uint256",
          "name": "tokenId",
          "type": "uint256"
        }
      ],
      "name": "getApproved",
      "outputs": [
        {
          "internalType": "address",
          "name": "",
          "type": "address"
        }
      ],
      "stateMutability": "view",
      "type": "function"
    },
    {
      "inputs": [
        {
          "internalType": "address",
          "name": "owner",
          "type": "address"
        },
        {
          "internalType": "address",
          "name": "operator",
          "type": "address"
        }
      ],
      "name": "isApprovedForAll",
      "outputs": [
        {
          "internalType": "bool",
          "name": "",
          "type": "bool"
        }
      ],
      "stateMutability": "view",
      "type": "function"
    },
    {
      "inputs": [],
      "name": "name",
      "outputs": [
        {
          "internalType": "string",
          "name": "",
          "type": "string"
        }
      ],
      "stateMutability": "view",
      "type": "function"
    },
    {
      "inputs": [],
      "name": "owner",
      "outputs": [
        {
          "internalType": "address",
          "name": "",
          "type": "address"
        }
      ],
      "stateMutability": "view",
      "type": "function"
    },
    {
      "inputs": [
        {
          "internalType": "uint256",
          "name": "tokenId",
          "type": "uint256"
        }
      ],
      "name": "ownerOf",
      "outputs": [
        {
          "internalType": "address",
          "name": "",
          "type": "address"
        }
      ],
      "stateMutability": "view",
      "type": "function"
    },
    {
      "inputs": [
        {
          "internalType": "address[]",
          "name": "currentAddresses",
          "type": "address[]"
        }
      ],
      "name": "removeWhitelist",
      "outputs": [],
      "stateMutability": "nonpayable",
      "type": "function"
    },
    {
      "inputs": [],
      "name": "renounceOwnership",
      "outputs": [],
      "stateMutability": "nonpayable",
      "type": "function"
    },
    {
      "inputs": [
        {
          "internalType": "uint256",
          "name": "_tokenId",
          "type": "uint256"
        },
        {
          "internalType": "uint256",
          "name": "_salePrice",
          "type": "uint256"
        }
      ],
      "name": "royaltyInfo",
      "outputs": [
        {
          "internalType": "address[]",
          "name": "",
          "type": "address[]"
        },
        {
          "internalType": "uint256[]",
          "name": "",
          "type": "uint256[]"
        }
      ],
      "stateMutability": "view",
      "type": "function"
    },
    {
      "inputs": [
        {
          "internalType": "address",
          "name": "creator",
          "type": "address"
        },
        {
          "internalType": "bool",
          "name": "tokenRoyalty",
          "type": "bool"
        },
        {
          "internalType": "address[]",
          "name": "royaltyReceiver",
          "type": "address[]"
        },
        {
          "internalType": "uint96[]",
          "name": "tokenRoyaltyInBips",
          "type": "uint96[]"
        }
      ],
      "name": "safeMint",
      "outputs": [],
      "stateMutability": "nonpayable",
      "type": "function"
    },
    {
      "inputs": [
        {
          "internalType": "address",
          "name": "from",
          "type": "address"
        },
        {
          "internalType": "address",
          "name": "to",
          "type": "address"
        },
        {
          "internalType": "uint256",
          "name": "tokenId",
          "type": "uint256"
        }
      ],
      "name": "safeTransferFrom",
      "outputs": [],
      "stateMutability": "nonpayable",
      "type": "function"
    },
    {
      "inputs": [
        {
          "internalType": "address",
          "name": "from",
          "type": "address"
        },
        {
          "internalType": "address",
          "name": "to",
          "type": "address"
        },
        {
          "internalType": "uint256",
          "name": "tokenId",
          "type": "uint256"
        },
        {
          "internalType": "bytes",
          "name": "data",
          "type": "bytes"
        }
      ],
      "name": "safeTransferFrom",
      "outputs": [],
      "stateMutability": "nonpayable",
      "type": "function"
    },
    {
      "inputs": [
        {
          "internalType": "address",
          "name": "operator",
          "type": "address"
        },
        {
          "internalType": "bool",
          "name": "approved",
          "type": "bool"
        }
      ],
      "name": "setApprovalForAll",
      "outputs": [],
      "stateMutability": "nonpayable",
      "type": "function"
    },
    {
      "inputs": [
        {
          "internalType": "string",
          "name": "baseURI_",
          "type": "string"
        }
      ],
      "name": "setBaseURI",
      "outputs": [],
      "stateMutability": "nonpayable",
      "type": "function"
    },
    {
      "inputs": [
        {
          "internalType": "string",
          "name": "_uriSuffix",
          "type": "string"
        }
      ],
      "name": "setUriSuffix",
      "outputs": [],
      "stateMutability": "nonpayable",
      "type": "function"
    },
    {
      "inputs": [
        {
          "internalType": "address[]",
          "name": "newAddresses",
          "type": "address[]"
        }
      ],
      "name": "setWhitelist",
      "outputs": [],
      "stateMutability": "nonpayable",
      "type": "function"
    },
    {
      "inputs": [
        {
          "internalType": "bool",
          "name": "_state",
          "type": "bool"
        }
      ],
      "name": "setWhitelistEnabled",
      "outputs": [],
      "stateMutability": "nonpayable",
      "type": "function"
    },
    {
      "inputs": [
        {
          "internalType": "bytes4",
          "name": "interfaceId",
          "type": "bytes4"
        }
      ],
      "name": "supportsInterface",
      "outputs": [
        {
          "internalType": "bool",
          "name": "",
          "type": "bool"
        }
      ],
      "stateMutability": "view",
      "type": "function"
    },
    {
      "inputs": [],
      "name": "symbol",
      "outputs": [
        {
          "internalType": "string",
          "name": "",
          "type": "string"
        }
      ],
      "stateMutability": "view",
      "type": "function"
    },
    {
      "inputs": [
        {
          "internalType": "uint256",
          "name": "index",
          "type": "uint256"
        }
      ],
      "name": "tokenByIndex",
      "outputs": [
        {
          "internalType": "uint256",
          "name": "",
          "type": "uint256"
        }
      ],
      "stateMutability": "view",
      "type": "function"
    },
    {
      "inputs": [
        {
          "internalType": "address",
          "name": "owner",
          "type": "address"
        },
        {
          "internalType": "uint256",
          "name": "index",
          "type": "uint256"
        }
      ],
      "name": "tokenOfOwnerByIndex",
      "outputs": [
        {
          "internalType": "uint256",
          "name": "",
          "type": "uint256"
        }
      ],
      "stateMutability": "view",
      "type": "function"
    },
    {
      "inputs": [
        {
          "internalType": "uint256",
          "name": "_tokenId",
          "type": "uint256"
        }
      ],
      "name": "tokenURI",
      "outputs": [
        {
          "internalType": "string",
          "name": "",
          "type": "string"
        }
      ],
      "stateMutability": "view",
      "type": "function"
    },
    {
      "inputs": [],
      "name": "totalSupply",
      "outputs": [
        {
          "internalType": "uint256",
          "name": "",
          "type": "uint256"
        }
      ],
      "stateMutability": "view",
      "type": "function"
    },
    {
      "inputs": [
        {
          "internalType": "address",
          "name": "from",
          "type": "address"
        },
        {
          "internalType": "address",
          "name": "to",
          "type": "address"
        },
        {
          "internalType": "uint256",
          "name": "tokenId",
          "type": "uint256"
        }
      ],
      "name": "transferFrom",
      "outputs": [],
      "stateMutability": "nonpayable",
      "type": "function"
    },
    {
      "inputs": [
        {
          "internalType": "address",
          "name": "newOwner",
          "type": "address"
        }
      ],
      "name": "transferOwnership",
      "outputs": [],
      "stateMutability": "nonpayable",
      "type": "function"
    },
    {
      "inputs": [],
      "name": "uriSuffix",
      "outputs": [
        {
          "internalType": "string",
          "name": "",
          "type": "string"
        }
      ],
      "stateMutability": "view",
      "type": "function"
    },
    {
      "inputs": [
        {
          "internalType": "address",
          "name": "",
          "type": "address"
        }
      ],
      "name": "whitelist",
      "outputs": [
        {
          "internalType": "bool",
          "name": "",
          "type": "bool"
        }
      ],
      "stateMutability": "view",
      "type": "function"
    },
    {
      "inputs": [],
      "name": "whitelistEnabled",
      "outputs": [
        {
          "internalType": "bool",
          "name": "",
          "type": "bool"
        }
      ],
      "stateMutability": "view",
      "type": "function"
    }
  ],
  "bytecode": "0x60806040526040518060400160405280600581526020017f2e6a736f6e000000000000000000000000000000000000000000000000000000815250600e90805190602001906200005192919062000484565b5060405180602001604052806000815250600f90805190602001906200007992919062000484565b5060006010556000601160006101000a81548160ff021916908315150217905550348015620000a757600080fd5b50604051620060fe380380620060fe8339818101604052810190620000cd919062000acb565b84848160009080519060200190620000e792919062000484565b5080600190805190602001906200010092919062000484565b5050506200012362000117620001ab60201b60201c565b620001b360201b60201c565b6000859050600085905060008251141580156200014257506000815114155b62000184576040517f08c379a00000000000000000000000000000000000000000000000000000000081526004016200017b9062000c30565b60405180910390fd5b84156200019e576200019d84846200027960201b60201c565b5b5050505050505062001004565b600033905090565b6000600d60009054906101000a900473ffffffffffffffffffffffffffffffffffffffff16905081600d60006101000a81548173ffffffffffffffffffffffffffffffffffffffff021916908373ffffffffffffffffffffffffffffffffffffffff1602179055508173ffffffffffffffffffffffffffffffffffffffff168173ffffffffffffffffffffffffffffffffffffffff167f8be0079c531659141344cd1fd0a4f28419497f9722a3daafe3b4186f6b6457e060405160405180910390a35050565b6000825111620002c0576040517f08c379a0000000000000000000000000000000000000000000000000000000008152600401620002b79062000ca2565b60405180910390fd5b60058251111562000308576040517f08c379a0000000000000000000000000000000000000000000000000000000008152600401620002ff9062000d3a565b60405180910390fd5b80518251146200034f576040517f08c379a0000000000000000000000000000000000000000000000000000000008152600401620003469062000dd2565b60405180910390fd5b6000805b8251811015620003ae5782818151811062000373576200037262000df4565b5b60200260200101516bffffffffffffffffffffffff168262000396919062000e5c565b91508080620003a59062000eb9565b91505062000353565b50620003bf6200047a60201b60201c565b6bffffffffffffffffffffffff1681111562000412576040517f08c379a0000000000000000000000000000000000000000000000000000000008152600401620004099062000f7d565b60405180910390fd5b606080849050839150604051806040016040528082815260200183815250600a60008201518160000190805190602001906200045092919062000515565b5060208201518160010190805190602001906200046f929190620005a4565b509050505050505050565b6000612710905090565b828054620004929062000fce565b90600052602060002090601f016020900481019282620004b6576000855562000502565b82601f10620004d157805160ff191683800117855562000502565b8280016001018555821562000502579182015b8281111562000501578251825591602001919060010190620004e4565b5b50905062000511919062000673565b5090565b82805482825590600052602060002090810192821562000591579160200282015b82811115620005905782518260006101000a81548173ffffffffffffffffffffffffffffffffffffffff021916908373ffffffffffffffffffffffffffffffffffffffff1602179055509160200191906001019062000536565b5b509050620005a0919062000673565b5090565b82805482825590600052602060002090600101600290048101928215620006605791602002820160005b838211156200062457835183826101000a8154816bffffffffffffffffffffffff02191690836bffffffffffffffffffffffff1602179055509260200192600c01602081600b01049283019260010302620005ce565b80156200065e5782816101000a8154906bffffffffffffffffffffffff0219169055600c01602081600b0104928301926001030262000624565b505b5090506200066f919062000673565b5090565b5b808211156200068e57600081600090555060010162000674565b5090565b6000604051905090565b600080fd5b600080fd5b600080fd5b600080fd5b6000601f19601f8301169050919050565b7f4e487b7100000000000000000000000000000000000000000000000000000000600052604160045260246000fd5b620006fb82620006b0565b810181811067ffffffffffffffff821117156200071d576200071c620006c1565b5b80604052505050565b60006200073262000692565b9050620007408282620006f0565b919050565b600067ffffffffffffffff821115620007635762000762620006c1565b5b6200076e82620006b0565b9050602081019050919050565b60005b838110156200079b5780820151818401526020810190506200077e565b83811115620007ab576000848401525b50505050565b6000620007c8620007c28462000745565b62000726565b905082815260208101848484011115620007e757620007e6620006ab565b5b620007f48482856200077b565b509392505050565b600082601f830112620008145762000813620006a6565b5b815162000826848260208601620007b1565b91505092915050565b60008115159050919050565b62000846816200082f565b81146200085257600080fd5b50565b60008151905062000866816200083b565b92915050565b600067ffffffffffffffff8211156200088a5762000889620006c1565b5b602082029050602081019050919050565b600080fd5b600073ffffffffffffffffffffffffffffffffffffffff82169050919050565b6000620008cd82620008a0565b9050919050565b620008df81620008c0565b8114620008eb57600080fd5b50565b600081519050620008ff81620008d4565b92915050565b60006200091c62000916846200086c565b62000726565b905080838252602082019050602084028301858111156200094257620009416200089b565b5b835b818110156200096f57806200095a8882620008ee565b84526020840193505060208101905062000944565b5050509392505050565b600082601f830112620009915762000990620006a6565b5b8151620009a384826020860162000905565b91505092915050565b600067ffffffffffffffff821115620009ca57620009c9620006c1565b5b602082029050602081019050919050565b60006bffffffffffffffffffffffff82169050919050565b620009fe81620009db565b811462000a0a57600080fd5b50565b60008151905062000a1e81620009f3565b92915050565b600062000a3b62000a3584620009ac565b62000726565b9050808382526020820190506020840283018581111562000a615762000a606200089b565b5b835b8181101562000a8e578062000a79888262000a0d565b84526020840193505060208101905062000a63565b5050509392505050565b600082601f83011262000ab05762000aaf620006a6565b5b815162000ac284826020860162000a24565b91505092915050565b600080600080600060a0868803121562000aea5762000ae96200069c565b5b600086015167ffffffffffffffff81111562000b0b5762000b0a620006a1565b5b62000b1988828901620007fc565b955050602086015167ffffffffffffffff81111562000b3d5762000b3c620006a1565b5b62000b4b88828901620007fc565b945050604062000b5e8882890162000855565b935050606086015167ffffffffffffffff81111562000b825762000b81620006a1565b5b62000b908882890162000979565b925050608086015167ffffffffffffffff81111562000bb45762000bb3620006a1565b5b62000bc28882890162000a98565b9150509295509295909350565b600082825260208201905092915050565b7f4552433732313a2043686f6f73652061206e616d6520616e642073796d626f6c600082015250565b600062000c1860208362000bcf565b915062000c258262000be0565b602082019050919050565b6000602082019050818103600083015262000c4b8162000c09565b9050919050565b7f4e6f20526f79616c74792064657461696c732070726f76696465640000000000600082015250565b600062000c8a601b8362000bcf565b915062000c978262000c52565b602082019050919050565b6000602082019050818103600083015262000cbd8162000c7b565b9050919050565b7f546f6f206d616e7920726f79616c74792072656369657665727320646574616960008201527f6c73000000000000000000000000000000000000000000000000000000000000602082015250565b600062000d2260228362000bcf565b915062000d2f8262000cc4565b604082019050919050565b6000602082019050818103600083015262000d558162000d13565b9050919050565b7f4d69736d61746368206f6620526f79616c74792072656369657665727320616e60008201527f6420746865697220666565730000000000000000000000000000000000000000602082015250565b600062000dba602c8362000bcf565b915062000dc78262000d5c565b604082019050919050565b6000602082019050818103600083015262000ded8162000dab565b9050919050565b7f4e487b7100000000000000000000000000000000000000000000000000000000600052603260045260246000fd5b6000819050919050565b7f4e487b7100000000000000000000000000000000000000000000000000000000600052601160045260246000fd5b600062000e698262000e23565b915062000e768362000e23565b9250827fffffffffffffffffffffffffffffffffffffffffffffffffffffffffffffffff0382111562000eae5762000ead62000e2d565b5b828201905092915050565b600062000ec68262000e23565b91507fffffffffffffffffffffffffffffffffffffffffffffffffffffffffffffffff82141562000efc5762000efb62000e2d565b5b600182019050919050565b7f455243323938313a20726f79616c7479206665652077696c6c2065786365656460008201527f2073616c65507269636500000000000000000000000000000000000000000000602082015250565b600062000f65602a8362000bcf565b915062000f728262000f07565b604082019050919050565b6000602082019050818103600083015262000f988162000f56565b9050919050565b7f4e487b7100000000000000000000000000000000000000000000000000000000600052602260045260246000fd5b6000600282049050600182168062000fe757607f821691505b6020821081141562000ffe5762000ffd62000f9f565b5b50919050565b6150ea80620010146000396000f3fe608060405234801561001057600080fd5b50600436106101f05760003560e01c80635503a0e81161010f57806395d89b41116100a2578063c87b56dd11610071578063c87b56dd146105b6578063e985e9c5146105e6578063f2fde38b14610616578063f421764814610632576101f0565b806395d89b41146105305780639b19251a1461054e578063a22cb4651461057e578063b88d4fde1461059a576101f0565b806370a08231116100de57806370a08231146104bc578063715018a6146104ec5780638784a4c9146104f65780638da5cb5b14610512576101f0565b80635503a0e81461043457806355f804b3146104525780636352211e1461046e5780636c0360eb1461049e576101f0565b806323b872dd1161018757806342966c681161015657806342966c681461039a5780634816edf4146103b65780634f6ccce7146103e657806351fb012d14610416576101f0565b806323b872dd146103015780632a55205a1461031d5780632f745c591461034e57806342842e0e1461037e576101f0565b8063095ea7b3116101c3578063095ea7b31461028f57806316ba10e0146102ab57806318160ddd146102c757806323245216146102e5576101f0565b806301ffc9a7146101f5578063052d9e7e1461022557806306fdde0314610241578063081812fc1461025f575b600080fd5b61020f600480360381019061020a919061331b565b61064e565b60405161021c9190613363565b60405180910390f35b61023f600480360381019061023a91906133aa565b610660565b005b6102496106cb565b6040516102569190613470565b60405180910390f35b610279600480360381019061027491906134c8565b61075d565b6040516102869190613536565b60405180910390f35b6102a960048036038101906102a4919061357d565b6107a3565b005b6102c560048036038101906102c091906136f2565b6108bb565b005b6102cf6108dd565b6040516102dc919061374a565b60405180910390f35b6102ff60048036038101906102fa91906137c5565b6108ea565b005b61031b60048036038101906103169190613812565b610a34565b005b61033760048036038101906103329190613865565b610a94565b604051610345929190613a21565b60405180910390f35b6103686004803603810190610363919061357d565b610e1b565b604051610375919061374a565b60405180910390f35b61039860048036038101906103939190613812565b610ec0565b005b6103b460048036038101906103af91906134c8565b610ee0565b005b6103d060048036038101906103cb91906134c8565b610f2a565b6040516103dd9190613536565b60405180910390f35b61040060048036038101906103fb91906134c8565b610f5d565b60405161040d919061374a565b60405180910390f35b61041e610fce565b60405161042b9190613363565b60405180910390f35b61043c610fe1565b6040516104499190613470565b60405180910390f35b61046c600480360381019061046791906136f2565b61106f565b005b610488600480360381019061048391906134c8565b6110c9565b6040516104959190613536565b60405180910390f35b6104a661117b565b6040516104b39190613470565b60405180910390f35b6104d660048036038101906104d19190613a58565b611209565b6040516104e3919061374a565b60405180910390f35b6104f46112c1565b005b610510600480360381019061050b9190613c4f565b6112d5565b005b61051a6114da565b6040516105279190613536565b60405180910390f35b610538611504565b6040516105459190613470565b60405180910390f35b61056860048036038101906105639190613a58565b611596565b6040516105759190613363565b60405180910390f35b61059860048036038101906105939190613cee565b6115b6565b005b6105b460048036038101906105af9190613dcf565b6115cc565b005b6105d060048036038101906105cb91906134c8565b61162e565b6040516105dd9190613470565b60405180910390f35b61060060048036038101906105fb9190613e52565b6116d8565b60405161060d9190613363565b60405180910390f35b610630600480360381019061062b9190613a58565b61176c565b005b61064c600480360381019061064791906137c5565b6117f0565b005b600061065982611988565b9050919050565b610668611a02565b80601160006101000a81548160ff0219169083151502179055507f218e591c4b0d49651b4b42843cb8cc59080122def3d2271f56ef2e21896753ec601160009054906101000a900460ff166040516106c09190613363565b60405180910390a150565b6060600080546106da90613ec1565b80601f016020809104026020016040519081016040528092919081815260200182805461070690613ec1565b80156107535780601f1061072857610100808354040283529160200191610753565b820191906000526020600020905b81548152906001019060200180831161073657829003601f168201915b5050505050905090565b600061076882611a80565b6004600083815260200190815260200160002060009054906101000a900473ffffffffffffffffffffffffffffffffffffffff169050919050565b60006107ae826110c9565b90508073ffffffffffffffffffffffffffffffffffffffff168373ffffffffffffffffffffffffffffffffffffffff16141561081f576040517f08c379a000000000000000000000000000000000000000000000000000000000815260040161081690613f65565b60405180910390fd5b8073ffffffffffffffffffffffffffffffffffffffff1661083e611acb565b73ffffffffffffffffffffffffffffffffffffffff16148061086d575061086c81610867611acb565b6116d8565b5b6108ac576040517f08c379a00000000000000000000000000000000000000000000000000000000081526004016108a390613ff7565b60405180910390fd5b6108b68383611ad3565b505050565b6108c3611a02565b80600e90805190602001906108d99291906130ba565b5050565b6000600880549050905090565b6108f2611a02565b60008282905011610938576040517f08c379a000000000000000000000000000000000000000000000000000000000815260040161092f90614063565b60405180910390fd5b6101f4828290501115610980576040517f08c379a0000000000000000000000000000000000000000000000000000000008152600401610977906140cf565b60405180910390fd5b60005b82829050811015610a2f57601360008484848181106109a5576109a46140ef565b5b90506020020160208101906109ba9190613a58565b73ffffffffffffffffffffffffffffffffffffffff1673ffffffffffffffffffffffffffffffffffffffff16815260200190815260200160002060006101000a81549060ff021916905560106000815480929190610a179061414d565b91905055508080610a2790614177565b915050610983565b505050565b610a45610a3f611acb565b82611b8c565b610a84576040517f08c379a0000000000000000000000000000000000000000000000000000000008152600401610a7b90614232565b60405180910390fd5b610a8f838383611c21565b505050565b6060806000600c600086815260200190815260200160002060405180604001604052908160008201805480602002602001604051908101604052809291908181526020018280548015610b3c57602002820191906000526020600020905b8160009054906101000a900473ffffffffffffffffffffffffffffffffffffffff1673ffffffffffffffffffffffffffffffffffffffff1681526020019060010190808311610af2575b5050505050815260200160018201805480602002602001604051908101604052809291908181526020018280548015610bd057602002820191906000526020600020906000905b82829054906101000a90046bffffffffffffffffffffffff166bffffffffffffffffffffffff16815260200190600c0190602082600b01049283019260010382029150808411610b835790505b505050505081525050905060008160000151511415610d1b57600a60405180604001604052908160008201805480602002602001604051908101604052809291908181526020018280548015610c7b57602002820191906000526020600020905b8160009054906101000a900473ffffffffffffffffffffffffffffffffffffffff1673ffffffffffffffffffffffffffffffffffffffff1681526020019060010190808311610c31575b5050505050815260200160018201805480602002602001604051908101604052809291908181526020018280548015610d0f57602002820191906000526020600020906000905b82829054906101000a90046bffffffffffffffffffffffff166bffffffffffffffffffffffff16815260200190600c0190602082600b01049283019260010382029150808411610cc25790505b50505050508152505090505b600081600001515167ffffffffffffffff811115610d3c57610d3b6135c7565b5b604051908082528060200260200182016040528015610d6a5781602001602082028036833780820191505090505b50905060005b826000015151811015610e0757610d85611e88565b6bffffffffffffffffffffffff1683602001518281518110610daa57610da96140ef565b5b60200260200101516bffffffffffffffffffffffff1687610dcb9190614252565b610dd591906142db565b828281518110610de857610de76140ef565b5b6020026020010181815250508080610dff90614177565b915050610d70565b508160000151819350935050509250929050565b6000610e2683611209565b8210610e67576040517f08c379a0000000000000000000000000000000000000000000000000000000008152600401610e5e9061437e565b60405180910390fd5b600660008473ffffffffffffffffffffffffffffffffffffffff1673ffffffffffffffffffffffffffffffffffffffff168152602001908152602001600020600083815260200190815260200160002054905092915050565b610edb838383604051806020016040528060008152506115cc565b505050565b610ee8611a02565b610ef181611e92565b6012600082815260200190815260200160002060006101000a81549073ffffffffffffffffffffffffffffffffffffffff021916905550565b60126020528060005260406000206000915054906101000a900473ffffffffffffffffffffffffffffffffffffffff1681565b6000610f676108dd565b8210610fa8576040517f08c379a0000000000000000000000000000000000000000000000000000000008152600401610f9f90614410565b60405180910390fd5b60088281548110610fbc57610fbb6140ef565b5b90600052602060002001549050919050565b601160009054906101000a900460ff1681565b600e8054610fee90613ec1565b80601f016020809104026020016040519081016040528092919081815260200182805461101a90613ec1565b80156110675780601f1061103c57610100808354040283529160200191611067565b820191906000526020600020905b81548152906001019060200180831161104a57829003601f168201915b505050505081565b611077611a02565b80600f908051906020019061108d9291906130ba565b507f01e56a02aca7f26a28165a040851ba78f30282b55ca81c63a804cdc1e2dcea72600f6040516110be91906144c5565b60405180910390a150565b6000806002600084815260200190815260200160002060009054906101000a900473ffffffffffffffffffffffffffffffffffffffff169050600073ffffffffffffffffffffffffffffffffffffffff168173ffffffffffffffffffffffffffffffffffffffff161415611172576040517f08c379a000000000000000000000000000000000000000000000000000000000815260040161116990614533565b60405180910390fd5b80915050919050565b600f805461118890613ec1565b80601f01602080910402602001604051908101604052809291908181526020018280546111b490613ec1565b80156112015780601f106111d657610100808354040283529160200191611201565b820191906000526020600020905b8154815290600101906020018083116111e457829003601f168201915b505050505081565b60008073ffffffffffffffffffffffffffffffffffffffff168273ffffffffffffffffffffffffffffffffffffffff16141561127a576040517f08c379a0000000000000000000000000000000000000000000000000000000008152600401611271906145c5565b60405180910390fd5b600360008373ffffffffffffffffffffffffffffffffffffffff1673ffffffffffffffffffffffffffffffffffffffff168152602001908152602001600020549050919050565b6112c9611a02565b6112d36000611faf565b565b60001515601160009054906101000a900460ff1615151415611367576112f96114da565b73ffffffffffffffffffffffffffffffffffffffff163373ffffffffffffffffffffffffffffffffffffffff1614611366576040517f08c379a000000000000000000000000000000000000000000000000000000000815260040161135d90614631565b60405180910390fd5b5b60011515601160009054906101000a900460ff161515141561144d57601360003373ffffffffffffffffffffffffffffffffffffffff1673ffffffffffffffffffffffffffffffffffffffff16815260200190815260200160002060009054906101000a900460ff168061140d57506113de6114da565b73ffffffffffffffffffffffffffffffffffffffff163373ffffffffffffffffffffffffffffffffffffffff16145b61144c576040517f08c379a00000000000000000000000000000000000000000000000000000000081526004016114439061469d565b60405180910390fd5b5b60006114596014612075565b90506114658582612083565b846012600083815260200190815260200160002060006101000a81548173ffffffffffffffffffffffffffffffffffffffff021916908373ffffffffffffffffffffffffffffffffffffffff16021790555083156114c9576114c88184846120a1565b5b6114d36014612293565b5050505050565b6000600d60009054906101000a900473ffffffffffffffffffffffffffffffffffffffff16905090565b60606001805461151390613ec1565b80601f016020809104026020016040519081016040528092919081815260200182805461153f90613ec1565b801561158c5780601f106115615761010080835404028352916020019161158c565b820191906000526020600020905b81548152906001019060200180831161156f57829003601f168201915b5050505050905090565b60136020528060005260406000206000915054906101000a900460ff1681565b6115c86115c1611acb565b83836122a9565b5050565b6115dd6115d7611acb565b83611b8c565b61161c576040517f08c379a000000000000000000000000000000000000000000000000000000000815260040161161390614232565b60405180910390fd5b61162884848484612416565b50505050565b606061163982612472565b611678576040517f08c379a000000000000000000000000000000000000000000000000000000000815260040161166f9061472f565b60405180910390fd5b60006116826124de565b905060008151116116a257604051806020016040528060008152506116d0565b806116ac84612570565b600e6040516020016116c09392919061480a565b6040516020818303038152906040525b915050919050565b6000600560008473ffffffffffffffffffffffffffffffffffffffff1673ffffffffffffffffffffffffffffffffffffffff16815260200190815260200160002060008373ffffffffffffffffffffffffffffffffffffffff1673ffffffffffffffffffffffffffffffffffffffff16815260200190815260200160002060009054906101000a900460ff16905092915050565b611774611a02565b600073ffffffffffffffffffffffffffffffffffffffff168173ffffffffffffffffffffffffffffffffffffffff1614156117e4576040517f08c379a00000000000000000000000000000000000000000000000000000000081526004016117db906148ad565b60405180910390fd5b6117ed81611faf565b50565b6117f8611a02565b6000828290501161183e576040517f08c379a000000000000000000000000000000000000000000000000000000000815260040161183590614063565b60405180910390fd5b6101f48282905010611885576040517f08c379a000000000000000000000000000000000000000000000000000000000815260040161187c906140cf565b60405180910390fd5b60005b82829050811015611983576107d0601054106118d9576040517f08c379a00000000000000000000000000000000000000000000000000000000081526004016118d09061493f565b60405180910390fd5b6001601360008585858181106118f2576118f16140ef565b5b90506020020160208101906119079190613a58565b73ffffffffffffffffffffffffffffffffffffffff1673ffffffffffffffffffffffffffffffffffffffff16815260200190815260200160002060006101000a81548160ff0219169083151502179055506010600081548092919061196b90614177565b9190505550808061197b90614177565b915050611888565b505050565b60007f2a55205a000000000000000000000000000000000000000000000000000000007bffffffffffffffffffffffffffffffffffffffffffffffffffffffff1916827bffffffffffffffffffffffffffffffffffffffffffffffffffffffff191614806119fb57506119fa826126d1565b5b9050919050565b611a0a611acb565b73ffffffffffffffffffffffffffffffffffffffff16611a286114da565b73ffffffffffffffffffffffffffffffffffffffff1614611a7e576040517f08c379a0000000000000000000000000000000000000000000000000000000008152600401611a75906149ab565b60405180910390fd5b565b611a8981612472565b611ac8576040517f08c379a0000000000000000000000000000000000000000000000000000000008152600401611abf90614533565b60405180910390fd5b50565b600033905090565b816004600083815260200190815260200160002060006101000a81548173ffffffffffffffffffffffffffffffffffffffff021916908373ffffffffffffffffffffffffffffffffffffffff160217905550808273ffffffffffffffffffffffffffffffffffffffff16611b46836110c9565b73ffffffffffffffffffffffffffffffffffffffff167f8c5be1e5ebec7d5bd14f71427d1e84f3dd0314c0f7b2291e5b200ac8c7c3b92560405160405180910390a45050565b600080611b98836110c9565b90508073ffffffffffffffffffffffffffffffffffffffff168473ffffffffffffffffffffffffffffffffffffffff161480611bda5750611bd981856116d8565b5b80611c1857508373ffffffffffffffffffffffffffffffffffffffff16611c008461075d565b73ffffffffffffffffffffffffffffffffffffffff16145b91505092915050565b8273ffffffffffffffffffffffffffffffffffffffff16611c41826110c9565b73ffffffffffffffffffffffffffffffffffffffff1614611c97576040517f08c379a0000000000000000000000000000000000000000000000000000000008152600401611c8e90614a3d565b60405180910390fd5b600073ffffffffffffffffffffffffffffffffffffffff168273ffffffffffffffffffffffffffffffffffffffff161415611d07576040517f08c379a0000000000000000000000000000000000000000000000000000000008152600401611cfe90614acf565b60405180910390fd5b611d1283838361274b565b611d1d600082611ad3565b6001600360008573ffffffffffffffffffffffffffffffffffffffff1673ffffffffffffffffffffffffffffffffffffffff1681526020019081526020016000206000828254611d6d9190614aef565b925050819055506001600360008473ffffffffffffffffffffffffffffffffffffffff1673ffffffffffffffffffffffffffffffffffffffff1681526020019081526020016000206000828254611dc49190614b23565b92505081905550816002600083815260200190815260200160002060006101000a81548173ffffffffffffffffffffffffffffffffffffffff021916908373ffffffffffffffffffffffffffffffffffffffff160217905550808273ffffffffffffffffffffffffffffffffffffffff168473ffffffffffffffffffffffffffffffffffffffff167fddf252ad1be2c89b69c2b068fc378daa952ba7f163c4a11628f55a4df523b3ef60405160405180910390a4611e8383838361275b565b505050565b6000612710905090565b6000611e9d826110c9565b9050611eab8160008461274b565b611eb6600083611ad3565b6001600360008373ffffffffffffffffffffffffffffffffffffffff1673ffffffffffffffffffffffffffffffffffffffff1681526020019081526020016000206000828254611f069190614aef565b925050819055506002600083815260200190815260200160002060006101000a81549073ffffffffffffffffffffffffffffffffffffffff021916905581600073ffffffffffffffffffffffffffffffffffffffff168273ffffffffffffffffffffffffffffffffffffffff167fddf252ad1be2c89b69c2b068fc378daa952ba7f163c4a11628f55a4df523b3ef60405160405180910390a4611fab8160008461275b565b5050565b6000600d60009054906101000a900473ffffffffffffffffffffffffffffffffffffffff16905081600d60006101000a81548173ffffffffffffffffffffffffffffffffffffffff021916908373ffffffffffffffffffffffffffffffffffffffff1602179055508173ffffffffffffffffffffffffffffffffffffffff168173ffffffffffffffffffffffffffffffffffffffff167f8be0079c531659141344cd1fd0a4f28419497f9722a3daafe3b4186f6b6457e060405160405180910390a35050565b600081600001549050919050565b61209d828260405180602001604052806000815250612760565b5050565b60008251116120e5576040517f08c379a00000000000000000000000000000000000000000000000000000000081526004016120dc90614bc5565b60405180910390fd5b60058251111561212a576040517f08c379a000000000000000000000000000000000000000000000000000000000815260040161212190614c57565b60405180910390fd5b805182511461216e576040517f08c379a000000000000000000000000000000000000000000000000000000000815260040161216590614ce9565b60405180910390fd5b6000805b82518110156121c45782818151811061218e5761218d6140ef565b5b60200260200101516bffffffffffffffffffffffff16826121af9190614b23565b915080806121bc90614177565b915050612172565b506121cd611e88565b6bffffffffffffffffffffffff1681111561221d576040517f08c379a000000000000000000000000000000000000000000000000000000000815260040161221490614d7b565b60405180910390fd5b606080849050839150604051806040016040528082815260200183815250600c6000888152602001908152602001600020600082015181600001908051906020019061226a929190613140565b5060208201518160010190805190602001906122879291906131ca565b50905050505050505050565b6001816000016000828254019250508190555050565b8173ffffffffffffffffffffffffffffffffffffffff168373ffffffffffffffffffffffffffffffffffffffff161415612318576040517f08c379a000000000000000000000000000000000000000000000000000000000815260040161230f90614de7565b60405180910390fd5b80600560008573ffffffffffffffffffffffffffffffffffffffff1673ffffffffffffffffffffffffffffffffffffffff16815260200190815260200160002060008473ffffffffffffffffffffffffffffffffffffffff1673ffffffffffffffffffffffffffffffffffffffff16815260200190815260200160002060006101000a81548160ff0219169083151502179055508173ffffffffffffffffffffffffffffffffffffffff168373ffffffffffffffffffffffffffffffffffffffff167f17307eab39ab6107e8899845ad3d59bd9653f200f220920489ca2b5937696c31836040516124099190613363565b60405180910390a3505050565b612421848484611c21565b61242d848484846127bb565b61246c576040517f08c379a000000000000000000000000000000000000000000000000000000000815260040161246390614e79565b60405180910390fd5b50505050565b60008073ffffffffffffffffffffffffffffffffffffffff166002600084815260200190815260200160002060009054906101000a900473ffffffffffffffffffffffffffffffffffffffff1673ffffffffffffffffffffffffffffffffffffffff1614159050919050565b6060600f80546124ed90613ec1565b80601f016020809104026020016040519081016040528092919081815260200182805461251990613ec1565b80156125665780601f1061253b57610100808354040283529160200191612566565b820191906000526020600020905b81548152906001019060200180831161254957829003601f168201915b5050505050905090565b606060008214156125b8576040518060400160405280600181526020017f300000000000000000000000000000000000000000000000000000000000000081525090506126cc565b600082905060005b600082146125ea5780806125d390614177565b915050600a826125e391906142db565b91506125c0565b60008167ffffffffffffffff811115612606576126056135c7565b5b6040519080825280601f01601f1916602001820160405280156126385781602001600182028036833780820191505090505b5090505b600085146126c5576001826126519190614aef565b9150600a856126609190614e99565b603061266c9190614b23565b60f81b818381518110612682576126816140ef565b5b60200101907effffffffffffffffffffffffffffffffffffffffffffffffffffffffffffff1916908160001a905350600a856126be91906142db565b945061263c565b8093505050505b919050565b60007f780e9d63000000000000000000000000000000000000000000000000000000007bffffffffffffffffffffffffffffffffffffffffffffffffffffffff1916827bffffffffffffffffffffffffffffffffffffffffffffffffffffffff19161480612744575061274382612952565b5b9050919050565b612756838383612a34565b505050565b505050565b61276a8383612b48565b61277760008484846127bb565b6127b6576040517f08c379a00000000000000000000000000000000000000000000000000000000081526004016127ad90614e79565b60405180910390fd5b505050565b60006127dc8473ffffffffffffffffffffffffffffffffffffffff16612d22565b15612945578373ffffffffffffffffffffffffffffffffffffffff1663150b7a02612805611acb565b8786866040518563ffffffff1660e01b81526004016128279493929190614f1f565b602060405180830381600087803b15801561284157600080fd5b505af192505050801561287257506040513d601f19601f8201168201806040525081019061286f9190614f80565b60015b6128f5573d80600081146128a2576040519150601f19603f3d011682016040523d82523d6000602084013e6128a7565b606091505b506000815114156128ed576040517f08c379a00000000000000000000000000000000000000000000000000000000081526004016128e490614e79565b60405180910390fd5b805181602001fd5b63150b7a0260e01b7bffffffffffffffffffffffffffffffffffffffffffffffffffffffff1916817bffffffffffffffffffffffffffffffffffffffffffffffffffffffff19161491505061294a565b600190505b949350505050565b60007f80ac58cd000000000000000000000000000000000000000000000000000000007bffffffffffffffffffffffffffffffffffffffffffffffffffffffff1916827bffffffffffffffffffffffffffffffffffffffffffffffffffffffff19161480612a1d57507f5b5e139f000000000000000000000000000000000000000000000000000000007bffffffffffffffffffffffffffffffffffffffffffffffffffffffff1916827bffffffffffffffffffffffffffffffffffffffffffffffffffffffff1916145b80612a2d5750612a2c82612d45565b5b9050919050565b612a3f838383612daf565b600073ffffffffffffffffffffffffffffffffffffffff168373ffffffffffffffffffffffffffffffffffffffff161415612a8257612a7d81612db4565b612ac1565b8173ffffffffffffffffffffffffffffffffffffffff168373ffffffffffffffffffffffffffffffffffffffff1614612ac057612abf8382612dfd565b5b5b600073ffffffffffffffffffffffffffffffffffffffff168273ffffffffffffffffffffffffffffffffffffffff161415612b0457612aff81612f6a565b612b43565b8273ffffffffffffffffffffffffffffffffffffffff168273ffffffffffffffffffffffffffffffffffffffff1614612b4257612b41828261303b565b5b5b505050565b600073ffffffffffffffffffffffffffffffffffffffff168273ffffffffffffffffffffffffffffffffffffffff161415612bb8576040517f08c379a0000000000000000000000000000000000000000000000000000000008152600401612baf90614ff9565b60405180910390fd5b612bc181612472565b15612c01576040517f08c379a0000000000000000000000000000000000000000000000000000000008152600401612bf890615065565b60405180910390fd5b612c0d6000838361274b565b6001600360008473ffffffffffffffffffffffffffffffffffffffff1673ffffffffffffffffffffffffffffffffffffffff1681526020019081526020016000206000828254612c5d9190614b23565b92505081905550816002600083815260200190815260200160002060006101000a81548173ffffffffffffffffffffffffffffffffffffffff021916908373ffffffffffffffffffffffffffffffffffffffff160217905550808273ffffffffffffffffffffffffffffffffffffffff16600073ffffffffffffffffffffffffffffffffffffffff167fddf252ad1be2c89b69c2b068fc378daa952ba7f163c4a11628f55a4df523b3ef60405160405180910390a4612d1e6000838361275b565b5050565b6000808273ffffffffffffffffffffffffffffffffffffffff163b119050919050565b60007f01ffc9a7000000000000000000000000000000000000000000000000000000007bffffffffffffffffffffffffffffffffffffffffffffffffffffffff1916827bffffffffffffffffffffffffffffffffffffffffffffffffffffffff1916149050919050565b505050565b6008805490506009600083815260200190815260200160002081905550600881908060018154018082558091505060019003906000526020600020016000909190919091505550565b60006001612e0a84611209565b612e149190614aef565b9050600060076000848152602001908152602001600020549050818114612ef9576000600660008673ffffffffffffffffffffffffffffffffffffffff1673ffffffffffffffffffffffffffffffffffffffff168152602001908152602001600020600084815260200190815260200160002054905080600660008773ffffffffffffffffffffffffffffffffffffffff1673ffffffffffffffffffffffffffffffffffffffff168152602001908152602001600020600084815260200190815260200160002081905550816007600083815260200190815260200160002081905550505b6007600084815260200190815260200160002060009055600660008573ffffffffffffffffffffffffffffffffffffffff1673ffffffffffffffffffffffffffffffffffffffff16815260200190815260200160002060008381526020019081526020016000206000905550505050565b60006001600880549050612f7e9190614aef565b9050600060096000848152602001908152602001600020549050600060088381548110612fae57612fad6140ef565b5b906000526020600020015490508060088381548110612fd057612fcf6140ef565b5b90600052602060002001819055508160096000838152602001908152602001600020819055506009600085815260200190815260200160002060009055600880548061301f5761301e615085565b5b6001900381819060005260206000200160009055905550505050565b600061304683611209565b905081600660008573ffffffffffffffffffffffffffffffffffffffff1673ffffffffffffffffffffffffffffffffffffffff168152602001908152602001600020600083815260200190815260200160002081905550806007600084815260200190815260200160002081905550505050565b8280546130c690613ec1565b90600052602060002090601f0160209004810192826130e8576000855561312f565b82601f1061310157805160ff191683800117855561312f565b8280016001018555821561312f579182015b8281111561312e578251825591602001919060010190613113565b5b50905061313c9190613292565b5090565b8280548282559060005260206000209081019282156131b9579160200282015b828111156131b85782518260006101000a81548173ffffffffffffffffffffffffffffffffffffffff021916908373ffffffffffffffffffffffffffffffffffffffff16021790555091602001919060010190613160565b5b5090506131c69190613292565b5090565b828054828255906000526020600020906001016002900481019282156132815791602002820160005b8382111561324757835183826101000a8154816bffffffffffffffffffffffff02191690836bffffffffffffffffffffffff1602179055509260200192600c01602081600b010492830192600103026131f3565b801561327f5782816101000a8154906bffffffffffffffffffffffff0219169055600c01602081600b01049283019260010302613247565b505b50905061328e9190613292565b5090565b5b808211156132ab576000816000905550600101613293565b5090565b6000604051905090565b600080fd5b600080fd5b60007fffffffff0000000000000000000000000000000000000000000000000000000082169050919050565b6132f8816132c3565b811461330357600080fd5b50565b600081359050613315816132ef565b92915050565b600060208284031215613331576133306132b9565b5b600061333f84828501613306565b91505092915050565b60008115159050919050565b61335d81613348565b82525050565b60006020820190506133786000830184613354565b92915050565b61338781613348565b811461339257600080fd5b50565b6000813590506133a48161337e565b92915050565b6000602082840312156133c0576133bf6132b9565b5b60006133ce84828501613395565b91505092915050565b600081519050919050565b600082825260208201905092915050565b60005b838110156134115780820151818401526020810190506133f6565b83811115613420576000848401525b50505050565b6000601f19601f8301169050919050565b6000613442826133d7565b61344c81856133e2565b935061345c8185602086016133f3565b61346581613426565b840191505092915050565b6000602082019050818103600083015261348a8184613437565b905092915050565b6000819050919050565b6134a581613492565b81146134b057600080fd5b50565b6000813590506134c28161349c565b92915050565b6000602082840312156134de576134dd6132b9565b5b60006134ec848285016134b3565b91505092915050565b600073ffffffffffffffffffffffffffffffffffffffff82169050919050565b6000613520826134f5565b9050919050565b61353081613515565b82525050565b600060208201905061354b6000830184613527565b92915050565b61355a81613515565b811461356557600080fd5b50565b60008135905061357781613551565b92915050565b60008060408385031215613594576135936132b9565b5b60006135a285828601613568565b92505060206135b3858286016134b3565b9150509250929050565b600080fd5b600080fd5b7f4e487b7100000000000000000000000000000000000000000000000000000000600052604160045260246000fd5b6135ff82613426565b810181811067ffffffffffffffff8211171561361e5761361d6135c7565b5b80604052505050565b60006136316132af565b905061363d82826135f6565b919050565b600067ffffffffffffffff82111561365d5761365c6135c7565b5b61366682613426565b9050602081019050919050565b82818337600083830152505050565b600061369561369084613642565b613627565b9050828152602081018484840111156136b1576136b06135c2565b5b6136bc848285613673565b509392505050565b600082601f8301126136d9576136d86135bd565b5b81356136e9848260208601613682565b91505092915050565b600060208284031215613708576137076132b9565b5b600082013567ffffffffffffffff811115613726576137256132be565b5b613732848285016136c4565b91505092915050565b61374481613492565b82525050565b600060208201905061375f600083018461373b565b92915050565b600080fd5b600080fd5b60008083601f840112613785576137846135bd565b5b8235905067ffffffffffffffff8111156137a2576137a1613765565b5b6020830191508360208202830111156137be576137bd61376a565b5b9250929050565b600080602083850312156137dc576137db6132b9565b5b600083013567ffffffffffffffff8111156137fa576137f96132be565b5b6138068582860161376f565b92509250509250929050565b60008060006060848603121561382b5761382a6132b9565b5b600061383986828701613568565b935050602061384a86828701613568565b925050604061385b868287016134b3565b9150509250925092565b6000806040838503121561387c5761387b6132b9565b5b600061388a858286016134b3565b925050602061389b858286016134b3565b9150509250929050565b600081519050919050565b600082825260208201905092915050565b6000819050602082019050919050565b6138da81613515565b82525050565b60006138ec83836138d1565b60208301905092915050565b6000602082019050919050565b6000613910826138a5565b61391a81856138b0565b9350613925836138c1565b8060005b8381101561395657815161393d88826138e0565b9750613948836138f8565b925050600181019050613929565b5085935050505092915050565b600081519050919050565b600082825260208201905092915050565b6000819050602082019050919050565b61399881613492565b82525050565b60006139aa838361398f565b60208301905092915050565b6000602082019050919050565b60006139ce82613963565b6139d8818561396e565b93506139e38361397f565b8060005b83811015613a145781516139fb888261399e565b9750613a06836139b6565b9250506001810190506139e7565b5085935050505092915050565b60006040820190508181036000830152613a3b8185613905565b90508181036020830152613a4f81846139c3565b90509392505050565b600060208284031215613a6e57613a6d6132b9565b5b6000613a7c84828501613568565b91505092915050565b600067ffffffffffffffff821115613aa057613a9f6135c7565b5b602082029050602081019050919050565b6000613ac4613abf84613a85565b613627565b90508083825260208201905060208402830185811115613ae757613ae661376a565b5b835b81811015613b105780613afc8882613568565b845260208401935050602081019050613ae9565b5050509392505050565b600082601f830112613b2f57613b2e6135bd565b5b8135613b3f848260208601613ab1565b91505092915050565b600067ffffffffffffffff821115613b6357613b626135c7565b5b602082029050602081019050919050565b60006bffffffffffffffffffffffff82169050919050565b613b9581613b74565b8114613ba057600080fd5b50565b600081359050613bb281613b8c565b92915050565b6000613bcb613bc684613b48565b613627565b90508083825260208201905060208402830185811115613bee57613bed61376a565b5b835b81811015613c175780613c038882613ba3565b845260208401935050602081019050613bf0565b5050509392505050565b600082601f830112613c3657613c356135bd565b5b8135613c46848260208601613bb8565b91505092915050565b60008060008060808587031215613c6957613c686132b9565b5b6000613c7787828801613568565b9450506020613c8887828801613395565b935050604085013567ffffffffffffffff811115613ca957613ca86132be565b5b613cb587828801613b1a565b925050606085013567ffffffffffffffff811115613cd657613cd56132be565b5b613ce287828801613c21565b91505092959194509250565b60008060408385031215613d0557613d046132b9565b5b6000613d1385828601613568565b9250506020613d2485828601613395565b9150509250929050565b600067ffffffffffffffff821115613d4957613d486135c7565b5b613d5282613426565b9050602081019050919050565b6000613d72613d6d84613d2e565b613627565b905082815260208101848484011115613d8e57613d8d6135c2565b5b613d99848285613673565b509392505050565b600082601f830112613db657613db56135bd565b5b8135613dc6848260208601613d5f565b91505092915050565b60008060008060808587031215613de957613de86132b9565b5b6000613df787828801613568565b9450506020613e0887828801613568565b9350506040613e19878288016134b3565b925050606085013567ffffffffffffffff811115613e3a57613e396132be565b5b613e4687828801613da1565b91505092959194509250565b60008060408385031215613e6957613e686132b9565b5b6000613e7785828601613568565b9250506020613e8885828601613568565b9150509250929050565b7f4e487b7100000000000000000000000000000000000000000000000000000000600052602260045260246000fd5b60006002820490506001821680613ed957607f821691505b60208210811415613eed57613eec613e92565b5b50919050565b7f4552433732313a20617070726f76616c20746f2063757272656e74206f776e6560008201527f7200000000000000000000000000000000000000000000000000000000000000602082015250565b6000613f4f6021836133e2565b9150613f5a82613ef3565b604082019050919050565b60006020820190508181036000830152613f7e81613f42565b9050919050565b7f4552433732313a20617070726f76652063616c6c6572206973206e6f7420746f60008201527f6b656e206f776e6572206e6f7220617070726f76656420666f7220616c6c0000602082015250565b6000613fe1603e836133e2565b9150613fec82613f85565b604082019050919050565b6000602082019050818103600083015261401081613fd4565b9050919050565b7f4e6f20757365722064657461696c732070726f76696465640000000000000000600082015250565b600061404d6018836133e2565b915061405882614017565b602082019050919050565b6000602082019050818103600083015261407c81614040565b9050919050565b7f546f6f206d616e792075736572737320746f2077686974656c69737400000000600082015250565b60006140b9601c836133e2565b91506140c482614083565b602082019050919050565b600060208201905081810360008301526140e8816140ac565b9050919050565b7f4e487b7100000000000000000000000000000000000000000000000000000000600052603260045260246000fd5b7f4e487b7100000000000000000000000000000000000000000000000000000000600052601160045260246000fd5b600061415882613492565b9150600082141561416c5761416b61411e565b5b600182039050919050565b600061418282613492565b91507fffffffffffffffffffffffffffffffffffffffffffffffffffffffffffffffff8214156141b5576141b461411e565b5b600182019050919050565b7f4552433732313a2063616c6c6572206973206e6f7420746f6b656e206f776e6560008201527f72206e6f7220617070726f766564000000000000000000000000000000000000602082015250565b600061421c602e836133e2565b9150614227826141c0565b604082019050919050565b6000602082019050818103600083015261424b8161420f565b9050919050565b600061425d82613492565b915061426883613492565b9250817fffffffffffffffffffffffffffffffffffffffffffffffffffffffffffffffff04831182151516156142a1576142a061411e565b5b828202905092915050565b7f4e487b7100000000000000000000000000000000000000000000000000000000600052601260045260246000fd5b60006142e682613492565b91506142f183613492565b925082614301576143006142ac565b5b828204905092915050565b7f455243373231456e756d657261626c653a206f776e657220696e646578206f7560008201527f74206f6620626f756e6473000000000000000000000000000000000000000000602082015250565b6000614368602b836133e2565b91506143738261430c565b604082019050919050565b600060208201905081810360008301526143978161435b565b9050919050565b7f455243373231456e756d657261626c653a20676c6f62616c20696e646578206f60008201527f7574206f6620626f756e64730000000000000000000000000000000000000000602082015250565b60006143fa602c836133e2565b91506144058261439e565b604082019050919050565b60006020820190508181036000830152614429816143ed565b9050919050565b60008190508160005260206000209050919050565b6000815461445281613ec1565b61445c81866133e2565b945060018216600081146144775760018114614489576144bc565b60ff19831686526020860193506144bc565b61449285614430565b60005b838110156144b457815481890152600182019150602081019050614495565b808801955050505b50505092915050565b600060208201905081810360008301526144df8184614445565b905092915050565b7f4552433732313a20696e76616c696420746f6b656e2049440000000000000000600082015250565b600061451d6018836133e2565b9150614528826144e7565b602082019050919050565b6000602082019050818103600083015261454c81614510565b9050919050565b7f4552433732313a2061646472657373207a65726f206973206e6f74206120766160008201527f6c6964206f776e65720000000000000000000000000000000000000000000000602082015250565b60006145af6029836133e2565b91506145ba82614553565b604082019050919050565b600060208201905081810360008301526145de816145a2565b9050919050565b7f4f776e61626c653a204e6f7420746865206f776e657200000000000000000000600082015250565b600061461b6016836133e2565b9150614626826145e5565b602082019050919050565b6000602082019050818103600083015261464a8161460e565b9050919050565b7f41646472657373206e6f742077686974656c6973746564000000000000000000600082015250565b60006146876017836133e2565b915061469282614651565b602082019050919050565b600060208201905081810360008301526146b68161467a565b9050919050565b7f4552433732314d657461646174613a2055524920717565727920666f72206e6f60008201527f6e6578697374656e7420746f6b656e0000000000000000000000000000000000602082015250565b6000614719602f836133e2565b9150614724826146bd565b604082019050919050565b600060208201905081810360008301526147488161470c565b9050919050565b600081905092915050565b6000614765826133d7565b61476f818561474f565b935061477f8185602086016133f3565b80840191505092915050565b6000815461479881613ec1565b6147a2818661474f565b945060018216600081146147bd57600181146147ce57614801565b60ff19831686528186019350614801565b6147d785614430565b60005b838110156147f9578154818901526001820191506020810190506147da565b838801955050505b50505092915050565b6000614816828661475a565b9150614822828561475a565b915061482e828461478b565b9150819050949350505050565b7f4f776e61626c653a206e6577206f776e657220697320746865207a65726f206160008201527f6464726573730000000000000000000000000000000000000000000000000000602082015250565b60006148976026836133e2565b91506148a28261483b565b604082019050919050565b600060208201905081810360008301526148c68161488a565b9050919050565b7f4d6178696d756d20557365727320616c72656164792077686974656c6973746560008201527f6400000000000000000000000000000000000000000000000000000000000000602082015250565b60006149296021836133e2565b9150614934826148cd565b604082019050919050565b600060208201905081810360008301526149588161491c565b9050919050565b7f4f776e61626c653a2063616c6c6572206973206e6f7420746865206f776e6572600082015250565b60006149956020836133e2565b91506149a08261495f565b602082019050919050565b600060208201905081810360008301526149c481614988565b9050919050565b7f4552433732313a207472616e736665722066726f6d20696e636f72726563742060008201527f6f776e6572000000000000000000000000000000000000000000000000000000602082015250565b6000614a276025836133e2565b9150614a32826149cb565b604082019050919050565b60006020820190508181036000830152614a5681614a1a565b9050919050565b7f4552433732313a207472616e7366657220746f20746865207a65726f2061646460008201527f7265737300000000000000000000000000000000000000000000000000000000602082015250565b6000614ab96024836133e2565b9150614ac482614a5d565b604082019050919050565b60006020820190508181036000830152614ae881614aac565b9050919050565b6000614afa82613492565b9150614b0583613492565b925082821015614b1857614b1761411e565b5b828203905092915050565b6000614b2e82613492565b9150614b3983613492565b9250827fffffffffffffffffffffffffffffffffffffffffffffffffffffffffffffffff03821115614b6e57614b6d61411e565b5b828201905092915050565b7f4e6f20526f79616c74792064657461696c732070726f76696465640000000000600082015250565b6000614baf601b836133e2565b9150614bba82614b79565b602082019050919050565b60006020820190508181036000830152614bde81614ba2565b9050919050565b7f546f6f206d616e7920726f79616c74792072656369657665727320646574616960008201527f6c73000000000000000000000000000000000000000000000000000000000000602082015250565b6000614c416022836133e2565b9150614c4c82614be5565b604082019050919050565b60006020820190508181036000830152614c7081614c34565b9050919050565b7f4d69736d61746368206f6620526f79616c74792072656369657665727320616e60008201527f6420746865697220666565730000000000000000000000000000000000000000602082015250565b6000614cd3602c836133e2565b9150614cde82614c77565b604082019050919050565b60006020820190508181036000830152614d0281614cc6565b9050919050565b7f455243323938313a20726f79616c7479206665652077696c6c2065786365656460008201527f2073616c65507269636500000000000000000000000000000000000000000000602082015250565b6000614d65602a836133e2565b9150614d7082614d09565b604082019050919050565b60006020820190508181036000830152614d9481614d58565b9050919050565b7f4552433732313a20617070726f766520746f2063616c6c657200000000000000600082015250565b6000614dd16019836133e2565b9150614ddc82614d9b565b602082019050919050565b60006020820190508181036000830152614e0081614dc4565b9050919050565b7f4552433732313a207472616e7366657220746f206e6f6e20455243373231526560008201527f63656976657220696d706c656d656e7465720000000000000000000000000000602082015250565b6000614e636032836133e2565b9150614e6e82614e07565b604082019050919050565b60006020820190508181036000830152614e9281614e56565b9050919050565b6000614ea482613492565b9150614eaf83613492565b925082614ebf57614ebe6142ac565b5b828206905092915050565b600081519050919050565b600082825260208201905092915050565b6000614ef182614eca565b614efb8185614ed5565b9350614f0b8185602086016133f3565b614f1481613426565b840191505092915050565b6000608082019050614f346000830187613527565b614f416020830186613527565b614f4e604083018561373b565b8181036060830152614f608184614ee6565b905095945050505050565b600081519050614f7a816132ef565b92915050565b600060208284031215614f9657614f956132b9565b5b6000614fa484828501614f6b565b91505092915050565b7f4552433732313a206d696e7420746f20746865207a65726f2061646472657373600082015250565b6000614fe36020836133e2565b9150614fee82614fad565b602082019050919050565b6000602082019050818103600083015261501281614fd6565b9050919050565b7f4552433732313a20746f6b656e20616c7265616479206d696e74656400000000600082015250565b600061504f601c836133e2565b915061505a82615019565b602082019050919050565b6000602082019050818103600083015261507e81615042565b9050919050565b7f4e487b7100000000000000000000000000000000000000000000000000000000600052603160045260246000fdfea2646970667358221220ddd21c73a7023857d6b90b057e3e39e316042ce04e76368b0c4a51d986a69ec264736f6c63430008090033",
  "linkReferences": {},
  "deployedLinkReferences": {}
}