{
  "_format": "hh-sol-artifact-1",
  "contractName": "ERC721Factory",
  "sourceName": "contracts/factoryContracts/ERC721Factory.sol",
  "abi": [
    {
      "inputs": [
        {
          "internalType": "string",
          "name": "_name",
          "type": "string"
        },
        {
          "internalType": "string",
          "name": "_symbol",
          "type": "string"
        },
        {
          "internalType": "bool",
          "name": "defaultRoyalty",
          "type": "bool"
        },
        {
          "internalType": "address[]",
          "name": "royaltyReceiver",
          "type": "address[]"
        },
        {
          "internalType": "uint96[]",
          "name": "royaltyFeesInBips",
          "type": "uint96[]"
        }
      ],
      "stateMutability": "nonpayable",
      "type": "constructor"
    },
    {
      "anonymous": false,
      "inputs": [
        {
          "indexed": true,
          "internalType": "address",
          "name": "owner",
          "type": "address"
        },
        {
          "indexed": true,
          "internalType": "address",
          "name": "approved",
          "type": "address"
        },
        {
          "indexed": true,
          "internalType": "uint256",
          "name": "tokenId",
          "type": "uint256"
        }
      ],
      "name": "Approval",
      "type": "event"
    },
    {
      "anonymous": false,
      "inputs": [
        {
          "indexed": true,
          "internalType": "address",
          "name": "owner",
          "type": "address"
        },
        {
          "indexed": true,
          "internalType": "address",
          "name": "operator",
          "type": "address"
        },
        {
          "indexed": false,
          "internalType": "bool",
          "name": "approved",
          "type": "bool"
        }
      ],
      "name": "ApprovalForAll",
      "type": "event"
    },
    {
      "anonymous": false,
      "inputs": [
        {
          "indexed": false,
          "internalType": "string",
          "name": "uri",
          "type": "string"
        }
      ],
      "name": "BaseURI",
      "type": "event"
    },
    {
      "anonymous": false,
      "inputs": [
        {
          "indexed": true,
          "internalType": "address",
          "name": "previousOwner",
          "type": "address"
        },
        {
          "indexed": true,
          "internalType": "address",
          "name": "newOwner",
          "type": "address"
        }
      ],
      "name": "OwnershipTransferred",
      "type": "event"
    },
    {
      "anonymous": false,
      "inputs": [
        {
          "indexed": true,
          "internalType": "address",
          "name": "from",
          "type": "address"
        },
        {
          "indexed": true,
          "internalType": "address",
          "name": "to",
          "type": "address"
        },
        {
          "indexed": true,
          "internalType": "uint256",
          "name": "tokenId",
          "type": "uint256"
        }
      ],
      "name": "Transfer",
      "type": "event"
    },
    {
      "anonymous": false,
      "inputs": [
        {
          "indexed": false,
          "internalType": "bool",
          "name": "whitelistEnabled",
          "type": "bool"
        }
      ],
      "name": "WhiteListEnabled",
      "type": "event"
    },
    {
      "inputs": [
        {
          "internalType": "uint256",
          "name": "",
          "type": "uint256"
        }
      ],
      "name": "_creators",
      "outputs": [
        {
          "internalType": "address",
          "name": "",
          "type": "address"
        }
      ],
      "stateMutability": "view",
      "type": "function"
    },
    {
      "inputs": [
        {
          "internalType": "address",
          "name": "to",
          "type": "address"
        },
        {
          "internalType": "uint256",
          "name": "tokenId",
          "type": "uint256"
        }
      ],
      "name": "approve",
      "outputs": [],
      "stateMutability": "nonpayable",
      "type": "function"
    },
    {
      "inputs": [
        {
          "internalType": "address",
          "name": "owner",
          "type": "address"
        }
      ],
      "name": "balanceOf",
      "outputs": [
        {
          "internalType": "uint256",
          "name": "",
          "type": "uint256"
        }
      ],
      "stateMutability": "view",
      "type": "function"
    },
    {
      "inputs": [],
      "name": "baseURI",
      "outputs": [
        {
          "internalType": "string",
          "name": "",
          "type": "string"
        }
      ],
      "stateMutability": "view",
      "type": "function"
    },
    {
      "inputs": [
        {
          "internalType": "uint256",
          "name": "tokenId",
          "type": "uint256"
        }
      ],
      "name": "burn",
      "outputs": [],
      "stateMutability": "nonpayable",
      "type": "function"
    },
    {
      "inputs": [
        {
          "internalType": "uint256",
          "name": "tokenId",
          "type": "uint256"
        }
      ],
      "name": "getApproved",
      "outputs": [
        {
          "internalType": "address",
          "name": "",
          "type": "address"
        }
      ],
      "stateMutability": "view",
      "type": "function"
    },
    {
      "inputs": [
        {
          "internalType": "address",
          "name": "owner",
          "type": "address"
        },
        {
          "internalType": "address",
          "name": "operator",
          "type": "address"
        }
      ],
      "name": "isApprovedForAll",
      "outputs": [
        {
          "internalType": "bool",
          "name": "",
          "type": "bool"
        }
      ],
      "stateMutability": "view",
      "type": "function"
    },
    {
      "inputs": [],
      "name": "mapSize",
      "outputs": [
        {
          "internalType": "uint256",
          "name": "",
          "type": "uint256"
        }
      ],
      "stateMutability": "view",
      "type": "function"
    },
    {
      "inputs": [],
      "name": "name",
      "outputs": [
        {
          "internalType": "string",
          "name": "",
          "type": "string"
        }
      ],
      "stateMutability": "view",
      "type": "function"
    },
    {
      "inputs": [],
      "name": "owner",
      "outputs": [
        {
          "internalType": "address",
          "name": "",
          "type": "address"
        }
      ],
      "stateMutability": "view",
      "type": "function"
    },
    {
      "inputs": [
        {
          "internalType": "uint256",
          "name": "tokenId",
          "type": "uint256"
        }
      ],
      "name": "ownerOf",
      "outputs": [
        {
          "internalType": "address",
          "name": "",
          "type": "address"
        }
      ],
      "stateMutability": "view",
      "type": "function"
    },
    {
      "inputs": [
        {
          "internalType": "address[]",
          "name": "currentAddresses",
          "type": "address[]"
        }
      ],
      "name": "removeWhitelist",
      "outputs": [],
      "stateMutability": "nonpayable",
      "type": "function"
    },
    {
      "inputs": [],
      "name": "renounceOwnership",
      "outputs": [],
      "stateMutability": "nonpayable",
      "type": "function"
    },
    {
      "inputs": [
        {
          "internalType": "uint256",
          "name": "_tokenId",
          "type": "uint256"
        },
        {
          "internalType": "uint256",
          "name": "_salePrice",
          "type": "uint256"
        }
      ],
      "name": "royaltyInfo",
      "outputs": [
        {
          "internalType": "address[]",
          "name": "",
          "type": "address[]"
        },
        {
          "internalType": "uint256[]",
          "name": "",
          "type": "uint256[]"
        }
      ],
      "stateMutability": "view",
      "type": "function"
    },
    {
      "inputs": [
        {
          "internalType": "address",
          "name": "creator",
          "type": "address"
        },
        {
          "internalType": "bool",
          "name": "tokenRoyalty",
          "type": "bool"
        },
        {
          "internalType": "address[]",
          "name": "royaltyReceiver",
          "type": "address[]"
        },
        {
          "internalType": "uint96[]",
          "name": "tokenRoyaltyInBips",
          "type": "uint96[]"
        }
      ],
      "name": "safeMint",
      "outputs": [],
      "stateMutability": "nonpayable",
      "type": "function"
    },
    {
      "inputs": [
        {
          "internalType": "address",
          "name": "from",
          "type": "address"
        },
        {
          "internalType": "address",
          "name": "to",
          "type": "address"
        },
        {
          "internalType": "uint256",
          "name": "tokenId",
          "type": "uint256"
        }
      ],
      "name": "safeTransferFrom",
      "outputs": [],
      "stateMutability": "nonpayable",
      "type": "function"
    },
    {
      "inputs": [
        {
          "internalType": "address",
          "name": "from",
          "type": "address"
        },
        {
          "internalType": "address",
          "name": "to",
          "type": "address"
        },
        {
          "internalType": "uint256",
          "name": "tokenId",
          "type": "uint256"
        },
        {
          "internalType": "bytes",
          "name": "data",
          "type": "bytes"
        }
      ],
      "name": "safeTransferFrom",
      "outputs": [],
      "stateMutability": "nonpayable",
      "type": "function"
    },
    {
      "inputs": [
        {
          "internalType": "address",
          "name": "operator",
          "type": "address"
        },
        {
          "internalType": "bool",
          "name": "approved",
          "type": "bool"
        }
      ],
      "name": "setApprovalForAll",
      "outputs": [],
      "stateMutability": "nonpayable",
      "type": "function"
    },
    {
      "inputs": [
        {
          "internalType": "string",
          "name": "baseURI_",
          "type": "string"
        }
      ],
      "name": "setBaseURI",
      "outputs": [],
      "stateMutability": "nonpayable",
      "type": "function"
    },
    {
      "inputs": [
        {
          "internalType": "string",
          "name": "_uriSuffix",
          "type": "string"
        }
      ],
      "name": "setUriSuffix",
      "outputs": [],
      "stateMutability": "nonpayable",
      "type": "function"
    },
    {
      "inputs": [
        {
          "internalType": "address[]",
          "name": "newAddresses",
          "type": "address[]"
        }
      ],
      "name": "setWhitelist",
      "outputs": [],
      "stateMutability": "nonpayable",
      "type": "function"
    },
    {
      "inputs": [
        {
          "internalType": "bool",
          "name": "_state",
          "type": "bool"
        }
      ],
      "name": "setWhitelistEnabled",
      "outputs": [],
      "stateMutability": "nonpayable",
      "type": "function"
    },
    {
      "inputs": [
        {
          "internalType": "bytes4",
          "name": "interfaceId",
          "type": "bytes4"
        }
      ],
      "name": "supportsInterface",
      "outputs": [
        {
          "internalType": "bool",
          "name": "",
          "type": "bool"
        }
      ],
      "stateMutability": "view",
      "type": "function"
    },
    {
      "inputs": [],
      "name": "symbol",
      "outputs": [
        {
          "internalType": "string",
          "name": "",
          "type": "string"
        }
      ],
      "stateMutability": "view",
      "type": "function"
    },
    {
      "inputs": [
        {
          "internalType": "uint256",
          "name": "index",
          "type": "uint256"
        }
      ],
      "name": "tokenByIndex",
      "outputs": [
        {
          "internalType": "uint256",
          "name": "",
          "type": "uint256"
        }
      ],
      "stateMutability": "view",
      "type": "function"
    },
    {
      "inputs": [
        {
          "internalType": "address",
          "name": "owner",
          "type": "address"
        },
        {
          "internalType": "uint256",
          "name": "index",
          "type": "uint256"
        }
      ],
      "name": "tokenOfOwnerByIndex",
      "outputs": [
        {
          "internalType": "uint256",
          "name": "",
          "type": "uint256"
        }
      ],
      "stateMutability": "view",
      "type": "function"
    },
    {
      "inputs": [
        {
          "internalType": "uint256",
          "name": "_tokenId",
          "type": "uint256"
        }
      ],
      "name": "tokenURI",
      "outputs": [
        {
          "internalType": "string",
          "name": "",
          "type": "string"
        }
      ],
      "stateMutability": "view",
      "type": "function"
    },
    {
      "inputs": [],
      "name": "totalSupply",
      "outputs": [
        {
          "internalType": "uint256",
          "name": "",
          "type": "uint256"
        }
      ],
      "stateMutability": "view",
      "type": "function"
    },
    {
      "inputs": [
        {
          "internalType": "address",
          "name": "from",
          "type": "address"
        },
        {
          "internalType": "address",
          "name": "to",
          "type": "address"
        },
        {
          "internalType": "uint256",
          "name": "tokenId",
          "type": "uint256"
        }
      ],
      "name": "transferFrom",
      "outputs": [],
      "stateMutability": "nonpayable",
      "type": "function"
    },
    {
      "inputs": [
        {
          "internalType": "address",
          "name": "newOwner",
          "type": "address"
        }
      ],
      "name": "transferOwnership",
      "outputs": [],
      "stateMutability": "nonpayable",
      "type": "function"
    },
    {
      "inputs": [],
      "name": "uriSuffix",
      "outputs": [
        {
          "internalType": "string",
          "name": "",
          "type": "string"
        }
      ],
      "stateMutability": "view",
      "type": "function"
    },
    {
      "inputs": [
        {
          "internalType": "address",
          "name": "",
          "type": "address"
        }
      ],
      "name": "whitelist",
      "outputs": [
        {
          "internalType": "bool",
          "name": "",
          "type": "bool"
        }
      ],
      "stateMutability": "view",
      "type": "function"
    },
    {
      "inputs": [],
      "name": "whitelistEnabled",
      "outputs": [
        {
          "internalType": "bool",
          "name": "",
          "type": "bool"
        }
      ],
      "stateMutability": "view",
      "type": "function"
    }
  ],
  "bytecode": "0x60806040526040518060400160405280600581526020017f2e6a736f6e000000000000000000000000000000000000000000000000000000815250600e90805190602001906200005192919062000484565b5060405180602001604052806000815250600f90805190602001906200007992919062000484565b5060006010556000601160006101000a81548160ff021916908315150217905550348015620000a757600080fd5b506040516200612d3803806200612d8339818101604052810190620000cd919062000acb565b84848160009080519060200190620000e792919062000484565b5080600190805190602001906200010092919062000484565b5050506200012362000117620001ab60201b60201c565b620001b360201b60201c565b6000859050600085905060008251141580156200014257506000815114155b62000184576040517f08c379a00000000000000000000000000000000000000000000000000000000081526004016200017b9062000c30565b60405180910390fd5b84156200019e576200019d84846200027960201b60201c565b5b5050505050505062001004565b600033905090565b6000600d60009054906101000a900473ffffffffffffffffffffffffffffffffffffffff16905081600d60006101000a81548173ffffffffffffffffffffffffffffffffffffffff021916908373ffffffffffffffffffffffffffffffffffffffff1602179055508173ffffffffffffffffffffffffffffffffffffffff168173ffffffffffffffffffffffffffffffffffffffff167f8be0079c531659141344cd1fd0a4f28419497f9722a3daafe3b4186f6b6457e060405160405180910390a35050565b6000825111620002c0576040517f08c379a0000000000000000000000000000000000000000000000000000000008152600401620002b79062000ca2565b60405180910390fd5b60058251111562000308576040517f08c379a0000000000000000000000000000000000000000000000000000000008152600401620002ff9062000d3a565b60405180910390fd5b80518251146200034f576040517f08c379a0000000000000000000000000000000000000000000000000000000008152600401620003469062000dd2565b60405180910390fd5b6000805b8251811015620003ae5782818151811062000373576200037262000df4565b5b60200260200101516bffffffffffffffffffffffff168262000396919062000e5c565b91508080620003a59062000eb9565b91505062000353565b50620003bf6200047a60201b60201c565b6bffffffffffffffffffffffff1681111562000412576040517f08c379a0000000000000000000000000000000000000000000000000000000008152600401620004099062000f7d565b60405180910390fd5b606080849050839150604051806040016040528082815260200183815250600a60008201518160000190805190602001906200045092919062000515565b5060208201518160010190805190602001906200046f929190620005a4565b509050505050505050565b6000612710905090565b828054620004929062000fce565b90600052602060002090601f016020900481019282620004b6576000855562000502565b82601f10620004d157805160ff191683800117855562000502565b8280016001018555821562000502579182015b8281111562000501578251825591602001919060010190620004e4565b5b50905062000511919062000673565b5090565b82805482825590600052602060002090810192821562000591579160200282015b82811115620005905782518260006101000a81548173ffffffffffffffffffffffffffffffffffffffff021916908373ffffffffffffffffffffffffffffffffffffffff1602179055509160200191906001019062000536565b5b509050620005a0919062000673565b5090565b82805482825590600052602060002090600101600290048101928215620006605791602002820160005b838211156200062457835183826101000a8154816bffffffffffffffffffffffff02191690836bffffffffffffffffffffffff1602179055509260200192600c01602081600b01049283019260010302620005ce565b80156200065e5782816101000a8154906bffffffffffffffffffffffff0219169055600c01602081600b0104928301926001030262000624565b505b5090506200066f919062000673565b5090565b5b808211156200068e57600081600090555060010162000674565b5090565b6000604051905090565b600080fd5b600080fd5b600080fd5b600080fd5b6000601f19601f8301169050919050565b7f4e487b7100000000000000000000000000000000000000000000000000000000600052604160045260246000fd5b620006fb82620006b0565b810181811067ffffffffffffffff821117156200071d576200071c620006c1565b5b80604052505050565b60006200073262000692565b9050620007408282620006f0565b919050565b600067ffffffffffffffff821115620007635762000762620006c1565b5b6200076e82620006b0565b9050602081019050919050565b60005b838110156200079b5780820151818401526020810190506200077e565b83811115620007ab576000848401525b50505050565b6000620007c8620007c28462000745565b62000726565b905082815260208101848484011115620007e757620007e6620006ab565b5b620007f48482856200077b565b509392505050565b600082601f830112620008145762000813620006a6565b5b815162000826848260208601620007b1565b91505092915050565b60008115159050919050565b62000846816200082f565b81146200085257600080fd5b50565b60008151905062000866816200083b565b92915050565b600067ffffffffffffffff8211156200088a5762000889620006c1565b5b602082029050602081019050919050565b600080fd5b600073ffffffffffffffffffffffffffffffffffffffff82169050919050565b6000620008cd82620008a0565b9050919050565b620008df81620008c0565b8114620008eb57600080fd5b50565b600081519050620008ff81620008d4565b92915050565b60006200091c62000916846200086c565b62000726565b905080838252602082019050602084028301858111156200094257620009416200089b565b5b835b818110156200096f57806200095a8882620008ee565b84526020840193505060208101905062000944565b5050509392505050565b600082601f830112620009915762000990620006a6565b5b8151620009a384826020860162000905565b91505092915050565b600067ffffffffffffffff821115620009ca57620009c9620006c1565b5b602082029050602081019050919050565b60006bffffffffffffffffffffffff82169050919050565b620009fe81620009db565b811462000a0a57600080fd5b50565b60008151905062000a1e81620009f3565b92915050565b600062000a3b62000a3584620009ac565b62000726565b9050808382526020820190506020840283018581111562000a615762000a606200089b565b5b835b8181101562000a8e578062000a79888262000a0d565b84526020840193505060208101905062000a63565b5050509392505050565b600082601f83011262000ab05762000aaf620006a6565b5b815162000ac284826020860162000a24565b91505092915050565b600080600080600060a0868803121562000aea5762000ae96200069c565b5b600086015167ffffffffffffffff81111562000b0b5762000b0a620006a1565b5b62000b1988828901620007fc565b955050602086015167ffffffffffffffff81111562000b3d5762000b3c620006a1565b5b62000b4b88828901620007fc565b945050604062000b5e8882890162000855565b935050606086015167ffffffffffffffff81111562000b825762000b81620006a1565b5b62000b908882890162000979565b925050608086015167ffffffffffffffff81111562000bb45762000bb3620006a1565b5b62000bc28882890162000a98565b9150509295509295909350565b600082825260208201905092915050565b7f4552433732313a2043686f6f73652061206e616d6520616e642073796d626f6c600082015250565b600062000c1860208362000bcf565b915062000c258262000be0565b602082019050919050565b6000602082019050818103600083015262000c4b8162000c09565b9050919050565b7f4e6f20526f79616c74792064657461696c732070726f76696465640000000000600082015250565b600062000c8a601b8362000bcf565b915062000c978262000c52565b602082019050919050565b6000602082019050818103600083015262000cbd8162000c7b565b9050919050565b7f546f6f206d616e7920726f79616c74792072656369657665727320646574616960008201527f6c73000000000000000000000000000000000000000000000000000000000000602082015250565b600062000d2260228362000bcf565b915062000d2f8262000cc4565b604082019050919050565b6000602082019050818103600083015262000d558162000d13565b9050919050565b7f4d69736d61746368206f6620526f79616c74792072656369657665727320616e60008201527f6420746865697220666565730000000000000000000000000000000000000000602082015250565b600062000dba602c8362000bcf565b915062000dc78262000d5c565b604082019050919050565b6000602082019050818103600083015262000ded8162000dab565b9050919050565b7f4e487b7100000000000000000000000000000000000000000000000000000000600052603260045260246000fd5b6000819050919050565b7f4e487b7100000000000000000000000000000000000000000000000000000000600052601160045260246000fd5b600062000e698262000e23565b915062000e768362000e23565b9250827fffffffffffffffffffffffffffffffffffffffffffffffffffffffffffffffff0382111562000eae5762000ead62000e2d565b5b828201905092915050565b600062000ec68262000e23565b91507fffffffffffffffffffffffffffffffffffffffffffffffffffffffffffffffff82141562000efc5762000efb62000e2d565b5b600182019050919050565b7f455243323938313a20726f79616c7479206665652077696c6c2065786365656460008201527f2073616c65507269636500000000000000000000000000000000000000000000602082015250565b600062000f65602a8362000bcf565b915062000f728262000f07565b604082019050919050565b6000602082019050818103600083015262000f988162000f56565b9050919050565b7f4e487b7100000000000000000000000000000000000000000000000000000000600052602260045260246000fd5b6000600282049050600182168062000fe757607f821691505b6020821081141562000ffe5762000ffd62000f9f565b5b50919050565b61511980620010146000396000f3fe608060405234801561001057600080fd5b50600436106101fb5760003560e01c806351fb012d1161011a5780638da5cb5b116100ad578063b88d4fde1161007c578063b88d4fde146105c3578063c87b56dd146105df578063e985e9c51461060f578063f2fde38b1461063f578063f42176481461065b576101fb565b80638da5cb5b1461053b57806395d89b41146105595780639b19251a14610577578063a22cb465146105a7576101fb565b80636c0360eb116100e95780636c0360eb146104c757806370a08231146104e5578063715018a6146105155780638784a4c91461051f576101fb565b806351fb012d1461043f5780635503a0e81461045d57806355f804b31461047b5780636352211e14610497576101fb565b8063232452161161019257806342842e0e1161016157806342842e0e146103a757806342966c68146103c35780634816edf4146103df5780634f6ccce71461040f576101fb565b8063232452161461030e57806323b872dd1461032a5780632a55205a146103465780632f745c5914610377576101fb565b8063095ea7b3116101ce578063095ea7b31461029a57806316ba10e0146102b657806318160ddd146102d25780631a32ebb6146102f0576101fb565b806301ffc9a714610200578063052d9e7e1461023057806306fdde031461024c578063081812fc1461026a575b600080fd5b61021a6004803603810190610215919061334a565b610677565b6040516102279190613392565b60405180910390f35b61024a600480360381019061024591906133d9565b610689565b005b6102546106f4565b604051610261919061349f565b60405180910390f35b610284600480360381019061027f91906134f7565b610786565b6040516102919190613565565b60405180910390f35b6102b460048036038101906102af91906135ac565b6107cc565b005b6102d060048036038101906102cb9190613721565b6108e4565b005b6102da610906565b6040516102e79190613779565b60405180910390f35b6102f8610913565b6040516103059190613779565b60405180910390f35b610328600480360381019061032391906137f4565b610919565b005b610344600480360381019061033f9190613841565b610a63565b005b610360600480360381019061035b9190613894565b610ac3565b60405161036e929190613a50565b60405180910390f35b610391600480360381019061038c91906135ac565b610e4a565b60405161039e9190613779565b60405180910390f35b6103c160048036038101906103bc9190613841565b610eef565b005b6103dd60048036038101906103d891906134f7565b610f0f565b005b6103f960048036038101906103f491906134f7565b610f59565b6040516104069190613565565b60405180910390f35b610429600480360381019061042491906134f7565b610f8c565b6040516104369190613779565b60405180910390f35b610447610ffd565b6040516104549190613392565b60405180910390f35b610465611010565b604051610472919061349f565b60405180910390f35b61049560048036038101906104909190613721565b61109e565b005b6104b160048036038101906104ac91906134f7565b6110f8565b6040516104be9190613565565b60405180910390f35b6104cf6111aa565b6040516104dc919061349f565b60405180910390f35b6104ff60048036038101906104fa9190613a87565b611238565b60405161050c9190613779565b60405180910390f35b61051d6112f0565b005b61053960048036038101906105349190613c7e565b611304565b005b610543611509565b6040516105509190613565565b60405180910390f35b610561611533565b60405161056e919061349f565b60405180910390f35b610591600480360381019061058c9190613a87565b6115c5565b60405161059e9190613392565b60405180910390f35b6105c160048036038101906105bc9190613d1d565b6115e5565b005b6105dd60048036038101906105d89190613dfe565b6115fb565b005b6105f960048036038101906105f491906134f7565b61165d565b604051610606919061349f565b60405180910390f35b61062960048036038101906106249190613e81565b611707565b6040516106369190613392565b60405180910390f35b61065960048036038101906106549190613a87565b61179b565b005b610675600480360381019061067091906137f4565b61181f565b005b6000610682826119b7565b9050919050565b610691611a31565b80601160006101000a81548160ff0219169083151502179055507f218e591c4b0d49651b4b42843cb8cc59080122def3d2271f56ef2e21896753ec601160009054906101000a900460ff166040516106e99190613392565b60405180910390a150565b60606000805461070390613ef0565b80601f016020809104026020016040519081016040528092919081815260200182805461072f90613ef0565b801561077c5780601f106107515761010080835404028352916020019161077c565b820191906000526020600020905b81548152906001019060200180831161075f57829003601f168201915b5050505050905090565b600061079182611aaf565b6004600083815260200190815260200160002060009054906101000a900473ffffffffffffffffffffffffffffffffffffffff169050919050565b60006107d7826110f8565b90508073ffffffffffffffffffffffffffffffffffffffff168373ffffffffffffffffffffffffffffffffffffffff161415610848576040517f08c379a000000000000000000000000000000000000000000000000000000000815260040161083f90613f94565b60405180910390fd5b8073ffffffffffffffffffffffffffffffffffffffff16610867611afa565b73ffffffffffffffffffffffffffffffffffffffff161480610896575061089581610890611afa565b611707565b5b6108d5576040517f08c379a00000000000000000000000000000000000000000000000000000000081526004016108cc90614026565b60405180910390fd5b6108df8383611b02565b505050565b6108ec611a31565b80600e90805190602001906109029291906130e9565b5050565b6000600880549050905090565b60105481565b610921611a31565b60008282905011610967576040517f08c379a000000000000000000000000000000000000000000000000000000000815260040161095e90614092565b60405180910390fd5b6101f48282905011156109af576040517f08c379a00000000000000000000000000000000000000000000000000000000081526004016109a6906140fe565b60405180910390fd5b60005b82829050811015610a5e57601360008484848181106109d4576109d361411e565b5b90506020020160208101906109e99190613a87565b73ffffffffffffffffffffffffffffffffffffffff1673ffffffffffffffffffffffffffffffffffffffff16815260200190815260200160002060006101000a81549060ff021916905560106000815480929190610a469061417c565b91905055508080610a56906141a6565b9150506109b2565b505050565b610a74610a6e611afa565b82611bbb565b610ab3576040517f08c379a0000000000000000000000000000000000000000000000000000000008152600401610aaa90614261565b60405180910390fd5b610abe838383611c50565b505050565b6060806000600c600086815260200190815260200160002060405180604001604052908160008201805480602002602001604051908101604052809291908181526020018280548015610b6b57602002820191906000526020600020905b8160009054906101000a900473ffffffffffffffffffffffffffffffffffffffff1673ffffffffffffffffffffffffffffffffffffffff1681526020019060010190808311610b21575b5050505050815260200160018201805480602002602001604051908101604052809291908181526020018280548015610bff57602002820191906000526020600020906000905b82829054906101000a90046bffffffffffffffffffffffff166bffffffffffffffffffffffff16815260200190600c0190602082600b01049283019260010382029150808411610bb25790505b505050505081525050905060008160000151511415610d4a57600a60405180604001604052908160008201805480602002602001604051908101604052809291908181526020018280548015610caa57602002820191906000526020600020905b8160009054906101000a900473ffffffffffffffffffffffffffffffffffffffff1673ffffffffffffffffffffffffffffffffffffffff1681526020019060010190808311610c60575b5050505050815260200160018201805480602002602001604051908101604052809291908181526020018280548015610d3e57602002820191906000526020600020906000905b82829054906101000a90046bffffffffffffffffffffffff166bffffffffffffffffffffffff16815260200190600c0190602082600b01049283019260010382029150808411610cf15790505b50505050508152505090505b600081600001515167ffffffffffffffff811115610d6b57610d6a6135f6565b5b604051908082528060200260200182016040528015610d995781602001602082028036833780820191505090505b50905060005b826000015151811015610e3657610db4611eb7565b6bffffffffffffffffffffffff1683602001518281518110610dd957610dd861411e565b5b60200260200101516bffffffffffffffffffffffff1687610dfa9190614281565b610e04919061430a565b828281518110610e1757610e1661411e565b5b6020026020010181815250508080610e2e906141a6565b915050610d9f565b508160000151819350935050509250929050565b6000610e5583611238565b8210610e96576040517f08c379a0000000000000000000000000000000000000000000000000000000008152600401610e8d906143ad565b60405180910390fd5b600660008473ffffffffffffffffffffffffffffffffffffffff1673ffffffffffffffffffffffffffffffffffffffff168152602001908152602001600020600083815260200190815260200160002054905092915050565b610f0a838383604051806020016040528060008152506115fb565b505050565b610f17611a31565b610f2081611ec1565b6012600082815260200190815260200160002060006101000a81549073ffffffffffffffffffffffffffffffffffffffff021916905550565b60126020528060005260406000206000915054906101000a900473ffffffffffffffffffffffffffffffffffffffff1681565b6000610f96610906565b8210610fd7576040517f08c379a0000000000000000000000000000000000000000000000000000000008152600401610fce9061443f565b60405180910390fd5b60088281548110610feb57610fea61411e565b5b90600052602060002001549050919050565b601160009054906101000a900460ff1681565b600e805461101d90613ef0565b80601f016020809104026020016040519081016040528092919081815260200182805461104990613ef0565b80156110965780601f1061106b57610100808354040283529160200191611096565b820191906000526020600020905b81548152906001019060200180831161107957829003601f168201915b505050505081565b6110a6611a31565b80600f90805190602001906110bc9291906130e9565b507f01e56a02aca7f26a28165a040851ba78f30282b55ca81c63a804cdc1e2dcea72600f6040516110ed91906144f4565b60405180910390a150565b6000806002600084815260200190815260200160002060009054906101000a900473ffffffffffffffffffffffffffffffffffffffff169050600073ffffffffffffffffffffffffffffffffffffffff168173ffffffffffffffffffffffffffffffffffffffff1614156111a1576040517f08c379a000000000000000000000000000000000000000000000000000000000815260040161119890614562565b60405180910390fd5b80915050919050565b600f80546111b790613ef0565b80601f01602080910402602001604051908101604052809291908181526020018280546111e390613ef0565b80156112305780601f1061120557610100808354040283529160200191611230565b820191906000526020600020905b81548152906001019060200180831161121357829003601f168201915b505050505081565b60008073ffffffffffffffffffffffffffffffffffffffff168273ffffffffffffffffffffffffffffffffffffffff1614156112a9576040517f08c379a00000000000000000000000000000000000000000000000000000000081526004016112a0906145f4565b60405180910390fd5b600360008373ffffffffffffffffffffffffffffffffffffffff1673ffffffffffffffffffffffffffffffffffffffff168152602001908152602001600020549050919050565b6112f8611a31565b6113026000611fde565b565b60001515601160009054906101000a900460ff161515141561139657611328611509565b73ffffffffffffffffffffffffffffffffffffffff163373ffffffffffffffffffffffffffffffffffffffff1614611395576040517f08c379a000000000000000000000000000000000000000000000000000000000815260040161138c90614660565b60405180910390fd5b5b60011515601160009054906101000a900460ff161515141561147c57601360003373ffffffffffffffffffffffffffffffffffffffff1673ffffffffffffffffffffffffffffffffffffffff16815260200190815260200160002060009054906101000a900460ff168061143c575061140d611509565b73ffffffffffffffffffffffffffffffffffffffff163373ffffffffffffffffffffffffffffffffffffffff16145b61147b576040517f08c379a0000000000000000000000000000000000000000000000000000000008152600401611472906146cc565b60405180910390fd5b5b600061148860146120a4565b905061149485826120b2565b846012600083815260200190815260200160002060006101000a81548173ffffffffffffffffffffffffffffffffffffffff021916908373ffffffffffffffffffffffffffffffffffffffff16021790555083156114f8576114f78184846120d0565b5b61150260146122c2565b5050505050565b6000600d60009054906101000a900473ffffffffffffffffffffffffffffffffffffffff16905090565b60606001805461154290613ef0565b80601f016020809104026020016040519081016040528092919081815260200182805461156e90613ef0565b80156115bb5780601f10611590576101008083540402835291602001916115bb565b820191906000526020600020905b81548152906001019060200180831161159e57829003601f168201915b5050505050905090565b60136020528060005260406000206000915054906101000a900460ff1681565b6115f76115f0611afa565b83836122d8565b5050565b61160c611606611afa565b83611bbb565b61164b576040517f08c379a000000000000000000000000000000000000000000000000000000000815260040161164290614261565b60405180910390fd5b61165784848484612445565b50505050565b6060611668826124a1565b6116a7576040517f08c379a000000000000000000000000000000000000000000000000000000000815260040161169e9061475e565b60405180910390fd5b60006116b161250d565b905060008151116116d157604051806020016040528060008152506116ff565b806116db8461259f565b600e6040516020016116ef93929190614839565b6040516020818303038152906040525b915050919050565b6000600560008473ffffffffffffffffffffffffffffffffffffffff1673ffffffffffffffffffffffffffffffffffffffff16815260200190815260200160002060008373ffffffffffffffffffffffffffffffffffffffff1673ffffffffffffffffffffffffffffffffffffffff16815260200190815260200160002060009054906101000a900460ff16905092915050565b6117a3611a31565b600073ffffffffffffffffffffffffffffffffffffffff168173ffffffffffffffffffffffffffffffffffffffff161415611813576040517f08c379a000000000000000000000000000000000000000000000000000000000815260040161180a906148dc565b60405180910390fd5b61181c81611fde565b50565b611827611a31565b6000828290501161186d576040517f08c379a000000000000000000000000000000000000000000000000000000000815260040161186490614092565b60405180910390fd5b6101f482829050106118b4576040517f08c379a00000000000000000000000000000000000000000000000000000000081526004016118ab906140fe565b60405180910390fd5b60005b828290508110156119b2576107d060105410611908576040517f08c379a00000000000000000000000000000000000000000000000000000000081526004016118ff9061496e565b60405180910390fd5b6001601360008585858181106119215761192061411e565b5b90506020020160208101906119369190613a87565b73ffffffffffffffffffffffffffffffffffffffff1673ffffffffffffffffffffffffffffffffffffffff16815260200190815260200160002060006101000a81548160ff0219169083151502179055506010600081548092919061199a906141a6565b919050555080806119aa906141a6565b9150506118b7565b505050565b60007f2a55205a000000000000000000000000000000000000000000000000000000007bffffffffffffffffffffffffffffffffffffffffffffffffffffffff1916827bffffffffffffffffffffffffffffffffffffffffffffffffffffffff19161480611a2a5750611a2982612700565b5b9050919050565b611a39611afa565b73ffffffffffffffffffffffffffffffffffffffff16611a57611509565b73ffffffffffffffffffffffffffffffffffffffff1614611aad576040517f08c379a0000000000000000000000000000000000000000000000000000000008152600401611aa4906149da565b60405180910390fd5b565b611ab8816124a1565b611af7576040517f08c379a0000000000000000000000000000000000000000000000000000000008152600401611aee90614562565b60405180910390fd5b50565b600033905090565b816004600083815260200190815260200160002060006101000a81548173ffffffffffffffffffffffffffffffffffffffff021916908373ffffffffffffffffffffffffffffffffffffffff160217905550808273ffffffffffffffffffffffffffffffffffffffff16611b75836110f8565b73ffffffffffffffffffffffffffffffffffffffff167f8c5be1e5ebec7d5bd14f71427d1e84f3dd0314c0f7b2291e5b200ac8c7c3b92560405160405180910390a45050565b600080611bc7836110f8565b90508073ffffffffffffffffffffffffffffffffffffffff168473ffffffffffffffffffffffffffffffffffffffff161480611c095750611c088185611707565b5b80611c4757508373ffffffffffffffffffffffffffffffffffffffff16611c2f84610786565b73ffffffffffffffffffffffffffffffffffffffff16145b91505092915050565b8273ffffffffffffffffffffffffffffffffffffffff16611c70826110f8565b73ffffffffffffffffffffffffffffffffffffffff1614611cc6576040517f08c379a0000000000000000000000000000000000000000000000000000000008152600401611cbd90614a6c565b60405180910390fd5b600073ffffffffffffffffffffffffffffffffffffffff168273ffffffffffffffffffffffffffffffffffffffff161415611d36576040517f08c379a0000000000000000000000000000000000000000000000000000000008152600401611d2d90614afe565b60405180910390fd5b611d4183838361277a565b611d4c600082611b02565b6001600360008573ffffffffffffffffffffffffffffffffffffffff1673ffffffffffffffffffffffffffffffffffffffff1681526020019081526020016000206000828254611d9c9190614b1e565b925050819055506001600360008473ffffffffffffffffffffffffffffffffffffffff1673ffffffffffffffffffffffffffffffffffffffff1681526020019081526020016000206000828254611df39190614b52565b92505081905550816002600083815260200190815260200160002060006101000a81548173ffffffffffffffffffffffffffffffffffffffff021916908373ffffffffffffffffffffffffffffffffffffffff160217905550808273ffffffffffffffffffffffffffffffffffffffff168473ffffffffffffffffffffffffffffffffffffffff167fddf252ad1be2c89b69c2b068fc378daa952ba7f163c4a11628f55a4df523b3ef60405160405180910390a4611eb283838361278a565b505050565b6000612710905090565b6000611ecc826110f8565b9050611eda8160008461277a565b611ee5600083611b02565b6001600360008373ffffffffffffffffffffffffffffffffffffffff1673ffffffffffffffffffffffffffffffffffffffff1681526020019081526020016000206000828254611f359190614b1e565b925050819055506002600083815260200190815260200160002060006101000a81549073ffffffffffffffffffffffffffffffffffffffff021916905581600073ffffffffffffffffffffffffffffffffffffffff168273ffffffffffffffffffffffffffffffffffffffff167fddf252ad1be2c89b69c2b068fc378daa952ba7f163c4a11628f55a4df523b3ef60405160405180910390a4611fda8160008461278a565b5050565b6000600d60009054906101000a900473ffffffffffffffffffffffffffffffffffffffff16905081600d60006101000a81548173ffffffffffffffffffffffffffffffffffffffff021916908373ffffffffffffffffffffffffffffffffffffffff1602179055508173ffffffffffffffffffffffffffffffffffffffff168173ffffffffffffffffffffffffffffffffffffffff167f8be0079c531659141344cd1fd0a4f28419497f9722a3daafe3b4186f6b6457e060405160405180910390a35050565b600081600001549050919050565b6120cc82826040518060200160405280600081525061278f565b5050565b6000825111612114576040517f08c379a000000000000000000000000000000000000000000000000000000000815260040161210b90614bf4565b60405180910390fd5b600582511115612159576040517f08c379a000000000000000000000000000000000000000000000000000000000815260040161215090614c86565b60405180910390fd5b805182511461219d576040517f08c379a000000000000000000000000000000000000000000000000000000000815260040161219490614d18565b60405180910390fd5b6000805b82518110156121f3578281815181106121bd576121bc61411e565b5b60200260200101516bffffffffffffffffffffffff16826121de9190614b52565b915080806121eb906141a6565b9150506121a1565b506121fc611eb7565b6bffffffffffffffffffffffff1681111561224c576040517f08c379a000000000000000000000000000000000000000000000000000000000815260040161224390614daa565b60405180910390fd5b606080849050839150604051806040016040528082815260200183815250600c6000888152602001908152602001600020600082015181600001908051906020019061229992919061316f565b5060208201518160010190805190602001906122b69291906131f9565b50905050505050505050565b6001816000016000828254019250508190555050565b8173ffffffffffffffffffffffffffffffffffffffff168373ffffffffffffffffffffffffffffffffffffffff161415612347576040517f08c379a000000000000000000000000000000000000000000000000000000000815260040161233e90614e16565b60405180910390fd5b80600560008573ffffffffffffffffffffffffffffffffffffffff1673ffffffffffffffffffffffffffffffffffffffff16815260200190815260200160002060008473ffffffffffffffffffffffffffffffffffffffff1673ffffffffffffffffffffffffffffffffffffffff16815260200190815260200160002060006101000a81548160ff0219169083151502179055508173ffffffffffffffffffffffffffffffffffffffff168373ffffffffffffffffffffffffffffffffffffffff167f17307eab39ab6107e8899845ad3d59bd9653f200f220920489ca2b5937696c31836040516124389190613392565b60405180910390a3505050565b612450848484611c50565b61245c848484846127ea565b61249b576040517f08c379a000000000000000000000000000000000000000000000000000000000815260040161249290614ea8565b60405180910390fd5b50505050565b60008073ffffffffffffffffffffffffffffffffffffffff166002600084815260200190815260200160002060009054906101000a900473ffffffffffffffffffffffffffffffffffffffff1673ffffffffffffffffffffffffffffffffffffffff1614159050919050565b6060600f805461251c90613ef0565b80601f016020809104026020016040519081016040528092919081815260200182805461254890613ef0565b80156125955780601f1061256a57610100808354040283529160200191612595565b820191906000526020600020905b81548152906001019060200180831161257857829003601f168201915b5050505050905090565b606060008214156125e7576040518060400160405280600181526020017f300000000000000000000000000000000000000000000000000000000000000081525090506126fb565b600082905060005b60008214612619578080612602906141a6565b915050600a82612612919061430a565b91506125ef565b60008167ffffffffffffffff811115612635576126346135f6565b5b6040519080825280601f01601f1916602001820160405280156126675781602001600182028036833780820191505090505b5090505b600085146126f4576001826126809190614b1e565b9150600a8561268f9190614ec8565b603061269b9190614b52565b60f81b8183815181106126b1576126b061411e565b5b60200101907effffffffffffffffffffffffffffffffffffffffffffffffffffffffffffff1916908160001a905350600a856126ed919061430a565b945061266b565b8093505050505b919050565b60007f780e9d63000000000000000000000000000000000000000000000000000000007bffffffffffffffffffffffffffffffffffffffffffffffffffffffff1916827bffffffffffffffffffffffffffffffffffffffffffffffffffffffff19161480612773575061277282612981565b5b9050919050565b612785838383612a63565b505050565b505050565b6127998383612b77565b6127a660008484846127ea565b6127e5576040517f08c379a00000000000000000000000000000000000000000000000000000000081526004016127dc90614ea8565b60405180910390fd5b505050565b600061280b8473ffffffffffffffffffffffffffffffffffffffff16612d51565b15612974578373ffffffffffffffffffffffffffffffffffffffff1663150b7a02612834611afa565b8786866040518563ffffffff1660e01b81526004016128569493929190614f4e565b602060405180830381600087803b15801561287057600080fd5b505af19250505080156128a157506040513d601f19601f8201168201806040525081019061289e9190614faf565b60015b612924573d80600081146128d1576040519150601f19603f3d011682016040523d82523d6000602084013e6128d6565b606091505b5060008151141561291c576040517f08c379a000000000000000000000000000000000000000000000000000000000815260040161291390614ea8565b60405180910390fd5b805181602001fd5b63150b7a0260e01b7bffffffffffffffffffffffffffffffffffffffffffffffffffffffff1916817bffffffffffffffffffffffffffffffffffffffffffffffffffffffff191614915050612979565b600190505b949350505050565b60007f80ac58cd000000000000000000000000000000000000000000000000000000007bffffffffffffffffffffffffffffffffffffffffffffffffffffffff1916827bffffffffffffffffffffffffffffffffffffffffffffffffffffffff19161480612a4c57507f5b5e139f000000000000000000000000000000000000000000000000000000007bffffffffffffffffffffffffffffffffffffffffffffffffffffffff1916827bffffffffffffffffffffffffffffffffffffffffffffffffffffffff1916145b80612a5c5750612a5b82612d74565b5b9050919050565b612a6e838383612dde565b600073ffffffffffffffffffffffffffffffffffffffff168373ffffffffffffffffffffffffffffffffffffffff161415612ab157612aac81612de3565b612af0565b8173ffffffffffffffffffffffffffffffffffffffff168373ffffffffffffffffffffffffffffffffffffffff1614612aef57612aee8382612e2c565b5b5b600073ffffffffffffffffffffffffffffffffffffffff168273ffffffffffffffffffffffffffffffffffffffff161415612b3357612b2e81612f99565b612b72565b8273ffffffffffffffffffffffffffffffffffffffff168273ffffffffffffffffffffffffffffffffffffffff1614612b7157612b70828261306a565b5b5b505050565b600073ffffffffffffffffffffffffffffffffffffffff168273ffffffffffffffffffffffffffffffffffffffff161415612be7576040517f08c379a0000000000000000000000000000000000000000000000000000000008152600401612bde90615028565b60405180910390fd5b612bf0816124a1565b15612c30576040517f08c379a0000000000000000000000000000000000000000000000000000000008152600401612c2790615094565b60405180910390fd5b612c3c6000838361277a565b6001600360008473ffffffffffffffffffffffffffffffffffffffff1673ffffffffffffffffffffffffffffffffffffffff1681526020019081526020016000206000828254612c8c9190614b52565b92505081905550816002600083815260200190815260200160002060006101000a81548173ffffffffffffffffffffffffffffffffffffffff021916908373ffffffffffffffffffffffffffffffffffffffff160217905550808273ffffffffffffffffffffffffffffffffffffffff16600073ffffffffffffffffffffffffffffffffffffffff167fddf252ad1be2c89b69c2b068fc378daa952ba7f163c4a11628f55a4df523b3ef60405160405180910390a4612d4d6000838361278a565b5050565b6000808273ffffffffffffffffffffffffffffffffffffffff163b119050919050565b60007f01ffc9a7000000000000000000000000000000000000000000000000000000007bffffffffffffffffffffffffffffffffffffffffffffffffffffffff1916827bffffffffffffffffffffffffffffffffffffffffffffffffffffffff1916149050919050565b505050565b6008805490506009600083815260200190815260200160002081905550600881908060018154018082558091505060019003906000526020600020016000909190919091505550565b60006001612e3984611238565b612e439190614b1e565b9050600060076000848152602001908152602001600020549050818114612f28576000600660008673ffffffffffffffffffffffffffffffffffffffff1673ffffffffffffffffffffffffffffffffffffffff168152602001908152602001600020600084815260200190815260200160002054905080600660008773ffffffffffffffffffffffffffffffffffffffff1673ffffffffffffffffffffffffffffffffffffffff168152602001908152602001600020600084815260200190815260200160002081905550816007600083815260200190815260200160002081905550505b6007600084815260200190815260200160002060009055600660008573ffffffffffffffffffffffffffffffffffffffff1673ffffffffffffffffffffffffffffffffffffffff16815260200190815260200160002060008381526020019081526020016000206000905550505050565b60006001600880549050612fad9190614b1e565b9050600060096000848152602001908152602001600020549050600060088381548110612fdd57612fdc61411e565b5b906000526020600020015490508060088381548110612fff57612ffe61411e565b5b90600052602060002001819055508160096000838152602001908152602001600020819055506009600085815260200190815260200160002060009055600880548061304e5761304d6150b4565b5b6001900381819060005260206000200160009055905550505050565b600061307583611238565b905081600660008573ffffffffffffffffffffffffffffffffffffffff1673ffffffffffffffffffffffffffffffffffffffff168152602001908152602001600020600083815260200190815260200160002081905550806007600084815260200190815260200160002081905550505050565b8280546130f590613ef0565b90600052602060002090601f016020900481019282613117576000855561315e565b82601f1061313057805160ff191683800117855561315e565b8280016001018555821561315e579182015b8281111561315d578251825591602001919060010190613142565b5b50905061316b91906132c1565b5090565b8280548282559060005260206000209081019282156131e8579160200282015b828111156131e75782518260006101000a81548173ffffffffffffffffffffffffffffffffffffffff021916908373ffffffffffffffffffffffffffffffffffffffff1602179055509160200191906001019061318f565b5b5090506131f591906132c1565b5090565b828054828255906000526020600020906001016002900481019282156132b05791602002820160005b8382111561327657835183826101000a8154816bffffffffffffffffffffffff02191690836bffffffffffffffffffffffff1602179055509260200192600c01602081600b01049283019260010302613222565b80156132ae5782816101000a8154906bffffffffffffffffffffffff0219169055600c01602081600b01049283019260010302613276565b505b5090506132bd91906132c1565b5090565b5b808211156132da5760008160009055506001016132c2565b5090565b6000604051905090565b600080fd5b600080fd5b60007fffffffff0000000000000000000000000000000000000000000000000000000082169050919050565b613327816132f2565b811461333257600080fd5b50565b6000813590506133448161331e565b92915050565b6000602082840312156133605761335f6132e8565b5b600061336e84828501613335565b91505092915050565b60008115159050919050565b61338c81613377565b82525050565b60006020820190506133a76000830184613383565b92915050565b6133b681613377565b81146133c157600080fd5b50565b6000813590506133d3816133ad565b92915050565b6000602082840312156133ef576133ee6132e8565b5b60006133fd848285016133c4565b91505092915050565b600081519050919050565b600082825260208201905092915050565b60005b83811015613440578082015181840152602081019050613425565b8381111561344f576000848401525b50505050565b6000601f19601f8301169050919050565b600061347182613406565b61347b8185613411565b935061348b818560208601613422565b61349481613455565b840191505092915050565b600060208201905081810360008301526134b98184613466565b905092915050565b6000819050919050565b6134d4816134c1565b81146134df57600080fd5b50565b6000813590506134f1816134cb565b92915050565b60006020828403121561350d5761350c6132e8565b5b600061351b848285016134e2565b91505092915050565b600073ffffffffffffffffffffffffffffffffffffffff82169050919050565b600061354f82613524565b9050919050565b61355f81613544565b82525050565b600060208201905061357a6000830184613556565b92915050565b61358981613544565b811461359457600080fd5b50565b6000813590506135a681613580565b92915050565b600080604083850312156135c3576135c26132e8565b5b60006135d185828601613597565b92505060206135e2858286016134e2565b9150509250929050565b600080fd5b600080fd5b7f4e487b7100000000000000000000000000000000000000000000000000000000600052604160045260246000fd5b61362e82613455565b810181811067ffffffffffffffff8211171561364d5761364c6135f6565b5b80604052505050565b60006136606132de565b905061366c8282613625565b919050565b600067ffffffffffffffff82111561368c5761368b6135f6565b5b61369582613455565b9050602081019050919050565b82818337600083830152505050565b60006136c46136bf84613671565b613656565b9050828152602081018484840111156136e0576136df6135f1565b5b6136eb8482856136a2565b509392505050565b600082601f830112613708576137076135ec565b5b81356137188482602086016136b1565b91505092915050565b600060208284031215613737576137366132e8565b5b600082013567ffffffffffffffff811115613755576137546132ed565b5b613761848285016136f3565b91505092915050565b613773816134c1565b82525050565b600060208201905061378e600083018461376a565b92915050565b600080fd5b600080fd5b60008083601f8401126137b4576137b36135ec565b5b8235905067ffffffffffffffff8111156137d1576137d0613794565b5b6020830191508360208202830111156137ed576137ec613799565b5b9250929050565b6000806020838503121561380b5761380a6132e8565b5b600083013567ffffffffffffffff811115613829576138286132ed565b5b6138358582860161379e565b92509250509250929050565b60008060006060848603121561385a576138596132e8565b5b600061386886828701613597565b935050602061387986828701613597565b925050604061388a868287016134e2565b9150509250925092565b600080604083850312156138ab576138aa6132e8565b5b60006138b9858286016134e2565b92505060206138ca858286016134e2565b9150509250929050565b600081519050919050565b600082825260208201905092915050565b6000819050602082019050919050565b61390981613544565b82525050565b600061391b8383613900565b60208301905092915050565b6000602082019050919050565b600061393f826138d4565b61394981856138df565b9350613954836138f0565b8060005b8381101561398557815161396c888261390f565b975061397783613927565b925050600181019050613958565b5085935050505092915050565b600081519050919050565b600082825260208201905092915050565b6000819050602082019050919050565b6139c7816134c1565b82525050565b60006139d983836139be565b60208301905092915050565b6000602082019050919050565b60006139fd82613992565b613a07818561399d565b9350613a12836139ae565b8060005b83811015613a43578151613a2a88826139cd565b9750613a35836139e5565b925050600181019050613a16565b5085935050505092915050565b60006040820190508181036000830152613a6a8185613934565b90508181036020830152613a7e81846139f2565b90509392505050565b600060208284031215613a9d57613a9c6132e8565b5b6000613aab84828501613597565b91505092915050565b600067ffffffffffffffff821115613acf57613ace6135f6565b5b602082029050602081019050919050565b6000613af3613aee84613ab4565b613656565b90508083825260208201905060208402830185811115613b1657613b15613799565b5b835b81811015613b3f5780613b2b8882613597565b845260208401935050602081019050613b18565b5050509392505050565b600082601f830112613b5e57613b5d6135ec565b5b8135613b6e848260208601613ae0565b91505092915050565b600067ffffffffffffffff821115613b9257613b916135f6565b5b602082029050602081019050919050565b60006bffffffffffffffffffffffff82169050919050565b613bc481613ba3565b8114613bcf57600080fd5b50565b600081359050613be181613bbb565b92915050565b6000613bfa613bf584613b77565b613656565b90508083825260208201905060208402830185811115613c1d57613c1c613799565b5b835b81811015613c465780613c328882613bd2565b845260208401935050602081019050613c1f565b5050509392505050565b600082601f830112613c6557613c646135ec565b5b8135613c75848260208601613be7565b91505092915050565b60008060008060808587031215613c9857613c976132e8565b5b6000613ca687828801613597565b9450506020613cb7878288016133c4565b935050604085013567ffffffffffffffff811115613cd857613cd76132ed565b5b613ce487828801613b49565b925050606085013567ffffffffffffffff811115613d0557613d046132ed565b5b613d1187828801613c50565b91505092959194509250565b60008060408385031215613d3457613d336132e8565b5b6000613d4285828601613597565b9250506020613d53858286016133c4565b9150509250929050565b600067ffffffffffffffff821115613d7857613d776135f6565b5b613d8182613455565b9050602081019050919050565b6000613da1613d9c84613d5d565b613656565b905082815260208101848484011115613dbd57613dbc6135f1565b5b613dc88482856136a2565b509392505050565b600082601f830112613de557613de46135ec565b5b8135613df5848260208601613d8e565b91505092915050565b60008060008060808587031215613e1857613e176132e8565b5b6000613e2687828801613597565b9450506020613e3787828801613597565b9350506040613e48878288016134e2565b925050606085013567ffffffffffffffff811115613e6957613e686132ed565b5b613e7587828801613dd0565b91505092959194509250565b60008060408385031215613e9857613e976132e8565b5b6000613ea685828601613597565b9250506020613eb785828601613597565b9150509250929050565b7f4e487b7100000000000000000000000000000000000000000000000000000000600052602260045260246000fd5b60006002820490506001821680613f0857607f821691505b60208210811415613f1c57613f1b613ec1565b5b50919050565b7f4552433732313a20617070726f76616c20746f2063757272656e74206f776e6560008201527f7200000000000000000000000000000000000000000000000000000000000000602082015250565b6000613f7e602183613411565b9150613f8982613f22565b604082019050919050565b60006020820190508181036000830152613fad81613f71565b9050919050565b7f4552433732313a20617070726f76652063616c6c6572206973206e6f7420746f60008201527f6b656e206f776e6572206e6f7220617070726f76656420666f7220616c6c0000602082015250565b6000614010603e83613411565b915061401b82613fb4565b604082019050919050565b6000602082019050818103600083015261403f81614003565b9050919050565b7f4e6f20757365722064657461696c732070726f76696465640000000000000000600082015250565b600061407c601883613411565b915061408782614046565b602082019050919050565b600060208201905081810360008301526140ab8161406f565b9050919050565b7f546f6f206d616e792075736572737320746f2077686974656c69737400000000600082015250565b60006140e8601c83613411565b91506140f3826140b2565b602082019050919050565b60006020820190508181036000830152614117816140db565b9050919050565b7f4e487b7100000000000000000000000000000000000000000000000000000000600052603260045260246000fd5b7f4e487b7100000000000000000000000000000000000000000000000000000000600052601160045260246000fd5b6000614187826134c1565b9150600082141561419b5761419a61414d565b5b600182039050919050565b60006141b1826134c1565b91507fffffffffffffffffffffffffffffffffffffffffffffffffffffffffffffffff8214156141e4576141e361414d565b5b600182019050919050565b7f4552433732313a2063616c6c6572206973206e6f7420746f6b656e206f776e6560008201527f72206e6f7220617070726f766564000000000000000000000000000000000000602082015250565b600061424b602e83613411565b9150614256826141ef565b604082019050919050565b6000602082019050818103600083015261427a8161423e565b9050919050565b600061428c826134c1565b9150614297836134c1565b9250817fffffffffffffffffffffffffffffffffffffffffffffffffffffffffffffffff04831182151516156142d0576142cf61414d565b5b828202905092915050565b7f4e487b7100000000000000000000000000000000000000000000000000000000600052601260045260246000fd5b6000614315826134c1565b9150614320836134c1565b9250826143305761432f6142db565b5b828204905092915050565b7f455243373231456e756d657261626c653a206f776e657220696e646578206f7560008201527f74206f6620626f756e6473000000000000000000000000000000000000000000602082015250565b6000614397602b83613411565b91506143a28261433b565b604082019050919050565b600060208201905081810360008301526143c68161438a565b9050919050565b7f455243373231456e756d657261626c653a20676c6f62616c20696e646578206f60008201527f7574206f6620626f756e64730000000000000000000000000000000000000000602082015250565b6000614429602c83613411565b9150614434826143cd565b604082019050919050565b600060208201905081810360008301526144588161441c565b9050919050565b60008190508160005260206000209050919050565b6000815461448181613ef0565b61448b8186613411565b945060018216600081146144a657600181146144b8576144eb565b60ff19831686526020860193506144eb565b6144c18561445f565b60005b838110156144e3578154818901526001820191506020810190506144c4565b808801955050505b50505092915050565b6000602082019050818103600083015261450e8184614474565b905092915050565b7f4552433732313a20696e76616c696420746f6b656e2049440000000000000000600082015250565b600061454c601883613411565b915061455782614516565b602082019050919050565b6000602082019050818103600083015261457b8161453f565b9050919050565b7f4552433732313a2061646472657373207a65726f206973206e6f74206120766160008201527f6c6964206f776e65720000000000000000000000000000000000000000000000602082015250565b60006145de602983613411565b91506145e982614582565b604082019050919050565b6000602082019050818103600083015261460d816145d1565b9050919050565b7f4f776e61626c653a204e6f7420746865206f776e657200000000000000000000600082015250565b600061464a601683613411565b915061465582614614565b602082019050919050565b600060208201905081810360008301526146798161463d565b9050919050565b7f41646472657373206e6f742077686974656c6973746564000000000000000000600082015250565b60006146b6601783613411565b91506146c182614680565b602082019050919050565b600060208201905081810360008301526146e5816146a9565b9050919050565b7f4552433732314d657461646174613a2055524920717565727920666f72206e6f60008201527f6e6578697374656e7420746f6b656e0000000000000000000000000000000000602082015250565b6000614748602f83613411565b9150614753826146ec565b604082019050919050565b600060208201905081810360008301526147778161473b565b9050919050565b600081905092915050565b600061479482613406565b61479e818561477e565b93506147ae818560208601613422565b80840191505092915050565b600081546147c781613ef0565b6147d1818661477e565b945060018216600081146147ec57600181146147fd57614830565b60ff19831686528186019350614830565b6148068561445f565b60005b8381101561482857815481890152600182019150602081019050614809565b838801955050505b50505092915050565b60006148458286614789565b91506148518285614789565b915061485d82846147ba565b9150819050949350505050565b7f4f776e61626c653a206e6577206f776e657220697320746865207a65726f206160008201527f6464726573730000000000000000000000000000000000000000000000000000602082015250565b60006148c6602683613411565b91506148d18261486a565b604082019050919050565b600060208201905081810360008301526148f5816148b9565b9050919050565b7f4d6178696d756d20557365727320616c72656164792077686974656c6973746560008201527f6400000000000000000000000000000000000000000000000000000000000000602082015250565b6000614958602183613411565b9150614963826148fc565b604082019050919050565b600060208201905081810360008301526149878161494b565b9050919050565b7f4f776e61626c653a2063616c6c6572206973206e6f7420746865206f776e6572600082015250565b60006149c4602083613411565b91506149cf8261498e565b602082019050919050565b600060208201905081810360008301526149f3816149b7565b9050919050565b7f4552433732313a207472616e736665722066726f6d20696e636f72726563742060008201527f6f776e6572000000000000000000000000000000000000000000000000000000602082015250565b6000614a56602583613411565b9150614a61826149fa565b604082019050919050565b60006020820190508181036000830152614a8581614a49565b9050919050565b7f4552433732313a207472616e7366657220746f20746865207a65726f2061646460008201527f7265737300000000000000000000000000000000000000000000000000000000602082015250565b6000614ae8602483613411565b9150614af382614a8c565b604082019050919050565b60006020820190508181036000830152614b1781614adb565b9050919050565b6000614b29826134c1565b9150614b34836134c1565b925082821015614b4757614b4661414d565b5b828203905092915050565b6000614b5d826134c1565b9150614b68836134c1565b9250827fffffffffffffffffffffffffffffffffffffffffffffffffffffffffffffffff03821115614b9d57614b9c61414d565b5b828201905092915050565b7f4e6f20526f79616c74792064657461696c732070726f76696465640000000000600082015250565b6000614bde601b83613411565b9150614be982614ba8565b602082019050919050565b60006020820190508181036000830152614c0d81614bd1565b9050919050565b7f546f6f206d616e7920726f79616c74792072656369657665727320646574616960008201527f6c73000000000000000000000000000000000000000000000000000000000000602082015250565b6000614c70602283613411565b9150614c7b82614c14565b604082019050919050565b60006020820190508181036000830152614c9f81614c63565b9050919050565b7f4d69736d61746368206f6620526f79616c74792072656369657665727320616e60008201527f6420746865697220666565730000000000000000000000000000000000000000602082015250565b6000614d02602c83613411565b9150614d0d82614ca6565b604082019050919050565b60006020820190508181036000830152614d3181614cf5565b9050919050565b7f455243323938313a20726f79616c7479206665652077696c6c2065786365656460008201527f2073616c65507269636500000000000000000000000000000000000000000000602082015250565b6000614d94602a83613411565b9150614d9f82614d38565b604082019050919050565b60006020820190508181036000830152614dc381614d87565b9050919050565b7f4552433732313a20617070726f766520746f2063616c6c657200000000000000600082015250565b6000614e00601983613411565b9150614e0b82614dca565b602082019050919050565b60006020820190508181036000830152614e2f81614df3565b9050919050565b7f4552433732313a207472616e7366657220746f206e6f6e20455243373231526560008201527f63656976657220696d706c656d656e7465720000000000000000000000000000602082015250565b6000614e92603283613411565b9150614e9d82614e36565b604082019050919050565b60006020820190508181036000830152614ec181614e85565b9050919050565b6000614ed3826134c1565b9150614ede836134c1565b925082614eee57614eed6142db565b5b828206905092915050565b600081519050919050565b600082825260208201905092915050565b6000614f2082614ef9565b614f2a8185614f04565b9350614f3a818560208601613422565b614f4381613455565b840191505092915050565b6000608082019050614f636000830187613556565b614f706020830186613556565b614f7d604083018561376a565b8181036060830152614f8f8184614f15565b905095945050505050565b600081519050614fa98161331e565b92915050565b600060208284031215614fc557614fc46132e8565b5b6000614fd384828501614f9a565b91505092915050565b7f4552433732313a206d696e7420746f20746865207a65726f2061646472657373600082015250565b6000615012602083613411565b915061501d82614fdc565b602082019050919050565b6000602082019050818103600083015261504181615005565b9050919050565b7f4552433732313a20746f6b656e20616c7265616479206d696e74656400000000600082015250565b600061507e601c83613411565b915061508982615048565b602082019050919050565b600060208201905081810360008301526150ad81615071565b9050919050565b7f4e487b7100000000000000000000000000000000000000000000000000000000600052603160045260246000fdfea26469706673582212208211bade0398a1da6498b6d2cb5fc32faf1aeffd8638189edde9f41c16b8216664736f6c63430008090033",
  "linkReferences": {},
  "deployedLinkReferences": {}
}