{
  "_format": "hh-sol-artifact-1",
  "contractName": "MediaFacet",
  "sourceName": "contracts/facets/Media/MediaFacet.sol",
  "abi": [
    {
      "inputs": [
        {
          "internalType": "string",
          "name": "_contractType",
          "type": "string"
        },
        {
          "internalType": "address",
          "name": "_nftContAddress",
          "type": "address"
        },
        {
          "internalType": "address",
          "name": "_currencyAddress",
          "type": "address"
        },
        {
          "internalType": "address",
          "name": "_seller",
          "type": "address"
        },
        {
          "internalType": "address",
          "name": "_bidder",
          "type": "address"
        },
        {
          "internalType": "uint256",
          "name": "_tokenID",
          "type": "uint256"
        },
        {
          "internalType": "uint256",
          "name": "_bid",
          "type": "uint256"
        },
        {
          "internalType": "uint256",
          "name": "_copies",
          "type": "uint256"
        },
        {
          "internalType": "bytes",
          "name": "_bidderSig",
          "type": "bytes"
        },
        {
          "internalType": "bytes",
          "name": "_sellerSig",
          "type": "bytes"
        }
      ],
      "name": "acceptBidMedia",
      "outputs": [],
      "stateMutability": "nonpayable",
      "type": "function"
    },
    {
      "inputs": [
        {
          "internalType": "uint256",
          "name": "_tokenID",
          "type": "uint256"
        },
        {
          "internalType": "string",
          "name": "_contractType",
          "type": "string"
        },
        {
          "internalType": "uint256",
          "name": "amount",
          "type": "uint256"
        }
      ],
      "name": "burnTokenMedia",
      "outputs": [],
      "stateMutability": "nonpayable",
      "type": "function"
    },
    {
      "inputs": [],
      "name": "getAdminCommissionPercentageMedia",
      "outputs": [
        {
          "internalType": "uint96",
          "name": "",
          "type": "uint96"
        }
      ],
      "stateMutability": "view",
      "type": "function"
    },
    {
      "inputs": [
        {
          "internalType": "address",
          "name": "_currencyAddress",
          "type": "address"
        }
      ],
      "name": "getApprovedCryptoMedia",
      "outputs": [
        {
          "internalType": "bool",
          "name": "",
          "type": "bool"
        }
      ],
      "stateMutability": "view",
      "type": "function"
    },
    {
      "inputs": [
        {
          "internalType": "address",
          "name": "_nftAddress",
          "type": "address"
        },
        {
          "internalType": "uint256",
          "name": "_tokenID",
          "type": "uint256"
        }
      ],
      "name": "getCollaboratorsMedia",
      "outputs": [
        {
          "components": [
            {
              "internalType": "address[]",
              "name": "collaborators",
              "type": "address[]"
            },
            {
              "internalType": "uint96[]",
              "name": "collabFraction",
              "type": "uint96[]"
            }
          ],
          "internalType": "struct LibMarketStorage.Collaborators",
          "name": "",
          "type": "tuple"
        }
      ],
      "stateMutability": "view",
      "type": "function"
    },
    {
      "inputs": [
        {
          "internalType": "uint256",
          "name": "_tokenID",
          "type": "uint256"
        },
        {
          "internalType": "string",
          "name": "_contractType",
          "type": "string"
        }
      ],
      "name": "istokenIdExistMedia",
      "outputs": [
        {
          "internalType": "bool",
          "name": "",
          "type": "bool"
        }
      ],
      "stateMutability": "view",
      "type": "function"
    },
    {
      "inputs": [
        {
          "internalType": "address",
          "name": "_diamondAddress",
          "type": "address"
        }
      ],
      "name": "mediaFacetInit",
      "outputs": [],
      "stateMutability": "nonpayable",
      "type": "function"
    },
    {
      "inputs": [
        {
          "internalType": "address",
          "name": "_to",
          "type": "address"
        },
        {
          "internalType": "uint256",
          "name": "_id",
          "type": "uint256"
        },
        {
          "internalType": "string",
          "name": "_contractType",
          "type": "string"
        },
        {
          "internalType": "uint256",
          "name": "_copies",
          "type": "uint256"
        },
        {
          "internalType": "string",
          "name": "_uri",
          "type": "string"
        },
        {
          "internalType": "bool",
          "name": "tokenRoyalty",
          "type": "bool"
        },
        {
          "internalType": "address[]",
          "name": "_royaltyReceivers",
          "type": "address[]"
        },
        {
          "internalType": "uint96[]",
          "name": "_tokenRoyaltyInBips",
          "type": "uint96[]"
        }
      ],
      "name": "mintTokenMedia",
      "outputs": [
        {
          "internalType": "uint256",
          "name": "",
          "type": "uint256"
        }
      ],
      "stateMutability": "nonpayable",
      "type": "function"
    },
    {
      "inputs": [
        {
          "internalType": "address",
          "name": "_currencyAddress",
          "type": "address"
        },
        {
          "internalType": "bool",
          "name": "approving",
          "type": "bool"
        }
      ],
      "name": "setApprovedCryptoMedia",
      "outputs": [],
      "stateMutability": "nonpayable",
      "type": "function"
    },
    {
      "inputs": [
        {
          "internalType": "address",
          "name": "_nftAddress",
          "type": "address"
        },
        {
          "internalType": "uint256",
          "name": "_tokenID",
          "type": "uint256"
        },
        {
          "internalType": "address[]",
          "name": "_collaborators",
          "type": "address[]"
        },
        {
          "internalType": "uint96[]",
          "name": "_collabFraction",
          "type": "uint96[]"
        }
      ],
      "name": "setCollaboratorsMedia",
      "outputs": [],
      "stateMutability": "nonpayable",
      "type": "function"
    },
    {
      "inputs": [
        {
          "internalType": "uint96",
          "name": "_newCommissionPercentage",
          "type": "uint96"
        }
      ],
      "name": "setCommissionPercentageMedia",
      "outputs": [
        {
          "internalType": "bool",
          "name": "",
          "type": "bool"
        }
      ],
      "stateMutability": "nonpayable",
      "type": "function"
    }
  ],
  "bytecode": "0x608060405234801561001057600080fd5b50612edf806100206000396000f3fe608060405234801561001057600080fd5b50600436106100a95760003560e01c80638c4e3295116100715780638c4e32951461016457806393d16b7414610194578063b5f06d6d146101b0578063bb5b4bdb146101cc578063bfbff05f146101fc578063c0b4f43914610218576100a9565b80632dd1aca5146100ae57806332c03468146100de57806333257b1c146100fa57806345b133121461012a57806376197b1e14610146575b600080fd5b6100c860048036038101906100c39190611820565b610248565b6040516100d5919061195e565b60405180910390f35b6100f860048036038101906100f39190611979565b61040f565b005b610114600480360381019061010f91906119b9565b6105c0565b6040516101219190611bd1565b60405180910390f35b610144600480360381019061013f9190611bf3565b610691565b005b61014e61086b565b60405161015b9190611c71565b60405180910390f35b61017e60048036038101906101799190611c8c565b610920565b60405161018b9190611cc8565b60405180910390f35b6101ae60048036038101906101a99190611d84565b6109e2565b005b6101ca60048036038101906101c59190611c8c565b610a9c565b005b6101e660048036038101906101e19190611ee3565b610cd4565b6040516101f39190611cc8565b60405180910390f35b61021660048036038101906102119190611f10565b610f4e565b005b610232600480360381019061022d9190611fb7565b6113b4565b60405161023f9190611cc8565b60405180910390f35b6000806102536114d0565b905060006040516020016102669061206a565b604051602081830303815290604052805190602001208b60405160200161028d91906120ee565b60405160208183030381529060405280519060200120146102af5760006102b2565b60015b9050801561035e578160000160009054906101000a900473ffffffffffffffffffffffffffffffffffffffff1673ffffffffffffffffffffffffffffffffffffffff16634135c7838d8f8d8d8d8d8d8d8d6040518a63ffffffff1660e01b815260040161032799989796959493929190612296565b600060405180830381600087803b15801561034157600080fd5b505af1158015610355573d6000803e3d6000fd5b505050506103fc565b8160000160009054906101000a900473ffffffffffffffffffffffffffffffffffffffff1673ffffffffffffffffffffffffffffffffffffffff1663ed795a248d8f8c8c8c8c8c8c6040518963ffffffff1660e01b81526004016103c998979695949392919061231e565b600060405180830381600087803b1580156103e357600080fd5b505af11580156103f7573d6000803e3d6000fd5b505050505b8b925050509a9950505050505050505050565b60006104196114d0565b90508060000160009054906101000a900473ffffffffffffffffffffffffffffffffffffffff1673ffffffffffffffffffffffffffffffffffffffff1663b2e6b9126040518163ffffffff1660e01b815260040160206040518083038186803b15801561048557600080fd5b505afa158015610499573d6000803e3d6000fd5b505050506040513d601f19601f820116820180604052508101906104bd91906123ad565b73ffffffffffffffffffffffffffffffffffffffff163373ffffffffffffffffffffffffffffffffffffffff161461052a576040517f08c379a00000000000000000000000000000000000000000000000000000000081526004016105219061244c565b60405180910390fd5b8060000160009054906101000a900473ffffffffffffffffffffffffffffffffffffffff1673ffffffffffffffffffffffffffffffffffffffff1663dccf625384846040518363ffffffff1660e01b815260040161058992919061246c565b600060405180830381600087803b1580156105a357600080fd5b505af11580156105b7573d6000803e3d6000fd5b50505050505050565b6105c861152a565b60006105d26114d0565b90508060000160009054906101000a900473ffffffffffffffffffffffffffffffffffffffff1673ffffffffffffffffffffffffffffffffffffffff1663107262b185856040518363ffffffff1660e01b8152600401610633929190612495565b60006040518083038186803b15801561064b57600080fd5b505afa15801561065f573d6000803e3d6000fd5b505050506040513d6000823e3d601f19601f8201168201806040525081019061068891906126eb565b91505092915050565b600061069b6114d0565b90506040516020016106ac90612780565b60405160208183030381529060405280519060200120836040516020016106d391906120ee565b60405160208183030381529060405280519060200120141561077f578060000160009054906101000a900473ffffffffffffffffffffffffffffffffffffffff1673ffffffffffffffffffffffffffffffffffffffff166342966c68856040518263ffffffff1660e01b815260040161074c919061195e565b600060405180830381600087803b15801561076657600080fd5b505af115801561077a573d6000803e3d6000fd5b505050505b60405160200161078e9061206a565b60405160208183030381529060405280519060200120836040516020016107b591906120ee565b604051602081830303815290604052805190602001201415610865578060000160009054906101000a900473ffffffffffffffffffffffffffffffffffffffff1673ffffffffffffffffffffffffffffffffffffffff1663f5298aca3386856040518463ffffffff1660e01b815260040161083293929190612795565b600060405180830381600087803b15801561084c57600080fd5b505af1158015610860573d6000803e3d6000fd5b505050505b50505050565b6000806108766114d0565b90508060000160009054906101000a900473ffffffffffffffffffffffffffffffffffffffff1673ffffffffffffffffffffffffffffffffffffffff1663a5dbd8146040518163ffffffff1660e01b815260040160206040518083038186803b1580156108e257600080fd5b505afa1580156108f6573d6000803e3d6000fd5b505050506040513d601f19601f8201168201806040525081019061091a91906127cc565b91505090565b60008061092b6114d0565b90508060000160009054906101000a900473ffffffffffffffffffffffffffffffffffffffff1673ffffffffffffffffffffffffffffffffffffffff166384c6ba57846040518263ffffffff1660e01b815260040161098a91906127f9565b60206040518083038186803b1580156109a257600080fd5b505afa1580156109b6573d6000803e3d6000fd5b505050506040513d601f19601f820116820180604052508101906109da9190612829565b915050919050565b60006109ec6114d0565b90508060000160009054906101000a900473ffffffffffffffffffffffffffffffffffffffff1673ffffffffffffffffffffffffffffffffffffffff16639e9666d98c8c8c8c8c8c8c8c8c8c6040518b63ffffffff1660e01b8152600401610a5d9a999897969594939291906128ab565b600060405180830381600087803b158015610a7757600080fd5b505af1158015610a8b573d6000803e3d6000fd5b505050505050505050505050505050565b6000610aa66114fd565b90506000610ab26114d0565b9050600073ffffffffffffffffffffffffffffffffffffffff168160000160009054906101000a900473ffffffffffffffffffffffffffffffffffffffff1673ffffffffffffffffffffffffffffffffffffffff1614610b47576040517f08c379a0000000000000000000000000000000000000000000000000000000008152600401610b3e906129a8565b60405180910390fd5b600073ffffffffffffffffffffffffffffffffffffffff168373ffffffffffffffffffffffffffffffffffffffff161415610bb7576040517f08c379a0000000000000000000000000000000000000000000000000000000008152600401610bae90612a14565b60405180910390fd5b8160040160009054906101000a900473ffffffffffffffffffffffffffffffffffffffff1673ffffffffffffffffffffffffffffffffffffffff163373ffffffffffffffffffffffffffffffffffffffff1614610c49576040517f08c379a0000000000000000000000000000000000000000000000000000000008152600401610c4090612a80565b60405180910390fd5b828160000160006101000a81548173ffffffffffffffffffffffffffffffffffffffff021916908373ffffffffffffffffffffffffffffffffffffffff160217905550826000800160006101000a81548173ffffffffffffffffffffffffffffffffffffffff021916908373ffffffffffffffffffffffffffffffffffffffff160217905550505050565b600080610cdf6114d0565b90508060000160009054906101000a900473ffffffffffffffffffffffffffffffffffffffff1673ffffffffffffffffffffffffffffffffffffffff1663b2e6b9126040518163ffffffff1660e01b815260040160206040518083038186803b158015610d4b57600080fd5b505afa158015610d5f573d6000803e3d6000fd5b505050506040513d601f19601f82011682018060405250810190610d8391906123ad565b73ffffffffffffffffffffffffffffffffffffffff163373ffffffffffffffffffffffffffffffffffffffff1614610df0576040517f08c379a0000000000000000000000000000000000000000000000000000000008152600401610de790612b12565b60405180910390fd5b6000836bffffffffffffffffffffffff1611610e41576040517f08c379a0000000000000000000000000000000000000000000000000000000008152600401610e3890612ba4565b60405180910390fd5b6101f4836bffffffffffffffffffffffff161115610e94576040517f08c379a0000000000000000000000000000000000000000000000000000000008152600401610e8b90612c36565b60405180910390fd5b8060000160009054906101000a900473ffffffffffffffffffffffffffffffffffffffff1673ffffffffffffffffffffffffffffffffffffffff16634a5ececd846040518263ffffffff1660e01b8152600401610ef19190611c71565b602060405180830381600087803b158015610f0b57600080fd5b505af1158015610f1f573d6000803e3d6000fd5b505050506040513d601f19601f82011682018060405250810190610f439190612829565b506001915050919050565b6000610f586114d0565b90506005858590501115610fa1576040517f08c379a0000000000000000000000000000000000000000000000000000000008152600401610f9890612ca2565b60405180910390fd5b60008585905011610fe7576040517f08c379a0000000000000000000000000000000000000000000000000000000008152600401610fde90612d0e565b60405180910390fd5b82829050858590501461102f576040517f08c379a000000000000000000000000000000000000000000000000000000000815260040161102690612da0565b60405180910390fd5b8060000160009054906101000a900473ffffffffffffffffffffffffffffffffffffffff1673ffffffffffffffffffffffffffffffffffffffff168773ffffffffffffffffffffffffffffffffffffffff16141561121b573373ffffffffffffffffffffffffffffffffffffffff168773ffffffffffffffffffffffffffffffffffffffff16636352211e886040518263ffffffff1660e01b81526004016110d7919061195e565b60206040518083038186803b1580156110ef57600080fd5b505afa158015611103573d6000803e3d6000fd5b505050506040513d601f19601f8201168201806040525081019061112791906123ad565b73ffffffffffffffffffffffffffffffffffffffff161461117d576040517f08c379a000000000000000000000000000000000000000000000000000000000815260040161117490612e32565b60405180910390fd5b8060000160009054906101000a900473ffffffffffffffffffffffffffffffffffffffff1673ffffffffffffffffffffffffffffffffffffffff166372b360a68888888888886040518763ffffffff1660e01b81526004016111e496959493929190612e52565b600060405180830381600087803b1580156111fe57600080fd5b505af1158015611212573d6000803e3d6000fd5b505050506113ab565b3373ffffffffffffffffffffffffffffffffffffffff168773ffffffffffffffffffffffffffffffffffffffff16636352211e886040518263ffffffff1660e01b815260040161126b919061195e565b60206040518083038186803b15801561128357600080fd5b505afa158015611297573d6000803e3d6000fd5b505050506040513d601f19601f820116820180604052508101906112bb91906123ad565b73ffffffffffffffffffffffffffffffffffffffff1614611311576040517f08c379a000000000000000000000000000000000000000000000000000000000815260040161130890612e32565b60405180910390fd5b8060000160009054906101000a900473ffffffffffffffffffffffffffffffffffffffff1673ffffffffffffffffffffffffffffffffffffffff166372b360a68888888888886040518763ffffffff1660e01b815260040161137896959493929190612e52565b600060405180830381600087803b15801561139257600080fd5b505af11580156113a6573d6000803e3d6000fd5b505050505b50505050505050565b6000806113bf6114d0565b90506040516020016113d090612780565b60405160208183030381529060405280519060200120836040516020016113f791906120ee565b6040516020818303038152906040528051906020012014156114c8578060000160009054906101000a900473ffffffffffffffffffffffffffffffffffffffff1673ffffffffffffffffffffffffffffffffffffffff1663895e8b23856040518263ffffffff1660e01b8152600401611470919061195e565b60206040518083038186803b15801561148857600080fd5b505afa15801561149c573d6000803e3d6000fd5b505050506040513d601f19601f820116820180604052508101906114c09190612829565b9150506114ca565b505b92915050565b6000807f3b3f04a0bcf864519d4afdd212b45a9436ba8c61bb2a6474fb0ba61a120a7b9090508091505090565b6000807fc8fcad8db84d3cc18b4c41d551ea0ee66dd599cde068d998e57d5e09332c131c90508091505090565b604051806040016040528060608152602001606081525090565b6000604051905090565b600080fd5b600080fd5b600073ffffffffffffffffffffffffffffffffffffffff82169050919050565b600061158382611558565b9050919050565b61159381611578565b811461159e57600080fd5b50565b6000813590506115b08161158a565b92915050565b6000819050919050565b6115c9816115b6565b81146115d457600080fd5b50565b6000813590506115e6816115c0565b92915050565b600080fd5b600080fd5b6000601f19601f8301169050919050565b7f4e487b7100000000000000000000000000000000000000000000000000000000600052604160045260246000fd5b61163f826115f6565b810181811067ffffffffffffffff8211171561165e5761165d611607565b5b80604052505050565b6000611671611544565b905061167d8282611636565b919050565b600067ffffffffffffffff82111561169d5761169c611607565b5b6116a6826115f6565b9050602081019050919050565b82818337600083830152505050565b60006116d56116d084611682565b611667565b9050828152602081018484840111156116f1576116f06115f1565b5b6116fc8482856116b3565b509392505050565b600082601f830112611719576117186115ec565b5b81356117298482602086016116c2565b91505092915050565b60008115159050919050565b61174781611732565b811461175257600080fd5b50565b6000813590506117648161173e565b92915050565b600080fd5b600080fd5b60008083601f84011261178a576117896115ec565b5b8235905067ffffffffffffffff8111156117a7576117a661176a565b5b6020830191508360208202830111156117c3576117c261176f565b5b9250929050565b60008083601f8401126117e0576117df6115ec565b5b8235905067ffffffffffffffff8111156117fd576117fc61176a565b5b6020830191508360208202830111156118195761181861176f565b5b9250929050565b6000806000806000806000806000806101008b8d0312156118445761184361154e565b5b60006118528d828e016115a1565b9a505060206118638d828e016115d7565b99505060408b013567ffffffffffffffff81111561188457611883611553565b5b6118908d828e01611704565b98505060606118a18d828e016115d7565b97505060808b013567ffffffffffffffff8111156118c2576118c1611553565b5b6118ce8d828e01611704565b96505060a06118df8d828e01611755565b95505060c08b013567ffffffffffffffff811115611900576118ff611553565b5b61190c8d828e01611774565b945094505060e08b013567ffffffffffffffff81111561192f5761192e611553565b5b61193b8d828e016117ca565b92509250509295989b9194979a5092959850565b611958816115b6565b82525050565b6000602082019050611973600083018461194f565b92915050565b600080604083850312156119905761198f61154e565b5b600061199e858286016115a1565b92505060206119af85828601611755565b9150509250929050565b600080604083850312156119d0576119cf61154e565b5b60006119de858286016115a1565b92505060206119ef858286016115d7565b9150509250929050565b600081519050919050565b600082825260208201905092915050565b6000819050602082019050919050565b611a2e81611578565b82525050565b6000611a408383611a25565b60208301905092915050565b6000602082019050919050565b6000611a64826119f9565b611a6e8185611a04565b9350611a7983611a15565b8060005b83811015611aaa578151611a918882611a34565b9750611a9c83611a4c565b925050600181019050611a7d565b5085935050505092915050565b600081519050919050565b600082825260208201905092915050565b6000819050602082019050919050565b60006bffffffffffffffffffffffff82169050919050565b611b0481611ae3565b82525050565b6000611b168383611afb565b60208301905092915050565b6000602082019050919050565b6000611b3a82611ab7565b611b448185611ac2565b9350611b4f83611ad3565b8060005b83811015611b80578151611b678882611b0a565b9750611b7283611b22565b925050600181019050611b53565b5085935050505092915050565b60006040830160008301518482036000860152611baa8282611a59565b91505060208301518482036020860152611bc48282611b2f565b9150508091505092915050565b60006020820190508181036000830152611beb8184611b8d565b905092915050565b600080600060608486031215611c0c57611c0b61154e565b5b6000611c1a868287016115d7565b935050602084013567ffffffffffffffff811115611c3b57611c3a611553565b5b611c4786828701611704565b9250506040611c58868287016115d7565b9150509250925092565b611c6b81611ae3565b82525050565b6000602082019050611c866000830184611c62565b92915050565b600060208284031215611ca257611ca161154e565b5b6000611cb0848285016115a1565b91505092915050565b611cc281611732565b82525050565b6000602082019050611cdd6000830184611cb9565b92915050565b600067ffffffffffffffff821115611cfe57611cfd611607565b5b611d07826115f6565b9050602081019050919050565b6000611d27611d2284611ce3565b611667565b905082815260208101848484011115611d4357611d426115f1565b5b611d4e8482856116b3565b509392505050565b600082601f830112611d6b57611d6a6115ec565b5b8135611d7b848260208601611d14565b91505092915050565b6000806000806000806000806000806101408b8d031215611da857611da761154e565b5b60008b013567ffffffffffffffff811115611dc657611dc5611553565b5b611dd28d828e01611704565b9a50506020611de38d828e016115a1565b9950506040611df48d828e016115a1565b9850506060611e058d828e016115a1565b9750506080611e168d828e016115a1565b96505060a0611e278d828e016115d7565b95505060c0611e388d828e016115d7565b94505060e0611e498d828e016115d7565b9350506101008b013567ffffffffffffffff811115611e6b57611e6a611553565b5b611e778d828e01611d56565b9250506101208b013567ffffffffffffffff811115611e9957611e98611553565b5b611ea58d828e01611d56565b9150509295989b9194979a5092959850565b611ec081611ae3565b8114611ecb57600080fd5b50565b600081359050611edd81611eb7565b92915050565b600060208284031215611ef957611ef861154e565b5b6000611f0784828501611ece565b91505092915050565b60008060008060008060808789031215611f2d57611f2c61154e565b5b6000611f3b89828a016115a1565b9650506020611f4c89828a016115d7565b955050604087013567ffffffffffffffff811115611f6d57611f6c611553565b5b611f7989828a01611774565b9450945050606087013567ffffffffffffffff811115611f9c57611f9b611553565b5b611fa889828a016117ca565b92509250509295509295509295565b60008060408385031215611fce57611fcd61154e565b5b6000611fdc858286016115d7565b925050602083013567ffffffffffffffff811115611ffd57611ffc611553565b5b61200985828601611704565b9150509250929050565b600081905092915050565b7f4552433131353500000000000000000000000000000000000000000000000000600082015250565b6000612054600783612013565b915061205f8261201e565b600782019050919050565b600061207582612047565b9150819050919050565b600081519050919050565b60005b838110156120a857808201518184015260208101905061208d565b838111156120b7576000848401525b50505050565b60006120c88261207f565b6120d28185612013565b93506120e281856020860161208a565b80840191505092915050565b60006120fa82846120bd565b915081905092915050565b61210e81611578565b82525050565b600082825260208201905092915050565b60006121308261207f565b61213a8185612114565b935061214a81856020860161208a565b612153816115f6565b840191505092915050565b600082825260208201905092915050565b6000819050919050565b600061218860208401846115a1565b905092915050565b6000602082019050919050565b60006121a9838561215e565b93506121b48261216f565b8060005b858110156121ed576121ca8284612179565b6121d48882611a34565b97506121df83612190565b9250506001810190506121b8565b5085925050509392505050565b600082825260208201905092915050565b6000819050919050565b60006122246020840184611ece565b905092915050565b6000602082019050919050565b600061224583856121fa565b93506122508261220b565b8060005b85811015612289576122668284612215565b6122708882611b0a565b975061227b8361222c565b925050600181019050612254565b5085925050509392505050565b600060e0820190506122ab600083018c61194f565b6122b8602083018b612105565b6122c5604083018a61194f565b81810360608301526122d78189612125565b90506122e66080830188611cb9565b81810360a08301526122f981868861219d565b905081810360c083015261230e818486612239565b90509a9950505050505050505050565b600060c082019050612333600083018b61194f565b612340602083018a612105565b81810360408301526123528189612125565b90506123616060830188611cb9565b818103608083015261237481868861219d565b905081810360a0830152612389818486612239565b90509998505050505050505050565b6000815190506123a78161158a565b92915050565b6000602082840312156123c3576123c261154e565b5b60006123d184828501612398565b91505092915050565b7f4d656469613a2043616c6c6572206973206e6f74207468652061646d696e206f60008201527f66206d61726b657420706c61636520636f6e7472616374000000000000000000602082015250565b6000612436603783612114565b9150612441826123da565b604082019050919050565b6000602082019050818103600083015261246581612429565b9050919050565b60006040820190506124816000830185612105565b61248e6020830184611cb9565b9392505050565b60006040820190506124aa6000830185612105565b6124b7602083018461194f565b9392505050565b600080fd5b600080fd5b600067ffffffffffffffff8211156124e3576124e2611607565b5b602082029050602081019050919050565b6000612507612502846124c8565b611667565b9050808382526020820190506020840283018581111561252a5761252961176f565b5b835b81811015612553578061253f8882612398565b84526020840193505060208101905061252c565b5050509392505050565b600082601f830112612572576125716115ec565b5b81516125828482602086016124f4565b91505092915050565b600067ffffffffffffffff8211156125a6576125a5611607565b5b602082029050602081019050919050565b6000815190506125c681611eb7565b92915050565b60006125df6125da8461258b565b611667565b905080838252602082019050602084028301858111156126025761260161176f565b5b835b8181101561262b578061261788826125b7565b845260208401935050602081019050612604565b5050509392505050565b600082601f83011261264a576126496115ec565b5b815161265a8482602086016125cc565b91505092915050565b600060408284031215612679576126786124be565b5b6126836040611667565b9050600082015167ffffffffffffffff8111156126a3576126a26124c3565b5b6126af8482850161255d565b600083015250602082015167ffffffffffffffff8111156126d3576126d26124c3565b5b6126df84828501612635565b60208301525092915050565b6000602082840312156127015761270061154e565b5b600082015167ffffffffffffffff81111561271f5761271e611553565b5b61272b84828501612663565b91505092915050565b7f4552433732310000000000000000000000000000000000000000000000000000600082015250565b600061276a600683612013565b915061277582612734565b600682019050919050565b600061278b8261275d565b9150819050919050565b60006060820190506127aa6000830186612105565b6127b7602083018561194f565b6127c4604083018461194f565b949350505050565b6000602082840312156127e2576127e161154e565b5b60006127f0848285016125b7565b91505092915050565b600060208201905061280e6000830184612105565b92915050565b6000815190506128238161173e565b92915050565b60006020828403121561283f5761283e61154e565b5b600061284d84828501612814565b91505092915050565b600081519050919050565b600082825260208201905092915050565b600061287d82612856565b6128878185612861565b935061289781856020860161208a565b6128a0816115f6565b840191505092915050565b60006101408201905081810360008301526128c6818d612125565b90506128d5602083018c612105565b6128e2604083018b612105565b6128ef606083018a612105565b6128fc6080830189612105565b61290960a083018861194f565b61291660c083018761194f565b61292360e083018661194f565b8181036101008301526129368185612872565b905081810361012083015261294b8184612872565b90509b9a5050505050505050505050565b7f414c52454144595f494e495449414c495a454400000000000000000000000000600082015250565b6000612992601383612114565b915061299d8261295c565b602082019050919050565b600060208201905081810360008301526129c181612985565b9050919050565b7f4d656469613a20496e76616c6964204164647265737321000000000000000000600082015250565b60006129fe601783612114565b9150612a09826129c8565b602082019050919050565b60006020820190508181036000830152612a2d816129f1565b9050919050565b7f4d757374206f776e2074686520636f6e74726163742e00000000000000000000600082015250565b6000612a6a601683612114565b9150612a7582612a34565b602082019050919050565b60006020820190508181036000830152612a9981612a5d565b9050919050565b7f4d656469613a204f6e6c792041646d696e2043616e2053657420436f6d6d697360008201527f73696f6e2050657263656e746167652100000000000000000000000000000000602082015250565b6000612afc603083612114565b9150612b0782612aa0565b604082019050919050565b60006020820190508181036000830152612b2b81612aef565b9050919050565b7f4d656469613a20496e76616c696420436f6d6d697373696f6e2050657263656e60008201527f7461676500000000000000000000000000000000000000000000000000000000602082015250565b6000612b8e602483612114565b9150612b9982612b32565b604082019050919050565b60006020820190508181036000830152612bbd81612b81565b9050919050565b7f4d656469613a20436f6d6d697373696f6e2050657263656e74616765204d757360008201527f74204265204c657373205468616e203525210000000000000000000000000000602082015250565b6000612c20603283612114565b9150612c2b82612bc4565b604082019050919050565b60006020820190508181036000830152612c4f81612c13565b9050919050565b7f546f6f206d616e7920436f6c6c61626f7261746f727300000000000000000000600082015250565b6000612c8c601683612114565b9150612c9782612c56565b602082019050919050565b60006020820190508181036000830152612cbb81612c7f565b9050919050565b7f436f6c6c61626f7261746f7273206e6f74207365740000000000000000000000600082015250565b6000612cf8601583612114565b9150612d0382612cc2565b602082019050919050565b60006020820190508181036000830152612d2781612ceb565b9050919050565b7f4d69736d61746368206f6620436f6c6c61626f7261746f727320616e6420746860008201527f6569722073686172650000000000000000000000000000000000000000000000602082015250565b6000612d8a602983612114565b9150612d9582612d2e565b604082019050919050565b60006020820190508181036000830152612db981612d7d565b9050919050565b7f4f6e6c7920746f6b656e206f776e657220636f756c642063616c6c207468697360008201527f2066756e6374696f6e0000000000000000000000000000000000000000000000602082015250565b6000612e1c602983612114565b9150612e2782612dc0565b604082019050919050565b60006020820190508181036000830152612e4b81612e0f565b9050919050565b6000608082019050612e676000830189612105565b612e74602083018861194f565b8181036040830152612e8781868861219d565b90508181036060830152612e9c818486612239565b905097965050505050505056fea26469706673582212205989afc7d69c2786d26d2925d3c9aecc0e8102795c1c628b18823ffb9f02990d64736f6c63430008090033",
  "linkReferences": {},
  "deployedLinkReferences": {}
}