{
  "_format": "hh-sol-artifact-1",
  "contractName": "ERC2981",
  "sourceName": "newArchitecture-contracts/ERC2981.sol",
  "abi": [
    {
      "inputs": [
        {
          "internalType": "uint256",
          "name": "_tokenId",
          "type": "uint256"
        },
        {
          "internalType": "uint256",
          "name": "_salePrice",
          "type": "uint256"
        }
      ],
      "name": "royaltyInfo",
      "outputs": [
        {
          "internalType": "address[]",
          "name": "",
          "type": "address[]"
        },
        {
          "internalType": "uint256[]",
          "name": "",
          "type": "uint256[]"
        }
      ],
      "stateMutability": "view",
      "type": "function"
    },
    {
      "inputs": [
        {
          "internalType": "bytes4",
          "name": "interfaceId",
          "type": "bytes4"
        }
      ],
      "name": "supportsInterface",
      "outputs": [
        {
          "internalType": "bool",
          "name": "",
          "type": "bool"
        }
      ],
      "stateMutability": "view",
      "type": "function"
    }
  ],
  "bytecode": "0x608060405234801561001057600080fd5b506109f2806100206000396000f3fe608060405234801561001057600080fd5b50600436106100365760003560e01c806301ffc9a71461003b5780632a55205a1461006b575b600080fd5b6100556004803603810190610050919061056e565b61009c565b60405161006291906105b6565b60405180910390f35b61008560048036038101906100809190610607565b610116565b6040516100939291906107f5565b60405180910390f35b60007f2a55205a000000000000000000000000000000000000000000000000000000007bffffffffffffffffffffffffffffffffffffffffffffffffffffffff1916827bffffffffffffffffffffffffffffffffffffffffffffffffffffffff1916148061010f575061010e8261049d565b5b9050919050565b606080600060026000868152602001908152602001600020604051806040016040529081600082018054806020026020016040519081016040528092919081815260200182805480156101be57602002820191906000526020600020905b8160009054906101000a900473ffffffffffffffffffffffffffffffffffffffff1673ffffffffffffffffffffffffffffffffffffffff1681526020019060010190808311610174575b505050505081526020016001820180548060200260200160405190810160405280929190818152602001828054801561025257602002820191906000526020600020906000905b82829054906101000a90046bffffffffffffffffffffffff166bffffffffffffffffffffffff16815260200190600c0190602082600b010492830192600103820291508084116102055790505b50505050508152505090506000816000015151141561039d576000604051806040016040529081600082018054806020026020016040519081016040528092919081815260200182805480156102fd57602002820191906000526020600020905b8160009054906101000a900473ffffffffffffffffffffffffffffffffffffffff1673ffffffffffffffffffffffffffffffffffffffff16815260200190600101908083116102b3575b505050505081526020016001820180548060200260200160405190810160405280929190818152602001828054801561039157602002820191906000526020600020906000905b82829054906101000a90046bffffffffffffffffffffffff166bffffffffffffffffffffffff16815260200190600c0190602082600b010492830192600103820291508084116103445790505b50505050508152505090505b600081600001515167ffffffffffffffff8111156103be576103bd61082c565b5b6040519080825280602002602001820160405280156103ec5781602001602082028036833780820191505090505b50905060005b82600001515181101561048957610407610507565b6bffffffffffffffffffffffff168360200151828151811061042c5761042b61085b565b5b60200260200101516bffffffffffffffffffffffff168761044d91906108b9565b6104579190610942565b82828151811061046a5761046961085b565b5b602002602001018181525050808061048190610973565b9150506103f2565b508160000151819350935050509250929050565b60007f01ffc9a7000000000000000000000000000000000000000000000000000000007bffffffffffffffffffffffffffffffffffffffffffffffffffffffff1916827bffffffffffffffffffffffffffffffffffffffffffffffffffffffff1916149050919050565b6000612710905090565b600080fd5b60007fffffffff0000000000000000000000000000000000000000000000000000000082169050919050565b61054b81610516565b811461055657600080fd5b50565b60008135905061056881610542565b92915050565b60006020828403121561058457610583610511565b5b600061059284828501610559565b91505092915050565b60008115159050919050565b6105b08161059b565b82525050565b60006020820190506105cb60008301846105a7565b92915050565b6000819050919050565b6105e4816105d1565b81146105ef57600080fd5b50565b600081359050610601816105db565b92915050565b6000806040838503121561061e5761061d610511565b5b600061062c858286016105f2565b925050602061063d858286016105f2565b9150509250929050565b600081519050919050565b600082825260208201905092915050565b6000819050602082019050919050565b600073ffffffffffffffffffffffffffffffffffffffff82169050919050565b600061069e82610673565b9050919050565b6106ae81610693565b82525050565b60006106c083836106a5565b60208301905092915050565b6000602082019050919050565b60006106e482610647565b6106ee8185610652565b93506106f983610663565b8060005b8381101561072a57815161071188826106b4565b975061071c836106cc565b9250506001810190506106fd565b5085935050505092915050565b600081519050919050565b600082825260208201905092915050565b6000819050602082019050919050565b61076c816105d1565b82525050565b600061077e8383610763565b60208301905092915050565b6000602082019050919050565b60006107a282610737565b6107ac8185610742565b93506107b783610753565b8060005b838110156107e85781516107cf8882610772565b97506107da8361078a565b9250506001810190506107bb565b5085935050505092915050565b6000604082019050818103600083015261080f81856106d9565b905081810360208301526108238184610797565b90509392505050565b7f4e487b7100000000000000000000000000000000000000000000000000000000600052604160045260246000fd5b7f4e487b7100000000000000000000000000000000000000000000000000000000600052603260045260246000fd5b7f4e487b7100000000000000000000000000000000000000000000000000000000600052601160045260246000fd5b60006108c4826105d1565b91506108cf836105d1565b9250817fffffffffffffffffffffffffffffffffffffffffffffffffffffffffffffffff04831182151516156109085761090761088a565b5b828202905092915050565b7f4e487b7100000000000000000000000000000000000000000000000000000000600052601260045260246000fd5b600061094d826105d1565b9150610958836105d1565b92508261096857610967610913565b5b828204905092915050565b600061097e826105d1565b91507fffffffffffffffffffffffffffffffffffffffffffffffffffffffffffffffff8214156109b1576109b061088a565b5b60018201905091905056fea2646970667358221220ac9a1293b87e86b21cc18e91e77c5a6fe5a3496789dbce831abc4984c176b83a64736f6c63430008090033",
  "linkReferences": {},
  "deployedLinkReferences": {}
}