{
  "_format": "hh-sol-artifact-1",
  "contractName": "ERC2981",
  "sourceName": "newArchitecture-contracts/ERC2981.sol",
  "abi": [
    {
      "inputs": [
        {
          "internalType": "uint256",
          "name": "_tokenId",
          "type": "uint256"
        },
        {
          "internalType": "uint256",
          "name": "_salePrice",
          "type": "uint256"
        }
      ],
      "name": "royaltyInfo",
      "outputs": [
        {
          "internalType": "address[]",
          "name": "",
          "type": "address[]"
        },
        {
          "internalType": "uint256[]",
          "name": "",
          "type": "uint256[]"
        }
      ],
      "stateMutability": "nonpayable",
      "type": "function"
    },
    {
      "inputs": [
        {
          "internalType": "bytes4",
          "name": "interfaceId",
          "type": "bytes4"
        }
      ],
      "name": "supportsInterface",
      "outputs": [
        {
          "internalType": "bool",
          "name": "",
          "type": "bool"
        }
      ],
      "stateMutability": "view",
      "type": "function"
    }
  ],
  "bytecode": "0x608060405234801561001057600080fd5b50610a68806100206000396000f3fe608060405234801561001057600080fd5b50600436106100365760003560e01c806301ffc9a71461003b5780632a55205a1461006b575b600080fd5b610055600480360381019061005091906105e0565b61009c565b604051610062919061079d565b60405180910390f35b6100856004803603810190610080919061060d565b610116565b604051610093929190610766565b60405180910390f35b60007f2a55205a000000000000000000000000000000000000000000000000000000007bffffffffffffffffffffffffffffffffffffffffffffffffffffffff1916827bffffffffffffffffffffffffffffffffffffffffffffffffffffffff1916148061010f575061010e826104f4565b5b9050919050565b606080600060026000868152602001908152602001600020604051806040016040529081600082018054806020026020016040519081016040528092919081815260200182805480156101be57602002820191906000526020600020905b8160009054906101000a900473ffffffffffffffffffffffffffffffffffffffff1673ffffffffffffffffffffffffffffffffffffffff1681526020019060010190808311610174575b505050505081526020016001820180548060200260200160405190810160405280929190818152602001828054801561025257602002820191906000526020600020906000905b82829054906101000a90046bffffffffffffffffffffffff166bffffffffffffffffffffffff16815260200190600c0190602082600b010492830192600103820291508084116102055790505b5050505050815250509050600073ffffffffffffffffffffffffffffffffffffffff16816000015160008151811061028d5761028c6109d0565b5b602002602001015173ffffffffffffffffffffffffffffffffffffffff1614156103e35760006040518060400160405290816000820180548060200260200160405190810160405280929190818152602001828054801561034357602002820191906000526020600020905b8160009054906101000a900473ffffffffffffffffffffffffffffffffffffffff1673ffffffffffffffffffffffffffffffffffffffff16815260200190600101908083116102f9575b50505050508152602001600182018054806020026020016040519081016040528092919081815260200182805480156103d757602002820191906000526020600020906000905b82829054906101000a90046bffffffffffffffffffffffff166bffffffffffffffffffffffff16815260200190600c0190602082600b0104928301926001038202915080841161038a5790505b50505050508152505090505b6103eb61055e565b60005b81602001515181101561048e57600361040561056e565b6bffffffffffffffffffffffff168360200151838151811061042a576104296109d0565b5b60200260200101516bffffffffffffffffffffffff168761044b919061085b565b610455919061082a565b9080600181540180825580915050600190039060005260206000200160009091909190915055808061048690610929565b9150506103ee565b5080600001516003808054806020026020016040519081016040528092919081815260200182805480156104e157602002820191906000526020600020905b8154815260200190600101908083116104cd575b5050505050905092509250509250929050565b60007f01ffc9a7000000000000000000000000000000000000000000000000000000007bffffffffffffffffffffffffffffffffffffffffffffffffffffffff1916827bffffffffffffffffffffffffffffffffffffffffffffffffffffffff1916149050919050565b6003600061056c9190610578565b565b6000612710905090565b50805460008255906000526020600020908101906105969190610599565b50565b5b808211156105b257600081600090555060010161059a565b5090565b6000813590506105c581610a04565b92915050565b6000813590506105da81610a1b565b92915050565b6000602082840312156105f6576105f56109ff565b5b6000610604848285016105b6565b91505092915050565b60008060408385031215610624576106236109ff565b5b6000610632858286016105cb565b9250506020610643858286016105cb565b9150509250929050565b6000610659838361067d565b60208301905092915050565b60006106718383610757565b60208301905092915050565b610686816108b5565b82525050565b6000610697826107d8565b6106a18185610808565b93506106ac836107b8565b8060005b838110156106dd5781516106c4888261064d565b97506106cf836107ee565b9250506001810190506106b0565b5085935050505092915050565b60006106f5826107e3565b6106ff8185610819565b935061070a836107c8565b8060005b8381101561073b5781516107228882610665565b975061072d836107fb565b92505060018101905061070e565b5085935050505092915050565b610751816108c7565b82525050565b6107608161091f565b82525050565b60006040820190508181036000830152610780818561068c565b9050818103602083015261079481846106ea565b90509392505050565b60006020820190506107b26000830184610748565b92915050565b6000819050602082019050919050565b6000819050602082019050919050565b600081519050919050565b600081519050919050565b6000602082019050919050565b6000602082019050919050565b600082825260208201905092915050565b600082825260208201905092915050565b60006108358261091f565b91506108408361091f565b9250826108505761084f6109a1565b5b828204905092915050565b60006108668261091f565b91506108718361091f565b9250817fffffffffffffffffffffffffffffffffffffffffffffffffffffffffffffffff04831182151516156108aa576108a9610972565b5b828202905092915050565b60006108c0826108ff565b9050919050565b60008115159050919050565b60007fffffffff0000000000000000000000000000000000000000000000000000000082169050919050565b600073ffffffffffffffffffffffffffffffffffffffff82169050919050565b6000819050919050565b60006109348261091f565b91507fffffffffffffffffffffffffffffffffffffffffffffffffffffffffffffffff82141561096757610966610972565b5b600182019050919050565b7f4e487b7100000000000000000000000000000000000000000000000000000000600052601160045260246000fd5b7f4e487b7100000000000000000000000000000000000000000000000000000000600052601260045260246000fd5b7f4e487b7100000000000000000000000000000000000000000000000000000000600052603260045260246000fd5b600080fd5b610a0d816108d3565b8114610a1857600080fd5b50565b610a248161091f565b8114610a2f57600080fd5b5056fea264697066735822122038f74dd6f48b5d3c2d068d5fe0a2bf9dfdfca2640ee8ea7efdb9b79e44be382164736f6c63430008060033",
  "linkReferences": {},
  "deployedLinkReferences": {}
}