{
  "_format": "hh-sol-artifact-1",
  "contractName": "MarketFacet",
  "sourceName": "contracts/facets/Market/MarketFacet.sol",
  "abi": [
    {
      "anonymous": false,
      "inputs": [
        {
          "indexed": false,
          "internalType": "address",
          "name": "admin",
          "type": "address"
        }
      ],
      "name": "Admin",
      "type": "event"
    },
    {
      "anonymous": false,
      "inputs": [
        {
          "indexed": false,
          "internalType": "uint96",
          "name": "commissionPercentage",
          "type": "uint96"
        }
      ],
      "name": "AdminFee",
      "type": "event"
    },
    {
      "anonymous": false,
      "inputs": [
        {
          "indexed": false,
          "internalType": "address",
          "name": "buyer",
          "type": "address"
        },
        {
          "indexed": false,
          "internalType": "address",
          "name": "seller",
          "type": "address"
        },
        {
          "indexed": false,
          "internalType": "bool",
          "name": "accepted",
          "type": "bool"
        }
      ],
      "name": "BidAccepted",
      "type": "event"
    },
    {
      "anonymous": false,
      "inputs": [
        {
          "indexed": false,
          "internalType": "address",
          "name": "nftAddress",
          "type": "address"
        },
        {
          "indexed": false,
          "internalType": "uint256",
          "name": "tokenID",
          "type": "uint256"
        },
        {
          "indexed": false,
          "internalType": "address[]",
          "name": "collaborators",
          "type": "address[]"
        },
        {
          "indexed": false,
          "internalType": "uint96[]",
          "name": "collabFraction",
          "type": "uint96[]"
        }
      ],
      "name": "CollaboratorsFee",
      "type": "event"
    },
    {
      "anonymous": false,
      "inputs": [
        {
          "indexed": false,
          "internalType": "address",
          "name": "currencyAddress",
          "type": "address"
        },
        {
          "indexed": false,
          "internalType": "bool",
          "name": "approving",
          "type": "bool"
        }
      ],
      "name": "CryptoApproved",
      "type": "event"
    },
    {
      "inputs": [
        {
          "internalType": "string",
          "name": "_contractType",
          "type": "string"
        },
        {
          "internalType": "address",
          "name": "_nftContAddress",
          "type": "address"
        },
        {
          "internalType": "address",
          "name": "_currencyAddress",
          "type": "address"
        },
        {
          "internalType": "address",
          "name": "_seller",
          "type": "address"
        },
        {
          "internalType": "address",
          "name": "_bidder",
          "type": "address"
        },
        {
          "internalType": "uint256",
          "name": "_tokenID",
          "type": "uint256"
        },
        {
          "internalType": "uint256",
          "name": "_bid",
          "type": "uint256"
        },
        {
          "internalType": "uint256",
          "name": "_copies",
          "type": "uint256"
        },
        {
          "internalType": "bytes",
          "name": "_bidderSig",
          "type": "bytes"
        },
        {
          "internalType": "bytes",
          "name": "_sellerSig",
          "type": "bytes"
        }
      ],
      "name": "acceptBid",
      "outputs": [],
      "stateMutability": "nonpayable",
      "type": "function"
    },
    {
      "inputs": [
        {
          "internalType": "string",
          "name": "name_",
          "type": "string"
        },
        {
          "internalType": "string",
          "name": "version_",
          "type": "string"
        }
      ],
      "name": "eip712FacetInit",
      "outputs": [],
      "stateMutability": "nonpayable",
      "type": "function"
    },
    {
      "inputs": [],
      "name": "getAddress",
      "outputs": [
        {
          "internalType": "address",
          "name": "",
          "type": "address"
        }
      ],
      "stateMutability": "view",
      "type": "function"
    },
    {
      "inputs": [],
      "name": "getAdminAddress",
      "outputs": [
        {
          "internalType": "address",
          "name": "",
          "type": "address"
        }
      ],
      "stateMutability": "view",
      "type": "function"
    },
    {
      "inputs": [
        {
          "internalType": "address",
          "name": "_currencyAddress",
          "type": "address"
        }
      ],
      "name": "getApprovedCrypto",
      "outputs": [
        {
          "internalType": "bool",
          "name": "",
          "type": "bool"
        }
      ],
      "stateMutability": "view",
      "type": "function"
    },
    {
      "inputs": [
        {
          "internalType": "address",
          "name": "_nftAddress",
          "type": "address"
        },
        {
          "internalType": "uint256",
          "name": "_tokenID",
          "type": "uint256"
        }
      ],
      "name": "getCollaborators",
      "outputs": [
        {
          "components": [
            {
              "internalType": "address[]",
              "name": "collaborators",
              "type": "address[]"
            },
            {
              "internalType": "uint96[]",
              "name": "collabFraction",
              "type": "uint96[]"
            }
          ],
          "internalType": "struct LibMarketStorage.Collaborators",
          "name": "",
          "type": "tuple"
        }
      ],
      "stateMutability": "view",
      "type": "function"
    },
    {
      "inputs": [],
      "name": "getCommissionPercentage",
      "outputs": [
        {
          "internalType": "uint96",
          "name": "",
          "type": "uint96"
        }
      ],
      "stateMutability": "view",
      "type": "function"
    },
    {
      "inputs": [],
      "name": "getName",
      "outputs": [
        {
          "internalType": "bytes32",
          "name": "",
          "type": "bytes32"
        }
      ],
      "stateMutability": "view",
      "type": "function"
    },
    {
      "inputs": [
        {
          "internalType": "string",
          "name": "name_",
          "type": "string"
        },
        {
          "internalType": "string",
          "name": "version_",
          "type": "string"
        }
      ],
      "name": "marketFacetInit",
      "outputs": [],
      "stateMutability": "nonpayable",
      "type": "function"
    },
    {
      "inputs": [
        {
          "internalType": "address",
          "name": "adminAddress_",
          "type": "address"
        }
      ],
      "name": "setAdminAddress",
      "outputs": [],
      "stateMutability": "nonpayable",
      "type": "function"
    },
    {
      "inputs": [
        {
          "internalType": "address",
          "name": "_currencyAddress",
          "type": "address"
        },
        {
          "internalType": "bool",
          "name": "approving",
          "type": "bool"
        }
      ],
      "name": "setApprovedCrypto",
      "outputs": [],
      "stateMutability": "nonpayable",
      "type": "function"
    },
    {
      "inputs": [
        {
          "internalType": "address",
          "name": "_nftAddress",
          "type": "address"
        },
        {
          "internalType": "uint256",
          "name": "_tokenID",
          "type": "uint256"
        },
        {
          "internalType": "address[]",
          "name": "_collaborators",
          "type": "address[]"
        },
        {
          "internalType": "uint96[]",
          "name": "_collabFraction",
          "type": "uint96[]"
        }
      ],
      "name": "setCollaborators",
      "outputs": [],
      "stateMutability": "nonpayable",
      "type": "function"
    },
    {
      "inputs": [
        {
          "internalType": "uint96",
          "name": "_commissionPercentage",
          "type": "uint96"
        }
      ],
      "name": "setCommissionPercentage",
      "outputs": [
        {
          "internalType": "bool",
          "name": "",
          "type": "bool"
        }
      ],
      "stateMutability": "nonpayable",
      "type": "function"
    }
  ],
  "bytecode": "0x608060405234801561001057600080fd5b506148c7806100206000396000f3fe608060405234801561001057600080fd5b50600436106100cf5760003560e01c806372b360a61161008c5780639e9666d9116100665780639e9666d914610210578063a5dbd8141461022c578063b2e6b9121461024a578063dccf625314610268576100cf565b806372b360a6146101a857806384c6ba57146101c45780638f9d5a2b146101f4576100cf565b8063107262b1146100d457806317d7de7c146101045780631c5c32d5146101225780632c1e816d1461013e57806338cc48311461015a5780634a5ececd14610178575b600080fd5b6100ee60048036038101906100e99190612d76565b610284565b6040516100fb9190612f8e565b60405180910390f35b61010c61056e565b6040516101199190612fc9565b60405180910390f35b61013c6004803603810190610137919061312a565b610586565b005b610158600480360381019061015391906131a2565b6106ff565b005b610162610882565b60405161016f91906131de565b60405180910390f35b610192600480360381019061018d9190613225565b6108ba565b60405161019f919061326d565b60405180910390f35b6101c260048036038101906101bd919061333e565b610a34565b005b6101de60048036038101906101d991906131a2565b610d85565b6040516101eb919061326d565b60405180910390f35b61020e6004803603810190610209919061312a565b610de9565b005b61022a60048036038101906102259190613486565b610e31565b005b610234611677565b60405161024191906135c8565b60405180910390f35b6102526117a0565b60405161025f91906131de565b60405180910390f35b610282600480360381019061027d919061360f565b6117d8565b005b61028c612b45565b6000610296611974565b90508060040160009054906101000a900473ffffffffffffffffffffffffffffffffffffffff1673ffffffffffffffffffffffffffffffffffffffff163373ffffffffffffffffffffffffffffffffffffffff16148061034557506000800160009054906101000a900473ffffffffffffffffffffffffffffffffffffffff1673ffffffffffffffffffffffffffffffffffffffff163373ffffffffffffffffffffffffffffffffffffffff16145b610384576040517f08c379a000000000000000000000000000000000000000000000000000000000815260040161037b906136ac565b60405180910390fd5b600061038e6119a1565b9050610398612b45565b8160020160008773ffffffffffffffffffffffffffffffffffffffff1673ffffffffffffffffffffffffffffffffffffffff168152602001908152602001600020600086815260200190815260200160002060000180548060200260200160405190810160405280929190818152602001828054801561046d57602002820191906000526020600020905b8160009054906101000a900473ffffffffffffffffffffffffffffffffffffffff1673ffffffffffffffffffffffffffffffffffffffff1681526020019060010190808311610423575b505050505081600001819052508160020160008773ffffffffffffffffffffffffffffffffffffffff1673ffffffffffffffffffffffffffffffffffffffff168152602001908152602001600020600086815260200190815260200160002060010180548060200260200160405190810160405280929190818152602001828054801561055557602002820191906000526020600020906000905b82829054906101000a90046bffffffffffffffffffffffff166bffffffffffffffffffffffff16815260200190600c0190602082600b010492830192600103820291508084116105085790505b5050505050816020018190525080935050505092915050565b6000806105796119ce565b9050806003015491505090565b60006105906119ce565b90506000801b81600301541480156105ae57506000801b8160040154145b6105ed576040517f08c379a00000000000000000000000000000000000000000000000000000000081526004016105e490613718565b60405180910390fd5b600083511415801561060157506000825114155b610640576040517f08c379a000000000000000000000000000000000000000000000000000000000815260040161063790613784565b60405180910390fd5b60008380519060200120905060008380519060200120905060007f8b73c3c69bb8fe3d512ecc4cf759cc79239f7b179b0ffacaa9a75d522b39400f90508284600301819055508184600401819055504684600101819055506106a38184846119fb565b8460000181905550308460020160006101000a81548173ffffffffffffffffffffffffffffffffffffffff021916908373ffffffffffffffffffffffffffffffffffffffff160217905550808460050181905550505050505050565b6000610709611974565b90508060040160009054906101000a900473ffffffffffffffffffffffffffffffffffffffff1673ffffffffffffffffffffffffffffffffffffffff163373ffffffffffffffffffffffffffffffffffffffff1614806107b857506000800160009054906101000a900473ffffffffffffffffffffffffffffffffffffffff1673ffffffffffffffffffffffffffffffffffffffff163373ffffffffffffffffffffffffffffffffffffffff16145b6107f7576040517f08c379a00000000000000000000000000000000000000000000000000000000081526004016107ee906136ac565b60405180910390fd5b60006108016119a1565b9050828160030160006101000a81548173ffffffffffffffffffffffffffffffffffffffff021916908373ffffffffffffffffffffffffffffffffffffffff1602179055507f33b005d053f740768cddf56d4aae11b8b1fb294e749565266b2f2b20e80e9cdf8360405161087591906131de565b60405180910390a1505050565b60008061088d6119ce565b90508060020160009054906101000a900473ffffffffffffffffffffffffffffffffffffffff1691505090565b6000806108c5611974565b90508060040160009054906101000a900473ffffffffffffffffffffffffffffffffffffffff1673ffffffffffffffffffffffffffffffffffffffff163373ffffffffffffffffffffffffffffffffffffffff16148061097457506000800160009054906101000a900473ffffffffffffffffffffffffffffffffffffffff1673ffffffffffffffffffffffffffffffffffffffff163373ffffffffffffffffffffffffffffffffffffffff16145b6109b3576040517f08c379a00000000000000000000000000000000000000000000000000000000081526004016109aa906136ac565b60405180910390fd5b60006109bd6119a1565b9050838160010160006101000a8154816bffffffffffffffffffffffff02191690836bffffffffffffffffffffffff1602179055507fd9ca64d182fc7249309d686d75d501291017aa620a47f3344bc6f587448b59ee84604051610a2191906135c8565b60405180910390a1600192505050919050565b6000610a3e611974565b90508060040160009054906101000a900473ffffffffffffffffffffffffffffffffffffffff1673ffffffffffffffffffffffffffffffffffffffff163373ffffffffffffffffffffffffffffffffffffffff161480610aed57506000800160009054906101000a900473ffffffffffffffffffffffffffffffffffffffff1673ffffffffffffffffffffffffffffffffffffffff163373ffffffffffffffffffffffffffffffffffffffff16145b610b2c576040517f08c379a0000000000000000000000000000000000000000000000000000000008152600401610b23906136ac565b60405180910390fd5b6005858590501115610b73576040517f08c379a0000000000000000000000000000000000000000000000000000000008152600401610b6a906137f0565b60405180910390fd5b60008585905011610bb9576040517f08c379a0000000000000000000000000000000000000000000000000000000008152600401610bb09061385c565b60405180910390fd5b828290508585905014610c01576040517f08c379a0000000000000000000000000000000000000000000000000000000008152600401610bf8906138ee565b60405180910390fd5b6000610c0b6119a1565b9050610c15612b45565b868680806020026020016040519081016040528093929190818152602001838360200280828437600081840152601f19601f820116905080830192505050505050508160000181905250848480806020026020016040519081016040528093929190818152602001838360200280828437600081840152601f19601f820116905080830192505050505050508160200181905250808260020160008b73ffffffffffffffffffffffffffffffffffffffff1673ffffffffffffffffffffffffffffffffffffffff16815260200190815260200160002060008a81526020019081526020016000206000820151816000019080519060200190610d18929190612b5f565b506020820151816001019080519060200190610d35929190612be9565b509050507f3a72b6200a646e4f1476132bab86a1a8b22b7f21986c1d099413e69650832f35898989898989604051610d7296959493929190613a55565b60405180910390a1505050505050505050565b600080610d906119a1565b90508060000160008473ffffffffffffffffffffffffffffffffffffffff1673ffffffffffffffffffffffffffffffffffffffff16815260200190815260200160002060009054906101000a900460ff16915050919050565b6000610df3611974565b9050610dff8383610586565b610e2c8160040160009054906101000a900473ffffffffffffffffffffffffffffffffffffffff166106ff565b505050565b6000610e3b611974565b90508060040160009054906101000a900473ffffffffffffffffffffffffffffffffffffffff1673ffffffffffffffffffffffffffffffffffffffff163373ffffffffffffffffffffffffffffffffffffffff161480610eea57506000800160009054906101000a900473ffffffffffffffffffffffffffffffffffffffff1673ffffffffffffffffffffffffffffffffffffffff163373ffffffffffffffffffffffffffffffffffffffff16145b610f29576040517f08c379a0000000000000000000000000000000000000000000000000000000008152600401610f20906136ac565b60405180910390fd5b6000610f336119a1565b9050600115158160000160008c73ffffffffffffffffffffffffffffffffffffffff1673ffffffffffffffffffffffffffffffffffffffff16815260200190815260200160002060009054906101000a900460ff16151514610fca576040517f08c379a0000000000000000000000000000000000000000000000000000000008152600401610fc190613b1e565b60405180910390fd5b610fd98b88878d8a898e611a35565b611018576040517f08c379a000000000000000000000000000000000000000000000000000000000815260040161100f90613b8a565b60405180910390fd5b6110278b88878d8a888f611a8d565b611066576040517f08c379a000000000000000000000000000000000000000000000000000000000815260040161105d90613bf6565b60405180910390fd5b60008a9050868173ffffffffffffffffffffffffffffffffffffffff166370a082318b6040518263ffffffff1660e01b81526004016110a591906131de565b60206040518083038186803b1580156110bd57600080fd5b505afa1580156110d1573d6000803e3d6000fd5b505050506040513d601f19601f820116820180604052508101906110f59190613c2b565b1015611136576040517f08c379a000000000000000000000000000000000000000000000000000000000815260040161112d90613cca565b60405180910390fd5b868173ffffffffffffffffffffffffffffffffffffffff1663dd62ed3e8b6000800160009054906101000a900473ffffffffffffffffffffffffffffffffffffffff166040518363ffffffff1660e01b8152600401611196929190613cea565b60206040518083038186803b1580156111ae57600080fd5b505afa1580156111c2573d6000803e3d6000fd5b505050506040513d601f19601f820116820180604052508101906111e69190613c2b565b1015611227576040517f08c379a000000000000000000000000000000000000000000000000000000000815260040161121e90613dab565b60405180910390fd5b60008790506112378c8b8a611ae5565b816112429190613dfa565b90508c73ffffffffffffffffffffffffffffffffffffffff166000800160009054906101000a900473ffffffffffffffffffffffffffffffffffffffff1673ffffffffffffffffffffffffffffffffffffffff161415611460576112aa8e8d8f8d858e611bff565b816112b59190613dfa565b90506040516020016112c690613e85565b604051602081830303815290604052805190602001208e6040516020016112ed9190613f09565b604051602081830303815290604052805190602001201415611388576113178c8e8c8e858e612012565b508c73ffffffffffffffffffffffffffffffffffffffff166323b872dd8c8c8c6040518463ffffffff1660e01b815260040161135593929190613f20565b600060405180830381600087803b15801561136f57600080fd5b505af1158015611383573d6000803e3d6000fd5b505050505b60405160200161139790613fa3565b604051602081830303815290604052805190602001208e6040516020016113be9190613f09565b60405160208183030381529060405280519060200120141561145b576113e88c8e8c8e858e612012565b508c73ffffffffffffffffffffffffffffffffffffffff1663f242432a8c8c8c8b6040518563ffffffff1660e01b81526004016114289493929190613fef565b600060405180830381600087803b15801561144257600080fd5b505af1158015611456573d6000803e3d6000fd5b505050505b61162b565b61146d8c8e8c848d612449565b816114789190613dfa565b905060405160200161148990613e85565b604051602081830303815290604052805190602001208e6040516020016114b09190613f09565b604051602081830303815290604052805190602001201415611551576114da8c8e8c8e858e612012565b5060008d90508073ffffffffffffffffffffffffffffffffffffffff166323b872dd8d8d8d6040518463ffffffff1660e01b815260040161151d93929190613f20565b600060405180830381600087803b15801561153757600080fd5b505af115801561154b573d6000803e3d6000fd5b50505050505b60405160200161156090613fa3565b604051602081830303815290604052805190602001208e6040516020016115879190613f09565b60405160208183030381529060405280519060200120141561162a576115b18c8e8c8e858e612012565b5060008d90508073ffffffffffffffffffffffffffffffffffffffff1663f242432a8d8d8d8c6040518563ffffffff1660e01b81526004016115f69493929190613fef565b600060405180830381600087803b15801561161057600080fd5b505af1158015611624573d6000803e3d6000fd5b50505050505b5b7f19ffb67d0adfde67ebbb974c6d8b740dc93d5aa107e918d3bea627c5fecef8d58a8c600160405161165f93929190614047565b60405180910390a15050505050505050505050505050565b600080611682611974565b90508060040160009054906101000a900473ffffffffffffffffffffffffffffffffffffffff1673ffffffffffffffffffffffffffffffffffffffff163373ffffffffffffffffffffffffffffffffffffffff16148061173157506000800160009054906101000a900473ffffffffffffffffffffffffffffffffffffffff1673ffffffffffffffffffffffffffffffffffffffff163373ffffffffffffffffffffffffffffffffffffffff16145b611770576040517f08c379a0000000000000000000000000000000000000000000000000000000008152600401611767906136ac565b60405180910390fd5b600061177a6119a1565b90508060010160009054906101000a90046bffffffffffffffffffffffff169250505090565b6000806117ab6119a1565b90508060030160009054906101000a900473ffffffffffffffffffffffffffffffffffffffff1691505090565b60006117e2611974565b90508060040160009054906101000a900473ffffffffffffffffffffffffffffffffffffffff1673ffffffffffffffffffffffffffffffffffffffff163373ffffffffffffffffffffffffffffffffffffffff16148061189157506000800160009054906101000a900473ffffffffffffffffffffffffffffffffffffffff1673ffffffffffffffffffffffffffffffffffffffff163373ffffffffffffffffffffffffffffffffffffffff16145b6118d0576040517f08c379a00000000000000000000000000000000000000000000000000000000081526004016118c7906136ac565b60405180910390fd5b60006118da6119a1565b9050828160000160008673ffffffffffffffffffffffffffffffffffffffff1673ffffffffffffffffffffffffffffffffffffffff16815260200190815260200160002060006101000a81548160ff0219169083151502179055507ff351943a6966bcc3eb6b4fc6d8c641a491c9e3f85e183a0992c98aa6523713e1848460405161196692919061407e565b60405180910390a150505050565b6000807fc8fcad8db84d3cc18b4c41d551ea0ee66dd599cde068d998e57d5e09332c131c90508091505090565b6000807f23a8b080129d29a012fab4572a713d8fd62f42f971351afe31751b09c12186aa90508091505090565b6000807fae36923e02a3e3934bc8e16cc335029655eed5d5801b3db8294179c633d8af4c90508091505090565b60008383834630604051602001611a169594939291906140a7565b6040516020818303038152906040528051906020012090509392505050565b600080611a458989898989612608565b90508273ffffffffffffffffffffffffffffffffffffffff16611a68828661266e565b73ffffffffffffffffffffffffffffffffffffffff1614915050979650505050505050565b600080611a9d8989898989612608565b90508273ffffffffffffffffffffffffffffffffffffffff16611ac0828661266e565b73ffffffffffffffffffffffffffffffffffffffff1614915050979650505050505050565b6000808490506000611af56119a1565b905060006127108260010160009054906101000a90046bffffffffffffffffffffffff166bffffffffffffffffffffffff1686611b3291906140fa565b611b3c9190614183565b90508273ffffffffffffffffffffffffffffffffffffffff166323b872dd878460030160009054906101000a900473ffffffffffffffffffffffffffffffffffffffff16846040518463ffffffff1660e01b8152600401611b9f93929190613f20565b602060405180830381600087803b158015611bb957600080fd5b505af1158015611bcd573d6000803e3d6000fd5b505050506040513d601f19601f82011682018060405250810190611bf191906141c9565b508093505050509392505050565b60008060009050604051602001611c1590613e85565b6040516020818303038152906040528051906020012088604051602001611c3c9190613f09565b604051602081830303815290604052805190602001201415611e04576000808773ffffffffffffffffffffffffffffffffffffffff1663a47404a386886040518363ffffffff1660e01b8152600401611c969291906141f6565b60006040518083038186803b158015611cae57600080fd5b505afa158015611cc2573d6000803e3d6000fd5b505050506040513d6000823e3d601f19601f82011682018060405250810190611ceb91906143ba565b91509150600089905060005b8351811015611dff578173ffffffffffffffffffffffffffffffffffffffff166323b872dd8a868481518110611d3057611d2f614432565b5b6020026020010151868581518110611d4b57611d4a614432565b5b60200260200101516040518463ffffffff1660e01b8152600401611d7193929190613f20565b602060405180830381600087803b158015611d8b57600080fd5b505af1158015611d9f573d6000803e3d6000fd5b505050506040513d601f19601f82011682018060405250810190611dc391906141c9565b50828181518110611dd757611dd6614432565b5b602002602001015185611dea9190614461565b94508080611df7906144b7565b915050611cf7565b505050505b604051602001611e1390613fa3565b6040516020818303038152906040528051906020012088604051602001611e3a9190613f09565b604051602081830303815290604052805190602001201415612004576000808773ffffffffffffffffffffffffffffffffffffffff1663eed3245886886040518363ffffffff1660e01b8152600401611e949291906141f6565b600060405180830381600087803b158015611eae57600080fd5b505af1158015611ec2573d6000803e3d6000fd5b505050506040513d6000823e3d601f19601f82011682018060405250810190611eeb91906143ba565b91509150600089905060005b8351811015611fff578173ffffffffffffffffffffffffffffffffffffffff166323b872dd8a868481518110611f3057611f2f614432565b5b6020026020010151868581518110611f4b57611f4a614432565b5b60200260200101516040518463ffffffff1660e01b8152600401611f7193929190613f20565b602060405180830381600087803b158015611f8b57600080fd5b505af1158015611f9f573d6000803e3d6000fd5b505050506040513d601f19601f82011682018060405250810190611fc391906141c9565b50828181518110611fd757611fd6614432565b5b602002602001015185611fea9190614461565b94508080611ff7906144b7565b915050611ef7565b505050505b809150509695505050505050565b600080879050838173ffffffffffffffffffffffffffffffffffffffff166370a08231886040518263ffffffff1660e01b815260040161205291906131de565b60206040518083038186803b15801561206a57600080fd5b505afa15801561207e573d6000803e3d6000fd5b505050506040513d601f19601f820116820180604052508101906120a29190613c2b565b10156120e3576040517f08c379a00000000000000000000000000000000000000000000000000000000081526004016120da90613cca565b60405180910390fd5b60006120ed6119a1565b90506120f7612b45565b60008690508260020160008b73ffffffffffffffffffffffffffffffffffffffff1673ffffffffffffffffffffffffffffffffffffffff1681526020019081526020016000206000878152602001908152602001600020604051806040016040529081600082018054806020026020016040519081016040528092919081815260200182805480156121de57602002820191906000526020600020905b8160009054906101000a900473ffffffffffffffffffffffffffffffffffffffff1673ffffffffffffffffffffffffffffffffffffffff1681526020019060010190808311612194575b505050505081526020016001820180548060200260200160405190810160405280929190818152602001828054801561227257602002820191906000526020600020906000905b82829054906101000a90046bffffffffffffffffffffffff166bffffffffffffffffffffffff16815260200190600c0190602082600b010492830192600103820291508084116122255790505b505050505081525050915060005b8260000151518110156123a6576000612710846020015183815181106122a9576122a8614432565b5b60200260200101516bffffffffffffffffffffffff168a6122ca91906140fa565b6122d49190614183565b905080896122e29190613dfa565b92508573ffffffffffffffffffffffffffffffffffffffff166323b872dd8c8660000151858151811061231857612317614432565b5b6020026020010151846040518463ffffffff1660e01b815260040161233f93929190613f20565b602060405180830381600087803b15801561235957600080fd5b505af115801561236d573d6000803e3d6000fd5b505050506040513d601f19601f8201168201806040525081019061239191906141c9565b5050808061239e906144b7565b915050612280565b508373ffffffffffffffffffffffffffffffffffffffff166323b872dd8a8a846040518463ffffffff1660e01b81526004016123e493929190613f20565b602060405180830381600087803b1580156123fe57600080fd5b505af1158015612412573d6000803e3d6000fd5b505050506040513d601f19601f8201168201806040525081019061243691906141c9565b5060019450505050509695505050505050565b600080600090506000808773ffffffffffffffffffffffffffffffffffffffff16632a55205a86886040518363ffffffff1660e01b815260040161248e9291906141f6565b60006040518083038186803b1580156124a657600080fd5b505afa1580156124ba573d6000803e3d6000fd5b505050506040513d6000823e3d601f19601f820116820180604052508101906124e391906143ba565b91509150600089905060005b83518110156125f7578173ffffffffffffffffffffffffffffffffffffffff166323b872dd8a86848151811061252857612527614432565b5b602002602001015186858151811061254357612542614432565b5b60200260200101516040518463ffffffff1660e01b815260040161256993929190613f20565b602060405180830381600087803b15801561258357600080fd5b505af1158015612597573d6000803e3d6000fd5b505050506040513d601f19601f820116820180604052508101906125bb91906141c9565b508281815181106125cf576125ce614432565b5b6020026020010151856125e29190614461565b945080806125ef906144b7565b9150506124ef565b508394505050505095945050505050565b60006126637f73a68255bef9b2d8772a65da56b8c433fcf3e468b3ec1670e127d24c73a90fc7878787878760405160200161264896959493929190614500565b60405160208183030381529060405280519060200120612695565b905095945050505050565b600080600061267d85856126af565b9150915061268a81612732565b819250505092915050565b60006126a86126a2612907565b836129a6565b9050919050565b6000806041835114156126f15760008060006020860151925060408601519150606086015160001a90506126e5878285856129d9565b9450945050505061272b565b604083511415612722576000806020850151915060408501519050612717868383612ae6565b93509350505061272b565b60006002915091505b9250929050565b6000600481111561274657612745614561565b5b81600481111561275957612758614561565b5b141561276457612904565b6001600481111561277857612777614561565b5b81600481111561278b5761278a614561565b5b14156127cc576040517f08c379a00000000000000000000000000000000000000000000000000000000081526004016127c3906145dc565b60405180910390fd5b600260048111156127e0576127df614561565b5b8160048111156127f3576127f2614561565b5b1415612834576040517f08c379a000000000000000000000000000000000000000000000000000000000815260040161282b90614648565b60405180910390fd5b6003600481111561284857612847614561565b5b81600481111561285b5761285a614561565b5b141561289c576040517f08c379a0000000000000000000000000000000000000000000000000000000008152600401612893906146da565b60405180910390fd5b6004808111156128af576128ae614561565b5b8160048111156128c2576128c1614561565b5b1415612903576040517f08c379a00000000000000000000000000000000000000000000000000000000081526004016128fa9061476c565b60405180910390fd5b5b50565b6000806129126119ce565b90508060020160009054906101000a900473ffffffffffffffffffffffffffffffffffffffff1673ffffffffffffffffffffffffffffffffffffffff163073ffffffffffffffffffffffffffffffffffffffff161480156129765750806001015446145b156129885780600001549150506129a3565b61299f8160050154826003015483600401546119fb565b9150505b90565b600082826040516020016129bb9291906147f9565b60405160208183030381529060405280519060200120905092915050565b6000807f7fffffffffffffffffffffffffffffff5d576e7357a4501ddfe92f46681b20a08360001c1115612a14576000600391509150612add565b601b8560ff1614158015612a2c5750601c8560ff1614155b15612a3e576000600491509150612add565b600060018787878760405160008152602001604052604051612a63949392919061484c565b6020604051602081039080840390855afa158015612a85573d6000803e3d6000fd5b505050602060405103519050600073ffffffffffffffffffffffffffffffffffffffff168173ffffffffffffffffffffffffffffffffffffffff161415612ad457600060019250925050612add565b80600092509250505b94509492505050565b60008060007f7fffffffffffffffffffffffffffffffffffffffffffffffffffffffffffffff60001b841690506000601b60ff8660001c901c612b299190614461565b9050612b37878288856129d9565b935093505050935093915050565b604051806040016040528060608152602001606081525090565b828054828255906000526020600020908101928215612bd8579160200282015b82811115612bd75782518260006101000a81548173ffffffffffffffffffffffffffffffffffffffff021916908373ffffffffffffffffffffffffffffffffffffffff16021790555091602001919060010190612b7f565b5b509050612be59190612cb1565b5090565b82805482825590600052602060002090600101600290048101928215612ca05791602002820160005b83821115612c6657835183826101000a8154816bffffffffffffffffffffffff02191690836bffffffffffffffffffffffff1602179055509260200192600c01602081600b01049283019260010302612c12565b8015612c9e5782816101000a8154906bffffffffffffffffffffffff0219169055600c01602081600b01049283019260010302612c66565b505b509050612cad9190612cb1565b5090565b5b80821115612cca576000816000905550600101612cb2565b5090565b6000604051905090565b600080fd5b600080fd5b600073ffffffffffffffffffffffffffffffffffffffff82169050919050565b6000612d0d82612ce2565b9050919050565b612d1d81612d02565b8114612d2857600080fd5b50565b600081359050612d3a81612d14565b92915050565b6000819050919050565b612d5381612d40565b8114612d5e57600080fd5b50565b600081359050612d7081612d4a565b92915050565b60008060408385031215612d8d57612d8c612cd8565b5b6000612d9b85828601612d2b565b9250506020612dac85828601612d61565b9150509250929050565b600081519050919050565b600082825260208201905092915050565b6000819050602082019050919050565b612deb81612d02565b82525050565b6000612dfd8383612de2565b60208301905092915050565b6000602082019050919050565b6000612e2182612db6565b612e2b8185612dc1565b9350612e3683612dd2565b8060005b83811015612e67578151612e4e8882612df1565b9750612e5983612e09565b925050600181019050612e3a565b5085935050505092915050565b600081519050919050565b600082825260208201905092915050565b6000819050602082019050919050565b60006bffffffffffffffffffffffff82169050919050565b612ec181612ea0565b82525050565b6000612ed38383612eb8565b60208301905092915050565b6000602082019050919050565b6000612ef782612e74565b612f018185612e7f565b9350612f0c83612e90565b8060005b83811015612f3d578151612f248882612ec7565b9750612f2f83612edf565b925050600181019050612f10565b5085935050505092915050565b60006040830160008301518482036000860152612f678282612e16565b91505060208301518482036020860152612f818282612eec565b9150508091505092915050565b60006020820190508181036000830152612fa88184612f4a565b905092915050565b6000819050919050565b612fc381612fb0565b82525050565b6000602082019050612fde6000830184612fba565b92915050565b600080fd5b600080fd5b6000601f19601f8301169050919050565b7f4e487b7100000000000000000000000000000000000000000000000000000000600052604160045260246000fd5b61303782612fee565b810181811067ffffffffffffffff8211171561305657613055612fff565b5b80604052505050565b6000613069612cce565b9050613075828261302e565b919050565b600067ffffffffffffffff82111561309557613094612fff565b5b61309e82612fee565b9050602081019050919050565b82818337600083830152505050565b60006130cd6130c88461307a565b61305f565b9050828152602081018484840111156130e9576130e8612fe9565b5b6130f48482856130ab565b509392505050565b600082601f83011261311157613110612fe4565b5b81356131218482602086016130ba565b91505092915050565b6000806040838503121561314157613140612cd8565b5b600083013567ffffffffffffffff81111561315f5761315e612cdd565b5b61316b858286016130fc565b925050602083013567ffffffffffffffff81111561318c5761318b612cdd565b5b613198858286016130fc565b9150509250929050565b6000602082840312156131b8576131b7612cd8565b5b60006131c684828501612d2b565b91505092915050565b6131d881612d02565b82525050565b60006020820190506131f360008301846131cf565b92915050565b61320281612ea0565b811461320d57600080fd5b50565b60008135905061321f816131f9565b92915050565b60006020828403121561323b5761323a612cd8565b5b600061324984828501613210565b91505092915050565b60008115159050919050565b61326781613252565b82525050565b6000602082019050613282600083018461325e565b92915050565b600080fd5b600080fd5b60008083601f8401126132a8576132a7612fe4565b5b8235905067ffffffffffffffff8111156132c5576132c4613288565b5b6020830191508360208202830111156132e1576132e061328d565b5b9250929050565b60008083601f8401126132fe576132fd612fe4565b5b8235905067ffffffffffffffff81111561331b5761331a613288565b5b6020830191508360208202830111156133375761333661328d565b5b9250929050565b6000806000806000806080878903121561335b5761335a612cd8565b5b600061336989828a01612d2b565b965050602061337a89828a01612d61565b955050604087013567ffffffffffffffff81111561339b5761339a612cdd565b5b6133a789828a01613292565b9450945050606087013567ffffffffffffffff8111156133ca576133c9612cdd565b5b6133d689828a016132e8565b92509250509295509295509295565b600067ffffffffffffffff821115613400576133ff612fff565b5b61340982612fee565b9050602081019050919050565b6000613429613424846133e5565b61305f565b90508281526020810184848401111561344557613444612fe9565b5b6134508482856130ab565b509392505050565b600082601f83011261346d5761346c612fe4565b5b813561347d848260208601613416565b91505092915050565b6000806000806000806000806000806101408b8d0312156134aa576134a9612cd8565b5b60008b013567ffffffffffffffff8111156134c8576134c7612cdd565b5b6134d48d828e016130fc565b9a505060206134e58d828e01612d2b565b99505060406134f68d828e01612d2b565b98505060606135078d828e01612d2b565b97505060806135188d828e01612d2b565b96505060a06135298d828e01612d61565b95505060c061353a8d828e01612d61565b94505060e061354b8d828e01612d61565b9350506101008b013567ffffffffffffffff81111561356d5761356c612cdd565b5b6135798d828e01613458565b9250506101208b013567ffffffffffffffff81111561359b5761359a612cdd565b5b6135a78d828e01613458565b9150509295989b9194979a5092959850565b6135c281612ea0565b82525050565b60006020820190506135dd60008301846135b9565b92915050565b6135ec81613252565b81146135f757600080fd5b50565b600081359050613609816135e3565b92915050565b6000806040838503121561362657613625612cd8565b5b600061363485828601612d2b565b9250506020613645858286016135fa565b9150509250929050565b600082825260208201905092915050565b7f4e6f74206d65646961206e6f72206f776e657200000000000000000000000000600082015250565b600061369660138361364f565b91506136a182613660565b602082019050919050565b600060208201905081810360008301526136c581613689565b9050919050565b7f414c52454144595f494e495449414c495a454400000000000000000000000000600082015250565b600061370260138361364f565b915061370d826136cc565b602082019050919050565b60006020820190508181036000830152613731816136f5565b9050919050565b7f494e56414c49445f504152414d53000000000000000000000000000000000000600082015250565b600061376e600e8361364f565b915061377982613738565b602082019050919050565b6000602082019050818103600083015261379d81613761565b9050919050565b7f546f6f206d616e7920436f6c6c61626f7261746f727300000000000000000000600082015250565b60006137da60168361364f565b91506137e5826137a4565b602082019050919050565b60006020820190508181036000830152613809816137cd565b9050919050565b7f436f6c6c61626f7261746f7273206e6f74207365740000000000000000000000600082015250565b600061384660158361364f565b915061385182613810565b602082019050919050565b6000602082019050818103600083015261387581613839565b9050919050565b7f4d69736d61746368206f6620436f6c6c61626f7261746f727320616e6420746860008201527f6569722073686172650000000000000000000000000000000000000000000000602082015250565b60006138d860298361364f565b91506138e38261387c565b604082019050919050565b60006020820190508181036000830152613907816138cb565b9050919050565b61391781612d40565b82525050565b600082825260208201905092915050565b6000819050919050565b60006139476020840184612d2b565b905092915050565b6000602082019050919050565b6000613968838561391d565b93506139738261392e565b8060005b858110156139ac576139898284613938565b6139938882612df1565b975061399e8361394f565b925050600181019050613977565b5085925050509392505050565b600082825260208201905092915050565b6000819050919050565b60006139e36020840184613210565b905092915050565b6000602082019050919050565b6000613a0483856139b9565b9350613a0f826139ca565b8060005b85811015613a4857613a2582846139d4565b613a2f8882612ec7565b9750613a3a836139eb565b925050600181019050613a13565b5085925050509392505050565b6000608082019050613a6a60008301896131cf565b613a77602083018861390e565b8181036040830152613a8a81868861395c565b90508181036060830152613a9f8184866139f8565b9050979650505050505050565b7f4e6f7420616e20617070726f7665642063727970746f63757272656e6379206660008201527f6f722062696464696e6700000000000000000000000000000000000000000000602082015250565b6000613b08602a8361364f565b9150613b1382613aac565b604082019050919050565b60006020820190508181036000830152613b3781613afb565b9050919050565b7f42696464657273206f66666572206e6f74207665726966696564000000000000600082015250565b6000613b74601a8361364f565b9150613b7f82613b3e565b602082019050919050565b60006020820190508181036000830152613ba381613b67565b9050919050565b7f53656c6c657273206f66666572206e6f74207665726966696564000000000000600082015250565b6000613be0601a8361364f565b9150613beb82613baa565b602082019050919050565b60006020820190508181036000830152613c0f81613bd3565b9050919050565b600081519050613c2581612d4a565b92915050565b600060208284031215613c4157613c40612cd8565b5b6000613c4f84828501613c16565b91505092915050565b7f455243323020696e207468652070617965722061646472657373206973206e6f60008201527f7420656e6f756768000000000000000000000000000000000000000000000000602082015250565b6000613cb460288361364f565b9150613cbf82613c58565b604082019050919050565b60006020820190508181036000830152613ce381613ca7565b9050919050565b6000604082019050613cff60008301856131cf565b613d0c60208301846131cf565b9392505050565b7f45524332303a204469616d6f6e64206973206e6f7420617070726f766564206260008201527f79207468652062696464657220666f72207370656e64696e672045524332302060208201527f746f6b656e730000000000000000000000000000000000000000000000000000604082015250565b6000613d9560468361364f565b9150613da082613d13565b606082019050919050565b60006020820190508181036000830152613dc481613d88565b9050919050565b7f4e487b7100000000000000000000000000000000000000000000000000000000600052601160045260246000fd5b6000613e0582612d40565b9150613e1083612d40565b925082821015613e2357613e22613dcb565b5b828203905092915050565b600081905092915050565b7f4552433732310000000000000000000000000000000000000000000000000000600082015250565b6000613e6f600683613e2e565b9150613e7a82613e39565b600682019050919050565b6000613e9082613e62565b9150819050919050565b600081519050919050565b60005b83811015613ec3578082015181840152602081019050613ea8565b83811115613ed2576000848401525b50505050565b6000613ee382613e9a565b613eed8185613e2e565b9350613efd818560208601613ea5565b80840191505092915050565b6000613f158284613ed8565b915081905092915050565b6000606082019050613f3560008301866131cf565b613f4260208301856131cf565b613f4f604083018461390e565b949350505050565b7f4552433131353500000000000000000000000000000000000000000000000000600082015250565b6000613f8d600783613e2e565b9150613f9882613f57565b600782019050919050565b6000613fae82613f80565b9150819050919050565b600082825260208201905092915050565b50565b6000613fd9600083613fb8565b9150613fe482613fc9565b600082019050919050565b600060a08201905061400460008301876131cf565b61401160208301866131cf565b61401e604083018561390e565b61402b606083018461390e565b818103608083015261403c81613fcc565b905095945050505050565b600060608201905061405c60008301866131cf565b61406960208301856131cf565b614076604083018461325e565b949350505050565b600060408201905061409360008301856131cf565b6140a0602083018461325e565b9392505050565b600060a0820190506140bc6000830188612fba565b6140c96020830187612fba565b6140d66040830186612fba565b6140e3606083018561390e565b6140f060808301846131cf565b9695505050505050565b600061410582612d40565b915061411083612d40565b9250817fffffffffffffffffffffffffffffffffffffffffffffffffffffffffffffffff048311821515161561414957614148613dcb565b5b828202905092915050565b7f4e487b7100000000000000000000000000000000000000000000000000000000600052601260045260246000fd5b600061418e82612d40565b915061419983612d40565b9250826141a9576141a8614154565b5b828204905092915050565b6000815190506141c3816135e3565b92915050565b6000602082840312156141df576141de612cd8565b5b60006141ed848285016141b4565b91505092915050565b600060408201905061420b600083018561390e565b614218602083018461390e565b9392505050565b600067ffffffffffffffff82111561423a57614239612fff565b5b602082029050602081019050919050565b60008151905061425a81612d14565b92915050565b600061427361426e8461421f565b61305f565b905080838252602082019050602084028301858111156142965761429561328d565b5b835b818110156142bf57806142ab888261424b565b845260208401935050602081019050614298565b5050509392505050565b600082601f8301126142de576142dd612fe4565b5b81516142ee848260208601614260565b91505092915050565b600067ffffffffffffffff82111561431257614311612fff565b5b602082029050602081019050919050565b6000614336614331846142f7565b61305f565b905080838252602082019050602084028301858111156143595761435861328d565b5b835b81811015614382578061436e8882613c16565b84526020840193505060208101905061435b565b5050509392505050565b600082601f8301126143a1576143a0612fe4565b5b81516143b1848260208601614323565b91505092915050565b600080604083850312156143d1576143d0612cd8565b5b600083015167ffffffffffffffff8111156143ef576143ee612cdd565b5b6143fb858286016142c9565b925050602083015167ffffffffffffffff81111561441c5761441b612cdd565b5b6144288582860161438c565b9150509250929050565b7f4e487b7100000000000000000000000000000000000000000000000000000000600052603260045260246000fd5b600061446c82612d40565b915061447783612d40565b9250827fffffffffffffffffffffffffffffffffffffffffffffffffffffffffffffffff038211156144ac576144ab613dcb565b5b828201905092915050565b60006144c282612d40565b91507fffffffffffffffffffffffffffffffffffffffffffffffffffffffffffffffff8214156144f5576144f4613dcb565b5b600182019050919050565b600060c0820190506145156000830189612fba565b61452260208301886131cf565b61452f604083018761390e565b61453c606083018661390e565b61454960808301856131cf565b61455660a083018461390e565b979650505050505050565b7f4e487b7100000000000000000000000000000000000000000000000000000000600052602160045260246000fd5b7f45434453413a20696e76616c6964207369676e61747572650000000000000000600082015250565b60006145c660188361364f565b91506145d182614590565b602082019050919050565b600060208201905081810360008301526145f5816145b9565b9050919050565b7f45434453413a20696e76616c6964207369676e6174757265206c656e67746800600082015250565b6000614632601f8361364f565b915061463d826145fc565b602082019050919050565b6000602082019050818103600083015261466181614625565b9050919050565b7f45434453413a20696e76616c6964207369676e6174757265202773272076616c60008201527f7565000000000000000000000000000000000000000000000000000000000000602082015250565b60006146c460228361364f565b91506146cf82614668565b604082019050919050565b600060208201905081810360008301526146f3816146b7565b9050919050565b7f45434453413a20696e76616c6964207369676e6174757265202776272076616c60008201527f7565000000000000000000000000000000000000000000000000000000000000602082015250565b600061475660228361364f565b9150614761826146fa565b604082019050919050565b6000602082019050818103600083015261478581614749565b9050919050565b7f1901000000000000000000000000000000000000000000000000000000000000600082015250565b60006147c2600283613e2e565b91506147cd8261478c565b600282019050919050565b6000819050919050565b6147f36147ee82612fb0565b6147d8565b82525050565b6000614804826147b5565b915061481082856147e2565b60208201915061482082846147e2565b6020820191508190509392505050565b600060ff82169050919050565b61484681614830565b82525050565b60006080820190506148616000830187612fba565b61486e602083018661483d565b61487b6040830185612fba565b6148886060830184612fba565b9594505050505056fea26469706673582212208535081ba9ad74a5dd66a4589b6e9238ade7ceafc69b8a91b0672f36763353f564736f6c63430008090033",
  "linkReferences": {},
  "deployedLinkReferences": {}
}