{
  "_format": "hh-sol-artifact-1",
  "contractName": "MarketFacet",
  "sourceName": "contracts/facets/Market/MarketFacet.sol",
  "abi": [
    {
      "anonymous": false,
      "inputs": [
        {
          "indexed": false,
          "internalType": "address",
          "name": "admin",
          "type": "address"
        }
      ],
      "name": "Admin",
      "type": "event"
    },
    {
      "anonymous": false,
      "inputs": [
        {
          "indexed": false,
          "internalType": "uint96",
          "name": "commissionPercentage",
          "type": "uint96"
        }
      ],
      "name": "AdminFee",
      "type": "event"
    },
    {
      "anonymous": false,
      "inputs": [
        {
          "indexed": false,
          "internalType": "address",
          "name": "buyer",
          "type": "address"
        },
        {
          "indexed": false,
          "internalType": "address",
          "name": "seller",
          "type": "address"
        },
        {
          "indexed": false,
          "internalType": "bool",
          "name": "accepted",
          "type": "bool"
        }
      ],
      "name": "BidAccepted",
      "type": "event"
    },
    {
      "anonymous": false,
      "inputs": [
        {
          "indexed": false,
          "internalType": "address",
          "name": "nftAddress",
          "type": "address"
        },
        {
          "indexed": false,
          "internalType": "uint256",
          "name": "tokenID",
          "type": "uint256"
        },
        {
          "indexed": false,
          "internalType": "address[]",
          "name": "collaborators",
          "type": "address[]"
        },
        {
          "indexed": false,
          "internalType": "uint96[]",
          "name": "collabFraction",
          "type": "uint96[]"
        }
      ],
      "name": "CollaboratorsFee",
      "type": "event"
    },
    {
      "anonymous": false,
      "inputs": [
        {
          "indexed": false,
          "internalType": "address",
          "name": "currencyAddress",
          "type": "address"
        },
        {
          "indexed": false,
          "internalType": "bool",
          "name": "approving",
          "type": "bool"
        }
      ],
      "name": "CryptoApproved",
      "type": "event"
    },
    {
      "inputs": [
        {
          "internalType": "string",
          "name": "_contractType",
          "type": "string"
        },
        {
          "internalType": "address",
          "name": "_nftContAddress",
          "type": "address"
        },
        {
          "internalType": "address",
          "name": "_currencyAddress",
          "type": "address"
        },
        {
          "internalType": "address",
          "name": "_seller",
          "type": "address"
        },
        {
          "internalType": "address",
          "name": "_bidder",
          "type": "address"
        },
        {
          "internalType": "uint256",
          "name": "_tokenID",
          "type": "uint256"
        },
        {
          "internalType": "uint256",
          "name": "_bid",
          "type": "uint256"
        },
        {
          "internalType": "uint256",
          "name": "_copies",
          "type": "uint256"
        },
        {
          "internalType": "bytes",
          "name": "_bidderSig",
          "type": "bytes"
        },
        {
          "internalType": "bytes",
          "name": "_sellerSig",
          "type": "bytes"
        }
      ],
      "name": "acceptBid",
      "outputs": [],
      "stateMutability": "nonpayable",
      "type": "function"
    },
    {
      "inputs": [
        {
          "internalType": "string",
          "name": "name_",
          "type": "string"
        },
        {
          "internalType": "string",
          "name": "version_",
          "type": "string"
        }
      ],
      "name": "eip712FacetInit",
      "outputs": [],
      "stateMutability": "nonpayable",
      "type": "function"
    },
    {
      "inputs": [],
      "name": "getAddress",
      "outputs": [
        {
          "internalType": "address",
          "name": "",
          "type": "address"
        }
      ],
      "stateMutability": "view",
      "type": "function"
    },
    {
      "inputs": [],
      "name": "getAdminAddress",
      "outputs": [
        {
          "internalType": "address",
          "name": "",
          "type": "address"
        }
      ],
      "stateMutability": "view",
      "type": "function"
    },
    {
      "inputs": [
        {
          "internalType": "address",
          "name": "_currencyAddress",
          "type": "address"
        }
      ],
      "name": "getApprovedCrypto",
      "outputs": [
        {
          "internalType": "bool",
          "name": "",
          "type": "bool"
        }
      ],
      "stateMutability": "view",
      "type": "function"
    },
    {
      "inputs": [
        {
          "internalType": "address",
          "name": "_nftAddress",
          "type": "address"
        },
        {
          "internalType": "uint256",
          "name": "_tokenID",
          "type": "uint256"
        }
      ],
      "name": "getCollaborators",
      "outputs": [
        {
          "components": [
            {
              "internalType": "address[]",
              "name": "collaborators",
              "type": "address[]"
            },
            {
              "internalType": "uint96[]",
              "name": "collabFraction",
              "type": "uint96[]"
            }
          ],
          "internalType": "struct LibMarketStorage.Collaborators",
          "name": "",
          "type": "tuple"
        }
      ],
      "stateMutability": "view",
      "type": "function"
    },
    {
      "inputs": [],
      "name": "getCommissionPercentage",
      "outputs": [
        {
          "internalType": "uint96",
          "name": "",
          "type": "uint96"
        }
      ],
      "stateMutability": "view",
      "type": "function"
    },
    {
      "inputs": [],
      "name": "getName",
      "outputs": [
        {
          "internalType": "bytes32",
          "name": "",
          "type": "bytes32"
        }
      ],
      "stateMutability": "view",
      "type": "function"
    },
    {
      "inputs": [
        {
          "internalType": "string",
          "name": "name_",
          "type": "string"
        },
        {
          "internalType": "string",
          "name": "version_",
          "type": "string"
        }
      ],
      "name": "marketFacetInit",
      "outputs": [],
      "stateMutability": "nonpayable",
      "type": "function"
    },
    {
      "inputs": [
        {
          "internalType": "string",
          "name": "_contractType",
          "type": "string"
        },
        {
          "internalType": "address",
          "name": "_currencyAddress",
          "type": "address"
        },
        {
          "internalType": "address",
          "name": "_nftContAddress",
          "type": "address"
        },
        {
          "internalType": "address",
          "name": "_payer",
          "type": "address"
        },
        {
          "internalType": "uint256",
          "name": "amount",
          "type": "uint256"
        },
        {
          "internalType": "uint256",
          "name": "_tokenID",
          "type": "uint256"
        }
      ],
      "name": "royaltyFeeDeduction",
      "outputs": [
        {
          "internalType": "uint256",
          "name": "",
          "type": "uint256"
        }
      ],
      "stateMutability": "nonpayable",
      "type": "function"
    },
    {
      "inputs": [
        {
          "internalType": "address",
          "name": "adminAddress_",
          "type": "address"
        }
      ],
      "name": "setAdminAddress",
      "outputs": [],
      "stateMutability": "nonpayable",
      "type": "function"
    },
    {
      "inputs": [
        {
          "internalType": "address",
          "name": "_currencyAddress",
          "type": "address"
        },
        {
          "internalType": "bool",
          "name": "approving",
          "type": "bool"
        }
      ],
      "name": "setApprovedCrypto",
      "outputs": [],
      "stateMutability": "nonpayable",
      "type": "function"
    },
    {
      "inputs": [
        {
          "internalType": "address",
          "name": "_nftAddress",
          "type": "address"
        },
        {
          "internalType": "uint256",
          "name": "_tokenID",
          "type": "uint256"
        },
        {
          "internalType": "address[]",
          "name": "_collaborators",
          "type": "address[]"
        },
        {
          "internalType": "uint96[]",
          "name": "_collabFraction",
          "type": "uint96[]"
        }
      ],
      "name": "setCollaborators",
      "outputs": [],
      "stateMutability": "nonpayable",
      "type": "function"
    },
    {
      "inputs": [
        {
          "internalType": "uint96",
          "name": "_commissionPercentage",
          "type": "uint96"
        }
      ],
      "name": "setCommissionPercentage",
      "outputs": [
        {
          "internalType": "bool",
          "name": "",
          "type": "bool"
        }
      ],
      "stateMutability": "nonpayable",
      "type": "function"
    }
  ],
  "bytecode": "0x608060405234801561001057600080fd5b506147fd806100206000396000f3fe608060405234801561001057600080fd5b50600436106100ea5760003560e01c806384c6ba571161008c578063a5dbd81411610066578063a5dbd81414610247578063b2e6b91214610265578063d8ffe65614610283578063dccf6253146102b3576100ea565b806384c6ba57146101df5780638f9d5a2b1461020f5780639e9666d91461022b576100ea565b80632c1e816d116100c85780632c1e816d1461015957806338cc4831146101755780634a5ececd1461019357806372b360a6146101c3576100ea565b8063107262b1146100ef57806317d7de7c1461011f5780631c5c32d51461013d575b600080fd5b61010960048036038101906101049190612be8565b6102cf565b6040516101169190612e00565b60405180910390f35b6101276105b9565b6040516101349190612e3b565b60405180910390f35b61015760048036038101906101529190612f9c565b6105d1565b005b610173600480360381019061016e9190613014565b61074a565b005b61017d6108cd565b60405161018a9190613050565b60405180910390f35b6101ad60048036038101906101a89190613097565b610905565b6040516101ba91906130df565b60405180910390f35b6101dd60048036038101906101d891906131b0565b610a7f565b005b6101f960048036038101906101f49190613014565b610dd0565b60405161020691906130df565b60405180910390f35b61022960048036038101906102249190612f9c565b610e34565b005b610245600480360381019061024091906132f8565b610e7c565b005b61024f6116a8565b60405161025c919061343a565b60405180910390f35b61026d6117d1565b60405161027a9190613050565b60405180910390f35b61029d60048036038101906102989190613455565b611809565b6040516102aa919061350d565b60405180910390f35b6102cd60048036038101906102c89190613554565b611c1c565b005b6102d76129b7565b60006102e1611db8565b90508060040160009054906101000a900473ffffffffffffffffffffffffffffffffffffffff1673ffffffffffffffffffffffffffffffffffffffff163373ffffffffffffffffffffffffffffffffffffffff16148061039057506000800160009054906101000a900473ffffffffffffffffffffffffffffffffffffffff1673ffffffffffffffffffffffffffffffffffffffff163373ffffffffffffffffffffffffffffffffffffffff16145b6103cf576040517f08c379a00000000000000000000000000000000000000000000000000000000081526004016103c6906135f1565b60405180910390fd5b60006103d9611de5565b90506103e36129b7565b8160020160008773ffffffffffffffffffffffffffffffffffffffff1673ffffffffffffffffffffffffffffffffffffffff16815260200190815260200160002060008681526020019081526020016000206000018054806020026020016040519081016040528092919081815260200182805480156104b857602002820191906000526020600020905b8160009054906101000a900473ffffffffffffffffffffffffffffffffffffffff1673ffffffffffffffffffffffffffffffffffffffff168152602001906001019080831161046e575b505050505081600001819052508160020160008773ffffffffffffffffffffffffffffffffffffffff1673ffffffffffffffffffffffffffffffffffffffff16815260200190815260200160002060008681526020019081526020016000206001018054806020026020016040519081016040528092919081815260200182805480156105a057602002820191906000526020600020906000905b82829054906101000a90046bffffffffffffffffffffffff166bffffffffffffffffffffffff16815260200190600c0190602082600b010492830192600103820291508084116105535790505b5050505050816020018190525080935050505092915050565b6000806105c4611e12565b9050806003015491505090565b60006105db611e12565b90506000801b81600301541480156105f957506000801b8160040154145b610638576040517f08c379a000000000000000000000000000000000000000000000000000000000815260040161062f9061365d565b60405180910390fd5b600083511415801561064c57506000825114155b61068b576040517f08c379a0000000000000000000000000000000000000000000000000000000008152600401610682906136c9565b60405180910390fd5b60008380519060200120905060008380519060200120905060007f8b73c3c69bb8fe3d512ecc4cf759cc79239f7b179b0ffacaa9a75d522b39400f90508284600301819055508184600401819055504684600101819055506106ee818484611e3f565b8460000181905550308460020160006101000a81548173ffffffffffffffffffffffffffffffffffffffff021916908373ffffffffffffffffffffffffffffffffffffffff160217905550808460050181905550505050505050565b6000610754611db8565b90508060040160009054906101000a900473ffffffffffffffffffffffffffffffffffffffff1673ffffffffffffffffffffffffffffffffffffffff163373ffffffffffffffffffffffffffffffffffffffff16148061080357506000800160009054906101000a900473ffffffffffffffffffffffffffffffffffffffff1673ffffffffffffffffffffffffffffffffffffffff163373ffffffffffffffffffffffffffffffffffffffff16145b610842576040517f08c379a0000000000000000000000000000000000000000000000000000000008152600401610839906135f1565b60405180910390fd5b600061084c611de5565b9050828160030160006101000a81548173ffffffffffffffffffffffffffffffffffffffff021916908373ffffffffffffffffffffffffffffffffffffffff1602179055507f33b005d053f740768cddf56d4aae11b8b1fb294e749565266b2f2b20e80e9cdf836040516108c09190613050565b60405180910390a1505050565b6000806108d8611e12565b90508060020160009054906101000a900473ffffffffffffffffffffffffffffffffffffffff1691505090565b600080610910611db8565b90508060040160009054906101000a900473ffffffffffffffffffffffffffffffffffffffff1673ffffffffffffffffffffffffffffffffffffffff163373ffffffffffffffffffffffffffffffffffffffff1614806109bf57506000800160009054906101000a900473ffffffffffffffffffffffffffffffffffffffff1673ffffffffffffffffffffffffffffffffffffffff163373ffffffffffffffffffffffffffffffffffffffff16145b6109fe576040517f08c379a00000000000000000000000000000000000000000000000000000000081526004016109f5906135f1565b60405180910390fd5b6000610a08611de5565b9050838160010160006101000a8154816bffffffffffffffffffffffff02191690836bffffffffffffffffffffffff1602179055507fd9ca64d182fc7249309d686d75d501291017aa620a47f3344bc6f587448b59ee84604051610a6c919061343a565b60405180910390a1600192505050919050565b6000610a89611db8565b90508060040160009054906101000a900473ffffffffffffffffffffffffffffffffffffffff1673ffffffffffffffffffffffffffffffffffffffff163373ffffffffffffffffffffffffffffffffffffffff161480610b3857506000800160009054906101000a900473ffffffffffffffffffffffffffffffffffffffff1673ffffffffffffffffffffffffffffffffffffffff163373ffffffffffffffffffffffffffffffffffffffff16145b610b77576040517f08c379a0000000000000000000000000000000000000000000000000000000008152600401610b6e906135f1565b60405180910390fd5b6005858590501115610bbe576040517f08c379a0000000000000000000000000000000000000000000000000000000008152600401610bb590613735565b60405180910390fd5b60008585905011610c04576040517f08c379a0000000000000000000000000000000000000000000000000000000008152600401610bfb906137a1565b60405180910390fd5b828290508585905014610c4c576040517f08c379a0000000000000000000000000000000000000000000000000000000008152600401610c4390613833565b60405180910390fd5b6000610c56611de5565b9050610c606129b7565b868680806020026020016040519081016040528093929190818152602001838360200280828437600081840152601f19601f820116905080830192505050505050508160000181905250848480806020026020016040519081016040528093929190818152602001838360200280828437600081840152601f19601f820116905080830192505050505050508160200181905250808260020160008b73ffffffffffffffffffffffffffffffffffffffff1673ffffffffffffffffffffffffffffffffffffffff16815260200190815260200160002060008a81526020019081526020016000206000820151816000019080519060200190610d639291906129d1565b506020820151816001019080519060200190610d80929190612a5b565b509050507f3a72b6200a646e4f1476132bab86a1a8b22b7f21986c1d099413e69650832f35898989898989604051610dbd9695949392919061398b565b60405180910390a1505050505050505050565b600080610ddb611de5565b90508060000160008473ffffffffffffffffffffffffffffffffffffffff1673ffffffffffffffffffffffffffffffffffffffff16815260200190815260200160002060009054906101000a900460ff16915050919050565b6000610e3e611db8565b9050610e4a83836105d1565b610e778160040160009054906101000a900473ffffffffffffffffffffffffffffffffffffffff1661074a565b505050565b6000610e86611db8565b90508060040160009054906101000a900473ffffffffffffffffffffffffffffffffffffffff1673ffffffffffffffffffffffffffffffffffffffff163373ffffffffffffffffffffffffffffffffffffffff161480610f3557506000800160009054906101000a900473ffffffffffffffffffffffffffffffffffffffff1673ffffffffffffffffffffffffffffffffffffffff163373ffffffffffffffffffffffffffffffffffffffff16145b610f74576040517f08c379a0000000000000000000000000000000000000000000000000000000008152600401610f6b906135f1565b60405180910390fd5b6000610f7e611de5565b9050600115158160000160008c73ffffffffffffffffffffffffffffffffffffffff1673ffffffffffffffffffffffffffffffffffffffff16815260200190815260200160002060009054906101000a900460ff16151514611015576040517f08c379a000000000000000000000000000000000000000000000000000000000815260040161100c90613a54565b60405180910390fd5b6110248b88878d8a898e611e79565b611063576040517f08c379a000000000000000000000000000000000000000000000000000000000815260040161105a90613ac0565b60405180910390fd5b6110728b88878d8a888f611ed1565b6110b1576040517f08c379a00000000000000000000000000000000000000000000000000000000081526004016110a890613b2c565b60405180910390fd5b60008a9050868173ffffffffffffffffffffffffffffffffffffffff166370a082318b6040518263ffffffff1660e01b81526004016110f09190613050565b60206040518083038186803b15801561110857600080fd5b505afa15801561111c573d6000803e3d6000fd5b505050506040513d601f19601f820116820180604052508101906111409190613b61565b1015611181576040517f08c379a000000000000000000000000000000000000000000000000000000000815260040161117890613c00565b60405180910390fd5b868173ffffffffffffffffffffffffffffffffffffffff1663dd62ed3e8b6000800160009054906101000a900473ffffffffffffffffffffffffffffffffffffffff166040518363ffffffff1660e01b81526004016111e1929190613c20565b60206040518083038186803b1580156111f957600080fd5b505afa15801561120d573d6000803e3d6000fd5b505050506040513d601f19601f820116820180604052508101906112319190613b61565b1015611272576040517f08c379a000000000000000000000000000000000000000000000000000000000815260040161126990613ce1565b60405180910390fd5b60008790506112828c8b8a611f29565b8161128d9190613d30565b90508c73ffffffffffffffffffffffffffffffffffffffff166000800160009054906101000a900473ffffffffffffffffffffffffffffffffffffffff1673ffffffffffffffffffffffffffffffffffffffff1614156114ab576112f58e8d8f8d858e611809565b816113009190613d30565b905060405160200161131190613dbb565b604051602081830303815290604052805190602001208e6040516020016113389190613e3f565b6040516020818303038152906040528051906020012014156113d3576113628c8e8c8e858e612043565b508c73ffffffffffffffffffffffffffffffffffffffff166323b872dd8c8c8c6040518463ffffffff1660e01b81526004016113a093929190613e56565b600060405180830381600087803b1580156113ba57600080fd5b505af11580156113ce573d6000803e3d6000fd5b505050505b6040516020016113e290613ed9565b604051602081830303815290604052805190602001208e6040516020016114099190613e3f565b6040516020818303038152906040528051906020012014156114a6576114338c8e8c8e858e612043565b508c73ffffffffffffffffffffffffffffffffffffffff1663f242432a8c8c8c8b6040518563ffffffff1660e01b81526004016114739493929190613f25565b600060405180830381600087803b15801561148d57600080fd5b505af11580156114a1573d6000803e3d6000fd5b505050505b61165c565b6040516020016114ba90613dbb565b604051602081830303815290604052805190602001208e6040516020016114e19190613e3f565b6040516020818303038152906040528051906020012014156115825761150b8c8e8c8e858e612043565b5060008d90508073ffffffffffffffffffffffffffffffffffffffff166323b872dd8d8d8d6040518463ffffffff1660e01b815260040161154e93929190613e56565b600060405180830381600087803b15801561156857600080fd5b505af115801561157c573d6000803e3d6000fd5b50505050505b60405160200161159190613ed9565b604051602081830303815290604052805190602001208e6040516020016115b89190613e3f565b60405160208183030381529060405280519060200120141561165b576115e28c8e8c8e858e612043565b5060008d90508073ffffffffffffffffffffffffffffffffffffffff1663f242432a8d8d8d8c6040518563ffffffff1660e01b81526004016116279493929190613f25565b600060405180830381600087803b15801561164157600080fd5b505af1158015611655573d6000803e3d6000fd5b50505050505b5b7f19ffb67d0adfde67ebbb974c6d8b740dc93d5aa107e918d3bea627c5fecef8d58a8c600160405161169093929190613f7d565b60405180910390a15050505050505050505050505050565b6000806116b3611db8565b90508060040160009054906101000a900473ffffffffffffffffffffffffffffffffffffffff1673ffffffffffffffffffffffffffffffffffffffff163373ffffffffffffffffffffffffffffffffffffffff16148061176257506000800160009054906101000a900473ffffffffffffffffffffffffffffffffffffffff1673ffffffffffffffffffffffffffffffffffffffff163373ffffffffffffffffffffffffffffffffffffffff16145b6117a1576040517f08c379a0000000000000000000000000000000000000000000000000000000008152600401611798906135f1565b60405180910390fd5b60006117ab611de5565b90508060010160009054906101000a90046bffffffffffffffffffffffff169250505090565b6000806117dc611de5565b90508060030160009054906101000a900473ffffffffffffffffffffffffffffffffffffffff1691505090565b6000806000905060405160200161181f90613dbb565b60405160208183030381529060405280519060200120886040516020016118469190613e3f565b604051602081830303815290604052805190602001201415611a0e576000808773ffffffffffffffffffffffffffffffffffffffff1663a47404a386886040518363ffffffff1660e01b81526004016118a0929190613fb4565b60006040518083038186803b1580156118b857600080fd5b505afa1580156118cc573d6000803e3d6000fd5b505050506040513d6000823e3d601f19601f820116820180604052508101906118f59190614178565b91509150600089905060005b8351811015611a09578173ffffffffffffffffffffffffffffffffffffffff166323b872dd8a86848151811061193a576119396141f0565b5b6020026020010151868581518110611955576119546141f0565b5b60200260200101516040518463ffffffff1660e01b815260040161197b93929190613e56565b602060405180830381600087803b15801561199557600080fd5b505af11580156119a9573d6000803e3d6000fd5b505050506040513d601f19601f820116820180604052508101906119cd9190614234565b508281815181106119e1576119e06141f0565b5b6020026020010151856119f49190614261565b94508080611a01906142b7565b915050611901565b505050505b604051602001611a1d90613ed9565b6040516020818303038152906040528051906020012088604051602001611a449190613e3f565b604051602081830303815290604052805190602001201415611c0e576000808773ffffffffffffffffffffffffffffffffffffffff1663eed3245886886040518363ffffffff1660e01b8152600401611a9e929190613fb4565b600060405180830381600087803b158015611ab857600080fd5b505af1158015611acc573d6000803e3d6000fd5b505050506040513d6000823e3d601f19601f82011682018060405250810190611af59190614178565b91509150600089905060005b8351811015611c09578173ffffffffffffffffffffffffffffffffffffffff166323b872dd8a868481518110611b3a57611b396141f0565b5b6020026020010151868581518110611b5557611b546141f0565b5b60200260200101516040518463ffffffff1660e01b8152600401611b7b93929190613e56565b602060405180830381600087803b158015611b9557600080fd5b505af1158015611ba9573d6000803e3d6000fd5b505050506040513d601f19601f82011682018060405250810190611bcd9190614234565b50828181518110611be157611be06141f0565b5b602002602001015185611bf49190614261565b94508080611c01906142b7565b915050611b01565b505050505b809150509695505050505050565b6000611c26611db8565b90508060040160009054906101000a900473ffffffffffffffffffffffffffffffffffffffff1673ffffffffffffffffffffffffffffffffffffffff163373ffffffffffffffffffffffffffffffffffffffff161480611cd557506000800160009054906101000a900473ffffffffffffffffffffffffffffffffffffffff1673ffffffffffffffffffffffffffffffffffffffff163373ffffffffffffffffffffffffffffffffffffffff16145b611d14576040517f08c379a0000000000000000000000000000000000000000000000000000000008152600401611d0b906135f1565b60405180910390fd5b6000611d1e611de5565b9050828160000160008673ffffffffffffffffffffffffffffffffffffffff1673ffffffffffffffffffffffffffffffffffffffff16815260200190815260200160002060006101000a81548160ff0219169083151502179055507ff351943a6966bcc3eb6b4fc6d8c641a491c9e3f85e183a0992c98aa6523713e18484604051611daa929190614300565b60405180910390a150505050565b6000807fc8fcad8db84d3cc18b4c41d551ea0ee66dd599cde068d998e57d5e09332c131c90508091505090565b6000807f23a8b080129d29a012fab4572a713d8fd62f42f971351afe31751b09c12186aa90508091505090565b6000807fae36923e02a3e3934bc8e16cc335029655eed5d5801b3db8294179c633d8af4c90508091505090565b60008383834630604051602001611e5a959493929190614329565b6040516020818303038152906040528051906020012090509392505050565b600080611e89898989898961247a565b90508273ffffffffffffffffffffffffffffffffffffffff16611eac82866124e0565b73ffffffffffffffffffffffffffffffffffffffff1614915050979650505050505050565b600080611ee1898989898961247a565b90508273ffffffffffffffffffffffffffffffffffffffff16611f0482866124e0565b73ffffffffffffffffffffffffffffffffffffffff1614915050979650505050505050565b6000808490506000611f39611de5565b905060006127108260010160009054906101000a90046bffffffffffffffffffffffff166bffffffffffffffffffffffff1686611f76919061437c565b611f809190614405565b90508273ffffffffffffffffffffffffffffffffffffffff166323b872dd878460030160009054906101000a900473ffffffffffffffffffffffffffffffffffffffff16846040518463ffffffff1660e01b8152600401611fe393929190613e56565b602060405180830381600087803b158015611ffd57600080fd5b505af1158015612011573d6000803e3d6000fd5b505050506040513d601f19601f820116820180604052508101906120359190614234565b508093505050509392505050565b600080879050838173ffffffffffffffffffffffffffffffffffffffff166370a08231886040518263ffffffff1660e01b81526004016120839190613050565b60206040518083038186803b15801561209b57600080fd5b505afa1580156120af573d6000803e3d6000fd5b505050506040513d601f19601f820116820180604052508101906120d39190613b61565b1015612114576040517f08c379a000000000000000000000000000000000000000000000000000000000815260040161210b90613c00565b60405180910390fd5b600061211e611de5565b90506121286129b7565b60008690508260020160008b73ffffffffffffffffffffffffffffffffffffffff1673ffffffffffffffffffffffffffffffffffffffff16815260200190815260200160002060008781526020019081526020016000206040518060400160405290816000820180548060200260200160405190810160405280929190818152602001828054801561220f57602002820191906000526020600020905b8160009054906101000a900473ffffffffffffffffffffffffffffffffffffffff1673ffffffffffffffffffffffffffffffffffffffff16815260200190600101908083116121c5575b50505050508152602001600182018054806020026020016040519081016040528092919081815260200182805480156122a357602002820191906000526020600020906000905b82829054906101000a90046bffffffffffffffffffffffff166bffffffffffffffffffffffff16815260200190600c0190602082600b010492830192600103820291508084116122565790505b505050505081525050915060005b8260000151518110156123d7576000612710846020015183815181106122da576122d96141f0565b5b60200260200101516bffffffffffffffffffffffff168a6122fb919061437c565b6123059190614405565b905080896123139190613d30565b92508573ffffffffffffffffffffffffffffffffffffffff166323b872dd8c86600001518581518110612349576123486141f0565b5b6020026020010151846040518463ffffffff1660e01b815260040161237093929190613e56565b602060405180830381600087803b15801561238a57600080fd5b505af115801561239e573d6000803e3d6000fd5b505050506040513d601f19601f820116820180604052508101906123c29190614234565b505080806123cf906142b7565b9150506122b1565b508373ffffffffffffffffffffffffffffffffffffffff166323b872dd8a8a846040518463ffffffff1660e01b815260040161241593929190613e56565b602060405180830381600087803b15801561242f57600080fd5b505af1158015612443573d6000803e3d6000fd5b505050506040513d601f19601f820116820180604052508101906124679190614234565b5060019450505050509695505050505050565b60006124d57f73a68255bef9b2d8772a65da56b8c433fcf3e468b3ec1670e127d24c73a90fc787878787876040516020016124ba96959493929190614436565b60405160208183030381529060405280519060200120612507565b905095945050505050565b60008060006124ef8585612521565b915091506124fc816125a4565b819250505092915050565b600061251a612514612779565b83612818565b9050919050565b6000806041835114156125635760008060006020860151925060408601519150606086015160001a90506125578782858561284b565b9450945050505061259d565b604083511415612594576000806020850151915060408501519050612589868383612958565b93509350505061259d565b60006002915091505b9250929050565b600060048111156125b8576125b7614497565b5b8160048111156125cb576125ca614497565b5b14156125d657612776565b600160048111156125ea576125e9614497565b5b8160048111156125fd576125fc614497565b5b141561263e576040517f08c379a000000000000000000000000000000000000000000000000000000000815260040161263590614512565b60405180910390fd5b6002600481111561265257612651614497565b5b81600481111561266557612664614497565b5b14156126a6576040517f08c379a000000000000000000000000000000000000000000000000000000000815260040161269d9061457e565b60405180910390fd5b600360048111156126ba576126b9614497565b5b8160048111156126cd576126cc614497565b5b141561270e576040517f08c379a000000000000000000000000000000000000000000000000000000000815260040161270590614610565b60405180910390fd5b60048081111561272157612720614497565b5b81600481111561273457612733614497565b5b1415612775576040517f08c379a000000000000000000000000000000000000000000000000000000000815260040161276c906146a2565b60405180910390fd5b5b50565b600080612784611e12565b90508060020160009054906101000a900473ffffffffffffffffffffffffffffffffffffffff1673ffffffffffffffffffffffffffffffffffffffff163073ffffffffffffffffffffffffffffffffffffffff161480156127e85750806001015446145b156127fa578060000154915050612815565b612811816005015482600301548360040154611e3f565b9150505b90565b6000828260405160200161282d92919061472f565b60405160208183030381529060405280519060200120905092915050565b6000807f7fffffffffffffffffffffffffffffff5d576e7357a4501ddfe92f46681b20a08360001c111561288657600060039150915061294f565b601b8560ff161415801561289e5750601c8560ff1614155b156128b057600060049150915061294f565b6000600187878787604051600081526020016040526040516128d59493929190614782565b6020604051602081039080840390855afa1580156128f7573d6000803e3d6000fd5b505050602060405103519050600073ffffffffffffffffffffffffffffffffffffffff168173ffffffffffffffffffffffffffffffffffffffff1614156129465760006001925092505061294f565b80600092509250505b94509492505050565b60008060007f7fffffffffffffffffffffffffffffffffffffffffffffffffffffffffffffff60001b841690506000601b60ff8660001c901c61299b9190614261565b90506129a98782888561284b565b935093505050935093915050565b604051806040016040528060608152602001606081525090565b828054828255906000526020600020908101928215612a4a579160200282015b82811115612a495782518260006101000a81548173ffffffffffffffffffffffffffffffffffffffff021916908373ffffffffffffffffffffffffffffffffffffffff160217905550916020019190600101906129f1565b5b509050612a579190612b23565b5090565b82805482825590600052602060002090600101600290048101928215612b125791602002820160005b83821115612ad857835183826101000a8154816bffffffffffffffffffffffff02191690836bffffffffffffffffffffffff1602179055509260200192600c01602081600b01049283019260010302612a84565b8015612b105782816101000a8154906bffffffffffffffffffffffff0219169055600c01602081600b01049283019260010302612ad8565b505b509050612b1f9190612b23565b5090565b5b80821115612b3c576000816000905550600101612b24565b5090565b6000604051905090565b600080fd5b600080fd5b600073ffffffffffffffffffffffffffffffffffffffff82169050919050565b6000612b7f82612b54565b9050919050565b612b8f81612b74565b8114612b9a57600080fd5b50565b600081359050612bac81612b86565b92915050565b6000819050919050565b612bc581612bb2565b8114612bd057600080fd5b50565b600081359050612be281612bbc565b92915050565b60008060408385031215612bff57612bfe612b4a565b5b6000612c0d85828601612b9d565b9250506020612c1e85828601612bd3565b9150509250929050565b600081519050919050565b600082825260208201905092915050565b6000819050602082019050919050565b612c5d81612b74565b82525050565b6000612c6f8383612c54565b60208301905092915050565b6000602082019050919050565b6000612c9382612c28565b612c9d8185612c33565b9350612ca883612c44565b8060005b83811015612cd9578151612cc08882612c63565b9750612ccb83612c7b565b925050600181019050612cac565b5085935050505092915050565b600081519050919050565b600082825260208201905092915050565b6000819050602082019050919050565b60006bffffffffffffffffffffffff82169050919050565b612d3381612d12565b82525050565b6000612d458383612d2a565b60208301905092915050565b6000602082019050919050565b6000612d6982612ce6565b612d738185612cf1565b9350612d7e83612d02565b8060005b83811015612daf578151612d968882612d39565b9750612da183612d51565b925050600181019050612d82565b5085935050505092915050565b60006040830160008301518482036000860152612dd98282612c88565b91505060208301518482036020860152612df38282612d5e565b9150508091505092915050565b60006020820190508181036000830152612e1a8184612dbc565b905092915050565b6000819050919050565b612e3581612e22565b82525050565b6000602082019050612e506000830184612e2c565b92915050565b600080fd5b600080fd5b6000601f19601f8301169050919050565b7f4e487b7100000000000000000000000000000000000000000000000000000000600052604160045260246000fd5b612ea982612e60565b810181811067ffffffffffffffff82111715612ec857612ec7612e71565b5b80604052505050565b6000612edb612b40565b9050612ee78282612ea0565b919050565b600067ffffffffffffffff821115612f0757612f06612e71565b5b612f1082612e60565b9050602081019050919050565b82818337600083830152505050565b6000612f3f612f3a84612eec565b612ed1565b905082815260208101848484011115612f5b57612f5a612e5b565b5b612f66848285612f1d565b509392505050565b600082601f830112612f8357612f82612e56565b5b8135612f93848260208601612f2c565b91505092915050565b60008060408385031215612fb357612fb2612b4a565b5b600083013567ffffffffffffffff811115612fd157612fd0612b4f565b5b612fdd85828601612f6e565b925050602083013567ffffffffffffffff811115612ffe57612ffd612b4f565b5b61300a85828601612f6e565b9150509250929050565b60006020828403121561302a57613029612b4a565b5b600061303884828501612b9d565b91505092915050565b61304a81612b74565b82525050565b60006020820190506130656000830184613041565b92915050565b61307481612d12565b811461307f57600080fd5b50565b6000813590506130918161306b565b92915050565b6000602082840312156130ad576130ac612b4a565b5b60006130bb84828501613082565b91505092915050565b60008115159050919050565b6130d9816130c4565b82525050565b60006020820190506130f460008301846130d0565b92915050565b600080fd5b600080fd5b60008083601f84011261311a57613119612e56565b5b8235905067ffffffffffffffff811115613137576131366130fa565b5b602083019150836020820283011115613153576131526130ff565b5b9250929050565b60008083601f8401126131705761316f612e56565b5b8235905067ffffffffffffffff81111561318d5761318c6130fa565b5b6020830191508360208202830111156131a9576131a86130ff565b5b9250929050565b600080600080600080608087890312156131cd576131cc612b4a565b5b60006131db89828a01612b9d565b96505060206131ec89828a01612bd3565b955050604087013567ffffffffffffffff81111561320d5761320c612b4f565b5b61321989828a01613104565b9450945050606087013567ffffffffffffffff81111561323c5761323b612b4f565b5b61324889828a0161315a565b92509250509295509295509295565b600067ffffffffffffffff82111561327257613271612e71565b5b61327b82612e60565b9050602081019050919050565b600061329b61329684613257565b612ed1565b9050828152602081018484840111156132b7576132b6612e5b565b5b6132c2848285612f1d565b509392505050565b600082601f8301126132df576132de612e56565b5b81356132ef848260208601613288565b91505092915050565b6000806000806000806000806000806101408b8d03121561331c5761331b612b4a565b5b60008b013567ffffffffffffffff81111561333a57613339612b4f565b5b6133468d828e01612f6e565b9a505060206133578d828e01612b9d565b99505060406133688d828e01612b9d565b98505060606133798d828e01612b9d565b975050608061338a8d828e01612b9d565b96505060a061339b8d828e01612bd3565b95505060c06133ac8d828e01612bd3565b94505060e06133bd8d828e01612bd3565b9350506101008b013567ffffffffffffffff8111156133df576133de612b4f565b5b6133eb8d828e016132ca565b9250506101208b013567ffffffffffffffff81111561340d5761340c612b4f565b5b6134198d828e016132ca565b9150509295989b9194979a5092959850565b61343481612d12565b82525050565b600060208201905061344f600083018461342b565b92915050565b60008060008060008060c0878903121561347257613471612b4a565b5b600087013567ffffffffffffffff8111156134905761348f612b4f565b5b61349c89828a01612f6e565b96505060206134ad89828a01612b9d565b95505060406134be89828a01612b9d565b94505060606134cf89828a01612b9d565b93505060806134e089828a01612bd3565b92505060a06134f189828a01612bd3565b9150509295509295509295565b61350781612bb2565b82525050565b600060208201905061352260008301846134fe565b92915050565b613531816130c4565b811461353c57600080fd5b50565b60008135905061354e81613528565b92915050565b6000806040838503121561356b5761356a612b4a565b5b600061357985828601612b9d565b925050602061358a8582860161353f565b9150509250929050565b600082825260208201905092915050565b7f4e6f74206d65646961206e6f72206f776e657200000000000000000000000000600082015250565b60006135db601383613594565b91506135e6826135a5565b602082019050919050565b6000602082019050818103600083015261360a816135ce565b9050919050565b7f414c52454144595f494e495449414c495a454400000000000000000000000000600082015250565b6000613647601383613594565b915061365282613611565b602082019050919050565b600060208201905081810360008301526136768161363a565b9050919050565b7f494e56414c49445f504152414d53000000000000000000000000000000000000600082015250565b60006136b3600e83613594565b91506136be8261367d565b602082019050919050565b600060208201905081810360008301526136e2816136a6565b9050919050565b7f546f6f206d616e7920436f6c6c61626f7261746f727300000000000000000000600082015250565b600061371f601683613594565b915061372a826136e9565b602082019050919050565b6000602082019050818103600083015261374e81613712565b9050919050565b7f436f6c6c61626f7261746f7273206e6f74207365740000000000000000000000600082015250565b600061378b601583613594565b915061379682613755565b602082019050919050565b600060208201905081810360008301526137ba8161377e565b9050919050565b7f4d69736d61746368206f6620436f6c6c61626f7261746f727320616e6420746860008201527f6569722073686172650000000000000000000000000000000000000000000000602082015250565b600061381d602983613594565b9150613828826137c1565b604082019050919050565b6000602082019050818103600083015261384c81613810565b9050919050565b600082825260208201905092915050565b6000819050919050565b600061387d6020840184612b9d565b905092915050565b6000602082019050919050565b600061389e8385613853565b93506138a982613864565b8060005b858110156138e2576138bf828461386e565b6138c98882612c63565b97506138d483613885565b9250506001810190506138ad565b5085925050509392505050565b600082825260208201905092915050565b6000819050919050565b60006139196020840184613082565b905092915050565b6000602082019050919050565b600061393a83856138ef565b935061394582613900565b8060005b8581101561397e5761395b828461390a565b6139658882612d39565b975061397083613921565b925050600181019050613949565b5085925050509392505050565b60006080820190506139a06000830189613041565b6139ad60208301886134fe565b81810360408301526139c0818688613892565b905081810360608301526139d581848661392e565b9050979650505050505050565b7f4e6f7420616e20617070726f7665642063727970746f63757272656e6379206660008201527f6f722062696464696e6700000000000000000000000000000000000000000000602082015250565b6000613a3e602a83613594565b9150613a49826139e2565b604082019050919050565b60006020820190508181036000830152613a6d81613a31565b9050919050565b7f42696464657273206f66666572206e6f74207665726966696564000000000000600082015250565b6000613aaa601a83613594565b9150613ab582613a74565b602082019050919050565b60006020820190508181036000830152613ad981613a9d565b9050919050565b7f53656c6c657273206f66666572206e6f74207665726966696564000000000000600082015250565b6000613b16601a83613594565b9150613b2182613ae0565b602082019050919050565b60006020820190508181036000830152613b4581613b09565b9050919050565b600081519050613b5b81612bbc565b92915050565b600060208284031215613b7757613b76612b4a565b5b6000613b8584828501613b4c565b91505092915050565b7f455243323020696e207468652070617965722061646472657373206973206e6f60008201527f7420656e6f756768000000000000000000000000000000000000000000000000602082015250565b6000613bea602883613594565b9150613bf582613b8e565b604082019050919050565b60006020820190508181036000830152613c1981613bdd565b9050919050565b6000604082019050613c356000830185613041565b613c426020830184613041565b9392505050565b7f45524332303a204469616d6f6e64206973206e6f7420617070726f766564206260008201527f79207468652062696464657220666f72207370656e64696e672045524332302060208201527f746f6b656e730000000000000000000000000000000000000000000000000000604082015250565b6000613ccb604683613594565b9150613cd682613c49565b606082019050919050565b60006020820190508181036000830152613cfa81613cbe565b9050919050565b7f4e487b7100000000000000000000000000000000000000000000000000000000600052601160045260246000fd5b6000613d3b82612bb2565b9150613d4683612bb2565b925082821015613d5957613d58613d01565b5b828203905092915050565b600081905092915050565b7f4552433732310000000000000000000000000000000000000000000000000000600082015250565b6000613da5600683613d64565b9150613db082613d6f565b600682019050919050565b6000613dc682613d98565b9150819050919050565b600081519050919050565b60005b83811015613df9578082015181840152602081019050613dde565b83811115613e08576000848401525b50505050565b6000613e1982613dd0565b613e238185613d64565b9350613e33818560208601613ddb565b80840191505092915050565b6000613e4b8284613e0e565b915081905092915050565b6000606082019050613e6b6000830186613041565b613e786020830185613041565b613e8560408301846134fe565b949350505050565b7f4552433131353500000000000000000000000000000000000000000000000000600082015250565b6000613ec3600783613d64565b9150613ece82613e8d565b600782019050919050565b6000613ee482613eb6565b9150819050919050565b600082825260208201905092915050565b50565b6000613f0f600083613eee565b9150613f1a82613eff565b600082019050919050565b600060a082019050613f3a6000830187613041565b613f476020830186613041565b613f5460408301856134fe565b613f6160608301846134fe565b8181036080830152613f7281613f02565b905095945050505050565b6000606082019050613f926000830186613041565b613f9f6020830185613041565b613fac60408301846130d0565b949350505050565b6000604082019050613fc960008301856134fe565b613fd660208301846134fe565b9392505050565b600067ffffffffffffffff821115613ff857613ff7612e71565b5b602082029050602081019050919050565b60008151905061401881612b86565b92915050565b600061403161402c84613fdd565b612ed1565b90508083825260208201905060208402830185811115614054576140536130ff565b5b835b8181101561407d57806140698882614009565b845260208401935050602081019050614056565b5050509392505050565b600082601f83011261409c5761409b612e56565b5b81516140ac84826020860161401e565b91505092915050565b600067ffffffffffffffff8211156140d0576140cf612e71565b5b602082029050602081019050919050565b60006140f46140ef846140b5565b612ed1565b90508083825260208201905060208402830185811115614117576141166130ff565b5b835b81811015614140578061412c8882613b4c565b845260208401935050602081019050614119565b5050509392505050565b600082601f83011261415f5761415e612e56565b5b815161416f8482602086016140e1565b91505092915050565b6000806040838503121561418f5761418e612b4a565b5b600083015167ffffffffffffffff8111156141ad576141ac612b4f565b5b6141b985828601614087565b925050602083015167ffffffffffffffff8111156141da576141d9612b4f565b5b6141e68582860161414a565b9150509250929050565b7f4e487b7100000000000000000000000000000000000000000000000000000000600052603260045260246000fd5b60008151905061422e81613528565b92915050565b60006020828403121561424a57614249612b4a565b5b60006142588482850161421f565b91505092915050565b600061426c82612bb2565b915061427783612bb2565b9250827fffffffffffffffffffffffffffffffffffffffffffffffffffffffffffffffff038211156142ac576142ab613d01565b5b828201905092915050565b60006142c282612bb2565b91507fffffffffffffffffffffffffffffffffffffffffffffffffffffffffffffffff8214156142f5576142f4613d01565b5b600182019050919050565b60006040820190506143156000830185613041565b61432260208301846130d0565b9392505050565b600060a08201905061433e6000830188612e2c565b61434b6020830187612e2c565b6143586040830186612e2c565b61436560608301856134fe565b6143726080830184613041565b9695505050505050565b600061438782612bb2565b915061439283612bb2565b9250817fffffffffffffffffffffffffffffffffffffffffffffffffffffffffffffffff04831182151516156143cb576143ca613d01565b5b828202905092915050565b7f4e487b7100000000000000000000000000000000000000000000000000000000600052601260045260246000fd5b600061441082612bb2565b915061441b83612bb2565b92508261442b5761442a6143d6565b5b828204905092915050565b600060c08201905061444b6000830189612e2c565b6144586020830188613041565b61446560408301876134fe565b61447260608301866134fe565b61447f6080830185613041565b61448c60a08301846134fe565b979650505050505050565b7f4e487b7100000000000000000000000000000000000000000000000000000000600052602160045260246000fd5b7f45434453413a20696e76616c6964207369676e61747572650000000000000000600082015250565b60006144fc601883613594565b9150614507826144c6565b602082019050919050565b6000602082019050818103600083015261452b816144ef565b9050919050565b7f45434453413a20696e76616c6964207369676e6174757265206c656e67746800600082015250565b6000614568601f83613594565b915061457382614532565b602082019050919050565b600060208201905081810360008301526145978161455b565b9050919050565b7f45434453413a20696e76616c6964207369676e6174757265202773272076616c60008201527f7565000000000000000000000000000000000000000000000000000000000000602082015250565b60006145fa602283613594565b91506146058261459e565b604082019050919050565b60006020820190508181036000830152614629816145ed565b9050919050565b7f45434453413a20696e76616c6964207369676e6174757265202776272076616c60008201527f7565000000000000000000000000000000000000000000000000000000000000602082015250565b600061468c602283613594565b915061469782614630565b604082019050919050565b600060208201905081810360008301526146bb8161467f565b9050919050565b7f1901000000000000000000000000000000000000000000000000000000000000600082015250565b60006146f8600283613d64565b9150614703826146c2565b600282019050919050565b6000819050919050565b61472961472482612e22565b61470e565b82525050565b600061473a826146eb565b91506147468285614718565b6020820191506147568284614718565b6020820191508190509392505050565b600060ff82169050919050565b61477c81614766565b82525050565b60006080820190506147976000830187612e2c565b6147a46020830186614773565b6147b16040830185612e2c565b6147be6060830184612e2c565b9594505050505056fea26469706673582212209491b3dc32d1e4b4039a1102bba9ff7b5847c443c40de615402bbc88cb413c0464736f6c63430008090033",
  "linkReferences": {},
  "deployedLinkReferences": {}
}