{
  "_format": "hh-sol-artifact-1",
  "contractName": "ERC721Mock",
  "sourceName": "contracts/Mocks/ERC721Mock.sol",
  "abi": [
    {
      "inputs": [
        {
          "internalType": "string",
          "name": "_name",
          "type": "string"
        },
        {
          "internalType": "string",
          "name": "_symbol",
          "type": "string"
        },
        {
          "internalType": "bool",
          "name": "defaultRoyalty",
          "type": "bool"
        },
        {
          "internalType": "address[]",
          "name": "royaltyReceiver",
          "type": "address[]"
        },
        {
          "internalType": "uint96[]",
          "name": "royaltyFeesInBips",
          "type": "uint96[]"
        }
      ],
      "stateMutability": "nonpayable",
      "type": "constructor"
    },
    {
      "anonymous": false,
      "inputs": [
        {
          "indexed": true,
          "internalType": "address",
          "name": "owner",
          "type": "address"
        },
        {
          "indexed": true,
          "internalType": "address",
          "name": "approved",
          "type": "address"
        },
        {
          "indexed": true,
          "internalType": "uint256",
          "name": "tokenId",
          "type": "uint256"
        }
      ],
      "name": "Approval",
      "type": "event"
    },
    {
      "anonymous": false,
      "inputs": [
        {
          "indexed": true,
          "internalType": "address",
          "name": "owner",
          "type": "address"
        },
        {
          "indexed": true,
          "internalType": "address",
          "name": "operator",
          "type": "address"
        },
        {
          "indexed": false,
          "internalType": "bool",
          "name": "approved",
          "type": "bool"
        }
      ],
      "name": "ApprovalForAll",
      "type": "event"
    },
    {
      "anonymous": false,
      "inputs": [
        {
          "indexed": true,
          "internalType": "address",
          "name": "from",
          "type": "address"
        },
        {
          "indexed": true,
          "internalType": "address",
          "name": "to",
          "type": "address"
        },
        {
          "indexed": true,
          "internalType": "uint256",
          "name": "tokenId",
          "type": "uint256"
        }
      ],
      "name": "Transfer",
      "type": "event"
    },
    {
      "inputs": [
        {
          "internalType": "address",
          "name": "to",
          "type": "address"
        },
        {
          "internalType": "uint256",
          "name": "tokenId",
          "type": "uint256"
        }
      ],
      "name": "approve",
      "outputs": [],
      "stateMutability": "nonpayable",
      "type": "function"
    },
    {
      "inputs": [
        {
          "internalType": "address",
          "name": "owner",
          "type": "address"
        }
      ],
      "name": "balanceOf",
      "outputs": [
        {
          "internalType": "uint256",
          "name": "",
          "type": "uint256"
        }
      ],
      "stateMutability": "view",
      "type": "function"
    },
    {
      "inputs": [
        {
          "internalType": "uint256",
          "name": "tokenId",
          "type": "uint256"
        }
      ],
      "name": "getApproved",
      "outputs": [
        {
          "internalType": "address",
          "name": "",
          "type": "address"
        }
      ],
      "stateMutability": "view",
      "type": "function"
    },
    {
      "inputs": [
        {
          "internalType": "address",
          "name": "owner",
          "type": "address"
        },
        {
          "internalType": "address",
          "name": "operator",
          "type": "address"
        }
      ],
      "name": "isApprovedForAll",
      "outputs": [
        {
          "internalType": "bool",
          "name": "",
          "type": "bool"
        }
      ],
      "stateMutability": "view",
      "type": "function"
    },
    {
      "inputs": [],
      "name": "name",
      "outputs": [
        {
          "internalType": "string",
          "name": "",
          "type": "string"
        }
      ],
      "stateMutability": "view",
      "type": "function"
    },
    {
      "inputs": [
        {
          "internalType": "uint256",
          "name": "tokenId",
          "type": "uint256"
        }
      ],
      "name": "ownerOf",
      "outputs": [
        {
          "internalType": "address",
          "name": "",
          "type": "address"
        }
      ],
      "stateMutability": "view",
      "type": "function"
    },
    {
      "inputs": [
        {
          "internalType": "uint256",
          "name": "_tokenId",
          "type": "uint256"
        },
        {
          "internalType": "uint256",
          "name": "_salePrice",
          "type": "uint256"
        }
      ],
      "name": "royaltyInfo",
      "outputs": [
        {
          "internalType": "address[]",
          "name": "",
          "type": "address[]"
        },
        {
          "internalType": "uint256[]",
          "name": "",
          "type": "uint256[]"
        }
      ],
      "stateMutability": "view",
      "type": "function"
    },
    {
      "inputs": [
        {
          "internalType": "address",
          "name": "creator",
          "type": "address"
        },
        {
          "internalType": "uint256",
          "name": "tokenId",
          "type": "uint256"
        },
        {
          "internalType": "bool",
          "name": "tokenRoyalty",
          "type": "bool"
        },
        {
          "internalType": "address[]",
          "name": "royaltyReceiver",
          "type": "address[]"
        },
        {
          "internalType": "uint96[]",
          "name": "tokenRoyaltyInBips",
          "type": "uint96[]"
        }
      ],
      "name": "safeMint",
      "outputs": [],
      "stateMutability": "nonpayable",
      "type": "function"
    },
    {
      "inputs": [
        {
          "internalType": "address",
          "name": "from",
          "type": "address"
        },
        {
          "internalType": "address",
          "name": "to",
          "type": "address"
        },
        {
          "internalType": "uint256",
          "name": "tokenId",
          "type": "uint256"
        }
      ],
      "name": "safeTransferFrom",
      "outputs": [],
      "stateMutability": "nonpayable",
      "type": "function"
    },
    {
      "inputs": [
        {
          "internalType": "address",
          "name": "from",
          "type": "address"
        },
        {
          "internalType": "address",
          "name": "to",
          "type": "address"
        },
        {
          "internalType": "uint256",
          "name": "tokenId",
          "type": "uint256"
        },
        {
          "internalType": "bytes",
          "name": "data",
          "type": "bytes"
        }
      ],
      "name": "safeTransferFrom",
      "outputs": [],
      "stateMutability": "nonpayable",
      "type": "function"
    },
    {
      "inputs": [
        {
          "internalType": "address",
          "name": "operator",
          "type": "address"
        },
        {
          "internalType": "bool",
          "name": "approved",
          "type": "bool"
        }
      ],
      "name": "setApprovalForAll",
      "outputs": [],
      "stateMutability": "nonpayable",
      "type": "function"
    },
    {
      "inputs": [
        {
          "internalType": "bytes4",
          "name": "interfaceId",
          "type": "bytes4"
        }
      ],
      "name": "supportsInterface",
      "outputs": [
        {
          "internalType": "bool",
          "name": "",
          "type": "bool"
        }
      ],
      "stateMutability": "view",
      "type": "function"
    },
    {
      "inputs": [],
      "name": "symbol",
      "outputs": [
        {
          "internalType": "string",
          "name": "",
          "type": "string"
        }
      ],
      "stateMutability": "view",
      "type": "function"
    },
    {
      "inputs": [
        {
          "internalType": "uint256",
          "name": "tokenId",
          "type": "uint256"
        }
      ],
      "name": "tokenURI",
      "outputs": [
        {
          "internalType": "string",
          "name": "",
          "type": "string"
        }
      ],
      "stateMutability": "view",
      "type": "function"
    },
    {
      "inputs": [
        {
          "internalType": "address",
          "name": "from",
          "type": "address"
        },
        {
          "internalType": "address",
          "name": "to",
          "type": "address"
        },
        {
          "internalType": "uint256",
          "name": "tokenId",
          "type": "uint256"
        }
      ],
      "name": "transferFrom",
      "outputs": [],
      "stateMutability": "nonpayable",
      "type": "function"
    }
  ],
  "bytecode": "0x60806040523480156200001157600080fd5b50604051620042723803806200427283398181016040528101906200003791906200072d565b848481600090805190602001906200005192919062000300565b5080600190805190602001906200006a92919062000300565b5050506000859050600085905060008251141580156200008c57506000815114155b620000ce576040517f08c379a0000000000000000000000000000000000000000000000000000000008152600401620000c59062000938565b60405180910390fd5b8415620000e857620000e78484620000f560201b60201c565b5b5050505050505062000e8e565b60008251116200013c576040517f08c379a0000000000000000000000000000000000000000000000000000000008152600401620001339062000916565b60405180910390fd5b60058251111562000184576040517f08c379a00000000000000000000000000000000000000000000000000000000081526004016200017b90620008f4565b60405180910390fd5b8051825114620001cb576040517f08c379a0000000000000000000000000000000000000000000000000000000008152600401620001c2906200095a565b60405180910390fd5b6000805b82518110156200022a57828181518110620001ef57620001ee62000c79565b5b60200260200101516bffffffffffffffffffffffff168262000212919062000a6c565b91508080620002219062000bcd565b915050620001cf565b506200023b620002f660201b60201c565b6bffffffffffffffffffffffff168111156200028e576040517f08c379a000000000000000000000000000000000000000000000000000000000815260040162000285906200097c565b60405180910390fd5b60608084905083915060405180604001604052808281526020018381525060066000820151816000019080519060200190620002cc92919062000391565b506020820151816001019080519060200190620002eb92919062000420565b509050505050505050565b6000612710905090565b8280546200030e9062000b61565b90600052602060002090601f0160209004810192826200033257600085556200037e565b82601f106200034d57805160ff19168380011785556200037e565b828001600101855582156200037e579182015b828111156200037d57825182559160200191906001019062000360565b5b5090506200038d9190620004ef565b5090565b8280548282559060005260206000209081019282156200040d579160200282015b828111156200040c5782518260006101000a81548173ffffffffffffffffffffffffffffffffffffffff021916908373ffffffffffffffffffffffffffffffffffffffff16021790555091602001919060010190620003b2565b5b5090506200041c9190620004ef565b5090565b82805482825590600052602060002090600101600290048101928215620004dc5791602002820160005b83821115620004a057835183826101000a8154816bffffffffffffffffffffffff02191690836bffffffffffffffffffffffff1602179055509260200192600c01602081600b010492830192600103026200044a565b8015620004da5782816101000a8154906bffffffffffffffffffffffff0219169055600c01602081600b01049283019260010302620004a0565b505b509050620004eb9190620004ef565b5090565b5b808211156200050a576000816000905550600101620004f0565b5090565b6000620005256200051f84620009c7565b6200099e565b905080838252602082019050828560208602820111156200054b576200054a62000cdc565b5b60005b858110156200057f57816200056488826200064f565b8452602084019350602083019250506001810190506200054e565b5050509392505050565b6000620005a06200059a84620009f6565b6200099e565b90508083825260208201905082856020860282011115620005c657620005c562000cdc565b5b60005b85811015620005fa5781620005df888262000716565b845260208401935060208301925050600181019050620005c9565b5050509392505050565b60006200061b620006158462000a25565b6200099e565b9050828152602081018484840111156200063a576200063962000ce1565b5b6200064784828562000b2b565b509392505050565b600081519050620006608162000e40565b92915050565b600082601f8301126200067e576200067d62000cd7565b5b8151620006908482602086016200050e565b91505092915050565b600082601f830112620006b157620006b062000cd7565b5b8151620006c384826020860162000589565b91505092915050565b600081519050620006dd8162000e5a565b92915050565b600082601f830112620006fb57620006fa62000cd7565b5b81516200070d84826020860162000604565b91505092915050565b600081519050620007278162000e74565b92915050565b600080600080600060a086880312156200074c576200074b62000ceb565b5b600086015167ffffffffffffffff8111156200076d576200076c62000ce6565b5b6200077b88828901620006e3565b955050602086015167ffffffffffffffff8111156200079f576200079e62000ce6565b5b620007ad88828901620006e3565b9450506040620007c088828901620006cc565b935050606086015167ffffffffffffffff811115620007e457620007e362000ce6565b5b620007f28882890162000666565b925050608086015167ffffffffffffffff81111562000816576200081562000ce6565b5b620008248882890162000699565b9150509295509295909350565b60006200084060228362000a5b565b91506200084d8262000d01565b604082019050919050565b600062000867601b8362000a5b565b9150620008748262000d50565b602082019050919050565b60006200088e60208362000a5b565b91506200089b8262000d79565b602082019050919050565b6000620008b5602c8362000a5b565b9150620008c28262000da2565b604082019050919050565b6000620008dc602a8362000a5b565b9150620008e98262000df1565b604082019050919050565b600060208201905081810360008301526200090f8162000831565b9050919050565b60006020820190508181036000830152620009318162000858565b9050919050565b6000602082019050818103600083015262000953816200087f565b9050919050565b600060208201905081810360008301526200097581620008a6565b9050919050565b600060208201905081810360008301526200099781620008cd565b9050919050565b6000620009aa620009bd565b9050620009b8828262000b97565b919050565b6000604051905090565b600067ffffffffffffffff821115620009e557620009e462000ca8565b5b602082029050602081019050919050565b600067ffffffffffffffff82111562000a145762000a1362000ca8565b5b602082029050602081019050919050565b600067ffffffffffffffff82111562000a435762000a4262000ca8565b5b62000a4e8262000cf0565b9050602081019050919050565b600082825260208201905092915050565b600062000a798262000b09565b915062000a868362000b09565b9250827fffffffffffffffffffffffffffffffffffffffffffffffffffffffffffffffff0382111562000abe5762000abd62000c1b565b5b828201905092915050565b600062000ad68262000ae9565b9050919050565b60008115159050919050565b600073ffffffffffffffffffffffffffffffffffffffff82169050919050565b6000819050919050565b60006bffffffffffffffffffffffff82169050919050565b60005b8381101562000b4b57808201518184015260208101905062000b2e565b8381111562000b5b576000848401525b50505050565b6000600282049050600182168062000b7a57607f821691505b6020821081141562000b915762000b9062000c4a565b5b50919050565b62000ba28262000cf0565b810181811067ffffffffffffffff8211171562000bc45762000bc362000ca8565b5b80604052505050565b600062000bda8262000b09565b91507fffffffffffffffffffffffffffffffffffffffffffffffffffffffffffffffff82141562000c105762000c0f62000c1b565b5b600182019050919050565b7f4e487b7100000000000000000000000000000000000000000000000000000000600052601160045260246000fd5b7f4e487b7100000000000000000000000000000000000000000000000000000000600052602260045260246000fd5b7f4e487b7100000000000000000000000000000000000000000000000000000000600052603260045260246000fd5b7f4e487b7100000000000000000000000000000000000000000000000000000000600052604160045260246000fd5b600080fd5b600080fd5b600080fd5b600080fd5b600080fd5b6000601f19601f8301169050919050565b7f546f6f206d616e7920726f79616c74792072656369657665727320646574616960008201527f6c73000000000000000000000000000000000000000000000000000000000000602082015250565b7f4e6f20526f79616c74792064657461696c732070726f76696465640000000000600082015250565b7f4552433732313a2043686f6f73652061206e616d6520616e642073796d626f6c600082015250565b7f4d69736d61746368206f6620526f79616c74792072656369657665727320616e60008201527f6420746865697220666565730000000000000000000000000000000000000000602082015250565b7f455243323938313a20726f79616c7479206665652077696c6c2065786365656460008201527f2073616c65507269636500000000000000000000000000000000000000000000602082015250565b62000e4b8162000ac9565b811462000e5757600080fd5b50565b62000e658162000add565b811462000e7157600080fd5b50565b62000e7f8162000b13565b811462000e8b57600080fd5b50565b6133d48062000e9e6000396000f3fe608060405234801561001057600080fd5b50600436106100f55760003560e01c80636352211e11610097578063b88d4fde11610066578063b88d4fde14610297578063c87b56dd146102b3578063deb94f9e146102e3578063e985e9c5146102ff576100f5565b80636352211e146101fd57806370a082311461022d57806395d89b411461025d578063a22cb4651461027b576100f5565b8063095ea7b3116100d3578063095ea7b31461017857806323b872dd146101945780632a55205a146101b057806342842e0e146101e1576100f5565b806301ffc9a7146100fa57806306fdde031461012a578063081812fc14610148575b600080fd5b610114600480360381019061010f9190612268565b61032f565b60405161012191906127d8565b60405180910390f35b610132610341565b60405161013f91906127f3565b60405180910390f35b610162600480360381019061015d91906122c2565b6103d3565b60405161016f919061273a565b60405180910390f35b610192600480360381019061018d9190612175565b610419565b005b6101ae60048036038101906101a9919061205f565b610531565b005b6101ca60048036038101906101c591906122ef565b610591565b6040516101d89291906127a1565b60405180910390f35b6101fb60048036038101906101f6919061205f565b610918565b005b610217600480360381019061021291906122c2565b610938565b604051610224919061273a565b60405180910390f35b61024760048036038101906102429190611ff2565b6109ea565b60405161025491906129f5565b60405180910390f35b610265610aa2565b60405161027291906127f3565b60405180910390f35b61029560048036038101906102909190612135565b610b34565b005b6102b160048036038101906102ac91906120b2565b610b4a565b005b6102cd60048036038101906102c891906122c2565b610bac565b6040516102da91906127f3565b60405180910390f35b6102fd60048036038101906102f891906121b5565b610c14565b005b6103196004803603810190610314919061201f565b610c37565b60405161032691906127d8565b60405180910390f35b600061033a82610ccb565b9050919050565b60606000805461035090612d56565b80601f016020809104026020016040519081016040528092919081815260200182805461037c90612d56565b80156103c95780601f1061039e576101008083540402835291602001916103c9565b820191906000526020600020905b8154815290600101906020018083116103ac57829003601f168201915b5050505050905090565b60006103de82610d45565b6004600083815260200190815260200160002060009054906101000a900473ffffffffffffffffffffffffffffffffffffffff169050919050565b600061042482610938565b90508073ffffffffffffffffffffffffffffffffffffffff168373ffffffffffffffffffffffffffffffffffffffff161415610495576040517f08c379a000000000000000000000000000000000000000000000000000000000815260040161048c90612995565b60405180910390fd5b8073ffffffffffffffffffffffffffffffffffffffff166104b4610d90565b73ffffffffffffffffffffffffffffffffffffffff1614806104e357506104e2816104dd610d90565b610c37565b5b610522576040517f08c379a000000000000000000000000000000000000000000000000000000000815260040161051990612935565b60405180910390fd5b61052c8383610d98565b505050565b61054261053c610d90565b82610e51565b610581576040517f08c379a0000000000000000000000000000000000000000000000000000000008152600401610578906129d5565b60405180910390fd5b61058c838383610ee6565b505050565b6060806000600860008681526020019081526020016000206040518060400160405290816000820180548060200260200160405190810160405280929190818152602001828054801561063957602002820191906000526020600020905b8160009054906101000a900473ffffffffffffffffffffffffffffffffffffffff1673ffffffffffffffffffffffffffffffffffffffff16815260200190600101908083116105ef575b50505050508152602001600182018054806020026020016040519081016040528092919081815260200182805480156106cd57602002820191906000526020600020906000905b82829054906101000a90046bffffffffffffffffffffffff166bffffffffffffffffffffffff16815260200190600c0190602082600b010492830192600103820291508084116106805790505b5050505050815250509050600081600001515114156108185760066040518060400160405290816000820180548060200260200160405190810160405280929190818152602001828054801561077857602002820191906000526020600020905b8160009054906101000a900473ffffffffffffffffffffffffffffffffffffffff1673ffffffffffffffffffffffffffffffffffffffff168152602001906001019080831161072e575b505050505081526020016001820180548060200260200160405190810160405280929190818152602001828054801561080c57602002820191906000526020600020906000905b82829054906101000a90046bffffffffffffffffffffffff166bffffffffffffffffffffffff16815260200190600c0190602082600b010492830192600103820291508084116107bf5790505b50505050508152505090505b600081600001515167ffffffffffffffff81111561083957610838612eef565b5b6040519080825280602002602001820160405280156108675781602001602082028036833780820191505090505b50905060005b8260000151518110156109045761088261114d565b6bffffffffffffffffffffffff16836020015182815181106108a7576108a6612ec0565b5b60200260200101516bffffffffffffffffffffffff16876108c89190612bfa565b6108d29190612bc9565b8282815181106108e5576108e4612ec0565b5b60200260200101818152505080806108fc90612db9565b91505061086d565b508160000151819350935050509250929050565b61093383838360405180602001604052806000815250610b4a565b505050565b6000806002600084815260200190815260200160002060009054906101000a900473ffffffffffffffffffffffffffffffffffffffff169050600073ffffffffffffffffffffffffffffffffffffffff168173ffffffffffffffffffffffffffffffffffffffff1614156109e1576040517f08c379a00000000000000000000000000000000000000000000000000000000081526004016109d890612975565b60405180910390fd5b80915050919050565b60008073ffffffffffffffffffffffffffffffffffffffff168273ffffffffffffffffffffffffffffffffffffffff161415610a5b576040517f08c379a0000000000000000000000000000000000000000000000000000000008152600401610a52906128f5565b60405180910390fd5b600360008373ffffffffffffffffffffffffffffffffffffffff1673ffffffffffffffffffffffffffffffffffffffff168152602001908152602001600020549050919050565b606060018054610ab190612d56565b80601f0160208091040260200160405190810160405280929190818152602001828054610add90612d56565b8015610b2a5780601f10610aff57610100808354040283529160200191610b2a565b820191906000526020600020905b815481529060010190602001808311610b0d57829003601f168201915b5050505050905090565b610b46610b3f610d90565b8383611157565b5050565b610b5b610b55610d90565b83610e51565b610b9a576040517f08c379a0000000000000000000000000000000000000000000000000000000008152600401610b91906129d5565b60405180910390fd5b610ba6848484846112c4565b50505050565b6060610bb782610d45565b6000610bc1611320565b90506000815111610be15760405180602001604052806000815250610c0c565b80610beb84611337565b604051602001610bfc929190612716565b6040516020818303038152906040525b915050919050565b610c1e8585611498565b8215610c3057610c2f8483836114b6565b5b5050505050565b6000600560008473ffffffffffffffffffffffffffffffffffffffff1673ffffffffffffffffffffffffffffffffffffffff16815260200190815260200160002060008373ffffffffffffffffffffffffffffffffffffffff1673ffffffffffffffffffffffffffffffffffffffff16815260200190815260200160002060009054906101000a900460ff16905092915050565b60007f2a55205a000000000000000000000000000000000000000000000000000000007bffffffffffffffffffffffffffffffffffffffffffffffffffffffff1916827bffffffffffffffffffffffffffffffffffffffffffffffffffffffff19161480610d3e5750610d3d826116a8565b5b9050919050565b610d4e8161178a565b610d8d576040517f08c379a0000000000000000000000000000000000000000000000000000000008152600401610d8490612975565b60405180910390fd5b50565b600033905090565b816004600083815260200190815260200160002060006101000a81548173ffffffffffffffffffffffffffffffffffffffff021916908373ffffffffffffffffffffffffffffffffffffffff160217905550808273ffffffffffffffffffffffffffffffffffffffff16610e0b83610938565b73ffffffffffffffffffffffffffffffffffffffff167f8c5be1e5ebec7d5bd14f71427d1e84f3dd0314c0f7b2291e5b200ac8c7c3b92560405160405180910390a45050565b600080610e5d83610938565b90508073ffffffffffffffffffffffffffffffffffffffff168473ffffffffffffffffffffffffffffffffffffffff161480610e9f5750610e9e8185610c37565b5b80610edd57508373ffffffffffffffffffffffffffffffffffffffff16610ec5846103d3565b73ffffffffffffffffffffffffffffffffffffffff16145b91505092915050565b8273ffffffffffffffffffffffffffffffffffffffff16610f0682610938565b73ffffffffffffffffffffffffffffffffffffffff1614610f5c576040517f08c379a0000000000000000000000000000000000000000000000000000000008152600401610f5390612875565b60405180910390fd5b600073ffffffffffffffffffffffffffffffffffffffff168273ffffffffffffffffffffffffffffffffffffffff161415610fcc576040517f08c379a0000000000000000000000000000000000000000000000000000000008152600401610fc3906128b5565b60405180910390fd5b610fd78383836117f6565b610fe2600082610d98565b6001600360008573ffffffffffffffffffffffffffffffffffffffff1673ffffffffffffffffffffffffffffffffffffffff16815260200190815260200160002060008282546110329190612c54565b925050819055506001600360008473ffffffffffffffffffffffffffffffffffffffff1673ffffffffffffffffffffffffffffffffffffffff16815260200190815260200160002060008282546110899190612b73565b92505081905550816002600083815260200190815260200160002060006101000a81548173ffffffffffffffffffffffffffffffffffffffff021916908373ffffffffffffffffffffffffffffffffffffffff160217905550808273ffffffffffffffffffffffffffffffffffffffff168473ffffffffffffffffffffffffffffffffffffffff167fddf252ad1be2c89b69c2b068fc378daa952ba7f163c4a11628f55a4df523b3ef60405160405180910390a46111488383836117fb565b505050565b6000612710905090565b8173ffffffffffffffffffffffffffffffffffffffff168373ffffffffffffffffffffffffffffffffffffffff1614156111c6576040517f08c379a00000000000000000000000000000000000000000000000000000000081526004016111bd906128d5565b60405180910390fd5b80600560008573ffffffffffffffffffffffffffffffffffffffff1673ffffffffffffffffffffffffffffffffffffffff16815260200190815260200160002060008473ffffffffffffffffffffffffffffffffffffffff1673ffffffffffffffffffffffffffffffffffffffff16815260200190815260200160002060006101000a81548160ff0219169083151502179055508173ffffffffffffffffffffffffffffffffffffffff168373ffffffffffffffffffffffffffffffffffffffff167f17307eab39ab6107e8899845ad3d59bd9653f200f220920489ca2b5937696c31836040516112b791906127d8565b60405180910390a3505050565b6112cf848484610ee6565b6112db84848484611800565b61131a576040517f08c379a000000000000000000000000000000000000000000000000000000000815260040161131190612855565b60405180910390fd5b50505050565b606060405180602001604052806000815250905090565b6060600082141561137f576040518060400160405280600181526020017f30000000000000000000000000000000000000000000000000000000000000008152509050611493565b600082905060005b600082146113b157808061139a90612db9565b915050600a826113aa9190612bc9565b9150611387565b60008167ffffffffffffffff8111156113cd576113cc612eef565b5b6040519080825280601f01601f1916602001820160405280156113ff5781602001600182028036833780820191505090505b5090505b6000851461148c576001826114189190612c54565b9150600a856114279190612e02565b60306114339190612b73565b60f81b81838151811061144957611448612ec0565b5b60200101907effffffffffffffffffffffffffffffffffffffffffffffffffffffffffffff1916908160001a905350600a856114859190612bc9565b9450611403565b8093505050505b919050565b6114b2828260405180602001604052806000815250611997565b5050565b60008251116114fa576040517f08c379a00000000000000000000000000000000000000000000000000000000081526004016114f190612835565b60405180910390fd5b60058251111561153f576040517f08c379a000000000000000000000000000000000000000000000000000000000815260040161153690612815565b60405180910390fd5b8051825114611583576040517f08c379a000000000000000000000000000000000000000000000000000000000815260040161157a90612915565b60405180910390fd5b6000805b82518110156115d9578281815181106115a3576115a2612ec0565b5b60200260200101516bffffffffffffffffffffffff16826115c49190612b73565b915080806115d190612db9565b915050611587565b506115e261114d565b6bffffffffffffffffffffffff16811115611632576040517f08c379a0000000000000000000000000000000000000000000000000000000008152600401611629906129b5565b60405180910390fd5b60608084905083915060405180604001604052808281526020018381525060086000888152602001908152602001600020600082015181600001908051906020019061167f929190611c59565b50602082015181600101908051906020019061169c929190611ce3565b50905050505050505050565b60007f80ac58cd000000000000000000000000000000000000000000000000000000007bffffffffffffffffffffffffffffffffffffffffffffffffffffffff1916827bffffffffffffffffffffffffffffffffffffffffffffffffffffffff1916148061177357507f5b5e139f000000000000000000000000000000000000000000000000000000007bffffffffffffffffffffffffffffffffffffffffffffffffffffffff1916827bffffffffffffffffffffffffffffffffffffffffffffffffffffffff1916145b806117835750611782826119f2565b5b9050919050565b60008073ffffffffffffffffffffffffffffffffffffffff166002600084815260200190815260200160002060009054906101000a900473ffffffffffffffffffffffffffffffffffffffff1673ffffffffffffffffffffffffffffffffffffffff1614159050919050565b505050565b505050565b60006118218473ffffffffffffffffffffffffffffffffffffffff16611a5c565b1561198a578373ffffffffffffffffffffffffffffffffffffffff1663150b7a0261184a610d90565b8786866040518563ffffffff1660e01b815260040161186c9493929190612755565b602060405180830381600087803b15801561188657600080fd5b505af19250505080156118b757506040513d601f19601f820116820180604052508101906118b49190612295565b60015b61193a573d80600081146118e7576040519150601f19603f3d011682016040523d82523d6000602084013e6118ec565b606091505b50600081511415611932576040517f08c379a000000000000000000000000000000000000000000000000000000000815260040161192990612855565b60405180910390fd5b805181602001fd5b63150b7a0260e01b7bffffffffffffffffffffffffffffffffffffffffffffffffffffffff1916817bffffffffffffffffffffffffffffffffffffffffffffffffffffffff19161491505061198f565b600190505b949350505050565b6119a18383611a7f565b6119ae6000848484611800565b6119ed576040517f08c379a00000000000000000000000000000000000000000000000000000000081526004016119e490612855565b60405180910390fd5b505050565b60007f01ffc9a7000000000000000000000000000000000000000000000000000000007bffffffffffffffffffffffffffffffffffffffffffffffffffffffff1916827bffffffffffffffffffffffffffffffffffffffffffffffffffffffff1916149050919050565b6000808273ffffffffffffffffffffffffffffffffffffffff163b119050919050565b600073ffffffffffffffffffffffffffffffffffffffff168273ffffffffffffffffffffffffffffffffffffffff161415611aef576040517f08c379a0000000000000000000000000000000000000000000000000000000008152600401611ae690612955565b60405180910390fd5b611af88161178a565b15611b38576040517f08c379a0000000000000000000000000000000000000000000000000000000008152600401611b2f90612895565b60405180910390fd5b611b44600083836117f6565b6001600360008473ffffffffffffffffffffffffffffffffffffffff1673ffffffffffffffffffffffffffffffffffffffff1681526020019081526020016000206000828254611b949190612b73565b92505081905550816002600083815260200190815260200160002060006101000a81548173ffffffffffffffffffffffffffffffffffffffff021916908373ffffffffffffffffffffffffffffffffffffffff160217905550808273ffffffffffffffffffffffffffffffffffffffff16600073ffffffffffffffffffffffffffffffffffffffff167fddf252ad1be2c89b69c2b068fc378daa952ba7f163c4a11628f55a4df523b3ef60405160405180910390a4611c55600083836117fb565b5050565b828054828255906000526020600020908101928215611cd2579160200282015b82811115611cd15782518260006101000a81548173ffffffffffffffffffffffffffffffffffffffff021916908373ffffffffffffffffffffffffffffffffffffffff16021790555091602001919060010190611c79565b5b509050611cdf9190611dab565b5090565b82805482825590600052602060002090600101600290048101928215611d9a5791602002820160005b83821115611d6057835183826101000a8154816bffffffffffffffffffffffff02191690836bffffffffffffffffffffffff1602179055509260200192600c01602081600b01049283019260010302611d0c565b8015611d985782816101000a8154906bffffffffffffffffffffffff0219169055600c01602081600b01049283019260010302611d60565b505b509050611da79190611dab565b5090565b5b80821115611dc4576000816000905550600101611dac565b5090565b6000611ddb611dd684612a35565b612a10565b90508083825260208201905082856020860282011115611dfe57611dfd612f23565b5b60005b85811015611e2e5781611e148882611eea565b845260208401935060208301925050600181019050611e01565b5050509392505050565b6000611e4b611e4684612a61565b612a10565b90508083825260208201905082856020860282011115611e6e57611e6d612f23565b5b60005b85811015611e9e5781611e848882611fdd565b845260208401935060208301925050600181019050611e71565b5050509392505050565b6000611ebb611eb684612a8d565b612a10565b905082815260208101848484011115611ed757611ed6612f28565b5b611ee2848285612d14565b509392505050565b600081359050611ef98161332b565b92915050565b600082601f830112611f1457611f13612f1e565b5b8135611f24848260208601611dc8565b91505092915050565b600082601f830112611f4257611f41612f1e565b5b8135611f52848260208601611e38565b91505092915050565b600081359050611f6a81613342565b92915050565b600081359050611f7f81613359565b92915050565b600081519050611f9481613359565b92915050565b600082601f830112611faf57611fae612f1e565b5b8135611fbf848260208601611ea8565b91505092915050565b600081359050611fd781613370565b92915050565b600081359050611fec81613387565b92915050565b60006020828403121561200857612007612f32565b5b600061201684828501611eea565b91505092915050565b6000806040838503121561203657612035612f32565b5b600061204485828601611eea565b925050602061205585828601611eea565b9150509250929050565b60008060006060848603121561207857612077612f32565b5b600061208686828701611eea565b935050602061209786828701611eea565b92505060406120a886828701611fc8565b9150509250925092565b600080600080608085870312156120cc576120cb612f32565b5b60006120da87828801611eea565b94505060206120eb87828801611eea565b93505060406120fc87828801611fc8565b925050606085013567ffffffffffffffff81111561211d5761211c612f2d565b5b61212987828801611f9a565b91505092959194509250565b6000806040838503121561214c5761214b612f32565b5b600061215a85828601611eea565b925050602061216b85828601611f5b565b9150509250929050565b6000806040838503121561218c5761218b612f32565b5b600061219a85828601611eea565b92505060206121ab85828601611fc8565b9150509250929050565b600080600080600060a086880312156121d1576121d0612f32565b5b60006121df88828901611eea565b95505060206121f088828901611fc8565b945050604061220188828901611f5b565b935050606086013567ffffffffffffffff81111561222257612221612f2d565b5b61222e88828901611eff565b925050608086013567ffffffffffffffff81111561224f5761224e612f2d565b5b61225b88828901611f2d565b9150509295509295909350565b60006020828403121561227e5761227d612f32565b5b600061228c84828501611f70565b91505092915050565b6000602082840312156122ab576122aa612f32565b5b60006122b984828501611f85565b91505092915050565b6000602082840312156122d8576122d7612f32565b5b60006122e684828501611fc8565b91505092915050565b6000806040838503121561230657612305612f32565b5b600061231485828601611fc8565b925050602061232585828601611fc8565b9150509250929050565b600061233b838361235f565b60208301905092915050565b600061235383836126f8565b60208301905092915050565b61236881612c88565b82525050565b61237781612c88565b82525050565b600061238882612ade565b6123928185612b24565b935061239d83612abe565b8060005b838110156123ce5781516123b5888261232f565b97506123c083612b0a565b9250506001810190506123a1565b5085935050505092915050565b60006123e682612ae9565b6123f08185612b35565b93506123fb83612ace565b8060005b8381101561242c5781516124138882612347565b975061241e83612b17565b9250506001810190506123ff565b5085935050505092915050565b61244281612c9a565b82525050565b600061245382612af4565b61245d8185612b46565b935061246d818560208601612d23565b61247681612f37565b840191505092915050565b600061248c82612aff565b6124968185612b57565b93506124a6818560208601612d23565b6124af81612f37565b840191505092915050565b60006124c582612aff565b6124cf8185612b68565b93506124df818560208601612d23565b80840191505092915050565b60006124f8602283612b57565b915061250382612f48565b604082019050919050565b600061251b601b83612b57565b915061252682612f97565b602082019050919050565b600061253e603283612b57565b915061254982612fc0565b604082019050919050565b6000612561602583612b57565b915061256c8261300f565b604082019050919050565b6000612584601c83612b57565b915061258f8261305e565b602082019050919050565b60006125a7602483612b57565b91506125b282613087565b604082019050919050565b60006125ca601983612b57565b91506125d5826130d6565b602082019050919050565b60006125ed602983612b57565b91506125f8826130ff565b604082019050919050565b6000612610602c83612b57565b915061261b8261314e565b604082019050919050565b6000612633603e83612b57565b915061263e8261319d565b604082019050919050565b6000612656602083612b57565b9150612661826131ec565b602082019050919050565b6000612679601883612b57565b915061268482613215565b602082019050919050565b600061269c602183612b57565b91506126a78261323e565b604082019050919050565b60006126bf602a83612b57565b91506126ca8261328d565b604082019050919050565b60006126e2602e83612b57565b91506126ed826132dc565b604082019050919050565b61270181612cf2565b82525050565b61271081612cf2565b82525050565b600061272282856124ba565b915061272e82846124ba565b91508190509392505050565b600060208201905061274f600083018461236e565b92915050565b600060808201905061276a600083018761236e565b612777602083018661236e565b6127846040830185612707565b81810360608301526127968184612448565b905095945050505050565b600060408201905081810360008301526127bb818561237d565b905081810360208301526127cf81846123db565b90509392505050565b60006020820190506127ed6000830184612439565b92915050565b6000602082019050818103600083015261280d8184612481565b905092915050565b6000602082019050818103600083015261282e816124eb565b9050919050565b6000602082019050818103600083015261284e8161250e565b9050919050565b6000602082019050818103600083015261286e81612531565b9050919050565b6000602082019050818103600083015261288e81612554565b9050919050565b600060208201905081810360008301526128ae81612577565b9050919050565b600060208201905081810360008301526128ce8161259a565b9050919050565b600060208201905081810360008301526128ee816125bd565b9050919050565b6000602082019050818103600083015261290e816125e0565b9050919050565b6000602082019050818103600083015261292e81612603565b9050919050565b6000602082019050818103600083015261294e81612626565b9050919050565b6000602082019050818103600083015261296e81612649565b9050919050565b6000602082019050818103600083015261298e8161266c565b9050919050565b600060208201905081810360008301526129ae8161268f565b9050919050565b600060208201905081810360008301526129ce816126b2565b9050919050565b600060208201905081810360008301526129ee816126d5565b9050919050565b6000602082019050612a0a6000830184612707565b92915050565b6000612a1a612a2b565b9050612a268282612d88565b919050565b6000604051905090565b600067ffffffffffffffff821115612a5057612a4f612eef565b5b602082029050602081019050919050565b600067ffffffffffffffff821115612a7c57612a7b612eef565b5b602082029050602081019050919050565b600067ffffffffffffffff821115612aa857612aa7612eef565b5b612ab182612f37565b9050602081019050919050565b6000819050602082019050919050565b6000819050602082019050919050565b600081519050919050565b600081519050919050565b600081519050919050565b600081519050919050565b6000602082019050919050565b6000602082019050919050565b600082825260208201905092915050565b600082825260208201905092915050565b600082825260208201905092915050565b600082825260208201905092915050565b600081905092915050565b6000612b7e82612cf2565b9150612b8983612cf2565b9250827fffffffffffffffffffffffffffffffffffffffffffffffffffffffffffffffff03821115612bbe57612bbd612e33565b5b828201905092915050565b6000612bd482612cf2565b9150612bdf83612cf2565b925082612bef57612bee612e62565b5b828204905092915050565b6000612c0582612cf2565b9150612c1083612cf2565b9250817fffffffffffffffffffffffffffffffffffffffffffffffffffffffffffffffff0483118215151615612c4957612c48612e33565b5b828202905092915050565b6000612c5f82612cf2565b9150612c6a83612cf2565b925082821015612c7d57612c7c612e33565b5b828203905092915050565b6000612c9382612cd2565b9050919050565b60008115159050919050565b60007fffffffff0000000000000000000000000000000000000000000000000000000082169050919050565b600073ffffffffffffffffffffffffffffffffffffffff82169050919050565b6000819050919050565b60006bffffffffffffffffffffffff82169050919050565b82818337600083830152505050565b60005b83811015612d41578082015181840152602081019050612d26565b83811115612d50576000848401525b50505050565b60006002820490506001821680612d6e57607f821691505b60208210811415612d8257612d81612e91565b5b50919050565b612d9182612f37565b810181811067ffffffffffffffff82111715612db057612daf612eef565b5b80604052505050565b6000612dc482612cf2565b91507fffffffffffffffffffffffffffffffffffffffffffffffffffffffffffffffff821415612df757612df6612e33565b5b600182019050919050565b6000612e0d82612cf2565b9150612e1883612cf2565b925082612e2857612e27612e62565b5b828206905092915050565b7f4e487b7100000000000000000000000000000000000000000000000000000000600052601160045260246000fd5b7f4e487b7100000000000000000000000000000000000000000000000000000000600052601260045260246000fd5b7f4e487b7100000000000000000000000000000000000000000000000000000000600052602260045260246000fd5b7f4e487b7100000000000000000000000000000000000000000000000000000000600052603260045260246000fd5b7f4e487b7100000000000000000000000000000000000000000000000000000000600052604160045260246000fd5b600080fd5b600080fd5b600080fd5b600080fd5b600080fd5b6000601f19601f8301169050919050565b7f546f6f206d616e7920726f79616c74792072656369657665727320646574616960008201527f6c73000000000000000000000000000000000000000000000000000000000000602082015250565b7f4e6f20526f79616c74792064657461696c732070726f76696465640000000000600082015250565b7f4552433732313a207472616e7366657220746f206e6f6e20455243373231526560008201527f63656976657220696d706c656d656e7465720000000000000000000000000000602082015250565b7f4552433732313a207472616e736665722066726f6d20696e636f72726563742060008201527f6f776e6572000000000000000000000000000000000000000000000000000000602082015250565b7f4552433732313a20746f6b656e20616c7265616479206d696e74656400000000600082015250565b7f4552433732313a207472616e7366657220746f20746865207a65726f2061646460008201527f7265737300000000000000000000000000000000000000000000000000000000602082015250565b7f4552433732313a20617070726f766520746f2063616c6c657200000000000000600082015250565b7f4552433732313a2061646472657373207a65726f206973206e6f74206120766160008201527f6c6964206f776e65720000000000000000000000000000000000000000000000602082015250565b7f4d69736d61746368206f6620526f79616c74792072656369657665727320616e60008201527f6420746865697220666565730000000000000000000000000000000000000000602082015250565b7f4552433732313a20617070726f76652063616c6c6572206973206e6f7420746f60008201527f6b656e206f776e6572206e6f7220617070726f76656420666f7220616c6c0000602082015250565b7f4552433732313a206d696e7420746f20746865207a65726f2061646472657373600082015250565b7f4552433732313a20696e76616c696420746f6b656e2049440000000000000000600082015250565b7f4552433732313a20617070726f76616c20746f2063757272656e74206f776e6560008201527f7200000000000000000000000000000000000000000000000000000000000000602082015250565b7f455243323938313a20726f79616c7479206665652077696c6c2065786365656460008201527f2073616c65507269636500000000000000000000000000000000000000000000602082015250565b7f4552433732313a2063616c6c6572206973206e6f7420746f6b656e206f776e6560008201527f72206e6f7220617070726f766564000000000000000000000000000000000000602082015250565b61333481612c88565b811461333f57600080fd5b50565b61334b81612c9a565b811461335657600080fd5b50565b61336281612ca6565b811461336d57600080fd5b50565b61337981612cf2565b811461338457600080fd5b50565b61339081612cfc565b811461339b57600080fd5b5056fea26469706673582212207c1dc4d927528e5833a90ae49e5fa31b2801f9a48f91fe3f8659b547c81ad8df64736f6c63430008060033",
  "linkReferences": {},
  "deployedLinkReferences": {}
}