{
  "_format": "hh-sol-artifact-1",
  "contractName": "ERC721Mock",
  "sourceName": "contracts/Mocks/ERC721Mock.sol",
  "abi": [
    {
      "inputs": [
        {
          "internalType": "string",
          "name": "_name",
          "type": "string"
        },
        {
          "internalType": "string",
          "name": "_symbol",
          "type": "string"
        },
        {
          "internalType": "bool",
          "name": "defaultRoyalty",
          "type": "bool"
        },
        {
          "internalType": "address[]",
          "name": "royaltyReceiver",
          "type": "address[]"
        },
        {
          "internalType": "uint96[]",
          "name": "royaltyFeesInBips",
          "type": "uint96[]"
        }
      ],
      "stateMutability": "nonpayable",
      "type": "constructor"
    },
    {
      "anonymous": false,
      "inputs": [
        {
          "indexed": true,
          "internalType": "address",
          "name": "owner",
          "type": "address"
        },
        {
          "indexed": true,
          "internalType": "address",
          "name": "approved",
          "type": "address"
        },
        {
          "indexed": true,
          "internalType": "uint256",
          "name": "tokenId",
          "type": "uint256"
        }
      ],
      "name": "Approval",
      "type": "event"
    },
    {
      "anonymous": false,
      "inputs": [
        {
          "indexed": true,
          "internalType": "address",
          "name": "owner",
          "type": "address"
        },
        {
          "indexed": true,
          "internalType": "address",
          "name": "operator",
          "type": "address"
        },
        {
          "indexed": false,
          "internalType": "bool",
          "name": "approved",
          "type": "bool"
        }
      ],
      "name": "ApprovalForAll",
      "type": "event"
    },
    {
      "anonymous": false,
      "inputs": [
        {
          "indexed": true,
          "internalType": "address",
          "name": "from",
          "type": "address"
        },
        {
          "indexed": true,
          "internalType": "address",
          "name": "to",
          "type": "address"
        },
        {
          "indexed": true,
          "internalType": "uint256",
          "name": "tokenId",
          "type": "uint256"
        }
      ],
      "name": "Transfer",
      "type": "event"
    },
    {
      "inputs": [
        {
          "internalType": "address",
          "name": "to",
          "type": "address"
        },
        {
          "internalType": "uint256",
          "name": "tokenId",
          "type": "uint256"
        }
      ],
      "name": "approve",
      "outputs": [],
      "stateMutability": "nonpayable",
      "type": "function"
    },
    {
      "inputs": [
        {
          "internalType": "address",
          "name": "owner",
          "type": "address"
        }
      ],
      "name": "balanceOf",
      "outputs": [
        {
          "internalType": "uint256",
          "name": "",
          "type": "uint256"
        }
      ],
      "stateMutability": "view",
      "type": "function"
    },
    {
      "inputs": [
        {
          "internalType": "uint256",
          "name": "tokenId",
          "type": "uint256"
        }
      ],
      "name": "getApproved",
      "outputs": [
        {
          "internalType": "address",
          "name": "",
          "type": "address"
        }
      ],
      "stateMutability": "view",
      "type": "function"
    },
    {
      "inputs": [
        {
          "internalType": "address",
          "name": "owner",
          "type": "address"
        },
        {
          "internalType": "address",
          "name": "operator",
          "type": "address"
        }
      ],
      "name": "isApprovedForAll",
      "outputs": [
        {
          "internalType": "bool",
          "name": "",
          "type": "bool"
        }
      ],
      "stateMutability": "view",
      "type": "function"
    },
    {
      "inputs": [],
      "name": "name",
      "outputs": [
        {
          "internalType": "string",
          "name": "",
          "type": "string"
        }
      ],
      "stateMutability": "view",
      "type": "function"
    },
    {
      "inputs": [
        {
          "internalType": "uint256",
          "name": "tokenId",
          "type": "uint256"
        }
      ],
      "name": "ownerOf",
      "outputs": [
        {
          "internalType": "address",
          "name": "",
          "type": "address"
        }
      ],
      "stateMutability": "view",
      "type": "function"
    },
    {
      "inputs": [
        {
          "internalType": "address",
          "name": "creator",
          "type": "address"
        },
        {
          "internalType": "uint256",
          "name": "tokenId",
          "type": "uint256"
        },
        {
          "internalType": "bool",
          "name": "tokenRoyalty",
          "type": "bool"
        },
        {
          "internalType": "address[]",
          "name": "royaltyReceiver",
          "type": "address[]"
        },
        {
          "internalType": "uint96[]",
          "name": "tokenRoyaltyInBips",
          "type": "uint96[]"
        }
      ],
      "name": "safeMint",
      "outputs": [],
      "stateMutability": "nonpayable",
      "type": "function"
    },
    {
      "inputs": [
        {
          "internalType": "address",
          "name": "from",
          "type": "address"
        },
        {
          "internalType": "address",
          "name": "to",
          "type": "address"
        },
        {
          "internalType": "uint256",
          "name": "tokenId",
          "type": "uint256"
        }
      ],
      "name": "safeTransferFrom",
      "outputs": [],
      "stateMutability": "nonpayable",
      "type": "function"
    },
    {
      "inputs": [
        {
          "internalType": "address",
          "name": "from",
          "type": "address"
        },
        {
          "internalType": "address",
          "name": "to",
          "type": "address"
        },
        {
          "internalType": "uint256",
          "name": "tokenId",
          "type": "uint256"
        },
        {
          "internalType": "bytes",
          "name": "data",
          "type": "bytes"
        }
      ],
      "name": "safeTransferFrom",
      "outputs": [],
      "stateMutability": "nonpayable",
      "type": "function"
    },
    {
      "inputs": [
        {
          "internalType": "address",
          "name": "operator",
          "type": "address"
        },
        {
          "internalType": "bool",
          "name": "approved",
          "type": "bool"
        }
      ],
      "name": "setApprovalForAll",
      "outputs": [],
      "stateMutability": "nonpayable",
      "type": "function"
    },
    {
      "inputs": [
        {
          "internalType": "bytes4",
          "name": "interfaceId",
          "type": "bytes4"
        }
      ],
      "name": "supportsInterface",
      "outputs": [
        {
          "internalType": "bool",
          "name": "",
          "type": "bool"
        }
      ],
      "stateMutability": "view",
      "type": "function"
    },
    {
      "inputs": [],
      "name": "symbol",
      "outputs": [
        {
          "internalType": "string",
          "name": "",
          "type": "string"
        }
      ],
      "stateMutability": "view",
      "type": "function"
    },
    {
      "inputs": [
        {
          "internalType": "uint256",
          "name": "tokenId",
          "type": "uint256"
        }
      ],
      "name": "tokenURI",
      "outputs": [
        {
          "internalType": "string",
          "name": "",
          "type": "string"
        }
      ],
      "stateMutability": "view",
      "type": "function"
    },
    {
      "inputs": [
        {
          "internalType": "address",
          "name": "from",
          "type": "address"
        },
        {
          "internalType": "address",
          "name": "to",
          "type": "address"
        },
        {
          "internalType": "uint256",
          "name": "tokenId",
          "type": "uint256"
        }
      ],
      "name": "transferFrom",
      "outputs": [],
      "stateMutability": "nonpayable",
      "type": "function"
    }
  ],
  "bytecode": "0x60806040523480156200001157600080fd5b5060405162002f5d38038062002f5d8339818101604052810190620000379190620005c4565b8484816000908051906020019062000051929190620000db565b5080600190805190602001906200006a929190620000db565b5050506000859050600085905060008251141580156200008c57506000815114155b620000ce576040517f08c379a0000000000000000000000000000000000000000000000000000000008152600401620000c59062000729565b60405180910390fd5b50505050505050620007b0565b828054620000e9906200077a565b90600052602060002090601f0160209004810192826200010d576000855562000159565b82601f106200012857805160ff191683800117855562000159565b8280016001018555821562000159579182015b82811115620001585782518255916020019190600101906200013b565b5b5090506200016891906200016c565b5090565b5b80821115620001875760008160009055506001016200016d565b5090565b6000604051905090565b600080fd5b600080fd5b600080fd5b600080fd5b6000601f19601f8301169050919050565b7f4e487b7100000000000000000000000000000000000000000000000000000000600052604160045260246000fd5b620001f482620001a9565b810181811067ffffffffffffffff82111715620002165762000215620001ba565b5b80604052505050565b60006200022b6200018b565b9050620002398282620001e9565b919050565b600067ffffffffffffffff8211156200025c576200025b620001ba565b5b6200026782620001a9565b9050602081019050919050565b60005b838110156200029457808201518184015260208101905062000277565b83811115620002a4576000848401525b50505050565b6000620002c1620002bb846200023e565b6200021f565b905082815260208101848484011115620002e057620002df620001a4565b5b620002ed84828562000274565b509392505050565b600082601f8301126200030d576200030c6200019f565b5b81516200031f848260208601620002aa565b91505092915050565b60008115159050919050565b6200033f8162000328565b81146200034b57600080fd5b50565b6000815190506200035f8162000334565b92915050565b600067ffffffffffffffff821115620003835762000382620001ba565b5b602082029050602081019050919050565b600080fd5b600073ffffffffffffffffffffffffffffffffffffffff82169050919050565b6000620003c68262000399565b9050919050565b620003d881620003b9565b8114620003e457600080fd5b50565b600081519050620003f881620003cd565b92915050565b6000620004156200040f8462000365565b6200021f565b905080838252602082019050602084028301858111156200043b576200043a62000394565b5b835b81811015620004685780620004538882620003e7565b8452602084019350506020810190506200043d565b5050509392505050565b600082601f8301126200048a57620004896200019f565b5b81516200049c848260208601620003fe565b91505092915050565b600067ffffffffffffffff821115620004c357620004c2620001ba565b5b602082029050602081019050919050565b60006bffffffffffffffffffffffff82169050919050565b620004f781620004d4565b81146200050357600080fd5b50565b6000815190506200051781620004ec565b92915050565b6000620005346200052e84620004a5565b6200021f565b905080838252602082019050602084028301858111156200055a576200055962000394565b5b835b8181101562000587578062000572888262000506565b8452602084019350506020810190506200055c565b5050509392505050565b600082601f830112620005a957620005a86200019f565b5b8151620005bb8482602086016200051d565b91505092915050565b600080600080600060a08688031215620005e357620005e262000195565b5b600086015167ffffffffffffffff8111156200060457620006036200019a565b5b6200061288828901620002f5565b955050602086015167ffffffffffffffff8111156200063657620006356200019a565b5b6200064488828901620002f5565b945050604062000657888289016200034e565b935050606086015167ffffffffffffffff8111156200067b576200067a6200019a565b5b620006898882890162000472565b925050608086015167ffffffffffffffff811115620006ad57620006ac6200019a565b5b620006bb8882890162000591565b9150509295509295909350565b600082825260208201905092915050565b7f4552433732313a2043686f6f73652061206e616d6520616e642073796d626f6c600082015250565b600062000711602083620006c8565b91506200071e82620006d9565b602082019050919050565b60006020820190508181036000830152620007448162000702565b9050919050565b7f4e487b7100000000000000000000000000000000000000000000000000000000600052602260045260246000fd5b600060028204905060018216806200079357607f821691505b60208210811415620007aa57620007a96200074b565b5b50919050565b61279d80620007c06000396000f3fe608060405234801561001057600080fd5b50600436106100ea5760003560e01c806370a082311161008c578063b88d4fde11610066578063b88d4fde1461025b578063c87b56dd14610277578063deb94f9e146102a7578063e985e9c5146102c3576100ea565b806370a08231146101f157806395d89b4114610221578063a22cb4651461023f576100ea565b8063095ea7b3116100c8578063095ea7b31461016d57806323b872dd1461018957806342842e0e146101a55780636352211e146101c1576100ea565b806301ffc9a7146100ef57806306fdde031461011f578063081812fc1461013d575b600080fd5b6101096004803603810190610104919061167a565b6102f3565b60405161011691906116c2565b60405180910390f35b610127610305565b6040516101349190611776565b60405180910390f35b610157600480360381019061015291906117ce565b610397565b604051610164919061183c565b60405180910390f35b61018760048036038101906101829190611883565b6103dd565b005b6101a3600480360381019061019e91906118c3565b6104f5565b005b6101bf60048036038101906101ba91906118c3565b610555565b005b6101db60048036038101906101d691906117ce565b610575565b6040516101e8919061183c565b60405180910390f35b61020b60048036038101906102069190611916565b610627565b6040516102189190611952565b60405180910390f35b6102296106df565b6040516102369190611776565b60405180910390f35b61025960048036038101906102549190611999565b610771565b005b61027560048036038101906102709190611b0e565b610787565b005b610291600480360381019061028c91906117ce565b6107e9565b60405161029e9190611776565b60405180910390f35b6102c160048036038101906102bc9190611d60565b610851565b005b6102dd60048036038101906102d89190611e13565b610862565b6040516102ea91906116c2565b60405180910390f35b60006102fe826108f6565b9050919050565b60606000805461031490611e82565b80601f016020809104026020016040519081016040528092919081815260200182805461034090611e82565b801561038d5780601f106103625761010080835404028352916020019161038d565b820191906000526020600020905b81548152906001019060200180831161037057829003601f168201915b5050505050905090565b60006103a2826109d8565b6004600083815260200190815260200160002060009054906101000a900473ffffffffffffffffffffffffffffffffffffffff169050919050565b60006103e882610575565b90508073ffffffffffffffffffffffffffffffffffffffff168373ffffffffffffffffffffffffffffffffffffffff161415610459576040517f08c379a000000000000000000000000000000000000000000000000000000000815260040161045090611f26565b60405180910390fd5b8073ffffffffffffffffffffffffffffffffffffffff16610478610a23565b73ffffffffffffffffffffffffffffffffffffffff1614806104a757506104a6816104a1610a23565b610862565b5b6104e6576040517f08c379a00000000000000000000000000000000000000000000000000000000081526004016104dd90611fb8565b60405180910390fd5b6104f08383610a2b565b505050565b610506610500610a23565b82610ae4565b610545576040517f08c379a000000000000000000000000000000000000000000000000000000000815260040161053c9061204a565b60405180910390fd5b610550838383610b79565b505050565b61057083838360405180602001604052806000815250610787565b505050565b6000806002600084815260200190815260200160002060009054906101000a900473ffffffffffffffffffffffffffffffffffffffff169050600073ffffffffffffffffffffffffffffffffffffffff168173ffffffffffffffffffffffffffffffffffffffff16141561061e576040517f08c379a0000000000000000000000000000000000000000000000000000000008152600401610615906120b6565b60405180910390fd5b80915050919050565b60008073ffffffffffffffffffffffffffffffffffffffff168273ffffffffffffffffffffffffffffffffffffffff161415610698576040517f08c379a000000000000000000000000000000000000000000000000000000000815260040161068f90612148565b60405180910390fd5b600360008373ffffffffffffffffffffffffffffffffffffffff1673ffffffffffffffffffffffffffffffffffffffff168152602001908152602001600020549050919050565b6060600180546106ee90611e82565b80601f016020809104026020016040519081016040528092919081815260200182805461071a90611e82565b80156107675780601f1061073c57610100808354040283529160200191610767565b820191906000526020600020905b81548152906001019060200180831161074a57829003601f168201915b5050505050905090565b61078361077c610a23565b8383610de0565b5050565b610798610792610a23565b83610ae4565b6107d7576040517f08c379a00000000000000000000000000000000000000000000000000000000081526004016107ce9061204a565b60405180910390fd5b6107e384848484610f4d565b50505050565b60606107f4826109d8565b60006107fe610fa9565b9050600081511161081e5760405180602001604052806000815250610849565b8061082884610fc0565b6040516020016108399291906121a4565b6040516020818303038152906040525b915050919050565b61085b8585611121565b5050505050565b6000600560008473ffffffffffffffffffffffffffffffffffffffff1673ffffffffffffffffffffffffffffffffffffffff16815260200190815260200160002060008373ffffffffffffffffffffffffffffffffffffffff1673ffffffffffffffffffffffffffffffffffffffff16815260200190815260200160002060009054906101000a900460ff16905092915050565b60007f80ac58cd000000000000000000000000000000000000000000000000000000007bffffffffffffffffffffffffffffffffffffffffffffffffffffffff1916827bffffffffffffffffffffffffffffffffffffffffffffffffffffffff191614806109c157507f5b5e139f000000000000000000000000000000000000000000000000000000007bffffffffffffffffffffffffffffffffffffffffffffffffffffffff1916827bffffffffffffffffffffffffffffffffffffffffffffffffffffffff1916145b806109d157506109d08261113f565b5b9050919050565b6109e1816111a9565b610a20576040517f08c379a0000000000000000000000000000000000000000000000000000000008152600401610a17906120b6565b60405180910390fd5b50565b600033905090565b816004600083815260200190815260200160002060006101000a81548173ffffffffffffffffffffffffffffffffffffffff021916908373ffffffffffffffffffffffffffffffffffffffff160217905550808273ffffffffffffffffffffffffffffffffffffffff16610a9e83610575565b73ffffffffffffffffffffffffffffffffffffffff167f8c5be1e5ebec7d5bd14f71427d1e84f3dd0314c0f7b2291e5b200ac8c7c3b92560405160405180910390a45050565b600080610af083610575565b90508073ffffffffffffffffffffffffffffffffffffffff168473ffffffffffffffffffffffffffffffffffffffff161480610b325750610b318185610862565b5b80610b7057508373ffffffffffffffffffffffffffffffffffffffff16610b5884610397565b73ffffffffffffffffffffffffffffffffffffffff16145b91505092915050565b8273ffffffffffffffffffffffffffffffffffffffff16610b9982610575565b73ffffffffffffffffffffffffffffffffffffffff1614610bef576040517f08c379a0000000000000000000000000000000000000000000000000000000008152600401610be69061223a565b60405180910390fd5b600073ffffffffffffffffffffffffffffffffffffffff168273ffffffffffffffffffffffffffffffffffffffff161415610c5f576040517f08c379a0000000000000000000000000000000000000000000000000000000008152600401610c56906122cc565b60405180910390fd5b610c6a838383611215565b610c75600082610a2b565b6001600360008573ffffffffffffffffffffffffffffffffffffffff1673ffffffffffffffffffffffffffffffffffffffff1681526020019081526020016000206000828254610cc5919061231b565b925050819055506001600360008473ffffffffffffffffffffffffffffffffffffffff1673ffffffffffffffffffffffffffffffffffffffff1681526020019081526020016000206000828254610d1c919061234f565b92505081905550816002600083815260200190815260200160002060006101000a81548173ffffffffffffffffffffffffffffffffffffffff021916908373ffffffffffffffffffffffffffffffffffffffff160217905550808273ffffffffffffffffffffffffffffffffffffffff168473ffffffffffffffffffffffffffffffffffffffff167fddf252ad1be2c89b69c2b068fc378daa952ba7f163c4a11628f55a4df523b3ef60405160405180910390a4610ddb83838361121a565b505050565b8173ffffffffffffffffffffffffffffffffffffffff168373ffffffffffffffffffffffffffffffffffffffff161415610e4f576040517f08c379a0000000000000000000000000000000000000000000000000000000008152600401610e46906123f1565b60405180910390fd5b80600560008573ffffffffffffffffffffffffffffffffffffffff1673ffffffffffffffffffffffffffffffffffffffff16815260200190815260200160002060008473ffffffffffffffffffffffffffffffffffffffff1673ffffffffffffffffffffffffffffffffffffffff16815260200190815260200160002060006101000a81548160ff0219169083151502179055508173ffffffffffffffffffffffffffffffffffffffff168373ffffffffffffffffffffffffffffffffffffffff167f17307eab39ab6107e8899845ad3d59bd9653f200f220920489ca2b5937696c3183604051610f4091906116c2565b60405180910390a3505050565b610f58848484610b79565b610f648484848461121f565b610fa3576040517f08c379a0000000000000000000000000000000000000000000000000000000008152600401610f9a90612483565b60405180910390fd5b50505050565b606060405180602001604052806000815250905090565b60606000821415611008576040518060400160405280600181526020017f3000000000000000000000000000000000000000000000000000000000000000815250905061111c565b600082905060005b6000821461103a578080611023906124a3565b915050600a82611033919061251b565b9150611010565b60008167ffffffffffffffff811115611056576110556119e3565b5b6040519080825280601f01601f1916602001820160405280156110885781602001600182028036833780820191505090505b5090505b60008514611115576001826110a1919061231b565b9150600a856110b0919061254c565b60306110bc919061234f565b60f81b8183815181106110d2576110d161257d565b5b60200101907effffffffffffffffffffffffffffffffffffffffffffffffffffffffffffff1916908160001a905350600a8561110e919061251b565b945061108c565b8093505050505b919050565b61113b8282604051806020016040528060008152506113b6565b5050565b60007f01ffc9a7000000000000000000000000000000000000000000000000000000007bffffffffffffffffffffffffffffffffffffffffffffffffffffffff1916827bffffffffffffffffffffffffffffffffffffffffffffffffffffffff1916149050919050565b60008073ffffffffffffffffffffffffffffffffffffffff166002600084815260200190815260200160002060009054906101000a900473ffffffffffffffffffffffffffffffffffffffff1673ffffffffffffffffffffffffffffffffffffffff1614159050919050565b505050565b505050565b60006112408473ffffffffffffffffffffffffffffffffffffffff16611411565b156113a9578373ffffffffffffffffffffffffffffffffffffffff1663150b7a02611269610a23565b8786866040518563ffffffff1660e01b815260040161128b9493929190612601565b602060405180830381600087803b1580156112a557600080fd5b505af19250505080156112d657506040513d601f19601f820116820180604052508101906112d39190612662565b60015b611359573d8060008114611306576040519150601f19603f3d011682016040523d82523d6000602084013e61130b565b606091505b50600081511415611351576040517f08c379a000000000000000000000000000000000000000000000000000000000815260040161134890612483565b60405180910390fd5b805181602001fd5b63150b7a0260e01b7bffffffffffffffffffffffffffffffffffffffffffffffffffffffff1916817bffffffffffffffffffffffffffffffffffffffffffffffffffffffff1916149150506113ae565b600190505b949350505050565b6113c08383611434565b6113cd600084848461121f565b61140c576040517f08c379a000000000000000000000000000000000000000000000000000000000815260040161140390612483565b60405180910390fd5b505050565b6000808273ffffffffffffffffffffffffffffffffffffffff163b119050919050565b600073ffffffffffffffffffffffffffffffffffffffff168273ffffffffffffffffffffffffffffffffffffffff1614156114a4576040517f08c379a000000000000000000000000000000000000000000000000000000000815260040161149b906126db565b60405180910390fd5b6114ad816111a9565b156114ed576040517f08c379a00000000000000000000000000000000000000000000000000000000081526004016114e490612747565b60405180910390fd5b6114f960008383611215565b6001600360008473ffffffffffffffffffffffffffffffffffffffff1673ffffffffffffffffffffffffffffffffffffffff1681526020019081526020016000206000828254611549919061234f565b92505081905550816002600083815260200190815260200160002060006101000a81548173ffffffffffffffffffffffffffffffffffffffff021916908373ffffffffffffffffffffffffffffffffffffffff160217905550808273ffffffffffffffffffffffffffffffffffffffff16600073ffffffffffffffffffffffffffffffffffffffff167fddf252ad1be2c89b69c2b068fc378daa952ba7f163c4a11628f55a4df523b3ef60405160405180910390a461160a6000838361121a565b5050565b6000604051905090565b600080fd5b600080fd5b60007fffffffff0000000000000000000000000000000000000000000000000000000082169050919050565b61165781611622565b811461166257600080fd5b50565b6000813590506116748161164e565b92915050565b6000602082840312156116905761168f611618565b5b600061169e84828501611665565b91505092915050565b60008115159050919050565b6116bc816116a7565b82525050565b60006020820190506116d760008301846116b3565b92915050565b600081519050919050565b600082825260208201905092915050565b60005b838110156117175780820151818401526020810190506116fc565b83811115611726576000848401525b50505050565b6000601f19601f8301169050919050565b6000611748826116dd565b61175281856116e8565b93506117628185602086016116f9565b61176b8161172c565b840191505092915050565b60006020820190508181036000830152611790818461173d565b905092915050565b6000819050919050565b6117ab81611798565b81146117b657600080fd5b50565b6000813590506117c8816117a2565b92915050565b6000602082840312156117e4576117e3611618565b5b60006117f2848285016117b9565b91505092915050565b600073ffffffffffffffffffffffffffffffffffffffff82169050919050565b6000611826826117fb565b9050919050565b6118368161181b565b82525050565b6000602082019050611851600083018461182d565b92915050565b6118608161181b565b811461186b57600080fd5b50565b60008135905061187d81611857565b92915050565b6000806040838503121561189a57611899611618565b5b60006118a88582860161186e565b92505060206118b9858286016117b9565b9150509250929050565b6000806000606084860312156118dc576118db611618565b5b60006118ea8682870161186e565b93505060206118fb8682870161186e565b925050604061190c868287016117b9565b9150509250925092565b60006020828403121561192c5761192b611618565b5b600061193a8482850161186e565b91505092915050565b61194c81611798565b82525050565b60006020820190506119676000830184611943565b92915050565b611976816116a7565b811461198157600080fd5b50565b6000813590506119938161196d565b92915050565b600080604083850312156119b0576119af611618565b5b60006119be8582860161186e565b92505060206119cf85828601611984565b9150509250929050565b600080fd5b600080fd5b7f4e487b7100000000000000000000000000000000000000000000000000000000600052604160045260246000fd5b611a1b8261172c565b810181811067ffffffffffffffff82111715611a3a57611a396119e3565b5b80604052505050565b6000611a4d61160e565b9050611a598282611a12565b919050565b600067ffffffffffffffff821115611a7957611a786119e3565b5b611a828261172c565b9050602081019050919050565b82818337600083830152505050565b6000611ab1611aac84611a5e565b611a43565b905082815260208101848484011115611acd57611acc6119de565b5b611ad8848285611a8f565b509392505050565b600082601f830112611af557611af46119d9565b5b8135611b05848260208601611a9e565b91505092915050565b60008060008060808587031215611b2857611b27611618565b5b6000611b368782880161186e565b9450506020611b478782880161186e565b9350506040611b58878288016117b9565b925050606085013567ffffffffffffffff811115611b7957611b7861161d565b5b611b8587828801611ae0565b91505092959194509250565b600067ffffffffffffffff821115611bac57611bab6119e3565b5b602082029050602081019050919050565b600080fd5b6000611bd5611bd084611b91565b611a43565b90508083825260208201905060208402830185811115611bf857611bf7611bbd565b5b835b81811015611c215780611c0d888261186e565b845260208401935050602081019050611bfa565b5050509392505050565b600082601f830112611c4057611c3f6119d9565b5b8135611c50848260208601611bc2565b91505092915050565b600067ffffffffffffffff821115611c7457611c736119e3565b5b602082029050602081019050919050565b60006bffffffffffffffffffffffff82169050919050565b611ca681611c85565b8114611cb157600080fd5b50565b600081359050611cc381611c9d565b92915050565b6000611cdc611cd784611c59565b611a43565b90508083825260208201905060208402830185811115611cff57611cfe611bbd565b5b835b81811015611d285780611d148882611cb4565b845260208401935050602081019050611d01565b5050509392505050565b600082601f830112611d4757611d466119d9565b5b8135611d57848260208601611cc9565b91505092915050565b600080600080600060a08688031215611d7c57611d7b611618565b5b6000611d8a8882890161186e565b9550506020611d9b888289016117b9565b9450506040611dac88828901611984565b935050606086013567ffffffffffffffff811115611dcd57611dcc61161d565b5b611dd988828901611c2b565b925050608086013567ffffffffffffffff811115611dfa57611df961161d565b5b611e0688828901611d32565b9150509295509295909350565b60008060408385031215611e2a57611e29611618565b5b6000611e388582860161186e565b9250506020611e498582860161186e565b9150509250929050565b7f4e487b7100000000000000000000000000000000000000000000000000000000600052602260045260246000fd5b60006002820490506001821680611e9a57607f821691505b60208210811415611eae57611ead611e53565b5b50919050565b7f4552433732313a20617070726f76616c20746f2063757272656e74206f776e6560008201527f7200000000000000000000000000000000000000000000000000000000000000602082015250565b6000611f106021836116e8565b9150611f1b82611eb4565b604082019050919050565b60006020820190508181036000830152611f3f81611f03565b9050919050565b7f4552433732313a20617070726f76652063616c6c6572206973206e6f7420746f60008201527f6b656e206f776e6572206e6f7220617070726f76656420666f7220616c6c0000602082015250565b6000611fa2603e836116e8565b9150611fad82611f46565b604082019050919050565b60006020820190508181036000830152611fd181611f95565b9050919050565b7f4552433732313a2063616c6c6572206973206e6f7420746f6b656e206f776e6560008201527f72206e6f7220617070726f766564000000000000000000000000000000000000602082015250565b6000612034602e836116e8565b915061203f82611fd8565b604082019050919050565b6000602082019050818103600083015261206381612027565b9050919050565b7f4552433732313a20696e76616c696420746f6b656e2049440000000000000000600082015250565b60006120a06018836116e8565b91506120ab8261206a565b602082019050919050565b600060208201905081810360008301526120cf81612093565b9050919050565b7f4552433732313a2061646472657373207a65726f206973206e6f74206120766160008201527f6c6964206f776e65720000000000000000000000000000000000000000000000602082015250565b60006121326029836116e8565b915061213d826120d6565b604082019050919050565b6000602082019050818103600083015261216181612125565b9050919050565b600081905092915050565b600061217e826116dd565b6121888185612168565b93506121988185602086016116f9565b80840191505092915050565b60006121b08285612173565b91506121bc8284612173565b91508190509392505050565b7f4552433732313a207472616e736665722066726f6d20696e636f72726563742060008201527f6f776e6572000000000000000000000000000000000000000000000000000000602082015250565b60006122246025836116e8565b915061222f826121c8565b604082019050919050565b6000602082019050818103600083015261225381612217565b9050919050565b7f4552433732313a207472616e7366657220746f20746865207a65726f2061646460008201527f7265737300000000000000000000000000000000000000000000000000000000602082015250565b60006122b66024836116e8565b91506122c18261225a565b604082019050919050565b600060208201905081810360008301526122e5816122a9565b9050919050565b7f4e487b7100000000000000000000000000000000000000000000000000000000600052601160045260246000fd5b600061232682611798565b915061233183611798565b925082821015612344576123436122ec565b5b828203905092915050565b600061235a82611798565b915061236583611798565b9250827fffffffffffffffffffffffffffffffffffffffffffffffffffffffffffffffff0382111561239a576123996122ec565b5b828201905092915050565b7f4552433732313a20617070726f766520746f2063616c6c657200000000000000600082015250565b60006123db6019836116e8565b91506123e6826123a5565b602082019050919050565b6000602082019050818103600083015261240a816123ce565b9050919050565b7f4552433732313a207472616e7366657220746f206e6f6e20455243373231526560008201527f63656976657220696d706c656d656e7465720000000000000000000000000000602082015250565b600061246d6032836116e8565b915061247882612411565b604082019050919050565b6000602082019050818103600083015261249c81612460565b9050919050565b60006124ae82611798565b91507fffffffffffffffffffffffffffffffffffffffffffffffffffffffffffffffff8214156124e1576124e06122ec565b5b600182019050919050565b7f4e487b7100000000000000000000000000000000000000000000000000000000600052601260045260246000fd5b600061252682611798565b915061253183611798565b925082612541576125406124ec565b5b828204905092915050565b600061255782611798565b915061256283611798565b925082612572576125716124ec565b5b828206905092915050565b7f4e487b7100000000000000000000000000000000000000000000000000000000600052603260045260246000fd5b600081519050919050565b600082825260208201905092915050565b60006125d3826125ac565b6125dd81856125b7565b93506125ed8185602086016116f9565b6125f68161172c565b840191505092915050565b6000608082019050612616600083018761182d565b612623602083018661182d565b6126306040830185611943565b818103606083015261264281846125c8565b905095945050505050565b60008151905061265c8161164e565b92915050565b60006020828403121561267857612677611618565b5b60006126868482850161264d565b91505092915050565b7f4552433732313a206d696e7420746f20746865207a65726f2061646472657373600082015250565b60006126c56020836116e8565b91506126d08261268f565b602082019050919050565b600060208201905081810360008301526126f4816126b8565b9050919050565b7f4552433732313a20746f6b656e20616c7265616479206d696e74656400000000600082015250565b6000612731601c836116e8565b915061273c826126fb565b602082019050919050565b6000602082019050818103600083015261276081612724565b905091905056fea2646970667358221220dcdfff7bce45eabb9fcd16d3be56b26fce05ee15a75f358ee216289174ac1db564736f6c63430008090033",
  "linkReferences": {},
  "deployedLinkReferences": {}
}