{
  "_format": "hh-sol-artifact-1",
  "contractName": "ERC721Mock",
  "sourceName": "contracts/Mocks/ERC721Mock.sol",
  "abi": [
    {
      "inputs": [
        {
          "internalType": "string",
          "name": "_name",
          "type": "string"
        },
        {
          "internalType": "string",
          "name": "_symbol",
          "type": "string"
        },
        {
          "internalType": "bool",
          "name": "defaultRoyalty",
          "type": "bool"
        },
        {
          "internalType": "address[]",
          "name": "royaltyReceiver",
          "type": "address[]"
        },
        {
          "internalType": "uint96[]",
          "name": "royaltyFeesInBips",
          "type": "uint96[]"
        }
      ],
      "stateMutability": "nonpayable",
      "type": "constructor"
    },
    {
      "anonymous": false,
      "inputs": [
        {
          "indexed": true,
          "internalType": "address",
          "name": "owner",
          "type": "address"
        },
        {
          "indexed": true,
          "internalType": "address",
          "name": "approved",
          "type": "address"
        },
        {
          "indexed": true,
          "internalType": "uint256",
          "name": "tokenId",
          "type": "uint256"
        }
      ],
      "name": "Approval",
      "type": "event"
    },
    {
      "anonymous": false,
      "inputs": [
        {
          "indexed": true,
          "internalType": "address",
          "name": "owner",
          "type": "address"
        },
        {
          "indexed": true,
          "internalType": "address",
          "name": "operator",
          "type": "address"
        },
        {
          "indexed": false,
          "internalType": "bool",
          "name": "approved",
          "type": "bool"
        }
      ],
      "name": "ApprovalForAll",
      "type": "event"
    },
    {
      "anonymous": false,
      "inputs": [
        {
          "indexed": true,
          "internalType": "address",
          "name": "from",
          "type": "address"
        },
        {
          "indexed": true,
          "internalType": "address",
          "name": "to",
          "type": "address"
        },
        {
          "indexed": true,
          "internalType": "uint256",
          "name": "tokenId",
          "type": "uint256"
        }
      ],
      "name": "Transfer",
      "type": "event"
    },
    {
      "inputs": [
        {
          "internalType": "address",
          "name": "to",
          "type": "address"
        },
        {
          "internalType": "uint256",
          "name": "tokenId",
          "type": "uint256"
        }
      ],
      "name": "approve",
      "outputs": [],
      "stateMutability": "nonpayable",
      "type": "function"
    },
    {
      "inputs": [
        {
          "internalType": "address",
          "name": "owner",
          "type": "address"
        }
      ],
      "name": "balanceOf",
      "outputs": [
        {
          "internalType": "uint256",
          "name": "",
          "type": "uint256"
        }
      ],
      "stateMutability": "view",
      "type": "function"
    },
    {
      "inputs": [
        {
          "internalType": "uint256",
          "name": "tokenId",
          "type": "uint256"
        }
      ],
      "name": "getApproved",
      "outputs": [
        {
          "internalType": "address",
          "name": "",
          "type": "address"
        }
      ],
      "stateMutability": "view",
      "type": "function"
    },
    {
      "inputs": [
        {
          "internalType": "address",
          "name": "owner",
          "type": "address"
        },
        {
          "internalType": "address",
          "name": "operator",
          "type": "address"
        }
      ],
      "name": "isApprovedForAll",
      "outputs": [
        {
          "internalType": "bool",
          "name": "",
          "type": "bool"
        }
      ],
      "stateMutability": "view",
      "type": "function"
    },
    {
      "inputs": [],
      "name": "name",
      "outputs": [
        {
          "internalType": "string",
          "name": "",
          "type": "string"
        }
      ],
      "stateMutability": "view",
      "type": "function"
    },
    {
      "inputs": [
        {
          "internalType": "uint256",
          "name": "tokenId",
          "type": "uint256"
        }
      ],
      "name": "ownerOf",
      "outputs": [
        {
          "internalType": "address",
          "name": "",
          "type": "address"
        }
      ],
      "stateMutability": "view",
      "type": "function"
    },
    {
      "inputs": [
        {
          "internalType": "uint256",
          "name": "_tokenId",
          "type": "uint256"
        },
        {
          "internalType": "uint256",
          "name": "_salePrice",
          "type": "uint256"
        }
      ],
      "name": "royaltyInfo",
      "outputs": [
        {
          "internalType": "address[]",
          "name": "",
          "type": "address[]"
        },
        {
          "internalType": "uint256[]",
          "name": "",
          "type": "uint256[]"
        }
      ],
      "stateMutability": "view",
      "type": "function"
    },
    {
      "inputs": [
        {
          "internalType": "address",
          "name": "creator",
          "type": "address"
        },
        {
          "internalType": "uint256",
          "name": "tokenId",
          "type": "uint256"
        },
        {
          "internalType": "bool",
          "name": "tokenRoyalty",
          "type": "bool"
        },
        {
          "internalType": "address[]",
          "name": "royaltyReceiver",
          "type": "address[]"
        },
        {
          "internalType": "uint96[]",
          "name": "tokenRoyaltyInBips",
          "type": "uint96[]"
        }
      ],
      "name": "safeMint",
      "outputs": [],
      "stateMutability": "nonpayable",
      "type": "function"
    },
    {
      "inputs": [
        {
          "internalType": "address",
          "name": "from",
          "type": "address"
        },
        {
          "internalType": "address",
          "name": "to",
          "type": "address"
        },
        {
          "internalType": "uint256",
          "name": "tokenId",
          "type": "uint256"
        }
      ],
      "name": "safeTransferFrom",
      "outputs": [],
      "stateMutability": "nonpayable",
      "type": "function"
    },
    {
      "inputs": [
        {
          "internalType": "address",
          "name": "from",
          "type": "address"
        },
        {
          "internalType": "address",
          "name": "to",
          "type": "address"
        },
        {
          "internalType": "uint256",
          "name": "tokenId",
          "type": "uint256"
        },
        {
          "internalType": "bytes",
          "name": "data",
          "type": "bytes"
        }
      ],
      "name": "safeTransferFrom",
      "outputs": [],
      "stateMutability": "nonpayable",
      "type": "function"
    },
    {
      "inputs": [
        {
          "internalType": "address",
          "name": "operator",
          "type": "address"
        },
        {
          "internalType": "bool",
          "name": "approved",
          "type": "bool"
        }
      ],
      "name": "setApprovalForAll",
      "outputs": [],
      "stateMutability": "nonpayable",
      "type": "function"
    },
    {
      "inputs": [
        {
          "internalType": "bytes4",
          "name": "interfaceId",
          "type": "bytes4"
        }
      ],
      "name": "supportsInterface",
      "outputs": [
        {
          "internalType": "bool",
          "name": "",
          "type": "bool"
        }
      ],
      "stateMutability": "view",
      "type": "function"
    },
    {
      "inputs": [],
      "name": "symbol",
      "outputs": [
        {
          "internalType": "string",
          "name": "",
          "type": "string"
        }
      ],
      "stateMutability": "view",
      "type": "function"
    },
    {
      "inputs": [
        {
          "internalType": "uint256",
          "name": "tokenId",
          "type": "uint256"
        }
      ],
      "name": "tokenURI",
      "outputs": [
        {
          "internalType": "string",
          "name": "",
          "type": "string"
        }
      ],
      "stateMutability": "view",
      "type": "function"
    },
    {
      "inputs": [
        {
          "internalType": "address",
          "name": "from",
          "type": "address"
        },
        {
          "internalType": "address",
          "name": "to",
          "type": "address"
        },
        {
          "internalType": "uint256",
          "name": "tokenId",
          "type": "uint256"
        }
      ],
      "name": "transferFrom",
      "outputs": [],
      "stateMutability": "nonpayable",
      "type": "function"
    }
  ],
  "bytecode": "0x60806040523480156200001157600080fd5b506040516200425638038062004256833981810160405281019062000037919062000947565b848481600090805190602001906200005192919062000300565b5080600190805190602001906200006a92919062000300565b5050506000859050600085905060008251141580156200008c57506000815114155b620000ce576040517f08c379a0000000000000000000000000000000000000000000000000000000008152600401620000c59062000aac565b60405180910390fd5b8415620000e857620000e78484620000f560201b60201c565b5b5050505050505062000e80565b60008251116200013c576040517f08c379a0000000000000000000000000000000000000000000000000000000008152600401620001339062000b1e565b60405180910390fd5b60058251111562000184576040517f08c379a00000000000000000000000000000000000000000000000000000000081526004016200017b9062000bb6565b60405180910390fd5b8051825114620001cb576040517f08c379a0000000000000000000000000000000000000000000000000000000008152600401620001c29062000c4e565b60405180910390fd5b6000805b82518110156200022a57828181518110620001ef57620001ee62000c70565b5b60200260200101516bffffffffffffffffffffffff168262000212919062000cd8565b91508080620002219062000d35565b915050620001cf565b506200023b620002f660201b60201c565b6bffffffffffffffffffffffff168111156200028e576040517f08c379a0000000000000000000000000000000000000000000000000000000008152600401620002859062000df9565b60405180910390fd5b60608084905083915060405180604001604052808281526020018381525060066000820151816000019080519060200190620002cc92919062000391565b506020820151816001019080519060200190620002eb92919062000420565b509050505050505050565b6000612710905090565b8280546200030e9062000e4a565b90600052602060002090601f0160209004810192826200033257600085556200037e565b82601f106200034d57805160ff19168380011785556200037e565b828001600101855582156200037e579182015b828111156200037d57825182559160200191906001019062000360565b5b5090506200038d9190620004ef565b5090565b8280548282559060005260206000209081019282156200040d579160200282015b828111156200040c5782518260006101000a81548173ffffffffffffffffffffffffffffffffffffffff021916908373ffffffffffffffffffffffffffffffffffffffff16021790555091602001919060010190620003b2565b5b5090506200041c9190620004ef565b5090565b82805482825590600052602060002090600101600290048101928215620004dc5791602002820160005b83821115620004a057835183826101000a8154816bffffffffffffffffffffffff02191690836bffffffffffffffffffffffff1602179055509260200192600c01602081600b010492830192600103026200044a565b8015620004da5782816101000a8154906bffffffffffffffffffffffff0219169055600c01602081600b01049283019260010302620004a0565b505b509050620004eb9190620004ef565b5090565b5b808211156200050a576000816000905550600101620004f0565b5090565b6000604051905090565b600080fd5b600080fd5b600080fd5b600080fd5b6000601f19601f8301169050919050565b7f4e487b7100000000000000000000000000000000000000000000000000000000600052604160045260246000fd5b62000577826200052c565b810181811067ffffffffffffffff821117156200059957620005986200053d565b5b80604052505050565b6000620005ae6200050e565b9050620005bc82826200056c565b919050565b600067ffffffffffffffff821115620005df57620005de6200053d565b5b620005ea826200052c565b9050602081019050919050565b60005b8381101562000617578082015181840152602081019050620005fa565b8381111562000627576000848401525b50505050565b6000620006446200063e84620005c1565b620005a2565b90508281526020810184848401111562000663576200066262000527565b5b62000670848285620005f7565b509392505050565b600082601f83011262000690576200068f62000522565b5b8151620006a28482602086016200062d565b91505092915050565b60008115159050919050565b620006c281620006ab565b8114620006ce57600080fd5b50565b600081519050620006e281620006b7565b92915050565b600067ffffffffffffffff8211156200070657620007056200053d565b5b602082029050602081019050919050565b600080fd5b600073ffffffffffffffffffffffffffffffffffffffff82169050919050565b600062000749826200071c565b9050919050565b6200075b816200073c565b81146200076757600080fd5b50565b6000815190506200077b8162000750565b92915050565b6000620007986200079284620006e8565b620005a2565b90508083825260208201905060208402830185811115620007be57620007bd62000717565b5b835b81811015620007eb5780620007d688826200076a565b845260208401935050602081019050620007c0565b5050509392505050565b600082601f8301126200080d576200080c62000522565b5b81516200081f84826020860162000781565b91505092915050565b600067ffffffffffffffff8211156200084657620008456200053d565b5b602082029050602081019050919050565b60006bffffffffffffffffffffffff82169050919050565b6200087a8162000857565b81146200088657600080fd5b50565b6000815190506200089a816200086f565b92915050565b6000620008b7620008b18462000828565b620005a2565b90508083825260208201905060208402830185811115620008dd57620008dc62000717565b5b835b818110156200090a5780620008f5888262000889565b845260208401935050602081019050620008df565b5050509392505050565b600082601f8301126200092c576200092b62000522565b5b81516200093e848260208601620008a0565b91505092915050565b600080600080600060a0868803121562000966576200096562000518565b5b600086015167ffffffffffffffff8111156200098757620009866200051d565b5b620009958882890162000678565b955050602086015167ffffffffffffffff811115620009b957620009b86200051d565b5b620009c78882890162000678565b9450506040620009da88828901620006d1565b935050606086015167ffffffffffffffff811115620009fe57620009fd6200051d565b5b62000a0c88828901620007f5565b925050608086015167ffffffffffffffff81111562000a305762000a2f6200051d565b5b62000a3e8882890162000914565b9150509295509295909350565b600082825260208201905092915050565b7f4552433732313a2043686f6f73652061206e616d6520616e642073796d626f6c600082015250565b600062000a9460208362000a4b565b915062000aa18262000a5c565b602082019050919050565b6000602082019050818103600083015262000ac78162000a85565b9050919050565b7f4e6f20526f79616c74792064657461696c732070726f76696465640000000000600082015250565b600062000b06601b8362000a4b565b915062000b138262000ace565b602082019050919050565b6000602082019050818103600083015262000b398162000af7565b9050919050565b7f546f6f206d616e7920726f79616c74792072656369657665727320646574616960008201527f6c73000000000000000000000000000000000000000000000000000000000000602082015250565b600062000b9e60228362000a4b565b915062000bab8262000b40565b604082019050919050565b6000602082019050818103600083015262000bd18162000b8f565b9050919050565b7f4d69736d61746368206f6620526f79616c74792072656369657665727320616e60008201527f6420746865697220666565730000000000000000000000000000000000000000602082015250565b600062000c36602c8362000a4b565b915062000c438262000bd8565b604082019050919050565b6000602082019050818103600083015262000c698162000c27565b9050919050565b7f4e487b7100000000000000000000000000000000000000000000000000000000600052603260045260246000fd5b6000819050919050565b7f4e487b7100000000000000000000000000000000000000000000000000000000600052601160045260246000fd5b600062000ce58262000c9f565b915062000cf28362000c9f565b9250827fffffffffffffffffffffffffffffffffffffffffffffffffffffffffffffffff0382111562000d2a5762000d2962000ca9565b5b828201905092915050565b600062000d428262000c9f565b91507fffffffffffffffffffffffffffffffffffffffffffffffffffffffffffffffff82141562000d785762000d7762000ca9565b5b600182019050919050565b7f455243323938313a20726f79616c7479206665652077696c6c2065786365656460008201527f2073616c65507269636500000000000000000000000000000000000000000000602082015250565b600062000de1602a8362000a4b565b915062000dee8262000d83565b604082019050919050565b6000602082019050818103600083015262000e148162000dd2565b9050919050565b7f4e487b7100000000000000000000000000000000000000000000000000000000600052602260045260246000fd5b6000600282049050600182168062000e6357607f821691505b6020821081141562000e7a5762000e7962000e1b565b5b50919050565b6133c68062000e906000396000f3fe608060405234801561001057600080fd5b50600436106100f55760003560e01c80636352211e11610097578063b88d4fde11610066578063b88d4fde14610297578063c87b56dd146102b3578063deb94f9e146102e3578063e985e9c5146102ff576100f5565b80636352211e146101fd57806370a082311461022d57806395d89b411461025d578063a22cb4651461027b576100f5565b8063095ea7b3116100d3578063095ea7b31461017857806323b872dd146101945780632a55205a146101b057806342842e0e146101e1576100f5565b806301ffc9a7146100fa57806306fdde031461012a578063081812fc14610148575b600080fd5b610114600480360381019061010f9190611e34565b61032f565b6040516101219190611e7c565b60405180910390f35b610132610341565b60405161013f9190611f30565b60405180910390f35b610162600480360381019061015d9190611f88565b6103d3565b60405161016f9190611ff6565b60405180910390f35b610192600480360381019061018d919061203d565b610419565b005b6101ae60048036038101906101a9919061207d565b610531565b005b6101ca60048036038101906101c591906120d0565b610591565b6040516101d892919061228c565b60405180910390f35b6101fb60048036038101906101f6919061207d565b610918565b005b61021760048036038101906102129190611f88565b610938565b6040516102249190611ff6565b60405180910390f35b610247600480360381019061024291906122c3565b6109ea565b60405161025491906122ff565b60405180910390f35b610265610aa2565b6040516102729190611f30565b60405180910390f35b61029560048036038101906102909190612346565b610b34565b005b6102b160048036038101906102ac91906124bb565b610b4a565b005b6102cd60048036038101906102c89190611f88565b610bac565b6040516102da9190611f30565b60405180910390f35b6102fd60048036038101906102f8919061270d565b610c14565b005b610319600480360381019061031491906127c0565b610c37565b6040516103269190611e7c565b60405180910390f35b600061033a82610ccb565b9050919050565b6060600080546103509061282f565b80601f016020809104026020016040519081016040528092919081815260200182805461037c9061282f565b80156103c95780601f1061039e576101008083540402835291602001916103c9565b820191906000526020600020905b8154815290600101906020018083116103ac57829003601f168201915b5050505050905090565b60006103de82610d45565b6004600083815260200190815260200160002060009054906101000a900473ffffffffffffffffffffffffffffffffffffffff169050919050565b600061042482610938565b90508073ffffffffffffffffffffffffffffffffffffffff168373ffffffffffffffffffffffffffffffffffffffff161415610495576040517f08c379a000000000000000000000000000000000000000000000000000000000815260040161048c906128d3565b60405180910390fd5b8073ffffffffffffffffffffffffffffffffffffffff166104b4610d90565b73ffffffffffffffffffffffffffffffffffffffff1614806104e357506104e2816104dd610d90565b610c37565b5b610522576040517f08c379a000000000000000000000000000000000000000000000000000000000815260040161051990612965565b60405180910390fd5b61052c8383610d98565b505050565b61054261053c610d90565b82610e51565b610581576040517f08c379a0000000000000000000000000000000000000000000000000000000008152600401610578906129f7565b60405180910390fd5b61058c838383610ee6565b505050565b6060806000600860008681526020019081526020016000206040518060400160405290816000820180548060200260200160405190810160405280929190818152602001828054801561063957602002820191906000526020600020905b8160009054906101000a900473ffffffffffffffffffffffffffffffffffffffff1673ffffffffffffffffffffffffffffffffffffffff16815260200190600101908083116105ef575b50505050508152602001600182018054806020026020016040519081016040528092919081815260200182805480156106cd57602002820191906000526020600020906000905b82829054906101000a90046bffffffffffffffffffffffff166bffffffffffffffffffffffff16815260200190600c0190602082600b010492830192600103820291508084116106805790505b5050505050815250509050600081600001515114156108185760066040518060400160405290816000820180548060200260200160405190810160405280929190818152602001828054801561077857602002820191906000526020600020905b8160009054906101000a900473ffffffffffffffffffffffffffffffffffffffff1673ffffffffffffffffffffffffffffffffffffffff168152602001906001019080831161072e575b505050505081526020016001820180548060200260200160405190810160405280929190818152602001828054801561080c57602002820191906000526020600020906000905b82829054906101000a90046bffffffffffffffffffffffff166bffffffffffffffffffffffff16815260200190600c0190602082600b010492830192600103820291508084116107bf5790505b50505050508152505090505b600081600001515167ffffffffffffffff81111561083957610838612390565b5b6040519080825280602002602001820160405280156108675781602001602082028036833780820191505090505b50905060005b8260000151518110156109045761088261114d565b6bffffffffffffffffffffffff16836020015182815181106108a7576108a6612a17565b5b60200260200101516bffffffffffffffffffffffff16876108c89190612a75565b6108d29190612afe565b8282815181106108e5576108e4612a17565b5b60200260200101818152505080806108fc90612b2f565b91505061086d565b508160000151819350935050509250929050565b61093383838360405180602001604052806000815250610b4a565b505050565b6000806002600084815260200190815260200160002060009054906101000a900473ffffffffffffffffffffffffffffffffffffffff169050600073ffffffffffffffffffffffffffffffffffffffff168173ffffffffffffffffffffffffffffffffffffffff1614156109e1576040517f08c379a00000000000000000000000000000000000000000000000000000000081526004016109d890612bc4565b60405180910390fd5b80915050919050565b60008073ffffffffffffffffffffffffffffffffffffffff168273ffffffffffffffffffffffffffffffffffffffff161415610a5b576040517f08c379a0000000000000000000000000000000000000000000000000000000008152600401610a5290612c56565b60405180910390fd5b600360008373ffffffffffffffffffffffffffffffffffffffff1673ffffffffffffffffffffffffffffffffffffffff168152602001908152602001600020549050919050565b606060018054610ab19061282f565b80601f0160208091040260200160405190810160405280929190818152602001828054610add9061282f565b8015610b2a5780601f10610aff57610100808354040283529160200191610b2a565b820191906000526020600020905b815481529060010190602001808311610b0d57829003601f168201915b5050505050905090565b610b46610b3f610d90565b8383611157565b5050565b610b5b610b55610d90565b83610e51565b610b9a576040517f08c379a0000000000000000000000000000000000000000000000000000000008152600401610b91906129f7565b60405180910390fd5b610ba6848484846112c4565b50505050565b6060610bb782610d45565b6000610bc1611320565b90506000815111610be15760405180602001604052806000815250610c0c565b80610beb84611337565b604051602001610bfc929190612cb2565b6040516020818303038152906040525b915050919050565b610c1e8585611498565b8215610c3057610c2f8483836114b6565b5b5050505050565b6000600560008473ffffffffffffffffffffffffffffffffffffffff1673ffffffffffffffffffffffffffffffffffffffff16815260200190815260200160002060008373ffffffffffffffffffffffffffffffffffffffff1673ffffffffffffffffffffffffffffffffffffffff16815260200190815260200160002060009054906101000a900460ff16905092915050565b60007f2a55205a000000000000000000000000000000000000000000000000000000007bffffffffffffffffffffffffffffffffffffffffffffffffffffffff1916827bffffffffffffffffffffffffffffffffffffffffffffffffffffffff19161480610d3e5750610d3d826116a8565b5b9050919050565b610d4e8161178a565b610d8d576040517f08c379a0000000000000000000000000000000000000000000000000000000008152600401610d8490612bc4565b60405180910390fd5b50565b600033905090565b816004600083815260200190815260200160002060006101000a81548173ffffffffffffffffffffffffffffffffffffffff021916908373ffffffffffffffffffffffffffffffffffffffff160217905550808273ffffffffffffffffffffffffffffffffffffffff16610e0b83610938565b73ffffffffffffffffffffffffffffffffffffffff167f8c5be1e5ebec7d5bd14f71427d1e84f3dd0314c0f7b2291e5b200ac8c7c3b92560405160405180910390a45050565b600080610e5d83610938565b90508073ffffffffffffffffffffffffffffffffffffffff168473ffffffffffffffffffffffffffffffffffffffff161480610e9f5750610e9e8185610c37565b5b80610edd57508373ffffffffffffffffffffffffffffffffffffffff16610ec5846103d3565b73ffffffffffffffffffffffffffffffffffffffff16145b91505092915050565b8273ffffffffffffffffffffffffffffffffffffffff16610f0682610938565b73ffffffffffffffffffffffffffffffffffffffff1614610f5c576040517f08c379a0000000000000000000000000000000000000000000000000000000008152600401610f5390612d48565b60405180910390fd5b600073ffffffffffffffffffffffffffffffffffffffff168273ffffffffffffffffffffffffffffffffffffffff161415610fcc576040517f08c379a0000000000000000000000000000000000000000000000000000000008152600401610fc390612dda565b60405180910390fd5b610fd78383836117f6565b610fe2600082610d98565b6001600360008573ffffffffffffffffffffffffffffffffffffffff1673ffffffffffffffffffffffffffffffffffffffff16815260200190815260200160002060008282546110329190612dfa565b925050819055506001600360008473ffffffffffffffffffffffffffffffffffffffff1673ffffffffffffffffffffffffffffffffffffffff16815260200190815260200160002060008282546110899190612e2e565b92505081905550816002600083815260200190815260200160002060006101000a81548173ffffffffffffffffffffffffffffffffffffffff021916908373ffffffffffffffffffffffffffffffffffffffff160217905550808273ffffffffffffffffffffffffffffffffffffffff168473ffffffffffffffffffffffffffffffffffffffff167fddf252ad1be2c89b69c2b068fc378daa952ba7f163c4a11628f55a4df523b3ef60405160405180910390a46111488383836117fb565b505050565b6000612710905090565b8173ffffffffffffffffffffffffffffffffffffffff168373ffffffffffffffffffffffffffffffffffffffff1614156111c6576040517f08c379a00000000000000000000000000000000000000000000000000000000081526004016111bd90612ed0565b60405180910390fd5b80600560008573ffffffffffffffffffffffffffffffffffffffff1673ffffffffffffffffffffffffffffffffffffffff16815260200190815260200160002060008473ffffffffffffffffffffffffffffffffffffffff1673ffffffffffffffffffffffffffffffffffffffff16815260200190815260200160002060006101000a81548160ff0219169083151502179055508173ffffffffffffffffffffffffffffffffffffffff168373ffffffffffffffffffffffffffffffffffffffff167f17307eab39ab6107e8899845ad3d59bd9653f200f220920489ca2b5937696c31836040516112b79190611e7c565b60405180910390a3505050565b6112cf848484610ee6565b6112db84848484611800565b61131a576040517f08c379a000000000000000000000000000000000000000000000000000000000815260040161131190612f62565b60405180910390fd5b50505050565b606060405180602001604052806000815250905090565b6060600082141561137f576040518060400160405280600181526020017f30000000000000000000000000000000000000000000000000000000000000008152509050611493565b600082905060005b600082146113b157808061139a90612b2f565b915050600a826113aa9190612afe565b9150611387565b60008167ffffffffffffffff8111156113cd576113cc612390565b5b6040519080825280601f01601f1916602001820160405280156113ff5781602001600182028036833780820191505090505b5090505b6000851461148c576001826114189190612dfa565b9150600a856114279190612f82565b60306114339190612e2e565b60f81b81838151811061144957611448612a17565b5b60200101907effffffffffffffffffffffffffffffffffffffffffffffffffffffffffffff1916908160001a905350600a856114859190612afe565b9450611403565b8093505050505b919050565b6114b2828260405180602001604052806000815250611997565b5050565b60008251116114fa576040517f08c379a00000000000000000000000000000000000000000000000000000000081526004016114f190612fff565b60405180910390fd5b60058251111561153f576040517f08c379a000000000000000000000000000000000000000000000000000000000815260040161153690613091565b60405180910390fd5b8051825114611583576040517f08c379a000000000000000000000000000000000000000000000000000000000815260040161157a90613123565b60405180910390fd5b6000805b82518110156115d9578281815181106115a3576115a2612a17565b5b60200260200101516bffffffffffffffffffffffff16826115c49190612e2e565b915080806115d190612b2f565b915050611587565b506115e261114d565b6bffffffffffffffffffffffff16811115611632576040517f08c379a0000000000000000000000000000000000000000000000000000000008152600401611629906131b5565b60405180910390fd5b60608084905083915060405180604001604052808281526020018381525060086000888152602001908152602001600020600082015181600001908051906020019061167f929190611c59565b50602082015181600101908051906020019061169c929190611ce3565b50905050505050505050565b60007f80ac58cd000000000000000000000000000000000000000000000000000000007bffffffffffffffffffffffffffffffffffffffffffffffffffffffff1916827bffffffffffffffffffffffffffffffffffffffffffffffffffffffff1916148061177357507f5b5e139f000000000000000000000000000000000000000000000000000000007bffffffffffffffffffffffffffffffffffffffffffffffffffffffff1916827bffffffffffffffffffffffffffffffffffffffffffffffffffffffff1916145b806117835750611782826119f2565b5b9050919050565b60008073ffffffffffffffffffffffffffffffffffffffff166002600084815260200190815260200160002060009054906101000a900473ffffffffffffffffffffffffffffffffffffffff1673ffffffffffffffffffffffffffffffffffffffff1614159050919050565b505050565b505050565b60006118218473ffffffffffffffffffffffffffffffffffffffff16611a5c565b1561198a578373ffffffffffffffffffffffffffffffffffffffff1663150b7a0261184a610d90565b8786866040518563ffffffff1660e01b815260040161186c949392919061322a565b602060405180830381600087803b15801561188657600080fd5b505af19250505080156118b757506040513d601f19601f820116820180604052508101906118b4919061328b565b60015b61193a573d80600081146118e7576040519150601f19603f3d011682016040523d82523d6000602084013e6118ec565b606091505b50600081511415611932576040517f08c379a000000000000000000000000000000000000000000000000000000000815260040161192990612f62565b60405180910390fd5b805181602001fd5b63150b7a0260e01b7bffffffffffffffffffffffffffffffffffffffffffffffffffffffff1916817bffffffffffffffffffffffffffffffffffffffffffffffffffffffff19161491505061198f565b600190505b949350505050565b6119a18383611a7f565b6119ae6000848484611800565b6119ed576040517f08c379a00000000000000000000000000000000000000000000000000000000081526004016119e490612f62565b60405180910390fd5b505050565b60007f01ffc9a7000000000000000000000000000000000000000000000000000000007bffffffffffffffffffffffffffffffffffffffffffffffffffffffff1916827bffffffffffffffffffffffffffffffffffffffffffffffffffffffff1916149050919050565b6000808273ffffffffffffffffffffffffffffffffffffffff163b119050919050565b600073ffffffffffffffffffffffffffffffffffffffff168273ffffffffffffffffffffffffffffffffffffffff161415611aef576040517f08c379a0000000000000000000000000000000000000000000000000000000008152600401611ae690613304565b60405180910390fd5b611af88161178a565b15611b38576040517f08c379a0000000000000000000000000000000000000000000000000000000008152600401611b2f90613370565b60405180910390fd5b611b44600083836117f6565b6001600360008473ffffffffffffffffffffffffffffffffffffffff1673ffffffffffffffffffffffffffffffffffffffff1681526020019081526020016000206000828254611b949190612e2e565b92505081905550816002600083815260200190815260200160002060006101000a81548173ffffffffffffffffffffffffffffffffffffffff021916908373ffffffffffffffffffffffffffffffffffffffff160217905550808273ffffffffffffffffffffffffffffffffffffffff16600073ffffffffffffffffffffffffffffffffffffffff167fddf252ad1be2c89b69c2b068fc378daa952ba7f163c4a11628f55a4df523b3ef60405160405180910390a4611c55600083836117fb565b5050565b828054828255906000526020600020908101928215611cd2579160200282015b82811115611cd15782518260006101000a81548173ffffffffffffffffffffffffffffffffffffffff021916908373ffffffffffffffffffffffffffffffffffffffff16021790555091602001919060010190611c79565b5b509050611cdf9190611dab565b5090565b82805482825590600052602060002090600101600290048101928215611d9a5791602002820160005b83821115611d6057835183826101000a8154816bffffffffffffffffffffffff02191690836bffffffffffffffffffffffff1602179055509260200192600c01602081600b01049283019260010302611d0c565b8015611d985782816101000a8154906bffffffffffffffffffffffff0219169055600c01602081600b01049283019260010302611d60565b505b509050611da79190611dab565b5090565b5b80821115611dc4576000816000905550600101611dac565b5090565b6000604051905090565b600080fd5b600080fd5b60007fffffffff0000000000000000000000000000000000000000000000000000000082169050919050565b611e1181611ddc565b8114611e1c57600080fd5b50565b600081359050611e2e81611e08565b92915050565b600060208284031215611e4a57611e49611dd2565b5b6000611e5884828501611e1f565b91505092915050565b60008115159050919050565b611e7681611e61565b82525050565b6000602082019050611e916000830184611e6d565b92915050565b600081519050919050565b600082825260208201905092915050565b60005b83811015611ed1578082015181840152602081019050611eb6565b83811115611ee0576000848401525b50505050565b6000601f19601f8301169050919050565b6000611f0282611e97565b611f0c8185611ea2565b9350611f1c818560208601611eb3565b611f2581611ee6565b840191505092915050565b60006020820190508181036000830152611f4a8184611ef7565b905092915050565b6000819050919050565b611f6581611f52565b8114611f7057600080fd5b50565b600081359050611f8281611f5c565b92915050565b600060208284031215611f9e57611f9d611dd2565b5b6000611fac84828501611f73565b91505092915050565b600073ffffffffffffffffffffffffffffffffffffffff82169050919050565b6000611fe082611fb5565b9050919050565b611ff081611fd5565b82525050565b600060208201905061200b6000830184611fe7565b92915050565b61201a81611fd5565b811461202557600080fd5b50565b60008135905061203781612011565b92915050565b6000806040838503121561205457612053611dd2565b5b600061206285828601612028565b925050602061207385828601611f73565b9150509250929050565b60008060006060848603121561209657612095611dd2565b5b60006120a486828701612028565b93505060206120b586828701612028565b92505060406120c686828701611f73565b9150509250925092565b600080604083850312156120e7576120e6611dd2565b5b60006120f585828601611f73565b925050602061210685828601611f73565b9150509250929050565b600081519050919050565b600082825260208201905092915050565b6000819050602082019050919050565b61214581611fd5565b82525050565b6000612157838361213c565b60208301905092915050565b6000602082019050919050565b600061217b82612110565b612185818561211b565b93506121908361212c565b8060005b838110156121c15781516121a8888261214b565b97506121b383612163565b925050600181019050612194565b5085935050505092915050565b600081519050919050565b600082825260208201905092915050565b6000819050602082019050919050565b61220381611f52565b82525050565b600061221583836121fa565b60208301905092915050565b6000602082019050919050565b6000612239826121ce565b61224381856121d9565b935061224e836121ea565b8060005b8381101561227f5781516122668882612209565b975061227183612221565b925050600181019050612252565b5085935050505092915050565b600060408201905081810360008301526122a68185612170565b905081810360208301526122ba818461222e565b90509392505050565b6000602082840312156122d9576122d8611dd2565b5b60006122e784828501612028565b91505092915050565b6122f981611f52565b82525050565b600060208201905061231460008301846122f0565b92915050565b61232381611e61565b811461232e57600080fd5b50565b6000813590506123408161231a565b92915050565b6000806040838503121561235d5761235c611dd2565b5b600061236b85828601612028565b925050602061237c85828601612331565b9150509250929050565b600080fd5b600080fd5b7f4e487b7100000000000000000000000000000000000000000000000000000000600052604160045260246000fd5b6123c882611ee6565b810181811067ffffffffffffffff821117156123e7576123e6612390565b5b80604052505050565b60006123fa611dc8565b905061240682826123bf565b919050565b600067ffffffffffffffff82111561242657612425612390565b5b61242f82611ee6565b9050602081019050919050565b82818337600083830152505050565b600061245e6124598461240b565b6123f0565b90508281526020810184848401111561247a5761247961238b565b5b61248584828561243c565b509392505050565b600082601f8301126124a2576124a1612386565b5b81356124b284826020860161244b565b91505092915050565b600080600080608085870312156124d5576124d4611dd2565b5b60006124e387828801612028565b94505060206124f487828801612028565b935050604061250587828801611f73565b925050606085013567ffffffffffffffff81111561252657612525611dd7565b5b6125328782880161248d565b91505092959194509250565b600067ffffffffffffffff82111561255957612558612390565b5b602082029050602081019050919050565b600080fd5b600061258261257d8461253e565b6123f0565b905080838252602082019050602084028301858111156125a5576125a461256a565b5b835b818110156125ce57806125ba8882612028565b8452602084019350506020810190506125a7565b5050509392505050565b600082601f8301126125ed576125ec612386565b5b81356125fd84826020860161256f565b91505092915050565b600067ffffffffffffffff82111561262157612620612390565b5b602082029050602081019050919050565b60006bffffffffffffffffffffffff82169050919050565b61265381612632565b811461265e57600080fd5b50565b6000813590506126708161264a565b92915050565b600061268961268484612606565b6123f0565b905080838252602082019050602084028301858111156126ac576126ab61256a565b5b835b818110156126d557806126c18882612661565b8452602084019350506020810190506126ae565b5050509392505050565b600082601f8301126126f4576126f3612386565b5b8135612704848260208601612676565b91505092915050565b600080600080600060a0868803121561272957612728611dd2565b5b600061273788828901612028565b955050602061274888828901611f73565b945050604061275988828901612331565b935050606086013567ffffffffffffffff81111561277a57612779611dd7565b5b612786888289016125d8565b925050608086013567ffffffffffffffff8111156127a7576127a6611dd7565b5b6127b3888289016126df565b9150509295509295909350565b600080604083850312156127d7576127d6611dd2565b5b60006127e585828601612028565b92505060206127f685828601612028565b9150509250929050565b7f4e487b7100000000000000000000000000000000000000000000000000000000600052602260045260246000fd5b6000600282049050600182168061284757607f821691505b6020821081141561285b5761285a612800565b5b50919050565b7f4552433732313a20617070726f76616c20746f2063757272656e74206f776e6560008201527f7200000000000000000000000000000000000000000000000000000000000000602082015250565b60006128bd602183611ea2565b91506128c882612861565b604082019050919050565b600060208201905081810360008301526128ec816128b0565b9050919050565b7f4552433732313a20617070726f76652063616c6c6572206973206e6f7420746f60008201527f6b656e206f776e6572206e6f7220617070726f76656420666f7220616c6c0000602082015250565b600061294f603e83611ea2565b915061295a826128f3565b604082019050919050565b6000602082019050818103600083015261297e81612942565b9050919050565b7f4552433732313a2063616c6c6572206973206e6f7420746f6b656e206f776e6560008201527f72206e6f7220617070726f766564000000000000000000000000000000000000602082015250565b60006129e1602e83611ea2565b91506129ec82612985565b604082019050919050565b60006020820190508181036000830152612a10816129d4565b9050919050565b7f4e487b7100000000000000000000000000000000000000000000000000000000600052603260045260246000fd5b7f4e487b7100000000000000000000000000000000000000000000000000000000600052601160045260246000fd5b6000612a8082611f52565b9150612a8b83611f52565b9250817fffffffffffffffffffffffffffffffffffffffffffffffffffffffffffffffff0483118215151615612ac457612ac3612a46565b5b828202905092915050565b7f4e487b7100000000000000000000000000000000000000000000000000000000600052601260045260246000fd5b6000612b0982611f52565b9150612b1483611f52565b925082612b2457612b23612acf565b5b828204905092915050565b6000612b3a82611f52565b91507fffffffffffffffffffffffffffffffffffffffffffffffffffffffffffffffff821415612b6d57612b6c612a46565b5b600182019050919050565b7f4552433732313a20696e76616c696420746f6b656e2049440000000000000000600082015250565b6000612bae601883611ea2565b9150612bb982612b78565b602082019050919050565b60006020820190508181036000830152612bdd81612ba1565b9050919050565b7f4552433732313a2061646472657373207a65726f206973206e6f74206120766160008201527f6c6964206f776e65720000000000000000000000000000000000000000000000602082015250565b6000612c40602983611ea2565b9150612c4b82612be4565b604082019050919050565b60006020820190508181036000830152612c6f81612c33565b9050919050565b600081905092915050565b6000612c8c82611e97565b612c968185612c76565b9350612ca6818560208601611eb3565b80840191505092915050565b6000612cbe8285612c81565b9150612cca8284612c81565b91508190509392505050565b7f4552433732313a207472616e736665722066726f6d20696e636f72726563742060008201527f6f776e6572000000000000000000000000000000000000000000000000000000602082015250565b6000612d32602583611ea2565b9150612d3d82612cd6565b604082019050919050565b60006020820190508181036000830152612d6181612d25565b9050919050565b7f4552433732313a207472616e7366657220746f20746865207a65726f2061646460008201527f7265737300000000000000000000000000000000000000000000000000000000602082015250565b6000612dc4602483611ea2565b9150612dcf82612d68565b604082019050919050565b60006020820190508181036000830152612df381612db7565b9050919050565b6000612e0582611f52565b9150612e1083611f52565b925082821015612e2357612e22612a46565b5b828203905092915050565b6000612e3982611f52565b9150612e4483611f52565b9250827fffffffffffffffffffffffffffffffffffffffffffffffffffffffffffffffff03821115612e7957612e78612a46565b5b828201905092915050565b7f4552433732313a20617070726f766520746f2063616c6c657200000000000000600082015250565b6000612eba601983611ea2565b9150612ec582612e84565b602082019050919050565b60006020820190508181036000830152612ee981612ead565b9050919050565b7f4552433732313a207472616e7366657220746f206e6f6e20455243373231526560008201527f63656976657220696d706c656d656e7465720000000000000000000000000000602082015250565b6000612f4c603283611ea2565b9150612f5782612ef0565b604082019050919050565b60006020820190508181036000830152612f7b81612f3f565b9050919050565b6000612f8d82611f52565b9150612f9883611f52565b925082612fa857612fa7612acf565b5b828206905092915050565b7f4e6f20526f79616c74792064657461696c732070726f76696465640000000000600082015250565b6000612fe9601b83611ea2565b9150612ff482612fb3565b602082019050919050565b6000602082019050818103600083015261301881612fdc565b9050919050565b7f546f6f206d616e7920726f79616c74792072656369657665727320646574616960008201527f6c73000000000000000000000000000000000000000000000000000000000000602082015250565b600061307b602283611ea2565b91506130868261301f565b604082019050919050565b600060208201905081810360008301526130aa8161306e565b9050919050565b7f4d69736d61746368206f6620526f79616c74792072656369657665727320616e60008201527f6420746865697220666565730000000000000000000000000000000000000000602082015250565b600061310d602c83611ea2565b9150613118826130b1565b604082019050919050565b6000602082019050818103600083015261313c81613100565b9050919050565b7f455243323938313a20726f79616c7479206665652077696c6c2065786365656460008201527f2073616c65507269636500000000000000000000000000000000000000000000602082015250565b600061319f602a83611ea2565b91506131aa82613143565b604082019050919050565b600060208201905081810360008301526131ce81613192565b9050919050565b600081519050919050565b600082825260208201905092915050565b60006131fc826131d5565b61320681856131e0565b9350613216818560208601611eb3565b61321f81611ee6565b840191505092915050565b600060808201905061323f6000830187611fe7565b61324c6020830186611fe7565b61325960408301856122f0565b818103606083015261326b81846131f1565b905095945050505050565b60008151905061328581611e08565b92915050565b6000602082840312156132a1576132a0611dd2565b5b60006132af84828501613276565b91505092915050565b7f4552433732313a206d696e7420746f20746865207a65726f2061646472657373600082015250565b60006132ee602083611ea2565b91506132f9826132b8565b602082019050919050565b6000602082019050818103600083015261331d816132e1565b9050919050565b7f4552433732313a20746f6b656e20616c7265616479206d696e74656400000000600082015250565b600061335a601c83611ea2565b915061336582613324565b602082019050919050565b600060208201905081810360008301526133898161334d565b905091905056fea26469706673582212201f29cf1ebb834f2c8d7e48d767e174969cadf83d30c06e90273b3735f054c64064736f6c63430008090033",
  "linkReferences": {},
  "deployedLinkReferences": {}
}