{
  "_format": "hh-sol-artifact-1",
  "contractName": "ERC721Mock",
  "sourceName": "contracts/Mocks/ERC721Mock.sol",
  "abi": [
    {
      "inputs": [
        {
          "internalType": "string",
          "name": "_name",
          "type": "string"
        },
        {
          "internalType": "string",
          "name": "_symbol",
          "type": "string"
        },
        {
          "internalType": "bool",
          "name": "defaultRoyalty",
          "type": "bool"
        },
        {
          "internalType": "address[]",
          "name": "royaltyReceiver",
          "type": "address[]"
        },
        {
          "internalType": "uint96[]",
          "name": "royaltyFeesInBips",
          "type": "uint96[]"
        }
      ],
      "stateMutability": "nonpayable",
      "type": "constructor"
    },
    {
      "anonymous": false,
      "inputs": [
        {
          "indexed": true,
          "internalType": "address",
          "name": "owner",
          "type": "address"
        },
        {
          "indexed": true,
          "internalType": "address",
          "name": "approved",
          "type": "address"
        },
        {
          "indexed": true,
          "internalType": "uint256",
          "name": "tokenId",
          "type": "uint256"
        }
      ],
      "name": "Approval",
      "type": "event"
    },
    {
      "anonymous": false,
      "inputs": [
        {
          "indexed": true,
          "internalType": "address",
          "name": "owner",
          "type": "address"
        },
        {
          "indexed": true,
          "internalType": "address",
          "name": "operator",
          "type": "address"
        },
        {
          "indexed": false,
          "internalType": "bool",
          "name": "approved",
          "type": "bool"
        }
      ],
      "name": "ApprovalForAll",
      "type": "event"
    },
    {
      "anonymous": false,
      "inputs": [
        {
          "indexed": true,
          "internalType": "address",
          "name": "from",
          "type": "address"
        },
        {
          "indexed": true,
          "internalType": "address",
          "name": "to",
          "type": "address"
        },
        {
          "indexed": true,
          "internalType": "uint256",
          "name": "tokenId",
          "type": "uint256"
        }
      ],
      "name": "Transfer",
      "type": "event"
    },
    {
      "inputs": [
        {
          "internalType": "address",
          "name": "to",
          "type": "address"
        },
        {
          "internalType": "uint256",
          "name": "tokenId",
          "type": "uint256"
        }
      ],
      "name": "approve",
      "outputs": [],
      "stateMutability": "nonpayable",
      "type": "function"
    },
    {
      "inputs": [
        {
          "internalType": "address",
          "name": "owner",
          "type": "address"
        }
      ],
      "name": "balanceOf",
      "outputs": [
        {
          "internalType": "uint256",
          "name": "",
          "type": "uint256"
        }
      ],
      "stateMutability": "view",
      "type": "function"
    },
    {
      "inputs": [
        {
          "internalType": "uint256",
          "name": "tokenId",
          "type": "uint256"
        }
      ],
      "name": "getApproved",
      "outputs": [
        {
          "internalType": "address",
          "name": "",
          "type": "address"
        }
      ],
      "stateMutability": "view",
      "type": "function"
    },
    {
      "inputs": [
        {
          "internalType": "address",
          "name": "owner",
          "type": "address"
        },
        {
          "internalType": "address",
          "name": "operator",
          "type": "address"
        }
      ],
      "name": "isApprovedForAll",
      "outputs": [
        {
          "internalType": "bool",
          "name": "",
          "type": "bool"
        }
      ],
      "stateMutability": "view",
      "type": "function"
    },
    {
      "inputs": [],
      "name": "name",
      "outputs": [
        {
          "internalType": "string",
          "name": "",
          "type": "string"
        }
      ],
      "stateMutability": "view",
      "type": "function"
    },
    {
      "inputs": [
        {
          "internalType": "uint256",
          "name": "tokenId",
          "type": "uint256"
        }
      ],
      "name": "ownerOf",
      "outputs": [
        {
          "internalType": "address",
          "name": "",
          "type": "address"
        }
      ],
      "stateMutability": "view",
      "type": "function"
    },
    {
      "inputs": [
        {
          "internalType": "uint256",
          "name": "_tokenId",
          "type": "uint256"
        },
        {
          "internalType": "uint256",
          "name": "_salePrice",
          "type": "uint256"
        }
      ],
      "name": "royaltyInfo",
      "outputs": [
        {
          "internalType": "address[]",
          "name": "",
          "type": "address[]"
        },
        {
          "internalType": "uint256[]",
          "name": "",
          "type": "uint256[]"
        }
      ],
      "stateMutability": "nonpayable",
      "type": "function"
    },
    {
      "inputs": [
        {
          "internalType": "address",
          "name": "from",
          "type": "address"
        },
        {
          "internalType": "address",
          "name": "to",
          "type": "address"
        },
        {
          "internalType": "uint256",
          "name": "tokenId",
          "type": "uint256"
        }
      ],
      "name": "safeTransferFrom",
      "outputs": [],
      "stateMutability": "nonpayable",
      "type": "function"
    },
    {
      "inputs": [
        {
          "internalType": "address",
          "name": "from",
          "type": "address"
        },
        {
          "internalType": "address",
          "name": "to",
          "type": "address"
        },
        {
          "internalType": "uint256",
          "name": "tokenId",
          "type": "uint256"
        },
        {
          "internalType": "bytes",
          "name": "data",
          "type": "bytes"
        }
      ],
      "name": "safeTransferFrom",
      "outputs": [],
      "stateMutability": "nonpayable",
      "type": "function"
    },
    {
      "inputs": [
        {
          "internalType": "address",
          "name": "operator",
          "type": "address"
        },
        {
          "internalType": "bool",
          "name": "approved",
          "type": "bool"
        }
      ],
      "name": "setApprovalForAll",
      "outputs": [],
      "stateMutability": "nonpayable",
      "type": "function"
    },
    {
      "inputs": [
        {
          "internalType": "bytes4",
          "name": "interfaceId",
          "type": "bytes4"
        }
      ],
      "name": "supportsInterface",
      "outputs": [
        {
          "internalType": "bool",
          "name": "",
          "type": "bool"
        }
      ],
      "stateMutability": "view",
      "type": "function"
    },
    {
      "inputs": [],
      "name": "symbol",
      "outputs": [
        {
          "internalType": "string",
          "name": "",
          "type": "string"
        }
      ],
      "stateMutability": "view",
      "type": "function"
    },
    {
      "inputs": [
        {
          "internalType": "uint256",
          "name": "tokenId",
          "type": "uint256"
        }
      ],
      "name": "tokenURI",
      "outputs": [
        {
          "internalType": "string",
          "name": "",
          "type": "string"
        }
      ],
      "stateMutability": "view",
      "type": "function"
    },
    {
      "inputs": [
        {
          "internalType": "address",
          "name": "from",
          "type": "address"
        },
        {
          "internalType": "address",
          "name": "to",
          "type": "address"
        },
        {
          "internalType": "uint256",
          "name": "tokenId",
          "type": "uint256"
        }
      ],
      "name": "transferFrom",
      "outputs": [],
      "stateMutability": "nonpayable",
      "type": "function"
    }
  ],
  "bytecode": "0x60806040523480156200001157600080fd5b506040516200378f3803806200378f83398181016040528101906200003791906200072d565b848481600090805190602001906200005192919062000300565b5080600190805190602001906200006a92919062000300565b5050506000859050600085905060008251141580156200008c57506000815114155b620000ce576040517f08c379a0000000000000000000000000000000000000000000000000000000008152600401620000c59062000938565b60405180910390fd5b8415620000e857620000e78484620000f560201b60201c565b5b5050505050505062000e8e565b60008251116200013c576040517f08c379a0000000000000000000000000000000000000000000000000000000008152600401620001339062000916565b60405180910390fd5b60058251111562000184576040517f08c379a00000000000000000000000000000000000000000000000000000000081526004016200017b90620008f4565b60405180910390fd5b8051825114620001cb576040517f08c379a0000000000000000000000000000000000000000000000000000000008152600401620001c2906200095a565b60405180910390fd5b6000805b82518110156200022a57828181518110620001ef57620001ee62000c79565b5b60200260200101516bffffffffffffffffffffffff168262000212919062000a6c565b91508080620002219062000bcd565b915050620001cf565b506200023b620002f660201b60201c565b6bffffffffffffffffffffffff168111156200028e576040517f08c379a000000000000000000000000000000000000000000000000000000000815260040162000285906200097c565b60405180910390fd5b60608084905083915060405180604001604052808281526020018381525060066000820151816000019080519060200190620002cc92919062000391565b506020820151816001019080519060200190620002eb92919062000420565b509050505050505050565b6000612710905090565b8280546200030e9062000b61565b90600052602060002090601f0160209004810192826200033257600085556200037e565b82601f106200034d57805160ff19168380011785556200037e565b828001600101855582156200037e579182015b828111156200037d57825182559160200191906001019062000360565b5b5090506200038d9190620004ef565b5090565b8280548282559060005260206000209081019282156200040d579160200282015b828111156200040c5782518260006101000a81548173ffffffffffffffffffffffffffffffffffffffff021916908373ffffffffffffffffffffffffffffffffffffffff16021790555091602001919060010190620003b2565b5b5090506200041c9190620004ef565b5090565b82805482825590600052602060002090600101600290048101928215620004dc5791602002820160005b83821115620004a057835183826101000a8154816bffffffffffffffffffffffff02191690836bffffffffffffffffffffffff1602179055509260200192600c01602081600b010492830192600103026200044a565b8015620004da5782816101000a8154906bffffffffffffffffffffffff0219169055600c01602081600b01049283019260010302620004a0565b505b509050620004eb9190620004ef565b5090565b5b808211156200050a576000816000905550600101620004f0565b5090565b6000620005256200051f84620009c7565b6200099e565b905080838252602082019050828560208602820111156200054b576200054a62000cdc565b5b60005b858110156200057f57816200056488826200064f565b8452602084019350602083019250506001810190506200054e565b5050509392505050565b6000620005a06200059a84620009f6565b6200099e565b90508083825260208201905082856020860282011115620005c657620005c562000cdc565b5b60005b85811015620005fa5781620005df888262000716565b845260208401935060208301925050600181019050620005c9565b5050509392505050565b60006200061b620006158462000a25565b6200099e565b9050828152602081018484840111156200063a576200063962000ce1565b5b6200064784828562000b2b565b509392505050565b600081519050620006608162000e40565b92915050565b600082601f8301126200067e576200067d62000cd7565b5b8151620006908482602086016200050e565b91505092915050565b600082601f830112620006b157620006b062000cd7565b5b8151620006c384826020860162000589565b91505092915050565b600081519050620006dd8162000e5a565b92915050565b600082601f830112620006fb57620006fa62000cd7565b5b81516200070d84826020860162000604565b91505092915050565b600081519050620007278162000e74565b92915050565b600080600080600060a086880312156200074c576200074b62000ceb565b5b600086015167ffffffffffffffff8111156200076d576200076c62000ce6565b5b6200077b88828901620006e3565b955050602086015167ffffffffffffffff8111156200079f576200079e62000ce6565b5b620007ad88828901620006e3565b9450506040620007c088828901620006cc565b935050606086015167ffffffffffffffff811115620007e457620007e362000ce6565b5b620007f28882890162000666565b925050608086015167ffffffffffffffff81111562000816576200081562000ce6565b5b620008248882890162000699565b9150509295509295909350565b60006200084060228362000a5b565b91506200084d8262000d01565b604082019050919050565b600062000867601b8362000a5b565b9150620008748262000d50565b602082019050919050565b60006200088e60208362000a5b565b91506200089b8262000d79565b602082019050919050565b6000620008b5602c8362000a5b565b9150620008c28262000da2565b604082019050919050565b6000620008dc602a8362000a5b565b9150620008e98262000df1565b604082019050919050565b600060208201905081810360008301526200090f8162000831565b9050919050565b60006020820190508181036000830152620009318162000858565b9050919050565b6000602082019050818103600083015262000953816200087f565b9050919050565b600060208201905081810360008301526200097581620008a6565b9050919050565b600060208201905081810360008301526200099781620008cd565b9050919050565b6000620009aa620009bd565b9050620009b8828262000b97565b919050565b6000604051905090565b600067ffffffffffffffff821115620009e557620009e462000ca8565b5b602082029050602081019050919050565b600067ffffffffffffffff82111562000a145762000a1362000ca8565b5b602082029050602081019050919050565b600067ffffffffffffffff82111562000a435762000a4262000ca8565b5b62000a4e8262000cf0565b9050602081019050919050565b600082825260208201905092915050565b600062000a798262000b09565b915062000a868362000b09565b9250827fffffffffffffffffffffffffffffffffffffffffffffffffffffffffffffffff0382111562000abe5762000abd62000c1b565b5b828201905092915050565b600062000ad68262000ae9565b9050919050565b60008115159050919050565b600073ffffffffffffffffffffffffffffffffffffffff82169050919050565b6000819050919050565b60006bffffffffffffffffffffffff82169050919050565b60005b8381101562000b4b57808201518184015260208101905062000b2e565b8381111562000b5b576000848401525b50505050565b6000600282049050600182168062000b7a57607f821691505b6020821081141562000b915762000b9062000c4a565b5b50919050565b62000ba28262000cf0565b810181811067ffffffffffffffff8211171562000bc45762000bc362000ca8565b5b80604052505050565b600062000bda8262000b09565b91507fffffffffffffffffffffffffffffffffffffffffffffffffffffffffffffffff82141562000c105762000c0f62000c1b565b5b600182019050919050565b7f4e487b7100000000000000000000000000000000000000000000000000000000600052601160045260246000fd5b7f4e487b7100000000000000000000000000000000000000000000000000000000600052602260045260246000fd5b7f4e487b7100000000000000000000000000000000000000000000000000000000600052603260045260246000fd5b7f4e487b7100000000000000000000000000000000000000000000000000000000600052604160045260246000fd5b600080fd5b600080fd5b600080fd5b600080fd5b600080fd5b6000601f19601f8301169050919050565b7f546f6f206d616e7920726f79616c74792072656369657665727320646574616960008201527f6c73000000000000000000000000000000000000000000000000000000000000602082015250565b7f4e6f20526f79616c74792064657461696c732070726f76696465640000000000600082015250565b7f4552433732313a2043686f6f73652061206e616d6520616e642073796d626f6c600082015250565b7f4d69736d61746368206f6620526f79616c74792072656369657665727320616e60008201527f6420746865697220666565730000000000000000000000000000000000000000602082015250565b7f455243323938313a20726f79616c7479206665652077696c6c2065786365656460008201527f2073616c65507269636500000000000000000000000000000000000000000000602082015250565b62000e4b8162000ac9565b811462000e5757600080fd5b50565b62000e658162000add565b811462000e7157600080fd5b50565b62000e7f8162000b13565b811462000e8b57600080fd5b50565b6128f18062000e9e6000396000f3fe608060405234801561001057600080fd5b50600436106100ea5760003560e01c80636352211e1161008c578063a22cb46511610066578063a22cb46514610270578063b88d4fde1461028c578063c87b56dd146102a8578063e985e9c5146102d8576100ea565b80636352211e146101f257806370a082311461022257806395d89b4114610252576100ea565b8063095ea7b3116100c8578063095ea7b31461016d57806323b872dd146101895780632a55205a146101a557806342842e0e146101d6576100ea565b806301ffc9a7146100ef57806306fdde031461011f578063081812fc1461013d575b600080fd5b61010960048036038101906101049190611b0b565b610308565b6040516101169190611fa9565b60405180910390f35b61012761031a565b6040516101349190611fc4565b60405180910390f35b61015760048036038101906101529190611b65565b6103ac565b6040516101649190611f0b565b60405180910390f35b61018760048036038101906101829190611acb565b6103f2565b005b6101a3600480360381019061019e91906119b5565b61050a565b005b6101bf60048036038101906101ba9190611b92565b61056a565b6040516101cd929190611f72565b60405180910390f35b6101f060048036038101906101eb91906119b5565b610948565b005b61020c60048036038101906102079190611b65565b610968565b6040516102199190611f0b565b60405180910390f35b61023c60048036038101906102379190611948565b610a1a565b6040516102499190612106565b60405180910390f35b61025a610ad2565b6040516102679190611fc4565b60405180910390f35b61028a60048036038101906102859190611a8b565b610b64565b005b6102a660048036038101906102a19190611a08565b610b7a565b005b6102c260048036038101906102bd9190611b65565b610bdc565b6040516102cf9190611fc4565b60405180910390f35b6102f260048036038101906102ed9190611975565b610c44565b6040516102ff9190611fa9565b60405180910390f35b600061031382610cd8565b9050919050565b606060008054610329906123f7565b80601f0160208091040260200160405190810160405280929190818152602001828054610355906123f7565b80156103a25780601f10610377576101008083540402835291602001916103a2565b820191906000526020600020905b81548152906001019060200180831161038557829003601f168201915b5050505050905090565b60006103b782610d52565b6004600083815260200190815260200160002060009054906101000a900473ffffffffffffffffffffffffffffffffffffffff169050919050565b60006103fd82610968565b90508073ffffffffffffffffffffffffffffffffffffffff168373ffffffffffffffffffffffffffffffffffffffff16141561046e576040517f08c379a0000000000000000000000000000000000000000000000000000000008152600401610465906120c6565b60405180910390fd5b8073ffffffffffffffffffffffffffffffffffffffff1661048d610d9d565b73ffffffffffffffffffffffffffffffffffffffff1614806104bc57506104bb816104b6610d9d565b610c44565b5b6104fb576040517f08c379a00000000000000000000000000000000000000000000000000000000081526004016104f290612086565b60405180910390fd5b6105058383610da5565b505050565b61051b610515610d9d565b82610e5e565b61055a576040517f08c379a0000000000000000000000000000000000000000000000000000000008152600401610551906120e6565b60405180910390fd5b610565838383610ef3565b505050565b6060806000600860008681526020019081526020016000206040518060400160405290816000820180548060200260200160405190810160405280929190818152602001828054801561061257602002820191906000526020600020905b8160009054906101000a900473ffffffffffffffffffffffffffffffffffffffff1673ffffffffffffffffffffffffffffffffffffffff16815260200190600101908083116105c8575b50505050508152602001600182018054806020026020016040519081016040528092919081815260200182805480156106a657602002820191906000526020600020906000905b82829054906101000a90046bffffffffffffffffffffffff166bffffffffffffffffffffffff16815260200190600c0190602082600b010492830192600103820291508084116106595790505b5050505050815250509050600073ffffffffffffffffffffffffffffffffffffffff1681600001516000815181106106e1576106e0612561565b5b602002602001015173ffffffffffffffffffffffffffffffffffffffff1614156108375760066040518060400160405290816000820180548060200260200160405190810160405280929190818152602001828054801561079757602002820191906000526020600020905b8160009054906101000a900473ffffffffffffffffffffffffffffffffffffffff1673ffffffffffffffffffffffffffffffffffffffff168152602001906001019080831161074d575b505050505081526020016001820180548060200260200160405190810160405280929190818152602001828054801561082b57602002820191906000526020600020906000905b82829054906101000a90046bffffffffffffffffffffffff166bffffffffffffffffffffffff16815260200190600c0190602082600b010492830192600103820291508084116107de5790505b50505050508152505090505b61083f61115a565b60005b8160200151518110156108e257600961085961116a565b6bffffffffffffffffffffffff168360200151838151811061087e5761087d612561565b5b60200260200101516bffffffffffffffffffffffff168761089f91906122b3565b6108a99190612282565b908060018154018082558091505060019003906000526020600020016000909190919091505580806108da9061245a565b915050610842565b50806000015160098080548060200260200160405190810160405280929190818152602001828054801561093557602002820191906000526020600020905b815481526020019060010190808311610921575b5050505050905092509250509250929050565b61096383838360405180602001604052806000815250610b7a565b505050565b6000806002600084815260200190815260200160002060009054906101000a900473ffffffffffffffffffffffffffffffffffffffff169050600073ffffffffffffffffffffffffffffffffffffffff168173ffffffffffffffffffffffffffffffffffffffff161415610a11576040517f08c379a0000000000000000000000000000000000000000000000000000000008152600401610a08906120a6565b60405180910390fd5b80915050919050565b60008073ffffffffffffffffffffffffffffffffffffffff168273ffffffffffffffffffffffffffffffffffffffff161415610a8b576040517f08c379a0000000000000000000000000000000000000000000000000000000008152600401610a8290612066565b60405180910390fd5b600360008373ffffffffffffffffffffffffffffffffffffffff1673ffffffffffffffffffffffffffffffffffffffff168152602001908152602001600020549050919050565b606060018054610ae1906123f7565b80601f0160208091040260200160405190810160405280929190818152602001828054610b0d906123f7565b8015610b5a5780601f10610b2f57610100808354040283529160200191610b5a565b820191906000526020600020905b815481529060010190602001808311610b3d57829003601f168201915b5050505050905090565b610b76610b6f610d9d565b8383611174565b5050565b610b8b610b85610d9d565b83610e5e565b610bca576040517f08c379a0000000000000000000000000000000000000000000000000000000008152600401610bc1906120e6565b60405180910390fd5b610bd6848484846112e1565b50505050565b6060610be782610d52565b6000610bf161133d565b90506000815111610c115760405180602001604052806000815250610c3c565b80610c1b84611354565b604051602001610c2c929190611ee7565b6040516020818303038152906040525b915050919050565b6000600560008473ffffffffffffffffffffffffffffffffffffffff1673ffffffffffffffffffffffffffffffffffffffff16815260200190815260200160002060008373ffffffffffffffffffffffffffffffffffffffff1673ffffffffffffffffffffffffffffffffffffffff16815260200190815260200160002060009054906101000a900460ff16905092915050565b60007f2a55205a000000000000000000000000000000000000000000000000000000007bffffffffffffffffffffffffffffffffffffffffffffffffffffffff1916827bffffffffffffffffffffffffffffffffffffffffffffffffffffffff19161480610d4b5750610d4a826114b5565b5b9050919050565b610d5b81611597565b610d9a576040517f08c379a0000000000000000000000000000000000000000000000000000000008152600401610d91906120a6565b60405180910390fd5b50565b600033905090565b816004600083815260200190815260200160002060006101000a81548173ffffffffffffffffffffffffffffffffffffffff021916908373ffffffffffffffffffffffffffffffffffffffff160217905550808273ffffffffffffffffffffffffffffffffffffffff16610e1883610968565b73ffffffffffffffffffffffffffffffffffffffff167f8c5be1e5ebec7d5bd14f71427d1e84f3dd0314c0f7b2291e5b200ac8c7c3b92560405160405180910390a45050565b600080610e6a83610968565b90508073ffffffffffffffffffffffffffffffffffffffff168473ffffffffffffffffffffffffffffffffffffffff161480610eac5750610eab8185610c44565b5b80610eea57508373ffffffffffffffffffffffffffffffffffffffff16610ed2846103ac565b73ffffffffffffffffffffffffffffffffffffffff16145b91505092915050565b8273ffffffffffffffffffffffffffffffffffffffff16610f1382610968565b73ffffffffffffffffffffffffffffffffffffffff1614610f69576040517f08c379a0000000000000000000000000000000000000000000000000000000008152600401610f6090612006565b60405180910390fd5b600073ffffffffffffffffffffffffffffffffffffffff168273ffffffffffffffffffffffffffffffffffffffff161415610fd9576040517f08c379a0000000000000000000000000000000000000000000000000000000008152600401610fd090612026565b60405180910390fd5b610fe4838383611603565b610fef600082610da5565b6001600360008573ffffffffffffffffffffffffffffffffffffffff1673ffffffffffffffffffffffffffffffffffffffff168152602001908152602001600020600082825461103f919061230d565b925050819055506001600360008473ffffffffffffffffffffffffffffffffffffffff1673ffffffffffffffffffffffffffffffffffffffff1681526020019081526020016000206000828254611096919061222c565b92505081905550816002600083815260200190815260200160002060006101000a81548173ffffffffffffffffffffffffffffffffffffffff021916908373ffffffffffffffffffffffffffffffffffffffff160217905550808273ffffffffffffffffffffffffffffffffffffffff168473ffffffffffffffffffffffffffffffffffffffff167fddf252ad1be2c89b69c2b068fc378daa952ba7f163c4a11628f55a4df523b3ef60405160405180910390a4611155838383611608565b505050565b600960006111689190611831565b565b6000612710905090565b8173ffffffffffffffffffffffffffffffffffffffff168373ffffffffffffffffffffffffffffffffffffffff1614156111e3576040517f08c379a00000000000000000000000000000000000000000000000000000000081526004016111da90612046565b60405180910390fd5b80600560008573ffffffffffffffffffffffffffffffffffffffff1673ffffffffffffffffffffffffffffffffffffffff16815260200190815260200160002060008473ffffffffffffffffffffffffffffffffffffffff1673ffffffffffffffffffffffffffffffffffffffff16815260200190815260200160002060006101000a81548160ff0219169083151502179055508173ffffffffffffffffffffffffffffffffffffffff168373ffffffffffffffffffffffffffffffffffffffff167f17307eab39ab6107e8899845ad3d59bd9653f200f220920489ca2b5937696c31836040516112d49190611fa9565b60405180910390a3505050565b6112ec848484610ef3565b6112f88484848461160d565b611337576040517f08c379a000000000000000000000000000000000000000000000000000000000815260040161132e90611fe6565b60405180910390fd5b50505050565b606060405180602001604052806000815250905090565b6060600082141561139c576040518060400160405280600181526020017f300000000000000000000000000000000000000000000000000000000000000081525090506114b0565b600082905060005b600082146113ce5780806113b79061245a565b915050600a826113c79190612282565b91506113a4565b60008167ffffffffffffffff8111156113ea576113e9612590565b5b6040519080825280601f01601f19166020018201604052801561141c5781602001600182028036833780820191505090505b5090505b600085146114a957600182611435919061230d565b9150600a8561144491906124a3565b6030611450919061222c565b60f81b81838151811061146657611465612561565b5b60200101907effffffffffffffffffffffffffffffffffffffffffffffffffffffffffffff1916908160001a905350600a856114a29190612282565b9450611420565b8093505050505b919050565b60007f80ac58cd000000000000000000000000000000000000000000000000000000007bffffffffffffffffffffffffffffffffffffffffffffffffffffffff1916827bffffffffffffffffffffffffffffffffffffffffffffffffffffffff1916148061158057507f5b5e139f000000000000000000000000000000000000000000000000000000007bffffffffffffffffffffffffffffffffffffffffffffffffffffffff1916827bffffffffffffffffffffffffffffffffffffffffffffffffffffffff1916145b80611590575061158f826117a4565b5b9050919050565b60008073ffffffffffffffffffffffffffffffffffffffff166002600084815260200190815260200160002060009054906101000a900473ffffffffffffffffffffffffffffffffffffffff1673ffffffffffffffffffffffffffffffffffffffff1614159050919050565b505050565b505050565b600061162e8473ffffffffffffffffffffffffffffffffffffffff1661180e565b15611797578373ffffffffffffffffffffffffffffffffffffffff1663150b7a02611657610d9d565b8786866040518563ffffffff1660e01b81526004016116799493929190611f26565b602060405180830381600087803b15801561169357600080fd5b505af19250505080156116c457506040513d601f19601f820116820180604052508101906116c19190611b38565b60015b611747573d80600081146116f4576040519150601f19603f3d011682016040523d82523d6000602084013e6116f9565b606091505b5060008151141561173f576040517f08c379a000000000000000000000000000000000000000000000000000000000815260040161173690611fe6565b60405180910390fd5b805181602001fd5b63150b7a0260e01b7bffffffffffffffffffffffffffffffffffffffffffffffffffffffff1916817bffffffffffffffffffffffffffffffffffffffffffffffffffffffff19161491505061179c565b600190505b949350505050565b60007f01ffc9a7000000000000000000000000000000000000000000000000000000007bffffffffffffffffffffffffffffffffffffffffffffffffffffffff1916827bffffffffffffffffffffffffffffffffffffffffffffffffffffffff1916149050919050565b6000808273ffffffffffffffffffffffffffffffffffffffff163b119050919050565b508054600082559060005260206000209081019061184f9190611852565b50565b5b8082111561186b576000816000905550600101611853565b5090565b600061188261187d84612146565b612121565b90508281526020810184848401111561189e5761189d6125c4565b5b6118a98482856123b5565b509392505050565b6000813590506118c08161285f565b92915050565b6000813590506118d581612876565b92915050565b6000813590506118ea8161288d565b92915050565b6000815190506118ff8161288d565b92915050565b600082601f83011261191a576119196125bf565b5b813561192a84826020860161186f565b91505092915050565b600081359050611942816128a4565b92915050565b60006020828403121561195e5761195d6125ce565b5b600061196c848285016118b1565b91505092915050565b6000806040838503121561198c5761198b6125ce565b5b600061199a858286016118b1565b92505060206119ab858286016118b1565b9150509250929050565b6000806000606084860312156119ce576119cd6125ce565b5b60006119dc868287016118b1565b93505060206119ed868287016118b1565b92505060406119fe86828701611933565b9150509250925092565b60008060008060808587031215611a2257611a216125ce565b5b6000611a30878288016118b1565b9450506020611a41878288016118b1565b9350506040611a5287828801611933565b925050606085013567ffffffffffffffff811115611a7357611a726125c9565b5b611a7f87828801611905565b91505092959194509250565b60008060408385031215611aa257611aa16125ce565b5b6000611ab0858286016118b1565b9250506020611ac1858286016118c6565b9150509250929050565b60008060408385031215611ae257611ae16125ce565b5b6000611af0858286016118b1565b9250506020611b0185828601611933565b9150509250929050565b600060208284031215611b2157611b206125ce565b5b6000611b2f848285016118db565b91505092915050565b600060208284031215611b4e57611b4d6125ce565b5b6000611b5c848285016118f0565b91505092915050565b600060208284031215611b7b57611b7a6125ce565b5b6000611b8984828501611933565b91505092915050565b60008060408385031215611ba957611ba86125ce565b5b6000611bb785828601611933565b9250506020611bc885828601611933565b9150509250929050565b6000611bde8383611c02565b60208301905092915050565b6000611bf68383611ec9565b60208301905092915050565b611c0b81612341565b82525050565b611c1a81612341565b82525050565b6000611c2b82612197565b611c3581856121dd565b9350611c4083612177565b8060005b83811015611c71578151611c588882611bd2565b9750611c63836121c3565b925050600181019050611c44565b5085935050505092915050565b6000611c89826121a2565b611c9381856121ee565b9350611c9e83612187565b8060005b83811015611ccf578151611cb68882611bea565b9750611cc1836121d0565b925050600181019050611ca2565b5085935050505092915050565b611ce581612353565b82525050565b6000611cf6826121ad565b611d0081856121ff565b9350611d108185602086016123c4565b611d19816125d3565b840191505092915050565b6000611d2f826121b8565b611d398185612210565b9350611d498185602086016123c4565b611d52816125d3565b840191505092915050565b6000611d68826121b8565b611d728185612221565b9350611d828185602086016123c4565b80840191505092915050565b6000611d9b603283612210565b9150611da6826125e4565b604082019050919050565b6000611dbe602583612210565b9150611dc982612633565b604082019050919050565b6000611de1602483612210565b9150611dec82612682565b604082019050919050565b6000611e04601983612210565b9150611e0f826126d1565b602082019050919050565b6000611e27602983612210565b9150611e32826126fa565b604082019050919050565b6000611e4a603e83612210565b9150611e5582612749565b604082019050919050565b6000611e6d601883612210565b9150611e7882612798565b602082019050919050565b6000611e90602183612210565b9150611e9b826127c1565b604082019050919050565b6000611eb3602e83612210565b9150611ebe82612810565b604082019050919050565b611ed2816123ab565b82525050565b611ee1816123ab565b82525050565b6000611ef38285611d5d565b9150611eff8284611d5d565b91508190509392505050565b6000602082019050611f206000830184611c11565b92915050565b6000608082019050611f3b6000830187611c11565b611f486020830186611c11565b611f556040830185611ed8565b8181036060830152611f678184611ceb565b905095945050505050565b60006040820190508181036000830152611f8c8185611c20565b90508181036020830152611fa08184611c7e565b90509392505050565b6000602082019050611fbe6000830184611cdc565b92915050565b60006020820190508181036000830152611fde8184611d24565b905092915050565b60006020820190508181036000830152611fff81611d8e565b9050919050565b6000602082019050818103600083015261201f81611db1565b9050919050565b6000602082019050818103600083015261203f81611dd4565b9050919050565b6000602082019050818103600083015261205f81611df7565b9050919050565b6000602082019050818103600083015261207f81611e1a565b9050919050565b6000602082019050818103600083015261209f81611e3d565b9050919050565b600060208201905081810360008301526120bf81611e60565b9050919050565b600060208201905081810360008301526120df81611e83565b9050919050565b600060208201905081810360008301526120ff81611ea6565b9050919050565b600060208201905061211b6000830184611ed8565b92915050565b600061212b61213c565b90506121378282612429565b919050565b6000604051905090565b600067ffffffffffffffff82111561216157612160612590565b5b61216a826125d3565b9050602081019050919050565b6000819050602082019050919050565b6000819050602082019050919050565b600081519050919050565b600081519050919050565b600081519050919050565b600081519050919050565b6000602082019050919050565b6000602082019050919050565b600082825260208201905092915050565b600082825260208201905092915050565b600082825260208201905092915050565b600082825260208201905092915050565b600081905092915050565b6000612237826123ab565b9150612242836123ab565b9250827fffffffffffffffffffffffffffffffffffffffffffffffffffffffffffffffff03821115612277576122766124d4565b5b828201905092915050565b600061228d826123ab565b9150612298836123ab565b9250826122a8576122a7612503565b5b828204905092915050565b60006122be826123ab565b91506122c9836123ab565b9250817fffffffffffffffffffffffffffffffffffffffffffffffffffffffffffffffff0483118215151615612302576123016124d4565b5b828202905092915050565b6000612318826123ab565b9150612323836123ab565b925082821015612336576123356124d4565b5b828203905092915050565b600061234c8261238b565b9050919050565b60008115159050919050565b60007fffffffff0000000000000000000000000000000000000000000000000000000082169050919050565b600073ffffffffffffffffffffffffffffffffffffffff82169050919050565b6000819050919050565b82818337600083830152505050565b60005b838110156123e25780820151818401526020810190506123c7565b838111156123f1576000848401525b50505050565b6000600282049050600182168061240f57607f821691505b6020821081141561242357612422612532565b5b50919050565b612432826125d3565b810181811067ffffffffffffffff8211171561245157612450612590565b5b80604052505050565b6000612465826123ab565b91507fffffffffffffffffffffffffffffffffffffffffffffffffffffffffffffffff821415612498576124976124d4565b5b600182019050919050565b60006124ae826123ab565b91506124b9836123ab565b9250826124c9576124c8612503565b5b828206905092915050565b7f4e487b7100000000000000000000000000000000000000000000000000000000600052601160045260246000fd5b7f4e487b7100000000000000000000000000000000000000000000000000000000600052601260045260246000fd5b7f4e487b7100000000000000000000000000000000000000000000000000000000600052602260045260246000fd5b7f4e487b7100000000000000000000000000000000000000000000000000000000600052603260045260246000fd5b7f4e487b7100000000000000000000000000000000000000000000000000000000600052604160045260246000fd5b600080fd5b600080fd5b600080fd5b600080fd5b6000601f19601f8301169050919050565b7f4552433732313a207472616e7366657220746f206e6f6e20455243373231526560008201527f63656976657220696d706c656d656e7465720000000000000000000000000000602082015250565b7f4552433732313a207472616e736665722066726f6d20696e636f72726563742060008201527f6f776e6572000000000000000000000000000000000000000000000000000000602082015250565b7f4552433732313a207472616e7366657220746f20746865207a65726f2061646460008201527f7265737300000000000000000000000000000000000000000000000000000000602082015250565b7f4552433732313a20617070726f766520746f2063616c6c657200000000000000600082015250565b7f4552433732313a2061646472657373207a65726f206973206e6f74206120766160008201527f6c6964206f776e65720000000000000000000000000000000000000000000000602082015250565b7f4552433732313a20617070726f76652063616c6c6572206973206e6f7420746f60008201527f6b656e206f776e6572206e6f7220617070726f76656420666f7220616c6c0000602082015250565b7f4552433732313a20696e76616c696420746f6b656e2049440000000000000000600082015250565b7f4552433732313a20617070726f76616c20746f2063757272656e74206f776e6560008201527f7200000000000000000000000000000000000000000000000000000000000000602082015250565b7f4552433732313a2063616c6c6572206973206e6f7420746f6b656e206f776e6560008201527f72206e6f7220617070726f766564000000000000000000000000000000000000602082015250565b61286881612341565b811461287357600080fd5b50565b61287f81612353565b811461288a57600080fd5b50565b6128968161235f565b81146128a157600080fd5b50565b6128ad816123ab565b81146128b857600080fd5b5056fea264697066735822122020896bdcd240e4d0dbb4a494bec22baa644b380a79355b727a6b4cade547417e64736f6c63430008060033",
  "linkReferences": {},
  "deployedLinkReferences": {}
}