{
  "_format": "hh-sol-artifact-1",
  "contractName": "SBTFactory",
  "sourceName": "contracts/factoryContracts/SBTFactory.sol",
  "abi": [
    {
      "inputs": [
        {
          "internalType": "string",
          "name": "name_",
          "type": "string"
        },
        {
          "internalType": "string",
          "name": "symbol_",
          "type": "string"
        }
      ],
      "stateMutability": "nonpayable",
      "type": "constructor"
    },
    {
      "anonymous": false,
      "inputs": [
        {
          "indexed": true,
          "internalType": "address",
          "name": "_to",
          "type": "address"
        },
        {
          "indexed": true,
          "internalType": "uint256",
          "name": "_tokenId",
          "type": "uint256"
        }
      ],
      "name": "Attest",
      "type": "event"
    },
    {
      "anonymous": false,
      "inputs": [
        {
          "indexed": true,
          "internalType": "address",
          "name": "from",
          "type": "address"
        },
        {
          "indexed": true,
          "internalType": "address",
          "name": "to",
          "type": "address"
        },
        {
          "indexed": true,
          "internalType": "uint256",
          "name": "tokenId",
          "type": "uint256"
        },
        {
          "indexed": false,
          "internalType": "enum IERC5484.BurnAuth",
          "name": "burnAuth",
          "type": "uint8"
        }
      ],
      "name": "Issued",
      "type": "event"
    },
    {
      "anonymous": false,
      "inputs": [
        {
          "indexed": true,
          "internalType": "address",
          "name": "_to",
          "type": "address"
        },
        {
          "indexed": true,
          "internalType": "uint256",
          "name": "_tokenId",
          "type": "uint256"
        }
      ],
      "name": "Revoke",
      "type": "event"
    },
    {
      "anonymous": false,
      "inputs": [
        {
          "indexed": false,
          "internalType": "bool",
          "name": "whitelistEnabled",
          "type": "bool"
        }
      ],
      "name": "WhiteListEnabled",
      "type": "event"
    },
    {
      "anonymous": false,
      "inputs": [
        {
          "indexed": false,
          "internalType": "uint256",
          "name": "newExpiration",
          "type": "uint256"
        },
        {
          "indexed": false,
          "internalType": "uint256",
          "name": "_tokenId",
          "type": "uint256"
        }
      ],
      "name": "extendExpiry",
      "type": "event"
    },
    {
      "anonymous": false,
      "inputs": [
        {
          "indexed": false,
          "internalType": "address",
          "name": "",
          "type": "address"
        },
        {
          "indexed": false,
          "internalType": "address",
          "name": "",
          "type": "address"
        },
        {
          "indexed": false,
          "internalType": "uint256",
          "name": "",
          "type": "uint256"
        },
        {
          "indexed": false,
          "internalType": "uint256",
          "name": "",
          "type": "uint256"
        }
      ],
      "name": "issuedMany",
      "type": "event"
    },
    {
      "anonymous": false,
      "inputs": [
        {
          "indexed": false,
          "internalType": "address",
          "name": "",
          "type": "address"
        },
        {
          "indexed": false,
          "internalType": "address",
          "name": "",
          "type": "address"
        },
        {
          "indexed": false,
          "internalType": "uint256",
          "name": "",
          "type": "uint256"
        },
        {
          "indexed": false,
          "internalType": "uint256",
          "name": "",
          "type": "uint256"
        }
      ],
      "name": "issuedOne",
      "type": "event"
    },
    {
      "inputs": [
        {
          "internalType": "uint256",
          "name": "tokenId",
          "type": "uint256"
        }
      ],
      "name": "burn",
      "outputs": [],
      "stateMutability": "nonpayable",
      "type": "function"
    },
    {
      "inputs": [
        {
          "internalType": "uint256",
          "name": "tokenId",
          "type": "uint256"
        }
      ],
      "name": "burnAuth",
      "outputs": [
        {
          "internalType": "enum IERC5484.BurnAuth",
          "name": "",
          "type": "uint8"
        }
      ],
      "stateMutability": "view",
      "type": "function"
    },
    {
      "inputs": [],
      "name": "creator",
      "outputs": [
        {
          "internalType": "address",
          "name": "",
          "type": "address"
        }
      ],
      "stateMutability": "view",
      "type": "function"
    },
    {
      "inputs": [
        {
          "internalType": "uint256",
          "name": "newExpiration",
          "type": "uint256"
        },
        {
          "internalType": "uint256",
          "name": "_tokenId",
          "type": "uint256"
        }
      ],
      "name": "extend",
      "outputs": [],
      "stateMutability": "nonpayable",
      "type": "function"
    },
    {
      "inputs": [
        {
          "internalType": "uint256",
          "name": "_tokenId",
          "type": "uint256"
        }
      ],
      "name": "getExpDate",
      "outputs": [
        {
          "internalType": "uint256",
          "name": "_expDate",
          "type": "uint256"
        },
        {
          "internalType": "address",
          "name": "_user",
          "type": "address"
        }
      ],
      "stateMutability": "view",
      "type": "function"
    },
    {
      "inputs": [
        {
          "internalType": "address[]",
          "name": "_recipient",
          "type": "address[]"
        },
        {
          "internalType": "string[]",
          "name": "_uri",
          "type": "string[]"
        },
        {
          "internalType": "uint256[]",
          "name": "_expires",
          "type": "uint256[]"
        }
      ],
      "name": "issueMany",
      "outputs": [],
      "stateMutability": "nonpayable",
      "type": "function"
    },
    {
      "inputs": [
        {
          "internalType": "address",
          "name": "_recipient",
          "type": "address"
        },
        {
          "internalType": "string",
          "name": "_uri",
          "type": "string"
        },
        {
          "internalType": "uint256",
          "name": "_expires",
          "type": "uint256"
        }
      ],
      "name": "issueOne",
      "outputs": [],
      "stateMutability": "nonpayable",
      "type": "function"
    },
    {
      "inputs": [],
      "name": "maxMintLimit",
      "outputs": [
        {
          "internalType": "uint256",
          "name": "",
          "type": "uint256"
        }
      ],
      "stateMutability": "view",
      "type": "function"
    },
    {
      "inputs": [],
      "name": "name",
      "outputs": [
        {
          "internalType": "string",
          "name": "",
          "type": "string"
        }
      ],
      "stateMutability": "view",
      "type": "function"
    },
    {
      "inputs": [
        {
          "internalType": "uint256",
          "name": "tokenId",
          "type": "uint256"
        }
      ],
      "name": "ownerOf",
      "outputs": [
        {
          "internalType": "address",
          "name": "",
          "type": "address"
        }
      ],
      "stateMutability": "view",
      "type": "function"
    },
    {
      "inputs": [
        {
          "internalType": "address[]",
          "name": "currentAddresses",
          "type": "address[]"
        }
      ],
      "name": "removeWhitelist",
      "outputs": [],
      "stateMutability": "nonpayable",
      "type": "function"
    },
    {
      "inputs": [
        {
          "internalType": "uint256",
          "name": "_newMaxMintLimit",
          "type": "uint256"
        }
      ],
      "name": "setMaxMintLimit",
      "outputs": [],
      "stateMutability": "nonpayable",
      "type": "function"
    },
    {
      "inputs": [
        {
          "internalType": "uint256",
          "name": "tokenId",
          "type": "uint256"
        },
        {
          "internalType": "string",
          "name": "newuri",
          "type": "string"
        }
      ],
      "name": "setURI",
      "outputs": [],
      "stateMutability": "nonpayable",
      "type": "function"
    },
    {
      "inputs": [
        {
          "internalType": "address[]",
          "name": "newAddresses",
          "type": "address[]"
        }
      ],
      "name": "setWhitelist",
      "outputs": [],
      "stateMutability": "nonpayable",
      "type": "function"
    },
    {
      "inputs": [
        {
          "internalType": "bool",
          "name": "_state",
          "type": "bool"
        }
      ],
      "name": "setWhitelistEnabled",
      "outputs": [],
      "stateMutability": "nonpayable",
      "type": "function"
    },
    {
      "inputs": [
        {
          "internalType": "bytes4",
          "name": "interfaceId",
          "type": "bytes4"
        }
      ],
      "name": "supportsInterface",
      "outputs": [
        {
          "internalType": "bool",
          "name": "",
          "type": "bool"
        }
      ],
      "stateMutability": "view",
      "type": "function"
    },
    {
      "inputs": [],
      "name": "symbol",
      "outputs": [
        {
          "internalType": "string",
          "name": "",
          "type": "string"
        }
      ],
      "stateMutability": "view",
      "type": "function"
    },
    {
      "inputs": [
        {
          "internalType": "uint256",
          "name": "tokenId",
          "type": "uint256"
        }
      ],
      "name": "tokenURI",
      "outputs": [
        {
          "internalType": "string",
          "name": "",
          "type": "string"
        }
      ],
      "stateMutability": "view",
      "type": "function"
    },
    {
      "inputs": [
        {
          "internalType": "address",
          "name": "",
          "type": "address"
        }
      ],
      "name": "whitelist",
      "outputs": [
        {
          "internalType": "bool",
          "name": "",
          "type": "bool"
        }
      ],
      "stateMutability": "view",
      "type": "function"
    },
    {
      "inputs": [],
      "name": "whitelistEnabled",
      "outputs": [
        {
          "internalType": "bool",
          "name": "",
          "type": "bool"
        }
      ],
      "stateMutability": "view",
      "type": "function"
    }
  ],
  "bytecode": "0x60806040526005805560006009556000600a60006101000a81548160ff0219169083151502179055503480156200003557600080fd5b506040516200359d3803806200359d83398181016040528101906200005b919062000327565b8181816000908051906020019062000075929190620000da565b5080600190805190602001906200008e929190620000da565b50505033600460006101000a81548173ffffffffffffffffffffffffffffffffffffffff021916908373ffffffffffffffffffffffffffffffffffffffff160217905550505062000411565b828054620000e890620003db565b90600052602060002090601f0160209004810192826200010c576000855562000158565b82601f106200012757805160ff191683800117855562000158565b8280016001018555821562000158579182015b82811115620001575782518255916020019190600101906200013a565b5b5090506200016791906200016b565b5090565b5b80821115620001865760008160009055506001016200016c565b5090565b6000604051905090565b600080fd5b600080fd5b600080fd5b600080fd5b6000601f19601f8301169050919050565b7f4e487b7100000000000000000000000000000000000000000000000000000000600052604160045260246000fd5b620001f382620001a8565b810181811067ffffffffffffffff82111715620002155762000214620001b9565b5b80604052505050565b60006200022a6200018a565b9050620002388282620001e8565b919050565b600067ffffffffffffffff8211156200025b576200025a620001b9565b5b6200026682620001a8565b9050602081019050919050565b60005b838110156200029357808201518184015260208101905062000276565b83811115620002a3576000848401525b50505050565b6000620002c0620002ba846200023d565b6200021e565b905082815260208101848484011115620002df57620002de620001a3565b5b620002ec84828562000273565b509392505050565b600082601f8301126200030c576200030b6200019e565b5b81516200031e848260208601620002a9565b91505092915050565b6000806040838503121562000341576200034062000194565b5b600083015167ffffffffffffffff81111562000362576200036162000199565b5b6200037085828601620002f4565b925050602083015167ffffffffffffffff81111562000394576200039362000199565b5b620003a285828601620002f4565b9150509250929050565b7f4e487b7100000000000000000000000000000000000000000000000000000000600052602260045260246000fd5b60006002820490506001821680620003f457607f821691505b602082108114156200040b576200040a620003ac565b5b50919050565b61317c80620004216000396000f3fe608060405234801561001057600080fd5b506004361061012c5760003560e01c806370e2f827116100ad578063c89258db11610071578063c89258db14610358578063e6fb233514610374578063edfd64ce14610390578063f4217648146103ac578063f926b50c146103c85761012c565b806370e2f827146102a0578063862440e2146102be57806395d89b41146102da5780639b19251a146102f8578063c87b56dd146103285761012c565b806320de2631116100f457806320de2631146101e9578063232452161461021a57806342966c681461023657806351fb012d146102525780636352211e146102705761012c565b806301ffc9a71461013157806302d05d3f146101615780630489b56f1461017f578063052d9e7e146101af57806306fdde03146101cb575b600080fd5b61014b60048036038101906101469190611ffc565b6103e4565b6040516101589190612044565b60405180910390f35b6101696104c6565b60405161017691906120a0565b60405180910390f35b610199600480360381019061019491906120f1565b6104ec565b6040516101a69190612195565b60405180910390f35b6101c960048036038101906101c491906121dc565b610516565b005b6101d36105c3565b6040516101e091906122a2565b60405180910390f35b61020360048036038101906101fe91906120f1565b610655565b6040516102119291906122d3565b60405180910390f35b610234600480360381019061022f9190612361565b610703565b005b610250600480360381019061024b91906120f1565b6108d4565b005b61025a610c92565b6040516102679190612044565b60405180910390f35b61028a600480360381019061028591906120f1565b610ca5565b60405161029791906120a0565b60405180910390f35b6102a8610d57565b6040516102b591906123ae565b60405180910390f35b6102d860048036038101906102d391906124f9565b610d5d565b005b6102e2610f27565b6040516102ef91906122a2565b60405180910390f35b610312600480360381019061030d9190612581565b610fb9565b60405161031f9190612044565b60405180910390f35b610342600480360381019061033d91906120f1565b610fd9565b60405161034f91906122a2565b60405180910390f35b610372600480360381019061036d91906125ae565b6110c6565b005b61038e60048036038101906103899190612855565b611238565b005b6103aa60048036038101906103a591906128fc565b61162a565b005b6103c660048036038101906103c19190612361565b6118d3565b005b6103e260048036038101906103dd91906120f1565b611af3565b005b60007f5b5e139f000000000000000000000000000000000000000000000000000000007bffffffffffffffffffffffffffffffffffffffffffffffffffffffff1916827bffffffffffffffffffffffffffffffffffffffffffffffffffffffff191614806104af57507f21c44d76000000000000000000000000000000000000000000000000000000007bffffffffffffffffffffffffffffffffffffffffffffffffffffffff1916827bffffffffffffffffffffffffffffffffffffffffffffffffffffffff1916145b806104bf57506104be82611b8d565b5b9050919050565b600460009054906101000a900473ffffffffffffffffffffffffffffffffffffffff1681565b60006007600083815260200190815260200160002060009054906101000a900460ff169050919050565b600460009054906101000a900473ffffffffffffffffffffffffffffffffffffffff1673ffffffffffffffffffffffffffffffffffffffff163373ffffffffffffffffffffffffffffffffffffffff16146105a6576040517f08c379a000000000000000000000000000000000000000000000000000000000815260040161059d906129b7565b60405180910390fd5b80600a60006101000a81548160ff02191690831515021790555050565b6060600080546105d290612a06565b80601f01602080910402602001604051908101604052809291908181526020018280546105fe90612a06565b801561064b5780601f106106205761010080835404028352916020019161064b565b820191906000526020600020905b81548152906001019060200180831161062e57829003601f168201915b5050505050905090565b60008061066183611bf7565b6106a0576040517f08c379a000000000000000000000000000000000000000000000000000000000815260040161069790612aaa565b60405180910390fd5b60006006600085815260200190815260200160002060010154905060006006600086815260200190815260200160002060000160009054906101000a900473ffffffffffffffffffffffffffffffffffffffff1690508181935093505050915091565b600460009054906101000a900473ffffffffffffffffffffffffffffffffffffffff1673ffffffffffffffffffffffffffffffffffffffff163373ffffffffffffffffffffffffffffffffffffffff1614610793576040517f08c379a000000000000000000000000000000000000000000000000000000000815260040161078a906129b7565b60405180910390fd5b600082829050116107d9576040517f08c379a00000000000000000000000000000000000000000000000000000000081526004016107d090612b16565b60405180910390fd5b6005828290501115610820576040517f08c379a000000000000000000000000000000000000000000000000000000000815260040161081790612b82565b60405180910390fd5b60005b828290508110156108cf57600b600084848481811061084557610844612ba2565b5b905060200201602081019061085a9190612581565b73ffffffffffffffffffffffffffffffffffffffff1673ffffffffffffffffffffffffffffffffffffffff16815260200190815260200160002060006101000a81549060ff0219169055600960008154809291906108b790612c00565b919050555080806108c790612c2a565b915050610823565b505050565b600060038111156108e8576108e761211e565b5b6007600083815260200190815260200160002060009054906101000a900460ff16600381111561091b5761091a61211e565b5b14156109b257600460009054906101000a900473ffffffffffffffffffffffffffffffffffffffff1673ffffffffffffffffffffffffffffffffffffffff163373ffffffffffffffffffffffffffffffffffffffff16146109b1576040517f08c379a00000000000000000000000000000000000000000000000000000000081526004016109a890612cbf565b60405180910390fd5b5b600160038111156109c6576109c561211e565b5b6007600083815260200190815260200160002060009054906101000a900460ff1660038111156109f9576109f861211e565b5b1415610aa157600d600082815260200190815260200160002060009054906101000a900473ffffffffffffffffffffffffffffffffffffffff1673ffffffffffffffffffffffffffffffffffffffff163373ffffffffffffffffffffffffffffffffffffffff1614610aa0576040517f08c379a0000000000000000000000000000000000000000000000000000000008152600401610a9790612cbf565b60405180910390fd5b5b60026003811115610ab557610ab461211e565b5b6007600083815260200190815260200160002060009054906101000a900460ff166003811115610ae857610ae761211e565b5b1415610be857600460009054906101000a900473ffffffffffffffffffffffffffffffffffffffff1673ffffffffffffffffffffffffffffffffffffffff163373ffffffffffffffffffffffffffffffffffffffff161480610ba85750600d600082815260200190815260200160002060009054906101000a900473ffffffffffffffffffffffffffffffffffffffff1673ffffffffffffffffffffffffffffffffffffffff163373ffffffffffffffffffffffffffffffffffffffff16145b610be7576040517f08c379a0000000000000000000000000000000000000000000000000000000008152600401610bde90612cbf565b60405180910390fd5b5b610bf181611c63565b6007600082815260200190815260200160002060006101000a81549060ff021916905560066000828152602001908152602001600020600080820160006101000a81549073ffffffffffffffffffffffffffffffffffffffff021916905560018201600090555050600d600082815260200190815260200160002060006101000a81549073ffffffffffffffffffffffffffffffffffffffff021916905550565b600a60009054906101000a900460ff1681565b6000806002600084815260200190815260200160002060009054906101000a900473ffffffffffffffffffffffffffffffffffffffff169050600073ffffffffffffffffffffffffffffffffffffffff168173ffffffffffffffffffffffffffffffffffffffff161415610d4e576040517f08c379a0000000000000000000000000000000000000000000000000000000008152600401610d4590612d2b565b60405180910390fd5b80915050919050565b60055481565b610d6682611bf7565b610da5576040517f08c379a0000000000000000000000000000000000000000000000000000000008152600401610d9c90612d97565b60405180910390fd5b60001515600a60009054906101000a900460ff1615151415610e5257600460009054906101000a900473ffffffffffffffffffffffffffffffffffffffff1673ffffffffffffffffffffffffffffffffffffffff163373ffffffffffffffffffffffffffffffffffffffff1614610e51576040517f08c379a0000000000000000000000000000000000000000000000000000000008152600401610e4890612e03565b60405180910390fd5b5b60011515600a60009054906101000a900460ff1615151415610efb57600b60003373ffffffffffffffffffffffffffffffffffffffff1673ffffffffffffffffffffffffffffffffffffffff16815260200190815260200160002060009054906101000a900460ff16610efa576040517f08c379a0000000000000000000000000000000000000000000000000000000008152600401610ef190612e03565b60405180910390fd5b5b80600860008481526020019081526020016000209080519060200190610f22929190611ead565b505050565b606060018054610f3690612a06565b80601f0160208091040260200160405190810160405280929190818152602001828054610f6290612a06565b8015610faf5780601f10610f8457610100808354040283529160200191610faf565b820191906000526020600020905b815481529060010190602001808311610f9257829003601f168201915b5050505050905090565b600b6020528060005260406000206000915054906101000a900460ff1681565b6060610fe482611bf7565b611023576040517f08c379a000000000000000000000000000000000000000000000000000000000815260040161101a90612d97565b60405180910390fd5b60086000838152602001908152602001600020805461104190612a06565b80601f016020809104026020016040519081016040528092919081815260200182805461106d90612a06565b80156110ba5780601f1061108f576101008083540402835291602001916110ba565b820191906000526020600020905b81548152906001019060200180831161109d57829003601f168201915b50505050509050919050565b600460009054906101000a900473ffffffffffffffffffffffffffffffffffffffff1673ffffffffffffffffffffffffffffffffffffffff163373ffffffffffffffffffffffffffffffffffffffff1614611156576040517f08c379a000000000000000000000000000000000000000000000000000000000815260040161114d90612e6f565b60405180910390fd5b428211611198576040517f08c379a000000000000000000000000000000000000000000000000000000000815260040161118f90612edb565b60405180910390fd5b6111a181611bf7565b6111e0576040517f08c379a00000000000000000000000000000000000000000000000000000000081526004016111d790612aaa565b60405180910390fd5b8160066000838152602001908152602001600020600101819055507fc3cab38a9095927d9fdede40d6377633c260b349f9d28564ebb4ed424048b3c5828260405161122c929190612efb565b60405180910390a15050565b6005548351111561127e576040517f08c379a000000000000000000000000000000000000000000000000000000000815260040161127590612f96565b60405180910390fd5b81518351148015611290575080518351145b6112cf576040517f08c379a00000000000000000000000000000000000000000000000000000000081526004016112c690613028565b60405180910390fd5b60001515600a60009054906101000a900460ff161515141561137c57600460009054906101000a900473ffffffffffffffffffffffffffffffffffffffff1673ffffffffffffffffffffffffffffffffffffffff163373ffffffffffffffffffffffffffffffffffffffff161461137b576040517f08c379a000000000000000000000000000000000000000000000000000000000815260040161137290612e03565b60405180910390fd5b5b60011515600a60009054906101000a900460ff161515141561142557600b60003373ffffffffffffffffffffffffffffffffffffffff1673ffffffffffffffffffffffffffffffffffffffff16815260200190815260200160002060009054906101000a900460ff16611424576040517f08c379a000000000000000000000000000000000000000000000000000000000815260040161141b90612e03565b60405180910390fd5b5b60005b835181101561162457600061143d600c611d0d565b9050611449600c611d1b565b61148885838151811061145f5761145e612ba2565b5b60200260200101518286858151811061147b5761147a612ba2565b5b6020026020010151611d31565b5060026007600083815260200190815260200160002060006101000a81548160ff021916908360038111156114c0576114bf61211e565b5b02179055508482815181106114d8576114d7612ba2565b5b6020026020010151600d600083815260200190815260200160002060006101000a81548173ffffffffffffffffffffffffffffffffffffffff021916908373ffffffffffffffffffffffffffffffffffffffff1602179055506115708186848151811061154857611547612ba2565b5b602002602001015185858151811061156357611562612ba2565b5b6020026020010151611e44565b8085838151811061158457611583612ba2565b5b602002602001015173ffffffffffffffffffffffffffffffffffffffff163373ffffffffffffffffffffffffffffffffffffffff167f135ffb3383e06280e062ac5095bbf8faa98517161e596a2536bd98a9a8b64a886007600086815260200190815260200160002060009054906101000a900460ff166040516116089190612195565b60405180910390a450808061161c90612c2a565b915050611428565b50505050565b60001515600a60009054906101000a900460ff16151514156116d757600460009054906101000a900473ffffffffffffffffffffffffffffffffffffffff1673ffffffffffffffffffffffffffffffffffffffff163373ffffffffffffffffffffffffffffffffffffffff16146116d6576040517f08c379a00000000000000000000000000000000000000000000000000000000081526004016116cd90612e03565b60405180910390fd5b5b60011515600a60009054906101000a900460ff161515141561178057600b60003373ffffffffffffffffffffffffffffffffffffffff1673ffffffffffffffffffffffffffffffffffffffff16815260200190815260200160002060009054906101000a900460ff1661177f576040517f08c379a000000000000000000000000000000000000000000000000000000000815260040161177690612e03565b60405180910390fd5b5b600061178c600c611d0d565b9050611798600c611d1b565b6117a3848285611d31565b506117ae8184610d5d565b60026007600083815260200190815260200160002060006101000a81548160ff021916908360038111156117e5576117e461211e565b5b021790555083600d600083815260200190815260200160002060006101000a81548173ffffffffffffffffffffffffffffffffffffffff021916908373ffffffffffffffffffffffffffffffffffffffff160217905550611847818584611e44565b808473ffffffffffffffffffffffffffffffffffffffff163373ffffffffffffffffffffffffffffffffffffffff167f135ffb3383e06280e062ac5095bbf8faa98517161e596a2536bd98a9a8b64a886007600086815260200190815260200160002060009054906101000a900460ff166040516118c59190612195565b60405180910390a450505050565b600460009054906101000a900473ffffffffffffffffffffffffffffffffffffffff1673ffffffffffffffffffffffffffffffffffffffff163373ffffffffffffffffffffffffffffffffffffffff1614611963576040517f08c379a000000000000000000000000000000000000000000000000000000000815260040161195a906129b7565b60405180910390fd5b600082829050116119a9576040517f08c379a00000000000000000000000000000000000000000000000000000000081526004016119a090612b16565b60405180910390fd5b6107d082829050106119f0576040517f08c379a00000000000000000000000000000000000000000000000000000000081526004016119e790612b82565b60405180910390fd5b60005b82829050811015611aee576107d060095410611a44576040517f08c379a0000000000000000000000000000000000000000000000000000000008152600401611a3b906130ba565b60405180910390fd5b6001600b6000858585818110611a5d57611a5c612ba2565b5b9050602002016020810190611a729190612581565b73ffffffffffffffffffffffffffffffffffffffff1673ffffffffffffffffffffffffffffffffffffffff16815260200190815260200160002060006101000a81548160ff02191690831515021790555060096000815480929190611ad690612c2a565b91905055508080611ae690612c2a565b9150506119f3565b505050565b600460009054906101000a900473ffffffffffffffffffffffffffffffffffffffff1673ffffffffffffffffffffffffffffffffffffffff163373ffffffffffffffffffffffffffffffffffffffff1614611b83576040517f08c379a0000000000000000000000000000000000000000000000000000000008152600401611b7a906129b7565b60405180910390fd5b8060058190555050565b60007f01ffc9a7000000000000000000000000000000000000000000000000000000007bffffffffffffffffffffffffffffffffffffffffffffffffffffffff1916827bffffffffffffffffffffffffffffffffffffffffffffffffffffffff1916149050919050565b60008073ffffffffffffffffffffffffffffffffffffffff166002600084815260200190815260200160002060009054906101000a900473ffffffffffffffffffffffffffffffffffffffff1673ffffffffffffffffffffffffffffffffffffffff1614159050919050565b6000611c6e82610ca5565b90506002600083815260200190815260200160002060006101000a81549073ffffffffffffffffffffffffffffffffffffffff0219169055600360008381526020019081526020016000206000611cc59190611f33565b818173ffffffffffffffffffffffffffffffffffffffff167fec9ab91322523c899ede7830ec9bfc992b5981cdcc27b91162fb23de5791117b60405160405180910390a35050565b600081600001549050919050565b6001816000016000828254019250508190555050565b6000611d3c83611bf7565b15611d7c576040517f08c379a0000000000000000000000000000000000000000000000000000000008152600401611d7390613126565b60405180910390fd5b836002600085815260200190815260200160002060006101000a81548173ffffffffffffffffffffffffffffffffffffffff021916908373ffffffffffffffffffffffffffffffffffffffff16021790555081600360008581526020019081526020016000209080519060200190611df5929190611ead565b50828473ffffffffffffffffffffffffffffffffffffffff167fe9274a84b19e9428826de6bae8c48329354f8f0e73f771b97cae2d9dccd45a2760405160405180910390a38290509392505050565b6000600660008581526020019081526020016000209050828160000160006101000a81548173ffffffffffffffffffffffffffffffffffffffff021916908373ffffffffffffffffffffffffffffffffffffffff16021790555081816001018190555050505050565b828054611eb990612a06565b90600052602060002090601f016020900481019282611edb5760008555611f22565b82601f10611ef457805160ff1916838001178555611f22565b82800160010185558215611f22579182015b82811115611f21578251825591602001919060010190611f06565b5b509050611f2f9190611f73565b5090565b508054611f3f90612a06565b6000825580601f10611f515750611f70565b601f016020900490600052602060002090810190611f6f9190611f73565b5b50565b5b80821115611f8c576000816000905550600101611f74565b5090565b6000604051905090565b600080fd5b600080fd5b60007fffffffff0000000000000000000000000000000000000000000000000000000082169050919050565b611fd981611fa4565b8114611fe457600080fd5b50565b600081359050611ff681611fd0565b92915050565b60006020828403121561201257612011611f9a565b5b600061202084828501611fe7565b91505092915050565b60008115159050919050565b61203e81612029565b82525050565b60006020820190506120596000830184612035565b92915050565b600073ffffffffffffffffffffffffffffffffffffffff82169050919050565b600061208a8261205f565b9050919050565b61209a8161207f565b82525050565b60006020820190506120b56000830184612091565b92915050565b6000819050919050565b6120ce816120bb565b81146120d957600080fd5b50565b6000813590506120eb816120c5565b92915050565b60006020828403121561210757612106611f9a565b5b6000612115848285016120dc565b91505092915050565b7f4e487b7100000000000000000000000000000000000000000000000000000000600052602160045260246000fd5b6004811061215e5761215d61211e565b5b50565b600081905061216f8261214d565b919050565b600061217f82612161565b9050919050565b61218f81612174565b82525050565b60006020820190506121aa6000830184612186565b92915050565b6121b981612029565b81146121c457600080fd5b50565b6000813590506121d6816121b0565b92915050565b6000602082840312156121f2576121f1611f9a565b5b6000612200848285016121c7565b91505092915050565b600081519050919050565b600082825260208201905092915050565b60005b83811015612243578082015181840152602081019050612228565b83811115612252576000848401525b50505050565b6000601f19601f8301169050919050565b600061227482612209565b61227e8185612214565b935061228e818560208601612225565b61229781612258565b840191505092915050565b600060208201905081810360008301526122bc8184612269565b905092915050565b6122cd816120bb565b82525050565b60006040820190506122e860008301856122c4565b6122f56020830184612091565b9392505050565b600080fd5b600080fd5b600080fd5b60008083601f840112612321576123206122fc565b5b8235905067ffffffffffffffff81111561233e5761233d612301565b5b60208301915083602082028301111561235a57612359612306565b5b9250929050565b6000806020838503121561237857612377611f9a565b5b600083013567ffffffffffffffff81111561239657612395611f9f565b5b6123a28582860161230b565b92509250509250929050565b60006020820190506123c360008301846122c4565b92915050565b600080fd5b7f4e487b7100000000000000000000000000000000000000000000000000000000600052604160045260246000fd5b61240682612258565b810181811067ffffffffffffffff82111715612425576124246123ce565b5b80604052505050565b6000612438611f90565b905061244482826123fd565b919050565b600067ffffffffffffffff821115612464576124636123ce565b5b61246d82612258565b9050602081019050919050565b82818337600083830152505050565b600061249c61249784612449565b61242e565b9050828152602081018484840111156124b8576124b76123c9565b5b6124c384828561247a565b509392505050565b600082601f8301126124e0576124df6122fc565b5b81356124f0848260208601612489565b91505092915050565b600080604083850312156125105761250f611f9a565b5b600061251e858286016120dc565b925050602083013567ffffffffffffffff81111561253f5761253e611f9f565b5b61254b858286016124cb565b9150509250929050565b61255e8161207f565b811461256957600080fd5b50565b60008135905061257b81612555565b92915050565b60006020828403121561259757612596611f9a565b5b60006125a58482850161256c565b91505092915050565b600080604083850312156125c5576125c4611f9a565b5b60006125d3858286016120dc565b92505060206125e4858286016120dc565b9150509250929050565b600067ffffffffffffffff821115612609576126086123ce565b5b602082029050602081019050919050565b600061262d612628846125ee565b61242e565b905080838252602082019050602084028301858111156126505761264f612306565b5b835b818110156126795780612665888261256c565b845260208401935050602081019050612652565b5050509392505050565b600082601f830112612698576126976122fc565b5b81356126a884826020860161261a565b91505092915050565b600067ffffffffffffffff8211156126cc576126cb6123ce565b5b602082029050602081019050919050565b60006126f06126eb846126b1565b61242e565b9050808382526020820190506020840283018581111561271357612712612306565b5b835b8181101561275a57803567ffffffffffffffff811115612738576127376122fc565b5b80860161274589826124cb565b85526020850194505050602081019050612715565b5050509392505050565b600082601f830112612779576127786122fc565b5b81356127898482602086016126dd565b91505092915050565b600067ffffffffffffffff8211156127ad576127ac6123ce565b5b602082029050602081019050919050565b60006127d16127cc84612792565b61242e565b905080838252602082019050602084028301858111156127f4576127f3612306565b5b835b8181101561281d578061280988826120dc565b8452602084019350506020810190506127f6565b5050509392505050565b600082601f83011261283c5761283b6122fc565b5b813561284c8482602086016127be565b91505092915050565b60008060006060848603121561286e5761286d611f9a565b5b600084013567ffffffffffffffff81111561288c5761288b611f9f565b5b61289886828701612683565b935050602084013567ffffffffffffffff8111156128b9576128b8611f9f565b5b6128c586828701612764565b925050604084013567ffffffffffffffff8111156128e6576128e5611f9f565b5b6128f286828701612827565b9150509250925092565b60008060006060848603121561291557612914611f9a565b5b60006129238682870161256c565b935050602084013567ffffffffffffffff81111561294457612943611f9f565b5b612950868287016124cb565b9250506040612961868287016120dc565b9150509250925092565b7f4e6f7420746865206f776e657200000000000000000000000000000000000000600082015250565b60006129a1600d83612214565b91506129ac8261296b565b602082019050919050565b600060208201905081810360008301526129d081612994565b9050919050565b7f4e487b7100000000000000000000000000000000000000000000000000000000600052602260045260246000fd5b60006002820490506001821680612a1e57607f821691505b60208210811415612a3257612a316129d7565b5b50919050565b7f4552433732314d657461646174613a2055524920717565727920666f72206e6f60008201527f6e6578697374656e7420746f6b656e0000000000000000000000000000000000602082015250565b6000612a94602f83612214565b9150612a9f82612a38565b604082019050919050565b60006020820190508181036000830152612ac381612a87565b9050919050565b7f4e6f20757365722064657461696c732070726f76696465640000000000000000600082015250565b6000612b00601883612214565b9150612b0b82612aca565b602082019050919050565b60006020820190508181036000830152612b2f81612af3565b9050919050565b7f546f6f206d616e792075736572737320746f2077686974656c69737400000000600082015250565b6000612b6c601c83612214565b9150612b7782612b36565b602082019050919050565b60006020820190508181036000830152612b9b81612b5f565b9050919050565b7f4e487b7100000000000000000000000000000000000000000000000000000000600052603260045260246000fd5b7f4e487b7100000000000000000000000000000000000000000000000000000000600052601160045260246000fd5b6000612c0b826120bb565b91506000821415612c1f57612c1e612bd1565b5b600182039050919050565b6000612c35826120bb565b91507fffffffffffffffffffffffffffffffffffffffffffffffffffffffffffffffff821415612c6857612c67612bd1565b5b600182019050919050565b7f4e6f7420417574686f7269736564000000000000000000000000000000000000600082015250565b6000612ca9600e83612214565b9150612cb482612c73565b602082019050919050565b60006020820190508181036000830152612cd881612c9c565b9050919050565b7f6f776e65724f663a20746f6b656e20646f65736e277420657869737400000000600082015250565b6000612d15601c83612214565b9150612d2082612cdf565b602082019050919050565b60006020820190508181036000830152612d4481612d08565b9050919050565b7f746f6b656e5552493a20746f6b656e20646f65736e2774206578697374000000600082015250565b6000612d81601d83612214565b9150612d8c82612d4b565b602082019050919050565b60006020820190508181036000830152612db081612d74565b9050919050565b7f41646472657373206e6f742077686974656c6973746564000000000000000000600082015250565b6000612ded601783612214565b9150612df882612db7565b602082019050919050565b60006020820190508181036000830152612e1c81612de0565b9050919050565b7f206e6f7420616e2063726561746f720000000000000000000000000000000000600082015250565b6000612e59600f83612214565b9150612e6482612e23565b602082019050919050565b60006020820190508181036000830152612e8881612e4c565b9050919050565b7f204e6f742076616c69642074696d650000000000000000000000000000000000600082015250565b6000612ec5600f83612214565b9150612ed082612e8f565b602082019050919050565b60006020820190508181036000830152612ef481612eb8565b9050919050565b6000604082019050612f1060008301856122c4565b612f1d60208301846122c4565b9392505050565b7f5342543a204e756d626572206f662072656369657069656e742065786365656460008201527f20746865206d6178206d696e74206c696d697400000000000000000000000000602082015250565b6000612f80603383612214565b9150612f8b82612f24565b604082019050919050565b60006020820190508181036000830152612faf81612f73565b9050919050565b7f5342543a204d69736d61746368206f6620726563697069656e74736f7220555260008201527f49206f7220657870204461746500000000000000000000000000000000000000602082015250565b6000613012602d83612214565b915061301d82612fb6565b604082019050919050565b6000602082019050818103600083015261304181613005565b9050919050565b7f4d6178696d756d20557365727320616c72656164792077686974656c6973746560008201527f6400000000000000000000000000000000000000000000000000000000000000602082015250565b60006130a4602183612214565b91506130af82613048565b604082019050919050565b600060208201905081810360008301526130d381613097565b9050919050565b7f6d696e743a20746f6b656e494420657869737473000000000000000000000000600082015250565b6000613110601483612214565b915061311b826130da565b602082019050919050565b6000602082019050818103600083015261313f81613103565b905091905056fea2646970667358221220a856a1d5f8dda12ecf426284c3a23164d2074b1ee29255db99225e9d36d5ba3264736f6c63430008090033",
  "linkReferences": {},
  "deployedLinkReferences": {}
}