{
  "_format": "hh-sol-artifact-1",
  "contractName": "ERC721FactoryFacet",
  "sourceName": "contracts/facets/ERC721Factory/ERC721FactoryFacet.sol",
  "abi": [
    {
      "anonymous": false,
      "inputs": [
        {
          "indexed": true,
          "internalType": "address",
          "name": "owner",
          "type": "address"
        },
        {
          "indexed": true,
          "internalType": "address",
          "name": "approved",
          "type": "address"
        },
        {
          "indexed": true,
          "internalType": "uint256",
          "name": "tokenId",
          "type": "uint256"
        }
      ],
      "name": "Approval",
      "type": "event"
    },
    {
      "anonymous": false,
      "inputs": [
        {
          "indexed": true,
          "internalType": "address",
          "name": "owner",
          "type": "address"
        },
        {
          "indexed": true,
          "internalType": "address",
          "name": "operator",
          "type": "address"
        },
        {
          "indexed": false,
          "internalType": "bool",
          "name": "approved",
          "type": "bool"
        }
      ],
      "name": "ApprovalForAll",
      "type": "event"
    },
    {
      "anonymous": false,
      "inputs": [
        {
          "indexed": true,
          "internalType": "address",
          "name": "from",
          "type": "address"
        },
        {
          "indexed": true,
          "internalType": "address",
          "name": "to",
          "type": "address"
        },
        {
          "indexed": true,
          "internalType": "uint256",
          "name": "tokenId",
          "type": "uint256"
        }
      ],
      "name": "Transfer",
      "type": "event"
    },
    {
      "inputs": [
        {
          "internalType": "address",
          "name": "to",
          "type": "address"
        },
        {
          "internalType": "uint256",
          "name": "tokenId",
          "type": "uint256"
        }
      ],
      "name": "approve",
      "outputs": [],
      "stateMutability": "nonpayable",
      "type": "function"
    },
    {
      "inputs": [
        {
          "internalType": "address",
          "name": "owner",
          "type": "address"
        }
      ],
      "name": "balanceOf",
      "outputs": [
        {
          "internalType": "uint256",
          "name": "",
          "type": "uint256"
        }
      ],
      "stateMutability": "view",
      "type": "function"
    },
    {
      "inputs": [
        {
          "internalType": "uint256",
          "name": "tokenId",
          "type": "uint256"
        }
      ],
      "name": "burn",
      "outputs": [],
      "stateMutability": "nonpayable",
      "type": "function"
    },
    {
      "inputs": [
        {
          "internalType": "string",
          "name": "name_",
          "type": "string"
        },
        {
          "internalType": "string",
          "name": "symbol_",
          "type": "string"
        }
      ],
      "name": "erc721FactoryFacetInit",
      "outputs": [],
      "stateMutability": "nonpayable",
      "type": "function"
    },
    {
      "inputs": [
        {
          "internalType": "uint256",
          "name": "tokenId",
          "type": "uint256"
        }
      ],
      "name": "getApproved",
      "outputs": [
        {
          "internalType": "address",
          "name": "",
          "type": "address"
        }
      ],
      "stateMutability": "view",
      "type": "function"
    },
    {
      "inputs": [
        {
          "internalType": "uint256",
          "name": "tokenId",
          "type": "uint256"
        },
        {
          "internalType": "address",
          "name": "creator",
          "type": "address"
        },
        {
          "internalType": "string",
          "name": "_tokenURI",
          "type": "string"
        },
        {
          "internalType": "address[]",
          "name": "royaltyReceiver",
          "type": "address[]"
        },
        {
          "internalType": "uint96[]",
          "name": "tokenRoyaltyInBips",
          "type": "uint96[]"
        }
      ],
      "name": "mint",
      "outputs": [],
      "stateMutability": "nonpayable",
      "type": "function"
    },
    {
      "inputs": [],
      "name": "name",
      "outputs": [
        {
          "internalType": "string",
          "name": "",
          "type": "string"
        }
      ],
      "stateMutability": "view",
      "type": "function"
    },
    {
      "inputs": [
        {
          "internalType": "uint256",
          "name": "tokenId",
          "type": "uint256"
        }
      ],
      "name": "ownerOf",
      "outputs": [
        {
          "internalType": "address",
          "name": "",
          "type": "address"
        }
      ],
      "stateMutability": "view",
      "type": "function"
    },
    {
      "inputs": [
        {
          "internalType": "address",
          "name": "from",
          "type": "address"
        },
        {
          "internalType": "address",
          "name": "to",
          "type": "address"
        },
        {
          "internalType": "uint256",
          "name": "tokenId",
          "type": "uint256"
        }
      ],
      "name": "safeTransferFrom",
      "outputs": [],
      "stateMutability": "nonpayable",
      "type": "function"
    },
    {
      "inputs": [
        {
          "internalType": "address",
          "name": "from",
          "type": "address"
        },
        {
          "internalType": "address",
          "name": "to",
          "type": "address"
        },
        {
          "internalType": "uint256",
          "name": "tokenId",
          "type": "uint256"
        },
        {
          "internalType": "bytes",
          "name": "_data",
          "type": "bytes"
        }
      ],
      "name": "safeTransferFrom",
      "outputs": [],
      "stateMutability": "nonpayable",
      "type": "function"
    },
    {
      "inputs": [],
      "name": "symbol",
      "outputs": [
        {
          "internalType": "string",
          "name": "",
          "type": "string"
        }
      ],
      "stateMutability": "view",
      "type": "function"
    },
    {
      "inputs": [
        {
          "internalType": "uint256",
          "name": "tokenId",
          "type": "uint256"
        }
      ],
      "name": "tokenURI",
      "outputs": [
        {
          "internalType": "string",
          "name": "",
          "type": "string"
        }
      ],
      "stateMutability": "view",
      "type": "function"
    },
    {
      "inputs": [
        {
          "internalType": "address",
          "name": "from",
          "type": "address"
        },
        {
          "internalType": "address",
          "name": "to",
          "type": "address"
        },
        {
          "internalType": "uint256",
          "name": "tokenId",
          "type": "uint256"
        }
      ],
      "name": "transferFrom",
      "outputs": [],
      "stateMutability": "nonpayable",
      "type": "function"
    }
  ],
  "bytecode": "0x608060405234801561001057600080fd5b50612c8a806100206000396000f3fe608060405234801561001057600080fd5b50600436106100cf5760003560e01c806346faa8b21161008c57806395d89b411161006657806395d89b411461020e578063b1fea9ba1461022c578063b88d4fde14610248578063c87b56dd14610264576100cf565b806346faa8b2146101925780636352211e146101ae57806370a08231146101de576100cf565b806306fdde03146100d4578063081812fc146100f2578063095ea7b31461012257806323b872dd1461013e57806342842e0e1461015a57806342966c6814610176575b600080fd5b6100dc610294565b6040516100e99190611980565b60405180910390f35b61010c600480360381019061010791906119ec565b610335565b6040516101199190611a5a565b60405180910390f35b61013c60048036038101906101379190611aa1565b6103c9565b005b61015860048036038101906101539190611ae1565b610564565b005b610174600480360381019061016f9190611ae1565b6105c4565b005b610190600480360381019061018b91906119ec565b6105e4565b005b6101ac60048036038101906101a79190611c69565b610635565b005b6101c860048036038101906101c391906119ec565b6107a3565b6040516101d59190611a5a565b60405180910390f35b6101f860048036038101906101f39190611ce1565b610864565b6040516102059190611d1d565b60405180910390f35b61021661092b565b6040516102239190611980565b60405180910390f35b61024660048036038101906102419190611f07565b6109cc565b005b610262600480360381019061025d9190612077565b610b2e565b005b61027e600480360381019061027991906119ec565b610b90565b60405161028b9190611980565b60405180910390f35b606060006102a0610c92565b90508060000180546102b190612129565b80601f01602080910402602001604051908101604052809291908181526020018280546102dd90612129565b801561032a5780601f106102ff5761010080835404028352916020019161032a565b820191906000526020600020905b81548152906001019060200180831161030d57829003601f168201915b505050505091505090565b600061034082610cbf565b61037f576040517f08c379a0000000000000000000000000000000000000000000000000000000008152600401610376906121cd565b60405180910390fd5b6000610389610c92565b905080600401600084815260200190815260200160002060009054906101000a900473ffffffffffffffffffffffffffffffffffffffff16915050919050565b60006103d4826107a3565b90508073ffffffffffffffffffffffffffffffffffffffff168373ffffffffffffffffffffffffffffffffffffffff161415610445576040517f08c379a000000000000000000000000000000000000000000000000000000000815260040161043c9061225f565b60405180910390fd5b8073ffffffffffffffffffffffffffffffffffffffff16610464610d3a565b73ffffffffffffffffffffffffffffffffffffffff1614806105165750600060010160008273ffffffffffffffffffffffffffffffffffffffff1673ffffffffffffffffffffffffffffffffffffffff16815260200190815260200160002060006104cd610d3a565b73ffffffffffffffffffffffffffffffffffffffff1673ffffffffffffffffffffffffffffffffffffffff16815260200190815260200160002060009054906101000a900460ff165b610555576040517f08c379a000000000000000000000000000000000000000000000000000000000815260040161054c906122f1565b60405180910390fd5b61055f8383610d42565b505050565b61057561056f610d3a565b82610e0a565b6105b4576040517f08c379a00000000000000000000000000000000000000000000000000000000081526004016105ab90612383565b60405180910390fd5b6105bf838383610f72565b505050565b6105df83838360405180602001604052806000815250610b2e565b505050565b60006105ee6111e1565b90506105f98261120e565b80600101600083815260200190815260200160002060006101000a81549073ffffffffffffffffffffffffffffffffffffffff02191690555050565b600061063f611330565b9050600061064b6111e1565b9050600081600301805461065e90612129565b905014801561067d5750600081600401805461067990612129565b9050145b61068657600080fd5b600084511415801561069a57506000835114155b6106d9576040517f08c379a00000000000000000000000000000000000000000000000000000000081526004016106d0906123ef565b60405180910390fd5b8160040160009054906101000a900473ffffffffffffffffffffffffffffffffffffffff1673ffffffffffffffffffffffffffffffffffffffff163373ffffffffffffffffffffffffffffffffffffffff161461076b576040517f08c379a00000000000000000000000000000000000000000000000000000000081526004016107629061245b565b60405180910390fd5b83816003019080519060200190610783929190611844565b508281600401908051906020019061079c929190611844565b5050505050565b6000806107ae610c92565b9050600081600201600085815260200190815260200160002060009054906101000a900473ffffffffffffffffffffffffffffffffffffffff169050600073ffffffffffffffffffffffffffffffffffffffff168173ffffffffffffffffffffffffffffffffffffffff16141561085a576040517f08c379a0000000000000000000000000000000000000000000000000000000008152600401610851906124ed565b60405180910390fd5b8092505050919050565b60008073ffffffffffffffffffffffffffffffffffffffff168273ffffffffffffffffffffffffffffffffffffffff1614156108d5576040517f08c379a00000000000000000000000000000000000000000000000000000000081526004016108cc9061257f565b60405180910390fd5b60006108df610c92565b90508060030160008473ffffffffffffffffffffffffffffffffffffffff1673ffffffffffffffffffffffffffffffffffffffff16815260200190815260200160002054915050919050565b60606000610937610c92565b905080600101805461094890612129565b80601f016020809104026020016040519081016040528092919081815260200182805461097490612129565b80156109c15780601f10610996576101008083540402835291602001916109c1565b820191906000526020600020905b8154815290600101906020018083116109a457829003601f168201915b505050505091505090565b6000800160009054906101000a900473ffffffffffffffffffffffffffffffffffffffff1673ffffffffffffffffffffffffffffffffffffffff163373ffffffffffffffffffffffffffffffffffffffff1614610a5e576040517f08c379a0000000000000000000000000000000000000000000000000000000008152600401610a5590612611565b60405180910390fd5b6000610a686111e1565b90508481600001600088815260200190815260200160002060006101000a81548173ffffffffffffffffffffffffffffffffffffffff021916908373ffffffffffffffffffffffffffffffffffffffff1602179055508481600101600088815260200190815260200160002060006101000a81548173ffffffffffffffffffffffffffffffffffffffff021916908373ffffffffffffffffffffffffffffffffffffffff160217905550610b1c858761135d565b610b26868561137b565b505050505050565b610b3f610b39610d3a565b83610e0a565b610b7e576040517f08c379a0000000000000000000000000000000000000000000000000000000008152600401610b7590612383565b60405180910390fd5b610b8a848484846113fe565b50505050565b6060610b9b82610cbf565b610bda576040517f08c379a0000000000000000000000000000000000000000000000000000000008152600401610bd1906126a3565b60405180910390fd5b6000610be46111e1565b905060008160020160008581526020019081526020016000208054610c0890612129565b80601f0160208091040260200160405190810160405280929190818152602001828054610c3490612129565b8015610c815780601f10610c5657610100808354040283529160200191610c81565b820191906000526020600020905b815481529060010190602001808311610c6457829003601f168201915b505050505090508092505050919050565b6000807f27d4b8eb827745c1478e1390415e0b68ca5ace988a610b45757dd674616b25ad90508091505090565b600080610cca610c92565b9050600073ffffffffffffffffffffffffffffffffffffffff1681600201600085815260200190815260200160002060009054906101000a900473ffffffffffffffffffffffffffffffffffffffff1673ffffffffffffffffffffffffffffffffffffffff161415915050919050565b600033905090565b6000610d4c610c92565b90508281600401600084815260200190815260200160002060006101000a81548173ffffffffffffffffffffffffffffffffffffffff021916908373ffffffffffffffffffffffffffffffffffffffff160217905550818373ffffffffffffffffffffffffffffffffffffffff16610dc3846107a3565b73ffffffffffffffffffffffffffffffffffffffff167f8c5be1e5ebec7d5bd14f71427d1e84f3dd0314c0f7b2291e5b200ac8c7c3b92560405160405180910390a4505050565b6000610e1582610cbf565b610e54576040517f08c379a0000000000000000000000000000000000000000000000000000000008152600401610e4b90612735565b60405180910390fd5b6000610e5f836107a3565b90508073ffffffffffffffffffffffffffffffffffffffff168473ffffffffffffffffffffffffffffffffffffffff161480610ece57508373ffffffffffffffffffffffffffffffffffffffff16610eb684610335565b73ffffffffffffffffffffffffffffffffffffffff16145b80610f695750600060010160008273ffffffffffffffffffffffffffffffffffffffff1673ffffffffffffffffffffffffffffffffffffffff1681526020019081526020016000206000610f20610d3a565b73ffffffffffffffffffffffffffffffffffffffff1673ffffffffffffffffffffffffffffffffffffffff16815260200190815260200160002060009054906101000a900460ff165b91505092915050565b8273ffffffffffffffffffffffffffffffffffffffff16610f92826107a3565b73ffffffffffffffffffffffffffffffffffffffff1614610fe8576040517f08c379a0000000000000000000000000000000000000000000000000000000008152600401610fdf906127c7565b60405180910390fd5b600073ffffffffffffffffffffffffffffffffffffffff168273ffffffffffffffffffffffffffffffffffffffff161415611058576040517f08c379a000000000000000000000000000000000000000000000000000000000815260040161104f90612859565b60405180910390fd5b61106383838361145a565b61106e600082610d42565b6000611078610c92565b905060018160030160008673ffffffffffffffffffffffffffffffffffffffff1673ffffffffffffffffffffffffffffffffffffffff16815260200190815260200160002060008282546110cc91906128a8565b9250508190555060018160030160008573ffffffffffffffffffffffffffffffffffffffff1673ffffffffffffffffffffffffffffffffffffffff168152602001908152602001600020600082825461112591906128dc565b925050819055508281600201600084815260200190815260200160002060006101000a81548173ffffffffffffffffffffffffffffffffffffffff021916908373ffffffffffffffffffffffffffffffffffffffff160217905550818373ffffffffffffffffffffffffffffffffffffffff168573ffffffffffffffffffffffffffffffffffffffff167fddf252ad1be2c89b69c2b068fc378daa952ba7f163c4a11628f55a4df523b3ef60405160405180910390a450505050565b6000807f7336099884d9097f82a586e8d7e322fd089b07b96831a9d9ee42fb0a34564cf790508091505090565b6000611219826107a3565b90506112278160008461145a565b611232600083610d42565b600061123c610c92565b905060018160030160008473ffffffffffffffffffffffffffffffffffffffff1673ffffffffffffffffffffffffffffffffffffffff168152602001908152602001600020600082825461129091906128a8565b9250508190555080600201600084815260200190815260200160002060006101000a81549073ffffffffffffffffffffffffffffffffffffffff021916905582600073ffffffffffffffffffffffffffffffffffffffff168373ffffffffffffffffffffffffffffffffffffffff167fddf252ad1be2c89b69c2b068fc378daa952ba7f163c4a11628f55a4df523b3ef60405160405180910390a4505050565b6000807fc8fcad8db84d3cc18b4c41d551ea0ee66dd599cde068d998e57d5e09332c131c90508091505090565b61137782826040518060200160405280600081525061145f565b5050565b61138482610cbf565b6113c3576040517f08c379a00000000000000000000000000000000000000000000000000000000081526004016113ba906129a4565b60405180910390fd5b60006113cd6111e1565b90508181600201600085815260200190815260200160002090805190602001906113f8929190611844565b50505050565b611409848484610f72565b611415848484846114ba565b611454576040517f08c379a000000000000000000000000000000000000000000000000000000000815260040161144b90612a36565b60405180910390fd5b50505050565b505050565b6114698383611642565b61147660008484846114ba565b6114b5576040517f08c379a00000000000000000000000000000000000000000000000000000000081526004016114ac90612a36565b60405180910390fd5b505050565b60006114db8473ffffffffffffffffffffffffffffffffffffffff16611821565b15611635578373ffffffffffffffffffffffffffffffffffffffff1663150b7a02611504610d3a565b8786866040518563ffffffff1660e01b81526004016115269493929190612aab565b6020604051808303816000875af192505050801561156257506040513d601f19601f8201168201806040525081019061155f9190612b4f565b60015b6115e5573d8060008114611592576040519150601f19603f3d011682016040523d82523d6000602084013e611597565b606091505b506000815114156115dd576040517f08c379a00000000000000000000000000000000000000000000000000000000081526004016115d490612a36565b60405180910390fd5b805181602001fd5b63150b7a0260e01b7bffffffffffffffffffffffffffffffffffffffffffffffffffffffff1916817bffffffffffffffffffffffffffffffffffffffffffffffffffffffff19161491505061163a565b600190505b949350505050565b600073ffffffffffffffffffffffffffffffffffffffff168273ffffffffffffffffffffffffffffffffffffffff1614156116b2576040517f08c379a00000000000000000000000000000000000000000000000000000000081526004016116a990612bc8565b60405180910390fd5b6116bb81610cbf565b156116fb576040517f08c379a00000000000000000000000000000000000000000000000000000000081526004016116f290612c34565b60405180910390fd5b6117076000838361145a565b6000611711610c92565b905060018160030160008573ffffffffffffffffffffffffffffffffffffffff1673ffffffffffffffffffffffffffffffffffffffff168152602001908152602001600020600082825461176591906128dc565b925050819055508281600201600084815260200190815260200160002060006101000a81548173ffffffffffffffffffffffffffffffffffffffff021916908373ffffffffffffffffffffffffffffffffffffffff160217905550818373ffffffffffffffffffffffffffffffffffffffff16600073ffffffffffffffffffffffffffffffffffffffff167fddf252ad1be2c89b69c2b068fc378daa952ba7f163c4a11628f55a4df523b3ef60405160405180910390a4505050565b6000808273ffffffffffffffffffffffffffffffffffffffff163b119050919050565b82805461185090612129565b90600052602060002090601f01602090048101928261187257600085556118b9565b82601f1061188b57805160ff19168380011785556118b9565b828001600101855582156118b9579182015b828111156118b857825182559160200191906001019061189d565b5b5090506118c691906118ca565b5090565b5b808211156118e35760008160009055506001016118cb565b5090565b600081519050919050565b600082825260208201905092915050565b60005b83811015611921578082015181840152602081019050611906565b83811115611930576000848401525b50505050565b6000601f19601f8301169050919050565b6000611952826118e7565b61195c81856118f2565b935061196c818560208601611903565b61197581611936565b840191505092915050565b6000602082019050818103600083015261199a8184611947565b905092915050565b6000604051905090565b600080fd5b600080fd5b6000819050919050565b6119c9816119b6565b81146119d457600080fd5b50565b6000813590506119e6816119c0565b92915050565b600060208284031215611a0257611a016119ac565b5b6000611a10848285016119d7565b91505092915050565b600073ffffffffffffffffffffffffffffffffffffffff82169050919050565b6000611a4482611a19565b9050919050565b611a5481611a39565b82525050565b6000602082019050611a6f6000830184611a4b565b92915050565b611a7e81611a39565b8114611a8957600080fd5b50565b600081359050611a9b81611a75565b92915050565b60008060408385031215611ab857611ab76119ac565b5b6000611ac685828601611a8c565b9250506020611ad7858286016119d7565b9150509250929050565b600080600060608486031215611afa57611af96119ac565b5b6000611b0886828701611a8c565b9350506020611b1986828701611a8c565b9250506040611b2a868287016119d7565b9150509250925092565b600080fd5b600080fd5b7f4e487b7100000000000000000000000000000000000000000000000000000000600052604160045260246000fd5b611b7682611936565b810181811067ffffffffffffffff82111715611b9557611b94611b3e565b5b80604052505050565b6000611ba86119a2565b9050611bb48282611b6d565b919050565b600067ffffffffffffffff821115611bd457611bd3611b3e565b5b611bdd82611936565b9050602081019050919050565b82818337600083830152505050565b6000611c0c611c0784611bb9565b611b9e565b905082815260208101848484011115611c2857611c27611b39565b5b611c33848285611bea565b509392505050565b600082601f830112611c5057611c4f611b34565b5b8135611c60848260208601611bf9565b91505092915050565b60008060408385031215611c8057611c7f6119ac565b5b600083013567ffffffffffffffff811115611c9e57611c9d6119b1565b5b611caa85828601611c3b565b925050602083013567ffffffffffffffff811115611ccb57611cca6119b1565b5b611cd785828601611c3b565b9150509250929050565b600060208284031215611cf757611cf66119ac565b5b6000611d0584828501611a8c565b91505092915050565b611d17816119b6565b82525050565b6000602082019050611d326000830184611d0e565b92915050565b600067ffffffffffffffff821115611d5357611d52611b3e565b5b602082029050602081019050919050565b600080fd5b6000611d7c611d7784611d38565b611b9e565b90508083825260208201905060208402830185811115611d9f57611d9e611d64565b5b835b81811015611dc85780611db48882611a8c565b845260208401935050602081019050611da1565b5050509392505050565b600082601f830112611de757611de6611b34565b5b8135611df7848260208601611d69565b91505092915050565b600067ffffffffffffffff821115611e1b57611e1a611b3e565b5b602082029050602081019050919050565b60006bffffffffffffffffffffffff82169050919050565b611e4d81611e2c565b8114611e5857600080fd5b50565b600081359050611e6a81611e44565b92915050565b6000611e83611e7e84611e00565b611b9e565b90508083825260208201905060208402830185811115611ea657611ea5611d64565b5b835b81811015611ecf5780611ebb8882611e5b565b845260208401935050602081019050611ea8565b5050509392505050565b600082601f830112611eee57611eed611b34565b5b8135611efe848260208601611e70565b91505092915050565b600080600080600060a08688031215611f2357611f226119ac565b5b6000611f31888289016119d7565b9550506020611f4288828901611a8c565b945050604086013567ffffffffffffffff811115611f6357611f626119b1565b5b611f6f88828901611c3b565b935050606086013567ffffffffffffffff811115611f9057611f8f6119b1565b5b611f9c88828901611dd2565b925050608086013567ffffffffffffffff811115611fbd57611fbc6119b1565b5b611fc988828901611ed9565b9150509295509295909350565b600067ffffffffffffffff821115611ff157611ff0611b3e565b5b611ffa82611936565b9050602081019050919050565b600061201a61201584611fd6565b611b9e565b90508281526020810184848401111561203657612035611b39565b5b612041848285611bea565b509392505050565b600082601f83011261205e5761205d611b34565b5b813561206e848260208601612007565b91505092915050565b60008060008060808587031215612091576120906119ac565b5b600061209f87828801611a8c565b94505060206120b087828801611a8c565b93505060406120c1878288016119d7565b925050606085013567ffffffffffffffff8111156120e2576120e16119b1565b5b6120ee87828801612049565b91505092959194509250565b7f4e487b7100000000000000000000000000000000000000000000000000000000600052602260045260246000fd5b6000600282049050600182168061214157607f821691505b60208210811415612155576121546120fa565b5b50919050565b7f4552433732313a20617070726f76656420717565727920666f72206e6f6e657860008201527f697374656e7420746f6b656e0000000000000000000000000000000000000000602082015250565b60006121b7602c836118f2565b91506121c28261215b565b604082019050919050565b600060208201905081810360008301526121e6816121aa565b9050919050565b7f4552433732313a20617070726f76616c20746f2063757272656e74206f776e6560008201527f7200000000000000000000000000000000000000000000000000000000000000602082015250565b60006122496021836118f2565b9150612254826121ed565b604082019050919050565b600060208201905081810360008301526122788161223c565b9050919050565b7f4552433732313a20617070726f76652063616c6c6572206973206e6f74206f7760008201527f6e6572206e6f7220617070726f76656420666f7220616c6c0000000000000000602082015250565b60006122db6038836118f2565b91506122e68261227f565b604082019050919050565b6000602082019050818103600083015261230a816122ce565b9050919050565b7f4552433732313a207472616e736665722063616c6c6572206973206e6f74206f60008201527f776e6572206e6f7220617070726f766564000000000000000000000000000000602082015250565b600061236d6031836118f2565b915061237882612311565b604082019050919050565b6000602082019050818103600083015261239c81612360565b9050919050565b7f494e56414c49445f504152414d53000000000000000000000000000000000000600082015250565b60006123d9600e836118f2565b91506123e4826123a3565b602082019050919050565b60006020820190508181036000830152612408816123cc565b9050919050565b7f4d757374206f776e2074686520636f6e74726163742e00000000000000000000600082015250565b60006124456016836118f2565b91506124508261240f565b602082019050919050565b6000602082019050818103600083015261247481612438565b9050919050565b7f4552433732313a206f776e657220717565727920666f72206e6f6e657869737460008201527f656e7420746f6b656e0000000000000000000000000000000000000000000000602082015250565b60006124d76029836118f2565b91506124e28261247b565b604082019050919050565b60006020820190508181036000830152612506816124ca565b9050919050565b7f4552433732313a2062616c616e636520717565727920666f7220746865207a6560008201527f726f206164647265737300000000000000000000000000000000000000000000602082015250565b6000612569602a836118f2565b91506125748261250d565b604082019050919050565b600060208201905081810360008301526125988161255c565b9050919050565b7f455243373231466163746f72793a20556e617574686f72697a6564204163636560008201527f7373210000000000000000000000000000000000000000000000000000000000602082015250565b60006125fb6023836118f2565b91506126068261259f565b604082019050919050565b6000602082019050818103600083015261262a816125ee565b9050919050565b7f4552433732314d657461646174613a2055524920717565727920666f72206e6f60008201527f6e6578697374656e7420746f6b656e0000000000000000000000000000000000602082015250565b600061268d602f836118f2565b915061269882612631565b604082019050919050565b600060208201905081810360008301526126bc81612680565b9050919050565b7f4552433732313a206f70657261746f7220717565727920666f72206e6f6e657860008201527f697374656e7420746f6b656e0000000000000000000000000000000000000000602082015250565b600061271f602c836118f2565b915061272a826126c3565b604082019050919050565b6000602082019050818103600083015261274e81612712565b9050919050565b7f4552433732313a207472616e73666572206f6620746f6b656e2074686174206960008201527f73206e6f74206f776e0000000000000000000000000000000000000000000000602082015250565b60006127b16029836118f2565b91506127bc82612755565b604082019050919050565b600060208201905081810360008301526127e0816127a4565b9050919050565b7f4552433732313a207472616e7366657220746f20746865207a65726f2061646460008201527f7265737300000000000000000000000000000000000000000000000000000000602082015250565b60006128436024836118f2565b915061284e826127e7565b604082019050919050565b6000602082019050818103600083015261287281612836565b9050919050565b7f4e487b7100000000000000000000000000000000000000000000000000000000600052601160045260246000fd5b60006128b3826119b6565b91506128be836119b6565b9250828210156128d1576128d0612879565b5b828203905092915050565b60006128e7826119b6565b91506128f2836119b6565b9250827fffffffffffffffffffffffffffffffffffffffffffffffffffffffffffffffff0382111561292757612926612879565b5b828201905092915050565b7f4552433732314d657461646174613a2055524920736574206f66206e6f6e657860008201527f697374656e7420746f6b656e0000000000000000000000000000000000000000602082015250565b600061298e602c836118f2565b915061299982612932565b604082019050919050565b600060208201905081810360008301526129bd81612981565b9050919050565b7f4552433732313a207472616e7366657220746f206e6f6e20455243373231526560008201527f63656976657220696d706c656d656e7465720000000000000000000000000000602082015250565b6000612a206032836118f2565b9150612a2b826129c4565b604082019050919050565b60006020820190508181036000830152612a4f81612a13565b9050919050565b600081519050919050565b600082825260208201905092915050565b6000612a7d82612a56565b612a878185612a61565b9350612a97818560208601611903565b612aa081611936565b840191505092915050565b6000608082019050612ac06000830187611a4b565b612acd6020830186611a4b565b612ada6040830185611d0e565b8181036060830152612aec8184612a72565b905095945050505050565b60007fffffffff0000000000000000000000000000000000000000000000000000000082169050919050565b612b2c81612af7565b8114612b3757600080fd5b50565b600081519050612b4981612b23565b92915050565b600060208284031215612b6557612b646119ac565b5b6000612b7384828501612b3a565b91505092915050565b7f4552433732313a206d696e7420746f20746865207a65726f2061646472657373600082015250565b6000612bb26020836118f2565b9150612bbd82612b7c565b602082019050919050565b60006020820190508181036000830152612be181612ba5565b9050919050565b7f4552433732313a20746f6b656e20616c7265616479206d696e74656400000000600082015250565b6000612c1e601c836118f2565b9150612c2982612be8565b602082019050919050565b60006020820190508181036000830152612c4d81612c11565b905091905056fea2646970667358221220004013e875e2bba0bc607b87c140cbcc3646ed45b5ea850e6e251e8fca144d9464736f6c634300080a0033",
  "linkReferences": {},
  "deployedLinkReferences": {}
}