{
  "_format": "hh-sol-artifact-1",
  "contractName": "ERC721FactoryFacet",
  "sourceName": "contracts/facets/ERC721Factory/ERC721FactoryFacet.sol",
  "abi": [
    {
      "anonymous": false,
      "inputs": [
        {
          "indexed": true,
          "internalType": "address",
          "name": "owner",
          "type": "address"
        },
        {
          "indexed": true,
          "internalType": "address",
          "name": "approved",
          "type": "address"
        },
        {
          "indexed": true,
          "internalType": "uint256",
          "name": "tokenId",
          "type": "uint256"
        }
      ],
      "name": "Approval",
      "type": "event"
    },
    {
      "anonymous": false,
      "inputs": [
        {
          "indexed": true,
          "internalType": "address",
          "name": "owner",
          "type": "address"
        },
        {
          "indexed": true,
          "internalType": "address",
          "name": "operator",
          "type": "address"
        },
        {
          "indexed": false,
          "internalType": "bool",
          "name": "approved",
          "type": "bool"
        }
      ],
      "name": "ApprovalForAll",
      "type": "event"
    },
    {
      "anonymous": false,
      "inputs": [
        {
          "indexed": true,
          "internalType": "address",
          "name": "from",
          "type": "address"
        },
        {
          "indexed": true,
          "internalType": "address",
          "name": "to",
          "type": "address"
        },
        {
          "indexed": true,
          "internalType": "uint256",
          "name": "tokenId",
          "type": "uint256"
        }
      ],
      "name": "Transfer",
      "type": "event"
    },
    {
      "inputs": [
        {
          "internalType": "address",
          "name": "to",
          "type": "address"
        },
        {
          "internalType": "uint256",
          "name": "tokenId",
          "type": "uint256"
        }
      ],
      "name": "approve",
      "outputs": [],
      "stateMutability": "nonpayable",
      "type": "function"
    },
    {
      "inputs": [
        {
          "internalType": "address",
          "name": "owner",
          "type": "address"
        }
      ],
      "name": "balanceOf",
      "outputs": [
        {
          "internalType": "uint256",
          "name": "",
          "type": "uint256"
        }
      ],
      "stateMutability": "view",
      "type": "function"
    },
    {
      "inputs": [
        {
          "internalType": "uint256",
          "name": "tokenId",
          "type": "uint256"
        }
      ],
      "name": "burn",
      "outputs": [],
      "stateMutability": "nonpayable",
      "type": "function"
    },
    {
      "inputs": [
        {
          "internalType": "string",
          "name": "name_",
          "type": "string"
        },
        {
          "internalType": "string",
          "name": "symbol_",
          "type": "string"
        }
      ],
      "name": "erc721FactoryFacetInit",
      "outputs": [],
      "stateMutability": "nonpayable",
      "type": "function"
    },
    {
      "inputs": [
        {
          "internalType": "uint256",
          "name": "tokenId",
          "type": "uint256"
        }
      ],
      "name": "getApproved",
      "outputs": [
        {
          "internalType": "address",
          "name": "",
          "type": "address"
        }
      ],
      "stateMutability": "view",
      "type": "function"
    },
    {
      "inputs": [
        {
          "internalType": "uint256",
          "name": "tokenId",
          "type": "uint256"
        },
        {
          "internalType": "address",
          "name": "creator",
          "type": "address"
        },
        {
          "internalType": "string",
          "name": "_tokenURI",
          "type": "string"
        },
        {
          "internalType": "address[]",
          "name": "royaltyReceiver",
          "type": "address[]"
        },
        {
          "internalType": "uint96[]",
          "name": "tokenRoyaltyInBips",
          "type": "uint96[]"
        }
      ],
      "name": "mint",
      "outputs": [],
      "stateMutability": "nonpayable",
      "type": "function"
    },
    {
      "inputs": [],
      "name": "name",
      "outputs": [
        {
          "internalType": "string",
          "name": "",
          "type": "string"
        }
      ],
      "stateMutability": "view",
      "type": "function"
    },
    {
      "inputs": [
        {
          "internalType": "uint256",
          "name": "tokenId",
          "type": "uint256"
        }
      ],
      "name": "ownerOf",
      "outputs": [
        {
          "internalType": "address",
          "name": "",
          "type": "address"
        }
      ],
      "stateMutability": "view",
      "type": "function"
    },
    {
      "inputs": [
        {
          "internalType": "address",
          "name": "from",
          "type": "address"
        },
        {
          "internalType": "address",
          "name": "to",
          "type": "address"
        },
        {
          "internalType": "uint256",
          "name": "tokenId",
          "type": "uint256"
        }
      ],
      "name": "safeTransferFrom",
      "outputs": [],
      "stateMutability": "nonpayable",
      "type": "function"
    },
    {
      "inputs": [
        {
          "internalType": "address",
          "name": "from",
          "type": "address"
        },
        {
          "internalType": "address",
          "name": "to",
          "type": "address"
        },
        {
          "internalType": "uint256",
          "name": "tokenId",
          "type": "uint256"
        },
        {
          "internalType": "bytes",
          "name": "_data",
          "type": "bytes"
        }
      ],
      "name": "safeTransferFrom",
      "outputs": [],
      "stateMutability": "nonpayable",
      "type": "function"
    },
    {
      "inputs": [],
      "name": "symbol",
      "outputs": [
        {
          "internalType": "string",
          "name": "",
          "type": "string"
        }
      ],
      "stateMutability": "view",
      "type": "function"
    },
    {
      "inputs": [
        {
          "internalType": "uint256",
          "name": "tokenId",
          "type": "uint256"
        }
      ],
      "name": "tokenURI",
      "outputs": [
        {
          "internalType": "string",
          "name": "",
          "type": "string"
        }
      ],
      "stateMutability": "view",
      "type": "function"
    },
    {
      "inputs": [
        {
          "internalType": "address",
          "name": "from",
          "type": "address"
        },
        {
          "internalType": "address",
          "name": "to",
          "type": "address"
        },
        {
          "internalType": "uint256",
          "name": "tokenId",
          "type": "uint256"
        }
      ],
      "name": "transferFrom",
      "outputs": [],
      "stateMutability": "nonpayable",
      "type": "function"
    }
  ],
  "bytecode": "0x608060405234801561001057600080fd5b50612ca7806100206000396000f3fe608060405234801561001057600080fd5b50600436106100cf5760003560e01c806346faa8b21161008c57806395d89b411161006657806395d89b411461020e578063b1fea9ba1461022c578063b88d4fde14610248578063c87b56dd14610264576100cf565b806346faa8b2146101925780636352211e146101ae57806370a08231146101de576100cf565b806306fdde03146100d4578063081812fc146100f2578063095ea7b31461012257806323b872dd1461013e57806342842e0e1461015a57806342966c6814610176575b600080fd5b6100dc610294565b6040516100e99190612194565b60405180910390f35b61010c60048036038101906101079190611d4e565b610335565b604051610119919061212d565b60405180910390f35b61013c60048036038101906101379190611c69565b6103c9565b005b61015860048036038101906101539190611b93565b610564565b005b610174600480360381019061016f9190611b93565b6105c4565b005b610190600480360381019061018b9190611d4e565b6105e4565b005b6101ac60048036038101906101a79190611cd6565b610635565b005b6101c860048036038101906101c39190611d4e565b6107a3565b6040516101d5919061212d565b60405180910390f35b6101f860048036038101906101f39190611b66565b610864565b60405161020591906123d6565b60405180910390f35b61021661092b565b6040516102239190612194565b60405180910390f35b61024660048036038101906102419190611d7b565b6109cc565b005b610262600480360381019061025d9190611be6565b610b2e565b005b61027e60048036038101906102799190611d4e565b610b90565b60405161028b9190612194565b60405180910390f35b606060006102a0610c92565b90508060000180546102b190612654565b80601f01602080910402602001604051908101604052809291908181526020018280546102dd90612654565b801561032a5780601f106102ff5761010080835404028352916020019161032a565b820191906000526020600020905b81548152906001019060200180831161030d57829003601f168201915b505050505091505090565b600061034082610cbf565b61037f576040517f08c379a0000000000000000000000000000000000000000000000000000000008152600401610376906122f6565b60405180910390fd5b6000610389610c92565b905080600401600084815260200190815260200160002060009054906101000a900473ffffffffffffffffffffffffffffffffffffffff16915050919050565b60006103d4826107a3565b90508073ffffffffffffffffffffffffffffffffffffffff168373ffffffffffffffffffffffffffffffffffffffff161415610445576040517f08c379a000000000000000000000000000000000000000000000000000000000815260040161043c90612396565b60405180910390fd5b8073ffffffffffffffffffffffffffffffffffffffff16610464610d3a565b73ffffffffffffffffffffffffffffffffffffffff1614806105165750600060010160008273ffffffffffffffffffffffffffffffffffffffff1673ffffffffffffffffffffffffffffffffffffffff16815260200190815260200160002060006104cd610d3a565b73ffffffffffffffffffffffffffffffffffffffff1673ffffffffffffffffffffffffffffffffffffffff16815260200190815260200160002060009054906101000a900460ff165b610555576040517f08c379a000000000000000000000000000000000000000000000000000000000815260040161054c90612256565b60405180910390fd5b61055f8383610d42565b505050565b61057561056f610d3a565b82610e0a565b6105b4576040517f08c379a00000000000000000000000000000000000000000000000000000000081526004016105ab906123b6565b60405180910390fd5b6105bf838383610f72565b505050565b6105df83838360405180602001604052806000815250610b2e565b505050565b60006105ee6111e1565b90506105f98261120e565b80600101600083815260200190815260200160002060006101000a81549073ffffffffffffffffffffffffffffffffffffffff02191690555050565b600061063f611330565b9050600061064b6111e1565b9050600081600301805461065e90612654565b905014801561067d5750600081600401805461067990612654565b9050145b61068657600080fd5b600084511415801561069a57506000835114155b6106d9576040517f08c379a00000000000000000000000000000000000000000000000000000000081526004016106d090612376565b60405180910390fd5b8160040160009054906101000a900473ffffffffffffffffffffffffffffffffffffffff1673ffffffffffffffffffffffffffffffffffffffff163373ffffffffffffffffffffffffffffffffffffffff161461076b576040517f08c379a0000000000000000000000000000000000000000000000000000000008152600401610762906121b6565b60405180910390fd5b83816003019080519060200190610783929190611853565b508281600401908051906020019061079c929190611853565b5050505050565b6000806107ae610c92565b9050600081600201600085815260200190815260200160002060009054906101000a900473ffffffffffffffffffffffffffffffffffffffff169050600073ffffffffffffffffffffffffffffffffffffffff168173ffffffffffffffffffffffffffffffffffffffff16141561085a576040517f08c379a000000000000000000000000000000000000000000000000000000000815260040161085190612296565b60405180910390fd5b8092505050919050565b60008073ffffffffffffffffffffffffffffffffffffffff168273ffffffffffffffffffffffffffffffffffffffff1614156108d5576040517f08c379a00000000000000000000000000000000000000000000000000000000081526004016108cc90612276565b60405180910390fd5b60006108df610c92565b90508060030160008473ffffffffffffffffffffffffffffffffffffffff1673ffffffffffffffffffffffffffffffffffffffff16815260200190815260200160002054915050919050565b60606000610937610c92565b905080600101805461094890612654565b80601f016020809104026020016040519081016040528092919081815260200182805461097490612654565b80156109c15780601f10610996576101008083540402835291602001916109c1565b820191906000526020600020905b8154815290600101906020018083116109a457829003601f168201915b505050505091505090565b6000800160009054906101000a900473ffffffffffffffffffffffffffffffffffffffff1673ffffffffffffffffffffffffffffffffffffffff163373ffffffffffffffffffffffffffffffffffffffff1614610a5e576040517f08c379a0000000000000000000000000000000000000000000000000000000008152600401610a55906122b6565b60405180910390fd5b6000610a686111e1565b90508481600001600088815260200190815260200160002060006101000a81548173ffffffffffffffffffffffffffffffffffffffff021916908373ffffffffffffffffffffffffffffffffffffffff1602179055508481600101600088815260200190815260200160002060006101000a81548173ffffffffffffffffffffffffffffffffffffffff021916908373ffffffffffffffffffffffffffffffffffffffff160217905550610b1c858761135d565b610b26868561137b565b505050505050565b610b3f610b39610d3a565b83610e0a565b610b7e576040517f08c379a0000000000000000000000000000000000000000000000000000000008152600401610b75906123b6565b60405180910390fd5b610b8a848484846113fe565b50505050565b6060610b9b82610cbf565b610bda576040517f08c379a0000000000000000000000000000000000000000000000000000000008152600401610bd190612356565b60405180910390fd5b6000610be46111e1565b905060008160020160008581526020019081526020016000208054610c0890612654565b80601f0160208091040260200160405190810160405280929190818152602001828054610c3490612654565b8015610c815780601f10610c5657610100808354040283529160200191610c81565b820191906000526020600020905b815481529060010190602001808311610c6457829003601f168201915b505050505090508092505050919050565b6000807f27d4b8eb827745c1478e1390415e0b68ca5ace988a610b45757dd674616b25ad90508091505090565b600080610cca610c92565b9050600073ffffffffffffffffffffffffffffffffffffffff1681600201600085815260200190815260200160002060009054906101000a900473ffffffffffffffffffffffffffffffffffffffff1673ffffffffffffffffffffffffffffffffffffffff161415915050919050565b600033905090565b6000610d4c610c92565b90508281600401600084815260200190815260200160002060006101000a81548173ffffffffffffffffffffffffffffffffffffffff021916908373ffffffffffffffffffffffffffffffffffffffff160217905550818373ffffffffffffffffffffffffffffffffffffffff16610dc3846107a3565b73ffffffffffffffffffffffffffffffffffffffff167f8c5be1e5ebec7d5bd14f71427d1e84f3dd0314c0f7b2291e5b200ac8c7c3b92560405160405180910390a4505050565b6000610e1582610cbf565b610e54576040517f08c379a0000000000000000000000000000000000000000000000000000000008152600401610e4b90612236565b60405180910390fd5b6000610e5f836107a3565b90508073ffffffffffffffffffffffffffffffffffffffff168473ffffffffffffffffffffffffffffffffffffffff161480610ece57508373ffffffffffffffffffffffffffffffffffffffff16610eb684610335565b73ffffffffffffffffffffffffffffffffffffffff16145b80610f695750600060010160008273ffffffffffffffffffffffffffffffffffffffff1673ffffffffffffffffffffffffffffffffffffffff1681526020019081526020016000206000610f20610d3a565b73ffffffffffffffffffffffffffffffffffffffff1673ffffffffffffffffffffffffffffffffffffffff16815260200190815260200160002060009054906101000a900460ff165b91505092915050565b8273ffffffffffffffffffffffffffffffffffffffff16610f92826107a3565b73ffffffffffffffffffffffffffffffffffffffff1614610fe8576040517f08c379a0000000000000000000000000000000000000000000000000000000008152600401610fdf90612336565b60405180910390fd5b600073ffffffffffffffffffffffffffffffffffffffff168273ffffffffffffffffffffffffffffffffffffffff161415611058576040517f08c379a000000000000000000000000000000000000000000000000000000000815260040161104f90612216565b60405180910390fd5b61106383838361145a565b61106e600082610d42565b6000611078610c92565b905060018160030160008673ffffffffffffffffffffffffffffffffffffffff1673ffffffffffffffffffffffffffffffffffffffff16815260200190815260200160002060008282546110cc919061255e565b9250508190555060018160030160008573ffffffffffffffffffffffffffffffffffffffff1673ffffffffffffffffffffffffffffffffffffffff16815260200190815260200160002060008282546111259190612508565b925050819055508281600201600084815260200190815260200160002060006101000a81548173ffffffffffffffffffffffffffffffffffffffff021916908373ffffffffffffffffffffffffffffffffffffffff160217905550818373ffffffffffffffffffffffffffffffffffffffff168573ffffffffffffffffffffffffffffffffffffffff167fddf252ad1be2c89b69c2b068fc378daa952ba7f163c4a11628f55a4df523b3ef60405160405180910390a450505050565b6000807f7336099884d9097f82a586e8d7e322fd089b07b96831a9d9ee42fb0a34564cf790508091505090565b6000611219826107a3565b90506112278160008461145a565b611232600083610d42565b600061123c610c92565b905060018160030160008473ffffffffffffffffffffffffffffffffffffffff1673ffffffffffffffffffffffffffffffffffffffff1681526020019081526020016000206000828254611290919061255e565b9250508190555080600201600084815260200190815260200160002060006101000a81549073ffffffffffffffffffffffffffffffffffffffff021916905582600073ffffffffffffffffffffffffffffffffffffffff168373ffffffffffffffffffffffffffffffffffffffff167fddf252ad1be2c89b69c2b068fc378daa952ba7f163c4a11628f55a4df523b3ef60405160405180910390a4505050565b6000807fc8fcad8db84d3cc18b4c41d551ea0ee66dd599cde068d998e57d5e09332c131c90508091505090565b61137782826040518060200160405280600081525061145f565b5050565b61138482610cbf565b6113c3576040517f08c379a00000000000000000000000000000000000000000000000000000000081526004016113ba90612316565b60405180910390fd5b60006113cd6111e1565b90508181600201600085815260200190815260200160002090805190602001906113f8929190611853565b50505050565b611409848484610f72565b611415848484846114ba565b611454576040517f08c379a000000000000000000000000000000000000000000000000000000000815260040161144b906121d6565b60405180910390fd5b50505050565b505050565b6114698383611651565b61147660008484846114ba565b6114b5576040517f08c379a00000000000000000000000000000000000000000000000000000000081526004016114ac906121d6565b60405180910390fd5b505050565b60006114db8473ffffffffffffffffffffffffffffffffffffffff16611830565b15611644578373ffffffffffffffffffffffffffffffffffffffff1663150b7a02611504610d3a565b8786866040518563ffffffff1660e01b81526004016115269493929190612148565b602060405180830381600087803b15801561154057600080fd5b505af192505050801561157157506040513d601f19601f8201168201806040525081019061156e9190611ca9565b60015b6115f4573d80600081146115a1576040519150601f19603f3d011682016040523d82523d6000602084013e6115a6565b606091505b506000815114156115ec576040517f08c379a00000000000000000000000000000000000000000000000000000000081526004016115e3906121d6565b60405180910390fd5b805181602001fd5b63150b7a0260e01b7bffffffffffffffffffffffffffffffffffffffffffffffffffffffff1916817bffffffffffffffffffffffffffffffffffffffffffffffffffffffff191614915050611649565b600190505b949350505050565b600073ffffffffffffffffffffffffffffffffffffffff168273ffffffffffffffffffffffffffffffffffffffff1614156116c1576040517f08c379a00000000000000000000000000000000000000000000000000000000081526004016116b8906122d6565b60405180910390fd5b6116ca81610cbf565b1561170a576040517f08c379a0000000000000000000000000000000000000000000000000000000008152600401611701906121f6565b60405180910390fd5b6117166000838361145a565b6000611720610c92565b905060018160030160008573ffffffffffffffffffffffffffffffffffffffff1673ffffffffffffffffffffffffffffffffffffffff16815260200190815260200160002060008282546117749190612508565b925050819055508281600201600084815260200190815260200160002060006101000a81548173ffffffffffffffffffffffffffffffffffffffff021916908373ffffffffffffffffffffffffffffffffffffffff160217905550818373ffffffffffffffffffffffffffffffffffffffff16600073ffffffffffffffffffffffffffffffffffffffff167fddf252ad1be2c89b69c2b068fc378daa952ba7f163c4a11628f55a4df523b3ef60405160405180910390a4505050565b6000808273ffffffffffffffffffffffffffffffffffffffff163b119050919050565b82805461185f90612654565b90600052602060002090601f01602090048101928261188157600085556118c8565b82601f1061189a57805160ff19168380011785556118c8565b828001600101855582156118c8579182015b828111156118c75782518255916020019190600101906118ac565b5b5090506118d591906118d9565b5090565b5b808211156118f25760008160009055506001016118da565b5090565b600061190961190484612416565b6123f1565b9050808382526020820190508285602086028201111561192c5761192b612749565b5b60005b8581101561195c57816119428882611a5a565b84526020840193506020830192505060018101905061192f565b5050509392505050565b600061197961197484612442565b6123f1565b9050808382526020820190508285602086028201111561199c5761199b612749565b5b60005b858110156119cc57816119b28882611b51565b84526020840193506020830192505060018101905061199f565b5050509392505050565b60006119e96119e48461246e565b6123f1565b905082815260208101848484011115611a0557611a0461274e565b5b611a10848285612612565b509392505050565b6000611a2b611a268461249f565b6123f1565b905082815260208101848484011115611a4757611a4661274e565b5b611a52848285612612565b509392505050565b600081359050611a6981612c15565b92915050565b600082601f830112611a8457611a83612744565b5b8135611a948482602086016118f6565b91505092915050565b600082601f830112611ab257611ab1612744565b5b8135611ac2848260208601611966565b91505092915050565b600081519050611ada81612c2c565b92915050565b600082601f830112611af557611af4612744565b5b8135611b058482602086016119d6565b91505092915050565b600082601f830112611b2357611b22612744565b5b8135611b33848260208601611a18565b91505092915050565b600081359050611b4b81612c43565b92915050565b600081359050611b6081612c5a565b92915050565b600060208284031215611b7c57611b7b612758565b5b6000611b8a84828501611a5a565b91505092915050565b600080600060608486031215611bac57611bab612758565b5b6000611bba86828701611a5a565b9350506020611bcb86828701611a5a565b9250506040611bdc86828701611b3c565b9150509250925092565b60008060008060808587031215611c0057611bff612758565b5b6000611c0e87828801611a5a565b9450506020611c1f87828801611a5a565b9350506040611c3087828801611b3c565b925050606085013567ffffffffffffffff811115611c5157611c50612753565b5b611c5d87828801611ae0565b91505092959194509250565b60008060408385031215611c8057611c7f612758565b5b6000611c8e85828601611a5a565b9250506020611c9f85828601611b3c565b9150509250929050565b600060208284031215611cbf57611cbe612758565b5b6000611ccd84828501611acb565b91505092915050565b60008060408385031215611ced57611cec612758565b5b600083013567ffffffffffffffff811115611d0b57611d0a612753565b5b611d1785828601611b0e565b925050602083013567ffffffffffffffff811115611d3857611d37612753565b5b611d4485828601611b0e565b9150509250929050565b600060208284031215611d6457611d63612758565b5b6000611d7284828501611b3c565b91505092915050565b600080600080600060a08688031215611d9757611d96612758565b5b6000611da588828901611b3c565b9550506020611db688828901611a5a565b945050604086013567ffffffffffffffff811115611dd757611dd6612753565b5b611de388828901611b0e565b935050606086013567ffffffffffffffff811115611e0457611e03612753565b5b611e1088828901611a6f565b925050608086013567ffffffffffffffff811115611e3157611e30612753565b5b611e3d88828901611a9d565b9150509295509295909350565b611e5381612592565b82525050565b6000611e64826124d0565b611e6e81856124e6565b9350611e7e818560208601612621565b611e878161275d565b840191505092915050565b6000611e9d826124db565b611ea781856124f7565b9350611eb7818560208601612621565b611ec08161275d565b840191505092915050565b6000611ed86016836124f7565b9150611ee38261276e565b602082019050919050565b6000611efb6032836124f7565b9150611f0682612797565b604082019050919050565b6000611f1e601c836124f7565b9150611f29826127e6565b602082019050919050565b6000611f416024836124f7565b9150611f4c8261280f565b604082019050919050565b6000611f64602c836124f7565b9150611f6f8261285e565b604082019050919050565b6000611f876038836124f7565b9150611f92826128ad565b604082019050919050565b6000611faa602a836124f7565b9150611fb5826128fc565b604082019050919050565b6000611fcd6029836124f7565b9150611fd88261294b565b604082019050919050565b6000611ff06023836124f7565b9150611ffb8261299a565b604082019050919050565b60006120136020836124f7565b915061201e826129e9565b602082019050919050565b6000612036602c836124f7565b915061204182612a12565b604082019050919050565b6000612059602c836124f7565b915061206482612a61565b604082019050919050565b600061207c6029836124f7565b915061208782612ab0565b604082019050919050565b600061209f602f836124f7565b91506120aa82612aff565b604082019050919050565b60006120c2600e836124f7565b91506120cd82612b4e565b602082019050919050565b60006120e56021836124f7565b91506120f082612b77565b604082019050919050565b60006121086031836124f7565b915061211382612bc6565b604082019050919050565b612127816125f0565b82525050565b60006020820190506121426000830184611e4a565b92915050565b600060808201905061215d6000830187611e4a565b61216a6020830186611e4a565b612177604083018561211e565b81810360608301526121898184611e59565b905095945050505050565b600060208201905081810360008301526121ae8184611e92565b905092915050565b600060208201905081810360008301526121cf81611ecb565b9050919050565b600060208201905081810360008301526121ef81611eee565b9050919050565b6000602082019050818103600083015261220f81611f11565b9050919050565b6000602082019050818103600083015261222f81611f34565b9050919050565b6000602082019050818103600083015261224f81611f57565b9050919050565b6000602082019050818103600083015261226f81611f7a565b9050919050565b6000602082019050818103600083015261228f81611f9d565b9050919050565b600060208201905081810360008301526122af81611fc0565b9050919050565b600060208201905081810360008301526122cf81611fe3565b9050919050565b600060208201905081810360008301526122ef81612006565b9050919050565b6000602082019050818103600083015261230f81612029565b9050919050565b6000602082019050818103600083015261232f8161204c565b9050919050565b6000602082019050818103600083015261234f8161206f565b9050919050565b6000602082019050818103600083015261236f81612092565b9050919050565b6000602082019050818103600083015261238f816120b5565b9050919050565b600060208201905081810360008301526123af816120d8565b9050919050565b600060208201905081810360008301526123cf816120fb565b9050919050565b60006020820190506123eb600083018461211e565b92915050565b60006123fb61240c565b90506124078282612686565b919050565b6000604051905090565b600067ffffffffffffffff82111561243157612430612715565b5b602082029050602081019050919050565b600067ffffffffffffffff82111561245d5761245c612715565b5b602082029050602081019050919050565b600067ffffffffffffffff82111561248957612488612715565b5b6124928261275d565b9050602081019050919050565b600067ffffffffffffffff8211156124ba576124b9612715565b5b6124c38261275d565b9050602081019050919050565b600081519050919050565b600081519050919050565b600082825260208201905092915050565b600082825260208201905092915050565b6000612513826125f0565b915061251e836125f0565b9250827fffffffffffffffffffffffffffffffffffffffffffffffffffffffffffffffff03821115612553576125526126b7565b5b828201905092915050565b6000612569826125f0565b9150612574836125f0565b925082821015612587576125866126b7565b5b828203905092915050565b600061259d826125d0565b9050919050565b60007fffffffff0000000000000000000000000000000000000000000000000000000082169050919050565b600073ffffffffffffffffffffffffffffffffffffffff82169050919050565b6000819050919050565b60006bffffffffffffffffffffffff82169050919050565b82818337600083830152505050565b60005b8381101561263f578082015181840152602081019050612624565b8381111561264e576000848401525b50505050565b6000600282049050600182168061266c57607f821691505b602082108114156126805761267f6126e6565b5b50919050565b61268f8261275d565b810181811067ffffffffffffffff821117156126ae576126ad612715565b5b80604052505050565b7f4e487b7100000000000000000000000000000000000000000000000000000000600052601160045260246000fd5b7f4e487b7100000000000000000000000000000000000000000000000000000000600052602260045260246000fd5b7f4e487b7100000000000000000000000000000000000000000000000000000000600052604160045260246000fd5b600080fd5b600080fd5b600080fd5b600080fd5b600080fd5b6000601f19601f8301169050919050565b7f4d757374206f776e2074686520636f6e74726163742e00000000000000000000600082015250565b7f4552433732313a207472616e7366657220746f206e6f6e20455243373231526560008201527f63656976657220696d706c656d656e7465720000000000000000000000000000602082015250565b7f4552433732313a20746f6b656e20616c7265616479206d696e74656400000000600082015250565b7f4552433732313a207472616e7366657220746f20746865207a65726f2061646460008201527f7265737300000000000000000000000000000000000000000000000000000000602082015250565b7f4552433732313a206f70657261746f7220717565727920666f72206e6f6e657860008201527f697374656e7420746f6b656e0000000000000000000000000000000000000000602082015250565b7f4552433732313a20617070726f76652063616c6c6572206973206e6f74206f7760008201527f6e6572206e6f7220617070726f76656420666f7220616c6c0000000000000000602082015250565b7f4552433732313a2062616c616e636520717565727920666f7220746865207a6560008201527f726f206164647265737300000000000000000000000000000000000000000000602082015250565b7f4552433732313a206f776e657220717565727920666f72206e6f6e657869737460008201527f656e7420746f6b656e0000000000000000000000000000000000000000000000602082015250565b7f455243373231466163746f72793a20556e617574686f72697a6564204163636560008201527f7373210000000000000000000000000000000000000000000000000000000000602082015250565b7f4552433732313a206d696e7420746f20746865207a65726f2061646472657373600082015250565b7f4552433732313a20617070726f76656420717565727920666f72206e6f6e657860008201527f697374656e7420746f6b656e0000000000000000000000000000000000000000602082015250565b7f4552433732314d657461646174613a2055524920736574206f66206e6f6e657860008201527f697374656e7420746f6b656e0000000000000000000000000000000000000000602082015250565b7f4552433732313a207472616e73666572206f6620746f6b656e2074686174206960008201527f73206e6f74206f776e0000000000000000000000000000000000000000000000602082015250565b7f4552433732314d657461646174613a2055524920717565727920666f72206e6f60008201527f6e6578697374656e7420746f6b656e0000000000000000000000000000000000602082015250565b7f494e56414c49445f504152414d53000000000000000000000000000000000000600082015250565b7f4552433732313a20617070726f76616c20746f2063757272656e74206f776e6560008201527f7200000000000000000000000000000000000000000000000000000000000000602082015250565b7f4552433732313a207472616e736665722063616c6c6572206973206e6f74206f60008201527f776e6572206e6f7220617070726f766564000000000000000000000000000000602082015250565b612c1e81612592565b8114612c2957600080fd5b50565b612c35816125a4565b8114612c4057600080fd5b50565b612c4c816125f0565b8114612c5757600080fd5b50565b612c63816125fa565b8114612c6e57600080fd5b5056fea264697066735822122016ce71605fb2c4a34ccf37079553da2d08e8c87ba524a3fe745b297a90a799ab64736f6c63430008060033",
  "linkReferences": {},
  "deployedLinkReferences": {}
}