{
  "_format": "hh-sol-artifact-1",
  "contractName": "ERC721FactoryFacet",
  "sourceName": "contracts/facets/ERC721Factory/ERC721FactoryFacet.sol",
  "abi": [
    {
      "anonymous": false,
      "inputs": [
        {
          "indexed": true,
          "internalType": "address",
          "name": "owner",
          "type": "address"
        },
        {
          "indexed": true,
          "internalType": "address",
          "name": "approved",
          "type": "address"
        },
        {
          "indexed": true,
          "internalType": "uint256",
          "name": "tokenId",
          "type": "uint256"
        }
      ],
      "name": "Approval",
      "type": "event"
    },
    {
      "anonymous": false,
      "inputs": [
        {
          "indexed": true,
          "internalType": "address",
          "name": "owner",
          "type": "address"
        },
        {
          "indexed": true,
          "internalType": "address",
          "name": "operator",
          "type": "address"
        },
        {
          "indexed": false,
          "internalType": "bool",
          "name": "approved",
          "type": "bool"
        }
      ],
      "name": "ApprovalForAll",
      "type": "event"
    },
    {
      "anonymous": false,
      "inputs": [
        {
          "indexed": true,
          "internalType": "address",
          "name": "from",
          "type": "address"
        },
        {
          "indexed": true,
          "internalType": "address",
          "name": "to",
          "type": "address"
        },
        {
          "indexed": true,
          "internalType": "uint256",
          "name": "tokenId",
          "type": "uint256"
        }
      ],
      "name": "Transfer",
      "type": "event"
    },
    {
      "inputs": [
        {
          "internalType": "uint256",
          "name": "tokenId",
          "type": "uint256"
        }
      ],
      "name": "_tokenExists",
      "outputs": [
        {
          "internalType": "bool",
          "name": "",
          "type": "bool"
        }
      ],
      "stateMutability": "view",
      "type": "function"
    },
    {
      "inputs": [
        {
          "internalType": "address",
          "name": "to",
          "type": "address"
        },
        {
          "internalType": "uint256",
          "name": "tokenId",
          "type": "uint256"
        }
      ],
      "name": "approve",
      "outputs": [],
      "stateMutability": "nonpayable",
      "type": "function"
    },
    {
      "inputs": [
        {
          "internalType": "address",
          "name": "owner",
          "type": "address"
        }
      ],
      "name": "balanceOf",
      "outputs": [
        {
          "internalType": "uint256",
          "name": "",
          "type": "uint256"
        }
      ],
      "stateMutability": "view",
      "type": "function"
    },
    {
      "inputs": [
        {
          "internalType": "uint256",
          "name": "tokenId",
          "type": "uint256"
        }
      ],
      "name": "burn",
      "outputs": [],
      "stateMutability": "nonpayable",
      "type": "function"
    },
    {
      "inputs": [
        {
          "internalType": "string",
          "name": "name_",
          "type": "string"
        },
        {
          "internalType": "string",
          "name": "symbol_",
          "type": "string"
        }
      ],
      "name": "erc721FactoryFacetInit",
      "outputs": [],
      "stateMutability": "nonpayable",
      "type": "function"
    },
    {
      "inputs": [
        {
          "internalType": "uint256",
          "name": "tokenId",
          "type": "uint256"
        }
      ],
      "name": "getApproved",
      "outputs": [
        {
          "internalType": "address",
          "name": "",
          "type": "address"
        }
      ],
      "stateMutability": "view",
      "type": "function"
    },
    {
      "inputs": [
        {
          "internalType": "uint256",
          "name": "tokenId",
          "type": "uint256"
        },
        {
          "internalType": "address",
          "name": "creator",
          "type": "address"
        },
        {
          "internalType": "string",
          "name": "_tokenURI",
          "type": "string"
        },
        {
          "internalType": "address[]",
          "name": "royaltyReceiver",
          "type": "address[]"
        },
        {
          "internalType": "uint96[]",
          "name": "tokenRoyaltyInBips",
          "type": "uint96[]"
        }
      ],
      "name": "mint",
      "outputs": [],
      "stateMutability": "nonpayable",
      "type": "function"
    },
    {
      "inputs": [],
      "name": "name",
      "outputs": [
        {
          "internalType": "string",
          "name": "",
          "type": "string"
        }
      ],
      "stateMutability": "view",
      "type": "function"
    },
    {
      "inputs": [
        {
          "internalType": "uint256",
          "name": "tokenId",
          "type": "uint256"
        }
      ],
      "name": "ownerOf",
      "outputs": [
        {
          "internalType": "address",
          "name": "",
          "type": "address"
        }
      ],
      "stateMutability": "view",
      "type": "function"
    },
    {
      "inputs": [
        {
          "internalType": "address",
          "name": "from",
          "type": "address"
        },
        {
          "internalType": "address",
          "name": "to",
          "type": "address"
        },
        {
          "internalType": "uint256",
          "name": "tokenId",
          "type": "uint256"
        }
      ],
      "name": "safeTransferFrom",
      "outputs": [],
      "stateMutability": "nonpayable",
      "type": "function"
    },
    {
      "inputs": [
        {
          "internalType": "address",
          "name": "from",
          "type": "address"
        },
        {
          "internalType": "address",
          "name": "to",
          "type": "address"
        },
        {
          "internalType": "uint256",
          "name": "tokenId",
          "type": "uint256"
        },
        {
          "internalType": "bytes",
          "name": "_data",
          "type": "bytes"
        }
      ],
      "name": "safeTransferFrom",
      "outputs": [],
      "stateMutability": "nonpayable",
      "type": "function"
    },
    {
      "inputs": [],
      "name": "symbol",
      "outputs": [
        {
          "internalType": "string",
          "name": "",
          "type": "string"
        }
      ],
      "stateMutability": "view",
      "type": "function"
    },
    {
      "inputs": [
        {
          "internalType": "uint256",
          "name": "tokenId",
          "type": "uint256"
        }
      ],
      "name": "tokenURI",
      "outputs": [
        {
          "internalType": "string",
          "name": "",
          "type": "string"
        }
      ],
      "stateMutability": "view",
      "type": "function"
    },
    {
      "inputs": [
        {
          "internalType": "address",
          "name": "from",
          "type": "address"
        },
        {
          "internalType": "address",
          "name": "to",
          "type": "address"
        },
        {
          "internalType": "uint256",
          "name": "tokenId",
          "type": "uint256"
        }
      ],
      "name": "transferFrom",
      "outputs": [],
      "stateMutability": "nonpayable",
      "type": "function"
    }
  ],
  "bytecode": "0x608060405234801561001057600080fd5b50612d3a806100206000396000f3fe608060405234801561001057600080fd5b50600436106100ea5760003560e01c80636352211e1161008c57806395d89b411161006657806395d89b4114610259578063b1fea9ba14610277578063b88d4fde14610293578063c87b56dd146102af576100ea565b80636352211e146101c957806370a08231146101f9578063895e8b2314610229576100ea565b806323b872dd116100c857806323b872dd1461015957806342842e0e1461017557806342966c681461019157806346faa8b2146101ad576100ea565b806306fdde03146100ef578063081812fc1461010d578063095ea7b31461013d575b600080fd5b6100f76102df565b604051610104919061221b565b60405180910390f35b61012760048036038101906101229190611dab565b610380565b6040516101349190612199565b60405180910390f35b61015760048036038101906101529190611cc6565b610414565b005b610173600480360381019061016e9190611bf0565b6105af565b005b61018f600480360381019061018a9190611bf0565b61060f565b005b6101ab60048036038101906101a69190611dab565b61062f565b005b6101c760048036038101906101c29190611d33565b610680565b005b6101e360048036038101906101de9190611dab565b6107ee565b6040516101f09190612199565b60405180910390f35b610213600480360381019061020e9190611bc3565b6108af565b604051610220919061245d565b60405180910390f35b610243600480360381019061023e9190611dab565b610976565b6040516102509190612200565b60405180910390f35b610261610988565b60405161026e919061221b565b60405180910390f35b610291600480360381019061028c9190611dd8565b610a29565b005b6102ad60048036038101906102a89190611c43565b610b8b565b005b6102c960048036038101906102c49190611dab565b610bed565b6040516102d6919061221b565b60405180910390f35b606060006102eb610cef565b90508060000180546102fc906126e7565b80601f0160208091040260200160405190810160405280929190818152602001828054610328906126e7565b80156103755780601f1061034a57610100808354040283529160200191610375565b820191906000526020600020905b81548152906001019060200180831161035857829003601f168201915b505050505091505090565b600061038b82610d1c565b6103ca576040517f08c379a00000000000000000000000000000000000000000000000000000000081526004016103c19061237d565b60405180910390fd5b60006103d4610cef565b905080600401600084815260200190815260200160002060009054906101000a900473ffffffffffffffffffffffffffffffffffffffff16915050919050565b600061041f826107ee565b90508073ffffffffffffffffffffffffffffffffffffffff168373ffffffffffffffffffffffffffffffffffffffff161415610490576040517f08c379a00000000000000000000000000000000000000000000000000000000081526004016104879061241d565b60405180910390fd5b8073ffffffffffffffffffffffffffffffffffffffff166104af610d97565b73ffffffffffffffffffffffffffffffffffffffff1614806105615750600060010160008273ffffffffffffffffffffffffffffffffffffffff1673ffffffffffffffffffffffffffffffffffffffff1681526020019081526020016000206000610518610d97565b73ffffffffffffffffffffffffffffffffffffffff1673ffffffffffffffffffffffffffffffffffffffff16815260200190815260200160002060009054906101000a900460ff165b6105a0576040517f08c379a0000000000000000000000000000000000000000000000000000000008152600401610597906122dd565b60405180910390fd5b6105aa8383610d9f565b505050565b6105c06105ba610d97565b82610e67565b6105ff576040517f08c379a00000000000000000000000000000000000000000000000000000000081526004016105f69061243d565b60405180910390fd5b61060a838383610fcf565b505050565b61062a83838360405180602001604052806000815250610b8b565b505050565b600061063961123e565b90506106448261126b565b80600101600083815260200190815260200160002060006101000a81549073ffffffffffffffffffffffffffffffffffffffff02191690555050565b600061068a61138d565b9050600061069661123e565b905060008160030180546106a9906126e7565b90501480156106c8575060008160040180546106c4906126e7565b9050145b6106d157600080fd5b60008451141580156106e557506000835114155b610724576040517f08c379a000000000000000000000000000000000000000000000000000000000815260040161071b906123fd565b60405180910390fd5b8160040160009054906101000a900473ffffffffffffffffffffffffffffffffffffffff1673ffffffffffffffffffffffffffffffffffffffff163373ffffffffffffffffffffffffffffffffffffffff16146107b6576040517f08c379a00000000000000000000000000000000000000000000000000000000081526004016107ad9061223d565b60405180910390fd5b838160030190805190602001906107ce9291906118b0565b50828160040190805190602001906107e79291906118b0565b5050505050565b6000806107f9610cef565b9050600081600201600085815260200190815260200160002060009054906101000a900473ffffffffffffffffffffffffffffffffffffffff169050600073ffffffffffffffffffffffffffffffffffffffff168173ffffffffffffffffffffffffffffffffffffffff1614156108a5576040517f08c379a000000000000000000000000000000000000000000000000000000000815260040161089c9061231d565b60405180910390fd5b8092505050919050565b60008073ffffffffffffffffffffffffffffffffffffffff168273ffffffffffffffffffffffffffffffffffffffff161415610920576040517f08c379a0000000000000000000000000000000000000000000000000000000008152600401610917906122fd565b60405180910390fd5b600061092a610cef565b90508060030160008473ffffffffffffffffffffffffffffffffffffffff1673ffffffffffffffffffffffffffffffffffffffff16815260200190815260200160002054915050919050565b600061098182610d1c565b9050919050565b60606000610994610cef565b90508060010180546109a5906126e7565b80601f01602080910402602001604051908101604052809291908181526020018280546109d1906126e7565b8015610a1e5780601f106109f357610100808354040283529160200191610a1e565b820191906000526020600020905b815481529060010190602001808311610a0157829003601f168201915b505050505091505090565b6000800160009054906101000a900473ffffffffffffffffffffffffffffffffffffffff1673ffffffffffffffffffffffffffffffffffffffff163373ffffffffffffffffffffffffffffffffffffffff1614610abb576040517f08c379a0000000000000000000000000000000000000000000000000000000008152600401610ab29061233d565b60405180910390fd5b6000610ac561123e565b90508481600001600088815260200190815260200160002060006101000a81548173ffffffffffffffffffffffffffffffffffffffff021916908373ffffffffffffffffffffffffffffffffffffffff1602179055508481600101600088815260200190815260200160002060006101000a81548173ffffffffffffffffffffffffffffffffffffffff021916908373ffffffffffffffffffffffffffffffffffffffff160217905550610b7985876113ba565b610b8386856113d8565b505050505050565b610b9c610b96610d97565b83610e67565b610bdb576040517f08c379a0000000000000000000000000000000000000000000000000000000008152600401610bd29061243d565b60405180910390fd5b610be78484848461145b565b50505050565b6060610bf882610d1c565b610c37576040517f08c379a0000000000000000000000000000000000000000000000000000000008152600401610c2e906123dd565b60405180910390fd5b6000610c4161123e565b905060008160020160008581526020019081526020016000208054610c65906126e7565b80601f0160208091040260200160405190810160405280929190818152602001828054610c91906126e7565b8015610cde5780601f10610cb357610100808354040283529160200191610cde565b820191906000526020600020905b815481529060010190602001808311610cc157829003601f168201915b505050505090508092505050919050565b6000807f27d4b8eb827745c1478e1390415e0b68ca5ace988a610b45757dd674616b25ad90508091505090565b600080610d27610cef565b9050600073ffffffffffffffffffffffffffffffffffffffff1681600201600085815260200190815260200160002060009054906101000a900473ffffffffffffffffffffffffffffffffffffffff1673ffffffffffffffffffffffffffffffffffffffff161415915050919050565b600033905090565b6000610da9610cef565b90508281600401600084815260200190815260200160002060006101000a81548173ffffffffffffffffffffffffffffffffffffffff021916908373ffffffffffffffffffffffffffffffffffffffff160217905550818373ffffffffffffffffffffffffffffffffffffffff16610e20846107ee565b73ffffffffffffffffffffffffffffffffffffffff167f8c5be1e5ebec7d5bd14f71427d1e84f3dd0314c0f7b2291e5b200ac8c7c3b92560405160405180910390a4505050565b6000610e7282610d1c565b610eb1576040517f08c379a0000000000000000000000000000000000000000000000000000000008152600401610ea8906122bd565b60405180910390fd5b6000610ebc836107ee565b90508073ffffffffffffffffffffffffffffffffffffffff168473ffffffffffffffffffffffffffffffffffffffff161480610f2b57508373ffffffffffffffffffffffffffffffffffffffff16610f1384610380565b73ffffffffffffffffffffffffffffffffffffffff16145b80610fc65750600060010160008273ffffffffffffffffffffffffffffffffffffffff1673ffffffffffffffffffffffffffffffffffffffff1681526020019081526020016000206000610f7d610d97565b73ffffffffffffffffffffffffffffffffffffffff1673ffffffffffffffffffffffffffffffffffffffff16815260200190815260200160002060009054906101000a900460ff165b91505092915050565b8273ffffffffffffffffffffffffffffffffffffffff16610fef826107ee565b73ffffffffffffffffffffffffffffffffffffffff1614611045576040517f08c379a000000000000000000000000000000000000000000000000000000000815260040161103c906123bd565b60405180910390fd5b600073ffffffffffffffffffffffffffffffffffffffff168273ffffffffffffffffffffffffffffffffffffffff1614156110b5576040517f08c379a00000000000000000000000000000000000000000000000000000000081526004016110ac9061229d565b60405180910390fd5b6110c08383836114b7565b6110cb600082610d9f565b60006110d5610cef565b905060018160030160008673ffffffffffffffffffffffffffffffffffffffff1673ffffffffffffffffffffffffffffffffffffffff168152602001908152602001600020600082825461112991906125e5565b9250508190555060018160030160008573ffffffffffffffffffffffffffffffffffffffff1673ffffffffffffffffffffffffffffffffffffffff1681526020019081526020016000206000828254611182919061258f565b925050819055508281600201600084815260200190815260200160002060006101000a81548173ffffffffffffffffffffffffffffffffffffffff021916908373ffffffffffffffffffffffffffffffffffffffff160217905550818373ffffffffffffffffffffffffffffffffffffffff168573ffffffffffffffffffffffffffffffffffffffff167fddf252ad1be2c89b69c2b068fc378daa952ba7f163c4a11628f55a4df523b3ef60405160405180910390a450505050565b6000807f7336099884d9097f82a586e8d7e322fd089b07b96831a9d9ee42fb0a34564cf790508091505090565b6000611276826107ee565b9050611284816000846114b7565b61128f600083610d9f565b6000611299610cef565b905060018160030160008473ffffffffffffffffffffffffffffffffffffffff1673ffffffffffffffffffffffffffffffffffffffff16815260200190815260200160002060008282546112ed91906125e5565b9250508190555080600201600084815260200190815260200160002060006101000a81549073ffffffffffffffffffffffffffffffffffffffff021916905582600073ffffffffffffffffffffffffffffffffffffffff168373ffffffffffffffffffffffffffffffffffffffff167fddf252ad1be2c89b69c2b068fc378daa952ba7f163c4a11628f55a4df523b3ef60405160405180910390a4505050565b6000807fc8fcad8db84d3cc18b4c41d551ea0ee66dd599cde068d998e57d5e09332c131c90508091505090565b6113d48282604051806020016040528060008152506114bc565b5050565b6113e182610d1c565b611420576040517f08c379a00000000000000000000000000000000000000000000000000000000081526004016114179061239d565b60405180910390fd5b600061142a61123e565b90508181600201600085815260200190815260200160002090805190602001906114559291906118b0565b50505050565b611466848484610fcf565b61147284848484611517565b6114b1576040517f08c379a00000000000000000000000000000000000000000000000000000000081526004016114a89061225d565b60405180910390fd5b50505050565b505050565b6114c683836116ae565b6114d36000848484611517565b611512576040517f08c379a00000000000000000000000000000000000000000000000000000000081526004016115099061225d565b60405180910390fd5b505050565b60006115388473ffffffffffffffffffffffffffffffffffffffff1661188d565b156116a1578373ffffffffffffffffffffffffffffffffffffffff1663150b7a02611561610d97565b8786866040518563ffffffff1660e01b815260040161158394939291906121b4565b602060405180830381600087803b15801561159d57600080fd5b505af19250505080156115ce57506040513d601f19601f820116820180604052508101906115cb9190611d06565b60015b611651573d80600081146115fe576040519150601f19603f3d011682016040523d82523d6000602084013e611603565b606091505b50600081511415611649576040517f08c379a00000000000000000000000000000000000000000000000000000000081526004016116409061225d565b60405180910390fd5b805181602001fd5b63150b7a0260e01b7bffffffffffffffffffffffffffffffffffffffffffffffffffffffff1916817bffffffffffffffffffffffffffffffffffffffffffffffffffffffff1916149150506116a6565b600190505b949350505050565b600073ffffffffffffffffffffffffffffffffffffffff168273ffffffffffffffffffffffffffffffffffffffff16141561171e576040517f08c379a00000000000000000000000000000000000000000000000000000000081526004016117159061235d565b60405180910390fd5b61172781610d1c565b15611767576040517f08c379a000000000000000000000000000000000000000000000000000000000815260040161175e9061227d565b60405180910390fd5b611773600083836114b7565b600061177d610cef565b905060018160030160008573ffffffffffffffffffffffffffffffffffffffff1673ffffffffffffffffffffffffffffffffffffffff16815260200190815260200160002060008282546117d1919061258f565b925050819055508281600201600084815260200190815260200160002060006101000a81548173ffffffffffffffffffffffffffffffffffffffff021916908373ffffffffffffffffffffffffffffffffffffffff160217905550818373ffffffffffffffffffffffffffffffffffffffff16600073ffffffffffffffffffffffffffffffffffffffff167fddf252ad1be2c89b69c2b068fc378daa952ba7f163c4a11628f55a4df523b3ef60405160405180910390a4505050565b6000808273ffffffffffffffffffffffffffffffffffffffff163b119050919050565b8280546118bc906126e7565b90600052602060002090601f0160209004810192826118de5760008555611925565b82601f106118f757805160ff1916838001178555611925565b82800160010185558215611925579182015b82811115611924578251825591602001919060010190611909565b5b5090506119329190611936565b5090565b5b8082111561194f576000816000905550600101611937565b5090565b60006119666119618461249d565b612478565b90508083825260208201905082856020860282011115611989576119886127dc565b5b60005b858110156119b9578161199f8882611ab7565b84526020840193506020830192505060018101905061198c565b5050509392505050565b60006119d66119d1846124c9565b612478565b905080838252602082019050828560208602820111156119f9576119f86127dc565b5b60005b85811015611a295781611a0f8882611bae565b8452602084019350602083019250506001810190506119fc565b5050509392505050565b6000611a46611a41846124f5565b612478565b905082815260208101848484011115611a6257611a616127e1565b5b611a6d8482856126a5565b509392505050565b6000611a88611a8384612526565b612478565b905082815260208101848484011115611aa457611aa36127e1565b5b611aaf8482856126a5565b509392505050565b600081359050611ac681612ca8565b92915050565b600082601f830112611ae157611ae06127d7565b5b8135611af1848260208601611953565b91505092915050565b600082601f830112611b0f57611b0e6127d7565b5b8135611b1f8482602086016119c3565b91505092915050565b600081519050611b3781612cbf565b92915050565b600082601f830112611b5257611b516127d7565b5b8135611b62848260208601611a33565b91505092915050565b600082601f830112611b8057611b7f6127d7565b5b8135611b90848260208601611a75565b91505092915050565b600081359050611ba881612cd6565b92915050565b600081359050611bbd81612ced565b92915050565b600060208284031215611bd957611bd86127eb565b5b6000611be784828501611ab7565b91505092915050565b600080600060608486031215611c0957611c086127eb565b5b6000611c1786828701611ab7565b9350506020611c2886828701611ab7565b9250506040611c3986828701611b99565b9150509250925092565b60008060008060808587031215611c5d57611c5c6127eb565b5b6000611c6b87828801611ab7565b9450506020611c7c87828801611ab7565b9350506040611c8d87828801611b99565b925050606085013567ffffffffffffffff811115611cae57611cad6127e6565b5b611cba87828801611b3d565b91505092959194509250565b60008060408385031215611cdd57611cdc6127eb565b5b6000611ceb85828601611ab7565b9250506020611cfc85828601611b99565b9150509250929050565b600060208284031215611d1c57611d1b6127eb565b5b6000611d2a84828501611b28565b91505092915050565b60008060408385031215611d4a57611d496127eb565b5b600083013567ffffffffffffffff811115611d6857611d676127e6565b5b611d7485828601611b6b565b925050602083013567ffffffffffffffff811115611d9557611d946127e6565b5b611da185828601611b6b565b9150509250929050565b600060208284031215611dc157611dc06127eb565b5b6000611dcf84828501611b99565b91505092915050565b600080600080600060a08688031215611df457611df36127eb565b5b6000611e0288828901611b99565b9550506020611e1388828901611ab7565b945050604086013567ffffffffffffffff811115611e3457611e336127e6565b5b611e4088828901611b6b565b935050606086013567ffffffffffffffff811115611e6157611e606127e6565b5b611e6d88828901611acc565b925050608086013567ffffffffffffffff811115611e8e57611e8d6127e6565b5b611e9a88828901611afa565b9150509295509295909350565b611eb081612619565b82525050565b611ebf8161262b565b82525050565b6000611ed082612557565b611eda818561256d565b9350611eea8185602086016126b4565b611ef3816127f0565b840191505092915050565b6000611f0982612562565b611f13818561257e565b9350611f238185602086016126b4565b611f2c816127f0565b840191505092915050565b6000611f4460168361257e565b9150611f4f82612801565b602082019050919050565b6000611f6760328361257e565b9150611f728261282a565b604082019050919050565b6000611f8a601c8361257e565b9150611f9582612879565b602082019050919050565b6000611fad60248361257e565b9150611fb8826128a2565b604082019050919050565b6000611fd0602c8361257e565b9150611fdb826128f1565b604082019050919050565b6000611ff360388361257e565b9150611ffe82612940565b604082019050919050565b6000612016602a8361257e565b91506120218261298f565b604082019050919050565b600061203960298361257e565b9150612044826129de565b604082019050919050565b600061205c60238361257e565b915061206782612a2d565b604082019050919050565b600061207f60208361257e565b915061208a82612a7c565b602082019050919050565b60006120a2602c8361257e565b91506120ad82612aa5565b604082019050919050565b60006120c5602c8361257e565b91506120d082612af4565b604082019050919050565b60006120e860298361257e565b91506120f382612b43565b604082019050919050565b600061210b602f8361257e565b915061211682612b92565b604082019050919050565b600061212e600e8361257e565b915061213982612be1565b602082019050919050565b600061215160218361257e565b915061215c82612c0a565b604082019050919050565b600061217460318361257e565b915061217f82612c59565b604082019050919050565b61219381612683565b82525050565b60006020820190506121ae6000830184611ea7565b92915050565b60006080820190506121c96000830187611ea7565b6121d66020830186611ea7565b6121e3604083018561218a565b81810360608301526121f58184611ec5565b905095945050505050565b60006020820190506122156000830184611eb6565b92915050565b600060208201905081810360008301526122358184611efe565b905092915050565b6000602082019050818103600083015261225681611f37565b9050919050565b6000602082019050818103600083015261227681611f5a565b9050919050565b6000602082019050818103600083015261229681611f7d565b9050919050565b600060208201905081810360008301526122b681611fa0565b9050919050565b600060208201905081810360008301526122d681611fc3565b9050919050565b600060208201905081810360008301526122f681611fe6565b9050919050565b6000602082019050818103600083015261231681612009565b9050919050565b600060208201905081810360008301526123368161202c565b9050919050565b600060208201905081810360008301526123568161204f565b9050919050565b6000602082019050818103600083015261237681612072565b9050919050565b6000602082019050818103600083015261239681612095565b9050919050565b600060208201905081810360008301526123b6816120b8565b9050919050565b600060208201905081810360008301526123d6816120db565b9050919050565b600060208201905081810360008301526123f6816120fe565b9050919050565b6000602082019050818103600083015261241681612121565b9050919050565b6000602082019050818103600083015261243681612144565b9050919050565b6000602082019050818103600083015261245681612167565b9050919050565b6000602082019050612472600083018461218a565b92915050565b6000612482612493565b905061248e8282612719565b919050565b6000604051905090565b600067ffffffffffffffff8211156124b8576124b76127a8565b5b602082029050602081019050919050565b600067ffffffffffffffff8211156124e4576124e36127a8565b5b602082029050602081019050919050565b600067ffffffffffffffff8211156125105761250f6127a8565b5b612519826127f0565b9050602081019050919050565b600067ffffffffffffffff821115612541576125406127a8565b5b61254a826127f0565b9050602081019050919050565b600081519050919050565b600081519050919050565b600082825260208201905092915050565b600082825260208201905092915050565b600061259a82612683565b91506125a583612683565b9250827fffffffffffffffffffffffffffffffffffffffffffffffffffffffffffffffff038211156125da576125d961274a565b5b828201905092915050565b60006125f082612683565b91506125fb83612683565b92508282101561260e5761260d61274a565b5b828203905092915050565b600061262482612663565b9050919050565b60008115159050919050565b60007fffffffff0000000000000000000000000000000000000000000000000000000082169050919050565b600073ffffffffffffffffffffffffffffffffffffffff82169050919050565b6000819050919050565b60006bffffffffffffffffffffffff82169050919050565b82818337600083830152505050565b60005b838110156126d25780820151818401526020810190506126b7565b838111156126e1576000848401525b50505050565b600060028204905060018216806126ff57607f821691505b6020821081141561271357612712612779565b5b50919050565b612722826127f0565b810181811067ffffffffffffffff82111715612741576127406127a8565b5b80604052505050565b7f4e487b7100000000000000000000000000000000000000000000000000000000600052601160045260246000fd5b7f4e487b7100000000000000000000000000000000000000000000000000000000600052602260045260246000fd5b7f4e487b7100000000000000000000000000000000000000000000000000000000600052604160045260246000fd5b600080fd5b600080fd5b600080fd5b600080fd5b600080fd5b6000601f19601f8301169050919050565b7f4d757374206f776e2074686520636f6e74726163742e00000000000000000000600082015250565b7f4552433732313a207472616e7366657220746f206e6f6e20455243373231526560008201527f63656976657220696d706c656d656e7465720000000000000000000000000000602082015250565b7f4552433732313a20746f6b656e20616c7265616479206d696e74656400000000600082015250565b7f4552433732313a207472616e7366657220746f20746865207a65726f2061646460008201527f7265737300000000000000000000000000000000000000000000000000000000602082015250565b7f4552433732313a206f70657261746f7220717565727920666f72206e6f6e657860008201527f697374656e7420746f6b656e0000000000000000000000000000000000000000602082015250565b7f4552433732313a20617070726f76652063616c6c6572206973206e6f74206f7760008201527f6e6572206e6f7220617070726f76656420666f7220616c6c0000000000000000602082015250565b7f4552433732313a2062616c616e636520717565727920666f7220746865207a6560008201527f726f206164647265737300000000000000000000000000000000000000000000602082015250565b7f4552433732313a206f776e657220717565727920666f72206e6f6e657869737460008201527f656e7420746f6b656e0000000000000000000000000000000000000000000000602082015250565b7f455243373231466163746f72793a20556e617574686f72697a6564204163636560008201527f7373210000000000000000000000000000000000000000000000000000000000602082015250565b7f4552433732313a206d696e7420746f20746865207a65726f2061646472657373600082015250565b7f4552433732313a20617070726f76656420717565727920666f72206e6f6e657860008201527f697374656e7420746f6b656e0000000000000000000000000000000000000000602082015250565b7f4552433732314d657461646174613a2055524920736574206f66206e6f6e657860008201527f697374656e7420746f6b656e0000000000000000000000000000000000000000602082015250565b7f4552433732313a207472616e73666572206f6620746f6b656e2074686174206960008201527f73206e6f74206f776e0000000000000000000000000000000000000000000000602082015250565b7f4552433732314d657461646174613a2055524920717565727920666f72206e6f60008201527f6e6578697374656e7420746f6b656e0000000000000000000000000000000000602082015250565b7f494e56414c49445f504152414d53000000000000000000000000000000000000600082015250565b7f4552433732313a20617070726f76616c20746f2063757272656e74206f776e6560008201527f7200000000000000000000000000000000000000000000000000000000000000602082015250565b7f4552433732313a207472616e736665722063616c6c6572206973206e6f74206f60008201527f776e6572206e6f7220617070726f766564000000000000000000000000000000602082015250565b612cb181612619565b8114612cbc57600080fd5b50565b612cc881612637565b8114612cd357600080fd5b50565b612cdf81612683565b8114612cea57600080fd5b50565b612cf68161268d565b8114612d0157600080fd5b5056fea26469706673582212201ae8e60ccde297be70afc0368d81fd184358ef8a7f4b9622f54703f9fcdbc15b64736f6c63430008060033",
  "linkReferences": {},
  "deployedLinkReferences": {}
}