{
  "_format": "hh-sol-artifact-1",
  "contractName": "ERC721FactoryFacet",
  "sourceName": "contracts/facets/ERC721Factory/ERC721FactoryFacet.sol",
  "abi": [
    {
      "anonymous": false,
      "inputs": [
        {
          "indexed": true,
          "internalType": "address",
          "name": "owner",
          "type": "address"
        },
        {
          "indexed": true,
          "internalType": "address",
          "name": "approved",
          "type": "address"
        },
        {
          "indexed": true,
          "internalType": "uint256",
          "name": "tokenId",
          "type": "uint256"
        }
      ],
      "name": "Approval",
      "type": "event"
    },
    {
      "anonymous": false,
      "inputs": [
        {
          "indexed": true,
          "internalType": "address",
          "name": "owner",
          "type": "address"
        },
        {
          "indexed": true,
          "internalType": "address",
          "name": "operator",
          "type": "address"
        },
        {
          "indexed": false,
          "internalType": "bool",
          "name": "approved",
          "type": "bool"
        }
      ],
      "name": "ApprovalForAll",
      "type": "event"
    },
    {
      "anonymous": false,
      "inputs": [
        {
          "indexed": true,
          "internalType": "address",
          "name": "from",
          "type": "address"
        },
        {
          "indexed": true,
          "internalType": "address",
          "name": "to",
          "type": "address"
        },
        {
          "indexed": true,
          "internalType": "uint256",
          "name": "tokenId",
          "type": "uint256"
        }
      ],
      "name": "Transfer",
      "type": "event"
    },
    {
      "inputs": [
        {
          "internalType": "uint256",
          "name": "tokenId",
          "type": "uint256"
        }
      ],
      "name": "_tokenExists",
      "outputs": [
        {
          "internalType": "bool",
          "name": "",
          "type": "bool"
        }
      ],
      "stateMutability": "view",
      "type": "function"
    },
    {
      "inputs": [
        {
          "internalType": "address",
          "name": "to",
          "type": "address"
        },
        {
          "internalType": "uint256",
          "name": "tokenId",
          "type": "uint256"
        }
      ],
      "name": "approve",
      "outputs": [],
      "stateMutability": "nonpayable",
      "type": "function"
    },
    {
      "inputs": [
        {
          "internalType": "address",
          "name": "owner",
          "type": "address"
        }
      ],
      "name": "balanceOf",
      "outputs": [
        {
          "internalType": "uint256",
          "name": "",
          "type": "uint256"
        }
      ],
      "stateMutability": "view",
      "type": "function"
    },
    {
      "inputs": [
        {
          "internalType": "uint256",
          "name": "tokenId",
          "type": "uint256"
        }
      ],
      "name": "burn",
      "outputs": [],
      "stateMutability": "nonpayable",
      "type": "function"
    },
    {
      "inputs": [
        {
          "internalType": "string",
          "name": "name_",
          "type": "string"
        },
        {
          "internalType": "string",
          "name": "symbol_",
          "type": "string"
        }
      ],
      "name": "erc721FactoryFacetInit",
      "outputs": [],
      "stateMutability": "nonpayable",
      "type": "function"
    },
    {
      "inputs": [
        {
          "internalType": "uint256",
          "name": "tokenId",
          "type": "uint256"
        }
      ],
      "name": "getApproved",
      "outputs": [
        {
          "internalType": "address",
          "name": "",
          "type": "address"
        }
      ],
      "stateMutability": "view",
      "type": "function"
    },
    {
      "inputs": [
        {
          "internalType": "uint256",
          "name": "tokenId",
          "type": "uint256"
        },
        {
          "internalType": "address",
          "name": "creator",
          "type": "address"
        },
        {
          "internalType": "string",
          "name": "_tokenURI",
          "type": "string"
        },
        {
          "internalType": "bool",
          "name": "tokenRoyalty",
          "type": "bool"
        },
        {
          "internalType": "address[]",
          "name": "royaltyReceiver",
          "type": "address[]"
        },
        {
          "internalType": "uint96[]",
          "name": "tokenRoyaltyInBips",
          "type": "uint96[]"
        }
      ],
      "name": "mint",
      "outputs": [],
      "stateMutability": "nonpayable",
      "type": "function"
    },
    {
      "inputs": [],
      "name": "name",
      "outputs": [
        {
          "internalType": "string",
          "name": "",
          "type": "string"
        }
      ],
      "stateMutability": "view",
      "type": "function"
    },
    {
      "inputs": [
        {
          "internalType": "uint256",
          "name": "tokenId",
          "type": "uint256"
        }
      ],
      "name": "ownerOf",
      "outputs": [
        {
          "internalType": "address",
          "name": "",
          "type": "address"
        }
      ],
      "stateMutability": "view",
      "type": "function"
    },
    {
      "inputs": [
        {
          "internalType": "uint256",
          "name": "_tokenID",
          "type": "uint256"
        },
        {
          "internalType": "uint256",
          "name": "_salePrice",
          "type": "uint256"
        }
      ],
      "name": "royaltyInfo721",
      "outputs": [
        {
          "internalType": "address[]",
          "name": "",
          "type": "address[]"
        },
        {
          "internalType": "uint256[]",
          "name": "",
          "type": "uint256[]"
        }
      ],
      "stateMutability": "view",
      "type": "function"
    },
    {
      "inputs": [
        {
          "internalType": "address",
          "name": "from",
          "type": "address"
        },
        {
          "internalType": "address",
          "name": "to",
          "type": "address"
        },
        {
          "internalType": "uint256",
          "name": "tokenId",
          "type": "uint256"
        }
      ],
      "name": "safeTransferFrom",
      "outputs": [],
      "stateMutability": "nonpayable",
      "type": "function"
    },
    {
      "inputs": [
        {
          "internalType": "address",
          "name": "from",
          "type": "address"
        },
        {
          "internalType": "address",
          "name": "to",
          "type": "address"
        },
        {
          "internalType": "uint256",
          "name": "tokenId",
          "type": "uint256"
        },
        {
          "internalType": "bytes",
          "name": "_data",
          "type": "bytes"
        }
      ],
      "name": "safeTransferFrom",
      "outputs": [],
      "stateMutability": "nonpayable",
      "type": "function"
    },
    {
      "inputs": [],
      "name": "symbol",
      "outputs": [
        {
          "internalType": "string",
          "name": "",
          "type": "string"
        }
      ],
      "stateMutability": "view",
      "type": "function"
    },
    {
      "inputs": [
        {
          "internalType": "uint256",
          "name": "tokenId",
          "type": "uint256"
        }
      ],
      "name": "tokenURI",
      "outputs": [
        {
          "internalType": "string",
          "name": "",
          "type": "string"
        }
      ],
      "stateMutability": "view",
      "type": "function"
    },
    {
      "inputs": [
        {
          "internalType": "address",
          "name": "from",
          "type": "address"
        },
        {
          "internalType": "address",
          "name": "to",
          "type": "address"
        },
        {
          "internalType": "uint256",
          "name": "tokenId",
          "type": "uint256"
        }
      ],
      "name": "transferFrom",
      "outputs": [],
      "stateMutability": "nonpayable",
      "type": "function"
    }
  ],
  "bytecode": "0x608060405234801561001057600080fd5b50613ae4806100206000396000f3fe608060405234801561001057600080fd5b50600436106100f55760003560e01c80636352211e11610097578063a47404a311610066578063a47404a314610282578063b88d4fde146102b3578063c87b56dd146102cf578063ed795a24146102ff576100f5565b80636352211e146101d457806370a0823114610204578063895e8b231461023457806395d89b4114610264576100f5565b806323b872dd116100d357806323b872dd1461016457806342842e0e1461018057806342966c681461019c57806346faa8b2146101b8576100f5565b806306fdde03146100fa578063081812fc14610118578063095ea7b314610148575b600080fd5b61010261031b565b60405161010f9190612b70565b60405180910390f35b610132600480360381019061012d919061249b565b6103bc565b60405161013f9190612ab7565b60405180910390f35b610162600480360381019061015d91906123b6565b610450565b005b61017e600480360381019061017991906122e0565b6105eb565b005b61019a600480360381019061019591906122e0565b61064b565b005b6101b660048036038101906101b1919061249b565b61066b565b005b6101d260048036038101906101cd9190612423565b6106bc565b005b6101ee60048036038101906101e9919061249b565b61082a565b6040516101fb9190612ab7565b60405180910390f35b61021e600480360381019061021991906122b3565b6108eb565b60405161022b9190612e72565b60405180910390f35b61024e6004803603810190610249919061249b565b6109b2565b60405161025b9190612b55565b60405180910390f35b61026c6109c4565b6040516102799190612b70565b60405180910390f35b61029c600480360381019061029791906125a9565b610a65565b6040516102aa929190612b1e565b60405180910390f35b6102cd60048036038101906102c89190612333565b610cae565b005b6102e960048036038101906102e4919061249b565b610d10565b6040516102f69190612b70565b60405180910390f35b610319600480360381019061031491906124c8565b610e12565b005b60606000610327611010565b9050806000018054610338906131f9565b80601f0160208091040260200160405190810160405280929190818152602001828054610364906131f9565b80156103b15780601f10610386576101008083540402835291602001916103b1565b820191906000526020600020905b81548152906001019060200180831161039457829003601f168201915b505050505091505090565b60006103c78261103d565b610406576040517f08c379a00000000000000000000000000000000000000000000000000000000081526004016103fd90612d52565b60405180910390fd5b6000610410611010565b905080600401600084815260200190815260200160002060009054906101000a900473ffffffffffffffffffffffffffffffffffffffff16915050919050565b600061045b8261082a565b90508073ffffffffffffffffffffffffffffffffffffffff168373ffffffffffffffffffffffffffffffffffffffff1614156104cc576040517f08c379a00000000000000000000000000000000000000000000000000000000081526004016104c390612df2565b60405180910390fd5b8073ffffffffffffffffffffffffffffffffffffffff166104eb6110b8565b73ffffffffffffffffffffffffffffffffffffffff16148061059d5750600060010160008273ffffffffffffffffffffffffffffffffffffffff1673ffffffffffffffffffffffffffffffffffffffff16815260200190815260200160002060006105546110b8565b73ffffffffffffffffffffffffffffffffffffffff1673ffffffffffffffffffffffffffffffffffffffff16815260200190815260200160002060009054906101000a900460ff165b6105dc576040517f08c379a00000000000000000000000000000000000000000000000000000000081526004016105d390612cb2565b60405180910390fd5b6105e683836110c0565b505050565b6105fc6105f66110b8565b82611188565b61063b576040517f08c379a000000000000000000000000000000000000000000000000000000000815260040161063290612e12565b60405180910390fd5b6106468383836112f0565b505050565b61066683838360405180602001604052806000815250610cae565b505050565b600061067561155f565b90506106808261158c565b80600101600083815260200190815260200160002060006101000a81549073ffffffffffffffffffffffffffffffffffffffff02191690555050565b60006106c66116ae565b905060006106d261155f565b905060008160030180546106e5906131f9565b905014801561070457506000816004018054610700906131f9565b9050145b61070d57600080fd5b600084511415801561072157506000835114155b610760576040517f08c379a000000000000000000000000000000000000000000000000000000000815260040161075790612dd2565b60405180910390fd5b8160040160009054906101000a900473ffffffffffffffffffffffffffffffffffffffff1673ffffffffffffffffffffffffffffffffffffffff163373ffffffffffffffffffffffffffffffffffffffff16146107f2576040517f08c379a00000000000000000000000000000000000000000000000000000000081526004016107e990612b92565b60405180910390fd5b8381600301908051906020019061080a929190611e1f565b5082816004019080519060200190610823929190611e1f565b5050505050565b600080610835611010565b9050600081600201600085815260200190815260200160002060009054906101000a900473ffffffffffffffffffffffffffffffffffffffff169050600073ffffffffffffffffffffffffffffffffffffffff168173ffffffffffffffffffffffffffffffffffffffff1614156108e1576040517f08c379a00000000000000000000000000000000000000000000000000000000081526004016108d890612cf2565b60405180910390fd5b8092505050919050565b60008073ffffffffffffffffffffffffffffffffffffffff168273ffffffffffffffffffffffffffffffffffffffff16141561095c576040517f08c379a000000000000000000000000000000000000000000000000000000000815260040161095390612cd2565b60405180910390fd5b6000610966611010565b90508060030160008473ffffffffffffffffffffffffffffffffffffffff1673ffffffffffffffffffffffffffffffffffffffff16815260200190815260200160002054915050919050565b60006109bd8261103d565b9050919050565b606060006109d0611010565b90508060010180546109e1906131f9565b80601f0160208091040260200160405190810160405280929190818152602001828054610a0d906131f9565b8015610a5a5780601f10610a2f57610100808354040283529160200191610a5a565b820191906000526020600020905b815481529060010190602001808311610a3d57829003601f168201915b505050505091505090565b6060806000610a7261155f565b90506000816006016000878152602001908152602001600020600001805480602002602001604051908101604052809291908181526020018280548015610b0e57602002820191906000526020600020905b8160009054906101000a900473ffffffffffffffffffffffffffffffffffffffff1673ffffffffffffffffffffffffffffffffffffffff1681526020019060010190808311610ac4575b505050505090506000826006016000888152602001908152602001600020600101805480602002602001604051908101604052809291908181526020018280548015610bb557602002820191906000526020600020906000905b82829054906101000a90046bffffffffffffffffffffffff166bffffffffffffffffffffffff16815260200190600c0190602082600b01049283019260010382029150808411610b685790505b505050505090506000815167ffffffffffffffff811115610bd957610bd8613361565b5b604051908082528060200260200182016040528015610c075781602001602082028036833780820191505090505b50905060005b8151811015610c9c57610c1e6116db565b6bffffffffffffffffffffffff16838281518110610c3f57610c3e613332565b5b60200260200101516bffffffffffffffffffffffff1689610c60919061309d565b610c6a919061306c565b828281518110610c7d57610c7c613332565b5b6020026020010181815250508080610c949061325c565b915050610c0d565b50828195509550505050509250929050565b610cbf610cb96110b8565b83611188565b610cfe576040517f08c379a0000000000000000000000000000000000000000000000000000000008152600401610cf590612e12565b60405180910390fd5b610d0a848484846116e5565b50505050565b6060610d1b8261103d565b610d5a576040517f08c379a0000000000000000000000000000000000000000000000000000000008152600401610d5190612db2565b60405180910390fd5b6000610d6461155f565b905060008160020160008581526020019081526020016000208054610d88906131f9565b80601f0160208091040260200160405190810160405280929190818152602001828054610db4906131f9565b8015610e015780601f10610dd657610100808354040283529160200191610e01565b820191906000526020600020905b815481529060010190602001808311610de457829003601f168201915b505050505090508092505050919050565b6000800160009054906101000a900473ffffffffffffffffffffffffffffffffffffffff1673ffffffffffffffffffffffffffffffffffffffff163373ffffffffffffffffffffffffffffffffffffffff1614610ea4576040517f08c379a0000000000000000000000000000000000000000000000000000000008152600401610e9b90612d12565b60405180910390fd5b8215610f3f578051825114610eee576040517f08c379a0000000000000000000000000000000000000000000000000000000008152600401610ee590612c32565b60405180910390fd5b600582511115610f33576040517f08c379a0000000000000000000000000000000000000000000000000000000008152600401610f2a90612c92565b60405180910390fd5b610f3e868383611741565b5b6000610f4961155f565b90508581600001600089815260200190815260200160002060006101000a81548173ffffffffffffffffffffffffffffffffffffffff021916908373ffffffffffffffffffffffffffffffffffffffff1602179055508581600101600089815260200190815260200160002060006101000a81548173ffffffffffffffffffffffffffffffffffffffff021916908373ffffffffffffffffffffffffffffffffffffffff160217905550610ffd8688611985565b61100787866119a3565b50505050505050565b6000807f27d4b8eb827745c1478e1390415e0b68ca5ace988a610b45757dd674616b25ad90508091505090565b600080611048611010565b9050600073ffffffffffffffffffffffffffffffffffffffff1681600201600085815260200190815260200160002060009054906101000a900473ffffffffffffffffffffffffffffffffffffffff1673ffffffffffffffffffffffffffffffffffffffff161415915050919050565b600033905090565b60006110ca611010565b90508281600401600084815260200190815260200160002060006101000a81548173ffffffffffffffffffffffffffffffffffffffff021916908373ffffffffffffffffffffffffffffffffffffffff160217905550818373ffffffffffffffffffffffffffffffffffffffff166111418461082a565b73ffffffffffffffffffffffffffffffffffffffff167f8c5be1e5ebec7d5bd14f71427d1e84f3dd0314c0f7b2291e5b200ac8c7c3b92560405160405180910390a4505050565b60006111938261103d565b6111d2576040517f08c379a00000000000000000000000000000000000000000000000000000000081526004016111c990612c72565b60405180910390fd5b60006111dd8361082a565b90508073ffffffffffffffffffffffffffffffffffffffff168473ffffffffffffffffffffffffffffffffffffffff16148061124c57508373ffffffffffffffffffffffffffffffffffffffff16611234846103bc565b73ffffffffffffffffffffffffffffffffffffffff16145b806112e75750600060010160008273ffffffffffffffffffffffffffffffffffffffff1673ffffffffffffffffffffffffffffffffffffffff168152602001908152602001600020600061129e6110b8565b73ffffffffffffffffffffffffffffffffffffffff1673ffffffffffffffffffffffffffffffffffffffff16815260200190815260200160002060009054906101000a900460ff165b91505092915050565b8273ffffffffffffffffffffffffffffffffffffffff166113108261082a565b73ffffffffffffffffffffffffffffffffffffffff1614611366576040517f08c379a000000000000000000000000000000000000000000000000000000000815260040161135d90612d92565b60405180910390fd5b600073ffffffffffffffffffffffffffffffffffffffff168273ffffffffffffffffffffffffffffffffffffffff1614156113d6576040517f08c379a00000000000000000000000000000000000000000000000000000000081526004016113cd90612c52565b60405180910390fd5b6113e1838383611a26565b6113ec6000826110c0565b60006113f6611010565b905060018160030160008673ffffffffffffffffffffffffffffffffffffffff1673ffffffffffffffffffffffffffffffffffffffff168152602001908152602001600020600082825461144a91906130f7565b9250508190555060018160030160008573ffffffffffffffffffffffffffffffffffffffff1673ffffffffffffffffffffffffffffffffffffffff16815260200190815260200160002060008282546114a39190613016565b925050819055508281600201600084815260200190815260200160002060006101000a81548173ffffffffffffffffffffffffffffffffffffffff021916908373ffffffffffffffffffffffffffffffffffffffff160217905550818373ffffffffffffffffffffffffffffffffffffffff168573ffffffffffffffffffffffffffffffffffffffff167fddf252ad1be2c89b69c2b068fc378daa952ba7f163c4a11628f55a4df523b3ef60405160405180910390a450505050565b6000807f7336099884d9097f82a586e8d7e322fd089b07b96831a9d9ee42fb0a34564cf790508091505090565b60006115978261082a565b90506115a581600084611a26565b6115b06000836110c0565b60006115ba611010565b905060018160030160008473ffffffffffffffffffffffffffffffffffffffff1673ffffffffffffffffffffffffffffffffffffffff168152602001908152602001600020600082825461160e91906130f7565b9250508190555080600201600084815260200190815260200160002060006101000a81549073ffffffffffffffffffffffffffffffffffffffff021916905582600073ffffffffffffffffffffffffffffffffffffffff168373ffffffffffffffffffffffffffffffffffffffff167fddf252ad1be2c89b69c2b068fc378daa952ba7f163c4a11628f55a4df523b3ef60405160405180910390a4505050565b6000807fc8fcad8db84d3cc18b4c41d551ea0ee66dd599cde068d998e57d5e09332c131c90508091505090565b6000612710905090565b6116f08484846112f0565b6116fc84848484611a2b565b61173b576040517f08c379a000000000000000000000000000000000000000000000000000000000815260040161173290612bd2565b60405180910390fd5b50505050565b600073ffffffffffffffffffffffffffffffffffffffff168260008151811061176d5761176c613332565b5b602002602001015173ffffffffffffffffffffffffffffffffffffffff1614156117cc576040517f08c379a00000000000000000000000000000000000000000000000000000000081526004016117c390612e52565b60405180910390fd5b600582511115611811576040517f08c379a000000000000000000000000000000000000000000000000000000000815260040161180890612bb2565b60405180910390fd5b8051825114611855576040517f08c379a000000000000000000000000000000000000000000000000000000000815260040161184c90612bf2565b60405180910390fd5b6000805b82518110156118ab5782818151811061187557611874613332565b5b60200260200101516bffffffffffffffffffffffff16826118969190613016565b915080806118a39061325c565b915050611859565b506118b46116db565b6bffffffffffffffffffffffff16811115611904576040517f08c379a00000000000000000000000000000000000000000000000000000000081526004016118fb90612e32565b60405180910390fd5b600061190e61155f565b9050611918611ea5565b84816000018190525083816020018190525080826006016000888152602001908152602001600020600082015181600001908051906020019061195c929190611ebf565b506020820151816001019080519060200190611979929190611f49565b50905050505050505050565b61199f828260405180602001604052806000815250611bc2565b5050565b6119ac8261103d565b6119eb576040517f08c379a00000000000000000000000000000000000000000000000000000000081526004016119e290612d72565b60405180910390fd5b60006119f561155f565b9050818160020160008581526020019081526020016000209080519060200190611a20929190611e1f565b50505050565b505050565b6000611a4c8473ffffffffffffffffffffffffffffffffffffffff16611c1d565b15611bb5578373ffffffffffffffffffffffffffffffffffffffff1663150b7a02611a756110b8565b8786866040518563ffffffff1660e01b8152600401611a979493929190612ad2565b602060405180830381600087803b158015611ab157600080fd5b505af1925050508015611ae257506040513d601f19601f82011682018060405250810190611adf91906123f6565b60015b611b65573d8060008114611b12576040519150601f19603f3d011682016040523d82523d6000602084013e611b17565b606091505b50600081511415611b5d576040517f08c379a0000000000000000000000000000000000000000000000000000000008152600401611b5490612bd2565b60405180910390fd5b805181602001fd5b63150b7a0260e01b7bffffffffffffffffffffffffffffffffffffffffffffffffffffffff1916817bffffffffffffffffffffffffffffffffffffffffffffffffffffffff191614915050611bba565b600190505b949350505050565b611bcc8383611c40565b611bd96000848484611a2b565b611c18576040517f08c379a0000000000000000000000000000000000000000000000000000000008152600401611c0f90612bd2565b60405180910390fd5b505050565b6000808273ffffffffffffffffffffffffffffffffffffffff163b119050919050565b600073ffffffffffffffffffffffffffffffffffffffff168273ffffffffffffffffffffffffffffffffffffffff161415611cb0576040517f08c379a0000000000000000000000000000000000000000000000000000000008152600401611ca790612d32565b60405180910390fd5b611cb98161103d565b15611cf9576040517f08c379a0000000000000000000000000000000000000000000000000000000008152600401611cf090612c12565b60405180910390fd5b611d0560008383611a26565b6000611d0f611010565b905060018160030160008573ffffffffffffffffffffffffffffffffffffffff1673ffffffffffffffffffffffffffffffffffffffff1681526020019081526020016000206000828254611d639190613016565b925050819055508281600201600084815260200190815260200160002060006101000a81548173ffffffffffffffffffffffffffffffffffffffff021916908373ffffffffffffffffffffffffffffffffffffffff160217905550818373ffffffffffffffffffffffffffffffffffffffff16600073ffffffffffffffffffffffffffffffffffffffff167fddf252ad1be2c89b69c2b068fc378daa952ba7f163c4a11628f55a4df523b3ef60405160405180910390a4505050565b828054611e2b906131f9565b90600052602060002090601f016020900481019282611e4d5760008555611e94565b82601f10611e6657805160ff1916838001178555611e94565b82800160010185558215611e94579182015b82811115611e93578251825591602001919060010190611e78565b5b509050611ea19190612011565b5090565b604051806040016040528060608152602001606081525090565b828054828255906000526020600020908101928215611f38579160200282015b82811115611f375782518260006101000a81548173ffffffffffffffffffffffffffffffffffffffff021916908373ffffffffffffffffffffffffffffffffffffffff16021790555091602001919060010190611edf565b5b509050611f459190612011565b5090565b828054828255906000526020600020906001016002900481019282156120005791602002820160005b83821115611fc657835183826101000a8154816bffffffffffffffffffffffff02191690836bffffffffffffffffffffffff1602179055509260200192600c01602081600b01049283019260010302611f72565b8015611ffe5782816101000a8154906bffffffffffffffffffffffff0219169055600c01602081600b01049283019260010302611fc6565b505b50905061200d9190612011565b5090565b5b8082111561202a576000816000905550600101612012565b5090565b600061204161203c84612eb2565b612e8d565b9050808382526020820190508285602086028201111561206457612063613395565b5b60005b85811015612094578161207a8882612192565b845260208401935060208301925050600181019050612067565b5050509392505050565b60006120b16120ac84612ede565b612e8d565b905080838252602082019050828560208602820111156120d4576120d3613395565b5b60005b8581101561210457816120ea888261229e565b8452602084019350602083019250506001810190506120d7565b5050509392505050565b600061212161211c84612f0a565b612e8d565b90508281526020810184848401111561213d5761213c61339a565b5b6121488482856131b7565b509392505050565b600061216361215e84612f3b565b612e8d565b90508281526020810184848401111561217f5761217e61339a565b5b61218a8482856131b7565b509392505050565b6000813590506121a181613a3b565b92915050565b600082601f8301126121bc576121bb613390565b5b81356121cc84826020860161202e565b91505092915050565b600082601f8301126121ea576121e9613390565b5b81356121fa84826020860161209e565b91505092915050565b60008135905061221281613a52565b92915050565b60008151905061222781613a69565b92915050565b600082601f83011261224257612241613390565b5b813561225284826020860161210e565b91505092915050565b600082601f8301126122705761226f613390565b5b8135612280848260208601612150565b91505092915050565b60008135905061229881613a80565b92915050565b6000813590506122ad81613a97565b92915050565b6000602082840312156122c9576122c86133a4565b5b60006122d784828501612192565b91505092915050565b6000806000606084860312156122f9576122f86133a4565b5b600061230786828701612192565b935050602061231886828701612192565b925050604061232986828701612289565b9150509250925092565b6000806000806080858703121561234d5761234c6133a4565b5b600061235b87828801612192565b945050602061236c87828801612192565b935050604061237d87828801612289565b925050606085013567ffffffffffffffff81111561239e5761239d61339f565b5b6123aa8782880161222d565b91505092959194509250565b600080604083850312156123cd576123cc6133a4565b5b60006123db85828601612192565b92505060206123ec85828601612289565b9150509250929050565b60006020828403121561240c5761240b6133a4565b5b600061241a84828501612218565b91505092915050565b6000806040838503121561243a576124396133a4565b5b600083013567ffffffffffffffff8111156124585761245761339f565b5b6124648582860161225b565b925050602083013567ffffffffffffffff8111156124855761248461339f565b5b6124918582860161225b565b9150509250929050565b6000602082840312156124b1576124b06133a4565b5b60006124bf84828501612289565b91505092915050565b60008060008060008060c087890312156124e5576124e46133a4565b5b60006124f389828a01612289565b965050602061250489828a01612192565b955050604087013567ffffffffffffffff8111156125255761252461339f565b5b61253189828a0161225b565b945050606061254289828a01612203565b935050608087013567ffffffffffffffff8111156125635761256261339f565b5b61256f89828a016121a7565b92505060a087013567ffffffffffffffff8111156125905761258f61339f565b5b61259c89828a016121d5565b9150509295509295509295565b600080604083850312156125c0576125bf6133a4565b5b60006125ce85828601612289565b92505060206125df85828601612289565b9150509250929050565b60006125f58383612619565b60208301905092915050565b600061260d8383612a99565b60208301905092915050565b6126228161312b565b82525050565b6126318161312b565b82525050565b600061264282612f8c565b61264c8185612fd2565b935061265783612f6c565b8060005b8381101561268857815161266f88826125e9565b975061267a83612fb8565b92505060018101905061265b565b5085935050505092915050565b60006126a082612f97565b6126aa8185612fe3565b93506126b583612f7c565b8060005b838110156126e65781516126cd8882612601565b97506126d883612fc5565b9250506001810190506126b9565b5085935050505092915050565b6126fc8161313d565b82525050565b600061270d82612fa2565b6127178185612ff4565b93506127278185602086016131c6565b612730816133a9565b840191505092915050565b600061274682612fad565b6127508185613005565b93506127608185602086016131c6565b612769816133a9565b840191505092915050565b6000612781601683613005565b915061278c826133ba565b602082019050919050565b60006127a4602783613005565b91506127af826133e3565b604082019050919050565b60006127c7603283613005565b91506127d282613432565b604082019050919050565b60006127ea603583613005565b91506127f582613481565b604082019050919050565b600061280d601c83613005565b9150612818826134d0565b602082019050919050565b6000612830604c83613005565b915061283b826134f9565b606082019050919050565b6000612853602483613005565b915061285e8261356e565b604082019050919050565b6000612876602c83613005565b9150612881826135bd565b604082019050919050565b6000612899602f83613005565b91506128a48261360c565b604082019050919050565b60006128bc603883613005565b91506128c78261365b565b604082019050919050565b60006128df602a83613005565b91506128ea826136aa565b604082019050919050565b6000612902602983613005565b915061290d826136f9565b604082019050919050565b6000612925602383613005565b915061293082613748565b604082019050919050565b6000612948602083613005565b915061295382613797565b602082019050919050565b600061296b602c83613005565b9150612976826137c0565b604082019050919050565b600061298e602c83613005565b91506129998261380f565b604082019050919050565b60006129b1602983613005565b91506129bc8261385e565b604082019050919050565b60006129d4602f83613005565b91506129df826138ad565b604082019050919050565b60006129f7600e83613005565b9150612a02826138fc565b602082019050919050565b6000612a1a602183613005565b9150612a2582613925565b604082019050919050565b6000612a3d603183613005565b9150612a4882613974565b604082019050919050565b6000612a60602a83613005565b9150612a6b826139c3565b604082019050919050565b6000612a83601983613005565b9150612a8e82613a12565b602082019050919050565b612aa281613195565b82525050565b612ab181613195565b82525050565b6000602082019050612acc6000830184612628565b92915050565b6000608082019050612ae76000830187612628565b612af46020830186612628565b612b016040830185612aa8565b8181036060830152612b138184612702565b905095945050505050565b60006040820190508181036000830152612b388185612637565b90508181036020830152612b4c8184612695565b90509392505050565b6000602082019050612b6a60008301846126f3565b92915050565b60006020820190508181036000830152612b8a818461273b565b905092915050565b60006020820190508181036000830152612bab81612774565b9050919050565b60006020820190508181036000830152612bcb81612797565b9050919050565b60006020820190508181036000830152612beb816127ba565b9050919050565b60006020820190508181036000830152612c0b816127dd565b9050919050565b60006020820190508181036000830152612c2b81612800565b9050919050565b60006020820190508181036000830152612c4b81612823565b9050919050565b60006020820190508181036000830152612c6b81612846565b9050919050565b60006020820190508181036000830152612c8b81612869565b9050919050565b60006020820190508181036000830152612cab8161288c565b9050919050565b60006020820190508181036000830152612ccb816128af565b9050919050565b60006020820190508181036000830152612ceb816128d2565b9050919050565b60006020820190508181036000830152612d0b816128f5565b9050919050565b60006020820190508181036000830152612d2b81612918565b9050919050565b60006020820190508181036000830152612d4b8161293b565b9050919050565b60006020820190508181036000830152612d6b8161295e565b9050919050565b60006020820190508181036000830152612d8b81612981565b9050919050565b60006020820190508181036000830152612dab816129a4565b9050919050565b60006020820190508181036000830152612dcb816129c7565b9050919050565b60006020820190508181036000830152612deb816129ea565b9050919050565b60006020820190508181036000830152612e0b81612a0d565b9050919050565b60006020820190508181036000830152612e2b81612a30565b9050919050565b60006020820190508181036000830152612e4b81612a53565b9050919050565b60006020820190508181036000830152612e6b81612a76565b9050919050565b6000602082019050612e876000830184612aa8565b92915050565b6000612e97612ea8565b9050612ea3828261322b565b919050565b6000604051905090565b600067ffffffffffffffff821115612ecd57612ecc613361565b5b602082029050602081019050919050565b600067ffffffffffffffff821115612ef957612ef8613361565b5b602082029050602081019050919050565b600067ffffffffffffffff821115612f2557612f24613361565b5b612f2e826133a9565b9050602081019050919050565b600067ffffffffffffffff821115612f5657612f55613361565b5b612f5f826133a9565b9050602081019050919050565b6000819050602082019050919050565b6000819050602082019050919050565b600081519050919050565b600081519050919050565b600081519050919050565b600081519050919050565b6000602082019050919050565b6000602082019050919050565b600082825260208201905092915050565b600082825260208201905092915050565b600082825260208201905092915050565b600082825260208201905092915050565b600061302182613195565b915061302c83613195565b9250827fffffffffffffffffffffffffffffffffffffffffffffffffffffffffffffffff03821115613061576130606132a5565b5b828201905092915050565b600061307782613195565b915061308283613195565b925082613092576130916132d4565b5b828204905092915050565b60006130a882613195565b91506130b383613195565b9250817fffffffffffffffffffffffffffffffffffffffffffffffffffffffffffffffff04831182151516156130ec576130eb6132a5565b5b828202905092915050565b600061310282613195565b915061310d83613195565b9250828210156131205761311f6132a5565b5b828203905092915050565b600061313682613175565b9050919050565b60008115159050919050565b60007fffffffff0000000000000000000000000000000000000000000000000000000082169050919050565b600073ffffffffffffffffffffffffffffffffffffffff82169050919050565b6000819050919050565b60006bffffffffffffffffffffffff82169050919050565b82818337600083830152505050565b60005b838110156131e45780820151818401526020810190506131c9565b838111156131f3576000848401525b50505050565b6000600282049050600182168061321157607f821691505b6020821081141561322557613224613303565b5b50919050565b613234826133a9565b810181811067ffffffffffffffff8211171561325357613252613361565b5b80604052505050565b600061326782613195565b91507fffffffffffffffffffffffffffffffffffffffffffffffffffffffffffffffff82141561329a576132996132a5565b5b600182019050919050565b7f4e487b7100000000000000000000000000000000000000000000000000000000600052601160045260246000fd5b7f4e487b7100000000000000000000000000000000000000000000000000000000600052601260045260246000fd5b7f4e487b7100000000000000000000000000000000000000000000000000000000600052602260045260246000fd5b7f4e487b7100000000000000000000000000000000000000000000000000000000600052603260045260246000fd5b7f4e487b7100000000000000000000000000000000000000000000000000000000600052604160045260246000fd5b600080fd5b600080fd5b600080fd5b600080fd5b600080fd5b6000601f19601f8301169050919050565b7f4d757374206f776e2074686520636f6e74726163742e00000000000000000000600082015250565b7f526f79616c7479207265636965766572732063616e6e6f74206265206d6f726560008201527f207468616e203500000000000000000000000000000000000000000000000000602082015250565b7f4552433732313a207472616e7366657220746f206e6f6e20455243373231526560008201527f63656976657220696d706c656d656e7465720000000000000000000000000000602082015250565b7f4d69736d61746368206f6620526f79616c74792052656378696576657220616460008201527f647265737320616e642074686569722073686172650000000000000000000000602082015250565b7f4552433732313a20746f6b656e20616c7265616479206d696e74656400000000600082015250565b7f4552433732313a20746865206c656e677468206f6620726f79616c747920616460008201527f64726573736573206973206e6f7420657175616c20746f20746865206c656e6760208201527f7468206f66207368617265730000000000000000000000000000000000000000604082015250565b7f4552433732313a207472616e7366657220746f20746865207a65726f2061646460008201527f7265737300000000000000000000000000000000000000000000000000000000602082015250565b7f4552433732313a206f70657261746f7220717565727920666f72206e6f6e657860008201527f697374656e7420746f6b656e0000000000000000000000000000000000000000602082015250565b7f4552433732313a20746f6f206d616e7920726f79616c7479206164647265737360008201527f657320686173206265656e207365740000000000000000000000000000000000602082015250565b7f4552433732313a20617070726f76652063616c6c6572206973206e6f74206f7760008201527f6e6572206e6f7220617070726f76656420666f7220616c6c0000000000000000602082015250565b7f4552433732313a2062616c616e636520717565727920666f7220746865207a6560008201527f726f206164647265737300000000000000000000000000000000000000000000602082015250565b7f4552433732313a206f776e657220717565727920666f72206e6f6e657869737460008201527f656e7420746f6b656e0000000000000000000000000000000000000000000000602082015250565b7f455243373231466163746f72793a20556e617574686f72697a6564204163636560008201527f7373210000000000000000000000000000000000000000000000000000000000602082015250565b7f4552433732313a206d696e7420746f20746865207a65726f2061646472657373600082015250565b7f4552433732313a20617070726f76656420717565727920666f72206e6f6e657860008201527f697374656e7420746f6b656e0000000000000000000000000000000000000000602082015250565b7f4552433732314d657461646174613a2055524920736574206f66206e6f6e657860008201527f697374656e7420746f6b656e0000000000000000000000000000000000000000602082015250565b7f4552433732313a207472616e73666572206f6620746f6b656e2074686174206960008201527f73206e6f74206f776e0000000000000000000000000000000000000000000000602082015250565b7f4552433732314d657461646174613a2055524920717565727920666f72206e6f60008201527f6e6578697374656e7420746f6b656e0000000000000000000000000000000000602082015250565b7f494e56414c49445f504152414d53000000000000000000000000000000000000600082015250565b7f4552433732313a20617070726f76616c20746f2063757272656e74206f776e6560008201527f7200000000000000000000000000000000000000000000000000000000000000602082015250565b7f4552433732313a207472616e736665722063616c6c6572206973206e6f74206f60008201527f776e6572206e6f7220617070726f766564000000000000000000000000000000602082015250565b7f455243323938313a20726f79616c7479206665652077696c6c2065786365656460008201527f2073616c65507269636500000000000000000000000000000000000000000000602082015250565b7f455243323938313a20696e76616c696420726563656976657200000000000000600082015250565b613a448161312b565b8114613a4f57600080fd5b50565b613a5b8161313d565b8114613a6657600080fd5b50565b613a7281613149565b8114613a7d57600080fd5b50565b613a8981613195565b8114613a9457600080fd5b50565b613aa08161319f565b8114613aab57600080fd5b5056fea2646970667358221220812f1958cb19bb47ce83feaa1ee8736ffca510cfb212b1e958aa4394baaa73f464736f6c63430008060033",
  "linkReferences": {},
  "deployedLinkReferences": {}
}