{
  "_format": "hh-sol-artifact-1",
  "contractName": "ERC721FactoryFacet",
  "sourceName": "contracts/facets/ERC721Factory/ERC721FactoryFacet.sol",
  "abi": [
    {
      "anonymous": false,
      "inputs": [
        {
          "indexed": true,
          "internalType": "address",
          "name": "owner",
          "type": "address"
        },
        {
          "indexed": true,
          "internalType": "address",
          "name": "approved",
          "type": "address"
        },
        {
          "indexed": true,
          "internalType": "uint256",
          "name": "tokenId",
          "type": "uint256"
        }
      ],
      "name": "Approval",
      "type": "event"
    },
    {
      "anonymous": false,
      "inputs": [
        {
          "indexed": true,
          "internalType": "address",
          "name": "owner",
          "type": "address"
        },
        {
          "indexed": true,
          "internalType": "address",
          "name": "operator",
          "type": "address"
        },
        {
          "indexed": false,
          "internalType": "bool",
          "name": "approved",
          "type": "bool"
        }
      ],
      "name": "ApprovalForAll",
      "type": "event"
    },
    {
      "anonymous": false,
      "inputs": [
        {
          "indexed": true,
          "internalType": "address",
          "name": "from",
          "type": "address"
        },
        {
          "indexed": true,
          "internalType": "address",
          "name": "to",
          "type": "address"
        },
        {
          "indexed": true,
          "internalType": "uint256",
          "name": "tokenId",
          "type": "uint256"
        }
      ],
      "name": "Transfer",
      "type": "event"
    },
    {
      "inputs": [
        {
          "internalType": "address",
          "name": "to",
          "type": "address"
        },
        {
          "internalType": "uint256",
          "name": "tokenId",
          "type": "uint256"
        }
      ],
      "name": "approve",
      "outputs": [],
      "stateMutability": "nonpayable",
      "type": "function"
    },
    {
      "inputs": [
        {
          "internalType": "address",
          "name": "owner",
          "type": "address"
        }
      ],
      "name": "balanceOf",
      "outputs": [
        {
          "internalType": "uint256",
          "name": "",
          "type": "uint256"
        }
      ],
      "stateMutability": "view",
      "type": "function"
    },
    {
      "inputs": [
        {
          "internalType": "uint256",
          "name": "tokenId",
          "type": "uint256"
        }
      ],
      "name": "burn",
      "outputs": [],
      "stateMutability": "nonpayable",
      "type": "function"
    },
    {
      "inputs": [
        {
          "internalType": "string",
          "name": "name_",
          "type": "string"
        },
        {
          "internalType": "string",
          "name": "symbol_",
          "type": "string"
        }
      ],
      "name": "erc721FactoryFacetInit",
      "outputs": [],
      "stateMutability": "nonpayable",
      "type": "function"
    },
    {
      "inputs": [
        {
          "internalType": "uint256",
          "name": "tokenId",
          "type": "uint256"
        }
      ],
      "name": "getApproved",
      "outputs": [
        {
          "internalType": "address",
          "name": "",
          "type": "address"
        }
      ],
      "stateMutability": "view",
      "type": "function"
    },
    {
      "inputs": [
        {
          "internalType": "uint256",
          "name": "tokenId",
          "type": "uint256"
        },
        {
          "internalType": "address",
          "name": "creator",
          "type": "address"
        },
        {
          "internalType": "string",
          "name": "_tokenURI",
          "type": "string"
        },
        {
          "internalType": "address[]",
          "name": "royaltyReceiver",
          "type": "address[]"
        },
        {
          "internalType": "uint96[]",
          "name": "tokenRoyaltyInBips",
          "type": "uint96[]"
        }
      ],
      "name": "mint",
      "outputs": [],
      "stateMutability": "nonpayable",
      "type": "function"
    },
    {
      "inputs": [],
      "name": "name",
      "outputs": [
        {
          "internalType": "string",
          "name": "",
          "type": "string"
        }
      ],
      "stateMutability": "view",
      "type": "function"
    },
    {
      "inputs": [
        {
          "internalType": "uint256",
          "name": "tokenId",
          "type": "uint256"
        }
      ],
      "name": "ownerOf",
      "outputs": [
        {
          "internalType": "address",
          "name": "",
          "type": "address"
        }
      ],
      "stateMutability": "view",
      "type": "function"
    },
    {
      "inputs": [
        {
          "internalType": "address",
          "name": "from",
          "type": "address"
        },
        {
          "internalType": "address",
          "name": "to",
          "type": "address"
        },
        {
          "internalType": "uint256",
          "name": "tokenId",
          "type": "uint256"
        }
      ],
      "name": "safeTransferFrom",
      "outputs": [],
      "stateMutability": "nonpayable",
      "type": "function"
    },
    {
      "inputs": [
        {
          "internalType": "address",
          "name": "from",
          "type": "address"
        },
        {
          "internalType": "address",
          "name": "to",
          "type": "address"
        },
        {
          "internalType": "uint256",
          "name": "tokenId",
          "type": "uint256"
        },
        {
          "internalType": "bytes",
          "name": "_data",
          "type": "bytes"
        }
      ],
      "name": "safeTransferFrom",
      "outputs": [],
      "stateMutability": "nonpayable",
      "type": "function"
    },
    {
      "inputs": [
        {
          "internalType": "address",
          "name": "operator",
          "type": "address"
        },
        {
          "internalType": "bool",
          "name": "approved",
          "type": "bool"
        }
      ],
      "name": "setApprovalForAll",
      "outputs": [],
      "stateMutability": "nonpayable",
      "type": "function"
    },
    {
      "inputs": [],
      "name": "symbol",
      "outputs": [
        {
          "internalType": "string",
          "name": "",
          "type": "string"
        }
      ],
      "stateMutability": "view",
      "type": "function"
    },
    {
      "inputs": [
        {
          "internalType": "uint256",
          "name": "tokenId",
          "type": "uint256"
        }
      ],
      "name": "tokenURI",
      "outputs": [
        {
          "internalType": "string",
          "name": "",
          "type": "string"
        }
      ],
      "stateMutability": "view",
      "type": "function"
    },
    {
      "inputs": [
        {
          "internalType": "address",
          "name": "from",
          "type": "address"
        },
        {
          "internalType": "address",
          "name": "to",
          "type": "address"
        },
        {
          "internalType": "uint256",
          "name": "tokenId",
          "type": "uint256"
        }
      ],
      "name": "transferFrom",
      "outputs": [],
      "stateMutability": "nonpayable",
      "type": "function"
    }
  ],
  "bytecode": "0x608060405234801561001057600080fd5b50612d6a806100206000396000f3fe608060405234801561001057600080fd5b50600436106100ea5760003560e01c80636352211e1161008c578063a22cb46511610066578063a22cb46514610247578063b1fea9ba14610263578063b88d4fde1461027f578063c87b56dd1461029b576100ea565b80636352211e146101c957806370a08231146101f957806395d89b4114610229576100ea565b806323b872dd116100c857806323b872dd1461015957806342842e0e1461017557806342966c681461019157806346faa8b2146101ad576100ea565b806306fdde03146100ef578063081812fc1461010d578063095ea7b31461013d575b600080fd5b6100f76102cb565b60405161010491906122a3565b60405180910390f35b61012760048036038101906101229190611e56565b61036c565b6040516101349190612221565b60405180910390f35b61015760048036038101906101529190611d71565b610400565b005b610173600480360381019061016e9190611c5b565b61059b565b005b61018f600480360381019061018a9190611c5b565b6105fb565b005b6101ab60048036038101906101a69190611e56565b61061b565b005b6101c760048036038101906101c29190611dde565b61066c565b005b6101e360048036038101906101de9190611e56565b6107da565b6040516101f09190612221565b60405180910390f35b610213600480360381019061020e9190611c2e565b61089b565b60405161022091906124c5565b60405180910390f35b610231610962565b60405161023e91906122a3565b60405180910390f35b610261600480360381019061025c9190611d31565b610a03565b005b61027d60048036038101906102789190611e83565b610b11565b005b61029960048036038101906102949190611cae565b610be1565b005b6102b560048036038101906102b09190611e56565b610c43565b6040516102c291906122a3565b60405180910390f35b606060006102d7610d45565b90508060000180546102e89061274f565b80601f01602080910402602001604051908101604052809291908181526020018280546103149061274f565b80156103615780601f1061033657610100808354040283529160200191610361565b820191906000526020600020905b81548152906001019060200180831161034457829003601f168201915b505050505091505090565b600061037782610d72565b6103b6576040517f08c379a00000000000000000000000000000000000000000000000000000000081526004016103ad906123e5565b60405180910390fd5b60006103c0610d45565b905080600401600084815260200190815260200160002060009054906101000a900473ffffffffffffffffffffffffffffffffffffffff16915050919050565b600061040b826107da565b90508073ffffffffffffffffffffffffffffffffffffffff168373ffffffffffffffffffffffffffffffffffffffff16141561047c576040517f08c379a000000000000000000000000000000000000000000000000000000000815260040161047390612485565b60405180910390fd5b8073ffffffffffffffffffffffffffffffffffffffff1661049b610ded565b73ffffffffffffffffffffffffffffffffffffffff16148061054d5750600060010160008273ffffffffffffffffffffffffffffffffffffffff1673ffffffffffffffffffffffffffffffffffffffff1681526020019081526020016000206000610504610ded565b73ffffffffffffffffffffffffffffffffffffffff1673ffffffffffffffffffffffffffffffffffffffff16815260200190815260200160002060009054906101000a900460ff165b61058c576040517f08c379a000000000000000000000000000000000000000000000000000000000815260040161058390612365565b60405180910390fd5b6105968383610df5565b505050565b6105ac6105a6610ded565b82610ebd565b6105eb576040517f08c379a00000000000000000000000000000000000000000000000000000000081526004016105e2906124a5565b60405180910390fd5b6105f6838383611025565b505050565b61061683838360405180602001604052806000815250610be1565b505050565b6000610625611294565b9050610630826112c1565b80600101600083815260200190815260200160002060006101000a81549073ffffffffffffffffffffffffffffffffffffffff02191690555050565b60006106766113e3565b90506000610682611294565b905060008160030180546106959061274f565b90501480156106b4575060008160040180546106b09061274f565b9050145b6106bd57600080fd5b60008451141580156106d157506000835114155b610710576040517f08c379a000000000000000000000000000000000000000000000000000000000815260040161070790612465565b60405180910390fd5b8160040160009054906101000a900473ffffffffffffffffffffffffffffffffffffffff1673ffffffffffffffffffffffffffffffffffffffff163373ffffffffffffffffffffffffffffffffffffffff16146107a2576040517f08c379a0000000000000000000000000000000000000000000000000000000008152600401610799906122c5565b60405180910390fd5b838160030190805190602001906107ba929190611906565b50828160040190805190602001906107d3929190611906565b5050505050565b6000806107e5610d45565b9050600081600201600085815260200190815260200160002060009054906101000a900473ffffffffffffffffffffffffffffffffffffffff169050600073ffffffffffffffffffffffffffffffffffffffff168173ffffffffffffffffffffffffffffffffffffffff161415610891576040517f08c379a0000000000000000000000000000000000000000000000000000000008152600401610888906123a5565b60405180910390fd5b8092505050919050565b60008073ffffffffffffffffffffffffffffffffffffffff168273ffffffffffffffffffffffffffffffffffffffff16141561090c576040517f08c379a000000000000000000000000000000000000000000000000000000000815260040161090390612385565b60405180910390fd5b6000610916610d45565b90508060030160008473ffffffffffffffffffffffffffffffffffffffff1673ffffffffffffffffffffffffffffffffffffffff16815260200190815260200160002054915050919050565b6060600061096e610d45565b905080600101805461097f9061274f565b80601f01602080910402602001604051908101604052809291908181526020018280546109ab9061274f565b80156109f85780601f106109cd576101008083540402835291602001916109f8565b820191906000526020600020905b8154815290600101906020018083116109db57829003601f168201915b505050505091505090565b8060006001016000610a13610ded565b73ffffffffffffffffffffffffffffffffffffffff1673ffffffffffffffffffffffffffffffffffffffff16815260200190815260200160002060008473ffffffffffffffffffffffffffffffffffffffff1673ffffffffffffffffffffffffffffffffffffffff16815260200190815260200160002060006101000a81548160ff0219169083151502179055508173ffffffffffffffffffffffffffffffffffffffff16610ac0610ded565b73ffffffffffffffffffffffffffffffffffffffff167f17307eab39ab6107e8899845ad3d59bd9653f200f220920489ca2b5937696c3183604051610b059190612288565b60405180910390a35050565b6000610b1b611294565b90508481600001600088815260200190815260200160002060006101000a81548173ffffffffffffffffffffffffffffffffffffffff021916908373ffffffffffffffffffffffffffffffffffffffff1602179055508481600101600088815260200190815260200160002060006101000a81548173ffffffffffffffffffffffffffffffffffffffff021916908373ffffffffffffffffffffffffffffffffffffffff160217905550610bcf8587611410565b610bd9868561142e565b505050505050565b610bf2610bec610ded565b83610ebd565b610c31576040517f08c379a0000000000000000000000000000000000000000000000000000000008152600401610c28906124a5565b60405180910390fd5b610c3d848484846114b1565b50505050565b6060610c4e82610d72565b610c8d576040517f08c379a0000000000000000000000000000000000000000000000000000000008152600401610c8490612445565b60405180910390fd5b6000610c97611294565b905060008160020160008581526020019081526020016000208054610cbb9061274f565b80601f0160208091040260200160405190810160405280929190818152602001828054610ce79061274f565b8015610d345780601f10610d0957610100808354040283529160200191610d34565b820191906000526020600020905b815481529060010190602001808311610d1757829003601f168201915b505050505090508092505050919050565b6000807f27d4b8eb827745c1478e1390415e0b68ca5ace988a610b45757dd674616b25ad90508091505090565b600080610d7d610d45565b9050600073ffffffffffffffffffffffffffffffffffffffff1681600201600085815260200190815260200160002060009054906101000a900473ffffffffffffffffffffffffffffffffffffffff1673ffffffffffffffffffffffffffffffffffffffff161415915050919050565b600033905090565b6000610dff610d45565b90508281600401600084815260200190815260200160002060006101000a81548173ffffffffffffffffffffffffffffffffffffffff021916908373ffffffffffffffffffffffffffffffffffffffff160217905550818373ffffffffffffffffffffffffffffffffffffffff16610e76846107da565b73ffffffffffffffffffffffffffffffffffffffff167f8c5be1e5ebec7d5bd14f71427d1e84f3dd0314c0f7b2291e5b200ac8c7c3b92560405160405180910390a4505050565b6000610ec882610d72565b610f07576040517f08c379a0000000000000000000000000000000000000000000000000000000008152600401610efe90612345565b60405180910390fd5b6000610f12836107da565b90508073ffffffffffffffffffffffffffffffffffffffff168473ffffffffffffffffffffffffffffffffffffffff161480610f8157508373ffffffffffffffffffffffffffffffffffffffff16610f698461036c565b73ffffffffffffffffffffffffffffffffffffffff16145b8061101c5750600060010160008273ffffffffffffffffffffffffffffffffffffffff1673ffffffffffffffffffffffffffffffffffffffff1681526020019081526020016000206000610fd3610ded565b73ffffffffffffffffffffffffffffffffffffffff1673ffffffffffffffffffffffffffffffffffffffff16815260200190815260200160002060009054906101000a900460ff165b91505092915050565b8273ffffffffffffffffffffffffffffffffffffffff16611045826107da565b73ffffffffffffffffffffffffffffffffffffffff161461109b576040517f08c379a000000000000000000000000000000000000000000000000000000000815260040161109290612425565b60405180910390fd5b600073ffffffffffffffffffffffffffffffffffffffff168273ffffffffffffffffffffffffffffffffffffffff16141561110b576040517f08c379a000000000000000000000000000000000000000000000000000000000815260040161110290612325565b60405180910390fd5b61111683838361150d565b611121600082610df5565b600061112b610d45565b905060018160030160008673ffffffffffffffffffffffffffffffffffffffff1673ffffffffffffffffffffffffffffffffffffffff168152602001908152602001600020600082825461117f919061264d565b9250508190555060018160030160008573ffffffffffffffffffffffffffffffffffffffff1673ffffffffffffffffffffffffffffffffffffffff16815260200190815260200160002060008282546111d891906125f7565b925050819055508281600201600084815260200190815260200160002060006101000a81548173ffffffffffffffffffffffffffffffffffffffff021916908373ffffffffffffffffffffffffffffffffffffffff160217905550818373ffffffffffffffffffffffffffffffffffffffff168573ffffffffffffffffffffffffffffffffffffffff167fddf252ad1be2c89b69c2b068fc378daa952ba7f163c4a11628f55a4df523b3ef60405160405180910390a450505050565b6000807f7336099884d9097f82a586e8d7e322fd089b07b96831a9d9ee42fb0a34564cf790508091505090565b60006112cc826107da565b90506112da8160008461150d565b6112e5600083610df5565b60006112ef610d45565b905060018160030160008473ffffffffffffffffffffffffffffffffffffffff1673ffffffffffffffffffffffffffffffffffffffff1681526020019081526020016000206000828254611343919061264d565b9250508190555080600201600084815260200190815260200160002060006101000a81549073ffffffffffffffffffffffffffffffffffffffff021916905582600073ffffffffffffffffffffffffffffffffffffffff168373ffffffffffffffffffffffffffffffffffffffff167fddf252ad1be2c89b69c2b068fc378daa952ba7f163c4a11628f55a4df523b3ef60405160405180910390a4505050565b6000807fc8fcad8db84d3cc18b4c41d551ea0ee66dd599cde068d998e57d5e09332c131c90508091505090565b61142a828260405180602001604052806000815250611512565b5050565b61143782610d72565b611476576040517f08c379a000000000000000000000000000000000000000000000000000000000815260040161146d90612405565b60405180910390fd5b6000611480611294565b90508181600201600085815260200190815260200160002090805190602001906114ab929190611906565b50505050565b6114bc848484611025565b6114c88484848461156d565b611507576040517f08c379a00000000000000000000000000000000000000000000000000000000081526004016114fe906122e5565b60405180910390fd5b50505050565b505050565b61151c8383611704565b611529600084848461156d565b611568576040517f08c379a000000000000000000000000000000000000000000000000000000000815260040161155f906122e5565b60405180910390fd5b505050565b600061158e8473ffffffffffffffffffffffffffffffffffffffff166118e3565b156116f7578373ffffffffffffffffffffffffffffffffffffffff1663150b7a026115b7610ded565b8786866040518563ffffffff1660e01b81526004016115d9949392919061223c565b602060405180830381600087803b1580156115f357600080fd5b505af192505050801561162457506040513d601f19601f820116820180604052508101906116219190611db1565b60015b6116a7573d8060008114611654576040519150601f19603f3d011682016040523d82523d6000602084013e611659565b606091505b5060008151141561169f576040517f08c379a0000000000000000000000000000000000000000000000000000000008152600401611696906122e5565b60405180910390fd5b805181602001fd5b63150b7a0260e01b7bffffffffffffffffffffffffffffffffffffffffffffffffffffffff1916817bffffffffffffffffffffffffffffffffffffffffffffffffffffffff1916149150506116fc565b600190505b949350505050565b600073ffffffffffffffffffffffffffffffffffffffff168273ffffffffffffffffffffffffffffffffffffffff161415611774576040517f08c379a000000000000000000000000000000000000000000000000000000000815260040161176b906123c5565b60405180910390fd5b61177d81610d72565b156117bd576040517f08c379a00000000000000000000000000000000000000000000000000000000081526004016117b490612305565b60405180910390fd5b6117c96000838361150d565b60006117d3610d45565b905060018160030160008573ffffffffffffffffffffffffffffffffffffffff1673ffffffffffffffffffffffffffffffffffffffff168152602001908152602001600020600082825461182791906125f7565b925050819055508281600201600084815260200190815260200160002060006101000a81548173ffffffffffffffffffffffffffffffffffffffff021916908373ffffffffffffffffffffffffffffffffffffffff160217905550818373ffffffffffffffffffffffffffffffffffffffff16600073ffffffffffffffffffffffffffffffffffffffff167fddf252ad1be2c89b69c2b068fc378daa952ba7f163c4a11628f55a4df523b3ef60405160405180910390a4505050565b6000808273ffffffffffffffffffffffffffffffffffffffff163b119050919050565b8280546119129061274f565b90600052602060002090601f016020900481019282611934576000855561197b565b82601f1061194d57805160ff191683800117855561197b565b8280016001018555821561197b579182015b8281111561197a57825182559160200191906001019061195f565b5b509050611988919061198c565b5090565b5b808211156119a557600081600090555060010161198d565b5090565b60006119bc6119b784612505565b6124e0565b905080838252602082019050828560208602820111156119df576119de612844565b5b60005b85811015611a0f57816119f58882611b0d565b8452602084019350602083019250506001810190506119e2565b5050509392505050565b6000611a2c611a2784612531565b6124e0565b90508083825260208201905082856020860282011115611a4f57611a4e612844565b5b60005b85811015611a7f5781611a658882611c19565b845260208401935060208301925050600181019050611a52565b5050509392505050565b6000611a9c611a978461255d565b6124e0565b905082815260208101848484011115611ab857611ab7612849565b5b611ac384828561270d565b509392505050565b6000611ade611ad98461258e565b6124e0565b905082815260208101848484011115611afa57611af9612849565b5b611b0584828561270d565b509392505050565b600081359050611b1c81612cc1565b92915050565b600082601f830112611b3757611b3661283f565b5b8135611b478482602086016119a9565b91505092915050565b600082601f830112611b6557611b6461283f565b5b8135611b75848260208601611a19565b91505092915050565b600081359050611b8d81612cd8565b92915050565b600081519050611ba281612cef565b92915050565b600082601f830112611bbd57611bbc61283f565b5b8135611bcd848260208601611a89565b91505092915050565b600082601f830112611beb57611bea61283f565b5b8135611bfb848260208601611acb565b91505092915050565b600081359050611c1381612d06565b92915050565b600081359050611c2881612d1d565b92915050565b600060208284031215611c4457611c43612853565b5b6000611c5284828501611b0d565b91505092915050565b600080600060608486031215611c7457611c73612853565b5b6000611c8286828701611b0d565b9350506020611c9386828701611b0d565b9250506040611ca486828701611c04565b9150509250925092565b60008060008060808587031215611cc857611cc7612853565b5b6000611cd687828801611b0d565b9450506020611ce787828801611b0d565b9350506040611cf887828801611c04565b925050606085013567ffffffffffffffff811115611d1957611d1861284e565b5b611d2587828801611ba8565b91505092959194509250565b60008060408385031215611d4857611d47612853565b5b6000611d5685828601611b0d565b9250506020611d6785828601611b7e565b9150509250929050565b60008060408385031215611d8857611d87612853565b5b6000611d9685828601611b0d565b9250506020611da785828601611c04565b9150509250929050565b600060208284031215611dc757611dc6612853565b5b6000611dd584828501611b93565b91505092915050565b60008060408385031215611df557611df4612853565b5b600083013567ffffffffffffffff811115611e1357611e1261284e565b5b611e1f85828601611bd6565b925050602083013567ffffffffffffffff811115611e4057611e3f61284e565b5b611e4c85828601611bd6565b9150509250929050565b600060208284031215611e6c57611e6b612853565b5b6000611e7a84828501611c04565b91505092915050565b600080600080600060a08688031215611e9f57611e9e612853565b5b6000611ead88828901611c04565b9550506020611ebe88828901611b0d565b945050604086013567ffffffffffffffff811115611edf57611ede61284e565b5b611eeb88828901611bd6565b935050606086013567ffffffffffffffff811115611f0c57611f0b61284e565b5b611f1888828901611b22565b925050608086013567ffffffffffffffff811115611f3957611f3861284e565b5b611f4588828901611b50565b9150509295509295909350565b611f5b81612681565b82525050565b611f6a81612693565b82525050565b6000611f7b826125bf565b611f8581856125d5565b9350611f9581856020860161271c565b611f9e81612858565b840191505092915050565b6000611fb4826125ca565b611fbe81856125e6565b9350611fce81856020860161271c565b611fd781612858565b840191505092915050565b6000611fef6016836125e6565b9150611ffa82612869565b602082019050919050565b60006120126032836125e6565b915061201d82612892565b604082019050919050565b6000612035601c836125e6565b9150612040826128e1565b602082019050919050565b60006120586024836125e6565b91506120638261290a565b604082019050919050565b600061207b602c836125e6565b915061208682612959565b604082019050919050565b600061209e6038836125e6565b91506120a9826129a8565b604082019050919050565b60006120c1602a836125e6565b91506120cc826129f7565b604082019050919050565b60006120e46029836125e6565b91506120ef82612a46565b604082019050919050565b60006121076020836125e6565b915061211282612a95565b602082019050919050565b600061212a602c836125e6565b915061213582612abe565b604082019050919050565b600061214d602c836125e6565b915061215882612b0d565b604082019050919050565b60006121706029836125e6565b915061217b82612b5c565b604082019050919050565b6000612193602f836125e6565b915061219e82612bab565b604082019050919050565b60006121b6600e836125e6565b91506121c182612bfa565b602082019050919050565b60006121d96021836125e6565b91506121e482612c23565b604082019050919050565b60006121fc6031836125e6565b915061220782612c72565b604082019050919050565b61221b816126eb565b82525050565b60006020820190506122366000830184611f52565b92915050565b60006080820190506122516000830187611f52565b61225e6020830186611f52565b61226b6040830185612212565b818103606083015261227d8184611f70565b905095945050505050565b600060208201905061229d6000830184611f61565b92915050565b600060208201905081810360008301526122bd8184611fa9565b905092915050565b600060208201905081810360008301526122de81611fe2565b9050919050565b600060208201905081810360008301526122fe81612005565b9050919050565b6000602082019050818103600083015261231e81612028565b9050919050565b6000602082019050818103600083015261233e8161204b565b9050919050565b6000602082019050818103600083015261235e8161206e565b9050919050565b6000602082019050818103600083015261237e81612091565b9050919050565b6000602082019050818103600083015261239e816120b4565b9050919050565b600060208201905081810360008301526123be816120d7565b9050919050565b600060208201905081810360008301526123de816120fa565b9050919050565b600060208201905081810360008301526123fe8161211d565b9050919050565b6000602082019050818103600083015261241e81612140565b9050919050565b6000602082019050818103600083015261243e81612163565b9050919050565b6000602082019050818103600083015261245e81612186565b9050919050565b6000602082019050818103600083015261247e816121a9565b9050919050565b6000602082019050818103600083015261249e816121cc565b9050919050565b600060208201905081810360008301526124be816121ef565b9050919050565b60006020820190506124da6000830184612212565b92915050565b60006124ea6124fb565b90506124f68282612781565b919050565b6000604051905090565b600067ffffffffffffffff8211156125205761251f612810565b5b602082029050602081019050919050565b600067ffffffffffffffff82111561254c5761254b612810565b5b602082029050602081019050919050565b600067ffffffffffffffff82111561257857612577612810565b5b61258182612858565b9050602081019050919050565b600067ffffffffffffffff8211156125a9576125a8612810565b5b6125b282612858565b9050602081019050919050565b600081519050919050565b600081519050919050565b600082825260208201905092915050565b600082825260208201905092915050565b6000612602826126eb565b915061260d836126eb565b9250827fffffffffffffffffffffffffffffffffffffffffffffffffffffffffffffffff03821115612642576126416127b2565b5b828201905092915050565b6000612658826126eb565b9150612663836126eb565b925082821015612676576126756127b2565b5b828203905092915050565b600061268c826126cb565b9050919050565b60008115159050919050565b60007fffffffff0000000000000000000000000000000000000000000000000000000082169050919050565b600073ffffffffffffffffffffffffffffffffffffffff82169050919050565b6000819050919050565b60006bffffffffffffffffffffffff82169050919050565b82818337600083830152505050565b60005b8381101561273a57808201518184015260208101905061271f565b83811115612749576000848401525b50505050565b6000600282049050600182168061276757607f821691505b6020821081141561277b5761277a6127e1565b5b50919050565b61278a82612858565b810181811067ffffffffffffffff821117156127a9576127a8612810565b5b80604052505050565b7f4e487b7100000000000000000000000000000000000000000000000000000000600052601160045260246000fd5b7f4e487b7100000000000000000000000000000000000000000000000000000000600052602260045260246000fd5b7f4e487b7100000000000000000000000000000000000000000000000000000000600052604160045260246000fd5b600080fd5b600080fd5b600080fd5b600080fd5b600080fd5b6000601f19601f8301169050919050565b7f4d757374206f776e2074686520636f6e74726163742e00000000000000000000600082015250565b7f4552433732313a207472616e7366657220746f206e6f6e20455243373231526560008201527f63656976657220696d706c656d656e7465720000000000000000000000000000602082015250565b7f4552433732313a20746f6b656e20616c7265616479206d696e74656400000000600082015250565b7f4552433732313a207472616e7366657220746f20746865207a65726f2061646460008201527f7265737300000000000000000000000000000000000000000000000000000000602082015250565b7f4552433732313a206f70657261746f7220717565727920666f72206e6f6e657860008201527f697374656e7420746f6b656e0000000000000000000000000000000000000000602082015250565b7f4552433732313a20617070726f76652063616c6c6572206973206e6f74206f7760008201527f6e6572206e6f7220617070726f76656420666f7220616c6c0000000000000000602082015250565b7f4552433732313a2062616c616e636520717565727920666f7220746865207a6560008201527f726f206164647265737300000000000000000000000000000000000000000000602082015250565b7f4552433732313a206f776e657220717565727920666f72206e6f6e657869737460008201527f656e7420746f6b656e0000000000000000000000000000000000000000000000602082015250565b7f4552433732313a206d696e7420746f20746865207a65726f2061646472657373600082015250565b7f4552433732313a20617070726f76656420717565727920666f72206e6f6e657860008201527f697374656e7420746f6b656e0000000000000000000000000000000000000000602082015250565b7f4552433732314d657461646174613a2055524920736574206f66206e6f6e657860008201527f697374656e7420746f6b656e0000000000000000000000000000000000000000602082015250565b7f4552433732313a207472616e73666572206f6620746f6b656e2074686174206960008201527f73206e6f74206f776e0000000000000000000000000000000000000000000000602082015250565b7f4552433732314d657461646174613a2055524920717565727920666f72206e6f60008201527f6e6578697374656e7420746f6b656e0000000000000000000000000000000000602082015250565b7f494e56414c49445f504152414d53000000000000000000000000000000000000600082015250565b7f4552433732313a20617070726f76616c20746f2063757272656e74206f776e6560008201527f7200000000000000000000000000000000000000000000000000000000000000602082015250565b7f4552433732313a207472616e736665722063616c6c6572206973206e6f74206f60008201527f776e6572206e6f7220617070726f766564000000000000000000000000000000602082015250565b612cca81612681565b8114612cd557600080fd5b50565b612ce181612693565b8114612cec57600080fd5b50565b612cf88161269f565b8114612d0357600080fd5b50565b612d0f816126eb565b8114612d1a57600080fd5b50565b612d26816126f5565b8114612d3157600080fd5b5056fea26469706673582212205038bb8ffaa5b5f301948c102b4af2f751bd4b2fbc6789d4c36061a583a9423164736f6c63430008060033",
  "linkReferences": {},
  "deployedLinkReferences": {}
}