{
  "_format": "hh-sol-artifact-1",
  "contractName": "ERC721FactoryFacet",
  "sourceName": "contracts/facets/ERC721Factory/ERC721FactoryFacet.sol",
  "abi": [
    {
      "anonymous": false,
      "inputs": [
        {
          "indexed": true,
          "internalType": "address",
          "name": "owner",
          "type": "address"
        },
        {
          "indexed": true,
          "internalType": "address",
          "name": "approved",
          "type": "address"
        },
        {
          "indexed": true,
          "internalType": "uint256",
          "name": "tokenId",
          "type": "uint256"
        }
      ],
      "name": "Approval",
      "type": "event"
    },
    {
      "anonymous": false,
      "inputs": [
        {
          "indexed": true,
          "internalType": "address",
          "name": "owner",
          "type": "address"
        },
        {
          "indexed": true,
          "internalType": "address",
          "name": "operator",
          "type": "address"
        },
        {
          "indexed": false,
          "internalType": "bool",
          "name": "approved",
          "type": "bool"
        }
      ],
      "name": "ApprovalForAll",
      "type": "event"
    },
    {
      "anonymous": false,
      "inputs": [
        {
          "indexed": true,
          "internalType": "address",
          "name": "from",
          "type": "address"
        },
        {
          "indexed": true,
          "internalType": "address",
          "name": "to",
          "type": "address"
        },
        {
          "indexed": true,
          "internalType": "uint256",
          "name": "tokenId",
          "type": "uint256"
        }
      ],
      "name": "Transfer",
      "type": "event"
    },
    {
      "inputs": [
        {
          "internalType": "uint256",
          "name": "tokenId",
          "type": "uint256"
        }
      ],
      "name": "_tokenExists",
      "outputs": [
        {
          "internalType": "bool",
          "name": "",
          "type": "bool"
        }
      ],
      "stateMutability": "view",
      "type": "function"
    },
    {
      "inputs": [
        {
          "internalType": "address",
          "name": "to",
          "type": "address"
        },
        {
          "internalType": "uint256",
          "name": "tokenId",
          "type": "uint256"
        }
      ],
      "name": "approve",
      "outputs": [],
      "stateMutability": "nonpayable",
      "type": "function"
    },
    {
      "inputs": [
        {
          "internalType": "address",
          "name": "owner",
          "type": "address"
        }
      ],
      "name": "balanceOf",
      "outputs": [
        {
          "internalType": "uint256",
          "name": "",
          "type": "uint256"
        }
      ],
      "stateMutability": "view",
      "type": "function"
    },
    {
      "inputs": [
        {
          "internalType": "uint256",
          "name": "tokenId",
          "type": "uint256"
        }
      ],
      "name": "burn",
      "outputs": [],
      "stateMutability": "nonpayable",
      "type": "function"
    },
    {
      "inputs": [
        {
          "internalType": "string",
          "name": "name_",
          "type": "string"
        },
        {
          "internalType": "string",
          "name": "symbol_",
          "type": "string"
        }
      ],
      "name": "erc721FactoryFacetInit",
      "outputs": [],
      "stateMutability": "nonpayable",
      "type": "function"
    },
    {
      "inputs": [
        {
          "internalType": "uint256",
          "name": "tokenId",
          "type": "uint256"
        }
      ],
      "name": "getApproved",
      "outputs": [
        {
          "internalType": "address",
          "name": "",
          "type": "address"
        }
      ],
      "stateMutability": "view",
      "type": "function"
    },
    {
      "inputs": [
        {
          "internalType": "uint256",
          "name": "tokenId",
          "type": "uint256"
        },
        {
          "internalType": "address",
          "name": "creator",
          "type": "address"
        },
        {
          "internalType": "string",
          "name": "_tokenURI",
          "type": "string"
        },
        {
          "internalType": "address[]",
          "name": "royaltyReceiver",
          "type": "address[]"
        },
        {
          "internalType": "uint96[]",
          "name": "tokenRoyaltyInBips",
          "type": "uint96[]"
        }
      ],
      "name": "mint",
      "outputs": [],
      "stateMutability": "nonpayable",
      "type": "function"
    },
    {
      "inputs": [],
      "name": "name",
      "outputs": [
        {
          "internalType": "string",
          "name": "",
          "type": "string"
        }
      ],
      "stateMutability": "view",
      "type": "function"
    },
    {
      "inputs": [
        {
          "internalType": "uint256",
          "name": "tokenId",
          "type": "uint256"
        }
      ],
      "name": "ownerOf",
      "outputs": [
        {
          "internalType": "address",
          "name": "",
          "type": "address"
        }
      ],
      "stateMutability": "view",
      "type": "function"
    },
    {
      "inputs": [
        {
          "internalType": "address",
          "name": "from",
          "type": "address"
        },
        {
          "internalType": "address",
          "name": "to",
          "type": "address"
        },
        {
          "internalType": "uint256",
          "name": "tokenId",
          "type": "uint256"
        }
      ],
      "name": "safeTransferFrom",
      "outputs": [],
      "stateMutability": "nonpayable",
      "type": "function"
    },
    {
      "inputs": [
        {
          "internalType": "address",
          "name": "from",
          "type": "address"
        },
        {
          "internalType": "address",
          "name": "to",
          "type": "address"
        },
        {
          "internalType": "uint256",
          "name": "tokenId",
          "type": "uint256"
        },
        {
          "internalType": "bytes",
          "name": "_data",
          "type": "bytes"
        }
      ],
      "name": "safeTransferFrom",
      "outputs": [],
      "stateMutability": "nonpayable",
      "type": "function"
    },
    {
      "inputs": [],
      "name": "symbol",
      "outputs": [
        {
          "internalType": "string",
          "name": "",
          "type": "string"
        }
      ],
      "stateMutability": "view",
      "type": "function"
    },
    {
      "inputs": [
        {
          "internalType": "uint256",
          "name": "tokenId",
          "type": "uint256"
        }
      ],
      "name": "tokenURI",
      "outputs": [
        {
          "internalType": "string",
          "name": "",
          "type": "string"
        }
      ],
      "stateMutability": "view",
      "type": "function"
    },
    {
      "inputs": [
        {
          "internalType": "address",
          "name": "from",
          "type": "address"
        },
        {
          "internalType": "address",
          "name": "to",
          "type": "address"
        },
        {
          "internalType": "uint256",
          "name": "tokenId",
          "type": "uint256"
        }
      ],
      "name": "transferFrom",
      "outputs": [],
      "stateMutability": "nonpayable",
      "type": "function"
    }
  ],
  "bytecode": "0x608060405234801561001057600080fd5b50612d1d806100206000396000f3fe608060405234801561001057600080fd5b50600436106100ea5760003560e01c80636352211e1161008c57806395d89b411161006657806395d89b4114610259578063b1fea9ba14610277578063b88d4fde14610293578063c87b56dd146102af576100ea565b80636352211e146101c957806370a08231146101f9578063895e8b2314610229576100ea565b806323b872dd116100c857806323b872dd1461015957806342842e0e1461017557806342966c681461019157806346faa8b2146101ad576100ea565b806306fdde03146100ef578063081812fc1461010d578063095ea7b31461013d575b600080fd5b6100f76102df565b60405161010491906119dd565b60405180910390f35b61012760048036038101906101229190611a49565b610380565b6040516101349190611ab7565b60405180910390f35b61015760048036038101906101529190611afe565b610414565b005b610173600480360381019061016e9190611b3e565b6105af565b005b61018f600480360381019061018a9190611b3e565b61060f565b005b6101ab60048036038101906101a69190611a49565b61062f565b005b6101c760048036038101906101c29190611cc6565b610680565b005b6101e360048036038101906101de9190611a49565b6107ee565b6040516101f09190611ab7565b60405180910390f35b610213600480360381019061020e9190611d3e565b6108af565b6040516102209190611d7a565b60405180910390f35b610243600480360381019061023e9190611a49565b610976565b6040516102509190611db0565b60405180910390f35b610261610988565b60405161026e91906119dd565b60405180910390f35b610291600480360381019061028c9190611f9a565b610a29565b005b6102ad60048036038101906102a8919061210a565b610b8b565b005b6102c960048036038101906102c49190611a49565b610bed565b6040516102d691906119dd565b60405180910390f35b606060006102eb610cef565b90508060000180546102fc906121bc565b80601f0160208091040260200160405190810160405280929190818152602001828054610328906121bc565b80156103755780601f1061034a57610100808354040283529160200191610375565b820191906000526020600020905b81548152906001019060200180831161035857829003601f168201915b505050505091505090565b600061038b82610d1c565b6103ca576040517f08c379a00000000000000000000000000000000000000000000000000000000081526004016103c190612260565b60405180910390fd5b60006103d4610cef565b905080600401600084815260200190815260200160002060009054906101000a900473ffffffffffffffffffffffffffffffffffffffff16915050919050565b600061041f826107ee565b90508073ffffffffffffffffffffffffffffffffffffffff168373ffffffffffffffffffffffffffffffffffffffff161415610490576040517f08c379a0000000000000000000000000000000000000000000000000000000008152600401610487906122f2565b60405180910390fd5b8073ffffffffffffffffffffffffffffffffffffffff166104af610d97565b73ffffffffffffffffffffffffffffffffffffffff1614806105615750600060010160008273ffffffffffffffffffffffffffffffffffffffff1673ffffffffffffffffffffffffffffffffffffffff1681526020019081526020016000206000610518610d97565b73ffffffffffffffffffffffffffffffffffffffff1673ffffffffffffffffffffffffffffffffffffffff16815260200190815260200160002060009054906101000a900460ff165b6105a0576040517f08c379a000000000000000000000000000000000000000000000000000000000815260040161059790612384565b60405180910390fd5b6105aa8383610d9f565b505050565b6105c06105ba610d97565b82610e67565b6105ff576040517f08c379a00000000000000000000000000000000000000000000000000000000081526004016105f690612416565b60405180910390fd5b61060a838383610fcf565b505050565b61062a83838360405180602001604052806000815250610b8b565b505050565b600061063961123e565b90506106448261126b565b80600101600083815260200190815260200160002060006101000a81549073ffffffffffffffffffffffffffffffffffffffff02191690555050565b600061068a61138d565b9050600061069661123e565b905060008160030180546106a9906121bc565b90501480156106c8575060008160040180546106c4906121bc565b9050145b6106d157600080fd5b60008451141580156106e557506000835114155b610724576040517f08c379a000000000000000000000000000000000000000000000000000000000815260040161071b90612482565b60405180910390fd5b8160040160009054906101000a900473ffffffffffffffffffffffffffffffffffffffff1673ffffffffffffffffffffffffffffffffffffffff163373ffffffffffffffffffffffffffffffffffffffff16146107b6576040517f08c379a00000000000000000000000000000000000000000000000000000000081526004016107ad906124ee565b60405180910390fd5b838160030190805190602001906107ce9291906118a1565b50828160040190805190602001906107e79291906118a1565b5050505050565b6000806107f9610cef565b9050600081600201600085815260200190815260200160002060009054906101000a900473ffffffffffffffffffffffffffffffffffffffff169050600073ffffffffffffffffffffffffffffffffffffffff168173ffffffffffffffffffffffffffffffffffffffff1614156108a5576040517f08c379a000000000000000000000000000000000000000000000000000000000815260040161089c90612580565b60405180910390fd5b8092505050919050565b60008073ffffffffffffffffffffffffffffffffffffffff168273ffffffffffffffffffffffffffffffffffffffff161415610920576040517f08c379a000000000000000000000000000000000000000000000000000000000815260040161091790612612565b60405180910390fd5b600061092a610cef565b90508060030160008473ffffffffffffffffffffffffffffffffffffffff1673ffffffffffffffffffffffffffffffffffffffff16815260200190815260200160002054915050919050565b600061098182610d1c565b9050919050565b60606000610994610cef565b90508060010180546109a5906121bc565b80601f01602080910402602001604051908101604052809291908181526020018280546109d1906121bc565b8015610a1e5780601f106109f357610100808354040283529160200191610a1e565b820191906000526020600020905b815481529060010190602001808311610a0157829003601f168201915b505050505091505090565b6000800160009054906101000a900473ffffffffffffffffffffffffffffffffffffffff1673ffffffffffffffffffffffffffffffffffffffff163373ffffffffffffffffffffffffffffffffffffffff1614610abb576040517f08c379a0000000000000000000000000000000000000000000000000000000008152600401610ab2906126a4565b60405180910390fd5b6000610ac561123e565b90508481600001600088815260200190815260200160002060006101000a81548173ffffffffffffffffffffffffffffffffffffffff021916908373ffffffffffffffffffffffffffffffffffffffff1602179055508481600101600088815260200190815260200160002060006101000a81548173ffffffffffffffffffffffffffffffffffffffff021916908373ffffffffffffffffffffffffffffffffffffffff160217905550610b7985876113ba565b610b8386856113d8565b505050505050565b610b9c610b96610d97565b83610e67565b610bdb576040517f08c379a0000000000000000000000000000000000000000000000000000000008152600401610bd290612416565b60405180910390fd5b610be78484848461145b565b50505050565b6060610bf882610d1c565b610c37576040517f08c379a0000000000000000000000000000000000000000000000000000000008152600401610c2e90612736565b60405180910390fd5b6000610c4161123e565b905060008160020160008581526020019081526020016000208054610c65906121bc565b80601f0160208091040260200160405190810160405280929190818152602001828054610c91906121bc565b8015610cde5780601f10610cb357610100808354040283529160200191610cde565b820191906000526020600020905b815481529060010190602001808311610cc157829003601f168201915b505050505090508092505050919050565b6000807f27d4b8eb827745c1478e1390415e0b68ca5ace988a610b45757dd674616b25ad90508091505090565b600080610d27610cef565b9050600073ffffffffffffffffffffffffffffffffffffffff1681600201600085815260200190815260200160002060009054906101000a900473ffffffffffffffffffffffffffffffffffffffff1673ffffffffffffffffffffffffffffffffffffffff161415915050919050565b600033905090565b6000610da9610cef565b90508281600401600084815260200190815260200160002060006101000a81548173ffffffffffffffffffffffffffffffffffffffff021916908373ffffffffffffffffffffffffffffffffffffffff160217905550818373ffffffffffffffffffffffffffffffffffffffff16610e20846107ee565b73ffffffffffffffffffffffffffffffffffffffff167f8c5be1e5ebec7d5bd14f71427d1e84f3dd0314c0f7b2291e5b200ac8c7c3b92560405160405180910390a4505050565b6000610e7282610d1c565b610eb1576040517f08c379a0000000000000000000000000000000000000000000000000000000008152600401610ea8906127c8565b60405180910390fd5b6000610ebc836107ee565b90508073ffffffffffffffffffffffffffffffffffffffff168473ffffffffffffffffffffffffffffffffffffffff161480610f2b57508373ffffffffffffffffffffffffffffffffffffffff16610f1384610380565b73ffffffffffffffffffffffffffffffffffffffff16145b80610fc65750600060010160008273ffffffffffffffffffffffffffffffffffffffff1673ffffffffffffffffffffffffffffffffffffffff1681526020019081526020016000206000610f7d610d97565b73ffffffffffffffffffffffffffffffffffffffff1673ffffffffffffffffffffffffffffffffffffffff16815260200190815260200160002060009054906101000a900460ff165b91505092915050565b8273ffffffffffffffffffffffffffffffffffffffff16610fef826107ee565b73ffffffffffffffffffffffffffffffffffffffff1614611045576040517f08c379a000000000000000000000000000000000000000000000000000000000815260040161103c9061285a565b60405180910390fd5b600073ffffffffffffffffffffffffffffffffffffffff168273ffffffffffffffffffffffffffffffffffffffff1614156110b5576040517f08c379a00000000000000000000000000000000000000000000000000000000081526004016110ac906128ec565b60405180910390fd5b6110c08383836114b7565b6110cb600082610d9f565b60006110d5610cef565b905060018160030160008673ffffffffffffffffffffffffffffffffffffffff1673ffffffffffffffffffffffffffffffffffffffff1681526020019081526020016000206000828254611129919061293b565b9250508190555060018160030160008573ffffffffffffffffffffffffffffffffffffffff1673ffffffffffffffffffffffffffffffffffffffff1681526020019081526020016000206000828254611182919061296f565b925050819055508281600201600084815260200190815260200160002060006101000a81548173ffffffffffffffffffffffffffffffffffffffff021916908373ffffffffffffffffffffffffffffffffffffffff160217905550818373ffffffffffffffffffffffffffffffffffffffff168573ffffffffffffffffffffffffffffffffffffffff167fddf252ad1be2c89b69c2b068fc378daa952ba7f163c4a11628f55a4df523b3ef60405160405180910390a450505050565b6000807f7336099884d9097f82a586e8d7e322fd089b07b96831a9d9ee42fb0a34564cf790508091505090565b6000611276826107ee565b9050611284816000846114b7565b61128f600083610d9f565b6000611299610cef565b905060018160030160008473ffffffffffffffffffffffffffffffffffffffff1673ffffffffffffffffffffffffffffffffffffffff16815260200190815260200160002060008282546112ed919061293b565b9250508190555080600201600084815260200190815260200160002060006101000a81549073ffffffffffffffffffffffffffffffffffffffff021916905582600073ffffffffffffffffffffffffffffffffffffffff168373ffffffffffffffffffffffffffffffffffffffff167fddf252ad1be2c89b69c2b068fc378daa952ba7f163c4a11628f55a4df523b3ef60405160405180910390a4505050565b6000807fc8fcad8db84d3cc18b4c41d551ea0ee66dd599cde068d998e57d5e09332c131c90508091505090565b6113d48282604051806020016040528060008152506114bc565b5050565b6113e182610d1c565b611420576040517f08c379a000000000000000000000000000000000000000000000000000000000815260040161141790612a37565b60405180910390fd5b600061142a61123e565b90508181600201600085815260200190815260200160002090805190602001906114559291906118a1565b50505050565b611466848484610fcf565b61147284848484611517565b6114b1576040517f08c379a00000000000000000000000000000000000000000000000000000000081526004016114a890612ac9565b60405180910390fd5b50505050565b505050565b6114c6838361169f565b6114d36000848484611517565b611512576040517f08c379a000000000000000000000000000000000000000000000000000000000815260040161150990612ac9565b60405180910390fd5b505050565b60006115388473ffffffffffffffffffffffffffffffffffffffff1661187e565b15611692578373ffffffffffffffffffffffffffffffffffffffff1663150b7a02611561610d97565b8786866040518563ffffffff1660e01b81526004016115839493929190612b3e565b6020604051808303816000875af19250505080156115bf57506040513d601f19601f820116820180604052508101906115bc9190612be2565b60015b611642573d80600081146115ef576040519150601f19603f3d011682016040523d82523d6000602084013e6115f4565b606091505b5060008151141561163a576040517f08c379a000000000000000000000000000000000000000000000000000000000815260040161163190612ac9565b60405180910390fd5b805181602001fd5b63150b7a0260e01b7bffffffffffffffffffffffffffffffffffffffffffffffffffffffff1916817bffffffffffffffffffffffffffffffffffffffffffffffffffffffff191614915050611697565b600190505b949350505050565b600073ffffffffffffffffffffffffffffffffffffffff168273ffffffffffffffffffffffffffffffffffffffff16141561170f576040517f08c379a000000000000000000000000000000000000000000000000000000000815260040161170690612c5b565b60405180910390fd5b61171881610d1c565b15611758576040517f08c379a000000000000000000000000000000000000000000000000000000000815260040161174f90612cc7565b60405180910390fd5b611764600083836114b7565b600061176e610cef565b905060018160030160008573ffffffffffffffffffffffffffffffffffffffff1673ffffffffffffffffffffffffffffffffffffffff16815260200190815260200160002060008282546117c2919061296f565b925050819055508281600201600084815260200190815260200160002060006101000a81548173ffffffffffffffffffffffffffffffffffffffff021916908373ffffffffffffffffffffffffffffffffffffffff160217905550818373ffffffffffffffffffffffffffffffffffffffff16600073ffffffffffffffffffffffffffffffffffffffff167fddf252ad1be2c89b69c2b068fc378daa952ba7f163c4a11628f55a4df523b3ef60405160405180910390a4505050565b6000808273ffffffffffffffffffffffffffffffffffffffff163b119050919050565b8280546118ad906121bc565b90600052602060002090601f0160209004810192826118cf5760008555611916565b82601f106118e857805160ff1916838001178555611916565b82800160010185558215611916579182015b828111156119155782518255916020019190600101906118fa565b5b5090506119239190611927565b5090565b5b80821115611940576000816000905550600101611928565b5090565b600081519050919050565b600082825260208201905092915050565b60005b8381101561197e578082015181840152602081019050611963565b8381111561198d576000848401525b50505050565b6000601f19601f8301169050919050565b60006119af82611944565b6119b9818561194f565b93506119c9818560208601611960565b6119d281611993565b840191505092915050565b600060208201905081810360008301526119f781846119a4565b905092915050565b6000604051905090565b600080fd5b600080fd5b6000819050919050565b611a2681611a13565b8114611a3157600080fd5b50565b600081359050611a4381611a1d565b92915050565b600060208284031215611a5f57611a5e611a09565b5b6000611a6d84828501611a34565b91505092915050565b600073ffffffffffffffffffffffffffffffffffffffff82169050919050565b6000611aa182611a76565b9050919050565b611ab181611a96565b82525050565b6000602082019050611acc6000830184611aa8565b92915050565b611adb81611a96565b8114611ae657600080fd5b50565b600081359050611af881611ad2565b92915050565b60008060408385031215611b1557611b14611a09565b5b6000611b2385828601611ae9565b9250506020611b3485828601611a34565b9150509250929050565b600080600060608486031215611b5757611b56611a09565b5b6000611b6586828701611ae9565b9350506020611b7686828701611ae9565b9250506040611b8786828701611a34565b9150509250925092565b600080fd5b600080fd5b7f4e487b7100000000000000000000000000000000000000000000000000000000600052604160045260246000fd5b611bd382611993565b810181811067ffffffffffffffff82111715611bf257611bf1611b9b565b5b80604052505050565b6000611c056119ff565b9050611c118282611bca565b919050565b600067ffffffffffffffff821115611c3157611c30611b9b565b5b611c3a82611993565b9050602081019050919050565b82818337600083830152505050565b6000611c69611c6484611c16565b611bfb565b905082815260208101848484011115611c8557611c84611b96565b5b611c90848285611c47565b509392505050565b600082601f830112611cad57611cac611b91565b5b8135611cbd848260208601611c56565b91505092915050565b60008060408385031215611cdd57611cdc611a09565b5b600083013567ffffffffffffffff811115611cfb57611cfa611a0e565b5b611d0785828601611c98565b925050602083013567ffffffffffffffff811115611d2857611d27611a0e565b5b611d3485828601611c98565b9150509250929050565b600060208284031215611d5457611d53611a09565b5b6000611d6284828501611ae9565b91505092915050565b611d7481611a13565b82525050565b6000602082019050611d8f6000830184611d6b565b92915050565b60008115159050919050565b611daa81611d95565b82525050565b6000602082019050611dc56000830184611da1565b92915050565b600067ffffffffffffffff821115611de657611de5611b9b565b5b602082029050602081019050919050565b600080fd5b6000611e0f611e0a84611dcb565b611bfb565b90508083825260208201905060208402830185811115611e3257611e31611df7565b5b835b81811015611e5b5780611e478882611ae9565b845260208401935050602081019050611e34565b5050509392505050565b600082601f830112611e7a57611e79611b91565b5b8135611e8a848260208601611dfc565b91505092915050565b600067ffffffffffffffff821115611eae57611ead611b9b565b5b602082029050602081019050919050565b60006bffffffffffffffffffffffff82169050919050565b611ee081611ebf565b8114611eeb57600080fd5b50565b600081359050611efd81611ed7565b92915050565b6000611f16611f1184611e93565b611bfb565b90508083825260208201905060208402830185811115611f3957611f38611df7565b5b835b81811015611f625780611f4e8882611eee565b845260208401935050602081019050611f3b565b5050509392505050565b600082601f830112611f8157611f80611b91565b5b8135611f91848260208601611f03565b91505092915050565b600080600080600060a08688031215611fb657611fb5611a09565b5b6000611fc488828901611a34565b9550506020611fd588828901611ae9565b945050604086013567ffffffffffffffff811115611ff657611ff5611a0e565b5b61200288828901611c98565b935050606086013567ffffffffffffffff81111561202357612022611a0e565b5b61202f88828901611e65565b925050608086013567ffffffffffffffff8111156120505761204f611a0e565b5b61205c88828901611f6c565b9150509295509295909350565b600067ffffffffffffffff82111561208457612083611b9b565b5b61208d82611993565b9050602081019050919050565b60006120ad6120a884612069565b611bfb565b9050828152602081018484840111156120c9576120c8611b96565b5b6120d4848285611c47565b509392505050565b600082601f8301126120f1576120f0611b91565b5b813561210184826020860161209a565b91505092915050565b6000806000806080858703121561212457612123611a09565b5b600061213287828801611ae9565b945050602061214387828801611ae9565b935050604061215487828801611a34565b925050606085013567ffffffffffffffff81111561217557612174611a0e565b5b612181878288016120dc565b91505092959194509250565b7f4e487b7100000000000000000000000000000000000000000000000000000000600052602260045260246000fd5b600060028204905060018216806121d457607f821691505b602082108114156121e8576121e761218d565b5b50919050565b7f4552433732313a20617070726f76656420717565727920666f72206e6f6e657860008201527f697374656e7420746f6b656e0000000000000000000000000000000000000000602082015250565b600061224a602c8361194f565b9150612255826121ee565b604082019050919050565b600060208201905081810360008301526122798161223d565b9050919050565b7f4552433732313a20617070726f76616c20746f2063757272656e74206f776e6560008201527f7200000000000000000000000000000000000000000000000000000000000000602082015250565b60006122dc60218361194f565b91506122e782612280565b604082019050919050565b6000602082019050818103600083015261230b816122cf565b9050919050565b7f4552433732313a20617070726f76652063616c6c6572206973206e6f74206f7760008201527f6e6572206e6f7220617070726f76656420666f7220616c6c0000000000000000602082015250565b600061236e60388361194f565b915061237982612312565b604082019050919050565b6000602082019050818103600083015261239d81612361565b9050919050565b7f4552433732313a207472616e736665722063616c6c6572206973206e6f74206f60008201527f776e6572206e6f7220617070726f766564000000000000000000000000000000602082015250565b600061240060318361194f565b915061240b826123a4565b604082019050919050565b6000602082019050818103600083015261242f816123f3565b9050919050565b7f494e56414c49445f504152414d53000000000000000000000000000000000000600082015250565b600061246c600e8361194f565b915061247782612436565b602082019050919050565b6000602082019050818103600083015261249b8161245f565b9050919050565b7f4d757374206f776e2074686520636f6e74726163742e00000000000000000000600082015250565b60006124d860168361194f565b91506124e3826124a2565b602082019050919050565b60006020820190508181036000830152612507816124cb565b9050919050565b7f4552433732313a206f776e657220717565727920666f72206e6f6e657869737460008201527f656e7420746f6b656e0000000000000000000000000000000000000000000000602082015250565b600061256a60298361194f565b91506125758261250e565b604082019050919050565b600060208201905081810360008301526125998161255d565b9050919050565b7f4552433732313a2062616c616e636520717565727920666f7220746865207a6560008201527f726f206164647265737300000000000000000000000000000000000000000000602082015250565b60006125fc602a8361194f565b9150612607826125a0565b604082019050919050565b6000602082019050818103600083015261262b816125ef565b9050919050565b7f455243373231466163746f72793a20556e617574686f72697a6564204163636560008201527f7373210000000000000000000000000000000000000000000000000000000000602082015250565b600061268e60238361194f565b915061269982612632565b604082019050919050565b600060208201905081810360008301526126bd81612681565b9050919050565b7f4552433732314d657461646174613a2055524920717565727920666f72206e6f60008201527f6e6578697374656e7420746f6b656e0000000000000000000000000000000000602082015250565b6000612720602f8361194f565b915061272b826126c4565b604082019050919050565b6000602082019050818103600083015261274f81612713565b9050919050565b7f4552433732313a206f70657261746f7220717565727920666f72206e6f6e657860008201527f697374656e7420746f6b656e0000000000000000000000000000000000000000602082015250565b60006127b2602c8361194f565b91506127bd82612756565b604082019050919050565b600060208201905081810360008301526127e1816127a5565b9050919050565b7f4552433732313a207472616e73666572206f6620746f6b656e2074686174206960008201527f73206e6f74206f776e0000000000000000000000000000000000000000000000602082015250565b600061284460298361194f565b915061284f826127e8565b604082019050919050565b6000602082019050818103600083015261287381612837565b9050919050565b7f4552433732313a207472616e7366657220746f20746865207a65726f2061646460008201527f7265737300000000000000000000000000000000000000000000000000000000602082015250565b60006128d660248361194f565b91506128e18261287a565b604082019050919050565b60006020820190508181036000830152612905816128c9565b9050919050565b7f4e487b7100000000000000000000000000000000000000000000000000000000600052601160045260246000fd5b600061294682611a13565b915061295183611a13565b9250828210156129645761296361290c565b5b828203905092915050565b600061297a82611a13565b915061298583611a13565b9250827fffffffffffffffffffffffffffffffffffffffffffffffffffffffffffffffff038211156129ba576129b961290c565b5b828201905092915050565b7f4552433732314d657461646174613a2055524920736574206f66206e6f6e657860008201527f697374656e7420746f6b656e0000000000000000000000000000000000000000602082015250565b6000612a21602c8361194f565b9150612a2c826129c5565b604082019050919050565b60006020820190508181036000830152612a5081612a14565b9050919050565b7f4552433732313a207472616e7366657220746f206e6f6e20455243373231526560008201527f63656976657220696d706c656d656e7465720000000000000000000000000000602082015250565b6000612ab360328361194f565b9150612abe82612a57565b604082019050919050565b60006020820190508181036000830152612ae281612aa6565b9050919050565b600081519050919050565b600082825260208201905092915050565b6000612b1082612ae9565b612b1a8185612af4565b9350612b2a818560208601611960565b612b3381611993565b840191505092915050565b6000608082019050612b536000830187611aa8565b612b606020830186611aa8565b612b6d6040830185611d6b565b8181036060830152612b7f8184612b05565b905095945050505050565b60007fffffffff0000000000000000000000000000000000000000000000000000000082169050919050565b612bbf81612b8a565b8114612bca57600080fd5b50565b600081519050612bdc81612bb6565b92915050565b600060208284031215612bf857612bf7611a09565b5b6000612c0684828501612bcd565b91505092915050565b7f4552433732313a206d696e7420746f20746865207a65726f2061646472657373600082015250565b6000612c4560208361194f565b9150612c5082612c0f565b602082019050919050565b60006020820190508181036000830152612c7481612c38565b9050919050565b7f4552433732313a20746f6b656e20616c7265616479206d696e74656400000000600082015250565b6000612cb1601c8361194f565b9150612cbc82612c7b565b602082019050919050565b60006020820190508181036000830152612ce081612ca4565b905091905056fea2646970667358221220c0c999fb2e16f873b90cc6b66ca65e2e1ec0cbbf624ddefa38d092ec16ee27b064736f6c634300080a0033",
  "linkReferences": {},
  "deployedLinkReferences": {}
}