{
  "_format": "hh-sol-artifact-1",
  "contractName": "ERC721FactoryFacet",
  "sourceName": "contracts/facets/ERC721Factory/ERC721FactoryFacet.sol",
  "abi": [
    {
      "anonymous": false,
      "inputs": [
        {
          "indexed": true,
          "internalType": "address",
          "name": "owner",
          "type": "address"
        },
        {
          "indexed": true,
          "internalType": "address",
          "name": "approved",
          "type": "address"
        },
        {
          "indexed": true,
          "internalType": "uint256",
          "name": "tokenId",
          "type": "uint256"
        }
      ],
      "name": "Approval",
      "type": "event"
    },
    {
      "anonymous": false,
      "inputs": [
        {
          "indexed": true,
          "internalType": "address",
          "name": "owner",
          "type": "address"
        },
        {
          "indexed": true,
          "internalType": "address",
          "name": "operator",
          "type": "address"
        },
        {
          "indexed": false,
          "internalType": "bool",
          "name": "approved",
          "type": "bool"
        }
      ],
      "name": "ApprovalForAll",
      "type": "event"
    },
    {
      "anonymous": false,
      "inputs": [
        {
          "indexed": true,
          "internalType": "address",
          "name": "from",
          "type": "address"
        },
        {
          "indexed": true,
          "internalType": "address",
          "name": "to",
          "type": "address"
        },
        {
          "indexed": true,
          "internalType": "uint256",
          "name": "tokenId",
          "type": "uint256"
        }
      ],
      "name": "Transfer",
      "type": "event"
    },
    {
      "inputs": [
        {
          "internalType": "address",
          "name": "to",
          "type": "address"
        },
        {
          "internalType": "uint256",
          "name": "tokenId",
          "type": "uint256"
        }
      ],
      "name": "approve",
      "outputs": [],
      "stateMutability": "nonpayable",
      "type": "function"
    },
    {
      "inputs": [
        {
          "internalType": "address",
          "name": "owner",
          "type": "address"
        }
      ],
      "name": "balanceOf721",
      "outputs": [
        {
          "internalType": "uint256",
          "name": "",
          "type": "uint256"
        }
      ],
      "stateMutability": "view",
      "type": "function"
    },
    {
      "inputs": [
        {
          "internalType": "uint256",
          "name": "tokenId",
          "type": "uint256"
        }
      ],
      "name": "burn721",
      "outputs": [],
      "stateMutability": "nonpayable",
      "type": "function"
    },
    {
      "inputs": [
        {
          "internalType": "string",
          "name": "name_",
          "type": "string"
        },
        {
          "internalType": "string",
          "name": "symbol_",
          "type": "string"
        }
      ],
      "name": "erc721FactoryFacetInit",
      "outputs": [],
      "stateMutability": "nonpayable",
      "type": "function"
    },
    {
      "inputs": [
        {
          "internalType": "uint256",
          "name": "tokenId",
          "type": "uint256"
        }
      ],
      "name": "getApproved",
      "outputs": [
        {
          "internalType": "address",
          "name": "",
          "type": "address"
        }
      ],
      "stateMutability": "view",
      "type": "function"
    },
    {
      "inputs": [
        {
          "internalType": "uint256",
          "name": "tokenId",
          "type": "uint256"
        },
        {
          "internalType": "address",
          "name": "creator",
          "type": "address"
        },
        {
          "internalType": "string",
          "name": "_tokenURI",
          "type": "string"
        },
        {
          "internalType": "address[]",
          "name": "royaltyReceiver",
          "type": "address[]"
        },
        {
          "internalType": "uint96[]",
          "name": "tokenRoyaltyInBips",
          "type": "uint96[]"
        }
      ],
      "name": "mint721",
      "outputs": [],
      "stateMutability": "nonpayable",
      "type": "function"
    },
    {
      "inputs": [],
      "name": "name",
      "outputs": [
        {
          "internalType": "string",
          "name": "",
          "type": "string"
        }
      ],
      "stateMutability": "view",
      "type": "function"
    },
    {
      "inputs": [
        {
          "internalType": "uint256",
          "name": "tokenId",
          "type": "uint256"
        }
      ],
      "name": "ownerOf",
      "outputs": [
        {
          "internalType": "address",
          "name": "",
          "type": "address"
        }
      ],
      "stateMutability": "view",
      "type": "function"
    },
    {
      "inputs": [
        {
          "internalType": "address",
          "name": "from",
          "type": "address"
        },
        {
          "internalType": "address",
          "name": "to",
          "type": "address"
        },
        {
          "internalType": "uint256",
          "name": "tokenId",
          "type": "uint256"
        }
      ],
      "name": "safeTransferFrom721",
      "outputs": [],
      "stateMutability": "nonpayable",
      "type": "function"
    },
    {
      "inputs": [
        {
          "internalType": "address",
          "name": "from",
          "type": "address"
        },
        {
          "internalType": "address",
          "name": "to",
          "type": "address"
        },
        {
          "internalType": "uint256",
          "name": "tokenId",
          "type": "uint256"
        },
        {
          "internalType": "bytes",
          "name": "_data",
          "type": "bytes"
        }
      ],
      "name": "safeTransferFrom721",
      "outputs": [],
      "stateMutability": "nonpayable",
      "type": "function"
    },
    {
      "inputs": [
        {
          "internalType": "address",
          "name": "operator",
          "type": "address"
        },
        {
          "internalType": "bool",
          "name": "approved",
          "type": "bool"
        }
      ],
      "name": "setApprovalForAll721",
      "outputs": [],
      "stateMutability": "nonpayable",
      "type": "function"
    },
    {
      "inputs": [],
      "name": "symbol",
      "outputs": [
        {
          "internalType": "string",
          "name": "",
          "type": "string"
        }
      ],
      "stateMutability": "view",
      "type": "function"
    },
    {
      "inputs": [
        {
          "internalType": "uint256",
          "name": "tokenId",
          "type": "uint256"
        }
      ],
      "name": "tokenURI",
      "outputs": [
        {
          "internalType": "string",
          "name": "",
          "type": "string"
        }
      ],
      "stateMutability": "view",
      "type": "function"
    },
    {
      "inputs": [
        {
          "internalType": "address",
          "name": "from",
          "type": "address"
        },
        {
          "internalType": "address",
          "name": "to",
          "type": "address"
        },
        {
          "internalType": "uint256",
          "name": "tokenId",
          "type": "uint256"
        }
      ],
      "name": "transferFrom",
      "outputs": [],
      "stateMutability": "nonpayable",
      "type": "function"
    }
  ],
  "bytecode": "0x608060405234801561001057600080fd5b50612e71806100206000396000f3fe608060405234801561001057600080fd5b50600436106100ea5760003560e01c806395d89b411161008c578063ce66cdf411610066578063ce66cdf414610247578063e2e1d83b14610263578063e4aa15cd14610293578063f8116f00146102af576100ea565b806395d89b41146101dd578063c6eee8a2146101fb578063c87b56dd14610217576100ea565b806323b872dd116100c857806323b872dd146101595780633868ba671461017557806346faa8b2146101915780636352211e146101ad576100ea565b806306fdde03146100ef578063081812fc1461010d578063095ea7b31461013d575b600080fd5b6100f76102cb565b6040516101049190611ac5565b60405180910390f35b61012760048036038101906101229190611b31565b61036c565b6040516101349190611b9f565b60405180910390f35b61015760048036038101906101529190611be6565b610400565b005b610173600480360381019061016e9190611c26565b61059b565b005b61018f600480360381019061018a9190611f7d565b6105fb565b005b6101ab60048036038101906101a6919061204c565b61075d565b005b6101c760048036038101906101c29190611b31565b6108cb565b6040516101d49190611b9f565b60405180910390f35b6101e561098c565b6040516101f29190611ac5565b60405180910390f35b61021560048036038101906102109190611b31565b610a2d565b005b610231600480360381019061022c9190611b31565b610a7e565b60405161023e9190611ac5565b60405180910390f35b610261600480360381019061025c9190611c26565b610b80565b005b61027d600480360381019061027891906120c4565b610ba0565b60405161028a9190612100565b60405180910390f35b6102ad60048036038101906102a891906121bc565b610c67565b005b6102c960048036038101906102c49190612277565b610cc9565b005b606060006102d7610dd7565b90508060000180546102e8906122e6565b80601f0160208091040260200160405190810160405280929190818152602001828054610314906122e6565b80156103615780601f1061033657610100808354040283529160200191610361565b820191906000526020600020905b81548152906001019060200180831161034457829003601f168201915b505050505091505090565b600061037782610e04565b6103b6576040517f08c379a00000000000000000000000000000000000000000000000000000000081526004016103ad9061238a565b60405180910390fd5b60006103c0610dd7565b905080600401600084815260200190815260200160002060009054906101000a900473ffffffffffffffffffffffffffffffffffffffff16915050919050565b600061040b826108cb565b90508073ffffffffffffffffffffffffffffffffffffffff168373ffffffffffffffffffffffffffffffffffffffff16141561047c576040517f08c379a00000000000000000000000000000000000000000000000000000000081526004016104739061241c565b60405180910390fd5b8073ffffffffffffffffffffffffffffffffffffffff1661049b610e7f565b73ffffffffffffffffffffffffffffffffffffffff16148061054d5750600060010160008273ffffffffffffffffffffffffffffffffffffffff1673ffffffffffffffffffffffffffffffffffffffff1681526020019081526020016000206000610504610e7f565b73ffffffffffffffffffffffffffffffffffffffff1673ffffffffffffffffffffffffffffffffffffffff16815260200190815260200160002060009054906101000a900460ff165b61058c576040517f08c379a0000000000000000000000000000000000000000000000000000000008152600401610583906124ae565b60405180910390fd5b6105968383610e87565b505050565b6105ac6105a6610e7f565b82610f4f565b6105eb576040517f08c379a00000000000000000000000000000000000000000000000000000000081526004016105e290612540565b60405180910390fd5b6105f68383836110b7565b505050565b6000800160009054906101000a900473ffffffffffffffffffffffffffffffffffffffff1673ffffffffffffffffffffffffffffffffffffffff163373ffffffffffffffffffffffffffffffffffffffff161461068d576040517f08c379a0000000000000000000000000000000000000000000000000000000008152600401610684906125d2565b60405180910390fd5b6000610697611326565b90508481600001600088815260200190815260200160002060006101000a81548173ffffffffffffffffffffffffffffffffffffffff021916908373ffffffffffffffffffffffffffffffffffffffff1602179055508481600101600088815260200190815260200160002060006101000a81548173ffffffffffffffffffffffffffffffffffffffff021916908373ffffffffffffffffffffffffffffffffffffffff16021790555061074b8587611353565b6107558685611371565b505050505050565b60006107676113f4565b90506000610773611326565b90506000816003018054610786906122e6565b90501480156107a5575060008160040180546107a1906122e6565b9050145b6107ae57600080fd5b60008451141580156107c257506000835114155b610801576040517f08c379a00000000000000000000000000000000000000000000000000000000081526004016107f89061263e565b60405180910390fd5b8160040160009054906101000a900473ffffffffffffffffffffffffffffffffffffffff1673ffffffffffffffffffffffffffffffffffffffff163373ffffffffffffffffffffffffffffffffffffffff1614610893576040517f08c379a000000000000000000000000000000000000000000000000000000000815260040161088a906126aa565b60405180910390fd5b838160030190805190602001906108ab929190611989565b50828160040190805190602001906108c4929190611989565b5050505050565b6000806108d6610dd7565b9050600081600201600085815260200190815260200160002060009054906101000a900473ffffffffffffffffffffffffffffffffffffffff169050600073ffffffffffffffffffffffffffffffffffffffff168173ffffffffffffffffffffffffffffffffffffffff161415610982576040517f08c379a00000000000000000000000000000000000000000000000000000000081526004016109799061273c565b60405180910390fd5b8092505050919050565b60606000610998610dd7565b90508060010180546109a9906122e6565b80601f01602080910402602001604051908101604052809291908181526020018280546109d5906122e6565b8015610a225780601f106109f757610100808354040283529160200191610a22565b820191906000526020600020905b815481529060010190602001808311610a0557829003601f168201915b505050505091505090565b6000610a37611326565b9050610a4282611421565b80600101600083815260200190815260200160002060006101000a81549073ffffffffffffffffffffffffffffffffffffffff02191690555050565b6060610a8982610e04565b610ac8576040517f08c379a0000000000000000000000000000000000000000000000000000000008152600401610abf906127ce565b60405180910390fd5b6000610ad2611326565b905060008160020160008581526020019081526020016000208054610af6906122e6565b80601f0160208091040260200160405190810160405280929190818152602001828054610b22906122e6565b8015610b6f5780601f10610b4457610100808354040283529160200191610b6f565b820191906000526020600020905b815481529060010190602001808311610b5257829003601f168201915b505050505090508092505050919050565b610b9b83838360405180602001604052806000815250610c67565b505050565b60008073ffffffffffffffffffffffffffffffffffffffff168273ffffffffffffffffffffffffffffffffffffffff161415610c11576040517f08c379a0000000000000000000000000000000000000000000000000000000008152600401610c0890612860565b60405180910390fd5b6000610c1b610dd7565b90508060030160008473ffffffffffffffffffffffffffffffffffffffff1673ffffffffffffffffffffffffffffffffffffffff16815260200190815260200160002054915050919050565b610c78610c72610e7f565b83610f4f565b610cb7576040517f08c379a0000000000000000000000000000000000000000000000000000000008152600401610cae90612540565b60405180910390fd5b610cc384848484611543565b50505050565b8060006001016000610cd9610e7f565b73ffffffffffffffffffffffffffffffffffffffff1673ffffffffffffffffffffffffffffffffffffffff16815260200190815260200160002060008473ffffffffffffffffffffffffffffffffffffffff1673ffffffffffffffffffffffffffffffffffffffff16815260200190815260200160002060006101000a81548160ff0219169083151502179055508173ffffffffffffffffffffffffffffffffffffffff16610d86610e7f565b73ffffffffffffffffffffffffffffffffffffffff167f17307eab39ab6107e8899845ad3d59bd9653f200f220920489ca2b5937696c3183604051610dcb919061288f565b60405180910390a35050565b6000807f27d4b8eb827745c1478e1390415e0b68ca5ace988a610b45757dd674616b25ad90508091505090565b600080610e0f610dd7565b9050600073ffffffffffffffffffffffffffffffffffffffff1681600201600085815260200190815260200160002060009054906101000a900473ffffffffffffffffffffffffffffffffffffffff1673ffffffffffffffffffffffffffffffffffffffff161415915050919050565b600033905090565b6000610e91610dd7565b90508281600401600084815260200190815260200160002060006101000a81548173ffffffffffffffffffffffffffffffffffffffff021916908373ffffffffffffffffffffffffffffffffffffffff160217905550818373ffffffffffffffffffffffffffffffffffffffff16610f08846108cb565b73ffffffffffffffffffffffffffffffffffffffff167f8c5be1e5ebec7d5bd14f71427d1e84f3dd0314c0f7b2291e5b200ac8c7c3b92560405160405180910390a4505050565b6000610f5a82610e04565b610f99576040517f08c379a0000000000000000000000000000000000000000000000000000000008152600401610f909061291c565b60405180910390fd5b6000610fa4836108cb565b90508073ffffffffffffffffffffffffffffffffffffffff168473ffffffffffffffffffffffffffffffffffffffff16148061101357508373ffffffffffffffffffffffffffffffffffffffff16610ffb8461036c565b73ffffffffffffffffffffffffffffffffffffffff16145b806110ae5750600060010160008273ffffffffffffffffffffffffffffffffffffffff1673ffffffffffffffffffffffffffffffffffffffff1681526020019081526020016000206000611065610e7f565b73ffffffffffffffffffffffffffffffffffffffff1673ffffffffffffffffffffffffffffffffffffffff16815260200190815260200160002060009054906101000a900460ff165b91505092915050565b8273ffffffffffffffffffffffffffffffffffffffff166110d7826108cb565b73ffffffffffffffffffffffffffffffffffffffff161461112d576040517f08c379a0000000000000000000000000000000000000000000000000000000008152600401611124906129ae565b60405180910390fd5b600073ffffffffffffffffffffffffffffffffffffffff168273ffffffffffffffffffffffffffffffffffffffff16141561119d576040517f08c379a000000000000000000000000000000000000000000000000000000000815260040161119490612a40565b60405180910390fd5b6111a883838361159f565b6111b3600082610e87565b60006111bd610dd7565b905060018160030160008673ffffffffffffffffffffffffffffffffffffffff1673ffffffffffffffffffffffffffffffffffffffff16815260200190815260200160002060008282546112119190612a8f565b9250508190555060018160030160008573ffffffffffffffffffffffffffffffffffffffff1673ffffffffffffffffffffffffffffffffffffffff168152602001908152602001600020600082825461126a9190612ac3565b925050819055508281600201600084815260200190815260200160002060006101000a81548173ffffffffffffffffffffffffffffffffffffffff021916908373ffffffffffffffffffffffffffffffffffffffff160217905550818373ffffffffffffffffffffffffffffffffffffffff168573ffffffffffffffffffffffffffffffffffffffff167fddf252ad1be2c89b69c2b068fc378daa952ba7f163c4a11628f55a4df523b3ef60405160405180910390a450505050565b6000807f7336099884d9097f82a586e8d7e322fd089b07b96831a9d9ee42fb0a34564cf790508091505090565b61136d8282604051806020016040528060008152506115a4565b5050565b61137a82610e04565b6113b9576040517f08c379a00000000000000000000000000000000000000000000000000000000081526004016113b090612b8b565b60405180910390fd5b60006113c3611326565b90508181600201600085815260200190815260200160002090805190602001906113ee929190611989565b50505050565b6000807fc8fcad8db84d3cc18b4c41d551ea0ee66dd599cde068d998e57d5e09332c131c90508091505090565b600061142c826108cb565b905061143a8160008461159f565b611445600083610e87565b600061144f610dd7565b905060018160030160008473ffffffffffffffffffffffffffffffffffffffff1673ffffffffffffffffffffffffffffffffffffffff16815260200190815260200160002060008282546114a39190612a8f565b9250508190555080600201600084815260200190815260200160002060006101000a81549073ffffffffffffffffffffffffffffffffffffffff021916905582600073ffffffffffffffffffffffffffffffffffffffff168373ffffffffffffffffffffffffffffffffffffffff167fddf252ad1be2c89b69c2b068fc378daa952ba7f163c4a11628f55a4df523b3ef60405160405180910390a4505050565b61154e8484846110b7565b61155a848484846115ff565b611599576040517f08c379a000000000000000000000000000000000000000000000000000000000815260040161159090612c1d565b60405180910390fd5b50505050565b505050565b6115ae8383611787565b6115bb60008484846115ff565b6115fa576040517f08c379a00000000000000000000000000000000000000000000000000000000081526004016115f190612c1d565b60405180910390fd5b505050565b60006116208473ffffffffffffffffffffffffffffffffffffffff16611966565b1561177a578373ffffffffffffffffffffffffffffffffffffffff1663150b7a02611649610e7f565b8786866040518563ffffffff1660e01b815260040161166b9493929190612c92565b6020604051808303816000875af19250505080156116a757506040513d601f19601f820116820180604052508101906116a49190612d36565b60015b61172a573d80600081146116d7576040519150601f19603f3d011682016040523d82523d6000602084013e6116dc565b606091505b50600081511415611722576040517f08c379a000000000000000000000000000000000000000000000000000000000815260040161171990612c1d565b60405180910390fd5b805181602001fd5b63150b7a0260e01b7bffffffffffffffffffffffffffffffffffffffffffffffffffffffff1916817bffffffffffffffffffffffffffffffffffffffffffffffffffffffff19161491505061177f565b600190505b949350505050565b600073ffffffffffffffffffffffffffffffffffffffff168273ffffffffffffffffffffffffffffffffffffffff1614156117f7576040517f08c379a00000000000000000000000000000000000000000000000000000000081526004016117ee90612daf565b60405180910390fd5b61180081610e04565b15611840576040517f08c379a000000000000000000000000000000000000000000000000000000000815260040161183790612e1b565b60405180910390fd5b61184c6000838361159f565b6000611856610dd7565b905060018160030160008573ffffffffffffffffffffffffffffffffffffffff1673ffffffffffffffffffffffffffffffffffffffff16815260200190815260200160002060008282546118aa9190612ac3565b925050819055508281600201600084815260200190815260200160002060006101000a81548173ffffffffffffffffffffffffffffffffffffffff021916908373ffffffffffffffffffffffffffffffffffffffff160217905550818373ffffffffffffffffffffffffffffffffffffffff16600073ffffffffffffffffffffffffffffffffffffffff167fddf252ad1be2c89b69c2b068fc378daa952ba7f163c4a11628f55a4df523b3ef60405160405180910390a4505050565b6000808273ffffffffffffffffffffffffffffffffffffffff163b119050919050565b828054611995906122e6565b90600052602060002090601f0160209004810192826119b757600085556119fe565b82601f106119d057805160ff19168380011785556119fe565b828001600101855582156119fe579182015b828111156119fd5782518255916020019190600101906119e2565b5b509050611a0b9190611a0f565b5090565b5b80821115611a28576000816000905550600101611a10565b5090565b600081519050919050565b600082825260208201905092915050565b60005b83811015611a66578082015181840152602081019050611a4b565b83811115611a75576000848401525b50505050565b6000601f19601f8301169050919050565b6000611a9782611a2c565b611aa18185611a37565b9350611ab1818560208601611a48565b611aba81611a7b565b840191505092915050565b60006020820190508181036000830152611adf8184611a8c565b905092915050565b6000604051905090565b600080fd5b600080fd5b6000819050919050565b611b0e81611afb565b8114611b1957600080fd5b50565b600081359050611b2b81611b05565b92915050565b600060208284031215611b4757611b46611af1565b5b6000611b5584828501611b1c565b91505092915050565b600073ffffffffffffffffffffffffffffffffffffffff82169050919050565b6000611b8982611b5e565b9050919050565b611b9981611b7e565b82525050565b6000602082019050611bb46000830184611b90565b92915050565b611bc381611b7e565b8114611bce57600080fd5b50565b600081359050611be081611bba565b92915050565b60008060408385031215611bfd57611bfc611af1565b5b6000611c0b85828601611bd1565b9250506020611c1c85828601611b1c565b9150509250929050565b600080600060608486031215611c3f57611c3e611af1565b5b6000611c4d86828701611bd1565b9350506020611c5e86828701611bd1565b9250506040611c6f86828701611b1c565b9150509250925092565b600080fd5b600080fd5b7f4e487b7100000000000000000000000000000000000000000000000000000000600052604160045260246000fd5b611cbb82611a7b565b810181811067ffffffffffffffff82111715611cda57611cd9611c83565b5b80604052505050565b6000611ced611ae7565b9050611cf98282611cb2565b919050565b600067ffffffffffffffff821115611d1957611d18611c83565b5b611d2282611a7b565b9050602081019050919050565b82818337600083830152505050565b6000611d51611d4c84611cfe565b611ce3565b905082815260208101848484011115611d6d57611d6c611c7e565b5b611d78848285611d2f565b509392505050565b600082601f830112611d9557611d94611c79565b5b8135611da5848260208601611d3e565b91505092915050565b600067ffffffffffffffff821115611dc957611dc8611c83565b5b602082029050602081019050919050565b600080fd5b6000611df2611ded84611dae565b611ce3565b90508083825260208201905060208402830185811115611e1557611e14611dda565b5b835b81811015611e3e5780611e2a8882611bd1565b845260208401935050602081019050611e17565b5050509392505050565b600082601f830112611e5d57611e5c611c79565b5b8135611e6d848260208601611ddf565b91505092915050565b600067ffffffffffffffff821115611e9157611e90611c83565b5b602082029050602081019050919050565b60006bffffffffffffffffffffffff82169050919050565b611ec381611ea2565b8114611ece57600080fd5b50565b600081359050611ee081611eba565b92915050565b6000611ef9611ef484611e76565b611ce3565b90508083825260208201905060208402830185811115611f1c57611f1b611dda565b5b835b81811015611f455780611f318882611ed1565b845260208401935050602081019050611f1e565b5050509392505050565b600082601f830112611f6457611f63611c79565b5b8135611f74848260208601611ee6565b91505092915050565b600080600080600060a08688031215611f9957611f98611af1565b5b6000611fa788828901611b1c565b9550506020611fb888828901611bd1565b945050604086013567ffffffffffffffff811115611fd957611fd8611af6565b5b611fe588828901611d80565b935050606086013567ffffffffffffffff81111561200657612005611af6565b5b61201288828901611e48565b925050608086013567ffffffffffffffff81111561203357612032611af6565b5b61203f88828901611f4f565b9150509295509295909350565b6000806040838503121561206357612062611af1565b5b600083013567ffffffffffffffff81111561208157612080611af6565b5b61208d85828601611d80565b925050602083013567ffffffffffffffff8111156120ae576120ad611af6565b5b6120ba85828601611d80565b9150509250929050565b6000602082840312156120da576120d9611af1565b5b60006120e884828501611bd1565b91505092915050565b6120fa81611afb565b82525050565b600060208201905061211560008301846120f1565b92915050565b600067ffffffffffffffff82111561213657612135611c83565b5b61213f82611a7b565b9050602081019050919050565b600061215f61215a8461211b565b611ce3565b90508281526020810184848401111561217b5761217a611c7e565b5b612186848285611d2f565b509392505050565b600082601f8301126121a3576121a2611c79565b5b81356121b384826020860161214c565b91505092915050565b600080600080608085870312156121d6576121d5611af1565b5b60006121e487828801611bd1565b94505060206121f587828801611bd1565b935050604061220687828801611b1c565b925050606085013567ffffffffffffffff81111561222757612226611af6565b5b6122338782880161218e565b91505092959194509250565b60008115159050919050565b6122548161223f565b811461225f57600080fd5b50565b6000813590506122718161224b565b92915050565b6000806040838503121561228e5761228d611af1565b5b600061229c85828601611bd1565b92505060206122ad85828601612262565b9150509250929050565b7f4e487b7100000000000000000000000000000000000000000000000000000000600052602260045260246000fd5b600060028204905060018216806122fe57607f821691505b60208210811415612312576123116122b7565b5b50919050565b7f4552433732313a20617070726f76656420717565727920666f72206e6f6e657860008201527f697374656e7420746f6b656e0000000000000000000000000000000000000000602082015250565b6000612374602c83611a37565b915061237f82612318565b604082019050919050565b600060208201905081810360008301526123a381612367565b9050919050565b7f4552433732313a20617070726f76616c20746f2063757272656e74206f776e6560008201527f7200000000000000000000000000000000000000000000000000000000000000602082015250565b6000612406602183611a37565b9150612411826123aa565b604082019050919050565b60006020820190508181036000830152612435816123f9565b9050919050565b7f4552433732313a20617070726f76652063616c6c6572206973206e6f74206f7760008201527f6e6572206e6f7220617070726f76656420666f7220616c6c0000000000000000602082015250565b6000612498603883611a37565b91506124a38261243c565b604082019050919050565b600060208201905081810360008301526124c78161248b565b9050919050565b7f4552433732313a207472616e736665722063616c6c6572206973206e6f74206f60008201527f776e6572206e6f7220617070726f766564000000000000000000000000000000602082015250565b600061252a603183611a37565b9150612535826124ce565b604082019050919050565b600060208201905081810360008301526125598161251d565b9050919050565b7f455243373231466163746f72793a20556e617574686f72697a6564204163636560008201527f7373210000000000000000000000000000000000000000000000000000000000602082015250565b60006125bc602383611a37565b91506125c782612560565b604082019050919050565b600060208201905081810360008301526125eb816125af565b9050919050565b7f494e56414c49445f504152414d53000000000000000000000000000000000000600082015250565b6000612628600e83611a37565b9150612633826125f2565b602082019050919050565b600060208201905081810360008301526126578161261b565b9050919050565b7f4d757374206f776e2074686520636f6e74726163742e00000000000000000000600082015250565b6000612694601683611a37565b915061269f8261265e565b602082019050919050565b600060208201905081810360008301526126c381612687565b9050919050565b7f4552433732313a206f776e657220717565727920666f72206e6f6e657869737460008201527f656e7420746f6b656e0000000000000000000000000000000000000000000000602082015250565b6000612726602983611a37565b9150612731826126ca565b604082019050919050565b6000602082019050818103600083015261275581612719565b9050919050565b7f4552433732314d657461646174613a2055524920717565727920666f72206e6f60008201527f6e6578697374656e7420746f6b656e0000000000000000000000000000000000602082015250565b60006127b8602f83611a37565b91506127c38261275c565b604082019050919050565b600060208201905081810360008301526127e7816127ab565b9050919050565b7f4552433732313a2062616c616e636520717565727920666f7220746865207a6560008201527f726f206164647265737300000000000000000000000000000000000000000000602082015250565b600061284a602a83611a37565b9150612855826127ee565b604082019050919050565b600060208201905081810360008301526128798161283d565b9050919050565b6128898161223f565b82525050565b60006020820190506128a46000830184612880565b92915050565b7f4552433732313a206f70657261746f7220717565727920666f72206e6f6e657860008201527f697374656e7420746f6b656e0000000000000000000000000000000000000000602082015250565b6000612906602c83611a37565b9150612911826128aa565b604082019050919050565b60006020820190508181036000830152612935816128f9565b9050919050565b7f4552433732313a207472616e73666572206f6620746f6b656e2074686174206960008201527f73206e6f74206f776e0000000000000000000000000000000000000000000000602082015250565b6000612998602983611a37565b91506129a38261293c565b604082019050919050565b600060208201905081810360008301526129c78161298b565b9050919050565b7f4552433732313a207472616e7366657220746f20746865207a65726f2061646460008201527f7265737300000000000000000000000000000000000000000000000000000000602082015250565b6000612a2a602483611a37565b9150612a35826129ce565b604082019050919050565b60006020820190508181036000830152612a5981612a1d565b9050919050565b7f4e487b7100000000000000000000000000000000000000000000000000000000600052601160045260246000fd5b6000612a9a82611afb565b9150612aa583611afb565b925082821015612ab857612ab7612a60565b5b828203905092915050565b6000612ace82611afb565b9150612ad983611afb565b9250827fffffffffffffffffffffffffffffffffffffffffffffffffffffffffffffffff03821115612b0e57612b0d612a60565b5b828201905092915050565b7f4552433732314d657461646174613a2055524920736574206f66206e6f6e657860008201527f697374656e7420746f6b656e0000000000000000000000000000000000000000602082015250565b6000612b75602c83611a37565b9150612b8082612b19565b604082019050919050565b60006020820190508181036000830152612ba481612b68565b9050919050565b7f4552433732313a207472616e7366657220746f206e6f6e20455243373231526560008201527f63656976657220696d706c656d656e7465720000000000000000000000000000602082015250565b6000612c07603283611a37565b9150612c1282612bab565b604082019050919050565b60006020820190508181036000830152612c3681612bfa565b9050919050565b600081519050919050565b600082825260208201905092915050565b6000612c6482612c3d565b612c6e8185612c48565b9350612c7e818560208601611a48565b612c8781611a7b565b840191505092915050565b6000608082019050612ca76000830187611b90565b612cb46020830186611b90565b612cc160408301856120f1565b8181036060830152612cd38184612c59565b905095945050505050565b60007fffffffff0000000000000000000000000000000000000000000000000000000082169050919050565b612d1381612cde565b8114612d1e57600080fd5b50565b600081519050612d3081612d0a565b92915050565b600060208284031215612d4c57612d4b611af1565b5b6000612d5a84828501612d21565b91505092915050565b7f4552433732313a206d696e7420746f20746865207a65726f2061646472657373600082015250565b6000612d99602083611a37565b9150612da482612d63565b602082019050919050565b60006020820190508181036000830152612dc881612d8c565b9050919050565b7f4552433732313a20746f6b656e20616c7265616479206d696e74656400000000600082015250565b6000612e05601c83611a37565b9150612e1082612dcf565b602082019050919050565b60006020820190508181036000830152612e3481612df8565b905091905056fea2646970667358221220447dcc3c159477740d40c651309e00383921f6f602eb8d9a49c50fb52c99b86164736f6c634300080a0033",
  "linkReferences": {},
  "deployedLinkReferences": {}
}