{
  "_format": "hh-sol-artifact-1",
  "contractName": "ERC1155Factory",
  "sourceName": "contracts/factoryContracts/ERC1155Factory.sol",
  "abi": [
    {
      "inputs": [
        {
          "internalType": "string",
          "name": "name_",
          "type": "string"
        },
        {
          "internalType": "string",
          "name": "symbol_",
          "type": "string"
        },
        {
          "internalType": "bool",
          "name": "defaultRoyalty",
          "type": "bool"
        },
        {
          "internalType": "address[]",
          "name": "royaltyReceiver",
          "type": "address[]"
        },
        {
          "internalType": "uint96[]",
          "name": "royaltyFeesInBips",
          "type": "uint96[]"
        }
      ],
      "stateMutability": "nonpayable",
      "type": "constructor"
    },
    {
      "anonymous": false,
      "inputs": [
        {
          "indexed": true,
          "internalType": "address",
          "name": "account",
          "type": "address"
        },
        {
          "indexed": true,
          "internalType": "address",
          "name": "operator",
          "type": "address"
        },
        {
          "indexed": false,
          "internalType": "bool",
          "name": "approved",
          "type": "bool"
        }
      ],
      "name": "ApprovalForAll",
      "type": "event"
    },
    {
      "anonymous": false,
      "inputs": [
        {
          "indexed": false,
          "internalType": "string",
          "name": "uri",
          "type": "string"
        }
      ],
      "name": "BaseURI",
      "type": "event"
    },
    {
      "anonymous": false,
      "inputs": [
        {
          "indexed": true,
          "internalType": "address",
          "name": "previousOwner",
          "type": "address"
        },
        {
          "indexed": true,
          "internalType": "address",
          "name": "newOwner",
          "type": "address"
        }
      ],
      "name": "OwnershipTransferred",
      "type": "event"
    },
    {
      "anonymous": false,
      "inputs": [
        {
          "indexed": true,
          "internalType": "address",
          "name": "operator",
          "type": "address"
        },
        {
          "indexed": true,
          "internalType": "address",
          "name": "from",
          "type": "address"
        },
        {
          "indexed": true,
          "internalType": "address",
          "name": "to",
          "type": "address"
        },
        {
          "indexed": false,
          "internalType": "uint256[]",
          "name": "ids",
          "type": "uint256[]"
        },
        {
          "indexed": false,
          "internalType": "uint256[]",
          "name": "values",
          "type": "uint256[]"
        }
      ],
      "name": "TransferBatch",
      "type": "event"
    },
    {
      "anonymous": false,
      "inputs": [
        {
          "indexed": true,
          "internalType": "address",
          "name": "operator",
          "type": "address"
        },
        {
          "indexed": true,
          "internalType": "address",
          "name": "from",
          "type": "address"
        },
        {
          "indexed": true,
          "internalType": "address",
          "name": "to",
          "type": "address"
        },
        {
          "indexed": false,
          "internalType": "uint256",
          "name": "id",
          "type": "uint256"
        },
        {
          "indexed": false,
          "internalType": "uint256",
          "name": "value",
          "type": "uint256"
        }
      ],
      "name": "TransferSingle",
      "type": "event"
    },
    {
      "anonymous": false,
      "inputs": [
        {
          "indexed": false,
          "internalType": "string",
          "name": "value",
          "type": "string"
        },
        {
          "indexed": true,
          "internalType": "uint256",
          "name": "id",
          "type": "uint256"
        }
      ],
      "name": "URI",
      "type": "event"
    },
    {
      "anonymous": false,
      "inputs": [
        {
          "indexed": false,
          "internalType": "bool",
          "name": "whitelistEnabled",
          "type": "bool"
        }
      ],
      "name": "WhiteListEnabled",
      "type": "event"
    },
    {
      "inputs": [
        {
          "internalType": "uint256",
          "name": "",
          "type": "uint256"
        }
      ],
      "name": "_creators",
      "outputs": [
        {
          "internalType": "address",
          "name": "",
          "type": "address"
        }
      ],
      "stateMutability": "view",
      "type": "function"
    },
    {
      "inputs": [
        {
          "internalType": "address",
          "name": "account",
          "type": "address"
        },
        {
          "internalType": "uint256",
          "name": "id",
          "type": "uint256"
        }
      ],
      "name": "balanceOf",
      "outputs": [
        {
          "internalType": "uint256",
          "name": "",
          "type": "uint256"
        }
      ],
      "stateMutability": "view",
      "type": "function"
    },
    {
      "inputs": [
        {
          "internalType": "address[]",
          "name": "accounts",
          "type": "address[]"
        },
        {
          "internalType": "uint256[]",
          "name": "ids",
          "type": "uint256[]"
        }
      ],
      "name": "balanceOfBatch",
      "outputs": [
        {
          "internalType": "uint256[]",
          "name": "",
          "type": "uint256[]"
        }
      ],
      "stateMutability": "view",
      "type": "function"
    },
    {
      "inputs": [],
      "name": "baseURI",
      "outputs": [
        {
          "internalType": "string",
          "name": "",
          "type": "string"
        }
      ],
      "stateMutability": "view",
      "type": "function"
    },
    {
      "inputs": [
        {
          "internalType": "address",
          "name": "_from",
          "type": "address"
        },
        {
          "internalType": "uint256",
          "name": "_tokenId",
          "type": "uint256"
        },
        {
          "internalType": "uint256",
          "name": "_amount",
          "type": "uint256"
        }
      ],
      "name": "burn",
      "outputs": [],
      "stateMutability": "nonpayable",
      "type": "function"
    },
    {
      "inputs": [
        {
          "internalType": "address",
          "name": "account",
          "type": "address"
        },
        {
          "internalType": "address",
          "name": "operator",
          "type": "address"
        }
      ],
      "name": "isApprovedForAll",
      "outputs": [
        {
          "internalType": "bool",
          "name": "",
          "type": "bool"
        }
      ],
      "stateMutability": "view",
      "type": "function"
    },
    {
      "inputs": [],
      "name": "mapSize",
      "outputs": [
        {
          "internalType": "uint256",
          "name": "",
          "type": "uint256"
        }
      ],
      "stateMutability": "view",
      "type": "function"
    },
    {
      "inputs": [
        {
          "internalType": "address",
          "name": "creator",
          "type": "address"
        },
        {
          "internalType": "uint256",
          "name": "copies",
          "type": "uint256"
        },
        {
          "internalType": "bool",
          "name": "tokenRoyalty",
          "type": "bool"
        },
        {
          "internalType": "address[]",
          "name": "royaltyReceiver",
          "type": "address[]"
        },
        {
          "internalType": "uint96[]",
          "name": "tokenRoyaltyInBips",
          "type": "uint96[]"
        }
      ],
      "name": "mint",
      "outputs": [
        {
          "internalType": "uint256",
          "name": "",
          "type": "uint256"
        },
        {
          "internalType": "uint256",
          "name": "",
          "type": "uint256"
        }
      ],
      "stateMutability": "nonpayable",
      "type": "function"
    },
    {
      "inputs": [],
      "name": "name",
      "outputs": [
        {
          "internalType": "string",
          "name": "",
          "type": "string"
        }
      ],
      "stateMutability": "view",
      "type": "function"
    },
    {
      "inputs": [],
      "name": "owner",
      "outputs": [
        {
          "internalType": "address",
          "name": "",
          "type": "address"
        }
      ],
      "stateMutability": "view",
      "type": "function"
    },
    {
      "inputs": [
        {
          "internalType": "address[]",
          "name": "currentAddresses",
          "type": "address[]"
        }
      ],
      "name": "removeWhitelist",
      "outputs": [],
      "stateMutability": "nonpayable",
      "type": "function"
    },
    {
      "inputs": [],
      "name": "renounceOwnership",
      "outputs": [],
      "stateMutability": "nonpayable",
      "type": "function"
    },
    {
      "inputs": [
        {
          "internalType": "uint256",
          "name": "_tokenId",
          "type": "uint256"
        },
        {
          "internalType": "uint256",
          "name": "_salePrice",
          "type": "uint256"
        }
      ],
      "name": "royaltyInfo",
      "outputs": [
        {
          "internalType": "address[]",
          "name": "",
          "type": "address[]"
        },
        {
          "internalType": "uint256[]",
          "name": "",
          "type": "uint256[]"
        }
      ],
      "stateMutability": "view",
      "type": "function"
    },
    {
      "inputs": [
        {
          "internalType": "address",
          "name": "from",
          "type": "address"
        },
        {
          "internalType": "address",
          "name": "to",
          "type": "address"
        },
        {
          "internalType": "uint256[]",
          "name": "ids",
          "type": "uint256[]"
        },
        {
          "internalType": "uint256[]",
          "name": "amounts",
          "type": "uint256[]"
        },
        {
          "internalType": "bytes",
          "name": "data",
          "type": "bytes"
        }
      ],
      "name": "safeBatchTransferFrom",
      "outputs": [],
      "stateMutability": "nonpayable",
      "type": "function"
    },
    {
      "inputs": [
        {
          "internalType": "address",
          "name": "from",
          "type": "address"
        },
        {
          "internalType": "address",
          "name": "to",
          "type": "address"
        },
        {
          "internalType": "uint256",
          "name": "id",
          "type": "uint256"
        },
        {
          "internalType": "uint256",
          "name": "amount",
          "type": "uint256"
        },
        {
          "internalType": "bytes",
          "name": "data",
          "type": "bytes"
        }
      ],
      "name": "safeTransferFrom",
      "outputs": [],
      "stateMutability": "nonpayable",
      "type": "function"
    },
    {
      "inputs": [
        {
          "internalType": "address",
          "name": "operator",
          "type": "address"
        },
        {
          "internalType": "bool",
          "name": "approved",
          "type": "bool"
        }
      ],
      "name": "setApprovalForAll",
      "outputs": [],
      "stateMutability": "nonpayable",
      "type": "function"
    },
    {
      "inputs": [
        {
          "internalType": "string",
          "name": "baseURI_",
          "type": "string"
        }
      ],
      "name": "setBaseURI",
      "outputs": [],
      "stateMutability": "nonpayable",
      "type": "function"
    },
    {
      "inputs": [
        {
          "internalType": "address[]",
          "name": "newAddresses",
          "type": "address[]"
        }
      ],
      "name": "setWhitelist",
      "outputs": [],
      "stateMutability": "nonpayable",
      "type": "function"
    },
    {
      "inputs": [
        {
          "internalType": "bool",
          "name": "_state",
          "type": "bool"
        }
      ],
      "name": "setWhitelistEnabled",
      "outputs": [],
      "stateMutability": "nonpayable",
      "type": "function"
    },
    {
      "inputs": [
        {
          "internalType": "bytes4",
          "name": "interfaceId",
          "type": "bytes4"
        }
      ],
      "name": "supportsInterface",
      "outputs": [
        {
          "internalType": "bool",
          "name": "",
          "type": "bool"
        }
      ],
      "stateMutability": "view",
      "type": "function"
    },
    {
      "inputs": [],
      "name": "symbol",
      "outputs": [
        {
          "internalType": "string",
          "name": "",
          "type": "string"
        }
      ],
      "stateMutability": "view",
      "type": "function"
    },
    {
      "inputs": [
        {
          "internalType": "uint256",
          "name": "_tokenId",
          "type": "uint256"
        }
      ],
      "name": "tokenURI",
      "outputs": [
        {
          "internalType": "string",
          "name": "",
          "type": "string"
        }
      ],
      "stateMutability": "view",
      "type": "function"
    },
    {
      "inputs": [
        {
          "internalType": "address",
          "name": "_from",
          "type": "address"
        },
        {
          "internalType": "address",
          "name": "_to",
          "type": "address"
        },
        {
          "internalType": "uint256",
          "name": "_tokenId",
          "type": "uint256"
        },
        {
          "internalType": "uint256",
          "name": "_copies",
          "type": "uint256"
        }
      ],
      "name": "transfer",
      "outputs": [
        {
          "internalType": "bool",
          "name": "",
          "type": "bool"
        }
      ],
      "stateMutability": "nonpayable",
      "type": "function"
    },
    {
      "inputs": [
        {
          "internalType": "address",
          "name": "newOwner",
          "type": "address"
        }
      ],
      "name": "transferOwnership",
      "outputs": [],
      "stateMutability": "nonpayable",
      "type": "function"
    },
    {
      "inputs": [
        {
          "internalType": "uint256",
          "name": "",
          "type": "uint256"
        }
      ],
      "name": "uri",
      "outputs": [
        {
          "internalType": "string",
          "name": "",
          "type": "string"
        }
      ],
      "stateMutability": "view",
      "type": "function"
    },
    {
      "inputs": [],
      "name": "uriSuffix",
      "outputs": [
        {
          "internalType": "string",
          "name": "",
          "type": "string"
        }
      ],
      "stateMutability": "view",
      "type": "function"
    },
    {
      "inputs": [
        {
          "internalType": "address",
          "name": "",
          "type": "address"
        }
      ],
      "name": "whitelist",
      "outputs": [
        {
          "internalType": "bool",
          "name": "",
          "type": "bool"
        }
      ],
      "stateMutability": "view",
      "type": "function"
    },
    {
      "inputs": [],
      "name": "whitelistEnabled",
      "outputs": [
        {
          "internalType": "bool",
          "name": "",
          "type": "bool"
        }
      ],
      "stateMutability": "view",
      "type": "function"
    }
  ],
  "bytecode": "0x608060405260405180602001604052806000815250600a90805190602001906200002b92919062000484565b506040518060400160405280600581526020017f2e6a736f6e000000000000000000000000000000000000000000000000000000815250600b90805190602001906200007992919062000484565b506000600c556000600d60006101000a81548160ff021916908315150217905550348015620000a757600080fd5b506040516200663a3803806200663a8339818101604052810190620000cd919062000acb565b84848160009080519060200190620000e792919062000484565b5080600190805190602001906200010092919062000484565b5050506200012362000117620001ab60201b60201c565b620001b360201b60201c565b6000859050600085905060008251141580156200014257506000815114155b62000184576040517f08c379a00000000000000000000000000000000000000000000000000000000081526004016200017b9062000c56565b60405180910390fd5b84156200019e576200019d84846200027960201b60201c565b5b505050505050506200102a565b600033905090565b6000600860009054906101000a900473ffffffffffffffffffffffffffffffffffffffff16905081600860006101000a81548173ffffffffffffffffffffffffffffffffffffffff021916908373ffffffffffffffffffffffffffffffffffffffff1602179055508173ffffffffffffffffffffffffffffffffffffffff168173ffffffffffffffffffffffffffffffffffffffff167f8be0079c531659141344cd1fd0a4f28419497f9722a3daafe3b4186f6b6457e060405160405180910390a35050565b6000825111620002c0576040517f08c379a0000000000000000000000000000000000000000000000000000000008152600401620002b79062000cc8565b60405180910390fd5b60058251111562000308576040517f08c379a0000000000000000000000000000000000000000000000000000000008152600401620002ff9062000d60565b60405180910390fd5b80518251146200034f576040517f08c379a0000000000000000000000000000000000000000000000000000000008152600401620003469062000df8565b60405180910390fd5b6000805b8251811015620003ae5782818151811062000373576200037262000e1a565b5b60200260200101516bffffffffffffffffffffffff168262000396919062000e82565b91508080620003a59062000edf565b91505062000353565b50620003bf6200047a60201b60201c565b6bffffffffffffffffffffffff1681111562000412576040517f08c379a0000000000000000000000000000000000000000000000000000000008152600401620004099062000fa3565b60405180910390fd5b606080849050839150604051806040016040528082815260200183815250600560008201518160000190805190602001906200045092919062000515565b5060208201518160010190805190602001906200046f929190620005a4565b509050505050505050565b6000612710905090565b828054620004929062000ff4565b90600052602060002090601f016020900481019282620004b6576000855562000502565b82601f10620004d157805160ff191683800117855562000502565b8280016001018555821562000502579182015b8281111562000501578251825591602001919060010190620004e4565b5b50905062000511919062000673565b5090565b82805482825590600052602060002090810192821562000591579160200282015b82811115620005905782518260006101000a81548173ffffffffffffffffffffffffffffffffffffffff021916908373ffffffffffffffffffffffffffffffffffffffff1602179055509160200191906001019062000536565b5b509050620005a0919062000673565b5090565b82805482825590600052602060002090600101600290048101928215620006605791602002820160005b838211156200062457835183826101000a8154816bffffffffffffffffffffffff02191690836bffffffffffffffffffffffff1602179055509260200192600c01602081600b01049283019260010302620005ce565b80156200065e5782816101000a8154906bffffffffffffffffffffffff0219169055600c01602081600b0104928301926001030262000624565b505b5090506200066f919062000673565b5090565b5b808211156200068e57600081600090555060010162000674565b5090565b6000604051905090565b600080fd5b600080fd5b600080fd5b600080fd5b6000601f19601f8301169050919050565b7f4e487b7100000000000000000000000000000000000000000000000000000000600052604160045260246000fd5b620006fb82620006b0565b810181811067ffffffffffffffff821117156200071d576200071c620006c1565b5b80604052505050565b60006200073262000692565b9050620007408282620006f0565b919050565b600067ffffffffffffffff821115620007635762000762620006c1565b5b6200076e82620006b0565b9050602081019050919050565b60005b838110156200079b5780820151818401526020810190506200077e565b83811115620007ab576000848401525b50505050565b6000620007c8620007c28462000745565b62000726565b905082815260208101848484011115620007e757620007e6620006ab565b5b620007f48482856200077b565b509392505050565b600082601f830112620008145762000813620006a6565b5b815162000826848260208601620007b1565b91505092915050565b60008115159050919050565b62000846816200082f565b81146200085257600080fd5b50565b60008151905062000866816200083b565b92915050565b600067ffffffffffffffff8211156200088a5762000889620006c1565b5b602082029050602081019050919050565b600080fd5b600073ffffffffffffffffffffffffffffffffffffffff82169050919050565b6000620008cd82620008a0565b9050919050565b620008df81620008c0565b8114620008eb57600080fd5b50565b600081519050620008ff81620008d4565b92915050565b60006200091c62000916846200086c565b62000726565b905080838252602082019050602084028301858111156200094257620009416200089b565b5b835b818110156200096f57806200095a8882620008ee565b84526020840193505060208101905062000944565b5050509392505050565b600082601f830112620009915762000990620006a6565b5b8151620009a384826020860162000905565b91505092915050565b600067ffffffffffffffff821115620009ca57620009c9620006c1565b5b602082029050602081019050919050565b60006bffffffffffffffffffffffff82169050919050565b620009fe81620009db565b811462000a0a57600080fd5b50565b60008151905062000a1e81620009f3565b92915050565b600062000a3b62000a3584620009ac565b62000726565b9050808382526020820190506020840283018581111562000a615762000a606200089b565b5b835b8181101562000a8e578062000a79888262000a0d565b84526020840193505060208101905062000a63565b5050509392505050565b600082601f83011262000ab05762000aaf620006a6565b5b815162000ac284826020860162000a24565b91505092915050565b600080600080600060a0868803121562000aea5762000ae96200069c565b5b600086015167ffffffffffffffff81111562000b0b5762000b0a620006a1565b5b62000b1988828901620007fc565b955050602086015167ffffffffffffffff81111562000b3d5762000b3c620006a1565b5b62000b4b88828901620007fc565b945050604062000b5e8882890162000855565b935050606086015167ffffffffffffffff81111562000b825762000b81620006a1565b5b62000b908882890162000979565b925050608086015167ffffffffffffffff81111562000bb45762000bb3620006a1565b5b62000bc28882890162000a98565b9150509295509295909350565b600082825260208201905092915050565b7f455243313135353a2043686f6f73652061206e616d6520616e642073796d626f60008201527f6c00000000000000000000000000000000000000000000000000000000000000602082015250565b600062000c3e60218362000bcf565b915062000c4b8262000be0565b604082019050919050565b6000602082019050818103600083015262000c718162000c2f565b9050919050565b7f4e6f20526f79616c74792064657461696c732070726f76696465640000000000600082015250565b600062000cb0601b8362000bcf565b915062000cbd8262000c78565b602082019050919050565b6000602082019050818103600083015262000ce38162000ca1565b9050919050565b7f546f6f206d616e7920726f79616c74792072656369657665727320646574616960008201527f6c73000000000000000000000000000000000000000000000000000000000000602082015250565b600062000d4860228362000bcf565b915062000d558262000cea565b604082019050919050565b6000602082019050818103600083015262000d7b8162000d39565b9050919050565b7f4d69736d61746368206f6620526f79616c74792072656369657665727320616e60008201527f6420746865697220666565730000000000000000000000000000000000000000602082015250565b600062000de0602c8362000bcf565b915062000ded8262000d82565b604082019050919050565b6000602082019050818103600083015262000e138162000dd1565b9050919050565b7f4e487b7100000000000000000000000000000000000000000000000000000000600052603260045260246000fd5b6000819050919050565b7f4e487b7100000000000000000000000000000000000000000000000000000000600052601160045260246000fd5b600062000e8f8262000e49565b915062000e9c8362000e49565b9250827fffffffffffffffffffffffffffffffffffffffffffffffffffffffffffffffff0382111562000ed45762000ed362000e53565b5b828201905092915050565b600062000eec8262000e49565b91507fffffffffffffffffffffffffffffffffffffffffffffffffffffffffffffffff82141562000f225762000f2162000e53565b5b600182019050919050565b7f455243323938313a20726f79616c7479206665652077696c6c2065786365656460008201527f2073616c65507269636500000000000000000000000000000000000000000000602082015250565b600062000f8b602a8362000bcf565b915062000f988262000f2d565b604082019050919050565b6000602082019050818103600083015262000fbe8162000f7c565b9050919050565b7f4e487b7100000000000000000000000000000000000000000000000000000000600052602260045260246000fd5b600060028204905060018216806200100d57607f821691505b6020821081141562001024576200102362000fc5565b5b50919050565b615600806200103a6000396000f3fe608060405234801561001057600080fd5b50600436106101c35760003560e01c806355f804b3116100f9578063a22cb46511610097578063f242432a11610071578063f242432a14610542578063f2fde38b1461055e578063f42176481461057a578063f5298aca14610596576101c3565b8063a22cb465146104c6578063c87b56dd146104e2578063e985e9c514610512576101c3565b8063715018a6116100d3578063715018a6146104505780638da5cb5b1461045a57806395d89b41146104785780639b19251a14610496576101c3565b806355f804b3146103e5578063562ef164146104015780636c0360eb14610432576101c3565b806323245216116101665780634816edf4116101405780634816edf4146103495780634e1273f41461037957806351fb012d146103a95780635503a0e8146103c7576101c3565b806323245216146102e05780632a55205a146102fc5780632eb2c2d61461032d576101c3565b8063052d9e7e116101a2578063052d9e7e1461025857806306fdde03146102745780630e89341c146102925780631a32ebb6146102c2576101c3565b8062fdd58e146101c857806301ffc9a7146101f85780630411b25214610228575b600080fd5b6101e260048036038101906101dd919061321e565b6105b2565b6040516101ef919061326d565b60405180910390f35b610212600480360381019061020d91906132e0565b61067c565b60405161021f9190613328565b60405180910390f35b610242600480360381019061023d9190613343565b61075e565b60405161024f9190613328565b60405180910390f35b610272600480360381019061026d91906133d6565b6107d4565b005b61027c61083f565b604051610289919061349c565b60405180910390f35b6102ac60048036038101906102a791906134be565b6108cd565b6040516102b9919061349c565b60405180910390f35b6102ca610961565b6040516102d7919061326d565b60405180910390f35b6102fa60048036038101906102f59190613550565b610967565b005b6103166004803603810190610311919061359d565b610ab1565b604051610324929190613759565b60405180910390f35b61034760048036038101906103429190613983565b610e38565b005b610363600480360381019061035e91906134be565b610ed9565b6040516103709190613a61565b60405180910390f35b610393600480360381019061038e9190613b3f565b610f0c565b6040516103a09190613bb7565b60405180910390f35b6103b1611025565b6040516103be9190613328565b60405180910390f35b6103cf611038565b6040516103dc919061349c565b60405180910390f35b6103ff60048036038101906103fa9190613c7a565b6110c6565b005b61041b60048036038101906104169190613dca565b611120565b604051610429929190613e7d565b60405180910390f35b61043a6112f1565b604051610447919061349c565b60405180910390f35b61045861137f565b005b610462611393565b60405161046f9190613a61565b60405180910390f35b6104806113bd565b60405161048d919061349c565b60405180910390f35b6104b060048036038101906104ab9190613ea6565b61144b565b6040516104bd9190613328565b60405180910390f35b6104e060048036038101906104db9190613ed3565b61146b565b005b6104fc60048036038101906104f791906134be565b611481565b604051610509919061349c565b60405180910390f35b61052c60048036038101906105279190613f13565b611530565b6040516105399190613328565b60405180910390f35b61055c60048036038101906105579190613f53565b6115c4565b005b61057860048036038101906105739190613ea6565b611665565b005b610594600480360381019061058f9190613550565b6116e9565b005b6105b060048036038101906105ab9190613fea565b611881565b005b60008073ffffffffffffffffffffffffffffffffffffffff168373ffffffffffffffffffffffffffffffffffffffff161415610623576040517f08c379a000000000000000000000000000000000000000000000000000000000815260040161061a906140af565b60405180910390fd5b6002600083815260200190815260200160002060008473ffffffffffffffffffffffffffffffffffffffff1673ffffffffffffffffffffffffffffffffffffffff16815260200190815260200160002054905092915050565b60007fd9b67a26000000000000000000000000000000000000000000000000000000007bffffffffffffffffffffffffffffffffffffffffffffffffffffffff1916827bffffffffffffffffffffffffffffffffffffffffffffffffffffffff1916148061074757507f0e89341c000000000000000000000000000000000000000000000000000000007bffffffffffffffffffffffffffffffffffffffffffffffffffffffff1916827bffffffffffffffffffffffffffffffffffffffffffffffffffffffff1916145b8061075757506107568261192a565b5b9050919050565b60008161076b86856105b2565b10156107ac576040517f08c379a00000000000000000000000000000000000000000000000000000000081526004016107a39061411b565b60405180910390fd5b6107c885858585604051806020016040528060008152506115c4565b60019050949350505050565b6107dc6119a4565b80600d60006101000a81548160ff0219169083151502179055507f218e591c4b0d49651b4b42843cb8cc59080122def3d2271f56ef2e21896753ec600d60009054906101000a900460ff166040516108349190613328565b60405180910390a150565b6000805461084c9061416a565b80601f01602080910402602001604051908101604052809291908181526020018280546108789061416a565b80156108c55780601f1061089a576101008083540402835291602001916108c5565b820191906000526020600020905b8154815290600101906020018083116108a857829003601f168201915b505050505081565b6060600480546108dc9061416a565b80601f01602080910402602001604051908101604052809291908181526020018280546109089061416a565b80156109555780601f1061092a57610100808354040283529160200191610955565b820191906000526020600020905b81548152906001019060200180831161093857829003601f168201915b50505050509050919050565b600c5481565b61096f6119a4565b600082829050116109b5576040517f08c379a00000000000000000000000000000000000000000000000000000000081526004016109ac906141e8565b60405180910390fd5b6107d08282905011156109fd576040517f08c379a00000000000000000000000000000000000000000000000000000000081526004016109f490614254565b60405180910390fd5b60005b82829050811015610aac57600e6000848484818110610a2257610a21614274565b5b9050602002016020810190610a379190613ea6565b73ffffffffffffffffffffffffffffffffffffffff1673ffffffffffffffffffffffffffffffffffffffff16815260200190815260200160002060006101000a81549060ff0219169055600c6000815480929190610a94906142d2565b91905055508080610aa4906142fc565b915050610a00565b505050565b60608060006007600086815260200190815260200160002060405180604001604052908160008201805480602002602001604051908101604052809291908181526020018280548015610b5957602002820191906000526020600020905b8160009054906101000a900473ffffffffffffffffffffffffffffffffffffffff1673ffffffffffffffffffffffffffffffffffffffff1681526020019060010190808311610b0f575b5050505050815260200160018201805480602002602001604051908101604052809291908181526020018280548015610bed57602002820191906000526020600020906000905b82829054906101000a90046bffffffffffffffffffffffff166bffffffffffffffffffffffff16815260200190600c0190602082600b01049283019260010382029150808411610ba05790505b505050505081525050905060008160000151511415610d3857600560405180604001604052908160008201805480602002602001604051908101604052809291908181526020018280548015610c9857602002820191906000526020600020905b8160009054906101000a900473ffffffffffffffffffffffffffffffffffffffff1673ffffffffffffffffffffffffffffffffffffffff1681526020019060010190808311610c4e575b5050505050815260200160018201805480602002602001604051908101604052809291908181526020018280548015610d2c57602002820191906000526020600020906000905b82829054906101000a90046bffffffffffffffffffffffff166bffffffffffffffffffffffff16815260200190600c0190602082600b01049283019260010382029150808411610cdf5790505b50505050508152505090505b600081600001515167ffffffffffffffff811115610d5957610d58613790565b5b604051908082528060200260200182016040528015610d875781602001602082028036833780820191505090505b50905060005b826000015151811015610e2457610da2611a22565b6bffffffffffffffffffffffff1683602001518281518110610dc757610dc6614274565b5b60200260200101516bffffffffffffffffffffffff1687610de89190614345565b610df291906143ce565b828281518110610e0557610e04614274565b5b6020026020010181815250508080610e1c906142fc565b915050610d8d565b508160000151819350935050509250929050565b610e40611a2c565b73ffffffffffffffffffffffffffffffffffffffff168573ffffffffffffffffffffffffffffffffffffffff161480610e865750610e8585610e80611a2c565b611530565b5b610ec5576040517f08c379a0000000000000000000000000000000000000000000000000000000008152600401610ebc90614471565b60405180910390fd5b610ed28585858585611a34565b5050505050565b600f6020528060005260406000206000915054906101000a900473ffffffffffffffffffffffffffffffffffffffff1681565b60608151835114610f52576040517f08c379a0000000000000000000000000000000000000000000000000000000008152600401610f4990614503565b60405180910390fd5b6000835167ffffffffffffffff811115610f6f57610f6e613790565b5b604051908082528060200260200182016040528015610f9d5781602001602082028036833780820191505090505b50905060005b845181101561101a57610fea858281518110610fc257610fc1614274565b5b6020026020010151858381518110610fdd57610fdc614274565b5b60200260200101516105b2565b828281518110610ffd57610ffc614274565b5b60200260200101818152505080611013906142fc565b9050610fa3565b508091505092915050565b600d60009054906101000a900460ff1681565b600b80546110459061416a565b80601f01602080910402602001604051908101604052809291908181526020018280546110719061416a565b80156110be5780601f10611093576101008083540402835291602001916110be565b820191906000526020600020905b8154815290600101906020018083116110a157829003601f168201915b505050505081565b6110ce6119a4565b80600a90805190602001906110e4929190612f81565b507f01e56a02aca7f26a28165a040851ba78f30282b55ca81c63a804cdc1e2dcea72600a60405161111591906145b8565b60405180910390a150565b60008060001515600d60009054906101000a900460ff16151514156111b557611147611393565b73ffffffffffffffffffffffffffffffffffffffff163373ffffffffffffffffffffffffffffffffffffffff16146111b4576040517f08c379a00000000000000000000000000000000000000000000000000000000081526004016111ab90614626565b60405180910390fd5b5b60011515600d60009054906101000a900460ff161515141561129b57600e60003373ffffffffffffffffffffffffffffffffffffffff1673ffffffffffffffffffffffffffffffffffffffff16815260200190815260200160002060009054906101000a900460ff168061125b575061122c611393565b73ffffffffffffffffffffffffffffffffffffffff163373ffffffffffffffffffffffffffffffffffffffff16145b61129a576040517f08c379a000000000000000000000000000000000000000000000000000000000815260040161129190614692565b60405180910390fd5b5b60006112a76009611d4b565b90506112c488828960405180602001604052806000815250611d59565b85156112d6576112d5818686611ef0565b5b6112e060096120e2565b808792509250509550959350505050565b600a80546112fe9061416a565b80601f016020809104026020016040519081016040528092919081815260200182805461132a9061416a565b80156113775780601f1061134c57610100808354040283529160200191611377565b820191906000526020600020905b81548152906001019060200180831161135a57829003601f168201915b505050505081565b6113876119a4565b61139160006120f8565b565b6000600860009054906101000a900473ffffffffffffffffffffffffffffffffffffffff16905090565b600180546113ca9061416a565b80601f01602080910402602001604051908101604052809291908181526020018280546113f69061416a565b80156114435780601f1061141857610100808354040283529160200191611443565b820191906000526020600020905b81548152906001019060200180831161142657829003601f168201915b505050505081565b600e6020528060005260406000206000915054906101000a900460ff1681565b61147d611476611a2c565b83836121be565b5050565b6060600061148f33846105b2565b14156114d0576040517f08c379a00000000000000000000000000000000000000000000000000000000081526004016114c790614724565b60405180910390fd5b60006114da61232b565b905060008151116114fa5760405180602001604052806000815250611528565b80611504846123bd565b600b604051602001611518939291906147ff565b6040516020818303038152906040525b915050919050565b6000600360008473ffffffffffffffffffffffffffffffffffffffff1673ffffffffffffffffffffffffffffffffffffffff16815260200190815260200160002060008373ffffffffffffffffffffffffffffffffffffffff1673ffffffffffffffffffffffffffffffffffffffff16815260200190815260200160002060009054906101000a900460ff16905092915050565b6115cc611a2c565b73ffffffffffffffffffffffffffffffffffffffff168573ffffffffffffffffffffffffffffffffffffffff16148061161257506116118561160c611a2c565b611530565b5b611651576040517f08c379a0000000000000000000000000000000000000000000000000000000008152600401611648906148a2565b60405180910390fd5b61165e858585858561251e565b5050505050565b61166d6119a4565b600073ffffffffffffffffffffffffffffffffffffffff168173ffffffffffffffffffffffffffffffffffffffff1614156116dd576040517f08c379a00000000000000000000000000000000000000000000000000000000081526004016116d490614934565b60405180910390fd5b6116e6816120f8565b50565b6116f16119a4565b60008282905011611737576040517f08c379a000000000000000000000000000000000000000000000000000000000815260040161172e906141e8565b60405180910390fd5b6107d0828290501061177e576040517f08c379a000000000000000000000000000000000000000000000000000000000815260040161177590614254565b60405180910390fd5b60005b8282905081101561187c576107d0600c54106117d2576040517f08c379a00000000000000000000000000000000000000000000000000000000081526004016117c9906149c6565b60405180910390fd5b6001600e60008585858181106117eb576117ea614274565b5b90506020020160208101906118009190613ea6565b73ffffffffffffffffffffffffffffffffffffffff1673ffffffffffffffffffffffffffffffffffffffff16815260200190815260200160002060006101000a81548160ff021916908315150217905550600c6000815480929190611864906142fc565b91905055508080611874906142fc565b915050611781565b505050565b600061188d33846105b2565b14156118ce576040517f08c379a00000000000000000000000000000000000000000000000000000000081526004016118c590614a58565b60405180910390fd5b806118d933846105b2565b101561191a576040517f08c379a000000000000000000000000000000000000000000000000000000000815260040161191190614aea565b60405180910390fd5b6119258383836127a3565b505050565b60007f2a55205a000000000000000000000000000000000000000000000000000000007bffffffffffffffffffffffffffffffffffffffffffffffffffffffff1916827bffffffffffffffffffffffffffffffffffffffffffffffffffffffff1916148061199d575061199c826129c2565b5b9050919050565b6119ac611a2c565b73ffffffffffffffffffffffffffffffffffffffff166119ca611393565b73ffffffffffffffffffffffffffffffffffffffff1614611a20576040517f08c379a0000000000000000000000000000000000000000000000000000000008152600401611a1790614b56565b60405180910390fd5b565b6000612710905090565b600033905090565b8151835114611a78576040517f08c379a0000000000000000000000000000000000000000000000000000000008152600401611a6f90614be8565b60405180910390fd5b600073ffffffffffffffffffffffffffffffffffffffff168473ffffffffffffffffffffffffffffffffffffffff161415611ae8576040517f08c379a0000000000000000000000000000000000000000000000000000000008152600401611adf90614c7a565b60405180910390fd5b6000611af2611a2c565b9050611b02818787878787612aa4565b60005b8451811015611cb6576000858281518110611b2357611b22614274565b5b602002602001015190506000858381518110611b4257611b41614274565b5b6020026020010151905060006002600084815260200190815260200160002060008b73ffffffffffffffffffffffffffffffffffffffff1673ffffffffffffffffffffffffffffffffffffffff16815260200190815260200160002054905081811015611be4576040517f08c379a0000000000000000000000000000000000000000000000000000000008152600401611bdb90614d0c565b60405180910390fd5b8181036002600085815260200190815260200160002060008c73ffffffffffffffffffffffffffffffffffffffff1673ffffffffffffffffffffffffffffffffffffffff16815260200190815260200160002081905550816002600085815260200190815260200160002060008b73ffffffffffffffffffffffffffffffffffffffff1673ffffffffffffffffffffffffffffffffffffffff1681526020019081526020016000206000828254611c9b9190614d2c565b9250508190555050505080611caf906142fc565b9050611b05565b508473ffffffffffffffffffffffffffffffffffffffff168673ffffffffffffffffffffffffffffffffffffffff168273ffffffffffffffffffffffffffffffffffffffff167f4a39dc06d4c0dbc64b70af90fd698a233a518aa5d07e595d983b8c0526c8f7fb8787604051611d2d929190614d82565b60405180910390a4611d43818787878787612aac565b505050505050565b600081600001549050919050565b600073ffffffffffffffffffffffffffffffffffffffff168473ffffffffffffffffffffffffffffffffffffffff161415611dc9576040517f08c379a0000000000000000000000000000000000000000000000000000000008152600401611dc090614e2b565b60405180910390fd5b6000611dd3611a2c565b9050611df481600087611de588612c93565b611dee88612c93565b87612aa4565b826002600086815260200190815260200160002060008773ffffffffffffffffffffffffffffffffffffffff1673ffffffffffffffffffffffffffffffffffffffff1681526020019081526020016000206000828254611e549190614d2c565b925050819055508473ffffffffffffffffffffffffffffffffffffffff16600073ffffffffffffffffffffffffffffffffffffffff168273ffffffffffffffffffffffffffffffffffffffff167fc3d58168c5ae7397731d063d5bbf3d657854427343f4c083240f7aacaa2d0f628787604051611ed2929190613e7d565b60405180910390a4611ee981600087878787612d0d565b5050505050565b6000825111611f34576040517f08c379a0000000000000000000000000000000000000000000000000000000008152600401611f2b90614e97565b60405180910390fd5b600582511115611f79576040517f08c379a0000000000000000000000000000000000000000000000000000000008152600401611f7090614f29565b60405180910390fd5b8051825114611fbd576040517f08c379a0000000000000000000000000000000000000000000000000000000008152600401611fb490614fbb565b60405180910390fd5b6000805b825181101561201357828181518110611fdd57611fdc614274565b5b60200260200101516bffffffffffffffffffffffff1682611ffe9190614d2c565b9150808061200b906142fc565b915050611fc1565b5061201c611a22565b6bffffffffffffffffffffffff1681111561206c576040517f08c379a00000000000000000000000000000000000000000000000000000000081526004016120639061504d565b60405180910390fd5b6060808490508391506040518060400160405280828152602001838152506007600088815260200190815260200160002060008201518160000190805190602001906120b9929190613007565b5060208201518160010190805190602001906120d6929190613091565b50905050505050505050565b6001816000016000828254019250508190555050565b6000600860009054906101000a900473ffffffffffffffffffffffffffffffffffffffff16905081600860006101000a81548173ffffffffffffffffffffffffffffffffffffffff021916908373ffffffffffffffffffffffffffffffffffffffff1602179055508173ffffffffffffffffffffffffffffffffffffffff168173ffffffffffffffffffffffffffffffffffffffff167f8be0079c531659141344cd1fd0a4f28419497f9722a3daafe3b4186f6b6457e060405160405180910390a35050565b8173ffffffffffffffffffffffffffffffffffffffff168373ffffffffffffffffffffffffffffffffffffffff16141561222d576040517f08c379a0000000000000000000000000000000000000000000000000000000008152600401612224906150df565b60405180910390fd5b80600360008573ffffffffffffffffffffffffffffffffffffffff1673ffffffffffffffffffffffffffffffffffffffff16815260200190815260200160002060008473ffffffffffffffffffffffffffffffffffffffff1673ffffffffffffffffffffffffffffffffffffffff16815260200190815260200160002060006101000a81548160ff0219169083151502179055508173ffffffffffffffffffffffffffffffffffffffff168373ffffffffffffffffffffffffffffffffffffffff167f17307eab39ab6107e8899845ad3d59bd9653f200f220920489ca2b5937696c318360405161231e9190613328565b60405180910390a3505050565b6060600a805461233a9061416a565b80601f01602080910402602001604051908101604052809291908181526020018280546123669061416a565b80156123b35780601f10612388576101008083540402835291602001916123b3565b820191906000526020600020905b81548152906001019060200180831161239657829003601f168201915b5050505050905090565b60606000821415612405576040518060400160405280600181526020017f30000000000000000000000000000000000000000000000000000000000000008152509050612519565b600082905060005b60008214612437578080612420906142fc565b915050600a8261243091906143ce565b915061240d565b60008167ffffffffffffffff81111561245357612452613790565b5b6040519080825280601f01601f1916602001820160405280156124855781602001600182028036833780820191505090505b5090505b600085146125125760018261249e91906150ff565b9150600a856124ad9190615133565b60306124b99190614d2c565b60f81b8183815181106124cf576124ce614274565b5b60200101907effffffffffffffffffffffffffffffffffffffffffffffffffffffffffffff1916908160001a905350600a8561250b91906143ce565b9450612489565b8093505050505b919050565b600073ffffffffffffffffffffffffffffffffffffffff168473ffffffffffffffffffffffffffffffffffffffff16141561258e576040517f08c379a000000000000000000000000000000000000000000000000000000000815260040161258590614c7a565b60405180910390fd5b6000612598611a2c565b90506125b88187876125a988612c93565b6125b288612c93565b87612aa4565b60006002600086815260200190815260200160002060008873ffffffffffffffffffffffffffffffffffffffff1673ffffffffffffffffffffffffffffffffffffffff16815260200190815260200160002054905083811015612650576040517f08c379a000000000000000000000000000000000000000000000000000000000815260040161264790614d0c565b60405180910390fd5b8381036002600087815260200190815260200160002060008973ffffffffffffffffffffffffffffffffffffffff1673ffffffffffffffffffffffffffffffffffffffff16815260200190815260200160002081905550836002600087815260200190815260200160002060008873ffffffffffffffffffffffffffffffffffffffff1673ffffffffffffffffffffffffffffffffffffffff16815260200190815260200160002060008282546127079190614d2c565b925050819055508573ffffffffffffffffffffffffffffffffffffffff168773ffffffffffffffffffffffffffffffffffffffff168373ffffffffffffffffffffffffffffffffffffffff167fc3d58168c5ae7397731d063d5bbf3d657854427343f4c083240f7aacaa2d0f628888604051612784929190613e7d565b60405180910390a461279a828888888888612d0d565b50505050505050565b600073ffffffffffffffffffffffffffffffffffffffff168373ffffffffffffffffffffffffffffffffffffffff161415612813576040517f08c379a000000000000000000000000000000000000000000000000000000000815260040161280a906151d6565b60405180910390fd5b600061281d611a2c565b905061284d8185600061282f87612c93565b61283887612c93565b60405180602001604052806000815250612aa4565b60006002600085815260200190815260200160002060008673ffffffffffffffffffffffffffffffffffffffff1673ffffffffffffffffffffffffffffffffffffffff168152602001908152602001600020549050828110156128e5576040517f08c379a00000000000000000000000000000000000000000000000000000000081526004016128dc90615268565b60405180910390fd5b8281036002600086815260200190815260200160002060008773ffffffffffffffffffffffffffffffffffffffff1673ffffffffffffffffffffffffffffffffffffffff16815260200190815260200160002081905550600073ffffffffffffffffffffffffffffffffffffffff168573ffffffffffffffffffffffffffffffffffffffff168373ffffffffffffffffffffffffffffffffffffffff167fc3d58168c5ae7397731d063d5bbf3d657854427343f4c083240f7aacaa2d0f6287876040516129b3929190613e7d565b60405180910390a45050505050565b60007fd9b67a26000000000000000000000000000000000000000000000000000000007bffffffffffffffffffffffffffffffffffffffffffffffffffffffff1916827bffffffffffffffffffffffffffffffffffffffffffffffffffffffff19161480612a8d57507f0e89341c000000000000000000000000000000000000000000000000000000007bffffffffffffffffffffffffffffffffffffffffffffffffffffffff1916827bffffffffffffffffffffffffffffffffffffffffffffffffffffffff1916145b80612a9d5750612a9c82612ef4565b5b9050919050565b505050505050565b612acb8473ffffffffffffffffffffffffffffffffffffffff16612f5e565b15612c8b578373ffffffffffffffffffffffffffffffffffffffff1663bc197c8187878686866040518663ffffffff1660e01b8152600401612b119594939291906152dd565b602060405180830381600087803b158015612b2b57600080fd5b505af1925050508015612b5c57506040513d601f19601f82011682018060405250810190612b59919061535a565b60015b612c0257612b68615394565b806308c379a01415612bc55750612b7d6153b6565b80612b885750612bc7565b806040517f08c379a0000000000000000000000000000000000000000000000000000000008152600401612bbc919061349c565b60405180910390fd5b505b6040517f08c379a0000000000000000000000000000000000000000000000000000000008152600401612bf9906154be565b60405180910390fd5b63bc197c8160e01b7bffffffffffffffffffffffffffffffffffffffffffffffffffffffff1916817bffffffffffffffffffffffffffffffffffffffffffffffffffffffff191614612c89576040517f08c379a0000000000000000000000000000000000000000000000000000000008152600401612c8090615550565b60405180910390fd5b505b505050505050565b60606000600167ffffffffffffffff811115612cb257612cb1613790565b5b604051908082528060200260200182016040528015612ce05781602001602082028036833780820191505090505b5090508281600081518110612cf857612cf7614274565b5b60200260200101818152505080915050919050565b612d2c8473ffffffffffffffffffffffffffffffffffffffff16612f5e565b15612eec578373ffffffffffffffffffffffffffffffffffffffff1663f23a6e6187878686866040518663ffffffff1660e01b8152600401612d72959493929190615570565b602060405180830381600087803b158015612d8c57600080fd5b505af1925050508015612dbd57506040513d601f19601f82011682018060405250810190612dba919061535a565b60015b612e6357612dc9615394565b806308c379a01415612e265750612dde6153b6565b80612de95750612e28565b806040517f08c379a0000000000000000000000000000000000000000000000000000000008152600401612e1d919061349c565b60405180910390fd5b505b6040517f08c379a0000000000000000000000000000000000000000000000000000000008152600401612e5a906154be565b60405180910390fd5b63f23a6e6160e01b7bffffffffffffffffffffffffffffffffffffffffffffffffffffffff1916817bffffffffffffffffffffffffffffffffffffffffffffffffffffffff191614612eea576040517f08c379a0000000000000000000000000000000000000000000000000000000008152600401612ee190615550565b60405180910390fd5b505b505050505050565b60007f01ffc9a7000000000000000000000000000000000000000000000000000000007bffffffffffffffffffffffffffffffffffffffffffffffffffffffff1916827bffffffffffffffffffffffffffffffffffffffffffffffffffffffff1916149050919050565b6000808273ffffffffffffffffffffffffffffffffffffffff163b119050919050565b828054612f8d9061416a565b90600052602060002090601f016020900481019282612faf5760008555612ff6565b82601f10612fc857805160ff1916838001178555612ff6565b82800160010185558215612ff6579182015b82811115612ff5578251825591602001919060010190612fda565b5b5090506130039190613159565b5090565b828054828255906000526020600020908101928215613080579160200282015b8281111561307f5782518260006101000a81548173ffffffffffffffffffffffffffffffffffffffff021916908373ffffffffffffffffffffffffffffffffffffffff16021790555091602001919060010190613027565b5b50905061308d9190613159565b5090565b828054828255906000526020600020906001016002900481019282156131485791602002820160005b8382111561310e57835183826101000a8154816bffffffffffffffffffffffff02191690836bffffffffffffffffffffffff1602179055509260200192600c01602081600b010492830192600103026130ba565b80156131465782816101000a8154906bffffffffffffffffffffffff0219169055600c01602081600b0104928301926001030261310e565b505b5090506131559190613159565b5090565b5b8082111561317257600081600090555060010161315a565b5090565b6000604051905090565b600080fd5b600080fd5b600073ffffffffffffffffffffffffffffffffffffffff82169050919050565b60006131b58261318a565b9050919050565b6131c5816131aa565b81146131d057600080fd5b50565b6000813590506131e2816131bc565b92915050565b6000819050919050565b6131fb816131e8565b811461320657600080fd5b50565b600081359050613218816131f2565b92915050565b6000806040838503121561323557613234613180565b5b6000613243858286016131d3565b925050602061325485828601613209565b9150509250929050565b613267816131e8565b82525050565b6000602082019050613282600083018461325e565b92915050565b60007fffffffff0000000000000000000000000000000000000000000000000000000082169050919050565b6132bd81613288565b81146132c857600080fd5b50565b6000813590506132da816132b4565b92915050565b6000602082840312156132f6576132f5613180565b5b6000613304848285016132cb565b91505092915050565b60008115159050919050565b6133228161330d565b82525050565b600060208201905061333d6000830184613319565b92915050565b6000806000806080858703121561335d5761335c613180565b5b600061336b878288016131d3565b945050602061337c878288016131d3565b935050604061338d87828801613209565b925050606061339e87828801613209565b91505092959194509250565b6133b38161330d565b81146133be57600080fd5b50565b6000813590506133d0816133aa565b92915050565b6000602082840312156133ec576133eb613180565b5b60006133fa848285016133c1565b91505092915050565b600081519050919050565b600082825260208201905092915050565b60005b8381101561343d578082015181840152602081019050613422565b8381111561344c576000848401525b50505050565b6000601f19601f8301169050919050565b600061346e82613403565b613478818561340e565b935061348881856020860161341f565b61349181613452565b840191505092915050565b600060208201905081810360008301526134b68184613463565b905092915050565b6000602082840312156134d4576134d3613180565b5b60006134e284828501613209565b91505092915050565b600080fd5b600080fd5b600080fd5b60008083601f8401126135105761350f6134eb565b5b8235905067ffffffffffffffff81111561352d5761352c6134f0565b5b602083019150836020820283011115613549576135486134f5565b5b9250929050565b6000806020838503121561356757613566613180565b5b600083013567ffffffffffffffff81111561358557613584613185565b5b613591858286016134fa565b92509250509250929050565b600080604083850312156135b4576135b3613180565b5b60006135c285828601613209565b92505060206135d385828601613209565b9150509250929050565b600081519050919050565b600082825260208201905092915050565b6000819050602082019050919050565b613612816131aa565b82525050565b60006136248383613609565b60208301905092915050565b6000602082019050919050565b6000613648826135dd565b61365281856135e8565b935061365d836135f9565b8060005b8381101561368e5781516136758882613618565b975061368083613630565b925050600181019050613661565b5085935050505092915050565b600081519050919050565b600082825260208201905092915050565b6000819050602082019050919050565b6136d0816131e8565b82525050565b60006136e283836136c7565b60208301905092915050565b6000602082019050919050565b60006137068261369b565b61371081856136a6565b935061371b836136b7565b8060005b8381101561374c57815161373388826136d6565b975061373e836136ee565b92505060018101905061371f565b5085935050505092915050565b60006040820190508181036000830152613773818561363d565b9050818103602083015261378781846136fb565b90509392505050565b7f4e487b7100000000000000000000000000000000000000000000000000000000600052604160045260246000fd5b6137c882613452565b810181811067ffffffffffffffff821117156137e7576137e6613790565b5b80604052505050565b60006137fa613176565b905061380682826137bf565b919050565b600067ffffffffffffffff82111561382657613825613790565b5b602082029050602081019050919050565b600061384a6138458461380b565b6137f0565b9050808382526020820190506020840283018581111561386d5761386c6134f5565b5b835b8181101561389657806138828882613209565b84526020840193505060208101905061386f565b5050509392505050565b600082601f8301126138b5576138b46134eb565b5b81356138c5848260208601613837565b91505092915050565b600080fd5b600067ffffffffffffffff8211156138ee576138ed613790565b5b6138f782613452565b9050602081019050919050565b82818337600083830152505050565b6000613926613921846138d3565b6137f0565b905082815260208101848484011115613942576139416138ce565b5b61394d848285613904565b509392505050565b600082601f83011261396a576139696134eb565b5b813561397a848260208601613913565b91505092915050565b600080600080600060a0868803121561399f5761399e613180565b5b60006139ad888289016131d3565b95505060206139be888289016131d3565b945050604086013567ffffffffffffffff8111156139df576139de613185565b5b6139eb888289016138a0565b935050606086013567ffffffffffffffff811115613a0c57613a0b613185565b5b613a18888289016138a0565b925050608086013567ffffffffffffffff811115613a3957613a38613185565b5b613a4588828901613955565b9150509295509295909350565b613a5b816131aa565b82525050565b6000602082019050613a766000830184613a52565b92915050565b600067ffffffffffffffff821115613a9757613a96613790565b5b602082029050602081019050919050565b6000613abb613ab684613a7c565b6137f0565b90508083825260208201905060208402830185811115613ade57613add6134f5565b5b835b81811015613b075780613af388826131d3565b845260208401935050602081019050613ae0565b5050509392505050565b600082601f830112613b2657613b256134eb565b5b8135613b36848260208601613aa8565b91505092915050565b60008060408385031215613b5657613b55613180565b5b600083013567ffffffffffffffff811115613b7457613b73613185565b5b613b8085828601613b11565b925050602083013567ffffffffffffffff811115613ba157613ba0613185565b5b613bad858286016138a0565b9150509250929050565b60006020820190508181036000830152613bd181846136fb565b905092915050565b600067ffffffffffffffff821115613bf457613bf3613790565b5b613bfd82613452565b9050602081019050919050565b6000613c1d613c1884613bd9565b6137f0565b905082815260208101848484011115613c3957613c386138ce565b5b613c44848285613904565b509392505050565b600082601f830112613c6157613c606134eb565b5b8135613c71848260208601613c0a565b91505092915050565b600060208284031215613c9057613c8f613180565b5b600082013567ffffffffffffffff811115613cae57613cad613185565b5b613cba84828501613c4c565b91505092915050565b600067ffffffffffffffff821115613cde57613cdd613790565b5b602082029050602081019050919050565b60006bffffffffffffffffffffffff82169050919050565b613d1081613cef565b8114613d1b57600080fd5b50565b600081359050613d2d81613d07565b92915050565b6000613d46613d4184613cc3565b6137f0565b90508083825260208201905060208402830185811115613d6957613d686134f5565b5b835b81811015613d925780613d7e8882613d1e565b845260208401935050602081019050613d6b565b5050509392505050565b600082601f830112613db157613db06134eb565b5b8135613dc1848260208601613d33565b91505092915050565b600080600080600060a08688031215613de657613de5613180565b5b6000613df4888289016131d3565b9550506020613e0588828901613209565b9450506040613e16888289016133c1565b935050606086013567ffffffffffffffff811115613e3757613e36613185565b5b613e4388828901613b11565b925050608086013567ffffffffffffffff811115613e6457613e63613185565b5b613e7088828901613d9c565b9150509295509295909350565b6000604082019050613e92600083018561325e565b613e9f602083018461325e565b9392505050565b600060208284031215613ebc57613ebb613180565b5b6000613eca848285016131d3565b91505092915050565b60008060408385031215613eea57613ee9613180565b5b6000613ef8858286016131d3565b9250506020613f09858286016133c1565b9150509250929050565b60008060408385031215613f2a57613f29613180565b5b6000613f38858286016131d3565b9250506020613f49858286016131d3565b9150509250929050565b600080600080600060a08688031215613f6f57613f6e613180565b5b6000613f7d888289016131d3565b9550506020613f8e888289016131d3565b9450506040613f9f88828901613209565b9350506060613fb088828901613209565b925050608086013567ffffffffffffffff811115613fd157613fd0613185565b5b613fdd88828901613955565b9150509295509295909350565b60008060006060848603121561400357614002613180565b5b6000614011868287016131d3565b935050602061402286828701613209565b925050604061403386828701613209565b9150509250925092565b7f455243313135353a2062616c616e636520717565727920666f7220746865207a60008201527f65726f2061646472657373000000000000000000000000000000000000000000602082015250565b6000614099602b8361340e565b91506140a48261403d565b604082019050919050565b600060208201905081810360008301526140c88161408c565b9050919050565b7f455243313135353a204e6f7420656e6f75676820636f70696573000000000000600082015250565b6000614105601a8361340e565b9150614110826140cf565b602082019050919050565b60006020820190508181036000830152614134816140f8565b9050919050565b7f4e487b7100000000000000000000000000000000000000000000000000000000600052602260045260246000fd5b6000600282049050600182168061418257607f821691505b602082108114156141965761419561413b565b5b50919050565b7f4e6f20757365722064657461696c732070726f76696465640000000000000000600082015250565b60006141d260188361340e565b91506141dd8261419c565b602082019050919050565b60006020820190508181036000830152614201816141c5565b9050919050565b7f546f6f206d616e792075736572737320746f2077686974656c69737400000000600082015250565b600061423e601c8361340e565b915061424982614208565b602082019050919050565b6000602082019050818103600083015261426d81614231565b9050919050565b7f4e487b7100000000000000000000000000000000000000000000000000000000600052603260045260246000fd5b7f4e487b7100000000000000000000000000000000000000000000000000000000600052601160045260246000fd5b60006142dd826131e8565b915060008214156142f1576142f06142a3565b5b600182039050919050565b6000614307826131e8565b91507fffffffffffffffffffffffffffffffffffffffffffffffffffffffffffffffff82141561433a576143396142a3565b5b600182019050919050565b6000614350826131e8565b915061435b836131e8565b9250817fffffffffffffffffffffffffffffffffffffffffffffffffffffffffffffffff0483118215151615614394576143936142a3565b5b828202905092915050565b7f4e487b7100000000000000000000000000000000000000000000000000000000600052601260045260246000fd5b60006143d9826131e8565b91506143e4836131e8565b9250826143f4576143f361439f565b5b828204905092915050565b7f455243313135353a207472616e736665722063616c6c6572206973206e6f742060008201527f6f776e6572206e6f7220617070726f7665640000000000000000000000000000602082015250565b600061445b60328361340e565b9150614466826143ff565b604082019050919050565b6000602082019050818103600083015261448a8161444e565b9050919050565b7f455243313135353a206163636f756e747320616e6420696473206c656e67746860008201527f206d69736d617463680000000000000000000000000000000000000000000000602082015250565b60006144ed60298361340e565b91506144f882614491565b604082019050919050565b6000602082019050818103600083015261451c816144e0565b9050919050565b60008190508160005260206000209050919050565b600081546145458161416a565b61454f818661340e565b9450600182166000811461456a576001811461457c576145af565b60ff19831686526020860193506145af565b61458585614523565b60005b838110156145a757815481890152600182019150602081019050614588565b808801955050505b50505092915050565b600060208201905081810360008301526145d28184614538565b905092915050565b7f4f776e61626c653a204e6f7420746865206f776e657200000000000000000000600082015250565b600061461060168361340e565b915061461b826145da565b602082019050919050565b6000602082019050818103600083015261463f81614603565b9050919050565b7f41646472657373206e6f742077686974656c6973746564000000000000000000600082015250565b600061467c60178361340e565b915061468782614646565b602082019050919050565b600060208201905081810360008301526146ab8161466f565b9050919050565b7f455243313135354d657461646174613a2055524920717565727920666f72206e60008201527f6f6e6578697374656e7420746f6b656e00000000000000000000000000000000602082015250565b600061470e60308361340e565b9150614719826146b2565b604082019050919050565b6000602082019050818103600083015261473d81614701565b9050919050565b600081905092915050565b600061475a82613403565b6147648185614744565b935061477481856020860161341f565b80840191505092915050565b6000815461478d8161416a565b6147978186614744565b945060018216600081146147b257600181146147c3576147f6565b60ff198316865281860193506147f6565b6147cc85614523565b60005b838110156147ee578154818901526001820191506020810190506147cf565b838801955050505b50505092915050565b600061480b828661474f565b9150614817828561474f565b91506148238284614780565b9150819050949350505050565b7f455243313135353a2063616c6c6572206973206e6f74206f776e6572206e6f7260008201527f20617070726f7665640000000000000000000000000000000000000000000000602082015250565b600061488c60298361340e565b915061489782614830565b604082019050919050565b600060208201905081810360008301526148bb8161487f565b9050919050565b7f4f776e61626c653a206e6577206f776e657220697320746865207a65726f206160008201527f6464726573730000000000000000000000000000000000000000000000000000602082015250565b600061491e60268361340e565b9150614929826148c2565b604082019050919050565b6000602082019050818103600083015261494d81614911565b9050919050565b7f4d6178696d756d20557365727320616c72656164792077686974656c6973746560008201527f6400000000000000000000000000000000000000000000000000000000000000602082015250565b60006149b060218361340e565b91506149bb82614954565b604082019050919050565b600060208201905081810360008301526149df816149a3565b9050919050565b7f455243313135353a204e6f7420746865206f776e6572206f662074686973207460008201527f6f6b656e00000000000000000000000000000000000000000000000000000000602082015250565b6000614a4260248361340e565b9150614a4d826149e6565b604082019050919050565b60006020820190508181036000830152614a7181614a35565b9050919050565b7f455243313135353a204e6f7420656e6f756768207175616e7469747920746f2060008201527f6275726e00000000000000000000000000000000000000000000000000000000602082015250565b6000614ad460248361340e565b9150614adf82614a78565b604082019050919050565b60006020820190508181036000830152614b0381614ac7565b9050919050565b7f4f776e61626c653a2063616c6c6572206973206e6f7420746865206f776e6572600082015250565b6000614b4060208361340e565b9150614b4b82614b0a565b602082019050919050565b60006020820190508181036000830152614b6f81614b33565b9050919050565b7f455243313135353a2069647320616e6420616d6f756e7473206c656e6774682060008201527f6d69736d61746368000000000000000000000000000000000000000000000000602082015250565b6000614bd260288361340e565b9150614bdd82614b76565b604082019050919050565b60006020820190508181036000830152614c0181614bc5565b9050919050565b7f455243313135353a207472616e7366657220746f20746865207a65726f20616460008201527f6472657373000000000000000000000000000000000000000000000000000000602082015250565b6000614c6460258361340e565b9150614c6f82614c08565b604082019050919050565b60006020820190508181036000830152614c9381614c57565b9050919050565b7f455243313135353a20696e73756666696369656e742062616c616e636520666f60008201527f72207472616e7366657200000000000000000000000000000000000000000000602082015250565b6000614cf6602a8361340e565b9150614d0182614c9a565b604082019050919050565b60006020820190508181036000830152614d2581614ce9565b9050919050565b6000614d37826131e8565b9150614d42836131e8565b9250827fffffffffffffffffffffffffffffffffffffffffffffffffffffffffffffffff03821115614d7757614d766142a3565b5b828201905092915050565b60006040820190508181036000830152614d9c81856136fb565b90508181036020830152614db081846136fb565b90509392505050565b7f455243313135353a206d696e7420746f20746865207a65726f2061646472657360008201527f7300000000000000000000000000000000000000000000000000000000000000602082015250565b6000614e1560218361340e565b9150614e2082614db9565b604082019050919050565b60006020820190508181036000830152614e4481614e08565b9050919050565b7f4e6f20526f79616c74792064657461696c732070726f76696465640000000000600082015250565b6000614e81601b8361340e565b9150614e8c82614e4b565b602082019050919050565b60006020820190508181036000830152614eb081614e74565b9050919050565b7f546f6f206d616e7920726f79616c74792072656369657665727320646574616960008201527f6c73000000000000000000000000000000000000000000000000000000000000602082015250565b6000614f1360228361340e565b9150614f1e82614eb7565b604082019050919050565b60006020820190508181036000830152614f4281614f06565b9050919050565b7f4d69736d61746368206f6620526f79616c74792072656369657665727320616e60008201527f6420746865697220666565730000000000000000000000000000000000000000602082015250565b6000614fa5602c8361340e565b9150614fb082614f49565b604082019050919050565b60006020820190508181036000830152614fd481614f98565b9050919050565b7f455243323938313a20726f79616c7479206665652077696c6c2065786365656460008201527f2073616c65507269636500000000000000000000000000000000000000000000602082015250565b6000615037602a8361340e565b915061504282614fdb565b604082019050919050565b600060208201905081810360008301526150668161502a565b9050919050565b7f455243313135353a2073657474696e6720617070726f76616c2073746174757360008201527f20666f722073656c660000000000000000000000000000000000000000000000602082015250565b60006150c960298361340e565b91506150d48261506d565b604082019050919050565b600060208201905081810360008301526150f8816150bc565b9050919050565b600061510a826131e8565b9150615115836131e8565b925082821015615128576151276142a3565b5b828203905092915050565b600061513e826131e8565b9150615149836131e8565b9250826151595761515861439f565b5b828206905092915050565b7f455243313135353a206275726e2066726f6d20746865207a65726f206164647260008201527f6573730000000000000000000000000000000000000000000000000000000000602082015250565b60006151c060238361340e565b91506151cb82615164565b604082019050919050565b600060208201905081810360008301526151ef816151b3565b9050919050565b7f455243313135353a206275726e20616d6f756e7420657863656564732062616c60008201527f616e636500000000000000000000000000000000000000000000000000000000602082015250565b600061525260248361340e565b915061525d826151f6565b604082019050919050565b6000602082019050818103600083015261528181615245565b9050919050565b600081519050919050565b600082825260208201905092915050565b60006152af82615288565b6152b98185615293565b93506152c981856020860161341f565b6152d281613452565b840191505092915050565b600060a0820190506152f26000830188613a52565b6152ff6020830187613a52565b818103604083015261531181866136fb565b9050818103606083015261532581856136fb565b9050818103608083015261533981846152a4565b90509695505050505050565b600081519050615354816132b4565b92915050565b6000602082840312156153705761536f613180565b5b600061537e84828501615345565b91505092915050565b60008160e01c9050919050565b600060033d11156153b35760046000803e6153b0600051615387565b90505b90565b600060443d10156153c657615449565b6153ce613176565b60043d036004823e80513d602482011167ffffffffffffffff821117156153f6575050615449565b808201805167ffffffffffffffff8111156154145750505050615449565b80602083010160043d038501811115615431575050505050615449565b615440826020018501866137bf565b82955050505050505b90565b7f455243313135353a207472616e7366657220746f206e6f6e204552433131353560008201527f526563656976657220696d706c656d656e746572000000000000000000000000602082015250565b60006154a860348361340e565b91506154b38261544c565b604082019050919050565b600060208201905081810360008301526154d78161549b565b9050919050565b7f455243313135353a204552433131353552656365697665722072656a6563746560008201527f6420746f6b656e73000000000000000000000000000000000000000000000000602082015250565b600061553a60288361340e565b9150615545826154de565b604082019050919050565b600060208201905081810360008301526155698161552d565b9050919050565b600060a0820190506155856000830188613a52565b6155926020830187613a52565b61559f604083018661325e565b6155ac606083018561325e565b81810360808301526155be81846152a4565b9050969550505050505056fea264697066735822122063f77fe58611780084408bbcfa568d94d93fde468dfa833fa56cea64e74e069364736f6c63430008090033",
  "linkReferences": {},
  "deployedLinkReferences": {}
}