{
  "_format": "hh-sol-artifact-1",
  "contractName": "ERC1155Factory",
  "sourceName": "contracts/factoryContracts/ERC1155Factory.sol",
  "abi": [
    {
      "inputs": [
        {
          "internalType": "string",
          "name": "name_",
          "type": "string"
        },
        {
          "internalType": "string",
          "name": "symbol_",
          "type": "string"
        },
        {
          "internalType": "bool",
          "name": "defaultRoyalty",
          "type": "bool"
        },
        {
          "internalType": "address[]",
          "name": "royaltyReceiver",
          "type": "address[]"
        },
        {
          "internalType": "uint96[]",
          "name": "royaltyFeesInBips",
          "type": "uint96[]"
        }
      ],
      "stateMutability": "nonpayable",
      "type": "constructor"
    },
    {
      "anonymous": false,
      "inputs": [
        {
          "indexed": true,
          "internalType": "address",
          "name": "account",
          "type": "address"
        },
        {
          "indexed": true,
          "internalType": "address",
          "name": "operator",
          "type": "address"
        },
        {
          "indexed": false,
          "internalType": "bool",
          "name": "approved",
          "type": "bool"
        }
      ],
      "name": "ApprovalForAll",
      "type": "event"
    },
    {
      "anonymous": false,
      "inputs": [
        {
          "indexed": false,
          "internalType": "string",
          "name": "uri",
          "type": "string"
        }
      ],
      "name": "BaseURI",
      "type": "event"
    },
    {
      "anonymous": false,
      "inputs": [
        {
          "indexed": true,
          "internalType": "address",
          "name": "previousOwner",
          "type": "address"
        },
        {
          "indexed": true,
          "internalType": "address",
          "name": "newOwner",
          "type": "address"
        }
      ],
      "name": "OwnershipTransferred",
      "type": "event"
    },
    {
      "anonymous": false,
      "inputs": [
        {
          "indexed": true,
          "internalType": "address",
          "name": "operator",
          "type": "address"
        },
        {
          "indexed": true,
          "internalType": "address",
          "name": "from",
          "type": "address"
        },
        {
          "indexed": true,
          "internalType": "address",
          "name": "to",
          "type": "address"
        },
        {
          "indexed": false,
          "internalType": "uint256[]",
          "name": "ids",
          "type": "uint256[]"
        },
        {
          "indexed": false,
          "internalType": "uint256[]",
          "name": "values",
          "type": "uint256[]"
        }
      ],
      "name": "TransferBatch",
      "type": "event"
    },
    {
      "anonymous": false,
      "inputs": [
        {
          "indexed": true,
          "internalType": "address",
          "name": "operator",
          "type": "address"
        },
        {
          "indexed": true,
          "internalType": "address",
          "name": "from",
          "type": "address"
        },
        {
          "indexed": true,
          "internalType": "address",
          "name": "to",
          "type": "address"
        },
        {
          "indexed": false,
          "internalType": "uint256",
          "name": "id",
          "type": "uint256"
        },
        {
          "indexed": false,
          "internalType": "uint256",
          "name": "value",
          "type": "uint256"
        }
      ],
      "name": "TransferSingle",
      "type": "event"
    },
    {
      "anonymous": false,
      "inputs": [
        {
          "indexed": false,
          "internalType": "string",
          "name": "value",
          "type": "string"
        },
        {
          "indexed": true,
          "internalType": "uint256",
          "name": "id",
          "type": "uint256"
        }
      ],
      "name": "URI",
      "type": "event"
    },
    {
      "anonymous": false,
      "inputs": [
        {
          "indexed": false,
          "internalType": "bool",
          "name": "whitelistEnabled",
          "type": "bool"
        }
      ],
      "name": "WhiteListEnabled",
      "type": "event"
    },
    {
      "inputs": [
        {
          "internalType": "uint256",
          "name": "",
          "type": "uint256"
        }
      ],
      "name": "_creators",
      "outputs": [
        {
          "internalType": "address",
          "name": "",
          "type": "address"
        }
      ],
      "stateMutability": "view",
      "type": "function"
    },
    {
      "inputs": [
        {
          "internalType": "address",
          "name": "account",
          "type": "address"
        },
        {
          "internalType": "uint256",
          "name": "id",
          "type": "uint256"
        }
      ],
      "name": "balanceOf",
      "outputs": [
        {
          "internalType": "uint256",
          "name": "",
          "type": "uint256"
        }
      ],
      "stateMutability": "view",
      "type": "function"
    },
    {
      "inputs": [
        {
          "internalType": "address[]",
          "name": "accounts",
          "type": "address[]"
        },
        {
          "internalType": "uint256[]",
          "name": "ids",
          "type": "uint256[]"
        }
      ],
      "name": "balanceOfBatch",
      "outputs": [
        {
          "internalType": "uint256[]",
          "name": "",
          "type": "uint256[]"
        }
      ],
      "stateMutability": "view",
      "type": "function"
    },
    {
      "inputs": [],
      "name": "baseURI",
      "outputs": [
        {
          "internalType": "string",
          "name": "",
          "type": "string"
        }
      ],
      "stateMutability": "view",
      "type": "function"
    },
    {
      "inputs": [
        {
          "internalType": "address",
          "name": "_from",
          "type": "address"
        },
        {
          "internalType": "uint256",
          "name": "_tokenId",
          "type": "uint256"
        },
        {
          "internalType": "uint256",
          "name": "_amount",
          "type": "uint256"
        }
      ],
      "name": "burn",
      "outputs": [],
      "stateMutability": "nonpayable",
      "type": "function"
    },
    {
      "inputs": [
        {
          "internalType": "address",
          "name": "account",
          "type": "address"
        },
        {
          "internalType": "address",
          "name": "operator",
          "type": "address"
        }
      ],
      "name": "isApprovedForAll",
      "outputs": [
        {
          "internalType": "bool",
          "name": "",
          "type": "bool"
        }
      ],
      "stateMutability": "view",
      "type": "function"
    },
    {
      "inputs": [
        {
          "internalType": "address",
          "name": "creator",
          "type": "address"
        },
        {
          "internalType": "uint256",
          "name": "copies",
          "type": "uint256"
        },
        {
          "internalType": "bool",
          "name": "tokenRoyalty",
          "type": "bool"
        },
        {
          "internalType": "address[]",
          "name": "royaltyReceiver",
          "type": "address[]"
        },
        {
          "internalType": "uint96[]",
          "name": "tokenRoyaltyInBips",
          "type": "uint96[]"
        }
      ],
      "name": "mint",
      "outputs": [
        {
          "internalType": "uint256",
          "name": "",
          "type": "uint256"
        },
        {
          "internalType": "uint256",
          "name": "",
          "type": "uint256"
        }
      ],
      "stateMutability": "nonpayable",
      "type": "function"
    },
    {
      "inputs": [],
      "name": "name",
      "outputs": [
        {
          "internalType": "string",
          "name": "",
          "type": "string"
        }
      ],
      "stateMutability": "view",
      "type": "function"
    },
    {
      "inputs": [],
      "name": "owner",
      "outputs": [
        {
          "internalType": "address",
          "name": "",
          "type": "address"
        }
      ],
      "stateMutability": "view",
      "type": "function"
    },
    {
      "inputs": [
        {
          "internalType": "address[]",
          "name": "currentAddresses",
          "type": "address[]"
        }
      ],
      "name": "removeWhitelist",
      "outputs": [],
      "stateMutability": "nonpayable",
      "type": "function"
    },
    {
      "inputs": [],
      "name": "renounceOwnership",
      "outputs": [],
      "stateMutability": "nonpayable",
      "type": "function"
    },
    {
      "inputs": [
        {
          "internalType": "uint256",
          "name": "_tokenId",
          "type": "uint256"
        },
        {
          "internalType": "uint256",
          "name": "_salePrice",
          "type": "uint256"
        }
      ],
      "name": "royaltyInfo",
      "outputs": [
        {
          "internalType": "address[]",
          "name": "",
          "type": "address[]"
        },
        {
          "internalType": "uint256[]",
          "name": "",
          "type": "uint256[]"
        }
      ],
      "stateMutability": "view",
      "type": "function"
    },
    {
      "inputs": [
        {
          "internalType": "address",
          "name": "from",
          "type": "address"
        },
        {
          "internalType": "address",
          "name": "to",
          "type": "address"
        },
        {
          "internalType": "uint256[]",
          "name": "ids",
          "type": "uint256[]"
        },
        {
          "internalType": "uint256[]",
          "name": "amounts",
          "type": "uint256[]"
        },
        {
          "internalType": "bytes",
          "name": "data",
          "type": "bytes"
        }
      ],
      "name": "safeBatchTransferFrom",
      "outputs": [],
      "stateMutability": "nonpayable",
      "type": "function"
    },
    {
      "inputs": [
        {
          "internalType": "address",
          "name": "from",
          "type": "address"
        },
        {
          "internalType": "address",
          "name": "to",
          "type": "address"
        },
        {
          "internalType": "uint256",
          "name": "id",
          "type": "uint256"
        },
        {
          "internalType": "uint256",
          "name": "amount",
          "type": "uint256"
        },
        {
          "internalType": "bytes",
          "name": "data",
          "type": "bytes"
        }
      ],
      "name": "safeTransferFrom",
      "outputs": [],
      "stateMutability": "nonpayable",
      "type": "function"
    },
    {
      "inputs": [
        {
          "internalType": "address",
          "name": "operator",
          "type": "address"
        },
        {
          "internalType": "bool",
          "name": "approved",
          "type": "bool"
        }
      ],
      "name": "setApprovalForAll",
      "outputs": [],
      "stateMutability": "nonpayable",
      "type": "function"
    },
    {
      "inputs": [
        {
          "internalType": "string",
          "name": "baseURI_",
          "type": "string"
        }
      ],
      "name": "setBaseURI",
      "outputs": [],
      "stateMutability": "nonpayable",
      "type": "function"
    },
    {
      "inputs": [
        {
          "internalType": "address[]",
          "name": "newAddresses",
          "type": "address[]"
        }
      ],
      "name": "setWhitelist",
      "outputs": [],
      "stateMutability": "nonpayable",
      "type": "function"
    },
    {
      "inputs": [
        {
          "internalType": "bool",
          "name": "_state",
          "type": "bool"
        }
      ],
      "name": "setWhitelistEnabled",
      "outputs": [],
      "stateMutability": "nonpayable",
      "type": "function"
    },
    {
      "inputs": [
        {
          "internalType": "bytes4",
          "name": "interfaceId",
          "type": "bytes4"
        }
      ],
      "name": "supportsInterface",
      "outputs": [
        {
          "internalType": "bool",
          "name": "",
          "type": "bool"
        }
      ],
      "stateMutability": "view",
      "type": "function"
    },
    {
      "inputs": [],
      "name": "symbol",
      "outputs": [
        {
          "internalType": "string",
          "name": "",
          "type": "string"
        }
      ],
      "stateMutability": "view",
      "type": "function"
    },
    {
      "inputs": [
        {
          "internalType": "uint256",
          "name": "_tokenId",
          "type": "uint256"
        }
      ],
      "name": "tokenURI",
      "outputs": [
        {
          "internalType": "string",
          "name": "",
          "type": "string"
        }
      ],
      "stateMutability": "view",
      "type": "function"
    },
    {
      "inputs": [
        {
          "internalType": "address",
          "name": "_from",
          "type": "address"
        },
        {
          "internalType": "address",
          "name": "_to",
          "type": "address"
        },
        {
          "internalType": "uint256",
          "name": "_tokenId",
          "type": "uint256"
        },
        {
          "internalType": "uint256",
          "name": "_copies",
          "type": "uint256"
        }
      ],
      "name": "transfer",
      "outputs": [
        {
          "internalType": "bool",
          "name": "",
          "type": "bool"
        }
      ],
      "stateMutability": "nonpayable",
      "type": "function"
    },
    {
      "inputs": [
        {
          "internalType": "address",
          "name": "newOwner",
          "type": "address"
        }
      ],
      "name": "transferOwnership",
      "outputs": [],
      "stateMutability": "nonpayable",
      "type": "function"
    },
    {
      "inputs": [
        {
          "internalType": "uint256",
          "name": "",
          "type": "uint256"
        }
      ],
      "name": "uri",
      "outputs": [
        {
          "internalType": "string",
          "name": "",
          "type": "string"
        }
      ],
      "stateMutability": "view",
      "type": "function"
    },
    {
      "inputs": [],
      "name": "uriSuffix",
      "outputs": [
        {
          "internalType": "string",
          "name": "",
          "type": "string"
        }
      ],
      "stateMutability": "view",
      "type": "function"
    },
    {
      "inputs": [
        {
          "internalType": "address",
          "name": "",
          "type": "address"
        }
      ],
      "name": "whitelist",
      "outputs": [
        {
          "internalType": "bool",
          "name": "",
          "type": "bool"
        }
      ],
      "stateMutability": "view",
      "type": "function"
    },
    {
      "inputs": [],
      "name": "whitelistEnabled",
      "outputs": [
        {
          "internalType": "bool",
          "name": "",
          "type": "bool"
        }
      ],
      "stateMutability": "view",
      "type": "function"
    }
  ],
  "bytecode": "0x608060405260405180602001604052806000815250600a90805190602001906200002b92919062000484565b506040518060400160405280600581526020017f2e6a736f6e000000000000000000000000000000000000000000000000000000815250600b90805190602001906200007992919062000484565b506000600c556000600d60006101000a81548160ff021916908315150217905550348015620000a757600080fd5b5060405162006559380380620065598339818101604052810190620000cd919062000acb565b84848160009080519060200190620000e792919062000484565b5080600190805190602001906200010092919062000484565b5050506200012362000117620001ab60201b60201c565b620001b360201b60201c565b6000859050600085905060008251141580156200014257506000815114155b62000184576040517f08c379a00000000000000000000000000000000000000000000000000000000081526004016200017b9062000c56565b60405180910390fd5b84156200019e576200019d84846200027960201b60201c565b5b505050505050506200102a565b600033905090565b6000600860009054906101000a900473ffffffffffffffffffffffffffffffffffffffff16905081600860006101000a81548173ffffffffffffffffffffffffffffffffffffffff021916908373ffffffffffffffffffffffffffffffffffffffff1602179055508173ffffffffffffffffffffffffffffffffffffffff168173ffffffffffffffffffffffffffffffffffffffff167f8be0079c531659141344cd1fd0a4f28419497f9722a3daafe3b4186f6b6457e060405160405180910390a35050565b6000825111620002c0576040517f08c379a0000000000000000000000000000000000000000000000000000000008152600401620002b79062000cc8565b60405180910390fd5b60058251111562000308576040517f08c379a0000000000000000000000000000000000000000000000000000000008152600401620002ff9062000d60565b60405180910390fd5b80518251146200034f576040517f08c379a0000000000000000000000000000000000000000000000000000000008152600401620003469062000df8565b60405180910390fd5b6000805b8251811015620003ae5782818151811062000373576200037262000e1a565b5b60200260200101516bffffffffffffffffffffffff168262000396919062000e82565b91508080620003a59062000edf565b91505062000353565b50620003bf6200047a60201b60201c565b6bffffffffffffffffffffffff1681111562000412576040517f08c379a0000000000000000000000000000000000000000000000000000000008152600401620004099062000fa3565b60405180910390fd5b606080849050839150604051806040016040528082815260200183815250600560008201518160000190805190602001906200045092919062000515565b5060208201518160010190805190602001906200046f929190620005a4565b509050505050505050565b6000612710905090565b828054620004929062000ff4565b90600052602060002090601f016020900481019282620004b6576000855562000502565b82601f10620004d157805160ff191683800117855562000502565b8280016001018555821562000502579182015b8281111562000501578251825591602001919060010190620004e4565b5b50905062000511919062000673565b5090565b82805482825590600052602060002090810192821562000591579160200282015b82811115620005905782518260006101000a81548173ffffffffffffffffffffffffffffffffffffffff021916908373ffffffffffffffffffffffffffffffffffffffff1602179055509160200191906001019062000536565b5b509050620005a0919062000673565b5090565b82805482825590600052602060002090600101600290048101928215620006605791602002820160005b838211156200062457835183826101000a8154816bffffffffffffffffffffffff02191690836bffffffffffffffffffffffff1602179055509260200192600c01602081600b01049283019260010302620005ce565b80156200065e5782816101000a8154906bffffffffffffffffffffffff0219169055600c01602081600b0104928301926001030262000624565b505b5090506200066f919062000673565b5090565b5b808211156200068e57600081600090555060010162000674565b5090565b6000604051905090565b600080fd5b600080fd5b600080fd5b600080fd5b6000601f19601f8301169050919050565b7f4e487b7100000000000000000000000000000000000000000000000000000000600052604160045260246000fd5b620006fb82620006b0565b810181811067ffffffffffffffff821117156200071d576200071c620006c1565b5b80604052505050565b60006200073262000692565b9050620007408282620006f0565b919050565b600067ffffffffffffffff821115620007635762000762620006c1565b5b6200076e82620006b0565b9050602081019050919050565b60005b838110156200079b5780820151818401526020810190506200077e565b83811115620007ab576000848401525b50505050565b6000620007c8620007c28462000745565b62000726565b905082815260208101848484011115620007e757620007e6620006ab565b5b620007f48482856200077b565b509392505050565b600082601f830112620008145762000813620006a6565b5b815162000826848260208601620007b1565b91505092915050565b60008115159050919050565b62000846816200082f565b81146200085257600080fd5b50565b60008151905062000866816200083b565b92915050565b600067ffffffffffffffff8211156200088a5762000889620006c1565b5b602082029050602081019050919050565b600080fd5b600073ffffffffffffffffffffffffffffffffffffffff82169050919050565b6000620008cd82620008a0565b9050919050565b620008df81620008c0565b8114620008eb57600080fd5b50565b600081519050620008ff81620008d4565b92915050565b60006200091c62000916846200086c565b62000726565b905080838252602082019050602084028301858111156200094257620009416200089b565b5b835b818110156200096f57806200095a8882620008ee565b84526020840193505060208101905062000944565b5050509392505050565b600082601f830112620009915762000990620006a6565b5b8151620009a384826020860162000905565b91505092915050565b600067ffffffffffffffff821115620009ca57620009c9620006c1565b5b602082029050602081019050919050565b60006bffffffffffffffffffffffff82169050919050565b620009fe81620009db565b811462000a0a57600080fd5b50565b60008151905062000a1e81620009f3565b92915050565b600062000a3b62000a3584620009ac565b62000726565b9050808382526020820190506020840283018581111562000a615762000a606200089b565b5b835b8181101562000a8e578062000a79888262000a0d565b84526020840193505060208101905062000a63565b5050509392505050565b600082601f83011262000ab05762000aaf620006a6565b5b815162000ac284826020860162000a24565b91505092915050565b600080600080600060a0868803121562000aea5762000ae96200069c565b5b600086015167ffffffffffffffff81111562000b0b5762000b0a620006a1565b5b62000b1988828901620007fc565b955050602086015167ffffffffffffffff81111562000b3d5762000b3c620006a1565b5b62000b4b88828901620007fc565b945050604062000b5e8882890162000855565b935050606086015167ffffffffffffffff81111562000b825762000b81620006a1565b5b62000b908882890162000979565b925050608086015167ffffffffffffffff81111562000bb45762000bb3620006a1565b5b62000bc28882890162000a98565b9150509295509295909350565b600082825260208201905092915050565b7f455243313135353a2043686f6f73652061206e616d6520616e642073796d626f60008201527f6c00000000000000000000000000000000000000000000000000000000000000602082015250565b600062000c3e60218362000bcf565b915062000c4b8262000be0565b604082019050919050565b6000602082019050818103600083015262000c718162000c2f565b9050919050565b7f4e6f20526f79616c74792064657461696c732070726f76696465640000000000600082015250565b600062000cb0601b8362000bcf565b915062000cbd8262000c78565b602082019050919050565b6000602082019050818103600083015262000ce38162000ca1565b9050919050565b7f546f6f206d616e7920726f79616c74792072656369657665727320646574616960008201527f6c73000000000000000000000000000000000000000000000000000000000000602082015250565b600062000d4860228362000bcf565b915062000d558262000cea565b604082019050919050565b6000602082019050818103600083015262000d7b8162000d39565b9050919050565b7f4d69736d61746368206f6620526f79616c74792072656369657665727320616e60008201527f6420746865697220666565730000000000000000000000000000000000000000602082015250565b600062000de0602c8362000bcf565b915062000ded8262000d82565b604082019050919050565b6000602082019050818103600083015262000e138162000dd1565b9050919050565b7f4e487b7100000000000000000000000000000000000000000000000000000000600052603260045260246000fd5b6000819050919050565b7f4e487b7100000000000000000000000000000000000000000000000000000000600052601160045260246000fd5b600062000e8f8262000e49565b915062000e9c8362000e49565b9250827fffffffffffffffffffffffffffffffffffffffffffffffffffffffffffffffff0382111562000ed45762000ed362000e53565b5b828201905092915050565b600062000eec8262000e49565b91507fffffffffffffffffffffffffffffffffffffffffffffffffffffffffffffffff82141562000f225762000f2162000e53565b5b600182019050919050565b7f455243323938313a20726f79616c7479206665652077696c6c2065786365656460008201527f2073616c65507269636500000000000000000000000000000000000000000000602082015250565b600062000f8b602a8362000bcf565b915062000f988262000f2d565b604082019050919050565b6000602082019050818103600083015262000fbe8162000f7c565b9050919050565b7f4e487b7100000000000000000000000000000000000000000000000000000000600052602260045260246000fd5b600060028204905060018216806200100d57607f821691505b6020821081141562001024576200102362000fc5565b5b50919050565b61551f806200103a6000396000f3fe608060405234801561001057600080fd5b50600436106101a85760003560e01c806355f804b3116100f9578063a22cb46511610097578063f242432a11610071578063f242432a14610509578063f2fde38b14610525578063f421764814610541578063f5298aca1461055d576101a8565b8063a22cb4651461048d578063c87b56dd146104a9578063e985e9c5146104d9576101a8565b8063715018a6116100d3578063715018a6146104175780638da5cb5b1461042157806395d89b411461043f5780639b19251a1461045d576101a8565b806355f804b3146103ac578063562ef164146103c85780636c0360eb146103f9576101a8565b806323245216116101665780634816edf4116101405780634816edf4146103105780634e1273f41461034057806351fb012d146103705780635503a0e81461038e576101a8565b806323245216146102a75780632a55205a146102c35780632eb2c2d6146102f4576101a8565b8062fdd58e146101ad57806301ffc9a7146101dd5780630411b2521461020d578063052d9e7e1461023d57806306fdde03146102595780630e89341c14610277575b600080fd5b6101c760048036038101906101c291906131a9565b610579565b6040516101d491906131f8565b60405180910390f35b6101f760048036038101906101f2919061326b565b610643565b60405161020491906132b3565b60405180910390f35b610227600480360381019061022291906132ce565b610725565b60405161023491906132b3565b60405180910390f35b61025760048036038101906102529190613361565b61079b565b005b610261610806565b60405161026e9190613427565b60405180910390f35b610291600480360381019061028c9190613449565b610894565b60405161029e9190613427565b60405180910390f35b6102c160048036038101906102bc91906134db565b610928565b005b6102dd60048036038101906102d89190613528565b610a72565b6040516102eb9291906136e4565b60405180910390f35b61030e6004803603810190610309919061390e565b610df9565b005b61032a60048036038101906103259190613449565b610e9a565b60405161033791906139ec565b60405180910390f35b61035a60048036038101906103559190613aca565b610ecd565b6040516103679190613b42565b60405180910390f35b610378610fe6565b60405161038591906132b3565b60405180910390f35b610396610ff9565b6040516103a39190613427565b60405180910390f35b6103c660048036038101906103c19190613c05565b611087565b005b6103e260048036038101906103dd9190613d55565b6110e1565b6040516103f0929190613e08565b60405180910390f35b61040161127c565b60405161040e9190613427565b60405180910390f35b61041f61130a565b005b61042961131e565b60405161043691906139ec565b60405180910390f35b610447611348565b6040516104549190613427565b60405180910390f35b61047760048036038101906104729190613e31565b6113d6565b60405161048491906132b3565b60405180910390f35b6104a760048036038101906104a29190613e5e565b6113f6565b005b6104c360048036038101906104be9190613449565b61140c565b6040516104d09190613427565b60405180910390f35b6104f360048036038101906104ee9190613e9e565b6114bb565b60405161050091906132b3565b60405180910390f35b610523600480360381019061051e9190613ede565b61154f565b005b61053f600480360381019061053a9190613e31565b6115f0565b005b61055b600480360381019061055691906134db565b611674565b005b61057760048036038101906105729190613f75565b61180c565b005b60008073ffffffffffffffffffffffffffffffffffffffff168373ffffffffffffffffffffffffffffffffffffffff1614156105ea576040517f08c379a00000000000000000000000000000000000000000000000000000000081526004016105e19061403a565b60405180910390fd5b6002600083815260200190815260200160002060008473ffffffffffffffffffffffffffffffffffffffff1673ffffffffffffffffffffffffffffffffffffffff16815260200190815260200160002054905092915050565b60007fd9b67a26000000000000000000000000000000000000000000000000000000007bffffffffffffffffffffffffffffffffffffffffffffffffffffffff1916827bffffffffffffffffffffffffffffffffffffffffffffffffffffffff1916148061070e57507f0e89341c000000000000000000000000000000000000000000000000000000007bffffffffffffffffffffffffffffffffffffffffffffffffffffffff1916827bffffffffffffffffffffffffffffffffffffffffffffffffffffffff1916145b8061071e575061071d826118b5565b5b9050919050565b6000816107328685610579565b1015610773576040517f08c379a000000000000000000000000000000000000000000000000000000000815260040161076a906140a6565b60405180910390fd5b61078f858585856040518060200160405280600081525061154f565b60019050949350505050565b6107a361192f565b80600d60006101000a81548160ff0219169083151502179055507f218e591c4b0d49651b4b42843cb8cc59080122def3d2271f56ef2e21896753ec600d60009054906101000a900460ff166040516107fb91906132b3565b60405180910390a150565b60008054610813906140f5565b80601f016020809104026020016040519081016040528092919081815260200182805461083f906140f5565b801561088c5780601f106108615761010080835404028352916020019161088c565b820191906000526020600020905b81548152906001019060200180831161086f57829003601f168201915b505050505081565b6060600480546108a3906140f5565b80601f01602080910402602001604051908101604052809291908181526020018280546108cf906140f5565b801561091c5780601f106108f15761010080835404028352916020019161091c565b820191906000526020600020905b8154815290600101906020018083116108ff57829003601f168201915b50505050509050919050565b61093061192f565b60008282905011610976576040517f08c379a000000000000000000000000000000000000000000000000000000000815260040161096d90614173565b60405180910390fd5b6107d08282905011156109be576040517f08c379a00000000000000000000000000000000000000000000000000000000081526004016109b5906141df565b60405180910390fd5b60005b82829050811015610a6d57600e60008484848181106109e3576109e26141ff565b5b90506020020160208101906109f89190613e31565b73ffffffffffffffffffffffffffffffffffffffff1673ffffffffffffffffffffffffffffffffffffffff16815260200190815260200160002060006101000a81549060ff0219169055600c6000815480929190610a559061425d565b91905055508080610a6590614287565b9150506109c1565b505050565b60608060006007600086815260200190815260200160002060405180604001604052908160008201805480602002602001604051908101604052809291908181526020018280548015610b1a57602002820191906000526020600020905b8160009054906101000a900473ffffffffffffffffffffffffffffffffffffffff1673ffffffffffffffffffffffffffffffffffffffff1681526020019060010190808311610ad0575b5050505050815260200160018201805480602002602001604051908101604052809291908181526020018280548015610bae57602002820191906000526020600020906000905b82829054906101000a90046bffffffffffffffffffffffff166bffffffffffffffffffffffff16815260200190600c0190602082600b01049283019260010382029150808411610b615790505b505050505081525050905060008160000151511415610cf957600560405180604001604052908160008201805480602002602001604051908101604052809291908181526020018280548015610c5957602002820191906000526020600020905b8160009054906101000a900473ffffffffffffffffffffffffffffffffffffffff1673ffffffffffffffffffffffffffffffffffffffff1681526020019060010190808311610c0f575b5050505050815260200160018201805480602002602001604051908101604052809291908181526020018280548015610ced57602002820191906000526020600020906000905b82829054906101000a90046bffffffffffffffffffffffff166bffffffffffffffffffffffff16815260200190600c0190602082600b01049283019260010382029150808411610ca05790505b50505050508152505090505b600081600001515167ffffffffffffffff811115610d1a57610d1961371b565b5b604051908082528060200260200182016040528015610d485781602001602082028036833780820191505090505b50905060005b826000015151811015610de557610d636119ad565b6bffffffffffffffffffffffff1683602001518281518110610d8857610d876141ff565b5b60200260200101516bffffffffffffffffffffffff1687610da991906142d0565b610db39190614359565b828281518110610dc657610dc56141ff565b5b6020026020010181815250508080610ddd90614287565b915050610d4e565b508160000151819350935050509250929050565b610e016119b7565b73ffffffffffffffffffffffffffffffffffffffff168573ffffffffffffffffffffffffffffffffffffffff161480610e475750610e4685610e416119b7565b6114bb565b5b610e86576040517f08c379a0000000000000000000000000000000000000000000000000000000008152600401610e7d906143fc565b60405180910390fd5b610e9385858585856119bf565b5050505050565b600f6020528060005260406000206000915054906101000a900473ffffffffffffffffffffffffffffffffffffffff1681565b60608151835114610f13576040517f08c379a0000000000000000000000000000000000000000000000000000000008152600401610f0a9061448e565b60405180910390fd5b6000835167ffffffffffffffff811115610f3057610f2f61371b565b5b604051908082528060200260200182016040528015610f5e5781602001602082028036833780820191505090505b50905060005b8451811015610fdb57610fab858281518110610f8357610f826141ff565b5b6020026020010151858381518110610f9e57610f9d6141ff565b5b6020026020010151610579565b828281518110610fbe57610fbd6141ff565b5b60200260200101818152505080610fd490614287565b9050610f64565b508091505092915050565b600d60009054906101000a900460ff1681565b600b8054611006906140f5565b80601f0160208091040260200160405190810160405280929190818152602001828054611032906140f5565b801561107f5780601f106110545761010080835404028352916020019161107f565b820191906000526020600020905b81548152906001019060200180831161106257829003601f168201915b505050505081565b61108f61192f565b80600a90805190602001906110a5929190612f0c565b507f01e56a02aca7f26a28165a040851ba78f30282b55ca81c63a804cdc1e2dcea72600a6040516110d69190614543565b60405180910390a150565b60008060001515600d60009054906101000a900460ff16151514156111765761110861131e565b73ffffffffffffffffffffffffffffffffffffffff163373ffffffffffffffffffffffffffffffffffffffff1614611175576040517f08c379a000000000000000000000000000000000000000000000000000000000815260040161116c906145b1565b60405180910390fd5b5b60011515600d60009054906101000a900460ff161515141561122657600e600061119e6119b7565b73ffffffffffffffffffffffffffffffffffffffff1673ffffffffffffffffffffffffffffffffffffffff16815260200190815260200160002060009054906101000a900460ff16611225576040517f08c379a000000000000000000000000000000000000000000000000000000000815260040161121c906145b1565b60405180910390fd5b5b60006112326009611cd6565b905061124f88828960405180602001604052806000815250611ce4565b851561126157611260818686611e7b565b5b61126b600961206d565b808792509250509550959350505050565b600a8054611289906140f5565b80601f01602080910402602001604051908101604052809291908181526020018280546112b5906140f5565b80156113025780601f106112d757610100808354040283529160200191611302565b820191906000526020600020905b8154815290600101906020018083116112e557829003601f168201915b505050505081565b61131261192f565b61131c6000612083565b565b6000600860009054906101000a900473ffffffffffffffffffffffffffffffffffffffff16905090565b60018054611355906140f5565b80601f0160208091040260200160405190810160405280929190818152602001828054611381906140f5565b80156113ce5780601f106113a3576101008083540402835291602001916113ce565b820191906000526020600020905b8154815290600101906020018083116113b157829003601f168201915b505050505081565b600e6020528060005260406000206000915054906101000a900460ff1681565b6114086114016119b7565b8383612149565b5050565b6060600061141a3384610579565b141561145b576040517f08c379a000000000000000000000000000000000000000000000000000000000815260040161145290614643565b60405180910390fd5b60006114656122b6565b9050600081511161148557604051806020016040528060008152506114b3565b8061148f84612348565b600b6040516020016114a39392919061471e565b6040516020818303038152906040525b915050919050565b6000600360008473ffffffffffffffffffffffffffffffffffffffff1673ffffffffffffffffffffffffffffffffffffffff16815260200190815260200160002060008373ffffffffffffffffffffffffffffffffffffffff1673ffffffffffffffffffffffffffffffffffffffff16815260200190815260200160002060009054906101000a900460ff16905092915050565b6115576119b7565b73ffffffffffffffffffffffffffffffffffffffff168573ffffffffffffffffffffffffffffffffffffffff16148061159d575061159c856115976119b7565b6114bb565b5b6115dc576040517f08c379a00000000000000000000000000000000000000000000000000000000081526004016115d3906147c1565b60405180910390fd5b6115e985858585856124a9565b5050505050565b6115f861192f565b600073ffffffffffffffffffffffffffffffffffffffff168173ffffffffffffffffffffffffffffffffffffffff161415611668576040517f08c379a000000000000000000000000000000000000000000000000000000000815260040161165f90614853565b60405180910390fd5b61167181612083565b50565b61167c61192f565b600082829050116116c2576040517f08c379a00000000000000000000000000000000000000000000000000000000081526004016116b990614173565b60405180910390fd5b6107d08282905010611709576040517f08c379a0000000000000000000000000000000000000000000000000000000008152600401611700906141df565b60405180910390fd5b60005b82829050811015611807576107d0600c541061175d576040517f08c379a0000000000000000000000000000000000000000000000000000000008152600401611754906148e5565b60405180910390fd5b6001600e6000858585818110611776576117756141ff565b5b905060200201602081019061178b9190613e31565b73ffffffffffffffffffffffffffffffffffffffff1673ffffffffffffffffffffffffffffffffffffffff16815260200190815260200160002060006101000a81548160ff021916908315150217905550600c60008154809291906117ef90614287565b919050555080806117ff90614287565b91505061170c565b505050565b60006118183384610579565b1415611859576040517f08c379a000000000000000000000000000000000000000000000000000000000815260040161185090614977565b60405180910390fd5b806118643384610579565b10156118a5576040517f08c379a000000000000000000000000000000000000000000000000000000000815260040161189c90614a09565b60405180910390fd5b6118b083838361272e565b505050565b60007f2a55205a000000000000000000000000000000000000000000000000000000007bffffffffffffffffffffffffffffffffffffffffffffffffffffffff1916827bffffffffffffffffffffffffffffffffffffffffffffffffffffffff1916148061192857506119278261294d565b5b9050919050565b6119376119b7565b73ffffffffffffffffffffffffffffffffffffffff1661195561131e565b73ffffffffffffffffffffffffffffffffffffffff16146119ab576040517f08c379a00000000000000000000000000000000000000000000000000000000081526004016119a290614a75565b60405180910390fd5b565b6000612710905090565b600033905090565b8151835114611a03576040517f08c379a00000000000000000000000000000000000000000000000000000000081526004016119fa90614b07565b60405180910390fd5b600073ffffffffffffffffffffffffffffffffffffffff168473ffffffffffffffffffffffffffffffffffffffff161415611a73576040517f08c379a0000000000000000000000000000000000000000000000000000000008152600401611a6a90614b99565b60405180910390fd5b6000611a7d6119b7565b9050611a8d818787878787612a2f565b60005b8451811015611c41576000858281518110611aae57611aad6141ff565b5b602002602001015190506000858381518110611acd57611acc6141ff565b5b6020026020010151905060006002600084815260200190815260200160002060008b73ffffffffffffffffffffffffffffffffffffffff1673ffffffffffffffffffffffffffffffffffffffff16815260200190815260200160002054905081811015611b6f576040517f08c379a0000000000000000000000000000000000000000000000000000000008152600401611b6690614c2b565b60405180910390fd5b8181036002600085815260200190815260200160002060008c73ffffffffffffffffffffffffffffffffffffffff1673ffffffffffffffffffffffffffffffffffffffff16815260200190815260200160002081905550816002600085815260200190815260200160002060008b73ffffffffffffffffffffffffffffffffffffffff1673ffffffffffffffffffffffffffffffffffffffff1681526020019081526020016000206000828254611c269190614c4b565b9250508190555050505080611c3a90614287565b9050611a90565b508473ffffffffffffffffffffffffffffffffffffffff168673ffffffffffffffffffffffffffffffffffffffff168273ffffffffffffffffffffffffffffffffffffffff167f4a39dc06d4c0dbc64b70af90fd698a233a518aa5d07e595d983b8c0526c8f7fb8787604051611cb8929190614ca1565b60405180910390a4611cce818787878787612a37565b505050505050565b600081600001549050919050565b600073ffffffffffffffffffffffffffffffffffffffff168473ffffffffffffffffffffffffffffffffffffffff161415611d54576040517f08c379a0000000000000000000000000000000000000000000000000000000008152600401611d4b90614d4a565b60405180910390fd5b6000611d5e6119b7565b9050611d7f81600087611d7088612c1e565b611d7988612c1e565b87612a2f565b826002600086815260200190815260200160002060008773ffffffffffffffffffffffffffffffffffffffff1673ffffffffffffffffffffffffffffffffffffffff1681526020019081526020016000206000828254611ddf9190614c4b565b925050819055508473ffffffffffffffffffffffffffffffffffffffff16600073ffffffffffffffffffffffffffffffffffffffff168273ffffffffffffffffffffffffffffffffffffffff167fc3d58168c5ae7397731d063d5bbf3d657854427343f4c083240f7aacaa2d0f628787604051611e5d929190613e08565b60405180910390a4611e7481600087878787612c98565b5050505050565b6000825111611ebf576040517f08c379a0000000000000000000000000000000000000000000000000000000008152600401611eb690614db6565b60405180910390fd5b600582511115611f04576040517f08c379a0000000000000000000000000000000000000000000000000000000008152600401611efb90614e48565b60405180910390fd5b8051825114611f48576040517f08c379a0000000000000000000000000000000000000000000000000000000008152600401611f3f90614eda565b60405180910390fd5b6000805b8251811015611f9e57828181518110611f6857611f676141ff565b5b60200260200101516bffffffffffffffffffffffff1682611f899190614c4b565b91508080611f9690614287565b915050611f4c565b50611fa76119ad565b6bffffffffffffffffffffffff16811115611ff7576040517f08c379a0000000000000000000000000000000000000000000000000000000008152600401611fee90614f6c565b60405180910390fd5b606080849050839150604051806040016040528082815260200183815250600760008881526020019081526020016000206000820151816000019080519060200190612044929190612f92565b50602082015181600101908051906020019061206192919061301c565b50905050505050505050565b6001816000016000828254019250508190555050565b6000600860009054906101000a900473ffffffffffffffffffffffffffffffffffffffff16905081600860006101000a81548173ffffffffffffffffffffffffffffffffffffffff021916908373ffffffffffffffffffffffffffffffffffffffff1602179055508173ffffffffffffffffffffffffffffffffffffffff168173ffffffffffffffffffffffffffffffffffffffff167f8be0079c531659141344cd1fd0a4f28419497f9722a3daafe3b4186f6b6457e060405160405180910390a35050565b8173ffffffffffffffffffffffffffffffffffffffff168373ffffffffffffffffffffffffffffffffffffffff1614156121b8576040517f08c379a00000000000000000000000000000000000000000000000000000000081526004016121af90614ffe565b60405180910390fd5b80600360008573ffffffffffffffffffffffffffffffffffffffff1673ffffffffffffffffffffffffffffffffffffffff16815260200190815260200160002060008473ffffffffffffffffffffffffffffffffffffffff1673ffffffffffffffffffffffffffffffffffffffff16815260200190815260200160002060006101000a81548160ff0219169083151502179055508173ffffffffffffffffffffffffffffffffffffffff168373ffffffffffffffffffffffffffffffffffffffff167f17307eab39ab6107e8899845ad3d59bd9653f200f220920489ca2b5937696c31836040516122a991906132b3565b60405180910390a3505050565b6060600a80546122c5906140f5565b80601f01602080910402602001604051908101604052809291908181526020018280546122f1906140f5565b801561233e5780601f106123135761010080835404028352916020019161233e565b820191906000526020600020905b81548152906001019060200180831161232157829003601f168201915b5050505050905090565b60606000821415612390576040518060400160405280600181526020017f300000000000000000000000000000000000000000000000000000000000000081525090506124a4565b600082905060005b600082146123c25780806123ab90614287565b915050600a826123bb9190614359565b9150612398565b60008167ffffffffffffffff8111156123de576123dd61371b565b5b6040519080825280601f01601f1916602001820160405280156124105781602001600182028036833780820191505090505b5090505b6000851461249d57600182612429919061501e565b9150600a856124389190615052565b60306124449190614c4b565b60f81b81838151811061245a576124596141ff565b5b60200101907effffffffffffffffffffffffffffffffffffffffffffffffffffffffffffff1916908160001a905350600a856124969190614359565b9450612414565b8093505050505b919050565b600073ffffffffffffffffffffffffffffffffffffffff168473ffffffffffffffffffffffffffffffffffffffff161415612519576040517f08c379a000000000000000000000000000000000000000000000000000000000815260040161251090614b99565b60405180910390fd5b60006125236119b7565b905061254381878761253488612c1e565b61253d88612c1e565b87612a2f565b60006002600086815260200190815260200160002060008873ffffffffffffffffffffffffffffffffffffffff1673ffffffffffffffffffffffffffffffffffffffff168152602001908152602001600020549050838110156125db576040517f08c379a00000000000000000000000000000000000000000000000000000000081526004016125d290614c2b565b60405180910390fd5b8381036002600087815260200190815260200160002060008973ffffffffffffffffffffffffffffffffffffffff1673ffffffffffffffffffffffffffffffffffffffff16815260200190815260200160002081905550836002600087815260200190815260200160002060008873ffffffffffffffffffffffffffffffffffffffff1673ffffffffffffffffffffffffffffffffffffffff16815260200190815260200160002060008282546126929190614c4b565b925050819055508573ffffffffffffffffffffffffffffffffffffffff168773ffffffffffffffffffffffffffffffffffffffff168373ffffffffffffffffffffffffffffffffffffffff167fc3d58168c5ae7397731d063d5bbf3d657854427343f4c083240f7aacaa2d0f62888860405161270f929190613e08565b60405180910390a4612725828888888888612c98565b50505050505050565b600073ffffffffffffffffffffffffffffffffffffffff168373ffffffffffffffffffffffffffffffffffffffff16141561279e576040517f08c379a0000000000000000000000000000000000000000000000000000000008152600401612795906150f5565b60405180910390fd5b60006127a86119b7565b90506127d8818560006127ba87612c1e565b6127c387612c1e565b60405180602001604052806000815250612a2f565b60006002600085815260200190815260200160002060008673ffffffffffffffffffffffffffffffffffffffff1673ffffffffffffffffffffffffffffffffffffffff16815260200190815260200160002054905082811015612870576040517f08c379a000000000000000000000000000000000000000000000000000000000815260040161286790615187565b60405180910390fd5b8281036002600086815260200190815260200160002060008773ffffffffffffffffffffffffffffffffffffffff1673ffffffffffffffffffffffffffffffffffffffff16815260200190815260200160002081905550600073ffffffffffffffffffffffffffffffffffffffff168573ffffffffffffffffffffffffffffffffffffffff168373ffffffffffffffffffffffffffffffffffffffff167fc3d58168c5ae7397731d063d5bbf3d657854427343f4c083240f7aacaa2d0f62878760405161293e929190613e08565b60405180910390a45050505050565b60007fd9b67a26000000000000000000000000000000000000000000000000000000007bffffffffffffffffffffffffffffffffffffffffffffffffffffffff1916827bffffffffffffffffffffffffffffffffffffffffffffffffffffffff19161480612a1857507f0e89341c000000000000000000000000000000000000000000000000000000007bffffffffffffffffffffffffffffffffffffffffffffffffffffffff1916827bffffffffffffffffffffffffffffffffffffffffffffffffffffffff1916145b80612a285750612a2782612e7f565b5b9050919050565b505050505050565b612a568473ffffffffffffffffffffffffffffffffffffffff16612ee9565b15612c16578373ffffffffffffffffffffffffffffffffffffffff1663bc197c8187878686866040518663ffffffff1660e01b8152600401612a9c9594939291906151fc565b602060405180830381600087803b158015612ab657600080fd5b505af1925050508015612ae757506040513d601f19601f82011682018060405250810190612ae49190615279565b60015b612b8d57612af36152b3565b806308c379a01415612b505750612b086152d5565b80612b135750612b52565b806040517f08c379a0000000000000000000000000000000000000000000000000000000008152600401612b479190613427565b60405180910390fd5b505b6040517f08c379a0000000000000000000000000000000000000000000000000000000008152600401612b84906153dd565b60405180910390fd5b63bc197c8160e01b7bffffffffffffffffffffffffffffffffffffffffffffffffffffffff1916817bffffffffffffffffffffffffffffffffffffffffffffffffffffffff191614612c14576040517f08c379a0000000000000000000000000000000000000000000000000000000008152600401612c0b9061546f565b60405180910390fd5b505b505050505050565b60606000600167ffffffffffffffff811115612c3d57612c3c61371b565b5b604051908082528060200260200182016040528015612c6b5781602001602082028036833780820191505090505b5090508281600081518110612c8357612c826141ff565b5b60200260200101818152505080915050919050565b612cb78473ffffffffffffffffffffffffffffffffffffffff16612ee9565b15612e77578373ffffffffffffffffffffffffffffffffffffffff1663f23a6e6187878686866040518663ffffffff1660e01b8152600401612cfd95949392919061548f565b602060405180830381600087803b158015612d1757600080fd5b505af1925050508015612d4857506040513d601f19601f82011682018060405250810190612d459190615279565b60015b612dee57612d546152b3565b806308c379a01415612db15750612d696152d5565b80612d745750612db3565b806040517f08c379a0000000000000000000000000000000000000000000000000000000008152600401612da89190613427565b60405180910390fd5b505b6040517f08c379a0000000000000000000000000000000000000000000000000000000008152600401612de5906153dd565b60405180910390fd5b63f23a6e6160e01b7bffffffffffffffffffffffffffffffffffffffffffffffffffffffff1916817bffffffffffffffffffffffffffffffffffffffffffffffffffffffff191614612e75576040517f08c379a0000000000000000000000000000000000000000000000000000000008152600401612e6c9061546f565b60405180910390fd5b505b505050505050565b60007f01ffc9a7000000000000000000000000000000000000000000000000000000007bffffffffffffffffffffffffffffffffffffffffffffffffffffffff1916827bffffffffffffffffffffffffffffffffffffffffffffffffffffffff1916149050919050565b6000808273ffffffffffffffffffffffffffffffffffffffff163b119050919050565b828054612f18906140f5565b90600052602060002090601f016020900481019282612f3a5760008555612f81565b82601f10612f5357805160ff1916838001178555612f81565b82800160010185558215612f81579182015b82811115612f80578251825591602001919060010190612f65565b5b509050612f8e91906130e4565b5090565b82805482825590600052602060002090810192821561300b579160200282015b8281111561300a5782518260006101000a81548173ffffffffffffffffffffffffffffffffffffffff021916908373ffffffffffffffffffffffffffffffffffffffff16021790555091602001919060010190612fb2565b5b50905061301891906130e4565b5090565b828054828255906000526020600020906001016002900481019282156130d35791602002820160005b8382111561309957835183826101000a8154816bffffffffffffffffffffffff02191690836bffffffffffffffffffffffff1602179055509260200192600c01602081600b01049283019260010302613045565b80156130d15782816101000a8154906bffffffffffffffffffffffff0219169055600c01602081600b01049283019260010302613099565b505b5090506130e091906130e4565b5090565b5b808211156130fd5760008160009055506001016130e5565b5090565b6000604051905090565b600080fd5b600080fd5b600073ffffffffffffffffffffffffffffffffffffffff82169050919050565b600061314082613115565b9050919050565b61315081613135565b811461315b57600080fd5b50565b60008135905061316d81613147565b92915050565b6000819050919050565b61318681613173565b811461319157600080fd5b50565b6000813590506131a38161317d565b92915050565b600080604083850312156131c0576131bf61310b565b5b60006131ce8582860161315e565b92505060206131df85828601613194565b9150509250929050565b6131f281613173565b82525050565b600060208201905061320d60008301846131e9565b92915050565b60007fffffffff0000000000000000000000000000000000000000000000000000000082169050919050565b61324881613213565b811461325357600080fd5b50565b6000813590506132658161323f565b92915050565b6000602082840312156132815761328061310b565b5b600061328f84828501613256565b91505092915050565b60008115159050919050565b6132ad81613298565b82525050565b60006020820190506132c860008301846132a4565b92915050565b600080600080608085870312156132e8576132e761310b565b5b60006132f68782880161315e565b94505060206133078782880161315e565b935050604061331887828801613194565b925050606061332987828801613194565b91505092959194509250565b61333e81613298565b811461334957600080fd5b50565b60008135905061335b81613335565b92915050565b6000602082840312156133775761337661310b565b5b60006133858482850161334c565b91505092915050565b600081519050919050565b600082825260208201905092915050565b60005b838110156133c85780820151818401526020810190506133ad565b838111156133d7576000848401525b50505050565b6000601f19601f8301169050919050565b60006133f98261338e565b6134038185613399565b93506134138185602086016133aa565b61341c816133dd565b840191505092915050565b6000602082019050818103600083015261344181846133ee565b905092915050565b60006020828403121561345f5761345e61310b565b5b600061346d84828501613194565b91505092915050565b600080fd5b600080fd5b600080fd5b60008083601f84011261349b5761349a613476565b5b8235905067ffffffffffffffff8111156134b8576134b761347b565b5b6020830191508360208202830111156134d4576134d3613480565b5b9250929050565b600080602083850312156134f2576134f161310b565b5b600083013567ffffffffffffffff8111156135105761350f613110565b5b61351c85828601613485565b92509250509250929050565b6000806040838503121561353f5761353e61310b565b5b600061354d85828601613194565b925050602061355e85828601613194565b9150509250929050565b600081519050919050565b600082825260208201905092915050565b6000819050602082019050919050565b61359d81613135565b82525050565b60006135af8383613594565b60208301905092915050565b6000602082019050919050565b60006135d382613568565b6135dd8185613573565b93506135e883613584565b8060005b8381101561361957815161360088826135a3565b975061360b836135bb565b9250506001810190506135ec565b5085935050505092915050565b600081519050919050565b600082825260208201905092915050565b6000819050602082019050919050565b61365b81613173565b82525050565b600061366d8383613652565b60208301905092915050565b6000602082019050919050565b600061369182613626565b61369b8185613631565b93506136a683613642565b8060005b838110156136d75781516136be8882613661565b97506136c983613679565b9250506001810190506136aa565b5085935050505092915050565b600060408201905081810360008301526136fe81856135c8565b905081810360208301526137128184613686565b90509392505050565b7f4e487b7100000000000000000000000000000000000000000000000000000000600052604160045260246000fd5b613753826133dd565b810181811067ffffffffffffffff821117156137725761377161371b565b5b80604052505050565b6000613785613101565b9050613791828261374a565b919050565b600067ffffffffffffffff8211156137b1576137b061371b565b5b602082029050602081019050919050565b60006137d56137d084613796565b61377b565b905080838252602082019050602084028301858111156137f8576137f7613480565b5b835b81811015613821578061380d8882613194565b8452602084019350506020810190506137fa565b5050509392505050565b600082601f8301126138405761383f613476565b5b81356138508482602086016137c2565b91505092915050565b600080fd5b600067ffffffffffffffff8211156138795761387861371b565b5b613882826133dd565b9050602081019050919050565b82818337600083830152505050565b60006138b16138ac8461385e565b61377b565b9050828152602081018484840111156138cd576138cc613859565b5b6138d884828561388f565b509392505050565b600082601f8301126138f5576138f4613476565b5b813561390584826020860161389e565b91505092915050565b600080600080600060a0868803121561392a5761392961310b565b5b60006139388882890161315e565b95505060206139498882890161315e565b945050604086013567ffffffffffffffff81111561396a57613969613110565b5b6139768882890161382b565b935050606086013567ffffffffffffffff81111561399757613996613110565b5b6139a38882890161382b565b925050608086013567ffffffffffffffff8111156139c4576139c3613110565b5b6139d0888289016138e0565b9150509295509295909350565b6139e681613135565b82525050565b6000602082019050613a0160008301846139dd565b92915050565b600067ffffffffffffffff821115613a2257613a2161371b565b5b602082029050602081019050919050565b6000613a46613a4184613a07565b61377b565b90508083825260208201905060208402830185811115613a6957613a68613480565b5b835b81811015613a925780613a7e888261315e565b845260208401935050602081019050613a6b565b5050509392505050565b600082601f830112613ab157613ab0613476565b5b8135613ac1848260208601613a33565b91505092915050565b60008060408385031215613ae157613ae061310b565b5b600083013567ffffffffffffffff811115613aff57613afe613110565b5b613b0b85828601613a9c565b925050602083013567ffffffffffffffff811115613b2c57613b2b613110565b5b613b388582860161382b565b9150509250929050565b60006020820190508181036000830152613b5c8184613686565b905092915050565b600067ffffffffffffffff821115613b7f57613b7e61371b565b5b613b88826133dd565b9050602081019050919050565b6000613ba8613ba384613b64565b61377b565b905082815260208101848484011115613bc457613bc3613859565b5b613bcf84828561388f565b509392505050565b600082601f830112613bec57613beb613476565b5b8135613bfc848260208601613b95565b91505092915050565b600060208284031215613c1b57613c1a61310b565b5b600082013567ffffffffffffffff811115613c3957613c38613110565b5b613c4584828501613bd7565b91505092915050565b600067ffffffffffffffff821115613c6957613c6861371b565b5b602082029050602081019050919050565b60006bffffffffffffffffffffffff82169050919050565b613c9b81613c7a565b8114613ca657600080fd5b50565b600081359050613cb881613c92565b92915050565b6000613cd1613ccc84613c4e565b61377b565b90508083825260208201905060208402830185811115613cf457613cf3613480565b5b835b81811015613d1d5780613d098882613ca9565b845260208401935050602081019050613cf6565b5050509392505050565b600082601f830112613d3c57613d3b613476565b5b8135613d4c848260208601613cbe565b91505092915050565b600080600080600060a08688031215613d7157613d7061310b565b5b6000613d7f8882890161315e565b9550506020613d9088828901613194565b9450506040613da18882890161334c565b935050606086013567ffffffffffffffff811115613dc257613dc1613110565b5b613dce88828901613a9c565b925050608086013567ffffffffffffffff811115613def57613dee613110565b5b613dfb88828901613d27565b9150509295509295909350565b6000604082019050613e1d60008301856131e9565b613e2a60208301846131e9565b9392505050565b600060208284031215613e4757613e4661310b565b5b6000613e558482850161315e565b91505092915050565b60008060408385031215613e7557613e7461310b565b5b6000613e838582860161315e565b9250506020613e948582860161334c565b9150509250929050565b60008060408385031215613eb557613eb461310b565b5b6000613ec38582860161315e565b9250506020613ed48582860161315e565b9150509250929050565b600080600080600060a08688031215613efa57613ef961310b565b5b6000613f088882890161315e565b9550506020613f198882890161315e565b9450506040613f2a88828901613194565b9350506060613f3b88828901613194565b925050608086013567ffffffffffffffff811115613f5c57613f5b613110565b5b613f68888289016138e0565b9150509295509295909350565b600080600060608486031215613f8e57613f8d61310b565b5b6000613f9c8682870161315e565b9350506020613fad86828701613194565b9250506040613fbe86828701613194565b9150509250925092565b7f455243313135353a2062616c616e636520717565727920666f7220746865207a60008201527f65726f2061646472657373000000000000000000000000000000000000000000602082015250565b6000614024602b83613399565b915061402f82613fc8565b604082019050919050565b6000602082019050818103600083015261405381614017565b9050919050565b7f455243313135353a204e6f7420656e6f75676820636f70696573000000000000600082015250565b6000614090601a83613399565b915061409b8261405a565b602082019050919050565b600060208201905081810360008301526140bf81614083565b9050919050565b7f4e487b7100000000000000000000000000000000000000000000000000000000600052602260045260246000fd5b6000600282049050600182168061410d57607f821691505b60208210811415614121576141206140c6565b5b50919050565b7f4e6f20757365722064657461696c732070726f76696465640000000000000000600082015250565b600061415d601883613399565b915061416882614127565b602082019050919050565b6000602082019050818103600083015261418c81614150565b9050919050565b7f546f6f206d616e792075736572737320746f2077686974656c69737400000000600082015250565b60006141c9601c83613399565b91506141d482614193565b602082019050919050565b600060208201905081810360008301526141f8816141bc565b9050919050565b7f4e487b7100000000000000000000000000000000000000000000000000000000600052603260045260246000fd5b7f4e487b7100000000000000000000000000000000000000000000000000000000600052601160045260246000fd5b600061426882613173565b9150600082141561427c5761427b61422e565b5b600182039050919050565b600061429282613173565b91507fffffffffffffffffffffffffffffffffffffffffffffffffffffffffffffffff8214156142c5576142c461422e565b5b600182019050919050565b60006142db82613173565b91506142e683613173565b9250817fffffffffffffffffffffffffffffffffffffffffffffffffffffffffffffffff048311821515161561431f5761431e61422e565b5b828202905092915050565b7f4e487b7100000000000000000000000000000000000000000000000000000000600052601260045260246000fd5b600061436482613173565b915061436f83613173565b92508261437f5761437e61432a565b5b828204905092915050565b7f455243313135353a207472616e736665722063616c6c6572206973206e6f742060008201527f6f776e6572206e6f7220617070726f7665640000000000000000000000000000602082015250565b60006143e6603283613399565b91506143f18261438a565b604082019050919050565b60006020820190508181036000830152614415816143d9565b9050919050565b7f455243313135353a206163636f756e747320616e6420696473206c656e67746860008201527f206d69736d617463680000000000000000000000000000000000000000000000602082015250565b6000614478602983613399565b91506144838261441c565b604082019050919050565b600060208201905081810360008301526144a78161446b565b9050919050565b60008190508160005260206000209050919050565b600081546144d0816140f5565b6144da8186613399565b945060018216600081146144f557600181146145075761453a565b60ff198316865260208601935061453a565b614510856144ae565b60005b8381101561453257815481890152600182019150602081019050614513565b808801955050505b50505092915050565b6000602082019050818103600083015261455d81846144c3565b905092915050565b7f41646472657373206e6f742077686974656c6973746564000000000000000000600082015250565b600061459b601783613399565b91506145a682614565565b602082019050919050565b600060208201905081810360008301526145ca8161458e565b9050919050565b7f455243313135354d657461646174613a2055524920717565727920666f72206e60008201527f6f6e6578697374656e7420746f6b656e00000000000000000000000000000000602082015250565b600061462d603083613399565b9150614638826145d1565b604082019050919050565b6000602082019050818103600083015261465c81614620565b9050919050565b600081905092915050565b60006146798261338e565b6146838185614663565b93506146938185602086016133aa565b80840191505092915050565b600081546146ac816140f5565b6146b68186614663565b945060018216600081146146d157600181146146e257614715565b60ff19831686528186019350614715565b6146eb856144ae565b60005b8381101561470d578154818901526001820191506020810190506146ee565b838801955050505b50505092915050565b600061472a828661466e565b9150614736828561466e565b9150614742828461469f565b9150819050949350505050565b7f455243313135353a2063616c6c6572206973206e6f74206f776e6572206e6f7260008201527f20617070726f7665640000000000000000000000000000000000000000000000602082015250565b60006147ab602983613399565b91506147b68261474f565b604082019050919050565b600060208201905081810360008301526147da8161479e565b9050919050565b7f4f776e61626c653a206e6577206f776e657220697320746865207a65726f206160008201527f6464726573730000000000000000000000000000000000000000000000000000602082015250565b600061483d602683613399565b9150614848826147e1565b604082019050919050565b6000602082019050818103600083015261486c81614830565b9050919050565b7f4d6178696d756d20557365727320616c72656164792077686974656c6973746560008201527f6400000000000000000000000000000000000000000000000000000000000000602082015250565b60006148cf602183613399565b91506148da82614873565b604082019050919050565b600060208201905081810360008301526148fe816148c2565b9050919050565b7f455243313135353a204e6f7420746865206f776e6572206f662074686973207460008201527f6f6b656e00000000000000000000000000000000000000000000000000000000602082015250565b6000614961602483613399565b915061496c82614905565b604082019050919050565b6000602082019050818103600083015261499081614954565b9050919050565b7f455243313135353a204e6f7420656e6f756768207175616e7469747920746f2060008201527f6275726e00000000000000000000000000000000000000000000000000000000602082015250565b60006149f3602483613399565b91506149fe82614997565b604082019050919050565b60006020820190508181036000830152614a22816149e6565b9050919050565b7f4f776e61626c653a2063616c6c6572206973206e6f7420746865206f776e6572600082015250565b6000614a5f602083613399565b9150614a6a82614a29565b602082019050919050565b60006020820190508181036000830152614a8e81614a52565b9050919050565b7f455243313135353a2069647320616e6420616d6f756e7473206c656e6774682060008201527f6d69736d61746368000000000000000000000000000000000000000000000000602082015250565b6000614af1602883613399565b9150614afc82614a95565b604082019050919050565b60006020820190508181036000830152614b2081614ae4565b9050919050565b7f455243313135353a207472616e7366657220746f20746865207a65726f20616460008201527f6472657373000000000000000000000000000000000000000000000000000000602082015250565b6000614b83602583613399565b9150614b8e82614b27565b604082019050919050565b60006020820190508181036000830152614bb281614b76565b9050919050565b7f455243313135353a20696e73756666696369656e742062616c616e636520666f60008201527f72207472616e7366657200000000000000000000000000000000000000000000602082015250565b6000614c15602a83613399565b9150614c2082614bb9565b604082019050919050565b60006020820190508181036000830152614c4481614c08565b9050919050565b6000614c5682613173565b9150614c6183613173565b9250827fffffffffffffffffffffffffffffffffffffffffffffffffffffffffffffffff03821115614c9657614c9561422e565b5b828201905092915050565b60006040820190508181036000830152614cbb8185613686565b90508181036020830152614ccf8184613686565b90509392505050565b7f455243313135353a206d696e7420746f20746865207a65726f2061646472657360008201527f7300000000000000000000000000000000000000000000000000000000000000602082015250565b6000614d34602183613399565b9150614d3f82614cd8565b604082019050919050565b60006020820190508181036000830152614d6381614d27565b9050919050565b7f4e6f20526f79616c74792064657461696c732070726f76696465640000000000600082015250565b6000614da0601b83613399565b9150614dab82614d6a565b602082019050919050565b60006020820190508181036000830152614dcf81614d93565b9050919050565b7f546f6f206d616e7920726f79616c74792072656369657665727320646574616960008201527f6c73000000000000000000000000000000000000000000000000000000000000602082015250565b6000614e32602283613399565b9150614e3d82614dd6565b604082019050919050565b60006020820190508181036000830152614e6181614e25565b9050919050565b7f4d69736d61746368206f6620526f79616c74792072656369657665727320616e60008201527f6420746865697220666565730000000000000000000000000000000000000000602082015250565b6000614ec4602c83613399565b9150614ecf82614e68565b604082019050919050565b60006020820190508181036000830152614ef381614eb7565b9050919050565b7f455243323938313a20726f79616c7479206665652077696c6c2065786365656460008201527f2073616c65507269636500000000000000000000000000000000000000000000602082015250565b6000614f56602a83613399565b9150614f6182614efa565b604082019050919050565b60006020820190508181036000830152614f8581614f49565b9050919050565b7f455243313135353a2073657474696e6720617070726f76616c2073746174757360008201527f20666f722073656c660000000000000000000000000000000000000000000000602082015250565b6000614fe8602983613399565b9150614ff382614f8c565b604082019050919050565b6000602082019050818103600083015261501781614fdb565b9050919050565b600061502982613173565b915061503483613173565b9250828210156150475761504661422e565b5b828203905092915050565b600061505d82613173565b915061506883613173565b9250826150785761507761432a565b5b828206905092915050565b7f455243313135353a206275726e2066726f6d20746865207a65726f206164647260008201527f6573730000000000000000000000000000000000000000000000000000000000602082015250565b60006150df602383613399565b91506150ea82615083565b604082019050919050565b6000602082019050818103600083015261510e816150d2565b9050919050565b7f455243313135353a206275726e20616d6f756e7420657863656564732062616c60008201527f616e636500000000000000000000000000000000000000000000000000000000602082015250565b6000615171602483613399565b915061517c82615115565b604082019050919050565b600060208201905081810360008301526151a081615164565b9050919050565b600081519050919050565b600082825260208201905092915050565b60006151ce826151a7565b6151d881856151b2565b93506151e88185602086016133aa565b6151f1816133dd565b840191505092915050565b600060a08201905061521160008301886139dd565b61521e60208301876139dd565b81810360408301526152308186613686565b905081810360608301526152448185613686565b9050818103608083015261525881846151c3565b90509695505050505050565b6000815190506152738161323f565b92915050565b60006020828403121561528f5761528e61310b565b5b600061529d84828501615264565b91505092915050565b60008160e01c9050919050565b600060033d11156152d25760046000803e6152cf6000516152a6565b90505b90565b600060443d10156152e557615368565b6152ed613101565b60043d036004823e80513d602482011167ffffffffffffffff82111715615315575050615368565b808201805167ffffffffffffffff8111156153335750505050615368565b80602083010160043d038501811115615350575050505050615368565b61535f8260200185018661374a565b82955050505050505b90565b7f455243313135353a207472616e7366657220746f206e6f6e204552433131353560008201527f526563656976657220696d706c656d656e746572000000000000000000000000602082015250565b60006153c7603483613399565b91506153d28261536b565b604082019050919050565b600060208201905081810360008301526153f6816153ba565b9050919050565b7f455243313135353a204552433131353552656365697665722072656a6563746560008201527f6420746f6b656e73000000000000000000000000000000000000000000000000602082015250565b6000615459602883613399565b9150615464826153fd565b604082019050919050565b600060208201905081810360008301526154888161544c565b9050919050565b600060a0820190506154a460008301886139dd565b6154b160208301876139dd565b6154be60408301866131e9565b6154cb60608301856131e9565b81810360808301526154dd81846151c3565b9050969550505050505056fea26469706673582212200ec561e20d35734b0309b8a593133acc30d69c4e38ab90353b57942af06e1e4d64736f6c63430008090033",
  "linkReferences": {},
  "deployedLinkReferences": {}
}