{
  "_format": "hh-sol-artifact-1",
  "contractName": "ERC1155Factory",
  "sourceName": "contracts/factoryContracts/ERC1155Factory.sol",
  "abi": [
    {
      "inputs": [
        {
          "internalType": "string",
          "name": "name_",
          "type": "string"
        },
        {
          "internalType": "string",
          "name": "symbol_",
          "type": "string"
        },
        {
          "internalType": "bool",
          "name": "defaultRoyalty",
          "type": "bool"
        },
        {
          "internalType": "address[]",
          "name": "royaltyReceiver",
          "type": "address[]"
        },
        {
          "internalType": "uint96[]",
          "name": "royaltyFeesInBips",
          "type": "uint96[]"
        }
      ],
      "stateMutability": "nonpayable",
      "type": "constructor"
    },
    {
      "anonymous": false,
      "inputs": [
        {
          "indexed": true,
          "internalType": "address",
          "name": "account",
          "type": "address"
        },
        {
          "indexed": true,
          "internalType": "address",
          "name": "operator",
          "type": "address"
        },
        {
          "indexed": false,
          "internalType": "bool",
          "name": "approved",
          "type": "bool"
        }
      ],
      "name": "ApprovalForAll",
      "type": "event"
    },
    {
      "anonymous": false,
      "inputs": [
        {
          "indexed": false,
          "internalType": "string",
          "name": "uri",
          "type": "string"
        }
      ],
      "name": "BaseURI",
      "type": "event"
    },
    {
      "anonymous": false,
      "inputs": [
        {
          "indexed": true,
          "internalType": "address",
          "name": "previousOwner",
          "type": "address"
        },
        {
          "indexed": true,
          "internalType": "address",
          "name": "newOwner",
          "type": "address"
        }
      ],
      "name": "OwnershipTransferred",
      "type": "event"
    },
    {
      "anonymous": false,
      "inputs": [
        {
          "indexed": true,
          "internalType": "address",
          "name": "operator",
          "type": "address"
        },
        {
          "indexed": true,
          "internalType": "address",
          "name": "from",
          "type": "address"
        },
        {
          "indexed": true,
          "internalType": "address",
          "name": "to",
          "type": "address"
        },
        {
          "indexed": false,
          "internalType": "uint256[]",
          "name": "ids",
          "type": "uint256[]"
        },
        {
          "indexed": false,
          "internalType": "uint256[]",
          "name": "values",
          "type": "uint256[]"
        }
      ],
      "name": "TransferBatch",
      "type": "event"
    },
    {
      "anonymous": false,
      "inputs": [
        {
          "indexed": true,
          "internalType": "address",
          "name": "operator",
          "type": "address"
        },
        {
          "indexed": true,
          "internalType": "address",
          "name": "from",
          "type": "address"
        },
        {
          "indexed": true,
          "internalType": "address",
          "name": "to",
          "type": "address"
        },
        {
          "indexed": false,
          "internalType": "uint256",
          "name": "id",
          "type": "uint256"
        },
        {
          "indexed": false,
          "internalType": "uint256",
          "name": "value",
          "type": "uint256"
        }
      ],
      "name": "TransferSingle",
      "type": "event"
    },
    {
      "anonymous": false,
      "inputs": [
        {
          "indexed": false,
          "internalType": "string",
          "name": "value",
          "type": "string"
        },
        {
          "indexed": true,
          "internalType": "uint256",
          "name": "id",
          "type": "uint256"
        }
      ],
      "name": "URI",
      "type": "event"
    },
    {
      "anonymous": false,
      "inputs": [
        {
          "indexed": false,
          "internalType": "bool",
          "name": "whitelistEnabled",
          "type": "bool"
        }
      ],
      "name": "WhiteListEnabled",
      "type": "event"
    },
    {
      "inputs": [
        {
          "internalType": "uint256",
          "name": "",
          "type": "uint256"
        }
      ],
      "name": "_creators",
      "outputs": [
        {
          "internalType": "address",
          "name": "",
          "type": "address"
        }
      ],
      "stateMutability": "view",
      "type": "function"
    },
    {
      "inputs": [
        {
          "internalType": "address",
          "name": "account",
          "type": "address"
        },
        {
          "internalType": "uint256",
          "name": "id",
          "type": "uint256"
        }
      ],
      "name": "balanceOf",
      "outputs": [
        {
          "internalType": "uint256",
          "name": "",
          "type": "uint256"
        }
      ],
      "stateMutability": "view",
      "type": "function"
    },
    {
      "inputs": [
        {
          "internalType": "address[]",
          "name": "accounts",
          "type": "address[]"
        },
        {
          "internalType": "uint256[]",
          "name": "ids",
          "type": "uint256[]"
        }
      ],
      "name": "balanceOfBatch",
      "outputs": [
        {
          "internalType": "uint256[]",
          "name": "",
          "type": "uint256[]"
        }
      ],
      "stateMutability": "view",
      "type": "function"
    },
    {
      "inputs": [],
      "name": "baseURI",
      "outputs": [
        {
          "internalType": "string",
          "name": "",
          "type": "string"
        }
      ],
      "stateMutability": "view",
      "type": "function"
    },
    {
      "inputs": [
        {
          "internalType": "address",
          "name": "_from",
          "type": "address"
        },
        {
          "internalType": "uint256",
          "name": "_tokenId",
          "type": "uint256"
        },
        {
          "internalType": "uint256",
          "name": "_amount",
          "type": "uint256"
        }
      ],
      "name": "burn",
      "outputs": [],
      "stateMutability": "nonpayable",
      "type": "function"
    },
    {
      "inputs": [
        {
          "internalType": "address",
          "name": "account",
          "type": "address"
        },
        {
          "internalType": "address",
          "name": "operator",
          "type": "address"
        }
      ],
      "name": "isApprovedForAll",
      "outputs": [
        {
          "internalType": "bool",
          "name": "",
          "type": "bool"
        }
      ],
      "stateMutability": "view",
      "type": "function"
    },
    {
      "inputs": [
        {
          "internalType": "address",
          "name": "creator",
          "type": "address"
        },
        {
          "internalType": "uint256",
          "name": "copies",
          "type": "uint256"
        },
        {
          "internalType": "bool",
          "name": "tokenRoyalty",
          "type": "bool"
        },
        {
          "internalType": "address[]",
          "name": "royaltyReceiver",
          "type": "address[]"
        },
        {
          "internalType": "uint96[]",
          "name": "tokenRoyaltyInBips",
          "type": "uint96[]"
        }
      ],
      "name": "mint",
      "outputs": [
        {
          "internalType": "uint256",
          "name": "",
          "type": "uint256"
        },
        {
          "internalType": "uint256",
          "name": "",
          "type": "uint256"
        }
      ],
      "stateMutability": "nonpayable",
      "type": "function"
    },
    {
      "inputs": [],
      "name": "name",
      "outputs": [
        {
          "internalType": "string",
          "name": "",
          "type": "string"
        }
      ],
      "stateMutability": "view",
      "type": "function"
    },
    {
      "inputs": [],
      "name": "owner",
      "outputs": [
        {
          "internalType": "address",
          "name": "",
          "type": "address"
        }
      ],
      "stateMutability": "view",
      "type": "function"
    },
    {
      "inputs": [
        {
          "internalType": "address[]",
          "name": "currentAddresses",
          "type": "address[]"
        }
      ],
      "name": "removeWhitelist",
      "outputs": [],
      "stateMutability": "nonpayable",
      "type": "function"
    },
    {
      "inputs": [],
      "name": "renounceOwnership",
      "outputs": [],
      "stateMutability": "nonpayable",
      "type": "function"
    },
    {
      "inputs": [
        {
          "internalType": "uint256",
          "name": "_tokenId",
          "type": "uint256"
        },
        {
          "internalType": "uint256",
          "name": "_salePrice",
          "type": "uint256"
        }
      ],
      "name": "royaltyInfo",
      "outputs": [
        {
          "internalType": "address[]",
          "name": "",
          "type": "address[]"
        },
        {
          "internalType": "uint256[]",
          "name": "",
          "type": "uint256[]"
        }
      ],
      "stateMutability": "view",
      "type": "function"
    },
    {
      "inputs": [
        {
          "internalType": "address",
          "name": "from",
          "type": "address"
        },
        {
          "internalType": "address",
          "name": "to",
          "type": "address"
        },
        {
          "internalType": "uint256[]",
          "name": "ids",
          "type": "uint256[]"
        },
        {
          "internalType": "uint256[]",
          "name": "amounts",
          "type": "uint256[]"
        },
        {
          "internalType": "bytes",
          "name": "data",
          "type": "bytes"
        }
      ],
      "name": "safeBatchTransferFrom",
      "outputs": [],
      "stateMutability": "nonpayable",
      "type": "function"
    },
    {
      "inputs": [
        {
          "internalType": "address",
          "name": "from",
          "type": "address"
        },
        {
          "internalType": "address",
          "name": "to",
          "type": "address"
        },
        {
          "internalType": "uint256",
          "name": "id",
          "type": "uint256"
        },
        {
          "internalType": "uint256",
          "name": "amount",
          "type": "uint256"
        },
        {
          "internalType": "bytes",
          "name": "data",
          "type": "bytes"
        }
      ],
      "name": "safeTransferFrom",
      "outputs": [],
      "stateMutability": "nonpayable",
      "type": "function"
    },
    {
      "inputs": [
        {
          "internalType": "address",
          "name": "operator",
          "type": "address"
        },
        {
          "internalType": "bool",
          "name": "approved",
          "type": "bool"
        }
      ],
      "name": "setApprovalForAll",
      "outputs": [],
      "stateMutability": "nonpayable",
      "type": "function"
    },
    {
      "inputs": [
        {
          "internalType": "string",
          "name": "baseURI_",
          "type": "string"
        }
      ],
      "name": "setBaseURI",
      "outputs": [],
      "stateMutability": "nonpayable",
      "type": "function"
    },
    {
      "inputs": [
        {
          "internalType": "address[]",
          "name": "newAddresses",
          "type": "address[]"
        }
      ],
      "name": "setWhitelist",
      "outputs": [],
      "stateMutability": "nonpayable",
      "type": "function"
    },
    {
      "inputs": [
        {
          "internalType": "bool",
          "name": "_state",
          "type": "bool"
        }
      ],
      "name": "setWhitelistEnabled",
      "outputs": [],
      "stateMutability": "nonpayable",
      "type": "function"
    },
    {
      "inputs": [
        {
          "internalType": "bytes4",
          "name": "interfaceId",
          "type": "bytes4"
        }
      ],
      "name": "supportsInterface",
      "outputs": [
        {
          "internalType": "bool",
          "name": "",
          "type": "bool"
        }
      ],
      "stateMutability": "view",
      "type": "function"
    },
    {
      "inputs": [],
      "name": "symbol",
      "outputs": [
        {
          "internalType": "string",
          "name": "",
          "type": "string"
        }
      ],
      "stateMutability": "view",
      "type": "function"
    },
    {
      "inputs": [
        {
          "internalType": "uint256",
          "name": "_tokenId",
          "type": "uint256"
        }
      ],
      "name": "tokenURI",
      "outputs": [
        {
          "internalType": "string",
          "name": "",
          "type": "string"
        }
      ],
      "stateMutability": "view",
      "type": "function"
    },
    {
      "inputs": [
        {
          "internalType": "address",
          "name": "_from",
          "type": "address"
        },
        {
          "internalType": "address",
          "name": "_to",
          "type": "address"
        },
        {
          "internalType": "uint256",
          "name": "_tokenId",
          "type": "uint256"
        },
        {
          "internalType": "uint256",
          "name": "_copies",
          "type": "uint256"
        }
      ],
      "name": "transfer",
      "outputs": [
        {
          "internalType": "bool",
          "name": "",
          "type": "bool"
        }
      ],
      "stateMutability": "nonpayable",
      "type": "function"
    },
    {
      "inputs": [
        {
          "internalType": "address",
          "name": "newOwner",
          "type": "address"
        }
      ],
      "name": "transferOwnership",
      "outputs": [],
      "stateMutability": "nonpayable",
      "type": "function"
    },
    {
      "inputs": [
        {
          "internalType": "uint256",
          "name": "",
          "type": "uint256"
        }
      ],
      "name": "uri",
      "outputs": [
        {
          "internalType": "string",
          "name": "",
          "type": "string"
        }
      ],
      "stateMutability": "view",
      "type": "function"
    },
    {
      "inputs": [],
      "name": "uriSuffix",
      "outputs": [
        {
          "internalType": "string",
          "name": "",
          "type": "string"
        }
      ],
      "stateMutability": "view",
      "type": "function"
    },
    {
      "inputs": [
        {
          "internalType": "address",
          "name": "",
          "type": "address"
        }
      ],
      "name": "whitelist",
      "outputs": [
        {
          "internalType": "bool",
          "name": "",
          "type": "bool"
        }
      ],
      "stateMutability": "view",
      "type": "function"
    },
    {
      "inputs": [],
      "name": "whitelistEnabled",
      "outputs": [
        {
          "internalType": "bool",
          "name": "",
          "type": "bool"
        }
      ],
      "stateMutability": "view",
      "type": "function"
    }
  ],
  "bytecode": "0x608060405260405180602001604052806000815250600a90805190602001906200002b92919062000484565b506040518060400160405280600581526020017f2e6a736f6e000000000000000000000000000000000000000000000000000000815250600b90805190602001906200007992919062000484565b506000600c556000600d60006101000a81548160ff021916908315150217905550348015620000a757600080fd5b50604051620065fb380380620065fb8339818101604052810190620000cd919062000acb565b84848160009080519060200190620000e792919062000484565b5080600190805190602001906200010092919062000484565b5050506200012362000117620001ab60201b60201c565b620001b360201b60201c565b6000859050600085905060008251141580156200014257506000815114155b62000184576040517f08c379a00000000000000000000000000000000000000000000000000000000081526004016200017b9062000c56565b60405180910390fd5b84156200019e576200019d84846200027960201b60201c565b5b505050505050506200102a565b600033905090565b6000600860009054906101000a900473ffffffffffffffffffffffffffffffffffffffff16905081600860006101000a81548173ffffffffffffffffffffffffffffffffffffffff021916908373ffffffffffffffffffffffffffffffffffffffff1602179055508173ffffffffffffffffffffffffffffffffffffffff168173ffffffffffffffffffffffffffffffffffffffff167f8be0079c531659141344cd1fd0a4f28419497f9722a3daafe3b4186f6b6457e060405160405180910390a35050565b6000825111620002c0576040517f08c379a0000000000000000000000000000000000000000000000000000000008152600401620002b79062000cc8565b60405180910390fd5b60058251111562000308576040517f08c379a0000000000000000000000000000000000000000000000000000000008152600401620002ff9062000d60565b60405180910390fd5b80518251146200034f576040517f08c379a0000000000000000000000000000000000000000000000000000000008152600401620003469062000df8565b60405180910390fd5b6000805b8251811015620003ae5782818151811062000373576200037262000e1a565b5b60200260200101516bffffffffffffffffffffffff168262000396919062000e82565b91508080620003a59062000edf565b91505062000353565b50620003bf6200047a60201b60201c565b6bffffffffffffffffffffffff1681111562000412576040517f08c379a0000000000000000000000000000000000000000000000000000000008152600401620004099062000fa3565b60405180910390fd5b606080849050839150604051806040016040528082815260200183815250600560008201518160000190805190602001906200045092919062000515565b5060208201518160010190805190602001906200046f929190620005a4565b509050505050505050565b6000612710905090565b828054620004929062000ff4565b90600052602060002090601f016020900481019282620004b6576000855562000502565b82601f10620004d157805160ff191683800117855562000502565b8280016001018555821562000502579182015b8281111562000501578251825591602001919060010190620004e4565b5b50905062000511919062000673565b5090565b82805482825590600052602060002090810192821562000591579160200282015b82811115620005905782518260006101000a81548173ffffffffffffffffffffffffffffffffffffffff021916908373ffffffffffffffffffffffffffffffffffffffff1602179055509160200191906001019062000536565b5b509050620005a0919062000673565b5090565b82805482825590600052602060002090600101600290048101928215620006605791602002820160005b838211156200062457835183826101000a8154816bffffffffffffffffffffffff02191690836bffffffffffffffffffffffff1602179055509260200192600c01602081600b01049283019260010302620005ce565b80156200065e5782816101000a8154906bffffffffffffffffffffffff0219169055600c01602081600b0104928301926001030262000624565b505b5090506200066f919062000673565b5090565b5b808211156200068e57600081600090555060010162000674565b5090565b6000604051905090565b600080fd5b600080fd5b600080fd5b600080fd5b6000601f19601f8301169050919050565b7f4e487b7100000000000000000000000000000000000000000000000000000000600052604160045260246000fd5b620006fb82620006b0565b810181811067ffffffffffffffff821117156200071d576200071c620006c1565b5b80604052505050565b60006200073262000692565b9050620007408282620006f0565b919050565b600067ffffffffffffffff821115620007635762000762620006c1565b5b6200076e82620006b0565b9050602081019050919050565b60005b838110156200079b5780820151818401526020810190506200077e565b83811115620007ab576000848401525b50505050565b6000620007c8620007c28462000745565b62000726565b905082815260208101848484011115620007e757620007e6620006ab565b5b620007f48482856200077b565b509392505050565b600082601f830112620008145762000813620006a6565b5b815162000826848260208601620007b1565b91505092915050565b60008115159050919050565b62000846816200082f565b81146200085257600080fd5b50565b60008151905062000866816200083b565b92915050565b600067ffffffffffffffff8211156200088a5762000889620006c1565b5b602082029050602081019050919050565b600080fd5b600073ffffffffffffffffffffffffffffffffffffffff82169050919050565b6000620008cd82620008a0565b9050919050565b620008df81620008c0565b8114620008eb57600080fd5b50565b600081519050620008ff81620008d4565b92915050565b60006200091c62000916846200086c565b62000726565b905080838252602082019050602084028301858111156200094257620009416200089b565b5b835b818110156200096f57806200095a8882620008ee565b84526020840193505060208101905062000944565b5050509392505050565b600082601f830112620009915762000990620006a6565b5b8151620009a384826020860162000905565b91505092915050565b600067ffffffffffffffff821115620009ca57620009c9620006c1565b5b602082029050602081019050919050565b60006bffffffffffffffffffffffff82169050919050565b620009fe81620009db565b811462000a0a57600080fd5b50565b60008151905062000a1e81620009f3565b92915050565b600062000a3b62000a3584620009ac565b62000726565b9050808382526020820190506020840283018581111562000a615762000a606200089b565b5b835b8181101562000a8e578062000a79888262000a0d565b84526020840193505060208101905062000a63565b5050509392505050565b600082601f83011262000ab05762000aaf620006a6565b5b815162000ac284826020860162000a24565b91505092915050565b600080600080600060a0868803121562000aea5762000ae96200069c565b5b600086015167ffffffffffffffff81111562000b0b5762000b0a620006a1565b5b62000b1988828901620007fc565b955050602086015167ffffffffffffffff81111562000b3d5762000b3c620006a1565b5b62000b4b88828901620007fc565b945050604062000b5e8882890162000855565b935050606086015167ffffffffffffffff81111562000b825762000b81620006a1565b5b62000b908882890162000979565b925050608086015167ffffffffffffffff81111562000bb45762000bb3620006a1565b5b62000bc28882890162000a98565b9150509295509295909350565b600082825260208201905092915050565b7f455243313135353a2043686f6f73652061206e616d6520616e642073796d626f60008201527f6c00000000000000000000000000000000000000000000000000000000000000602082015250565b600062000c3e60218362000bcf565b915062000c4b8262000be0565b604082019050919050565b6000602082019050818103600083015262000c718162000c2f565b9050919050565b7f4e6f20526f79616c74792064657461696c732070726f76696465640000000000600082015250565b600062000cb0601b8362000bcf565b915062000cbd8262000c78565b602082019050919050565b6000602082019050818103600083015262000ce38162000ca1565b9050919050565b7f546f6f206d616e7920726f79616c74792072656369657665727320646574616960008201527f6c73000000000000000000000000000000000000000000000000000000000000602082015250565b600062000d4860228362000bcf565b915062000d558262000cea565b604082019050919050565b6000602082019050818103600083015262000d7b8162000d39565b9050919050565b7f4d69736d61746368206f6620526f79616c74792072656369657665727320616e60008201527f6420746865697220666565730000000000000000000000000000000000000000602082015250565b600062000de0602c8362000bcf565b915062000ded8262000d82565b604082019050919050565b6000602082019050818103600083015262000e138162000dd1565b9050919050565b7f4e487b7100000000000000000000000000000000000000000000000000000000600052603260045260246000fd5b6000819050919050565b7f4e487b7100000000000000000000000000000000000000000000000000000000600052601160045260246000fd5b600062000e8f8262000e49565b915062000e9c8362000e49565b9250827fffffffffffffffffffffffffffffffffffffffffffffffffffffffffffffffff0382111562000ed45762000ed362000e53565b5b828201905092915050565b600062000eec8262000e49565b91507fffffffffffffffffffffffffffffffffffffffffffffffffffffffffffffffff82141562000f225762000f2162000e53565b5b600182019050919050565b7f455243323938313a20726f79616c7479206665652077696c6c2065786365656460008201527f2073616c65507269636500000000000000000000000000000000000000000000602082015250565b600062000f8b602a8362000bcf565b915062000f988262000f2d565b604082019050919050565b6000602082019050818103600083015262000fbe8162000f7c565b9050919050565b7f4e487b7100000000000000000000000000000000000000000000000000000000600052602260045260246000fd5b600060028204905060018216806200100d57607f821691505b6020821081141562001024576200102362000fc5565b5b50919050565b6155c1806200103a6000396000f3fe608060405234801561001057600080fd5b50600436106101a85760003560e01c806355f804b3116100f9578063a22cb46511610097578063f242432a11610071578063f242432a14610509578063f2fde38b14610525578063f421764814610541578063f5298aca1461055d576101a8565b8063a22cb4651461048d578063c87b56dd146104a9578063e985e9c5146104d9576101a8565b8063715018a6116100d3578063715018a6146104175780638da5cb5b1461042157806395d89b411461043f5780639b19251a1461045d576101a8565b806355f804b3146103ac578063562ef164146103c85780636c0360eb146103f9576101a8565b806323245216116101665780634816edf4116101405780634816edf4146103105780634e1273f41461034057806351fb012d146103705780635503a0e81461038e576101a8565b806323245216146102a75780632a55205a146102c35780632eb2c2d6146102f4576101a8565b8062fdd58e146101ad57806301ffc9a7146101dd5780630411b2521461020d578063052d9e7e1461023d57806306fdde03146102595780630e89341c14610277575b600080fd5b6101c760048036038101906101c291906131df565b610579565b6040516101d4919061322e565b60405180910390f35b6101f760048036038101906101f291906132a1565b610643565b60405161020491906132e9565b60405180910390f35b61022760048036038101906102229190613304565b610725565b60405161023491906132e9565b60405180910390f35b61025760048036038101906102529190613397565b61079b565b005b610261610806565b60405161026e919061345d565b60405180910390f35b610291600480360381019061028c919061347f565b610894565b60405161029e919061345d565b60405180910390f35b6102c160048036038101906102bc9190613511565b610928565b005b6102dd60048036038101906102d8919061355e565b610a72565b6040516102eb92919061371a565b60405180910390f35b61030e60048036038101906103099190613944565b610df9565b005b61032a6004803603810190610325919061347f565b610e9a565b6040516103379190613a22565b60405180910390f35b61035a60048036038101906103559190613b00565b610ecd565b6040516103679190613b78565b60405180910390f35b610378610fe6565b60405161038591906132e9565b60405180910390f35b610396610ff9565b6040516103a3919061345d565b60405180910390f35b6103c660048036038101906103c19190613c3b565b611087565b005b6103e260048036038101906103dd9190613d8b565b6110e1565b6040516103f0929190613e3e565b60405180910390f35b6104016112b2565b60405161040e919061345d565b60405180910390f35b61041f611340565b005b610429611354565b6040516104369190613a22565b60405180910390f35b61044761137e565b604051610454919061345d565b60405180910390f35b61047760048036038101906104729190613e67565b61140c565b60405161048491906132e9565b60405180910390f35b6104a760048036038101906104a29190613e94565b61142c565b005b6104c360048036038101906104be919061347f565b611442565b6040516104d0919061345d565b60405180910390f35b6104f360048036038101906104ee9190613ed4565b6114f1565b60405161050091906132e9565b60405180910390f35b610523600480360381019061051e9190613f14565b611585565b005b61053f600480360381019061053a9190613e67565b611626565b005b61055b60048036038101906105569190613511565b6116aa565b005b61057760048036038101906105729190613fab565b611842565b005b60008073ffffffffffffffffffffffffffffffffffffffff168373ffffffffffffffffffffffffffffffffffffffff1614156105ea576040517f08c379a00000000000000000000000000000000000000000000000000000000081526004016105e190614070565b60405180910390fd5b6002600083815260200190815260200160002060008473ffffffffffffffffffffffffffffffffffffffff1673ffffffffffffffffffffffffffffffffffffffff16815260200190815260200160002054905092915050565b60007fd9b67a26000000000000000000000000000000000000000000000000000000007bffffffffffffffffffffffffffffffffffffffffffffffffffffffff1916827bffffffffffffffffffffffffffffffffffffffffffffffffffffffff1916148061070e57507f0e89341c000000000000000000000000000000000000000000000000000000007bffffffffffffffffffffffffffffffffffffffffffffffffffffffff1916827bffffffffffffffffffffffffffffffffffffffffffffffffffffffff1916145b8061071e575061071d826118eb565b5b9050919050565b6000816107328685610579565b1015610773576040517f08c379a000000000000000000000000000000000000000000000000000000000815260040161076a906140dc565b60405180910390fd5b61078f8585858560405180602001604052806000815250611585565b60019050949350505050565b6107a3611965565b80600d60006101000a81548160ff0219169083151502179055507f218e591c4b0d49651b4b42843cb8cc59080122def3d2271f56ef2e21896753ec600d60009054906101000a900460ff166040516107fb91906132e9565b60405180910390a150565b600080546108139061412b565b80601f016020809104026020016040519081016040528092919081815260200182805461083f9061412b565b801561088c5780601f106108615761010080835404028352916020019161088c565b820191906000526020600020905b81548152906001019060200180831161086f57829003601f168201915b505050505081565b6060600480546108a39061412b565b80601f01602080910402602001604051908101604052809291908181526020018280546108cf9061412b565b801561091c5780601f106108f15761010080835404028352916020019161091c565b820191906000526020600020905b8154815290600101906020018083116108ff57829003601f168201915b50505050509050919050565b610930611965565b60008282905011610976576040517f08c379a000000000000000000000000000000000000000000000000000000000815260040161096d906141a9565b60405180910390fd5b6107d08282905011156109be576040517f08c379a00000000000000000000000000000000000000000000000000000000081526004016109b590614215565b60405180910390fd5b60005b82829050811015610a6d57600e60008484848181106109e3576109e2614235565b5b90506020020160208101906109f89190613e67565b73ffffffffffffffffffffffffffffffffffffffff1673ffffffffffffffffffffffffffffffffffffffff16815260200190815260200160002060006101000a81549060ff0219169055600c6000815480929190610a5590614293565b91905055508080610a65906142bd565b9150506109c1565b505050565b60608060006007600086815260200190815260200160002060405180604001604052908160008201805480602002602001604051908101604052809291908181526020018280548015610b1a57602002820191906000526020600020905b8160009054906101000a900473ffffffffffffffffffffffffffffffffffffffff1673ffffffffffffffffffffffffffffffffffffffff1681526020019060010190808311610ad0575b5050505050815260200160018201805480602002602001604051908101604052809291908181526020018280548015610bae57602002820191906000526020600020906000905b82829054906101000a90046bffffffffffffffffffffffff166bffffffffffffffffffffffff16815260200190600c0190602082600b01049283019260010382029150808411610b615790505b505050505081525050905060008160000151511415610cf957600560405180604001604052908160008201805480602002602001604051908101604052809291908181526020018280548015610c5957602002820191906000526020600020905b8160009054906101000a900473ffffffffffffffffffffffffffffffffffffffff1673ffffffffffffffffffffffffffffffffffffffff1681526020019060010190808311610c0f575b5050505050815260200160018201805480602002602001604051908101604052809291908181526020018280548015610ced57602002820191906000526020600020906000905b82829054906101000a90046bffffffffffffffffffffffff166bffffffffffffffffffffffff16815260200190600c0190602082600b01049283019260010382029150808411610ca05790505b50505050508152505090505b600081600001515167ffffffffffffffff811115610d1a57610d19613751565b5b604051908082528060200260200182016040528015610d485781602001602082028036833780820191505090505b50905060005b826000015151811015610de557610d636119e3565b6bffffffffffffffffffffffff1683602001518281518110610d8857610d87614235565b5b60200260200101516bffffffffffffffffffffffff1687610da99190614306565b610db3919061438f565b828281518110610dc657610dc5614235565b5b6020026020010181815250508080610ddd906142bd565b915050610d4e565b508160000151819350935050509250929050565b610e016119ed565b73ffffffffffffffffffffffffffffffffffffffff168573ffffffffffffffffffffffffffffffffffffffff161480610e475750610e4685610e416119ed565b6114f1565b5b610e86576040517f08c379a0000000000000000000000000000000000000000000000000000000008152600401610e7d90614432565b60405180910390fd5b610e9385858585856119f5565b5050505050565b600f6020528060005260406000206000915054906101000a900473ffffffffffffffffffffffffffffffffffffffff1681565b60608151835114610f13576040517f08c379a0000000000000000000000000000000000000000000000000000000008152600401610f0a906144c4565b60405180910390fd5b6000835167ffffffffffffffff811115610f3057610f2f613751565b5b604051908082528060200260200182016040528015610f5e5781602001602082028036833780820191505090505b50905060005b8451811015610fdb57610fab858281518110610f8357610f82614235565b5b6020026020010151858381518110610f9e57610f9d614235565b5b6020026020010151610579565b828281518110610fbe57610fbd614235565b5b60200260200101818152505080610fd4906142bd565b9050610f64565b508091505092915050565b600d60009054906101000a900460ff1681565b600b80546110069061412b565b80601f01602080910402602001604051908101604052809291908181526020018280546110329061412b565b801561107f5780601f106110545761010080835404028352916020019161107f565b820191906000526020600020905b81548152906001019060200180831161106257829003601f168201915b505050505081565b61108f611965565b80600a90805190602001906110a5929190612f42565b507f01e56a02aca7f26a28165a040851ba78f30282b55ca81c63a804cdc1e2dcea72600a6040516110d69190614579565b60405180910390a150565b60008060001515600d60009054906101000a900460ff161515141561117657611108611354565b73ffffffffffffffffffffffffffffffffffffffff163373ffffffffffffffffffffffffffffffffffffffff1614611175576040517f08c379a000000000000000000000000000000000000000000000000000000000815260040161116c906145e7565b60405180910390fd5b5b60011515600d60009054906101000a900460ff161515141561125c57600e60003373ffffffffffffffffffffffffffffffffffffffff1673ffffffffffffffffffffffffffffffffffffffff16815260200190815260200160002060009054906101000a900460ff168061121c57506111ed611354565b73ffffffffffffffffffffffffffffffffffffffff163373ffffffffffffffffffffffffffffffffffffffff16145b61125b576040517f08c379a000000000000000000000000000000000000000000000000000000000815260040161125290614653565b60405180910390fd5b5b60006112686009611d0c565b905061128588828960405180602001604052806000815250611d1a565b851561129757611296818686611eb1565b5b6112a160096120a3565b808792509250509550959350505050565b600a80546112bf9061412b565b80601f01602080910402602001604051908101604052809291908181526020018280546112eb9061412b565b80156113385780601f1061130d57610100808354040283529160200191611338565b820191906000526020600020905b81548152906001019060200180831161131b57829003601f168201915b505050505081565b611348611965565b61135260006120b9565b565b6000600860009054906101000a900473ffffffffffffffffffffffffffffffffffffffff16905090565b6001805461138b9061412b565b80601f01602080910402602001604051908101604052809291908181526020018280546113b79061412b565b80156114045780601f106113d957610100808354040283529160200191611404565b820191906000526020600020905b8154815290600101906020018083116113e757829003601f168201915b505050505081565b600e6020528060005260406000206000915054906101000a900460ff1681565b61143e6114376119ed565b838361217f565b5050565b606060006114503384610579565b1415611491576040517f08c379a0000000000000000000000000000000000000000000000000000000008152600401611488906146e5565b60405180910390fd5b600061149b6122ec565b905060008151116114bb57604051806020016040528060008152506114e9565b806114c58461237e565b600b6040516020016114d9939291906147c0565b6040516020818303038152906040525b915050919050565b6000600360008473ffffffffffffffffffffffffffffffffffffffff1673ffffffffffffffffffffffffffffffffffffffff16815260200190815260200160002060008373ffffffffffffffffffffffffffffffffffffffff1673ffffffffffffffffffffffffffffffffffffffff16815260200190815260200160002060009054906101000a900460ff16905092915050565b61158d6119ed565b73ffffffffffffffffffffffffffffffffffffffff168573ffffffffffffffffffffffffffffffffffffffff1614806115d357506115d2856115cd6119ed565b6114f1565b5b611612576040517f08c379a000000000000000000000000000000000000000000000000000000000815260040161160990614863565b60405180910390fd5b61161f85858585856124df565b5050505050565b61162e611965565b600073ffffffffffffffffffffffffffffffffffffffff168173ffffffffffffffffffffffffffffffffffffffff16141561169e576040517f08c379a0000000000000000000000000000000000000000000000000000000008152600401611695906148f5565b60405180910390fd5b6116a7816120b9565b50565b6116b2611965565b600082829050116116f8576040517f08c379a00000000000000000000000000000000000000000000000000000000081526004016116ef906141a9565b60405180910390fd5b6107d0828290501061173f576040517f08c379a000000000000000000000000000000000000000000000000000000000815260040161173690614215565b60405180910390fd5b60005b8282905081101561183d576107d0600c5410611793576040517f08c379a000000000000000000000000000000000000000000000000000000000815260040161178a90614987565b60405180910390fd5b6001600e60008585858181106117ac576117ab614235565b5b90506020020160208101906117c19190613e67565b73ffffffffffffffffffffffffffffffffffffffff1673ffffffffffffffffffffffffffffffffffffffff16815260200190815260200160002060006101000a81548160ff021916908315150217905550600c6000815480929190611825906142bd565b91905055508080611835906142bd565b915050611742565b505050565b600061184e3384610579565b141561188f576040517f08c379a000000000000000000000000000000000000000000000000000000000815260040161188690614a19565b60405180910390fd5b8061189a3384610579565b10156118db576040517f08c379a00000000000000000000000000000000000000000000000000000000081526004016118d290614aab565b60405180910390fd5b6118e6838383612764565b505050565b60007f2a55205a000000000000000000000000000000000000000000000000000000007bffffffffffffffffffffffffffffffffffffffffffffffffffffffff1916827bffffffffffffffffffffffffffffffffffffffffffffffffffffffff1916148061195e575061195d82612983565b5b9050919050565b61196d6119ed565b73ffffffffffffffffffffffffffffffffffffffff1661198b611354565b73ffffffffffffffffffffffffffffffffffffffff16146119e1576040517f08c379a00000000000000000000000000000000000000000000000000000000081526004016119d890614b17565b60405180910390fd5b565b6000612710905090565b600033905090565b8151835114611a39576040517f08c379a0000000000000000000000000000000000000000000000000000000008152600401611a3090614ba9565b60405180910390fd5b600073ffffffffffffffffffffffffffffffffffffffff168473ffffffffffffffffffffffffffffffffffffffff161415611aa9576040517f08c379a0000000000000000000000000000000000000000000000000000000008152600401611aa090614c3b565b60405180910390fd5b6000611ab36119ed565b9050611ac3818787878787612a65565b60005b8451811015611c77576000858281518110611ae457611ae3614235565b5b602002602001015190506000858381518110611b0357611b02614235565b5b6020026020010151905060006002600084815260200190815260200160002060008b73ffffffffffffffffffffffffffffffffffffffff1673ffffffffffffffffffffffffffffffffffffffff16815260200190815260200160002054905081811015611ba5576040517f08c379a0000000000000000000000000000000000000000000000000000000008152600401611b9c90614ccd565b60405180910390fd5b8181036002600085815260200190815260200160002060008c73ffffffffffffffffffffffffffffffffffffffff1673ffffffffffffffffffffffffffffffffffffffff16815260200190815260200160002081905550816002600085815260200190815260200160002060008b73ffffffffffffffffffffffffffffffffffffffff1673ffffffffffffffffffffffffffffffffffffffff1681526020019081526020016000206000828254611c5c9190614ced565b9250508190555050505080611c70906142bd565b9050611ac6565b508473ffffffffffffffffffffffffffffffffffffffff168673ffffffffffffffffffffffffffffffffffffffff168273ffffffffffffffffffffffffffffffffffffffff167f4a39dc06d4c0dbc64b70af90fd698a233a518aa5d07e595d983b8c0526c8f7fb8787604051611cee929190614d43565b60405180910390a4611d04818787878787612a6d565b505050505050565b600081600001549050919050565b600073ffffffffffffffffffffffffffffffffffffffff168473ffffffffffffffffffffffffffffffffffffffff161415611d8a576040517f08c379a0000000000000000000000000000000000000000000000000000000008152600401611d8190614dec565b60405180910390fd5b6000611d946119ed565b9050611db581600087611da688612c54565b611daf88612c54565b87612a65565b826002600086815260200190815260200160002060008773ffffffffffffffffffffffffffffffffffffffff1673ffffffffffffffffffffffffffffffffffffffff1681526020019081526020016000206000828254611e159190614ced565b925050819055508473ffffffffffffffffffffffffffffffffffffffff16600073ffffffffffffffffffffffffffffffffffffffff168273ffffffffffffffffffffffffffffffffffffffff167fc3d58168c5ae7397731d063d5bbf3d657854427343f4c083240f7aacaa2d0f628787604051611e93929190613e3e565b60405180910390a4611eaa81600087878787612cce565b5050505050565b6000825111611ef5576040517f08c379a0000000000000000000000000000000000000000000000000000000008152600401611eec90614e58565b60405180910390fd5b600582511115611f3a576040517f08c379a0000000000000000000000000000000000000000000000000000000008152600401611f3190614eea565b60405180910390fd5b8051825114611f7e576040517f08c379a0000000000000000000000000000000000000000000000000000000008152600401611f7590614f7c565b60405180910390fd5b6000805b8251811015611fd457828181518110611f9e57611f9d614235565b5b60200260200101516bffffffffffffffffffffffff1682611fbf9190614ced565b91508080611fcc906142bd565b915050611f82565b50611fdd6119e3565b6bffffffffffffffffffffffff1681111561202d576040517f08c379a00000000000000000000000000000000000000000000000000000000081526004016120249061500e565b60405180910390fd5b60608084905083915060405180604001604052808281526020018381525060076000888152602001908152602001600020600082015181600001908051906020019061207a929190612fc8565b506020820151816001019080519060200190612097929190613052565b50905050505050505050565b6001816000016000828254019250508190555050565b6000600860009054906101000a900473ffffffffffffffffffffffffffffffffffffffff16905081600860006101000a81548173ffffffffffffffffffffffffffffffffffffffff021916908373ffffffffffffffffffffffffffffffffffffffff1602179055508173ffffffffffffffffffffffffffffffffffffffff168173ffffffffffffffffffffffffffffffffffffffff167f8be0079c531659141344cd1fd0a4f28419497f9722a3daafe3b4186f6b6457e060405160405180910390a35050565b8173ffffffffffffffffffffffffffffffffffffffff168373ffffffffffffffffffffffffffffffffffffffff1614156121ee576040517f08c379a00000000000000000000000000000000000000000000000000000000081526004016121e5906150a0565b60405180910390fd5b80600360008573ffffffffffffffffffffffffffffffffffffffff1673ffffffffffffffffffffffffffffffffffffffff16815260200190815260200160002060008473ffffffffffffffffffffffffffffffffffffffff1673ffffffffffffffffffffffffffffffffffffffff16815260200190815260200160002060006101000a81548160ff0219169083151502179055508173ffffffffffffffffffffffffffffffffffffffff168373ffffffffffffffffffffffffffffffffffffffff167f17307eab39ab6107e8899845ad3d59bd9653f200f220920489ca2b5937696c31836040516122df91906132e9565b60405180910390a3505050565b6060600a80546122fb9061412b565b80601f01602080910402602001604051908101604052809291908181526020018280546123279061412b565b80156123745780601f1061234957610100808354040283529160200191612374565b820191906000526020600020905b81548152906001019060200180831161235757829003601f168201915b5050505050905090565b606060008214156123c6576040518060400160405280600181526020017f300000000000000000000000000000000000000000000000000000000000000081525090506124da565b600082905060005b600082146123f85780806123e1906142bd565b915050600a826123f1919061438f565b91506123ce565b60008167ffffffffffffffff81111561241457612413613751565b5b6040519080825280601f01601f1916602001820160405280156124465781602001600182028036833780820191505090505b5090505b600085146124d35760018261245f91906150c0565b9150600a8561246e91906150f4565b603061247a9190614ced565b60f81b8183815181106124905761248f614235565b5b60200101907effffffffffffffffffffffffffffffffffffffffffffffffffffffffffffff1916908160001a905350600a856124cc919061438f565b945061244a565b8093505050505b919050565b600073ffffffffffffffffffffffffffffffffffffffff168473ffffffffffffffffffffffffffffffffffffffff16141561254f576040517f08c379a000000000000000000000000000000000000000000000000000000000815260040161254690614c3b565b60405180910390fd5b60006125596119ed565b905061257981878761256a88612c54565b61257388612c54565b87612a65565b60006002600086815260200190815260200160002060008873ffffffffffffffffffffffffffffffffffffffff1673ffffffffffffffffffffffffffffffffffffffff16815260200190815260200160002054905083811015612611576040517f08c379a000000000000000000000000000000000000000000000000000000000815260040161260890614ccd565b60405180910390fd5b8381036002600087815260200190815260200160002060008973ffffffffffffffffffffffffffffffffffffffff1673ffffffffffffffffffffffffffffffffffffffff16815260200190815260200160002081905550836002600087815260200190815260200160002060008873ffffffffffffffffffffffffffffffffffffffff1673ffffffffffffffffffffffffffffffffffffffff16815260200190815260200160002060008282546126c89190614ced565b925050819055508573ffffffffffffffffffffffffffffffffffffffff168773ffffffffffffffffffffffffffffffffffffffff168373ffffffffffffffffffffffffffffffffffffffff167fc3d58168c5ae7397731d063d5bbf3d657854427343f4c083240f7aacaa2d0f628888604051612745929190613e3e565b60405180910390a461275b828888888888612cce565b50505050505050565b600073ffffffffffffffffffffffffffffffffffffffff168373ffffffffffffffffffffffffffffffffffffffff1614156127d4576040517f08c379a00000000000000000000000000000000000000000000000000000000081526004016127cb90615197565b60405180910390fd5b60006127de6119ed565b905061280e818560006127f087612c54565b6127f987612c54565b60405180602001604052806000815250612a65565b60006002600085815260200190815260200160002060008673ffffffffffffffffffffffffffffffffffffffff1673ffffffffffffffffffffffffffffffffffffffff168152602001908152602001600020549050828110156128a6576040517f08c379a000000000000000000000000000000000000000000000000000000000815260040161289d90615229565b60405180910390fd5b8281036002600086815260200190815260200160002060008773ffffffffffffffffffffffffffffffffffffffff1673ffffffffffffffffffffffffffffffffffffffff16815260200190815260200160002081905550600073ffffffffffffffffffffffffffffffffffffffff168573ffffffffffffffffffffffffffffffffffffffff168373ffffffffffffffffffffffffffffffffffffffff167fc3d58168c5ae7397731d063d5bbf3d657854427343f4c083240f7aacaa2d0f628787604051612974929190613e3e565b60405180910390a45050505050565b60007fd9b67a26000000000000000000000000000000000000000000000000000000007bffffffffffffffffffffffffffffffffffffffffffffffffffffffff1916827bffffffffffffffffffffffffffffffffffffffffffffffffffffffff19161480612a4e57507f0e89341c000000000000000000000000000000000000000000000000000000007bffffffffffffffffffffffffffffffffffffffffffffffffffffffff1916827bffffffffffffffffffffffffffffffffffffffffffffffffffffffff1916145b80612a5e5750612a5d82612eb5565b5b9050919050565b505050505050565b612a8c8473ffffffffffffffffffffffffffffffffffffffff16612f1f565b15612c4c578373ffffffffffffffffffffffffffffffffffffffff1663bc197c8187878686866040518663ffffffff1660e01b8152600401612ad295949392919061529e565b602060405180830381600087803b158015612aec57600080fd5b505af1925050508015612b1d57506040513d601f19601f82011682018060405250810190612b1a919061531b565b60015b612bc357612b29615355565b806308c379a01415612b865750612b3e615377565b80612b495750612b88565b806040517f08c379a0000000000000000000000000000000000000000000000000000000008152600401612b7d919061345d565b60405180910390fd5b505b6040517f08c379a0000000000000000000000000000000000000000000000000000000008152600401612bba9061547f565b60405180910390fd5b63bc197c8160e01b7bffffffffffffffffffffffffffffffffffffffffffffffffffffffff1916817bffffffffffffffffffffffffffffffffffffffffffffffffffffffff191614612c4a576040517f08c379a0000000000000000000000000000000000000000000000000000000008152600401612c4190615511565b60405180910390fd5b505b505050505050565b60606000600167ffffffffffffffff811115612c7357612c72613751565b5b604051908082528060200260200182016040528015612ca15781602001602082028036833780820191505090505b5090508281600081518110612cb957612cb8614235565b5b60200260200101818152505080915050919050565b612ced8473ffffffffffffffffffffffffffffffffffffffff16612f1f565b15612ead578373ffffffffffffffffffffffffffffffffffffffff1663f23a6e6187878686866040518663ffffffff1660e01b8152600401612d33959493929190615531565b602060405180830381600087803b158015612d4d57600080fd5b505af1925050508015612d7e57506040513d601f19601f82011682018060405250810190612d7b919061531b565b60015b612e2457612d8a615355565b806308c379a01415612de75750612d9f615377565b80612daa5750612de9565b806040517f08c379a0000000000000000000000000000000000000000000000000000000008152600401612dde919061345d565b60405180910390fd5b505b6040517f08c379a0000000000000000000000000000000000000000000000000000000008152600401612e1b9061547f565b60405180910390fd5b63f23a6e6160e01b7bffffffffffffffffffffffffffffffffffffffffffffffffffffffff1916817bffffffffffffffffffffffffffffffffffffffffffffffffffffffff191614612eab576040517f08c379a0000000000000000000000000000000000000000000000000000000008152600401612ea290615511565b60405180910390fd5b505b505050505050565b60007f01ffc9a7000000000000000000000000000000000000000000000000000000007bffffffffffffffffffffffffffffffffffffffffffffffffffffffff1916827bffffffffffffffffffffffffffffffffffffffffffffffffffffffff1916149050919050565b6000808273ffffffffffffffffffffffffffffffffffffffff163b119050919050565b828054612f4e9061412b565b90600052602060002090601f016020900481019282612f705760008555612fb7565b82601f10612f8957805160ff1916838001178555612fb7565b82800160010185558215612fb7579182015b82811115612fb6578251825591602001919060010190612f9b565b5b509050612fc4919061311a565b5090565b828054828255906000526020600020908101928215613041579160200282015b828111156130405782518260006101000a81548173ffffffffffffffffffffffffffffffffffffffff021916908373ffffffffffffffffffffffffffffffffffffffff16021790555091602001919060010190612fe8565b5b50905061304e919061311a565b5090565b828054828255906000526020600020906001016002900481019282156131095791602002820160005b838211156130cf57835183826101000a8154816bffffffffffffffffffffffff02191690836bffffffffffffffffffffffff1602179055509260200192600c01602081600b0104928301926001030261307b565b80156131075782816101000a8154906bffffffffffffffffffffffff0219169055600c01602081600b010492830192600103026130cf565b505b509050613116919061311a565b5090565b5b8082111561313357600081600090555060010161311b565b5090565b6000604051905090565b600080fd5b600080fd5b600073ffffffffffffffffffffffffffffffffffffffff82169050919050565b60006131768261314b565b9050919050565b6131868161316b565b811461319157600080fd5b50565b6000813590506131a38161317d565b92915050565b6000819050919050565b6131bc816131a9565b81146131c757600080fd5b50565b6000813590506131d9816131b3565b92915050565b600080604083850312156131f6576131f5613141565b5b600061320485828601613194565b9250506020613215858286016131ca565b9150509250929050565b613228816131a9565b82525050565b6000602082019050613243600083018461321f565b92915050565b60007fffffffff0000000000000000000000000000000000000000000000000000000082169050919050565b61327e81613249565b811461328957600080fd5b50565b60008135905061329b81613275565b92915050565b6000602082840312156132b7576132b6613141565b5b60006132c58482850161328c565b91505092915050565b60008115159050919050565b6132e3816132ce565b82525050565b60006020820190506132fe60008301846132da565b92915050565b6000806000806080858703121561331e5761331d613141565b5b600061332c87828801613194565b945050602061333d87828801613194565b935050604061334e878288016131ca565b925050606061335f878288016131ca565b91505092959194509250565b613374816132ce565b811461337f57600080fd5b50565b6000813590506133918161336b565b92915050565b6000602082840312156133ad576133ac613141565b5b60006133bb84828501613382565b91505092915050565b600081519050919050565b600082825260208201905092915050565b60005b838110156133fe5780820151818401526020810190506133e3565b8381111561340d576000848401525b50505050565b6000601f19601f8301169050919050565b600061342f826133c4565b61343981856133cf565b93506134498185602086016133e0565b61345281613413565b840191505092915050565b600060208201905081810360008301526134778184613424565b905092915050565b60006020828403121561349557613494613141565b5b60006134a3848285016131ca565b91505092915050565b600080fd5b600080fd5b600080fd5b60008083601f8401126134d1576134d06134ac565b5b8235905067ffffffffffffffff8111156134ee576134ed6134b1565b5b60208301915083602082028301111561350a576135096134b6565b5b9250929050565b6000806020838503121561352857613527613141565b5b600083013567ffffffffffffffff81111561354657613545613146565b5b613552858286016134bb565b92509250509250929050565b6000806040838503121561357557613574613141565b5b6000613583858286016131ca565b9250506020613594858286016131ca565b9150509250929050565b600081519050919050565b600082825260208201905092915050565b6000819050602082019050919050565b6135d38161316b565b82525050565b60006135e583836135ca565b60208301905092915050565b6000602082019050919050565b60006136098261359e565b61361381856135a9565b935061361e836135ba565b8060005b8381101561364f57815161363688826135d9565b9750613641836135f1565b925050600181019050613622565b5085935050505092915050565b600081519050919050565b600082825260208201905092915050565b6000819050602082019050919050565b613691816131a9565b82525050565b60006136a38383613688565b60208301905092915050565b6000602082019050919050565b60006136c78261365c565b6136d18185613667565b93506136dc83613678565b8060005b8381101561370d5781516136f48882613697565b97506136ff836136af565b9250506001810190506136e0565b5085935050505092915050565b6000604082019050818103600083015261373481856135fe565b9050818103602083015261374881846136bc565b90509392505050565b7f4e487b7100000000000000000000000000000000000000000000000000000000600052604160045260246000fd5b61378982613413565b810181811067ffffffffffffffff821117156137a8576137a7613751565b5b80604052505050565b60006137bb613137565b90506137c78282613780565b919050565b600067ffffffffffffffff8211156137e7576137e6613751565b5b602082029050602081019050919050565b600061380b613806846137cc565b6137b1565b9050808382526020820190506020840283018581111561382e5761382d6134b6565b5b835b81811015613857578061384388826131ca565b845260208401935050602081019050613830565b5050509392505050565b600082601f830112613876576138756134ac565b5b81356138868482602086016137f8565b91505092915050565b600080fd5b600067ffffffffffffffff8211156138af576138ae613751565b5b6138b882613413565b9050602081019050919050565b82818337600083830152505050565b60006138e76138e284613894565b6137b1565b9050828152602081018484840111156139035761390261388f565b5b61390e8482856138c5565b509392505050565b600082601f83011261392b5761392a6134ac565b5b813561393b8482602086016138d4565b91505092915050565b600080600080600060a086880312156139605761395f613141565b5b600061396e88828901613194565b955050602061397f88828901613194565b945050604086013567ffffffffffffffff8111156139a05761399f613146565b5b6139ac88828901613861565b935050606086013567ffffffffffffffff8111156139cd576139cc613146565b5b6139d988828901613861565b925050608086013567ffffffffffffffff8111156139fa576139f9613146565b5b613a0688828901613916565b9150509295509295909350565b613a1c8161316b565b82525050565b6000602082019050613a376000830184613a13565b92915050565b600067ffffffffffffffff821115613a5857613a57613751565b5b602082029050602081019050919050565b6000613a7c613a7784613a3d565b6137b1565b90508083825260208201905060208402830185811115613a9f57613a9e6134b6565b5b835b81811015613ac85780613ab48882613194565b845260208401935050602081019050613aa1565b5050509392505050565b600082601f830112613ae757613ae66134ac565b5b8135613af7848260208601613a69565b91505092915050565b60008060408385031215613b1757613b16613141565b5b600083013567ffffffffffffffff811115613b3557613b34613146565b5b613b4185828601613ad2565b925050602083013567ffffffffffffffff811115613b6257613b61613146565b5b613b6e85828601613861565b9150509250929050565b60006020820190508181036000830152613b9281846136bc565b905092915050565b600067ffffffffffffffff821115613bb557613bb4613751565b5b613bbe82613413565b9050602081019050919050565b6000613bde613bd984613b9a565b6137b1565b905082815260208101848484011115613bfa57613bf961388f565b5b613c058482856138c5565b509392505050565b600082601f830112613c2257613c216134ac565b5b8135613c32848260208601613bcb565b91505092915050565b600060208284031215613c5157613c50613141565b5b600082013567ffffffffffffffff811115613c6f57613c6e613146565b5b613c7b84828501613c0d565b91505092915050565b600067ffffffffffffffff821115613c9f57613c9e613751565b5b602082029050602081019050919050565b60006bffffffffffffffffffffffff82169050919050565b613cd181613cb0565b8114613cdc57600080fd5b50565b600081359050613cee81613cc8565b92915050565b6000613d07613d0284613c84565b6137b1565b90508083825260208201905060208402830185811115613d2a57613d296134b6565b5b835b81811015613d535780613d3f8882613cdf565b845260208401935050602081019050613d2c565b5050509392505050565b600082601f830112613d7257613d716134ac565b5b8135613d82848260208601613cf4565b91505092915050565b600080600080600060a08688031215613da757613da6613141565b5b6000613db588828901613194565b9550506020613dc6888289016131ca565b9450506040613dd788828901613382565b935050606086013567ffffffffffffffff811115613df857613df7613146565b5b613e0488828901613ad2565b925050608086013567ffffffffffffffff811115613e2557613e24613146565b5b613e3188828901613d5d565b9150509295509295909350565b6000604082019050613e53600083018561321f565b613e60602083018461321f565b9392505050565b600060208284031215613e7d57613e7c613141565b5b6000613e8b84828501613194565b91505092915050565b60008060408385031215613eab57613eaa613141565b5b6000613eb985828601613194565b9250506020613eca85828601613382565b9150509250929050565b60008060408385031215613eeb57613eea613141565b5b6000613ef985828601613194565b9250506020613f0a85828601613194565b9150509250929050565b600080600080600060a08688031215613f3057613f2f613141565b5b6000613f3e88828901613194565b9550506020613f4f88828901613194565b9450506040613f60888289016131ca565b9350506060613f71888289016131ca565b925050608086013567ffffffffffffffff811115613f9257613f91613146565b5b613f9e88828901613916565b9150509295509295909350565b600080600060608486031215613fc457613fc3613141565b5b6000613fd286828701613194565b9350506020613fe3868287016131ca565b9250506040613ff4868287016131ca565b9150509250925092565b7f455243313135353a2062616c616e636520717565727920666f7220746865207a60008201527f65726f2061646472657373000000000000000000000000000000000000000000602082015250565b600061405a602b836133cf565b915061406582613ffe565b604082019050919050565b600060208201905081810360008301526140898161404d565b9050919050565b7f455243313135353a204e6f7420656e6f75676820636f70696573000000000000600082015250565b60006140c6601a836133cf565b91506140d182614090565b602082019050919050565b600060208201905081810360008301526140f5816140b9565b9050919050565b7f4e487b7100000000000000000000000000000000000000000000000000000000600052602260045260246000fd5b6000600282049050600182168061414357607f821691505b60208210811415614157576141566140fc565b5b50919050565b7f4e6f20757365722064657461696c732070726f76696465640000000000000000600082015250565b60006141936018836133cf565b915061419e8261415d565b602082019050919050565b600060208201905081810360008301526141c281614186565b9050919050565b7f546f6f206d616e792075736572737320746f2077686974656c69737400000000600082015250565b60006141ff601c836133cf565b915061420a826141c9565b602082019050919050565b6000602082019050818103600083015261422e816141f2565b9050919050565b7f4e487b7100000000000000000000000000000000000000000000000000000000600052603260045260246000fd5b7f4e487b7100000000000000000000000000000000000000000000000000000000600052601160045260246000fd5b600061429e826131a9565b915060008214156142b2576142b1614264565b5b600182039050919050565b60006142c8826131a9565b91507fffffffffffffffffffffffffffffffffffffffffffffffffffffffffffffffff8214156142fb576142fa614264565b5b600182019050919050565b6000614311826131a9565b915061431c836131a9565b9250817fffffffffffffffffffffffffffffffffffffffffffffffffffffffffffffffff048311821515161561435557614354614264565b5b828202905092915050565b7f4e487b7100000000000000000000000000000000000000000000000000000000600052601260045260246000fd5b600061439a826131a9565b91506143a5836131a9565b9250826143b5576143b4614360565b5b828204905092915050565b7f455243313135353a207472616e736665722063616c6c6572206973206e6f742060008201527f6f776e6572206e6f7220617070726f7665640000000000000000000000000000602082015250565b600061441c6032836133cf565b9150614427826143c0565b604082019050919050565b6000602082019050818103600083015261444b8161440f565b9050919050565b7f455243313135353a206163636f756e747320616e6420696473206c656e67746860008201527f206d69736d617463680000000000000000000000000000000000000000000000602082015250565b60006144ae6029836133cf565b91506144b982614452565b604082019050919050565b600060208201905081810360008301526144dd816144a1565b9050919050565b60008190508160005260206000209050919050565b600081546145068161412b565b61451081866133cf565b9450600182166000811461452b576001811461453d57614570565b60ff1983168652602086019350614570565b614546856144e4565b60005b8381101561456857815481890152600182019150602081019050614549565b808801955050505b50505092915050565b6000602082019050818103600083015261459381846144f9565b905092915050565b7f4f776e61626c653a204e6f7420746865206f776e657200000000000000000000600082015250565b60006145d16016836133cf565b91506145dc8261459b565b602082019050919050565b60006020820190508181036000830152614600816145c4565b9050919050565b7f41646472657373206e6f742077686974656c6973746564000000000000000000600082015250565b600061463d6017836133cf565b915061464882614607565b602082019050919050565b6000602082019050818103600083015261466c81614630565b9050919050565b7f455243313135354d657461646174613a2055524920717565727920666f72206e60008201527f6f6e6578697374656e7420746f6b656e00000000000000000000000000000000602082015250565b60006146cf6030836133cf565b91506146da82614673565b604082019050919050565b600060208201905081810360008301526146fe816146c2565b9050919050565b600081905092915050565b600061471b826133c4565b6147258185614705565b93506147358185602086016133e0565b80840191505092915050565b6000815461474e8161412b565b6147588186614705565b945060018216600081146147735760018114614784576147b7565b60ff198316865281860193506147b7565b61478d856144e4565b60005b838110156147af57815481890152600182019150602081019050614790565b838801955050505b50505092915050565b60006147cc8286614710565b91506147d88285614710565b91506147e48284614741565b9150819050949350505050565b7f455243313135353a2063616c6c6572206973206e6f74206f776e6572206e6f7260008201527f20617070726f7665640000000000000000000000000000000000000000000000602082015250565b600061484d6029836133cf565b9150614858826147f1565b604082019050919050565b6000602082019050818103600083015261487c81614840565b9050919050565b7f4f776e61626c653a206e6577206f776e657220697320746865207a65726f206160008201527f6464726573730000000000000000000000000000000000000000000000000000602082015250565b60006148df6026836133cf565b91506148ea82614883565b604082019050919050565b6000602082019050818103600083015261490e816148d2565b9050919050565b7f4d6178696d756d20557365727320616c72656164792077686974656c6973746560008201527f6400000000000000000000000000000000000000000000000000000000000000602082015250565b60006149716021836133cf565b915061497c82614915565b604082019050919050565b600060208201905081810360008301526149a081614964565b9050919050565b7f455243313135353a204e6f7420746865206f776e6572206f662074686973207460008201527f6f6b656e00000000000000000000000000000000000000000000000000000000602082015250565b6000614a036024836133cf565b9150614a0e826149a7565b604082019050919050565b60006020820190508181036000830152614a32816149f6565b9050919050565b7f455243313135353a204e6f7420656e6f756768207175616e7469747920746f2060008201527f6275726e00000000000000000000000000000000000000000000000000000000602082015250565b6000614a956024836133cf565b9150614aa082614a39565b604082019050919050565b60006020820190508181036000830152614ac481614a88565b9050919050565b7f4f776e61626c653a2063616c6c6572206973206e6f7420746865206f776e6572600082015250565b6000614b016020836133cf565b9150614b0c82614acb565b602082019050919050565b60006020820190508181036000830152614b3081614af4565b9050919050565b7f455243313135353a2069647320616e6420616d6f756e7473206c656e6774682060008201527f6d69736d61746368000000000000000000000000000000000000000000000000602082015250565b6000614b936028836133cf565b9150614b9e82614b37565b604082019050919050565b60006020820190508181036000830152614bc281614b86565b9050919050565b7f455243313135353a207472616e7366657220746f20746865207a65726f20616460008201527f6472657373000000000000000000000000000000000000000000000000000000602082015250565b6000614c256025836133cf565b9150614c3082614bc9565b604082019050919050565b60006020820190508181036000830152614c5481614c18565b9050919050565b7f455243313135353a20696e73756666696369656e742062616c616e636520666f60008201527f72207472616e7366657200000000000000000000000000000000000000000000602082015250565b6000614cb7602a836133cf565b9150614cc282614c5b565b604082019050919050565b60006020820190508181036000830152614ce681614caa565b9050919050565b6000614cf8826131a9565b9150614d03836131a9565b9250827fffffffffffffffffffffffffffffffffffffffffffffffffffffffffffffffff03821115614d3857614d37614264565b5b828201905092915050565b60006040820190508181036000830152614d5d81856136bc565b90508181036020830152614d7181846136bc565b90509392505050565b7f455243313135353a206d696e7420746f20746865207a65726f2061646472657360008201527f7300000000000000000000000000000000000000000000000000000000000000602082015250565b6000614dd66021836133cf565b9150614de182614d7a565b604082019050919050565b60006020820190508181036000830152614e0581614dc9565b9050919050565b7f4e6f20526f79616c74792064657461696c732070726f76696465640000000000600082015250565b6000614e42601b836133cf565b9150614e4d82614e0c565b602082019050919050565b60006020820190508181036000830152614e7181614e35565b9050919050565b7f546f6f206d616e7920726f79616c74792072656369657665727320646574616960008201527f6c73000000000000000000000000000000000000000000000000000000000000602082015250565b6000614ed46022836133cf565b9150614edf82614e78565b604082019050919050565b60006020820190508181036000830152614f0381614ec7565b9050919050565b7f4d69736d61746368206f6620526f79616c74792072656369657665727320616e60008201527f6420746865697220666565730000000000000000000000000000000000000000602082015250565b6000614f66602c836133cf565b9150614f7182614f0a565b604082019050919050565b60006020820190508181036000830152614f9581614f59565b9050919050565b7f455243323938313a20726f79616c7479206665652077696c6c2065786365656460008201527f2073616c65507269636500000000000000000000000000000000000000000000602082015250565b6000614ff8602a836133cf565b915061500382614f9c565b604082019050919050565b6000602082019050818103600083015261502781614feb565b9050919050565b7f455243313135353a2073657474696e6720617070726f76616c2073746174757360008201527f20666f722073656c660000000000000000000000000000000000000000000000602082015250565b600061508a6029836133cf565b91506150958261502e565b604082019050919050565b600060208201905081810360008301526150b98161507d565b9050919050565b60006150cb826131a9565b91506150d6836131a9565b9250828210156150e9576150e8614264565b5b828203905092915050565b60006150ff826131a9565b915061510a836131a9565b92508261511a57615119614360565b5b828206905092915050565b7f455243313135353a206275726e2066726f6d20746865207a65726f206164647260008201527f6573730000000000000000000000000000000000000000000000000000000000602082015250565b60006151816023836133cf565b915061518c82615125565b604082019050919050565b600060208201905081810360008301526151b081615174565b9050919050565b7f455243313135353a206275726e20616d6f756e7420657863656564732062616c60008201527f616e636500000000000000000000000000000000000000000000000000000000602082015250565b60006152136024836133cf565b915061521e826151b7565b604082019050919050565b6000602082019050818103600083015261524281615206565b9050919050565b600081519050919050565b600082825260208201905092915050565b600061527082615249565b61527a8185615254565b935061528a8185602086016133e0565b61529381613413565b840191505092915050565b600060a0820190506152b36000830188613a13565b6152c06020830187613a13565b81810360408301526152d281866136bc565b905081810360608301526152e681856136bc565b905081810360808301526152fa8184615265565b90509695505050505050565b60008151905061531581613275565b92915050565b60006020828403121561533157615330613141565b5b600061533f84828501615306565b91505092915050565b60008160e01c9050919050565b600060033d11156153745760046000803e615371600051615348565b90505b90565b600060443d10156153875761540a565b61538f613137565b60043d036004823e80513d602482011167ffffffffffffffff821117156153b757505061540a565b808201805167ffffffffffffffff8111156153d5575050505061540a565b80602083010160043d0385018111156153f257505050505061540a565b61540182602001850186613780565b82955050505050505b90565b7f455243313135353a207472616e7366657220746f206e6f6e204552433131353560008201527f526563656976657220696d706c656d656e746572000000000000000000000000602082015250565b60006154696034836133cf565b91506154748261540d565b604082019050919050565b600060208201905081810360008301526154988161545c565b9050919050565b7f455243313135353a204552433131353552656365697665722072656a6563746560008201527f6420746f6b656e73000000000000000000000000000000000000000000000000602082015250565b60006154fb6028836133cf565b91506155068261549f565b604082019050919050565b6000602082019050818103600083015261552a816154ee565b9050919050565b600060a0820190506155466000830188613a13565b6155536020830187613a13565b615560604083018661321f565b61556d606083018561321f565b818103608083015261557f8184615265565b9050969550505050505056fea2646970667358221220ca74c5541f630b151a94df2b113c8141ed8f6e326b17eae46971c52ae89177dc64736f6c63430008090033",
  "linkReferences": {},
  "deployedLinkReferences": {}
}