{
  "_format": "hh-sol-artifact-1",
  "contractName": "ERC721RFactory",
  "sourceName": "contracts/factoryContracts/ERC721RFactory.sol",
  "abi": [
    {
      "inputs": [
        {
          "internalType": "string",
          "name": "name",
          "type": "string"
        },
        {
          "internalType": "string",
          "name": "symbol",
          "type": "string"
        },
        {
          "internalType": "uint256",
          "name": "mintSupply",
          "type": "uint256"
        },
        {
          "internalType": "uint256",
          "name": "mintingPrice",
          "type": "uint256"
        },
        {
          "internalType": "uint256",
          "name": "refundTime",
          "type": "uint256"
        },
        {
          "internalType": "uint256",
          "name": "maxMintPerUser",
          "type": "uint256"
        }
      ],
      "stateMutability": "nonpayable",
      "type": "constructor"
    },
    {
      "inputs": [],
      "name": "ApprovalCallerNotOwnerNorApproved",
      "type": "error"
    },
    {
      "inputs": [],
      "name": "ApprovalQueryForNonexistentToken",
      "type": "error"
    },
    {
      "inputs": [],
      "name": "ApprovalToCurrentOwner",
      "type": "error"
    },
    {
      "inputs": [],
      "name": "ApproveToCaller",
      "type": "error"
    },
    {
      "inputs": [],
      "name": "BalanceQueryForZeroAddress",
      "type": "error"
    },
    {
      "inputs": [],
      "name": "MintToZeroAddress",
      "type": "error"
    },
    {
      "inputs": [],
      "name": "MintZeroQuantity",
      "type": "error"
    },
    {
      "inputs": [],
      "name": "OwnerQueryForNonexistentToken",
      "type": "error"
    },
    {
      "inputs": [],
      "name": "TransferCallerNotOwnerNorApproved",
      "type": "error"
    },
    {
      "inputs": [],
      "name": "TransferFromIncorrectOwner",
      "type": "error"
    },
    {
      "inputs": [],
      "name": "TransferToNonERC721ReceiverImplementer",
      "type": "error"
    },
    {
      "inputs": [],
      "name": "TransferToZeroAddress",
      "type": "error"
    },
    {
      "inputs": [],
      "name": "URIQueryForNonexistentToken",
      "type": "error"
    },
    {
      "anonymous": false,
      "inputs": [
        {
          "indexed": true,
          "internalType": "address",
          "name": "owner",
          "type": "address"
        },
        {
          "indexed": true,
          "internalType": "address",
          "name": "approved",
          "type": "address"
        },
        {
          "indexed": true,
          "internalType": "uint256",
          "name": "tokenId",
          "type": "uint256"
        }
      ],
      "name": "Approval",
      "type": "event"
    },
    {
      "anonymous": false,
      "inputs": [
        {
          "indexed": true,
          "internalType": "address",
          "name": "owner",
          "type": "address"
        },
        {
          "indexed": true,
          "internalType": "address",
          "name": "operator",
          "type": "address"
        },
        {
          "indexed": false,
          "internalType": "bool",
          "name": "approved",
          "type": "bool"
        }
      ],
      "name": "ApprovalForAll",
      "type": "event"
    },
    {
      "anonymous": false,
      "inputs": [
        {
          "indexed": false,
          "internalType": "string",
          "name": "uri",
          "type": "string"
        }
      ],
      "name": "BaseURI",
      "type": "event"
    },
    {
      "anonymous": false,
      "inputs": [
        {
          "indexed": true,
          "internalType": "address",
          "name": "previousOwner",
          "type": "address"
        },
        {
          "indexed": true,
          "internalType": "address",
          "name": "newOwner",
          "type": "address"
        }
      ],
      "name": "OwnershipTransferred",
      "type": "event"
    },
    {
      "anonymous": false,
      "inputs": [
        {
          "indexed": false,
          "internalType": "bool",
          "name": "presaleActive",
          "type": "bool"
        }
      ],
      "name": "PresaleToggled",
      "type": "event"
    },
    {
      "anonymous": false,
      "inputs": [
        {
          "indexed": false,
          "internalType": "bool",
          "name": "publicSaleActive",
          "type": "bool"
        }
      ],
      "name": "PublicSaleSet",
      "type": "event"
    },
    {
      "anonymous": false,
      "inputs": [
        {
          "indexed": false,
          "internalType": "uint256",
          "name": "refundEndTime",
          "type": "uint256"
        }
      ],
      "name": "RefundCountDownSet",
      "type": "event"
    },
    {
      "anonymous": false,
      "inputs": [
        {
          "indexed": true,
          "internalType": "address",
          "name": "from",
          "type": "address"
        },
        {
          "indexed": true,
          "internalType": "address",
          "name": "to",
          "type": "address"
        },
        {
          "indexed": true,
          "internalType": "uint256",
          "name": "tokenId",
          "type": "uint256"
        }
      ],
      "name": "Transfer",
      "type": "event"
    },
    {
      "anonymous": false,
      "inputs": [
        {
          "indexed": false,
          "internalType": "bool",
          "name": "whitelistEnabled",
          "type": "bool"
        }
      ],
      "name": "WhiteListEnabled",
      "type": "event"
    },
    {
      "inputs": [],
      "name": "_currentIndex",
      "outputs": [
        {
          "internalType": "uint256",
          "name": "",
          "type": "uint256"
        }
      ],
      "stateMutability": "view",
      "type": "function"
    },
    {
      "inputs": [],
      "name": "_name",
      "outputs": [
        {
          "internalType": "string",
          "name": "",
          "type": "string"
        }
      ],
      "stateMutability": "view",
      "type": "function"
    },
    {
      "inputs": [],
      "name": "_symbol",
      "outputs": [
        {
          "internalType": "string",
          "name": "",
          "type": "string"
        }
      ],
      "stateMutability": "view",
      "type": "function"
    },
    {
      "inputs": [
        {
          "internalType": "address",
          "name": "to",
          "type": "address"
        },
        {
          "internalType": "uint256",
          "name": "tokenId",
          "type": "uint256"
        }
      ],
      "name": "approve",
      "outputs": [],
      "stateMutability": "nonpayable",
      "type": "function"
    },
    {
      "inputs": [
        {
          "internalType": "address",
          "name": "owner",
          "type": "address"
        }
      ],
      "name": "balanceOf",
      "outputs": [
        {
          "internalType": "uint256",
          "name": "",
          "type": "uint256"
        }
      ],
      "stateMutability": "view",
      "type": "function"
    },
    {
      "inputs": [
        {
          "internalType": "uint256",
          "name": "tokenId",
          "type": "uint256"
        }
      ],
      "name": "burn",
      "outputs": [],
      "stateMutability": "nonpayable",
      "type": "function"
    },
    {
      "inputs": [
        {
          "internalType": "uint256",
          "name": "tokenId",
          "type": "uint256"
        }
      ],
      "name": "getApproved",
      "outputs": [
        {
          "internalType": "address",
          "name": "",
          "type": "address"
        }
      ],
      "stateMutability": "view",
      "type": "function"
    },
    {
      "inputs": [],
      "name": "getRefundGuaranteeEndTime",
      "outputs": [
        {
          "internalType": "uint256",
          "name": "",
          "type": "uint256"
        }
      ],
      "stateMutability": "view",
      "type": "function"
    },
    {
      "inputs": [
        {
          "internalType": "uint256",
          "name": "",
          "type": "uint256"
        }
      ],
      "name": "hasRefunded",
      "outputs": [
        {
          "internalType": "bool",
          "name": "",
          "type": "bool"
        }
      ],
      "stateMutability": "view",
      "type": "function"
    },
    {
      "inputs": [
        {
          "internalType": "address",
          "name": "owner",
          "type": "address"
        },
        {
          "internalType": "address",
          "name": "operator",
          "type": "address"
        }
      ],
      "name": "isApprovedForAll",
      "outputs": [
        {
          "internalType": "bool",
          "name": "",
          "type": "bool"
        }
      ],
      "stateMutability": "view",
      "type": "function"
    },
    {
      "inputs": [
        {
          "internalType": "uint256",
          "name": "",
          "type": "uint256"
        }
      ],
      "name": "isOwnerMint",
      "outputs": [
        {
          "internalType": "bool",
          "name": "",
          "type": "bool"
        }
      ],
      "stateMutability": "view",
      "type": "function"
    },
    {
      "inputs": [],
      "name": "isRefundGuaranteeActive",
      "outputs": [
        {
          "internalType": "bool",
          "name": "",
          "type": "bool"
        }
      ],
      "stateMutability": "view",
      "type": "function"
    },
    {
      "inputs": [],
      "name": "maxMintSupply",
      "outputs": [
        {
          "internalType": "uint256",
          "name": "",
          "type": "uint256"
        }
      ],
      "stateMutability": "view",
      "type": "function"
    },
    {
      "inputs": [],
      "name": "maxUserMintAmount",
      "outputs": [
        {
          "internalType": "uint256",
          "name": "",
          "type": "uint256"
        }
      ],
      "stateMutability": "view",
      "type": "function"
    },
    {
      "inputs": [],
      "name": "mintPrice",
      "outputs": [
        {
          "internalType": "uint256",
          "name": "",
          "type": "uint256"
        }
      ],
      "stateMutability": "view",
      "type": "function"
    },
    {
      "inputs": [],
      "name": "name",
      "outputs": [
        {
          "internalType": "string",
          "name": "",
          "type": "string"
        }
      ],
      "stateMutability": "view",
      "type": "function"
    },
    {
      "inputs": [],
      "name": "owner",
      "outputs": [
        {
          "internalType": "address",
          "name": "",
          "type": "address"
        }
      ],
      "stateMutability": "view",
      "type": "function"
    },
    {
      "inputs": [
        {
          "internalType": "uint256",
          "name": "quantity",
          "type": "uint256"
        }
      ],
      "name": "ownerMint",
      "outputs": [],
      "stateMutability": "nonpayable",
      "type": "function"
    },
    {
      "inputs": [
        {
          "internalType": "uint256",
          "name": "tokenId",
          "type": "uint256"
        }
      ],
      "name": "ownerOf",
      "outputs": [
        {
          "internalType": "address",
          "name": "",
          "type": "address"
        }
      ],
      "stateMutability": "view",
      "type": "function"
    },
    {
      "inputs": [
        {
          "internalType": "uint256",
          "name": "quantity",
          "type": "uint256"
        }
      ],
      "name": "preSaleMint",
      "outputs": [],
      "stateMutability": "payable",
      "type": "function"
    },
    {
      "inputs": [],
      "name": "presaleActive",
      "outputs": [
        {
          "internalType": "bool",
          "name": "",
          "type": "bool"
        }
      ],
      "stateMutability": "view",
      "type": "function"
    },
    {
      "inputs": [],
      "name": "publicSaleActive",
      "outputs": [
        {
          "internalType": "bool",
          "name": "",
          "type": "bool"
        }
      ],
      "stateMutability": "view",
      "type": "function"
    },
    {
      "inputs": [
        {
          "internalType": "uint256",
          "name": "quantity",
          "type": "uint256"
        }
      ],
      "name": "publicSaleMint",
      "outputs": [],
      "stateMutability": "payable",
      "type": "function"
    },
    {
      "inputs": [
        {
          "internalType": "uint256[]",
          "name": "tokenIds",
          "type": "uint256[]"
        }
      ],
      "name": "refund",
      "outputs": [],
      "stateMutability": "nonpayable",
      "type": "function"
    },
    {
      "inputs": [],
      "name": "refundAddress",
      "outputs": [
        {
          "internalType": "address",
          "name": "",
          "type": "address"
        }
      ],
      "stateMutability": "view",
      "type": "function"
    },
    {
      "inputs": [],
      "name": "refundEndTime",
      "outputs": [
        {
          "internalType": "uint256",
          "name": "",
          "type": "uint256"
        }
      ],
      "stateMutability": "view",
      "type": "function"
    },
    {
      "inputs": [],
      "name": "refundPeriod",
      "outputs": [
        {
          "internalType": "uint256",
          "name": "",
          "type": "uint256"
        }
      ],
      "stateMutability": "view",
      "type": "function"
    },
    {
      "inputs": [
        {
          "internalType": "address[]",
          "name": "currentAddresses",
          "type": "address[]"
        }
      ],
      "name": "removeWhitelist",
      "outputs": [],
      "stateMutability": "nonpayable",
      "type": "function"
    },
    {
      "inputs": [],
      "name": "renounceOwnership",
      "outputs": [],
      "stateMutability": "nonpayable",
      "type": "function"
    },
    {
      "inputs": [
        {
          "internalType": "address",
          "name": "from",
          "type": "address"
        },
        {
          "internalType": "address",
          "name": "to",
          "type": "address"
        },
        {
          "internalType": "uint256",
          "name": "tokenId",
          "type": "uint256"
        }
      ],
      "name": "safeTransferFrom",
      "outputs": [],
      "stateMutability": "nonpayable",
      "type": "function"
    },
    {
      "inputs": [
        {
          "internalType": "address",
          "name": "from",
          "type": "address"
        },
        {
          "internalType": "address",
          "name": "to",
          "type": "address"
        },
        {
          "internalType": "uint256",
          "name": "tokenId",
          "type": "uint256"
        },
        {
          "internalType": "bytes",
          "name": "_data",
          "type": "bytes"
        }
      ],
      "name": "safeTransferFrom",
      "outputs": [],
      "stateMutability": "nonpayable",
      "type": "function"
    },
    {
      "inputs": [
        {
          "internalType": "address",
          "name": "operator",
          "type": "address"
        },
        {
          "internalType": "bool",
          "name": "approved",
          "type": "bool"
        }
      ],
      "name": "setApprovalForAll",
      "outputs": [],
      "stateMutability": "nonpayable",
      "type": "function"
    },
    {
      "inputs": [
        {
          "internalType": "string",
          "name": "uri",
          "type": "string"
        }
      ],
      "name": "setBaseURI",
      "outputs": [],
      "stateMutability": "nonpayable",
      "type": "function"
    },
    {
      "inputs": [
        {
          "internalType": "address",
          "name": "_refundAddress",
          "type": "address"
        }
      ],
      "name": "setRefundAddress",
      "outputs": [],
      "stateMutability": "nonpayable",
      "type": "function"
    },
    {
      "inputs": [
        {
          "internalType": "string",
          "name": "_uriSuffix",
          "type": "string"
        }
      ],
      "name": "setUriSuffix",
      "outputs": [],
      "stateMutability": "nonpayable",
      "type": "function"
    },
    {
      "inputs": [
        {
          "internalType": "address[]",
          "name": "newAddresses",
          "type": "address[]"
        }
      ],
      "name": "setWhitelist",
      "outputs": [],
      "stateMutability": "nonpayable",
      "type": "function"
    },
    {
      "inputs": [
        {
          "internalType": "bool",
          "name": "_state",
          "type": "bool"
        }
      ],
      "name": "setWhitelistEnabled",
      "outputs": [],
      "stateMutability": "nonpayable",
      "type": "function"
    },
    {
      "inputs": [
        {
          "internalType": "bytes4",
          "name": "interfaceId",
          "type": "bytes4"
        }
      ],
      "name": "supportsInterface",
      "outputs": [
        {
          "internalType": "bool",
          "name": "",
          "type": "bool"
        }
      ],
      "stateMutability": "view",
      "type": "function"
    },
    {
      "inputs": [],
      "name": "symbol",
      "outputs": [
        {
          "internalType": "string",
          "name": "",
          "type": "string"
        }
      ],
      "stateMutability": "view",
      "type": "function"
    },
    {
      "inputs": [],
      "name": "togglePresaleStatus",
      "outputs": [],
      "stateMutability": "nonpayable",
      "type": "function"
    },
    {
      "inputs": [],
      "name": "togglePublicSaleStatus",
      "outputs": [],
      "stateMutability": "nonpayable",
      "type": "function"
    },
    {
      "inputs": [],
      "name": "toggleRefundCountdown",
      "outputs": [],
      "stateMutability": "nonpayable",
      "type": "function"
    },
    {
      "inputs": [
        {
          "internalType": "uint256",
          "name": "_tokenId",
          "type": "uint256"
        }
      ],
      "name": "tokenURI",
      "outputs": [
        {
          "internalType": "string",
          "name": "",
          "type": "string"
        }
      ],
      "stateMutability": "view",
      "type": "function"
    },
    {
      "inputs": [],
      "name": "totalSupply",
      "outputs": [
        {
          "internalType": "uint256",
          "name": "",
          "type": "uint256"
        }
      ],
      "stateMutability": "view",
      "type": "function"
    },
    {
      "inputs": [
        {
          "internalType": "address",
          "name": "from",
          "type": "address"
        },
        {
          "internalType": "address",
          "name": "to",
          "type": "address"
        },
        {
          "internalType": "uint256",
          "name": "tokenId",
          "type": "uint256"
        }
      ],
      "name": "transferFrom",
      "outputs": [],
      "stateMutability": "nonpayable",
      "type": "function"
    },
    {
      "inputs": [
        {
          "internalType": "address",
          "name": "newOwner",
          "type": "address"
        }
      ],
      "name": "transferOwnership",
      "outputs": [],
      "stateMutability": "nonpayable",
      "type": "function"
    },
    {
      "inputs": [],
      "name": "uriSuffix",
      "outputs": [
        {
          "internalType": "string",
          "name": "",
          "type": "string"
        }
      ],
      "stateMutability": "view",
      "type": "function"
    },
    {
      "inputs": [
        {
          "internalType": "address",
          "name": "",
          "type": "address"
        }
      ],
      "name": "whitelist",
      "outputs": [
        {
          "internalType": "bool",
          "name": "",
          "type": "bool"
        }
      ],
      "stateMutability": "view",
      "type": "function"
    },
    {
      "inputs": [],
      "name": "whitelistEnabled",
      "outputs": [
        {
          "internalType": "bool",
          "name": "",
          "type": "bool"
        }
      ],
      "stateMutability": "view",
      "type": "function"
    },
    {
      "inputs": [],
      "name": "withdraw",
      "outputs": [],
      "stateMutability": "nonpayable",
      "type": "function"
    }
  ],
  "bytecode": "0x60806040526040518060400160405280600581526020017f2e6a736f6e000000000000000000000000000000000000000000000000000000815250600a908051906020019062000051929190620003de565b506000600e556000601160166101000a81548160ff0219169083151502179055503480156200007f57600080fd5b506040516200535c3803806200535c8339818101604052810190620000a5919062000666565b85858160029080519060200190620000bf929190620003de565b508060039080519060200190620000d8929190620003de565b50620000e9620001ed60201b60201c565b60008190555050506200011162000105620001f260201b60201c565b620001fa60201b60201c565b6000869050600086905060008251141580156200013057506000815114155b62000172576040517f08c379a00000000000000000000000000000000000000000000000000000000081526004016200016990620007c7565b60405180910390fd5b33601160006101000a81548173ffffffffffffffffffffffffffffffffffffffff021916908373ffffffffffffffffffffffffffffffffffffffff16021790555085600b8190555084600c8190555083600f8190555082600d81905550620001df620002c060201b60201c565b50505050505050506200097a565b600090565b600033905090565b6000600860009054906101000a900473ffffffffffffffffffffffffffffffffffffffff16905081600860006101000a81548173ffffffffffffffffffffffffffffffffffffffff021916908373ffffffffffffffffffffffffffffffffffffffff1602179055508173ffffffffffffffffffffffffffffffffffffffff168173ffffffffffffffffffffffffffffffffffffffff167f8be0079c531659141344cd1fd0a4f28419497f9722a3daafe3b4186f6b6457e060405160405180910390a35050565b620002d06200032360201b60201c565b600f5442620002e0919062000818565b6010819055507f8c7f828c45e9721cfd644b2a4f2ff1eba1c36125ea260c43c4d47ebcb59d314160105460405162000319919062000886565b60405180910390a1565b62000333620001f260201b60201c565b73ffffffffffffffffffffffffffffffffffffffff1662000359620003b460201b60201c565b73ffffffffffffffffffffffffffffffffffffffff1614620003b2576040517f08c379a0000000000000000000000000000000000000000000000000000000008152600401620003a990620008f3565b60405180910390fd5b565b6000600860009054906101000a900473ffffffffffffffffffffffffffffffffffffffff16905090565b828054620003ec9062000944565b90600052602060002090601f0160209004810192826200041057600085556200045c565b82601f106200042b57805160ff19168380011785556200045c565b828001600101855582156200045c579182015b828111156200045b5782518255916020019190600101906200043e565b5b5090506200046b91906200046f565b5090565b5b808211156200048a57600081600090555060010162000470565b5090565b6000604051905090565b600080fd5b600080fd5b600080fd5b600080fd5b6000601f19601f8301169050919050565b7f4e487b7100000000000000000000000000000000000000000000000000000000600052604160045260246000fd5b620004f782620004ac565b810181811067ffffffffffffffff82111715620005195762000518620004bd565b5b80604052505050565b60006200052e6200048e565b90506200053c8282620004ec565b919050565b600067ffffffffffffffff8211156200055f576200055e620004bd565b5b6200056a82620004ac565b9050602081019050919050565b60005b83811015620005975780820151818401526020810190506200057a565b83811115620005a7576000848401525b50505050565b6000620005c4620005be8462000541565b62000522565b905082815260208101848484011115620005e357620005e2620004a7565b5b620005f084828562000577565b509392505050565b600082601f83011262000610576200060f620004a2565b5b815162000622848260208601620005ad565b91505092915050565b6000819050919050565b62000640816200062b565b81146200064c57600080fd5b50565b600081519050620006608162000635565b92915050565b60008060008060008060c0878903121562000686576200068562000498565b5b600087015167ffffffffffffffff811115620006a757620006a66200049d565b5b620006b589828a01620005f8565b965050602087015167ffffffffffffffff811115620006d957620006d86200049d565b5b620006e789828a01620005f8565b9550506040620006fa89828a016200064f565b94505060606200070d89828a016200064f565b93505060806200072089828a016200064f565b92505060a06200073389828a016200064f565b9150509295509295509295565b600082825260208201905092915050565b7f455243373231523a2043686f6f73652061206e616d6520616e642073796d626f60008201527f6c00000000000000000000000000000000000000000000000000000000000000602082015250565b6000620007af60218362000740565b9150620007bc8262000751565b604082019050919050565b60006020820190508181036000830152620007e281620007a0565b9050919050565b7f4e487b7100000000000000000000000000000000000000000000000000000000600052601160045260246000fd5b600062000825826200062b565b915062000832836200062b565b9250827fffffffffffffffffffffffffffffffffffffffffffffffffffffffffffffffff038211156200086a5762000869620007e9565b5b828201905092915050565b62000880816200062b565b82525050565b60006020820190506200089d600083018462000875565b92915050565b7f4f776e61626c653a2063616c6c6572206973206e6f7420746865206f776e6572600082015250565b6000620008db60208362000740565b9150620008e882620008a3565b602082019050919050565b600060208201905081810360008301526200090e81620008cc565b9050919050565b7f4e487b7100000000000000000000000000000000000000000000000000000000600052602260045260246000fd5b600060028204905060018216806200095d57607f821691505b6020821081141562000974576200097362000915565b5b50919050565b6149d2806200098a6000396000f3fe6080604052600436106102c95760003560e01c80637bffb4ce11610175578063b9ad9fde116100dc578063d28d885211610095578063f2fde38b1161006f578063f2fde38b14610a7c578063f421764814610aa5578063f7a3031314610ace578063faf762bd14610b0b576102c9565b8063d28d8852146109eb578063e985e9c514610a16578063f19e75d414610a53576102c9565b8063b9ad9fde146108d9578063bc8893b4146108f0578063c23fcdef1461091b578063c285e10714610958578063c4ea084514610983578063c87b56dd146109ae576102c9565b8063a22cb4651161012e578063a22cb465146107ec578063a6a3b5b414610815578063aa613df514610840578063b09f126614610869578063b3ab66b014610894578063b88d4fde146108b0576102c9565b80637bffb4ce146106ec5780638da5cb5b14610703578063921d28a91461072e5780639451c99a1461075957806395d89b41146107845780639b19251a146107af576102c9565b80633ccfd60b1161023457806355f804b3116101ed57806370a08231116101c757806370a0823114610651578063715018a61461068e57806373fddd16146106a55780637835c635146106d0576102c9565b806355f804b3146105c05780636352211e146105e95780636817c76c14610626576102c9565b80633ccfd60b146104d657806342842e0e146104ed57806342966c681461051657806351fb012d1461053f57806353135ca01461056a5780635503a0e814610595576102c9565b806315b75bea1161028657806315b75bea146103f057806316ba10e01461041957806318160ddd14610442578063232452161461046d57806323b872dd146104965780632e9be821146104bf576102c9565b806301ffc9a7146102ce578063052d9e7e1461030b57806306fdde0314610334578063081812fc1461035f578063095ea7b31461039c5780630cb61f6c146103c5575b600080fd5b3480156102da57600080fd5b506102f560048036038101906102f091906134a7565b610b36565b60405161030291906134ef565b60405180910390f35b34801561031757600080fd5b50610332600480360381019061032d9190613536565b610bc8565b005b34801561034057600080fd5b50610349610c33565b60405161035691906135fc565b60405180910390f35b34801561036b57600080fd5b5061038660048036038101906103819190613654565b610cc5565b60405161039391906136c2565b60405180910390f35b3480156103a857600080fd5b506103c360048036038101906103be9190613709565b610d41565b005b3480156103d157600080fd5b506103da610ee8565b6040516103e791906136c2565b60405180910390f35b3480156103fc57600080fd5b5061041760048036038101906104129190613749565b610f0e565b005b34801561042557600080fd5b50610440600480360381019061043b91906138ab565b610f5a565b005b34801561044e57600080fd5b50610457610f7c565b6040516104649190613903565b60405180910390f35b34801561047957600080fd5b50610494600480360381019061048f919061397e565b610f93565b005b3480156104a257600080fd5b506104bd60048036038101906104b891906139cb565b6110dd565b005b3480156104cb57600080fd5b506104d46110ed565b005b3480156104e257600080fd5b506104eb611144565b005b3480156104f957600080fd5b50610514600480360381019061050f91906139cb565b611210565b005b34801561052257600080fd5b5061053d60048036038101906105389190613654565b611230565b005b34801561054b57600080fd5b5061055461123c565b60405161056191906134ef565b60405180910390f35b34801561057657600080fd5b5061057f61124f565b60405161058c91906134ef565b60405180910390f35b3480156105a157600080fd5b506105aa611262565b6040516105b791906135fc565b60405180910390f35b3480156105cc57600080fd5b506105e760048036038101906105e291906138ab565b6112f0565b005b3480156105f557600080fd5b50610610600480360381019061060b9190613654565b61134a565b60405161061d91906136c2565b60405180910390f35b34801561063257600080fd5b5061063b61135c565b6040516106489190613903565b60405180910390f35b34801561065d57600080fd5b5061067860048036038101906106739190613749565b611362565b6040516106859190613903565b60405180910390f35b34801561069a57600080fd5b506106a36113f7565b005b3480156106b157600080fd5b506106ba61140b565b6040516106c79190613903565b60405180910390f35b6106ea60048036038101906106e59190613654565b611411565b005b3480156106f857600080fd5b50610701611615565b005b34801561070f57600080fd5b5061071861168f565b60405161072591906136c2565b60405180910390f35b34801561073a57600080fd5b506107436116b9565b6040516107509190613903565b60405180910390f35b34801561076557600080fd5b5061076e6116bf565b60405161077b9190613903565b60405180910390f35b34801561079057600080fd5b506107996116c5565b6040516107a691906135fc565b60405180910390f35b3480156107bb57600080fd5b506107d660048036038101906107d19190613749565b611757565b6040516107e391906134ef565b60405180910390f35b3480156107f857600080fd5b50610813600480360381019061080e9190613a1e565b611777565b005b34801561082157600080fd5b5061082a6118ef565b6040516108379190613903565b60405180910390f35b34801561084c57600080fd5b5061086760048036038101906108629190613ab4565b6118f5565b005b34801561087557600080fd5b5061087e611b9f565b60405161088b91906135fc565b60405180910390f35b6108ae60048036038101906108a99190613654565b611c2d565b005b3480156108bc57600080fd5b506108d760048036038101906108d29190613ba2565b611d88565b005b3480156108e557600080fd5b506108ee611dfb565b005b3480156108fc57600080fd5b50610905611e75565b60405161091291906134ef565b60405180910390f35b34801561092757600080fd5b50610942600480360381019061093d9190613654565b611e88565b60405161094f91906134ef565b60405180910390f35b34801561096457600080fd5b5061096d611ea8565b60405161097a9190613903565b60405180910390f35b34801561098f57600080fd5b50610998611eae565b6040516109a591906134ef565b60405180910390f35b3480156109ba57600080fd5b506109d560048036038101906109d09190613654565b611ebb565b6040516109e291906135fc565b60405180910390f35b3480156109f757600080fd5b50610a00611f65565b604051610a0d91906135fc565b60405180910390f35b348015610a2257600080fd5b50610a3d6004803603810190610a389190613c25565b611ff3565b604051610a4a91906134ef565b60405180910390f35b348015610a5f57600080fd5b50610a7a6004803603810190610a759190613654565b612087565b005b348015610a8857600080fd5b50610aa36004803603810190610a9e9190613749565b612150565b005b348015610ab157600080fd5b50610acc6004803603810190610ac7919061397e565b6121d4565b005b348015610ada57600080fd5b50610af56004803603810190610af09190613654565b61236c565b604051610b0291906134ef565b60405180910390f35b348015610b1757600080fd5b50610b2061238c565b604051610b2d9190613903565b60405180910390f35b60006301ffc9a760e01b827bffffffffffffffffffffffffffffffffffffffffffffffffffffffff19161480610b9157506380ac58cd60e01b827bffffffffffffffffffffffffffffffffffffffffffffffffffffffff1916145b80610bc15750635b5e139f60e01b827bffffffffffffffffffffffffffffffffffffffffffffffffffffffff1916145b9050919050565b610bd0612396565b80601160166101000a81548160ff0219169083151502179055507f218e591c4b0d49651b4b42843cb8cc59080122def3d2271f56ef2e21896753ec601160169054906101000a900460ff16604051610c2891906134ef565b60405180910390a150565b606060028054610c4290613c94565b80601f0160208091040260200160405190810160405280929190818152602001828054610c6e90613c94565b8015610cbb5780601f10610c9057610100808354040283529160200191610cbb565b820191906000526020600020905b815481529060010190602001808311610c9e57829003601f168201915b5050505050905090565b6000610cd082612414565b610d06576040517fcf4700e400000000000000000000000000000000000000000000000000000000815260040160405180910390fd5b6006600083815260200190815260200160002060009054906101000a900473ffffffffffffffffffffffffffffffffffffffff169050919050565b6000610d4c82612473565b90508073ffffffffffffffffffffffffffffffffffffffff168373ffffffffffffffffffffffffffffffffffffffff161415610db4576040517f943f7b8c00000000000000000000000000000000000000000000000000000000815260040160405180910390fd5b8073ffffffffffffffffffffffffffffffffffffffff16610dd3612541565b73ffffffffffffffffffffffffffffffffffffffff1614610e3657610dff81610dfa612541565b611ff3565b610e35576040517fcfb3b94200000000000000000000000000000000000000000000000000000000815260040160405180910390fd5b5b826006600084815260200190815260200160002060006101000a81548173ffffffffffffffffffffffffffffffffffffffff021916908373ffffffffffffffffffffffffffffffffffffffff160217905550818373ffffffffffffffffffffffffffffffffffffffff168273ffffffffffffffffffffffffffffffffffffffff167f8c5be1e5ebec7d5bd14f71427d1e84f3dd0314c0f7b2291e5b200ac8c7c3b92560405160405180910390a4505050565b601160009054906101000a900473ffffffffffffffffffffffffffffffffffffffff1681565b610f16612396565b80601160006101000a81548173ffffffffffffffffffffffffffffffffffffffff021916908373ffffffffffffffffffffffffffffffffffffffff16021790555050565b610f62612396565b80600a9080519060200190610f78929190613398565b5050565b6000610f86612549565b6001546000540303905090565b610f9b612396565b60008282905011610fe1576040517f08c379a0000000000000000000000000000000000000000000000000000000008152600401610fd890613d12565b60405180910390fd5b6101f4828290501115611029576040517f08c379a000000000000000000000000000000000000000000000000000000000815260040161102090613d7e565b60405180910390fd5b60005b828290508110156110d8576012600084848481811061104e5761104d613d9e565b5b90506020020160208101906110639190613749565b73ffffffffffffffffffffffffffffffffffffffff1673ffffffffffffffffffffffffffffffffffffffff16815260200190815260200160002060006101000a81549060ff0219169055600e60008154809291906110c090613dfc565b919050555080806110d090613e26565b91505061102c565b505050565b6110e883838361254e565b505050565b6110f5612396565b600f54426111039190613e6f565b6010819055507f8c7f828c45e9721cfd644b2a4f2ff1eba1c36125ea260c43c4d47ebcb59d314160105460405161113a9190613903565b60405180910390a1565b61114c612396565b6010544211611190576040517f08c379a000000000000000000000000000000000000000000000000000000000815260040161118790613f11565b60405180910390fd5b600061119a61168f565b73ffffffffffffffffffffffffffffffffffffffff16476040516111bd90613f62565b60006040518083038185875af1925050503d80600081146111fa576040519150601f19603f3d011682016040523d82523d6000602084013e6111ff565b606091505b505090508061120d57600080fd5b50565b61122b83838360405180602001604052806000815250611d88565b505050565b61123981612916565b50565b601160169054906101000a900460ff1681565b601160159054906101000a900460ff1681565b600a805461126f90613c94565b80601f016020809104026020016040519081016040528092919081815260200182805461129b90613c94565b80156112e85780601f106112bd576101008083540402835291602001916112e8565b820191906000526020600020905b8154815290600101906020018083116112cb57829003601f168201915b505050505081565b6112f8612396565b806009908051906020019061130e929190613398565b507f01e56a02aca7f26a28165a040851ba78f30282b55ca81c63a804cdc1e2dcea72600960405161133f919061400c565b60405180910390a150565b600061135582612473565b9050919050565b600c5481565b60008061136e83612924565b14156113a6576040517f8f4eb60400000000000000000000000000000000000000000000000000000000815260040160405180910390fd5b67ffffffffffffffff600560008473ffffffffffffffffffffffffffffffffffffffff1673ffffffffffffffffffffffffffffffffffffffff16815260200190815260200160002054169050919050565b6113ff612396565b611409600061292e565b565b60105481565b601160159054906101000a900460ff16611460576040517f08c379a00000000000000000000000000000000000000000000000000000000081526004016114579061407a565b60405180910390fd5b60011515601160169054906101000a900460ff161515141561150957601260003373ffffffffffffffffffffffffffffffffffffffff1673ffffffffffffffffffffffffffffffffffffffff16815260200190815260200160002060009054906101000a900460ff16611508576040517f08c379a00000000000000000000000000000000000000000000000000000000081526004016114ff906140e6565b60405180910390fd5b5b600c54816115179190614106565b341015611559576040517f08c379a0000000000000000000000000000000000000000000000000000000008152600401611550906141ac565b60405180910390fd5b600d5481611566336129f4565b6115709190613e6f565b11156115b1576040517f08c379a00000000000000000000000000000000000000000000000000000000081526004016115a890614218565b60405180910390fd5b600b54816115bd612a4b565b6115c79190613e6f565b1115611608576040517f08c379a00000000000000000000000000000000000000000000000000000000081526004016115ff90614284565b60405180910390fd5b6116123382612a5e565b50565b61161d612396565b601160159054906101000a900460ff1615601160156101000a81548160ff0219169083151502179055507f1894dedbea928d98b9226ddf41dc827e1ce8e5b17fdef6cf7170b15d305dcfcb601160159054906101000a900460ff1660405161168591906134ef565b60405180910390a1565b6000600860009054906101000a900473ffffffffffffffffffffffffffffffffffffffff16905090565b600d5481565b60005481565b6060600380546116d490613c94565b80601f016020809104026020016040519081016040528092919081815260200182805461170090613c94565b801561174d5780601f106117225761010080835404028352916020019161174d565b820191906000526020600020905b81548152906001019060200180831161173057829003601f168201915b5050505050905090565b60126020528060005260406000206000915054906101000a900460ff1681565b61177f612541565b73ffffffffffffffffffffffffffffffffffffffff168273ffffffffffffffffffffffffffffffffffffffff1614156117e4576040517fb06307db00000000000000000000000000000000000000000000000000000000815260040160405180910390fd5b80600760006117f1612541565b73ffffffffffffffffffffffffffffffffffffffff1673ffffffffffffffffffffffffffffffffffffffff16815260200190815260200160002060008473ffffffffffffffffffffffffffffffffffffffff1673ffffffffffffffffffffffffffffffffffffffff16815260200190815260200160002060006101000a81548160ff0219169083151502179055508173ffffffffffffffffffffffffffffffffffffffff1661189e612541565b73ffffffffffffffffffffffffffffffffffffffff167f17307eab39ab6107e8899845ad3d59bd9653f200f220920489ca2b5937696c31836040516118e391906134ef565b60405180910390a35050565b600f5481565b6118fd611eae565b61193c576040517f08c379a0000000000000000000000000000000000000000000000000000000008152600401611933906142f0565b60405180910390fd5b60005b82829050811015611b0d57600083838381811061195f5761195e613d9e565b5b9050602002013590506119718161134a565b73ffffffffffffffffffffffffffffffffffffffff163373ffffffffffffffffffffffffffffffffffffffff16146119de576040517f08c379a00000000000000000000000000000000000000000000000000000000081526004016119d59061435c565b60405180910390fd5b6013600082815260200190815260200160002060009054906101000a900460ff1615611a3f576040517f08c379a0000000000000000000000000000000000000000000000000000000008152600401611a36906143c8565b60405180910390fd5b6014600082815260200190815260200160002060009054906101000a900460ff1615611aa0576040517f08c379a0000000000000000000000000000000000000000000000000000000008152600401611a979061445a565b60405180910390fd5b60016013600083815260200190815260200160002060006101000a81548160ff021916908315150217905550611af933601160009054906101000a900473ffffffffffffffffffffffffffffffffffffffff16836110dd565b508080611b0590613e26565b91505061193f565b506000600c5483839050611b219190614106565b905060003373ffffffffffffffffffffffffffffffffffffffff1682604051611b4990613f62565b60006040518083038185875af1925050503d8060008114611b86576040519150601f19603f3d011682016040523d82523d6000602084013e611b8b565b606091505b5050905080611b9957600080fd5b50505050565b60038054611bac90613c94565b80601f0160208091040260200160405190810160405280929190818152602001828054611bd890613c94565b8015611c255780601f10611bfa57610100808354040283529160200191611c25565b820191906000526020600020905b815481529060010190602001808311611c0857829003601f168201915b505050505081565b601160149054906101000a900460ff16611c7c576040517f08c379a0000000000000000000000000000000000000000000000000000000008152600401611c73906144c6565b60405180910390fd5b600c5481611c8a9190614106565b341015611ccc576040517f08c379a0000000000000000000000000000000000000000000000000000000008152600401611cc3906141ac565b60405180910390fd5b600d5481611cd9336129f4565b611ce39190613e6f565b1115611d24576040517f08c379a0000000000000000000000000000000000000000000000000000000008152600401611d1b90614218565b60405180910390fd5b600b5481611d30612a4b565b611d3a9190613e6f565b1115611d7b576040517f08c379a0000000000000000000000000000000000000000000000000000000008152600401611d7290614284565b60405180910390fd5b611d853382612a5e565b50565b611d9384848461254e565b60008373ffffffffffffffffffffffffffffffffffffffff163b14611df557611dbe84848484612a7c565b611df4576040517fd1a57ed600000000000000000000000000000000000000000000000000000000815260040160405180910390fd5b5b50505050565b611e03612396565b601160149054906101000a900460ff1615601160146101000a81548160ff0219169083151502179055507f28b42d64cef88205a656230fafa4bc31b0bd28f99b5d006c276a037fb00ec969601160149054906101000a900460ff16604051611e6b91906134ef565b60405180910390a1565b601160149054906101000a900460ff1681565b60136020528060005260406000206000915054906101000a900460ff1681565b600b5481565b6000601054421115905090565b6060611ec682612414565b611f05576040517f08c379a0000000000000000000000000000000000000000000000000000000008152600401611efc90614558565b60405180910390fd5b6000611f0f612bdc565b90506000815111611f2f5760405180602001604052806000815250611f5d565b80611f3984612c6e565b600a604051602001611f4d93929190614633565b6040516020818303038152906040525b915050919050565b60028054611f7290613c94565b80601f0160208091040260200160405190810160405280929190818152602001828054611f9e90613c94565b8015611feb5780601f10611fc057610100808354040283529160200191611feb565b820191906000526020600020905b815481529060010190602001808311611fce57829003601f168201915b505050505081565b6000600760008473ffffffffffffffffffffffffffffffffffffffff1673ffffffffffffffffffffffffffffffffffffffff16815260200190815260200160002060008373ffffffffffffffffffffffffffffffffffffffff1673ffffffffffffffffffffffffffffffffffffffff16815260200190815260200160002060009054906101000a900460ff16905092915050565b61208f612396565b600b548161209b612a4b565b6120a59190613e6f565b11156120e6576040517f08c379a00000000000000000000000000000000000000000000000000000000081526004016120dd90614284565b60405180910390fd5b6120f03382612a5e565b6000816000546121009190614664565b90505b60005481101561214c5760016014600083815260200190815260200160002060006101000a81548160ff021916908315150217905550808061214490613e26565b915050612103565b5050565b612158612396565b600073ffffffffffffffffffffffffffffffffffffffff168173ffffffffffffffffffffffffffffffffffffffff1614156121c8576040517f08c379a00000000000000000000000000000000000000000000000000000000081526004016121bf9061470a565b60405180910390fd5b6121d18161292e565b50565b6121dc612396565b60008282905011612222576040517f08c379a000000000000000000000000000000000000000000000000000000000815260040161221990613d12565b60405180910390fd5b6101f48282905010612269576040517f08c379a000000000000000000000000000000000000000000000000000000000815260040161226090613d7e565b60405180910390fd5b60005b82829050811015612367576107d0600e54106122bd576040517f08c379a00000000000000000000000000000000000000000000000000000000081526004016122b49061479c565b60405180910390fd5b6001601260008585858181106122d6576122d5613d9e565b5b90506020020160208101906122eb9190613749565b73ffffffffffffffffffffffffffffffffffffffff1673ffffffffffffffffffffffffffffffffffffffff16815260200190815260200160002060006101000a81548160ff021916908315150217905550600e600081548092919061234f90613e26565b9190505550808061235f90613e26565b91505061226c565b505050565b60146020528060005260406000206000915054906101000a900460ff1681565b6000601054905090565b61239e612dcf565b73ffffffffffffffffffffffffffffffffffffffff166123bc61168f565b73ffffffffffffffffffffffffffffffffffffffff1614612412576040517f08c379a000000000000000000000000000000000000000000000000000000000815260040161240990614808565b60405180910390fd5b565b60008161241f612549565b1115801561242e575060005482105b801561246c575060007c0100000000000000000000000000000000000000000000000000000000600460008581526020019081526020016000205416145b9050919050565b60008082905080612482612549565b1161250a576000548110156125095760006004600083815260200190815260200160002054905060007c010000000000000000000000000000000000000000000000000000000082161415612507575b60008114156124fd5760046000836001900393508381526020019081526020016000205490506124d2565b809250505061253c565b505b5b6040517fdf2d9b4200000000000000000000000000000000000000000000000000000000815260040160405180910390fd5b919050565b600033905090565b600090565b600061255982612473565b90508373ffffffffffffffffffffffffffffffffffffffff168173ffffffffffffffffffffffffffffffffffffffff16146125c0576040517fa114810000000000000000000000000000000000000000000000000000000000815260040160405180910390fd5b60006006600084815260200190815260200160002060009054906101000a900473ffffffffffffffffffffffffffffffffffffffff16905060008573ffffffffffffffffffffffffffffffffffffffff16612619612541565b73ffffffffffffffffffffffffffffffffffffffff161480612648575061264786612642612541565b611ff3565b5b806126855750612656612541565b73ffffffffffffffffffffffffffffffffffffffff168273ffffffffffffffffffffffffffffffffffffffff16145b9050806126be576040517f59c896be00000000000000000000000000000000000000000000000000000000815260040160405180910390fd5b60006126c986612924565b1415612701576040517fea553b3400000000000000000000000000000000000000000000000000000000815260040160405180910390fd5b61270e8686866001612dd7565b600061271983612924565b14612755576006600085815260200190815260200160002060006101000a81549073ffffffffffffffffffffffffffffffffffffffff02191690555b600560008773ffffffffffffffffffffffffffffffffffffffff1673ffffffffffffffffffffffffffffffffffffffff168152602001908152602001600020600081546001900391905081905550600560008673ffffffffffffffffffffffffffffffffffffffff1673ffffffffffffffffffffffffffffffffffffffff16815260200190815260200160002060008154600101919050819055507c020000000000000000000000000000000000000000000000000000000060a042901b61281c87612924565b1717600460008681526020019081526020016000208190555060007c0200000000000000000000000000000000000000000000000000000000841614156128a65760006001850190506000600460008381526020019081526020016000205414156128a45760005481146128a3578360046000838152602001908152602001600020819055505b5b505b838573ffffffffffffffffffffffffffffffffffffffff168773ffffffffffffffffffffffffffffffffffffffff167fddf252ad1be2c89b69c2b068fc378daa952ba7f163c4a11628f55a4df523b3ef60405160405180910390a461290e8686866001612ddd565b505050505050565b612921816000612de3565b50565b6000819050919050565b6000600860009054906101000a900473ffffffffffffffffffffffffffffffffffffffff16905081600860006101000a81548173ffffffffffffffffffffffffffffffffffffffff021916908373ffffffffffffffffffffffffffffffffffffffff1602179055508173ffffffffffffffffffffffffffffffffffffffff168173ffffffffffffffffffffffffffffffffffffffff167f8be0079c531659141344cd1fd0a4f28419497f9722a3daafe3b4186f6b6457e060405160405180910390a35050565b600067ffffffffffffffff6040600560008573ffffffffffffffffffffffffffffffffffffffff1673ffffffffffffffffffffffffffffffffffffffff16815260200190815260200160002054901c169050919050565b6000612a55612549565b60005403905090565b612a788282604051806020016040528060008152506130fd565b5050565b60008373ffffffffffffffffffffffffffffffffffffffff1663150b7a02612aa2612541565b8786866040518563ffffffff1660e01b8152600401612ac4949392919061487d565b602060405180830381600087803b158015612ade57600080fd5b505af1925050508015612b0f57506040513d601f19601f82011682018060405250810190612b0c91906148de565b60015b612b89573d8060008114612b3f576040519150601f19603f3d011682016040523d82523d6000602084013e612b44565b606091505b50600081511415612b81576040517fd1a57ed600000000000000000000000000000000000000000000000000000000815260040160405180910390fd5b805181602001fd5b63150b7a0260e01b7bffffffffffffffffffffffffffffffffffffffffffffffffffffffff1916817bffffffffffffffffffffffffffffffffffffffffffffffffffffffff191614915050949350505050565b606060098054612beb90613c94565b80601f0160208091040260200160405190810160405280929190818152602001828054612c1790613c94565b8015612c645780601f10612c3957610100808354040283529160200191612c64565b820191906000526020600020905b815481529060010190602001808311612c4757829003601f168201915b5050505050905090565b60606000821415612cb6576040518060400160405280600181526020017f30000000000000000000000000000000000000000000000000000000000000008152509050612dca565b600082905060005b60008214612ce8578080612cd190613e26565b915050600a82612ce1919061493a565b9150612cbe565b60008167ffffffffffffffff811115612d0457612d03613780565b5b6040519080825280601f01601f191660200182016040528015612d365781602001600182028036833780820191505090505b5090505b60008514612dc357600182612d4f9190614664565b9150600a85612d5e919061496b565b6030612d6a9190613e6f565b60f81b818381518110612d8057612d7f613d9e565b5b60200101907effffffffffffffffffffffffffffffffffffffffffffffffffffffffffffff1916908160001a905350600a85612dbc919061493a565b9450612d3a565b8093505050505b919050565b600033905090565b50505050565b50505050565b6000612dee83612473565b9050600081905060006006600086815260200190815260200160002060009054906101000a900473ffffffffffffffffffffffffffffffffffffffff1690508315612efb5760008273ffffffffffffffffffffffffffffffffffffffff16612e54612541565b73ffffffffffffffffffffffffffffffffffffffff161480612e835750612e8283612e7d612541565b611ff3565b5b80612ec05750612e91612541565b73ffffffffffffffffffffffffffffffffffffffff168273ffffffffffffffffffffffffffffffffffffffff16145b905080612ef9576040517f59c896be00000000000000000000000000000000000000000000000000000000815260040160405180910390fd5b505b612f09826000876001612dd7565b6000612f1482612924565b14612f50576006600086815260200190815260200160002060006101000a81549073ffffffffffffffffffffffffffffffffffffffff02191690555b600160806001901b03600560008473ffffffffffffffffffffffffffffffffffffffff1673ffffffffffffffffffffffffffffffffffffffff168152602001908152602001600020600082825401925050819055507c02000000000000000000000000000000000000000000000000000000007c010000000000000000000000000000000000000000000000000000000060a042901b612fef85612924565b171717600460008781526020019081526020016000208190555060007c02000000000000000000000000000000000000000000000000000000008416141561307a576000600186019050600060046000838152602001908152602001600020541415613078576000548114613077578360046000838152602001908152602001600020819055505b5b505b84600073ffffffffffffffffffffffffffffffffffffffff168373ffffffffffffffffffffffffffffffffffffffff167fddf252ad1be2c89b69c2b068fc378daa952ba7f163c4a11628f55a4df523b3ef60405160405180910390a46130e4826000876001612ddd565b6001600081548092919060010191905055505050505050565b600080549050600061310e85612924565b1415613146576040517f2e07630000000000000000000000000000000000000000000000000000000000815260040160405180910390fd5b6000831415613181576040517fb562e8dd00000000000000000000000000000000000000000000000000000000815260040160405180910390fd5b61318e6000858386612dd7565b600160406001901b178302600560008673ffffffffffffffffffffffffffffffffffffffff1673ffffffffffffffffffffffffffffffffffffffff1681526020019081526020016000206000828254019250508190555060e16131f36001851461338e565b901b60a042901b61320386612924565b1717600460008381526020019081526020016000208190555060008190506000848201905060008673ffffffffffffffffffffffffffffffffffffffff163b14613307575b818673ffffffffffffffffffffffffffffffffffffffff16600073ffffffffffffffffffffffffffffffffffffffff167fddf252ad1be2c89b69c2b068fc378daa952ba7f163c4a11628f55a4df523b3ef60405160405180910390a46132b76000878480600101955087612a7c565b6132ed576040517fd1a57ed600000000000000000000000000000000000000000000000000000000815260040160405180910390fd5b80821061324857826000541461330257600080fd5b613372565b5b818060010192508673ffffffffffffffffffffffffffffffffffffffff16600073ffffffffffffffffffffffffffffffffffffffff167fddf252ad1be2c89b69c2b068fc378daa952ba7f163c4a11628f55a4df523b3ef60405160405180910390a4808210613308575b8160008190555050506133886000858386612ddd565b50505050565b6000819050919050565b8280546133a490613c94565b90600052602060002090601f0160209004810192826133c6576000855561340d565b82601f106133df57805160ff191683800117855561340d565b8280016001018555821561340d579182015b8281111561340c5782518255916020019190600101906133f1565b5b50905061341a919061341e565b5090565b5b8082111561343757600081600090555060010161341f565b5090565b6000604051905090565b600080fd5b600080fd5b60007fffffffff0000000000000000000000000000000000000000000000000000000082169050919050565b6134848161344f565b811461348f57600080fd5b50565b6000813590506134a18161347b565b92915050565b6000602082840312156134bd576134bc613445565b5b60006134cb84828501613492565b91505092915050565b60008115159050919050565b6134e9816134d4565b82525050565b600060208201905061350460008301846134e0565b92915050565b613513816134d4565b811461351e57600080fd5b50565b6000813590506135308161350a565b92915050565b60006020828403121561354c5761354b613445565b5b600061355a84828501613521565b91505092915050565b600081519050919050565b600082825260208201905092915050565b60005b8381101561359d578082015181840152602081019050613582565b838111156135ac576000848401525b50505050565b6000601f19601f8301169050919050565b60006135ce82613563565b6135d8818561356e565b93506135e881856020860161357f565b6135f1816135b2565b840191505092915050565b6000602082019050818103600083015261361681846135c3565b905092915050565b6000819050919050565b6136318161361e565b811461363c57600080fd5b50565b60008135905061364e81613628565b92915050565b60006020828403121561366a57613669613445565b5b60006136788482850161363f565b91505092915050565b600073ffffffffffffffffffffffffffffffffffffffff82169050919050565b60006136ac82613681565b9050919050565b6136bc816136a1565b82525050565b60006020820190506136d760008301846136b3565b92915050565b6136e6816136a1565b81146136f157600080fd5b50565b600081359050613703816136dd565b92915050565b600080604083850312156137205761371f613445565b5b600061372e858286016136f4565b925050602061373f8582860161363f565b9150509250929050565b60006020828403121561375f5761375e613445565b5b600061376d848285016136f4565b91505092915050565b600080fd5b600080fd5b7f4e487b7100000000000000000000000000000000000000000000000000000000600052604160045260246000fd5b6137b8826135b2565b810181811067ffffffffffffffff821117156137d7576137d6613780565b5b80604052505050565b60006137ea61343b565b90506137f682826137af565b919050565b600067ffffffffffffffff82111561381657613815613780565b5b61381f826135b2565b9050602081019050919050565b82818337600083830152505050565b600061384e613849846137fb565b6137e0565b90508281526020810184848401111561386a5761386961377b565b5b61387584828561382c565b509392505050565b600082601f83011261389257613891613776565b5b81356138a284826020860161383b565b91505092915050565b6000602082840312156138c1576138c0613445565b5b600082013567ffffffffffffffff8111156138df576138de61344a565b5b6138eb8482850161387d565b91505092915050565b6138fd8161361e565b82525050565b600060208201905061391860008301846138f4565b92915050565b600080fd5b600080fd5b60008083601f84011261393e5761393d613776565b5b8235905067ffffffffffffffff81111561395b5761395a61391e565b5b60208301915083602082028301111561397757613976613923565b5b9250929050565b6000806020838503121561399557613994613445565b5b600083013567ffffffffffffffff8111156139b3576139b261344a565b5b6139bf85828601613928565b92509250509250929050565b6000806000606084860312156139e4576139e3613445565b5b60006139f2868287016136f4565b9350506020613a03868287016136f4565b9250506040613a148682870161363f565b9150509250925092565b60008060408385031215613a3557613a34613445565b5b6000613a43858286016136f4565b9250506020613a5485828601613521565b9150509250929050565b60008083601f840112613a7457613a73613776565b5b8235905067ffffffffffffffff811115613a9157613a9061391e565b5b602083019150836020820283011115613aad57613aac613923565b5b9250929050565b60008060208385031215613acb57613aca613445565b5b600083013567ffffffffffffffff811115613ae957613ae861344a565b5b613af585828601613a5e565b92509250509250929050565b600067ffffffffffffffff821115613b1c57613b1b613780565b5b613b25826135b2565b9050602081019050919050565b6000613b45613b4084613b01565b6137e0565b905082815260208101848484011115613b6157613b6061377b565b5b613b6c84828561382c565b509392505050565b600082601f830112613b8957613b88613776565b5b8135613b99848260208601613b32565b91505092915050565b60008060008060808587031215613bbc57613bbb613445565b5b6000613bca878288016136f4565b9450506020613bdb878288016136f4565b9350506040613bec8782880161363f565b925050606085013567ffffffffffffffff811115613c0d57613c0c61344a565b5b613c1987828801613b74565b91505092959194509250565b60008060408385031215613c3c57613c3b613445565b5b6000613c4a858286016136f4565b9250506020613c5b858286016136f4565b9150509250929050565b7f4e487b7100000000000000000000000000000000000000000000000000000000600052602260045260246000fd5b60006002820490506001821680613cac57607f821691505b60208210811415613cc057613cbf613c65565b5b50919050565b7f4e6f20757365722064657461696c732070726f76696465640000000000000000600082015250565b6000613cfc60188361356e565b9150613d0782613cc6565b602082019050919050565b60006020820190508181036000830152613d2b81613cef565b9050919050565b7f546f6f206d616e792075736572737320746f2077686974656c69737400000000600082015250565b6000613d68601c8361356e565b9150613d7382613d32565b602082019050919050565b60006020820190508181036000830152613d9781613d5b565b9050919050565b7f4e487b7100000000000000000000000000000000000000000000000000000000600052603260045260246000fd5b7f4e487b7100000000000000000000000000000000000000000000000000000000600052601160045260246000fd5b6000613e078261361e565b91506000821415613e1b57613e1a613dcd565b5b600182039050919050565b6000613e318261361e565b91507fffffffffffffffffffffffffffffffffffffffffffffffffffffffffffffffff821415613e6457613e63613dcd565b5b600182019050919050565b6000613e7a8261361e565b9150613e858361361e565b9250827fffffffffffffffffffffffffffffffffffffffffffffffffffffffffffffffff03821115613eba57613eb9613dcd565b5b828201905092915050565b7f526566756e6420706572696f64206e6f74206f76657200000000000000000000600082015250565b6000613efb60168361356e565b9150613f0682613ec5565b602082019050919050565b60006020820190508181036000830152613f2a81613eee565b9050919050565b600081905092915050565b50565b6000613f4c600083613f31565b9150613f5782613f3c565b600082019050919050565b6000613f6d82613f3f565b9150819050919050565b60008190508160005260206000209050919050565b60008154613f9981613c94565b613fa3818661356e565b94506001821660008114613fbe5760018114613fd057614003565b60ff1983168652602086019350614003565b613fd985613f77565b60005b83811015613ffb57815481890152600182019150602081019050613fdc565b808801955050505b50505092915050565b600060208201905081810360008301526140268184613f8c565b905092915050565b7f50726573616c65206973206e6f74206163746976650000000000000000000000600082015250565b600061406460158361356e565b915061406f8261402e565b602082019050919050565b6000602082019050818103600083015261409381614057565b9050919050565b7f41646472657373206e6f742077686974656c6973746564000000000000000000600082015250565b60006140d060178361356e565b91506140db8261409a565b602082019050919050565b600060208201905081810360008301526140ff816140c3565b9050919050565b60006141118261361e565b915061411c8361361e565b9250817fffffffffffffffffffffffffffffffffffffffffffffffffffffffffffffffff048311821515161561415557614154613dcd565b5b828202905092915050565b7f4e6f7420656e6f756768206574682073656e7400000000000000000000000000600082015250565b600061419660138361356e565b91506141a182614160565b602082019050919050565b600060208201905081810360008301526141c581614189565b9050919050565b7f4f766572206d696e74206c696d69740000000000000000000000000000000000600082015250565b6000614202600f8361356e565b915061420d826141cc565b602082019050919050565b60006020820190508181036000830152614231816141f5565b9050919050565b7f4d6178206d696e7420737570706c792072656163686564000000000000000000600082015250565b600061426e60178361356e565b915061427982614238565b602082019050919050565b6000602082019050818103600083015261429d81614261565b9050919050565b7f526566756e642065787069726564000000000000000000000000000000000000600082015250565b60006142da600e8361356e565b91506142e5826142a4565b602082019050919050565b60006020820190508181036000830152614309816142cd565b9050919050565b7f4e6f7420746f6b656e206f776e65720000000000000000000000000000000000600082015250565b6000614346600f8361356e565b915061435182614310565b602082019050919050565b6000602082019050818103600083015261437581614339565b9050919050565b7f416c726561647920726566756e64656400000000000000000000000000000000600082015250565b60006143b260108361356e565b91506143bd8261437c565b602082019050919050565b600060208201905081810360008301526143e1816143a5565b9050919050565b7f467265656c79206d696e746564204e4654732063616e6e6f742062652072656660008201527f756e646564000000000000000000000000000000000000000000000000000000602082015250565b600061444460258361356e565b915061444f826143e8565b604082019050919050565b6000602082019050818103600083015261447381614437565b9050919050565b7f5075626c69632073616c65206973206e6f742061637469766500000000000000600082015250565b60006144b060198361356e565b91506144bb8261447a565b602082019050919050565b600060208201905081810360008301526144df816144a3565b9050919050565b7f4552433732314d657461646174613a2055524920717565727920666f72206e6f60008201527f6e6578697374656e7420746f6b656e0000000000000000000000000000000000602082015250565b6000614542602f8361356e565b915061454d826144e6565b604082019050919050565b6000602082019050818103600083015261457181614535565b9050919050565b600081905092915050565b600061458e82613563565b6145988185614578565b93506145a881856020860161357f565b80840191505092915050565b600081546145c181613c94565b6145cb8186614578565b945060018216600081146145e657600181146145f75761462a565b60ff1983168652818601935061462a565b61460085613f77565b60005b8381101561462257815481890152600182019150602081019050614603565b838801955050505b50505092915050565b600061463f8286614583565b915061464b8285614583565b915061465782846145b4565b9150819050949350505050565b600061466f8261361e565b915061467a8361361e565b92508282101561468d5761468c613dcd565b5b828203905092915050565b7f4f776e61626c653a206e6577206f776e657220697320746865207a65726f206160008201527f6464726573730000000000000000000000000000000000000000000000000000602082015250565b60006146f460268361356e565b91506146ff82614698565b604082019050919050565b60006020820190508181036000830152614723816146e7565b9050919050565b7f4d6178696d756d20557365727320616c72656164792077686974656c6973746560008201527f6400000000000000000000000000000000000000000000000000000000000000602082015250565b600061478660218361356e565b91506147918261472a565b604082019050919050565b600060208201905081810360008301526147b581614779565b9050919050565b7f4f776e61626c653a2063616c6c6572206973206e6f7420746865206f776e6572600082015250565b60006147f260208361356e565b91506147fd826147bc565b602082019050919050565b60006020820190508181036000830152614821816147e5565b9050919050565b600081519050919050565b600082825260208201905092915050565b600061484f82614828565b6148598185614833565b935061486981856020860161357f565b614872816135b2565b840191505092915050565b600060808201905061489260008301876136b3565b61489f60208301866136b3565b6148ac60408301856138f4565b81810360608301526148be8184614844565b905095945050505050565b6000815190506148d88161347b565b92915050565b6000602082840312156148f4576148f3613445565b5b6000614902848285016148c9565b91505092915050565b7f4e487b7100000000000000000000000000000000000000000000000000000000600052601260045260246000fd5b60006149458261361e565b91506149508361361e565b9250826149605761495f61490b565b5b828204905092915050565b60006149768261361e565b91506149818361361e565b9250826149915761499061490b565b5b82820690509291505056fea2646970667358221220104eeba647c8079ef2d42c42a76b9acac89dc3a668355cb1fe053756a297f28264736f6c63430008090033",
  "linkReferences": {},
  "deployedLinkReferences": {}
}