{
  "_format": "hh-sol-artifact-1",
  "contractName": "ERC721RFactory",
  "sourceName": "contracts/factoryContracts/ERC721RFactory.sol",
  "abi": [
    {
      "inputs": [
        {
          "internalType": "string",
          "name": "name",
          "type": "string"
        },
        {
          "internalType": "string",
          "name": "symbol",
          "type": "string"
        },
        {
          "internalType": "uint256",
          "name": "mintSupply",
          "type": "uint256"
        },
        {
          "internalType": "uint256",
          "name": "mintingPrice",
          "type": "uint256"
        },
        {
          "internalType": "uint256",
          "name": "refundTime",
          "type": "uint256"
        },
        {
          "internalType": "uint256",
          "name": "maxMintPerUser",
          "type": "uint256"
        }
      ],
      "stateMutability": "nonpayable",
      "type": "constructor"
    },
    {
      "inputs": [],
      "name": "ApprovalCallerNotOwnerNorApproved",
      "type": "error"
    },
    {
      "inputs": [],
      "name": "ApprovalQueryForNonexistentToken",
      "type": "error"
    },
    {
      "inputs": [],
      "name": "ApprovalToCurrentOwner",
      "type": "error"
    },
    {
      "inputs": [],
      "name": "ApproveToCaller",
      "type": "error"
    },
    {
      "inputs": [],
      "name": "BalanceQueryForZeroAddress",
      "type": "error"
    },
    {
      "inputs": [],
      "name": "MintToZeroAddress",
      "type": "error"
    },
    {
      "inputs": [],
      "name": "MintZeroQuantity",
      "type": "error"
    },
    {
      "inputs": [],
      "name": "OwnerQueryForNonexistentToken",
      "type": "error"
    },
    {
      "inputs": [],
      "name": "TransferCallerNotOwnerNorApproved",
      "type": "error"
    },
    {
      "inputs": [],
      "name": "TransferFromIncorrectOwner",
      "type": "error"
    },
    {
      "inputs": [],
      "name": "TransferToNonERC721ReceiverImplementer",
      "type": "error"
    },
    {
      "inputs": [],
      "name": "TransferToZeroAddress",
      "type": "error"
    },
    {
      "inputs": [],
      "name": "URIQueryForNonexistentToken",
      "type": "error"
    },
    {
      "anonymous": false,
      "inputs": [
        {
          "indexed": true,
          "internalType": "address",
          "name": "owner",
          "type": "address"
        },
        {
          "indexed": true,
          "internalType": "address",
          "name": "approved",
          "type": "address"
        },
        {
          "indexed": true,
          "internalType": "uint256",
          "name": "tokenId",
          "type": "uint256"
        }
      ],
      "name": "Approval",
      "type": "event"
    },
    {
      "anonymous": false,
      "inputs": [
        {
          "indexed": true,
          "internalType": "address",
          "name": "owner",
          "type": "address"
        },
        {
          "indexed": true,
          "internalType": "address",
          "name": "operator",
          "type": "address"
        },
        {
          "indexed": false,
          "internalType": "bool",
          "name": "approved",
          "type": "bool"
        }
      ],
      "name": "ApprovalForAll",
      "type": "event"
    },
    {
      "anonymous": false,
      "inputs": [
        {
          "indexed": false,
          "internalType": "string",
          "name": "uri",
          "type": "string"
        }
      ],
      "name": "BaseURI",
      "type": "event"
    },
    {
      "anonymous": false,
      "inputs": [
        {
          "indexed": true,
          "internalType": "address",
          "name": "previousOwner",
          "type": "address"
        },
        {
          "indexed": true,
          "internalType": "address",
          "name": "newOwner",
          "type": "address"
        }
      ],
      "name": "OwnershipTransferred",
      "type": "event"
    },
    {
      "anonymous": false,
      "inputs": [
        {
          "indexed": false,
          "internalType": "bool",
          "name": "presaleActive",
          "type": "bool"
        }
      ],
      "name": "PresaleToggled",
      "type": "event"
    },
    {
      "anonymous": false,
      "inputs": [
        {
          "indexed": false,
          "internalType": "bool",
          "name": "publicSaleActive",
          "type": "bool"
        }
      ],
      "name": "PublicSaleSet",
      "type": "event"
    },
    {
      "anonymous": false,
      "inputs": [
        {
          "indexed": false,
          "internalType": "uint256",
          "name": "refundEndTime",
          "type": "uint256"
        }
      ],
      "name": "RefundCountDownSet",
      "type": "event"
    },
    {
      "anonymous": false,
      "inputs": [
        {
          "indexed": true,
          "internalType": "address",
          "name": "from",
          "type": "address"
        },
        {
          "indexed": true,
          "internalType": "address",
          "name": "to",
          "type": "address"
        },
        {
          "indexed": true,
          "internalType": "uint256",
          "name": "tokenId",
          "type": "uint256"
        }
      ],
      "name": "Transfer",
      "type": "event"
    },
    {
      "anonymous": false,
      "inputs": [
        {
          "indexed": false,
          "internalType": "bool",
          "name": "whitelistEnabled",
          "type": "bool"
        }
      ],
      "name": "WhiteListEnabled",
      "type": "event"
    },
    {
      "inputs": [],
      "name": "_currentIndex",
      "outputs": [
        {
          "internalType": "uint256",
          "name": "",
          "type": "uint256"
        }
      ],
      "stateMutability": "view",
      "type": "function"
    },
    {
      "inputs": [],
      "name": "_name",
      "outputs": [
        {
          "internalType": "string",
          "name": "",
          "type": "string"
        }
      ],
      "stateMutability": "view",
      "type": "function"
    },
    {
      "inputs": [],
      "name": "_symbol",
      "outputs": [
        {
          "internalType": "string",
          "name": "",
          "type": "string"
        }
      ],
      "stateMutability": "view",
      "type": "function"
    },
    {
      "inputs": [
        {
          "internalType": "address",
          "name": "to",
          "type": "address"
        },
        {
          "internalType": "uint256",
          "name": "tokenId",
          "type": "uint256"
        }
      ],
      "name": "approve",
      "outputs": [],
      "stateMutability": "nonpayable",
      "type": "function"
    },
    {
      "inputs": [
        {
          "internalType": "address",
          "name": "owner",
          "type": "address"
        }
      ],
      "name": "balanceOf",
      "outputs": [
        {
          "internalType": "uint256",
          "name": "",
          "type": "uint256"
        }
      ],
      "stateMutability": "view",
      "type": "function"
    },
    {
      "inputs": [
        {
          "internalType": "uint256",
          "name": "tokenId",
          "type": "uint256"
        }
      ],
      "name": "burn",
      "outputs": [],
      "stateMutability": "nonpayable",
      "type": "function"
    },
    {
      "inputs": [
        {
          "internalType": "uint256",
          "name": "tokenId",
          "type": "uint256"
        }
      ],
      "name": "getApproved",
      "outputs": [
        {
          "internalType": "address",
          "name": "",
          "type": "address"
        }
      ],
      "stateMutability": "view",
      "type": "function"
    },
    {
      "inputs": [],
      "name": "getRefundGuaranteeEndTime",
      "outputs": [
        {
          "internalType": "uint256",
          "name": "",
          "type": "uint256"
        }
      ],
      "stateMutability": "view",
      "type": "function"
    },
    {
      "inputs": [
        {
          "internalType": "uint256",
          "name": "",
          "type": "uint256"
        }
      ],
      "name": "hasRefunded",
      "outputs": [
        {
          "internalType": "bool",
          "name": "",
          "type": "bool"
        }
      ],
      "stateMutability": "view",
      "type": "function"
    },
    {
      "inputs": [
        {
          "internalType": "address",
          "name": "owner",
          "type": "address"
        },
        {
          "internalType": "address",
          "name": "operator",
          "type": "address"
        }
      ],
      "name": "isApprovedForAll",
      "outputs": [
        {
          "internalType": "bool",
          "name": "",
          "type": "bool"
        }
      ],
      "stateMutability": "view",
      "type": "function"
    },
    {
      "inputs": [
        {
          "internalType": "uint256",
          "name": "",
          "type": "uint256"
        }
      ],
      "name": "isOwnerMint",
      "outputs": [
        {
          "internalType": "bool",
          "name": "",
          "type": "bool"
        }
      ],
      "stateMutability": "view",
      "type": "function"
    },
    {
      "inputs": [],
      "name": "isRefundGuaranteeActive",
      "outputs": [
        {
          "internalType": "bool",
          "name": "",
          "type": "bool"
        }
      ],
      "stateMutability": "view",
      "type": "function"
    },
    {
      "inputs": [],
      "name": "mapSize",
      "outputs": [
        {
          "internalType": "uint256",
          "name": "",
          "type": "uint256"
        }
      ],
      "stateMutability": "view",
      "type": "function"
    },
    {
      "inputs": [],
      "name": "maxMintSupply",
      "outputs": [
        {
          "internalType": "uint256",
          "name": "",
          "type": "uint256"
        }
      ],
      "stateMutability": "view",
      "type": "function"
    },
    {
      "inputs": [],
      "name": "maxUserMintAmount",
      "outputs": [
        {
          "internalType": "uint256",
          "name": "",
          "type": "uint256"
        }
      ],
      "stateMutability": "view",
      "type": "function"
    },
    {
      "inputs": [],
      "name": "mintPrice",
      "outputs": [
        {
          "internalType": "uint256",
          "name": "",
          "type": "uint256"
        }
      ],
      "stateMutability": "view",
      "type": "function"
    },
    {
      "inputs": [],
      "name": "name",
      "outputs": [
        {
          "internalType": "string",
          "name": "",
          "type": "string"
        }
      ],
      "stateMutability": "view",
      "type": "function"
    },
    {
      "inputs": [],
      "name": "owner",
      "outputs": [
        {
          "internalType": "address",
          "name": "",
          "type": "address"
        }
      ],
      "stateMutability": "view",
      "type": "function"
    },
    {
      "inputs": [
        {
          "internalType": "uint256",
          "name": "quantity",
          "type": "uint256"
        }
      ],
      "name": "ownerMint",
      "outputs": [],
      "stateMutability": "nonpayable",
      "type": "function"
    },
    {
      "inputs": [
        {
          "internalType": "uint256",
          "name": "tokenId",
          "type": "uint256"
        }
      ],
      "name": "ownerOf",
      "outputs": [
        {
          "internalType": "address",
          "name": "",
          "type": "address"
        }
      ],
      "stateMutability": "view",
      "type": "function"
    },
    {
      "inputs": [
        {
          "internalType": "uint256",
          "name": "quantity",
          "type": "uint256"
        }
      ],
      "name": "preSaleMint",
      "outputs": [],
      "stateMutability": "payable",
      "type": "function"
    },
    {
      "inputs": [],
      "name": "presaleActive",
      "outputs": [
        {
          "internalType": "bool",
          "name": "",
          "type": "bool"
        }
      ],
      "stateMutability": "view",
      "type": "function"
    },
    {
      "inputs": [],
      "name": "publicSaleActive",
      "outputs": [
        {
          "internalType": "bool",
          "name": "",
          "type": "bool"
        }
      ],
      "stateMutability": "view",
      "type": "function"
    },
    {
      "inputs": [
        {
          "internalType": "uint256",
          "name": "quantity",
          "type": "uint256"
        }
      ],
      "name": "publicSaleMint",
      "outputs": [],
      "stateMutability": "payable",
      "type": "function"
    },
    {
      "inputs": [
        {
          "internalType": "uint256[]",
          "name": "tokenIds",
          "type": "uint256[]"
        }
      ],
      "name": "refund",
      "outputs": [],
      "stateMutability": "nonpayable",
      "type": "function"
    },
    {
      "inputs": [],
      "name": "refundAddress",
      "outputs": [
        {
          "internalType": "address",
          "name": "",
          "type": "address"
        }
      ],
      "stateMutability": "view",
      "type": "function"
    },
    {
      "inputs": [],
      "name": "refundEndTime",
      "outputs": [
        {
          "internalType": "uint256",
          "name": "",
          "type": "uint256"
        }
      ],
      "stateMutability": "view",
      "type": "function"
    },
    {
      "inputs": [],
      "name": "refundPeriod",
      "outputs": [
        {
          "internalType": "uint256",
          "name": "",
          "type": "uint256"
        }
      ],
      "stateMutability": "view",
      "type": "function"
    },
    {
      "inputs": [
        {
          "internalType": "address[]",
          "name": "currentAddresses",
          "type": "address[]"
        }
      ],
      "name": "removeWhitelist",
      "outputs": [],
      "stateMutability": "nonpayable",
      "type": "function"
    },
    {
      "inputs": [],
      "name": "renounceOwnership",
      "outputs": [],
      "stateMutability": "nonpayable",
      "type": "function"
    },
    {
      "inputs": [
        {
          "internalType": "address",
          "name": "from",
          "type": "address"
        },
        {
          "internalType": "address",
          "name": "to",
          "type": "address"
        },
        {
          "internalType": "uint256",
          "name": "tokenId",
          "type": "uint256"
        }
      ],
      "name": "safeTransferFrom",
      "outputs": [],
      "stateMutability": "nonpayable",
      "type": "function"
    },
    {
      "inputs": [
        {
          "internalType": "address",
          "name": "from",
          "type": "address"
        },
        {
          "internalType": "address",
          "name": "to",
          "type": "address"
        },
        {
          "internalType": "uint256",
          "name": "tokenId",
          "type": "uint256"
        },
        {
          "internalType": "bytes",
          "name": "_data",
          "type": "bytes"
        }
      ],
      "name": "safeTransferFrom",
      "outputs": [],
      "stateMutability": "nonpayable",
      "type": "function"
    },
    {
      "inputs": [
        {
          "internalType": "address",
          "name": "operator",
          "type": "address"
        },
        {
          "internalType": "bool",
          "name": "approved",
          "type": "bool"
        }
      ],
      "name": "setApprovalForAll",
      "outputs": [],
      "stateMutability": "nonpayable",
      "type": "function"
    },
    {
      "inputs": [
        {
          "internalType": "string",
          "name": "uri",
          "type": "string"
        }
      ],
      "name": "setBaseURI",
      "outputs": [],
      "stateMutability": "nonpayable",
      "type": "function"
    },
    {
      "inputs": [
        {
          "internalType": "address",
          "name": "_refundAddress",
          "type": "address"
        }
      ],
      "name": "setRefundAddress",
      "outputs": [],
      "stateMutability": "nonpayable",
      "type": "function"
    },
    {
      "inputs": [
        {
          "internalType": "string",
          "name": "_uriSuffix",
          "type": "string"
        }
      ],
      "name": "setUriSuffix",
      "outputs": [],
      "stateMutability": "nonpayable",
      "type": "function"
    },
    {
      "inputs": [
        {
          "internalType": "address[]",
          "name": "newAddresses",
          "type": "address[]"
        }
      ],
      "name": "setWhitelist",
      "outputs": [],
      "stateMutability": "nonpayable",
      "type": "function"
    },
    {
      "inputs": [
        {
          "internalType": "bool",
          "name": "_state",
          "type": "bool"
        }
      ],
      "name": "setWhitelistEnabled",
      "outputs": [],
      "stateMutability": "nonpayable",
      "type": "function"
    },
    {
      "inputs": [
        {
          "internalType": "bytes4",
          "name": "interfaceId",
          "type": "bytes4"
        }
      ],
      "name": "supportsInterface",
      "outputs": [
        {
          "internalType": "bool",
          "name": "",
          "type": "bool"
        }
      ],
      "stateMutability": "view",
      "type": "function"
    },
    {
      "inputs": [],
      "name": "symbol",
      "outputs": [
        {
          "internalType": "string",
          "name": "",
          "type": "string"
        }
      ],
      "stateMutability": "view",
      "type": "function"
    },
    {
      "inputs": [],
      "name": "togglePresaleStatus",
      "outputs": [],
      "stateMutability": "nonpayable",
      "type": "function"
    },
    {
      "inputs": [],
      "name": "togglePublicSaleStatus",
      "outputs": [],
      "stateMutability": "nonpayable",
      "type": "function"
    },
    {
      "inputs": [],
      "name": "toggleRefundCountdown",
      "outputs": [],
      "stateMutability": "nonpayable",
      "type": "function"
    },
    {
      "inputs": [
        {
          "internalType": "uint256",
          "name": "_tokenId",
          "type": "uint256"
        }
      ],
      "name": "tokenURI",
      "outputs": [
        {
          "internalType": "string",
          "name": "",
          "type": "string"
        }
      ],
      "stateMutability": "view",
      "type": "function"
    },
    {
      "inputs": [],
      "name": "totalSupply",
      "outputs": [
        {
          "internalType": "uint256",
          "name": "",
          "type": "uint256"
        }
      ],
      "stateMutability": "view",
      "type": "function"
    },
    {
      "inputs": [
        {
          "internalType": "address",
          "name": "from",
          "type": "address"
        },
        {
          "internalType": "address",
          "name": "to",
          "type": "address"
        },
        {
          "internalType": "uint256",
          "name": "tokenId",
          "type": "uint256"
        }
      ],
      "name": "transferFrom",
      "outputs": [],
      "stateMutability": "nonpayable",
      "type": "function"
    },
    {
      "inputs": [
        {
          "internalType": "address",
          "name": "newOwner",
          "type": "address"
        }
      ],
      "name": "transferOwnership",
      "outputs": [],
      "stateMutability": "nonpayable",
      "type": "function"
    },
    {
      "inputs": [],
      "name": "uriSuffix",
      "outputs": [
        {
          "internalType": "string",
          "name": "",
          "type": "string"
        }
      ],
      "stateMutability": "view",
      "type": "function"
    },
    {
      "inputs": [
        {
          "internalType": "address",
          "name": "",
          "type": "address"
        }
      ],
      "name": "whitelist",
      "outputs": [
        {
          "internalType": "bool",
          "name": "",
          "type": "bool"
        }
      ],
      "stateMutability": "view",
      "type": "function"
    },
    {
      "inputs": [],
      "name": "whitelistEnabled",
      "outputs": [
        {
          "internalType": "bool",
          "name": "",
          "type": "bool"
        }
      ],
      "stateMutability": "view",
      "type": "function"
    },
    {
      "inputs": [],
      "name": "withdraw",
      "outputs": [],
      "stateMutability": "nonpayable",
      "type": "function"
    }
  ],
  "bytecode": "0x60806040526040518060400160405280600581526020017f2e6a736f6e000000000000000000000000000000000000000000000000000000815250600a908051906020019062000051929190620003de565b506000600e556000601160166101000a81548160ff0219169083151502179055503480156200007f57600080fd5b50604051620053a8380380620053a88339818101604052810190620000a5919062000666565b85858160029080519060200190620000bf929190620003de565b508060039080519060200190620000d8929190620003de565b50620000e9620001ed60201b60201c565b60008190555050506200011162000105620001f260201b60201c565b620001fa60201b60201c565b6000869050600086905060008251141580156200013057506000815114155b62000172576040517f08c379a00000000000000000000000000000000000000000000000000000000081526004016200016990620007c7565b60405180910390fd5b33601160006101000a81548173ffffffffffffffffffffffffffffffffffffffff021916908373ffffffffffffffffffffffffffffffffffffffff16021790555085600b8190555084600c8190555083600f8190555082600d81905550620001df620002c060201b60201c565b50505050505050506200097a565b600090565b600033905090565b6000600860009054906101000a900473ffffffffffffffffffffffffffffffffffffffff16905081600860006101000a81548173ffffffffffffffffffffffffffffffffffffffff021916908373ffffffffffffffffffffffffffffffffffffffff1602179055508173ffffffffffffffffffffffffffffffffffffffff168173ffffffffffffffffffffffffffffffffffffffff167f8be0079c531659141344cd1fd0a4f28419497f9722a3daafe3b4186f6b6457e060405160405180910390a35050565b620002d06200032360201b60201c565b600f5442620002e0919062000818565b6010819055507f8c7f828c45e9721cfd644b2a4f2ff1eba1c36125ea260c43c4d47ebcb59d314160105460405162000319919062000886565b60405180910390a1565b62000333620001f260201b60201c565b73ffffffffffffffffffffffffffffffffffffffff1662000359620003b460201b60201c565b73ffffffffffffffffffffffffffffffffffffffff1614620003b2576040517f08c379a0000000000000000000000000000000000000000000000000000000008152600401620003a990620008f3565b60405180910390fd5b565b6000600860009054906101000a900473ffffffffffffffffffffffffffffffffffffffff16905090565b828054620003ec9062000944565b90600052602060002090601f0160209004810192826200041057600085556200045c565b82601f106200042b57805160ff19168380011785556200045c565b828001600101855582156200045c579182015b828111156200045b5782518255916020019190600101906200043e565b5b5090506200046b91906200046f565b5090565b5b808211156200048a57600081600090555060010162000470565b5090565b6000604051905090565b600080fd5b600080fd5b600080fd5b600080fd5b6000601f19601f8301169050919050565b7f4e487b7100000000000000000000000000000000000000000000000000000000600052604160045260246000fd5b620004f782620004ac565b810181811067ffffffffffffffff82111715620005195762000518620004bd565b5b80604052505050565b60006200052e6200048e565b90506200053c8282620004ec565b919050565b600067ffffffffffffffff8211156200055f576200055e620004bd565b5b6200056a82620004ac565b9050602081019050919050565b60005b83811015620005975780820151818401526020810190506200057a565b83811115620005a7576000848401525b50505050565b6000620005c4620005be8462000541565b62000522565b905082815260208101848484011115620005e357620005e2620004a7565b5b620005f084828562000577565b509392505050565b600082601f83011262000610576200060f620004a2565b5b815162000622848260208601620005ad565b91505092915050565b6000819050919050565b62000640816200062b565b81146200064c57600080fd5b50565b600081519050620006608162000635565b92915050565b60008060008060008060c0878903121562000686576200068562000498565b5b600087015167ffffffffffffffff811115620006a757620006a66200049d565b5b620006b589828a01620005f8565b965050602087015167ffffffffffffffff811115620006d957620006d86200049d565b5b620006e789828a01620005f8565b9550506040620006fa89828a016200064f565b94505060606200070d89828a016200064f565b93505060806200072089828a016200064f565b92505060a06200073389828a016200064f565b9150509295509295509295565b600082825260208201905092915050565b7f455243373231523a2043686f6f73652061206e616d6520616e642073796d626f60008201527f6c00000000000000000000000000000000000000000000000000000000000000602082015250565b6000620007af60218362000740565b9150620007bc8262000751565b604082019050919050565b60006020820190508181036000830152620007e281620007a0565b9050919050565b7f4e487b7100000000000000000000000000000000000000000000000000000000600052601160045260246000fd5b600062000825826200062b565b915062000832836200062b565b9250827fffffffffffffffffffffffffffffffffffffffffffffffffffffffffffffffff038211156200086a5762000869620007e9565b5b828201905092915050565b62000880816200062b565b82525050565b60006020820190506200089d600083018462000875565b92915050565b7f4f776e61626c653a2063616c6c6572206973206e6f7420746865206f776e6572600082015250565b6000620008db60208362000740565b9150620008e882620008a3565b602082019050919050565b600060208201905081810360008301526200090e81620008cc565b9050919050565b7f4e487b7100000000000000000000000000000000000000000000000000000000600052602260045260246000fd5b600060028204905060018216806200095d57607f821691505b6020821081141562000974576200097362000915565b5b50919050565b614a1e806200098a6000396000f3fe6080604052600436106102e45760003560e01c80637835c63511610190578063b9ad9fde116100dc578063d28d885211610095578063f2fde38b1161006f578063f2fde38b14610ac2578063f421764814610aeb578063f7a3031314610b14578063faf762bd14610b51576102e4565b8063d28d885214610a31578063e985e9c514610a5c578063f19e75d414610a99576102e4565b8063b9ad9fde1461091f578063bc8893b414610936578063c23fcdef14610961578063c285e1071461099e578063c4ea0845146109c9578063c87b56dd146109f4576102e4565b80639b19251a11610149578063aa613df511610123578063aa613df514610886578063b09f1266146108af578063b3ab66b0146108da578063b88d4fde146108f6576102e4565b80639b19251a146107f5578063a22cb46514610832578063a6a3b5b41461085b576102e4565b80637835c635146107165780637bffb4ce146107325780638da5cb5b14610749578063921d28a9146107745780639451c99a1461079f57806395d89b41146107ca576102e4565b80632e9be8211161024f5780635503a0e8116102085780636817c76c116101e25780636817c76c1461066c57806370a0823114610697578063715018a6146106d457806373fddd16146106eb576102e4565b80635503a0e8146105db57806355f804b3146106065780636352211e1461062f576102e4565b80632e9be821146105055780633ccfd60b1461051c57806342842e0e1461053357806342966c681461055c57806351fb012d1461058557806353135ca0146105b0576102e4565b806315b75bea116102a157806315b75bea1461040b57806316ba10e01461043457806318160ddd1461045d5780631a32ebb61461048857806323245216146104b357806323b872dd146104dc576102e4565b806301ffc9a7146102e9578063052d9e7e1461032657806306fdde031461034f578063081812fc1461037a578063095ea7b3146103b75780630cb61f6c146103e0575b600080fd5b3480156102f557600080fd5b50610310600480360381019061030b91906134f3565b610b7c565b60405161031d919061353b565b60405180910390f35b34801561033257600080fd5b5061034d60048036038101906103489190613582565b610c0e565b005b34801561035b57600080fd5b50610364610c79565b6040516103719190613648565b60405180910390f35b34801561038657600080fd5b506103a1600480360381019061039c91906136a0565b610d0b565b6040516103ae919061370e565b60405180910390f35b3480156103c357600080fd5b506103de60048036038101906103d99190613755565b610d87565b005b3480156103ec57600080fd5b506103f5610f2e565b604051610402919061370e565b60405180910390f35b34801561041757600080fd5b50610432600480360381019061042d9190613795565b610f54565b005b34801561044057600080fd5b5061045b600480360381019061045691906138f7565b610fa0565b005b34801561046957600080fd5b50610472610fc2565b60405161047f919061394f565b60405180910390f35b34801561049457600080fd5b5061049d610fd9565b6040516104aa919061394f565b60405180910390f35b3480156104bf57600080fd5b506104da60048036038101906104d591906139ca565b610fdf565b005b3480156104e857600080fd5b5061050360048036038101906104fe9190613a17565b611129565b005b34801561051157600080fd5b5061051a611139565b005b34801561052857600080fd5b50610531611190565b005b34801561053f57600080fd5b5061055a60048036038101906105559190613a17565b61125c565b005b34801561056857600080fd5b50610583600480360381019061057e91906136a0565b61127c565b005b34801561059157600080fd5b5061059a611288565b6040516105a7919061353b565b60405180910390f35b3480156105bc57600080fd5b506105c561129b565b6040516105d2919061353b565b60405180910390f35b3480156105e757600080fd5b506105f06112ae565b6040516105fd9190613648565b60405180910390f35b34801561061257600080fd5b5061062d600480360381019061062891906138f7565b61133c565b005b34801561063b57600080fd5b50610656600480360381019061065191906136a0565b611396565b604051610663919061370e565b60405180910390f35b34801561067857600080fd5b506106816113a8565b60405161068e919061394f565b60405180910390f35b3480156106a357600080fd5b506106be60048036038101906106b99190613795565b6113ae565b6040516106cb919061394f565b60405180910390f35b3480156106e057600080fd5b506106e9611443565b005b3480156106f757600080fd5b50610700611457565b60405161070d919061394f565b60405180910390f35b610730600480360381019061072b91906136a0565b61145d565b005b34801561073e57600080fd5b50610747611661565b005b34801561075557600080fd5b5061075e6116db565b60405161076b919061370e565b60405180910390f35b34801561078057600080fd5b50610789611705565b604051610796919061394f565b60405180910390f35b3480156107ab57600080fd5b506107b461170b565b6040516107c1919061394f565b60405180910390f35b3480156107d657600080fd5b506107df611711565b6040516107ec9190613648565b60405180910390f35b34801561080157600080fd5b5061081c60048036038101906108179190613795565b6117a3565b604051610829919061353b565b60405180910390f35b34801561083e57600080fd5b5061085960048036038101906108549190613a6a565b6117c3565b005b34801561086757600080fd5b5061087061193b565b60405161087d919061394f565b60405180910390f35b34801561089257600080fd5b506108ad60048036038101906108a89190613b00565b611941565b005b3480156108bb57600080fd5b506108c4611beb565b6040516108d19190613648565b60405180910390f35b6108f460048036038101906108ef91906136a0565b611c79565b005b34801561090257600080fd5b5061091d60048036038101906109189190613bee565b611dd4565b005b34801561092b57600080fd5b50610934611e47565b005b34801561094257600080fd5b5061094b611ec1565b604051610958919061353b565b60405180910390f35b34801561096d57600080fd5b50610988600480360381019061098391906136a0565b611ed4565b604051610995919061353b565b60405180910390f35b3480156109aa57600080fd5b506109b3611ef4565b6040516109c0919061394f565b60405180910390f35b3480156109d557600080fd5b506109de611efa565b6040516109eb919061353b565b60405180910390f35b348015610a0057600080fd5b50610a1b6004803603810190610a1691906136a0565b611f07565b604051610a289190613648565b60405180910390f35b348015610a3d57600080fd5b50610a46611fb1565b604051610a539190613648565b60405180910390f35b348015610a6857600080fd5b50610a836004803603810190610a7e9190613c71565b61203f565b604051610a90919061353b565b60405180910390f35b348015610aa557600080fd5b50610ac06004803603810190610abb91906136a0565b6120d3565b005b348015610ace57600080fd5b50610ae96004803603810190610ae49190613795565b61219c565b005b348015610af757600080fd5b50610b126004803603810190610b0d91906139ca565b612220565b005b348015610b2057600080fd5b50610b3b6004803603810190610b3691906136a0565b6123b8565b604051610b48919061353b565b60405180910390f35b348015610b5d57600080fd5b50610b666123d8565b604051610b73919061394f565b60405180910390f35b60006301ffc9a760e01b827bffffffffffffffffffffffffffffffffffffffffffffffffffffffff19161480610bd757506380ac58cd60e01b827bffffffffffffffffffffffffffffffffffffffffffffffffffffffff1916145b80610c075750635b5e139f60e01b827bffffffffffffffffffffffffffffffffffffffffffffffffffffffff1916145b9050919050565b610c166123e2565b80601160166101000a81548160ff0219169083151502179055507f218e591c4b0d49651b4b42843cb8cc59080122def3d2271f56ef2e21896753ec601160169054906101000a900460ff16604051610c6e919061353b565b60405180910390a150565b606060028054610c8890613ce0565b80601f0160208091040260200160405190810160405280929190818152602001828054610cb490613ce0565b8015610d015780601f10610cd657610100808354040283529160200191610d01565b820191906000526020600020905b815481529060010190602001808311610ce457829003601f168201915b5050505050905090565b6000610d1682612460565b610d4c576040517fcf4700e400000000000000000000000000000000000000000000000000000000815260040160405180910390fd5b6006600083815260200190815260200160002060009054906101000a900473ffffffffffffffffffffffffffffffffffffffff169050919050565b6000610d92826124bf565b90508073ffffffffffffffffffffffffffffffffffffffff168373ffffffffffffffffffffffffffffffffffffffff161415610dfa576040517f943f7b8c00000000000000000000000000000000000000000000000000000000815260040160405180910390fd5b8073ffffffffffffffffffffffffffffffffffffffff16610e1961258d565b73ffffffffffffffffffffffffffffffffffffffff1614610e7c57610e4581610e4061258d565b61203f565b610e7b576040517fcfb3b94200000000000000000000000000000000000000000000000000000000815260040160405180910390fd5b5b826006600084815260200190815260200160002060006101000a81548173ffffffffffffffffffffffffffffffffffffffff021916908373ffffffffffffffffffffffffffffffffffffffff160217905550818373ffffffffffffffffffffffffffffffffffffffff168273ffffffffffffffffffffffffffffffffffffffff167f8c5be1e5ebec7d5bd14f71427d1e84f3dd0314c0f7b2291e5b200ac8c7c3b92560405160405180910390a4505050565b601160009054906101000a900473ffffffffffffffffffffffffffffffffffffffff1681565b610f5c6123e2565b80601160006101000a81548173ffffffffffffffffffffffffffffffffffffffff021916908373ffffffffffffffffffffffffffffffffffffffff16021790555050565b610fa86123e2565b80600a9080519060200190610fbe9291906133e4565b5050565b6000610fcc612595565b6001546000540303905090565b600e5481565b610fe76123e2565b6000828290501161102d576040517f08c379a000000000000000000000000000000000000000000000000000000000815260040161102490613d5e565b60405180910390fd5b6101f4828290501115611075576040517f08c379a000000000000000000000000000000000000000000000000000000000815260040161106c90613dca565b60405180910390fd5b60005b82829050811015611124576012600084848481811061109a57611099613dea565b5b90506020020160208101906110af9190613795565b73ffffffffffffffffffffffffffffffffffffffff1673ffffffffffffffffffffffffffffffffffffffff16815260200190815260200160002060006101000a81549060ff0219169055600e600081548092919061110c90613e48565b9190505550808061111c90613e72565b915050611078565b505050565b61113483838361259a565b505050565b6111416123e2565b600f544261114f9190613ebb565b6010819055507f8c7f828c45e9721cfd644b2a4f2ff1eba1c36125ea260c43c4d47ebcb59d3141601054604051611186919061394f565b60405180910390a1565b6111986123e2565b60105442116111dc576040517f08c379a00000000000000000000000000000000000000000000000000000000081526004016111d390613f5d565b60405180910390fd5b60006111e66116db565b73ffffffffffffffffffffffffffffffffffffffff164760405161120990613fae565b60006040518083038185875af1925050503d8060008114611246576040519150601f19603f3d011682016040523d82523d6000602084013e61124b565b606091505b505090508061125957600080fd5b50565b61127783838360405180602001604052806000815250611dd4565b505050565b61128581612962565b50565b601160169054906101000a900460ff1681565b601160159054906101000a900460ff1681565b600a80546112bb90613ce0565b80601f01602080910402602001604051908101604052809291908181526020018280546112e790613ce0565b80156113345780601f1061130957610100808354040283529160200191611334565b820191906000526020600020905b81548152906001019060200180831161131757829003601f168201915b505050505081565b6113446123e2565b806009908051906020019061135a9291906133e4565b507f01e56a02aca7f26a28165a040851ba78f30282b55ca81c63a804cdc1e2dcea72600960405161138b9190614058565b60405180910390a150565b60006113a1826124bf565b9050919050565b600c5481565b6000806113ba83612970565b14156113f2576040517f8f4eb60400000000000000000000000000000000000000000000000000000000815260040160405180910390fd5b67ffffffffffffffff600560008473ffffffffffffffffffffffffffffffffffffffff1673ffffffffffffffffffffffffffffffffffffffff16815260200190815260200160002054169050919050565b61144b6123e2565b611455600061297a565b565b60105481565b601160159054906101000a900460ff166114ac576040517f08c379a00000000000000000000000000000000000000000000000000000000081526004016114a3906140c6565b60405180910390fd5b60011515601160169054906101000a900460ff161515141561155557601260003373ffffffffffffffffffffffffffffffffffffffff1673ffffffffffffffffffffffffffffffffffffffff16815260200190815260200160002060009054906101000a900460ff16611554576040517f08c379a000000000000000000000000000000000000000000000000000000000815260040161154b90614132565b60405180910390fd5b5b600c54816115639190614152565b3410156115a5576040517f08c379a000000000000000000000000000000000000000000000000000000000815260040161159c906141f8565b60405180910390fd5b600d54816115b233612a40565b6115bc9190613ebb565b11156115fd576040517f08c379a00000000000000000000000000000000000000000000000000000000081526004016115f490614264565b60405180910390fd5b600b5481611609612a97565b6116139190613ebb565b1115611654576040517f08c379a000000000000000000000000000000000000000000000000000000000815260040161164b906142d0565b60405180910390fd5b61165e3382612aaa565b50565b6116696123e2565b601160159054906101000a900460ff1615601160156101000a81548160ff0219169083151502179055507f1894dedbea928d98b9226ddf41dc827e1ce8e5b17fdef6cf7170b15d305dcfcb601160159054906101000a900460ff166040516116d1919061353b565b60405180910390a1565b6000600860009054906101000a900473ffffffffffffffffffffffffffffffffffffffff16905090565b600d5481565b60005481565b60606003805461172090613ce0565b80601f016020809104026020016040519081016040528092919081815260200182805461174c90613ce0565b80156117995780601f1061176e57610100808354040283529160200191611799565b820191906000526020600020905b81548152906001019060200180831161177c57829003601f168201915b5050505050905090565b60126020528060005260406000206000915054906101000a900460ff1681565b6117cb61258d565b73ffffffffffffffffffffffffffffffffffffffff168273ffffffffffffffffffffffffffffffffffffffff161415611830576040517fb06307db00000000000000000000000000000000000000000000000000000000815260040160405180910390fd5b806007600061183d61258d565b73ffffffffffffffffffffffffffffffffffffffff1673ffffffffffffffffffffffffffffffffffffffff16815260200190815260200160002060008473ffffffffffffffffffffffffffffffffffffffff1673ffffffffffffffffffffffffffffffffffffffff16815260200190815260200160002060006101000a81548160ff0219169083151502179055508173ffffffffffffffffffffffffffffffffffffffff166118ea61258d565b73ffffffffffffffffffffffffffffffffffffffff167f17307eab39ab6107e8899845ad3d59bd9653f200f220920489ca2b5937696c318360405161192f919061353b565b60405180910390a35050565b600f5481565b611949611efa565b611988576040517f08c379a000000000000000000000000000000000000000000000000000000000815260040161197f9061433c565b60405180910390fd5b60005b82829050811015611b595760008383838181106119ab576119aa613dea565b5b9050602002013590506119bd81611396565b73ffffffffffffffffffffffffffffffffffffffff163373ffffffffffffffffffffffffffffffffffffffff1614611a2a576040517f08c379a0000000000000000000000000000000000000000000000000000000008152600401611a21906143a8565b60405180910390fd5b6013600082815260200190815260200160002060009054906101000a900460ff1615611a8b576040517f08c379a0000000000000000000000000000000000000000000000000000000008152600401611a8290614414565b60405180910390fd5b6014600082815260200190815260200160002060009054906101000a900460ff1615611aec576040517f08c379a0000000000000000000000000000000000000000000000000000000008152600401611ae3906144a6565b60405180910390fd5b60016013600083815260200190815260200160002060006101000a81548160ff021916908315150217905550611b4533601160009054906101000a900473ffffffffffffffffffffffffffffffffffffffff1683611129565b508080611b5190613e72565b91505061198b565b506000600c5483839050611b6d9190614152565b905060003373ffffffffffffffffffffffffffffffffffffffff1682604051611b9590613fae565b60006040518083038185875af1925050503d8060008114611bd2576040519150601f19603f3d011682016040523d82523d6000602084013e611bd7565b606091505b5050905080611be557600080fd5b50505050565b60038054611bf890613ce0565b80601f0160208091040260200160405190810160405280929190818152602001828054611c2490613ce0565b8015611c715780601f10611c4657610100808354040283529160200191611c71565b820191906000526020600020905b815481529060010190602001808311611c5457829003601f168201915b505050505081565b601160149054906101000a900460ff16611cc8576040517f08c379a0000000000000000000000000000000000000000000000000000000008152600401611cbf90614512565b60405180910390fd5b600c5481611cd69190614152565b341015611d18576040517f08c379a0000000000000000000000000000000000000000000000000000000008152600401611d0f906141f8565b60405180910390fd5b600d5481611d2533612a40565b611d2f9190613ebb565b1115611d70576040517f08c379a0000000000000000000000000000000000000000000000000000000008152600401611d6790614264565b60405180910390fd5b600b5481611d7c612a97565b611d869190613ebb565b1115611dc7576040517f08c379a0000000000000000000000000000000000000000000000000000000008152600401611dbe906142d0565b60405180910390fd5b611dd13382612aaa565b50565b611ddf84848461259a565b60008373ffffffffffffffffffffffffffffffffffffffff163b14611e4157611e0a84848484612ac8565b611e40576040517fd1a57ed600000000000000000000000000000000000000000000000000000000815260040160405180910390fd5b5b50505050565b611e4f6123e2565b601160149054906101000a900460ff1615601160146101000a81548160ff0219169083151502179055507f28b42d64cef88205a656230fafa4bc31b0bd28f99b5d006c276a037fb00ec969601160149054906101000a900460ff16604051611eb7919061353b565b60405180910390a1565b601160149054906101000a900460ff1681565b60136020528060005260406000206000915054906101000a900460ff1681565b600b5481565b6000601054421115905090565b6060611f1282612460565b611f51576040517f08c379a0000000000000000000000000000000000000000000000000000000008152600401611f48906145a4565b60405180910390fd5b6000611f5b612c28565b90506000815111611f7b5760405180602001604052806000815250611fa9565b80611f8584612cba565b600a604051602001611f999392919061467f565b6040516020818303038152906040525b915050919050565b60028054611fbe90613ce0565b80601f0160208091040260200160405190810160405280929190818152602001828054611fea90613ce0565b80156120375780601f1061200c57610100808354040283529160200191612037565b820191906000526020600020905b81548152906001019060200180831161201a57829003601f168201915b505050505081565b6000600760008473ffffffffffffffffffffffffffffffffffffffff1673ffffffffffffffffffffffffffffffffffffffff16815260200190815260200160002060008373ffffffffffffffffffffffffffffffffffffffff1673ffffffffffffffffffffffffffffffffffffffff16815260200190815260200160002060009054906101000a900460ff16905092915050565b6120db6123e2565b600b54816120e7612a97565b6120f19190613ebb565b1115612132576040517f08c379a0000000000000000000000000000000000000000000000000000000008152600401612129906142d0565b60405180910390fd5b61213c3382612aaa565b60008160005461214c91906146b0565b90505b6000548110156121985760016014600083815260200190815260200160002060006101000a81548160ff021916908315150217905550808061219090613e72565b91505061214f565b5050565b6121a46123e2565b600073ffffffffffffffffffffffffffffffffffffffff168173ffffffffffffffffffffffffffffffffffffffff161415612214576040517f08c379a000000000000000000000000000000000000000000000000000000000815260040161220b90614756565b60405180910390fd5b61221d8161297a565b50565b6122286123e2565b6000828290501161226e576040517f08c379a000000000000000000000000000000000000000000000000000000000815260040161226590613d5e565b60405180910390fd5b6101f482829050106122b5576040517f08c379a00000000000000000000000000000000000000000000000000000000081526004016122ac90613dca565b60405180910390fd5b60005b828290508110156123b3576107d0600e5410612309576040517f08c379a0000000000000000000000000000000000000000000000000000000008152600401612300906147e8565b60405180910390fd5b60016012600085858581811061232257612321613dea565b5b90506020020160208101906123379190613795565b73ffffffffffffffffffffffffffffffffffffffff1673ffffffffffffffffffffffffffffffffffffffff16815260200190815260200160002060006101000a81548160ff021916908315150217905550600e600081548092919061239b90613e72565b919050555080806123ab90613e72565b9150506122b8565b505050565b60146020528060005260406000206000915054906101000a900460ff1681565b6000601054905090565b6123ea612e1b565b73ffffffffffffffffffffffffffffffffffffffff166124086116db565b73ffffffffffffffffffffffffffffffffffffffff161461245e576040517f08c379a000000000000000000000000000000000000000000000000000000000815260040161245590614854565b60405180910390fd5b565b60008161246b612595565b1115801561247a575060005482105b80156124b8575060007c0100000000000000000000000000000000000000000000000000000000600460008581526020019081526020016000205416145b9050919050565b600080829050806124ce612595565b11612556576000548110156125555760006004600083815260200190815260200160002054905060007c010000000000000000000000000000000000000000000000000000000082161415612553575b600081141561254957600460008360019003935083815260200190815260200160002054905061251e565b8092505050612588565b505b5b6040517fdf2d9b4200000000000000000000000000000000000000000000000000000000815260040160405180910390fd5b919050565b600033905090565b600090565b60006125a5826124bf565b90508373ffffffffffffffffffffffffffffffffffffffff168173ffffffffffffffffffffffffffffffffffffffff161461260c576040517fa114810000000000000000000000000000000000000000000000000000000000815260040160405180910390fd5b60006006600084815260200190815260200160002060009054906101000a900473ffffffffffffffffffffffffffffffffffffffff16905060008573ffffffffffffffffffffffffffffffffffffffff1661266561258d565b73ffffffffffffffffffffffffffffffffffffffff16148061269457506126938661268e61258d565b61203f565b5b806126d157506126a261258d565b73ffffffffffffffffffffffffffffffffffffffff168273ffffffffffffffffffffffffffffffffffffffff16145b90508061270a576040517f59c896be00000000000000000000000000000000000000000000000000000000815260040160405180910390fd5b600061271586612970565b141561274d576040517fea553b3400000000000000000000000000000000000000000000000000000000815260040160405180910390fd5b61275a8686866001612e23565b600061276583612970565b146127a1576006600085815260200190815260200160002060006101000a81549073ffffffffffffffffffffffffffffffffffffffff02191690555b600560008773ffffffffffffffffffffffffffffffffffffffff1673ffffffffffffffffffffffffffffffffffffffff168152602001908152602001600020600081546001900391905081905550600560008673ffffffffffffffffffffffffffffffffffffffff1673ffffffffffffffffffffffffffffffffffffffff16815260200190815260200160002060008154600101919050819055507c020000000000000000000000000000000000000000000000000000000060a042901b61286887612970565b1717600460008681526020019081526020016000208190555060007c0200000000000000000000000000000000000000000000000000000000841614156128f25760006001850190506000600460008381526020019081526020016000205414156128f05760005481146128ef578360046000838152602001908152602001600020819055505b5b505b838573ffffffffffffffffffffffffffffffffffffffff168773ffffffffffffffffffffffffffffffffffffffff167fddf252ad1be2c89b69c2b068fc378daa952ba7f163c4a11628f55a4df523b3ef60405160405180910390a461295a8686866001612e29565b505050505050565b61296d816000612e2f565b50565b6000819050919050565b6000600860009054906101000a900473ffffffffffffffffffffffffffffffffffffffff16905081600860006101000a81548173ffffffffffffffffffffffffffffffffffffffff021916908373ffffffffffffffffffffffffffffffffffffffff1602179055508173ffffffffffffffffffffffffffffffffffffffff168173ffffffffffffffffffffffffffffffffffffffff167f8be0079c531659141344cd1fd0a4f28419497f9722a3daafe3b4186f6b6457e060405160405180910390a35050565b600067ffffffffffffffff6040600560008573ffffffffffffffffffffffffffffffffffffffff1673ffffffffffffffffffffffffffffffffffffffff16815260200190815260200160002054901c169050919050565b6000612aa1612595565b60005403905090565b612ac4828260405180602001604052806000815250613149565b5050565b60008373ffffffffffffffffffffffffffffffffffffffff1663150b7a02612aee61258d565b8786866040518563ffffffff1660e01b8152600401612b1094939291906148c9565b602060405180830381600087803b158015612b2a57600080fd5b505af1925050508015612b5b57506040513d601f19601f82011682018060405250810190612b58919061492a565b60015b612bd5573d8060008114612b8b576040519150601f19603f3d011682016040523d82523d6000602084013e612b90565b606091505b50600081511415612bcd576040517fd1a57ed600000000000000000000000000000000000000000000000000000000815260040160405180910390fd5b805181602001fd5b63150b7a0260e01b7bffffffffffffffffffffffffffffffffffffffffffffffffffffffff1916817bffffffffffffffffffffffffffffffffffffffffffffffffffffffff191614915050949350505050565b606060098054612c3790613ce0565b80601f0160208091040260200160405190810160405280929190818152602001828054612c6390613ce0565b8015612cb05780601f10612c8557610100808354040283529160200191612cb0565b820191906000526020600020905b815481529060010190602001808311612c9357829003601f168201915b5050505050905090565b60606000821415612d02576040518060400160405280600181526020017f30000000000000000000000000000000000000000000000000000000000000008152509050612e16565b600082905060005b60008214612d34578080612d1d90613e72565b915050600a82612d2d9190614986565b9150612d0a565b60008167ffffffffffffffff811115612d5057612d4f6137cc565b5b6040519080825280601f01601f191660200182016040528015612d825781602001600182028036833780820191505090505b5090505b60008514612e0f57600182612d9b91906146b0565b9150600a85612daa91906149b7565b6030612db69190613ebb565b60f81b818381518110612dcc57612dcb613dea565b5b60200101907effffffffffffffffffffffffffffffffffffffffffffffffffffffffffffff1916908160001a905350600a85612e089190614986565b9450612d86565b8093505050505b919050565b600033905090565b50505050565b50505050565b6000612e3a836124bf565b9050600081905060006006600086815260200190815260200160002060009054906101000a900473ffffffffffffffffffffffffffffffffffffffff1690508315612f475760008273ffffffffffffffffffffffffffffffffffffffff16612ea061258d565b73ffffffffffffffffffffffffffffffffffffffff161480612ecf5750612ece83612ec961258d565b61203f565b5b80612f0c5750612edd61258d565b73ffffffffffffffffffffffffffffffffffffffff168273ffffffffffffffffffffffffffffffffffffffff16145b905080612f45576040517f59c896be00000000000000000000000000000000000000000000000000000000815260040160405180910390fd5b505b612f55826000876001612e23565b6000612f6082612970565b14612f9c576006600086815260200190815260200160002060006101000a81549073ffffffffffffffffffffffffffffffffffffffff02191690555b600160806001901b03600560008473ffffffffffffffffffffffffffffffffffffffff1673ffffffffffffffffffffffffffffffffffffffff168152602001908152602001600020600082825401925050819055507c02000000000000000000000000000000000000000000000000000000007c010000000000000000000000000000000000000000000000000000000060a042901b61303b85612970565b171717600460008781526020019081526020016000208190555060007c0200000000000000000000000000000000000000000000000000000000841614156130c65760006001860190506000600460008381526020019081526020016000205414156130c45760005481146130c3578360046000838152602001908152602001600020819055505b5b505b84600073ffffffffffffffffffffffffffffffffffffffff168373ffffffffffffffffffffffffffffffffffffffff167fddf252ad1be2c89b69c2b068fc378daa952ba7f163c4a11628f55a4df523b3ef60405160405180910390a4613130826000876001612e29565b6001600081548092919060010191905055505050505050565b600080549050600061315a85612970565b1415613192576040517f2e07630000000000000000000000000000000000000000000000000000000000815260040160405180910390fd5b60008314156131cd576040517fb562e8dd00000000000000000000000000000000000000000000000000000000815260040160405180910390fd5b6131da6000858386612e23565b600160406001901b178302600560008673ffffffffffffffffffffffffffffffffffffffff1673ffffffffffffffffffffffffffffffffffffffff1681526020019081526020016000206000828254019250508190555060e161323f600185146133da565b901b60a042901b61324f86612970565b1717600460008381526020019081526020016000208190555060008190506000848201905060008673ffffffffffffffffffffffffffffffffffffffff163b14613353575b818673ffffffffffffffffffffffffffffffffffffffff16600073ffffffffffffffffffffffffffffffffffffffff167fddf252ad1be2c89b69c2b068fc378daa952ba7f163c4a11628f55a4df523b3ef60405160405180910390a46133036000878480600101955087612ac8565b613339576040517fd1a57ed600000000000000000000000000000000000000000000000000000000815260040160405180910390fd5b80821061329457826000541461334e57600080fd5b6133be565b5b818060010192508673ffffffffffffffffffffffffffffffffffffffff16600073ffffffffffffffffffffffffffffffffffffffff167fddf252ad1be2c89b69c2b068fc378daa952ba7f163c4a11628f55a4df523b3ef60405160405180910390a4808210613354575b8160008190555050506133d46000858386612e29565b50505050565b6000819050919050565b8280546133f090613ce0565b90600052602060002090601f0160209004810192826134125760008555613459565b82601f1061342b57805160ff1916838001178555613459565b82800160010185558215613459579182015b8281111561345857825182559160200191906001019061343d565b5b509050613466919061346a565b5090565b5b8082111561348357600081600090555060010161346b565b5090565b6000604051905090565b600080fd5b600080fd5b60007fffffffff0000000000000000000000000000000000000000000000000000000082169050919050565b6134d08161349b565b81146134db57600080fd5b50565b6000813590506134ed816134c7565b92915050565b60006020828403121561350957613508613491565b5b6000613517848285016134de565b91505092915050565b60008115159050919050565b61353581613520565b82525050565b6000602082019050613550600083018461352c565b92915050565b61355f81613520565b811461356a57600080fd5b50565b60008135905061357c81613556565b92915050565b60006020828403121561359857613597613491565b5b60006135a68482850161356d565b91505092915050565b600081519050919050565b600082825260208201905092915050565b60005b838110156135e95780820151818401526020810190506135ce565b838111156135f8576000848401525b50505050565b6000601f19601f8301169050919050565b600061361a826135af565b61362481856135ba565b93506136348185602086016135cb565b61363d816135fe565b840191505092915050565b60006020820190508181036000830152613662818461360f565b905092915050565b6000819050919050565b61367d8161366a565b811461368857600080fd5b50565b60008135905061369a81613674565b92915050565b6000602082840312156136b6576136b5613491565b5b60006136c48482850161368b565b91505092915050565b600073ffffffffffffffffffffffffffffffffffffffff82169050919050565b60006136f8826136cd565b9050919050565b613708816136ed565b82525050565b600060208201905061372360008301846136ff565b92915050565b613732816136ed565b811461373d57600080fd5b50565b60008135905061374f81613729565b92915050565b6000806040838503121561376c5761376b613491565b5b600061377a85828601613740565b925050602061378b8582860161368b565b9150509250929050565b6000602082840312156137ab576137aa613491565b5b60006137b984828501613740565b91505092915050565b600080fd5b600080fd5b7f4e487b7100000000000000000000000000000000000000000000000000000000600052604160045260246000fd5b613804826135fe565b810181811067ffffffffffffffff82111715613823576138226137cc565b5b80604052505050565b6000613836613487565b905061384282826137fb565b919050565b600067ffffffffffffffff821115613862576138616137cc565b5b61386b826135fe565b9050602081019050919050565b82818337600083830152505050565b600061389a61389584613847565b61382c565b9050828152602081018484840111156138b6576138b56137c7565b5b6138c1848285613878565b509392505050565b600082601f8301126138de576138dd6137c2565b5b81356138ee848260208601613887565b91505092915050565b60006020828403121561390d5761390c613491565b5b600082013567ffffffffffffffff81111561392b5761392a613496565b5b613937848285016138c9565b91505092915050565b6139498161366a565b82525050565b60006020820190506139646000830184613940565b92915050565b600080fd5b600080fd5b60008083601f84011261398a576139896137c2565b5b8235905067ffffffffffffffff8111156139a7576139a661396a565b5b6020830191508360208202830111156139c3576139c261396f565b5b9250929050565b600080602083850312156139e1576139e0613491565b5b600083013567ffffffffffffffff8111156139ff576139fe613496565b5b613a0b85828601613974565b92509250509250929050565b600080600060608486031215613a3057613a2f613491565b5b6000613a3e86828701613740565b9350506020613a4f86828701613740565b9250506040613a608682870161368b565b9150509250925092565b60008060408385031215613a8157613a80613491565b5b6000613a8f85828601613740565b9250506020613aa08582860161356d565b9150509250929050565b60008083601f840112613ac057613abf6137c2565b5b8235905067ffffffffffffffff811115613add57613adc61396a565b5b602083019150836020820283011115613af957613af861396f565b5b9250929050565b60008060208385031215613b1757613b16613491565b5b600083013567ffffffffffffffff811115613b3557613b34613496565b5b613b4185828601613aaa565b92509250509250929050565b600067ffffffffffffffff821115613b6857613b676137cc565b5b613b71826135fe565b9050602081019050919050565b6000613b91613b8c84613b4d565b61382c565b905082815260208101848484011115613bad57613bac6137c7565b5b613bb8848285613878565b509392505050565b600082601f830112613bd557613bd46137c2565b5b8135613be5848260208601613b7e565b91505092915050565b60008060008060808587031215613c0857613c07613491565b5b6000613c1687828801613740565b9450506020613c2787828801613740565b9350506040613c388782880161368b565b925050606085013567ffffffffffffffff811115613c5957613c58613496565b5b613c6587828801613bc0565b91505092959194509250565b60008060408385031215613c8857613c87613491565b5b6000613c9685828601613740565b9250506020613ca785828601613740565b9150509250929050565b7f4e487b7100000000000000000000000000000000000000000000000000000000600052602260045260246000fd5b60006002820490506001821680613cf857607f821691505b60208210811415613d0c57613d0b613cb1565b5b50919050565b7f4e6f20757365722064657461696c732070726f76696465640000000000000000600082015250565b6000613d486018836135ba565b9150613d5382613d12565b602082019050919050565b60006020820190508181036000830152613d7781613d3b565b9050919050565b7f546f6f206d616e792075736572737320746f2077686974656c69737400000000600082015250565b6000613db4601c836135ba565b9150613dbf82613d7e565b602082019050919050565b60006020820190508181036000830152613de381613da7565b9050919050565b7f4e487b7100000000000000000000000000000000000000000000000000000000600052603260045260246000fd5b7f4e487b7100000000000000000000000000000000000000000000000000000000600052601160045260246000fd5b6000613e538261366a565b91506000821415613e6757613e66613e19565b5b600182039050919050565b6000613e7d8261366a565b91507fffffffffffffffffffffffffffffffffffffffffffffffffffffffffffffffff821415613eb057613eaf613e19565b5b600182019050919050565b6000613ec68261366a565b9150613ed18361366a565b9250827fffffffffffffffffffffffffffffffffffffffffffffffffffffffffffffffff03821115613f0657613f05613e19565b5b828201905092915050565b7f526566756e6420706572696f64206e6f74206f76657200000000000000000000600082015250565b6000613f476016836135ba565b9150613f5282613f11565b602082019050919050565b60006020820190508181036000830152613f7681613f3a565b9050919050565b600081905092915050565b50565b6000613f98600083613f7d565b9150613fa382613f88565b600082019050919050565b6000613fb982613f8b565b9150819050919050565b60008190508160005260206000209050919050565b60008154613fe581613ce0565b613fef81866135ba565b9450600182166000811461400a576001811461401c5761404f565b60ff198316865260208601935061404f565b61402585613fc3565b60005b8381101561404757815481890152600182019150602081019050614028565b808801955050505b50505092915050565b600060208201905081810360008301526140728184613fd8565b905092915050565b7f50726573616c65206973206e6f74206163746976650000000000000000000000600082015250565b60006140b06015836135ba565b91506140bb8261407a565b602082019050919050565b600060208201905081810360008301526140df816140a3565b9050919050565b7f41646472657373206e6f742077686974656c6973746564000000000000000000600082015250565b600061411c6017836135ba565b9150614127826140e6565b602082019050919050565b6000602082019050818103600083015261414b8161410f565b9050919050565b600061415d8261366a565b91506141688361366a565b9250817fffffffffffffffffffffffffffffffffffffffffffffffffffffffffffffffff04831182151516156141a1576141a0613e19565b5b828202905092915050565b7f4e6f7420656e6f756768206574682073656e7400000000000000000000000000600082015250565b60006141e26013836135ba565b91506141ed826141ac565b602082019050919050565b60006020820190508181036000830152614211816141d5565b9050919050565b7f4f766572206d696e74206c696d69740000000000000000000000000000000000600082015250565b600061424e600f836135ba565b915061425982614218565b602082019050919050565b6000602082019050818103600083015261427d81614241565b9050919050565b7f4d6178206d696e7420737570706c792072656163686564000000000000000000600082015250565b60006142ba6017836135ba565b91506142c582614284565b602082019050919050565b600060208201905081810360008301526142e9816142ad565b9050919050565b7f526566756e642065787069726564000000000000000000000000000000000000600082015250565b6000614326600e836135ba565b9150614331826142f0565b602082019050919050565b6000602082019050818103600083015261435581614319565b9050919050565b7f4e6f7420746f6b656e206f776e65720000000000000000000000000000000000600082015250565b6000614392600f836135ba565b915061439d8261435c565b602082019050919050565b600060208201905081810360008301526143c181614385565b9050919050565b7f416c726561647920726566756e64656400000000000000000000000000000000600082015250565b60006143fe6010836135ba565b9150614409826143c8565b602082019050919050565b6000602082019050818103600083015261442d816143f1565b9050919050565b7f467265656c79206d696e746564204e4654732063616e6e6f742062652072656660008201527f756e646564000000000000000000000000000000000000000000000000000000602082015250565b60006144906025836135ba565b915061449b82614434565b604082019050919050565b600060208201905081810360008301526144bf81614483565b9050919050565b7f5075626c69632073616c65206973206e6f742061637469766500000000000000600082015250565b60006144fc6019836135ba565b9150614507826144c6565b602082019050919050565b6000602082019050818103600083015261452b816144ef565b9050919050565b7f4552433732314d657461646174613a2055524920717565727920666f72206e6f60008201527f6e6578697374656e7420746f6b656e0000000000000000000000000000000000602082015250565b600061458e602f836135ba565b915061459982614532565b604082019050919050565b600060208201905081810360008301526145bd81614581565b9050919050565b600081905092915050565b60006145da826135af565b6145e481856145c4565b93506145f48185602086016135cb565b80840191505092915050565b6000815461460d81613ce0565b61461781866145c4565b94506001821660008114614632576001811461464357614676565b60ff19831686528186019350614676565b61464c85613fc3565b60005b8381101561466e5781548189015260018201915060208101905061464f565b838801955050505b50505092915050565b600061468b82866145cf565b915061469782856145cf565b91506146a38284614600565b9150819050949350505050565b60006146bb8261366a565b91506146c68361366a565b9250828210156146d9576146d8613e19565b5b828203905092915050565b7f4f776e61626c653a206e6577206f776e657220697320746865207a65726f206160008201527f6464726573730000000000000000000000000000000000000000000000000000602082015250565b60006147406026836135ba565b915061474b826146e4565b604082019050919050565b6000602082019050818103600083015261476f81614733565b9050919050565b7f4d6178696d756d20557365727320616c72656164792077686974656c6973746560008201527f6400000000000000000000000000000000000000000000000000000000000000602082015250565b60006147d26021836135ba565b91506147dd82614776565b604082019050919050565b60006020820190508181036000830152614801816147c5565b9050919050565b7f4f776e61626c653a2063616c6c6572206973206e6f7420746865206f776e6572600082015250565b600061483e6020836135ba565b915061484982614808565b602082019050919050565b6000602082019050818103600083015261486d81614831565b9050919050565b600081519050919050565b600082825260208201905092915050565b600061489b82614874565b6148a5818561487f565b93506148b58185602086016135cb565b6148be816135fe565b840191505092915050565b60006080820190506148de60008301876136ff565b6148eb60208301866136ff565b6148f86040830185613940565b818103606083015261490a8184614890565b905095945050505050565b600081519050614924816134c7565b92915050565b6000602082840312156149405761493f613491565b5b600061494e84828501614915565b91505092915050565b7f4e487b7100000000000000000000000000000000000000000000000000000000600052601260045260246000fd5b60006149918261366a565b915061499c8361366a565b9250826149ac576149ab614957565b5b828204905092915050565b60006149c28261366a565b91506149cd8361366a565b9250826149dd576149dc614957565b5b82820690509291505056fea264697066735822122096ca2b2c59048d2c0e0a4584a0cdd6deb18f4f3dc7def29986a119a3df0e1cbf64736f6c63430008090033",
  "linkReferences": {},
  "deployedLinkReferences": {}
}