{
  "_format": "hh-sol-artifact-1",
  "contractName": "ERC721RFactory",
  "sourceName": "contracts/factoryContracts/ERC721RFactory.sol",
  "abi": [
    {
      "inputs": [
        {
          "internalType": "string",
          "name": "name",
          "type": "string"
        },
        {
          "internalType": "string",
          "name": "symbol",
          "type": "string"
        },
        {
          "internalType": "uint256",
          "name": "mintSupply",
          "type": "uint256"
        },
        {
          "internalType": "uint256",
          "name": "mintingPrice",
          "type": "uint256"
        },
        {
          "internalType": "uint256",
          "name": "refundTime",
          "type": "uint256"
        },
        {
          "internalType": "uint256",
          "name": "maxMintPerUser",
          "type": "uint256"
        }
      ],
      "stateMutability": "nonpayable",
      "type": "constructor"
    },
    {
      "inputs": [],
      "name": "ApprovalCallerNotOwnerNorApproved",
      "type": "error"
    },
    {
      "inputs": [],
      "name": "ApprovalQueryForNonexistentToken",
      "type": "error"
    },
    {
      "inputs": [],
      "name": "ApprovalToCurrentOwner",
      "type": "error"
    },
    {
      "inputs": [],
      "name": "ApproveToCaller",
      "type": "error"
    },
    {
      "inputs": [],
      "name": "BalanceQueryForZeroAddress",
      "type": "error"
    },
    {
      "inputs": [],
      "name": "MintToZeroAddress",
      "type": "error"
    },
    {
      "inputs": [],
      "name": "MintZeroQuantity",
      "type": "error"
    },
    {
      "inputs": [],
      "name": "OwnerQueryForNonexistentToken",
      "type": "error"
    },
    {
      "inputs": [],
      "name": "TransferCallerNotOwnerNorApproved",
      "type": "error"
    },
    {
      "inputs": [],
      "name": "TransferFromIncorrectOwner",
      "type": "error"
    },
    {
      "inputs": [],
      "name": "TransferToNonERC721ReceiverImplementer",
      "type": "error"
    },
    {
      "inputs": [],
      "name": "TransferToZeroAddress",
      "type": "error"
    },
    {
      "inputs": [],
      "name": "URIQueryForNonexistentToken",
      "type": "error"
    },
    {
      "anonymous": false,
      "inputs": [
        {
          "indexed": true,
          "internalType": "address",
          "name": "owner",
          "type": "address"
        },
        {
          "indexed": true,
          "internalType": "address",
          "name": "approved",
          "type": "address"
        },
        {
          "indexed": true,
          "internalType": "uint256",
          "name": "tokenId",
          "type": "uint256"
        }
      ],
      "name": "Approval",
      "type": "event"
    },
    {
      "anonymous": false,
      "inputs": [
        {
          "indexed": true,
          "internalType": "address",
          "name": "owner",
          "type": "address"
        },
        {
          "indexed": true,
          "internalType": "address",
          "name": "operator",
          "type": "address"
        },
        {
          "indexed": false,
          "internalType": "bool",
          "name": "approved",
          "type": "bool"
        }
      ],
      "name": "ApprovalForAll",
      "type": "event"
    },
    {
      "anonymous": false,
      "inputs": [
        {
          "indexed": false,
          "internalType": "string",
          "name": "uri",
          "type": "string"
        }
      ],
      "name": "BaseURI",
      "type": "event"
    },
    {
      "anonymous": false,
      "inputs": [
        {
          "indexed": true,
          "internalType": "address",
          "name": "previousOwner",
          "type": "address"
        },
        {
          "indexed": true,
          "internalType": "address",
          "name": "newOwner",
          "type": "address"
        }
      ],
      "name": "OwnershipTransferred",
      "type": "event"
    },
    {
      "anonymous": false,
      "inputs": [
        {
          "indexed": false,
          "internalType": "bool",
          "name": "presaleActive",
          "type": "bool"
        }
      ],
      "name": "PresaleToggled",
      "type": "event"
    },
    {
      "anonymous": false,
      "inputs": [
        {
          "indexed": false,
          "internalType": "bool",
          "name": "publicSaleActive",
          "type": "bool"
        }
      ],
      "name": "PublicSaleSet",
      "type": "event"
    },
    {
      "anonymous": false,
      "inputs": [
        {
          "indexed": false,
          "internalType": "uint256",
          "name": "refundEndTime",
          "type": "uint256"
        }
      ],
      "name": "RefundCountDownSet",
      "type": "event"
    },
    {
      "anonymous": false,
      "inputs": [
        {
          "indexed": true,
          "internalType": "address",
          "name": "from",
          "type": "address"
        },
        {
          "indexed": true,
          "internalType": "address",
          "name": "to",
          "type": "address"
        },
        {
          "indexed": true,
          "internalType": "uint256",
          "name": "tokenId",
          "type": "uint256"
        }
      ],
      "name": "Transfer",
      "type": "event"
    },
    {
      "anonymous": false,
      "inputs": [
        {
          "indexed": false,
          "internalType": "bool",
          "name": "whitelistEnabled",
          "type": "bool"
        }
      ],
      "name": "WhiteListEnabled",
      "type": "event"
    },
    {
      "inputs": [],
      "name": "_currentIndex",
      "outputs": [
        {
          "internalType": "uint256",
          "name": "",
          "type": "uint256"
        }
      ],
      "stateMutability": "view",
      "type": "function"
    },
    {
      "inputs": [],
      "name": "_name",
      "outputs": [
        {
          "internalType": "string",
          "name": "",
          "type": "string"
        }
      ],
      "stateMutability": "view",
      "type": "function"
    },
    {
      "inputs": [],
      "name": "_symbol",
      "outputs": [
        {
          "internalType": "string",
          "name": "",
          "type": "string"
        }
      ],
      "stateMutability": "view",
      "type": "function"
    },
    {
      "inputs": [
        {
          "internalType": "address",
          "name": "to",
          "type": "address"
        },
        {
          "internalType": "uint256",
          "name": "tokenId",
          "type": "uint256"
        }
      ],
      "name": "approve",
      "outputs": [],
      "stateMutability": "nonpayable",
      "type": "function"
    },
    {
      "inputs": [
        {
          "internalType": "address",
          "name": "owner",
          "type": "address"
        }
      ],
      "name": "balanceOf",
      "outputs": [
        {
          "internalType": "uint256",
          "name": "",
          "type": "uint256"
        }
      ],
      "stateMutability": "view",
      "type": "function"
    },
    {
      "inputs": [
        {
          "internalType": "uint256",
          "name": "tokenId",
          "type": "uint256"
        }
      ],
      "name": "burn",
      "outputs": [],
      "stateMutability": "nonpayable",
      "type": "function"
    },
    {
      "inputs": [
        {
          "internalType": "uint256",
          "name": "tokenId",
          "type": "uint256"
        }
      ],
      "name": "getApproved",
      "outputs": [
        {
          "internalType": "address",
          "name": "",
          "type": "address"
        }
      ],
      "stateMutability": "view",
      "type": "function"
    },
    {
      "inputs": [],
      "name": "getRefundGuaranteeEndTime",
      "outputs": [
        {
          "internalType": "uint256",
          "name": "",
          "type": "uint256"
        }
      ],
      "stateMutability": "view",
      "type": "function"
    },
    {
      "inputs": [
        {
          "internalType": "uint256",
          "name": "",
          "type": "uint256"
        }
      ],
      "name": "hasRefunded",
      "outputs": [
        {
          "internalType": "bool",
          "name": "",
          "type": "bool"
        }
      ],
      "stateMutability": "view",
      "type": "function"
    },
    {
      "inputs": [
        {
          "internalType": "address",
          "name": "owner",
          "type": "address"
        },
        {
          "internalType": "address",
          "name": "operator",
          "type": "address"
        }
      ],
      "name": "isApprovedForAll",
      "outputs": [
        {
          "internalType": "bool",
          "name": "",
          "type": "bool"
        }
      ],
      "stateMutability": "view",
      "type": "function"
    },
    {
      "inputs": [
        {
          "internalType": "uint256",
          "name": "",
          "type": "uint256"
        }
      ],
      "name": "isOwnerMint",
      "outputs": [
        {
          "internalType": "bool",
          "name": "",
          "type": "bool"
        }
      ],
      "stateMutability": "view",
      "type": "function"
    },
    {
      "inputs": [],
      "name": "isRefundGuaranteeActive",
      "outputs": [
        {
          "internalType": "bool",
          "name": "",
          "type": "bool"
        }
      ],
      "stateMutability": "view",
      "type": "function"
    },
    {
      "inputs": [],
      "name": "maxMintSupply",
      "outputs": [
        {
          "internalType": "uint256",
          "name": "",
          "type": "uint256"
        }
      ],
      "stateMutability": "view",
      "type": "function"
    },
    {
      "inputs": [],
      "name": "maxUserMintAmount",
      "outputs": [
        {
          "internalType": "uint256",
          "name": "",
          "type": "uint256"
        }
      ],
      "stateMutability": "view",
      "type": "function"
    },
    {
      "inputs": [],
      "name": "mintPrice",
      "outputs": [
        {
          "internalType": "uint256",
          "name": "",
          "type": "uint256"
        }
      ],
      "stateMutability": "view",
      "type": "function"
    },
    {
      "inputs": [],
      "name": "name",
      "outputs": [
        {
          "internalType": "string",
          "name": "",
          "type": "string"
        }
      ],
      "stateMutability": "view",
      "type": "function"
    },
    {
      "inputs": [],
      "name": "owner",
      "outputs": [
        {
          "internalType": "address",
          "name": "",
          "type": "address"
        }
      ],
      "stateMutability": "view",
      "type": "function"
    },
    {
      "inputs": [
        {
          "internalType": "uint256",
          "name": "quantity",
          "type": "uint256"
        }
      ],
      "name": "ownerMint",
      "outputs": [],
      "stateMutability": "nonpayable",
      "type": "function"
    },
    {
      "inputs": [
        {
          "internalType": "uint256",
          "name": "tokenId",
          "type": "uint256"
        }
      ],
      "name": "ownerOf",
      "outputs": [
        {
          "internalType": "address",
          "name": "",
          "type": "address"
        }
      ],
      "stateMutability": "view",
      "type": "function"
    },
    {
      "inputs": [
        {
          "internalType": "uint256",
          "name": "quantity",
          "type": "uint256"
        }
      ],
      "name": "preSaleMint",
      "outputs": [],
      "stateMutability": "payable",
      "type": "function"
    },
    {
      "inputs": [],
      "name": "presaleActive",
      "outputs": [
        {
          "internalType": "bool",
          "name": "",
          "type": "bool"
        }
      ],
      "stateMutability": "view",
      "type": "function"
    },
    {
      "inputs": [],
      "name": "publicSaleActive",
      "outputs": [
        {
          "internalType": "bool",
          "name": "",
          "type": "bool"
        }
      ],
      "stateMutability": "view",
      "type": "function"
    },
    {
      "inputs": [
        {
          "internalType": "uint256",
          "name": "quantity",
          "type": "uint256"
        }
      ],
      "name": "publicSaleMint",
      "outputs": [],
      "stateMutability": "payable",
      "type": "function"
    },
    {
      "inputs": [
        {
          "internalType": "uint256[]",
          "name": "tokenIds",
          "type": "uint256[]"
        }
      ],
      "name": "refund",
      "outputs": [],
      "stateMutability": "nonpayable",
      "type": "function"
    },
    {
      "inputs": [],
      "name": "refundAddress",
      "outputs": [
        {
          "internalType": "address",
          "name": "",
          "type": "address"
        }
      ],
      "stateMutability": "view",
      "type": "function"
    },
    {
      "inputs": [],
      "name": "refundEndTime",
      "outputs": [
        {
          "internalType": "uint256",
          "name": "",
          "type": "uint256"
        }
      ],
      "stateMutability": "view",
      "type": "function"
    },
    {
      "inputs": [],
      "name": "refundPeriod",
      "outputs": [
        {
          "internalType": "uint256",
          "name": "",
          "type": "uint256"
        }
      ],
      "stateMutability": "view",
      "type": "function"
    },
    {
      "inputs": [
        {
          "internalType": "address[]",
          "name": "currentAddresses",
          "type": "address[]"
        }
      ],
      "name": "removeWhitelist",
      "outputs": [],
      "stateMutability": "nonpayable",
      "type": "function"
    },
    {
      "inputs": [],
      "name": "renounceOwnership",
      "outputs": [],
      "stateMutability": "nonpayable",
      "type": "function"
    },
    {
      "inputs": [
        {
          "internalType": "address",
          "name": "from",
          "type": "address"
        },
        {
          "internalType": "address",
          "name": "to",
          "type": "address"
        },
        {
          "internalType": "uint256",
          "name": "tokenId",
          "type": "uint256"
        }
      ],
      "name": "safeTransferFrom",
      "outputs": [],
      "stateMutability": "nonpayable",
      "type": "function"
    },
    {
      "inputs": [
        {
          "internalType": "address",
          "name": "from",
          "type": "address"
        },
        {
          "internalType": "address",
          "name": "to",
          "type": "address"
        },
        {
          "internalType": "uint256",
          "name": "tokenId",
          "type": "uint256"
        },
        {
          "internalType": "bytes",
          "name": "_data",
          "type": "bytes"
        }
      ],
      "name": "safeTransferFrom",
      "outputs": [],
      "stateMutability": "nonpayable",
      "type": "function"
    },
    {
      "inputs": [
        {
          "internalType": "address",
          "name": "operator",
          "type": "address"
        },
        {
          "internalType": "bool",
          "name": "approved",
          "type": "bool"
        }
      ],
      "name": "setApprovalForAll",
      "outputs": [],
      "stateMutability": "nonpayable",
      "type": "function"
    },
    {
      "inputs": [
        {
          "internalType": "string",
          "name": "uri",
          "type": "string"
        }
      ],
      "name": "setBaseURI",
      "outputs": [],
      "stateMutability": "nonpayable",
      "type": "function"
    },
    {
      "inputs": [
        {
          "internalType": "address",
          "name": "_refundAddress",
          "type": "address"
        }
      ],
      "name": "setRefundAddress",
      "outputs": [],
      "stateMutability": "nonpayable",
      "type": "function"
    },
    {
      "inputs": [
        {
          "internalType": "string",
          "name": "_uriSuffix",
          "type": "string"
        }
      ],
      "name": "setUriSuffix",
      "outputs": [],
      "stateMutability": "nonpayable",
      "type": "function"
    },
    {
      "inputs": [
        {
          "internalType": "address[]",
          "name": "newAddresses",
          "type": "address[]"
        }
      ],
      "name": "setWhitelist",
      "outputs": [],
      "stateMutability": "nonpayable",
      "type": "function"
    },
    {
      "inputs": [
        {
          "internalType": "bool",
          "name": "_state",
          "type": "bool"
        }
      ],
      "name": "setWhitelistEnabled",
      "outputs": [],
      "stateMutability": "nonpayable",
      "type": "function"
    },
    {
      "inputs": [
        {
          "internalType": "bytes4",
          "name": "interfaceId",
          "type": "bytes4"
        }
      ],
      "name": "supportsInterface",
      "outputs": [
        {
          "internalType": "bool",
          "name": "",
          "type": "bool"
        }
      ],
      "stateMutability": "view",
      "type": "function"
    },
    {
      "inputs": [],
      "name": "symbol",
      "outputs": [
        {
          "internalType": "string",
          "name": "",
          "type": "string"
        }
      ],
      "stateMutability": "view",
      "type": "function"
    },
    {
      "inputs": [],
      "name": "togglePresaleStatus",
      "outputs": [],
      "stateMutability": "nonpayable",
      "type": "function"
    },
    {
      "inputs": [],
      "name": "togglePublicSaleStatus",
      "outputs": [],
      "stateMutability": "nonpayable",
      "type": "function"
    },
    {
      "inputs": [],
      "name": "toggleRefundCountdown",
      "outputs": [],
      "stateMutability": "nonpayable",
      "type": "function"
    },
    {
      "inputs": [
        {
          "internalType": "uint256",
          "name": "_tokenId",
          "type": "uint256"
        }
      ],
      "name": "tokenURI",
      "outputs": [
        {
          "internalType": "string",
          "name": "",
          "type": "string"
        }
      ],
      "stateMutability": "view",
      "type": "function"
    },
    {
      "inputs": [],
      "name": "totalSupply",
      "outputs": [
        {
          "internalType": "uint256",
          "name": "",
          "type": "uint256"
        }
      ],
      "stateMutability": "view",
      "type": "function"
    },
    {
      "inputs": [
        {
          "internalType": "address",
          "name": "from",
          "type": "address"
        },
        {
          "internalType": "address",
          "name": "to",
          "type": "address"
        },
        {
          "internalType": "uint256",
          "name": "tokenId",
          "type": "uint256"
        }
      ],
      "name": "transferFrom",
      "outputs": [],
      "stateMutability": "nonpayable",
      "type": "function"
    },
    {
      "inputs": [
        {
          "internalType": "address",
          "name": "newOwner",
          "type": "address"
        }
      ],
      "name": "transferOwnership",
      "outputs": [],
      "stateMutability": "nonpayable",
      "type": "function"
    },
    {
      "inputs": [],
      "name": "uriSuffix",
      "outputs": [
        {
          "internalType": "string",
          "name": "",
          "type": "string"
        }
      ],
      "stateMutability": "view",
      "type": "function"
    },
    {
      "inputs": [
        {
          "internalType": "address",
          "name": "",
          "type": "address"
        }
      ],
      "name": "whitelist",
      "outputs": [
        {
          "internalType": "bool",
          "name": "",
          "type": "bool"
        }
      ],
      "stateMutability": "view",
      "type": "function"
    },
    {
      "inputs": [],
      "name": "whitelistEnabled",
      "outputs": [
        {
          "internalType": "bool",
          "name": "",
          "type": "bool"
        }
      ],
      "stateMutability": "view",
      "type": "function"
    },
    {
      "inputs": [],
      "name": "withdraw",
      "outputs": [],
      "stateMutability": "nonpayable",
      "type": "function"
    }
  ],
  "bytecode": "0x60806040526040518060400160405280600581526020017f2e6a736f6e000000000000000000000000000000000000000000000000000000815250600d908051906020019062000051929190620003de565b506000601160146101000a81548160ff02191690831515021790555060006012553480156200007f57600080fd5b506040516200535b3803806200535b8339818101604052810190620000a5919062000666565b85858160029080519060200190620000bf929190620003de565b508060039080519060200190620000d8929190620003de565b50620000e9620001ed60201b60201c565b60008190555050506200011162000105620001f260201b60201c565b620001fa60201b60201c565b6000869050600086905060008251141580156200013057506000815114155b62000172576040517f08c379a00000000000000000000000000000000000000000000000000000000081526004016200016990620007c7565b60405180910390fd5b33601160006101000a81548173ffffffffffffffffffffffffffffffffffffffff021916908373ffffffffffffffffffffffffffffffffffffffff1602179055508560098190555084600a8190555083600f8190555082600b81905550620001df620002c060201b60201c565b50505050505050506200097a565b600090565b600033905090565b6000600860009054906101000a900473ffffffffffffffffffffffffffffffffffffffff16905081600860006101000a81548173ffffffffffffffffffffffffffffffffffffffff021916908373ffffffffffffffffffffffffffffffffffffffff1602179055508173ffffffffffffffffffffffffffffffffffffffff168173ffffffffffffffffffffffffffffffffffffffff167f8be0079c531659141344cd1fd0a4f28419497f9722a3daafe3b4186f6b6457e060405160405180910390a35050565b620002d06200032360201b60201c565b600f5442620002e0919062000818565b6010819055507f8c7f828c45e9721cfd644b2a4f2ff1eba1c36125ea260c43c4d47ebcb59d314160105460405162000319919062000886565b60405180910390a1565b62000333620001f260201b60201c565b73ffffffffffffffffffffffffffffffffffffffff1662000359620003b460201b60201c565b73ffffffffffffffffffffffffffffffffffffffff1614620003b2576040517f08c379a0000000000000000000000000000000000000000000000000000000008152600401620003a990620008f3565b60405180910390fd5b565b6000600860009054906101000a900473ffffffffffffffffffffffffffffffffffffffff16905090565b828054620003ec9062000944565b90600052602060002090601f0160209004810192826200041057600085556200045c565b82601f106200042b57805160ff19168380011785556200045c565b828001600101855582156200045c579182015b828111156200045b5782518255916020019190600101906200043e565b5b5090506200046b91906200046f565b5090565b5b808211156200048a57600081600090555060010162000470565b5090565b6000604051905090565b600080fd5b600080fd5b600080fd5b600080fd5b6000601f19601f8301169050919050565b7f4e487b7100000000000000000000000000000000000000000000000000000000600052604160045260246000fd5b620004f782620004ac565b810181811067ffffffffffffffff82111715620005195762000518620004bd565b5b80604052505050565b60006200052e6200048e565b90506200053c8282620004ec565b919050565b600067ffffffffffffffff8211156200055f576200055e620004bd565b5b6200056a82620004ac565b9050602081019050919050565b60005b83811015620005975780820151818401526020810190506200057a565b83811115620005a7576000848401525b50505050565b6000620005c4620005be8462000541565b62000522565b905082815260208101848484011115620005e357620005e2620004a7565b5b620005f084828562000577565b509392505050565b600082601f83011262000610576200060f620004a2565b5b815162000622848260208601620005ad565b91505092915050565b6000819050919050565b62000640816200062b565b81146200064c57600080fd5b50565b600081519050620006608162000635565b92915050565b60008060008060008060c0878903121562000686576200068562000498565b5b600087015167ffffffffffffffff811115620006a757620006a66200049d565b5b620006b589828a01620005f8565b965050602087015167ffffffffffffffff811115620006d957620006d86200049d565b5b620006e789828a01620005f8565b9550506040620006fa89828a016200064f565b94505060606200070d89828a016200064f565b93505060806200072089828a016200064f565b92505060a06200073389828a016200064f565b9150509295509295509295565b600082825260208201905092915050565b7f455243373231523a2043686f6f73652061206e616d6520616e642073796d626f60008201527f6c00000000000000000000000000000000000000000000000000000000000000602082015250565b6000620007af60218362000740565b9150620007bc8262000751565b604082019050919050565b60006020820190508181036000830152620007e281620007a0565b9050919050565b7f4e487b7100000000000000000000000000000000000000000000000000000000600052601160045260246000fd5b600062000825826200062b565b915062000832836200062b565b9250827fffffffffffffffffffffffffffffffffffffffffffffffffffffffffffffffff038211156200086a5762000869620007e9565b5b828201905092915050565b62000880816200062b565b82525050565b60006020820190506200089d600083018462000875565b92915050565b7f4f776e61626c653a2063616c6c6572206973206e6f7420746865206f776e6572600082015250565b6000620008db60208362000740565b9150620008e882620008a3565b602082019050919050565b600060208201905081810360008301526200090e81620008cc565b9050919050565b7f4e487b7100000000000000000000000000000000000000000000000000000000600052602260045260246000fd5b600060028204905060018216806200095d57607f821691505b6020821081141562000974576200097362000915565b5b50919050565b6149d1806200098a6000396000f3fe6080604052600436106102c95760003560e01c80637bffb4ce11610175578063b9ad9fde116100dc578063d28d885211610095578063f2fde38b1161006f578063f2fde38b14610a7c578063f421764814610aa5578063f7a3031314610ace578063faf762bd14610b0b576102c9565b8063d28d8852146109eb578063e985e9c514610a16578063f19e75d414610a53576102c9565b8063b9ad9fde146108d9578063bc8893b4146108f0578063c23fcdef1461091b578063c285e10714610958578063c4ea084514610983578063c87b56dd146109ae576102c9565b8063a22cb4651161012e578063a22cb465146107ec578063a6a3b5b414610815578063aa613df514610840578063b09f126614610869578063b3ab66b014610894578063b88d4fde146108b0576102c9565b80637bffb4ce146106ec5780638da5cb5b14610703578063921d28a91461072e5780639451c99a1461075957806395d89b41146107845780639b19251a146107af576102c9565b80633ccfd60b1161023457806355f804b3116101ed57806370a08231116101c757806370a0823114610651578063715018a61461068e57806373fddd16146106a55780637835c635146106d0576102c9565b806355f804b3146105c05780636352211e146105e95780636817c76c14610626576102c9565b80633ccfd60b146104d657806342842e0e146104ed57806342966c681461051657806351fb012d1461053f57806353135ca01461056a5780635503a0e814610595576102c9565b806315b75bea1161028657806315b75bea146103f057806316ba10e01461041957806318160ddd14610442578063232452161461046d57806323b872dd146104965780632e9be821146104bf576102c9565b806301ffc9a7146102ce578063052d9e7e1461030b57806306fdde0314610334578063081812fc1461035f578063095ea7b31461039c5780630cb61f6c146103c5575b600080fd5b3480156102da57600080fd5b506102f560048036038101906102f091906134a6565b610b36565b60405161030291906134ee565b60405180910390f35b34801561031757600080fd5b50610332600480360381019061032d9190613535565b610bc8565b005b34801561034057600080fd5b50610349610c33565b60405161035691906135fb565b60405180910390f35b34801561036b57600080fd5b5061038660048036038101906103819190613653565b610cc5565b60405161039391906136c1565b60405180910390f35b3480156103a857600080fd5b506103c360048036038101906103be9190613708565b610d41565b005b3480156103d157600080fd5b506103da610ee8565b6040516103e791906136c1565b60405180910390f35b3480156103fc57600080fd5b5061041760048036038101906104129190613748565b610f0e565b005b34801561042557600080fd5b50610440600480360381019061043b91906138aa565b610f5a565b005b34801561044e57600080fd5b50610457610f7c565b6040516104649190613902565b60405180910390f35b34801561047957600080fd5b50610494600480360381019061048f919061397d565b610f93565b005b3480156104a257600080fd5b506104bd60048036038101906104b891906139ca565b6110dc565b005b3480156104cb57600080fd5b506104d46110ec565b005b3480156104e257600080fd5b506104eb611143565b005b3480156104f957600080fd5b50610514600480360381019061050f91906139ca565b61120f565b005b34801561052257600080fd5b5061053d60048036038101906105389190613653565b61122f565b005b34801561054b57600080fd5b5061055461123b565b60405161056191906134ee565b60405180910390f35b34801561057657600080fd5b5061057f61124e565b60405161058c91906134ee565b60405180910390f35b3480156105a157600080fd5b506105aa611261565b6040516105b791906135fb565b60405180910390f35b3480156105cc57600080fd5b506105e760048036038101906105e291906138aa565b6112ef565b005b3480156105f557600080fd5b50610610600480360381019061060b9190613653565b611349565b60405161061d91906136c1565b60405180910390f35b34801561063257600080fd5b5061063b61135b565b6040516106489190613902565b60405180910390f35b34801561065d57600080fd5b5061067860048036038101906106739190613748565b611361565b6040516106859190613902565b60405180910390f35b34801561069a57600080fd5b506106a36113f6565b005b3480156106b157600080fd5b506106ba61140a565b6040516106c79190613902565b60405180910390f35b6106ea60048036038101906106e59190613653565b611410565b005b3480156106f857600080fd5b50610701611614565b005b34801561070f57600080fd5b5061071861168e565b60405161072591906136c1565b60405180910390f35b34801561073a57600080fd5b506107436116b8565b6040516107509190613902565b60405180910390f35b34801561076557600080fd5b5061076e6116be565b60405161077b9190613902565b60405180910390f35b34801561079057600080fd5b506107996116c4565b6040516107a691906135fb565b60405180910390f35b3480156107bb57600080fd5b506107d660048036038101906107d19190613748565b611756565b6040516107e391906134ee565b60405180910390f35b3480156107f857600080fd5b50610813600480360381019061080e9190613a1d565b611776565b005b34801561082157600080fd5b5061082a6118ee565b6040516108379190613902565b60405180910390f35b34801561084c57600080fd5b5061086760048036038101906108629190613ab3565b6118f4565b005b34801561087557600080fd5b5061087e611b9e565b60405161088b91906135fb565b60405180910390f35b6108ae60048036038101906108a99190613653565b611c2c565b005b3480156108bc57600080fd5b506108d760048036038101906108d29190613ba1565b611d87565b005b3480156108e557600080fd5b506108ee611dfa565b005b3480156108fc57600080fd5b50610905611e74565b60405161091291906134ee565b60405180910390f35b34801561092757600080fd5b50610942600480360381019061093d9190613653565b611e87565b60405161094f91906134ee565b60405180910390f35b34801561096457600080fd5b5061096d611ea7565b60405161097a9190613902565b60405180910390f35b34801561098f57600080fd5b50610998611ead565b6040516109a591906134ee565b60405180910390f35b3480156109ba57600080fd5b506109d560048036038101906109d09190613653565b611eba565b6040516109e291906135fb565b60405180910390f35b3480156109f757600080fd5b50610a00611f64565b604051610a0d91906135fb565b60405180910390f35b348015610a2257600080fd5b50610a3d6004803603810190610a389190613c24565b611ff2565b604051610a4a91906134ee565b60405180910390f35b348015610a5f57600080fd5b50610a7a6004803603810190610a759190613653565b612086565b005b348015610a8857600080fd5b50610aa36004803603810190610a9e9190613748565b61214f565b005b348015610ab157600080fd5b50610acc6004803603810190610ac7919061397d565b6121d3565b005b348015610ada57600080fd5b50610af56004803603810190610af09190613653565b61236b565b604051610b0291906134ee565b60405180910390f35b348015610b1757600080fd5b50610b2061238b565b604051610b2d9190613902565b60405180910390f35b60006301ffc9a760e01b827bffffffffffffffffffffffffffffffffffffffffffffffffffffffff19161480610b9157506380ac58cd60e01b827bffffffffffffffffffffffffffffffffffffffffffffffffffffffff1916145b80610bc15750635b5e139f60e01b827bffffffffffffffffffffffffffffffffffffffffffffffffffffffff1916145b9050919050565b610bd0612395565b80601160146101000a81548160ff0219169083151502179055507f218e591c4b0d49651b4b42843cb8cc59080122def3d2271f56ef2e21896753ec601160149054906101000a900460ff16604051610c2891906134ee565b60405180910390a150565b606060028054610c4290613c93565b80601f0160208091040260200160405190810160405280929190818152602001828054610c6e90613c93565b8015610cbb5780601f10610c9057610100808354040283529160200191610cbb565b820191906000526020600020905b815481529060010190602001808311610c9e57829003601f168201915b5050505050905090565b6000610cd082612413565b610d06576040517fcf4700e400000000000000000000000000000000000000000000000000000000815260040160405180910390fd5b6006600083815260200190815260200160002060009054906101000a900473ffffffffffffffffffffffffffffffffffffffff169050919050565b6000610d4c82612472565b90508073ffffffffffffffffffffffffffffffffffffffff168373ffffffffffffffffffffffffffffffffffffffff161415610db4576040517f943f7b8c00000000000000000000000000000000000000000000000000000000815260040160405180910390fd5b8073ffffffffffffffffffffffffffffffffffffffff16610dd3612540565b73ffffffffffffffffffffffffffffffffffffffff1614610e3657610dff81610dfa612540565b611ff2565b610e35576040517fcfb3b94200000000000000000000000000000000000000000000000000000000815260040160405180910390fd5b5b826006600084815260200190815260200160002060006101000a81548173ffffffffffffffffffffffffffffffffffffffff021916908373ffffffffffffffffffffffffffffffffffffffff160217905550818373ffffffffffffffffffffffffffffffffffffffff168273ffffffffffffffffffffffffffffffffffffffff167f8c5be1e5ebec7d5bd14f71427d1e84f3dd0314c0f7b2291e5b200ac8c7c3b92560405160405180910390a4505050565b601160009054906101000a900473ffffffffffffffffffffffffffffffffffffffff1681565b610f16612395565b80601160006101000a81548173ffffffffffffffffffffffffffffffffffffffff021916908373ffffffffffffffffffffffffffffffffffffffff16021790555050565b610f62612395565b80600d9080519060200190610f78929190613397565b5050565b6000610f86612548565b6001546000540303905090565b610f9b612395565b60008282905011610fe1576040517f08c379a0000000000000000000000000000000000000000000000000000000008152600401610fd890613d11565b60405180910390fd5b6005828290501115611028576040517f08c379a000000000000000000000000000000000000000000000000000000000815260040161101f90613d7d565b60405180910390fd5b60005b828290508110156110d7576013600084848481811061104d5761104c613d9d565b5b90506020020160208101906110629190613748565b73ffffffffffffffffffffffffffffffffffffffff1673ffffffffffffffffffffffffffffffffffffffff16815260200190815260200160002060006101000a81549060ff0219169055601260008154809291906110bf90613dfb565b919050555080806110cf90613e25565b91505061102b565b505050565b6110e783838361254d565b505050565b6110f4612395565b600f54426111029190613e6e565b6010819055507f8c7f828c45e9721cfd644b2a4f2ff1eba1c36125ea260c43c4d47ebcb59d31416010546040516111399190613902565b60405180910390a1565b61114b612395565b601054421161118f576040517f08c379a000000000000000000000000000000000000000000000000000000000815260040161118690613f10565b60405180910390fd5b600061119961168e565b73ffffffffffffffffffffffffffffffffffffffff16476040516111bc90613f61565b60006040518083038185875af1925050503d80600081146111f9576040519150601f19603f3d011682016040523d82523d6000602084013e6111fe565b606091505b505090508061120c57600080fd5b50565b61122a83838360405180602001604052806000815250611d87565b505050565b61123881612915565b50565b601160149054906101000a900460ff1681565b600e60019054906101000a900460ff1681565b600d805461126e90613c93565b80601f016020809104026020016040519081016040528092919081815260200182805461129a90613c93565b80156112e75780601f106112bc576101008083540402835291602001916112e7565b820191906000526020600020905b8154815290600101906020018083116112ca57829003601f168201915b505050505081565b6112f7612395565b80600c908051906020019061130d929190613397565b507f01e56a02aca7f26a28165a040851ba78f30282b55ca81c63a804cdc1e2dcea72600c60405161133e919061400b565b60405180910390a150565b600061135482612472565b9050919050565b600a5481565b60008061136d83612923565b14156113a5576040517f8f4eb60400000000000000000000000000000000000000000000000000000000815260040160405180910390fd5b67ffffffffffffffff600560008473ffffffffffffffffffffffffffffffffffffffff1673ffffffffffffffffffffffffffffffffffffffff16815260200190815260200160002054169050919050565b6113fe612395565b611408600061292d565b565b60105481565b600e60019054906101000a900460ff1661145f576040517f08c379a000000000000000000000000000000000000000000000000000000000815260040161145690614079565b60405180910390fd5b600a548161146d9190614099565b3410156114af576040517f08c379a00000000000000000000000000000000000000000000000000000000081526004016114a69061413f565b60405180910390fd5b60011515601160149054906101000a900460ff161515141561155857601360003373ffffffffffffffffffffffffffffffffffffffff1673ffffffffffffffffffffffffffffffffffffffff16815260200190815260200160002060009054906101000a900460ff16611557576040517f08c379a000000000000000000000000000000000000000000000000000000000815260040161154e906141ab565b60405180910390fd5b5b600b5481611565336129f3565b61156f9190613e6e565b11156115b0576040517f08c379a00000000000000000000000000000000000000000000000000000000081526004016115a790614217565b60405180910390fd5b600954816115bc612a4a565b6115c69190613e6e565b1115611607576040517f08c379a00000000000000000000000000000000000000000000000000000000081526004016115fe90614283565b60405180910390fd5b6116113382612a5d565b50565b61161c612395565b600e60019054906101000a900460ff1615600e60016101000a81548160ff0219169083151502179055507f1894dedbea928d98b9226ddf41dc827e1ce8e5b17fdef6cf7170b15d305dcfcb600e60019054906101000a900460ff1660405161168491906134ee565b60405180910390a1565b6000600860009054906101000a900473ffffffffffffffffffffffffffffffffffffffff16905090565b600b5481565b60005481565b6060600380546116d390613c93565b80601f01602080910402602001604051908101604052809291908181526020018280546116ff90613c93565b801561174c5780601f106117215761010080835404028352916020019161174c565b820191906000526020600020905b81548152906001019060200180831161172f57829003601f168201915b5050505050905090565b60136020528060005260406000206000915054906101000a900460ff1681565b61177e612540565b73ffffffffffffffffffffffffffffffffffffffff168273ffffffffffffffffffffffffffffffffffffffff1614156117e3576040517fb06307db00000000000000000000000000000000000000000000000000000000815260040160405180910390fd5b80600760006117f0612540565b73ffffffffffffffffffffffffffffffffffffffff1673ffffffffffffffffffffffffffffffffffffffff16815260200190815260200160002060008473ffffffffffffffffffffffffffffffffffffffff1673ffffffffffffffffffffffffffffffffffffffff16815260200190815260200160002060006101000a81548160ff0219169083151502179055508173ffffffffffffffffffffffffffffffffffffffff1661189d612540565b73ffffffffffffffffffffffffffffffffffffffff167f17307eab39ab6107e8899845ad3d59bd9653f200f220920489ca2b5937696c31836040516118e291906134ee565b60405180910390a35050565b600f5481565b6118fc611ead565b61193b576040517f08c379a0000000000000000000000000000000000000000000000000000000008152600401611932906142ef565b60405180910390fd5b60005b82829050811015611b0c57600083838381811061195e5761195d613d9d565b5b90506020020135905061197081611349565b73ffffffffffffffffffffffffffffffffffffffff163373ffffffffffffffffffffffffffffffffffffffff16146119dd576040517f08c379a00000000000000000000000000000000000000000000000000000000081526004016119d49061435b565b60405180910390fd5b6014600082815260200190815260200160002060009054906101000a900460ff1615611a3e576040517f08c379a0000000000000000000000000000000000000000000000000000000008152600401611a35906143c7565b60405180910390fd5b6015600082815260200190815260200160002060009054906101000a900460ff1615611a9f576040517f08c379a0000000000000000000000000000000000000000000000000000000008152600401611a9690614459565b60405180910390fd5b60016014600083815260200190815260200160002060006101000a81548160ff021916908315150217905550611af833601160009054906101000a900473ffffffffffffffffffffffffffffffffffffffff16836110dc565b508080611b0490613e25565b91505061193e565b506000600a5483839050611b209190614099565b905060003373ffffffffffffffffffffffffffffffffffffffff1682604051611b4890613f61565b60006040518083038185875af1925050503d8060008114611b85576040519150601f19603f3d011682016040523d82523d6000602084013e611b8a565b606091505b5050905080611b9857600080fd5b50505050565b60038054611bab90613c93565b80601f0160208091040260200160405190810160405280929190818152602001828054611bd790613c93565b8015611c245780601f10611bf957610100808354040283529160200191611c24565b820191906000526020600020905b815481529060010190602001808311611c0757829003601f168201915b505050505081565b600e60009054906101000a900460ff16611c7b576040517f08c379a0000000000000000000000000000000000000000000000000000000008152600401611c72906144c5565b60405180910390fd5b600a5481611c899190614099565b341015611ccb576040517f08c379a0000000000000000000000000000000000000000000000000000000008152600401611cc29061413f565b60405180910390fd5b600b5481611cd8336129f3565b611ce29190613e6e565b1115611d23576040517f08c379a0000000000000000000000000000000000000000000000000000000008152600401611d1a90614217565b60405180910390fd5b60095481611d2f612a4a565b611d399190613e6e565b1115611d7a576040517f08c379a0000000000000000000000000000000000000000000000000000000008152600401611d7190614283565b60405180910390fd5b611d843382612a5d565b50565b611d9284848461254d565b60008373ffffffffffffffffffffffffffffffffffffffff163b14611df457611dbd84848484612a7b565b611df3576040517fd1a57ed600000000000000000000000000000000000000000000000000000000815260040160405180910390fd5b5b50505050565b611e02612395565b600e60009054906101000a900460ff1615600e60006101000a81548160ff0219169083151502179055507f28b42d64cef88205a656230fafa4bc31b0bd28f99b5d006c276a037fb00ec969600e60009054906101000a900460ff16604051611e6a91906134ee565b60405180910390a1565b600e60009054906101000a900460ff1681565b60146020528060005260406000206000915054906101000a900460ff1681565b60095481565b6000601054421115905090565b6060611ec582612413565b611f04576040517f08c379a0000000000000000000000000000000000000000000000000000000008152600401611efb90614557565b60405180910390fd5b6000611f0e612bdb565b90506000815111611f2e5760405180602001604052806000815250611f5c565b80611f3884612c6d565b600d604051602001611f4c93929190614632565b6040516020818303038152906040525b915050919050565b60028054611f7190613c93565b80601f0160208091040260200160405190810160405280929190818152602001828054611f9d90613c93565b8015611fea5780601f10611fbf57610100808354040283529160200191611fea565b820191906000526020600020905b815481529060010190602001808311611fcd57829003601f168201915b505050505081565b6000600760008473ffffffffffffffffffffffffffffffffffffffff1673ffffffffffffffffffffffffffffffffffffffff16815260200190815260200160002060008373ffffffffffffffffffffffffffffffffffffffff1673ffffffffffffffffffffffffffffffffffffffff16815260200190815260200160002060009054906101000a900460ff16905092915050565b61208e612395565b6009548161209a612a4a565b6120a49190613e6e565b11156120e5576040517f08c379a00000000000000000000000000000000000000000000000000000000081526004016120dc90614283565b60405180910390fd5b6120ef3382612a5d565b6000816000546120ff9190614663565b90505b60005481101561214b5760016015600083815260200190815260200160002060006101000a81548160ff021916908315150217905550808061214390613e25565b915050612102565b5050565b612157612395565b600073ffffffffffffffffffffffffffffffffffffffff168173ffffffffffffffffffffffffffffffffffffffff1614156121c7576040517f08c379a00000000000000000000000000000000000000000000000000000000081526004016121be90614709565b60405180910390fd5b6121d08161292d565b50565b6121db612395565b60008282905011612221576040517f08c379a000000000000000000000000000000000000000000000000000000000815260040161221890613d11565b60405180910390fd5b6107d08282905010612268576040517f08c379a000000000000000000000000000000000000000000000000000000000815260040161225f90613d7d565b60405180910390fd5b60005b82829050811015612366576107d0601254106122bc576040517f08c379a00000000000000000000000000000000000000000000000000000000081526004016122b39061479b565b60405180910390fd5b6001601360008585858181106122d5576122d4613d9d565b5b90506020020160208101906122ea9190613748565b73ffffffffffffffffffffffffffffffffffffffff1673ffffffffffffffffffffffffffffffffffffffff16815260200190815260200160002060006101000a81548160ff0219169083151502179055506012600081548092919061234e90613e25565b9190505550808061235e90613e25565b91505061226b565b505050565b60156020528060005260406000206000915054906101000a900460ff1681565b6000601054905090565b61239d612dce565b73ffffffffffffffffffffffffffffffffffffffff166123bb61168e565b73ffffffffffffffffffffffffffffffffffffffff1614612411576040517f08c379a000000000000000000000000000000000000000000000000000000000815260040161240890614807565b60405180910390fd5b565b60008161241e612548565b1115801561242d575060005482105b801561246b575060007c0100000000000000000000000000000000000000000000000000000000600460008581526020019081526020016000205416145b9050919050565b60008082905080612481612548565b11612509576000548110156125085760006004600083815260200190815260200160002054905060007c010000000000000000000000000000000000000000000000000000000082161415612506575b60008114156124fc5760046000836001900393508381526020019081526020016000205490506124d1565b809250505061253b565b505b5b6040517fdf2d9b4200000000000000000000000000000000000000000000000000000000815260040160405180910390fd5b919050565b600033905090565b600090565b600061255882612472565b90508373ffffffffffffffffffffffffffffffffffffffff168173ffffffffffffffffffffffffffffffffffffffff16146125bf576040517fa114810000000000000000000000000000000000000000000000000000000000815260040160405180910390fd5b60006006600084815260200190815260200160002060009054906101000a900473ffffffffffffffffffffffffffffffffffffffff16905060008573ffffffffffffffffffffffffffffffffffffffff16612618612540565b73ffffffffffffffffffffffffffffffffffffffff161480612647575061264686612641612540565b611ff2565b5b806126845750612655612540565b73ffffffffffffffffffffffffffffffffffffffff168273ffffffffffffffffffffffffffffffffffffffff16145b9050806126bd576040517f59c896be00000000000000000000000000000000000000000000000000000000815260040160405180910390fd5b60006126c886612923565b1415612700576040517fea553b3400000000000000000000000000000000000000000000000000000000815260040160405180910390fd5b61270d8686866001612dd6565b600061271883612923565b14612754576006600085815260200190815260200160002060006101000a81549073ffffffffffffffffffffffffffffffffffffffff02191690555b600560008773ffffffffffffffffffffffffffffffffffffffff1673ffffffffffffffffffffffffffffffffffffffff168152602001908152602001600020600081546001900391905081905550600560008673ffffffffffffffffffffffffffffffffffffffff1673ffffffffffffffffffffffffffffffffffffffff16815260200190815260200160002060008154600101919050819055507c020000000000000000000000000000000000000000000000000000000060a042901b61281b87612923565b1717600460008681526020019081526020016000208190555060007c0200000000000000000000000000000000000000000000000000000000841614156128a55760006001850190506000600460008381526020019081526020016000205414156128a35760005481146128a2578360046000838152602001908152602001600020819055505b5b505b838573ffffffffffffffffffffffffffffffffffffffff168773ffffffffffffffffffffffffffffffffffffffff167fddf252ad1be2c89b69c2b068fc378daa952ba7f163c4a11628f55a4df523b3ef60405160405180910390a461290d8686866001612ddc565b505050505050565b612920816000612de2565b50565b6000819050919050565b6000600860009054906101000a900473ffffffffffffffffffffffffffffffffffffffff16905081600860006101000a81548173ffffffffffffffffffffffffffffffffffffffff021916908373ffffffffffffffffffffffffffffffffffffffff1602179055508173ffffffffffffffffffffffffffffffffffffffff168173ffffffffffffffffffffffffffffffffffffffff167f8be0079c531659141344cd1fd0a4f28419497f9722a3daafe3b4186f6b6457e060405160405180910390a35050565b600067ffffffffffffffff6040600560008573ffffffffffffffffffffffffffffffffffffffff1673ffffffffffffffffffffffffffffffffffffffff16815260200190815260200160002054901c169050919050565b6000612a54612548565b60005403905090565b612a778282604051806020016040528060008152506130fc565b5050565b60008373ffffffffffffffffffffffffffffffffffffffff1663150b7a02612aa1612540565b8786866040518563ffffffff1660e01b8152600401612ac3949392919061487c565b602060405180830381600087803b158015612add57600080fd5b505af1925050508015612b0e57506040513d601f19601f82011682018060405250810190612b0b91906148dd565b60015b612b88573d8060008114612b3e576040519150601f19603f3d011682016040523d82523d6000602084013e612b43565b606091505b50600081511415612b80576040517fd1a57ed600000000000000000000000000000000000000000000000000000000815260040160405180910390fd5b805181602001fd5b63150b7a0260e01b7bffffffffffffffffffffffffffffffffffffffffffffffffffffffff1916817bffffffffffffffffffffffffffffffffffffffffffffffffffffffff191614915050949350505050565b6060600c8054612bea90613c93565b80601f0160208091040260200160405190810160405280929190818152602001828054612c1690613c93565b8015612c635780601f10612c3857610100808354040283529160200191612c63565b820191906000526020600020905b815481529060010190602001808311612c4657829003601f168201915b5050505050905090565b60606000821415612cb5576040518060400160405280600181526020017f30000000000000000000000000000000000000000000000000000000000000008152509050612dc9565b600082905060005b60008214612ce7578080612cd090613e25565b915050600a82612ce09190614939565b9150612cbd565b60008167ffffffffffffffff811115612d0357612d0261377f565b5b6040519080825280601f01601f191660200182016040528015612d355781602001600182028036833780820191505090505b5090505b60008514612dc257600182612d4e9190614663565b9150600a85612d5d919061496a565b6030612d699190613e6e565b60f81b818381518110612d7f57612d7e613d9d565b5b60200101907effffffffffffffffffffffffffffffffffffffffffffffffffffffffffffff1916908160001a905350600a85612dbb9190614939565b9450612d39565b8093505050505b919050565b600033905090565b50505050565b50505050565b6000612ded83612472565b9050600081905060006006600086815260200190815260200160002060009054906101000a900473ffffffffffffffffffffffffffffffffffffffff1690508315612efa5760008273ffffffffffffffffffffffffffffffffffffffff16612e53612540565b73ffffffffffffffffffffffffffffffffffffffff161480612e825750612e8183612e7c612540565b611ff2565b5b80612ebf5750612e90612540565b73ffffffffffffffffffffffffffffffffffffffff168273ffffffffffffffffffffffffffffffffffffffff16145b905080612ef8576040517f59c896be00000000000000000000000000000000000000000000000000000000815260040160405180910390fd5b505b612f08826000876001612dd6565b6000612f1382612923565b14612f4f576006600086815260200190815260200160002060006101000a81549073ffffffffffffffffffffffffffffffffffffffff02191690555b600160806001901b03600560008473ffffffffffffffffffffffffffffffffffffffff1673ffffffffffffffffffffffffffffffffffffffff168152602001908152602001600020600082825401925050819055507c02000000000000000000000000000000000000000000000000000000007c010000000000000000000000000000000000000000000000000000000060a042901b612fee85612923565b171717600460008781526020019081526020016000208190555060007c020000000000000000000000000000000000000000000000000000000084161415613079576000600186019050600060046000838152602001908152602001600020541415613077576000548114613076578360046000838152602001908152602001600020819055505b5b505b84600073ffffffffffffffffffffffffffffffffffffffff168373ffffffffffffffffffffffffffffffffffffffff167fddf252ad1be2c89b69c2b068fc378daa952ba7f163c4a11628f55a4df523b3ef60405160405180910390a46130e3826000876001612ddc565b6001600081548092919060010191905055505050505050565b600080549050600061310d85612923565b1415613145576040517f2e07630000000000000000000000000000000000000000000000000000000000815260040160405180910390fd5b6000831415613180576040517fb562e8dd00000000000000000000000000000000000000000000000000000000815260040160405180910390fd5b61318d6000858386612dd6565b600160406001901b178302600560008673ffffffffffffffffffffffffffffffffffffffff1673ffffffffffffffffffffffffffffffffffffffff1681526020019081526020016000206000828254019250508190555060e16131f26001851461338d565b901b60a042901b61320286612923565b1717600460008381526020019081526020016000208190555060008190506000848201905060008673ffffffffffffffffffffffffffffffffffffffff163b14613306575b818673ffffffffffffffffffffffffffffffffffffffff16600073ffffffffffffffffffffffffffffffffffffffff167fddf252ad1be2c89b69c2b068fc378daa952ba7f163c4a11628f55a4df523b3ef60405160405180910390a46132b66000878480600101955087612a7b565b6132ec576040517fd1a57ed600000000000000000000000000000000000000000000000000000000815260040160405180910390fd5b80821061324757826000541461330157600080fd5b613371565b5b818060010192508673ffffffffffffffffffffffffffffffffffffffff16600073ffffffffffffffffffffffffffffffffffffffff167fddf252ad1be2c89b69c2b068fc378daa952ba7f163c4a11628f55a4df523b3ef60405160405180910390a4808210613307575b8160008190555050506133876000858386612ddc565b50505050565b6000819050919050565b8280546133a390613c93565b90600052602060002090601f0160209004810192826133c5576000855561340c565b82601f106133de57805160ff191683800117855561340c565b8280016001018555821561340c579182015b8281111561340b5782518255916020019190600101906133f0565b5b509050613419919061341d565b5090565b5b8082111561343657600081600090555060010161341e565b5090565b6000604051905090565b600080fd5b600080fd5b60007fffffffff0000000000000000000000000000000000000000000000000000000082169050919050565b6134838161344e565b811461348e57600080fd5b50565b6000813590506134a08161347a565b92915050565b6000602082840312156134bc576134bb613444565b5b60006134ca84828501613491565b91505092915050565b60008115159050919050565b6134e8816134d3565b82525050565b600060208201905061350360008301846134df565b92915050565b613512816134d3565b811461351d57600080fd5b50565b60008135905061352f81613509565b92915050565b60006020828403121561354b5761354a613444565b5b600061355984828501613520565b91505092915050565b600081519050919050565b600082825260208201905092915050565b60005b8381101561359c578082015181840152602081019050613581565b838111156135ab576000848401525b50505050565b6000601f19601f8301169050919050565b60006135cd82613562565b6135d7818561356d565b93506135e781856020860161357e565b6135f0816135b1565b840191505092915050565b6000602082019050818103600083015261361581846135c2565b905092915050565b6000819050919050565b6136308161361d565b811461363b57600080fd5b50565b60008135905061364d81613627565b92915050565b60006020828403121561366957613668613444565b5b60006136778482850161363e565b91505092915050565b600073ffffffffffffffffffffffffffffffffffffffff82169050919050565b60006136ab82613680565b9050919050565b6136bb816136a0565b82525050565b60006020820190506136d660008301846136b2565b92915050565b6136e5816136a0565b81146136f057600080fd5b50565b600081359050613702816136dc565b92915050565b6000806040838503121561371f5761371e613444565b5b600061372d858286016136f3565b925050602061373e8582860161363e565b9150509250929050565b60006020828403121561375e5761375d613444565b5b600061376c848285016136f3565b91505092915050565b600080fd5b600080fd5b7f4e487b7100000000000000000000000000000000000000000000000000000000600052604160045260246000fd5b6137b7826135b1565b810181811067ffffffffffffffff821117156137d6576137d561377f565b5b80604052505050565b60006137e961343a565b90506137f582826137ae565b919050565b600067ffffffffffffffff8211156138155761381461377f565b5b61381e826135b1565b9050602081019050919050565b82818337600083830152505050565b600061384d613848846137fa565b6137df565b9050828152602081018484840111156138695761386861377a565b5b61387484828561382b565b509392505050565b600082601f83011261389157613890613775565b5b81356138a184826020860161383a565b91505092915050565b6000602082840312156138c0576138bf613444565b5b600082013567ffffffffffffffff8111156138de576138dd613449565b5b6138ea8482850161387c565b91505092915050565b6138fc8161361d565b82525050565b600060208201905061391760008301846138f3565b92915050565b600080fd5b600080fd5b60008083601f84011261393d5761393c613775565b5b8235905067ffffffffffffffff81111561395a5761395961391d565b5b60208301915083602082028301111561397657613975613922565b5b9250929050565b6000806020838503121561399457613993613444565b5b600083013567ffffffffffffffff8111156139b2576139b1613449565b5b6139be85828601613927565b92509250509250929050565b6000806000606084860312156139e3576139e2613444565b5b60006139f1868287016136f3565b9350506020613a02868287016136f3565b9250506040613a138682870161363e565b9150509250925092565b60008060408385031215613a3457613a33613444565b5b6000613a42858286016136f3565b9250506020613a5385828601613520565b9150509250929050565b60008083601f840112613a7357613a72613775565b5b8235905067ffffffffffffffff811115613a9057613a8f61391d565b5b602083019150836020820283011115613aac57613aab613922565b5b9250929050565b60008060208385031215613aca57613ac9613444565b5b600083013567ffffffffffffffff811115613ae857613ae7613449565b5b613af485828601613a5d565b92509250509250929050565b600067ffffffffffffffff821115613b1b57613b1a61377f565b5b613b24826135b1565b9050602081019050919050565b6000613b44613b3f84613b00565b6137df565b905082815260208101848484011115613b6057613b5f61377a565b5b613b6b84828561382b565b509392505050565b600082601f830112613b8857613b87613775565b5b8135613b98848260208601613b31565b91505092915050565b60008060008060808587031215613bbb57613bba613444565b5b6000613bc9878288016136f3565b9450506020613bda878288016136f3565b9350506040613beb8782880161363e565b925050606085013567ffffffffffffffff811115613c0c57613c0b613449565b5b613c1887828801613b73565b91505092959194509250565b60008060408385031215613c3b57613c3a613444565b5b6000613c49858286016136f3565b9250506020613c5a858286016136f3565b9150509250929050565b7f4e487b7100000000000000000000000000000000000000000000000000000000600052602260045260246000fd5b60006002820490506001821680613cab57607f821691505b60208210811415613cbf57613cbe613c64565b5b50919050565b7f4e6f20757365722064657461696c732070726f76696465640000000000000000600082015250565b6000613cfb60188361356d565b9150613d0682613cc5565b602082019050919050565b60006020820190508181036000830152613d2a81613cee565b9050919050565b7f546f6f206d616e792075736572737320746f2077686974656c69737400000000600082015250565b6000613d67601c8361356d565b9150613d7282613d31565b602082019050919050565b60006020820190508181036000830152613d9681613d5a565b9050919050565b7f4e487b7100000000000000000000000000000000000000000000000000000000600052603260045260246000fd5b7f4e487b7100000000000000000000000000000000000000000000000000000000600052601160045260246000fd5b6000613e068261361d565b91506000821415613e1a57613e19613dcc565b5b600182039050919050565b6000613e308261361d565b91507fffffffffffffffffffffffffffffffffffffffffffffffffffffffffffffffff821415613e6357613e62613dcc565b5b600182019050919050565b6000613e798261361d565b9150613e848361361d565b9250827fffffffffffffffffffffffffffffffffffffffffffffffffffffffffffffffff03821115613eb957613eb8613dcc565b5b828201905092915050565b7f526566756e6420706572696f64206e6f74206f76657200000000000000000000600082015250565b6000613efa60168361356d565b9150613f0582613ec4565b602082019050919050565b60006020820190508181036000830152613f2981613eed565b9050919050565b600081905092915050565b50565b6000613f4b600083613f30565b9150613f5682613f3b565b600082019050919050565b6000613f6c82613f3e565b9150819050919050565b60008190508160005260206000209050919050565b60008154613f9881613c93565b613fa2818661356d565b94506001821660008114613fbd5760018114613fcf57614002565b60ff1983168652602086019350614002565b613fd885613f76565b60005b83811015613ffa57815481890152600182019150602081019050613fdb565b808801955050505b50505092915050565b600060208201905081810360008301526140258184613f8b565b905092915050565b7f50726573616c65206973206e6f74206163746976650000000000000000000000600082015250565b600061406360158361356d565b915061406e8261402d565b602082019050919050565b6000602082019050818103600083015261409281614056565b9050919050565b60006140a48261361d565b91506140af8361361d565b9250817fffffffffffffffffffffffffffffffffffffffffffffffffffffffffffffffff04831182151516156140e8576140e7613dcc565b5b828202905092915050565b7f4e6f7420656e6f756768206574682073656e7400000000000000000000000000600082015250565b600061412960138361356d565b9150614134826140f3565b602082019050919050565b600060208201905081810360008301526141588161411c565b9050919050565b7f41646472657373206e6f742077686974656c6973746564000000000000000000600082015250565b600061419560178361356d565b91506141a08261415f565b602082019050919050565b600060208201905081810360008301526141c481614188565b9050919050565b7f4f766572206d696e74206c696d69740000000000000000000000000000000000600082015250565b6000614201600f8361356d565b915061420c826141cb565b602082019050919050565b60006020820190508181036000830152614230816141f4565b9050919050565b7f4d6178206d696e7420737570706c792072656163686564000000000000000000600082015250565b600061426d60178361356d565b915061427882614237565b602082019050919050565b6000602082019050818103600083015261429c81614260565b9050919050565b7f526566756e642065787069726564000000000000000000000000000000000000600082015250565b60006142d9600e8361356d565b91506142e4826142a3565b602082019050919050565b60006020820190508181036000830152614308816142cc565b9050919050565b7f4e6f7420746f6b656e206f776e65720000000000000000000000000000000000600082015250565b6000614345600f8361356d565b91506143508261430f565b602082019050919050565b6000602082019050818103600083015261437481614338565b9050919050565b7f416c726561647920726566756e64656400000000000000000000000000000000600082015250565b60006143b160108361356d565b91506143bc8261437b565b602082019050919050565b600060208201905081810360008301526143e0816143a4565b9050919050565b7f467265656c79206d696e746564204e4654732063616e6e6f742062652072656660008201527f756e646564000000000000000000000000000000000000000000000000000000602082015250565b600061444360258361356d565b915061444e826143e7565b604082019050919050565b6000602082019050818103600083015261447281614436565b9050919050565b7f5075626c69632073616c65206973206e6f742061637469766500000000000000600082015250565b60006144af60198361356d565b91506144ba82614479565b602082019050919050565b600060208201905081810360008301526144de816144a2565b9050919050565b7f4552433732314d657461646174613a2055524920717565727920666f72206e6f60008201527f6e6578697374656e7420746f6b656e0000000000000000000000000000000000602082015250565b6000614541602f8361356d565b915061454c826144e5565b604082019050919050565b6000602082019050818103600083015261457081614534565b9050919050565b600081905092915050565b600061458d82613562565b6145978185614577565b93506145a781856020860161357e565b80840191505092915050565b600081546145c081613c93565b6145ca8186614577565b945060018216600081146145e557600181146145f657614629565b60ff19831686528186019350614629565b6145ff85613f76565b60005b8381101561462157815481890152600182019150602081019050614602565b838801955050505b50505092915050565b600061463e8286614582565b915061464a8285614582565b915061465682846145b3565b9150819050949350505050565b600061466e8261361d565b91506146798361361d565b92508282101561468c5761468b613dcc565b5b828203905092915050565b7f4f776e61626c653a206e6577206f776e657220697320746865207a65726f206160008201527f6464726573730000000000000000000000000000000000000000000000000000602082015250565b60006146f360268361356d565b91506146fe82614697565b604082019050919050565b60006020820190508181036000830152614722816146e6565b9050919050565b7f4d6178696d756d20557365727320616c72656164792077686974656c6973746560008201527f6400000000000000000000000000000000000000000000000000000000000000602082015250565b600061478560218361356d565b915061479082614729565b604082019050919050565b600060208201905081810360008301526147b481614778565b9050919050565b7f4f776e61626c653a2063616c6c6572206973206e6f7420746865206f776e6572600082015250565b60006147f160208361356d565b91506147fc826147bb565b602082019050919050565b60006020820190508181036000830152614820816147e4565b9050919050565b600081519050919050565b600082825260208201905092915050565b600061484e82614827565b6148588185614832565b935061486881856020860161357e565b614871816135b1565b840191505092915050565b600060808201905061489160008301876136b2565b61489e60208301866136b2565b6148ab60408301856138f3565b81810360608301526148bd8184614843565b905095945050505050565b6000815190506148d78161347a565b92915050565b6000602082840312156148f3576148f2613444565b5b6000614901848285016148c8565b91505092915050565b7f4e487b7100000000000000000000000000000000000000000000000000000000600052601260045260246000fd5b60006149448261361d565b915061494f8361361d565b92508261495f5761495e61490a565b5b828204905092915050565b60006149758261361d565b91506149808361361d565b9250826149905761498f61490a565b5b82820690509291505056fea2646970667358221220e49c2b37288d0121844ed27cb9e2628c77b1abae745115005950121991e848ef64736f6c63430008090033",
  "linkReferences": {},
  "deployedLinkReferences": {}
}