{
  "_format": "hh-sol-artifact-1",
  "contractName": "ERC721Factory",
  "sourceName": "contracts/factoryContracts/ERC721Factory.sol",
  "abi": [
    {
      "inputs": [
        {
          "internalType": "string",
          "name": "_name",
          "type": "string"
        },
        {
          "internalType": "string",
          "name": "_symbol",
          "type": "string"
        },
        {
          "internalType": "bool",
          "name": "defaultRoyalty",
          "type": "bool"
        },
        {
          "internalType": "address[]",
          "name": "royaltyReceiver",
          "type": "address[]"
        },
        {
          "internalType": "uint96[]",
          "name": "royaltyFeesInBips",
          "type": "uint96[]"
        }
      ],
      "stateMutability": "nonpayable",
      "type": "constructor"
    },
    {
      "anonymous": false,
      "inputs": [
        {
          "indexed": true,
          "internalType": "address",
          "name": "owner",
          "type": "address"
        },
        {
          "indexed": true,
          "internalType": "address",
          "name": "approved",
          "type": "address"
        },
        {
          "indexed": true,
          "internalType": "uint256",
          "name": "tokenId",
          "type": "uint256"
        }
      ],
      "name": "Approval",
      "type": "event"
    },
    {
      "anonymous": false,
      "inputs": [
        {
          "indexed": true,
          "internalType": "address",
          "name": "owner",
          "type": "address"
        },
        {
          "indexed": true,
          "internalType": "address",
          "name": "operator",
          "type": "address"
        },
        {
          "indexed": false,
          "internalType": "bool",
          "name": "approved",
          "type": "bool"
        }
      ],
      "name": "ApprovalForAll",
      "type": "event"
    },
    {
      "anonymous": false,
      "inputs": [
        {
          "indexed": false,
          "internalType": "string",
          "name": "uri",
          "type": "string"
        }
      ],
      "name": "BaseURI",
      "type": "event"
    },
    {
      "anonymous": false,
      "inputs": [
        {
          "indexed": true,
          "internalType": "address",
          "name": "previousOwner",
          "type": "address"
        },
        {
          "indexed": true,
          "internalType": "address",
          "name": "newOwner",
          "type": "address"
        }
      ],
      "name": "OwnershipTransferred",
      "type": "event"
    },
    {
      "anonymous": false,
      "inputs": [
        {
          "indexed": true,
          "internalType": "address",
          "name": "from",
          "type": "address"
        },
        {
          "indexed": true,
          "internalType": "address",
          "name": "to",
          "type": "address"
        },
        {
          "indexed": true,
          "internalType": "uint256",
          "name": "tokenId",
          "type": "uint256"
        }
      ],
      "name": "Transfer",
      "type": "event"
    },
    {
      "anonymous": false,
      "inputs": [
        {
          "indexed": false,
          "internalType": "bool",
          "name": "whitelistEnabled",
          "type": "bool"
        }
      ],
      "name": "WhiteListEnabled",
      "type": "event"
    },
    {
      "inputs": [
        {
          "internalType": "uint256",
          "name": "",
          "type": "uint256"
        }
      ],
      "name": "_creators",
      "outputs": [
        {
          "internalType": "address",
          "name": "",
          "type": "address"
        }
      ],
      "stateMutability": "view",
      "type": "function"
    },
    {
      "inputs": [
        {
          "internalType": "address",
          "name": "to",
          "type": "address"
        },
        {
          "internalType": "uint256",
          "name": "tokenId",
          "type": "uint256"
        }
      ],
      "name": "approve",
      "outputs": [],
      "stateMutability": "nonpayable",
      "type": "function"
    },
    {
      "inputs": [
        {
          "internalType": "address",
          "name": "owner",
          "type": "address"
        }
      ],
      "name": "balanceOf",
      "outputs": [
        {
          "internalType": "uint256",
          "name": "",
          "type": "uint256"
        }
      ],
      "stateMutability": "view",
      "type": "function"
    },
    {
      "inputs": [],
      "name": "baseURI",
      "outputs": [
        {
          "internalType": "string",
          "name": "",
          "type": "string"
        }
      ],
      "stateMutability": "view",
      "type": "function"
    },
    {
      "inputs": [
        {
          "internalType": "uint256",
          "name": "tokenId",
          "type": "uint256"
        }
      ],
      "name": "getApproved",
      "outputs": [
        {
          "internalType": "address",
          "name": "",
          "type": "address"
        }
      ],
      "stateMutability": "view",
      "type": "function"
    },
    {
      "inputs": [
        {
          "internalType": "address",
          "name": "owner",
          "type": "address"
        },
        {
          "internalType": "address",
          "name": "operator",
          "type": "address"
        }
      ],
      "name": "isApprovedForAll",
      "outputs": [
        {
          "internalType": "bool",
          "name": "",
          "type": "bool"
        }
      ],
      "stateMutability": "view",
      "type": "function"
    },
    {
      "inputs": [],
      "name": "name",
      "outputs": [
        {
          "internalType": "string",
          "name": "",
          "type": "string"
        }
      ],
      "stateMutability": "view",
      "type": "function"
    },
    {
      "inputs": [],
      "name": "owner",
      "outputs": [
        {
          "internalType": "address",
          "name": "",
          "type": "address"
        }
      ],
      "stateMutability": "view",
      "type": "function"
    },
    {
      "inputs": [
        {
          "internalType": "uint256",
          "name": "tokenId",
          "type": "uint256"
        }
      ],
      "name": "ownerOf",
      "outputs": [
        {
          "internalType": "address",
          "name": "",
          "type": "address"
        }
      ],
      "stateMutability": "view",
      "type": "function"
    },
    {
      "inputs": [
        {
          "internalType": "address[]",
          "name": "currentAddresses",
          "type": "address[]"
        }
      ],
      "name": "removeWhitelist",
      "outputs": [],
      "stateMutability": "nonpayable",
      "type": "function"
    },
    {
      "inputs": [],
      "name": "renounceOwnership",
      "outputs": [],
      "stateMutability": "nonpayable",
      "type": "function"
    },
    {
      "inputs": [
        {
          "internalType": "uint256",
          "name": "_tokenId",
          "type": "uint256"
        },
        {
          "internalType": "uint256",
          "name": "_salePrice",
          "type": "uint256"
        }
      ],
      "name": "royaltyInfo",
      "outputs": [
        {
          "internalType": "address[]",
          "name": "",
          "type": "address[]"
        },
        {
          "internalType": "uint256[]",
          "name": "",
          "type": "uint256[]"
        }
      ],
      "stateMutability": "view",
      "type": "function"
    },
    {
      "inputs": [
        {
          "internalType": "address",
          "name": "creator",
          "type": "address"
        },
        {
          "internalType": "bool",
          "name": "tokenRoyalty",
          "type": "bool"
        },
        {
          "internalType": "address[]",
          "name": "royaltyReceiver",
          "type": "address[]"
        },
        {
          "internalType": "uint96[]",
          "name": "tokenRoyaltyInBips",
          "type": "uint96[]"
        }
      ],
      "name": "safeMint",
      "outputs": [],
      "stateMutability": "nonpayable",
      "type": "function"
    },
    {
      "inputs": [
        {
          "internalType": "address",
          "name": "from",
          "type": "address"
        },
        {
          "internalType": "address",
          "name": "to",
          "type": "address"
        },
        {
          "internalType": "uint256",
          "name": "tokenId",
          "type": "uint256"
        }
      ],
      "name": "safeTransferFrom",
      "outputs": [],
      "stateMutability": "nonpayable",
      "type": "function"
    },
    {
      "inputs": [
        {
          "internalType": "address",
          "name": "from",
          "type": "address"
        },
        {
          "internalType": "address",
          "name": "to",
          "type": "address"
        },
        {
          "internalType": "uint256",
          "name": "tokenId",
          "type": "uint256"
        },
        {
          "internalType": "bytes",
          "name": "data",
          "type": "bytes"
        }
      ],
      "name": "safeTransferFrom",
      "outputs": [],
      "stateMutability": "nonpayable",
      "type": "function"
    },
    {
      "inputs": [
        {
          "internalType": "address",
          "name": "operator",
          "type": "address"
        },
        {
          "internalType": "bool",
          "name": "approved",
          "type": "bool"
        }
      ],
      "name": "setApprovalForAll",
      "outputs": [],
      "stateMutability": "nonpayable",
      "type": "function"
    },
    {
      "inputs": [
        {
          "internalType": "string",
          "name": "baseURI_",
          "type": "string"
        }
      ],
      "name": "setBaseURI",
      "outputs": [],
      "stateMutability": "nonpayable",
      "type": "function"
    },
    {
      "inputs": [
        {
          "internalType": "string",
          "name": "_uriSuffix",
          "type": "string"
        }
      ],
      "name": "setUriSuffix",
      "outputs": [],
      "stateMutability": "nonpayable",
      "type": "function"
    },
    {
      "inputs": [
        {
          "internalType": "address[]",
          "name": "newAddresses",
          "type": "address[]"
        }
      ],
      "name": "setWhitelist",
      "outputs": [],
      "stateMutability": "nonpayable",
      "type": "function"
    },
    {
      "inputs": [
        {
          "internalType": "bool",
          "name": "_state",
          "type": "bool"
        }
      ],
      "name": "setWhitelistEnabled",
      "outputs": [],
      "stateMutability": "nonpayable",
      "type": "function"
    },
    {
      "inputs": [
        {
          "internalType": "bytes4",
          "name": "interfaceId",
          "type": "bytes4"
        }
      ],
      "name": "supportsInterface",
      "outputs": [
        {
          "internalType": "bool",
          "name": "",
          "type": "bool"
        }
      ],
      "stateMutability": "view",
      "type": "function"
    },
    {
      "inputs": [],
      "name": "symbol",
      "outputs": [
        {
          "internalType": "string",
          "name": "",
          "type": "string"
        }
      ],
      "stateMutability": "view",
      "type": "function"
    },
    {
      "inputs": [
        {
          "internalType": "uint256",
          "name": "index",
          "type": "uint256"
        }
      ],
      "name": "tokenByIndex",
      "outputs": [
        {
          "internalType": "uint256",
          "name": "",
          "type": "uint256"
        }
      ],
      "stateMutability": "view",
      "type": "function"
    },
    {
      "inputs": [
        {
          "internalType": "address",
          "name": "owner",
          "type": "address"
        },
        {
          "internalType": "uint256",
          "name": "index",
          "type": "uint256"
        }
      ],
      "name": "tokenOfOwnerByIndex",
      "outputs": [
        {
          "internalType": "uint256",
          "name": "",
          "type": "uint256"
        }
      ],
      "stateMutability": "view",
      "type": "function"
    },
    {
      "inputs": [
        {
          "internalType": "uint256",
          "name": "_tokenId",
          "type": "uint256"
        }
      ],
      "name": "tokenURI",
      "outputs": [
        {
          "internalType": "string",
          "name": "",
          "type": "string"
        }
      ],
      "stateMutability": "view",
      "type": "function"
    },
    {
      "inputs": [],
      "name": "totalSupply",
      "outputs": [
        {
          "internalType": "uint256",
          "name": "",
          "type": "uint256"
        }
      ],
      "stateMutability": "view",
      "type": "function"
    },
    {
      "inputs": [
        {
          "internalType": "address",
          "name": "from",
          "type": "address"
        },
        {
          "internalType": "address",
          "name": "to",
          "type": "address"
        },
        {
          "internalType": "uint256",
          "name": "tokenId",
          "type": "uint256"
        }
      ],
      "name": "transferFrom",
      "outputs": [],
      "stateMutability": "nonpayable",
      "type": "function"
    },
    {
      "inputs": [
        {
          "internalType": "address",
          "name": "newOwner",
          "type": "address"
        }
      ],
      "name": "transferOwnership",
      "outputs": [],
      "stateMutability": "nonpayable",
      "type": "function"
    },
    {
      "inputs": [],
      "name": "uriSuffix",
      "outputs": [
        {
          "internalType": "string",
          "name": "",
          "type": "string"
        }
      ],
      "stateMutability": "view",
      "type": "function"
    },
    {
      "inputs": [
        {
          "internalType": "address",
          "name": "",
          "type": "address"
        }
      ],
      "name": "whitelist",
      "outputs": [
        {
          "internalType": "bool",
          "name": "",
          "type": "bool"
        }
      ],
      "stateMutability": "view",
      "type": "function"
    },
    {
      "inputs": [],
      "name": "whitelistEnabled",
      "outputs": [
        {
          "internalType": "bool",
          "name": "",
          "type": "bool"
        }
      ],
      "stateMutability": "view",
      "type": "function"
    }
  ],
  "bytecode": "0x60806040526040518060400160405280600581526020017f2e6a736f6e000000000000000000000000000000000000000000000000000000815250600e90805190602001906200005192919062000484565b5060405180602001604052806000815250600f90805190602001906200007992919062000484565b5060006010556000601160006101000a81548160ff021916908315150217905550348015620000a757600080fd5b5060405162005ec638038062005ec68339818101604052810190620000cd919062000acb565b84848160009080519060200190620000e792919062000484565b5080600190805190602001906200010092919062000484565b5050506200012362000117620001ab60201b60201c565b620001b360201b60201c565b6000859050600085905060008251141580156200014257506000815114155b62000184576040517f08c379a00000000000000000000000000000000000000000000000000000000081526004016200017b9062000c30565b60405180910390fd5b84156200019e576200019d84846200027960201b60201c565b5b5050505050505062001004565b600033905090565b6000600d60009054906101000a900473ffffffffffffffffffffffffffffffffffffffff16905081600d60006101000a81548173ffffffffffffffffffffffffffffffffffffffff021916908373ffffffffffffffffffffffffffffffffffffffff1602179055508173ffffffffffffffffffffffffffffffffffffffff168173ffffffffffffffffffffffffffffffffffffffff167f8be0079c531659141344cd1fd0a4f28419497f9722a3daafe3b4186f6b6457e060405160405180910390a35050565b6000825111620002c0576040517f08c379a0000000000000000000000000000000000000000000000000000000008152600401620002b79062000ca2565b60405180910390fd5b60058251111562000308576040517f08c379a0000000000000000000000000000000000000000000000000000000008152600401620002ff9062000d3a565b60405180910390fd5b80518251146200034f576040517f08c379a0000000000000000000000000000000000000000000000000000000008152600401620003469062000dd2565b60405180910390fd5b6000805b8251811015620003ae5782818151811062000373576200037262000df4565b5b60200260200101516bffffffffffffffffffffffff168262000396919062000e5c565b91508080620003a59062000eb9565b91505062000353565b50620003bf6200047a60201b60201c565b6bffffffffffffffffffffffff1681111562000412576040517f08c379a0000000000000000000000000000000000000000000000000000000008152600401620004099062000f7d565b60405180910390fd5b606080849050839150604051806040016040528082815260200183815250600a60008201518160000190805190602001906200045092919062000515565b5060208201518160010190805190602001906200046f929190620005a4565b509050505050505050565b6000612710905090565b828054620004929062000fce565b90600052602060002090601f016020900481019282620004b6576000855562000502565b82601f10620004d157805160ff191683800117855562000502565b8280016001018555821562000502579182015b8281111562000501578251825591602001919060010190620004e4565b5b50905062000511919062000673565b5090565b82805482825590600052602060002090810192821562000591579160200282015b82811115620005905782518260006101000a81548173ffffffffffffffffffffffffffffffffffffffff021916908373ffffffffffffffffffffffffffffffffffffffff1602179055509160200191906001019062000536565b5b509050620005a0919062000673565b5090565b82805482825590600052602060002090600101600290048101928215620006605791602002820160005b838211156200062457835183826101000a8154816bffffffffffffffffffffffff02191690836bffffffffffffffffffffffff1602179055509260200192600c01602081600b01049283019260010302620005ce565b80156200065e5782816101000a8154906bffffffffffffffffffffffff0219169055600c01602081600b0104928301926001030262000624565b505b5090506200066f919062000673565b5090565b5b808211156200068e57600081600090555060010162000674565b5090565b6000604051905090565b600080fd5b600080fd5b600080fd5b600080fd5b6000601f19601f8301169050919050565b7f4e487b7100000000000000000000000000000000000000000000000000000000600052604160045260246000fd5b620006fb82620006b0565b810181811067ffffffffffffffff821117156200071d576200071c620006c1565b5b80604052505050565b60006200073262000692565b9050620007408282620006f0565b919050565b600067ffffffffffffffff821115620007635762000762620006c1565b5b6200076e82620006b0565b9050602081019050919050565b60005b838110156200079b5780820151818401526020810190506200077e565b83811115620007ab576000848401525b50505050565b6000620007c8620007c28462000745565b62000726565b905082815260208101848484011115620007e757620007e6620006ab565b5b620007f48482856200077b565b509392505050565b600082601f830112620008145762000813620006a6565b5b815162000826848260208601620007b1565b91505092915050565b60008115159050919050565b62000846816200082f565b81146200085257600080fd5b50565b60008151905062000866816200083b565b92915050565b600067ffffffffffffffff8211156200088a5762000889620006c1565b5b602082029050602081019050919050565b600080fd5b600073ffffffffffffffffffffffffffffffffffffffff82169050919050565b6000620008cd82620008a0565b9050919050565b620008df81620008c0565b8114620008eb57600080fd5b50565b600081519050620008ff81620008d4565b92915050565b60006200091c62000916846200086c565b62000726565b905080838252602082019050602084028301858111156200094257620009416200089b565b5b835b818110156200096f57806200095a8882620008ee565b84526020840193505060208101905062000944565b5050509392505050565b600082601f830112620009915762000990620006a6565b5b8151620009a384826020860162000905565b91505092915050565b600067ffffffffffffffff821115620009ca57620009c9620006c1565b5b602082029050602081019050919050565b60006bffffffffffffffffffffffff82169050919050565b620009fe81620009db565b811462000a0a57600080fd5b50565b60008151905062000a1e81620009f3565b92915050565b600062000a3b62000a3584620009ac565b62000726565b9050808382526020820190506020840283018581111562000a615762000a606200089b565b5b835b8181101562000a8e578062000a79888262000a0d565b84526020840193505060208101905062000a63565b5050509392505050565b600082601f83011262000ab05762000aaf620006a6565b5b815162000ac284826020860162000a24565b91505092915050565b600080600080600060a0868803121562000aea5762000ae96200069c565b5b600086015167ffffffffffffffff81111562000b0b5762000b0a620006a1565b5b62000b1988828901620007fc565b955050602086015167ffffffffffffffff81111562000b3d5762000b3c620006a1565b5b62000b4b88828901620007fc565b945050604062000b5e8882890162000855565b935050606086015167ffffffffffffffff81111562000b825762000b81620006a1565b5b62000b908882890162000979565b925050608086015167ffffffffffffffff81111562000bb45762000bb3620006a1565b5b62000bc28882890162000a98565b9150509295509295909350565b600082825260208201905092915050565b7f4552433732313a2043686f6f73652061206e616d6520616e642073796d626f6c600082015250565b600062000c1860208362000bcf565b915062000c258262000be0565b602082019050919050565b6000602082019050818103600083015262000c4b8162000c09565b9050919050565b7f4e6f20526f79616c74792064657461696c732070726f76696465640000000000600082015250565b600062000c8a601b8362000bcf565b915062000c978262000c52565b602082019050919050565b6000602082019050818103600083015262000cbd8162000c7b565b9050919050565b7f546f6f206d616e7920726f79616c74792072656369657665727320646574616960008201527f6c73000000000000000000000000000000000000000000000000000000000000602082015250565b600062000d2260228362000bcf565b915062000d2f8262000cc4565b604082019050919050565b6000602082019050818103600083015262000d558162000d13565b9050919050565b7f4d69736d61746368206f6620526f79616c74792072656369657665727320616e60008201527f6420746865697220666565730000000000000000000000000000000000000000602082015250565b600062000dba602c8362000bcf565b915062000dc78262000d5c565b604082019050919050565b6000602082019050818103600083015262000ded8162000dab565b9050919050565b7f4e487b7100000000000000000000000000000000000000000000000000000000600052603260045260246000fd5b6000819050919050565b7f4e487b7100000000000000000000000000000000000000000000000000000000600052601160045260246000fd5b600062000e698262000e23565b915062000e768362000e23565b9250827fffffffffffffffffffffffffffffffffffffffffffffffffffffffffffffffff0382111562000eae5762000ead62000e2d565b5b828201905092915050565b600062000ec68262000e23565b91507fffffffffffffffffffffffffffffffffffffffffffffffffffffffffffffffff82141562000efc5762000efb62000e2d565b5b600182019050919050565b7f455243323938313a20726f79616c7479206665652077696c6c2065786365656460008201527f2073616c65507269636500000000000000000000000000000000000000000000602082015250565b600062000f65602a8362000bcf565b915062000f728262000f07565b604082019050919050565b6000602082019050818103600083015262000f988162000f56565b9050919050565b7f4e487b7100000000000000000000000000000000000000000000000000000000600052602260045260246000fd5b6000600282049050600182168062000fe757607f821691505b6020821081141562000ffe5762000ffd62000f9f565b5b50919050565b614eb280620010146000396000f3fe608060405234801561001057600080fd5b50600436106101e55760003560e01c80635503a0e81161010f57806395d89b41116100a2578063c87b56dd11610071578063c87b56dd1461058f578063e985e9c5146105bf578063f2fde38b146105ef578063f42176481461060b576101e5565b806395d89b41146105095780639b19251a14610527578063a22cb46514610557578063b88d4fde14610573576101e5565b806370a08231116100de57806370a0823114610495578063715018a6146104c55780638784a4c9146104cf5780638da5cb5b146104eb576101e5565b80635503a0e81461040d57806355f804b31461042b5780636352211e146104475780636c0360eb14610477576101e5565b8063232452161161018757806342842e0e1161015657806342842e0e146103735780634816edf41461038f5780634f6ccce7146103bf57806351fb012d146103ef576101e5565b806323245216146102da57806323b872dd146102f65780632a55205a146103125780632f745c5914610343576101e5565b8063081812fc116101c3578063081812fc14610254578063095ea7b31461028457806316ba10e0146102a057806318160ddd146102bc576101e5565b806301ffc9a7146101ea578063052d9e7e1461021a57806306fdde0314610236575b600080fd5b61020460048036038101906101ff919061314f565b610627565b6040516102119190613197565b60405180910390f35b610234600480360381019061022f91906131de565b610639565b005b61023e6106a4565b60405161024b91906132a4565b60405180910390f35b61026e600480360381019061026991906132fc565b610736565b60405161027b919061336a565b60405180910390f35b61029e600480360381019061029991906133b1565b61077c565b005b6102ba60048036038101906102b59190613526565b610894565b005b6102c46108b6565b6040516102d1919061357e565b60405180910390f35b6102f460048036038101906102ef91906135f9565b6108c3565b005b610310600480360381019061030b9190613646565b610a0c565b005b61032c60048036038101906103279190613699565b610a6c565b60405161033a929190613855565b60405180910390f35b61035d600480360381019061035891906133b1565b610df3565b60405161036a919061357e565b60405180910390f35b61038d60048036038101906103889190613646565b610e98565b005b6103a960048036038101906103a491906132fc565b610eb8565b6040516103b6919061336a565b60405180910390f35b6103d960048036038101906103d491906132fc565b610eeb565b6040516103e6919061357e565b60405180910390f35b6103f7610f5c565b6040516104049190613197565b60405180910390f35b610415610f6f565b60405161042291906132a4565b60405180910390f35b61044560048036038101906104409190613526565b610ffd565b005b610461600480360381019061045c91906132fc565b611057565b60405161046e919061336a565b60405180910390f35b61047f611109565b60405161048c91906132a4565b60405180910390f35b6104af60048036038101906104aa919061388c565b611197565b6040516104bc919061357e565b60405180910390f35b6104cd61124f565b005b6104e960048036038101906104e49190613a83565b611263565b005b6104f361142b565b604051610500919061336a565b60405180910390f35b610511611455565b60405161051e91906132a4565b60405180910390f35b610541600480360381019061053c919061388c565b6114e7565b60405161054e9190613197565b60405180910390f35b610571600480360381019061056c9190613b22565b611507565b005b61058d60048036038101906105889190613c03565b61151d565b005b6105a960048036038101906105a491906132fc565b61157f565b6040516105b691906132a4565b60405180910390f35b6105d960048036038101906105d49190613c86565b611629565b6040516105e69190613197565b60405180910390f35b6106096004803603810190610604919061388c565b6116bd565b005b610625600480360381019061062091906135f9565b611741565b005b6000610632826118d9565b9050919050565b610641611953565b80601160006101000a81548160ff0219169083151502179055507f218e591c4b0d49651b4b42843cb8cc59080122def3d2271f56ef2e21896753ec601160009054906101000a900460ff166040516106999190613197565b60405180910390a150565b6060600080546106b390613cf5565b80601f01602080910402602001604051908101604052809291908181526020018280546106df90613cf5565b801561072c5780601f106107015761010080835404028352916020019161072c565b820191906000526020600020905b81548152906001019060200180831161070f57829003601f168201915b5050505050905090565b6000610741826119d1565b6004600083815260200190815260200160002060009054906101000a900473ffffffffffffffffffffffffffffffffffffffff169050919050565b600061078782611057565b90508073ffffffffffffffffffffffffffffffffffffffff168373ffffffffffffffffffffffffffffffffffffffff1614156107f8576040517f08c379a00000000000000000000000000000000000000000000000000000000081526004016107ef90613d99565b60405180910390fd5b8073ffffffffffffffffffffffffffffffffffffffff16610817611a1c565b73ffffffffffffffffffffffffffffffffffffffff161480610846575061084581610840611a1c565b611629565b5b610885576040517f08c379a000000000000000000000000000000000000000000000000000000000815260040161087c90613e2b565b60405180910390fd5b61088f8383611a24565b505050565b61089c611953565b80600e90805190602001906108b2929190612eee565b5050565b6000600880549050905090565b6108cb611953565b60008282905011610911576040517f08c379a000000000000000000000000000000000000000000000000000000000815260040161090890613e97565b60405180910390fd5b6005828290501115610958576040517f08c379a000000000000000000000000000000000000000000000000000000000815260040161094f90613f03565b60405180910390fd5b60005b82829050811015610a07576013600084848481811061097d5761097c613f23565b5b9050602002016020810190610992919061388c565b73ffffffffffffffffffffffffffffffffffffffff1673ffffffffffffffffffffffffffffffffffffffff16815260200190815260200160002060006101000a81549060ff0219169055601060008154809291906109ef90613f81565b919050555080806109ff90613fab565b91505061095b565b505050565b610a1d610a17611a1c565b82611add565b610a5c576040517f08c379a0000000000000000000000000000000000000000000000000000000008152600401610a5390614066565b60405180910390fd5b610a67838383611b72565b505050565b6060806000600c600086815260200190815260200160002060405180604001604052908160008201805480602002602001604051908101604052809291908181526020018280548015610b1457602002820191906000526020600020905b8160009054906101000a900473ffffffffffffffffffffffffffffffffffffffff1673ffffffffffffffffffffffffffffffffffffffff1681526020019060010190808311610aca575b5050505050815260200160018201805480602002602001604051908101604052809291908181526020018280548015610ba857602002820191906000526020600020906000905b82829054906101000a90046bffffffffffffffffffffffff166bffffffffffffffffffffffff16815260200190600c0190602082600b01049283019260010382029150808411610b5b5790505b505050505081525050905060008160000151511415610cf357600a60405180604001604052908160008201805480602002602001604051908101604052809291908181526020018280548015610c5357602002820191906000526020600020905b8160009054906101000a900473ffffffffffffffffffffffffffffffffffffffff1673ffffffffffffffffffffffffffffffffffffffff1681526020019060010190808311610c09575b5050505050815260200160018201805480602002602001604051908101604052809291908181526020018280548015610ce757602002820191906000526020600020906000905b82829054906101000a90046bffffffffffffffffffffffff166bffffffffffffffffffffffff16815260200190600c0190602082600b01049283019260010382029150808411610c9a5790505b50505050508152505090505b600081600001515167ffffffffffffffff811115610d1457610d136133fb565b5b604051908082528060200260200182016040528015610d425781602001602082028036833780820191505090505b50905060005b826000015151811015610ddf57610d5d611dd9565b6bffffffffffffffffffffffff1683602001518281518110610d8257610d81613f23565b5b60200260200101516bffffffffffffffffffffffff1687610da39190614086565b610dad919061410f565b828281518110610dc057610dbf613f23565b5b6020026020010181815250508080610dd790613fab565b915050610d48565b508160000151819350935050509250929050565b6000610dfe83611197565b8210610e3f576040517f08c379a0000000000000000000000000000000000000000000000000000000008152600401610e36906141b2565b60405180910390fd5b600660008473ffffffffffffffffffffffffffffffffffffffff1673ffffffffffffffffffffffffffffffffffffffff168152602001908152602001600020600083815260200190815260200160002054905092915050565b610eb38383836040518060200160405280600081525061151d565b505050565b60126020528060005260406000206000915054906101000a900473ffffffffffffffffffffffffffffffffffffffff1681565b6000610ef56108b6565b8210610f36576040517f08c379a0000000000000000000000000000000000000000000000000000000008152600401610f2d90614244565b60405180910390fd5b60088281548110610f4a57610f49613f23565b5b90600052602060002001549050919050565b601160009054906101000a900460ff1681565b600e8054610f7c90613cf5565b80601f0160208091040260200160405190810160405280929190818152602001828054610fa890613cf5565b8015610ff55780601f10610fca57610100808354040283529160200191610ff5565b820191906000526020600020905b815481529060010190602001808311610fd857829003601f168201915b505050505081565b611005611953565b80600f908051906020019061101b929190612eee565b507f01e56a02aca7f26a28165a040851ba78f30282b55ca81c63a804cdc1e2dcea72600f60405161104c91906142f9565b60405180910390a150565b6000806002600084815260200190815260200160002060009054906101000a900473ffffffffffffffffffffffffffffffffffffffff169050600073ffffffffffffffffffffffffffffffffffffffff168173ffffffffffffffffffffffffffffffffffffffff161415611100576040517f08c379a00000000000000000000000000000000000000000000000000000000081526004016110f790614367565b60405180910390fd5b80915050919050565b600f805461111690613cf5565b80601f016020809104026020016040519081016040528092919081815260200182805461114290613cf5565b801561118f5780601f106111645761010080835404028352916020019161118f565b820191906000526020600020905b81548152906001019060200180831161117257829003601f168201915b505050505081565b60008073ffffffffffffffffffffffffffffffffffffffff168273ffffffffffffffffffffffffffffffffffffffff161415611208576040517f08c379a00000000000000000000000000000000000000000000000000000000081526004016111ff906143f9565b60405180910390fd5b600360008373ffffffffffffffffffffffffffffffffffffffff1673ffffffffffffffffffffffffffffffffffffffff168152602001908152602001600020549050919050565b611257611953565b6112616000611de3565b565b60001515601160009054906101000a900460ff16151514156112f55761128761142b565b73ffffffffffffffffffffffffffffffffffffffff163373ffffffffffffffffffffffffffffffffffffffff16146112f4576040517f08c379a00000000000000000000000000000000000000000000000000000000081526004016112eb90614465565b60405180910390fd5b5b60011515601160009054906101000a900460ff161515141561139e57601360003373ffffffffffffffffffffffffffffffffffffffff1673ffffffffffffffffffffffffffffffffffffffff16815260200190815260200160002060009054906101000a900460ff1661139d576040517f08c379a000000000000000000000000000000000000000000000000000000000815260040161139490614465565b60405180910390fd5b5b60006113aa6014611ea9565b90506113b68582611eb7565b846012600083815260200190815260200160002060006101000a81548173ffffffffffffffffffffffffffffffffffffffff021916908373ffffffffffffffffffffffffffffffffffffffff160217905550831561141a57611419818484611ed5565b5b61142460146120c7565b5050505050565b6000600d60009054906101000a900473ffffffffffffffffffffffffffffffffffffffff16905090565b60606001805461146490613cf5565b80601f016020809104026020016040519081016040528092919081815260200182805461149090613cf5565b80156114dd5780601f106114b2576101008083540402835291602001916114dd565b820191906000526020600020905b8154815290600101906020018083116114c057829003601f168201915b5050505050905090565b60136020528060005260406000206000915054906101000a900460ff1681565b611519611512611a1c565b83836120dd565b5050565b61152e611528611a1c565b83611add565b61156d576040517f08c379a000000000000000000000000000000000000000000000000000000000815260040161156490614066565b60405180910390fd5b6115798484848461224a565b50505050565b606061158a826122a6565b6115c9576040517f08c379a00000000000000000000000000000000000000000000000000000000081526004016115c0906144f7565b60405180910390fd5b60006115d3612312565b905060008151116115f35760405180602001604052806000815250611621565b806115fd846123a4565b600e604051602001611611939291906145d2565b6040516020818303038152906040525b915050919050565b6000600560008473ffffffffffffffffffffffffffffffffffffffff1673ffffffffffffffffffffffffffffffffffffffff16815260200190815260200160002060008373ffffffffffffffffffffffffffffffffffffffff1673ffffffffffffffffffffffffffffffffffffffff16815260200190815260200160002060009054906101000a900460ff16905092915050565b6116c5611953565b600073ffffffffffffffffffffffffffffffffffffffff168173ffffffffffffffffffffffffffffffffffffffff161415611735576040517f08c379a000000000000000000000000000000000000000000000000000000000815260040161172c90614675565b60405180910390fd5b61173e81611de3565b50565b611749611953565b6000828290501161178f576040517f08c379a000000000000000000000000000000000000000000000000000000000815260040161178690613e97565b60405180910390fd5b6107d082829050106117d6576040517f08c379a00000000000000000000000000000000000000000000000000000000081526004016117cd90613f03565b60405180910390fd5b60005b828290508110156118d4576107d06010541061182a576040517f08c379a000000000000000000000000000000000000000000000000000000000815260040161182190614707565b60405180910390fd5b60016013600085858581811061184357611842613f23565b5b9050602002016020810190611858919061388c565b73ffffffffffffffffffffffffffffffffffffffff1673ffffffffffffffffffffffffffffffffffffffff16815260200190815260200160002060006101000a81548160ff021916908315150217905550601060008154809291906118bc90613fab565b919050555080806118cc90613fab565b9150506117d9565b505050565b60007f2a55205a000000000000000000000000000000000000000000000000000000007bffffffffffffffffffffffffffffffffffffffffffffffffffffffff1916827bffffffffffffffffffffffffffffffffffffffffffffffffffffffff1916148061194c575061194b82612505565b5b9050919050565b61195b611a1c565b73ffffffffffffffffffffffffffffffffffffffff1661197961142b565b73ffffffffffffffffffffffffffffffffffffffff16146119cf576040517f08c379a00000000000000000000000000000000000000000000000000000000081526004016119c690614773565b60405180910390fd5b565b6119da816122a6565b611a19576040517f08c379a0000000000000000000000000000000000000000000000000000000008152600401611a1090614367565b60405180910390fd5b50565b600033905090565b816004600083815260200190815260200160002060006101000a81548173ffffffffffffffffffffffffffffffffffffffff021916908373ffffffffffffffffffffffffffffffffffffffff160217905550808273ffffffffffffffffffffffffffffffffffffffff16611a9783611057565b73ffffffffffffffffffffffffffffffffffffffff167f8c5be1e5ebec7d5bd14f71427d1e84f3dd0314c0f7b2291e5b200ac8c7c3b92560405160405180910390a45050565b600080611ae983611057565b90508073ffffffffffffffffffffffffffffffffffffffff168473ffffffffffffffffffffffffffffffffffffffff161480611b2b5750611b2a8185611629565b5b80611b6957508373ffffffffffffffffffffffffffffffffffffffff16611b5184610736565b73ffffffffffffffffffffffffffffffffffffffff16145b91505092915050565b8273ffffffffffffffffffffffffffffffffffffffff16611b9282611057565b73ffffffffffffffffffffffffffffffffffffffff1614611be8576040517f08c379a0000000000000000000000000000000000000000000000000000000008152600401611bdf90614805565b60405180910390fd5b600073ffffffffffffffffffffffffffffffffffffffff168273ffffffffffffffffffffffffffffffffffffffff161415611c58576040517f08c379a0000000000000000000000000000000000000000000000000000000008152600401611c4f90614897565b60405180910390fd5b611c6383838361257f565b611c6e600082611a24565b6001600360008573ffffffffffffffffffffffffffffffffffffffff1673ffffffffffffffffffffffffffffffffffffffff1681526020019081526020016000206000828254611cbe91906148b7565b925050819055506001600360008473ffffffffffffffffffffffffffffffffffffffff1673ffffffffffffffffffffffffffffffffffffffff1681526020019081526020016000206000828254611d1591906148eb565b92505081905550816002600083815260200190815260200160002060006101000a81548173ffffffffffffffffffffffffffffffffffffffff021916908373ffffffffffffffffffffffffffffffffffffffff160217905550808273ffffffffffffffffffffffffffffffffffffffff168473ffffffffffffffffffffffffffffffffffffffff167fddf252ad1be2c89b69c2b068fc378daa952ba7f163c4a11628f55a4df523b3ef60405160405180910390a4611dd483838361258f565b505050565b6000612710905090565b6000600d60009054906101000a900473ffffffffffffffffffffffffffffffffffffffff16905081600d60006101000a81548173ffffffffffffffffffffffffffffffffffffffff021916908373ffffffffffffffffffffffffffffffffffffffff1602179055508173ffffffffffffffffffffffffffffffffffffffff168173ffffffffffffffffffffffffffffffffffffffff167f8be0079c531659141344cd1fd0a4f28419497f9722a3daafe3b4186f6b6457e060405160405180910390a35050565b600081600001549050919050565b611ed1828260405180602001604052806000815250612594565b5050565b6000825111611f19576040517f08c379a0000000000000000000000000000000000000000000000000000000008152600401611f109061498d565b60405180910390fd5b600582511115611f5e576040517f08c379a0000000000000000000000000000000000000000000000000000000008152600401611f5590614a1f565b60405180910390fd5b8051825114611fa2576040517f08c379a0000000000000000000000000000000000000000000000000000000008152600401611f9990614ab1565b60405180910390fd5b6000805b8251811015611ff857828181518110611fc257611fc1613f23565b5b60200260200101516bffffffffffffffffffffffff1682611fe391906148eb565b91508080611ff090613fab565b915050611fa6565b50612001611dd9565b6bffffffffffffffffffffffff16811115612051576040517f08c379a000000000000000000000000000000000000000000000000000000000815260040161204890614b43565b60405180910390fd5b606080849050839150604051806040016040528082815260200183815250600c6000888152602001908152602001600020600082015181600001908051906020019061209e929190612f74565b5060208201518160010190805190602001906120bb929190612ffe565b50905050505050505050565b6001816000016000828254019250508190555050565b8173ffffffffffffffffffffffffffffffffffffffff168373ffffffffffffffffffffffffffffffffffffffff16141561214c576040517f08c379a000000000000000000000000000000000000000000000000000000000815260040161214390614baf565b60405180910390fd5b80600560008573ffffffffffffffffffffffffffffffffffffffff1673ffffffffffffffffffffffffffffffffffffffff16815260200190815260200160002060008473ffffffffffffffffffffffffffffffffffffffff1673ffffffffffffffffffffffffffffffffffffffff16815260200190815260200160002060006101000a81548160ff0219169083151502179055508173ffffffffffffffffffffffffffffffffffffffff168373ffffffffffffffffffffffffffffffffffffffff167f17307eab39ab6107e8899845ad3d59bd9653f200f220920489ca2b5937696c318360405161223d9190613197565b60405180910390a3505050565b612255848484611b72565b612261848484846125ef565b6122a0576040517f08c379a000000000000000000000000000000000000000000000000000000000815260040161229790614c41565b60405180910390fd5b50505050565b60008073ffffffffffffffffffffffffffffffffffffffff166002600084815260200190815260200160002060009054906101000a900473ffffffffffffffffffffffffffffffffffffffff1673ffffffffffffffffffffffffffffffffffffffff1614159050919050565b6060600f805461232190613cf5565b80601f016020809104026020016040519081016040528092919081815260200182805461234d90613cf5565b801561239a5780601f1061236f5761010080835404028352916020019161239a565b820191906000526020600020905b81548152906001019060200180831161237d57829003601f168201915b5050505050905090565b606060008214156123ec576040518060400160405280600181526020017f30000000000000000000000000000000000000000000000000000000000000008152509050612500565b600082905060005b6000821461241e57808061240790613fab565b915050600a82612417919061410f565b91506123f4565b60008167ffffffffffffffff81111561243a576124396133fb565b5b6040519080825280601f01601f19166020018201604052801561246c5781602001600182028036833780820191505090505b5090505b600085146124f95760018261248591906148b7565b9150600a856124949190614c61565b60306124a091906148eb565b60f81b8183815181106124b6576124b5613f23565b5b60200101907effffffffffffffffffffffffffffffffffffffffffffffffffffffffffffff1916908160001a905350600a856124f2919061410f565b9450612470565b8093505050505b919050565b60007f780e9d63000000000000000000000000000000000000000000000000000000007bffffffffffffffffffffffffffffffffffffffffffffffffffffffff1916827bffffffffffffffffffffffffffffffffffffffffffffffffffffffff19161480612578575061257782612786565b5b9050919050565b61258a838383612868565b505050565b505050565b61259e838361297c565b6125ab60008484846125ef565b6125ea576040517f08c379a00000000000000000000000000000000000000000000000000000000081526004016125e190614c41565b60405180910390fd5b505050565b60006126108473ffffffffffffffffffffffffffffffffffffffff16612b56565b15612779578373ffffffffffffffffffffffffffffffffffffffff1663150b7a02612639611a1c565b8786866040518563ffffffff1660e01b815260040161265b9493929190614ce7565b602060405180830381600087803b15801561267557600080fd5b505af19250505080156126a657506040513d601f19601f820116820180604052508101906126a39190614d48565b60015b612729573d80600081146126d6576040519150601f19603f3d011682016040523d82523d6000602084013e6126db565b606091505b50600081511415612721576040517f08c379a000000000000000000000000000000000000000000000000000000000815260040161271890614c41565b60405180910390fd5b805181602001fd5b63150b7a0260e01b7bffffffffffffffffffffffffffffffffffffffffffffffffffffffff1916817bffffffffffffffffffffffffffffffffffffffffffffffffffffffff19161491505061277e565b600190505b949350505050565b60007f80ac58cd000000000000000000000000000000000000000000000000000000007bffffffffffffffffffffffffffffffffffffffffffffffffffffffff1916827bffffffffffffffffffffffffffffffffffffffffffffffffffffffff1916148061285157507f5b5e139f000000000000000000000000000000000000000000000000000000007bffffffffffffffffffffffffffffffffffffffffffffffffffffffff1916827bffffffffffffffffffffffffffffffffffffffffffffffffffffffff1916145b80612861575061286082612b79565b5b9050919050565b612873838383612be3565b600073ffffffffffffffffffffffffffffffffffffffff168373ffffffffffffffffffffffffffffffffffffffff1614156128b6576128b181612be8565b6128f5565b8173ffffffffffffffffffffffffffffffffffffffff168373ffffffffffffffffffffffffffffffffffffffff16146128f4576128f38382612c31565b5b5b600073ffffffffffffffffffffffffffffffffffffffff168273ffffffffffffffffffffffffffffffffffffffff1614156129385761293381612d9e565b612977565b8273ffffffffffffffffffffffffffffffffffffffff168273ffffffffffffffffffffffffffffffffffffffff1614612976576129758282612e6f565b5b5b505050565b600073ffffffffffffffffffffffffffffffffffffffff168273ffffffffffffffffffffffffffffffffffffffff1614156129ec576040517f08c379a00000000000000000000000000000000000000000000000000000000081526004016129e390614dc1565b60405180910390fd5b6129f5816122a6565b15612a35576040517f08c379a0000000000000000000000000000000000000000000000000000000008152600401612a2c90614e2d565b60405180910390fd5b612a416000838361257f565b6001600360008473ffffffffffffffffffffffffffffffffffffffff1673ffffffffffffffffffffffffffffffffffffffff1681526020019081526020016000206000828254612a9191906148eb565b92505081905550816002600083815260200190815260200160002060006101000a81548173ffffffffffffffffffffffffffffffffffffffff021916908373ffffffffffffffffffffffffffffffffffffffff160217905550808273ffffffffffffffffffffffffffffffffffffffff16600073ffffffffffffffffffffffffffffffffffffffff167fddf252ad1be2c89b69c2b068fc378daa952ba7f163c4a11628f55a4df523b3ef60405160405180910390a4612b526000838361258f565b5050565b6000808273ffffffffffffffffffffffffffffffffffffffff163b119050919050565b60007f01ffc9a7000000000000000000000000000000000000000000000000000000007bffffffffffffffffffffffffffffffffffffffffffffffffffffffff1916827bffffffffffffffffffffffffffffffffffffffffffffffffffffffff1916149050919050565b505050565b6008805490506009600083815260200190815260200160002081905550600881908060018154018082558091505060019003906000526020600020016000909190919091505550565b60006001612c3e84611197565b612c4891906148b7565b9050600060076000848152602001908152602001600020549050818114612d2d576000600660008673ffffffffffffffffffffffffffffffffffffffff1673ffffffffffffffffffffffffffffffffffffffff168152602001908152602001600020600084815260200190815260200160002054905080600660008773ffffffffffffffffffffffffffffffffffffffff1673ffffffffffffffffffffffffffffffffffffffff168152602001908152602001600020600084815260200190815260200160002081905550816007600083815260200190815260200160002081905550505b6007600084815260200190815260200160002060009055600660008573ffffffffffffffffffffffffffffffffffffffff1673ffffffffffffffffffffffffffffffffffffffff16815260200190815260200160002060008381526020019081526020016000206000905550505050565b60006001600880549050612db291906148b7565b9050600060096000848152602001908152602001600020549050600060088381548110612de257612de1613f23565b5b906000526020600020015490508060088381548110612e0457612e03613f23565b5b906000526020600020018190555081600960008381526020019081526020016000208190555060096000858152602001908152602001600020600090556008805480612e5357612e52614e4d565b5b6001900381819060005260206000200160009055905550505050565b6000612e7a83611197565b905081600660008573ffffffffffffffffffffffffffffffffffffffff1673ffffffffffffffffffffffffffffffffffffffff168152602001908152602001600020600083815260200190815260200160002081905550806007600084815260200190815260200160002081905550505050565b828054612efa90613cf5565b90600052602060002090601f016020900481019282612f1c5760008555612f63565b82601f10612f3557805160ff1916838001178555612f63565b82800160010185558215612f63579182015b82811115612f62578251825591602001919060010190612f47565b5b509050612f7091906130c6565b5090565b828054828255906000526020600020908101928215612fed579160200282015b82811115612fec5782518260006101000a81548173ffffffffffffffffffffffffffffffffffffffff021916908373ffffffffffffffffffffffffffffffffffffffff16021790555091602001919060010190612f94565b5b509050612ffa91906130c6565b5090565b828054828255906000526020600020906001016002900481019282156130b55791602002820160005b8382111561307b57835183826101000a8154816bffffffffffffffffffffffff02191690836bffffffffffffffffffffffff1602179055509260200192600c01602081600b01049283019260010302613027565b80156130b35782816101000a8154906bffffffffffffffffffffffff0219169055600c01602081600b0104928301926001030261307b565b505b5090506130c291906130c6565b5090565b5b808211156130df5760008160009055506001016130c7565b5090565b6000604051905090565b600080fd5b600080fd5b60007fffffffff0000000000000000000000000000000000000000000000000000000082169050919050565b61312c816130f7565b811461313757600080fd5b50565b60008135905061314981613123565b92915050565b600060208284031215613165576131646130ed565b5b60006131738482850161313a565b91505092915050565b60008115159050919050565b6131918161317c565b82525050565b60006020820190506131ac6000830184613188565b92915050565b6131bb8161317c565b81146131c657600080fd5b50565b6000813590506131d8816131b2565b92915050565b6000602082840312156131f4576131f36130ed565b5b6000613202848285016131c9565b91505092915050565b600081519050919050565b600082825260208201905092915050565b60005b8381101561324557808201518184015260208101905061322a565b83811115613254576000848401525b50505050565b6000601f19601f8301169050919050565b60006132768261320b565b6132808185613216565b9350613290818560208601613227565b6132998161325a565b840191505092915050565b600060208201905081810360008301526132be818461326b565b905092915050565b6000819050919050565b6132d9816132c6565b81146132e457600080fd5b50565b6000813590506132f6816132d0565b92915050565b600060208284031215613312576133116130ed565b5b6000613320848285016132e7565b91505092915050565b600073ffffffffffffffffffffffffffffffffffffffff82169050919050565b600061335482613329565b9050919050565b61336481613349565b82525050565b600060208201905061337f600083018461335b565b92915050565b61338e81613349565b811461339957600080fd5b50565b6000813590506133ab81613385565b92915050565b600080604083850312156133c8576133c76130ed565b5b60006133d68582860161339c565b92505060206133e7858286016132e7565b9150509250929050565b600080fd5b600080fd5b7f4e487b7100000000000000000000000000000000000000000000000000000000600052604160045260246000fd5b6134338261325a565b810181811067ffffffffffffffff82111715613452576134516133fb565b5b80604052505050565b60006134656130e3565b9050613471828261342a565b919050565b600067ffffffffffffffff821115613491576134906133fb565b5b61349a8261325a565b9050602081019050919050565b82818337600083830152505050565b60006134c96134c484613476565b61345b565b9050828152602081018484840111156134e5576134e46133f6565b5b6134f08482856134a7565b509392505050565b600082601f83011261350d5761350c6133f1565b5b813561351d8482602086016134b6565b91505092915050565b60006020828403121561353c5761353b6130ed565b5b600082013567ffffffffffffffff81111561355a576135596130f2565b5b613566848285016134f8565b91505092915050565b613578816132c6565b82525050565b6000602082019050613593600083018461356f565b92915050565b600080fd5b600080fd5b60008083601f8401126135b9576135b86133f1565b5b8235905067ffffffffffffffff8111156135d6576135d5613599565b5b6020830191508360208202830111156135f2576135f161359e565b5b9250929050565b600080602083850312156136105761360f6130ed565b5b600083013567ffffffffffffffff81111561362e5761362d6130f2565b5b61363a858286016135a3565b92509250509250929050565b60008060006060848603121561365f5761365e6130ed565b5b600061366d8682870161339c565b935050602061367e8682870161339c565b925050604061368f868287016132e7565b9150509250925092565b600080604083850312156136b0576136af6130ed565b5b60006136be858286016132e7565b92505060206136cf858286016132e7565b9150509250929050565b600081519050919050565b600082825260208201905092915050565b6000819050602082019050919050565b61370e81613349565b82525050565b60006137208383613705565b60208301905092915050565b6000602082019050919050565b6000613744826136d9565b61374e81856136e4565b9350613759836136f5565b8060005b8381101561378a5781516137718882613714565b975061377c8361372c565b92505060018101905061375d565b5085935050505092915050565b600081519050919050565b600082825260208201905092915050565b6000819050602082019050919050565b6137cc816132c6565b82525050565b60006137de83836137c3565b60208301905092915050565b6000602082019050919050565b600061380282613797565b61380c81856137a2565b9350613817836137b3565b8060005b8381101561384857815161382f88826137d2565b975061383a836137ea565b92505060018101905061381b565b5085935050505092915050565b6000604082019050818103600083015261386f8185613739565b9050818103602083015261388381846137f7565b90509392505050565b6000602082840312156138a2576138a16130ed565b5b60006138b08482850161339c565b91505092915050565b600067ffffffffffffffff8211156138d4576138d36133fb565b5b602082029050602081019050919050565b60006138f86138f3846138b9565b61345b565b9050808382526020820190506020840283018581111561391b5761391a61359e565b5b835b818110156139445780613930888261339c565b84526020840193505060208101905061391d565b5050509392505050565b600082601f830112613963576139626133f1565b5b81356139738482602086016138e5565b91505092915050565b600067ffffffffffffffff821115613997576139966133fb565b5b602082029050602081019050919050565b60006bffffffffffffffffffffffff82169050919050565b6139c9816139a8565b81146139d457600080fd5b50565b6000813590506139e6816139c0565b92915050565b60006139ff6139fa8461397c565b61345b565b90508083825260208201905060208402830185811115613a2257613a2161359e565b5b835b81811015613a4b5780613a3788826139d7565b845260208401935050602081019050613a24565b5050509392505050565b600082601f830112613a6a57613a696133f1565b5b8135613a7a8482602086016139ec565b91505092915050565b60008060008060808587031215613a9d57613a9c6130ed565b5b6000613aab8782880161339c565b9450506020613abc878288016131c9565b935050604085013567ffffffffffffffff811115613add57613adc6130f2565b5b613ae98782880161394e565b925050606085013567ffffffffffffffff811115613b0a57613b096130f2565b5b613b1687828801613a55565b91505092959194509250565b60008060408385031215613b3957613b386130ed565b5b6000613b478582860161339c565b9250506020613b58858286016131c9565b9150509250929050565b600067ffffffffffffffff821115613b7d57613b7c6133fb565b5b613b868261325a565b9050602081019050919050565b6000613ba6613ba184613b62565b61345b565b905082815260208101848484011115613bc257613bc16133f6565b5b613bcd8482856134a7565b509392505050565b600082601f830112613bea57613be96133f1565b5b8135613bfa848260208601613b93565b91505092915050565b60008060008060808587031215613c1d57613c1c6130ed565b5b6000613c2b8782880161339c565b9450506020613c3c8782880161339c565b9350506040613c4d878288016132e7565b925050606085013567ffffffffffffffff811115613c6e57613c6d6130f2565b5b613c7a87828801613bd5565b91505092959194509250565b60008060408385031215613c9d57613c9c6130ed565b5b6000613cab8582860161339c565b9250506020613cbc8582860161339c565b9150509250929050565b7f4e487b7100000000000000000000000000000000000000000000000000000000600052602260045260246000fd5b60006002820490506001821680613d0d57607f821691505b60208210811415613d2157613d20613cc6565b5b50919050565b7f4552433732313a20617070726f76616c20746f2063757272656e74206f776e6560008201527f7200000000000000000000000000000000000000000000000000000000000000602082015250565b6000613d83602183613216565b9150613d8e82613d27565b604082019050919050565b60006020820190508181036000830152613db281613d76565b9050919050565b7f4552433732313a20617070726f76652063616c6c6572206973206e6f7420746f60008201527f6b656e206f776e6572206e6f7220617070726f76656420666f7220616c6c0000602082015250565b6000613e15603e83613216565b9150613e2082613db9565b604082019050919050565b60006020820190508181036000830152613e4481613e08565b9050919050565b7f4e6f20757365722064657461696c732070726f76696465640000000000000000600082015250565b6000613e81601883613216565b9150613e8c82613e4b565b602082019050919050565b60006020820190508181036000830152613eb081613e74565b9050919050565b7f546f6f206d616e792075736572737320746f2077686974656c69737400000000600082015250565b6000613eed601c83613216565b9150613ef882613eb7565b602082019050919050565b60006020820190508181036000830152613f1c81613ee0565b9050919050565b7f4e487b7100000000000000000000000000000000000000000000000000000000600052603260045260246000fd5b7f4e487b7100000000000000000000000000000000000000000000000000000000600052601160045260246000fd5b6000613f8c826132c6565b91506000821415613fa057613f9f613f52565b5b600182039050919050565b6000613fb6826132c6565b91507fffffffffffffffffffffffffffffffffffffffffffffffffffffffffffffffff821415613fe957613fe8613f52565b5b600182019050919050565b7f4552433732313a2063616c6c6572206973206e6f7420746f6b656e206f776e6560008201527f72206e6f7220617070726f766564000000000000000000000000000000000000602082015250565b6000614050602e83613216565b915061405b82613ff4565b604082019050919050565b6000602082019050818103600083015261407f81614043565b9050919050565b6000614091826132c6565b915061409c836132c6565b9250817fffffffffffffffffffffffffffffffffffffffffffffffffffffffffffffffff04831182151516156140d5576140d4613f52565b5b828202905092915050565b7f4e487b7100000000000000000000000000000000000000000000000000000000600052601260045260246000fd5b600061411a826132c6565b9150614125836132c6565b925082614135576141346140e0565b5b828204905092915050565b7f455243373231456e756d657261626c653a206f776e657220696e646578206f7560008201527f74206f6620626f756e6473000000000000000000000000000000000000000000602082015250565b600061419c602b83613216565b91506141a782614140565b604082019050919050565b600060208201905081810360008301526141cb8161418f565b9050919050565b7f455243373231456e756d657261626c653a20676c6f62616c20696e646578206f60008201527f7574206f6620626f756e64730000000000000000000000000000000000000000602082015250565b600061422e602c83613216565b9150614239826141d2565b604082019050919050565b6000602082019050818103600083015261425d81614221565b9050919050565b60008190508160005260206000209050919050565b6000815461428681613cf5565b6142908186613216565b945060018216600081146142ab57600181146142bd576142f0565b60ff19831686526020860193506142f0565b6142c685614264565b60005b838110156142e8578154818901526001820191506020810190506142c9565b808801955050505b50505092915050565b600060208201905081810360008301526143138184614279565b905092915050565b7f4552433732313a20696e76616c696420746f6b656e2049440000000000000000600082015250565b6000614351601883613216565b915061435c8261431b565b602082019050919050565b6000602082019050818103600083015261438081614344565b9050919050565b7f4552433732313a2061646472657373207a65726f206973206e6f74206120766160008201527f6c6964206f776e65720000000000000000000000000000000000000000000000602082015250565b60006143e3602983613216565b91506143ee82614387565b604082019050919050565b60006020820190508181036000830152614412816143d6565b9050919050565b7f41646472657373206e6f742077686974656c6973746564000000000000000000600082015250565b600061444f601783613216565b915061445a82614419565b602082019050919050565b6000602082019050818103600083015261447e81614442565b9050919050565b7f4552433732314d657461646174613a2055524920717565727920666f72206e6f60008201527f6e6578697374656e7420746f6b656e0000000000000000000000000000000000602082015250565b60006144e1602f83613216565b91506144ec82614485565b604082019050919050565b60006020820190508181036000830152614510816144d4565b9050919050565b600081905092915050565b600061452d8261320b565b6145378185614517565b9350614547818560208601613227565b80840191505092915050565b6000815461456081613cf5565b61456a8186614517565b945060018216600081146145855760018114614596576145c9565b60ff198316865281860193506145c9565b61459f85614264565b60005b838110156145c1578154818901526001820191506020810190506145a2565b838801955050505b50505092915050565b60006145de8286614522565b91506145ea8285614522565b91506145f68284614553565b9150819050949350505050565b7f4f776e61626c653a206e6577206f776e657220697320746865207a65726f206160008201527f6464726573730000000000000000000000000000000000000000000000000000602082015250565b600061465f602683613216565b915061466a82614603565b604082019050919050565b6000602082019050818103600083015261468e81614652565b9050919050565b7f4d6178696d756d20557365727320616c72656164792077686974656c6973746560008201527f6400000000000000000000000000000000000000000000000000000000000000602082015250565b60006146f1602183613216565b91506146fc82614695565b604082019050919050565b60006020820190508181036000830152614720816146e4565b9050919050565b7f4f776e61626c653a2063616c6c6572206973206e6f7420746865206f776e6572600082015250565b600061475d602083613216565b915061476882614727565b602082019050919050565b6000602082019050818103600083015261478c81614750565b9050919050565b7f4552433732313a207472616e736665722066726f6d20696e636f72726563742060008201527f6f776e6572000000000000000000000000000000000000000000000000000000602082015250565b60006147ef602583613216565b91506147fa82614793565b604082019050919050565b6000602082019050818103600083015261481e816147e2565b9050919050565b7f4552433732313a207472616e7366657220746f20746865207a65726f2061646460008201527f7265737300000000000000000000000000000000000000000000000000000000602082015250565b6000614881602483613216565b915061488c82614825565b604082019050919050565b600060208201905081810360008301526148b081614874565b9050919050565b60006148c2826132c6565b91506148cd836132c6565b9250828210156148e0576148df613f52565b5b828203905092915050565b60006148f6826132c6565b9150614901836132c6565b9250827fffffffffffffffffffffffffffffffffffffffffffffffffffffffffffffffff0382111561493657614935613f52565b5b828201905092915050565b7f4e6f20526f79616c74792064657461696c732070726f76696465640000000000600082015250565b6000614977601b83613216565b915061498282614941565b602082019050919050565b600060208201905081810360008301526149a68161496a565b9050919050565b7f546f6f206d616e7920726f79616c74792072656369657665727320646574616960008201527f6c73000000000000000000000000000000000000000000000000000000000000602082015250565b6000614a09602283613216565b9150614a14826149ad565b604082019050919050565b60006020820190508181036000830152614a38816149fc565b9050919050565b7f4d69736d61746368206f6620526f79616c74792072656369657665727320616e60008201527f6420746865697220666565730000000000000000000000000000000000000000602082015250565b6000614a9b602c83613216565b9150614aa682614a3f565b604082019050919050565b60006020820190508181036000830152614aca81614a8e565b9050919050565b7f455243323938313a20726f79616c7479206665652077696c6c2065786365656460008201527f2073616c65507269636500000000000000000000000000000000000000000000602082015250565b6000614b2d602a83613216565b9150614b3882614ad1565b604082019050919050565b60006020820190508181036000830152614b5c81614b20565b9050919050565b7f4552433732313a20617070726f766520746f2063616c6c657200000000000000600082015250565b6000614b99601983613216565b9150614ba482614b63565b602082019050919050565b60006020820190508181036000830152614bc881614b8c565b9050919050565b7f4552433732313a207472616e7366657220746f206e6f6e20455243373231526560008201527f63656976657220696d706c656d656e7465720000000000000000000000000000602082015250565b6000614c2b603283613216565b9150614c3682614bcf565b604082019050919050565b60006020820190508181036000830152614c5a81614c1e565b9050919050565b6000614c6c826132c6565b9150614c77836132c6565b925082614c8757614c866140e0565b5b828206905092915050565b600081519050919050565b600082825260208201905092915050565b6000614cb982614c92565b614cc38185614c9d565b9350614cd3818560208601613227565b614cdc8161325a565b840191505092915050565b6000608082019050614cfc600083018761335b565b614d09602083018661335b565b614d16604083018561356f565b8181036060830152614d288184614cae565b905095945050505050565b600081519050614d4281613123565b92915050565b600060208284031215614d5e57614d5d6130ed565b5b6000614d6c84828501614d33565b91505092915050565b7f4552433732313a206d696e7420746f20746865207a65726f2061646472657373600082015250565b6000614dab602083613216565b9150614db682614d75565b602082019050919050565b60006020820190508181036000830152614dda81614d9e565b9050919050565b7f4552433732313a20746f6b656e20616c7265616479206d696e74656400000000600082015250565b6000614e17601c83613216565b9150614e2282614de1565b602082019050919050565b60006020820190508181036000830152614e4681614e0a565b9050919050565b7f4e487b7100000000000000000000000000000000000000000000000000000000600052603160045260246000fdfea2646970667358221220a8e7de0371c8d55b452cc77f2a19d9f8a2223d8eb389cb7eddc90bf1e3a3cf7864736f6c63430008090033",
  "linkReferences": {},
  "deployedLinkReferences": {}
}