{
  "_format": "hh-sol-artifact-1",
  "contractName": "ERC721Factory",
  "sourceName": "contracts/factoryContracts/ERC721Factory.sol",
  "abi": [
    {
      "inputs": [
        {
          "internalType": "string",
          "name": "_name",
          "type": "string"
        },
        {
          "internalType": "string",
          "name": "_symbol",
          "type": "string"
        },
        {
          "internalType": "bool",
          "name": "defaultRoyalty",
          "type": "bool"
        },
        {
          "internalType": "address[]",
          "name": "royaltyReceiver",
          "type": "address[]"
        },
        {
          "internalType": "uint96[]",
          "name": "royaltyFeesInBips",
          "type": "uint96[]"
        }
      ],
      "stateMutability": "nonpayable",
      "type": "constructor"
    },
    {
      "anonymous": false,
      "inputs": [
        {
          "indexed": true,
          "internalType": "address",
          "name": "owner",
          "type": "address"
        },
        {
          "indexed": true,
          "internalType": "address",
          "name": "approved",
          "type": "address"
        },
        {
          "indexed": true,
          "internalType": "uint256",
          "name": "tokenId",
          "type": "uint256"
        }
      ],
      "name": "Approval",
      "type": "event"
    },
    {
      "anonymous": false,
      "inputs": [
        {
          "indexed": true,
          "internalType": "address",
          "name": "owner",
          "type": "address"
        },
        {
          "indexed": true,
          "internalType": "address",
          "name": "operator",
          "type": "address"
        },
        {
          "indexed": false,
          "internalType": "bool",
          "name": "approved",
          "type": "bool"
        }
      ],
      "name": "ApprovalForAll",
      "type": "event"
    },
    {
      "anonymous": false,
      "inputs": [
        {
          "indexed": true,
          "internalType": "address",
          "name": "previousOwner",
          "type": "address"
        },
        {
          "indexed": true,
          "internalType": "address",
          "name": "newOwner",
          "type": "address"
        }
      ],
      "name": "OwnershipTransferred",
      "type": "event"
    },
    {
      "anonymous": false,
      "inputs": [
        {
          "indexed": true,
          "internalType": "address",
          "name": "from",
          "type": "address"
        },
        {
          "indexed": true,
          "internalType": "address",
          "name": "to",
          "type": "address"
        },
        {
          "indexed": true,
          "internalType": "uint256",
          "name": "tokenId",
          "type": "uint256"
        }
      ],
      "name": "Transfer",
      "type": "event"
    },
    {
      "anonymous": false,
      "inputs": [
        {
          "indexed": false,
          "internalType": "bool",
          "name": "whitelistEnabled",
          "type": "bool"
        }
      ],
      "name": "WhiteListEnabled",
      "type": "event"
    },
    {
      "inputs": [
        {
          "internalType": "uint256",
          "name": "",
          "type": "uint256"
        }
      ],
      "name": "_creators",
      "outputs": [
        {
          "internalType": "address",
          "name": "",
          "type": "address"
        }
      ],
      "stateMutability": "view",
      "type": "function"
    },
    {
      "inputs": [
        {
          "internalType": "address",
          "name": "to",
          "type": "address"
        },
        {
          "internalType": "uint256",
          "name": "tokenId",
          "type": "uint256"
        }
      ],
      "name": "approve",
      "outputs": [],
      "stateMutability": "nonpayable",
      "type": "function"
    },
    {
      "inputs": [
        {
          "internalType": "address",
          "name": "owner",
          "type": "address"
        }
      ],
      "name": "balanceOf",
      "outputs": [
        {
          "internalType": "uint256",
          "name": "",
          "type": "uint256"
        }
      ],
      "stateMutability": "view",
      "type": "function"
    },
    {
      "inputs": [
        {
          "internalType": "uint256",
          "name": "tokenId",
          "type": "uint256"
        }
      ],
      "name": "getApproved",
      "outputs": [
        {
          "internalType": "address",
          "name": "",
          "type": "address"
        }
      ],
      "stateMutability": "view",
      "type": "function"
    },
    {
      "inputs": [
        {
          "internalType": "address",
          "name": "owner",
          "type": "address"
        },
        {
          "internalType": "address",
          "name": "operator",
          "type": "address"
        }
      ],
      "name": "isApprovedForAll",
      "outputs": [
        {
          "internalType": "bool",
          "name": "",
          "type": "bool"
        }
      ],
      "stateMutability": "view",
      "type": "function"
    },
    {
      "inputs": [],
      "name": "name",
      "outputs": [
        {
          "internalType": "string",
          "name": "",
          "type": "string"
        }
      ],
      "stateMutability": "view",
      "type": "function"
    },
    {
      "inputs": [],
      "name": "owner",
      "outputs": [
        {
          "internalType": "address",
          "name": "",
          "type": "address"
        }
      ],
      "stateMutability": "view",
      "type": "function"
    },
    {
      "inputs": [
        {
          "internalType": "uint256",
          "name": "tokenId",
          "type": "uint256"
        }
      ],
      "name": "ownerOf",
      "outputs": [
        {
          "internalType": "address",
          "name": "",
          "type": "address"
        }
      ],
      "stateMutability": "view",
      "type": "function"
    },
    {
      "inputs": [
        {
          "internalType": "address[]",
          "name": "currentAddresses",
          "type": "address[]"
        }
      ],
      "name": "removeWhitelist",
      "outputs": [],
      "stateMutability": "nonpayable",
      "type": "function"
    },
    {
      "inputs": [],
      "name": "renounceOwnership",
      "outputs": [],
      "stateMutability": "nonpayable",
      "type": "function"
    },
    {
      "inputs": [
        {
          "internalType": "uint256",
          "name": "_tokenId",
          "type": "uint256"
        },
        {
          "internalType": "uint256",
          "name": "_salePrice",
          "type": "uint256"
        }
      ],
      "name": "royaltyInfo",
      "outputs": [
        {
          "internalType": "address[]",
          "name": "",
          "type": "address[]"
        },
        {
          "internalType": "uint256[]",
          "name": "",
          "type": "uint256[]"
        }
      ],
      "stateMutability": "view",
      "type": "function"
    },
    {
      "inputs": [
        {
          "internalType": "address",
          "name": "creator",
          "type": "address"
        },
        {
          "internalType": "bool",
          "name": "tokenRoyalty",
          "type": "bool"
        },
        {
          "internalType": "address[]",
          "name": "royaltyReceiver",
          "type": "address[]"
        },
        {
          "internalType": "uint96[]",
          "name": "tokenRoyaltyInBips",
          "type": "uint96[]"
        }
      ],
      "name": "safeMint",
      "outputs": [],
      "stateMutability": "nonpayable",
      "type": "function"
    },
    {
      "inputs": [
        {
          "internalType": "address",
          "name": "from",
          "type": "address"
        },
        {
          "internalType": "address",
          "name": "to",
          "type": "address"
        },
        {
          "internalType": "uint256",
          "name": "tokenId",
          "type": "uint256"
        }
      ],
      "name": "safeTransferFrom",
      "outputs": [],
      "stateMutability": "nonpayable",
      "type": "function"
    },
    {
      "inputs": [
        {
          "internalType": "address",
          "name": "from",
          "type": "address"
        },
        {
          "internalType": "address",
          "name": "to",
          "type": "address"
        },
        {
          "internalType": "uint256",
          "name": "tokenId",
          "type": "uint256"
        },
        {
          "internalType": "bytes",
          "name": "data",
          "type": "bytes"
        }
      ],
      "name": "safeTransferFrom",
      "outputs": [],
      "stateMutability": "nonpayable",
      "type": "function"
    },
    {
      "inputs": [
        {
          "internalType": "address",
          "name": "operator",
          "type": "address"
        },
        {
          "internalType": "bool",
          "name": "approved",
          "type": "bool"
        }
      ],
      "name": "setApprovalForAll",
      "outputs": [],
      "stateMutability": "nonpayable",
      "type": "function"
    },
    {
      "inputs": [
        {
          "internalType": "string",
          "name": "_uriSuffix",
          "type": "string"
        }
      ],
      "name": "setUriSuffix",
      "outputs": [],
      "stateMutability": "nonpayable",
      "type": "function"
    },
    {
      "inputs": [
        {
          "internalType": "address[]",
          "name": "newAddresses",
          "type": "address[]"
        }
      ],
      "name": "setWhitelist",
      "outputs": [],
      "stateMutability": "nonpayable",
      "type": "function"
    },
    {
      "inputs": [
        {
          "internalType": "bool",
          "name": "_state",
          "type": "bool"
        }
      ],
      "name": "setWhitelistEnabled",
      "outputs": [],
      "stateMutability": "nonpayable",
      "type": "function"
    },
    {
      "inputs": [
        {
          "internalType": "bytes4",
          "name": "interfaceId",
          "type": "bytes4"
        }
      ],
      "name": "supportsInterface",
      "outputs": [
        {
          "internalType": "bool",
          "name": "",
          "type": "bool"
        }
      ],
      "stateMutability": "view",
      "type": "function"
    },
    {
      "inputs": [],
      "name": "symbol",
      "outputs": [
        {
          "internalType": "string",
          "name": "",
          "type": "string"
        }
      ],
      "stateMutability": "view",
      "type": "function"
    },
    {
      "inputs": [
        {
          "internalType": "uint256",
          "name": "index",
          "type": "uint256"
        }
      ],
      "name": "tokenByIndex",
      "outputs": [
        {
          "internalType": "uint256",
          "name": "",
          "type": "uint256"
        }
      ],
      "stateMutability": "view",
      "type": "function"
    },
    {
      "inputs": [
        {
          "internalType": "address",
          "name": "owner",
          "type": "address"
        },
        {
          "internalType": "uint256",
          "name": "index",
          "type": "uint256"
        }
      ],
      "name": "tokenOfOwnerByIndex",
      "outputs": [
        {
          "internalType": "uint256",
          "name": "",
          "type": "uint256"
        }
      ],
      "stateMutability": "view",
      "type": "function"
    },
    {
      "inputs": [
        {
          "internalType": "uint256",
          "name": "_tokenId",
          "type": "uint256"
        }
      ],
      "name": "tokenURI",
      "outputs": [
        {
          "internalType": "string",
          "name": "",
          "type": "string"
        }
      ],
      "stateMutability": "view",
      "type": "function"
    },
    {
      "inputs": [],
      "name": "totalSupply",
      "outputs": [
        {
          "internalType": "uint256",
          "name": "",
          "type": "uint256"
        }
      ],
      "stateMutability": "view",
      "type": "function"
    },
    {
      "inputs": [
        {
          "internalType": "address",
          "name": "from",
          "type": "address"
        },
        {
          "internalType": "address",
          "name": "to",
          "type": "address"
        },
        {
          "internalType": "uint256",
          "name": "tokenId",
          "type": "uint256"
        }
      ],
      "name": "transferFrom",
      "outputs": [],
      "stateMutability": "nonpayable",
      "type": "function"
    },
    {
      "inputs": [
        {
          "internalType": "address",
          "name": "newOwner",
          "type": "address"
        }
      ],
      "name": "transferOwnership",
      "outputs": [],
      "stateMutability": "nonpayable",
      "type": "function"
    },
    {
      "inputs": [],
      "name": "uriSuffix",
      "outputs": [
        {
          "internalType": "string",
          "name": "",
          "type": "string"
        }
      ],
      "stateMutability": "view",
      "type": "function"
    },
    {
      "inputs": [
        {
          "internalType": "address",
          "name": "",
          "type": "address"
        }
      ],
      "name": "whitelist",
      "outputs": [
        {
          "internalType": "bool",
          "name": "",
          "type": "bool"
        }
      ],
      "stateMutability": "view",
      "type": "function"
    },
    {
      "inputs": [],
      "name": "whitelistEnabled",
      "outputs": [
        {
          "internalType": "bool",
          "name": "",
          "type": "bool"
        }
      ],
      "stateMutability": "view",
      "type": "function"
    }
  ],
  "bytecode": "0x60806040526040518060400160405280600581526020017f2e6a736f6e000000000000000000000000000000000000000000000000000000815250600e9080519060200190620000519291906200045c565b506000600f556000601060006101000a81548160ff0219169083151502179055503480156200007f57600080fd5b5060405162005c4938038062005c498339818101604052810190620000a5919062000aa3565b84848160009080519060200190620000bf9291906200045c565b508060019080519060200190620000d89291906200045c565b505050620000fb620000ef6200018360201b60201c565b6200018b60201b60201c565b6000859050600085905060008251141580156200011a57506000815114155b6200015c576040517f08c379a0000000000000000000000000000000000000000000000000000000008152600401620001539062000c08565b60405180910390fd5b841562000176576200017584846200025160201b60201c565b5b5050505050505062000fdc565b600033905090565b6000600d60009054906101000a900473ffffffffffffffffffffffffffffffffffffffff16905081600d60006101000a81548173ffffffffffffffffffffffffffffffffffffffff021916908373ffffffffffffffffffffffffffffffffffffffff1602179055508173ffffffffffffffffffffffffffffffffffffffff168173ffffffffffffffffffffffffffffffffffffffff167f8be0079c531659141344cd1fd0a4f28419497f9722a3daafe3b4186f6b6457e060405160405180910390a35050565b600082511162000298576040517f08c379a00000000000000000000000000000000000000000000000000000000081526004016200028f9062000c7a565b60405180910390fd5b600582511115620002e0576040517f08c379a0000000000000000000000000000000000000000000000000000000008152600401620002d79062000d12565b60405180910390fd5b805182511462000327576040517f08c379a00000000000000000000000000000000000000000000000000000000081526004016200031e9062000daa565b60405180910390fd5b6000805b825181101562000386578281815181106200034b576200034a62000dcc565b5b60200260200101516bffffffffffffffffffffffff16826200036e919062000e34565b915080806200037d9062000e91565b9150506200032b565b50620003976200045260201b60201c565b6bffffffffffffffffffffffff16811115620003ea576040517f08c379a0000000000000000000000000000000000000000000000000000000008152600401620003e19062000f55565b60405180910390fd5b606080849050839150604051806040016040528082815260200183815250600a600082015181600001908051906020019062000428929190620004ed565b506020820151816001019080519060200190620004479291906200057c565b509050505050505050565b6000612710905090565b8280546200046a9062000fa6565b90600052602060002090601f0160209004810192826200048e5760008555620004da565b82601f10620004a957805160ff1916838001178555620004da565b82800160010185558215620004da579182015b82811115620004d9578251825591602001919060010190620004bc565b5b509050620004e991906200064b565b5090565b82805482825590600052602060002090810192821562000569579160200282015b82811115620005685782518260006101000a81548173ffffffffffffffffffffffffffffffffffffffff021916908373ffffffffffffffffffffffffffffffffffffffff160217905550916020019190600101906200050e565b5b5090506200057891906200064b565b5090565b82805482825590600052602060002090600101600290048101928215620006385791602002820160005b83821115620005fc57835183826101000a8154816bffffffffffffffffffffffff02191690836bffffffffffffffffffffffff1602179055509260200192600c01602081600b01049283019260010302620005a6565b8015620006365782816101000a8154906bffffffffffffffffffffffff0219169055600c01602081600b01049283019260010302620005fc565b505b5090506200064791906200064b565b5090565b5b80821115620006665760008160009055506001016200064c565b5090565b6000604051905090565b600080fd5b600080fd5b600080fd5b600080fd5b6000601f19601f8301169050919050565b7f4e487b7100000000000000000000000000000000000000000000000000000000600052604160045260246000fd5b620006d38262000688565b810181811067ffffffffffffffff82111715620006f557620006f462000699565b5b80604052505050565b60006200070a6200066a565b9050620007188282620006c8565b919050565b600067ffffffffffffffff8211156200073b576200073a62000699565b5b620007468262000688565b9050602081019050919050565b60005b838110156200077357808201518184015260208101905062000756565b8381111562000783576000848401525b50505050565b6000620007a06200079a846200071d565b620006fe565b905082815260208101848484011115620007bf57620007be62000683565b5b620007cc84828562000753565b509392505050565b600082601f830112620007ec57620007eb6200067e565b5b8151620007fe84826020860162000789565b91505092915050565b60008115159050919050565b6200081e8162000807565b81146200082a57600080fd5b50565b6000815190506200083e8162000813565b92915050565b600067ffffffffffffffff82111562000862576200086162000699565b5b602082029050602081019050919050565b600080fd5b600073ffffffffffffffffffffffffffffffffffffffff82169050919050565b6000620008a58262000878565b9050919050565b620008b78162000898565b8114620008c357600080fd5b50565b600081519050620008d781620008ac565b92915050565b6000620008f4620008ee8462000844565b620006fe565b905080838252602082019050602084028301858111156200091a576200091962000873565b5b835b81811015620009475780620009328882620008c6565b8452602084019350506020810190506200091c565b5050509392505050565b600082601f8301126200096957620009686200067e565b5b81516200097b848260208601620008dd565b91505092915050565b600067ffffffffffffffff821115620009a257620009a162000699565b5b602082029050602081019050919050565b60006bffffffffffffffffffffffff82169050919050565b620009d681620009b3565b8114620009e257600080fd5b50565b600081519050620009f681620009cb565b92915050565b600062000a1362000a0d8462000984565b620006fe565b9050808382526020820190506020840283018581111562000a395762000a3862000873565b5b835b8181101562000a66578062000a518882620009e5565b84526020840193505060208101905062000a3b565b5050509392505050565b600082601f83011262000a885762000a876200067e565b5b815162000a9a848260208601620009fc565b91505092915050565b600080600080600060a0868803121562000ac25762000ac162000674565b5b600086015167ffffffffffffffff81111562000ae35762000ae262000679565b5b62000af188828901620007d4565b955050602086015167ffffffffffffffff81111562000b155762000b1462000679565b5b62000b2388828901620007d4565b945050604062000b36888289016200082d565b935050606086015167ffffffffffffffff81111562000b5a5762000b5962000679565b5b62000b688882890162000951565b925050608086015167ffffffffffffffff81111562000b8c5762000b8b62000679565b5b62000b9a8882890162000a70565b9150509295509295909350565b600082825260208201905092915050565b7f4552433732313a2043686f6f73652061206e616d6520616e642073796d626f6c600082015250565b600062000bf060208362000ba7565b915062000bfd8262000bb8565b602082019050919050565b6000602082019050818103600083015262000c238162000be1565b9050919050565b7f4e6f20526f79616c74792064657461696c732070726f76696465640000000000600082015250565b600062000c62601b8362000ba7565b915062000c6f8262000c2a565b602082019050919050565b6000602082019050818103600083015262000c958162000c53565b9050919050565b7f546f6f206d616e7920726f79616c74792072656369657665727320646574616960008201527f6c73000000000000000000000000000000000000000000000000000000000000602082015250565b600062000cfa60228362000ba7565b915062000d078262000c9c565b604082019050919050565b6000602082019050818103600083015262000d2d8162000ceb565b9050919050565b7f4d69736d61746368206f6620526f79616c74792072656369657665727320616e60008201527f6420746865697220666565730000000000000000000000000000000000000000602082015250565b600062000d92602c8362000ba7565b915062000d9f8262000d34565b604082019050919050565b6000602082019050818103600083015262000dc58162000d83565b9050919050565b7f4e487b7100000000000000000000000000000000000000000000000000000000600052603260045260246000fd5b6000819050919050565b7f4e487b7100000000000000000000000000000000000000000000000000000000600052601160045260246000fd5b600062000e418262000dfb565b915062000e4e8362000dfb565b9250827fffffffffffffffffffffffffffffffffffffffffffffffffffffffffffffffff0382111562000e865762000e8562000e05565b5b828201905092915050565b600062000e9e8262000dfb565b91507fffffffffffffffffffffffffffffffffffffffffffffffffffffffffffffffff82141562000ed45762000ed362000e05565b5b600182019050919050565b7f455243323938313a20726f79616c7479206665652077696c6c2065786365656460008201527f2073616c65507269636500000000000000000000000000000000000000000000602082015250565b600062000f3d602a8362000ba7565b915062000f4a8262000edf565b604082019050919050565b6000602082019050818103600083015262000f708162000f2e565b9050919050565b7f4e487b7100000000000000000000000000000000000000000000000000000000600052602260045260246000fd5b6000600282049050600182168062000fbf57607f821691505b6020821081141562000fd65762000fd562000f77565b5b50919050565b614c5d8062000fec6000396000f3fe608060405234801561001057600080fd5b50600436106101cf5760003560e01c806351fb012d1161010457806395d89b41116100a2578063c87b56dd11610071578063c87b56dd1461053f578063e985e9c51461056f578063f2fde38b1461059f578063f4217648146105bb576101cf565b806395d89b41146104b95780639b19251a146104d7578063a22cb46514610507578063b88d4fde14610523576101cf565b806370a08231116100de57806370a0823114610445578063715018a6146104755780638784a4c91461047f5780638da5cb5b1461049b576101cf565b806351fb012d146103d95780635503a0e8146103f75780636352211e14610415576101cf565b806323245216116101715780632f745c591161014b5780632f745c591461032d57806342842e0e1461035d5780634816edf4146103795780634f6ccce7146103a9576101cf565b806323245216146102c457806323b872dd146102e05780632a55205a146102fc576101cf565b8063081812fc116101ad578063081812fc1461023e578063095ea7b31461026e57806316ba10e01461028a57806318160ddd146102a6576101cf565b806301ffc9a7146101d4578063052d9e7e1461020457806306fdde0314610220575b600080fd5b6101ee60048036038101906101e99190612f9c565b6105d7565b6040516101fb9190612fe4565b60405180910390f35b61021e6004803603810190610219919061302b565b6105e9565b005b610228610654565b60405161023591906130f1565b60405180910390f35b61025860048036038101906102539190613149565b6106e6565b60405161026591906131b7565b60405180910390f35b610288600480360381019061028391906131fe565b61072c565b005b6102a4600480360381019061029f9190613373565b610844565b005b6102ae610866565b6040516102bb91906133cb565b60405180910390f35b6102de60048036038101906102d99190613446565b610873565b005b6102fa60048036038101906102f59190613493565b6109bc565b005b610316600480360381019061031191906134e6565b610a1c565b6040516103249291906136a2565b60405180910390f35b610347600480360381019061034291906131fe565b610da3565b60405161035491906133cb565b60405180910390f35b61037760048036038101906103729190613493565b610e48565b005b610393600480360381019061038e9190613149565b610e68565b6040516103a091906131b7565b60405180910390f35b6103c360048036038101906103be9190613149565b610e9b565b6040516103d091906133cb565b60405180910390f35b6103e1610f0c565b6040516103ee9190612fe4565b60405180910390f35b6103ff610f1f565b60405161040c91906130f1565b60405180910390f35b61042f600480360381019061042a9190613149565b610fad565b60405161043c91906131b7565b60405180910390f35b61045f600480360381019061045a91906136d9565b61105f565b60405161046c91906133cb565b60405180910390f35b61047d611117565b005b610499600480360381019061049491906138d0565b61112b565b005b6104a36112f3565b6040516104b091906131b7565b60405180910390f35b6104c161131d565b6040516104ce91906130f1565b60405180910390f35b6104f160048036038101906104ec91906136d9565b6113af565b6040516104fe9190612fe4565b60405180910390f35b610521600480360381019061051c919061396f565b6113cf565b005b61053d60048036038101906105389190613a50565b6113e5565b005b61055960048036038101906105549190613149565b611447565b60405161056691906130f1565b60405180910390f35b61058960048036038101906105849190613ad3565b6114f1565b6040516105969190612fe4565b60405180910390f35b6105b960048036038101906105b491906136d9565b611585565b005b6105d560048036038101906105d09190613446565b611609565b005b60006105e2826117a1565b9050919050565b6105f161181b565b80601060006101000a81548160ff0219169083151502179055507f218e591c4b0d49651b4b42843cb8cc59080122def3d2271f56ef2e21896753ec601060009054906101000a900460ff166040516106499190612fe4565b60405180910390a150565b60606000805461066390613b42565b80601f016020809104026020016040519081016040528092919081815260200182805461068f90613b42565b80156106dc5780601f106106b1576101008083540402835291602001916106dc565b820191906000526020600020905b8154815290600101906020018083116106bf57829003601f168201915b5050505050905090565b60006106f182611899565b6004600083815260200190815260200160002060009054906101000a900473ffffffffffffffffffffffffffffffffffffffff169050919050565b600061073782610fad565b90508073ffffffffffffffffffffffffffffffffffffffff168373ffffffffffffffffffffffffffffffffffffffff1614156107a8576040517f08c379a000000000000000000000000000000000000000000000000000000000815260040161079f90613be6565b60405180910390fd5b8073ffffffffffffffffffffffffffffffffffffffff166107c76118e4565b73ffffffffffffffffffffffffffffffffffffffff1614806107f657506107f5816107f06118e4565b6114f1565b5b610835576040517f08c379a000000000000000000000000000000000000000000000000000000000815260040161082c90613c78565b60405180910390fd5b61083f83836118ec565b505050565b61084c61181b565b80600e9080519060200190610862929190612d3b565b5050565b6000600880549050905090565b61087b61181b565b600082829050116108c1576040517f08c379a00000000000000000000000000000000000000000000000000000000081526004016108b890613ce4565b60405180910390fd5b6005828290501115610908576040517f08c379a00000000000000000000000000000000000000000000000000000000081526004016108ff90613d50565b60405180910390fd5b60005b828290508110156109b7576012600084848481811061092d5761092c613d70565b5b905060200201602081019061094291906136d9565b73ffffffffffffffffffffffffffffffffffffffff1673ffffffffffffffffffffffffffffffffffffffff16815260200190815260200160002060006101000a81549060ff0219169055600f600081548092919061099f90613dce565b919050555080806109af90613df8565b91505061090b565b505050565b6109cd6109c76118e4565b826119a5565b610a0c576040517f08c379a0000000000000000000000000000000000000000000000000000000008152600401610a0390613eb3565b60405180910390fd5b610a17838383611a3a565b505050565b6060806000600c600086815260200190815260200160002060405180604001604052908160008201805480602002602001604051908101604052809291908181526020018280548015610ac457602002820191906000526020600020905b8160009054906101000a900473ffffffffffffffffffffffffffffffffffffffff1673ffffffffffffffffffffffffffffffffffffffff1681526020019060010190808311610a7a575b5050505050815260200160018201805480602002602001604051908101604052809291908181526020018280548015610b5857602002820191906000526020600020906000905b82829054906101000a90046bffffffffffffffffffffffff166bffffffffffffffffffffffff16815260200190600c0190602082600b01049283019260010382029150808411610b0b5790505b505050505081525050905060008160000151511415610ca357600a60405180604001604052908160008201805480602002602001604051908101604052809291908181526020018280548015610c0357602002820191906000526020600020905b8160009054906101000a900473ffffffffffffffffffffffffffffffffffffffff1673ffffffffffffffffffffffffffffffffffffffff1681526020019060010190808311610bb9575b5050505050815260200160018201805480602002602001604051908101604052809291908181526020018280548015610c9757602002820191906000526020600020906000905b82829054906101000a90046bffffffffffffffffffffffff166bffffffffffffffffffffffff16815260200190600c0190602082600b01049283019260010382029150808411610c4a5790505b50505050508152505090505b600081600001515167ffffffffffffffff811115610cc457610cc3613248565b5b604051908082528060200260200182016040528015610cf25781602001602082028036833780820191505090505b50905060005b826000015151811015610d8f57610d0d611ca1565b6bffffffffffffffffffffffff1683602001518281518110610d3257610d31613d70565b5b60200260200101516bffffffffffffffffffffffff1687610d539190613ed3565b610d5d9190613f5c565b828281518110610d7057610d6f613d70565b5b6020026020010181815250508080610d8790613df8565b915050610cf8565b508160000151819350935050509250929050565b6000610dae8361105f565b8210610def576040517f08c379a0000000000000000000000000000000000000000000000000000000008152600401610de690613fff565b60405180910390fd5b600660008473ffffffffffffffffffffffffffffffffffffffff1673ffffffffffffffffffffffffffffffffffffffff168152602001908152602001600020600083815260200190815260200160002054905092915050565b610e63838383604051806020016040528060008152506113e5565b505050565b60116020528060005260406000206000915054906101000a900473ffffffffffffffffffffffffffffffffffffffff1681565b6000610ea5610866565b8210610ee6576040517f08c379a0000000000000000000000000000000000000000000000000000000008152600401610edd90614091565b60405180910390fd5b60088281548110610efa57610ef9613d70565b5b90600052602060002001549050919050565b601060009054906101000a900460ff1681565b600e8054610f2c90613b42565b80601f0160208091040260200160405190810160405280929190818152602001828054610f5890613b42565b8015610fa55780601f10610f7a57610100808354040283529160200191610fa5565b820191906000526020600020905b815481529060010190602001808311610f8857829003601f168201915b505050505081565b6000806002600084815260200190815260200160002060009054906101000a900473ffffffffffffffffffffffffffffffffffffffff169050600073ffffffffffffffffffffffffffffffffffffffff168173ffffffffffffffffffffffffffffffffffffffff161415611056576040517f08c379a000000000000000000000000000000000000000000000000000000000815260040161104d906140fd565b60405180910390fd5b80915050919050565b60008073ffffffffffffffffffffffffffffffffffffffff168273ffffffffffffffffffffffffffffffffffffffff1614156110d0576040517f08c379a00000000000000000000000000000000000000000000000000000000081526004016110c79061418f565b60405180910390fd5b600360008373ffffffffffffffffffffffffffffffffffffffff1673ffffffffffffffffffffffffffffffffffffffff168152602001908152602001600020549050919050565b61111f61181b565b6111296000611cab565b565b60001515601060009054906101000a900460ff16151514156111bd5761114f6112f3565b73ffffffffffffffffffffffffffffffffffffffff163373ffffffffffffffffffffffffffffffffffffffff16146111bc576040517f08c379a00000000000000000000000000000000000000000000000000000000081526004016111b3906141fb565b60405180910390fd5b5b60011515601060009054906101000a900460ff161515141561126657601260003373ffffffffffffffffffffffffffffffffffffffff1673ffffffffffffffffffffffffffffffffffffffff16815260200190815260200160002060009054906101000a900460ff16611265576040517f08c379a000000000000000000000000000000000000000000000000000000000815260040161125c906141fb565b60405180910390fd5b5b60006112726013611d71565b905061127e8582611d7f565b846011600083815260200190815260200160002060006101000a81548173ffffffffffffffffffffffffffffffffffffffff021916908373ffffffffffffffffffffffffffffffffffffffff16021790555083156112e2576112e1818484611d9d565b5b6112ec6013611f8f565b5050505050565b6000600d60009054906101000a900473ffffffffffffffffffffffffffffffffffffffff16905090565b60606001805461132c90613b42565b80601f016020809104026020016040519081016040528092919081815260200182805461135890613b42565b80156113a55780601f1061137a576101008083540402835291602001916113a5565b820191906000526020600020905b81548152906001019060200180831161138857829003601f168201915b5050505050905090565b60126020528060005260406000206000915054906101000a900460ff1681565b6113e16113da6118e4565b8383611fa5565b5050565b6113f66113f06118e4565b836119a5565b611435576040517f08c379a000000000000000000000000000000000000000000000000000000000815260040161142c90613eb3565b60405180910390fd5b61144184848484612112565b50505050565b60606114528261216e565b611491576040517f08c379a00000000000000000000000000000000000000000000000000000000081526004016114889061428d565b60405180910390fd5b600061149b6121da565b905060008151116114bb57604051806020016040528060008152506114e9565b806114c5846121f1565b600e6040516020016114d99392919061437d565b6040516020818303038152906040525b915050919050565b6000600560008473ffffffffffffffffffffffffffffffffffffffff1673ffffffffffffffffffffffffffffffffffffffff16815260200190815260200160002060008373ffffffffffffffffffffffffffffffffffffffff1673ffffffffffffffffffffffffffffffffffffffff16815260200190815260200160002060009054906101000a900460ff16905092915050565b61158d61181b565b600073ffffffffffffffffffffffffffffffffffffffff168173ffffffffffffffffffffffffffffffffffffffff1614156115fd576040517f08c379a00000000000000000000000000000000000000000000000000000000081526004016115f490614420565b60405180910390fd5b61160681611cab565b50565b61161161181b565b60008282905011611657576040517f08c379a000000000000000000000000000000000000000000000000000000000815260040161164e90613ce4565b60405180910390fd5b6107d0828290501061169e576040517f08c379a000000000000000000000000000000000000000000000000000000000815260040161169590613d50565b60405180910390fd5b60005b8282905081101561179c576107d0600f54106116f2576040517f08c379a00000000000000000000000000000000000000000000000000000000081526004016116e9906144b2565b60405180910390fd5b60016012600085858581811061170b5761170a613d70565b5b905060200201602081019061172091906136d9565b73ffffffffffffffffffffffffffffffffffffffff1673ffffffffffffffffffffffffffffffffffffffff16815260200190815260200160002060006101000a81548160ff021916908315150217905550600f600081548092919061178490613df8565b9190505550808061179490613df8565b9150506116a1565b505050565b60007f2a55205a000000000000000000000000000000000000000000000000000000007bffffffffffffffffffffffffffffffffffffffffffffffffffffffff1916827bffffffffffffffffffffffffffffffffffffffffffffffffffffffff19161480611814575061181382612352565b5b9050919050565b6118236118e4565b73ffffffffffffffffffffffffffffffffffffffff166118416112f3565b73ffffffffffffffffffffffffffffffffffffffff1614611897576040517f08c379a000000000000000000000000000000000000000000000000000000000815260040161188e9061451e565b60405180910390fd5b565b6118a28161216e565b6118e1576040517f08c379a00000000000000000000000000000000000000000000000000000000081526004016118d8906140fd565b60405180910390fd5b50565b600033905090565b816004600083815260200190815260200160002060006101000a81548173ffffffffffffffffffffffffffffffffffffffff021916908373ffffffffffffffffffffffffffffffffffffffff160217905550808273ffffffffffffffffffffffffffffffffffffffff1661195f83610fad565b73ffffffffffffffffffffffffffffffffffffffff167f8c5be1e5ebec7d5bd14f71427d1e84f3dd0314c0f7b2291e5b200ac8c7c3b92560405160405180910390a45050565b6000806119b183610fad565b90508073ffffffffffffffffffffffffffffffffffffffff168473ffffffffffffffffffffffffffffffffffffffff1614806119f357506119f281856114f1565b5b80611a3157508373ffffffffffffffffffffffffffffffffffffffff16611a19846106e6565b73ffffffffffffffffffffffffffffffffffffffff16145b91505092915050565b8273ffffffffffffffffffffffffffffffffffffffff16611a5a82610fad565b73ffffffffffffffffffffffffffffffffffffffff1614611ab0576040517f08c379a0000000000000000000000000000000000000000000000000000000008152600401611aa7906145b0565b60405180910390fd5b600073ffffffffffffffffffffffffffffffffffffffff168273ffffffffffffffffffffffffffffffffffffffff161415611b20576040517f08c379a0000000000000000000000000000000000000000000000000000000008152600401611b1790614642565b60405180910390fd5b611b2b8383836123cc565b611b366000826118ec565b6001600360008573ffffffffffffffffffffffffffffffffffffffff1673ffffffffffffffffffffffffffffffffffffffff1681526020019081526020016000206000828254611b869190614662565b925050819055506001600360008473ffffffffffffffffffffffffffffffffffffffff1673ffffffffffffffffffffffffffffffffffffffff1681526020019081526020016000206000828254611bdd9190614696565b92505081905550816002600083815260200190815260200160002060006101000a81548173ffffffffffffffffffffffffffffffffffffffff021916908373ffffffffffffffffffffffffffffffffffffffff160217905550808273ffffffffffffffffffffffffffffffffffffffff168473ffffffffffffffffffffffffffffffffffffffff167fddf252ad1be2c89b69c2b068fc378daa952ba7f163c4a11628f55a4df523b3ef60405160405180910390a4611c9c8383836123dc565b505050565b6000612710905090565b6000600d60009054906101000a900473ffffffffffffffffffffffffffffffffffffffff16905081600d60006101000a81548173ffffffffffffffffffffffffffffffffffffffff021916908373ffffffffffffffffffffffffffffffffffffffff1602179055508173ffffffffffffffffffffffffffffffffffffffff168173ffffffffffffffffffffffffffffffffffffffff167f8be0079c531659141344cd1fd0a4f28419497f9722a3daafe3b4186f6b6457e060405160405180910390a35050565b600081600001549050919050565b611d998282604051806020016040528060008152506123e1565b5050565b6000825111611de1576040517f08c379a0000000000000000000000000000000000000000000000000000000008152600401611dd890614738565b60405180910390fd5b600582511115611e26576040517f08c379a0000000000000000000000000000000000000000000000000000000008152600401611e1d906147ca565b60405180910390fd5b8051825114611e6a576040517f08c379a0000000000000000000000000000000000000000000000000000000008152600401611e619061485c565b60405180910390fd5b6000805b8251811015611ec057828181518110611e8a57611e89613d70565b5b60200260200101516bffffffffffffffffffffffff1682611eab9190614696565b91508080611eb890613df8565b915050611e6e565b50611ec9611ca1565b6bffffffffffffffffffffffff16811115611f19576040517f08c379a0000000000000000000000000000000000000000000000000000000008152600401611f10906148ee565b60405180910390fd5b606080849050839150604051806040016040528082815260200183815250600c60008881526020019081526020016000206000820151816000019080519060200190611f66929190612dc1565b506020820151816001019080519060200190611f83929190612e4b565b50905050505050505050565b6001816000016000828254019250508190555050565b8173ffffffffffffffffffffffffffffffffffffffff168373ffffffffffffffffffffffffffffffffffffffff161415612014576040517f08c379a000000000000000000000000000000000000000000000000000000000815260040161200b9061495a565b60405180910390fd5b80600560008573ffffffffffffffffffffffffffffffffffffffff1673ffffffffffffffffffffffffffffffffffffffff16815260200190815260200160002060008473ffffffffffffffffffffffffffffffffffffffff1673ffffffffffffffffffffffffffffffffffffffff16815260200190815260200160002060006101000a81548160ff0219169083151502179055508173ffffffffffffffffffffffffffffffffffffffff168373ffffffffffffffffffffffffffffffffffffffff167f17307eab39ab6107e8899845ad3d59bd9653f200f220920489ca2b5937696c31836040516121059190612fe4565b60405180910390a3505050565b61211d848484611a3a565b6121298484848461243c565b612168576040517f08c379a000000000000000000000000000000000000000000000000000000000815260040161215f906149ec565b60405180910390fd5b50505050565b60008073ffffffffffffffffffffffffffffffffffffffff166002600084815260200190815260200160002060009054906101000a900473ffffffffffffffffffffffffffffffffffffffff1673ffffffffffffffffffffffffffffffffffffffff1614159050919050565b606060405180602001604052806000815250905090565b60606000821415612239576040518060400160405280600181526020017f3000000000000000000000000000000000000000000000000000000000000000815250905061234d565b600082905060005b6000821461226b57808061225490613df8565b915050600a826122649190613f5c565b9150612241565b60008167ffffffffffffffff81111561228757612286613248565b5b6040519080825280601f01601f1916602001820160405280156122b95781602001600182028036833780820191505090505b5090505b60008514612346576001826122d29190614662565b9150600a856122e19190614a0c565b60306122ed9190614696565b60f81b81838151811061230357612302613d70565b5b60200101907effffffffffffffffffffffffffffffffffffffffffffffffffffffffffffff1916908160001a905350600a8561233f9190613f5c565b94506122bd565b8093505050505b919050565b60007f780e9d63000000000000000000000000000000000000000000000000000000007bffffffffffffffffffffffffffffffffffffffffffffffffffffffff1916827bffffffffffffffffffffffffffffffffffffffffffffffffffffffff191614806123c557506123c4826125d3565b5b9050919050565b6123d78383836126b5565b505050565b505050565b6123eb83836127c9565b6123f8600084848461243c565b612437576040517f08c379a000000000000000000000000000000000000000000000000000000000815260040161242e906149ec565b60405180910390fd5b505050565b600061245d8473ffffffffffffffffffffffffffffffffffffffff166129a3565b156125c6578373ffffffffffffffffffffffffffffffffffffffff1663150b7a026124866118e4565b8786866040518563ffffffff1660e01b81526004016124a89493929190614a92565b602060405180830381600087803b1580156124c257600080fd5b505af19250505080156124f357506040513d601f19601f820116820180604052508101906124f09190614af3565b60015b612576573d8060008114612523576040519150601f19603f3d011682016040523d82523d6000602084013e612528565b606091505b5060008151141561256e576040517f08c379a0000000000000000000000000000000000000000000000000000000008152600401612565906149ec565b60405180910390fd5b805181602001fd5b63150b7a0260e01b7bffffffffffffffffffffffffffffffffffffffffffffffffffffffff1916817bffffffffffffffffffffffffffffffffffffffffffffffffffffffff1916149150506125cb565b600190505b949350505050565b60007f80ac58cd000000000000000000000000000000000000000000000000000000007bffffffffffffffffffffffffffffffffffffffffffffffffffffffff1916827bffffffffffffffffffffffffffffffffffffffffffffffffffffffff1916148061269e57507f5b5e139f000000000000000000000000000000000000000000000000000000007bffffffffffffffffffffffffffffffffffffffffffffffffffffffff1916827bffffffffffffffffffffffffffffffffffffffffffffffffffffffff1916145b806126ae57506126ad826129c6565b5b9050919050565b6126c0838383612a30565b600073ffffffffffffffffffffffffffffffffffffffff168373ffffffffffffffffffffffffffffffffffffffff161415612703576126fe81612a35565b612742565b8173ffffffffffffffffffffffffffffffffffffffff168373ffffffffffffffffffffffffffffffffffffffff1614612741576127408382612a7e565b5b5b600073ffffffffffffffffffffffffffffffffffffffff168273ffffffffffffffffffffffffffffffffffffffff1614156127855761278081612beb565b6127c4565b8273ffffffffffffffffffffffffffffffffffffffff168273ffffffffffffffffffffffffffffffffffffffff16146127c3576127c28282612cbc565b5b5b505050565b600073ffffffffffffffffffffffffffffffffffffffff168273ffffffffffffffffffffffffffffffffffffffff161415612839576040517f08c379a000000000000000000000000000000000000000000000000000000000815260040161283090614b6c565b60405180910390fd5b6128428161216e565b15612882576040517f08c379a000000000000000000000000000000000000000000000000000000000815260040161287990614bd8565b60405180910390fd5b61288e600083836123cc565b6001600360008473ffffffffffffffffffffffffffffffffffffffff1673ffffffffffffffffffffffffffffffffffffffff16815260200190815260200160002060008282546128de9190614696565b92505081905550816002600083815260200190815260200160002060006101000a81548173ffffffffffffffffffffffffffffffffffffffff021916908373ffffffffffffffffffffffffffffffffffffffff160217905550808273ffffffffffffffffffffffffffffffffffffffff16600073ffffffffffffffffffffffffffffffffffffffff167fddf252ad1be2c89b69c2b068fc378daa952ba7f163c4a11628f55a4df523b3ef60405160405180910390a461299f600083836123dc565b5050565b6000808273ffffffffffffffffffffffffffffffffffffffff163b119050919050565b60007f01ffc9a7000000000000000000000000000000000000000000000000000000007bffffffffffffffffffffffffffffffffffffffffffffffffffffffff1916827bffffffffffffffffffffffffffffffffffffffffffffffffffffffff1916149050919050565b505050565b6008805490506009600083815260200190815260200160002081905550600881908060018154018082558091505060019003906000526020600020016000909190919091505550565b60006001612a8b8461105f565b612a959190614662565b9050600060076000848152602001908152602001600020549050818114612b7a576000600660008673ffffffffffffffffffffffffffffffffffffffff1673ffffffffffffffffffffffffffffffffffffffff168152602001908152602001600020600084815260200190815260200160002054905080600660008773ffffffffffffffffffffffffffffffffffffffff1673ffffffffffffffffffffffffffffffffffffffff168152602001908152602001600020600084815260200190815260200160002081905550816007600083815260200190815260200160002081905550505b6007600084815260200190815260200160002060009055600660008573ffffffffffffffffffffffffffffffffffffffff1673ffffffffffffffffffffffffffffffffffffffff16815260200190815260200160002060008381526020019081526020016000206000905550505050565b60006001600880549050612bff9190614662565b9050600060096000848152602001908152602001600020549050600060088381548110612c2f57612c2e613d70565b5b906000526020600020015490508060088381548110612c5157612c50613d70565b5b906000526020600020018190555081600960008381526020019081526020016000208190555060096000858152602001908152602001600020600090556008805480612ca057612c9f614bf8565b5b6001900381819060005260206000200160009055905550505050565b6000612cc78361105f565b905081600660008573ffffffffffffffffffffffffffffffffffffffff1673ffffffffffffffffffffffffffffffffffffffff168152602001908152602001600020600083815260200190815260200160002081905550806007600084815260200190815260200160002081905550505050565b828054612d4790613b42565b90600052602060002090601f016020900481019282612d695760008555612db0565b82601f10612d8257805160ff1916838001178555612db0565b82800160010185558215612db0579182015b82811115612daf578251825591602001919060010190612d94565b5b509050612dbd9190612f13565b5090565b828054828255906000526020600020908101928215612e3a579160200282015b82811115612e395782518260006101000a81548173ffffffffffffffffffffffffffffffffffffffff021916908373ffffffffffffffffffffffffffffffffffffffff16021790555091602001919060010190612de1565b5b509050612e479190612f13565b5090565b82805482825590600052602060002090600101600290048101928215612f025791602002820160005b83821115612ec857835183826101000a8154816bffffffffffffffffffffffff02191690836bffffffffffffffffffffffff1602179055509260200192600c01602081600b01049283019260010302612e74565b8015612f005782816101000a8154906bffffffffffffffffffffffff0219169055600c01602081600b01049283019260010302612ec8565b505b509050612f0f9190612f13565b5090565b5b80821115612f2c576000816000905550600101612f14565b5090565b6000604051905090565b600080fd5b600080fd5b60007fffffffff0000000000000000000000000000000000000000000000000000000082169050919050565b612f7981612f44565b8114612f8457600080fd5b50565b600081359050612f9681612f70565b92915050565b600060208284031215612fb257612fb1612f3a565b5b6000612fc084828501612f87565b91505092915050565b60008115159050919050565b612fde81612fc9565b82525050565b6000602082019050612ff96000830184612fd5565b92915050565b61300881612fc9565b811461301357600080fd5b50565b60008135905061302581612fff565b92915050565b60006020828403121561304157613040612f3a565b5b600061304f84828501613016565b91505092915050565b600081519050919050565b600082825260208201905092915050565b60005b83811015613092578082015181840152602081019050613077565b838111156130a1576000848401525b50505050565b6000601f19601f8301169050919050565b60006130c382613058565b6130cd8185613063565b93506130dd818560208601613074565b6130e6816130a7565b840191505092915050565b6000602082019050818103600083015261310b81846130b8565b905092915050565b6000819050919050565b61312681613113565b811461313157600080fd5b50565b6000813590506131438161311d565b92915050565b60006020828403121561315f5761315e612f3a565b5b600061316d84828501613134565b91505092915050565b600073ffffffffffffffffffffffffffffffffffffffff82169050919050565b60006131a182613176565b9050919050565b6131b181613196565b82525050565b60006020820190506131cc60008301846131a8565b92915050565b6131db81613196565b81146131e657600080fd5b50565b6000813590506131f8816131d2565b92915050565b6000806040838503121561321557613214612f3a565b5b6000613223858286016131e9565b925050602061323485828601613134565b9150509250929050565b600080fd5b600080fd5b7f4e487b7100000000000000000000000000000000000000000000000000000000600052604160045260246000fd5b613280826130a7565b810181811067ffffffffffffffff8211171561329f5761329e613248565b5b80604052505050565b60006132b2612f30565b90506132be8282613277565b919050565b600067ffffffffffffffff8211156132de576132dd613248565b5b6132e7826130a7565b9050602081019050919050565b82818337600083830152505050565b6000613316613311846132c3565b6132a8565b90508281526020810184848401111561333257613331613243565b5b61333d8482856132f4565b509392505050565b600082601f83011261335a5761335961323e565b5b813561336a848260208601613303565b91505092915050565b60006020828403121561338957613388612f3a565b5b600082013567ffffffffffffffff8111156133a7576133a6612f3f565b5b6133b384828501613345565b91505092915050565b6133c581613113565b82525050565b60006020820190506133e060008301846133bc565b92915050565b600080fd5b600080fd5b60008083601f8401126134065761340561323e565b5b8235905067ffffffffffffffff811115613423576134226133e6565b5b60208301915083602082028301111561343f5761343e6133eb565b5b9250929050565b6000806020838503121561345d5761345c612f3a565b5b600083013567ffffffffffffffff81111561347b5761347a612f3f565b5b613487858286016133f0565b92509250509250929050565b6000806000606084860312156134ac576134ab612f3a565b5b60006134ba868287016131e9565b93505060206134cb868287016131e9565b92505060406134dc86828701613134565b9150509250925092565b600080604083850312156134fd576134fc612f3a565b5b600061350b85828601613134565b925050602061351c85828601613134565b9150509250929050565b600081519050919050565b600082825260208201905092915050565b6000819050602082019050919050565b61355b81613196565b82525050565b600061356d8383613552565b60208301905092915050565b6000602082019050919050565b600061359182613526565b61359b8185613531565b93506135a683613542565b8060005b838110156135d75781516135be8882613561565b97506135c983613579565b9250506001810190506135aa565b5085935050505092915050565b600081519050919050565b600082825260208201905092915050565b6000819050602082019050919050565b61361981613113565b82525050565b600061362b8383613610565b60208301905092915050565b6000602082019050919050565b600061364f826135e4565b61365981856135ef565b935061366483613600565b8060005b8381101561369557815161367c888261361f565b975061368783613637565b925050600181019050613668565b5085935050505092915050565b600060408201905081810360008301526136bc8185613586565b905081810360208301526136d08184613644565b90509392505050565b6000602082840312156136ef576136ee612f3a565b5b60006136fd848285016131e9565b91505092915050565b600067ffffffffffffffff82111561372157613720613248565b5b602082029050602081019050919050565b600061374561374084613706565b6132a8565b90508083825260208201905060208402830185811115613768576137676133eb565b5b835b81811015613791578061377d88826131e9565b84526020840193505060208101905061376a565b5050509392505050565b600082601f8301126137b0576137af61323e565b5b81356137c0848260208601613732565b91505092915050565b600067ffffffffffffffff8211156137e4576137e3613248565b5b602082029050602081019050919050565b60006bffffffffffffffffffffffff82169050919050565b613816816137f5565b811461382157600080fd5b50565b6000813590506138338161380d565b92915050565b600061384c613847846137c9565b6132a8565b9050808382526020820190506020840283018581111561386f5761386e6133eb565b5b835b8181101561389857806138848882613824565b845260208401935050602081019050613871565b5050509392505050565b600082601f8301126138b7576138b661323e565b5b81356138c7848260208601613839565b91505092915050565b600080600080608085870312156138ea576138e9612f3a565b5b60006138f8878288016131e9565b945050602061390987828801613016565b935050604085013567ffffffffffffffff81111561392a57613929612f3f565b5b6139368782880161379b565b925050606085013567ffffffffffffffff81111561395757613956612f3f565b5b613963878288016138a2565b91505092959194509250565b6000806040838503121561398657613985612f3a565b5b6000613994858286016131e9565b92505060206139a585828601613016565b9150509250929050565b600067ffffffffffffffff8211156139ca576139c9613248565b5b6139d3826130a7565b9050602081019050919050565b60006139f36139ee846139af565b6132a8565b905082815260208101848484011115613a0f57613a0e613243565b5b613a1a8482856132f4565b509392505050565b600082601f830112613a3757613a3661323e565b5b8135613a478482602086016139e0565b91505092915050565b60008060008060808587031215613a6a57613a69612f3a565b5b6000613a78878288016131e9565b9450506020613a89878288016131e9565b9350506040613a9a87828801613134565b925050606085013567ffffffffffffffff811115613abb57613aba612f3f565b5b613ac787828801613a22565b91505092959194509250565b60008060408385031215613aea57613ae9612f3a565b5b6000613af8858286016131e9565b9250506020613b09858286016131e9565b9150509250929050565b7f4e487b7100000000000000000000000000000000000000000000000000000000600052602260045260246000fd5b60006002820490506001821680613b5a57607f821691505b60208210811415613b6e57613b6d613b13565b5b50919050565b7f4552433732313a20617070726f76616c20746f2063757272656e74206f776e6560008201527f7200000000000000000000000000000000000000000000000000000000000000602082015250565b6000613bd0602183613063565b9150613bdb82613b74565b604082019050919050565b60006020820190508181036000830152613bff81613bc3565b9050919050565b7f4552433732313a20617070726f76652063616c6c6572206973206e6f7420746f60008201527f6b656e206f776e6572206e6f7220617070726f76656420666f7220616c6c0000602082015250565b6000613c62603e83613063565b9150613c6d82613c06565b604082019050919050565b60006020820190508181036000830152613c9181613c55565b9050919050565b7f4e6f20757365722064657461696c732070726f76696465640000000000000000600082015250565b6000613cce601883613063565b9150613cd982613c98565b602082019050919050565b60006020820190508181036000830152613cfd81613cc1565b9050919050565b7f546f6f206d616e792075736572737320746f2077686974656c69737400000000600082015250565b6000613d3a601c83613063565b9150613d4582613d04565b602082019050919050565b60006020820190508181036000830152613d6981613d2d565b9050919050565b7f4e487b7100000000000000000000000000000000000000000000000000000000600052603260045260246000fd5b7f4e487b7100000000000000000000000000000000000000000000000000000000600052601160045260246000fd5b6000613dd982613113565b91506000821415613ded57613dec613d9f565b5b600182039050919050565b6000613e0382613113565b91507fffffffffffffffffffffffffffffffffffffffffffffffffffffffffffffffff821415613e3657613e35613d9f565b5b600182019050919050565b7f4552433732313a2063616c6c6572206973206e6f7420746f6b656e206f776e6560008201527f72206e6f7220617070726f766564000000000000000000000000000000000000602082015250565b6000613e9d602e83613063565b9150613ea882613e41565b604082019050919050565b60006020820190508181036000830152613ecc81613e90565b9050919050565b6000613ede82613113565b9150613ee983613113565b9250817fffffffffffffffffffffffffffffffffffffffffffffffffffffffffffffffff0483118215151615613f2257613f21613d9f565b5b828202905092915050565b7f4e487b7100000000000000000000000000000000000000000000000000000000600052601260045260246000fd5b6000613f6782613113565b9150613f7283613113565b925082613f8257613f81613f2d565b5b828204905092915050565b7f455243373231456e756d657261626c653a206f776e657220696e646578206f7560008201527f74206f6620626f756e6473000000000000000000000000000000000000000000602082015250565b6000613fe9602b83613063565b9150613ff482613f8d565b604082019050919050565b6000602082019050818103600083015261401881613fdc565b9050919050565b7f455243373231456e756d657261626c653a20676c6f62616c20696e646578206f60008201527f7574206f6620626f756e64730000000000000000000000000000000000000000602082015250565b600061407b602c83613063565b91506140868261401f565b604082019050919050565b600060208201905081810360008301526140aa8161406e565b9050919050565b7f4552433732313a20696e76616c696420746f6b656e2049440000000000000000600082015250565b60006140e7601883613063565b91506140f2826140b1565b602082019050919050565b60006020820190508181036000830152614116816140da565b9050919050565b7f4552433732313a2061646472657373207a65726f206973206e6f74206120766160008201527f6c6964206f776e65720000000000000000000000000000000000000000000000602082015250565b6000614179602983613063565b91506141848261411d565b604082019050919050565b600060208201905081810360008301526141a88161416c565b9050919050565b7f41646472657373206e6f742077686974656c6973746564000000000000000000600082015250565b60006141e5601783613063565b91506141f0826141af565b602082019050919050565b60006020820190508181036000830152614214816141d8565b9050919050565b7f4552433732314d657461646174613a2055524920717565727920666f72206e6f60008201527f6e6578697374656e7420746f6b656e0000000000000000000000000000000000602082015250565b6000614277602f83613063565b91506142828261421b565b604082019050919050565b600060208201905081810360008301526142a68161426a565b9050919050565b600081905092915050565b60006142c382613058565b6142cd81856142ad565b93506142dd818560208601613074565b80840191505092915050565b60008190508160005260206000209050919050565b6000815461430b81613b42565b61431581866142ad565b94506001821660008114614330576001811461434157614374565b60ff19831686528186019350614374565b61434a856142e9565b60005b8381101561436c5781548189015260018201915060208101905061434d565b838801955050505b50505092915050565b600061438982866142b8565b915061439582856142b8565b91506143a182846142fe565b9150819050949350505050565b7f4f776e61626c653a206e6577206f776e657220697320746865207a65726f206160008201527f6464726573730000000000000000000000000000000000000000000000000000602082015250565b600061440a602683613063565b9150614415826143ae565b604082019050919050565b60006020820190508181036000830152614439816143fd565b9050919050565b7f4d6178696d756d20557365727320616c72656164792077686974656c6973746560008201527f6400000000000000000000000000000000000000000000000000000000000000602082015250565b600061449c602183613063565b91506144a782614440565b604082019050919050565b600060208201905081810360008301526144cb8161448f565b9050919050565b7f4f776e61626c653a2063616c6c6572206973206e6f7420746865206f776e6572600082015250565b6000614508602083613063565b9150614513826144d2565b602082019050919050565b60006020820190508181036000830152614537816144fb565b9050919050565b7f4552433732313a207472616e736665722066726f6d20696e636f72726563742060008201527f6f776e6572000000000000000000000000000000000000000000000000000000602082015250565b600061459a602583613063565b91506145a58261453e565b604082019050919050565b600060208201905081810360008301526145c98161458d565b9050919050565b7f4552433732313a207472616e7366657220746f20746865207a65726f2061646460008201527f7265737300000000000000000000000000000000000000000000000000000000602082015250565b600061462c602483613063565b9150614637826145d0565b604082019050919050565b6000602082019050818103600083015261465b8161461f565b9050919050565b600061466d82613113565b915061467883613113565b92508282101561468b5761468a613d9f565b5b828203905092915050565b60006146a182613113565b91506146ac83613113565b9250827fffffffffffffffffffffffffffffffffffffffffffffffffffffffffffffffff038211156146e1576146e0613d9f565b5b828201905092915050565b7f4e6f20526f79616c74792064657461696c732070726f76696465640000000000600082015250565b6000614722601b83613063565b915061472d826146ec565b602082019050919050565b6000602082019050818103600083015261475181614715565b9050919050565b7f546f6f206d616e7920726f79616c74792072656369657665727320646574616960008201527f6c73000000000000000000000000000000000000000000000000000000000000602082015250565b60006147b4602283613063565b91506147bf82614758565b604082019050919050565b600060208201905081810360008301526147e3816147a7565b9050919050565b7f4d69736d61746368206f6620526f79616c74792072656369657665727320616e60008201527f6420746865697220666565730000000000000000000000000000000000000000602082015250565b6000614846602c83613063565b9150614851826147ea565b604082019050919050565b6000602082019050818103600083015261487581614839565b9050919050565b7f455243323938313a20726f79616c7479206665652077696c6c2065786365656460008201527f2073616c65507269636500000000000000000000000000000000000000000000602082015250565b60006148d8602a83613063565b91506148e38261487c565b604082019050919050565b60006020820190508181036000830152614907816148cb565b9050919050565b7f4552433732313a20617070726f766520746f2063616c6c657200000000000000600082015250565b6000614944601983613063565b915061494f8261490e565b602082019050919050565b6000602082019050818103600083015261497381614937565b9050919050565b7f4552433732313a207472616e7366657220746f206e6f6e20455243373231526560008201527f63656976657220696d706c656d656e7465720000000000000000000000000000602082015250565b60006149d6603283613063565b91506149e18261497a565b604082019050919050565b60006020820190508181036000830152614a05816149c9565b9050919050565b6000614a1782613113565b9150614a2283613113565b925082614a3257614a31613f2d565b5b828206905092915050565b600081519050919050565b600082825260208201905092915050565b6000614a6482614a3d565b614a6e8185614a48565b9350614a7e818560208601613074565b614a87816130a7565b840191505092915050565b6000608082019050614aa760008301876131a8565b614ab460208301866131a8565b614ac160408301856133bc565b8181036060830152614ad38184614a59565b905095945050505050565b600081519050614aed81612f70565b92915050565b600060208284031215614b0957614b08612f3a565b5b6000614b1784828501614ade565b91505092915050565b7f4552433732313a206d696e7420746f20746865207a65726f2061646472657373600082015250565b6000614b56602083613063565b9150614b6182614b20565b602082019050919050565b60006020820190508181036000830152614b8581614b49565b9050919050565b7f4552433732313a20746f6b656e20616c7265616479206d696e74656400000000600082015250565b6000614bc2601c83613063565b9150614bcd82614b8c565b602082019050919050565b60006020820190508181036000830152614bf181614bb5565b9050919050565b7f4e487b7100000000000000000000000000000000000000000000000000000000600052603160045260246000fdfea26469706673582212200e18fef02979699e74039d82341cfe950456c3796bd658094a1e70f7afea875c64736f6c63430008090033",
  "linkReferences": {},
  "deployedLinkReferences": {}
}