{
  "_format": "hh-sol-artifact-1",
  "contractName": "ERC721A",
  "sourceName": "contracts/ERC721A.sol",
  "abi": [
    {
      "inputs": [
        {
          "internalType": "string",
          "name": "name_",
          "type": "string"
        },
        {
          "internalType": "string",
          "name": "symbol_",
          "type": "string"
        }
      ],
      "stateMutability": "nonpayable",
      "type": "constructor"
    },
    {
      "inputs": [],
      "name": "ApprovalCallerNotOwnerNorApproved",
      "type": "error"
    },
    {
      "inputs": [],
      "name": "ApprovalQueryForNonexistentToken",
      "type": "error"
    },
    {
      "inputs": [],
      "name": "ApprovalToCurrentOwner",
      "type": "error"
    },
    {
      "inputs": [],
      "name": "ApproveToCaller",
      "type": "error"
    },
    {
      "inputs": [],
      "name": "BalanceQueryForZeroAddress",
      "type": "error"
    },
    {
      "inputs": [],
      "name": "MintToZeroAddress",
      "type": "error"
    },
    {
      "inputs": [],
      "name": "MintZeroQuantity",
      "type": "error"
    },
    {
      "inputs": [],
      "name": "OwnerQueryForNonexistentToken",
      "type": "error"
    },
    {
      "inputs": [],
      "name": "TransferCallerNotOwnerNorApproved",
      "type": "error"
    },
    {
      "inputs": [],
      "name": "TransferFromIncorrectOwner",
      "type": "error"
    },
    {
      "inputs": [],
      "name": "TransferToNonERC721ReceiverImplementer",
      "type": "error"
    },
    {
      "inputs": [],
      "name": "TransferToZeroAddress",
      "type": "error"
    },
    {
      "inputs": [],
      "name": "URIQueryForNonexistentToken",
      "type": "error"
    },
    {
      "anonymous": false,
      "inputs": [
        {
          "indexed": true,
          "internalType": "address",
          "name": "owner",
          "type": "address"
        },
        {
          "indexed": true,
          "internalType": "address",
          "name": "approved",
          "type": "address"
        },
        {
          "indexed": true,
          "internalType": "uint256",
          "name": "tokenId",
          "type": "uint256"
        }
      ],
      "name": "Approval",
      "type": "event"
    },
    {
      "anonymous": false,
      "inputs": [
        {
          "indexed": true,
          "internalType": "address",
          "name": "owner",
          "type": "address"
        },
        {
          "indexed": true,
          "internalType": "address",
          "name": "operator",
          "type": "address"
        },
        {
          "indexed": false,
          "internalType": "bool",
          "name": "approved",
          "type": "bool"
        }
      ],
      "name": "ApprovalForAll",
      "type": "event"
    },
    {
      "anonymous": false,
      "inputs": [
        {
          "indexed": true,
          "internalType": "address",
          "name": "from",
          "type": "address"
        },
        {
          "indexed": true,
          "internalType": "address",
          "name": "to",
          "type": "address"
        },
        {
          "indexed": true,
          "internalType": "uint256",
          "name": "tokenId",
          "type": "uint256"
        }
      ],
      "name": "Transfer",
      "type": "event"
    },
    {
      "inputs": [],
      "name": "_name",
      "outputs": [
        {
          "internalType": "string",
          "name": "",
          "type": "string"
        }
      ],
      "stateMutability": "view",
      "type": "function"
    },
    {
      "inputs": [],
      "name": "_symbol",
      "outputs": [
        {
          "internalType": "string",
          "name": "",
          "type": "string"
        }
      ],
      "stateMutability": "view",
      "type": "function"
    },
    {
      "inputs": [
        {
          "internalType": "address",
          "name": "to",
          "type": "address"
        },
        {
          "internalType": "uint256",
          "name": "tokenId",
          "type": "uint256"
        }
      ],
      "name": "approve",
      "outputs": [],
      "stateMutability": "nonpayable",
      "type": "function"
    },
    {
      "inputs": [
        {
          "internalType": "address",
          "name": "owner",
          "type": "address"
        }
      ],
      "name": "balanceOf",
      "outputs": [
        {
          "internalType": "uint256",
          "name": "",
          "type": "uint256"
        }
      ],
      "stateMutability": "view",
      "type": "function"
    },
    {
      "inputs": [
        {
          "internalType": "uint256",
          "name": "tokenId",
          "type": "uint256"
        }
      ],
      "name": "getApproved",
      "outputs": [
        {
          "internalType": "address",
          "name": "",
          "type": "address"
        }
      ],
      "stateMutability": "view",
      "type": "function"
    },
    {
      "inputs": [
        {
          "internalType": "address",
          "name": "owner",
          "type": "address"
        },
        {
          "internalType": "address",
          "name": "operator",
          "type": "address"
        }
      ],
      "name": "isApprovedForAll",
      "outputs": [
        {
          "internalType": "bool",
          "name": "",
          "type": "bool"
        }
      ],
      "stateMutability": "view",
      "type": "function"
    },
    {
      "inputs": [],
      "name": "name",
      "outputs": [
        {
          "internalType": "string",
          "name": "",
          "type": "string"
        }
      ],
      "stateMutability": "view",
      "type": "function"
    },
    {
      "inputs": [
        {
          "internalType": "uint256",
          "name": "tokenId",
          "type": "uint256"
        }
      ],
      "name": "ownerOf",
      "outputs": [
        {
          "internalType": "address",
          "name": "",
          "type": "address"
        }
      ],
      "stateMutability": "view",
      "type": "function"
    },
    {
      "inputs": [
        {
          "internalType": "address",
          "name": "from",
          "type": "address"
        },
        {
          "internalType": "address",
          "name": "to",
          "type": "address"
        },
        {
          "internalType": "uint256",
          "name": "tokenId",
          "type": "uint256"
        }
      ],
      "name": "safeTransferFrom",
      "outputs": [],
      "stateMutability": "nonpayable",
      "type": "function"
    },
    {
      "inputs": [
        {
          "internalType": "address",
          "name": "from",
          "type": "address"
        },
        {
          "internalType": "address",
          "name": "to",
          "type": "address"
        },
        {
          "internalType": "uint256",
          "name": "tokenId",
          "type": "uint256"
        },
        {
          "internalType": "bytes",
          "name": "_data",
          "type": "bytes"
        }
      ],
      "name": "safeTransferFrom",
      "outputs": [],
      "stateMutability": "nonpayable",
      "type": "function"
    },
    {
      "inputs": [
        {
          "internalType": "address",
          "name": "operator",
          "type": "address"
        },
        {
          "internalType": "bool",
          "name": "approved",
          "type": "bool"
        }
      ],
      "name": "setApprovalForAll",
      "outputs": [],
      "stateMutability": "nonpayable",
      "type": "function"
    },
    {
      "inputs": [
        {
          "internalType": "bytes4",
          "name": "interfaceId",
          "type": "bytes4"
        }
      ],
      "name": "supportsInterface",
      "outputs": [
        {
          "internalType": "bool",
          "name": "",
          "type": "bool"
        }
      ],
      "stateMutability": "view",
      "type": "function"
    },
    {
      "inputs": [],
      "name": "symbol",
      "outputs": [
        {
          "internalType": "string",
          "name": "",
          "type": "string"
        }
      ],
      "stateMutability": "view",
      "type": "function"
    },
    {
      "inputs": [
        {
          "internalType": "uint256",
          "name": "tokenId",
          "type": "uint256"
        }
      ],
      "name": "tokenURI",
      "outputs": [
        {
          "internalType": "string",
          "name": "",
          "type": "string"
        }
      ],
      "stateMutability": "view",
      "type": "function"
    },
    {
      "inputs": [],
      "name": "totalSupply",
      "outputs": [
        {
          "internalType": "uint256",
          "name": "",
          "type": "uint256"
        }
      ],
      "stateMutability": "view",
      "type": "function"
    },
    {
      "inputs": [
        {
          "internalType": "address",
          "name": "from",
          "type": "address"
        },
        {
          "internalType": "address",
          "name": "to",
          "type": "address"
        },
        {
          "internalType": "uint256",
          "name": "tokenId",
          "type": "uint256"
        }
      ],
      "name": "transferFrom",
      "outputs": [],
      "stateMutability": "nonpayable",
      "type": "function"
    }
  ],
  "bytecode": "0x60806040523480156200001157600080fd5b5060405162001ea138038062001ea18339818101604052810190620000379190620002d9565b81600290805190602001906200004f9291906200008c565b508060039080519060200190620000689291906200008c565b50620000796200008760201b60201c565b6000819055505050620003c3565b600090565b8280546200009a906200038d565b90600052602060002090601f016020900481019282620000be57600085556200010a565b82601f10620000d957805160ff19168380011785556200010a565b828001600101855582156200010a579182015b8281111562000109578251825591602001919060010190620000ec565b5b5090506200011991906200011d565b5090565b5b80821115620001385760008160009055506001016200011e565b5090565b6000604051905090565b600080fd5b600080fd5b600080fd5b600080fd5b6000601f19601f8301169050919050565b7f4e487b7100000000000000000000000000000000000000000000000000000000600052604160045260246000fd5b620001a5826200015a565b810181811067ffffffffffffffff82111715620001c757620001c66200016b565b5b80604052505050565b6000620001dc6200013c565b9050620001ea82826200019a565b919050565b600067ffffffffffffffff8211156200020d576200020c6200016b565b5b62000218826200015a565b9050602081019050919050565b60005b838110156200024557808201518184015260208101905062000228565b8381111562000255576000848401525b50505050565b6000620002726200026c84620001ef565b620001d0565b90508281526020810184848401111562000291576200029062000155565b5b6200029e84828562000225565b509392505050565b600082601f830112620002be57620002bd62000150565b5b8151620002d08482602086016200025b565b91505092915050565b60008060408385031215620002f357620002f262000146565b5b600083015167ffffffffffffffff8111156200031457620003136200014b565b5b6200032285828601620002a6565b925050602083015167ffffffffffffffff8111156200034657620003456200014b565b5b6200035485828601620002a6565b9150509250929050565b7f4e487b7100000000000000000000000000000000000000000000000000000000600052602260045260246000fd5b60006002820490506001821680620003a657607f821691505b60208210811415620003bd57620003bc6200035e565b5b50919050565b611ace80620003d36000396000f3fe608060405234801561001057600080fd5b50600436106101005760003560e01c806370a0823111610097578063b88d4fde11610066578063b88d4fde146102ad578063c87b56dd146102c9578063d28d8852146102f9578063e985e9c51461031757610100565b806370a082311461022557806395d89b4114610255578063a22cb46514610273578063b09f12661461028f57610100565b806318160ddd116100d357806318160ddd1461019f57806323b872dd146101bd57806342842e0e146101d95780636352211e146101f557610100565b806301ffc9a71461010557806306fdde0314610135578063081812fc14610153578063095ea7b314610183575b600080fd5b61011f600480360381019061011a919061139d565b610347565b60405161012c91906113e5565b60405180910390f35b61013d6103d9565b60405161014a9190611499565b60405180910390f35b61016d600480360381019061016891906114f1565b61046b565b60405161017a919061155f565b60405180910390f35b61019d600480360381019061019891906115a6565b6104e7565b005b6101a761068e565b6040516101b491906115f5565b60405180910390f35b6101d760048036038101906101d29190611610565b6106a5565b005b6101f360048036038101906101ee9190611610565b6106b5565b005b61020f600480360381019061020a91906114f1565b6106d5565b60405161021c919061155f565b60405180910390f35b61023f600480360381019061023a9190611663565b6106e7565b60405161024c91906115f5565b60405180910390f35b61025d61077c565b60405161026a9190611499565b60405180910390f35b61028d600480360381019061028891906116bc565b61080e565b005b610297610986565b6040516102a49190611499565b60405180910390f35b6102c760048036038101906102c29190611831565b610a14565b005b6102e360048036038101906102de91906114f1565b610a87565b6040516102f09190611499565b60405180910390f35b610301610b26565b60405161030e9190611499565b60405180910390f35b610331600480360381019061032c91906118b4565b610bb4565b60405161033e91906113e5565b60405180910390f35b60006301ffc9a760e01b827bffffffffffffffffffffffffffffffffffffffffffffffffffffffff191614806103a257506380ac58cd60e01b827bffffffffffffffffffffffffffffffffffffffffffffffffffffffff1916145b806103d25750635b5e139f60e01b827bffffffffffffffffffffffffffffffffffffffffffffffffffffffff1916145b9050919050565b6060600280546103e890611923565b80601f016020809104026020016040519081016040528092919081815260200182805461041490611923565b80156104615780601f1061043657610100808354040283529160200191610461565b820191906000526020600020905b81548152906001019060200180831161044457829003601f168201915b5050505050905090565b600061047682610c48565b6104ac576040517fcf4700e400000000000000000000000000000000000000000000000000000000815260040160405180910390fd5b6006600083815260200190815260200160002060009054906101000a900473ffffffffffffffffffffffffffffffffffffffff169050919050565b60006104f282610ca7565b90508073ffffffffffffffffffffffffffffffffffffffff168373ffffffffffffffffffffffffffffffffffffffff16141561055a576040517f943f7b8c00000000000000000000000000000000000000000000000000000000815260040160405180910390fd5b8073ffffffffffffffffffffffffffffffffffffffff16610579610d75565b73ffffffffffffffffffffffffffffffffffffffff16146105dc576105a5816105a0610d75565b610bb4565b6105db576040517fcfb3b94200000000000000000000000000000000000000000000000000000000815260040160405180910390fd5b5b826006600084815260200190815260200160002060006101000a81548173ffffffffffffffffffffffffffffffffffffffff021916908373ffffffffffffffffffffffffffffffffffffffff160217905550818373ffffffffffffffffffffffffffffffffffffffff168273ffffffffffffffffffffffffffffffffffffffff167f8c5be1e5ebec7d5bd14f71427d1e84f3dd0314c0f7b2291e5b200ac8c7c3b92560405160405180910390a4505050565b6000610698610d7d565b6001546000540303905090565b6106b0838383610d82565b505050565b6106d083838360405180602001604052806000815250610a14565b505050565b60006106e082610ca7565b9050919050565b6000806106f38361114a565b141561072b576040517f8f4eb60400000000000000000000000000000000000000000000000000000000815260040160405180910390fd5b67ffffffffffffffff600560008473ffffffffffffffffffffffffffffffffffffffff1673ffffffffffffffffffffffffffffffffffffffff16815260200190815260200160002054169050919050565b60606003805461078b90611923565b80601f01602080910402602001604051908101604052809291908181526020018280546107b790611923565b80156108045780601f106107d957610100808354040283529160200191610804565b820191906000526020600020905b8154815290600101906020018083116107e757829003601f168201915b5050505050905090565b610816610d75565b73ffffffffffffffffffffffffffffffffffffffff168273ffffffffffffffffffffffffffffffffffffffff16141561087b576040517fb06307db00000000000000000000000000000000000000000000000000000000815260040160405180910390fd5b8060076000610888610d75565b73ffffffffffffffffffffffffffffffffffffffff1673ffffffffffffffffffffffffffffffffffffffff16815260200190815260200160002060008473ffffffffffffffffffffffffffffffffffffffff1673ffffffffffffffffffffffffffffffffffffffff16815260200190815260200160002060006101000a81548160ff0219169083151502179055508173ffffffffffffffffffffffffffffffffffffffff16610935610d75565b73ffffffffffffffffffffffffffffffffffffffff167f17307eab39ab6107e8899845ad3d59bd9653f200f220920489ca2b5937696c318360405161097a91906113e5565b60405180910390a35050565b6003805461099390611923565b80601f01602080910402602001604051908101604052809291908181526020018280546109bf90611923565b8015610a0c5780601f106109e157610100808354040283529160200191610a0c565b820191906000526020600020905b8154815290600101906020018083116109ef57829003601f168201915b505050505081565b610a1f848484610d82565b60008373ffffffffffffffffffffffffffffffffffffffff163b14610a8157610a4a84848484611154565b610a80576040517fd1a57ed600000000000000000000000000000000000000000000000000000000815260040160405180910390fd5b5b50505050565b6060610a9282610c48565b610ac8576040517fa14c4b5000000000000000000000000000000000000000000000000000000000815260040160405180910390fd5b6000610ad26112b4565b9050600081511415610af35760405180602001604052806000815250610b1e565b80610afd846112cb565b604051602001610b0e929190611991565b6040516020818303038152906040525b915050919050565b60028054610b3390611923565b80601f0160208091040260200160405190810160405280929190818152602001828054610b5f90611923565b8015610bac5780601f10610b8157610100808354040283529160200191610bac565b820191906000526020600020905b815481529060010190602001808311610b8f57829003601f168201915b505050505081565b6000600760008473ffffffffffffffffffffffffffffffffffffffff1673ffffffffffffffffffffffffffffffffffffffff16815260200190815260200160002060008373ffffffffffffffffffffffffffffffffffffffff1673ffffffffffffffffffffffffffffffffffffffff16815260200190815260200160002060009054906101000a900460ff16905092915050565b600081610c53610d7d565b11158015610c62575060005482105b8015610ca0575060007c0100000000000000000000000000000000000000000000000000000000600460008581526020019081526020016000205416145b9050919050565b60008082905080610cb6610d7d565b11610d3e57600054811015610d3d5760006004600083815260200190815260200160002054905060007c010000000000000000000000000000000000000000000000000000000082161415610d3b575b6000811415610d31576004600083600190039350838152602001908152602001600020549050610d06565b8092505050610d70565b505b5b6040517fdf2d9b4200000000000000000000000000000000000000000000000000000000815260040160405180910390fd5b919050565b600033905090565b600090565b6000610d8d82610ca7565b90508373ffffffffffffffffffffffffffffffffffffffff168173ffffffffffffffffffffffffffffffffffffffff1614610df4576040517fa114810000000000000000000000000000000000000000000000000000000000815260040160405180910390fd5b60006006600084815260200190815260200160002060009054906101000a900473ffffffffffffffffffffffffffffffffffffffff16905060008573ffffffffffffffffffffffffffffffffffffffff16610e4d610d75565b73ffffffffffffffffffffffffffffffffffffffff161480610e7c5750610e7b86610e76610d75565b610bb4565b5b80610eb95750610e8a610d75565b73ffffffffffffffffffffffffffffffffffffffff168273ffffffffffffffffffffffffffffffffffffffff16145b905080610ef2576040517f59c896be00000000000000000000000000000000000000000000000000000000815260040160405180910390fd5b6000610efd8661114a565b1415610f35576040517fea553b3400000000000000000000000000000000000000000000000000000000815260040160405180910390fd5b610f428686866001611325565b6000610f4d8361114a565b14610f89576006600085815260200190815260200160002060006101000a81549073ffffffffffffffffffffffffffffffffffffffff02191690555b600560008773ffffffffffffffffffffffffffffffffffffffff1673ffffffffffffffffffffffffffffffffffffffff168152602001908152602001600020600081546001900391905081905550600560008673ffffffffffffffffffffffffffffffffffffffff1673ffffffffffffffffffffffffffffffffffffffff16815260200190815260200160002060008154600101919050819055507c020000000000000000000000000000000000000000000000000000000060a042901b6110508761114a565b1717600460008681526020019081526020016000208190555060007c0200000000000000000000000000000000000000000000000000000000841614156110da5760006001850190506000600460008381526020019081526020016000205414156110d85760005481146110d7578360046000838152602001908152602001600020819055505b5b505b838573ffffffffffffffffffffffffffffffffffffffff168773ffffffffffffffffffffffffffffffffffffffff167fddf252ad1be2c89b69c2b068fc378daa952ba7f163c4a11628f55a4df523b3ef60405160405180910390a4611142868686600161132b565b505050505050565b6000819050919050565b60008373ffffffffffffffffffffffffffffffffffffffff1663150b7a0261117a610d75565b8786866040518563ffffffff1660e01b815260040161119c9493929190611a0a565b602060405180830381600087803b1580156111b657600080fd5b505af19250505080156111e757506040513d601f19601f820116820180604052508101906111e49190611a6b565b60015b611261573d8060008114611217576040519150601f19603f3d011682016040523d82523d6000602084013e61121c565b606091505b50600081511415611259576040517fd1a57ed600000000000000000000000000000000000000000000000000000000815260040160405180910390fd5b805181602001fd5b63150b7a0260e01b7bffffffffffffffffffffffffffffffffffffffffffffffffffffffff1916817bffffffffffffffffffffffffffffffffffffffffffffffffffffffff191614915050949350505050565b606060405180602001604052806000815250905090565b60606080604051019050806040528082600183039250600a81066030018353600a810490505b801561131157600183039250600a81066030018353600a810490506112f1565b508181036020830392508083525050919050565b50505050565b50505050565b6000604051905090565b600080fd5b600080fd5b60007fffffffff0000000000000000000000000000000000000000000000000000000082169050919050565b61137a81611345565b811461138557600080fd5b50565b60008135905061139781611371565b92915050565b6000602082840312156113b3576113b261133b565b5b60006113c184828501611388565b91505092915050565b60008115159050919050565b6113df816113ca565b82525050565b60006020820190506113fa60008301846113d6565b92915050565b600081519050919050565b600082825260208201905092915050565b60005b8381101561143a57808201518184015260208101905061141f565b83811115611449576000848401525b50505050565b6000601f19601f8301169050919050565b600061146b82611400565b611475818561140b565b935061148581856020860161141c565b61148e8161144f565b840191505092915050565b600060208201905081810360008301526114b38184611460565b905092915050565b6000819050919050565b6114ce816114bb565b81146114d957600080fd5b50565b6000813590506114eb816114c5565b92915050565b6000602082840312156115075761150661133b565b5b6000611515848285016114dc565b91505092915050565b600073ffffffffffffffffffffffffffffffffffffffff82169050919050565b60006115498261151e565b9050919050565b6115598161153e565b82525050565b60006020820190506115746000830184611550565b92915050565b6115838161153e565b811461158e57600080fd5b50565b6000813590506115a08161157a565b92915050565b600080604083850312156115bd576115bc61133b565b5b60006115cb85828601611591565b92505060206115dc858286016114dc565b9150509250929050565b6115ef816114bb565b82525050565b600060208201905061160a60008301846115e6565b92915050565b6000806000606084860312156116295761162861133b565b5b600061163786828701611591565b935050602061164886828701611591565b9250506040611659868287016114dc565b9150509250925092565b6000602082840312156116795761167861133b565b5b600061168784828501611591565b91505092915050565b611699816113ca565b81146116a457600080fd5b50565b6000813590506116b681611690565b92915050565b600080604083850312156116d3576116d261133b565b5b60006116e185828601611591565b92505060206116f2858286016116a7565b9150509250929050565b600080fd5b600080fd5b7f4e487b7100000000000000000000000000000000000000000000000000000000600052604160045260246000fd5b61173e8261144f565b810181811067ffffffffffffffff8211171561175d5761175c611706565b5b80604052505050565b6000611770611331565b905061177c8282611735565b919050565b600067ffffffffffffffff82111561179c5761179b611706565b5b6117a58261144f565b9050602081019050919050565b82818337600083830152505050565b60006117d46117cf84611781565b611766565b9050828152602081018484840111156117f0576117ef611701565b5b6117fb8482856117b2565b509392505050565b600082601f830112611818576118176116fc565b5b81356118288482602086016117c1565b91505092915050565b6000806000806080858703121561184b5761184a61133b565b5b600061185987828801611591565b945050602061186a87828801611591565b935050604061187b878288016114dc565b925050606085013567ffffffffffffffff81111561189c5761189b611340565b5b6118a887828801611803565b91505092959194509250565b600080604083850312156118cb576118ca61133b565b5b60006118d985828601611591565b92505060206118ea85828601611591565b9150509250929050565b7f4e487b7100000000000000000000000000000000000000000000000000000000600052602260045260246000fd5b6000600282049050600182168061193b57607f821691505b6020821081141561194f5761194e6118f4565b5b50919050565b600081905092915050565b600061196b82611400565b6119758185611955565b935061198581856020860161141c565b80840191505092915050565b600061199d8285611960565b91506119a98284611960565b91508190509392505050565b600081519050919050565b600082825260208201905092915050565b60006119dc826119b5565b6119e681856119c0565b93506119f681856020860161141c565b6119ff8161144f565b840191505092915050565b6000608082019050611a1f6000830187611550565b611a2c6020830186611550565b611a3960408301856115e6565b8181036060830152611a4b81846119d1565b905095945050505050565b600081519050611a6581611371565b92915050565b600060208284031215611a8157611a8061133b565b5b6000611a8f84828501611a56565b9150509291505056fea2646970667358221220bb25afab19392a9064237a59b7b511f6a9ac29d8842b2047e34b119cde337cf064736f6c63430008090033",
  "linkReferences": {},
  "deployedLinkReferences": {}
}