{
  "_format": "hh-sol-artifact-1",
  "contractName": "ERC1155Facet",
  "sourceName": "contracts/facets/ERC1155/ERC1155Facet.sol",
  "abi": [
    {
      "anonymous": false,
      "inputs": [
        {
          "indexed": true,
          "internalType": "address",
          "name": "account",
          "type": "address"
        },
        {
          "indexed": true,
          "internalType": "address",
          "name": "operator",
          "type": "address"
        },
        {
          "indexed": false,
          "internalType": "bool",
          "name": "approved",
          "type": "bool"
        }
      ],
      "name": "ApprovalForAll",
      "type": "event"
    },
    {
      "anonymous": false,
      "inputs": [
        {
          "indexed": true,
          "internalType": "address",
          "name": "operator",
          "type": "address"
        },
        {
          "indexed": true,
          "internalType": "address",
          "name": "from",
          "type": "address"
        },
        {
          "indexed": true,
          "internalType": "address",
          "name": "to",
          "type": "address"
        },
        {
          "indexed": false,
          "internalType": "uint256[]",
          "name": "ids",
          "type": "uint256[]"
        },
        {
          "indexed": false,
          "internalType": "uint256[]",
          "name": "values",
          "type": "uint256[]"
        }
      ],
      "name": "TransferBatch",
      "type": "event"
    },
    {
      "anonymous": false,
      "inputs": [
        {
          "indexed": true,
          "internalType": "address",
          "name": "operator",
          "type": "address"
        },
        {
          "indexed": true,
          "internalType": "address",
          "name": "from",
          "type": "address"
        },
        {
          "indexed": true,
          "internalType": "address",
          "name": "to",
          "type": "address"
        },
        {
          "indexed": false,
          "internalType": "uint256",
          "name": "id",
          "type": "uint256"
        },
        {
          "indexed": false,
          "internalType": "uint256",
          "name": "value",
          "type": "uint256"
        }
      ],
      "name": "TransferSingle",
      "type": "event"
    },
    {
      "inputs": [
        {
          "internalType": "address",
          "name": "account",
          "type": "address"
        },
        {
          "internalType": "uint256",
          "name": "id",
          "type": "uint256"
        }
      ],
      "name": "balanceOf1155",
      "outputs": [
        {
          "internalType": "uint256",
          "name": "",
          "type": "uint256"
        }
      ],
      "stateMutability": "view",
      "type": "function"
    },
    {
      "inputs": [
        {
          "internalType": "address[]",
          "name": "accounts",
          "type": "address[]"
        },
        {
          "internalType": "uint256[]",
          "name": "ids",
          "type": "uint256[]"
        }
      ],
      "name": "balanceOfBatch",
      "outputs": [
        {
          "internalType": "uint256[]",
          "name": "",
          "type": "uint256[]"
        }
      ],
      "stateMutability": "view",
      "type": "function"
    },
    {
      "inputs": [
        {
          "internalType": "address",
          "name": "from",
          "type": "address"
        },
        {
          "internalType": "address",
          "name": "to",
          "type": "address"
        },
        {
          "internalType": "uint256[]",
          "name": "ids",
          "type": "uint256[]"
        },
        {
          "internalType": "uint256[]",
          "name": "amounts",
          "type": "uint256[]"
        },
        {
          "internalType": "bytes",
          "name": "data",
          "type": "bytes"
        }
      ],
      "name": "safeBatchTransferFrom",
      "outputs": [],
      "stateMutability": "nonpayable",
      "type": "function"
    },
    {
      "inputs": [
        {
          "internalType": "address",
          "name": "from",
          "type": "address"
        },
        {
          "internalType": "address",
          "name": "to",
          "type": "address"
        },
        {
          "internalType": "uint256",
          "name": "id",
          "type": "uint256"
        },
        {
          "internalType": "uint256",
          "name": "amount",
          "type": "uint256"
        },
        {
          "internalType": "bytes",
          "name": "data",
          "type": "bytes"
        }
      ],
      "name": "safeTransferFrom1155",
      "outputs": [],
      "stateMutability": "nonpayable",
      "type": "function"
    },
    {
      "inputs": [
        {
          "internalType": "address",
          "name": "operator",
          "type": "address"
        },
        {
          "internalType": "bool",
          "name": "approved",
          "type": "bool"
        }
      ],
      "name": "setApprovalForAll1155",
      "outputs": [],
      "stateMutability": "nonpayable",
      "type": "function"
    },
    {
      "inputs": [
        {
          "internalType": "uint256",
          "name": "",
          "type": "uint256"
        }
      ],
      "name": "uri",
      "outputs": [
        {
          "internalType": "string",
          "name": "",
          "type": "string"
        }
      ],
      "stateMutability": "view",
      "type": "function"
    }
  ],
  "bytecode": "0x608060405234801561001057600080fd5b50612180806100206000396000f3fe608060405234801561001057600080fd5b50600436106100625760003560e01c80630e89341c146100675780632eb2c2d6146100975780633db33210146100b35780634e1273f4146100cf57806381615492146100ff578063ea9db0681461011b575b600080fd5b610081600480360381019061007c91906110bc565b61014b565b60405161008e9190611182565b60405180910390f35b6100b160048036038101906100ac91906113ff565b6101ee565b005b6100cd60048036038101906100c89190611506565b610312565b005b6100e960048036038101906100e49190611609565b610420565b6040516100f6919061173f565b60405180910390f35b61011960048036038101906101149190611761565b610539565b005b610135600480360381019061013091906117f8565b61054d565b6040516101429190611847565b60405180910390f35b60606000610157610626565b905080600301805461016890611891565b80601f016020809104026020016040519081016040528092919081815260200182805461019490611891565b80156101e15780601f106101b6576101008083540402835291602001916101e1565b820191906000526020600020905b8154815290600101906020018083116101c457829003601f168201915b5050505050915050919050565b6101f6610653565b73ffffffffffffffffffffffffffffffffffffffff168573ffffffffffffffffffffffffffffffffffffffff1614806102bf5750600060010160008673ffffffffffffffffffffffffffffffffffffffff1673ffffffffffffffffffffffffffffffffffffffff1681526020019081526020016000206000610276610653565b73ffffffffffffffffffffffffffffffffffffffff1673ffffffffffffffffffffffffffffffffffffffff16815260200190815260200160002060009054906101000a900460ff165b6102fe576040517f08c379a00000000000000000000000000000000000000000000000000000000081526004016102f590611935565b60405180910390fd5b61030b858585858561065b565b5050505050565b8060006001016000610322610653565b73ffffffffffffffffffffffffffffffffffffffff1673ffffffffffffffffffffffffffffffffffffffff16815260200190815260200160002060008473ffffffffffffffffffffffffffffffffffffffff1673ffffffffffffffffffffffffffffffffffffffff16815260200190815260200160002060006101000a81548160ff0219169083151502179055508173ffffffffffffffffffffffffffffffffffffffff166103cf610653565b73ffffffffffffffffffffffffffffffffffffffff167f17307eab39ab6107e8899845ad3d59bd9653f200f220920489ca2b5937696c31836040516104149190611964565b60405180910390a35050565b60608151835114610466576040517f08c379a000000000000000000000000000000000000000000000000000000000815260040161045d906119f1565b60405180910390fd5b6000835167ffffffffffffffff81111561048357610482611207565b5b6040519080825280602002602001820160405280156104b15781602001602082028036833780820191505090505b50905060005b845181101561052e576104fe8582815181106104d6576104d5611a11565b5b60200260200101518583815181106104f1576104f0611a11565b5b602002602001015161054d565b82828151811061051157610510611a11565b5b6020026020010181815250508061052790611a6f565b90506104b7565b508091505092915050565b6105468585858585610985565b5050505050565b60008073ffffffffffffffffffffffffffffffffffffffff168373ffffffffffffffffffffffffffffffffffffffff1614156105be576040517f08c379a00000000000000000000000000000000000000000000000000000000081526004016105b590611b2a565b60405180910390fd5b60006105c8610626565b905080600201600084815260200190815260200160002060008573ffffffffffffffffffffffffffffffffffffffff1673ffffffffffffffffffffffffffffffffffffffff1681526020019081526020016000205491505092915050565b6000807fd1fd1ec9eb6f457e5e32da0d2921ff6daf7fd2085ec060a076b391ca2400b28290508091505090565b600033905090565b815183511461069f576040517f08c379a000000000000000000000000000000000000000000000000000000000815260040161069690611bbc565b60405180910390fd5b600073ffffffffffffffffffffffffffffffffffffffff168473ffffffffffffffffffffffffffffffffffffffff16141561070f576040517f08c379a000000000000000000000000000000000000000000000000000000000815260040161070690611c4e565b60405180910390fd5b6000610719610653565b9050610729818787878787610c1d565b6000610733610626565b905060005b85518110156108ef57600086828151811061075657610755611a11565b5b60200260200101519050600086838151811061077557610774611a11565b5b60200260200101519050600084600201600084815260200190815260200160002060008c73ffffffffffffffffffffffffffffffffffffffff1673ffffffffffffffffffffffffffffffffffffffff16815260200190815260200160002054905081811015610819576040517f08c379a000000000000000000000000000000000000000000000000000000000815260040161081090611ce0565b60405180910390fd5b81810385600201600085815260200190815260200160002060008d73ffffffffffffffffffffffffffffffffffffffff1673ffffffffffffffffffffffffffffffffffffffff168152602001908152602001600020819055508185600201600085815260200190815260200160002060008c73ffffffffffffffffffffffffffffffffffffffff1673ffffffffffffffffffffffffffffffffffffffff16815260200190815260200160002060008282546108d49190611d00565b92505081905550505050806108e890611a6f565b9050610738565b508573ffffffffffffffffffffffffffffffffffffffff168773ffffffffffffffffffffffffffffffffffffffff168373ffffffffffffffffffffffffffffffffffffffff167f4a39dc06d4c0dbc64b70af90fd698a233a518aa5d07e595d983b8c0526c8f7fb8888604051610966929190611d56565b60405180910390a461097c828888888888610c25565b50505050505050565b600073ffffffffffffffffffffffffffffffffffffffff168473ffffffffffffffffffffffffffffffffffffffff1614156109f5576040517f08c379a00000000000000000000000000000000000000000000000000000000081526004016109ec90611c4e565b60405180910390fd5b60006109ff610653565b9050610a1f818787610a1088610dfd565b610a1988610dfd565b87610c1d565b6000610a29610626565b9050600081600201600087815260200190815260200160002060008973ffffffffffffffffffffffffffffffffffffffff1673ffffffffffffffffffffffffffffffffffffffff16815260200190815260200160002054905084811015610ac5576040517f08c379a0000000000000000000000000000000000000000000000000000000008152600401610abc90611ce0565b60405180910390fd5b84810382600201600088815260200190815260200160002060008a73ffffffffffffffffffffffffffffffffffffffff1673ffffffffffffffffffffffffffffffffffffffff168152602001908152602001600020819055508482600201600088815260200190815260200160002060008973ffffffffffffffffffffffffffffffffffffffff1673ffffffffffffffffffffffffffffffffffffffff1681526020019081526020016000206000828254610b809190611d00565b925050819055508673ffffffffffffffffffffffffffffffffffffffff168873ffffffffffffffffffffffffffffffffffffffff168473ffffffffffffffffffffffffffffffffffffffff167fc3d58168c5ae7397731d063d5bbf3d657854427343f4c083240f7aacaa2d0f628989604051610bfd929190611d8d565b60405180910390a4610c13838989898989610e77565b5050505050505050565b505050505050565b610c448473ffffffffffffffffffffffffffffffffffffffff1661104f565b15610df5578373ffffffffffffffffffffffffffffffffffffffff1663bc197c8187878686866040518663ffffffff1660e01b8152600401610c8a959493929190611e1a565b6020604051808303816000875af1925050508015610cc657506040513d601f19601f82011682018060405250810190610cc39190611eda565b60015b610d6c57610cd2611f14565b806308c379a01415610d2f5750610ce7611f36565b80610cf25750610d31565b806040517f08c379a0000000000000000000000000000000000000000000000000000000008152600401610d269190611182565b60405180910390fd5b505b6040517f08c379a0000000000000000000000000000000000000000000000000000000008152600401610d639061203e565b60405180910390fd5b63bc197c8160e01b7bffffffffffffffffffffffffffffffffffffffffffffffffffffffff1916817bffffffffffffffffffffffffffffffffffffffffffffffffffffffff191614610df3576040517f08c379a0000000000000000000000000000000000000000000000000000000008152600401610dea906120d0565b60405180910390fd5b505b505050505050565b60606000600167ffffffffffffffff811115610e1c57610e1b611207565b5b604051908082528060200260200182016040528015610e4a5781602001602082028036833780820191505090505b5090508281600081518110610e6257610e61611a11565b5b60200260200101818152505080915050919050565b610e968473ffffffffffffffffffffffffffffffffffffffff1661104f565b15611047578373ffffffffffffffffffffffffffffffffffffffff1663f23a6e6187878686866040518663ffffffff1660e01b8152600401610edc9594939291906120f0565b6020604051808303816000875af1925050508015610f1857506040513d601f19601f82011682018060405250810190610f159190611eda565b60015b610fbe57610f24611f14565b806308c379a01415610f815750610f39611f36565b80610f445750610f83565b806040517f08c379a0000000000000000000000000000000000000000000000000000000008152600401610f789190611182565b60405180910390fd5b505b6040517f08c379a0000000000000000000000000000000000000000000000000000000008152600401610fb59061203e565b60405180910390fd5b63f23a6e6160e01b7bffffffffffffffffffffffffffffffffffffffffffffffffffffffff1916817bffffffffffffffffffffffffffffffffffffffffffffffffffffffff191614611045576040517f08c379a000000000000000000000000000000000000000000000000000000000815260040161103c906120d0565b60405180910390fd5b505b505050505050565b6000808273ffffffffffffffffffffffffffffffffffffffff163b119050919050565b6000604051905090565b600080fd5b600080fd5b6000819050919050565b61109981611086565b81146110a457600080fd5b50565b6000813590506110b681611090565b92915050565b6000602082840312156110d2576110d161107c565b5b60006110e0848285016110a7565b91505092915050565b600081519050919050565b600082825260208201905092915050565b60005b83811015611123578082015181840152602081019050611108565b83811115611132576000848401525b50505050565b6000601f19601f8301169050919050565b6000611154826110e9565b61115e81856110f4565b935061116e818560208601611105565b61117781611138565b840191505092915050565b6000602082019050818103600083015261119c8184611149565b905092915050565b600073ffffffffffffffffffffffffffffffffffffffff82169050919050565b60006111cf826111a4565b9050919050565b6111df816111c4565b81146111ea57600080fd5b50565b6000813590506111fc816111d6565b92915050565b600080fd5b7f4e487b7100000000000000000000000000000000000000000000000000000000600052604160045260246000fd5b61123f82611138565b810181811067ffffffffffffffff8211171561125e5761125d611207565b5b80604052505050565b6000611271611072565b905061127d8282611236565b919050565b600067ffffffffffffffff82111561129d5761129c611207565b5b602082029050602081019050919050565b600080fd5b60006112c66112c184611282565b611267565b905080838252602082019050602084028301858111156112e9576112e86112ae565b5b835b8181101561131257806112fe88826110a7565b8452602084019350506020810190506112eb565b5050509392505050565b600082601f83011261133157611330611202565b5b81356113418482602086016112b3565b91505092915050565b600080fd5b600067ffffffffffffffff82111561136a57611369611207565b5b61137382611138565b9050602081019050919050565b82818337600083830152505050565b60006113a261139d8461134f565b611267565b9050828152602081018484840111156113be576113bd61134a565b5b6113c9848285611380565b509392505050565b600082601f8301126113e6576113e5611202565b5b81356113f684826020860161138f565b91505092915050565b600080600080600060a0868803121561141b5761141a61107c565b5b6000611429888289016111ed565b955050602061143a888289016111ed565b945050604086013567ffffffffffffffff81111561145b5761145a611081565b5b6114678882890161131c565b935050606086013567ffffffffffffffff81111561148857611487611081565b5b6114948882890161131c565b925050608086013567ffffffffffffffff8111156114b5576114b4611081565b5b6114c1888289016113d1565b9150509295509295909350565b60008115159050919050565b6114e3816114ce565b81146114ee57600080fd5b50565b600081359050611500816114da565b92915050565b6000806040838503121561151d5761151c61107c565b5b600061152b858286016111ed565b925050602061153c858286016114f1565b9150509250929050565b600067ffffffffffffffff82111561156157611560611207565b5b602082029050602081019050919050565b600061158561158084611546565b611267565b905080838252602082019050602084028301858111156115a8576115a76112ae565b5b835b818110156115d157806115bd88826111ed565b8452602084019350506020810190506115aa565b5050509392505050565b600082601f8301126115f0576115ef611202565b5b8135611600848260208601611572565b91505092915050565b600080604083850312156116205761161f61107c565b5b600083013567ffffffffffffffff81111561163e5761163d611081565b5b61164a858286016115db565b925050602083013567ffffffffffffffff81111561166b5761166a611081565b5b6116778582860161131c565b9150509250929050565b600081519050919050565b600082825260208201905092915050565b6000819050602082019050919050565b6116b681611086565b82525050565b60006116c883836116ad565b60208301905092915050565b6000602082019050919050565b60006116ec82611681565b6116f6818561168c565b93506117018361169d565b8060005b8381101561173257815161171988826116bc565b9750611724836116d4565b925050600181019050611705565b5085935050505092915050565b6000602082019050818103600083015261175981846116e1565b905092915050565b600080600080600060a0868803121561177d5761177c61107c565b5b600061178b888289016111ed565b955050602061179c888289016111ed565b94505060406117ad888289016110a7565b93505060606117be888289016110a7565b925050608086013567ffffffffffffffff8111156117df576117de611081565b5b6117eb888289016113d1565b9150509295509295909350565b6000806040838503121561180f5761180e61107c565b5b600061181d858286016111ed565b925050602061182e858286016110a7565b9150509250929050565b61184181611086565b82525050565b600060208201905061185c6000830184611838565b92915050565b7f4e487b7100000000000000000000000000000000000000000000000000000000600052602260045260246000fd5b600060028204905060018216806118a957607f821691505b602082108114156118bd576118bc611862565b5b50919050565b7f455243313135353a207472616e736665722063616c6c6572206973206e6f742060008201527f6f776e6572206e6f7220617070726f7665640000000000000000000000000000602082015250565b600061191f6032836110f4565b915061192a826118c3565b604082019050919050565b6000602082019050818103600083015261194e81611912565b9050919050565b61195e816114ce565b82525050565b60006020820190506119796000830184611955565b92915050565b7f455243313135353a206163636f756e747320616e6420696473206c656e67746860008201527f206d69736d617463680000000000000000000000000000000000000000000000602082015250565b60006119db6029836110f4565b91506119e68261197f565b604082019050919050565b60006020820190508181036000830152611a0a816119ce565b9050919050565b7f4e487b7100000000000000000000000000000000000000000000000000000000600052603260045260246000fd5b7f4e487b7100000000000000000000000000000000000000000000000000000000600052601160045260246000fd5b6000611a7a82611086565b91507fffffffffffffffffffffffffffffffffffffffffffffffffffffffffffffffff821415611aad57611aac611a40565b5b600182019050919050565b7f455243313135353a2062616c616e636520717565727920666f7220746865207a60008201527f65726f2061646472657373000000000000000000000000000000000000000000602082015250565b6000611b14602b836110f4565b9150611b1f82611ab8565b604082019050919050565b60006020820190508181036000830152611b4381611b07565b9050919050565b7f455243313135353a2069647320616e6420616d6f756e7473206c656e6774682060008201527f6d69736d61746368000000000000000000000000000000000000000000000000602082015250565b6000611ba66028836110f4565b9150611bb182611b4a565b604082019050919050565b60006020820190508181036000830152611bd581611b99565b9050919050565b7f455243313135353a207472616e7366657220746f20746865207a65726f20616460008201527f6472657373000000000000000000000000000000000000000000000000000000602082015250565b6000611c386025836110f4565b9150611c4382611bdc565b604082019050919050565b60006020820190508181036000830152611c6781611c2b565b9050919050565b7f455243313135353a20696e73756666696369656e742062616c616e636520666f60008201527f72207472616e7366657200000000000000000000000000000000000000000000602082015250565b6000611cca602a836110f4565b9150611cd582611c6e565b604082019050919050565b60006020820190508181036000830152611cf981611cbd565b9050919050565b6000611d0b82611086565b9150611d1683611086565b9250827fffffffffffffffffffffffffffffffffffffffffffffffffffffffffffffffff03821115611d4b57611d4a611a40565b5b828201905092915050565b60006040820190508181036000830152611d7081856116e1565b90508181036020830152611d8481846116e1565b90509392505050565b6000604082019050611da26000830185611838565b611daf6020830184611838565b9392505050565b611dbf816111c4565b82525050565b600081519050919050565b600082825260208201905092915050565b6000611dec82611dc5565b611df68185611dd0565b9350611e06818560208601611105565b611e0f81611138565b840191505092915050565b600060a082019050611e2f6000830188611db6565b611e3c6020830187611db6565b8181036040830152611e4e81866116e1565b90508181036060830152611e6281856116e1565b90508181036080830152611e768184611de1565b90509695505050505050565b60007fffffffff0000000000000000000000000000000000000000000000000000000082169050919050565b611eb781611e82565b8114611ec257600080fd5b50565b600081519050611ed481611eae565b92915050565b600060208284031215611ef057611eef61107c565b5b6000611efe84828501611ec5565b91505092915050565b60008160e01c9050919050565b600060033d1115611f335760046000803e611f30600051611f07565b90505b90565b600060443d1015611f4657611fc9565b611f4e611072565b60043d036004823e80513d602482011167ffffffffffffffff82111715611f76575050611fc9565b808201805167ffffffffffffffff811115611f945750505050611fc9565b80602083010160043d038501811115611fb1575050505050611fc9565b611fc082602001850186611236565b82955050505050505b90565b7f455243313135353a207472616e7366657220746f206e6f6e204552433131353560008201527f526563656976657220696d706c656d656e746572000000000000000000000000602082015250565b60006120286034836110f4565b915061203382611fcc565b604082019050919050565b600060208201905081810360008301526120578161201b565b9050919050565b7f455243313135353a204552433131353552656365697665722072656a6563746560008201527f6420746f6b656e73000000000000000000000000000000000000000000000000602082015250565b60006120ba6028836110f4565b91506120c58261205e565b604082019050919050565b600060208201905081810360008301526120e9816120ad565b9050919050565b600060a0820190506121056000830188611db6565b6121126020830187611db6565b61211f6040830186611838565b61212c6060830185611838565b818103608083015261213e8184611de1565b9050969550505050505056fea2646970667358221220f84a4c3607a507b2feb1d08c73663465dbb9280312567ebe4d10cfa3bea8167564736f6c634300080a0033",
  "linkReferences": {},
  "deployedLinkReferences": {}
}