{
  "_format": "hh-sol-artifact-1",
  "contractName": "ERC1155Facet",
  "sourceName": "contracts/facets/ERC1155/ERC1155Facet.sol",
  "abi": [
    {
      "anonymous": false,
      "inputs": [
        {
          "indexed": true,
          "internalType": "address",
          "name": "account",
          "type": "address"
        },
        {
          "indexed": true,
          "internalType": "address",
          "name": "operator",
          "type": "address"
        },
        {
          "indexed": false,
          "internalType": "bool",
          "name": "approved",
          "type": "bool"
        }
      ],
      "name": "ApprovalForAll",
      "type": "event"
    },
    {
      "anonymous": false,
      "inputs": [
        {
          "indexed": true,
          "internalType": "address",
          "name": "operator",
          "type": "address"
        },
        {
          "indexed": true,
          "internalType": "address",
          "name": "from",
          "type": "address"
        },
        {
          "indexed": true,
          "internalType": "address",
          "name": "to",
          "type": "address"
        },
        {
          "indexed": false,
          "internalType": "uint256[]",
          "name": "ids",
          "type": "uint256[]"
        },
        {
          "indexed": false,
          "internalType": "uint256[]",
          "name": "values",
          "type": "uint256[]"
        }
      ],
      "name": "TransferBatch",
      "type": "event"
    },
    {
      "anonymous": false,
      "inputs": [
        {
          "indexed": true,
          "internalType": "address",
          "name": "operator",
          "type": "address"
        },
        {
          "indexed": true,
          "internalType": "address",
          "name": "from",
          "type": "address"
        },
        {
          "indexed": true,
          "internalType": "address",
          "name": "to",
          "type": "address"
        },
        {
          "indexed": false,
          "internalType": "uint256",
          "name": "id",
          "type": "uint256"
        },
        {
          "indexed": false,
          "internalType": "uint256",
          "name": "value",
          "type": "uint256"
        }
      ],
      "name": "TransferSingle",
      "type": "event"
    },
    {
      "inputs": [
        {
          "internalType": "address",
          "name": "account",
          "type": "address"
        },
        {
          "internalType": "uint256",
          "name": "id",
          "type": "uint256"
        }
      ],
      "name": "balanceOf",
      "outputs": [
        {
          "internalType": "uint256",
          "name": "",
          "type": "uint256"
        }
      ],
      "stateMutability": "view",
      "type": "function"
    },
    {
      "inputs": [
        {
          "internalType": "address[]",
          "name": "accounts",
          "type": "address[]"
        },
        {
          "internalType": "uint256[]",
          "name": "ids",
          "type": "uint256[]"
        }
      ],
      "name": "balanceOfBatch",
      "outputs": [
        {
          "internalType": "uint256[]",
          "name": "",
          "type": "uint256[]"
        }
      ],
      "stateMutability": "view",
      "type": "function"
    },
    {
      "inputs": [
        {
          "internalType": "address",
          "name": "from",
          "type": "address"
        },
        {
          "internalType": "address",
          "name": "to",
          "type": "address"
        },
        {
          "internalType": "uint256[]",
          "name": "ids",
          "type": "uint256[]"
        },
        {
          "internalType": "uint256[]",
          "name": "amounts",
          "type": "uint256[]"
        },
        {
          "internalType": "bytes",
          "name": "data",
          "type": "bytes"
        }
      ],
      "name": "safeBatchTransferFrom",
      "outputs": [],
      "stateMutability": "nonpayable",
      "type": "function"
    },
    {
      "inputs": [
        {
          "internalType": "address",
          "name": "from",
          "type": "address"
        },
        {
          "internalType": "address",
          "name": "to",
          "type": "address"
        },
        {
          "internalType": "uint256",
          "name": "id",
          "type": "uint256"
        },
        {
          "internalType": "uint256",
          "name": "amount",
          "type": "uint256"
        },
        {
          "internalType": "bytes",
          "name": "data",
          "type": "bytes"
        }
      ],
      "name": "safeTransferFrom",
      "outputs": [],
      "stateMutability": "nonpayable",
      "type": "function"
    },
    {
      "inputs": [
        {
          "internalType": "address",
          "name": "operator",
          "type": "address"
        },
        {
          "internalType": "bool",
          "name": "approved",
          "type": "bool"
        }
      ],
      "name": "setApprovalForAll",
      "outputs": [],
      "stateMutability": "nonpayable",
      "type": "function"
    },
    {
      "inputs": [
        {
          "internalType": "uint256",
          "name": "",
          "type": "uint256"
        }
      ],
      "name": "uri",
      "outputs": [
        {
          "internalType": "string",
          "name": "",
          "type": "string"
        }
      ],
      "stateMutability": "view",
      "type": "function"
    }
  ],
  "bytecode": "0x608060405234801561001057600080fd5b5061217f806100206000396000f3fe608060405234801561001057600080fd5b50600436106100615760003560e01c8062fdd58e146100665780630e89341c146100965780632eb2c2d6146100c65780634e1273f4146100e2578063a22cb46514610112578063f242432a1461012e575b600080fd5b610080600480360381019061007b9190611119565b61014a565b60405161008d9190611168565b60405180910390f35b6100b060048036038101906100ab9190611183565b610223565b6040516100bd9190611249565b60405180910390f35b6100e060048036038101906100db9190611468565b6102c6565b005b6100fc60048036038101906100f791906115fa565b6103ea565b6040516101099190611730565b60405180910390f35b61012c6004803603810190610127919061178a565b610503565b005b610148600480360381019061014391906117ca565b610611565b005b60008073ffffffffffffffffffffffffffffffffffffffff168373ffffffffffffffffffffffffffffffffffffffff1614156101bb576040517f08c379a00000000000000000000000000000000000000000000000000000000081526004016101b2906118d3565b60405180910390fd5b60006101c5610625565b905080600201600084815260200190815260200160002060008573ffffffffffffffffffffffffffffffffffffffff1673ffffffffffffffffffffffffffffffffffffffff1681526020019081526020016000205491505092915050565b6060600061022f610625565b905080600301805461024090611922565b80601f016020809104026020016040519081016040528092919081815260200182805461026c90611922565b80156102b95780601f1061028e576101008083540402835291602001916102b9565b820191906000526020600020905b81548152906001019060200180831161029c57829003601f168201915b5050505050915050919050565b6102ce610652565b73ffffffffffffffffffffffffffffffffffffffff168573ffffffffffffffffffffffffffffffffffffffff1614806103975750600060010160008673ffffffffffffffffffffffffffffffffffffffff1673ffffffffffffffffffffffffffffffffffffffff168152602001908152602001600020600061034e610652565b73ffffffffffffffffffffffffffffffffffffffff1673ffffffffffffffffffffffffffffffffffffffff16815260200190815260200160002060009054906101000a900460ff165b6103d6576040517f08c379a00000000000000000000000000000000000000000000000000000000081526004016103cd906119c6565b60405180910390fd5b6103e3858585858561065a565b5050505050565b60608151835114610430576040517f08c379a000000000000000000000000000000000000000000000000000000000815260040161042790611a58565b60405180910390fd5b6000835167ffffffffffffffff81111561044d5761044c611270565b5b60405190808252806020026020018201604052801561047b5781602001602082028036833780820191505090505b50905060005b84518110156104f8576104c88582815181106104a05761049f611a78565b5b60200260200101518583815181106104bb576104ba611a78565b5b602002602001015161014a565b8282815181106104db576104da611a78565b5b602002602001018181525050806104f190611ad6565b9050610481565b508091505092915050565b8060006001016000610513610652565b73ffffffffffffffffffffffffffffffffffffffff1673ffffffffffffffffffffffffffffffffffffffff16815260200190815260200160002060008473ffffffffffffffffffffffffffffffffffffffff1673ffffffffffffffffffffffffffffffffffffffff16815260200190815260200160002060006101000a81548160ff0219169083151502179055508173ffffffffffffffffffffffffffffffffffffffff166105c0610652565b73ffffffffffffffffffffffffffffffffffffffff167f17307eab39ab6107e8899845ad3d59bd9653f200f220920489ca2b5937696c31836040516106059190611b2e565b60405180910390a35050565b61061e8585858585610984565b5050505050565b6000807fd1fd1ec9eb6f457e5e32da0d2921ff6daf7fd2085ec060a076b391ca2400b28290508091505090565b600033905090565b815183511461069e576040517f08c379a000000000000000000000000000000000000000000000000000000000815260040161069590611bbb565b60405180910390fd5b600073ffffffffffffffffffffffffffffffffffffffff168473ffffffffffffffffffffffffffffffffffffffff16141561070e576040517f08c379a000000000000000000000000000000000000000000000000000000000815260040161070590611c4d565b60405180910390fd5b6000610718610652565b9050610728818787878787610c1c565b6000610732610625565b905060005b85518110156108ee57600086828151811061075557610754611a78565b5b60200260200101519050600086838151811061077457610773611a78565b5b60200260200101519050600084600201600084815260200190815260200160002060008c73ffffffffffffffffffffffffffffffffffffffff1673ffffffffffffffffffffffffffffffffffffffff16815260200190815260200160002054905081811015610818576040517f08c379a000000000000000000000000000000000000000000000000000000000815260040161080f90611cdf565b60405180910390fd5b81810385600201600085815260200190815260200160002060008d73ffffffffffffffffffffffffffffffffffffffff1673ffffffffffffffffffffffffffffffffffffffff168152602001908152602001600020819055508185600201600085815260200190815260200160002060008c73ffffffffffffffffffffffffffffffffffffffff1673ffffffffffffffffffffffffffffffffffffffff16815260200190815260200160002060008282546108d39190611cff565b92505081905550505050806108e790611ad6565b9050610737565b508573ffffffffffffffffffffffffffffffffffffffff168773ffffffffffffffffffffffffffffffffffffffff168373ffffffffffffffffffffffffffffffffffffffff167f4a39dc06d4c0dbc64b70af90fd698a233a518aa5d07e595d983b8c0526c8f7fb8888604051610965929190611d55565b60405180910390a461097b828888888888610c24565b50505050505050565b600073ffffffffffffffffffffffffffffffffffffffff168473ffffffffffffffffffffffffffffffffffffffff1614156109f4576040517f08c379a00000000000000000000000000000000000000000000000000000000081526004016109eb90611c4d565b60405180910390fd5b60006109fe610652565b9050610a1e818787610a0f88610dfc565b610a1888610dfc565b87610c1c565b6000610a28610625565b9050600081600201600087815260200190815260200160002060008973ffffffffffffffffffffffffffffffffffffffff1673ffffffffffffffffffffffffffffffffffffffff16815260200190815260200160002054905084811015610ac4576040517f08c379a0000000000000000000000000000000000000000000000000000000008152600401610abb90611cdf565b60405180910390fd5b84810382600201600088815260200190815260200160002060008a73ffffffffffffffffffffffffffffffffffffffff1673ffffffffffffffffffffffffffffffffffffffff168152602001908152602001600020819055508482600201600088815260200190815260200160002060008973ffffffffffffffffffffffffffffffffffffffff1673ffffffffffffffffffffffffffffffffffffffff1681526020019081526020016000206000828254610b7f9190611cff565b925050819055508673ffffffffffffffffffffffffffffffffffffffff168873ffffffffffffffffffffffffffffffffffffffff168473ffffffffffffffffffffffffffffffffffffffff167fc3d58168c5ae7397731d063d5bbf3d657854427343f4c083240f7aacaa2d0f628989604051610bfc929190611d8c565b60405180910390a4610c12838989898989610e76565b5050505050505050565b505050505050565b610c438473ffffffffffffffffffffffffffffffffffffffff1661104e565b15610df4578373ffffffffffffffffffffffffffffffffffffffff1663bc197c8187878686866040518663ffffffff1660e01b8152600401610c89959493929190611e19565b6020604051808303816000875af1925050508015610cc557506040513d601f19601f82011682018060405250810190610cc29190611ed9565b60015b610d6b57610cd1611f13565b806308c379a01415610d2e5750610ce6611f35565b80610cf15750610d30565b806040517f08c379a0000000000000000000000000000000000000000000000000000000008152600401610d259190611249565b60405180910390fd5b505b6040517f08c379a0000000000000000000000000000000000000000000000000000000008152600401610d629061203d565b60405180910390fd5b63bc197c8160e01b7bffffffffffffffffffffffffffffffffffffffffffffffffffffffff1916817bffffffffffffffffffffffffffffffffffffffffffffffffffffffff191614610df2576040517f08c379a0000000000000000000000000000000000000000000000000000000008152600401610de9906120cf565b60405180910390fd5b505b505050505050565b60606000600167ffffffffffffffff811115610e1b57610e1a611270565b5b604051908082528060200260200182016040528015610e495781602001602082028036833780820191505090505b5090508281600081518110610e6157610e60611a78565b5b60200260200101818152505080915050919050565b610e958473ffffffffffffffffffffffffffffffffffffffff1661104e565b15611046578373ffffffffffffffffffffffffffffffffffffffff1663f23a6e6187878686866040518663ffffffff1660e01b8152600401610edb9594939291906120ef565b6020604051808303816000875af1925050508015610f1757506040513d601f19601f82011682018060405250810190610f149190611ed9565b60015b610fbd57610f23611f13565b806308c379a01415610f805750610f38611f35565b80610f435750610f82565b806040517f08c379a0000000000000000000000000000000000000000000000000000000008152600401610f779190611249565b60405180910390fd5b505b6040517f08c379a0000000000000000000000000000000000000000000000000000000008152600401610fb49061203d565b60405180910390fd5b63f23a6e6160e01b7bffffffffffffffffffffffffffffffffffffffffffffffffffffffff1916817bffffffffffffffffffffffffffffffffffffffffffffffffffffffff191614611044576040517f08c379a000000000000000000000000000000000000000000000000000000000815260040161103b906120cf565b60405180910390fd5b505b505050505050565b6000808273ffffffffffffffffffffffffffffffffffffffff163b119050919050565b6000604051905090565b600080fd5b600080fd5b600073ffffffffffffffffffffffffffffffffffffffff82169050919050565b60006110b082611085565b9050919050565b6110c0816110a5565b81146110cb57600080fd5b50565b6000813590506110dd816110b7565b92915050565b6000819050919050565b6110f6816110e3565b811461110157600080fd5b50565b600081359050611113816110ed565b92915050565b600080604083850312156111305761112f61107b565b5b600061113e858286016110ce565b925050602061114f85828601611104565b9150509250929050565b611162816110e3565b82525050565b600060208201905061117d6000830184611159565b92915050565b6000602082840312156111995761119861107b565b5b60006111a784828501611104565b91505092915050565b600081519050919050565b600082825260208201905092915050565b60005b838110156111ea5780820151818401526020810190506111cf565b838111156111f9576000848401525b50505050565b6000601f19601f8301169050919050565b600061121b826111b0565b61122581856111bb565b93506112358185602086016111cc565b61123e816111ff565b840191505092915050565b600060208201905081810360008301526112638184611210565b905092915050565b600080fd5b7f4e487b7100000000000000000000000000000000000000000000000000000000600052604160045260246000fd5b6112a8826111ff565b810181811067ffffffffffffffff821117156112c7576112c6611270565b5b80604052505050565b60006112da611071565b90506112e6828261129f565b919050565b600067ffffffffffffffff82111561130657611305611270565b5b602082029050602081019050919050565b600080fd5b600061132f61132a846112eb565b6112d0565b9050808382526020820190506020840283018581111561135257611351611317565b5b835b8181101561137b57806113678882611104565b845260208401935050602081019050611354565b5050509392505050565b600082601f83011261139a5761139961126b565b5b81356113aa84826020860161131c565b91505092915050565b600080fd5b600067ffffffffffffffff8211156113d3576113d2611270565b5b6113dc826111ff565b9050602081019050919050565b82818337600083830152505050565b600061140b611406846113b8565b6112d0565b905082815260208101848484011115611427576114266113b3565b5b6114328482856113e9565b509392505050565b600082601f83011261144f5761144e61126b565b5b813561145f8482602086016113f8565b91505092915050565b600080600080600060a086880312156114845761148361107b565b5b6000611492888289016110ce565b95505060206114a3888289016110ce565b945050604086013567ffffffffffffffff8111156114c4576114c3611080565b5b6114d088828901611385565b935050606086013567ffffffffffffffff8111156114f1576114f0611080565b5b6114fd88828901611385565b925050608086013567ffffffffffffffff81111561151e5761151d611080565b5b61152a8882890161143a565b9150509295509295909350565b600067ffffffffffffffff82111561155257611551611270565b5b602082029050602081019050919050565b600061157661157184611537565b6112d0565b9050808382526020820190506020840283018581111561159957611598611317565b5b835b818110156115c257806115ae88826110ce565b84526020840193505060208101905061159b565b5050509392505050565b600082601f8301126115e1576115e061126b565b5b81356115f1848260208601611563565b91505092915050565b600080604083850312156116115761161061107b565b5b600083013567ffffffffffffffff81111561162f5761162e611080565b5b61163b858286016115cc565b925050602083013567ffffffffffffffff81111561165c5761165b611080565b5b61166885828601611385565b9150509250929050565b600081519050919050565b600082825260208201905092915050565b6000819050602082019050919050565b6116a7816110e3565b82525050565b60006116b9838361169e565b60208301905092915050565b6000602082019050919050565b60006116dd82611672565b6116e7818561167d565b93506116f28361168e565b8060005b8381101561172357815161170a88826116ad565b9750611715836116c5565b9250506001810190506116f6565b5085935050505092915050565b6000602082019050818103600083015261174a81846116d2565b905092915050565b60008115159050919050565b61176781611752565b811461177257600080fd5b50565b6000813590506117848161175e565b92915050565b600080604083850312156117a1576117a061107b565b5b60006117af858286016110ce565b92505060206117c085828601611775565b9150509250929050565b600080600080600060a086880312156117e6576117e561107b565b5b60006117f4888289016110ce565b9550506020611805888289016110ce565b945050604061181688828901611104565b935050606061182788828901611104565b925050608086013567ffffffffffffffff81111561184857611847611080565b5b6118548882890161143a565b9150509295509295909350565b7f455243313135353a2062616c616e636520717565727920666f7220746865207a60008201527f65726f2061646472657373000000000000000000000000000000000000000000602082015250565b60006118bd602b836111bb565b91506118c882611861565b604082019050919050565b600060208201905081810360008301526118ec816118b0565b9050919050565b7f4e487b7100000000000000000000000000000000000000000000000000000000600052602260045260246000fd5b6000600282049050600182168061193a57607f821691505b6020821081141561194e5761194d6118f3565b5b50919050565b7f455243313135353a207472616e736665722063616c6c6572206973206e6f742060008201527f6f776e6572206e6f7220617070726f7665640000000000000000000000000000602082015250565b60006119b06032836111bb565b91506119bb82611954565b604082019050919050565b600060208201905081810360008301526119df816119a3565b9050919050565b7f455243313135353a206163636f756e747320616e6420696473206c656e67746860008201527f206d69736d617463680000000000000000000000000000000000000000000000602082015250565b6000611a426029836111bb565b9150611a4d826119e6565b604082019050919050565b60006020820190508181036000830152611a7181611a35565b9050919050565b7f4e487b7100000000000000000000000000000000000000000000000000000000600052603260045260246000fd5b7f4e487b7100000000000000000000000000000000000000000000000000000000600052601160045260246000fd5b6000611ae1826110e3565b91507fffffffffffffffffffffffffffffffffffffffffffffffffffffffffffffffff821415611b1457611b13611aa7565b5b600182019050919050565b611b2881611752565b82525050565b6000602082019050611b436000830184611b1f565b92915050565b7f455243313135353a2069647320616e6420616d6f756e7473206c656e6774682060008201527f6d69736d61746368000000000000000000000000000000000000000000000000602082015250565b6000611ba56028836111bb565b9150611bb082611b49565b604082019050919050565b60006020820190508181036000830152611bd481611b98565b9050919050565b7f455243313135353a207472616e7366657220746f20746865207a65726f20616460008201527f6472657373000000000000000000000000000000000000000000000000000000602082015250565b6000611c376025836111bb565b9150611c4282611bdb565b604082019050919050565b60006020820190508181036000830152611c6681611c2a565b9050919050565b7f455243313135353a20696e73756666696369656e742062616c616e636520666f60008201527f72207472616e7366657200000000000000000000000000000000000000000000602082015250565b6000611cc9602a836111bb565b9150611cd482611c6d565b604082019050919050565b60006020820190508181036000830152611cf881611cbc565b9050919050565b6000611d0a826110e3565b9150611d15836110e3565b9250827fffffffffffffffffffffffffffffffffffffffffffffffffffffffffffffffff03821115611d4a57611d49611aa7565b5b828201905092915050565b60006040820190508181036000830152611d6f81856116d2565b90508181036020830152611d8381846116d2565b90509392505050565b6000604082019050611da16000830185611159565b611dae6020830184611159565b9392505050565b611dbe816110a5565b82525050565b600081519050919050565b600082825260208201905092915050565b6000611deb82611dc4565b611df58185611dcf565b9350611e058185602086016111cc565b611e0e816111ff565b840191505092915050565b600060a082019050611e2e6000830188611db5565b611e3b6020830187611db5565b8181036040830152611e4d81866116d2565b90508181036060830152611e6181856116d2565b90508181036080830152611e758184611de0565b90509695505050505050565b60007fffffffff0000000000000000000000000000000000000000000000000000000082169050919050565b611eb681611e81565b8114611ec157600080fd5b50565b600081519050611ed381611ead565b92915050565b600060208284031215611eef57611eee61107b565b5b6000611efd84828501611ec4565b91505092915050565b60008160e01c9050919050565b600060033d1115611f325760046000803e611f2f600051611f06565b90505b90565b600060443d1015611f4557611fc8565b611f4d611071565b60043d036004823e80513d602482011167ffffffffffffffff82111715611f75575050611fc8565b808201805167ffffffffffffffff811115611f935750505050611fc8565b80602083010160043d038501811115611fb0575050505050611fc8565b611fbf8260200185018661129f565b82955050505050505b90565b7f455243313135353a207472616e7366657220746f206e6f6e204552433131353560008201527f526563656976657220696d706c656d656e746572000000000000000000000000602082015250565b60006120276034836111bb565b915061203282611fcb565b604082019050919050565b600060208201905081810360008301526120568161201a565b9050919050565b7f455243313135353a204552433131353552656365697665722072656a6563746560008201527f6420746f6b656e73000000000000000000000000000000000000000000000000602082015250565b60006120b96028836111bb565b91506120c48261205d565b604082019050919050565b600060208201905081810360008301526120e8816120ac565b9050919050565b600060a0820190506121046000830188611db5565b6121116020830187611db5565b61211e6040830186611159565b61212b6060830185611159565b818103608083015261213d8184611de0565b9050969550505050505056fea264697066735822122070bffc1133998412966ec557e6e817ac3bbd86a4546b88584d8ccb54e03e24c664736f6c634300080a0033",
  "linkReferences": {},
  "deployedLinkReferences": {}
}