{
  "_format": "hh-sol-artifact-1",
  "contractName": "ERC721AFactory",
  "sourceName": "contracts/factoryContracts/ERC721AFactory.sol",
  "abi": [
    {
      "inputs": [
        {
          "internalType": "string",
          "name": "name_",
          "type": "string"
        },
        {
          "internalType": "string",
          "name": "symbol_",
          "type": "string"
        }
      ],
      "stateMutability": "nonpayable",
      "type": "constructor"
    },
    {
      "inputs": [],
      "name": "ApprovalCallerNotOwnerNorApproved",
      "type": "error"
    },
    {
      "inputs": [],
      "name": "ApprovalQueryForNonexistentToken",
      "type": "error"
    },
    {
      "inputs": [],
      "name": "ApprovalToCurrentOwner",
      "type": "error"
    },
    {
      "inputs": [],
      "name": "ApproveToCaller",
      "type": "error"
    },
    {
      "inputs": [],
      "name": "BalanceQueryForZeroAddress",
      "type": "error"
    },
    {
      "inputs": [],
      "name": "MintToZeroAddress",
      "type": "error"
    },
    {
      "inputs": [],
      "name": "MintZeroQuantity",
      "type": "error"
    },
    {
      "inputs": [],
      "name": "OwnerQueryForNonexistentToken",
      "type": "error"
    },
    {
      "inputs": [],
      "name": "TransferCallerNotOwnerNorApproved",
      "type": "error"
    },
    {
      "inputs": [],
      "name": "TransferFromIncorrectOwner",
      "type": "error"
    },
    {
      "inputs": [],
      "name": "TransferToNonERC721ReceiverImplementer",
      "type": "error"
    },
    {
      "inputs": [],
      "name": "TransferToZeroAddress",
      "type": "error"
    },
    {
      "inputs": [],
      "name": "URIQueryForNonexistentToken",
      "type": "error"
    },
    {
      "anonymous": false,
      "inputs": [
        {
          "indexed": true,
          "internalType": "address",
          "name": "owner",
          "type": "address"
        },
        {
          "indexed": true,
          "internalType": "address",
          "name": "approved",
          "type": "address"
        },
        {
          "indexed": true,
          "internalType": "uint256",
          "name": "tokenId",
          "type": "uint256"
        }
      ],
      "name": "Approval",
      "type": "event"
    },
    {
      "anonymous": false,
      "inputs": [
        {
          "indexed": true,
          "internalType": "address",
          "name": "owner",
          "type": "address"
        },
        {
          "indexed": true,
          "internalType": "address",
          "name": "operator",
          "type": "address"
        },
        {
          "indexed": false,
          "internalType": "bool",
          "name": "approved",
          "type": "bool"
        }
      ],
      "name": "ApprovalForAll",
      "type": "event"
    },
    {
      "anonymous": false,
      "inputs": [
        {
          "indexed": false,
          "internalType": "string",
          "name": "uri",
          "type": "string"
        }
      ],
      "name": "BaseURI",
      "type": "event"
    },
    {
      "anonymous": false,
      "inputs": [
        {
          "indexed": true,
          "internalType": "address",
          "name": "previousOwner",
          "type": "address"
        },
        {
          "indexed": true,
          "internalType": "address",
          "name": "newOwner",
          "type": "address"
        }
      ],
      "name": "OwnershipTransferred",
      "type": "event"
    },
    {
      "anonymous": false,
      "inputs": [
        {
          "indexed": true,
          "internalType": "address",
          "name": "from",
          "type": "address"
        },
        {
          "indexed": true,
          "internalType": "address",
          "name": "to",
          "type": "address"
        },
        {
          "indexed": true,
          "internalType": "uint256",
          "name": "tokenId",
          "type": "uint256"
        }
      ],
      "name": "Transfer",
      "type": "event"
    },
    {
      "anonymous": false,
      "inputs": [
        {
          "indexed": false,
          "internalType": "bool",
          "name": "whitelistEnabled",
          "type": "bool"
        }
      ],
      "name": "WhiteListEnabled",
      "type": "event"
    },
    {
      "inputs": [],
      "name": "_name",
      "outputs": [
        {
          "internalType": "string",
          "name": "",
          "type": "string"
        }
      ],
      "stateMutability": "view",
      "type": "function"
    },
    {
      "inputs": [],
      "name": "_symbol",
      "outputs": [
        {
          "internalType": "string",
          "name": "",
          "type": "string"
        }
      ],
      "stateMutability": "view",
      "type": "function"
    },
    {
      "inputs": [
        {
          "internalType": "address",
          "name": "to",
          "type": "address"
        },
        {
          "internalType": "uint256",
          "name": "tokenId",
          "type": "uint256"
        }
      ],
      "name": "approve",
      "outputs": [],
      "stateMutability": "nonpayable",
      "type": "function"
    },
    {
      "inputs": [
        {
          "internalType": "address",
          "name": "owner",
          "type": "address"
        }
      ],
      "name": "balanceOf",
      "outputs": [
        {
          "internalType": "uint256",
          "name": "",
          "type": "uint256"
        }
      ],
      "stateMutability": "view",
      "type": "function"
    },
    {
      "inputs": [],
      "name": "baseURI",
      "outputs": [
        {
          "internalType": "string",
          "name": "",
          "type": "string"
        }
      ],
      "stateMutability": "view",
      "type": "function"
    },
    {
      "inputs": [
        {
          "internalType": "uint256",
          "name": "tokenId",
          "type": "uint256"
        }
      ],
      "name": "getApproved",
      "outputs": [
        {
          "internalType": "address",
          "name": "",
          "type": "address"
        }
      ],
      "stateMutability": "view",
      "type": "function"
    },
    {
      "inputs": [
        {
          "internalType": "address",
          "name": "owner",
          "type": "address"
        },
        {
          "internalType": "address",
          "name": "operator",
          "type": "address"
        }
      ],
      "name": "isApprovedForAll",
      "outputs": [
        {
          "internalType": "bool",
          "name": "",
          "type": "bool"
        }
      ],
      "stateMutability": "view",
      "type": "function"
    },
    {
      "inputs": [
        {
          "internalType": "uint256",
          "name": "_quantity",
          "type": "uint256"
        },
        {
          "internalType": "address",
          "name": "_creator",
          "type": "address"
        }
      ],
      "name": "mint",
      "outputs": [],
      "stateMutability": "nonpayable",
      "type": "function"
    },
    {
      "inputs": [],
      "name": "name",
      "outputs": [
        {
          "internalType": "string",
          "name": "",
          "type": "string"
        }
      ],
      "stateMutability": "view",
      "type": "function"
    },
    {
      "inputs": [],
      "name": "owner",
      "outputs": [
        {
          "internalType": "address",
          "name": "",
          "type": "address"
        }
      ],
      "stateMutability": "view",
      "type": "function"
    },
    {
      "inputs": [
        {
          "internalType": "uint256",
          "name": "tokenId",
          "type": "uint256"
        }
      ],
      "name": "ownerOf",
      "outputs": [
        {
          "internalType": "address",
          "name": "",
          "type": "address"
        }
      ],
      "stateMutability": "view",
      "type": "function"
    },
    {
      "inputs": [
        {
          "internalType": "address[]",
          "name": "currentAddresses",
          "type": "address[]"
        }
      ],
      "name": "removeWhitelist",
      "outputs": [],
      "stateMutability": "nonpayable",
      "type": "function"
    },
    {
      "inputs": [],
      "name": "renounceOwnership",
      "outputs": [],
      "stateMutability": "nonpayable",
      "type": "function"
    },
    {
      "inputs": [
        {
          "internalType": "address",
          "name": "from",
          "type": "address"
        },
        {
          "internalType": "address",
          "name": "to",
          "type": "address"
        },
        {
          "internalType": "uint256",
          "name": "tokenId",
          "type": "uint256"
        }
      ],
      "name": "safeTransferFrom",
      "outputs": [],
      "stateMutability": "nonpayable",
      "type": "function"
    },
    {
      "inputs": [
        {
          "internalType": "address",
          "name": "from",
          "type": "address"
        },
        {
          "internalType": "address",
          "name": "to",
          "type": "address"
        },
        {
          "internalType": "uint256",
          "name": "tokenId",
          "type": "uint256"
        },
        {
          "internalType": "bytes",
          "name": "_data",
          "type": "bytes"
        }
      ],
      "name": "safeTransferFrom",
      "outputs": [],
      "stateMutability": "nonpayable",
      "type": "function"
    },
    {
      "inputs": [
        {
          "internalType": "address",
          "name": "operator",
          "type": "address"
        },
        {
          "internalType": "bool",
          "name": "approved",
          "type": "bool"
        }
      ],
      "name": "setApprovalForAll",
      "outputs": [],
      "stateMutability": "nonpayable",
      "type": "function"
    },
    {
      "inputs": [
        {
          "internalType": "string",
          "name": "baseURI_",
          "type": "string"
        }
      ],
      "name": "setBaseURI",
      "outputs": [],
      "stateMutability": "nonpayable",
      "type": "function"
    },
    {
      "inputs": [
        {
          "internalType": "string",
          "name": "_uriSuffix",
          "type": "string"
        }
      ],
      "name": "setUriSuffix",
      "outputs": [],
      "stateMutability": "nonpayable",
      "type": "function"
    },
    {
      "inputs": [
        {
          "internalType": "address[]",
          "name": "newAddresses",
          "type": "address[]"
        }
      ],
      "name": "setWhitelist",
      "outputs": [],
      "stateMutability": "nonpayable",
      "type": "function"
    },
    {
      "inputs": [
        {
          "internalType": "bool",
          "name": "_state",
          "type": "bool"
        }
      ],
      "name": "setWhitelistEnabled",
      "outputs": [],
      "stateMutability": "nonpayable",
      "type": "function"
    },
    {
      "inputs": [
        {
          "internalType": "bytes4",
          "name": "interfaceId",
          "type": "bytes4"
        }
      ],
      "name": "supportsInterface",
      "outputs": [
        {
          "internalType": "bool",
          "name": "",
          "type": "bool"
        }
      ],
      "stateMutability": "view",
      "type": "function"
    },
    {
      "inputs": [],
      "name": "symbol",
      "outputs": [
        {
          "internalType": "string",
          "name": "",
          "type": "string"
        }
      ],
      "stateMutability": "view",
      "type": "function"
    },
    {
      "inputs": [
        {
          "internalType": "uint256",
          "name": "_tokenId",
          "type": "uint256"
        }
      ],
      "name": "tokenURI",
      "outputs": [
        {
          "internalType": "string",
          "name": "",
          "type": "string"
        }
      ],
      "stateMutability": "view",
      "type": "function"
    },
    {
      "inputs": [],
      "name": "totalSupply",
      "outputs": [
        {
          "internalType": "uint256",
          "name": "",
          "type": "uint256"
        }
      ],
      "stateMutability": "view",
      "type": "function"
    },
    {
      "inputs": [
        {
          "internalType": "address",
          "name": "from",
          "type": "address"
        },
        {
          "internalType": "address",
          "name": "to",
          "type": "address"
        },
        {
          "internalType": "uint256",
          "name": "tokenId",
          "type": "uint256"
        }
      ],
      "name": "transferFrom",
      "outputs": [],
      "stateMutability": "nonpayable",
      "type": "function"
    },
    {
      "inputs": [
        {
          "internalType": "address",
          "name": "newOwner",
          "type": "address"
        }
      ],
      "name": "transferOwnership",
      "outputs": [],
      "stateMutability": "nonpayable",
      "type": "function"
    },
    {
      "inputs": [],
      "name": "uriSuffix",
      "outputs": [
        {
          "internalType": "string",
          "name": "",
          "type": "string"
        }
      ],
      "stateMutability": "view",
      "type": "function"
    },
    {
      "inputs": [
        {
          "internalType": "address",
          "name": "",
          "type": "address"
        }
      ],
      "name": "whitelist",
      "outputs": [
        {
          "internalType": "bool",
          "name": "",
          "type": "bool"
        }
      ],
      "stateMutability": "view",
      "type": "function"
    },
    {
      "inputs": [],
      "name": "whitelistEnabled",
      "outputs": [
        {
          "internalType": "bool",
          "name": "",
          "type": "bool"
        }
      ],
      "stateMutability": "view",
      "type": "function"
    }
  ],
  "bytecode": "0x608060405260405180602001604052806000815250600990805190602001906200002b92919062000277565b506040518060400160405280600581526020017f2e6a736f6e000000000000000000000000000000000000000000000000000000815250600a90805190602001906200007992919062000277565b506000600b556000600c60006101000a81548160ff021916908315150217905550348015620000a757600080fd5b506040516200396a3803806200396a8339818101604052810190620000cd9190620004c4565b81818160029080519060200190620000e792919062000277565b5080600390805190602001906200010092919062000277565b5062000111620001a460201b60201c565b6000819055505050620001396200012d620001a960201b60201c565b620001b160201b60201c565b6000829050600082905060008251141580156200015857506000815114155b6200019a576040517f08c379a00000000000000000000000000000000000000000000000000000000081526004016200019190620005d0565b60405180910390fd5b5050505062000657565b600090565b600033905090565b6000600860009054906101000a900473ffffffffffffffffffffffffffffffffffffffff16905081600860006101000a81548173ffffffffffffffffffffffffffffffffffffffff021916908373ffffffffffffffffffffffffffffffffffffffff1602179055508173ffffffffffffffffffffffffffffffffffffffff168173ffffffffffffffffffffffffffffffffffffffff167f8be0079c531659141344cd1fd0a4f28419497f9722a3daafe3b4186f6b6457e060405160405180910390a35050565b828054620002859062000621565b90600052602060002090601f016020900481019282620002a95760008555620002f5565b82601f10620002c457805160ff1916838001178555620002f5565b82800160010185558215620002f5579182015b82811115620002f4578251825591602001919060010190620002d7565b5b50905062000304919062000308565b5090565b5b808211156200032357600081600090555060010162000309565b5090565b6000604051905090565b600080fd5b600080fd5b600080fd5b600080fd5b6000601f19601f8301169050919050565b7f4e487b7100000000000000000000000000000000000000000000000000000000600052604160045260246000fd5b620003908262000345565b810181811067ffffffffffffffff82111715620003b257620003b162000356565b5b80604052505050565b6000620003c762000327565b9050620003d5828262000385565b919050565b600067ffffffffffffffff821115620003f857620003f762000356565b5b620004038262000345565b9050602081019050919050565b60005b838110156200043057808201518184015260208101905062000413565b8381111562000440576000848401525b50505050565b60006200045d6200045784620003da565b620003bb565b9050828152602081018484840111156200047c576200047b62000340565b5b6200048984828562000410565b509392505050565b600082601f830112620004a957620004a86200033b565b5b8151620004bb84826020860162000446565b91505092915050565b60008060408385031215620004de57620004dd62000331565b5b600083015167ffffffffffffffff811115620004ff57620004fe62000336565b5b6200050d8582860162000491565b925050602083015167ffffffffffffffff81111562000531576200053062000336565b5b6200053f8582860162000491565b9150509250929050565b600082825260208201905092915050565b7f455243373231413a2043686f6f73652061206e616d6520616e642073796d626f60008201527f6c00000000000000000000000000000000000000000000000000000000000000602082015250565b6000620005b860218362000549565b9150620005c5826200055a565b604082019050919050565b60006020820190508181036000830152620005eb81620005a9565b9050919050565b7f4e487b7100000000000000000000000000000000000000000000000000000000600052602260045260246000fd5b600060028204905060018216806200063a57607f821691505b60208210811415620006515762000650620005f2565b5b50919050565b61330380620006676000396000f3fe608060405234801561001057600080fd5b50600436106101cf5760003560e01c80636c0360eb11610104578063a22cb465116100a2578063d28d885211610071578063d28d885214610506578063e985e9c514610524578063f2fde38b14610554578063f421764814610570576101cf565b8063a22cb46514610480578063b09f12661461049c578063b88d4fde146104ba578063c87b56dd146104d6576101cf565b80638da5cb5b116100de5780638da5cb5b146103f857806394bf804d1461041657806395d89b41146104325780639b19251a14610450576101cf565b80636c0360eb146103a057806370a08231146103be578063715018a6146103ee576101cf565b8063232452161161017157806351fb012d1161014b57806351fb012d146103185780635503a0e81461033657806355f804b3146103545780636352211e14610370576101cf565b806323245216146102c457806323b872dd146102e057806342842e0e146102fc576101cf565b8063081812fc116101ad578063081812fc1461023e578063095ea7b31461026e57806316ba10e01461028a57806318160ddd146102a6576101cf565b806301ffc9a7146101d4578063052d9e7e1461020457806306fdde0314610220575b600080fd5b6101ee60048036038101906101e99190612339565b61058c565b6040516101fb9190612381565b60405180910390f35b61021e600480360381019061021991906123c8565b61061e565b005b610228610689565b604051610235919061248e565b60405180910390f35b610258600480360381019061025391906124e6565b61071b565b6040516102659190612554565b60405180910390f35b6102886004803603810190610283919061259b565b610797565b005b6102a4600480360381019061029f9190612710565b61093e565b005b6102ae610960565b6040516102bb9190612768565b60405180910390f35b6102de60048036038101906102d991906127e3565b610977565b005b6102fa60048036038101906102f59190612830565b610ac0565b005b61031660048036038101906103119190612830565b610ad0565b005b610320610af0565b60405161032d9190612381565b60405180910390f35b61033e610b03565b60405161034b919061248e565b60405180910390f35b61036e60048036038101906103699190612710565b610b91565b005b61038a600480360381019061038591906124e6565b610beb565b6040516103979190612554565b60405180910390f35b6103a8610bfd565b6040516103b5919061248e565b60405180910390f35b6103d860048036038101906103d39190612883565b610c8b565b6040516103e59190612768565b60405180910390f35b6103f6610d20565b005b610400610d34565b60405161040d9190612554565b60405180910390f35b610430600480360381019061042b91906128b0565b610d5e565b005b61043a610ea7565b604051610447919061248e565b60405180910390f35b61046a60048036038101906104659190612883565b610f39565b6040516104779190612381565b60405180910390f35b61049a600480360381019061049591906128f0565b610f59565b005b6104a46110d1565b6040516104b1919061248e565b60405180910390f35b6104d460048036038101906104cf91906129d1565b61115f565b005b6104f060048036038101906104eb91906124e6565b6111d2565b6040516104fd919061248e565b60405180910390f35b61050e61127c565b60405161051b919061248e565b60405180910390f35b61053e60048036038101906105399190612a54565b61130a565b60405161054b9190612381565b60405180910390f35b61056e60048036038101906105699190612883565b61139e565b005b61058a600480360381019061058591906127e3565b611422565b005b60006301ffc9a760e01b827bffffffffffffffffffffffffffffffffffffffffffffffffffffffff191614806105e757506380ac58cd60e01b827bffffffffffffffffffffffffffffffffffffffffffffffffffffffff1916145b806106175750635b5e139f60e01b827bffffffffffffffffffffffffffffffffffffffffffffffffffffffff1916145b9050919050565b6106266115ba565b80600c60006101000a81548160ff0219169083151502179055507f218e591c4b0d49651b4b42843cb8cc59080122def3d2271f56ef2e21896753ec600c60009054906101000a900460ff1660405161067e9190612381565b60405180910390a150565b60606002805461069890612ac3565b80601f01602080910402602001604051908101604052809291908181526020018280546106c490612ac3565b80156107115780601f106106e657610100808354040283529160200191610711565b820191906000526020600020905b8154815290600101906020018083116106f457829003601f168201915b5050505050905090565b600061072682611638565b61075c576040517fcf4700e400000000000000000000000000000000000000000000000000000000815260040160405180910390fd5b6006600083815260200190815260200160002060009054906101000a900473ffffffffffffffffffffffffffffffffffffffff169050919050565b60006107a282611697565b90508073ffffffffffffffffffffffffffffffffffffffff168373ffffffffffffffffffffffffffffffffffffffff16141561080a576040517f943f7b8c00000000000000000000000000000000000000000000000000000000815260040160405180910390fd5b8073ffffffffffffffffffffffffffffffffffffffff16610829611765565b73ffffffffffffffffffffffffffffffffffffffff161461088c5761085581610850611765565b61130a565b61088b576040517fcfb3b94200000000000000000000000000000000000000000000000000000000815260040160405180910390fd5b5b826006600084815260200190815260200160002060006101000a81548173ffffffffffffffffffffffffffffffffffffffff021916908373ffffffffffffffffffffffffffffffffffffffff160217905550818373ffffffffffffffffffffffffffffffffffffffff168273ffffffffffffffffffffffffffffffffffffffff167f8c5be1e5ebec7d5bd14f71427d1e84f3dd0314c0f7b2291e5b200ac8c7c3b92560405160405180910390a4505050565b6109466115ba565b80600a908051906020019061095c92919061222a565b5050565b600061096a61176d565b6001546000540303905090565b61097f6115ba565b600082829050116109c5576040517f08c379a00000000000000000000000000000000000000000000000000000000081526004016109bc90612b41565b60405180910390fd5b6005828290501115610a0c576040517f08c379a0000000000000000000000000000000000000000000000000000000008152600401610a0390612bad565b60405180910390fd5b60005b82829050811015610abb57600d6000848484818110610a3157610a30612bcd565b5b9050602002016020810190610a469190612883565b73ffffffffffffffffffffffffffffffffffffffff1673ffffffffffffffffffffffffffffffffffffffff16815260200190815260200160002060006101000a81549060ff0219169055600b6000815480929190610aa390612c2b565b91905055508080610ab390612c55565b915050610a0f565b505050565b610acb838383611772565b505050565b610aeb8383836040518060200160405280600081525061115f565b505050565b600c60009054906101000a900460ff1681565b600a8054610b1090612ac3565b80601f0160208091040260200160405190810160405280929190818152602001828054610b3c90612ac3565b8015610b895780601f10610b5e57610100808354040283529160200191610b89565b820191906000526020600020905b815481529060010190602001808311610b6c57829003601f168201915b505050505081565b610b996115ba565b8060099080519060200190610baf92919061222a565b507f01e56a02aca7f26a28165a040851ba78f30282b55ca81c63a804cdc1e2dcea726009604051610be09190612d33565b60405180910390a150565b6000610bf682611697565b9050919050565b60098054610c0a90612ac3565b80601f0160208091040260200160405190810160405280929190818152602001828054610c3690612ac3565b8015610c835780601f10610c5857610100808354040283529160200191610c83565b820191906000526020600020905b815481529060010190602001808311610c6657829003601f168201915b505050505081565b600080610c9783611b3a565b1415610ccf576040517f8f4eb60400000000000000000000000000000000000000000000000000000000815260040160405180910390fd5b67ffffffffffffffff600560008473ffffffffffffffffffffffffffffffffffffffff1673ffffffffffffffffffffffffffffffffffffffff16815260200190815260200160002054169050919050565b610d286115ba565b610d326000611b44565b565b6000600860009054906101000a900473ffffffffffffffffffffffffffffffffffffffff16905090565b60001515600c60009054906101000a900460ff1615151415610df057610d82610d34565b73ffffffffffffffffffffffffffffffffffffffff163373ffffffffffffffffffffffffffffffffffffffff1614610def576040517f08c379a0000000000000000000000000000000000000000000000000000000008152600401610de690612da1565b60405180910390fd5b5b60011515600c60009054906101000a900460ff1615151415610e9957600d60003373ffffffffffffffffffffffffffffffffffffffff1673ffffffffffffffffffffffffffffffffffffffff16815260200190815260200160002060009054906101000a900460ff16610e98576040517f08c379a0000000000000000000000000000000000000000000000000000000008152600401610e8f90612da1565b60405180910390fd5b5b610ea38183611c0a565b5050565b606060038054610eb690612ac3565b80601f0160208091040260200160405190810160405280929190818152602001828054610ee290612ac3565b8015610f2f5780601f10610f0457610100808354040283529160200191610f2f565b820191906000526020600020905b815481529060010190602001808311610f1257829003601f168201915b5050505050905090565b600d6020528060005260406000206000915054906101000a900460ff1681565b610f61611765565b73ffffffffffffffffffffffffffffffffffffffff168273ffffffffffffffffffffffffffffffffffffffff161415610fc6576040517fb06307db00000000000000000000000000000000000000000000000000000000815260040160405180910390fd5b8060076000610fd3611765565b73ffffffffffffffffffffffffffffffffffffffff1673ffffffffffffffffffffffffffffffffffffffff16815260200190815260200160002060008473ffffffffffffffffffffffffffffffffffffffff1673ffffffffffffffffffffffffffffffffffffffff16815260200190815260200160002060006101000a81548160ff0219169083151502179055508173ffffffffffffffffffffffffffffffffffffffff16611080611765565b73ffffffffffffffffffffffffffffffffffffffff167f17307eab39ab6107e8899845ad3d59bd9653f200f220920489ca2b5937696c31836040516110c59190612381565b60405180910390a35050565b600380546110de90612ac3565b80601f016020809104026020016040519081016040528092919081815260200182805461110a90612ac3565b80156111575780601f1061112c57610100808354040283529160200191611157565b820191906000526020600020905b81548152906001019060200180831161113a57829003601f168201915b505050505081565b61116a848484611772565b60008373ffffffffffffffffffffffffffffffffffffffff163b146111cc5761119584848484611c28565b6111cb576040517fd1a57ed600000000000000000000000000000000000000000000000000000000815260040160405180910390fd5b5b50505050565b60606111dd82611638565b61121c576040517f08c379a000000000000000000000000000000000000000000000000000000000815260040161121390612e33565b60405180910390fd5b6000611226611d88565b905060008151116112465760405180602001604052806000815250611274565b8061125084611e1a565b600a60405160200161126493929190612f0e565b6040516020818303038152906040525b915050919050565b6002805461128990612ac3565b80601f01602080910402602001604051908101604052809291908181526020018280546112b590612ac3565b80156113025780601f106112d757610100808354040283529160200191611302565b820191906000526020600020905b8154815290600101906020018083116112e557829003601f168201915b505050505081565b6000600760008473ffffffffffffffffffffffffffffffffffffffff1673ffffffffffffffffffffffffffffffffffffffff16815260200190815260200160002060008373ffffffffffffffffffffffffffffffffffffffff1673ffffffffffffffffffffffffffffffffffffffff16815260200190815260200160002060009054906101000a900460ff16905092915050565b6113a66115ba565b600073ffffffffffffffffffffffffffffffffffffffff168173ffffffffffffffffffffffffffffffffffffffff161415611416576040517f08c379a000000000000000000000000000000000000000000000000000000000815260040161140d90612fb1565b60405180910390fd5b61141f81611b44565b50565b61142a6115ba565b60008282905011611470576040517f08c379a000000000000000000000000000000000000000000000000000000000815260040161146790612b41565b60405180910390fd5b6107d082829050106114b7576040517f08c379a00000000000000000000000000000000000000000000000000000000081526004016114ae90612bad565b60405180910390fd5b60005b828290508110156115b5576107d0600b541061150b576040517f08c379a000000000000000000000000000000000000000000000000000000000815260040161150290613043565b60405180910390fd5b6001600d600085858581811061152457611523612bcd565b5b90506020020160208101906115399190612883565b73ffffffffffffffffffffffffffffffffffffffff1673ffffffffffffffffffffffffffffffffffffffff16815260200190815260200160002060006101000a81548160ff021916908315150217905550600b600081548092919061159d90612c55565b919050555080806115ad90612c55565b9150506114ba565b505050565b6115c2611f7b565b73ffffffffffffffffffffffffffffffffffffffff166115e0610d34565b73ffffffffffffffffffffffffffffffffffffffff1614611636576040517f08c379a000000000000000000000000000000000000000000000000000000000815260040161162d906130af565b60405180910390fd5b565b60008161164361176d565b11158015611652575060005482105b8015611690575060007c0100000000000000000000000000000000000000000000000000000000600460008581526020019081526020016000205416145b9050919050565b600080829050806116a661176d565b1161172e5760005481101561172d5760006004600083815260200190815260200160002054905060007c01000000000000000000000000000000000000000000000000000000008216141561172b575b60008114156117215760046000836001900393508381526020019081526020016000205490506116f6565b8092505050611760565b505b5b6040517fdf2d9b4200000000000000000000000000000000000000000000000000000000815260040160405180910390fd5b919050565b600033905090565b600090565b600061177d82611697565b90508373ffffffffffffffffffffffffffffffffffffffff168173ffffffffffffffffffffffffffffffffffffffff16146117e4576040517fa114810000000000000000000000000000000000000000000000000000000000815260040160405180910390fd5b60006006600084815260200190815260200160002060009054906101000a900473ffffffffffffffffffffffffffffffffffffffff16905060008573ffffffffffffffffffffffffffffffffffffffff1661183d611765565b73ffffffffffffffffffffffffffffffffffffffff16148061186c575061186b86611866611765565b61130a565b5b806118a9575061187a611765565b73ffffffffffffffffffffffffffffffffffffffff168273ffffffffffffffffffffffffffffffffffffffff16145b9050806118e2576040517f59c896be00000000000000000000000000000000000000000000000000000000815260040160405180910390fd5b60006118ed86611b3a565b1415611925576040517fea553b3400000000000000000000000000000000000000000000000000000000815260040160405180910390fd5b6119328686866001611f83565b600061193d83611b3a565b14611979576006600085815260200190815260200160002060006101000a81549073ffffffffffffffffffffffffffffffffffffffff02191690555b600560008773ffffffffffffffffffffffffffffffffffffffff1673ffffffffffffffffffffffffffffffffffffffff168152602001908152602001600020600081546001900391905081905550600560008673ffffffffffffffffffffffffffffffffffffffff1673ffffffffffffffffffffffffffffffffffffffff16815260200190815260200160002060008154600101919050819055507c020000000000000000000000000000000000000000000000000000000060a042901b611a4087611b3a565b1717600460008681526020019081526020016000208190555060007c020000000000000000000000000000000000000000000000000000000084161415611aca576000600185019050600060046000838152602001908152602001600020541415611ac8576000548114611ac7578360046000838152602001908152602001600020819055505b5b505b838573ffffffffffffffffffffffffffffffffffffffff168773ffffffffffffffffffffffffffffffffffffffff167fddf252ad1be2c89b69c2b068fc378daa952ba7f163c4a11628f55a4df523b3ef60405160405180910390a4611b328686866001611f89565b505050505050565b6000819050919050565b6000600860009054906101000a900473ffffffffffffffffffffffffffffffffffffffff16905081600860006101000a81548173ffffffffffffffffffffffffffffffffffffffff021916908373ffffffffffffffffffffffffffffffffffffffff1602179055508173ffffffffffffffffffffffffffffffffffffffff168173ffffffffffffffffffffffffffffffffffffffff167f8be0079c531659141344cd1fd0a4f28419497f9722a3daafe3b4186f6b6457e060405160405180910390a35050565b611c24828260405180602001604052806000815250611f8f565b5050565b60008373ffffffffffffffffffffffffffffffffffffffff1663150b7a02611c4e611765565b8786866040518563ffffffff1660e01b8152600401611c709493929190613124565b602060405180830381600087803b158015611c8a57600080fd5b505af1925050508015611cbb57506040513d601f19601f82011682018060405250810190611cb89190613185565b60015b611d35573d8060008114611ceb576040519150601f19603f3d011682016040523d82523d6000602084013e611cf0565b606091505b50600081511415611d2d576040517fd1a57ed600000000000000000000000000000000000000000000000000000000815260040160405180910390fd5b805181602001fd5b63150b7a0260e01b7bffffffffffffffffffffffffffffffffffffffffffffffffffffffff1916817bffffffffffffffffffffffffffffffffffffffffffffffffffffffff191614915050949350505050565b606060098054611d9790612ac3565b80601f0160208091040260200160405190810160405280929190818152602001828054611dc390612ac3565b8015611e105780601f10611de557610100808354040283529160200191611e10565b820191906000526020600020905b815481529060010190602001808311611df357829003601f168201915b5050505050905090565b60606000821415611e62576040518060400160405280600181526020017f30000000000000000000000000000000000000000000000000000000000000008152509050611f76565b600082905060005b60008214611e94578080611e7d90612c55565b915050600a82611e8d91906131e1565b9150611e6a565b60008167ffffffffffffffff811115611eb057611eaf6125e5565b5b6040519080825280601f01601f191660200182016040528015611ee25781602001600182028036833780820191505090505b5090505b60008514611f6f57600182611efb9190613212565b9150600a85611f0a9190613246565b6030611f169190613277565b60f81b818381518110611f2c57611f2b612bcd565b5b60200101907effffffffffffffffffffffffffffffffffffffffffffffffffffffffffffff1916908160001a905350600a85611f6891906131e1565b9450611ee6565b8093505050505b919050565b600033905090565b50505050565b50505050565b6000805490506000611fa085611b3a565b1415611fd8576040517f2e07630000000000000000000000000000000000000000000000000000000000815260040160405180910390fd5b6000831415612013576040517fb562e8dd00000000000000000000000000000000000000000000000000000000815260040160405180910390fd5b6120206000858386611f83565b600160406001901b178302600560008673ffffffffffffffffffffffffffffffffffffffff1673ffffffffffffffffffffffffffffffffffffffff1681526020019081526020016000206000828254019250508190555060e161208560018514612220565b901b60a042901b61209586611b3a565b1717600460008381526020019081526020016000208190555060008190506000848201905060008673ffffffffffffffffffffffffffffffffffffffff163b14612199575b818673ffffffffffffffffffffffffffffffffffffffff16600073ffffffffffffffffffffffffffffffffffffffff167fddf252ad1be2c89b69c2b068fc378daa952ba7f163c4a11628f55a4df523b3ef60405160405180910390a46121496000878480600101955087611c28565b61217f576040517fd1a57ed600000000000000000000000000000000000000000000000000000000815260040160405180910390fd5b8082106120da57826000541461219457600080fd5b612204565b5b818060010192508673ffffffffffffffffffffffffffffffffffffffff16600073ffffffffffffffffffffffffffffffffffffffff167fddf252ad1be2c89b69c2b068fc378daa952ba7f163c4a11628f55a4df523b3ef60405160405180910390a480821061219a575b81600081905550505061221a6000858386611f89565b50505050565b6000819050919050565b82805461223690612ac3565b90600052602060002090601f016020900481019282612258576000855561229f565b82601f1061227157805160ff191683800117855561229f565b8280016001018555821561229f579182015b8281111561229e578251825591602001919060010190612283565b5b5090506122ac91906122b0565b5090565b5b808211156122c95760008160009055506001016122b1565b5090565b6000604051905090565b600080fd5b600080fd5b60007fffffffff0000000000000000000000000000000000000000000000000000000082169050919050565b612316816122e1565b811461232157600080fd5b50565b6000813590506123338161230d565b92915050565b60006020828403121561234f5761234e6122d7565b5b600061235d84828501612324565b91505092915050565b60008115159050919050565b61237b81612366565b82525050565b60006020820190506123966000830184612372565b92915050565b6123a581612366565b81146123b057600080fd5b50565b6000813590506123c28161239c565b92915050565b6000602082840312156123de576123dd6122d7565b5b60006123ec848285016123b3565b91505092915050565b600081519050919050565b600082825260208201905092915050565b60005b8381101561242f578082015181840152602081019050612414565b8381111561243e576000848401525b50505050565b6000601f19601f8301169050919050565b6000612460826123f5565b61246a8185612400565b935061247a818560208601612411565b61248381612444565b840191505092915050565b600060208201905081810360008301526124a88184612455565b905092915050565b6000819050919050565b6124c3816124b0565b81146124ce57600080fd5b50565b6000813590506124e0816124ba565b92915050565b6000602082840312156124fc576124fb6122d7565b5b600061250a848285016124d1565b91505092915050565b600073ffffffffffffffffffffffffffffffffffffffff82169050919050565b600061253e82612513565b9050919050565b61254e81612533565b82525050565b60006020820190506125696000830184612545565b92915050565b61257881612533565b811461258357600080fd5b50565b6000813590506125958161256f565b92915050565b600080604083850312156125b2576125b16122d7565b5b60006125c085828601612586565b92505060206125d1858286016124d1565b9150509250929050565b600080fd5b600080fd5b7f4e487b7100000000000000000000000000000000000000000000000000000000600052604160045260246000fd5b61261d82612444565b810181811067ffffffffffffffff8211171561263c5761263b6125e5565b5b80604052505050565b600061264f6122cd565b905061265b8282612614565b919050565b600067ffffffffffffffff82111561267b5761267a6125e5565b5b61268482612444565b9050602081019050919050565b82818337600083830152505050565b60006126b36126ae84612660565b612645565b9050828152602081018484840111156126cf576126ce6125e0565b5b6126da848285612691565b509392505050565b600082601f8301126126f7576126f66125db565b5b81356127078482602086016126a0565b91505092915050565b600060208284031215612726576127256122d7565b5b600082013567ffffffffffffffff811115612744576127436122dc565b5b612750848285016126e2565b91505092915050565b612762816124b0565b82525050565b600060208201905061277d6000830184612759565b92915050565b600080fd5b600080fd5b60008083601f8401126127a3576127a26125db565b5b8235905067ffffffffffffffff8111156127c0576127bf612783565b5b6020830191508360208202830111156127dc576127db612788565b5b9250929050565b600080602083850312156127fa576127f96122d7565b5b600083013567ffffffffffffffff811115612818576128176122dc565b5b6128248582860161278d565b92509250509250929050565b600080600060608486031215612849576128486122d7565b5b600061285786828701612586565b935050602061286886828701612586565b9250506040612879868287016124d1565b9150509250925092565b600060208284031215612899576128986122d7565b5b60006128a784828501612586565b91505092915050565b600080604083850312156128c7576128c66122d7565b5b60006128d5858286016124d1565b92505060206128e685828601612586565b9150509250929050565b60008060408385031215612907576129066122d7565b5b600061291585828601612586565b9250506020612926858286016123b3565b9150509250929050565b600067ffffffffffffffff82111561294b5761294a6125e5565b5b61295482612444565b9050602081019050919050565b600061297461296f84612930565b612645565b9050828152602081018484840111156129905761298f6125e0565b5b61299b848285612691565b509392505050565b600082601f8301126129b8576129b76125db565b5b81356129c8848260208601612961565b91505092915050565b600080600080608085870312156129eb576129ea6122d7565b5b60006129f987828801612586565b9450506020612a0a87828801612586565b9350506040612a1b878288016124d1565b925050606085013567ffffffffffffffff811115612a3c57612a3b6122dc565b5b612a48878288016129a3565b91505092959194509250565b60008060408385031215612a6b57612a6a6122d7565b5b6000612a7985828601612586565b9250506020612a8a85828601612586565b9150509250929050565b7f4e487b7100000000000000000000000000000000000000000000000000000000600052602260045260246000fd5b60006002820490506001821680612adb57607f821691505b60208210811415612aef57612aee612a94565b5b50919050565b7f4e6f20757365722064657461696c732070726f76696465640000000000000000600082015250565b6000612b2b601883612400565b9150612b3682612af5565b602082019050919050565b60006020820190508181036000830152612b5a81612b1e565b9050919050565b7f546f6f206d616e792075736572737320746f2077686974656c69737400000000600082015250565b6000612b97601c83612400565b9150612ba282612b61565b602082019050919050565b60006020820190508181036000830152612bc681612b8a565b9050919050565b7f4e487b7100000000000000000000000000000000000000000000000000000000600052603260045260246000fd5b7f4e487b7100000000000000000000000000000000000000000000000000000000600052601160045260246000fd5b6000612c36826124b0565b91506000821415612c4a57612c49612bfc565b5b600182039050919050565b6000612c60826124b0565b91507fffffffffffffffffffffffffffffffffffffffffffffffffffffffffffffffff821415612c9357612c92612bfc565b5b600182019050919050565b60008190508160005260206000209050919050565b60008154612cc081612ac3565b612cca8186612400565b94506001821660008114612ce55760018114612cf757612d2a565b60ff1983168652602086019350612d2a565b612d0085612c9e565b60005b83811015612d2257815481890152600182019150602081019050612d03565b808801955050505b50505092915050565b60006020820190508181036000830152612d4d8184612cb3565b905092915050565b7f41646472657373206e6f742077686974656c6973746564000000000000000000600082015250565b6000612d8b601783612400565b9150612d9682612d55565b602082019050919050565b60006020820190508181036000830152612dba81612d7e565b9050919050565b7f4552433732314d657461646174613a2055524920717565727920666f72206e6f60008201527f6e6578697374656e7420746f6b656e0000000000000000000000000000000000602082015250565b6000612e1d602f83612400565b9150612e2882612dc1565b604082019050919050565b60006020820190508181036000830152612e4c81612e10565b9050919050565b600081905092915050565b6000612e69826123f5565b612e738185612e53565b9350612e83818560208601612411565b80840191505092915050565b60008154612e9c81612ac3565b612ea68186612e53565b94506001821660008114612ec15760018114612ed257612f05565b60ff19831686528186019350612f05565b612edb85612c9e565b60005b83811015612efd57815481890152600182019150602081019050612ede565b838801955050505b50505092915050565b6000612f1a8286612e5e565b9150612f268285612e5e565b9150612f328284612e8f565b9150819050949350505050565b7f4f776e61626c653a206e6577206f776e657220697320746865207a65726f206160008201527f6464726573730000000000000000000000000000000000000000000000000000602082015250565b6000612f9b602683612400565b9150612fa682612f3f565b604082019050919050565b60006020820190508181036000830152612fca81612f8e565b9050919050565b7f4d6178696d756d20557365727320616c72656164792077686974656c6973746560008201527f6400000000000000000000000000000000000000000000000000000000000000602082015250565b600061302d602183612400565b915061303882612fd1565b604082019050919050565b6000602082019050818103600083015261305c81613020565b9050919050565b7f4f776e61626c653a2063616c6c6572206973206e6f7420746865206f776e6572600082015250565b6000613099602083612400565b91506130a482613063565b602082019050919050565b600060208201905081810360008301526130c88161308c565b9050919050565b600081519050919050565b600082825260208201905092915050565b60006130f6826130cf565b61310081856130da565b9350613110818560208601612411565b61311981612444565b840191505092915050565b60006080820190506131396000830187612545565b6131466020830186612545565b6131536040830185612759565b818103606083015261316581846130eb565b905095945050505050565b60008151905061317f8161230d565b92915050565b60006020828403121561319b5761319a6122d7565b5b60006131a984828501613170565b91505092915050565b7f4e487b7100000000000000000000000000000000000000000000000000000000600052601260045260246000fd5b60006131ec826124b0565b91506131f7836124b0565b925082613207576132066131b2565b5b828204905092915050565b600061321d826124b0565b9150613228836124b0565b92508282101561323b5761323a612bfc565b5b828203905092915050565b6000613251826124b0565b915061325c836124b0565b92508261326c5761326b6131b2565b5b828206905092915050565b6000613282826124b0565b915061328d836124b0565b9250827fffffffffffffffffffffffffffffffffffffffffffffffffffffffffffffffff038211156132c2576132c1612bfc565b5b82820190509291505056fea264697066735822122032fecdbd77ee4b1e8527098c887ef6c2a2b55fc7086a13b700855cd12b10e4bb64736f6c63430008090033",
  "linkReferences": {},
  "deployedLinkReferences": {}
}