{
  "_format": "hh-sol-artifact-1",
  "contractName": "ERC721AFactory",
  "sourceName": "contracts/factoryContracts/ERC721AFactory.sol",
  "abi": [
    {
      "inputs": [
        {
          "internalType": "string",
          "name": "name_",
          "type": "string"
        },
        {
          "internalType": "string",
          "name": "symbol_",
          "type": "string"
        }
      ],
      "stateMutability": "nonpayable",
      "type": "constructor"
    },
    {
      "inputs": [],
      "name": "ApprovalCallerNotOwnerNorApproved",
      "type": "error"
    },
    {
      "inputs": [],
      "name": "ApprovalQueryForNonexistentToken",
      "type": "error"
    },
    {
      "inputs": [],
      "name": "ApprovalToCurrentOwner",
      "type": "error"
    },
    {
      "inputs": [],
      "name": "ApproveToCaller",
      "type": "error"
    },
    {
      "inputs": [],
      "name": "BalanceQueryForZeroAddress",
      "type": "error"
    },
    {
      "inputs": [],
      "name": "MintToZeroAddress",
      "type": "error"
    },
    {
      "inputs": [],
      "name": "MintZeroQuantity",
      "type": "error"
    },
    {
      "inputs": [],
      "name": "OwnerQueryForNonexistentToken",
      "type": "error"
    },
    {
      "inputs": [],
      "name": "TransferCallerNotOwnerNorApproved",
      "type": "error"
    },
    {
      "inputs": [],
      "name": "TransferFromIncorrectOwner",
      "type": "error"
    },
    {
      "inputs": [],
      "name": "TransferToNonERC721ReceiverImplementer",
      "type": "error"
    },
    {
      "inputs": [],
      "name": "TransferToZeroAddress",
      "type": "error"
    },
    {
      "inputs": [],
      "name": "URIQueryForNonexistentToken",
      "type": "error"
    },
    {
      "anonymous": false,
      "inputs": [
        {
          "indexed": true,
          "internalType": "address",
          "name": "owner",
          "type": "address"
        },
        {
          "indexed": true,
          "internalType": "address",
          "name": "approved",
          "type": "address"
        },
        {
          "indexed": true,
          "internalType": "uint256",
          "name": "tokenId",
          "type": "uint256"
        }
      ],
      "name": "Approval",
      "type": "event"
    },
    {
      "anonymous": false,
      "inputs": [
        {
          "indexed": true,
          "internalType": "address",
          "name": "owner",
          "type": "address"
        },
        {
          "indexed": true,
          "internalType": "address",
          "name": "operator",
          "type": "address"
        },
        {
          "indexed": false,
          "internalType": "bool",
          "name": "approved",
          "type": "bool"
        }
      ],
      "name": "ApprovalForAll",
      "type": "event"
    },
    {
      "anonymous": false,
      "inputs": [
        {
          "indexed": false,
          "internalType": "string",
          "name": "uri",
          "type": "string"
        }
      ],
      "name": "BaseURI",
      "type": "event"
    },
    {
      "anonymous": false,
      "inputs": [
        {
          "indexed": true,
          "internalType": "address",
          "name": "previousOwner",
          "type": "address"
        },
        {
          "indexed": true,
          "internalType": "address",
          "name": "newOwner",
          "type": "address"
        }
      ],
      "name": "OwnershipTransferred",
      "type": "event"
    },
    {
      "anonymous": false,
      "inputs": [
        {
          "indexed": true,
          "internalType": "address",
          "name": "from",
          "type": "address"
        },
        {
          "indexed": true,
          "internalType": "address",
          "name": "to",
          "type": "address"
        },
        {
          "indexed": true,
          "internalType": "uint256",
          "name": "tokenId",
          "type": "uint256"
        }
      ],
      "name": "Transfer",
      "type": "event"
    },
    {
      "anonymous": false,
      "inputs": [
        {
          "indexed": false,
          "internalType": "bool",
          "name": "whitelistEnabled",
          "type": "bool"
        }
      ],
      "name": "WhiteListEnabled",
      "type": "event"
    },
    {
      "inputs": [],
      "name": "_currentIndex",
      "outputs": [
        {
          "internalType": "uint256",
          "name": "",
          "type": "uint256"
        }
      ],
      "stateMutability": "view",
      "type": "function"
    },
    {
      "inputs": [],
      "name": "_name",
      "outputs": [
        {
          "internalType": "string",
          "name": "",
          "type": "string"
        }
      ],
      "stateMutability": "view",
      "type": "function"
    },
    {
      "inputs": [],
      "name": "_symbol",
      "outputs": [
        {
          "internalType": "string",
          "name": "",
          "type": "string"
        }
      ],
      "stateMutability": "view",
      "type": "function"
    },
    {
      "inputs": [
        {
          "internalType": "address",
          "name": "to",
          "type": "address"
        },
        {
          "internalType": "uint256",
          "name": "tokenId",
          "type": "uint256"
        }
      ],
      "name": "approve",
      "outputs": [],
      "stateMutability": "nonpayable",
      "type": "function"
    },
    {
      "inputs": [
        {
          "internalType": "address",
          "name": "owner",
          "type": "address"
        }
      ],
      "name": "balanceOf",
      "outputs": [
        {
          "internalType": "uint256",
          "name": "",
          "type": "uint256"
        }
      ],
      "stateMutability": "view",
      "type": "function"
    },
    {
      "inputs": [],
      "name": "baseURI",
      "outputs": [
        {
          "internalType": "string",
          "name": "",
          "type": "string"
        }
      ],
      "stateMutability": "view",
      "type": "function"
    },
    {
      "inputs": [
        {
          "internalType": "uint256",
          "name": "tokenId",
          "type": "uint256"
        }
      ],
      "name": "getApproved",
      "outputs": [
        {
          "internalType": "address",
          "name": "",
          "type": "address"
        }
      ],
      "stateMutability": "view",
      "type": "function"
    },
    {
      "inputs": [
        {
          "internalType": "address",
          "name": "owner",
          "type": "address"
        },
        {
          "internalType": "address",
          "name": "operator",
          "type": "address"
        }
      ],
      "name": "isApprovedForAll",
      "outputs": [
        {
          "internalType": "bool",
          "name": "",
          "type": "bool"
        }
      ],
      "stateMutability": "view",
      "type": "function"
    },
    {
      "inputs": [
        {
          "internalType": "uint256",
          "name": "_quantity",
          "type": "uint256"
        },
        {
          "internalType": "address",
          "name": "_creator",
          "type": "address"
        }
      ],
      "name": "mint",
      "outputs": [],
      "stateMutability": "nonpayable",
      "type": "function"
    },
    {
      "inputs": [],
      "name": "name",
      "outputs": [
        {
          "internalType": "string",
          "name": "",
          "type": "string"
        }
      ],
      "stateMutability": "view",
      "type": "function"
    },
    {
      "inputs": [],
      "name": "owner",
      "outputs": [
        {
          "internalType": "address",
          "name": "",
          "type": "address"
        }
      ],
      "stateMutability": "view",
      "type": "function"
    },
    {
      "inputs": [
        {
          "internalType": "uint256",
          "name": "tokenId",
          "type": "uint256"
        }
      ],
      "name": "ownerOf",
      "outputs": [
        {
          "internalType": "address",
          "name": "",
          "type": "address"
        }
      ],
      "stateMutability": "view",
      "type": "function"
    },
    {
      "inputs": [
        {
          "internalType": "address[]",
          "name": "currentAddresses",
          "type": "address[]"
        }
      ],
      "name": "removeWhitelist",
      "outputs": [],
      "stateMutability": "nonpayable",
      "type": "function"
    },
    {
      "inputs": [],
      "name": "renounceOwnership",
      "outputs": [],
      "stateMutability": "nonpayable",
      "type": "function"
    },
    {
      "inputs": [
        {
          "internalType": "address",
          "name": "from",
          "type": "address"
        },
        {
          "internalType": "address",
          "name": "to",
          "type": "address"
        },
        {
          "internalType": "uint256",
          "name": "tokenId",
          "type": "uint256"
        }
      ],
      "name": "safeTransferFrom",
      "outputs": [],
      "stateMutability": "nonpayable",
      "type": "function"
    },
    {
      "inputs": [
        {
          "internalType": "address",
          "name": "from",
          "type": "address"
        },
        {
          "internalType": "address",
          "name": "to",
          "type": "address"
        },
        {
          "internalType": "uint256",
          "name": "tokenId",
          "type": "uint256"
        },
        {
          "internalType": "bytes",
          "name": "_data",
          "type": "bytes"
        }
      ],
      "name": "safeTransferFrom",
      "outputs": [],
      "stateMutability": "nonpayable",
      "type": "function"
    },
    {
      "inputs": [
        {
          "internalType": "address",
          "name": "operator",
          "type": "address"
        },
        {
          "internalType": "bool",
          "name": "approved",
          "type": "bool"
        }
      ],
      "name": "setApprovalForAll",
      "outputs": [],
      "stateMutability": "nonpayable",
      "type": "function"
    },
    {
      "inputs": [
        {
          "internalType": "string",
          "name": "baseURI_",
          "type": "string"
        }
      ],
      "name": "setBaseURI",
      "outputs": [],
      "stateMutability": "nonpayable",
      "type": "function"
    },
    {
      "inputs": [
        {
          "internalType": "string",
          "name": "_uriSuffix",
          "type": "string"
        }
      ],
      "name": "setUriSuffix",
      "outputs": [],
      "stateMutability": "nonpayable",
      "type": "function"
    },
    {
      "inputs": [
        {
          "internalType": "address[]",
          "name": "newAddresses",
          "type": "address[]"
        }
      ],
      "name": "setWhitelist",
      "outputs": [],
      "stateMutability": "nonpayable",
      "type": "function"
    },
    {
      "inputs": [
        {
          "internalType": "bool",
          "name": "_state",
          "type": "bool"
        }
      ],
      "name": "setWhitelistEnabled",
      "outputs": [],
      "stateMutability": "nonpayable",
      "type": "function"
    },
    {
      "inputs": [
        {
          "internalType": "bytes4",
          "name": "interfaceId",
          "type": "bytes4"
        }
      ],
      "name": "supportsInterface",
      "outputs": [
        {
          "internalType": "bool",
          "name": "",
          "type": "bool"
        }
      ],
      "stateMutability": "view",
      "type": "function"
    },
    {
      "inputs": [],
      "name": "symbol",
      "outputs": [
        {
          "internalType": "string",
          "name": "",
          "type": "string"
        }
      ],
      "stateMutability": "view",
      "type": "function"
    },
    {
      "inputs": [
        {
          "internalType": "uint256",
          "name": "_tokenId",
          "type": "uint256"
        }
      ],
      "name": "tokenURI",
      "outputs": [
        {
          "internalType": "string",
          "name": "",
          "type": "string"
        }
      ],
      "stateMutability": "view",
      "type": "function"
    },
    {
      "inputs": [],
      "name": "totalSupply",
      "outputs": [
        {
          "internalType": "uint256",
          "name": "",
          "type": "uint256"
        }
      ],
      "stateMutability": "view",
      "type": "function"
    },
    {
      "inputs": [
        {
          "internalType": "address",
          "name": "from",
          "type": "address"
        },
        {
          "internalType": "address",
          "name": "to",
          "type": "address"
        },
        {
          "internalType": "uint256",
          "name": "tokenId",
          "type": "uint256"
        }
      ],
      "name": "transferFrom",
      "outputs": [],
      "stateMutability": "nonpayable",
      "type": "function"
    },
    {
      "inputs": [
        {
          "internalType": "address",
          "name": "newOwner",
          "type": "address"
        }
      ],
      "name": "transferOwnership",
      "outputs": [],
      "stateMutability": "nonpayable",
      "type": "function"
    },
    {
      "inputs": [],
      "name": "uriSuffix",
      "outputs": [
        {
          "internalType": "string",
          "name": "",
          "type": "string"
        }
      ],
      "stateMutability": "view",
      "type": "function"
    },
    {
      "inputs": [
        {
          "internalType": "address",
          "name": "",
          "type": "address"
        }
      ],
      "name": "whitelist",
      "outputs": [
        {
          "internalType": "bool",
          "name": "",
          "type": "bool"
        }
      ],
      "stateMutability": "view",
      "type": "function"
    },
    {
      "inputs": [],
      "name": "whitelistEnabled",
      "outputs": [
        {
          "internalType": "bool",
          "name": "",
          "type": "bool"
        }
      ],
      "stateMutability": "view",
      "type": "function"
    }
  ],
  "bytecode": "0x608060405260405180602001604052806000815250600990805190602001906200002b92919062000277565b506040518060400160405280600581526020017f2e6a736f6e000000000000000000000000000000000000000000000000000000815250600a90805190602001906200007992919062000277565b506000600b556000600c60006101000a81548160ff021916908315150217905550348015620000a757600080fd5b5060405162003999380380620039998339818101604052810190620000cd9190620004c4565b81818160029080519060200190620000e792919062000277565b5080600390805190602001906200010092919062000277565b5062000111620001a460201b60201c565b6000819055505050620001396200012d620001a960201b60201c565b620001b160201b60201c565b6000829050600082905060008251141580156200015857506000815114155b6200019a576040517f08c379a00000000000000000000000000000000000000000000000000000000081526004016200019190620005d0565b60405180910390fd5b5050505062000657565b600090565b600033905090565b6000600860009054906101000a900473ffffffffffffffffffffffffffffffffffffffff16905081600860006101000a81548173ffffffffffffffffffffffffffffffffffffffff021916908373ffffffffffffffffffffffffffffffffffffffff1602179055508173ffffffffffffffffffffffffffffffffffffffff168173ffffffffffffffffffffffffffffffffffffffff167f8be0079c531659141344cd1fd0a4f28419497f9722a3daafe3b4186f6b6457e060405160405180910390a35050565b828054620002859062000621565b90600052602060002090601f016020900481019282620002a95760008555620002f5565b82601f10620002c457805160ff1916838001178555620002f5565b82800160010185558215620002f5579182015b82811115620002f4578251825591602001919060010190620002d7565b5b50905062000304919062000308565b5090565b5b808211156200032357600081600090555060010162000309565b5090565b6000604051905090565b600080fd5b600080fd5b600080fd5b600080fd5b6000601f19601f8301169050919050565b7f4e487b7100000000000000000000000000000000000000000000000000000000600052604160045260246000fd5b620003908262000345565b810181811067ffffffffffffffff82111715620003b257620003b162000356565b5b80604052505050565b6000620003c762000327565b9050620003d5828262000385565b919050565b600067ffffffffffffffff821115620003f857620003f762000356565b5b620004038262000345565b9050602081019050919050565b60005b838110156200043057808201518184015260208101905062000413565b8381111562000440576000848401525b50505050565b60006200045d6200045784620003da565b620003bb565b9050828152602081018484840111156200047c576200047b62000340565b5b6200048984828562000410565b509392505050565b600082601f830112620004a957620004a86200033b565b5b8151620004bb84826020860162000446565b91505092915050565b60008060408385031215620004de57620004dd62000331565b5b600083015167ffffffffffffffff811115620004ff57620004fe62000336565b5b6200050d8582860162000491565b925050602083015167ffffffffffffffff81111562000531576200053062000336565b5b6200053f8582860162000491565b9150509250929050565b600082825260208201905092915050565b7f455243373231413a2043686f6f73652061206e616d6520616e642073796d626f60008201527f6c00000000000000000000000000000000000000000000000000000000000000602082015250565b6000620005b860218362000549565b9150620005c5826200055a565b604082019050919050565b60006020820190508181036000830152620005eb81620005a9565b9050919050565b7f4e487b7100000000000000000000000000000000000000000000000000000000600052602260045260246000fd5b600060028204905060018216806200063a57607f821691505b60208210811415620006515762000650620005f2565b5b50919050565b61333280620006676000396000f3fe608060405234801561001057600080fd5b50600436106101da5760003560e01c806370a0823111610104578063a22cb465116100a2578063d28d885211610071578063d28d88521461052f578063e985e9c51461054d578063f2fde38b1461057d578063f421764814610599576101da565b8063a22cb465146104a9578063b09f1266146104c5578063b88d4fde146104e3578063c87b56dd146104ff576101da565b80639451c99a116100de5780639451c99a1461042157806394bf804d1461043f57806395d89b411461045b5780639b19251a14610479576101da565b806370a08231146103c9578063715018a6146103f95780638da5cb5b14610403576101da565b8063232452161161017c5780635503a0e81161014b5780635503a0e81461034157806355f804b31461035f5780636352211e1461037b5780636c0360eb146103ab576101da565b806323245216146102cf57806323b872dd146102eb57806342842e0e1461030757806351fb012d14610323576101da565b8063081812fc116101b8578063081812fc14610249578063095ea7b31461027957806316ba10e01461029557806318160ddd146102b1576101da565b806301ffc9a7146101df578063052d9e7e1461020f57806306fdde031461022b575b600080fd5b6101f960048036038101906101f49190612368565b6105b5565b60405161020691906123b0565b60405180910390f35b610229600480360381019061022491906123f7565b610647565b005b6102336106b2565b60405161024091906124bd565b60405180910390f35b610263600480360381019061025e9190612515565b610744565b6040516102709190612583565b60405180910390f35b610293600480360381019061028e91906125ca565b6107c0565b005b6102af60048036038101906102aa919061273f565b610967565b005b6102b9610989565b6040516102c69190612797565b60405180910390f35b6102e960048036038101906102e49190612812565b6109a0565b005b6103056004803603810190610300919061285f565b610ae9565b005b610321600480360381019061031c919061285f565b610af9565b005b61032b610b19565b60405161033891906123b0565b60405180910390f35b610349610b2c565b60405161035691906124bd565b60405180910390f35b6103796004803603810190610374919061273f565b610bba565b005b61039560048036038101906103909190612515565b610c14565b6040516103a29190612583565b60405180910390f35b6103b3610c26565b6040516103c091906124bd565b60405180910390f35b6103e360048036038101906103de91906128b2565b610cb4565b6040516103f09190612797565b60405180910390f35b610401610d49565b005b61040b610d5d565b6040516104189190612583565b60405180910390f35b610429610d87565b6040516104369190612797565b60405180910390f35b610459600480360381019061045491906128df565b610d8d565b005b610463610ed6565b60405161047091906124bd565b60405180910390f35b610493600480360381019061048e91906128b2565b610f68565b6040516104a091906123b0565b60405180910390f35b6104c360048036038101906104be919061291f565b610f88565b005b6104cd611100565b6040516104da91906124bd565b60405180910390f35b6104fd60048036038101906104f89190612a00565b61118e565b005b61051960048036038101906105149190612515565b611201565b60405161052691906124bd565b60405180910390f35b6105376112ab565b60405161054491906124bd565b60405180910390f35b61056760048036038101906105629190612a83565b611339565b60405161057491906123b0565b60405180910390f35b610597600480360381019061059291906128b2565b6113cd565b005b6105b360048036038101906105ae9190612812565b611451565b005b60006301ffc9a760e01b827bffffffffffffffffffffffffffffffffffffffffffffffffffffffff1916148061061057506380ac58cd60e01b827bffffffffffffffffffffffffffffffffffffffffffffffffffffffff1916145b806106405750635b5e139f60e01b827bffffffffffffffffffffffffffffffffffffffffffffffffffffffff1916145b9050919050565b61064f6115e9565b80600c60006101000a81548160ff0219169083151502179055507f218e591c4b0d49651b4b42843cb8cc59080122def3d2271f56ef2e21896753ec600c60009054906101000a900460ff166040516106a791906123b0565b60405180910390a150565b6060600280546106c190612af2565b80601f01602080910402602001604051908101604052809291908181526020018280546106ed90612af2565b801561073a5780601f1061070f5761010080835404028352916020019161073a565b820191906000526020600020905b81548152906001019060200180831161071d57829003601f168201915b5050505050905090565b600061074f82611667565b610785576040517fcf4700e400000000000000000000000000000000000000000000000000000000815260040160405180910390fd5b6006600083815260200190815260200160002060009054906101000a900473ffffffffffffffffffffffffffffffffffffffff169050919050565b60006107cb826116c6565b90508073ffffffffffffffffffffffffffffffffffffffff168373ffffffffffffffffffffffffffffffffffffffff161415610833576040517f943f7b8c00000000000000000000000000000000000000000000000000000000815260040160405180910390fd5b8073ffffffffffffffffffffffffffffffffffffffff16610852611794565b73ffffffffffffffffffffffffffffffffffffffff16146108b55761087e81610879611794565b611339565b6108b4576040517fcfb3b94200000000000000000000000000000000000000000000000000000000815260040160405180910390fd5b5b826006600084815260200190815260200160002060006101000a81548173ffffffffffffffffffffffffffffffffffffffff021916908373ffffffffffffffffffffffffffffffffffffffff160217905550818373ffffffffffffffffffffffffffffffffffffffff168273ffffffffffffffffffffffffffffffffffffffff167f8c5be1e5ebec7d5bd14f71427d1e84f3dd0314c0f7b2291e5b200ac8c7c3b92560405160405180910390a4505050565b61096f6115e9565b80600a9080519060200190610985929190612259565b5050565b600061099361179c565b6001546000540303905090565b6109a86115e9565b600082829050116109ee576040517f08c379a00000000000000000000000000000000000000000000000000000000081526004016109e590612b70565b60405180910390fd5b6005828290501115610a35576040517f08c379a0000000000000000000000000000000000000000000000000000000008152600401610a2c90612bdc565b60405180910390fd5b60005b82829050811015610ae457600d6000848484818110610a5a57610a59612bfc565b5b9050602002016020810190610a6f91906128b2565b73ffffffffffffffffffffffffffffffffffffffff1673ffffffffffffffffffffffffffffffffffffffff16815260200190815260200160002060006101000a81549060ff0219169055600b6000815480929190610acc90612c5a565b91905055508080610adc90612c84565b915050610a38565b505050565b610af48383836117a1565b505050565b610b148383836040518060200160405280600081525061118e565b505050565b600c60009054906101000a900460ff1681565b600a8054610b3990612af2565b80601f0160208091040260200160405190810160405280929190818152602001828054610b6590612af2565b8015610bb25780601f10610b8757610100808354040283529160200191610bb2565b820191906000526020600020905b815481529060010190602001808311610b9557829003601f168201915b505050505081565b610bc26115e9565b8060099080519060200190610bd8929190612259565b507f01e56a02aca7f26a28165a040851ba78f30282b55ca81c63a804cdc1e2dcea726009604051610c099190612d62565b60405180910390a150565b6000610c1f826116c6565b9050919050565b60098054610c3390612af2565b80601f0160208091040260200160405190810160405280929190818152602001828054610c5f90612af2565b8015610cac5780601f10610c8157610100808354040283529160200191610cac565b820191906000526020600020905b815481529060010190602001808311610c8f57829003601f168201915b505050505081565b600080610cc083611b69565b1415610cf8576040517f8f4eb60400000000000000000000000000000000000000000000000000000000815260040160405180910390fd5b67ffffffffffffffff600560008473ffffffffffffffffffffffffffffffffffffffff1673ffffffffffffffffffffffffffffffffffffffff16815260200190815260200160002054169050919050565b610d516115e9565b610d5b6000611b73565b565b6000600860009054906101000a900473ffffffffffffffffffffffffffffffffffffffff16905090565b60005481565b60001515600c60009054906101000a900460ff1615151415610e1f57610db1610d5d565b73ffffffffffffffffffffffffffffffffffffffff163373ffffffffffffffffffffffffffffffffffffffff1614610e1e576040517f08c379a0000000000000000000000000000000000000000000000000000000008152600401610e1590612dd0565b60405180910390fd5b5b60011515600c60009054906101000a900460ff1615151415610ec857600d60003373ffffffffffffffffffffffffffffffffffffffff1673ffffffffffffffffffffffffffffffffffffffff16815260200190815260200160002060009054906101000a900460ff16610ec7576040517f08c379a0000000000000000000000000000000000000000000000000000000008152600401610ebe90612dd0565b60405180910390fd5b5b610ed28183611c39565b5050565b606060038054610ee590612af2565b80601f0160208091040260200160405190810160405280929190818152602001828054610f1190612af2565b8015610f5e5780601f10610f3357610100808354040283529160200191610f5e565b820191906000526020600020905b815481529060010190602001808311610f4157829003601f168201915b5050505050905090565b600d6020528060005260406000206000915054906101000a900460ff1681565b610f90611794565b73ffffffffffffffffffffffffffffffffffffffff168273ffffffffffffffffffffffffffffffffffffffff161415610ff5576040517fb06307db00000000000000000000000000000000000000000000000000000000815260040160405180910390fd5b8060076000611002611794565b73ffffffffffffffffffffffffffffffffffffffff1673ffffffffffffffffffffffffffffffffffffffff16815260200190815260200160002060008473ffffffffffffffffffffffffffffffffffffffff1673ffffffffffffffffffffffffffffffffffffffff16815260200190815260200160002060006101000a81548160ff0219169083151502179055508173ffffffffffffffffffffffffffffffffffffffff166110af611794565b73ffffffffffffffffffffffffffffffffffffffff167f17307eab39ab6107e8899845ad3d59bd9653f200f220920489ca2b5937696c31836040516110f491906123b0565b60405180910390a35050565b6003805461110d90612af2565b80601f016020809104026020016040519081016040528092919081815260200182805461113990612af2565b80156111865780601f1061115b57610100808354040283529160200191611186565b820191906000526020600020905b81548152906001019060200180831161116957829003601f168201915b505050505081565b6111998484846117a1565b60008373ffffffffffffffffffffffffffffffffffffffff163b146111fb576111c484848484611c57565b6111fa576040517fd1a57ed600000000000000000000000000000000000000000000000000000000815260040160405180910390fd5b5b50505050565b606061120c82611667565b61124b576040517f08c379a000000000000000000000000000000000000000000000000000000000815260040161124290612e62565b60405180910390fd5b6000611255611db7565b9050600081511161127557604051806020016040528060008152506112a3565b8061127f84611e49565b600a60405160200161129393929190612f3d565b6040516020818303038152906040525b915050919050565b600280546112b890612af2565b80601f01602080910402602001604051908101604052809291908181526020018280546112e490612af2565b80156113315780601f1061130657610100808354040283529160200191611331565b820191906000526020600020905b81548152906001019060200180831161131457829003601f168201915b505050505081565b6000600760008473ffffffffffffffffffffffffffffffffffffffff1673ffffffffffffffffffffffffffffffffffffffff16815260200190815260200160002060008373ffffffffffffffffffffffffffffffffffffffff1673ffffffffffffffffffffffffffffffffffffffff16815260200190815260200160002060009054906101000a900460ff16905092915050565b6113d56115e9565b600073ffffffffffffffffffffffffffffffffffffffff168173ffffffffffffffffffffffffffffffffffffffff161415611445576040517f08c379a000000000000000000000000000000000000000000000000000000000815260040161143c90612fe0565b60405180910390fd5b61144e81611b73565b50565b6114596115e9565b6000828290501161149f576040517f08c379a000000000000000000000000000000000000000000000000000000000815260040161149690612b70565b60405180910390fd5b6107d082829050106114e6576040517f08c379a00000000000000000000000000000000000000000000000000000000081526004016114dd90612bdc565b60405180910390fd5b60005b828290508110156115e4576107d0600b541061153a576040517f08c379a000000000000000000000000000000000000000000000000000000000815260040161153190613072565b60405180910390fd5b6001600d600085858581811061155357611552612bfc565b5b905060200201602081019061156891906128b2565b73ffffffffffffffffffffffffffffffffffffffff1673ffffffffffffffffffffffffffffffffffffffff16815260200190815260200160002060006101000a81548160ff021916908315150217905550600b60008154809291906115cc90612c84565b919050555080806115dc90612c84565b9150506114e9565b505050565b6115f1611faa565b73ffffffffffffffffffffffffffffffffffffffff1661160f610d5d565b73ffffffffffffffffffffffffffffffffffffffff1614611665576040517f08c379a000000000000000000000000000000000000000000000000000000000815260040161165c906130de565b60405180910390fd5b565b60008161167261179c565b11158015611681575060005482105b80156116bf575060007c0100000000000000000000000000000000000000000000000000000000600460008581526020019081526020016000205416145b9050919050565b600080829050806116d561179c565b1161175d5760005481101561175c5760006004600083815260200190815260200160002054905060007c01000000000000000000000000000000000000000000000000000000008216141561175a575b6000811415611750576004600083600190039350838152602001908152602001600020549050611725565b809250505061178f565b505b5b6040517fdf2d9b4200000000000000000000000000000000000000000000000000000000815260040160405180910390fd5b919050565b600033905090565b600090565b60006117ac826116c6565b90508373ffffffffffffffffffffffffffffffffffffffff168173ffffffffffffffffffffffffffffffffffffffff1614611813576040517fa114810000000000000000000000000000000000000000000000000000000000815260040160405180910390fd5b60006006600084815260200190815260200160002060009054906101000a900473ffffffffffffffffffffffffffffffffffffffff16905060008573ffffffffffffffffffffffffffffffffffffffff1661186c611794565b73ffffffffffffffffffffffffffffffffffffffff16148061189b575061189a86611895611794565b611339565b5b806118d857506118a9611794565b73ffffffffffffffffffffffffffffffffffffffff168273ffffffffffffffffffffffffffffffffffffffff16145b905080611911576040517f59c896be00000000000000000000000000000000000000000000000000000000815260040160405180910390fd5b600061191c86611b69565b1415611954576040517fea553b3400000000000000000000000000000000000000000000000000000000815260040160405180910390fd5b6119618686866001611fb2565b600061196c83611b69565b146119a8576006600085815260200190815260200160002060006101000a81549073ffffffffffffffffffffffffffffffffffffffff02191690555b600560008773ffffffffffffffffffffffffffffffffffffffff1673ffffffffffffffffffffffffffffffffffffffff168152602001908152602001600020600081546001900391905081905550600560008673ffffffffffffffffffffffffffffffffffffffff1673ffffffffffffffffffffffffffffffffffffffff16815260200190815260200160002060008154600101919050819055507c020000000000000000000000000000000000000000000000000000000060a042901b611a6f87611b69565b1717600460008681526020019081526020016000208190555060007c020000000000000000000000000000000000000000000000000000000084161415611af9576000600185019050600060046000838152602001908152602001600020541415611af7576000548114611af6578360046000838152602001908152602001600020819055505b5b505b838573ffffffffffffffffffffffffffffffffffffffff168773ffffffffffffffffffffffffffffffffffffffff167fddf252ad1be2c89b69c2b068fc378daa952ba7f163c4a11628f55a4df523b3ef60405160405180910390a4611b618686866001611fb8565b505050505050565b6000819050919050565b6000600860009054906101000a900473ffffffffffffffffffffffffffffffffffffffff16905081600860006101000a81548173ffffffffffffffffffffffffffffffffffffffff021916908373ffffffffffffffffffffffffffffffffffffffff1602179055508173ffffffffffffffffffffffffffffffffffffffff168173ffffffffffffffffffffffffffffffffffffffff167f8be0079c531659141344cd1fd0a4f28419497f9722a3daafe3b4186f6b6457e060405160405180910390a35050565b611c53828260405180602001604052806000815250611fbe565b5050565b60008373ffffffffffffffffffffffffffffffffffffffff1663150b7a02611c7d611794565b8786866040518563ffffffff1660e01b8152600401611c9f9493929190613153565b602060405180830381600087803b158015611cb957600080fd5b505af1925050508015611cea57506040513d601f19601f82011682018060405250810190611ce791906131b4565b60015b611d64573d8060008114611d1a576040519150601f19603f3d011682016040523d82523d6000602084013e611d1f565b606091505b50600081511415611d5c576040517fd1a57ed600000000000000000000000000000000000000000000000000000000815260040160405180910390fd5b805181602001fd5b63150b7a0260e01b7bffffffffffffffffffffffffffffffffffffffffffffffffffffffff1916817bffffffffffffffffffffffffffffffffffffffffffffffffffffffff191614915050949350505050565b606060098054611dc690612af2565b80601f0160208091040260200160405190810160405280929190818152602001828054611df290612af2565b8015611e3f5780601f10611e1457610100808354040283529160200191611e3f565b820191906000526020600020905b815481529060010190602001808311611e2257829003601f168201915b5050505050905090565b60606000821415611e91576040518060400160405280600181526020017f30000000000000000000000000000000000000000000000000000000000000008152509050611fa5565b600082905060005b60008214611ec3578080611eac90612c84565b915050600a82611ebc9190613210565b9150611e99565b60008167ffffffffffffffff811115611edf57611ede612614565b5b6040519080825280601f01601f191660200182016040528015611f115781602001600182028036833780820191505090505b5090505b60008514611f9e57600182611f2a9190613241565b9150600a85611f399190613275565b6030611f4591906132a6565b60f81b818381518110611f5b57611f5a612bfc565b5b60200101907effffffffffffffffffffffffffffffffffffffffffffffffffffffffffffff1916908160001a905350600a85611f979190613210565b9450611f15565b8093505050505b919050565b600033905090565b50505050565b50505050565b6000805490506000611fcf85611b69565b1415612007576040517f2e07630000000000000000000000000000000000000000000000000000000000815260040160405180910390fd5b6000831415612042576040517fb562e8dd00000000000000000000000000000000000000000000000000000000815260040160405180910390fd5b61204f6000858386611fb2565b600160406001901b178302600560008673ffffffffffffffffffffffffffffffffffffffff1673ffffffffffffffffffffffffffffffffffffffff1681526020019081526020016000206000828254019250508190555060e16120b46001851461224f565b901b60a042901b6120c486611b69565b1717600460008381526020019081526020016000208190555060008190506000848201905060008673ffffffffffffffffffffffffffffffffffffffff163b146121c8575b818673ffffffffffffffffffffffffffffffffffffffff16600073ffffffffffffffffffffffffffffffffffffffff167fddf252ad1be2c89b69c2b068fc378daa952ba7f163c4a11628f55a4df523b3ef60405160405180910390a46121786000878480600101955087611c57565b6121ae576040517fd1a57ed600000000000000000000000000000000000000000000000000000000815260040160405180910390fd5b8082106121095782600054146121c357600080fd5b612233565b5b818060010192508673ffffffffffffffffffffffffffffffffffffffff16600073ffffffffffffffffffffffffffffffffffffffff167fddf252ad1be2c89b69c2b068fc378daa952ba7f163c4a11628f55a4df523b3ef60405160405180910390a48082106121c9575b8160008190555050506122496000858386611fb8565b50505050565b6000819050919050565b82805461226590612af2565b90600052602060002090601f01602090048101928261228757600085556122ce565b82601f106122a057805160ff19168380011785556122ce565b828001600101855582156122ce579182015b828111156122cd5782518255916020019190600101906122b2565b5b5090506122db91906122df565b5090565b5b808211156122f85760008160009055506001016122e0565b5090565b6000604051905090565b600080fd5b600080fd5b60007fffffffff0000000000000000000000000000000000000000000000000000000082169050919050565b61234581612310565b811461235057600080fd5b50565b6000813590506123628161233c565b92915050565b60006020828403121561237e5761237d612306565b5b600061238c84828501612353565b91505092915050565b60008115159050919050565b6123aa81612395565b82525050565b60006020820190506123c560008301846123a1565b92915050565b6123d481612395565b81146123df57600080fd5b50565b6000813590506123f1816123cb565b92915050565b60006020828403121561240d5761240c612306565b5b600061241b848285016123e2565b91505092915050565b600081519050919050565b600082825260208201905092915050565b60005b8381101561245e578082015181840152602081019050612443565b8381111561246d576000848401525b50505050565b6000601f19601f8301169050919050565b600061248f82612424565b612499818561242f565b93506124a9818560208601612440565b6124b281612473565b840191505092915050565b600060208201905081810360008301526124d78184612484565b905092915050565b6000819050919050565b6124f2816124df565b81146124fd57600080fd5b50565b60008135905061250f816124e9565b92915050565b60006020828403121561252b5761252a612306565b5b600061253984828501612500565b91505092915050565b600073ffffffffffffffffffffffffffffffffffffffff82169050919050565b600061256d82612542565b9050919050565b61257d81612562565b82525050565b60006020820190506125986000830184612574565b92915050565b6125a781612562565b81146125b257600080fd5b50565b6000813590506125c48161259e565b92915050565b600080604083850312156125e1576125e0612306565b5b60006125ef858286016125b5565b925050602061260085828601612500565b9150509250929050565b600080fd5b600080fd5b7f4e487b7100000000000000000000000000000000000000000000000000000000600052604160045260246000fd5b61264c82612473565b810181811067ffffffffffffffff8211171561266b5761266a612614565b5b80604052505050565b600061267e6122fc565b905061268a8282612643565b919050565b600067ffffffffffffffff8211156126aa576126a9612614565b5b6126b382612473565b9050602081019050919050565b82818337600083830152505050565b60006126e26126dd8461268f565b612674565b9050828152602081018484840111156126fe576126fd61260f565b5b6127098482856126c0565b509392505050565b600082601f8301126127265761272561260a565b5b81356127368482602086016126cf565b91505092915050565b60006020828403121561275557612754612306565b5b600082013567ffffffffffffffff8111156127735761277261230b565b5b61277f84828501612711565b91505092915050565b612791816124df565b82525050565b60006020820190506127ac6000830184612788565b92915050565b600080fd5b600080fd5b60008083601f8401126127d2576127d161260a565b5b8235905067ffffffffffffffff8111156127ef576127ee6127b2565b5b60208301915083602082028301111561280b5761280a6127b7565b5b9250929050565b6000806020838503121561282957612828612306565b5b600083013567ffffffffffffffff8111156128475761284661230b565b5b612853858286016127bc565b92509250509250929050565b60008060006060848603121561287857612877612306565b5b6000612886868287016125b5565b9350506020612897868287016125b5565b92505060406128a886828701612500565b9150509250925092565b6000602082840312156128c8576128c7612306565b5b60006128d6848285016125b5565b91505092915050565b600080604083850312156128f6576128f5612306565b5b600061290485828601612500565b9250506020612915858286016125b5565b9150509250929050565b6000806040838503121561293657612935612306565b5b6000612944858286016125b5565b9250506020612955858286016123e2565b9150509250929050565b600067ffffffffffffffff82111561297a57612979612614565b5b61298382612473565b9050602081019050919050565b60006129a361299e8461295f565b612674565b9050828152602081018484840111156129bf576129be61260f565b5b6129ca8482856126c0565b509392505050565b600082601f8301126129e7576129e661260a565b5b81356129f7848260208601612990565b91505092915050565b60008060008060808587031215612a1a57612a19612306565b5b6000612a28878288016125b5565b9450506020612a39878288016125b5565b9350506040612a4a87828801612500565b925050606085013567ffffffffffffffff811115612a6b57612a6a61230b565b5b612a77878288016129d2565b91505092959194509250565b60008060408385031215612a9a57612a99612306565b5b6000612aa8858286016125b5565b9250506020612ab9858286016125b5565b9150509250929050565b7f4e487b7100000000000000000000000000000000000000000000000000000000600052602260045260246000fd5b60006002820490506001821680612b0a57607f821691505b60208210811415612b1e57612b1d612ac3565b5b50919050565b7f4e6f20757365722064657461696c732070726f76696465640000000000000000600082015250565b6000612b5a60188361242f565b9150612b6582612b24565b602082019050919050565b60006020820190508181036000830152612b8981612b4d565b9050919050565b7f546f6f206d616e792075736572737320746f2077686974656c69737400000000600082015250565b6000612bc6601c8361242f565b9150612bd182612b90565b602082019050919050565b60006020820190508181036000830152612bf581612bb9565b9050919050565b7f4e487b7100000000000000000000000000000000000000000000000000000000600052603260045260246000fd5b7f4e487b7100000000000000000000000000000000000000000000000000000000600052601160045260246000fd5b6000612c65826124df565b91506000821415612c7957612c78612c2b565b5b600182039050919050565b6000612c8f826124df565b91507fffffffffffffffffffffffffffffffffffffffffffffffffffffffffffffffff821415612cc257612cc1612c2b565b5b600182019050919050565b60008190508160005260206000209050919050565b60008154612cef81612af2565b612cf9818661242f565b94506001821660008114612d145760018114612d2657612d59565b60ff1983168652602086019350612d59565b612d2f85612ccd565b60005b83811015612d5157815481890152600182019150602081019050612d32565b808801955050505b50505092915050565b60006020820190508181036000830152612d7c8184612ce2565b905092915050565b7f41646472657373206e6f742077686974656c6973746564000000000000000000600082015250565b6000612dba60178361242f565b9150612dc582612d84565b602082019050919050565b60006020820190508181036000830152612de981612dad565b9050919050565b7f4552433732314d657461646174613a2055524920717565727920666f72206e6f60008201527f6e6578697374656e7420746f6b656e0000000000000000000000000000000000602082015250565b6000612e4c602f8361242f565b9150612e5782612df0565b604082019050919050565b60006020820190508181036000830152612e7b81612e3f565b9050919050565b600081905092915050565b6000612e9882612424565b612ea28185612e82565b9350612eb2818560208601612440565b80840191505092915050565b60008154612ecb81612af2565b612ed58186612e82565b94506001821660008114612ef05760018114612f0157612f34565b60ff19831686528186019350612f34565b612f0a85612ccd565b60005b83811015612f2c57815481890152600182019150602081019050612f0d565b838801955050505b50505092915050565b6000612f498286612e8d565b9150612f558285612e8d565b9150612f618284612ebe565b9150819050949350505050565b7f4f776e61626c653a206e6577206f776e657220697320746865207a65726f206160008201527f6464726573730000000000000000000000000000000000000000000000000000602082015250565b6000612fca60268361242f565b9150612fd582612f6e565b604082019050919050565b60006020820190508181036000830152612ff981612fbd565b9050919050565b7f4d6178696d756d20557365727320616c72656164792077686974656c6973746560008201527f6400000000000000000000000000000000000000000000000000000000000000602082015250565b600061305c60218361242f565b915061306782613000565b604082019050919050565b6000602082019050818103600083015261308b8161304f565b9050919050565b7f4f776e61626c653a2063616c6c6572206973206e6f7420746865206f776e6572600082015250565b60006130c860208361242f565b91506130d382613092565b602082019050919050565b600060208201905081810360008301526130f7816130bb565b9050919050565b600081519050919050565b600082825260208201905092915050565b6000613125826130fe565b61312f8185613109565b935061313f818560208601612440565b61314881612473565b840191505092915050565b60006080820190506131686000830187612574565b6131756020830186612574565b6131826040830185612788565b8181036060830152613194818461311a565b905095945050505050565b6000815190506131ae8161233c565b92915050565b6000602082840312156131ca576131c9612306565b5b60006131d88482850161319f565b91505092915050565b7f4e487b7100000000000000000000000000000000000000000000000000000000600052601260045260246000fd5b600061321b826124df565b9150613226836124df565b925082613236576132356131e1565b5b828204905092915050565b600061324c826124df565b9150613257836124df565b92508282101561326a57613269612c2b565b5b828203905092915050565b6000613280826124df565b915061328b836124df565b92508261329b5761329a6131e1565b5b828206905092915050565b60006132b1826124df565b91506132bc836124df565b9250827fffffffffffffffffffffffffffffffffffffffffffffffffffffffffffffffff038211156132f1576132f0612c2b565b5b82820190509291505056fea2646970667358221220a3997a964ef6fe3d0085abdfc2dac8b8711f76579a2a45b62220ea5524dffc1164736f6c63430008090033",
  "linkReferences": {},
  "deployedLinkReferences": {}
}