{
  "_format": "hh-sol-artifact-1",
  "contractName": "MarketFacet",
  "sourceName": "contracts/facets/Market/MarketFacet.sol",
  "abi": [
    {
      "inputs": [
        {
          "internalType": "string",
          "name": "_contractType",
          "type": "string"
        },
        {
          "internalType": "address",
          "name": "_nftContAddress",
          "type": "address"
        },
        {
          "internalType": "address",
          "name": "_currencyAddress",
          "type": "address"
        },
        {
          "internalType": "address",
          "name": "_seller",
          "type": "address"
        },
        {
          "internalType": "address",
          "name": "_bidder",
          "type": "address"
        },
        {
          "internalType": "uint256",
          "name": "_tokenID",
          "type": "uint256"
        },
        {
          "internalType": "uint256",
          "name": "_bid",
          "type": "uint256"
        },
        {
          "internalType": "uint256",
          "name": "_copies",
          "type": "uint256"
        },
        {
          "internalType": "bytes",
          "name": "_bidderSig",
          "type": "bytes"
        },
        {
          "internalType": "bytes",
          "name": "_sellerSig",
          "type": "bytes"
        }
      ],
      "name": "acceptBid",
      "outputs": [],
      "stateMutability": "nonpayable",
      "type": "function"
    },
    {
      "inputs": [
        {
          "internalType": "string",
          "name": "name_",
          "type": "string"
        },
        {
          "internalType": "string",
          "name": "version_",
          "type": "string"
        }
      ],
      "name": "eip712FacetInit",
      "outputs": [],
      "stateMutability": "nonpayable",
      "type": "function"
    },
    {
      "inputs": [],
      "name": "getAddress",
      "outputs": [
        {
          "internalType": "address",
          "name": "",
          "type": "address"
        }
      ],
      "stateMutability": "view",
      "type": "function"
    },
    {
      "inputs": [],
      "name": "getAdminAddress",
      "outputs": [
        {
          "internalType": "address",
          "name": "",
          "type": "address"
        }
      ],
      "stateMutability": "view",
      "type": "function"
    },
    {
      "inputs": [
        {
          "internalType": "address",
          "name": "_currencyAddress",
          "type": "address"
        }
      ],
      "name": "getApprovedCrypto",
      "outputs": [
        {
          "internalType": "bool",
          "name": "",
          "type": "bool"
        }
      ],
      "stateMutability": "view",
      "type": "function"
    },
    {
      "inputs": [
        {
          "internalType": "address",
          "name": "_nftAddress",
          "type": "address"
        },
        {
          "internalType": "uint256",
          "name": "_tokenID",
          "type": "uint256"
        }
      ],
      "name": "getCollaborators",
      "outputs": [
        {
          "components": [
            {
              "internalType": "address[]",
              "name": "collaborators",
              "type": "address[]"
            },
            {
              "internalType": "uint96[]",
              "name": "collabFraction",
              "type": "uint96[]"
            }
          ],
          "internalType": "struct LibMarketStorage.Collaborators",
          "name": "",
          "type": "tuple"
        }
      ],
      "stateMutability": "view",
      "type": "function"
    },
    {
      "inputs": [],
      "name": "getCommissionPercentage",
      "outputs": [
        {
          "internalType": "uint96",
          "name": "",
          "type": "uint96"
        }
      ],
      "stateMutability": "view",
      "type": "function"
    },
    {
      "inputs": [],
      "name": "getName",
      "outputs": [
        {
          "internalType": "bytes32",
          "name": "",
          "type": "bytes32"
        }
      ],
      "stateMutability": "view",
      "type": "function"
    },
    {
      "inputs": [
        {
          "internalType": "string",
          "name": "name_",
          "type": "string"
        },
        {
          "internalType": "string",
          "name": "version_",
          "type": "string"
        }
      ],
      "name": "marketFacetInit",
      "outputs": [],
      "stateMutability": "nonpayable",
      "type": "function"
    },
    {
      "inputs": [
        {
          "internalType": "address",
          "name": "_currencyAddress",
          "type": "address"
        },
        {
          "internalType": "address",
          "name": "_nftContAddress",
          "type": "address"
        },
        {
          "internalType": "address",
          "name": "_payer",
          "type": "address"
        },
        {
          "internalType": "uint256",
          "name": "amount",
          "type": "uint256"
        },
        {
          "internalType": "uint256",
          "name": "_tokenID",
          "type": "uint256"
        }
      ],
      "name": "royalityFeeDeduction",
      "outputs": [
        {
          "internalType": "uint256",
          "name": "",
          "type": "uint256"
        }
      ],
      "stateMutability": "nonpayable",
      "type": "function"
    },
    {
      "inputs": [
        {
          "internalType": "address",
          "name": "adminAddress_",
          "type": "address"
        }
      ],
      "name": "setAdminAddress",
      "outputs": [],
      "stateMutability": "nonpayable",
      "type": "function"
    },
    {
      "inputs": [
        {
          "internalType": "address",
          "name": "_currencyAddress",
          "type": "address"
        },
        {
          "internalType": "bool",
          "name": "approving",
          "type": "bool"
        }
      ],
      "name": "setApprovedCrypto",
      "outputs": [],
      "stateMutability": "nonpayable",
      "type": "function"
    },
    {
      "inputs": [
        {
          "internalType": "address",
          "name": "_nftAddress",
          "type": "address"
        },
        {
          "internalType": "uint256",
          "name": "_tokenID",
          "type": "uint256"
        },
        {
          "internalType": "address[]",
          "name": "_collaborators",
          "type": "address[]"
        },
        {
          "internalType": "uint96[]",
          "name": "_collabFraction",
          "type": "uint96[]"
        }
      ],
      "name": "setCollaborators",
      "outputs": [],
      "stateMutability": "nonpayable",
      "type": "function"
    },
    {
      "inputs": [
        {
          "internalType": "uint96",
          "name": "_commissionPercentage",
          "type": "uint96"
        }
      ],
      "name": "setCommissionPercentage",
      "outputs": [
        {
          "internalType": "bool",
          "name": "",
          "type": "bool"
        }
      ],
      "stateMutability": "nonpayable",
      "type": "function"
    }
  ],
  "bytecode": "0x608060405234801561001057600080fd5b50613c2a806100206000396000f3fe608060405234801561001057600080fd5b50600436106100ea5760003560e01c806384c6ba571161008c578063a5dbd81411610066578063a5dbd81414610247578063b2e6b91214610265578063ce28a9b414610283578063dccf6253146102b3576100ea565b806384c6ba57146101df5780638f9d5a2b1461020f5780639e9666d91461022b576100ea565b80632c1e816d116100c85780632c1e816d1461015957806338cc4831146101755780634a5ececd1461019357806372b360a6146101c3576100ea565b8063107262b1146100ef57806317d7de7c1461011f5780631c5c32d51461013d575b600080fd5b61010960048036038101906101049190612845565b6102cf565b6040516101169190613341565b60405180910390f35b6101276105b9565b60405161013491906130ed565b60405180910390f35b61015760048036038101906101529190612b04565b6105d1565b005b610173600480360381019061016e919061275d565b61074a565b005b61017d610896565b60405161018a9190613028565b60405180910390f35b6101ad60048036038101906101a89190612ba9565b6108ce565b6040516101ba91906130d2565b60405180910390f35b6101dd60048036038101906101d89190612885565b610a11565b005b6101f960048036038101906101f4919061275d565b610c4c565b60405161020691906130d2565b60405180910390f35b61022960048036038101906102249190612b04565b610cb0565b005b610245600480360381019061024091906129d1565b610cf8565b005b61024f6111f4565b60405161025c91906133a7565b60405180910390f35b61026d61131d565b60405161027a9190613028565b60405180910390f35b61029d6004803603810190610298919061278a565b611355565b6040516102aa9190613363565b60405180910390f35b6102cd60048036038101906102c89190612805565b611517565b005b6102d7612279565b60006102e161167a565b90508060040160009054906101000a900473ffffffffffffffffffffffffffffffffffffffff1673ffffffffffffffffffffffffffffffffffffffff163373ffffffffffffffffffffffffffffffffffffffff16148061039057506000800160009054906101000a900473ffffffffffffffffffffffffffffffffffffffff1673ffffffffffffffffffffffffffffffffffffffff163373ffffffffffffffffffffffffffffffffffffffff16145b6103cf576040517f08c379a00000000000000000000000000000000000000000000000000000000081526004016103c690613321565b60405180910390fd5b60006103d96116a7565b90506103e3612279565b8160020160008773ffffffffffffffffffffffffffffffffffffffff1673ffffffffffffffffffffffffffffffffffffffff16815260200190815260200160002060008681526020019081526020016000206000018054806020026020016040519081016040528092919081815260200182805480156104b857602002820191906000526020600020905b8160009054906101000a900473ffffffffffffffffffffffffffffffffffffffff1673ffffffffffffffffffffffffffffffffffffffff168152602001906001019080831161046e575b505050505081600001819052508160020160008773ffffffffffffffffffffffffffffffffffffffff1673ffffffffffffffffffffffffffffffffffffffff16815260200190815260200160002060008681526020019081526020016000206001018054806020026020016040519081016040528092919081815260200182805480156105a057602002820191906000526020600020906000905b82829054906101000a90046bffffffffffffffffffffffff166bffffffffffffffffffffffff16815260200190600c0190602082600b010492830192600103820291508084116105535790505b5050505050816020018190525080935050505092915050565b6000806105c46116d4565b9050806003015491505090565b60006105db6116d4565b90506000801b81600301541480156105f957506000801b8160040154145b610638576040517f08c379a000000000000000000000000000000000000000000000000000000000815260040161062f90613241565b60405180910390fd5b600083511415801561064c57506000825114155b61068b576040517f08c379a000000000000000000000000000000000000000000000000000000000815260040161068290613301565b60405180910390fd5b60008380519060200120905060008380519060200120905060007f8b73c3c69bb8fe3d512ecc4cf759cc79239f7b179b0ffacaa9a75d522b39400f90508284600301819055508184600401819055504684600101819055506106ee818484611701565b8460000181905550308460020160006101000a81548173ffffffffffffffffffffffffffffffffffffffff021916908373ffffffffffffffffffffffffffffffffffffffff160217905550808460050181905550505050505050565b600061075461167a565b90508060040160009054906101000a900473ffffffffffffffffffffffffffffffffffffffff1673ffffffffffffffffffffffffffffffffffffffff163373ffffffffffffffffffffffffffffffffffffffff16148061080357506000800160009054906101000a900473ffffffffffffffffffffffffffffffffffffffff1673ffffffffffffffffffffffffffffffffffffffff163373ffffffffffffffffffffffffffffffffffffffff16145b610842576040517f08c379a000000000000000000000000000000000000000000000000000000000815260040161083990613321565b60405180910390fd5b600061084c6116a7565b9050828160030160006101000a81548173ffffffffffffffffffffffffffffffffffffffff021916908373ffffffffffffffffffffffffffffffffffffffff160217905550505050565b6000806108a16116d4565b90508060020160009054906101000a900473ffffffffffffffffffffffffffffffffffffffff1691505090565b6000806108d961167a565b90508060040160009054906101000a900473ffffffffffffffffffffffffffffffffffffffff1673ffffffffffffffffffffffffffffffffffffffff163373ffffffffffffffffffffffffffffffffffffffff16148061098857506000800160009054906101000a900473ffffffffffffffffffffffffffffffffffffffff1673ffffffffffffffffffffffffffffffffffffffff163373ffffffffffffffffffffffffffffffffffffffff16145b6109c7576040517f08c379a00000000000000000000000000000000000000000000000000000000081526004016109be90613321565b60405180910390fd5b60006109d16116a7565b9050838160010160006101000a8154816bffffffffffffffffffffffff02191690836bffffffffffffffffffffffff160217905550600192505050919050565b6000610a1b61167a565b90508060040160009054906101000a900473ffffffffffffffffffffffffffffffffffffffff1673ffffffffffffffffffffffffffffffffffffffff163373ffffffffffffffffffffffffffffffffffffffff161480610aca57506000800160009054906101000a900473ffffffffffffffffffffffffffffffffffffffff1673ffffffffffffffffffffffffffffffffffffffff163373ffffffffffffffffffffffffffffffffffffffff16145b610b09576040517f08c379a0000000000000000000000000000000000000000000000000000000008152600401610b0090613321565b60405180910390fd5b6000610b136116a7565b9050610b1d612279565b868680806020026020016040519081016040528093929190818152602001838360200280828437600081840152601f19601f820116905080830192505050505050508160000181905250848480806020026020016040519081016040528093929190818152602001838360200280828437600081840152601f19601f820116905080830192505050505050508160200181905250808260020160008b73ffffffffffffffffffffffffffffffffffffffff1673ffffffffffffffffffffffffffffffffffffffff16815260200190815260200160002060008a81526020019081526020016000206000820151816000019080519060200190610c20929190612293565b506020820151816001019080519060200190610c3d92919061231d565b50905050505050505050505050565b600080610c576116a7565b90508060000160008473ffffffffffffffffffffffffffffffffffffffff1673ffffffffffffffffffffffffffffffffffffffff16815260200190815260200160002060009054906101000a900460ff16915050919050565b6000610cba61167a565b9050610cc683836105d1565b610cf38160040160009054906101000a900473ffffffffffffffffffffffffffffffffffffffff1661074a565b505050565b6000610d0261167a565b90508060040160009054906101000a900473ffffffffffffffffffffffffffffffffffffffff1673ffffffffffffffffffffffffffffffffffffffff163373ffffffffffffffffffffffffffffffffffffffff161480610db157506000800160009054906101000a900473ffffffffffffffffffffffffffffffffffffffff1673ffffffffffffffffffffffffffffffffffffffff163373ffffffffffffffffffffffffffffffffffffffff16145b610df0576040517f08c379a0000000000000000000000000000000000000000000000000000000008152600401610de790613321565b60405180910390fd5b6000610dfa6116a7565b9050600115158160000160008c73ffffffffffffffffffffffffffffffffffffffff1673ffffffffffffffffffffffffffffffffffffffff16815260200190815260200160002060009054906101000a900460ff16151514610e91576040517f08c379a0000000000000000000000000000000000000000000000000000000008152600401610e88906132e1565b60405180910390fd5b610ea08b88878d8a898e61173b565b610edf576040517f08c379a0000000000000000000000000000000000000000000000000000000008152600401610ed690613261565b60405180910390fd5b610eee8b88878d8a888f611793565b610f2d576040517f08c379a0000000000000000000000000000000000000000000000000000000008152600401610f2490613261565b60405180910390fd5b60008a9050868173ffffffffffffffffffffffffffffffffffffffff166370a082318b6040518263ffffffff1660e01b8152600401610f6c9190613028565b60206040518083038186803b158015610f8457600080fd5b505afa158015610f98573d6000803e3d6000fd5b505050506040513d601f19601f82011682018060405250810190610fbc9190612b7c565b1015610ffd576040517f08c379a0000000000000000000000000000000000000000000000000000000008152600401610ff4906132a1565b60405180910390fd5b600087905061100d8c8b8a6117eb565b81611018919061365d565b90506110278c8e8c848d611355565b81611032919061365d565b905060405160200161104390612ffe565b604051602081830303815290604052805190602001208e60405160200161106a9190612fb0565b60405160208183030381529060405280519060200120141561110b576110948c8e8c8e858e611905565b5060008d90508073ffffffffffffffffffffffffffffffffffffffff166323b872dd8d8d8d6040518463ffffffff1660e01b81526004016110d793929190613043565b600060405180830381600087803b1580156110f157600080fd5b505af1158015611105573d6000803e3d6000fd5b50505050505b60405160200161111a90613013565b604051602081830303815290604052805190602001208e6040516020016111419190612fb0565b6040516020818303038152906040528051906020012014156111e45761116b8c8e8c8e858e611905565b5060008d90508073ffffffffffffffffffffffffffffffffffffffff1663f242432a8d8d8d8c6040518563ffffffff1660e01b81526004016111b0949392919061307a565b600060405180830381600087803b1580156111ca57600080fd5b505af11580156111de573d6000803e3d6000fd5b50505050505b5050505050505050505050505050565b6000806111ff61167a565b90508060040160009054906101000a900473ffffffffffffffffffffffffffffffffffffffff1673ffffffffffffffffffffffffffffffffffffffff163373ffffffffffffffffffffffffffffffffffffffff1614806112ae57506000800160009054906101000a900473ffffffffffffffffffffffffffffffffffffffff1673ffffffffffffffffffffffffffffffffffffffff163373ffffffffffffffffffffffffffffffffffffffff16145b6112ed576040517f08c379a00000000000000000000000000000000000000000000000000000000081526004016112e490613321565b60405180910390fd5b60006112f76116a7565b90508060010160009054906101000a90046bffffffffffffffffffffffff169250505090565b6000806113286116a7565b90508060030160009054906101000a900473ffffffffffffffffffffffffffffffffffffffff1691505090565b60008085905060008790506000808373ffffffffffffffffffffffffffffffffffffffff16632a55205a87896040518363ffffffff1660e01b815260040161139e92919061337e565b600060405180830381600087803b1580156113b857600080fd5b505af11580156113cc573d6000803e3d6000fd5b505050506040513d6000823e3d601f19601f820116820180604052508101906113f5919061292c565b915091506000805b8351811015611505578473ffffffffffffffffffffffffffffffffffffffff166323b872dd8b8684815181106114365761143561385b565b5b60200260200101518685815181106114515761145061385b565b5b60200260200101516040518463ffffffff1660e01b815260040161147793929190613043565b602060405180830381600087803b15801561149157600080fd5b505af11580156114a5573d6000803e3d6000fd5b505050506040513d601f19601f820116820180604052508101906114c991906129a4565b508281815181106114dd576114dc61385b565b5b6020026020010151826114f0919061354b565b915080806114fd9061377b565b9150506113fd565b50809550505050505095945050505050565b600061152161167a565b90508060040160009054906101000a900473ffffffffffffffffffffffffffffffffffffffff1673ffffffffffffffffffffffffffffffffffffffff163373ffffffffffffffffffffffffffffffffffffffff1614806115d057506000800160009054906101000a900473ffffffffffffffffffffffffffffffffffffffff1673ffffffffffffffffffffffffffffffffffffffff163373ffffffffffffffffffffffffffffffffffffffff16145b61160f576040517f08c379a000000000000000000000000000000000000000000000000000000000815260040161160690613321565b60405180910390fd5b60006116196116a7565b9050828160000160008673ffffffffffffffffffffffffffffffffffffffff1673ffffffffffffffffffffffffffffffffffffffff16815260200190815260200160002060006101000a81548160ff02191690831515021790555050505050565b6000807fc8fcad8db84d3cc18b4c41d551ea0ee66dd599cde068d998e57d5e09332c131c90508091505090565b6000807f23a8b080129d29a012fab4572a713d8fd62f42f971351afe31751b09c12186aa90508091505090565b6000807fae36923e02a3e3934bc8e16cc335029655eed5d5801b3db8294179c633d8af4c90508091505090565b6000838383463060405160200161171c959493929190613169565b6040516020818303038152906040528051906020012090509392505050565b60008061174b8989898989611d3c565b90508273ffffffffffffffffffffffffffffffffffffffff1661176e8286611da2565b73ffffffffffffffffffffffffffffffffffffffff1614915050979650505050505050565b6000806117a38989898989611d3c565b90508273ffffffffffffffffffffffffffffffffffffffff166117c68286611da2565b73ffffffffffffffffffffffffffffffffffffffff1614915050979650505050505050565b60008084905060006117fb6116a7565b905060006127108260010160009054906101000a90046bffffffffffffffffffffffff1661182991906135d2565b6bffffffffffffffffffffffff16856118429190613603565b90508273ffffffffffffffffffffffffffffffffffffffff166323b872dd878460030160009054906101000a900473ffffffffffffffffffffffffffffffffffffffff16846040518463ffffffff1660e01b81526004016118a593929190613043565b602060405180830381600087803b1580156118bf57600080fd5b505af11580156118d3573d6000803e3d6000fd5b505050506040513d601f19601f820116820180604052508101906118f791906129a4565b508093505050509392505050565b600080879050838173ffffffffffffffffffffffffffffffffffffffff166370a08231886040518263ffffffff1660e01b81526004016119459190613028565b60206040518083038186803b15801561195d57600080fd5b505afa158015611971573d6000803e3d6000fd5b505050506040513d601f19601f820116820180604052508101906119959190612b7c565b10156119d6576040517f08c379a00000000000000000000000000000000000000000000000000000000081526004016119cd906132a1565b60405180910390fd5b60006119e06116a7565b90506119ea612279565b60008690508260020160008b73ffffffffffffffffffffffffffffffffffffffff1673ffffffffffffffffffffffffffffffffffffffff168152602001908152602001600020600087815260200190815260200160002060405180604001604052908160008201805480602002602001604051908101604052809291908181526020018280548015611ad157602002820191906000526020600020905b8160009054906101000a900473ffffffffffffffffffffffffffffffffffffffff1673ffffffffffffffffffffffffffffffffffffffff1681526020019060010190808311611a87575b5050505050815260200160018201805480602002602001604051908101604052809291908181526020018280548015611b6557602002820191906000526020600020906000905b82829054906101000a90046bffffffffffffffffffffffff166bffffffffffffffffffffffff16815260200190600c0190602082600b01049283019260010382029150808411611b185790505b505050505081525050915060005b826000015151811015611c9957600061271084602001518381518110611b9c57611b9b61385b565b5b60200260200101516bffffffffffffffffffffffff168a611bbd9190613603565b611bc791906135a1565b90508089611bd5919061365d565b92508573ffffffffffffffffffffffffffffffffffffffff166323b872dd8c86600001518581518110611c0b57611c0a61385b565b5b6020026020010151846040518463ffffffff1660e01b8152600401611c3293929190613043565b602060405180830381600087803b158015611c4c57600080fd5b505af1158015611c60573d6000803e3d6000fd5b505050506040513d601f19601f82011682018060405250810190611c8491906129a4565b50508080611c919061377b565b915050611b73565b508373ffffffffffffffffffffffffffffffffffffffff166323b872dd8a8a846040518463ffffffff1660e01b8152600401611cd793929190613043565b602060405180830381600087803b158015611cf157600080fd5b505af1158015611d05573d6000803e3d6000fd5b505050506040513d601f19601f82011682018060405250810190611d2991906129a4565b5060019450505050509695505050505050565b6000611d977f73a68255bef9b2d8772a65da56b8c433fcf3e468b3ec1670e127d24c73a90fc78787878787604051602001611d7c96959493929190613108565b60405160208183030381529060405280519060200120611dc9565b905095945050505050565b6000806000611db18585611de3565b91509150611dbe81611e66565b819250505092915050565b6000611ddc611dd661203b565b836120da565b9050919050565b600080604183511415611e255760008060006020860151925060408601519150606086015160001a9050611e198782858561210d565b94509450505050611e5f565b604083511415611e56576000806020850151915060408501519050611e4b86838361221a565b935093505050611e5f565b60006002915091505b9250929050565b60006004811115611e7a57611e7961382c565b5b816004811115611e8d57611e8c61382c565b5b1415611e9857612038565b60016004811115611eac57611eab61382c565b5b816004811115611ebf57611ebe61382c565b5b1415611f00576040517f08c379a0000000000000000000000000000000000000000000000000000000008152600401611ef790613201565b60405180910390fd5b60026004811115611f1457611f1361382c565b5b816004811115611f2757611f2661382c565b5b1415611f68576040517f08c379a0000000000000000000000000000000000000000000000000000000008152600401611f5f90613221565b60405180910390fd5b60036004811115611f7c57611f7b61382c565b5b816004811115611f8f57611f8e61382c565b5b1415611fd0576040517f08c379a0000000000000000000000000000000000000000000000000000000008152600401611fc790613281565b60405180910390fd5b600480811115611fe357611fe261382c565b5b816004811115611ff657611ff561382c565b5b1415612037576040517f08c379a000000000000000000000000000000000000000000000000000000000815260040161202e906132c1565b60405180910390fd5b5b50565b6000806120466116d4565b90508060020160009054906101000a900473ffffffffffffffffffffffffffffffffffffffff1673ffffffffffffffffffffffffffffffffffffffff163073ffffffffffffffffffffffffffffffffffffffff161480156120aa5750806001015446145b156120bc5780600001549150506120d7565b6120d3816005015482600301548360040154611701565b9150505b90565b600082826040516020016120ef929190612fc7565b60405160208183030381529060405280519060200120905092915050565b6000807f7fffffffffffffffffffffffffffffff5d576e7357a4501ddfe92f46681b20a08360001c1115612148576000600391509150612211565b601b8560ff16141580156121605750601c8560ff1614155b15612172576000600491509150612211565b60006001878787876040516000815260200160405260405161219794939291906131bc565b6020604051602081039080840390855afa1580156121b9573d6000803e3d6000fd5b505050602060405103519050600073ffffffffffffffffffffffffffffffffffffffff168173ffffffffffffffffffffffffffffffffffffffff16141561220857600060019250925050612211565b80600092509250505b94509492505050565b60008060007f7fffffffffffffffffffffffffffffffffffffffffffffffffffffffffffffff60001b841690506000601b60ff8660001c901c61225d919061354b565b905061226b8782888561210d565b935093505050935093915050565b604051806040016040528060608152602001606081525090565b82805482825590600052602060002090810192821561230c579160200282015b8281111561230b5782518260006101000a81548173ffffffffffffffffffffffffffffffffffffffff021916908373ffffffffffffffffffffffffffffffffffffffff160217905550916020019190600101906122b3565b5b50905061231991906123e5565b5090565b828054828255906000526020600020906001016002900481019282156123d45791602002820160005b8382111561239a57835183826101000a8154816bffffffffffffffffffffffff02191690836bffffffffffffffffffffffff1602179055509260200192600c01602081600b01049283019260010302612346565b80156123d25782816101000a8154906bffffffffffffffffffffffff0219169055600c01602081600b0104928301926001030261239a565b505b5090506123e191906123e5565b5090565b5b808211156123fe5760008160009055506001016123e6565b5090565b6000612415612410846133e7565b6133c2565b90508083825260208201905082856020860282011115612438576124376138c3565b5b60005b85811015612468578161244e888261257b565b84526020840193506020830192505060018101905061243b565b5050509392505050565b600061248561248084613413565b6133c2565b905080838252602082019050828560208602820111156124a8576124a76138c3565b5b60005b858110156124d857816124be8882612733565b8452602084019350602083019250506001810190506124ab565b5050509392505050565b60006124f56124f08461343f565b6133c2565b905082815260208101848484011115612511576125106138c8565b5b61251c848285613708565b509392505050565b600061253761253284613470565b6133c2565b905082815260208101848484011115612553576125526138c8565b5b61255e848285613708565b509392505050565b60008135905061257581613b98565b92915050565b60008151905061258a81613b98565b92915050565b60008083601f8401126125a6576125a56138be565b5b8235905067ffffffffffffffff8111156125c3576125c26138b9565b5b6020830191508360208202830111156125df576125de6138c3565b5b9250929050565b600082601f8301126125fb576125fa6138be565b5b815161260b848260208601612402565b91505092915050565b600082601f830112612629576126286138be565b5b8151612639848260208601612472565b91505092915050565b60008083601f840112612658576126576138be565b5b8235905067ffffffffffffffff811115612675576126746138b9565b5b602083019150836020820283011115612691576126906138c3565b5b9250929050565b6000813590506126a781613baf565b92915050565b6000815190506126bc81613baf565b92915050565b600082601f8301126126d7576126d66138be565b5b81356126e78482602086016124e2565b91505092915050565b600082601f830112612705576127046138be565b5b8135612715848260208601612524565b91505092915050565b60008135905061272d81613bc6565b92915050565b60008151905061274281613bc6565b92915050565b60008135905061275781613bdd565b92915050565b600060208284031215612773576127726138d2565b5b600061278184828501612566565b91505092915050565b600080600080600060a086880312156127a6576127a56138d2565b5b60006127b488828901612566565b95505060206127c588828901612566565b94505060406127d688828901612566565b93505060606127e78882890161271e565b92505060806127f88882890161271e565b9150509295509295909350565b6000806040838503121561281c5761281b6138d2565b5b600061282a85828601612566565b925050602061283b85828601612698565b9150509250929050565b6000806040838503121561285c5761285b6138d2565b5b600061286a85828601612566565b925050602061287b8582860161271e565b9150509250929050565b600080600080600080608087890312156128a2576128a16138d2565b5b60006128b089828a01612566565b96505060206128c189828a0161271e565b955050604087013567ffffffffffffffff8111156128e2576128e16138cd565b5b6128ee89828a01612590565b9450945050606087013567ffffffffffffffff811115612911576129106138cd565b5b61291d89828a01612642565b92509250509295509295509295565b60008060408385031215612943576129426138d2565b5b600083015167ffffffffffffffff811115612961576129606138cd565b5b61296d858286016125e6565b925050602083015167ffffffffffffffff81111561298e5761298d6138cd565b5b61299a85828601612614565b9150509250929050565b6000602082840312156129ba576129b96138d2565b5b60006129c8848285016126ad565b91505092915050565b6000806000806000806000806000806101408b8d0312156129f5576129f46138d2565b5b60008b013567ffffffffffffffff811115612a1357612a126138cd565b5b612a1f8d828e016126f0565b9a50506020612a308d828e01612566565b9950506040612a418d828e01612566565b9850506060612a528d828e01612566565b9750506080612a638d828e01612566565b96505060a0612a748d828e0161271e565b95505060c0612a858d828e0161271e565b94505060e0612a968d828e0161271e565b9350506101008b013567ffffffffffffffff811115612ab857612ab76138cd565b5b612ac48d828e016126c2565b9250506101208b013567ffffffffffffffff811115612ae657612ae56138cd565b5b612af28d828e016126c2565b9150509295989b9194979a5092959850565b60008060408385031215612b1b57612b1a6138d2565b5b600083013567ffffffffffffffff811115612b3957612b386138cd565b5b612b45858286016126f0565b925050602083013567ffffffffffffffff811115612b6657612b656138cd565b5b612b72858286016126f0565b9150509250929050565b600060208284031215612b9257612b916138d2565b5b6000612ba084828501612733565b91505092915050565b600060208284031215612bbf57612bbe6138d2565b5b6000612bcd84828501612748565b91505092915050565b6000612be28383612c06565b60208301905092915050565b6000612bfa8383612f92565b60208301905092915050565b612c0f81613691565b82525050565b612c1e81613691565b82525050565b6000612c2f826134c1565b612c3981856134fc565b9350612c44836134a1565b8060005b83811015612c75578151612c5c8882612bd6565b9750612c67836134e2565b925050600181019050612c48565b5085935050505092915050565b6000612c8d826134cc565b612c97818561350d565b9350612ca2836134b1565b8060005b83811015612cd3578151612cba8882612bee565b9750612cc5836134ef565b925050600181019050612ca6565b5085935050505092915050565b612ce9816136a3565b82525050565b612cf8816136af565b82525050565b612d0f612d0a826136af565b6137c4565b82525050565b6000612d20826134d7565b612d2a8185613540565b9350612d3a818560208601613717565b80840191505092915050565b6000612d5360188361352f565b9150612d5e826138e8565b602082019050919050565b6000612d76601f8361352f565b9150612d8182613911565b602082019050919050565b6000612d9960138361352f565b9150612da48261393a565b602082019050919050565b6000612dbc601a8361352f565b9150612dc782613963565b602082019050919050565b6000612ddf600283613540565b9150612dea8261398c565b600282019050919050565b6000612e0260228361352f565b9150612e0d826139b5565b604082019050919050565b6000612e2560288361352f565b9150612e3082613a04565b604082019050919050565b6000612e48600683613540565b9150612e5382613a53565b600682019050919050565b6000612e6b60228361352f565b9150612e7682613a7c565b604082019050919050565b6000612e8e602a8361352f565b9150612e9982613acb565b604082019050919050565b6000612eb1600783613540565b9150612ebc82613b1a565b600782019050919050565b6000612ed4600e8361352f565b9150612edf82613b43565b602082019050919050565b6000612ef760008361351e565b9150612f0282613b6c565b600082019050919050565b6000612f1a60138361352f565b9150612f2582613b6f565b602082019050919050565b60006040830160008301518482036000860152612f4d8282612c24565b91505060208301518482036020860152612f678282612c82565b9150508091505092915050565b612f7d816136d9565b82525050565b612f8c816136e3565b82525050565b612f9b816136f0565b82525050565b612faa816136f0565b82525050565b6000612fbc8284612d15565b915081905092915050565b6000612fd282612dd2565b9150612fde8285612cfe565b602082019150612fee8284612cfe565b6020820191508190509392505050565b600061300982612e3b565b9150819050919050565b600061301e82612ea4565b9150819050919050565b600060208201905061303d6000830184612c15565b92915050565b60006060820190506130586000830186612c15565b6130656020830185612c15565b6130726040830184612f74565b949350505050565b600060a08201905061308f6000830187612c15565b61309c6020830186612c15565b6130a96040830185612f74565b6130b66060830184612f74565b81810360808301526130c781612eea565b905095945050505050565b60006020820190506130e76000830184612ce0565b92915050565b60006020820190506131026000830184612cef565b92915050565b600060c08201905061311d6000830189612cef565b61312a6020830188612c15565b6131376040830187612f74565b6131446060830186612f74565b6131516080830185612c15565b61315e60a0830184612f74565b979650505050505050565b600060a08201905061317e6000830188612cef565b61318b6020830187612cef565b6131986040830186612cef565b6131a56060830185612f74565b6131b26080830184612c15565b9695505050505050565b60006080820190506131d16000830187612cef565b6131de6020830186612f83565b6131eb6040830185612cef565b6131f86060830184612cef565b95945050505050565b6000602082019050818103600083015261321a81612d46565b9050919050565b6000602082019050818103600083015261323a81612d69565b9050919050565b6000602082019050818103600083015261325a81612d8c565b9050919050565b6000602082019050818103600083015261327a81612daf565b9050919050565b6000602082019050818103600083015261329a81612df5565b9050919050565b600060208201905081810360008301526132ba81612e18565b9050919050565b600060208201905081810360008301526132da81612e5e565b9050919050565b600060208201905081810360008301526132fa81612e81565b9050919050565b6000602082019050818103600083015261331a81612ec7565b9050919050565b6000602082019050818103600083015261333a81612f0d565b9050919050565b6000602082019050818103600083015261335b8184612f30565b905092915050565b60006020820190506133786000830184612f74565b92915050565b60006040820190506133936000830185612f74565b6133a06020830184612f74565b9392505050565b60006020820190506133bc6000830184612fa1565b92915050565b60006133cc6133dd565b90506133d8828261374a565b919050565b6000604051905090565b600067ffffffffffffffff8211156134025761340161388a565b5b602082029050602081019050919050565b600067ffffffffffffffff82111561342e5761342d61388a565b5b602082029050602081019050919050565b600067ffffffffffffffff82111561345a5761345961388a565b5b613463826138d7565b9050602081019050919050565b600067ffffffffffffffff82111561348b5761348a61388a565b5b613494826138d7565b9050602081019050919050565b6000819050602082019050919050565b6000819050602082019050919050565b600081519050919050565b600081519050919050565b600081519050919050565b6000602082019050919050565b6000602082019050919050565b600082825260208201905092915050565b600082825260208201905092915050565b600082825260208201905092915050565b600082825260208201905092915050565b600081905092915050565b6000613556826136d9565b9150613561836136d9565b9250827fffffffffffffffffffffffffffffffffffffffffffffffffffffffffffffffff03821115613596576135956137ce565b5b828201905092915050565b60006135ac826136d9565b91506135b7836136d9565b9250826135c7576135c66137fd565b5b828204905092915050565b60006135dd826136f0565b91506135e8836136f0565b9250826135f8576135f76137fd565b5b828204905092915050565b600061360e826136d9565b9150613619836136d9565b9250817fffffffffffffffffffffffffffffffffffffffffffffffffffffffffffffffff0483118215151615613652576136516137ce565b5b828202905092915050565b6000613668826136d9565b9150613673836136d9565b925082821015613686576136856137ce565b5b828203905092915050565b600061369c826136b9565b9050919050565b60008115159050919050565b6000819050919050565b600073ffffffffffffffffffffffffffffffffffffffff82169050919050565b6000819050919050565b600060ff82169050919050565b60006bffffffffffffffffffffffff82169050919050565b82818337600083830152505050565b60005b8381101561373557808201518184015260208101905061371a565b83811115613744576000848401525b50505050565b613753826138d7565b810181811067ffffffffffffffff821117156137725761377161388a565b5b80604052505050565b6000613786826136d9565b91507fffffffffffffffffffffffffffffffffffffffffffffffffffffffffffffffff8214156137b9576137b86137ce565b5b600182019050919050565b6000819050919050565b7f4e487b7100000000000000000000000000000000000000000000000000000000600052601160045260246000fd5b7f4e487b7100000000000000000000000000000000000000000000000000000000600052601260045260246000fd5b7f4e487b7100000000000000000000000000000000000000000000000000000000600052602160045260246000fd5b7f4e487b7100000000000000000000000000000000000000000000000000000000600052603260045260246000fd5b7f4e487b7100000000000000000000000000000000000000000000000000000000600052604160045260246000fd5b600080fd5b600080fd5b600080fd5b600080fd5b600080fd5b600080fd5b6000601f19601f8301169050919050565b7f45434453413a20696e76616c6964207369676e61747572650000000000000000600082015250565b7f45434453413a20696e76616c6964207369676e6174757265206c656e67746800600082015250565b7f414c52454144595f494e495449414c495a454400000000000000000000000000600082015250565b7f42696464657273206f66666572206e6f74207665726966696564000000000000600082015250565b7f1901000000000000000000000000000000000000000000000000000000000000600082015250565b7f45434453413a20696e76616c6964207369676e6174757265202773272076616c60008201527f7565000000000000000000000000000000000000000000000000000000000000602082015250565b7f455243323020696e207468652070617965722061646472657373206973206e6f60008201527f7420656e6f756768000000000000000000000000000000000000000000000000602082015250565b7f4552433732310000000000000000000000000000000000000000000000000000600082015250565b7f45434453413a20696e76616c6964207369676e6174757265202776272076616c60008201527f7565000000000000000000000000000000000000000000000000000000000000602082015250565b7f4e6f7420616e20617070726f7665642063727970746f63757272656e6379206660008201527f6f722062696464696e6700000000000000000000000000000000000000000000602082015250565b7f4552433131353500000000000000000000000000000000000000000000000000600082015250565b7f494e56414c49445f504152414d53000000000000000000000000000000000000600082015250565b50565b7f4e6f74206d65646961206e6f72206f776e657200000000000000000000000000600082015250565b613ba181613691565b8114613bac57600080fd5b50565b613bb8816136a3565b8114613bc357600080fd5b50565b613bcf816136d9565b8114613bda57600080fd5b50565b613be6816136f0565b8114613bf157600080fd5b5056fea264697066735822122094e5eb4bbd955cc7ef6a1dfff1e0ab7063df96e0ba8bc9d15d10b2477bdc5c0e64736f6c63430008060033",
  "linkReferences": {},
  "deployedLinkReferences": {}
}