{
  "_format": "hh-sol-artifact-1",
  "contractName": "MarketFacet",
  "sourceName": "contracts/facets/Market/MarketFacet.sol",
  "abi": [
    {
      "inputs": [
        {
          "internalType": "string",
          "name": "_contractType",
          "type": "string"
        },
        {
          "internalType": "address",
          "name": "_nftContAddress",
          "type": "address"
        },
        {
          "internalType": "address",
          "name": "_currencyAddress",
          "type": "address"
        },
        {
          "internalType": "address",
          "name": "_seller",
          "type": "address"
        },
        {
          "internalType": "address",
          "name": "_bidder",
          "type": "address"
        },
        {
          "internalType": "uint256",
          "name": "_tokenID",
          "type": "uint256"
        },
        {
          "internalType": "uint256",
          "name": "_bid",
          "type": "uint256"
        },
        {
          "internalType": "uint256",
          "name": "_copies",
          "type": "uint256"
        },
        {
          "internalType": "bytes",
          "name": "_bidderSig",
          "type": "bytes"
        },
        {
          "internalType": "bytes",
          "name": "_sellerSig",
          "type": "bytes"
        }
      ],
      "name": "acceptBid",
      "outputs": [],
      "stateMutability": "nonpayable",
      "type": "function"
    },
    {
      "inputs": [
        {
          "internalType": "string",
          "name": "name_",
          "type": "string"
        },
        {
          "internalType": "string",
          "name": "version_",
          "type": "string"
        }
      ],
      "name": "eip712FacetInit",
      "outputs": [],
      "stateMutability": "nonpayable",
      "type": "function"
    },
    {
      "inputs": [],
      "name": "getAddress",
      "outputs": [
        {
          "internalType": "address",
          "name": "",
          "type": "address"
        }
      ],
      "stateMutability": "view",
      "type": "function"
    },
    {
      "inputs": [],
      "name": "getAdminAddress",
      "outputs": [
        {
          "internalType": "address",
          "name": "",
          "type": "address"
        }
      ],
      "stateMutability": "view",
      "type": "function"
    },
    {
      "inputs": [
        {
          "internalType": "address",
          "name": "_currencyAddress",
          "type": "address"
        }
      ],
      "name": "getApprovedCrypto",
      "outputs": [
        {
          "internalType": "bool",
          "name": "",
          "type": "bool"
        }
      ],
      "stateMutability": "view",
      "type": "function"
    },
    {
      "inputs": [
        {
          "internalType": "address",
          "name": "_nftAddress",
          "type": "address"
        },
        {
          "internalType": "uint256",
          "name": "_tokenID",
          "type": "uint256"
        }
      ],
      "name": "getCollaborators",
      "outputs": [
        {
          "components": [
            {
              "internalType": "address[]",
              "name": "collaborators",
              "type": "address[]"
            },
            {
              "internalType": "uint96[]",
              "name": "collabFraction",
              "type": "uint96[]"
            }
          ],
          "internalType": "struct LibMarketStorage.Collaborators",
          "name": "",
          "type": "tuple"
        }
      ],
      "stateMutability": "view",
      "type": "function"
    },
    {
      "inputs": [],
      "name": "getCommissionPercentage",
      "outputs": [
        {
          "internalType": "uint96",
          "name": "",
          "type": "uint96"
        }
      ],
      "stateMutability": "view",
      "type": "function"
    },
    {
      "inputs": [],
      "name": "getName",
      "outputs": [
        {
          "internalType": "bytes32",
          "name": "",
          "type": "bytes32"
        }
      ],
      "stateMutability": "view",
      "type": "function"
    },
    {
      "inputs": [
        {
          "internalType": "string",
          "name": "name_",
          "type": "string"
        },
        {
          "internalType": "string",
          "name": "version_",
          "type": "string"
        }
      ],
      "name": "marketFacetInit",
      "outputs": [],
      "stateMutability": "nonpayable",
      "type": "function"
    },
    {
      "inputs": [
        {
          "internalType": "address",
          "name": "_currencyAddress",
          "type": "address"
        },
        {
          "internalType": "address",
          "name": "_nftContAddress",
          "type": "address"
        },
        {
          "internalType": "address",
          "name": "_payer",
          "type": "address"
        },
        {
          "internalType": "uint256",
          "name": "amount",
          "type": "uint256"
        },
        {
          "internalType": "uint256",
          "name": "_tokenID",
          "type": "uint256"
        }
      ],
      "name": "royaltyFeeDeduction",
      "outputs": [
        {
          "internalType": "uint256",
          "name": "",
          "type": "uint256"
        }
      ],
      "stateMutability": "nonpayable",
      "type": "function"
    },
    {
      "inputs": [
        {
          "internalType": "address",
          "name": "adminAddress_",
          "type": "address"
        }
      ],
      "name": "setAdminAddress",
      "outputs": [],
      "stateMutability": "nonpayable",
      "type": "function"
    },
    {
      "inputs": [
        {
          "internalType": "address",
          "name": "_currencyAddress",
          "type": "address"
        },
        {
          "internalType": "bool",
          "name": "approving",
          "type": "bool"
        }
      ],
      "name": "setApprovedCrypto",
      "outputs": [],
      "stateMutability": "nonpayable",
      "type": "function"
    },
    {
      "inputs": [
        {
          "internalType": "address",
          "name": "_nftAddress",
          "type": "address"
        },
        {
          "internalType": "uint256",
          "name": "_tokenID",
          "type": "uint256"
        },
        {
          "internalType": "address[]",
          "name": "_collaborators",
          "type": "address[]"
        },
        {
          "internalType": "uint96[]",
          "name": "_collabFraction",
          "type": "uint96[]"
        }
      ],
      "name": "setCollaborators",
      "outputs": [],
      "stateMutability": "nonpayable",
      "type": "function"
    },
    {
      "inputs": [
        {
          "internalType": "uint96",
          "name": "_commissionPercentage",
          "type": "uint96"
        }
      ],
      "name": "setCommissionPercentage",
      "outputs": [
        {
          "internalType": "bool",
          "name": "",
          "type": "bool"
        }
      ],
      "stateMutability": "nonpayable",
      "type": "function"
    }
  ],
  "bytecode": "0x608060405234801561001057600080fd5b50613ce0806100206000396000f3fe608060405234801561001057600080fd5b50600436106100e95760003560e01c806372b360a61161008c5780639e9666d9116100665780639e9666d91461025a578063a5dbd81414610276578063b2e6b91214610294578063dccf6253146102b2576100e9565b806372b360a6146101f257806384c6ba571461020e5780638f9d5a2b1461023e576100e9565b80631c5c32d5116100c85780631c5c32d51461016c5780632c1e816d1461018857806338cc4831146101a45780634a5ececd146101c2576100e9565b8062610207146100ee578063107262b11461011e57806317d7de7c1461014e575b600080fd5b61010860048036038101906101039190612840565b6102ce565b6040516101159190613419565b60405180910390f35b610138600480360381019061013391906128fb565b6104ee565b60405161014591906133f7565b60405180910390f35b6101566107d8565b60405161016391906131a3565b60405180910390f35b61018660048036038101906101819190612bba565b6107f0565b005b6101a2600480360381019061019d9190612813565b610969565b005b6101ac610ab5565b6040516101b991906130de565b60405180910390f35b6101dc60048036038101906101d79190612c5f565b610aed565b6040516101e99190613188565b60405180910390f35b61020c6004803603810190610207919061293b565b610c30565b005b61022860048036038101906102239190612813565b610e6b565b6040516102359190613188565b60405180910390f35b61025860048036038101906102539190612bba565b610ecf565b005b610274600480360381019061026f9190612a87565b610f17565b005b61027e61146c565b60405161028b919061345d565b60405180910390f35b61029c611595565b6040516102a991906130de565b60405180910390f35b6102cc60048036038101906102c791906128bb565b6115cd565b005b600080600090508573ffffffffffffffffffffffffffffffffffffffff166000800160009054906101000a900473ffffffffffffffffffffffffffffffffffffffff1673ffffffffffffffffffffffffffffffffffffffff1614156104e157600086905060008890506000808373ffffffffffffffffffffffffffffffffffffffff16632a55205a888a6040518363ffffffff1660e01b8152600401610375929190613434565b600060405180830381600087803b15801561038f57600080fd5b505af11580156103a3573d6000803e3d6000fd5b505050506040513d6000823e3d601f19601f820116820180604052508101906103cc91906129e2565b9150915060005b82518110156104db578373ffffffffffffffffffffffffffffffffffffffff166323b872dd8b85848151811061040c5761040b613911565b5b602002602001015185858151811061042757610426613911565b5b60200260200101516040518463ffffffff1660e01b815260040161044d939291906130f9565b602060405180830381600087803b15801561046757600080fd5b505af115801561047b573d6000803e3d6000fd5b505050506040513d601f19601f8201168201806040525081019061049f9190612a5a565b508181815181106104b3576104b2613911565b5b6020026020010151866104c69190613601565b955080806104d390613831565b9150506103d3565b50505050505b8091505095945050505050565b6104f661232f565b6000610500611730565b90508060040160009054906101000a900473ffffffffffffffffffffffffffffffffffffffff1673ffffffffffffffffffffffffffffffffffffffff163373ffffffffffffffffffffffffffffffffffffffff1614806105af57506000800160009054906101000a900473ffffffffffffffffffffffffffffffffffffffff1673ffffffffffffffffffffffffffffffffffffffff163373ffffffffffffffffffffffffffffffffffffffff16145b6105ee576040517f08c379a00000000000000000000000000000000000000000000000000000000081526004016105e5906133d7565b60405180910390fd5b60006105f861175d565b905061060261232f565b8160020160008773ffffffffffffffffffffffffffffffffffffffff1673ffffffffffffffffffffffffffffffffffffffff16815260200190815260200160002060008681526020019081526020016000206000018054806020026020016040519081016040528092919081815260200182805480156106d757602002820191906000526020600020905b8160009054906101000a900473ffffffffffffffffffffffffffffffffffffffff1673ffffffffffffffffffffffffffffffffffffffff168152602001906001019080831161068d575b505050505081600001819052508160020160008773ffffffffffffffffffffffffffffffffffffffff1673ffffffffffffffffffffffffffffffffffffffff16815260200190815260200160002060008681526020019081526020016000206001018054806020026020016040519081016040528092919081815260200182805480156107bf57602002820191906000526020600020906000905b82829054906101000a90046bffffffffffffffffffffffff166bffffffffffffffffffffffff16815260200190600c0190602082600b010492830192600103820291508084116107725790505b5050505050816020018190525080935050505092915050565b6000806107e361178a565b9050806003015491505090565b60006107fa61178a565b90506000801b816003015414801561081857506000801b8160040154145b610857576040517f08c379a000000000000000000000000000000000000000000000000000000000815260040161084e906132f7565b60405180910390fd5b600083511415801561086b57506000825114155b6108aa576040517f08c379a00000000000000000000000000000000000000000000000000000000081526004016108a1906133b7565b60405180910390fd5b60008380519060200120905060008380519060200120905060007f8b73c3c69bb8fe3d512ecc4cf759cc79239f7b179b0ffacaa9a75d522b39400f905082846003018190555081846004018190555046846001018190555061090d8184846117b7565b8460000181905550308460020160006101000a81548173ffffffffffffffffffffffffffffffffffffffff021916908373ffffffffffffffffffffffffffffffffffffffff160217905550808460050181905550505050505050565b6000610973611730565b90508060040160009054906101000a900473ffffffffffffffffffffffffffffffffffffffff1673ffffffffffffffffffffffffffffffffffffffff163373ffffffffffffffffffffffffffffffffffffffff161480610a2257506000800160009054906101000a900473ffffffffffffffffffffffffffffffffffffffff1673ffffffffffffffffffffffffffffffffffffffff163373ffffffffffffffffffffffffffffffffffffffff16145b610a61576040517f08c379a0000000000000000000000000000000000000000000000000000000008152600401610a58906133d7565b60405180910390fd5b6000610a6b61175d565b9050828160030160006101000a81548173ffffffffffffffffffffffffffffffffffffffff021916908373ffffffffffffffffffffffffffffffffffffffff160217905550505050565b600080610ac061178a565b90508060020160009054906101000a900473ffffffffffffffffffffffffffffffffffffffff1691505090565b600080610af8611730565b90508060040160009054906101000a900473ffffffffffffffffffffffffffffffffffffffff1673ffffffffffffffffffffffffffffffffffffffff163373ffffffffffffffffffffffffffffffffffffffff161480610ba757506000800160009054906101000a900473ffffffffffffffffffffffffffffffffffffffff1673ffffffffffffffffffffffffffffffffffffffff163373ffffffffffffffffffffffffffffffffffffffff16145b610be6576040517f08c379a0000000000000000000000000000000000000000000000000000000008152600401610bdd906133d7565b60405180910390fd5b6000610bf061175d565b9050838160010160006101000a8154816bffffffffffffffffffffffff02191690836bffffffffffffffffffffffff160217905550600192505050919050565b6000610c3a611730565b90508060040160009054906101000a900473ffffffffffffffffffffffffffffffffffffffff1673ffffffffffffffffffffffffffffffffffffffff163373ffffffffffffffffffffffffffffffffffffffff161480610ce957506000800160009054906101000a900473ffffffffffffffffffffffffffffffffffffffff1673ffffffffffffffffffffffffffffffffffffffff163373ffffffffffffffffffffffffffffffffffffffff16145b610d28576040517f08c379a0000000000000000000000000000000000000000000000000000000008152600401610d1f906133d7565b60405180910390fd5b6000610d3261175d565b9050610d3c61232f565b868680806020026020016040519081016040528093929190818152602001838360200280828437600081840152601f19601f820116905080830192505050505050508160000181905250848480806020026020016040519081016040528093929190818152602001838360200280828437600081840152601f19601f820116905080830192505050505050508160200181905250808260020160008b73ffffffffffffffffffffffffffffffffffffffff1673ffffffffffffffffffffffffffffffffffffffff16815260200190815260200160002060008a81526020019081526020016000206000820151816000019080519060200190610e3f929190612349565b506020820151816001019080519060200190610e5c9291906123d3565b50905050505050505050505050565b600080610e7661175d565b90508060000160008473ffffffffffffffffffffffffffffffffffffffff1673ffffffffffffffffffffffffffffffffffffffff16815260200190815260200160002060009054906101000a900460ff16915050919050565b6000610ed9611730565b9050610ee583836107f0565b610f128160040160009054906101000a900473ffffffffffffffffffffffffffffffffffffffff16610969565b505050565b6000610f21611730565b90508060040160009054906101000a900473ffffffffffffffffffffffffffffffffffffffff1673ffffffffffffffffffffffffffffffffffffffff163373ffffffffffffffffffffffffffffffffffffffff161480610fd057506000800160009054906101000a900473ffffffffffffffffffffffffffffffffffffffff1673ffffffffffffffffffffffffffffffffffffffff163373ffffffffffffffffffffffffffffffffffffffff16145b61100f576040517f08c379a0000000000000000000000000000000000000000000000000000000008152600401611006906133d7565b60405180910390fd5b600061101961175d565b9050600115158160000160008c73ffffffffffffffffffffffffffffffffffffffff1673ffffffffffffffffffffffffffffffffffffffff16815260200190815260200160002060009054906101000a900460ff161515146110b0576040517f08c379a00000000000000000000000000000000000000000000000000000000081526004016110a790613397565b60405180910390fd5b6110bf8b88878d8a898e6117f1565b6110fe576040517f08c379a00000000000000000000000000000000000000000000000000000000081526004016110f590613317565b60405180910390fd5b61110d8b88878d8a888f611849565b61114c576040517f08c379a000000000000000000000000000000000000000000000000000000000815260040161114390613317565b60405180910390fd5b60008a9050868173ffffffffffffffffffffffffffffffffffffffff166370a082318b6040518263ffffffff1660e01b815260040161118b91906130de565b60206040518083038186803b1580156111a357600080fd5b505afa1580156111b7573d6000803e3d6000fd5b505050506040513d601f19601f820116820180604052508101906111db9190612c32565b101561121c576040517f08c379a000000000000000000000000000000000000000000000000000000000815260040161121390613357565b60405180910390fd5b600087905061122c8c8b8a6118a1565b816112379190613713565b90508c73ffffffffffffffffffffffffffffffffffffffff166000800160009054906101000a900473ffffffffffffffffffffffffffffffffffffffff1673ffffffffffffffffffffffffffffffffffffffff1614156112ac5761129e8c8e8c848d6102ce565b816112a99190613713565b90505b6040516020016112bb906130b4565b604051602081830303815290604052805190602001208e6040516020016112e29190613066565b6040516020818303038152906040528051906020012014156113835761130c8c8e8c8e858e6119bb565b5060008d90508073ffffffffffffffffffffffffffffffffffffffff166323b872dd8d8d8d6040518463ffffffff1660e01b815260040161134f939291906130f9565b600060405180830381600087803b15801561136957600080fd5b505af115801561137d573d6000803e3d6000fd5b50505050505b604051602001611392906130c9565b604051602081830303815290604052805190602001208e6040516020016113b99190613066565b60405160208183030381529060405280519060200120141561145c576113e38c8e8c8e858e6119bb565b5060008d90508073ffffffffffffffffffffffffffffffffffffffff1663f242432a8d8d8d8c6040518563ffffffff1660e01b81526004016114289493929190613130565b600060405180830381600087803b15801561144257600080fd5b505af1158015611456573d6000803e3d6000fd5b50505050505b5050505050505050505050505050565b600080611477611730565b90508060040160009054906101000a900473ffffffffffffffffffffffffffffffffffffffff1673ffffffffffffffffffffffffffffffffffffffff163373ffffffffffffffffffffffffffffffffffffffff16148061152657506000800160009054906101000a900473ffffffffffffffffffffffffffffffffffffffff1673ffffffffffffffffffffffffffffffffffffffff163373ffffffffffffffffffffffffffffffffffffffff16145b611565576040517f08c379a000000000000000000000000000000000000000000000000000000000815260040161155c906133d7565b60405180910390fd5b600061156f61175d565b90508060010160009054906101000a90046bffffffffffffffffffffffff169250505090565b6000806115a061175d565b90508060030160009054906101000a900473ffffffffffffffffffffffffffffffffffffffff1691505090565b60006115d7611730565b90508060040160009054906101000a900473ffffffffffffffffffffffffffffffffffffffff1673ffffffffffffffffffffffffffffffffffffffff163373ffffffffffffffffffffffffffffffffffffffff16148061168657506000800160009054906101000a900473ffffffffffffffffffffffffffffffffffffffff1673ffffffffffffffffffffffffffffffffffffffff163373ffffffffffffffffffffffffffffffffffffffff16145b6116c5576040517f08c379a00000000000000000000000000000000000000000000000000000000081526004016116bc906133d7565b60405180910390fd5b60006116cf61175d565b9050828160000160008673ffffffffffffffffffffffffffffffffffffffff1673ffffffffffffffffffffffffffffffffffffffff16815260200190815260200160002060006101000a81548160ff02191690831515021790555050505050565b6000807fc8fcad8db84d3cc18b4c41d551ea0ee66dd599cde068d998e57d5e09332c131c90508091505090565b6000807f23a8b080129d29a012fab4572a713d8fd62f42f971351afe31751b09c12186aa90508091505090565b6000807fae36923e02a3e3934bc8e16cc335029655eed5d5801b3db8294179c633d8af4c90508091505090565b600083838346306040516020016117d295949392919061321f565b6040516020818303038152906040528051906020012090509392505050565b6000806118018989898989611df2565b90508273ffffffffffffffffffffffffffffffffffffffff166118248286611e58565b73ffffffffffffffffffffffffffffffffffffffff1614915050979650505050505050565b6000806118598989898989611df2565b90508273ffffffffffffffffffffffffffffffffffffffff1661187c8286611e58565b73ffffffffffffffffffffffffffffffffffffffff1614915050979650505050505050565b60008084905060006118b161175d565b905060006127108260010160009054906101000a90046bffffffffffffffffffffffff166118df9190613688565b6bffffffffffffffffffffffff16856118f891906136b9565b90508273ffffffffffffffffffffffffffffffffffffffff166323b872dd878460030160009054906101000a900473ffffffffffffffffffffffffffffffffffffffff16846040518463ffffffff1660e01b815260040161195b939291906130f9565b602060405180830381600087803b15801561197557600080fd5b505af1158015611989573d6000803e3d6000fd5b505050506040513d601f19601f820116820180604052508101906119ad9190612a5a565b508093505050509392505050565b600080879050838173ffffffffffffffffffffffffffffffffffffffff166370a08231886040518263ffffffff1660e01b81526004016119fb91906130de565b60206040518083038186803b158015611a1357600080fd5b505afa158015611a27573d6000803e3d6000fd5b505050506040513d601f19601f82011682018060405250810190611a4b9190612c32565b1015611a8c576040517f08c379a0000000000000000000000000000000000000000000000000000000008152600401611a8390613357565b60405180910390fd5b6000611a9661175d565b9050611aa061232f565b60008690508260020160008b73ffffffffffffffffffffffffffffffffffffffff1673ffffffffffffffffffffffffffffffffffffffff168152602001908152602001600020600087815260200190815260200160002060405180604001604052908160008201805480602002602001604051908101604052809291908181526020018280548015611b8757602002820191906000526020600020905b8160009054906101000a900473ffffffffffffffffffffffffffffffffffffffff1673ffffffffffffffffffffffffffffffffffffffff1681526020019060010190808311611b3d575b5050505050815260200160018201805480602002602001604051908101604052809291908181526020018280548015611c1b57602002820191906000526020600020906000905b82829054906101000a90046bffffffffffffffffffffffff166bffffffffffffffffffffffff16815260200190600c0190602082600b01049283019260010382029150808411611bce5790505b505050505081525050915060005b826000015151811015611d4f57600061271084602001518381518110611c5257611c51613911565b5b60200260200101516bffffffffffffffffffffffff168a611c7391906136b9565b611c7d9190613657565b90508089611c8b9190613713565b92508573ffffffffffffffffffffffffffffffffffffffff166323b872dd8c86600001518581518110611cc157611cc0613911565b5b6020026020010151846040518463ffffffff1660e01b8152600401611ce8939291906130f9565b602060405180830381600087803b158015611d0257600080fd5b505af1158015611d16573d6000803e3d6000fd5b505050506040513d601f19601f82011682018060405250810190611d3a9190612a5a565b50508080611d4790613831565b915050611c29565b508373ffffffffffffffffffffffffffffffffffffffff166323b872dd8a8a846040518463ffffffff1660e01b8152600401611d8d939291906130f9565b602060405180830381600087803b158015611da757600080fd5b505af1158015611dbb573d6000803e3d6000fd5b505050506040513d601f19601f82011682018060405250810190611ddf9190612a5a565b5060019450505050509695505050505050565b6000611e4d7f73a68255bef9b2d8772a65da56b8c433fcf3e468b3ec1670e127d24c73a90fc78787878787604051602001611e32969594939291906131be565b60405160208183030381529060405280519060200120611e7f565b905095945050505050565b6000806000611e678585611e99565b91509150611e7481611f1c565b819250505092915050565b6000611e92611e8c6120f1565b83612190565b9050919050565b600080604183511415611edb5760008060006020860151925060408601519150606086015160001a9050611ecf878285856121c3565b94509450505050611f15565b604083511415611f0c576000806020850151915060408501519050611f018683836122d0565b935093505050611f15565b60006002915091505b9250929050565b60006004811115611f3057611f2f6138e2565b5b816004811115611f4357611f426138e2565b5b1415611f4e576120ee565b60016004811115611f6257611f616138e2565b5b816004811115611f7557611f746138e2565b5b1415611fb6576040517f08c379a0000000000000000000000000000000000000000000000000000000008152600401611fad906132b7565b60405180910390fd5b60026004811115611fca57611fc96138e2565b5b816004811115611fdd57611fdc6138e2565b5b141561201e576040517f08c379a0000000000000000000000000000000000000000000000000000000008152600401612015906132d7565b60405180910390fd5b60036004811115612032576120316138e2565b5b816004811115612045576120446138e2565b5b1415612086576040517f08c379a000000000000000000000000000000000000000000000000000000000815260040161207d90613337565b60405180910390fd5b600480811115612099576120986138e2565b5b8160048111156120ac576120ab6138e2565b5b14156120ed576040517f08c379a00000000000000000000000000000000000000000000000000000000081526004016120e490613377565b60405180910390fd5b5b50565b6000806120fc61178a565b90508060020160009054906101000a900473ffffffffffffffffffffffffffffffffffffffff1673ffffffffffffffffffffffffffffffffffffffff163073ffffffffffffffffffffffffffffffffffffffff161480156121605750806001015446145b1561217257806000015491505061218d565b6121898160050154826003015483600401546117b7565b9150505b90565b600082826040516020016121a592919061307d565b60405160208183030381529060405280519060200120905092915050565b6000807f7fffffffffffffffffffffffffffffff5d576e7357a4501ddfe92f46681b20a08360001c11156121fe5760006003915091506122c7565b601b8560ff16141580156122165750601c8560ff1614155b156122285760006004915091506122c7565b60006001878787876040516000815260200160405260405161224d9493929190613272565b6020604051602081039080840390855afa15801561226f573d6000803e3d6000fd5b505050602060405103519050600073ffffffffffffffffffffffffffffffffffffffff168173ffffffffffffffffffffffffffffffffffffffff1614156122be576000600192509250506122c7565b80600092509250505b94509492505050565b60008060007f7fffffffffffffffffffffffffffffffffffffffffffffffffffffffffffffff60001b841690506000601b60ff8660001c901c6123139190613601565b9050612321878288856121c3565b935093505050935093915050565b604051806040016040528060608152602001606081525090565b8280548282559060005260206000209081019282156123c2579160200282015b828111156123c15782518260006101000a81548173ffffffffffffffffffffffffffffffffffffffff021916908373ffffffffffffffffffffffffffffffffffffffff16021790555091602001919060010190612369565b5b5090506123cf919061249b565b5090565b8280548282559060005260206000209060010160029004810192821561248a5791602002820160005b8382111561245057835183826101000a8154816bffffffffffffffffffffffff02191690836bffffffffffffffffffffffff1602179055509260200192600c01602081600b010492830192600103026123fc565b80156124885782816101000a8154906bffffffffffffffffffffffff0219169055600c01602081600b01049283019260010302612450565b505b509050612497919061249b565b5090565b5b808211156124b457600081600090555060010161249c565b5090565b60006124cb6124c68461349d565b613478565b905080838252602082019050828560208602820111156124ee576124ed613979565b5b60005b8581101561251e57816125048882612631565b8452602084019350602083019250506001810190506124f1565b5050509392505050565b600061253b612536846134c9565b613478565b9050808382526020820190508285602086028201111561255e5761255d613979565b5b60005b8581101561258e578161257488826127e9565b845260208401935060208301925050600181019050612561565b5050509392505050565b60006125ab6125a6846134f5565b613478565b9050828152602081018484840111156125c7576125c661397e565b5b6125d28482856137be565b509392505050565b60006125ed6125e884613526565b613478565b9050828152602081018484840111156126095761260861397e565b5b6126148482856137be565b509392505050565b60008135905061262b81613c4e565b92915050565b60008151905061264081613c4e565b92915050565b60008083601f84011261265c5761265b613974565b5b8235905067ffffffffffffffff8111156126795761267861396f565b5b60208301915083602082028301111561269557612694613979565b5b9250929050565b600082601f8301126126b1576126b0613974565b5b81516126c18482602086016124b8565b91505092915050565b600082601f8301126126df576126de613974565b5b81516126ef848260208601612528565b91505092915050565b60008083601f84011261270e5761270d613974565b5b8235905067ffffffffffffffff81111561272b5761272a61396f565b5b60208301915083602082028301111561274757612746613979565b5b9250929050565b60008135905061275d81613c65565b92915050565b60008151905061277281613c65565b92915050565b600082601f83011261278d5761278c613974565b5b813561279d848260208601612598565b91505092915050565b600082601f8301126127bb576127ba613974565b5b81356127cb8482602086016125da565b91505092915050565b6000813590506127e381613c7c565b92915050565b6000815190506127f881613c7c565b92915050565b60008135905061280d81613c93565b92915050565b60006020828403121561282957612828613988565b5b60006128378482850161261c565b91505092915050565b600080600080600060a0868803121561285c5761285b613988565b5b600061286a8882890161261c565b955050602061287b8882890161261c565b945050604061288c8882890161261c565b935050606061289d888289016127d4565b92505060806128ae888289016127d4565b9150509295509295909350565b600080604083850312156128d2576128d1613988565b5b60006128e08582860161261c565b92505060206128f18582860161274e565b9150509250929050565b6000806040838503121561291257612911613988565b5b60006129208582860161261c565b9250506020612931858286016127d4565b9150509250929050565b6000806000806000806080878903121561295857612957613988565b5b600061296689828a0161261c565b965050602061297789828a016127d4565b955050604087013567ffffffffffffffff81111561299857612997613983565b5b6129a489828a01612646565b9450945050606087013567ffffffffffffffff8111156129c7576129c6613983565b5b6129d389828a016126f8565b92509250509295509295509295565b600080604083850312156129f9576129f8613988565b5b600083015167ffffffffffffffff811115612a1757612a16613983565b5b612a238582860161269c565b925050602083015167ffffffffffffffff811115612a4457612a43613983565b5b612a50858286016126ca565b9150509250929050565b600060208284031215612a7057612a6f613988565b5b6000612a7e84828501612763565b91505092915050565b6000806000806000806000806000806101408b8d031215612aab57612aaa613988565b5b60008b013567ffffffffffffffff811115612ac957612ac8613983565b5b612ad58d828e016127a6565b9a50506020612ae68d828e0161261c565b9950506040612af78d828e0161261c565b9850506060612b088d828e0161261c565b9750506080612b198d828e0161261c565b96505060a0612b2a8d828e016127d4565b95505060c0612b3b8d828e016127d4565b94505060e0612b4c8d828e016127d4565b9350506101008b013567ffffffffffffffff811115612b6e57612b6d613983565b5b612b7a8d828e01612778565b9250506101208b013567ffffffffffffffff811115612b9c57612b9b613983565b5b612ba88d828e01612778565b9150509295989b9194979a5092959850565b60008060408385031215612bd157612bd0613988565b5b600083013567ffffffffffffffff811115612bef57612bee613983565b5b612bfb858286016127a6565b925050602083013567ffffffffffffffff811115612c1c57612c1b613983565b5b612c28858286016127a6565b9150509250929050565b600060208284031215612c4857612c47613988565b5b6000612c56848285016127e9565b91505092915050565b600060208284031215612c7557612c74613988565b5b6000612c83848285016127fe565b91505092915050565b6000612c988383612cbc565b60208301905092915050565b6000612cb08383613048565b60208301905092915050565b612cc581613747565b82525050565b612cd481613747565b82525050565b6000612ce582613577565b612cef81856135b2565b9350612cfa83613557565b8060005b83811015612d2b578151612d128882612c8c565b9750612d1d83613598565b925050600181019050612cfe565b5085935050505092915050565b6000612d4382613582565b612d4d81856135c3565b9350612d5883613567565b8060005b83811015612d89578151612d708882612ca4565b9750612d7b836135a5565b925050600181019050612d5c565b5085935050505092915050565b612d9f81613759565b82525050565b612dae81613765565b82525050565b612dc5612dc082613765565b61387a565b82525050565b6000612dd68261358d565b612de081856135f6565b9350612df08185602086016137cd565b80840191505092915050565b6000612e096018836135e5565b9150612e148261399e565b602082019050919050565b6000612e2c601f836135e5565b9150612e37826139c7565b602082019050919050565b6000612e4f6013836135e5565b9150612e5a826139f0565b602082019050919050565b6000612e72601a836135e5565b9150612e7d82613a19565b602082019050919050565b6000612e956002836135f6565b9150612ea082613a42565b600282019050919050565b6000612eb86022836135e5565b9150612ec382613a6b565b604082019050919050565b6000612edb6028836135e5565b9150612ee682613aba565b604082019050919050565b6000612efe6006836135f6565b9150612f0982613b09565b600682019050919050565b6000612f216022836135e5565b9150612f2c82613b32565b604082019050919050565b6000612f44602a836135e5565b9150612f4f82613b81565b604082019050919050565b6000612f676007836135f6565b9150612f7282613bd0565b600782019050919050565b6000612f8a600e836135e5565b9150612f9582613bf9565b602082019050919050565b6000612fad6000836135d4565b9150612fb882613c22565b600082019050919050565b6000612fd06013836135e5565b9150612fdb82613c25565b602082019050919050565b600060408301600083015184820360008601526130038282612cda565b9150506020830151848203602086015261301d8282612d38565b9150508091505092915050565b6130338161378f565b82525050565b61304281613799565b82525050565b613051816137a6565b82525050565b613060816137a6565b82525050565b60006130728284612dcb565b915081905092915050565b600061308882612e88565b91506130948285612db4565b6020820191506130a48284612db4565b6020820191508190509392505050565b60006130bf82612ef1565b9150819050919050565b60006130d482612f5a565b9150819050919050565b60006020820190506130f36000830184612ccb565b92915050565b600060608201905061310e6000830186612ccb565b61311b6020830185612ccb565b613128604083018461302a565b949350505050565b600060a0820190506131456000830187612ccb565b6131526020830186612ccb565b61315f604083018561302a565b61316c606083018461302a565b818103608083015261317d81612fa0565b905095945050505050565b600060208201905061319d6000830184612d96565b92915050565b60006020820190506131b86000830184612da5565b92915050565b600060c0820190506131d36000830189612da5565b6131e06020830188612ccb565b6131ed604083018761302a565b6131fa606083018661302a565b6132076080830185612ccb565b61321460a083018461302a565b979650505050505050565b600060a0820190506132346000830188612da5565b6132416020830187612da5565b61324e6040830186612da5565b61325b606083018561302a565b6132686080830184612ccb565b9695505050505050565b60006080820190506132876000830187612da5565b6132946020830186613039565b6132a16040830185612da5565b6132ae6060830184612da5565b95945050505050565b600060208201905081810360008301526132d081612dfc565b9050919050565b600060208201905081810360008301526132f081612e1f565b9050919050565b6000602082019050818103600083015261331081612e42565b9050919050565b6000602082019050818103600083015261333081612e65565b9050919050565b6000602082019050818103600083015261335081612eab565b9050919050565b6000602082019050818103600083015261337081612ece565b9050919050565b6000602082019050818103600083015261339081612f14565b9050919050565b600060208201905081810360008301526133b081612f37565b9050919050565b600060208201905081810360008301526133d081612f7d565b9050919050565b600060208201905081810360008301526133f081612fc3565b9050919050565b600060208201905081810360008301526134118184612fe6565b905092915050565b600060208201905061342e600083018461302a565b92915050565b6000604082019050613449600083018561302a565b613456602083018461302a565b9392505050565b60006020820190506134726000830184613057565b92915050565b6000613482613493565b905061348e8282613800565b919050565b6000604051905090565b600067ffffffffffffffff8211156134b8576134b7613940565b5b602082029050602081019050919050565b600067ffffffffffffffff8211156134e4576134e3613940565b5b602082029050602081019050919050565b600067ffffffffffffffff8211156135105761350f613940565b5b6135198261398d565b9050602081019050919050565b600067ffffffffffffffff82111561354157613540613940565b5b61354a8261398d565b9050602081019050919050565b6000819050602082019050919050565b6000819050602082019050919050565b600081519050919050565b600081519050919050565b600081519050919050565b6000602082019050919050565b6000602082019050919050565b600082825260208201905092915050565b600082825260208201905092915050565b600082825260208201905092915050565b600082825260208201905092915050565b600081905092915050565b600061360c8261378f565b91506136178361378f565b9250827fffffffffffffffffffffffffffffffffffffffffffffffffffffffffffffffff0382111561364c5761364b613884565b5b828201905092915050565b60006136628261378f565b915061366d8361378f565b92508261367d5761367c6138b3565b5b828204905092915050565b6000613693826137a6565b915061369e836137a6565b9250826136ae576136ad6138b3565b5b828204905092915050565b60006136c48261378f565b91506136cf8361378f565b9250817fffffffffffffffffffffffffffffffffffffffffffffffffffffffffffffffff048311821515161561370857613707613884565b5b828202905092915050565b600061371e8261378f565b91506137298361378f565b92508282101561373c5761373b613884565b5b828203905092915050565b60006137528261376f565b9050919050565b60008115159050919050565b6000819050919050565b600073ffffffffffffffffffffffffffffffffffffffff82169050919050565b6000819050919050565b600060ff82169050919050565b60006bffffffffffffffffffffffff82169050919050565b82818337600083830152505050565b60005b838110156137eb5780820151818401526020810190506137d0565b838111156137fa576000848401525b50505050565b6138098261398d565b810181811067ffffffffffffffff8211171561382857613827613940565b5b80604052505050565b600061383c8261378f565b91507fffffffffffffffffffffffffffffffffffffffffffffffffffffffffffffffff82141561386f5761386e613884565b5b600182019050919050565b6000819050919050565b7f4e487b7100000000000000000000000000000000000000000000000000000000600052601160045260246000fd5b7f4e487b7100000000000000000000000000000000000000000000000000000000600052601260045260246000fd5b7f4e487b7100000000000000000000000000000000000000000000000000000000600052602160045260246000fd5b7f4e487b7100000000000000000000000000000000000000000000000000000000600052603260045260246000fd5b7f4e487b7100000000000000000000000000000000000000000000000000000000600052604160045260246000fd5b600080fd5b600080fd5b600080fd5b600080fd5b600080fd5b600080fd5b6000601f19601f8301169050919050565b7f45434453413a20696e76616c6964207369676e61747572650000000000000000600082015250565b7f45434453413a20696e76616c6964207369676e6174757265206c656e67746800600082015250565b7f414c52454144595f494e495449414c495a454400000000000000000000000000600082015250565b7f42696464657273206f66666572206e6f74207665726966696564000000000000600082015250565b7f1901000000000000000000000000000000000000000000000000000000000000600082015250565b7f45434453413a20696e76616c6964207369676e6174757265202773272076616c60008201527f7565000000000000000000000000000000000000000000000000000000000000602082015250565b7f455243323020696e207468652070617965722061646472657373206973206e6f60008201527f7420656e6f756768000000000000000000000000000000000000000000000000602082015250565b7f4552433732310000000000000000000000000000000000000000000000000000600082015250565b7f45434453413a20696e76616c6964207369676e6174757265202776272076616c60008201527f7565000000000000000000000000000000000000000000000000000000000000602082015250565b7f4e6f7420616e20617070726f7665642063727970746f63757272656e6379206660008201527f6f722062696464696e6700000000000000000000000000000000000000000000602082015250565b7f4552433131353500000000000000000000000000000000000000000000000000600082015250565b7f494e56414c49445f504152414d53000000000000000000000000000000000000600082015250565b50565b7f4e6f74206d65646961206e6f72206f776e657200000000000000000000000000600082015250565b613c5781613747565b8114613c6257600080fd5b50565b613c6e81613759565b8114613c7957600080fd5b50565b613c858161378f565b8114613c9057600080fd5b50565b613c9c816137a6565b8114613ca757600080fd5b5056fea264697066735822122013c5dcd1d9a63b3b5ea5953a44bf21975e047c269d1000b7d405503831612b4f64736f6c63430008060033",
  "linkReferences": {},
  "deployedLinkReferences": {}
}