{
  "_format": "hh-sol-artifact-1",
  "contractName": "MarketFacet",
  "sourceName": "contracts/facets/Market/MarketFacet.sol",
  "abi": [
    {
      "anonymous": false,
      "inputs": [
        {
          "indexed": false,
          "internalType": "address",
          "name": "admin",
          "type": "address"
        }
      ],
      "name": "Admin",
      "type": "event"
    },
    {
      "anonymous": false,
      "inputs": [
        {
          "indexed": false,
          "internalType": "uint96",
          "name": "commissionPercentage",
          "type": "uint96"
        }
      ],
      "name": "AdminFee",
      "type": "event"
    },
    {
      "anonymous": false,
      "inputs": [
        {
          "indexed": false,
          "internalType": "address",
          "name": "buyer",
          "type": "address"
        },
        {
          "indexed": false,
          "internalType": "address",
          "name": "seller",
          "type": "address"
        },
        {
          "indexed": false,
          "internalType": "bool",
          "name": "accepted",
          "type": "bool"
        }
      ],
      "name": "BidAccepted",
      "type": "event"
    },
    {
      "anonymous": false,
      "inputs": [
        {
          "indexed": false,
          "internalType": "address",
          "name": "nftAddress",
          "type": "address"
        },
        {
          "indexed": false,
          "internalType": "uint256",
          "name": "tokenID",
          "type": "uint256"
        },
        {
          "indexed": false,
          "internalType": "address[]",
          "name": "collaborators",
          "type": "address[]"
        },
        {
          "indexed": false,
          "internalType": "uint96[]",
          "name": "collabFraction",
          "type": "uint96[]"
        }
      ],
      "name": "CollaboratorsFee",
      "type": "event"
    },
    {
      "anonymous": false,
      "inputs": [
        {
          "indexed": false,
          "internalType": "address",
          "name": "currencyAddress",
          "type": "address"
        },
        {
          "indexed": false,
          "internalType": "bool",
          "name": "approving",
          "type": "bool"
        }
      ],
      "name": "CryptoApproved",
      "type": "event"
    },
    {
      "inputs": [
        {
          "internalType": "string",
          "name": "_contractType",
          "type": "string"
        },
        {
          "internalType": "address",
          "name": "_nftContAddress",
          "type": "address"
        },
        {
          "internalType": "address",
          "name": "_currencyAddress",
          "type": "address"
        },
        {
          "internalType": "address",
          "name": "_seller",
          "type": "address"
        },
        {
          "internalType": "address",
          "name": "_bidder",
          "type": "address"
        },
        {
          "internalType": "uint256",
          "name": "_tokenID",
          "type": "uint256"
        },
        {
          "internalType": "uint256",
          "name": "_bid",
          "type": "uint256"
        },
        {
          "internalType": "uint256",
          "name": "_copies",
          "type": "uint256"
        },
        {
          "internalType": "bytes",
          "name": "_bidderSig",
          "type": "bytes"
        },
        {
          "internalType": "bytes",
          "name": "_sellerSig",
          "type": "bytes"
        }
      ],
      "name": "acceptBid",
      "outputs": [],
      "stateMutability": "nonpayable",
      "type": "function"
    },
    {
      "inputs": [
        {
          "internalType": "string",
          "name": "name_",
          "type": "string"
        },
        {
          "internalType": "string",
          "name": "version_",
          "type": "string"
        }
      ],
      "name": "eip712FacetInit",
      "outputs": [],
      "stateMutability": "nonpayable",
      "type": "function"
    },
    {
      "inputs": [],
      "name": "getAddress",
      "outputs": [
        {
          "internalType": "address",
          "name": "",
          "type": "address"
        }
      ],
      "stateMutability": "view",
      "type": "function"
    },
    {
      "inputs": [],
      "name": "getAdminAddress",
      "outputs": [
        {
          "internalType": "address",
          "name": "",
          "type": "address"
        }
      ],
      "stateMutability": "view",
      "type": "function"
    },
    {
      "inputs": [
        {
          "internalType": "address",
          "name": "_currencyAddress",
          "type": "address"
        }
      ],
      "name": "getApprovedCrypto",
      "outputs": [
        {
          "internalType": "bool",
          "name": "",
          "type": "bool"
        }
      ],
      "stateMutability": "view",
      "type": "function"
    },
    {
      "inputs": [
        {
          "internalType": "address",
          "name": "_nftAddress",
          "type": "address"
        },
        {
          "internalType": "uint256",
          "name": "_tokenID",
          "type": "uint256"
        }
      ],
      "name": "getCollaborators",
      "outputs": [
        {
          "components": [
            {
              "internalType": "address[]",
              "name": "collaborators",
              "type": "address[]"
            },
            {
              "internalType": "uint96[]",
              "name": "collabFraction",
              "type": "uint96[]"
            }
          ],
          "internalType": "struct LibMarketStorage.Collaborators",
          "name": "",
          "type": "tuple"
        }
      ],
      "stateMutability": "view",
      "type": "function"
    },
    {
      "inputs": [],
      "name": "getCommissionPercentage",
      "outputs": [
        {
          "internalType": "uint96",
          "name": "",
          "type": "uint96"
        }
      ],
      "stateMutability": "view",
      "type": "function"
    },
    {
      "inputs": [],
      "name": "getName",
      "outputs": [
        {
          "internalType": "bytes32",
          "name": "",
          "type": "bytes32"
        }
      ],
      "stateMutability": "view",
      "type": "function"
    },
    {
      "inputs": [
        {
          "internalType": "string",
          "name": "name_",
          "type": "string"
        },
        {
          "internalType": "string",
          "name": "version_",
          "type": "string"
        }
      ],
      "name": "marketFacetInit",
      "outputs": [],
      "stateMutability": "nonpayable",
      "type": "function"
    },
    {
      "inputs": [
        {
          "internalType": "string",
          "name": "_contractType",
          "type": "string"
        },
        {
          "internalType": "address",
          "name": "_currencyAddress",
          "type": "address"
        },
        {
          "internalType": "address",
          "name": "_nftContAddress",
          "type": "address"
        },
        {
          "internalType": "address",
          "name": "_payer",
          "type": "address"
        },
        {
          "internalType": "uint256",
          "name": "amount",
          "type": "uint256"
        },
        {
          "internalType": "uint256",
          "name": "_tokenID",
          "type": "uint256"
        }
      ],
      "name": "royaltyFeeDeduction",
      "outputs": [
        {
          "internalType": "uint256",
          "name": "",
          "type": "uint256"
        }
      ],
      "stateMutability": "nonpayable",
      "type": "function"
    },
    {
      "inputs": [
        {
          "internalType": "address",
          "name": "adminAddress_",
          "type": "address"
        }
      ],
      "name": "setAdminAddress",
      "outputs": [],
      "stateMutability": "nonpayable",
      "type": "function"
    },
    {
      "inputs": [
        {
          "internalType": "address",
          "name": "_currencyAddress",
          "type": "address"
        },
        {
          "internalType": "bool",
          "name": "approving",
          "type": "bool"
        }
      ],
      "name": "setApprovedCrypto",
      "outputs": [],
      "stateMutability": "nonpayable",
      "type": "function"
    },
    {
      "inputs": [
        {
          "internalType": "address",
          "name": "_nftAddress",
          "type": "address"
        },
        {
          "internalType": "uint256",
          "name": "_tokenID",
          "type": "uint256"
        },
        {
          "internalType": "address[]",
          "name": "_collaborators",
          "type": "address[]"
        },
        {
          "internalType": "uint96[]",
          "name": "_collabFraction",
          "type": "uint96[]"
        }
      ],
      "name": "setCollaborators",
      "outputs": [],
      "stateMutability": "nonpayable",
      "type": "function"
    },
    {
      "inputs": [
        {
          "internalType": "uint96",
          "name": "_commissionPercentage",
          "type": "uint96"
        }
      ],
      "name": "setCommissionPercentage",
      "outputs": [
        {
          "internalType": "bool",
          "name": "",
          "type": "bool"
        }
      ],
      "stateMutability": "nonpayable",
      "type": "function"
    }
  ],
  "bytecode": "0x608060405234801561001057600080fd5b5061476d806100206000396000f3fe608060405234801561001057600080fd5b50600436106100ea5760003560e01c806384c6ba571161008c578063a5dbd81411610066578063a5dbd81414610247578063b2e6b91214610265578063d8ffe65614610283578063dccf6253146102b3576100ea565b806384c6ba57146101df5780638f9d5a2b1461020f5780639e9666d91461022b576100ea565b80632c1e816d116100c85780632c1e816d1461015957806338cc4831146101755780634a5ececd1461019357806372b360a6146101c3576100ea565b8063107262b1146100ef57806317d7de7c1461011f5780631c5c32d51461013d575b600080fd5b61010960048036038101906101049190612b58565b6102cf565b6040516101169190612d70565b60405180910390f35b6101276105b9565b6040516101349190612dab565b60405180910390f35b61015760048036038101906101529190612f0c565b6105d1565b005b610173600480360381019061016e9190612f84565b61074a565b005b61017d6108cd565b60405161018a9190612fc0565b60405180910390f35b6101ad60048036038101906101a89190613007565b610905565b6040516101ba919061304f565b60405180910390f35b6101dd60048036038101906101d89190613120565b610a7f565b005b6101f960048036038101906101f49190612f84565b610dd0565b604051610206919061304f565b60405180910390f35b61022960048036038101906102249190612f0c565b610e34565b005b61024560048036038101906102409190613268565b610e7c565b005b61024f6116a8565b60405161025c91906133aa565b60405180910390f35b61026d6117d1565b60405161027a9190612fc0565b60405180910390f35b61029d600480360381019061029891906133c5565b611809565b6040516102aa919061347d565b60405180910390f35b6102cd60048036038101906102c891906134c4565b611c1c565b005b6102d7612927565b60006102e1611db8565b90508060040160009054906101000a900473ffffffffffffffffffffffffffffffffffffffff1673ffffffffffffffffffffffffffffffffffffffff163373ffffffffffffffffffffffffffffffffffffffff16148061039057506000800160009054906101000a900473ffffffffffffffffffffffffffffffffffffffff1673ffffffffffffffffffffffffffffffffffffffff163373ffffffffffffffffffffffffffffffffffffffff16145b6103cf576040517f08c379a00000000000000000000000000000000000000000000000000000000081526004016103c690613561565b60405180910390fd5b60006103d9611de5565b90506103e3612927565b8160020160008773ffffffffffffffffffffffffffffffffffffffff1673ffffffffffffffffffffffffffffffffffffffff16815260200190815260200160002060008681526020019081526020016000206000018054806020026020016040519081016040528092919081815260200182805480156104b857602002820191906000526020600020905b8160009054906101000a900473ffffffffffffffffffffffffffffffffffffffff1673ffffffffffffffffffffffffffffffffffffffff168152602001906001019080831161046e575b505050505081600001819052508160020160008773ffffffffffffffffffffffffffffffffffffffff1673ffffffffffffffffffffffffffffffffffffffff16815260200190815260200160002060008681526020019081526020016000206001018054806020026020016040519081016040528092919081815260200182805480156105a057602002820191906000526020600020906000905b82829054906101000a90046bffffffffffffffffffffffff166bffffffffffffffffffffffff16815260200190600c0190602082600b010492830192600103820291508084116105535790505b5050505050816020018190525080935050505092915050565b6000806105c4611e12565b9050806003015491505090565b60006105db611e12565b90506000801b81600301541480156105f957506000801b8160040154145b610638576040517f08c379a000000000000000000000000000000000000000000000000000000000815260040161062f906135cd565b60405180910390fd5b600083511415801561064c57506000825114155b61068b576040517f08c379a000000000000000000000000000000000000000000000000000000000815260040161068290613639565b60405180910390fd5b60008380519060200120905060008380519060200120905060007f8b73c3c69bb8fe3d512ecc4cf759cc79239f7b179b0ffacaa9a75d522b39400f90508284600301819055508184600401819055504684600101819055506106ee818484611e3f565b8460000181905550308460020160006101000a81548173ffffffffffffffffffffffffffffffffffffffff021916908373ffffffffffffffffffffffffffffffffffffffff160217905550808460050181905550505050505050565b6000610754611db8565b90508060040160009054906101000a900473ffffffffffffffffffffffffffffffffffffffff1673ffffffffffffffffffffffffffffffffffffffff163373ffffffffffffffffffffffffffffffffffffffff16148061080357506000800160009054906101000a900473ffffffffffffffffffffffffffffffffffffffff1673ffffffffffffffffffffffffffffffffffffffff163373ffffffffffffffffffffffffffffffffffffffff16145b610842576040517f08c379a000000000000000000000000000000000000000000000000000000000815260040161083990613561565b60405180910390fd5b600061084c611de5565b9050828160030160006101000a81548173ffffffffffffffffffffffffffffffffffffffff021916908373ffffffffffffffffffffffffffffffffffffffff1602179055507f33b005d053f740768cddf56d4aae11b8b1fb294e749565266b2f2b20e80e9cdf836040516108c09190612fc0565b60405180910390a1505050565b6000806108d8611e12565b90508060020160009054906101000a900473ffffffffffffffffffffffffffffffffffffffff1691505090565b600080610910611db8565b90508060040160009054906101000a900473ffffffffffffffffffffffffffffffffffffffff1673ffffffffffffffffffffffffffffffffffffffff163373ffffffffffffffffffffffffffffffffffffffff1614806109bf57506000800160009054906101000a900473ffffffffffffffffffffffffffffffffffffffff1673ffffffffffffffffffffffffffffffffffffffff163373ffffffffffffffffffffffffffffffffffffffff16145b6109fe576040517f08c379a00000000000000000000000000000000000000000000000000000000081526004016109f590613561565b60405180910390fd5b6000610a08611de5565b9050838160010160006101000a8154816bffffffffffffffffffffffff02191690836bffffffffffffffffffffffff1602179055507fd9ca64d182fc7249309d686d75d501291017aa620a47f3344bc6f587448b59ee84604051610a6c91906133aa565b60405180910390a1600192505050919050565b6000610a89611db8565b90508060040160009054906101000a900473ffffffffffffffffffffffffffffffffffffffff1673ffffffffffffffffffffffffffffffffffffffff163373ffffffffffffffffffffffffffffffffffffffff161480610b3857506000800160009054906101000a900473ffffffffffffffffffffffffffffffffffffffff1673ffffffffffffffffffffffffffffffffffffffff163373ffffffffffffffffffffffffffffffffffffffff16145b610b77576040517f08c379a0000000000000000000000000000000000000000000000000000000008152600401610b6e90613561565b60405180910390fd5b6005858590501115610bbe576040517f08c379a0000000000000000000000000000000000000000000000000000000008152600401610bb5906136a5565b60405180910390fd5b60008585905011610c04576040517f08c379a0000000000000000000000000000000000000000000000000000000008152600401610bfb90613711565b60405180910390fd5b828290508585905014610c4c576040517f08c379a0000000000000000000000000000000000000000000000000000000008152600401610c43906137a3565b60405180910390fd5b6000610c56611de5565b9050610c60612927565b868680806020026020016040519081016040528093929190818152602001838360200280828437600081840152601f19601f820116905080830192505050505050508160000181905250848480806020026020016040519081016040528093929190818152602001838360200280828437600081840152601f19601f820116905080830192505050505050508160200181905250808260020160008b73ffffffffffffffffffffffffffffffffffffffff1673ffffffffffffffffffffffffffffffffffffffff16815260200190815260200160002060008a81526020019081526020016000206000820151816000019080519060200190610d63929190612941565b506020820151816001019080519060200190610d809291906129cb565b509050507f3a72b6200a646e4f1476132bab86a1a8b22b7f21986c1d099413e69650832f35898989898989604051610dbd969594939291906138fb565b60405180910390a1505050505050505050565b600080610ddb611de5565b90508060000160008473ffffffffffffffffffffffffffffffffffffffff1673ffffffffffffffffffffffffffffffffffffffff16815260200190815260200160002060009054906101000a900460ff16915050919050565b6000610e3e611db8565b9050610e4a83836105d1565b610e778160040160009054906101000a900473ffffffffffffffffffffffffffffffffffffffff1661074a565b505050565b6000610e86611db8565b90508060040160009054906101000a900473ffffffffffffffffffffffffffffffffffffffff1673ffffffffffffffffffffffffffffffffffffffff163373ffffffffffffffffffffffffffffffffffffffff161480610f3557506000800160009054906101000a900473ffffffffffffffffffffffffffffffffffffffff1673ffffffffffffffffffffffffffffffffffffffff163373ffffffffffffffffffffffffffffffffffffffff16145b610f74576040517f08c379a0000000000000000000000000000000000000000000000000000000008152600401610f6b90613561565b60405180910390fd5b6000610f7e611de5565b9050600115158160000160008c73ffffffffffffffffffffffffffffffffffffffff1673ffffffffffffffffffffffffffffffffffffffff16815260200190815260200160002060009054906101000a900460ff16151514611015576040517f08c379a000000000000000000000000000000000000000000000000000000000815260040161100c906139c4565b60405180910390fd5b6110248b88878d8a898e611e79565b611063576040517f08c379a000000000000000000000000000000000000000000000000000000000815260040161105a90613a30565b60405180910390fd5b6110728b88878d8a888f611ed1565b6110b1576040517f08c379a00000000000000000000000000000000000000000000000000000000081526004016110a890613a9c565b60405180910390fd5b60008a9050868173ffffffffffffffffffffffffffffffffffffffff166370a082318b6040518263ffffffff1660e01b81526004016110f09190612fc0565b60206040518083038186803b15801561110857600080fd5b505afa15801561111c573d6000803e3d6000fd5b505050506040513d601f19601f820116820180604052508101906111409190613ad1565b1015611181576040517f08c379a000000000000000000000000000000000000000000000000000000000815260040161117890613b70565b60405180910390fd5b868173ffffffffffffffffffffffffffffffffffffffff1663dd62ed3e8b6000800160009054906101000a900473ffffffffffffffffffffffffffffffffffffffff166040518363ffffffff1660e01b81526004016111e1929190613b90565b60206040518083038186803b1580156111f957600080fd5b505afa15801561120d573d6000803e3d6000fd5b505050506040513d601f19601f820116820180604052508101906112319190613ad1565b1015611272576040517f08c379a000000000000000000000000000000000000000000000000000000000815260040161126990613c51565b60405180910390fd5b60008790506112828c8b8a611f29565b8161128d9190613ca0565b90508c73ffffffffffffffffffffffffffffffffffffffff166000800160009054906101000a900473ffffffffffffffffffffffffffffffffffffffff1673ffffffffffffffffffffffffffffffffffffffff1614156114ab576112f58e8d8f8d858e611809565b816113009190613ca0565b905060405160200161131190613d2b565b604051602081830303815290604052805190602001208e6040516020016113389190613daf565b6040516020818303038152906040528051906020012014156113d3576113628c8e8c8e858e612043565b508c73ffffffffffffffffffffffffffffffffffffffff166323b872dd8c8c8c6040518463ffffffff1660e01b81526004016113a093929190613dc6565b600060405180830381600087803b1580156113ba57600080fd5b505af11580156113ce573d6000803e3d6000fd5b505050505b6040516020016113e290613e49565b604051602081830303815290604052805190602001208e6040516020016114099190613daf565b6040516020818303038152906040528051906020012014156114a6576114338c8e8c8e858e612043565b508c73ffffffffffffffffffffffffffffffffffffffff1663f242432a8c8c8c8b6040518563ffffffff1660e01b81526004016114739493929190613e95565b600060405180830381600087803b15801561148d57600080fd5b505af11580156114a1573d6000803e3d6000fd5b505050505b61165c565b6040516020016114ba90613d2b565b604051602081830303815290604052805190602001208e6040516020016114e19190613daf565b6040516020818303038152906040528051906020012014156115825761150b8c8e8c8e858e612043565b5060008d90508073ffffffffffffffffffffffffffffffffffffffff166323b872dd8d8d8d6040518463ffffffff1660e01b815260040161154e93929190613dc6565b600060405180830381600087803b15801561156857600080fd5b505af115801561157c573d6000803e3d6000fd5b50505050505b60405160200161159190613e49565b604051602081830303815290604052805190602001208e6040516020016115b89190613daf565b60405160208183030381529060405280519060200120141561165b576115e28c8e8c8e858e612043565b5060008d90508073ffffffffffffffffffffffffffffffffffffffff1663f242432a8d8d8d8c6040518563ffffffff1660e01b81526004016116279493929190613e95565b600060405180830381600087803b15801561164157600080fd5b505af1158015611655573d6000803e3d6000fd5b50505050505b5b7f19ffb67d0adfde67ebbb974c6d8b740dc93d5aa107e918d3bea627c5fecef8d58a8c600160405161169093929190613eed565b60405180910390a15050505050505050505050505050565b6000806116b3611db8565b90508060040160009054906101000a900473ffffffffffffffffffffffffffffffffffffffff1673ffffffffffffffffffffffffffffffffffffffff163373ffffffffffffffffffffffffffffffffffffffff16148061176257506000800160009054906101000a900473ffffffffffffffffffffffffffffffffffffffff1673ffffffffffffffffffffffffffffffffffffffff163373ffffffffffffffffffffffffffffffffffffffff16145b6117a1576040517f08c379a000000000000000000000000000000000000000000000000000000000815260040161179890613561565b60405180910390fd5b60006117ab611de5565b90508060010160009054906101000a90046bffffffffffffffffffffffff169250505090565b6000806117dc611de5565b90508060030160009054906101000a900473ffffffffffffffffffffffffffffffffffffffff1691505090565b6000806000905060405160200161181f90613d2b565b60405160208183030381529060405280519060200120886040516020016118469190613daf565b604051602081830303815290604052805190602001201415611a0e576000808773ffffffffffffffffffffffffffffffffffffffff1663a47404a386886040518363ffffffff1660e01b81526004016118a0929190613f24565b60006040518083038186803b1580156118b857600080fd5b505afa1580156118cc573d6000803e3d6000fd5b505050506040513d6000823e3d601f19601f820116820180604052508101906118f591906140e8565b91509150600089905060005b8351811015611a09578173ffffffffffffffffffffffffffffffffffffffff166323b872dd8a86848151811061193a57611939614160565b5b602002602001015186858151811061195557611954614160565b5b60200260200101516040518463ffffffff1660e01b815260040161197b93929190613dc6565b602060405180830381600087803b15801561199557600080fd5b505af11580156119a9573d6000803e3d6000fd5b505050506040513d601f19601f820116820180604052508101906119cd91906141a4565b508281815181106119e1576119e0614160565b5b6020026020010151856119f491906141d1565b94508080611a0190614227565b915050611901565b505050505b604051602001611a1d90613e49565b6040516020818303038152906040528051906020012088604051602001611a449190613daf565b604051602081830303815290604052805190602001201415611c0e576000808773ffffffffffffffffffffffffffffffffffffffff1663eed3245886886040518363ffffffff1660e01b8152600401611a9e929190613f24565b600060405180830381600087803b158015611ab857600080fd5b505af1158015611acc573d6000803e3d6000fd5b505050506040513d6000823e3d601f19601f82011682018060405250810190611af591906140e8565b91509150600089905060005b8351811015611c09578173ffffffffffffffffffffffffffffffffffffffff166323b872dd8a868481518110611b3a57611b39614160565b5b6020026020010151868581518110611b5557611b54614160565b5b60200260200101516040518463ffffffff1660e01b8152600401611b7b93929190613dc6565b602060405180830381600087803b158015611b9557600080fd5b505af1158015611ba9573d6000803e3d6000fd5b505050506040513d601f19601f82011682018060405250810190611bcd91906141a4565b50828181518110611be157611be0614160565b5b602002602001015185611bf491906141d1565b94508080611c0190614227565b915050611b01565b505050505b809150509695505050505050565b6000611c26611db8565b90508060040160009054906101000a900473ffffffffffffffffffffffffffffffffffffffff1673ffffffffffffffffffffffffffffffffffffffff163373ffffffffffffffffffffffffffffffffffffffff161480611cd557506000800160009054906101000a900473ffffffffffffffffffffffffffffffffffffffff1673ffffffffffffffffffffffffffffffffffffffff163373ffffffffffffffffffffffffffffffffffffffff16145b611d14576040517f08c379a0000000000000000000000000000000000000000000000000000000008152600401611d0b90613561565b60405180910390fd5b6000611d1e611de5565b9050828160000160008673ffffffffffffffffffffffffffffffffffffffff1673ffffffffffffffffffffffffffffffffffffffff16815260200190815260200160002060006101000a81548160ff0219169083151502179055507ff351943a6966bcc3eb6b4fc6d8c641a491c9e3f85e183a0992c98aa6523713e18484604051611daa929190614270565b60405180910390a150505050565b6000807fc8fcad8db84d3cc18b4c41d551ea0ee66dd599cde068d998e57d5e09332c131c90508091505090565b6000807f23a8b080129d29a012fab4572a713d8fd62f42f971351afe31751b09c12186aa90508091505090565b6000807fae36923e02a3e3934bc8e16cc335029655eed5d5801b3db8294179c633d8af4c90508091505090565b60008383834630604051602001611e5a959493929190614299565b6040516020818303038152906040528051906020012090509392505050565b600080611e89898989898961247a565b90508273ffffffffffffffffffffffffffffffffffffffff16611eac82866124e0565b73ffffffffffffffffffffffffffffffffffffffff1614915050979650505050505050565b600080611ee1898989898961247a565b90508273ffffffffffffffffffffffffffffffffffffffff16611f0482866124e0565b73ffffffffffffffffffffffffffffffffffffffff1614915050979650505050505050565b6000808490506000611f39611de5565b905060006127108260010160009054906101000a90046bffffffffffffffffffffffff166bffffffffffffffffffffffff1686611f7691906142ec565b611f809190614375565b90508273ffffffffffffffffffffffffffffffffffffffff166323b872dd878460030160009054906101000a900473ffffffffffffffffffffffffffffffffffffffff16846040518463ffffffff1660e01b8152600401611fe393929190613dc6565b602060405180830381600087803b158015611ffd57600080fd5b505af1158015612011573d6000803e3d6000fd5b505050506040513d601f19601f8201168201806040525081019061203591906141a4565b508093505050509392505050565b600080879050838173ffffffffffffffffffffffffffffffffffffffff166370a08231886040518263ffffffff1660e01b81526004016120839190612fc0565b60206040518083038186803b15801561209b57600080fd5b505afa1580156120af573d6000803e3d6000fd5b505050506040513d601f19601f820116820180604052508101906120d39190613ad1565b1015612114576040517f08c379a000000000000000000000000000000000000000000000000000000000815260040161210b90613b70565b60405180910390fd5b600061211e611de5565b9050612128612927565b60008690508260020160008b73ffffffffffffffffffffffffffffffffffffffff1673ffffffffffffffffffffffffffffffffffffffff16815260200190815260200160002060008781526020019081526020016000206040518060400160405290816000820180548060200260200160405190810160405280929190818152602001828054801561220f57602002820191906000526020600020905b8160009054906101000a900473ffffffffffffffffffffffffffffffffffffffff1673ffffffffffffffffffffffffffffffffffffffff16815260200190600101908083116121c5575b50505050508152602001600182018054806020026020016040519081016040528092919081815260200182805480156122a357602002820191906000526020600020906000905b82829054906101000a90046bffffffffffffffffffffffff166bffffffffffffffffffffffff16815260200190600c0190602082600b010492830192600103820291508084116122565790505b505050505081525050915060005b8260000151518110156123d7576000612710846020015183815181106122da576122d9614160565b5b60200260200101516bffffffffffffffffffffffff168a6122fb91906142ec565b6123059190614375565b905080896123139190613ca0565b92508573ffffffffffffffffffffffffffffffffffffffff166323b872dd8c8660000151858151811061234957612348614160565b5b6020026020010151846040518463ffffffff1660e01b815260040161237093929190613dc6565b602060405180830381600087803b15801561238a57600080fd5b505af115801561239e573d6000803e3d6000fd5b505050506040513d601f19601f820116820180604052508101906123c291906141a4565b505080806123cf90614227565b9150506122b1565b508373ffffffffffffffffffffffffffffffffffffffff166323b872dd8a8a846040518463ffffffff1660e01b815260040161241593929190613dc6565b602060405180830381600087803b15801561242f57600080fd5b505af1158015612443573d6000803e3d6000fd5b505050506040513d601f19601f8201168201806040525081019061246791906141a4565b5060019450505050509695505050505050565b60006124d57f73a68255bef9b2d8772a65da56b8c433fcf3e468b3ec1670e127d24c73a90fc787878787876040516020016124ba969594939291906143a6565b60405160208183030381529060405280519060200120612507565b905095945050505050565b60008060006124ef8585612521565b915091506124fc81612573565b819250505092915050565b600061251a612514612748565b836127e7565b9050919050565b6000806041835114156125635760008060006020860151925060408601519150606086015160001a90506125578782858561281a565b9450945050505061256c565b60006002915091505b9250929050565b6000600481111561258757612586614407565b5b81600481111561259a57612599614407565b5b14156125a557612745565b600160048111156125b9576125b8614407565b5b8160048111156125cc576125cb614407565b5b141561260d576040517f08c379a000000000000000000000000000000000000000000000000000000000815260040161260490614482565b60405180910390fd5b6002600481111561262157612620614407565b5b81600481111561263457612633614407565b5b1415612675576040517f08c379a000000000000000000000000000000000000000000000000000000000815260040161266c906144ee565b60405180910390fd5b6003600481111561268957612688614407565b5b81600481111561269c5761269b614407565b5b14156126dd576040517f08c379a00000000000000000000000000000000000000000000000000000000081526004016126d490614580565b60405180910390fd5b6004808111156126f0576126ef614407565b5b81600481111561270357612702614407565b5b1415612744576040517f08c379a000000000000000000000000000000000000000000000000000000000815260040161273b90614612565b60405180910390fd5b5b50565b600080612753611e12565b90508060020160009054906101000a900473ffffffffffffffffffffffffffffffffffffffff1673ffffffffffffffffffffffffffffffffffffffff163073ffffffffffffffffffffffffffffffffffffffff161480156127b75750806001015446145b156127c95780600001549150506127e4565b6127e0816005015482600301548360040154611e3f565b9150505b90565b600082826040516020016127fc92919061469f565b60405160208183030381529060405280519060200120905092915050565b6000807f7fffffffffffffffffffffffffffffff5d576e7357a4501ddfe92f46681b20a08360001c111561285557600060039150915061291e565b601b8560ff161415801561286d5750601c8560ff1614155b1561287f57600060049150915061291e565b6000600187878787604051600081526020016040526040516128a494939291906146f2565b6020604051602081039080840390855afa1580156128c6573d6000803e3d6000fd5b505050602060405103519050600073ffffffffffffffffffffffffffffffffffffffff168173ffffffffffffffffffffffffffffffffffffffff1614156129155760006001925092505061291e565b80600092509250505b94509492505050565b604051806040016040528060608152602001606081525090565b8280548282559060005260206000209081019282156129ba579160200282015b828111156129b95782518260006101000a81548173ffffffffffffffffffffffffffffffffffffffff021916908373ffffffffffffffffffffffffffffffffffffffff16021790555091602001919060010190612961565b5b5090506129c79190612a93565b5090565b82805482825590600052602060002090600101600290048101928215612a825791602002820160005b83821115612a4857835183826101000a8154816bffffffffffffffffffffffff02191690836bffffffffffffffffffffffff1602179055509260200192600c01602081600b010492830192600103026129f4565b8015612a805782816101000a8154906bffffffffffffffffffffffff0219169055600c01602081600b01049283019260010302612a48565b505b509050612a8f9190612a93565b5090565b5b80821115612aac576000816000905550600101612a94565b5090565b6000604051905090565b600080fd5b600080fd5b600073ffffffffffffffffffffffffffffffffffffffff82169050919050565b6000612aef82612ac4565b9050919050565b612aff81612ae4565b8114612b0a57600080fd5b50565b600081359050612b1c81612af6565b92915050565b6000819050919050565b612b3581612b22565b8114612b4057600080fd5b50565b600081359050612b5281612b2c565b92915050565b60008060408385031215612b6f57612b6e612aba565b5b6000612b7d85828601612b0d565b9250506020612b8e85828601612b43565b9150509250929050565b600081519050919050565b600082825260208201905092915050565b6000819050602082019050919050565b612bcd81612ae4565b82525050565b6000612bdf8383612bc4565b60208301905092915050565b6000602082019050919050565b6000612c0382612b98565b612c0d8185612ba3565b9350612c1883612bb4565b8060005b83811015612c49578151612c308882612bd3565b9750612c3b83612beb565b925050600181019050612c1c565b5085935050505092915050565b600081519050919050565b600082825260208201905092915050565b6000819050602082019050919050565b60006bffffffffffffffffffffffff82169050919050565b612ca381612c82565b82525050565b6000612cb58383612c9a565b60208301905092915050565b6000602082019050919050565b6000612cd982612c56565b612ce38185612c61565b9350612cee83612c72565b8060005b83811015612d1f578151612d068882612ca9565b9750612d1183612cc1565b925050600181019050612cf2565b5085935050505092915050565b60006040830160008301518482036000860152612d498282612bf8565b91505060208301518482036020860152612d638282612cce565b9150508091505092915050565b60006020820190508181036000830152612d8a8184612d2c565b905092915050565b6000819050919050565b612da581612d92565b82525050565b6000602082019050612dc06000830184612d9c565b92915050565b600080fd5b600080fd5b6000601f19601f8301169050919050565b7f4e487b7100000000000000000000000000000000000000000000000000000000600052604160045260246000fd5b612e1982612dd0565b810181811067ffffffffffffffff82111715612e3857612e37612de1565b5b80604052505050565b6000612e4b612ab0565b9050612e578282612e10565b919050565b600067ffffffffffffffff821115612e7757612e76612de1565b5b612e8082612dd0565b9050602081019050919050565b82818337600083830152505050565b6000612eaf612eaa84612e5c565b612e41565b905082815260208101848484011115612ecb57612eca612dcb565b5b612ed6848285612e8d565b509392505050565b600082601f830112612ef357612ef2612dc6565b5b8135612f03848260208601612e9c565b91505092915050565b60008060408385031215612f2357612f22612aba565b5b600083013567ffffffffffffffff811115612f4157612f40612abf565b5b612f4d85828601612ede565b925050602083013567ffffffffffffffff811115612f6e57612f6d612abf565b5b612f7a85828601612ede565b9150509250929050565b600060208284031215612f9a57612f99612aba565b5b6000612fa884828501612b0d565b91505092915050565b612fba81612ae4565b82525050565b6000602082019050612fd56000830184612fb1565b92915050565b612fe481612c82565b8114612fef57600080fd5b50565b60008135905061300181612fdb565b92915050565b60006020828403121561301d5761301c612aba565b5b600061302b84828501612ff2565b91505092915050565b60008115159050919050565b61304981613034565b82525050565b60006020820190506130646000830184613040565b92915050565b600080fd5b600080fd5b60008083601f84011261308a57613089612dc6565b5b8235905067ffffffffffffffff8111156130a7576130a661306a565b5b6020830191508360208202830111156130c3576130c261306f565b5b9250929050565b60008083601f8401126130e0576130df612dc6565b5b8235905067ffffffffffffffff8111156130fd576130fc61306a565b5b6020830191508360208202830111156131195761311861306f565b5b9250929050565b6000806000806000806080878903121561313d5761313c612aba565b5b600061314b89828a01612b0d565b965050602061315c89828a01612b43565b955050604087013567ffffffffffffffff81111561317d5761317c612abf565b5b61318989828a01613074565b9450945050606087013567ffffffffffffffff8111156131ac576131ab612abf565b5b6131b889828a016130ca565b92509250509295509295509295565b600067ffffffffffffffff8211156131e2576131e1612de1565b5b6131eb82612dd0565b9050602081019050919050565b600061320b613206846131c7565b612e41565b90508281526020810184848401111561322757613226612dcb565b5b613232848285612e8d565b509392505050565b600082601f83011261324f5761324e612dc6565b5b813561325f8482602086016131f8565b91505092915050565b6000806000806000806000806000806101408b8d03121561328c5761328b612aba565b5b60008b013567ffffffffffffffff8111156132aa576132a9612abf565b5b6132b68d828e01612ede565b9a505060206132c78d828e01612b0d565b99505060406132d88d828e01612b0d565b98505060606132e98d828e01612b0d565b97505060806132fa8d828e01612b0d565b96505060a061330b8d828e01612b43565b95505060c061331c8d828e01612b43565b94505060e061332d8d828e01612b43565b9350506101008b013567ffffffffffffffff81111561334f5761334e612abf565b5b61335b8d828e0161323a565b9250506101208b013567ffffffffffffffff81111561337d5761337c612abf565b5b6133898d828e0161323a565b9150509295989b9194979a5092959850565b6133a481612c82565b82525050565b60006020820190506133bf600083018461339b565b92915050565b60008060008060008060c087890312156133e2576133e1612aba565b5b600087013567ffffffffffffffff811115613400576133ff612abf565b5b61340c89828a01612ede565b965050602061341d89828a01612b0d565b955050604061342e89828a01612b0d565b945050606061343f89828a01612b0d565b935050608061345089828a01612b43565b92505060a061346189828a01612b43565b9150509295509295509295565b61347781612b22565b82525050565b6000602082019050613492600083018461346e565b92915050565b6134a181613034565b81146134ac57600080fd5b50565b6000813590506134be81613498565b92915050565b600080604083850312156134db576134da612aba565b5b60006134e985828601612b0d565b92505060206134fa858286016134af565b9150509250929050565b600082825260208201905092915050565b7f4e6f74206d65646961206e6f72206f776e657200000000000000000000000000600082015250565b600061354b601383613504565b915061355682613515565b602082019050919050565b6000602082019050818103600083015261357a8161353e565b9050919050565b7f414c52454144595f494e495449414c495a454400000000000000000000000000600082015250565b60006135b7601383613504565b91506135c282613581565b602082019050919050565b600060208201905081810360008301526135e6816135aa565b9050919050565b7f494e56414c49445f504152414d53000000000000000000000000000000000000600082015250565b6000613623600e83613504565b915061362e826135ed565b602082019050919050565b6000602082019050818103600083015261365281613616565b9050919050565b7f546f6f206d616e7920436f6c6c61626f7261746f727300000000000000000000600082015250565b600061368f601683613504565b915061369a82613659565b602082019050919050565b600060208201905081810360008301526136be81613682565b9050919050565b7f436f6c6c61626f7261746f7273206e6f74207365740000000000000000000000600082015250565b60006136fb601583613504565b9150613706826136c5565b602082019050919050565b6000602082019050818103600083015261372a816136ee565b9050919050565b7f4d69736d61746368206f6620436f6c6c61626f7261746f727320616e6420746860008201527f6569722073686172650000000000000000000000000000000000000000000000602082015250565b600061378d602983613504565b915061379882613731565b604082019050919050565b600060208201905081810360008301526137bc81613780565b9050919050565b600082825260208201905092915050565b6000819050919050565b60006137ed6020840184612b0d565b905092915050565b6000602082019050919050565b600061380e83856137c3565b9350613819826137d4565b8060005b858110156138525761382f82846137de565b6138398882612bd3565b9750613844836137f5565b92505060018101905061381d565b5085925050509392505050565b600082825260208201905092915050565b6000819050919050565b60006138896020840184612ff2565b905092915050565b6000602082019050919050565b60006138aa838561385f565b93506138b582613870565b8060005b858110156138ee576138cb828461387a565b6138d58882612ca9565b97506138e083613891565b9250506001810190506138b9565b5085925050509392505050565b60006080820190506139106000830189612fb1565b61391d602083018861346e565b8181036040830152613930818688613802565b9050818103606083015261394581848661389e565b9050979650505050505050565b7f4e6f7420616e20617070726f7665642063727970746f63757272656e6379206660008201527f6f722062696464696e6700000000000000000000000000000000000000000000602082015250565b60006139ae602a83613504565b91506139b982613952565b604082019050919050565b600060208201905081810360008301526139dd816139a1565b9050919050565b7f42696464657273206f66666572206e6f74207665726966696564000000000000600082015250565b6000613a1a601a83613504565b9150613a25826139e4565b602082019050919050565b60006020820190508181036000830152613a4981613a0d565b9050919050565b7f53656c6c657273206f66666572206e6f74207665726966696564000000000000600082015250565b6000613a86601a83613504565b9150613a9182613a50565b602082019050919050565b60006020820190508181036000830152613ab581613a79565b9050919050565b600081519050613acb81612b2c565b92915050565b600060208284031215613ae757613ae6612aba565b5b6000613af584828501613abc565b91505092915050565b7f455243323020696e207468652070617965722061646472657373206973206e6f60008201527f7420656e6f756768000000000000000000000000000000000000000000000000602082015250565b6000613b5a602883613504565b9150613b6582613afe565b604082019050919050565b60006020820190508181036000830152613b8981613b4d565b9050919050565b6000604082019050613ba56000830185612fb1565b613bb26020830184612fb1565b9392505050565b7f45524332303a204469616d6f6e64206973206e6f7420617070726f766564206260008201527f79207468652062696464657220666f72207370656e64696e672045524332302060208201527f746f6b656e730000000000000000000000000000000000000000000000000000604082015250565b6000613c3b604683613504565b9150613c4682613bb9565b606082019050919050565b60006020820190508181036000830152613c6a81613c2e565b9050919050565b7f4e487b7100000000000000000000000000000000000000000000000000000000600052601160045260246000fd5b6000613cab82612b22565b9150613cb683612b22565b925082821015613cc957613cc8613c71565b5b828203905092915050565b600081905092915050565b7f4552433732310000000000000000000000000000000000000000000000000000600082015250565b6000613d15600683613cd4565b9150613d2082613cdf565b600682019050919050565b6000613d3682613d08565b9150819050919050565b600081519050919050565b60005b83811015613d69578082015181840152602081019050613d4e565b83811115613d78576000848401525b50505050565b6000613d8982613d40565b613d938185613cd4565b9350613da3818560208601613d4b565b80840191505092915050565b6000613dbb8284613d7e565b915081905092915050565b6000606082019050613ddb6000830186612fb1565b613de86020830185612fb1565b613df5604083018461346e565b949350505050565b7f4552433131353500000000000000000000000000000000000000000000000000600082015250565b6000613e33600783613cd4565b9150613e3e82613dfd565b600782019050919050565b6000613e5482613e26565b9150819050919050565b600082825260208201905092915050565b50565b6000613e7f600083613e5e565b9150613e8a82613e6f565b600082019050919050565b600060a082019050613eaa6000830187612fb1565b613eb76020830186612fb1565b613ec4604083018561346e565b613ed1606083018461346e565b8181036080830152613ee281613e72565b905095945050505050565b6000606082019050613f026000830186612fb1565b613f0f6020830185612fb1565b613f1c6040830184613040565b949350505050565b6000604082019050613f39600083018561346e565b613f46602083018461346e565b9392505050565b600067ffffffffffffffff821115613f6857613f67612de1565b5b602082029050602081019050919050565b600081519050613f8881612af6565b92915050565b6000613fa1613f9c84613f4d565b612e41565b90508083825260208201905060208402830185811115613fc457613fc361306f565b5b835b81811015613fed5780613fd98882613f79565b845260208401935050602081019050613fc6565b5050509392505050565b600082601f83011261400c5761400b612dc6565b5b815161401c848260208601613f8e565b91505092915050565b600067ffffffffffffffff8211156140405761403f612de1565b5b602082029050602081019050919050565b600061406461405f84614025565b612e41565b905080838252602082019050602084028301858111156140875761408661306f565b5b835b818110156140b0578061409c8882613abc565b845260208401935050602081019050614089565b5050509392505050565b600082601f8301126140cf576140ce612dc6565b5b81516140df848260208601614051565b91505092915050565b600080604083850312156140ff576140fe612aba565b5b600083015167ffffffffffffffff81111561411d5761411c612abf565b5b61412985828601613ff7565b925050602083015167ffffffffffffffff81111561414a57614149612abf565b5b614156858286016140ba565b9150509250929050565b7f4e487b7100000000000000000000000000000000000000000000000000000000600052603260045260246000fd5b60008151905061419e81613498565b92915050565b6000602082840312156141ba576141b9612aba565b5b60006141c88482850161418f565b91505092915050565b60006141dc82612b22565b91506141e783612b22565b9250827fffffffffffffffffffffffffffffffffffffffffffffffffffffffffffffffff0382111561421c5761421b613c71565b5b828201905092915050565b600061423282612b22565b91507fffffffffffffffffffffffffffffffffffffffffffffffffffffffffffffffff82141561426557614264613c71565b5b600182019050919050565b60006040820190506142856000830185612fb1565b6142926020830184613040565b9392505050565b600060a0820190506142ae6000830188612d9c565b6142bb6020830187612d9c565b6142c86040830186612d9c565b6142d5606083018561346e565b6142e26080830184612fb1565b9695505050505050565b60006142f782612b22565b915061430283612b22565b9250817fffffffffffffffffffffffffffffffffffffffffffffffffffffffffffffffff048311821515161561433b5761433a613c71565b5b828202905092915050565b7f4e487b7100000000000000000000000000000000000000000000000000000000600052601260045260246000fd5b600061438082612b22565b915061438b83612b22565b92508261439b5761439a614346565b5b828204905092915050565b600060c0820190506143bb6000830189612d9c565b6143c86020830188612fb1565b6143d5604083018761346e565b6143e2606083018661346e565b6143ef6080830185612fb1565b6143fc60a083018461346e565b979650505050505050565b7f4e487b7100000000000000000000000000000000000000000000000000000000600052602160045260246000fd5b7f45434453413a20696e76616c6964207369676e61747572650000000000000000600082015250565b600061446c601883613504565b915061447782614436565b602082019050919050565b6000602082019050818103600083015261449b8161445f565b9050919050565b7f45434453413a20696e76616c6964207369676e6174757265206c656e67746800600082015250565b60006144d8601f83613504565b91506144e3826144a2565b602082019050919050565b60006020820190508181036000830152614507816144cb565b9050919050565b7f45434453413a20696e76616c6964207369676e6174757265202773272076616c60008201527f7565000000000000000000000000000000000000000000000000000000000000602082015250565b600061456a602283613504565b91506145758261450e565b604082019050919050565b600060208201905081810360008301526145998161455d565b9050919050565b7f45434453413a20696e76616c6964207369676e6174757265202776272076616c60008201527f7565000000000000000000000000000000000000000000000000000000000000602082015250565b60006145fc602283613504565b9150614607826145a0565b604082019050919050565b6000602082019050818103600083015261462b816145ef565b9050919050565b7f1901000000000000000000000000000000000000000000000000000000000000600082015250565b6000614668600283613cd4565b915061467382614632565b600282019050919050565b6000819050919050565b61469961469482612d92565b61467e565b82525050565b60006146aa8261465b565b91506146b68285614688565b6020820191506146c68284614688565b6020820191508190509392505050565b600060ff82169050919050565b6146ec816146d6565b82525050565b60006080820190506147076000830187612d9c565b61471460208301866146e3565b6147216040830185612d9c565b61472e6060830184612d9c565b9594505050505056fea2646970667358221220ec2ed94f0e8f772dd3f0c42a760b2f56b97d0eb794a4d9ba1794988d930dd16f64736f6c63430008090033",
  "linkReferences": {},
  "deployedLinkReferences": {}
}