{
  "_format": "hh-sol-artifact-1",
  "contractName": "MarketFacet",
  "sourceName": "contracts/facets/Market/MarketFacet.sol",
  "abi": [
    {
      "inputs": [
        {
          "internalType": "string",
          "name": "_contractType",
          "type": "string"
        },
        {
          "internalType": "address",
          "name": "_nftContAddress",
          "type": "address"
        },
        {
          "internalType": "address",
          "name": "_currencyAddress",
          "type": "address"
        },
        {
          "internalType": "address",
          "name": "_seller",
          "type": "address"
        },
        {
          "internalType": "address",
          "name": "_bidder",
          "type": "address"
        },
        {
          "internalType": "uint256",
          "name": "_tokenID",
          "type": "uint256"
        },
        {
          "internalType": "uint256",
          "name": "_bid",
          "type": "uint256"
        },
        {
          "internalType": "uint256",
          "name": "_copies",
          "type": "uint256"
        },
        {
          "internalType": "bytes",
          "name": "_bidderSig",
          "type": "bytes"
        },
        {
          "internalType": "bytes",
          "name": "_sellerSig",
          "type": "bytes"
        }
      ],
      "name": "acceptBid",
      "outputs": [],
      "stateMutability": "nonpayable",
      "type": "function"
    },
    {
      "inputs": [
        {
          "internalType": "string",
          "name": "name_",
          "type": "string"
        },
        {
          "internalType": "string",
          "name": "version_",
          "type": "string"
        }
      ],
      "name": "eip712FacetInit",
      "outputs": [],
      "stateMutability": "nonpayable",
      "type": "function"
    },
    {
      "inputs": [],
      "name": "getAddress",
      "outputs": [
        {
          "internalType": "address",
          "name": "",
          "type": "address"
        }
      ],
      "stateMutability": "view",
      "type": "function"
    },
    {
      "inputs": [],
      "name": "getAdminAddress",
      "outputs": [
        {
          "internalType": "address",
          "name": "",
          "type": "address"
        }
      ],
      "stateMutability": "view",
      "type": "function"
    },
    {
      "inputs": [
        {
          "internalType": "address",
          "name": "_currencyAddress",
          "type": "address"
        }
      ],
      "name": "getApprovedCrypto",
      "outputs": [
        {
          "internalType": "bool",
          "name": "",
          "type": "bool"
        }
      ],
      "stateMutability": "view",
      "type": "function"
    },
    {
      "inputs": [],
      "name": "getCommissionPercentage",
      "outputs": [
        {
          "internalType": "uint96",
          "name": "",
          "type": "uint96"
        }
      ],
      "stateMutability": "view",
      "type": "function"
    },
    {
      "inputs": [],
      "name": "getName",
      "outputs": [
        {
          "internalType": "bytes32",
          "name": "",
          "type": "bytes32"
        }
      ],
      "stateMutability": "view",
      "type": "function"
    },
    {
      "inputs": [
        {
          "internalType": "string",
          "name": "name_",
          "type": "string"
        },
        {
          "internalType": "string",
          "name": "version_",
          "type": "string"
        }
      ],
      "name": "marketFacetInit",
      "outputs": [],
      "stateMutability": "nonpayable",
      "type": "function"
    },
    {
      "inputs": [
        {
          "internalType": "address",
          "name": "adminAddress_",
          "type": "address"
        }
      ],
      "name": "setAdminAddress",
      "outputs": [],
      "stateMutability": "nonpayable",
      "type": "function"
    },
    {
      "inputs": [
        {
          "internalType": "address",
          "name": "_currencyAddress",
          "type": "address"
        },
        {
          "internalType": "bool",
          "name": "approving",
          "type": "bool"
        }
      ],
      "name": "setApprovedCrypto",
      "outputs": [],
      "stateMutability": "nonpayable",
      "type": "function"
    },
    {
      "inputs": [
        {
          "internalType": "address",
          "name": "_nftAddress",
          "type": "address"
        },
        {
          "internalType": "uint256",
          "name": "_tokenID",
          "type": "uint256"
        },
        {
          "internalType": "address[]",
          "name": "_collaborators",
          "type": "address[]"
        },
        {
          "internalType": "uint96[]",
          "name": "_collabFraction",
          "type": "uint96[]"
        }
      ],
      "name": "setCollaborators",
      "outputs": [],
      "stateMutability": "nonpayable",
      "type": "function"
    },
    {
      "inputs": [
        {
          "internalType": "uint96",
          "name": "_commissionPercentage",
          "type": "uint96"
        }
      ],
      "name": "setCommissionPercentage",
      "outputs": [
        {
          "internalType": "bool",
          "name": "",
          "type": "bool"
        }
      ],
      "stateMutability": "nonpayable",
      "type": "function"
    }
  ],
  "bytecode": "0x608060405234801561001057600080fd5b50613337806100206000396000f3fe608060405234801561001057600080fd5b50600436106100b45760003560e01c806384c6ba571161007157806384c6ba57146101795780638f9d5a2b146101a95780639e9666d9146101c5578063a5dbd814146101e1578063b2e6b912146101ff578063dccf62531461021d576100b4565b806317d7de7c146100b95780631c5c32d5146100d75780632c1e816d146100f357806338cc48311461010f5780634a5ececd1461012d57806372b360a61461015d575b600080fd5b6100c1610239565b6040516100ce9190611fac565b60405180910390f35b6100f160048036038101906100ec9190612121565b610251565b005b61010d600480360381019061010891906121f7565b6103ca565b005b610117610516565b6040516101249190612233565b60405180910390f35b61014760048036038101906101429190612292565b61054e565b60405161015491906122da565b60405180910390f35b610177600480360381019061017291906123e1565b610691565b005b610193600480360381019061018e91906121f7565b6108cc565b6040516101a091906122da565b60405180910390f35b6101c360048036038101906101be9190612121565b610930565b005b6101df60048036038101906101da9190612529565b610978565b005b6101e9610e65565b6040516101f6919061266b565b60405180910390f35b610207610f8e565b6040516102149190612233565b60405180910390f35b610237600480360381019061023291906126b2565b610fc6565b005b600080610244611129565b9050806003015491505090565b600061025b611129565b90506000801b816003015414801561027957506000801b8160040154145b6102b8576040517f08c379a00000000000000000000000000000000000000000000000000000000081526004016102af9061274f565b60405180910390fd5b60008351141580156102cc57506000825114155b61030b576040517f08c379a0000000000000000000000000000000000000000000000000000000008152600401610302906127bb565b60405180910390fd5b60008380519060200120905060008380519060200120905060007f8b73c3c69bb8fe3d512ecc4cf759cc79239f7b179b0ffacaa9a75d522b39400f905082846003018190555081846004018190555046846001018190555061036e818484611156565b8460000181905550308460020160006101000a81548173ffffffffffffffffffffffffffffffffffffffff021916908373ffffffffffffffffffffffffffffffffffffffff160217905550808460050181905550505050505050565b60006103d4611190565b90508060040160009054906101000a900473ffffffffffffffffffffffffffffffffffffffff1673ffffffffffffffffffffffffffffffffffffffff163373ffffffffffffffffffffffffffffffffffffffff16148061048357506000800160009054906101000a900473ffffffffffffffffffffffffffffffffffffffff1673ffffffffffffffffffffffffffffffffffffffff163373ffffffffffffffffffffffffffffffffffffffff16145b6104c2576040517f08c379a00000000000000000000000000000000000000000000000000000000081526004016104b990612827565b60405180910390fd5b60006104cc6111bd565b9050828160030160006101000a81548173ffffffffffffffffffffffffffffffffffffffff021916908373ffffffffffffffffffffffffffffffffffffffff160217905550505050565b600080610521611129565b90508060020160009054906101000a900473ffffffffffffffffffffffffffffffffffffffff1691505090565b600080610559611190565b90508060040160009054906101000a900473ffffffffffffffffffffffffffffffffffffffff1673ffffffffffffffffffffffffffffffffffffffff163373ffffffffffffffffffffffffffffffffffffffff16148061060857506000800160009054906101000a900473ffffffffffffffffffffffffffffffffffffffff1673ffffffffffffffffffffffffffffffffffffffff163373ffffffffffffffffffffffffffffffffffffffff16145b610647576040517f08c379a000000000000000000000000000000000000000000000000000000000815260040161063e90612827565b60405180910390fd5b60006106516111bd565b9050838160010160006101000a8154816bffffffffffffffffffffffff02191690836bffffffffffffffffffffffff160217905550600192505050919050565b600061069b611190565b90508060040160009054906101000a900473ffffffffffffffffffffffffffffffffffffffff1673ffffffffffffffffffffffffffffffffffffffff163373ffffffffffffffffffffffffffffffffffffffff16148061074a57506000800160009054906101000a900473ffffffffffffffffffffffffffffffffffffffff1673ffffffffffffffffffffffffffffffffffffffff163373ffffffffffffffffffffffffffffffffffffffff16145b610789576040517f08c379a000000000000000000000000000000000000000000000000000000000815260040161078090612827565b60405180910390fd5b60006107936111bd565b905061079d611e0a565b868680806020026020016040519081016040528093929190818152602001838360200280828437600081840152601f19601f820116905080830192505050505050508160000181905250848480806020026020016040519081016040528093929190818152602001838360200280828437600081840152601f19601f820116905080830192505050505050508160200181905250808260020160008b73ffffffffffffffffffffffffffffffffffffffff1673ffffffffffffffffffffffffffffffffffffffff16815260200190815260200160002060008a815260200190815260200160002060008201518160000190805190602001906108a0929190611e24565b5060208201518160010190805190602001906108bd929190611eae565b50905050505050505050505050565b6000806108d76111bd565b90508060000160008473ffffffffffffffffffffffffffffffffffffffff1673ffffffffffffffffffffffffffffffffffffffff16815260200190815260200160002060009054906101000a900460ff16915050919050565b600061093a611190565b90506109468383610251565b6109738160040160009054906101000a900473ffffffffffffffffffffffffffffffffffffffff166103ca565b505050565b6000610982611190565b90508060040160009054906101000a900473ffffffffffffffffffffffffffffffffffffffff1673ffffffffffffffffffffffffffffffffffffffff163373ffffffffffffffffffffffffffffffffffffffff161480610a3157506000800160009054906101000a900473ffffffffffffffffffffffffffffffffffffffff1673ffffffffffffffffffffffffffffffffffffffff163373ffffffffffffffffffffffffffffffffffffffff16145b610a70576040517f08c379a0000000000000000000000000000000000000000000000000000000008152600401610a6790612827565b60405180910390fd5b6000610a7a6111bd565b9050600115158160000160008c73ffffffffffffffffffffffffffffffffffffffff1673ffffffffffffffffffffffffffffffffffffffff16815260200190815260200160002060009054906101000a900460ff16151514610b11576040517f08c379a0000000000000000000000000000000000000000000000000000000008152600401610b08906128b9565b60405180910390fd5b610b208b88878d8a898e6111ea565b610b5f576040517f08c379a0000000000000000000000000000000000000000000000000000000008152600401610b5690612925565b60405180910390fd5b610b6e8b88878d8a888f611242565b610bad576040517f08c379a0000000000000000000000000000000000000000000000000000000008152600401610ba490612925565b60405180910390fd5b60008a9050868173ffffffffffffffffffffffffffffffffffffffff166370a082318b6040518263ffffffff1660e01b8152600401610bec9190612233565b602060405180830381865afa158015610c09573d6000803e3d6000fd5b505050506040513d601f19601f82011682018060405250810190610c2d919061295a565b1015610c6e576040517f08c379a0000000000000000000000000000000000000000000000000000000008152600401610c65906129f9565b60405180910390fd5b6000879050610c7e8c8b8a61129a565b81610c899190612a48565b9050610c988c8e8c848d6113a5565b81610ca39190612a48565b9050604051602001610cb490612ad3565b604051602081830303815290604052805190602001208e604051602001610cdb9190612b57565b604051602081830303815290604052805190602001201415610d7c57610d058c8e8c8e858e6114c3565b5060008d90508073ffffffffffffffffffffffffffffffffffffffff166323b872dd8d8d8d6040518463ffffffff1660e01b8152600401610d4893929190612b7d565b600060405180830381600087803b158015610d6257600080fd5b505af1158015610d76573d6000803e3d6000fd5b50505050505b604051602001610d8b90612c00565b604051602081830303815290604052805190602001208e604051602001610db29190612b57565b604051602081830303815290604052805190602001201415610e5557610ddc8c8e8c8e858e6114c3565b5060008d90508073ffffffffffffffffffffffffffffffffffffffff1663f242432a8d8d8d8c6040518563ffffffff1660e01b8152600401610e219493929190612c4c565b600060405180830381600087803b158015610e3b57600080fd5b505af1158015610e4f573d6000803e3d6000fd5b50505050505b5050505050505050505050505050565b600080610e70611190565b90508060040160009054906101000a900473ffffffffffffffffffffffffffffffffffffffff1673ffffffffffffffffffffffffffffffffffffffff163373ffffffffffffffffffffffffffffffffffffffff161480610f1f57506000800160009054906101000a900473ffffffffffffffffffffffffffffffffffffffff1673ffffffffffffffffffffffffffffffffffffffff163373ffffffffffffffffffffffffffffffffffffffff16145b610f5e576040517f08c379a0000000000000000000000000000000000000000000000000000000008152600401610f5590612827565b60405180910390fd5b6000610f686111bd565b90508060010160009054906101000a90046bffffffffffffffffffffffff169250505090565b600080610f996111bd565b90508060030160009054906101000a900473ffffffffffffffffffffffffffffffffffffffff1691505090565b6000610fd0611190565b90508060040160009054906101000a900473ffffffffffffffffffffffffffffffffffffffff1673ffffffffffffffffffffffffffffffffffffffff163373ffffffffffffffffffffffffffffffffffffffff16148061107f57506000800160009054906101000a900473ffffffffffffffffffffffffffffffffffffffff1673ffffffffffffffffffffffffffffffffffffffff163373ffffffffffffffffffffffffffffffffffffffff16145b6110be576040517f08c379a00000000000000000000000000000000000000000000000000000000081526004016110b590612827565b60405180910390fd5b60006110c86111bd565b9050828160000160008673ffffffffffffffffffffffffffffffffffffffff1673ffffffffffffffffffffffffffffffffffffffff16815260200190815260200160002060006101000a81548160ff02191690831515021790555050505050565b6000807fae36923e02a3e3934bc8e16cc335029655eed5d5801b3db8294179c633d8af4c90508091505090565b60008383834630604051602001611171959493929190612ca4565b6040516020818303038152906040528051906020012090509392505050565b6000807fc8fcad8db84d3cc18b4c41d551ea0ee66dd599cde068d998e57d5e09332c131c90508091505090565b6000807f23a8b080129d29a012fab4572a713d8fd62f42f971351afe31751b09c12186aa90508091505090565b6000806111fa89898989896118cd565b90508273ffffffffffffffffffffffffffffffffffffffff1661121d8286611933565b73ffffffffffffffffffffffffffffffffffffffff1614915050979650505050505050565b60008061125289898989896118cd565b90508273ffffffffffffffffffffffffffffffffffffffff166112758286611933565b73ffffffffffffffffffffffffffffffffffffffff1614915050979650505050505050565b60008084905060006112aa6111bd565b905060006127108260010160009054906101000a90046bffffffffffffffffffffffff166112d89190612d26565b6bffffffffffffffffffffffff16856112f19190612d57565b90508273ffffffffffffffffffffffffffffffffffffffff166323b872dd878460030160009054906101000a900473ffffffffffffffffffffffffffffffffffffffff16846040518463ffffffff1660e01b815260040161135493929190612b7d565b6020604051808303816000875af1158015611373573d6000803e3d6000fd5b505050506040513d601f19601f820116820180604052508101906113979190612dc6565b508093505050509392505050565b60008085905060008790506000808373ffffffffffffffffffffffffffffffffffffffff16632a55205a87896040518363ffffffff1660e01b81526004016113ee929190612df3565b6040805180830381865afa15801561140a573d6000803e3d6000fd5b505050506040513d601f19601f8201168201806040525081019061142e9190612e31565b915091508273ffffffffffffffffffffffffffffffffffffffff166323b872dd8984846040518463ffffffff1660e01b815260040161146f93929190612b7d565b6020604051808303816000875af115801561148e573d6000803e3d6000fd5b505050506040513d601f19601f820116820180604052508101906114b29190612dc6565b508094505050505095945050505050565b600080879050838173ffffffffffffffffffffffffffffffffffffffff166370a08231886040518263ffffffff1660e01b81526004016115039190612233565b602060405180830381865afa158015611520573d6000803e3d6000fd5b505050506040513d601f19601f82011682018060405250810190611544919061295a565b1015611585576040517f08c379a000000000000000000000000000000000000000000000000000000000815260040161157c906129f9565b60405180910390fd5b600061158f6111bd565b9050611599611e0a565b60008690508260020160008b73ffffffffffffffffffffffffffffffffffffffff1673ffffffffffffffffffffffffffffffffffffffff16815260200190815260200160002060008781526020019081526020016000206040518060400160405290816000820180548060200260200160405190810160405280929190818152602001828054801561168057602002820191906000526020600020905b8160009054906101000a900473ffffffffffffffffffffffffffffffffffffffff1673ffffffffffffffffffffffffffffffffffffffff1681526020019060010190808311611636575b505050505081526020016001820180548060200260200160405190810160405280929190818152602001828054801561171457602002820191906000526020600020906000905b82829054906101000a90046bffffffffffffffffffffffff166bffffffffffffffffffffffff16815260200190600c0190602082600b010492830192600103820291508084116116c75790505b505050505081525050915060005b8260000151518110156118395760006127108460200151838151811061174b5761174a612e71565b5b60200260200101516bffffffffffffffffffffffff168a61176c9190612d57565b6117769190612ea0565b905080896117849190612a48565b92508573ffffffffffffffffffffffffffffffffffffffff166323b872dd8c866000015185815181106117ba576117b9612e71565b5b6020026020010151846040518463ffffffff1660e01b81526004016117e193929190612b7d565b6020604051808303816000875af1158015611800573d6000803e3d6000fd5b505050506040513d601f19601f820116820180604052508101906118249190612dc6565b5050808061183190612ed1565b915050611722565b508373ffffffffffffffffffffffffffffffffffffffff166323b872dd8a8a846040518463ffffffff1660e01b815260040161187793929190612b7d565b6020604051808303816000875af1158015611896573d6000803e3d6000fd5b505050506040513d601f19601f820116820180604052508101906118ba9190612dc6565b5060019450505050509695505050505050565b60006119287f73a68255bef9b2d8772a65da56b8c433fcf3e468b3ec1670e127d24c73a90fc7878787878760405160200161190d96959493929190612f1a565b6040516020818303038152906040528051906020012061195a565b905095945050505050565b60008060006119428585611974565b9150915061194f816119f7565b819250505092915050565b600061196d611967611bcc565b83611c6b565b9050919050565b6000806041835114156119b65760008060006020860151925060408601519150606086015160001a90506119aa87828585611c9e565b945094505050506119f0565b6040835114156119e75760008060208501519150604085015190506119dc868383611dab565b9350935050506119f0565b60006002915091505b9250929050565b60006004811115611a0b57611a0a612f7b565b5b816004811115611a1e57611a1d612f7b565b5b1415611a2957611bc9565b60016004811115611a3d57611a3c612f7b565b5b816004811115611a5057611a4f612f7b565b5b1415611a91576040517f08c379a0000000000000000000000000000000000000000000000000000000008152600401611a8890612ff6565b60405180910390fd5b60026004811115611aa557611aa4612f7b565b5b816004811115611ab857611ab7612f7b565b5b1415611af9576040517f08c379a0000000000000000000000000000000000000000000000000000000008152600401611af090613062565b60405180910390fd5b60036004811115611b0d57611b0c612f7b565b5b816004811115611b2057611b1f612f7b565b5b1415611b61576040517f08c379a0000000000000000000000000000000000000000000000000000000008152600401611b58906130f4565b60405180910390fd5b600480811115611b7457611b73612f7b565b5b816004811115611b8757611b86612f7b565b5b1415611bc8576040517f08c379a0000000000000000000000000000000000000000000000000000000008152600401611bbf90613186565b60405180910390fd5b5b50565b600080611bd7611129565b90508060020160009054906101000a900473ffffffffffffffffffffffffffffffffffffffff1673ffffffffffffffffffffffffffffffffffffffff163073ffffffffffffffffffffffffffffffffffffffff16148015611c3b5750806001015446145b15611c4d578060000154915050611c68565b611c64816005015482600301548360040154611156565b9150505b90565b60008282604051602001611c80929190613213565b60405160208183030381529060405280519060200120905092915050565b6000807f7fffffffffffffffffffffffffffffff5d576e7357a4501ddfe92f46681b20a08360001c1115611cd9576000600391509150611da2565b601b8560ff1614158015611cf15750601c8560ff1614155b15611d03576000600491509150611da2565b600060018787878760405160008152602001604052604051611d289493929190613266565b6020604051602081039080840390855afa158015611d4a573d6000803e3d6000fd5b505050602060405103519050600073ffffffffffffffffffffffffffffffffffffffff168173ffffffffffffffffffffffffffffffffffffffff161415611d9957600060019250925050611da2565b80600092509250505b94509492505050565b60008060007f7fffffffffffffffffffffffffffffffffffffffffffffffffffffffffffffff60001b841690506000601b60ff8660001c901c611dee91906132ab565b9050611dfc87828885611c9e565b935093505050935093915050565b604051806040016040528060608152602001606081525090565b828054828255906000526020600020908101928215611e9d579160200282015b82811115611e9c5782518260006101000a81548173ffffffffffffffffffffffffffffffffffffffff021916908373ffffffffffffffffffffffffffffffffffffffff16021790555091602001919060010190611e44565b5b509050611eaa9190611f76565b5090565b82805482825590600052602060002090600101600290048101928215611f655791602002820160005b83821115611f2b57835183826101000a8154816bffffffffffffffffffffffff02191690836bffffffffffffffffffffffff1602179055509260200192600c01602081600b01049283019260010302611ed7565b8015611f635782816101000a8154906bffffffffffffffffffffffff0219169055600c01602081600b01049283019260010302611f2b565b505b509050611f729190611f76565b5090565b5b80821115611f8f576000816000905550600101611f77565b5090565b6000819050919050565b611fa681611f93565b82525050565b6000602082019050611fc16000830184611f9d565b92915050565b6000604051905090565b600080fd5b600080fd5b600080fd5b600080fd5b6000601f19601f8301169050919050565b7f4e487b7100000000000000000000000000000000000000000000000000000000600052604160045260246000fd5b61202e82611fe5565b810181811067ffffffffffffffff8211171561204d5761204c611ff6565b5b80604052505050565b6000612060611fc7565b905061206c8282612025565b919050565b600067ffffffffffffffff82111561208c5761208b611ff6565b5b61209582611fe5565b9050602081019050919050565b82818337600083830152505050565b60006120c46120bf84612071565b612056565b9050828152602081018484840111156120e0576120df611fe0565b5b6120eb8482856120a2565b509392505050565b600082601f83011261210857612107611fdb565b5b81356121188482602086016120b1565b91505092915050565b6000806040838503121561213857612137611fd1565b5b600083013567ffffffffffffffff81111561215657612155611fd6565b5b612162858286016120f3565b925050602083013567ffffffffffffffff81111561218357612182611fd6565b5b61218f858286016120f3565b9150509250929050565b600073ffffffffffffffffffffffffffffffffffffffff82169050919050565b60006121c482612199565b9050919050565b6121d4816121b9565b81146121df57600080fd5b50565b6000813590506121f1816121cb565b92915050565b60006020828403121561220d5761220c611fd1565b5b600061221b848285016121e2565b91505092915050565b61222d816121b9565b82525050565b60006020820190506122486000830184612224565b92915050565b60006bffffffffffffffffffffffff82169050919050565b61226f8161224e565b811461227a57600080fd5b50565b60008135905061228c81612266565b92915050565b6000602082840312156122a8576122a7611fd1565b5b60006122b68482850161227d565b91505092915050565b60008115159050919050565b6122d4816122bf565b82525050565b60006020820190506122ef60008301846122cb565b92915050565b6000819050919050565b612308816122f5565b811461231357600080fd5b50565b600081359050612325816122ff565b92915050565b600080fd5b600080fd5b60008083601f84011261234b5761234a611fdb565b5b8235905067ffffffffffffffff8111156123685761236761232b565b5b60208301915083602082028301111561238457612383612330565b5b9250929050565b60008083601f8401126123a1576123a0611fdb565b5b8235905067ffffffffffffffff8111156123be576123bd61232b565b5b6020830191508360208202830111156123da576123d9612330565b5b9250929050565b600080600080600080608087890312156123fe576123fd611fd1565b5b600061240c89828a016121e2565b965050602061241d89828a01612316565b955050604087013567ffffffffffffffff81111561243e5761243d611fd6565b5b61244a89828a01612335565b9450945050606087013567ffffffffffffffff81111561246d5761246c611fd6565b5b61247989828a0161238b565b92509250509295509295509295565b600067ffffffffffffffff8211156124a3576124a2611ff6565b5b6124ac82611fe5565b9050602081019050919050565b60006124cc6124c784612488565b612056565b9050828152602081018484840111156124e8576124e7611fe0565b5b6124f38482856120a2565b509392505050565b600082601f8301126125105761250f611fdb565b5b81356125208482602086016124b9565b91505092915050565b6000806000806000806000806000806101408b8d03121561254d5761254c611fd1565b5b60008b013567ffffffffffffffff81111561256b5761256a611fd6565b5b6125778d828e016120f3565b9a505060206125888d828e016121e2565b99505060406125998d828e016121e2565b98505060606125aa8d828e016121e2565b97505060806125bb8d828e016121e2565b96505060a06125cc8d828e01612316565b95505060c06125dd8d828e01612316565b94505060e06125ee8d828e01612316565b9350506101008b013567ffffffffffffffff8111156126105761260f611fd6565b5b61261c8d828e016124fb565b9250506101208b013567ffffffffffffffff81111561263e5761263d611fd6565b5b61264a8d828e016124fb565b9150509295989b9194979a5092959850565b6126658161224e565b82525050565b6000602082019050612680600083018461265c565b92915050565b61268f816122bf565b811461269a57600080fd5b50565b6000813590506126ac81612686565b92915050565b600080604083850312156126c9576126c8611fd1565b5b60006126d7858286016121e2565b92505060206126e88582860161269d565b9150509250929050565b600082825260208201905092915050565b7f414c52454144595f494e495449414c495a454400000000000000000000000000600082015250565b60006127396013836126f2565b915061274482612703565b602082019050919050565b600060208201905081810360008301526127688161272c565b9050919050565b7f494e56414c49445f504152414d53000000000000000000000000000000000000600082015250565b60006127a5600e836126f2565b91506127b08261276f565b602082019050919050565b600060208201905081810360008301526127d481612798565b9050919050565b7f4e6f74206d65646961206e6f72206f776e657200000000000000000000000000600082015250565b60006128116013836126f2565b915061281c826127db565b602082019050919050565b6000602082019050818103600083015261284081612804565b9050919050565b7f4e6f7420616e20617070726f7665642063727970746f63757272656e6379206660008201527f6f722062696464696e6700000000000000000000000000000000000000000000602082015250565b60006128a3602a836126f2565b91506128ae82612847565b604082019050919050565b600060208201905081810360008301526128d281612896565b9050919050565b7f42696464657273206f66666572206e6f74207665726966696564000000000000600082015250565b600061290f601a836126f2565b915061291a826128d9565b602082019050919050565b6000602082019050818103600083015261293e81612902565b9050919050565b600081519050612954816122ff565b92915050565b6000602082840312156129705761296f611fd1565b5b600061297e84828501612945565b91505092915050565b7f455243323020696e207468652070617965722061646472657373206973206e6f60008201527f7420656e6f756768000000000000000000000000000000000000000000000000602082015250565b60006129e36028836126f2565b91506129ee82612987565b604082019050919050565b60006020820190508181036000830152612a12816129d6565b9050919050565b7f4e487b7100000000000000000000000000000000000000000000000000000000600052601160045260246000fd5b6000612a53826122f5565b9150612a5e836122f5565b925082821015612a7157612a70612a19565b5b828203905092915050565b600081905092915050565b7f4552433732310000000000000000000000000000000000000000000000000000600082015250565b6000612abd600683612a7c565b9150612ac882612a87565b600682019050919050565b6000612ade82612ab0565b9150819050919050565b600081519050919050565b60005b83811015612b11578082015181840152602081019050612af6565b83811115612b20576000848401525b50505050565b6000612b3182612ae8565b612b3b8185612a7c565b9350612b4b818560208601612af3565b80840191505092915050565b6000612b638284612b26565b915081905092915050565b612b77816122f5565b82525050565b6000606082019050612b926000830186612224565b612b9f6020830185612224565b612bac6040830184612b6e565b949350505050565b7f4552433131353500000000000000000000000000000000000000000000000000600082015250565b6000612bea600783612a7c565b9150612bf582612bb4565b600782019050919050565b6000612c0b82612bdd565b9150819050919050565b600082825260208201905092915050565b50565b6000612c36600083612c15565b9150612c4182612c26565b600082019050919050565b600060a082019050612c616000830187612224565b612c6e6020830186612224565b612c7b6040830185612b6e565b612c886060830184612b6e565b8181036080830152612c9981612c29565b905095945050505050565b600060a082019050612cb96000830188611f9d565b612cc66020830187611f9d565b612cd36040830186611f9d565b612ce06060830185612b6e565b612ced6080830184612224565b9695505050505050565b7f4e487b7100000000000000000000000000000000000000000000000000000000600052601260045260246000fd5b6000612d318261224e565b9150612d3c8361224e565b925082612d4c57612d4b612cf7565b5b828204905092915050565b6000612d62826122f5565b9150612d6d836122f5565b9250817fffffffffffffffffffffffffffffffffffffffffffffffffffffffffffffffff0483118215151615612da657612da5612a19565b5b828202905092915050565b600081519050612dc081612686565b92915050565b600060208284031215612ddc57612ddb611fd1565b5b6000612dea84828501612db1565b91505092915050565b6000604082019050612e086000830185612b6e565b612e156020830184612b6e565b9392505050565b600081519050612e2b816121cb565b92915050565b60008060408385031215612e4857612e47611fd1565b5b6000612e5685828601612e1c565b9250506020612e6785828601612945565b9150509250929050565b7f4e487b7100000000000000000000000000000000000000000000000000000000600052603260045260246000fd5b6000612eab826122f5565b9150612eb6836122f5565b925082612ec657612ec5612cf7565b5b828204905092915050565b6000612edc826122f5565b91507fffffffffffffffffffffffffffffffffffffffffffffffffffffffffffffffff821415612f0f57612f0e612a19565b5b600182019050919050565b600060c082019050612f2f6000830189611f9d565b612f3c6020830188612224565b612f496040830187612b6e565b612f566060830186612b6e565b612f636080830185612224565b612f7060a0830184612b6e565b979650505050505050565b7f4e487b7100000000000000000000000000000000000000000000000000000000600052602160045260246000fd5b7f45434453413a20696e76616c6964207369676e61747572650000000000000000600082015250565b6000612fe06018836126f2565b9150612feb82612faa565b602082019050919050565b6000602082019050818103600083015261300f81612fd3565b9050919050565b7f45434453413a20696e76616c6964207369676e6174757265206c656e67746800600082015250565b600061304c601f836126f2565b915061305782613016565b602082019050919050565b6000602082019050818103600083015261307b8161303f565b9050919050565b7f45434453413a20696e76616c6964207369676e6174757265202773272076616c60008201527f7565000000000000000000000000000000000000000000000000000000000000602082015250565b60006130de6022836126f2565b91506130e982613082565b604082019050919050565b6000602082019050818103600083015261310d816130d1565b9050919050565b7f45434453413a20696e76616c6964207369676e6174757265202776272076616c60008201527f7565000000000000000000000000000000000000000000000000000000000000602082015250565b60006131706022836126f2565b915061317b82613114565b604082019050919050565b6000602082019050818103600083015261319f81613163565b9050919050565b7f1901000000000000000000000000000000000000000000000000000000000000600082015250565b60006131dc600283612a7c565b91506131e7826131a6565b600282019050919050565b6000819050919050565b61320d61320882611f93565b6131f2565b82525050565b600061321e826131cf565b915061322a82856131fc565b60208201915061323a82846131fc565b6020820191508190509392505050565b600060ff82169050919050565b6132608161324a565b82525050565b600060808201905061327b6000830187611f9d565b6132886020830186613257565b6132956040830185611f9d565b6132a26060830184611f9d565b95945050505050565b60006132b6826122f5565b91506132c1836122f5565b9250827fffffffffffffffffffffffffffffffffffffffffffffffffffffffffffffffff038211156132f6576132f5612a19565b5b82820190509291505056fea2646970667358221220c7c019f2248ba3f8c67594b7a9c1561a01d13f8cfcb62e096395733e2e798ec264736f6c634300080a0033",
  "linkReferences": {},
  "deployedLinkReferences": {}
}