{
  "_format": "hh-sol-artifact-1",
  "contractName": "MarketFacet",
  "sourceName": "contracts/facets/Market/MarketFacet.sol",
  "abi": [
    {
      "inputs": [
        {
          "internalType": "string",
          "name": "_contractType",
          "type": "string"
        },
        {
          "internalType": "address",
          "name": "_nftContAddress",
          "type": "address"
        },
        {
          "internalType": "address",
          "name": "_currencyAddress",
          "type": "address"
        },
        {
          "internalType": "address",
          "name": "_seller",
          "type": "address"
        },
        {
          "internalType": "address",
          "name": "_bidder",
          "type": "address"
        },
        {
          "internalType": "uint256",
          "name": "_tokenID",
          "type": "uint256"
        },
        {
          "internalType": "uint256",
          "name": "_bid",
          "type": "uint256"
        },
        {
          "internalType": "uint256",
          "name": "_copies",
          "type": "uint256"
        },
        {
          "internalType": "bytes",
          "name": "_bidderSig",
          "type": "bytes"
        },
        {
          "internalType": "bytes",
          "name": "_sellerSig",
          "type": "bytes"
        }
      ],
      "name": "acceptBid",
      "outputs": [],
      "stateMutability": "nonpayable",
      "type": "function"
    },
    {
      "inputs": [
        {
          "internalType": "string",
          "name": "name_",
          "type": "string"
        },
        {
          "internalType": "string",
          "name": "version_",
          "type": "string"
        }
      ],
      "name": "eip712FacetInit",
      "outputs": [],
      "stateMutability": "nonpayable",
      "type": "function"
    },
    {
      "inputs": [],
      "name": "getAddress",
      "outputs": [
        {
          "internalType": "address",
          "name": "",
          "type": "address"
        }
      ],
      "stateMutability": "view",
      "type": "function"
    },
    {
      "inputs": [],
      "name": "getAdminAddress",
      "outputs": [
        {
          "internalType": "address",
          "name": "",
          "type": "address"
        }
      ],
      "stateMutability": "view",
      "type": "function"
    },
    {
      "inputs": [
        {
          "internalType": "address",
          "name": "_currencyAddress",
          "type": "address"
        }
      ],
      "name": "getApprovedCrypto",
      "outputs": [
        {
          "internalType": "bool",
          "name": "",
          "type": "bool"
        }
      ],
      "stateMutability": "view",
      "type": "function"
    },
    {
      "inputs": [
        {
          "internalType": "address",
          "name": "_nftAddress",
          "type": "address"
        },
        {
          "internalType": "uint256",
          "name": "_tokenID",
          "type": "uint256"
        }
      ],
      "name": "getCollaborators",
      "outputs": [
        {
          "components": [
            {
              "internalType": "address[]",
              "name": "collaborators",
              "type": "address[]"
            },
            {
              "internalType": "uint96[]",
              "name": "collabFraction",
              "type": "uint96[]"
            }
          ],
          "internalType": "struct LibMarketStorage.Collaborators",
          "name": "",
          "type": "tuple"
        }
      ],
      "stateMutability": "view",
      "type": "function"
    },
    {
      "inputs": [],
      "name": "getCommissionPercentage",
      "outputs": [
        {
          "internalType": "uint96",
          "name": "",
          "type": "uint96"
        }
      ],
      "stateMutability": "view",
      "type": "function"
    },
    {
      "inputs": [],
      "name": "getName",
      "outputs": [
        {
          "internalType": "bytes32",
          "name": "",
          "type": "bytes32"
        }
      ],
      "stateMutability": "view",
      "type": "function"
    },
    {
      "inputs": [
        {
          "internalType": "string",
          "name": "name_",
          "type": "string"
        },
        {
          "internalType": "string",
          "name": "version_",
          "type": "string"
        }
      ],
      "name": "marketFacetInit",
      "outputs": [],
      "stateMutability": "nonpayable",
      "type": "function"
    },
    {
      "inputs": [
        {
          "internalType": "address",
          "name": "_currencyAddress",
          "type": "address"
        },
        {
          "internalType": "address",
          "name": "_nftContAddress",
          "type": "address"
        },
        {
          "internalType": "address",
          "name": "_payer",
          "type": "address"
        },
        {
          "internalType": "uint256",
          "name": "amount",
          "type": "uint256"
        },
        {
          "internalType": "uint256",
          "name": "_tokenID",
          "type": "uint256"
        }
      ],
      "name": "royalityFeeDeduction",
      "outputs": [
        {
          "internalType": "uint256",
          "name": "",
          "type": "uint256"
        }
      ],
      "stateMutability": "nonpayable",
      "type": "function"
    },
    {
      "inputs": [
        {
          "internalType": "address",
          "name": "adminAddress_",
          "type": "address"
        }
      ],
      "name": "setAdminAddress",
      "outputs": [],
      "stateMutability": "nonpayable",
      "type": "function"
    },
    {
      "inputs": [
        {
          "internalType": "address",
          "name": "_currencyAddress",
          "type": "address"
        },
        {
          "internalType": "bool",
          "name": "approving",
          "type": "bool"
        }
      ],
      "name": "setApprovedCrypto",
      "outputs": [],
      "stateMutability": "nonpayable",
      "type": "function"
    },
    {
      "inputs": [
        {
          "internalType": "address",
          "name": "_nftAddress",
          "type": "address"
        },
        {
          "internalType": "uint256",
          "name": "_tokenID",
          "type": "uint256"
        },
        {
          "internalType": "address[]",
          "name": "_collaborators",
          "type": "address[]"
        },
        {
          "internalType": "uint96[]",
          "name": "_collabFraction",
          "type": "uint96[]"
        }
      ],
      "name": "setCollaborators",
      "outputs": [],
      "stateMutability": "nonpayable",
      "type": "function"
    },
    {
      "inputs": [
        {
          "internalType": "uint96",
          "name": "_commissionPercentage",
          "type": "uint96"
        }
      ],
      "name": "setCommissionPercentage",
      "outputs": [
        {
          "internalType": "bool",
          "name": "",
          "type": "bool"
        }
      ],
      "stateMutability": "nonpayable",
      "type": "function"
    }
  ],
  "bytecode": "0x608060405234801561001057600080fd5b50613bb3806100206000396000f3fe608060405234801561001057600080fd5b50600436106100ea5760003560e01c806384c6ba571161008c578063a5dbd81411610066578063a5dbd81414610247578063b2e6b91214610265578063ce28a9b414610283578063dccf6253146102b3576100ea565b806384c6ba57146101df5780638f9d5a2b1461020f5780639e9666d91461022b576100ea565b80632c1e816d116100c85780632c1e816d1461015957806338cc4831146101755780634a5ececd1461019357806372b360a6146101c3576100ea565b8063107262b1146100ef57806317d7de7c1461011f5780631c5c32d51461013d575b600080fd5b61010960048036038101906101049190612441565b6102cf565b6040516101169190612659565b60405180910390f35b6101276105b9565b6040516101349190612694565b60405180910390f35b610157600480360381019061015291906127f5565b6105d1565b005b610173600480360381019061016e919061286d565b61074a565b005b61017d610896565b60405161018a91906128a9565b60405180910390f35b6101ad60048036038101906101a891906128f0565b6108ce565b6040516101ba9190612938565b60405180910390f35b6101dd60048036038101906101d89190612a09565b610a11565b005b6101f960048036038101906101f4919061286d565b610c4c565b6040516102069190612938565b60405180910390f35b610229600480360381019061022491906127f5565b610cb0565b005b61024560048036038101906102409190612b51565b610cf8565b005b61024f6111e5565b60405161025c9190612c93565b60405180910390f35b61026d61130e565b60405161027a91906128a9565b60405180910390f35b61029d60048036038101906102989190612cae565b611346565b6040516102aa9190612d38565b60405180910390f35b6102cd60048036038101906102c89190612d7f565b6114ea565b005b6102d7612210565b60006102e161164d565b90508060040160009054906101000a900473ffffffffffffffffffffffffffffffffffffffff1673ffffffffffffffffffffffffffffffffffffffff163373ffffffffffffffffffffffffffffffffffffffff16148061039057506000800160009054906101000a900473ffffffffffffffffffffffffffffffffffffffff1673ffffffffffffffffffffffffffffffffffffffff163373ffffffffffffffffffffffffffffffffffffffff16145b6103cf576040517f08c379a00000000000000000000000000000000000000000000000000000000081526004016103c690612e1c565b60405180910390fd5b60006103d961167a565b90506103e3612210565b8160020160008773ffffffffffffffffffffffffffffffffffffffff1673ffffffffffffffffffffffffffffffffffffffff16815260200190815260200160002060008681526020019081526020016000206000018054806020026020016040519081016040528092919081815260200182805480156104b857602002820191906000526020600020905b8160009054906101000a900473ffffffffffffffffffffffffffffffffffffffff1673ffffffffffffffffffffffffffffffffffffffff168152602001906001019080831161046e575b505050505081600001819052508160020160008773ffffffffffffffffffffffffffffffffffffffff1673ffffffffffffffffffffffffffffffffffffffff16815260200190815260200160002060008681526020019081526020016000206001018054806020026020016040519081016040528092919081815260200182805480156105a057602002820191906000526020600020906000905b82829054906101000a90046bffffffffffffffffffffffff166bffffffffffffffffffffffff16815260200190600c0190602082600b010492830192600103820291508084116105535790505b5050505050816020018190525080935050505092915050565b6000806105c46116a7565b9050806003015491505090565b60006105db6116a7565b90506000801b81600301541480156105f957506000801b8160040154145b610638576040517f08c379a000000000000000000000000000000000000000000000000000000000815260040161062f90612e88565b60405180910390fd5b600083511415801561064c57506000825114155b61068b576040517f08c379a000000000000000000000000000000000000000000000000000000000815260040161068290612ef4565b60405180910390fd5b60008380519060200120905060008380519060200120905060007f8b73c3c69bb8fe3d512ecc4cf759cc79239f7b179b0ffacaa9a75d522b39400f90508284600301819055508184600401819055504684600101819055506106ee8184846116d4565b8460000181905550308460020160006101000a81548173ffffffffffffffffffffffffffffffffffffffff021916908373ffffffffffffffffffffffffffffffffffffffff160217905550808460050181905550505050505050565b600061075461164d565b90508060040160009054906101000a900473ffffffffffffffffffffffffffffffffffffffff1673ffffffffffffffffffffffffffffffffffffffff163373ffffffffffffffffffffffffffffffffffffffff16148061080357506000800160009054906101000a900473ffffffffffffffffffffffffffffffffffffffff1673ffffffffffffffffffffffffffffffffffffffff163373ffffffffffffffffffffffffffffffffffffffff16145b610842576040517f08c379a000000000000000000000000000000000000000000000000000000000815260040161083990612e1c565b60405180910390fd5b600061084c61167a565b9050828160030160006101000a81548173ffffffffffffffffffffffffffffffffffffffff021916908373ffffffffffffffffffffffffffffffffffffffff160217905550505050565b6000806108a16116a7565b90508060020160009054906101000a900473ffffffffffffffffffffffffffffffffffffffff1691505090565b6000806108d961164d565b90508060040160009054906101000a900473ffffffffffffffffffffffffffffffffffffffff1673ffffffffffffffffffffffffffffffffffffffff163373ffffffffffffffffffffffffffffffffffffffff16148061098857506000800160009054906101000a900473ffffffffffffffffffffffffffffffffffffffff1673ffffffffffffffffffffffffffffffffffffffff163373ffffffffffffffffffffffffffffffffffffffff16145b6109c7576040517f08c379a00000000000000000000000000000000000000000000000000000000081526004016109be90612e1c565b60405180910390fd5b60006109d161167a565b9050838160010160006101000a8154816bffffffffffffffffffffffff02191690836bffffffffffffffffffffffff160217905550600192505050919050565b6000610a1b61164d565b90508060040160009054906101000a900473ffffffffffffffffffffffffffffffffffffffff1673ffffffffffffffffffffffffffffffffffffffff163373ffffffffffffffffffffffffffffffffffffffff161480610aca57506000800160009054906101000a900473ffffffffffffffffffffffffffffffffffffffff1673ffffffffffffffffffffffffffffffffffffffff163373ffffffffffffffffffffffffffffffffffffffff16145b610b09576040517f08c379a0000000000000000000000000000000000000000000000000000000008152600401610b0090612e1c565b60405180910390fd5b6000610b1361167a565b9050610b1d612210565b868680806020026020016040519081016040528093929190818152602001838360200280828437600081840152601f19601f820116905080830192505050505050508160000181905250848480806020026020016040519081016040528093929190818152602001838360200280828437600081840152601f19601f820116905080830192505050505050508160200181905250808260020160008b73ffffffffffffffffffffffffffffffffffffffff1673ffffffffffffffffffffffffffffffffffffffff16815260200190815260200160002060008a81526020019081526020016000206000820151816000019080519060200190610c2092919061222a565b506020820151816001019080519060200190610c3d9291906122b4565b50905050505050505050505050565b600080610c5761167a565b90508060000160008473ffffffffffffffffffffffffffffffffffffffff1673ffffffffffffffffffffffffffffffffffffffff16815260200190815260200160002060009054906101000a900460ff16915050919050565b6000610cba61164d565b9050610cc683836105d1565b610cf38160040160009054906101000a900473ffffffffffffffffffffffffffffffffffffffff1661074a565b505050565b6000610d0261164d565b90508060040160009054906101000a900473ffffffffffffffffffffffffffffffffffffffff1673ffffffffffffffffffffffffffffffffffffffff163373ffffffffffffffffffffffffffffffffffffffff161480610db157506000800160009054906101000a900473ffffffffffffffffffffffffffffffffffffffff1673ffffffffffffffffffffffffffffffffffffffff163373ffffffffffffffffffffffffffffffffffffffff16145b610df0576040517f08c379a0000000000000000000000000000000000000000000000000000000008152600401610de790612e1c565b60405180910390fd5b6000610dfa61167a565b9050600115158160000160008c73ffffffffffffffffffffffffffffffffffffffff1673ffffffffffffffffffffffffffffffffffffffff16815260200190815260200160002060009054906101000a900460ff16151514610e91576040517f08c379a0000000000000000000000000000000000000000000000000000000008152600401610e8890612f86565b60405180910390fd5b610ea08b88878d8a898e61170e565b610edf576040517f08c379a0000000000000000000000000000000000000000000000000000000008152600401610ed690612ff2565b60405180910390fd5b610eee8b88878d8a888f611766565b610f2d576040517f08c379a0000000000000000000000000000000000000000000000000000000008152600401610f2490612ff2565b60405180910390fd5b60008a9050868173ffffffffffffffffffffffffffffffffffffffff166370a082318b6040518263ffffffff1660e01b8152600401610f6c91906128a9565b602060405180830381865afa158015610f89573d6000803e3d6000fd5b505050506040513d601f19601f82011682018060405250810190610fad9190613027565b1015610fee576040517f08c379a0000000000000000000000000000000000000000000000000000000008152600401610fe5906130c6565b60405180910390fd5b6000879050610ffe8c8b8a6117be565b816110099190613115565b90506110188c8e8c848d611346565b816110239190613115565b9050604051602001611034906131a0565b604051602081830303815290604052805190602001208e60405160200161105b9190613224565b6040516020818303038152906040528051906020012014156110fc576110858c8e8c8e858e6118c9565b5060008d90508073ffffffffffffffffffffffffffffffffffffffff166323b872dd8d8d8d6040518463ffffffff1660e01b81526004016110c89392919061323b565b600060405180830381600087803b1580156110e257600080fd5b505af11580156110f6573d6000803e3d6000fd5b50505050505b60405160200161110b906132be565b604051602081830303815290604052805190602001208e6040516020016111329190613224565b6040516020818303038152906040528051906020012014156111d55761115c8c8e8c8e858e6118c9565b5060008d90508073ffffffffffffffffffffffffffffffffffffffff1663f242432a8d8d8d8c6040518563ffffffff1660e01b81526004016111a1949392919061330a565b600060405180830381600087803b1580156111bb57600080fd5b505af11580156111cf573d6000803e3d6000fd5b50505050505b5050505050505050505050505050565b6000806111f061164d565b90508060040160009054906101000a900473ffffffffffffffffffffffffffffffffffffffff1673ffffffffffffffffffffffffffffffffffffffff163373ffffffffffffffffffffffffffffffffffffffff16148061129f57506000800160009054906101000a900473ffffffffffffffffffffffffffffffffffffffff1673ffffffffffffffffffffffffffffffffffffffff163373ffffffffffffffffffffffffffffffffffffffff16145b6112de576040517f08c379a00000000000000000000000000000000000000000000000000000000081526004016112d590612e1c565b60405180910390fd5b60006112e861167a565b90508060010160009054906101000a90046bffffffffffffffffffffffff169250505090565b60008061131961167a565b90508060030160009054906101000a900473ffffffffffffffffffffffffffffffffffffffff1691505090565b60008085905060008790506000808373ffffffffffffffffffffffffffffffffffffffff16632a55205a87896040518363ffffffff1660e01b815260040161138f929190613362565b6000604051808303816000875af11580156113ae573d6000803e3d6000fd5b505050506040513d6000823e3d601f19601f820116820180604052508101906113d79190613526565b915091506000805b83518110156114d8578473ffffffffffffffffffffffffffffffffffffffff166323b872dd8b8684815181106114185761141761359e565b5b60200260200101518685815181106114335761143261359e565b5b60200260200101516040518463ffffffff1660e01b81526004016114599392919061323b565b6020604051808303816000875af1158015611478573d6000803e3d6000fd5b505050506040513d601f19601f8201168201806040525081019061149c91906135e2565b508281815181106114b0576114af61359e565b5b6020026020010151826114c3919061360f565b915080806114d090613665565b9150506113df565b50809550505050505095945050505050565b60006114f461164d565b90508060040160009054906101000a900473ffffffffffffffffffffffffffffffffffffffff1673ffffffffffffffffffffffffffffffffffffffff163373ffffffffffffffffffffffffffffffffffffffff1614806115a357506000800160009054906101000a900473ffffffffffffffffffffffffffffffffffffffff1673ffffffffffffffffffffffffffffffffffffffff163373ffffffffffffffffffffffffffffffffffffffff16145b6115e2576040517f08c379a00000000000000000000000000000000000000000000000000000000081526004016115d990612e1c565b60405180910390fd5b60006115ec61167a565b9050828160000160008673ffffffffffffffffffffffffffffffffffffffff1673ffffffffffffffffffffffffffffffffffffffff16815260200190815260200160002060006101000a81548160ff02191690831515021790555050505050565b6000807fc8fcad8db84d3cc18b4c41d551ea0ee66dd599cde068d998e57d5e09332c131c90508091505090565b6000807f23a8b080129d29a012fab4572a713d8fd62f42f971351afe31751b09c12186aa90508091505090565b6000807fae36923e02a3e3934bc8e16cc335029655eed5d5801b3db8294179c633d8af4c90508091505090565b600083838346306040516020016116ef9594939291906136ae565b6040516020818303038152906040528051906020012090509392505050565b60008061171e8989898989611cd3565b90508273ffffffffffffffffffffffffffffffffffffffff166117418286611d39565b73ffffffffffffffffffffffffffffffffffffffff1614915050979650505050505050565b6000806117768989898989611cd3565b90508273ffffffffffffffffffffffffffffffffffffffff166117998286611d39565b73ffffffffffffffffffffffffffffffffffffffff1614915050979650505050505050565b60008084905060006117ce61167a565b905060006127108260010160009054906101000a90046bffffffffffffffffffffffff166117fc9190613730565b6bffffffffffffffffffffffff16856118159190613761565b90508273ffffffffffffffffffffffffffffffffffffffff166323b872dd878460030160009054906101000a900473ffffffffffffffffffffffffffffffffffffffff16846040518463ffffffff1660e01b81526004016118789392919061323b565b6020604051808303816000875af1158015611897573d6000803e3d6000fd5b505050506040513d601f19601f820116820180604052508101906118bb91906135e2565b508093505050509392505050565b600080879050838173ffffffffffffffffffffffffffffffffffffffff166370a08231886040518263ffffffff1660e01b815260040161190991906128a9565b602060405180830381865afa158015611926573d6000803e3d6000fd5b505050506040513d601f19601f8201168201806040525081019061194a9190613027565b101561198b576040517f08c379a0000000000000000000000000000000000000000000000000000000008152600401611982906130c6565b60405180910390fd5b600061199561167a565b905061199f612210565b60008690508260020160008b73ffffffffffffffffffffffffffffffffffffffff1673ffffffffffffffffffffffffffffffffffffffff168152602001908152602001600020600087815260200190815260200160002060405180604001604052908160008201805480602002602001604051908101604052809291908181526020018280548015611a8657602002820191906000526020600020905b8160009054906101000a900473ffffffffffffffffffffffffffffffffffffffff1673ffffffffffffffffffffffffffffffffffffffff1681526020019060010190808311611a3c575b5050505050815260200160018201805480602002602001604051908101604052809291908181526020018280548015611b1a57602002820191906000526020600020906000905b82829054906101000a90046bffffffffffffffffffffffff166bffffffffffffffffffffffff16815260200190600c0190602082600b01049283019260010382029150808411611acd5790505b505050505081525050915060005b826000015151811015611c3f57600061271084602001518381518110611b5157611b5061359e565b5b60200260200101516bffffffffffffffffffffffff168a611b729190613761565b611b7c91906137bb565b90508089611b8a9190613115565b92508573ffffffffffffffffffffffffffffffffffffffff166323b872dd8c86600001518581518110611bc057611bbf61359e565b5b6020026020010151846040518463ffffffff1660e01b8152600401611be79392919061323b565b6020604051808303816000875af1158015611c06573d6000803e3d6000fd5b505050506040513d601f19601f82011682018060405250810190611c2a91906135e2565b50508080611c3790613665565b915050611b28565b508373ffffffffffffffffffffffffffffffffffffffff166323b872dd8a8a846040518463ffffffff1660e01b8152600401611c7d9392919061323b565b6020604051808303816000875af1158015611c9c573d6000803e3d6000fd5b505050506040513d601f19601f82011682018060405250810190611cc091906135e2565b5060019450505050509695505050505050565b6000611d2e7f73a68255bef9b2d8772a65da56b8c433fcf3e468b3ec1670e127d24c73a90fc78787878787604051602001611d13969594939291906137ec565b60405160208183030381529060405280519060200120611d60565b905095945050505050565b6000806000611d488585611d7a565b91509150611d5581611dfd565b819250505092915050565b6000611d73611d6d611fd2565b83612071565b9050919050565b600080604183511415611dbc5760008060006020860151925060408601519150606086015160001a9050611db0878285856120a4565b94509450505050611df6565b604083511415611ded576000806020850151915060408501519050611de28683836121b1565b935093505050611df6565b60006002915091505b9250929050565b60006004811115611e1157611e1061384d565b5b816004811115611e2457611e2361384d565b5b1415611e2f57611fcf565b60016004811115611e4357611e4261384d565b5b816004811115611e5657611e5561384d565b5b1415611e97576040517f08c379a0000000000000000000000000000000000000000000000000000000008152600401611e8e906138c8565b60405180910390fd5b60026004811115611eab57611eaa61384d565b5b816004811115611ebe57611ebd61384d565b5b1415611eff576040517f08c379a0000000000000000000000000000000000000000000000000000000008152600401611ef690613934565b60405180910390fd5b60036004811115611f1357611f1261384d565b5b816004811115611f2657611f2561384d565b5b1415611f67576040517f08c379a0000000000000000000000000000000000000000000000000000000008152600401611f5e906139c6565b60405180910390fd5b600480811115611f7a57611f7961384d565b5b816004811115611f8d57611f8c61384d565b5b1415611fce576040517f08c379a0000000000000000000000000000000000000000000000000000000008152600401611fc590613a58565b60405180910390fd5b5b50565b600080611fdd6116a7565b90508060020160009054906101000a900473ffffffffffffffffffffffffffffffffffffffff1673ffffffffffffffffffffffffffffffffffffffff163073ffffffffffffffffffffffffffffffffffffffff161480156120415750806001015446145b1561205357806000015491505061206e565b61206a8160050154826003015483600401546116d4565b9150505b90565b60008282604051602001612086929190613ae5565b60405160208183030381529060405280519060200120905092915050565b6000807f7fffffffffffffffffffffffffffffff5d576e7357a4501ddfe92f46681b20a08360001c11156120df5760006003915091506121a8565b601b8560ff16141580156120f75750601c8560ff1614155b156121095760006004915091506121a8565b60006001878787876040516000815260200160405260405161212e9493929190613b38565b6020604051602081039080840390855afa158015612150573d6000803e3d6000fd5b505050602060405103519050600073ffffffffffffffffffffffffffffffffffffffff168173ffffffffffffffffffffffffffffffffffffffff16141561219f576000600192509250506121a8565b80600092509250505b94509492505050565b60008060007f7fffffffffffffffffffffffffffffffffffffffffffffffffffffffffffffff60001b841690506000601b60ff8660001c901c6121f4919061360f565b9050612202878288856120a4565b935093505050935093915050565b604051806040016040528060608152602001606081525090565b8280548282559060005260206000209081019282156122a3579160200282015b828111156122a25782518260006101000a81548173ffffffffffffffffffffffffffffffffffffffff021916908373ffffffffffffffffffffffffffffffffffffffff1602179055509160200191906001019061224a565b5b5090506122b0919061237c565b5090565b8280548282559060005260206000209060010160029004810192821561236b5791602002820160005b8382111561233157835183826101000a8154816bffffffffffffffffffffffff02191690836bffffffffffffffffffffffff1602179055509260200192600c01602081600b010492830192600103026122dd565b80156123695782816101000a8154906bffffffffffffffffffffffff0219169055600c01602081600b01049283019260010302612331565b505b509050612378919061237c565b5090565b5b8082111561239557600081600090555060010161237d565b5090565b6000604051905090565b600080fd5b600080fd5b600073ffffffffffffffffffffffffffffffffffffffff82169050919050565b60006123d8826123ad565b9050919050565b6123e8816123cd565b81146123f357600080fd5b50565b600081359050612405816123df565b92915050565b6000819050919050565b61241e8161240b565b811461242957600080fd5b50565b60008135905061243b81612415565b92915050565b60008060408385031215612458576124576123a3565b5b6000612466858286016123f6565b92505060206124778582860161242c565b9150509250929050565b600081519050919050565b600082825260208201905092915050565b6000819050602082019050919050565b6124b6816123cd565b82525050565b60006124c883836124ad565b60208301905092915050565b6000602082019050919050565b60006124ec82612481565b6124f6818561248c565b93506125018361249d565b8060005b8381101561253257815161251988826124bc565b9750612524836124d4565b925050600181019050612505565b5085935050505092915050565b600081519050919050565b600082825260208201905092915050565b6000819050602082019050919050565b60006bffffffffffffffffffffffff82169050919050565b61258c8161256b565b82525050565b600061259e8383612583565b60208301905092915050565b6000602082019050919050565b60006125c28261253f565b6125cc818561254a565b93506125d78361255b565b8060005b838110156126085781516125ef8882612592565b97506125fa836125aa565b9250506001810190506125db565b5085935050505092915050565b6000604083016000830151848203600086015261263282826124e1565b9150506020830151848203602086015261264c82826125b7565b9150508091505092915050565b600060208201905081810360008301526126738184612615565b905092915050565b6000819050919050565b61268e8161267b565b82525050565b60006020820190506126a96000830184612685565b92915050565b600080fd5b600080fd5b6000601f19601f8301169050919050565b7f4e487b7100000000000000000000000000000000000000000000000000000000600052604160045260246000fd5b612702826126b9565b810181811067ffffffffffffffff82111715612721576127206126ca565b5b80604052505050565b6000612734612399565b905061274082826126f9565b919050565b600067ffffffffffffffff8211156127605761275f6126ca565b5b612769826126b9565b9050602081019050919050565b82818337600083830152505050565b600061279861279384612745565b61272a565b9050828152602081018484840111156127b4576127b36126b4565b5b6127bf848285612776565b509392505050565b600082601f8301126127dc576127db6126af565b5b81356127ec848260208601612785565b91505092915050565b6000806040838503121561280c5761280b6123a3565b5b600083013567ffffffffffffffff81111561282a576128296123a8565b5b612836858286016127c7565b925050602083013567ffffffffffffffff811115612857576128566123a8565b5b612863858286016127c7565b9150509250929050565b600060208284031215612883576128826123a3565b5b6000612891848285016123f6565b91505092915050565b6128a3816123cd565b82525050565b60006020820190506128be600083018461289a565b92915050565b6128cd8161256b565b81146128d857600080fd5b50565b6000813590506128ea816128c4565b92915050565b600060208284031215612906576129056123a3565b5b6000612914848285016128db565b91505092915050565b60008115159050919050565b6129328161291d565b82525050565b600060208201905061294d6000830184612929565b92915050565b600080fd5b600080fd5b60008083601f840112612973576129726126af565b5b8235905067ffffffffffffffff8111156129905761298f612953565b5b6020830191508360208202830111156129ac576129ab612958565b5b9250929050565b60008083601f8401126129c9576129c86126af565b5b8235905067ffffffffffffffff8111156129e6576129e5612953565b5b602083019150836020820283011115612a0257612a01612958565b5b9250929050565b60008060008060008060808789031215612a2657612a256123a3565b5b6000612a3489828a016123f6565b9650506020612a4589828a0161242c565b955050604087013567ffffffffffffffff811115612a6657612a656123a8565b5b612a7289828a0161295d565b9450945050606087013567ffffffffffffffff811115612a9557612a946123a8565b5b612aa189828a016129b3565b92509250509295509295509295565b600067ffffffffffffffff821115612acb57612aca6126ca565b5b612ad4826126b9565b9050602081019050919050565b6000612af4612aef84612ab0565b61272a565b905082815260208101848484011115612b1057612b0f6126b4565b5b612b1b848285612776565b509392505050565b600082601f830112612b3857612b376126af565b5b8135612b48848260208601612ae1565b91505092915050565b6000806000806000806000806000806101408b8d031215612b7557612b746123a3565b5b60008b013567ffffffffffffffff811115612b9357612b926123a8565b5b612b9f8d828e016127c7565b9a50506020612bb08d828e016123f6565b9950506040612bc18d828e016123f6565b9850506060612bd28d828e016123f6565b9750506080612be38d828e016123f6565b96505060a0612bf48d828e0161242c565b95505060c0612c058d828e0161242c565b94505060e0612c168d828e0161242c565b9350506101008b013567ffffffffffffffff811115612c3857612c376123a8565b5b612c448d828e01612b23565b9250506101208b013567ffffffffffffffff811115612c6657612c656123a8565b5b612c728d828e01612b23565b9150509295989b9194979a5092959850565b612c8d8161256b565b82525050565b6000602082019050612ca86000830184612c84565b92915050565b600080600080600060a08688031215612cca57612cc96123a3565b5b6000612cd8888289016123f6565b9550506020612ce9888289016123f6565b9450506040612cfa888289016123f6565b9350506060612d0b8882890161242c565b9250506080612d1c8882890161242c565b9150509295509295909350565b612d328161240b565b82525050565b6000602082019050612d4d6000830184612d29565b92915050565b612d5c8161291d565b8114612d6757600080fd5b50565b600081359050612d7981612d53565b92915050565b60008060408385031215612d9657612d956123a3565b5b6000612da4858286016123f6565b9250506020612db585828601612d6a565b9150509250929050565b600082825260208201905092915050565b7f4e6f74206d65646961206e6f72206f776e657200000000000000000000000000600082015250565b6000612e06601383612dbf565b9150612e1182612dd0565b602082019050919050565b60006020820190508181036000830152612e3581612df9565b9050919050565b7f414c52454144595f494e495449414c495a454400000000000000000000000000600082015250565b6000612e72601383612dbf565b9150612e7d82612e3c565b602082019050919050565b60006020820190508181036000830152612ea181612e65565b9050919050565b7f494e56414c49445f504152414d53000000000000000000000000000000000000600082015250565b6000612ede600e83612dbf565b9150612ee982612ea8565b602082019050919050565b60006020820190508181036000830152612f0d81612ed1565b9050919050565b7f4e6f7420616e20617070726f7665642063727970746f63757272656e6379206660008201527f6f722062696464696e6700000000000000000000000000000000000000000000602082015250565b6000612f70602a83612dbf565b9150612f7b82612f14565b604082019050919050565b60006020820190508181036000830152612f9f81612f63565b9050919050565b7f42696464657273206f66666572206e6f74207665726966696564000000000000600082015250565b6000612fdc601a83612dbf565b9150612fe782612fa6565b602082019050919050565b6000602082019050818103600083015261300b81612fcf565b9050919050565b60008151905061302181612415565b92915050565b60006020828403121561303d5761303c6123a3565b5b600061304b84828501613012565b91505092915050565b7f455243323020696e207468652070617965722061646472657373206973206e6f60008201527f7420656e6f756768000000000000000000000000000000000000000000000000602082015250565b60006130b0602883612dbf565b91506130bb82613054565b604082019050919050565b600060208201905081810360008301526130df816130a3565b9050919050565b7f4e487b7100000000000000000000000000000000000000000000000000000000600052601160045260246000fd5b60006131208261240b565b915061312b8361240b565b92508282101561313e5761313d6130e6565b5b828203905092915050565b600081905092915050565b7f4552433732310000000000000000000000000000000000000000000000000000600082015250565b600061318a600683613149565b915061319582613154565b600682019050919050565b60006131ab8261317d565b9150819050919050565b600081519050919050565b60005b838110156131de5780820151818401526020810190506131c3565b838111156131ed576000848401525b50505050565b60006131fe826131b5565b6132088185613149565b93506132188185602086016131c0565b80840191505092915050565b600061323082846131f3565b915081905092915050565b6000606082019050613250600083018661289a565b61325d602083018561289a565b61326a6040830184612d29565b949350505050565b7f4552433131353500000000000000000000000000000000000000000000000000600082015250565b60006132a8600783613149565b91506132b382613272565b600782019050919050565b60006132c98261329b565b9150819050919050565b600082825260208201905092915050565b50565b60006132f46000836132d3565b91506132ff826132e4565b600082019050919050565b600060a08201905061331f600083018761289a565b61332c602083018661289a565b6133396040830185612d29565b6133466060830184612d29565b8181036080830152613357816132e7565b905095945050505050565b60006040820190506133776000830185612d29565b6133846020830184612d29565b9392505050565b600067ffffffffffffffff8211156133a6576133a56126ca565b5b602082029050602081019050919050565b6000815190506133c6816123df565b92915050565b60006133df6133da8461338b565b61272a565b9050808382526020820190506020840283018581111561340257613401612958565b5b835b8181101561342b578061341788826133b7565b845260208401935050602081019050613404565b5050509392505050565b600082601f83011261344a576134496126af565b5b815161345a8482602086016133cc565b91505092915050565b600067ffffffffffffffff82111561347e5761347d6126ca565b5b602082029050602081019050919050565b60006134a261349d84613463565b61272a565b905080838252602082019050602084028301858111156134c5576134c4612958565b5b835b818110156134ee57806134da8882613012565b8452602084019350506020810190506134c7565b5050509392505050565b600082601f83011261350d5761350c6126af565b5b815161351d84826020860161348f565b91505092915050565b6000806040838503121561353d5761353c6123a3565b5b600083015167ffffffffffffffff81111561355b5761355a6123a8565b5b61356785828601613435565b925050602083015167ffffffffffffffff811115613588576135876123a8565b5b613594858286016134f8565b9150509250929050565b7f4e487b7100000000000000000000000000000000000000000000000000000000600052603260045260246000fd5b6000815190506135dc81612d53565b92915050565b6000602082840312156135f8576135f76123a3565b5b6000613606848285016135cd565b91505092915050565b600061361a8261240b565b91506136258361240b565b9250827fffffffffffffffffffffffffffffffffffffffffffffffffffffffffffffffff0382111561365a576136596130e6565b5b828201905092915050565b60006136708261240b565b91507fffffffffffffffffffffffffffffffffffffffffffffffffffffffffffffffff8214156136a3576136a26130e6565b5b600182019050919050565b600060a0820190506136c36000830188612685565b6136d06020830187612685565b6136dd6040830186612685565b6136ea6060830185612d29565b6136f7608083018461289a565b9695505050505050565b7f4e487b7100000000000000000000000000000000000000000000000000000000600052601260045260246000fd5b600061373b8261256b565b91506137468361256b565b92508261375657613755613701565b5b828204905092915050565b600061376c8261240b565b91506137778361240b565b9250817fffffffffffffffffffffffffffffffffffffffffffffffffffffffffffffffff04831182151516156137b0576137af6130e6565b5b828202905092915050565b60006137c68261240b565b91506137d18361240b565b9250826137e1576137e0613701565b5b828204905092915050565b600060c0820190506138016000830189612685565b61380e602083018861289a565b61381b6040830187612d29565b6138286060830186612d29565b613835608083018561289a565b61384260a0830184612d29565b979650505050505050565b7f4e487b7100000000000000000000000000000000000000000000000000000000600052602160045260246000fd5b7f45434453413a20696e76616c6964207369676e61747572650000000000000000600082015250565b60006138b2601883612dbf565b91506138bd8261387c565b602082019050919050565b600060208201905081810360008301526138e1816138a5565b9050919050565b7f45434453413a20696e76616c6964207369676e6174757265206c656e67746800600082015250565b600061391e601f83612dbf565b9150613929826138e8565b602082019050919050565b6000602082019050818103600083015261394d81613911565b9050919050565b7f45434453413a20696e76616c6964207369676e6174757265202773272076616c60008201527f7565000000000000000000000000000000000000000000000000000000000000602082015250565b60006139b0602283612dbf565b91506139bb82613954565b604082019050919050565b600060208201905081810360008301526139df816139a3565b9050919050565b7f45434453413a20696e76616c6964207369676e6174757265202776272076616c60008201527f7565000000000000000000000000000000000000000000000000000000000000602082015250565b6000613a42602283612dbf565b9150613a4d826139e6565b604082019050919050565b60006020820190508181036000830152613a7181613a35565b9050919050565b7f1901000000000000000000000000000000000000000000000000000000000000600082015250565b6000613aae600283613149565b9150613ab982613a78565b600282019050919050565b6000819050919050565b613adf613ada8261267b565b613ac4565b82525050565b6000613af082613aa1565b9150613afc8285613ace565b602082019150613b0c8284613ace565b6020820191508190509392505050565b600060ff82169050919050565b613b3281613b1c565b82525050565b6000608082019050613b4d6000830187612685565b613b5a6020830186613b29565b613b676040830185612685565b613b746060830184612685565b9594505050505056fea2646970667358221220549e593345b25221d5724fd75820d4298d3ae1562f19a626077093d6aa259dfd64736f6c634300080a0033",
  "linkReferences": {},
  "deployedLinkReferences": {}
}