{
  "_format": "hh-sol-artifact-1",
  "contractName": "MarketFacet",
  "sourceName": "contracts/facets/Market/MarketFacet.sol",
  "abi": [
    {
      "anonymous": false,
      "inputs": [
        {
          "indexed": false,
          "internalType": "address",
          "name": "admin",
          "type": "address"
        }
      ],
      "name": "Admin",
      "type": "event"
    },
    {
      "anonymous": false,
      "inputs": [
        {
          "indexed": false,
          "internalType": "uint96",
          "name": "commissionPercentage",
          "type": "uint96"
        }
      ],
      "name": "AdminFee",
      "type": "event"
    },
    {
      "anonymous": false,
      "inputs": [
        {
          "indexed": false,
          "internalType": "address",
          "name": "buyer",
          "type": "address"
        },
        {
          "indexed": false,
          "internalType": "address",
          "name": "seller",
          "type": "address"
        },
        {
          "indexed": false,
          "internalType": "bool",
          "name": "accepted",
          "type": "bool"
        }
      ],
      "name": "BidAccepted",
      "type": "event"
    },
    {
      "anonymous": false,
      "inputs": [
        {
          "indexed": false,
          "internalType": "address",
          "name": "nftAddress",
          "type": "address"
        },
        {
          "indexed": false,
          "internalType": "uint256",
          "name": "tokenID",
          "type": "uint256"
        },
        {
          "indexed": false,
          "internalType": "address[]",
          "name": "collaborators",
          "type": "address[]"
        },
        {
          "indexed": false,
          "internalType": "uint96[]",
          "name": "collabFraction",
          "type": "uint96[]"
        }
      ],
      "name": "CollaboratorsFee",
      "type": "event"
    },
    {
      "anonymous": false,
      "inputs": [
        {
          "indexed": false,
          "internalType": "address",
          "name": "currencyAddress",
          "type": "address"
        },
        {
          "indexed": false,
          "internalType": "bool",
          "name": "approving",
          "type": "bool"
        }
      ],
      "name": "CryptoApproved",
      "type": "event"
    },
    {
      "inputs": [
        {
          "internalType": "string",
          "name": "_contractType",
          "type": "string"
        },
        {
          "internalType": "address",
          "name": "_nftContAddress",
          "type": "address"
        },
        {
          "internalType": "address",
          "name": "_currencyAddress",
          "type": "address"
        },
        {
          "internalType": "address",
          "name": "_seller",
          "type": "address"
        },
        {
          "internalType": "address",
          "name": "_bidder",
          "type": "address"
        },
        {
          "internalType": "uint256",
          "name": "_tokenID",
          "type": "uint256"
        },
        {
          "internalType": "uint256",
          "name": "_bid",
          "type": "uint256"
        },
        {
          "internalType": "uint256",
          "name": "_copies",
          "type": "uint256"
        },
        {
          "internalType": "bytes",
          "name": "_bidderSig",
          "type": "bytes"
        },
        {
          "internalType": "bytes",
          "name": "_sellerSig",
          "type": "bytes"
        }
      ],
      "name": "acceptBid",
      "outputs": [],
      "stateMutability": "nonpayable",
      "type": "function"
    },
    {
      "inputs": [
        {
          "internalType": "string",
          "name": "name_",
          "type": "string"
        },
        {
          "internalType": "string",
          "name": "version_",
          "type": "string"
        }
      ],
      "name": "eip712FacetInit",
      "outputs": [],
      "stateMutability": "nonpayable",
      "type": "function"
    },
    {
      "inputs": [],
      "name": "getAddress",
      "outputs": [
        {
          "internalType": "address",
          "name": "",
          "type": "address"
        }
      ],
      "stateMutability": "view",
      "type": "function"
    },
    {
      "inputs": [],
      "name": "getAdminAddress",
      "outputs": [
        {
          "internalType": "address",
          "name": "",
          "type": "address"
        }
      ],
      "stateMutability": "view",
      "type": "function"
    },
    {
      "inputs": [
        {
          "internalType": "address",
          "name": "_currencyAddress",
          "type": "address"
        }
      ],
      "name": "getApprovedCrypto",
      "outputs": [
        {
          "internalType": "bool",
          "name": "",
          "type": "bool"
        }
      ],
      "stateMutability": "view",
      "type": "function"
    },
    {
      "inputs": [
        {
          "internalType": "address",
          "name": "_nftAddress",
          "type": "address"
        },
        {
          "internalType": "uint256",
          "name": "_tokenID",
          "type": "uint256"
        }
      ],
      "name": "getCollaborators",
      "outputs": [
        {
          "components": [
            {
              "internalType": "address[]",
              "name": "collaborators",
              "type": "address[]"
            },
            {
              "internalType": "uint96[]",
              "name": "collabFraction",
              "type": "uint96[]"
            }
          ],
          "internalType": "struct LibMarketStorage.Collaborators",
          "name": "",
          "type": "tuple"
        }
      ],
      "stateMutability": "view",
      "type": "function"
    },
    {
      "inputs": [],
      "name": "getCommissionPercentage",
      "outputs": [
        {
          "internalType": "uint96",
          "name": "",
          "type": "uint96"
        }
      ],
      "stateMutability": "view",
      "type": "function"
    },
    {
      "inputs": [],
      "name": "getName",
      "outputs": [
        {
          "internalType": "bytes32",
          "name": "",
          "type": "bytes32"
        }
      ],
      "stateMutability": "view",
      "type": "function"
    },
    {
      "inputs": [
        {
          "internalType": "string",
          "name": "name_",
          "type": "string"
        },
        {
          "internalType": "string",
          "name": "version_",
          "type": "string"
        }
      ],
      "name": "marketFacetInit",
      "outputs": [],
      "stateMutability": "nonpayable",
      "type": "function"
    },
    {
      "inputs": [
        {
          "internalType": "address",
          "name": "_currencyAddress",
          "type": "address"
        },
        {
          "internalType": "address",
          "name": "_nftContAddress",
          "type": "address"
        },
        {
          "internalType": "address",
          "name": "_payer",
          "type": "address"
        },
        {
          "internalType": "uint256",
          "name": "amount",
          "type": "uint256"
        },
        {
          "internalType": "uint256",
          "name": "_tokenID",
          "type": "uint256"
        }
      ],
      "name": "royaltyFeeDeduction",
      "outputs": [
        {
          "internalType": "uint256",
          "name": "",
          "type": "uint256"
        }
      ],
      "stateMutability": "nonpayable",
      "type": "function"
    },
    {
      "inputs": [
        {
          "internalType": "address",
          "name": "adminAddress_",
          "type": "address"
        }
      ],
      "name": "setAdminAddress",
      "outputs": [],
      "stateMutability": "nonpayable",
      "type": "function"
    },
    {
      "inputs": [
        {
          "internalType": "address",
          "name": "_currencyAddress",
          "type": "address"
        },
        {
          "internalType": "bool",
          "name": "approving",
          "type": "bool"
        }
      ],
      "name": "setApprovedCrypto",
      "outputs": [],
      "stateMutability": "nonpayable",
      "type": "function"
    },
    {
      "inputs": [
        {
          "internalType": "address",
          "name": "_nftAddress",
          "type": "address"
        },
        {
          "internalType": "uint256",
          "name": "_tokenID",
          "type": "uint256"
        },
        {
          "internalType": "address[]",
          "name": "_collaborators",
          "type": "address[]"
        },
        {
          "internalType": "uint96[]",
          "name": "_collabFraction",
          "type": "uint96[]"
        }
      ],
      "name": "setCollaborators",
      "outputs": [],
      "stateMutability": "nonpayable",
      "type": "function"
    },
    {
      "inputs": [
        {
          "internalType": "uint96",
          "name": "_commissionPercentage",
          "type": "uint96"
        }
      ],
      "name": "setCommissionPercentage",
      "outputs": [
        {
          "internalType": "bool",
          "name": "",
          "type": "bool"
        }
      ],
      "stateMutability": "nonpayable",
      "type": "function"
    }
  ],
  "bytecode": "0x608060405234801561001057600080fd5b50613ff1806100206000396000f3fe608060405234801561001057600080fd5b50600436106100e95760003560e01c806372b360a61161008c5780639e9666d9116100665780639e9666d91461025a578063a5dbd81414610276578063b2e6b91214610294578063dccf6253146102b2576100e9565b806372b360a6146101f257806384c6ba571461020e5780638f9d5a2b1461023e576100e9565b80631c5c32d5116100c85780631c5c32d51461016c5780632c1e816d1461018857806338cc4831146101a45780634a5ececd146101c2576100e9565b8062610207146100ee578063107262b11461011e57806317d7de7c1461014e575b600080fd5b61010860048036038101906101039190612962565b6102ce565b60405161011591906136ac565b60405180910390f35b61013860048036038101906101339190612a1d565b6104ec565b604051610145919061368a565b60405180910390f35b6101566107d6565b6040516101639190613436565b60405180910390f35b61018660048036038101906101819190612cdc565b6107ee565b005b6101a2600480360381019061019d9190612935565b610967565b005b6101ac610aea565b6040516101b991906132ba565b60405180910390f35b6101dc60048036038101906101d79190612d81565b610b22565b6040516101e9919061341b565b60405180910390f35b61020c60048036038101906102079190612a5d565b610c9c565b005b61022860048036038101906102239190612935565b610f18565b604051610235919061341b565b60405180910390f35b61025860048036038101906102539190612cdc565b610f7c565b005b610274600480360381019061026f9190612ba9565b610fc4565b005b61027e611555565b60405161028b91906136f0565b60405180910390f35b61029c61167e565b6040516102a991906132ba565b60405180910390f35b6102cc60048036038101906102c791906129dd565b6116b6565b005b600080600090508573ffffffffffffffffffffffffffffffffffffffff166000800160009054906101000a900473ffffffffffffffffffffffffffffffffffffffff1673ffffffffffffffffffffffffffffffffffffffff1614156104df57600086905060008890506000808373ffffffffffffffffffffffffffffffffffffffff16632a55205a888a6040518363ffffffff1660e01b81526004016103759291906136c7565b60006040518083038186803b15801561038d57600080fd5b505afa1580156103a1573d6000803e3d6000fd5b505050506040513d6000823e3d601f19601f820116820180604052508101906103ca9190612b04565b9150915060005b82518110156104d9578373ffffffffffffffffffffffffffffffffffffffff166323b872dd8b85848151811061040a57610409613c22565b5b602002602001015185858151811061042557610424613c22565b5b60200260200101516040518463ffffffff1660e01b815260040161044b9392919061330c565b602060405180830381600087803b15801561046557600080fd5b505af1158015610479573d6000803e3d6000fd5b505050506040513d601f19601f8201168201806040525081019061049d9190612b7c565b508181815181106104b1576104b0613c22565b5b6020026020010151866104c49190613912565b955080806104d190613b42565b9150506103d1565b50505050505b8091505095945050505050565b6104f4612451565b60006104fe611852565b90508060040160009054906101000a900473ffffffffffffffffffffffffffffffffffffffff1673ffffffffffffffffffffffffffffffffffffffff163373ffffffffffffffffffffffffffffffffffffffff1614806105ad57506000800160009054906101000a900473ffffffffffffffffffffffffffffffffffffffff1673ffffffffffffffffffffffffffffffffffffffff163373ffffffffffffffffffffffffffffffffffffffff16145b6105ec576040517f08c379a00000000000000000000000000000000000000000000000000000000081526004016105e39061366a565b60405180910390fd5b60006105f661187f565b9050610600612451565b8160020160008773ffffffffffffffffffffffffffffffffffffffff1673ffffffffffffffffffffffffffffffffffffffff16815260200190815260200160002060008681526020019081526020016000206000018054806020026020016040519081016040528092919081815260200182805480156106d557602002820191906000526020600020905b8160009054906101000a900473ffffffffffffffffffffffffffffffffffffffff1673ffffffffffffffffffffffffffffffffffffffff168152602001906001019080831161068b575b505050505081600001819052508160020160008773ffffffffffffffffffffffffffffffffffffffff1673ffffffffffffffffffffffffffffffffffffffff16815260200190815260200160002060008681526020019081526020016000206001018054806020026020016040519081016040528092919081815260200182805480156107bd57602002820191906000526020600020906000905b82829054906101000a90046bffffffffffffffffffffffff166bffffffffffffffffffffffff16815260200190600c0190602082600b010492830192600103820291508084116107705790505b5050505050816020018190525080935050505092915050565b6000806107e16118ac565b9050806003015491505090565b60006107f86118ac565b90506000801b816003015414801561081657506000801b8160040154145b610855576040517f08c379a000000000000000000000000000000000000000000000000000000000815260040161084c9061358a565b60405180910390fd5b600083511415801561086957506000825114155b6108a8576040517f08c379a000000000000000000000000000000000000000000000000000000000815260040161089f9061364a565b60405180910390fd5b60008380519060200120905060008380519060200120905060007f8b73c3c69bb8fe3d512ecc4cf759cc79239f7b179b0ffacaa9a75d522b39400f905082846003018190555081846004018190555046846001018190555061090b8184846118d9565b8460000181905550308460020160006101000a81548173ffffffffffffffffffffffffffffffffffffffff021916908373ffffffffffffffffffffffffffffffffffffffff160217905550808460050181905550505050505050565b6000610971611852565b90508060040160009054906101000a900473ffffffffffffffffffffffffffffffffffffffff1673ffffffffffffffffffffffffffffffffffffffff163373ffffffffffffffffffffffffffffffffffffffff161480610a2057506000800160009054906101000a900473ffffffffffffffffffffffffffffffffffffffff1673ffffffffffffffffffffffffffffffffffffffff163373ffffffffffffffffffffffffffffffffffffffff16145b610a5f576040517f08c379a0000000000000000000000000000000000000000000000000000000008152600401610a569061366a565b60405180910390fd5b6000610a6961187f565b9050828160030160006101000a81548173ffffffffffffffffffffffffffffffffffffffff021916908373ffffffffffffffffffffffffffffffffffffffff1602179055507f33b005d053f740768cddf56d4aae11b8b1fb294e749565266b2f2b20e80e9cdf83604051610add91906132ba565b60405180910390a1505050565b600080610af56118ac565b90508060020160009054906101000a900473ffffffffffffffffffffffffffffffffffffffff1691505090565b600080610b2d611852565b90508060040160009054906101000a900473ffffffffffffffffffffffffffffffffffffffff1673ffffffffffffffffffffffffffffffffffffffff163373ffffffffffffffffffffffffffffffffffffffff161480610bdc57506000800160009054906101000a900473ffffffffffffffffffffffffffffffffffffffff1673ffffffffffffffffffffffffffffffffffffffff163373ffffffffffffffffffffffffffffffffffffffff16145b610c1b576040517f08c379a0000000000000000000000000000000000000000000000000000000008152600401610c129061366a565b60405180910390fd5b6000610c2561187f565b9050838160010160006101000a8154816bffffffffffffffffffffffff02191690836bffffffffffffffffffffffff1602179055507fd9ca64d182fc7249309d686d75d501291017aa620a47f3344bc6f587448b59ee84604051610c8991906136f0565b60405180910390a1600192505050919050565b6000610ca6611852565b90508060040160009054906101000a900473ffffffffffffffffffffffffffffffffffffffff1673ffffffffffffffffffffffffffffffffffffffff163373ffffffffffffffffffffffffffffffffffffffff161480610d5557506000800160009054906101000a900473ffffffffffffffffffffffffffffffffffffffff1673ffffffffffffffffffffffffffffffffffffffff163373ffffffffffffffffffffffffffffffffffffffff16145b610d94576040517f08c379a0000000000000000000000000000000000000000000000000000000008152600401610d8b9061366a565b60405180910390fd5b6000610d9e61187f565b9050610da8612451565b868680806020026020016040519081016040528093929190818152602001838360200280828437600081840152601f19601f820116905080830192505050505050508160000181905250848480806020026020016040519081016040528093929190818152602001838360200280828437600081840152601f19601f820116905080830192505050505050508160200181905250808260020160008b73ffffffffffffffffffffffffffffffffffffffff1673ffffffffffffffffffffffffffffffffffffffff16815260200190815260200160002060008a81526020019081526020016000206000820151816000019080519060200190610eab92919061246b565b506020820151816001019080519060200190610ec89291906124f5565b509050507f3a72b6200a646e4f1476132bab86a1a8b22b7f21986c1d099413e69650832f35898989898989604051610f05969594939291906133c4565b60405180910390a1505050505050505050565b600080610f2361187f565b90508060000160008473ffffffffffffffffffffffffffffffffffffffff1673ffffffffffffffffffffffffffffffffffffffff16815260200190815260200160002060009054906101000a900460ff16915050919050565b6000610f86611852565b9050610f9283836107ee565b610fbf8160040160009054906101000a900473ffffffffffffffffffffffffffffffffffffffff16610967565b505050565b6000610fce611852565b90508060040160009054906101000a900473ffffffffffffffffffffffffffffffffffffffff1673ffffffffffffffffffffffffffffffffffffffff163373ffffffffffffffffffffffffffffffffffffffff16148061107d57506000800160009054906101000a900473ffffffffffffffffffffffffffffffffffffffff1673ffffffffffffffffffffffffffffffffffffffff163373ffffffffffffffffffffffffffffffffffffffff16145b6110bc576040517f08c379a00000000000000000000000000000000000000000000000000000000081526004016110b39061366a565b60405180910390fd5b60006110c661187f565b9050600115158160000160008c73ffffffffffffffffffffffffffffffffffffffff1673ffffffffffffffffffffffffffffffffffffffff16815260200190815260200160002060009054906101000a900460ff1615151461115d576040517f08c379a00000000000000000000000000000000000000000000000000000000081526004016111549061362a565b60405180910390fd5b61116c8b88878d8a898e611913565b6111ab576040517f08c379a00000000000000000000000000000000000000000000000000000000081526004016111a2906135aa565b60405180910390fd5b6111ba8b88878d8a888f61196b565b6111f9576040517f08c379a00000000000000000000000000000000000000000000000000000000081526004016111f0906135aa565b60405180910390fd5b60008a9050868173ffffffffffffffffffffffffffffffffffffffff166370a082318b6040518263ffffffff1660e01b815260040161123891906132ba565b60206040518083038186803b15801561125057600080fd5b505afa158015611264573d6000803e3d6000fd5b505050506040513d601f19601f820116820180604052508101906112889190612d54565b10156112c9576040517f08c379a00000000000000000000000000000000000000000000000000000000081526004016112c0906135ea565b60405180910390fd5b60008790506112d98c8b8a6119c3565b816112e49190613a24565b90508c73ffffffffffffffffffffffffffffffffffffffff166000800160009054906101000a900473ffffffffffffffffffffffffffffffffffffffff1673ffffffffffffffffffffffffffffffffffffffff1614156113595761134b8c8e8c848d6102ce565b816113569190613a24565b90505b60405160200161136890613290565b604051602081830303815290604052805190602001208e60405160200161138f9190613242565b604051602081830303815290604052805190602001201415611430576113b98c8e8c8e858e611add565b5060008d90508073ffffffffffffffffffffffffffffffffffffffff166323b872dd8d8d8d6040518463ffffffff1660e01b81526004016113fc9392919061330c565b600060405180830381600087803b15801561141657600080fd5b505af115801561142a573d6000803e3d6000fd5b50505050505b60405160200161143f906132a5565b604051602081830303815290604052805190602001208e6040516020016114669190613242565b604051602081830303815290604052805190602001201415611509576114908c8e8c8e858e611add565b5060008d90508073ffffffffffffffffffffffffffffffffffffffff1663f242432a8d8d8d8c6040518563ffffffff1660e01b81526004016114d59493929190613343565b600060405180830381600087803b1580156114ef57600080fd5b505af1158015611503573d6000803e3d6000fd5b50505050505b7f19ffb67d0adfde67ebbb974c6d8b740dc93d5aa107e918d3bea627c5fecef8d58a8c600160405161153d939291906132d5565b60405180910390a15050505050505050505050505050565b600080611560611852565b90508060040160009054906101000a900473ffffffffffffffffffffffffffffffffffffffff1673ffffffffffffffffffffffffffffffffffffffff163373ffffffffffffffffffffffffffffffffffffffff16148061160f57506000800160009054906101000a900473ffffffffffffffffffffffffffffffffffffffff1673ffffffffffffffffffffffffffffffffffffffff163373ffffffffffffffffffffffffffffffffffffffff16145b61164e576040517f08c379a00000000000000000000000000000000000000000000000000000000081526004016116459061366a565b60405180910390fd5b600061165861187f565b90508060010160009054906101000a90046bffffffffffffffffffffffff169250505090565b60008061168961187f565b90508060030160009054906101000a900473ffffffffffffffffffffffffffffffffffffffff1691505090565b60006116c0611852565b90508060040160009054906101000a900473ffffffffffffffffffffffffffffffffffffffff1673ffffffffffffffffffffffffffffffffffffffff163373ffffffffffffffffffffffffffffffffffffffff16148061176f57506000800160009054906101000a900473ffffffffffffffffffffffffffffffffffffffff1673ffffffffffffffffffffffffffffffffffffffff163373ffffffffffffffffffffffffffffffffffffffff16145b6117ae576040517f08c379a00000000000000000000000000000000000000000000000000000000081526004016117a59061366a565b60405180910390fd5b60006117b861187f565b9050828160000160008673ffffffffffffffffffffffffffffffffffffffff1673ffffffffffffffffffffffffffffffffffffffff16815260200190815260200160002060006101000a81548160ff0219169083151502179055507ff351943a6966bcc3eb6b4fc6d8c641a491c9e3f85e183a0992c98aa6523713e1848460405161184492919061339b565b60405180910390a150505050565b6000807fc8fcad8db84d3cc18b4c41d551ea0ee66dd599cde068d998e57d5e09332c131c90508091505090565b6000807f23a8b080129d29a012fab4572a713d8fd62f42f971351afe31751b09c12186aa90508091505090565b6000807fae36923e02a3e3934bc8e16cc335029655eed5d5801b3db8294179c633d8af4c90508091505090565b600083838346306040516020016118f49594939291906134b2565b6040516020818303038152906040528051906020012090509392505050565b6000806119238989898989611f14565b90508273ffffffffffffffffffffffffffffffffffffffff166119468286611f7a565b73ffffffffffffffffffffffffffffffffffffffff1614915050979650505050505050565b60008061197b8989898989611f14565b90508273ffffffffffffffffffffffffffffffffffffffff1661199e8286611f7a565b73ffffffffffffffffffffffffffffffffffffffff1614915050979650505050505050565b60008084905060006119d361187f565b905060006127108260010160009054906101000a90046bffffffffffffffffffffffff16611a019190613999565b6bffffffffffffffffffffffff1685611a1a91906139ca565b90508273ffffffffffffffffffffffffffffffffffffffff166323b872dd878460030160009054906101000a900473ffffffffffffffffffffffffffffffffffffffff16846040518463ffffffff1660e01b8152600401611a7d9392919061330c565b602060405180830381600087803b158015611a9757600080fd5b505af1158015611aab573d6000803e3d6000fd5b505050506040513d601f19601f82011682018060405250810190611acf9190612b7c565b508093505050509392505050565b600080879050838173ffffffffffffffffffffffffffffffffffffffff166370a08231886040518263ffffffff1660e01b8152600401611b1d91906132ba565b60206040518083038186803b158015611b3557600080fd5b505afa158015611b49573d6000803e3d6000fd5b505050506040513d601f19601f82011682018060405250810190611b6d9190612d54565b1015611bae576040517f08c379a0000000000000000000000000000000000000000000000000000000008152600401611ba5906135ea565b60405180910390fd5b6000611bb861187f565b9050611bc2612451565b60008690508260020160008b73ffffffffffffffffffffffffffffffffffffffff1673ffffffffffffffffffffffffffffffffffffffff168152602001908152602001600020600087815260200190815260200160002060405180604001604052908160008201805480602002602001604051908101604052809291908181526020018280548015611ca957602002820191906000526020600020905b8160009054906101000a900473ffffffffffffffffffffffffffffffffffffffff1673ffffffffffffffffffffffffffffffffffffffff1681526020019060010190808311611c5f575b5050505050815260200160018201805480602002602001604051908101604052809291908181526020018280548015611d3d57602002820191906000526020600020906000905b82829054906101000a90046bffffffffffffffffffffffff166bffffffffffffffffffffffff16815260200190600c0190602082600b01049283019260010382029150808411611cf05790505b505050505081525050915060005b826000015151811015611e7157600061271084602001518381518110611d7457611d73613c22565b5b60200260200101516bffffffffffffffffffffffff168a611d9591906139ca565b611d9f9190613968565b90508089611dad9190613a24565b92508573ffffffffffffffffffffffffffffffffffffffff166323b872dd8c86600001518581518110611de357611de2613c22565b5b6020026020010151846040518463ffffffff1660e01b8152600401611e0a9392919061330c565b602060405180830381600087803b158015611e2457600080fd5b505af1158015611e38573d6000803e3d6000fd5b505050506040513d601f19601f82011682018060405250810190611e5c9190612b7c565b50508080611e6990613b42565b915050611d4b565b508373ffffffffffffffffffffffffffffffffffffffff166323b872dd8a8a846040518463ffffffff1660e01b8152600401611eaf9392919061330c565b602060405180830381600087803b158015611ec957600080fd5b505af1158015611edd573d6000803e3d6000fd5b505050506040513d601f19601f82011682018060405250810190611f019190612b7c565b5060019450505050509695505050505050565b6000611f6f7f73a68255bef9b2d8772a65da56b8c433fcf3e468b3ec1670e127d24c73a90fc78787878787604051602001611f5496959493929190613451565b60405160208183030381529060405280519060200120611fa1565b905095945050505050565b6000806000611f898585611fbb565b91509150611f968161203e565b819250505092915050565b6000611fb4611fae612213565b836122b2565b9050919050565b600080604183511415611ffd5760008060006020860151925060408601519150606086015160001a9050611ff1878285856122e5565b94509450505050612037565b60408351141561202e5760008060208501519150604085015190506120238683836123f2565b935093505050612037565b60006002915091505b9250929050565b6000600481111561205257612051613bf3565b5b81600481111561206557612064613bf3565b5b141561207057612210565b6001600481111561208457612083613bf3565b5b81600481111561209757612096613bf3565b5b14156120d8576040517f08c379a00000000000000000000000000000000000000000000000000000000081526004016120cf9061354a565b60405180910390fd5b600260048111156120ec576120eb613bf3565b5b8160048111156120ff576120fe613bf3565b5b1415612140576040517f08c379a00000000000000000000000000000000000000000000000000000000081526004016121379061356a565b60405180910390fd5b6003600481111561215457612153613bf3565b5b81600481111561216757612166613bf3565b5b14156121a8576040517f08c379a000000000000000000000000000000000000000000000000000000000815260040161219f906135ca565b60405180910390fd5b6004808111156121bb576121ba613bf3565b5b8160048111156121ce576121cd613bf3565b5b141561220f576040517f08c379a00000000000000000000000000000000000000000000000000000000081526004016122069061360a565b60405180910390fd5b5b50565b60008061221e6118ac565b90508060020160009054906101000a900473ffffffffffffffffffffffffffffffffffffffff1673ffffffffffffffffffffffffffffffffffffffff163073ffffffffffffffffffffffffffffffffffffffff161480156122825750806001015446145b156122945780600001549150506122af565b6122ab8160050154826003015483600401546118d9565b9150505b90565b600082826040516020016122c7929190613259565b60405160208183030381529060405280519060200120905092915050565b6000807f7fffffffffffffffffffffffffffffff5d576e7357a4501ddfe92f46681b20a08360001c11156123205760006003915091506123e9565b601b8560ff16141580156123385750601c8560ff1614155b1561234a5760006004915091506123e9565b60006001878787876040516000815260200160405260405161236f9493929190613505565b6020604051602081039080840390855afa158015612391573d6000803e3d6000fd5b505050602060405103519050600073ffffffffffffffffffffffffffffffffffffffff168173ffffffffffffffffffffffffffffffffffffffff1614156123e0576000600192509250506123e9565b80600092509250505b94509492505050565b60008060007f7fffffffffffffffffffffffffffffffffffffffffffffffffffffffffffffff60001b841690506000601b60ff8660001c901c6124359190613912565b9050612443878288856122e5565b935093505050935093915050565b604051806040016040528060608152602001606081525090565b8280548282559060005260206000209081019282156124e4579160200282015b828111156124e35782518260006101000a81548173ffffffffffffffffffffffffffffffffffffffff021916908373ffffffffffffffffffffffffffffffffffffffff1602179055509160200191906001019061248b565b5b5090506124f191906125bd565b5090565b828054828255906000526020600020906001016002900481019282156125ac5791602002820160005b8382111561257257835183826101000a8154816bffffffffffffffffffffffff02191690836bffffffffffffffffffffffff1602179055509260200192600c01602081600b0104928301926001030261251e565b80156125aa5782816101000a8154906bffffffffffffffffffffffff0219169055600c01602081600b01049283019260010302612572565b505b5090506125b991906125bd565b5090565b5b808211156125d65760008160009055506001016125be565b5090565b60006125ed6125e884613730565b61370b565b905080838252602082019050828560208602820111156126105761260f613c8a565b5b60005b8581101561264057816126268882612753565b845260208401935060208301925050600181019050612613565b5050509392505050565b600061265d6126588461375c565b61370b565b905080838252602082019050828560208602820111156126805761267f613c8a565b5b60005b858110156126b05781612696888261290b565b845260208401935060208301925050600181019050612683565b5050509392505050565b60006126cd6126c884613788565b61370b565b9050828152602081018484840111156126e9576126e8613c8f565b5b6126f4848285613acf565b509392505050565b600061270f61270a846137b9565b61370b565b90508281526020810184848401111561272b5761272a613c8f565b5b612736848285613acf565b509392505050565b60008135905061274d81613f5f565b92915050565b60008151905061276281613f5f565b92915050565b60008083601f84011261277e5761277d613c85565b5b8235905067ffffffffffffffff81111561279b5761279a613c80565b5b6020830191508360208202830111156127b7576127b6613c8a565b5b9250929050565b600082601f8301126127d3576127d2613c85565b5b81516127e38482602086016125da565b91505092915050565b600082601f83011261280157612800613c85565b5b815161281184826020860161264a565b91505092915050565b60008083601f8401126128305761282f613c85565b5b8235905067ffffffffffffffff81111561284d5761284c613c80565b5b60208301915083602082028301111561286957612868613c8a565b5b9250929050565b60008135905061287f81613f76565b92915050565b60008151905061289481613f76565b92915050565b600082601f8301126128af576128ae613c85565b5b81356128bf8482602086016126ba565b91505092915050565b600082601f8301126128dd576128dc613c85565b5b81356128ed8482602086016126fc565b91505092915050565b60008135905061290581613f8d565b92915050565b60008151905061291a81613f8d565b92915050565b60008135905061292f81613fa4565b92915050565b60006020828403121561294b5761294a613c99565b5b60006129598482850161273e565b91505092915050565b600080600080600060a0868803121561297e5761297d613c99565b5b600061298c8882890161273e565b955050602061299d8882890161273e565b94505060406129ae8882890161273e565b93505060606129bf888289016128f6565b92505060806129d0888289016128f6565b9150509295509295909350565b600080604083850312156129f4576129f3613c99565b5b6000612a028582860161273e565b9250506020612a1385828601612870565b9150509250929050565b60008060408385031215612a3457612a33613c99565b5b6000612a428582860161273e565b9250506020612a53858286016128f6565b9150509250929050565b60008060008060008060808789031215612a7a57612a79613c99565b5b6000612a8889828a0161273e565b9650506020612a9989828a016128f6565b955050604087013567ffffffffffffffff811115612aba57612ab9613c94565b5b612ac689828a01612768565b9450945050606087013567ffffffffffffffff811115612ae957612ae8613c94565b5b612af589828a0161281a565b92509250509295509295509295565b60008060408385031215612b1b57612b1a613c99565b5b600083015167ffffffffffffffff811115612b3957612b38613c94565b5b612b45858286016127be565b925050602083015167ffffffffffffffff811115612b6657612b65613c94565b5b612b72858286016127ec565b9150509250929050565b600060208284031215612b9257612b91613c99565b5b6000612ba084828501612885565b91505092915050565b6000806000806000806000806000806101408b8d031215612bcd57612bcc613c99565b5b60008b013567ffffffffffffffff811115612beb57612bea613c94565b5b612bf78d828e016128c8565b9a50506020612c088d828e0161273e565b9950506040612c198d828e0161273e565b9850506060612c2a8d828e0161273e565b9750506080612c3b8d828e0161273e565b96505060a0612c4c8d828e016128f6565b95505060c0612c5d8d828e016128f6565b94505060e0612c6e8d828e016128f6565b9350506101008b013567ffffffffffffffff811115612c9057612c8f613c94565b5b612c9c8d828e0161289a565b9250506101208b013567ffffffffffffffff811115612cbe57612cbd613c94565b5b612cca8d828e0161289a565b9150509295989b9194979a5092959850565b60008060408385031215612cf357612cf2613c99565b5b600083013567ffffffffffffffff811115612d1157612d10613c94565b5b612d1d858286016128c8565b925050602083013567ffffffffffffffff811115612d3e57612d3d613c94565b5b612d4a858286016128c8565b9150509250929050565b600060208284031215612d6a57612d69613c99565b5b6000612d788482850161290b565b91505092915050565b600060208284031215612d9757612d96613c99565b5b6000612da584828501612920565b91505092915050565b6000612dba8383612dde565b60208301905092915050565b6000612dd28383613224565b60208301905092915050565b612de781613a58565b82525050565b612df681613a58565b82525050565b6000612e088385613884565b9350612e13826137ea565b8060005b85811015612e4c57612e2982846138e4565b612e338882612dae565b9750612e3e8361383f565b925050600181019050612e17565b5085925050509392505050565b6000612e648261381e565b612e6e8185613873565b9350612e79836137f4565b8060005b83811015612eaa578151612e918882612dae565b9750612e9c8361384c565b925050600181019050612e7d565b5085935050505092915050565b6000612ec383856138a6565b9350612ece82613804565b8060005b85811015612f0757612ee482846138fb565b612eee8882612dc6565b9750612ef983613859565b925050600181019050612ed2565b5085925050509392505050565b6000612f1f82613829565b612f298185613895565b9350612f348361380e565b8060005b83811015612f65578151612f4c8882612dc6565b9750612f5783613866565b925050600181019050612f38565b5085935050505092915050565b612f7b81613a6a565b82525050565b612f8a81613a76565b82525050565b612fa1612f9c82613a76565b613b8b565b82525050565b6000612fb282613834565b612fbc81856138d9565b9350612fcc818560208601613ade565b80840191505092915050565b6000612fe56018836138c8565b9150612ff082613caf565b602082019050919050565b6000613008601f836138c8565b915061301382613cd8565b602082019050919050565b600061302b6013836138c8565b915061303682613d01565b602082019050919050565b600061304e601a836138c8565b915061305982613d2a565b602082019050919050565b60006130716002836138d9565b915061307c82613d53565b600282019050919050565b60006130946022836138c8565b915061309f82613d7c565b604082019050919050565b60006130b76028836138c8565b91506130c282613dcb565b604082019050919050565b60006130da6006836138d9565b91506130e582613e1a565b600682019050919050565b60006130fd6022836138c8565b915061310882613e43565b604082019050919050565b6000613120602a836138c8565b915061312b82613e92565b604082019050919050565b60006131436007836138d9565b915061314e82613ee1565b600782019050919050565b6000613166600e836138c8565b915061317182613f0a565b602082019050919050565b60006131896000836138b7565b915061319482613f33565b600082019050919050565b60006131ac6013836138c8565b91506131b782613f36565b602082019050919050565b600060408301600083015184820360008601526131df8282612e59565b915050602083015184820360208601526131f98282612f14565b9150508091505092915050565b61320f81613aa0565b82525050565b61321e81613aaa565b82525050565b61322d81613ab7565b82525050565b61323c81613ab7565b82525050565b600061324e8284612fa7565b915081905092915050565b600061326482613064565b91506132708285612f90565b6020820191506132808284612f90565b6020820191508190509392505050565b600061329b826130cd565b9150819050919050565b60006132b082613136565b9150819050919050565b60006020820190506132cf6000830184612ded565b92915050565b60006060820190506132ea6000830186612ded565b6132f76020830185612ded565b6133046040830184612f72565b949350505050565b60006060820190506133216000830186612ded565b61332e6020830185612ded565b61333b6040830184613206565b949350505050565b600060a0820190506133586000830187612ded565b6133656020830186612ded565b6133726040830185613206565b61337f6060830184613206565b81810360808301526133908161317c565b905095945050505050565b60006040820190506133b06000830185612ded565b6133bd6020830184612f72565b9392505050565b60006080820190506133d96000830189612ded565b6133e66020830188613206565b81810360408301526133f9818688612dfc565b9050818103606083015261340e818486612eb7565b9050979650505050505050565b60006020820190506134306000830184612f72565b92915050565b600060208201905061344b6000830184612f81565b92915050565b600060c0820190506134666000830189612f81565b6134736020830188612ded565b6134806040830187613206565b61348d6060830186613206565b61349a6080830185612ded565b6134a760a0830184613206565b979650505050505050565b600060a0820190506134c76000830188612f81565b6134d46020830187612f81565b6134e16040830186612f81565b6134ee6060830185613206565b6134fb6080830184612ded565b9695505050505050565b600060808201905061351a6000830187612f81565b6135276020830186613215565b6135346040830185612f81565b6135416060830184612f81565b95945050505050565b6000602082019050818103600083015261356381612fd8565b9050919050565b6000602082019050818103600083015261358381612ffb565b9050919050565b600060208201905081810360008301526135a38161301e565b9050919050565b600060208201905081810360008301526135c381613041565b9050919050565b600060208201905081810360008301526135e381613087565b9050919050565b60006020820190508181036000830152613603816130aa565b9050919050565b60006020820190508181036000830152613623816130f0565b9050919050565b6000602082019050818103600083015261364381613113565b9050919050565b6000602082019050818103600083015261366381613159565b9050919050565b600060208201905081810360008301526136838161319f565b9050919050565b600060208201905081810360008301526136a481846131c2565b905092915050565b60006020820190506136c16000830184613206565b92915050565b60006040820190506136dc6000830185613206565b6136e96020830184613206565b9392505050565b60006020820190506137056000830184613233565b92915050565b6000613715613726565b90506137218282613b11565b919050565b6000604051905090565b600067ffffffffffffffff82111561374b5761374a613c51565b5b602082029050602081019050919050565b600067ffffffffffffffff82111561377757613776613c51565b5b602082029050602081019050919050565b600067ffffffffffffffff8211156137a3576137a2613c51565b5b6137ac82613c9e565b9050602081019050919050565b600067ffffffffffffffff8211156137d4576137d3613c51565b5b6137dd82613c9e565b9050602081019050919050565b6000819050919050565b6000819050602082019050919050565b6000819050919050565b6000819050602082019050919050565b600081519050919050565b600081519050919050565b600081519050919050565b6000602082019050919050565b6000602082019050919050565b6000602082019050919050565b6000602082019050919050565b600082825260208201905092915050565b600082825260208201905092915050565b600082825260208201905092915050565b600082825260208201905092915050565b600082825260208201905092915050565b600082825260208201905092915050565b600081905092915050565b60006138f3602084018461273e565b905092915050565b600061390a6020840184612920565b905092915050565b600061391d82613aa0565b915061392883613aa0565b9250827fffffffffffffffffffffffffffffffffffffffffffffffffffffffffffffffff0382111561395d5761395c613b95565b5b828201905092915050565b600061397382613aa0565b915061397e83613aa0565b92508261398e5761398d613bc4565b5b828204905092915050565b60006139a482613ab7565b91506139af83613ab7565b9250826139bf576139be613bc4565b5b828204905092915050565b60006139d582613aa0565b91506139e083613aa0565b9250817fffffffffffffffffffffffffffffffffffffffffffffffffffffffffffffffff0483118215151615613a1957613a18613b95565b5b828202905092915050565b6000613a2f82613aa0565b9150613a3a83613aa0565b925082821015613a4d57613a4c613b95565b5b828203905092915050565b6000613a6382613a80565b9050919050565b60008115159050919050565b6000819050919050565b600073ffffffffffffffffffffffffffffffffffffffff82169050919050565b6000819050919050565b600060ff82169050919050565b60006bffffffffffffffffffffffff82169050919050565b82818337600083830152505050565b60005b83811015613afc578082015181840152602081019050613ae1565b83811115613b0b576000848401525b50505050565b613b1a82613c9e565b810181811067ffffffffffffffff82111715613b3957613b38613c51565b5b80604052505050565b6000613b4d82613aa0565b91507fffffffffffffffffffffffffffffffffffffffffffffffffffffffffffffffff821415613b8057613b7f613b95565b5b600182019050919050565b6000819050919050565b7f4e487b7100000000000000000000000000000000000000000000000000000000600052601160045260246000fd5b7f4e487b7100000000000000000000000000000000000000000000000000000000600052601260045260246000fd5b7f4e487b7100000000000000000000000000000000000000000000000000000000600052602160045260246000fd5b7f4e487b7100000000000000000000000000000000000000000000000000000000600052603260045260246000fd5b7f4e487b7100000000000000000000000000000000000000000000000000000000600052604160045260246000fd5b600080fd5b600080fd5b600080fd5b600080fd5b600080fd5b600080fd5b6000601f19601f8301169050919050565b7f45434453413a20696e76616c6964207369676e61747572650000000000000000600082015250565b7f45434453413a20696e76616c6964207369676e6174757265206c656e67746800600082015250565b7f414c52454144595f494e495449414c495a454400000000000000000000000000600082015250565b7f42696464657273206f66666572206e6f74207665726966696564000000000000600082015250565b7f1901000000000000000000000000000000000000000000000000000000000000600082015250565b7f45434453413a20696e76616c6964207369676e6174757265202773272076616c60008201527f7565000000000000000000000000000000000000000000000000000000000000602082015250565b7f455243323020696e207468652070617965722061646472657373206973206e6f60008201527f7420656e6f756768000000000000000000000000000000000000000000000000602082015250565b7f4552433732310000000000000000000000000000000000000000000000000000600082015250565b7f45434453413a20696e76616c6964207369676e6174757265202776272076616c60008201527f7565000000000000000000000000000000000000000000000000000000000000602082015250565b7f4e6f7420616e20617070726f7665642063727970746f63757272656e6379206660008201527f6f722062696464696e6700000000000000000000000000000000000000000000602082015250565b7f4552433131353500000000000000000000000000000000000000000000000000600082015250565b7f494e56414c49445f504152414d53000000000000000000000000000000000000600082015250565b50565b7f4e6f74206d65646961206e6f72206f776e657200000000000000000000000000600082015250565b613f6881613a58565b8114613f7357600080fd5b50565b613f7f81613a6a565b8114613f8a57600080fd5b50565b613f9681613aa0565b8114613fa157600080fd5b50565b613fad81613ab7565b8114613fb857600080fd5b5056fea2646970667358221220eebb19c9951129afeb109693dc16e9375aa7e4921f171f218431144caf154ef664736f6c63430008060033",
  "linkReferences": {},
  "deployedLinkReferences": {}
}