{
  "_format": "hh-sol-artifact-1",
  "contractName": "MarketFacet",
  "sourceName": "contracts/facets/Market/MarketFacet.sol",
  "abi": [
    {
      "inputs": [
        {
          "internalType": "string",
          "name": "_contractType",
          "type": "string"
        },
        {
          "internalType": "address",
          "name": "_nftContAddress",
          "type": "address"
        },
        {
          "internalType": "address",
          "name": "_currencyAddress",
          "type": "address"
        },
        {
          "internalType": "address",
          "name": "_seller",
          "type": "address"
        },
        {
          "internalType": "address",
          "name": "_bidder",
          "type": "address"
        },
        {
          "internalType": "uint256",
          "name": "_tokenID",
          "type": "uint256"
        },
        {
          "internalType": "uint256",
          "name": "_bid",
          "type": "uint256"
        },
        {
          "internalType": "uint256",
          "name": "_copies",
          "type": "uint256"
        },
        {
          "internalType": "bytes",
          "name": "_bidderSig",
          "type": "bytes"
        },
        {
          "internalType": "bytes",
          "name": "_sellerSig",
          "type": "bytes"
        }
      ],
      "name": "acceptBid",
      "outputs": [],
      "stateMutability": "nonpayable",
      "type": "function"
    },
    {
      "inputs": [
        {
          "internalType": "string",
          "name": "name_",
          "type": "string"
        },
        {
          "internalType": "string",
          "name": "version_",
          "type": "string"
        }
      ],
      "name": "eip712FacetInit",
      "outputs": [],
      "stateMutability": "nonpayable",
      "type": "function"
    },
    {
      "inputs": [],
      "name": "getAddress",
      "outputs": [
        {
          "internalType": "address",
          "name": "",
          "type": "address"
        }
      ],
      "stateMutability": "view",
      "type": "function"
    },
    {
      "inputs": [],
      "name": "getAdminAddress",
      "outputs": [
        {
          "internalType": "address",
          "name": "",
          "type": "address"
        }
      ],
      "stateMutability": "view",
      "type": "function"
    },
    {
      "inputs": [
        {
          "internalType": "address",
          "name": "_currencyAddress",
          "type": "address"
        }
      ],
      "name": "getApprovedCrypto",
      "outputs": [
        {
          "internalType": "bool",
          "name": "",
          "type": "bool"
        }
      ],
      "stateMutability": "view",
      "type": "function"
    },
    {
      "inputs": [],
      "name": "getCommissionPercentage",
      "outputs": [
        {
          "internalType": "uint96",
          "name": "",
          "type": "uint96"
        }
      ],
      "stateMutability": "view",
      "type": "function"
    },
    {
      "inputs": [],
      "name": "getName",
      "outputs": [
        {
          "internalType": "bytes32",
          "name": "",
          "type": "bytes32"
        }
      ],
      "stateMutability": "view",
      "type": "function"
    },
    {
      "inputs": [
        {
          "internalType": "string",
          "name": "name_",
          "type": "string"
        },
        {
          "internalType": "string",
          "name": "version_",
          "type": "string"
        }
      ],
      "name": "marketFacetInit",
      "outputs": [],
      "stateMutability": "nonpayable",
      "type": "function"
    },
    {
      "inputs": [
        {
          "internalType": "address",
          "name": "adminAddress_",
          "type": "address"
        }
      ],
      "name": "setAdminAddress",
      "outputs": [],
      "stateMutability": "nonpayable",
      "type": "function"
    },
    {
      "inputs": [
        {
          "internalType": "address",
          "name": "_currencyAddress",
          "type": "address"
        },
        {
          "internalType": "bool",
          "name": "approving",
          "type": "bool"
        }
      ],
      "name": "setApprovedCrypto",
      "outputs": [],
      "stateMutability": "nonpayable",
      "type": "function"
    },
    {
      "inputs": [
        {
          "internalType": "address",
          "name": "_nftAddress",
          "type": "address"
        },
        {
          "internalType": "uint256",
          "name": "_tokenID",
          "type": "uint256"
        },
        {
          "internalType": "address[]",
          "name": "_collaborators",
          "type": "address[]"
        },
        {
          "internalType": "uint96[]",
          "name": "_collabFraction",
          "type": "uint96[]"
        }
      ],
      "name": "setCollaborators",
      "outputs": [],
      "stateMutability": "nonpayable",
      "type": "function"
    },
    {
      "inputs": [
        {
          "internalType": "uint96",
          "name": "_commissionPercentage",
          "type": "uint96"
        }
      ],
      "name": "setCommissionPercentage",
      "outputs": [
        {
          "internalType": "bool",
          "name": "",
          "type": "bool"
        }
      ],
      "stateMutability": "nonpayable",
      "type": "function"
    }
  ],
  "bytecode": "0x608060405234801561001057600080fd5b506133a0806100206000396000f3fe608060405234801561001057600080fd5b50600436106100b45760003560e01c806384c6ba571161007157806384c6ba57146101795780638f9d5a2b146101a95780639e9666d9146101c5578063a5dbd814146101e1578063b2e6b912146101ff578063dccf62531461021d576100b4565b806317d7de7c146100b95780631c5c32d5146100d75780632c1e816d146100f357806338cc48311461010f5780634a5ececd1461012d57806372b360a61461015d575b600080fd5b6100c1610239565b6040516100ce919061296a565b60405180910390f35b6100f160048036038101906100ec91906124cf565b610251565b005b61010d6004803603810190610108919061221b565b6103ca565b005b610117610516565b60405161012491906128a5565b60405180910390f35b61014760048036038101906101429190612574565b61054e565b604051610154919061294f565b60405180910390f35b610177600480360381019061017291906122c8565b610691565b005b610193600480360381019061018e919061221b565b6108cc565b6040516101a0919061294f565b60405180910390f35b6101c360048036038101906101be91906124cf565b610930565b005b6101df60048036038101906101da919061239c565b610978565b005b6101e9610e74565b6040516101f69190612be7565b60405180910390f35b610207610f9d565b60405161021491906128a5565b60405180910390f35b61023760048036038101906102329190612248565b610fd5565b005b600080610244611138565b9050806003015491505090565b600061025b611138565b90506000801b816003015414801561027957506000801b8160040154145b6102b8576040517f08c379a00000000000000000000000000000000000000000000000000000000081526004016102af90612abe565b60405180910390fd5b60008351141580156102cc57506000825114155b61030b576040517f08c379a000000000000000000000000000000000000000000000000000000000815260040161030290612b7e565b60405180910390fd5b60008380519060200120905060008380519060200120905060007f8b73c3c69bb8fe3d512ecc4cf759cc79239f7b179b0ffacaa9a75d522b39400f905082846003018190555081846004018190555046846001018190555061036e818484611165565b8460000181905550308460020160006101000a81548173ffffffffffffffffffffffffffffffffffffffff021916908373ffffffffffffffffffffffffffffffffffffffff160217905550808460050181905550505050505050565b60006103d461119f565b90508060040160009054906101000a900473ffffffffffffffffffffffffffffffffffffffff1673ffffffffffffffffffffffffffffffffffffffff163373ffffffffffffffffffffffffffffffffffffffff16148061048357506000800160009054906101000a900473ffffffffffffffffffffffffffffffffffffffff1673ffffffffffffffffffffffffffffffffffffffff163373ffffffffffffffffffffffffffffffffffffffff16145b6104c2576040517f08c379a00000000000000000000000000000000000000000000000000000000081526004016104b990612b9e565b60405180910390fd5b60006104cc6111cc565b9050828160030160006101000a81548173ffffffffffffffffffffffffffffffffffffffff021916908373ffffffffffffffffffffffffffffffffffffffff160217905550505050565b600080610521611138565b90508060020160009054906101000a900473ffffffffffffffffffffffffffffffffffffffff1691505090565b60008061055961119f565b90508060040160009054906101000a900473ffffffffffffffffffffffffffffffffffffffff1673ffffffffffffffffffffffffffffffffffffffff163373ffffffffffffffffffffffffffffffffffffffff16148061060857506000800160009054906101000a900473ffffffffffffffffffffffffffffffffffffffff1673ffffffffffffffffffffffffffffffffffffffff163373ffffffffffffffffffffffffffffffffffffffff16145b610647576040517f08c379a000000000000000000000000000000000000000000000000000000000815260040161063e90612b9e565b60405180910390fd5b60006106516111cc565b9050838160010160006101000a8154816bffffffffffffffffffffffff02191690836bffffffffffffffffffffffff160217905550600192505050919050565b600061069b61119f565b90508060040160009054906101000a900473ffffffffffffffffffffffffffffffffffffffff1673ffffffffffffffffffffffffffffffffffffffff163373ffffffffffffffffffffffffffffffffffffffff16148061074a57506000800160009054906101000a900473ffffffffffffffffffffffffffffffffffffffff1673ffffffffffffffffffffffffffffffffffffffff163373ffffffffffffffffffffffffffffffffffffffff16145b610789576040517f08c379a000000000000000000000000000000000000000000000000000000000815260040161078090612b9e565b60405180910390fd5b60006107936111cc565b905061079d611e73565b868680806020026020016040519081016040528093929190818152602001838360200280828437600081840152601f19601f820116905080830192505050505050508160000181905250848480806020026020016040519081016040528093929190818152602001838360200280828437600081840152601f19601f820116905080830192505050505050508160200181905250808260020160008b73ffffffffffffffffffffffffffffffffffffffff1673ffffffffffffffffffffffffffffffffffffffff16815260200190815260200160002060008a815260200190815260200160002060008201518160000190805190602001906108a0929190611e8d565b5060208201518160010190805190602001906108bd929190611f17565b50905050505050505050505050565b6000806108d76111cc565b90508060000160008473ffffffffffffffffffffffffffffffffffffffff1673ffffffffffffffffffffffffffffffffffffffff16815260200190815260200160002060009054906101000a900460ff16915050919050565b600061093a61119f565b90506109468383610251565b6109738160040160009054906101000a900473ffffffffffffffffffffffffffffffffffffffff166103ca565b505050565b600061098261119f565b90508060040160009054906101000a900473ffffffffffffffffffffffffffffffffffffffff1673ffffffffffffffffffffffffffffffffffffffff163373ffffffffffffffffffffffffffffffffffffffff161480610a3157506000800160009054906101000a900473ffffffffffffffffffffffffffffffffffffffff1673ffffffffffffffffffffffffffffffffffffffff163373ffffffffffffffffffffffffffffffffffffffff16145b610a70576040517f08c379a0000000000000000000000000000000000000000000000000000000008152600401610a6790612b9e565b60405180910390fd5b6000610a7a6111cc565b9050600115158160000160008c73ffffffffffffffffffffffffffffffffffffffff1673ffffffffffffffffffffffffffffffffffffffff16815260200190815260200160002060009054906101000a900460ff16151514610b11576040517f08c379a0000000000000000000000000000000000000000000000000000000008152600401610b0890612b5e565b60405180910390fd5b610b208b88878d8a898e6111f9565b610b5f576040517f08c379a0000000000000000000000000000000000000000000000000000000008152600401610b5690612ade565b60405180910390fd5b610b6e8b88878d8a888f611251565b610bad576040517f08c379a0000000000000000000000000000000000000000000000000000000008152600401610ba490612ade565b60405180910390fd5b60008a9050868173ffffffffffffffffffffffffffffffffffffffff166370a082318b6040518263ffffffff1660e01b8152600401610bec91906128a5565b60206040518083038186803b158015610c0457600080fd5b505afa158015610c18573d6000803e3d6000fd5b505050506040513d601f19601f82011682018060405250810190610c3c9190612547565b1015610c7d576040517f08c379a0000000000000000000000000000000000000000000000000000000008152600401610c7490612b1e565b60405180910390fd5b6000879050610c8d8c8b8a6112a9565b81610c989190612dd3565b9050610ca78c8e8c848d6113c3565b81610cb29190612dd3565b9050604051602001610cc39061287b565b604051602081830303815290604052805190602001208e604051602001610cea919061282d565b604051602081830303815290604052805190602001201415610d8b57610d148c8e8c8e858e6114ff565b5060008d90508073ffffffffffffffffffffffffffffffffffffffff166323b872dd8d8d8d6040518463ffffffff1660e01b8152600401610d57939291906128c0565b600060405180830381600087803b158015610d7157600080fd5b505af1158015610d85573d6000803e3d6000fd5b50505050505b604051602001610d9a90612890565b604051602081830303815290604052805190602001208e604051602001610dc1919061282d565b604051602081830303815290604052805190602001201415610e6457610deb8c8e8c8e858e6114ff565b5060008d90508073ffffffffffffffffffffffffffffffffffffffff1663f242432a8d8d8d8c6040518563ffffffff1660e01b8152600401610e3094939291906128f7565b600060405180830381600087803b158015610e4a57600080fd5b505af1158015610e5e573d6000803e3d6000fd5b50505050505b5050505050505050505050505050565b600080610e7f61119f565b90508060040160009054906101000a900473ffffffffffffffffffffffffffffffffffffffff1673ffffffffffffffffffffffffffffffffffffffff163373ffffffffffffffffffffffffffffffffffffffff161480610f2e57506000800160009054906101000a900473ffffffffffffffffffffffffffffffffffffffff1673ffffffffffffffffffffffffffffffffffffffff163373ffffffffffffffffffffffffffffffffffffffff16145b610f6d576040517f08c379a0000000000000000000000000000000000000000000000000000000008152600401610f6490612b9e565b60405180910390fd5b6000610f776111cc565b90508060010160009054906101000a90046bffffffffffffffffffffffff169250505090565b600080610fa86111cc565b90508060030160009054906101000a900473ffffffffffffffffffffffffffffffffffffffff1691505090565b6000610fdf61119f565b90508060040160009054906101000a900473ffffffffffffffffffffffffffffffffffffffff1673ffffffffffffffffffffffffffffffffffffffff163373ffffffffffffffffffffffffffffffffffffffff16148061108e57506000800160009054906101000a900473ffffffffffffffffffffffffffffffffffffffff1673ffffffffffffffffffffffffffffffffffffffff163373ffffffffffffffffffffffffffffffffffffffff16145b6110cd576040517f08c379a00000000000000000000000000000000000000000000000000000000081526004016110c490612b9e565b60405180910390fd5b60006110d76111cc565b9050828160000160008673ffffffffffffffffffffffffffffffffffffffff1673ffffffffffffffffffffffffffffffffffffffff16815260200190815260200160002060006101000a81548160ff02191690831515021790555050505050565b6000807fae36923e02a3e3934bc8e16cc335029655eed5d5801b3db8294179c633d8af4c90508091505090565b600083838346306040516020016111809594939291906129e6565b6040516020818303038152906040528051906020012090509392505050565b6000807fc8fcad8db84d3cc18b4c41d551ea0ee66dd599cde068d998e57d5e09332c131c90508091505090565b6000807f23a8b080129d29a012fab4572a713d8fd62f42f971351afe31751b09c12186aa90508091505090565b6000806112098989898989611936565b90508273ffffffffffffffffffffffffffffffffffffffff1661122c828661199c565b73ffffffffffffffffffffffffffffffffffffffff1614915050979650505050505050565b6000806112618989898989611936565b90508273ffffffffffffffffffffffffffffffffffffffff16611284828661199c565b73ffffffffffffffffffffffffffffffffffffffff1614915050979650505050505050565b60008084905060006112b96111cc565b905060006127108260010160009054906101000a90046bffffffffffffffffffffffff166112e79190612d48565b6bffffffffffffffffffffffff16856113009190612d79565b90508273ffffffffffffffffffffffffffffffffffffffff166323b872dd878460030160009054906101000a900473ffffffffffffffffffffffffffffffffffffffff16846040518463ffffffff1660e01b8152600401611363939291906128c0565b602060405180830381600087803b15801561137d57600080fd5b505af1158015611391573d6000803e3d6000fd5b505050506040513d601f19601f820116820180604052508101906113b5919061236f565b508093505050509392505050565b60008085905060008790506000808373ffffffffffffffffffffffffffffffffffffffff16632a55205a87896040518363ffffffff1660e01b815260040161140c929190612bbe565b604080518083038186803b15801561142357600080fd5b505afa158015611437573d6000803e3d6000fd5b505050506040513d601f19601f8201168201806040525081019061145b9190612288565b915091508273ffffffffffffffffffffffffffffffffffffffff166323b872dd8984846040518463ffffffff1660e01b815260040161149c939291906128c0565b602060405180830381600087803b1580156114b657600080fd5b505af11580156114ca573d6000803e3d6000fd5b505050506040513d601f19601f820116820180604052508101906114ee919061236f565b508094505050505095945050505050565b600080879050838173ffffffffffffffffffffffffffffffffffffffff166370a08231886040518263ffffffff1660e01b815260040161153f91906128a5565b60206040518083038186803b15801561155757600080fd5b505afa15801561156b573d6000803e3d6000fd5b505050506040513d601f19601f8201168201806040525081019061158f9190612547565b10156115d0576040517f08c379a00000000000000000000000000000000000000000000000000000000081526004016115c790612b1e565b60405180910390fd5b60006115da6111cc565b90506115e4611e73565b60008690508260020160008b73ffffffffffffffffffffffffffffffffffffffff1673ffffffffffffffffffffffffffffffffffffffff1681526020019081526020016000206000878152602001908152602001600020604051806040016040529081600082018054806020026020016040519081016040528092919081815260200182805480156116cb57602002820191906000526020600020905b8160009054906101000a900473ffffffffffffffffffffffffffffffffffffffff1673ffffffffffffffffffffffffffffffffffffffff1681526020019060010190808311611681575b505050505081526020016001820180548060200260200160405190810160405280929190818152602001828054801561175f57602002820191906000526020600020906000905b82829054906101000a90046bffffffffffffffffffffffff166bffffffffffffffffffffffff16815260200190600c0190602082600b010492830192600103820291508084116117125790505b505050505081525050915060005b8260000151518110156118935760006127108460200151838151811061179657611795612fd1565b5b60200260200101516bffffffffffffffffffffffff168a6117b79190612d79565b6117c19190612d17565b905080896117cf9190612dd3565b92508573ffffffffffffffffffffffffffffffffffffffff166323b872dd8c8660000151858151811061180557611804612fd1565b5b6020026020010151846040518463ffffffff1660e01b815260040161182c939291906128c0565b602060405180830381600087803b15801561184657600080fd5b505af115801561185a573d6000803e3d6000fd5b505050506040513d601f19601f8201168201806040525081019061187e919061236f565b5050808061188b90612ef1565b91505061176d565b508373ffffffffffffffffffffffffffffffffffffffff166323b872dd8a8a846040518463ffffffff1660e01b81526004016118d1939291906128c0565b602060405180830381600087803b1580156118eb57600080fd5b505af11580156118ff573d6000803e3d6000fd5b505050506040513d601f19601f82011682018060405250810190611923919061236f565b5060019450505050509695505050505050565b60006119917f73a68255bef9b2d8772a65da56b8c433fcf3e468b3ec1670e127d24c73a90fc7878787878760405160200161197696959493929190612985565b604051602081830303815290604052805190602001206119c3565b905095945050505050565b60008060006119ab85856119dd565b915091506119b881611a60565b819250505092915050565b60006119d66119d0611c35565b83611cd4565b9050919050565b600080604183511415611a1f5760008060006020860151925060408601519150606086015160001a9050611a1387828585611d07565b94509450505050611a59565b604083511415611a50576000806020850151915060408501519050611a45868383611e14565b935093505050611a59565b60006002915091505b9250929050565b60006004811115611a7457611a73612fa2565b5b816004811115611a8757611a86612fa2565b5b1415611a9257611c32565b60016004811115611aa657611aa5612fa2565b5b816004811115611ab957611ab8612fa2565b5b1415611afa576040517f08c379a0000000000000000000000000000000000000000000000000000000008152600401611af190612a7e565b60405180910390fd5b60026004811115611b0e57611b0d612fa2565b5b816004811115611b2157611b20612fa2565b5b1415611b62576040517f08c379a0000000000000000000000000000000000000000000000000000000008152600401611b5990612a9e565b60405180910390fd5b60036004811115611b7657611b75612fa2565b5b816004811115611b8957611b88612fa2565b5b1415611bca576040517f08c379a0000000000000000000000000000000000000000000000000000000008152600401611bc190612afe565b60405180910390fd5b600480811115611bdd57611bdc612fa2565b5b816004811115611bf057611bef612fa2565b5b1415611c31576040517f08c379a0000000000000000000000000000000000000000000000000000000008152600401611c2890612b3e565b60405180910390fd5b5b50565b600080611c40611138565b90508060020160009054906101000a900473ffffffffffffffffffffffffffffffffffffffff1673ffffffffffffffffffffffffffffffffffffffff163073ffffffffffffffffffffffffffffffffffffffff16148015611ca45750806001015446145b15611cb6578060000154915050611cd1565b611ccd816005015482600301548360040154611165565b9150505b90565b60008282604051602001611ce9929190612844565b60405160208183030381529060405280519060200120905092915050565b6000807f7fffffffffffffffffffffffffffffff5d576e7357a4501ddfe92f46681b20a08360001c1115611d42576000600391509150611e0b565b601b8560ff1614158015611d5a5750601c8560ff1614155b15611d6c576000600491509150611e0b565b600060018787878760405160008152602001604052604051611d919493929190612a39565b6020604051602081039080840390855afa158015611db3573d6000803e3d6000fd5b505050602060405103519050600073ffffffffffffffffffffffffffffffffffffffff168173ffffffffffffffffffffffffffffffffffffffff161415611e0257600060019250925050611e0b565b80600092509250505b94509492505050565b60008060007f7fffffffffffffffffffffffffffffffffffffffffffffffffffffffffffffff60001b841690506000601b60ff8660001c901c611e579190612cc1565b9050611e6587828885611d07565b935093505050935093915050565b604051806040016040528060608152602001606081525090565b828054828255906000526020600020908101928215611f06579160200282015b82811115611f055782518260006101000a81548173ffffffffffffffffffffffffffffffffffffffff021916908373ffffffffffffffffffffffffffffffffffffffff16021790555091602001919060010190611ead565b5b509050611f139190611fdf565b5090565b82805482825590600052602060002090600101600290048101928215611fce5791602002820160005b83821115611f9457835183826101000a8154816bffffffffffffffffffffffff02191690836bffffffffffffffffffffffff1602179055509260200192600c01602081600b01049283019260010302611f40565b8015611fcc5782816101000a8154906bffffffffffffffffffffffff0219169055600c01602081600b01049283019260010302611f94565b505b509050611fdb9190611fdf565b5090565b5b80821115611ff8576000816000905550600101611fe0565b5090565b600061200f61200a84612c27565b612c02565b90508281526020810184848401111561202b5761202a61303e565b5b612036848285612e7e565b509392505050565b600061205161204c84612c58565b612c02565b90508281526020810184848401111561206d5761206c61303e565b5b612078848285612e7e565b509392505050565b60008135905061208f8161330e565b92915050565b6000815190506120a48161330e565b92915050565b60008083601f8401126120c0576120bf613034565b5b8235905067ffffffffffffffff8111156120dd576120dc61302f565b5b6020830191508360208202830111156120f9576120f8613039565b5b9250929050565b60008083601f84011261211657612115613034565b5b8235905067ffffffffffffffff8111156121335761213261302f565b5b60208301915083602082028301111561214f5761214e613039565b5b9250929050565b60008135905061216581613325565b92915050565b60008151905061217a81613325565b92915050565b600082601f83011261219557612194613034565b5b81356121a5848260208601611ffc565b91505092915050565b600082601f8301126121c3576121c2613034565b5b81356121d384826020860161203e565b91505092915050565b6000813590506121eb8161333c565b92915050565b6000815190506122008161333c565b92915050565b60008135905061221581613353565b92915050565b60006020828403121561223157612230613048565b5b600061223f84828501612080565b91505092915050565b6000806040838503121561225f5761225e613048565b5b600061226d85828601612080565b925050602061227e85828601612156565b9150509250929050565b6000806040838503121561229f5761229e613048565b5b60006122ad85828601612095565b92505060206122be858286016121f1565b9150509250929050565b600080600080600080608087890312156122e5576122e4613048565b5b60006122f389828a01612080565b965050602061230489828a016121dc565b955050604087013567ffffffffffffffff81111561232557612324613043565b5b61233189828a016120aa565b9450945050606087013567ffffffffffffffff81111561235457612353613043565b5b61236089828a01612100565b92509250509295509295509295565b60006020828403121561238557612384613048565b5b60006123938482850161216b565b91505092915050565b6000806000806000806000806000806101408b8d0312156123c0576123bf613048565b5b60008b013567ffffffffffffffff8111156123de576123dd613043565b5b6123ea8d828e016121ae565b9a505060206123fb8d828e01612080565b995050604061240c8d828e01612080565b985050606061241d8d828e01612080565b975050608061242e8d828e01612080565b96505060a061243f8d828e016121dc565b95505060c06124508d828e016121dc565b94505060e06124618d828e016121dc565b9350506101008b013567ffffffffffffffff81111561248357612482613043565b5b61248f8d828e01612180565b9250506101208b013567ffffffffffffffff8111156124b1576124b0613043565b5b6124bd8d828e01612180565b9150509295989b9194979a5092959850565b600080604083850312156124e6576124e5613048565b5b600083013567ffffffffffffffff81111561250457612503613043565b5b612510858286016121ae565b925050602083013567ffffffffffffffff81111561253157612530613043565b5b61253d858286016121ae565b9150509250929050565b60006020828403121561255d5761255c613048565b5b600061256b848285016121f1565b91505092915050565b60006020828403121561258a57612589613048565b5b600061259884828501612206565b91505092915050565b6125aa81612e07565b82525050565b6125b981612e19565b82525050565b6125c881612e25565b82525050565b6125df6125da82612e25565b612f3a565b82525050565b60006125f082612c89565b6125fa8185612cb6565b935061260a818560208601612e8d565b80840191505092915050565b6000612623601883612ca5565b915061262e8261305e565b602082019050919050565b6000612646601f83612ca5565b915061265182613087565b602082019050919050565b6000612669601383612ca5565b9150612674826130b0565b602082019050919050565b600061268c601a83612ca5565b9150612697826130d9565b602082019050919050565b60006126af600283612cb6565b91506126ba82613102565b600282019050919050565b60006126d2602283612ca5565b91506126dd8261312b565b604082019050919050565b60006126f5602883612ca5565b91506127008261317a565b604082019050919050565b6000612718600683612cb6565b9150612723826131c9565b600682019050919050565b600061273b602283612ca5565b9150612746826131f2565b604082019050919050565b600061275e602a83612ca5565b915061276982613241565b604082019050919050565b6000612781600783612cb6565b915061278c82613290565b600782019050919050565b60006127a4600e83612ca5565b91506127af826132b9565b602082019050919050565b60006127c7600083612c94565b91506127d2826132e2565b600082019050919050565b60006127ea601383612ca5565b91506127f5826132e5565b602082019050919050565b61280981612e4f565b82525050565b61281881612e59565b82525050565b61282781612e66565b82525050565b600061283982846125e5565b915081905092915050565b600061284f826126a2565b915061285b82856125ce565b60208201915061286b82846125ce565b6020820191508190509392505050565b60006128868261270b565b9150819050919050565b600061289b82612774565b9150819050919050565b60006020820190506128ba60008301846125a1565b92915050565b60006060820190506128d560008301866125a1565b6128e260208301856125a1565b6128ef6040830184612800565b949350505050565b600060a08201905061290c60008301876125a1565b61291960208301866125a1565b6129266040830185612800565b6129336060830184612800565b8181036080830152612944816127ba565b905095945050505050565b600060208201905061296460008301846125b0565b92915050565b600060208201905061297f60008301846125bf565b92915050565b600060c08201905061299a60008301896125bf565b6129a760208301886125a1565b6129b46040830187612800565b6129c16060830186612800565b6129ce60808301856125a1565b6129db60a0830184612800565b979650505050505050565b600060a0820190506129fb60008301886125bf565b612a0860208301876125bf565b612a1560408301866125bf565b612a226060830185612800565b612a2f60808301846125a1565b9695505050505050565b6000608082019050612a4e60008301876125bf565b612a5b602083018661280f565b612a6860408301856125bf565b612a7560608301846125bf565b95945050505050565b60006020820190508181036000830152612a9781612616565b9050919050565b60006020820190508181036000830152612ab781612639565b9050919050565b60006020820190508181036000830152612ad78161265c565b9050919050565b60006020820190508181036000830152612af78161267f565b9050919050565b60006020820190508181036000830152612b17816126c5565b9050919050565b60006020820190508181036000830152612b37816126e8565b9050919050565b60006020820190508181036000830152612b578161272e565b9050919050565b60006020820190508181036000830152612b7781612751565b9050919050565b60006020820190508181036000830152612b9781612797565b9050919050565b60006020820190508181036000830152612bb7816127dd565b9050919050565b6000604082019050612bd36000830185612800565b612be06020830184612800565b9392505050565b6000602082019050612bfc600083018461281e565b92915050565b6000612c0c612c1d565b9050612c188282612ec0565b919050565b6000604051905090565b600067ffffffffffffffff821115612c4257612c41613000565b5b612c4b8261304d565b9050602081019050919050565b600067ffffffffffffffff821115612c7357612c72613000565b5b612c7c8261304d565b9050602081019050919050565b600081519050919050565b600082825260208201905092915050565b600082825260208201905092915050565b600081905092915050565b6000612ccc82612e4f565b9150612cd783612e4f565b9250827fffffffffffffffffffffffffffffffffffffffffffffffffffffffffffffffff03821115612d0c57612d0b612f44565b5b828201905092915050565b6000612d2282612e4f565b9150612d2d83612e4f565b925082612d3d57612d3c612f73565b5b828204905092915050565b6000612d5382612e66565b9150612d5e83612e66565b925082612d6e57612d6d612f73565b5b828204905092915050565b6000612d8482612e4f565b9150612d8f83612e4f565b9250817fffffffffffffffffffffffffffffffffffffffffffffffffffffffffffffffff0483118215151615612dc857612dc7612f44565b5b828202905092915050565b6000612dde82612e4f565b9150612de983612e4f565b925082821015612dfc57612dfb612f44565b5b828203905092915050565b6000612e1282612e2f565b9050919050565b60008115159050919050565b6000819050919050565b600073ffffffffffffffffffffffffffffffffffffffff82169050919050565b6000819050919050565b600060ff82169050919050565b60006bffffffffffffffffffffffff82169050919050565b82818337600083830152505050565b60005b83811015612eab578082015181840152602081019050612e90565b83811115612eba576000848401525b50505050565b612ec98261304d565b810181811067ffffffffffffffff82111715612ee857612ee7613000565b5b80604052505050565b6000612efc82612e4f565b91507fffffffffffffffffffffffffffffffffffffffffffffffffffffffffffffffff821415612f2f57612f2e612f44565b5b600182019050919050565b6000819050919050565b7f4e487b7100000000000000000000000000000000000000000000000000000000600052601160045260246000fd5b7f4e487b7100000000000000000000000000000000000000000000000000000000600052601260045260246000fd5b7f4e487b7100000000000000000000000000000000000000000000000000000000600052602160045260246000fd5b7f4e487b7100000000000000000000000000000000000000000000000000000000600052603260045260246000fd5b7f4e487b7100000000000000000000000000000000000000000000000000000000600052604160045260246000fd5b600080fd5b600080fd5b600080fd5b600080fd5b600080fd5b600080fd5b6000601f19601f8301169050919050565b7f45434453413a20696e76616c6964207369676e61747572650000000000000000600082015250565b7f45434453413a20696e76616c6964207369676e6174757265206c656e67746800600082015250565b7f414c52454144595f494e495449414c495a454400000000000000000000000000600082015250565b7f42696464657273206f66666572206e6f74207665726966696564000000000000600082015250565b7f1901000000000000000000000000000000000000000000000000000000000000600082015250565b7f45434453413a20696e76616c6964207369676e6174757265202773272076616c60008201527f7565000000000000000000000000000000000000000000000000000000000000602082015250565b7f455243323020696e207468652070617965722061646472657373206973206e6f60008201527f7420656e6f756768000000000000000000000000000000000000000000000000602082015250565b7f4552433732310000000000000000000000000000000000000000000000000000600082015250565b7f45434453413a20696e76616c6964207369676e6174757265202776272076616c60008201527f7565000000000000000000000000000000000000000000000000000000000000602082015250565b7f4e6f7420616e20617070726f7665642063727970746f63757272656e6379206660008201527f6f722062696464696e6700000000000000000000000000000000000000000000602082015250565b7f4552433131353500000000000000000000000000000000000000000000000000600082015250565b7f494e56414c49445f504152414d53000000000000000000000000000000000000600082015250565b50565b7f4e6f74206d65646961206e6f72206f776e657200000000000000000000000000600082015250565b61331781612e07565b811461332257600080fd5b50565b61332e81612e19565b811461333957600080fd5b50565b61334581612e4f565b811461335057600080fd5b50565b61335c81612e66565b811461336757600080fd5b5056fea264697066735822122081c389cb93f7c856bd21759715050ef78ff88d2fa4a2a74f179bf7524aa6cc5764736f6c63430008060033",
  "linkReferences": {},
  "deployedLinkReferences": {}
}