{
  "_format": "hh-sol-artifact-1",
  "contractName": "EIP712",
  "sourceName": "contracts/facets/EIP712/EIP712Facet.sol",
  "abi": [
    {
      "inputs": [
        {
          "internalType": "string",
          "name": "name_",
          "type": "string"
        },
        {
          "internalType": "string",
          "name": "version_",
          "type": "string"
        }
      ],
      "name": "eip712FacetInit",
      "outputs": [],
      "stateMutability": "nonpayable",
      "type": "function"
    },
    {
      "inputs": [],
      "name": "getAddress",
      "outputs": [
        {
          "internalType": "address",
          "name": "",
          "type": "address"
        }
      ],
      "stateMutability": "view",
      "type": "function"
    },
    {
      "inputs": [],
      "name": "getName",
      "outputs": [
        {
          "internalType": "bytes32",
          "name": "",
          "type": "bytes32"
        }
      ],
      "stateMutability": "view",
      "type": "function"
    }
  ],
  "bytecode": "0x608060405234801561001057600080fd5b506106bb806100206000396000f3fe608060405234801561001057600080fd5b50600436106100415760003560e01c806317d7de7c146100465780631c5c32d51461006457806338cc483114610080575b600080fd5b61004e61009e565b60405161005b91906102e7565b60405180910390f35b61007e6004803603810190610079919061045c565b6100b6565b005b61008861022f565b6040516100959190610515565b60405180910390f35b6000806100a9610267565b9050806003015491505090565b60006100c0610267565b90506000801b81600301541480156100de57506000801b8160040154145b61011d576040517f08c379a00000000000000000000000000000000000000000000000000000000081526004016101149061058d565b60405180910390fd5b600083511415801561013157506000825114155b610170576040517f08c379a0000000000000000000000000000000000000000000000000000000008152600401610167906105f9565b60405180910390fd5b60008380519060200120905060008380519060200120905060007f8b73c3c69bb8fe3d512ecc4cf759cc79239f7b179b0ffacaa9a75d522b39400f90508284600301819055508184600401819055504684600101819055506101d3818484610294565b8460000181905550308460020160006101000a81548173ffffffffffffffffffffffffffffffffffffffff021916908373ffffffffffffffffffffffffffffffffffffffff160217905550808460050181905550505050505050565b60008061023a610267565b90508060020160009054906101000a900473ffffffffffffffffffffffffffffffffffffffff1691505090565b6000807fae36923e02a3e3934bc8e16cc335029655eed5d5801b3db8294179c633d8af4c90508091505090565b600083838346306040516020016102af959493929190610632565b6040516020818303038152906040528051906020012090509392505050565b6000819050919050565b6102e1816102ce565b82525050565b60006020820190506102fc60008301846102d8565b92915050565b6000604051905090565b600080fd5b600080fd5b600080fd5b600080fd5b6000601f19601f8301169050919050565b7f4e487b7100000000000000000000000000000000000000000000000000000000600052604160045260246000fd5b61036982610320565b810181811067ffffffffffffffff8211171561038857610387610331565b5b80604052505050565b600061039b610302565b90506103a78282610360565b919050565b600067ffffffffffffffff8211156103c7576103c6610331565b5b6103d082610320565b9050602081019050919050565b82818337600083830152505050565b60006103ff6103fa846103ac565b610391565b90508281526020810184848401111561041b5761041a61031b565b5b6104268482856103dd565b509392505050565b600082601f83011261044357610442610316565b5b81356104538482602086016103ec565b91505092915050565b600080604083850312156104735761047261030c565b5b600083013567ffffffffffffffff81111561049157610490610311565b5b61049d8582860161042e565b925050602083013567ffffffffffffffff8111156104be576104bd610311565b5b6104ca8582860161042e565b9150509250929050565b600073ffffffffffffffffffffffffffffffffffffffff82169050919050565b60006104ff826104d4565b9050919050565b61050f816104f4565b82525050565b600060208201905061052a6000830184610506565b92915050565b600082825260208201905092915050565b7f414c52454144595f494e495449414c495a454400000000000000000000000000600082015250565b6000610577601383610530565b915061058282610541565b602082019050919050565b600060208201905081810360008301526105a68161056a565b9050919050565b7f494e56414c49445f504152414d53000000000000000000000000000000000000600082015250565b60006105e3600e83610530565b91506105ee826105ad565b602082019050919050565b60006020820190508181036000830152610612816105d6565b9050919050565b6000819050919050565b61062c81610619565b82525050565b600060a08201905061064760008301886102d8565b61065460208301876102d8565b61066160408301866102d8565b61066e6060830185610623565b61067b6080830184610506565b969550505050505056fea26469706673582212202956a69bc5c5fdca211990e4434df58404ba5a526ad2c1ae00c53d5989fcceaa64736f6c634300080a0033",
  "linkReferences": {},
  "deployedLinkReferences": {}
}