{
  "_format": "hh-sol-artifact-1",
  "contractName": "EIP712",
  "sourceName": "contracts/facets/EIP712/EIP712Facet.sol",
  "abi": [
    {
      "inputs": [
        {
          "internalType": "string",
          "name": "name_",
          "type": "string"
        },
        {
          "internalType": "string",
          "name": "version_",
          "type": "string"
        }
      ],
      "name": "eip712FacetInit",
      "outputs": [],
      "stateMutability": "nonpayable",
      "type": "function"
    },
    {
      "inputs": [],
      "name": "getAddress",
      "outputs": [
        {
          "internalType": "address",
          "name": "",
          "type": "address"
        }
      ],
      "stateMutability": "view",
      "type": "function"
    },
    {
      "inputs": [],
      "name": "getName",
      "outputs": [
        {
          "internalType": "bytes32",
          "name": "",
          "type": "bytes32"
        }
      ],
      "stateMutability": "view",
      "type": "function"
    }
  ],
  "bytecode": "0x608060405234801561001057600080fd5b506106bb806100206000396000f3fe608060405234801561001057600080fd5b50600436106100415760003560e01c806317d7de7c146100465780631c5c32d51461006457806338cc483114610080575b600080fd5b61004e61009e565b60405161005b9190610444565b60405180910390f35b61007e6004803603810190610079919061033e565b6100b6565b005b61008861022f565b6040516100959190610429565b60405180910390f35b6000806100a9610267565b9050806003015491505090565b60006100c0610267565b90506000801b81600301541480156100de57506000801b8160040154145b61011d576040517f08c379a0000000000000000000000000000000000000000000000000000000008152600401610114906104b2565b60405180910390fd5b600083511415801561013157506000825114155b610170576040517f08c379a0000000000000000000000000000000000000000000000000000000008152600401610167906104d2565b60405180910390fd5b60008380519060200120905060008380519060200120905060007f8b73c3c69bb8fe3d512ecc4cf759cc79239f7b179b0ffacaa9a75d522b39400f90508284600301819055508184600401819055504684600101819055506101d3818484610294565b8460000181905550308460020160006101000a81548173ffffffffffffffffffffffffffffffffffffffff021916908373ffffffffffffffffffffffffffffffffffffffff160217905550808460050181905550505050505050565b60008061023a610267565b90508060020160009054906101000a900473ffffffffffffffffffffffffffffffffffffffff1691505090565b6000807fae36923e02a3e3934bc8e16cc335029655eed5d5801b3db8294179c633d8af4c90508091505090565b600083838346306040516020016102af95949392919061045f565b6040516020818303038152906040528051906020012090509392505050565b60006102e16102dc84610517565b6104f2565b9050828152602081018484840111156102fd576102fc610613565b5b61030884828561059f565b509392505050565b600082601f8301126103255761032461060e565b5b81356103358482602086016102ce565b91505092915050565b600080604083850312156103555761035461061d565b5b600083013567ffffffffffffffff81111561037357610372610618565b5b61037f85828601610310565b925050602083013567ffffffffffffffff8111156103a05761039f610618565b5b6103ac85828601610310565b9150509250929050565b6103bf81610559565b82525050565b6103ce8161056b565b82525050565b60006103e1601383610548565b91506103ec82610633565b602082019050919050565b6000610404600e83610548565b915061040f8261065c565b602082019050919050565b61042381610595565b82525050565b600060208201905061043e60008301846103b6565b92915050565b600060208201905061045960008301846103c5565b92915050565b600060a08201905061047460008301886103c5565b61048160208301876103c5565b61048e60408301866103c5565b61049b606083018561041a565b6104a860808301846103b6565b9695505050505050565b600060208201905081810360008301526104cb816103d4565b9050919050565b600060208201905081810360008301526104eb816103f7565b9050919050565b60006104fc61050d565b905061050882826105ae565b919050565b6000604051905090565b600067ffffffffffffffff821115610532576105316105df565b5b61053b82610622565b9050602081019050919050565b600082825260208201905092915050565b600061056482610575565b9050919050565b6000819050919050565b600073ffffffffffffffffffffffffffffffffffffffff82169050919050565b6000819050919050565b82818337600083830152505050565b6105b782610622565b810181811067ffffffffffffffff821117156105d6576105d56105df565b5b80604052505050565b7f4e487b7100000000000000000000000000000000000000000000000000000000600052604160045260246000fd5b600080fd5b600080fd5b600080fd5b600080fd5b6000601f19601f8301169050919050565b7f414c52454144595f494e495449414c495a454400000000000000000000000000600082015250565b7f494e56414c49445f504152414d5300000000000000000000000000000000000060008201525056fea26469706673582212200a4fcc68abed9f22484ba7b107cad598d5ffba78100e5db1ef325271504bcc9b64736f6c63430008060033",
  "linkReferences": {},
  "deployedLinkReferences": {}
}