{
  "_format": "hh-sol-artifact-1",
  "contractName": "ERC1155FactoryFacet",
  "sourceName": "contracts/facets/ERC1155Factory/ERC1155FactoryFacet.sol",
  "abi": [
    {
      "anonymous": false,
      "inputs": [
        {
          "indexed": true,
          "internalType": "address",
          "name": "account",
          "type": "address"
        },
        {
          "indexed": true,
          "internalType": "address",
          "name": "operator",
          "type": "address"
        },
        {
          "indexed": false,
          "internalType": "bool",
          "name": "approved",
          "type": "bool"
        }
      ],
      "name": "ApprovalForAll",
      "type": "event"
    },
    {
      "anonymous": false,
      "inputs": [
        {
          "indexed": true,
          "internalType": "address",
          "name": "operator",
          "type": "address"
        },
        {
          "indexed": true,
          "internalType": "address",
          "name": "from",
          "type": "address"
        },
        {
          "indexed": true,
          "internalType": "address",
          "name": "to",
          "type": "address"
        },
        {
          "indexed": false,
          "internalType": "uint256[]",
          "name": "ids",
          "type": "uint256[]"
        },
        {
          "indexed": false,
          "internalType": "uint256[]",
          "name": "values",
          "type": "uint256[]"
        }
      ],
      "name": "TransferBatch",
      "type": "event"
    },
    {
      "anonymous": false,
      "inputs": [
        {
          "indexed": true,
          "internalType": "address",
          "name": "operator",
          "type": "address"
        },
        {
          "indexed": true,
          "internalType": "address",
          "name": "from",
          "type": "address"
        },
        {
          "indexed": true,
          "internalType": "address",
          "name": "to",
          "type": "address"
        },
        {
          "indexed": false,
          "internalType": "uint256",
          "name": "id",
          "type": "uint256"
        },
        {
          "indexed": false,
          "internalType": "uint256",
          "name": "value",
          "type": "uint256"
        }
      ],
      "name": "TransferSingle",
      "type": "event"
    },
    {
      "inputs": [
        {
          "internalType": "address",
          "name": "account",
          "type": "address"
        },
        {
          "internalType": "uint256",
          "name": "id",
          "type": "uint256"
        }
      ],
      "name": "balanceOf",
      "outputs": [
        {
          "internalType": "uint256",
          "name": "",
          "type": "uint256"
        }
      ],
      "stateMutability": "view",
      "type": "function"
    },
    {
      "inputs": [
        {
          "internalType": "address[]",
          "name": "accounts",
          "type": "address[]"
        },
        {
          "internalType": "uint256[]",
          "name": "ids",
          "type": "uint256[]"
        }
      ],
      "name": "balanceOfBatch",
      "outputs": [
        {
          "internalType": "uint256[]",
          "name": "",
          "type": "uint256[]"
        }
      ],
      "stateMutability": "view",
      "type": "function"
    },
    {
      "inputs": [
        {
          "internalType": "address",
          "name": "from",
          "type": "address"
        },
        {
          "internalType": "uint256",
          "name": "tokenId",
          "type": "uint256"
        },
        {
          "internalType": "uint256",
          "name": "amount",
          "type": "uint256"
        }
      ],
      "name": "burn",
      "outputs": [],
      "stateMutability": "nonpayable",
      "type": "function"
    },
    {
      "inputs": [
        {
          "internalType": "string",
          "name": "name_",
          "type": "string"
        },
        {
          "internalType": "string",
          "name": "symbol_",
          "type": "string"
        }
      ],
      "name": "erc1155FactoryFacetInit",
      "outputs": [],
      "stateMutability": "nonpayable",
      "type": "function"
    },
    {
      "inputs": [
        {
          "internalType": "uint256",
          "name": "tokenId",
          "type": "uint256"
        },
        {
          "internalType": "address",
          "name": "creator",
          "type": "address"
        },
        {
          "internalType": "uint256",
          "name": "totalSupply",
          "type": "uint256"
        },
        {
          "internalType": "string",
          "name": "tokenURI",
          "type": "string"
        },
        {
          "internalType": "address[]",
          "name": "royaltyReceiver",
          "type": "address[]"
        },
        {
          "internalType": "uint96[]",
          "name": "tokenRoyaltyInBips",
          "type": "uint96[]"
        }
      ],
      "name": "mint",
      "outputs": [],
      "stateMutability": "nonpayable",
      "type": "function"
    },
    {
      "inputs": [
        {
          "internalType": "address",
          "name": "from",
          "type": "address"
        },
        {
          "internalType": "address",
          "name": "to",
          "type": "address"
        },
        {
          "internalType": "uint256[]",
          "name": "ids",
          "type": "uint256[]"
        },
        {
          "internalType": "uint256[]",
          "name": "amounts",
          "type": "uint256[]"
        },
        {
          "internalType": "bytes",
          "name": "data",
          "type": "bytes"
        }
      ],
      "name": "safeBatchTransferFrom",
      "outputs": [],
      "stateMutability": "nonpayable",
      "type": "function"
    },
    {
      "inputs": [
        {
          "internalType": "address",
          "name": "from",
          "type": "address"
        },
        {
          "internalType": "address",
          "name": "to",
          "type": "address"
        },
        {
          "internalType": "uint256",
          "name": "id",
          "type": "uint256"
        },
        {
          "internalType": "uint256",
          "name": "amount",
          "type": "uint256"
        },
        {
          "internalType": "bytes",
          "name": "data",
          "type": "bytes"
        }
      ],
      "name": "safeTransferFrom",
      "outputs": [],
      "stateMutability": "nonpayable",
      "type": "function"
    },
    {
      "inputs": [
        {
          "internalType": "address",
          "name": "operator",
          "type": "address"
        },
        {
          "internalType": "bool",
          "name": "approved",
          "type": "bool"
        }
      ],
      "name": "setApprovalForAll",
      "outputs": [],
      "stateMutability": "nonpayable",
      "type": "function"
    },
    {
      "inputs": [
        {
          "internalType": "address",
          "name": "_from",
          "type": "address"
        },
        {
          "internalType": "address",
          "name": "_to",
          "type": "address"
        },
        {
          "internalType": "uint256",
          "name": "_tokenID",
          "type": "uint256"
        },
        {
          "internalType": "uint256",
          "name": "_amount",
          "type": "uint256"
        }
      ],
      "name": "transfer",
      "outputs": [
        {
          "internalType": "bool",
          "name": "",
          "type": "bool"
        }
      ],
      "stateMutability": "nonpayable",
      "type": "function"
    },
    {
      "inputs": [
        {
          "internalType": "uint256",
          "name": "",
          "type": "uint256"
        }
      ],
      "name": "uri",
      "outputs": [
        {
          "internalType": "string",
          "name": "",
          "type": "string"
        }
      ],
      "stateMutability": "view",
      "type": "function"
    }
  ],
  "bytecode": "0x608060405234801561001057600080fd5b506132e7806100206000396000f3fe608060405234801561001057600080fd5b506004361061009d5760003560e01c806370839f791161006657806370839f791461017e578063a22cb4651461019a578063dcbb855e146101b6578063f242432a146101d2578063f5298aca146101ee5761009d565b8062fdd58e146100a25780630411b252146100d25780630e89341c146101025780632eb2c2d6146101325780634e1273f41461014e575b600080fd5b6100bc60048036038101906100b79190611aa8565b61020a565b6040516100c99190611af7565b60405180910390f35b6100ec60048036038101906100e79190611b12565b6102e3565b6040516100f99190611b94565b60405180910390f35b61011c60048036038101906101179190611baf565b61037c565b6040516101299190611c75565b60405180910390f35b61014c60048036038101906101479190611e94565b61041f565b005b61016860048036038101906101639190612026565b610543565b604051610175919061215c565b60405180910390f35b61019860048036038101906101939190612326565b61065c565b005b6101b460048036038101906101af9190612433565b6107d0565b005b6101d060048036038101906101cb9190612473565b6108de565b005b6101ec60048036038101906101e791906124eb565b610a82565b005b61020860048036038101906102039190612582565b610a96565b005b60008073ffffffffffffffffffffffffffffffffffffffff168373ffffffffffffffffffffffffffffffffffffffff16141561027b576040517f08c379a000000000000000000000000000000000000000000000000000000000815260040161027290612647565b60405180910390fd5b6000610285610aa6565b905080600201600084815260200190815260200160002060008573ffffffffffffffffffffffffffffffffffffffff1673ffffffffffffffffffffffffffffffffffffffff1681526020019081526020016000205491505092915050565b60008073ffffffffffffffffffffffffffffffffffffffff168473ffffffffffffffffffffffffffffffffffffffff161415610354576040517f08c379a000000000000000000000000000000000000000000000000000000000815260040161034b906126d9565b60405180910390fd5b6103708585858560405180602001604052806000815250610a82565b60019050949350505050565b60606000610388610aa6565b905080600301805461039990612728565b80601f01602080910402602001604051908101604052809291908181526020018280546103c590612728565b80156104125780601f106103e757610100808354040283529160200191610412565b820191906000526020600020905b8154815290600101906020018083116103f557829003601f168201915b5050505050915050919050565b610427610ad3565b73ffffffffffffffffffffffffffffffffffffffff168573ffffffffffffffffffffffffffffffffffffffff1614806104f05750600060010160008673ffffffffffffffffffffffffffffffffffffffff1673ffffffffffffffffffffffffffffffffffffffff16815260200190815260200160002060006104a7610ad3565b73ffffffffffffffffffffffffffffffffffffffff1673ffffffffffffffffffffffffffffffffffffffff16815260200190815260200160002060009054906101000a900460ff165b61052f576040517f08c379a0000000000000000000000000000000000000000000000000000000008152600401610526906127cc565b60405180910390fd5b61053c8585858585610adb565b5050505050565b60608151835114610589576040517f08c379a00000000000000000000000000000000000000000000000000000000081526004016105809061285e565b60405180910390fd5b6000835167ffffffffffffffff8111156105a6576105a5611c9c565b5b6040519080825280602002602001820160405280156105d45781602001602082028036833780820191505090505b50905060005b8451811015610651576106218582815181106105f9576105f861287e565b5b60200260200101518583815181106106145761061361287e565b5b602002602001015161020a565b8282815181106106345761063361287e565b5b6020026020010181815250508061064a906128dc565b90506105da565b508091505092915050565b6000800160009054906101000a900473ffffffffffffffffffffffffffffffffffffffff1673ffffffffffffffffffffffffffffffffffffffff163373ffffffffffffffffffffffffffffffffffffffff16146106ee576040517f08c379a00000000000000000000000000000000000000000000000000000000081526004016106e590612997565b60405180910390fd5b60006106f8610e05565b90508581600001600089815260200190815260200160002060006101000a81548173ffffffffffffffffffffffffffffffffffffffff021916908373ffffffffffffffffffffffffffffffffffffffff1602179055508581600101600089815260200190815260200160002060006101000a81548173ffffffffffffffffffffffffffffffffffffffff021916908373ffffffffffffffffffffffffffffffffffffffff1602179055506107bd86888760405180602001604052806000815250610e32565b6107c78785610fd8565b50505050505050565b80600060010160006107e0610ad3565b73ffffffffffffffffffffffffffffffffffffffff1673ffffffffffffffffffffffffffffffffffffffff16815260200190815260200160002060008473ffffffffffffffffffffffffffffffffffffffff1673ffffffffffffffffffffffffffffffffffffffff16815260200190815260200160002060006101000a81548160ff0219169083151502179055508173ffffffffffffffffffffffffffffffffffffffff1661088d610ad3565b73ffffffffffffffffffffffffffffffffffffffff167f17307eab39ab6107e8899845ad3d59bd9653f200f220920489ca2b5937696c31836040516108d29190611b94565b60405180910390a35050565b60006108e8611013565b905060006108f4610e05565b9050600081600201805461090790612728565b90501480156109265750600081600301805461092290612728565b9050145b610965576040517f08c379a000000000000000000000000000000000000000000000000000000000815260040161095c90612a03565b60405180910390fd5b600084511415801561097957506000835114155b6109b8576040517f08c379a00000000000000000000000000000000000000000000000000000000081526004016109af90612a6f565b60405180910390fd5b8160040160009054906101000a900473ffffffffffffffffffffffffffffffffffffffff1673ffffffffffffffffffffffffffffffffffffffff163373ffffffffffffffffffffffffffffffffffffffff1614610a4a576040517f08c379a0000000000000000000000000000000000000000000000000000000008152600401610a4190612adb565b60405180910390fd5b83816002019080519060200190610a6292919061195d565b5082816003019080519060200190610a7b92919061195d565b5050505050565b610a8f8585858585611040565b5050505050565b610aa18383836112d8565b505050565b6000807fd1fd1ec9eb6f457e5e32da0d2921ff6daf7fd2085ec060a076b391ca2400b28290508091505090565b600033905090565b8151835114610b1f576040517f08c379a0000000000000000000000000000000000000000000000000000000008152600401610b1690612b6d565b60405180910390fd5b600073ffffffffffffffffffffffffffffffffffffffff168473ffffffffffffffffffffffffffffffffffffffff161415610b8f576040517f08c379a0000000000000000000000000000000000000000000000000000000008152600401610b8690612bff565b60405180910390fd5b6000610b99610ad3565b9050610ba9818787878787611508565b6000610bb3610aa6565b905060005b8551811015610d6f576000868281518110610bd657610bd561287e565b5b602002602001015190506000868381518110610bf557610bf461287e565b5b60200260200101519050600084600201600084815260200190815260200160002060008c73ffffffffffffffffffffffffffffffffffffffff1673ffffffffffffffffffffffffffffffffffffffff16815260200190815260200160002054905081811015610c99576040517f08c379a0000000000000000000000000000000000000000000000000000000008152600401610c9090612c91565b60405180910390fd5b81810385600201600085815260200190815260200160002060008d73ffffffffffffffffffffffffffffffffffffffff1673ffffffffffffffffffffffffffffffffffffffff168152602001908152602001600020819055508185600201600085815260200190815260200160002060008c73ffffffffffffffffffffffffffffffffffffffff1673ffffffffffffffffffffffffffffffffffffffff1681526020019081526020016000206000828254610d549190612cb1565b9250508190555050505080610d68906128dc565b9050610bb8565b508573ffffffffffffffffffffffffffffffffffffffff168773ffffffffffffffffffffffffffffffffffffffff168373ffffffffffffffffffffffffffffffffffffffff167f4a39dc06d4c0dbc64b70af90fd698a233a518aa5d07e595d983b8c0526c8f7fb8888604051610de6929190612d07565b60405180910390a4610dfc828888888888611510565b50505050505050565b6000807fa0302aa70960e6dc7a538844f5df4354a0261cba8bcae9d7c5b34d8719f88c9790508091505090565b600073ffffffffffffffffffffffffffffffffffffffff168473ffffffffffffffffffffffffffffffffffffffff161415610ea2576040517f08c379a0000000000000000000000000000000000000000000000000000000008152600401610e9990612db0565b60405180910390fd5b6000610eac610ad3565b9050610ecd81600087610ebe886116e8565b610ec7886116e8565b87611508565b6000610ed7610aa6565b90508381600201600087815260200190815260200160002060008873ffffffffffffffffffffffffffffffffffffffff1673ffffffffffffffffffffffffffffffffffffffff1681526020019081526020016000206000828254610f3b9190612cb1565b925050819055508573ffffffffffffffffffffffffffffffffffffffff16600073ffffffffffffffffffffffffffffffffffffffff168373ffffffffffffffffffffffffffffffffffffffff167fc3d58168c5ae7397731d063d5bbf3d657854427343f4c083240f7aacaa2d0f628888604051610fb9929190612dd0565b60405180910390a4610fd082600088888888611762565b505050505050565b6000610fe2610e05565b905081816004016000858152602001908152602001600020908051906020019061100d92919061195d565b50505050565b6000807fc8fcad8db84d3cc18b4c41d551ea0ee66dd599cde068d998e57d5e09332c131c90508091505090565b600073ffffffffffffffffffffffffffffffffffffffff168473ffffffffffffffffffffffffffffffffffffffff1614156110b0576040517f08c379a00000000000000000000000000000000000000000000000000000000081526004016110a790612bff565b60405180910390fd5b60006110ba610ad3565b90506110da8187876110cb886116e8565b6110d4886116e8565b87611508565b60006110e4610aa6565b9050600081600201600087815260200190815260200160002060008973ffffffffffffffffffffffffffffffffffffffff1673ffffffffffffffffffffffffffffffffffffffff16815260200190815260200160002054905084811015611180576040517f08c379a000000000000000000000000000000000000000000000000000000000815260040161117790612c91565b60405180910390fd5b84810382600201600088815260200190815260200160002060008a73ffffffffffffffffffffffffffffffffffffffff1673ffffffffffffffffffffffffffffffffffffffff168152602001908152602001600020819055508482600201600088815260200190815260200160002060008973ffffffffffffffffffffffffffffffffffffffff1673ffffffffffffffffffffffffffffffffffffffff168152602001908152602001600020600082825461123b9190612cb1565b925050819055508673ffffffffffffffffffffffffffffffffffffffff168873ffffffffffffffffffffffffffffffffffffffff168473ffffffffffffffffffffffffffffffffffffffff167fc3d58168c5ae7397731d063d5bbf3d657854427343f4c083240f7aacaa2d0f6289896040516112b8929190612dd0565b60405180910390a46112ce838989898989611762565b5050505050505050565b600073ffffffffffffffffffffffffffffffffffffffff168373ffffffffffffffffffffffffffffffffffffffff161415611348576040517f08c379a000000000000000000000000000000000000000000000000000000000815260040161133f90612e6b565b60405180910390fd5b6000611352610ad3565b905061138281856000611364876116e8565b61136d876116e8565b60405180602001604052806000815250611508565b600061138c610aa6565b9050600081600201600086815260200190815260200160002060008773ffffffffffffffffffffffffffffffffffffffff1673ffffffffffffffffffffffffffffffffffffffff16815260200190815260200160002054905083811015611428576040517f08c379a000000000000000000000000000000000000000000000000000000000815260040161141f90612efd565b60405180910390fd5b83810382600201600087815260200190815260200160002060008873ffffffffffffffffffffffffffffffffffffffff1673ffffffffffffffffffffffffffffffffffffffff16815260200190815260200160002081905550600073ffffffffffffffffffffffffffffffffffffffff168673ffffffffffffffffffffffffffffffffffffffff168473ffffffffffffffffffffffffffffffffffffffff167fc3d58168c5ae7397731d063d5bbf3d657854427343f4c083240f7aacaa2d0f6288886040516114f8929190612dd0565b60405180910390a4505050505050565b505050505050565b61152f8473ffffffffffffffffffffffffffffffffffffffff1661193a565b156116e0578373ffffffffffffffffffffffffffffffffffffffff1663bc197c8187878686866040518663ffffffff1660e01b8152600401611575959493929190612f81565b6020604051808303816000875af19250505080156115b157506040513d601f19601f820116820180604052508101906115ae9190613041565b60015b611657576115bd61307b565b806308c379a0141561161a57506115d261309d565b806115dd575061161c565b806040517f08c379a00000000000000000000000000000000000000000000000000000000081526004016116119190611c75565b60405180910390fd5b505b6040517f08c379a000000000000000000000000000000000000000000000000000000000815260040161164e906131a5565b60405180910390fd5b63bc197c8160e01b7bffffffffffffffffffffffffffffffffffffffffffffffffffffffff1916817bffffffffffffffffffffffffffffffffffffffffffffffffffffffff1916146116de576040517f08c379a00000000000000000000000000000000000000000000000000000000081526004016116d590613237565b60405180910390fd5b505b505050505050565b60606000600167ffffffffffffffff81111561170757611706611c9c565b5b6040519080825280602002602001820160405280156117355781602001602082028036833780820191505090505b509050828160008151811061174d5761174c61287e565b5b60200260200101818152505080915050919050565b6117818473ffffffffffffffffffffffffffffffffffffffff1661193a565b15611932578373ffffffffffffffffffffffffffffffffffffffff1663f23a6e6187878686866040518663ffffffff1660e01b81526004016117c7959493929190613257565b6020604051808303816000875af192505050801561180357506040513d601f19601f820116820180604052508101906118009190613041565b60015b6118a95761180f61307b565b806308c379a0141561186c575061182461309d565b8061182f575061186e565b806040517f08c379a00000000000000000000000000000000000000000000000000000000081526004016118639190611c75565b60405180910390fd5b505b6040517f08c379a00000000000000000000000000000000000000000000000000000000081526004016118a0906131a5565b60405180910390fd5b63f23a6e6160e01b7bffffffffffffffffffffffffffffffffffffffffffffffffffffffff1916817bffffffffffffffffffffffffffffffffffffffffffffffffffffffff191614611930576040517f08c379a000000000000000000000000000000000000000000000000000000000815260040161192790613237565b60405180910390fd5b505b505050505050565b6000808273ffffffffffffffffffffffffffffffffffffffff163b119050919050565b82805461196990612728565b90600052602060002090601f01602090048101928261198b57600085556119d2565b82601f106119a457805160ff19168380011785556119d2565b828001600101855582156119d2579182015b828111156119d15782518255916020019190600101906119b6565b5b5090506119df91906119e3565b5090565b5b808211156119fc5760008160009055506001016119e4565b5090565b6000604051905090565b600080fd5b600080fd5b600073ffffffffffffffffffffffffffffffffffffffff82169050919050565b6000611a3f82611a14565b9050919050565b611a4f81611a34565b8114611a5a57600080fd5b50565b600081359050611a6c81611a46565b92915050565b6000819050919050565b611a8581611a72565b8114611a9057600080fd5b50565b600081359050611aa281611a7c565b92915050565b60008060408385031215611abf57611abe611a0a565b5b6000611acd85828601611a5d565b9250506020611ade85828601611a93565b9150509250929050565b611af181611a72565b82525050565b6000602082019050611b0c6000830184611ae8565b92915050565b60008060008060808587031215611b2c57611b2b611a0a565b5b6000611b3a87828801611a5d565b9450506020611b4b87828801611a5d565b9350506040611b5c87828801611a93565b9250506060611b6d87828801611a93565b91505092959194509250565b60008115159050919050565b611b8e81611b79565b82525050565b6000602082019050611ba96000830184611b85565b92915050565b600060208284031215611bc557611bc4611a0a565b5b6000611bd384828501611a93565b91505092915050565b600081519050919050565b600082825260208201905092915050565b60005b83811015611c16578082015181840152602081019050611bfb565b83811115611c25576000848401525b50505050565b6000601f19601f8301169050919050565b6000611c4782611bdc565b611c518185611be7565b9350611c61818560208601611bf8565b611c6a81611c2b565b840191505092915050565b60006020820190508181036000830152611c8f8184611c3c565b905092915050565b600080fd5b7f4e487b7100000000000000000000000000000000000000000000000000000000600052604160045260246000fd5b611cd482611c2b565b810181811067ffffffffffffffff82111715611cf357611cf2611c9c565b5b80604052505050565b6000611d06611a00565b9050611d128282611ccb565b919050565b600067ffffffffffffffff821115611d3257611d31611c9c565b5b602082029050602081019050919050565b600080fd5b6000611d5b611d5684611d17565b611cfc565b90508083825260208201905060208402830185811115611d7e57611d7d611d43565b5b835b81811015611da75780611d938882611a93565b845260208401935050602081019050611d80565b5050509392505050565b600082601f830112611dc657611dc5611c97565b5b8135611dd6848260208601611d48565b91505092915050565b600080fd5b600067ffffffffffffffff821115611dff57611dfe611c9c565b5b611e0882611c2b565b9050602081019050919050565b82818337600083830152505050565b6000611e37611e3284611de4565b611cfc565b905082815260208101848484011115611e5357611e52611ddf565b5b611e5e848285611e15565b509392505050565b600082601f830112611e7b57611e7a611c97565b5b8135611e8b848260208601611e24565b91505092915050565b600080600080600060a08688031215611eb057611eaf611a0a565b5b6000611ebe88828901611a5d565b9550506020611ecf88828901611a5d565b945050604086013567ffffffffffffffff811115611ef057611eef611a0f565b5b611efc88828901611db1565b935050606086013567ffffffffffffffff811115611f1d57611f1c611a0f565b5b611f2988828901611db1565b925050608086013567ffffffffffffffff811115611f4a57611f49611a0f565b5b611f5688828901611e66565b9150509295509295909350565b600067ffffffffffffffff821115611f7e57611f7d611c9c565b5b602082029050602081019050919050565b6000611fa2611f9d84611f63565b611cfc565b90508083825260208201905060208402830185811115611fc557611fc4611d43565b5b835b81811015611fee5780611fda8882611a5d565b845260208401935050602081019050611fc7565b5050509392505050565b600082601f83011261200d5761200c611c97565b5b813561201d848260208601611f8f565b91505092915050565b6000806040838503121561203d5761203c611a0a565b5b600083013567ffffffffffffffff81111561205b5761205a611a0f565b5b61206785828601611ff8565b925050602083013567ffffffffffffffff81111561208857612087611a0f565b5b61209485828601611db1565b9150509250929050565b600081519050919050565b600082825260208201905092915050565b6000819050602082019050919050565b6120d381611a72565b82525050565b60006120e583836120ca565b60208301905092915050565b6000602082019050919050565b60006121098261209e565b61211381856120a9565b935061211e836120ba565b8060005b8381101561214f57815161213688826120d9565b9750612141836120f1565b925050600181019050612122565b5085935050505092915050565b6000602082019050818103600083015261217681846120fe565b905092915050565b600067ffffffffffffffff82111561219957612198611c9c565b5b6121a282611c2b565b9050602081019050919050565b60006121c26121bd8461217e565b611cfc565b9050828152602081018484840111156121de576121dd611ddf565b5b6121e9848285611e15565b509392505050565b600082601f83011261220657612205611c97565b5b81356122168482602086016121af565b91505092915050565b600067ffffffffffffffff82111561223a57612239611c9c565b5b602082029050602081019050919050565b60006bffffffffffffffffffffffff82169050919050565b61226c8161224b565b811461227757600080fd5b50565b60008135905061228981612263565b92915050565b60006122a261229d8461221f565b611cfc565b905080838252602082019050602084028301858111156122c5576122c4611d43565b5b835b818110156122ee57806122da888261227a565b8452602084019350506020810190506122c7565b5050509392505050565b600082601f83011261230d5761230c611c97565b5b813561231d84826020860161228f565b91505092915050565b60008060008060008060c0878903121561234357612342611a0a565b5b600061235189828a01611a93565b965050602061236289828a01611a5d565b955050604061237389828a01611a93565b945050606087013567ffffffffffffffff81111561239457612393611a0f565b5b6123a089828a016121f1565b935050608087013567ffffffffffffffff8111156123c1576123c0611a0f565b5b6123cd89828a01611ff8565b92505060a087013567ffffffffffffffff8111156123ee576123ed611a0f565b5b6123fa89828a016122f8565b9150509295509295509295565b61241081611b79565b811461241b57600080fd5b50565b60008135905061242d81612407565b92915050565b6000806040838503121561244a57612449611a0a565b5b600061245885828601611a5d565b92505060206124698582860161241e565b9150509250929050565b6000806040838503121561248a57612489611a0a565b5b600083013567ffffffffffffffff8111156124a8576124a7611a0f565b5b6124b4858286016121f1565b925050602083013567ffffffffffffffff8111156124d5576124d4611a0f565b5b6124e1858286016121f1565b9150509250929050565b600080600080600060a0868803121561250757612506611a0a565b5b600061251588828901611a5d565b955050602061252688828901611a5d565b945050604061253788828901611a93565b935050606061254888828901611a93565b925050608086013567ffffffffffffffff81111561256957612568611a0f565b5b61257588828901611e66565b9150509295509295909350565b60008060006060848603121561259b5761259a611a0a565b5b60006125a986828701611a5d565b93505060206125ba86828701611a93565b92505060406125cb86828701611a93565b9150509250925092565b7f455243313135353a2062616c616e636520717565727920666f7220746865207a60008201527f65726f2061646472657373000000000000000000000000000000000000000000602082015250565b6000612631602b83611be7565b915061263c826125d5565b604082019050919050565b6000602082019050818103600083015261266081612624565b9050919050565b7f45524331313535466163746f72793a205f746f206d757374206265206e6f6e2d60008201527f7a65726f2e000000000000000000000000000000000000000000000000000000602082015250565b60006126c3602583611be7565b91506126ce82612667565b604082019050919050565b600060208201905081810360008301526126f2816126b6565b9050919050565b7f4e487b7100000000000000000000000000000000000000000000000000000000600052602260045260246000fd5b6000600282049050600182168061274057607f821691505b60208210811415612754576127536126f9565b5b50919050565b7f455243313135353a207472616e736665722063616c6c6572206973206e6f742060008201527f6f776e6572206e6f7220617070726f7665640000000000000000000000000000602082015250565b60006127b6603283611be7565b91506127c18261275a565b604082019050919050565b600060208201905081810360008301526127e5816127a9565b9050919050565b7f455243313135353a206163636f756e747320616e6420696473206c656e67746860008201527f206d69736d617463680000000000000000000000000000000000000000000000602082015250565b6000612848602983611be7565b9150612853826127ec565b604082019050919050565b600060208201905081810360008301526128778161283b565b9050919050565b7f4e487b7100000000000000000000000000000000000000000000000000000000600052603260045260246000fd5b7f4e487b7100000000000000000000000000000000000000000000000000000000600052601160045260246000fd5b60006128e782611a72565b91507fffffffffffffffffffffffffffffffffffffffffffffffffffffffffffffffff82141561291a576129196128ad565b5b600182019050919050565b7f455243373231466163746f72793a20556e617574686f72697a6564204163636560008201527f7373210000000000000000000000000000000000000000000000000000000000602082015250565b6000612981602383611be7565b915061298c82612925565b604082019050919050565b600060208201905081810360008301526129b081612974565b9050919050565b7f414c52454144595f494e495449414c495a454400000000000000000000000000600082015250565b60006129ed601383611be7565b91506129f8826129b7565b602082019050919050565b60006020820190508181036000830152612a1c816129e0565b9050919050565b7f494e56414c49445f504152414d53000000000000000000000000000000000000600082015250565b6000612a59600e83611be7565b9150612a6482612a23565b602082019050919050565b60006020820190508181036000830152612a8881612a4c565b9050919050565b7f4d757374206f776e2074686520636f6e74726163742e00000000000000000000600082015250565b6000612ac5601683611be7565b9150612ad082612a8f565b602082019050919050565b60006020820190508181036000830152612af481612ab8565b9050919050565b7f455243313135353a2069647320616e6420616d6f756e7473206c656e6774682060008201527f6d69736d61746368000000000000000000000000000000000000000000000000602082015250565b6000612b57602883611be7565b9150612b6282612afb565b604082019050919050565b60006020820190508181036000830152612b8681612b4a565b9050919050565b7f455243313135353a207472616e7366657220746f20746865207a65726f20616460008201527f6472657373000000000000000000000000000000000000000000000000000000602082015250565b6000612be9602583611be7565b9150612bf482612b8d565b604082019050919050565b60006020820190508181036000830152612c1881612bdc565b9050919050565b7f455243313135353a20696e73756666696369656e742062616c616e636520666f60008201527f72207472616e7366657200000000000000000000000000000000000000000000602082015250565b6000612c7b602a83611be7565b9150612c8682612c1f565b604082019050919050565b60006020820190508181036000830152612caa81612c6e565b9050919050565b6000612cbc82611a72565b9150612cc783611a72565b9250827fffffffffffffffffffffffffffffffffffffffffffffffffffffffffffffffff03821115612cfc57612cfb6128ad565b5b828201905092915050565b60006040820190508181036000830152612d2181856120fe565b90508181036020830152612d3581846120fe565b90509392505050565b7f455243313135353a206d696e7420746f20746865207a65726f2061646472657360008201527f7300000000000000000000000000000000000000000000000000000000000000602082015250565b6000612d9a602183611be7565b9150612da582612d3e565b604082019050919050565b60006020820190508181036000830152612dc981612d8d565b9050919050565b6000604082019050612de56000830185611ae8565b612df26020830184611ae8565b9392505050565b7f455243313135353a206275726e2066726f6d20746865207a65726f206164647260008201527f6573730000000000000000000000000000000000000000000000000000000000602082015250565b6000612e55602383611be7565b9150612e6082612df9565b604082019050919050565b60006020820190508181036000830152612e8481612e48565b9050919050565b7f455243313135353a206275726e20616d6f756e7420657863656564732062616c60008201527f616e636500000000000000000000000000000000000000000000000000000000602082015250565b6000612ee7602483611be7565b9150612ef282612e8b565b604082019050919050565b60006020820190508181036000830152612f1681612eda565b9050919050565b612f2681611a34565b82525050565b600081519050919050565b600082825260208201905092915050565b6000612f5382612f2c565b612f5d8185612f37565b9350612f6d818560208601611bf8565b612f7681611c2b565b840191505092915050565b600060a082019050612f966000830188612f1d565b612fa36020830187612f1d565b8181036040830152612fb581866120fe565b90508181036060830152612fc981856120fe565b90508181036080830152612fdd8184612f48565b90509695505050505050565b60007fffffffff0000000000000000000000000000000000000000000000000000000082169050919050565b61301e81612fe9565b811461302957600080fd5b50565b60008151905061303b81613015565b92915050565b60006020828403121561305757613056611a0a565b5b60006130658482850161302c565b91505092915050565b60008160e01c9050919050565b600060033d111561309a5760046000803e61309760005161306e565b90505b90565b600060443d10156130ad57613130565b6130b5611a00565b60043d036004823e80513d602482011167ffffffffffffffff821117156130dd575050613130565b808201805167ffffffffffffffff8111156130fb5750505050613130565b80602083010160043d038501811115613118575050505050613130565b61312782602001850186611ccb565b82955050505050505b90565b7f455243313135353a207472616e7366657220746f206e6f6e204552433131353560008201527f526563656976657220696d706c656d656e746572000000000000000000000000602082015250565b600061318f603483611be7565b915061319a82613133565b604082019050919050565b600060208201905081810360008301526131be81613182565b9050919050565b7f455243313135353a204552433131353552656365697665722072656a6563746560008201527f6420746f6b656e73000000000000000000000000000000000000000000000000602082015250565b6000613221602883611be7565b915061322c826131c5565b604082019050919050565b6000602082019050818103600083015261325081613214565b9050919050565b600060a08201905061326c6000830188612f1d565b6132796020830187612f1d565b6132866040830186611ae8565b6132936060830185611ae8565b81810360808301526132a58184612f48565b9050969550505050505056fea26469706673582212206ee19b7ace82841abfbffa972f8447270f0f38ec9689d2586fbac52b1f6fb2e564736f6c634300080a0033",
  "linkReferences": {},
  "deployedLinkReferences": {}
}