{
  "_format": "hh-sol-artifact-1",
  "contractName": "ERC1155FactoryFacet",
  "sourceName": "contracts/facets/ERC1155Factory/ERC1155FactoryFacet.sol",
  "abi": [
    {
      "anonymous": false,
      "inputs": [
        {
          "indexed": true,
          "internalType": "address",
          "name": "account",
          "type": "address"
        },
        {
          "indexed": true,
          "internalType": "address",
          "name": "operator",
          "type": "address"
        },
        {
          "indexed": false,
          "internalType": "bool",
          "name": "approved",
          "type": "bool"
        }
      ],
      "name": "ApprovalForAll",
      "type": "event"
    },
    {
      "anonymous": false,
      "inputs": [
        {
          "indexed": true,
          "internalType": "address",
          "name": "operator",
          "type": "address"
        },
        {
          "indexed": true,
          "internalType": "address",
          "name": "from",
          "type": "address"
        },
        {
          "indexed": true,
          "internalType": "address",
          "name": "to",
          "type": "address"
        },
        {
          "indexed": false,
          "internalType": "uint256[]",
          "name": "ids",
          "type": "uint256[]"
        },
        {
          "indexed": false,
          "internalType": "uint256[]",
          "name": "values",
          "type": "uint256[]"
        }
      ],
      "name": "TransferBatch",
      "type": "event"
    },
    {
      "anonymous": false,
      "inputs": [
        {
          "indexed": true,
          "internalType": "address",
          "name": "operator",
          "type": "address"
        },
        {
          "indexed": true,
          "internalType": "address",
          "name": "from",
          "type": "address"
        },
        {
          "indexed": true,
          "internalType": "address",
          "name": "to",
          "type": "address"
        },
        {
          "indexed": false,
          "internalType": "uint256",
          "name": "id",
          "type": "uint256"
        },
        {
          "indexed": false,
          "internalType": "uint256",
          "name": "value",
          "type": "uint256"
        }
      ],
      "name": "TransferSingle",
      "type": "event"
    },
    {
      "inputs": [
        {
          "internalType": "address",
          "name": "account",
          "type": "address"
        },
        {
          "internalType": "uint256",
          "name": "id",
          "type": "uint256"
        }
      ],
      "name": "balanceOf",
      "outputs": [
        {
          "internalType": "uint256",
          "name": "",
          "type": "uint256"
        }
      ],
      "stateMutability": "view",
      "type": "function"
    },
    {
      "inputs": [
        {
          "internalType": "address[]",
          "name": "accounts",
          "type": "address[]"
        },
        {
          "internalType": "uint256[]",
          "name": "ids",
          "type": "uint256[]"
        }
      ],
      "name": "balanceOfBatch",
      "outputs": [
        {
          "internalType": "uint256[]",
          "name": "",
          "type": "uint256[]"
        }
      ],
      "stateMutability": "view",
      "type": "function"
    },
    {
      "inputs": [
        {
          "internalType": "address",
          "name": "from",
          "type": "address"
        },
        {
          "internalType": "uint256",
          "name": "tokenId",
          "type": "uint256"
        },
        {
          "internalType": "uint256",
          "name": "amount",
          "type": "uint256"
        }
      ],
      "name": "burn",
      "outputs": [],
      "stateMutability": "nonpayable",
      "type": "function"
    },
    {
      "inputs": [
        {
          "internalType": "string",
          "name": "name_",
          "type": "string"
        },
        {
          "internalType": "string",
          "name": "symbol_",
          "type": "string"
        }
      ],
      "name": "erc1155FactoryFacetInit",
      "outputs": [],
      "stateMutability": "nonpayable",
      "type": "function"
    },
    {
      "inputs": [
        {
          "internalType": "uint256",
          "name": "tokenId",
          "type": "uint256"
        },
        {
          "internalType": "address",
          "name": "creator",
          "type": "address"
        },
        {
          "internalType": "uint256",
          "name": "totalSupply",
          "type": "uint256"
        },
        {
          "internalType": "string",
          "name": "tokenURI",
          "type": "string"
        },
        {
          "internalType": "bool",
          "name": "tokenRoyalty",
          "type": "bool"
        },
        {
          "internalType": "address[]",
          "name": "royaltyReceiver",
          "type": "address[]"
        },
        {
          "internalType": "uint96[]",
          "name": "tokenRoyaltyInBips",
          "type": "uint96[]"
        }
      ],
      "name": "mint",
      "outputs": [],
      "stateMutability": "nonpayable",
      "type": "function"
    },
    {
      "inputs": [
        {
          "internalType": "uint256",
          "name": "_tokenID",
          "type": "uint256"
        },
        {
          "internalType": "uint256",
          "name": "_salePrice",
          "type": "uint256"
        }
      ],
      "name": "royaltyInfo1155",
      "outputs": [
        {
          "internalType": "address[]",
          "name": "",
          "type": "address[]"
        },
        {
          "internalType": "uint256[]",
          "name": "",
          "type": "uint256[]"
        }
      ],
      "stateMutability": "nonpayable",
      "type": "function"
    },
    {
      "inputs": [
        {
          "internalType": "address",
          "name": "from",
          "type": "address"
        },
        {
          "internalType": "address",
          "name": "to",
          "type": "address"
        },
        {
          "internalType": "uint256[]",
          "name": "ids",
          "type": "uint256[]"
        },
        {
          "internalType": "uint256[]",
          "name": "amounts",
          "type": "uint256[]"
        },
        {
          "internalType": "bytes",
          "name": "data",
          "type": "bytes"
        }
      ],
      "name": "safeBatchTransferFrom",
      "outputs": [],
      "stateMutability": "nonpayable",
      "type": "function"
    },
    {
      "inputs": [
        {
          "internalType": "address",
          "name": "from",
          "type": "address"
        },
        {
          "internalType": "address",
          "name": "to",
          "type": "address"
        },
        {
          "internalType": "uint256",
          "name": "id",
          "type": "uint256"
        },
        {
          "internalType": "uint256",
          "name": "amount",
          "type": "uint256"
        },
        {
          "internalType": "bytes",
          "name": "data",
          "type": "bytes"
        }
      ],
      "name": "safeTransferFrom",
      "outputs": [],
      "stateMutability": "nonpayable",
      "type": "function"
    },
    {
      "inputs": [
        {
          "internalType": "address",
          "name": "operator",
          "type": "address"
        },
        {
          "internalType": "bool",
          "name": "approved",
          "type": "bool"
        }
      ],
      "name": "setApprovalForAll",
      "outputs": [],
      "stateMutability": "nonpayable",
      "type": "function"
    },
    {
      "inputs": [
        {
          "internalType": "address",
          "name": "_from",
          "type": "address"
        },
        {
          "internalType": "address",
          "name": "_to",
          "type": "address"
        },
        {
          "internalType": "uint256",
          "name": "_tokenID",
          "type": "uint256"
        },
        {
          "internalType": "uint256",
          "name": "_amount",
          "type": "uint256"
        }
      ],
      "name": "transfer",
      "outputs": [
        {
          "internalType": "bool",
          "name": "",
          "type": "bool"
        }
      ],
      "stateMutability": "nonpayable",
      "type": "function"
    },
    {
      "inputs": [
        {
          "internalType": "uint256",
          "name": "",
          "type": "uint256"
        }
      ],
      "name": "uri",
      "outputs": [
        {
          "internalType": "string",
          "name": "",
          "type": "string"
        }
      ],
      "stateMutability": "view",
      "type": "function"
    }
  ],
  "bytecode": "0x608060405234801561001057600080fd5b50613988806100206000396000f3fe608060405234801561001057600080fd5b50600436106100a85760003560e01c80634e1273f4116100715780634e1273f414610175578063a22cb465146101a5578063dcbb855e146101c1578063eed32458146101dd578063f242432a1461020e578063f5298aca1461022a576100a8565b8062fdd58e146100ad5780630411b252146100dd5780630e89341c1461010d5780632eb2c2d61461013d5780634135c78314610159575b600080fd5b6100c760048036038101906100c2919061226e565b610246565b6040516100d49190612d6f565b60405180910390f35b6100f760048036038101906100f29190612130565b61031f565b6040516101049190612af2565b60405180910390f35b6101276004803603810190610122919061241e565b6103b8565b6040516101349190612b0d565b60405180910390f35b61015760048036038101906101529190612061565b61045b565b005b610173600480360381019061016e919061244b565b61057f565b005b61018f600480360381019061018a9190612301565b610784565b60405161019c9190612a99565b60405180910390f35b6101bf60048036038101906101ba919061222e565b61089d565b005b6101db60048036038101906101d691906123a6565b6109ab565b005b6101f760048036038101906101f29190612541565b610b4f565b604051610205929190612a62565b60405180910390f35b61022860048036038101906102239190612197565b610d98565b005b610244600480360381019061023f91906122ae565b610dac565b005b60008073ffffffffffffffffffffffffffffffffffffffff168373ffffffffffffffffffffffffffffffffffffffff1614156102b7576040517f08c379a00000000000000000000000000000000000000000000000000000000081526004016102ae90612b8f565b60405180910390fd5b60006102c1610dbc565b905080600201600084815260200190815260200160002060008573ffffffffffffffffffffffffffffffffffffffff1673ffffffffffffffffffffffffffffffffffffffff1681526020019081526020016000205491505092915050565b60008073ffffffffffffffffffffffffffffffffffffffff168473ffffffffffffffffffffffffffffffffffffffff161415610390576040517f08c379a000000000000000000000000000000000000000000000000000000000815260040161038790612d4f565b60405180910390fd5b6103ac8585858560405180602001604052806000815250610d98565b60019050949350505050565b606060006103c4610dbc565b90508060030180546103d590613117565b80601f016020809104026020016040519081016040528092919081815260200182805461040190613117565b801561044e5780601f106104235761010080835404028352916020019161044e565b820191906000526020600020905b81548152906001019060200180831161043157829003601f168201915b5050505050915050919050565b610463610de9565b73ffffffffffffffffffffffffffffffffffffffff168573ffffffffffffffffffffffffffffffffffffffff16148061052c5750600060010160008673ffffffffffffffffffffffffffffffffffffffff1673ffffffffffffffffffffffffffffffffffffffff16815260200190815260200160002060006104e3610de9565b73ffffffffffffffffffffffffffffffffffffffff1673ffffffffffffffffffffffffffffffffffffffff16815260200190815260200160002060009054906101000a900460ff165b61056b576040517f08c379a000000000000000000000000000000000000000000000000000000000815260040161056290612c2f565b60405180910390fd5b6105788585858585610df1565b5050505050565b6000800160009054906101000a900473ffffffffffffffffffffffffffffffffffffffff1673ffffffffffffffffffffffffffffffffffffffff163373ffffffffffffffffffffffffffffffffffffffff1614610611576040517f08c379a000000000000000000000000000000000000000000000000000000000815260040161060890612c4f565b60405180910390fd5b82156106a157805182511461065b576040517f08c379a000000000000000000000000000000000000000000000000000000000815260040161065290612bef565b60405180910390fd5b6005825111156106a0576040517f08c379a000000000000000000000000000000000000000000000000000000000815260040161069790612caf565b60405180910390fd5b5b60006106ab61111b565b9050868160000160008a815260200190815260200160002060006101000a81548173ffffffffffffffffffffffffffffffffffffffff021916908373ffffffffffffffffffffffffffffffffffffffff160217905550868160010160008a815260200190815260200160002060006101000a81548173ffffffffffffffffffffffffffffffffffffffff021916908373ffffffffffffffffffffffffffffffffffffffff16021790555061077087898860405180602001604052806000815250611148565b61077a88866112ee565b5050505050505050565b606081518351146107ca576040517f08c379a00000000000000000000000000000000000000000000000000000000081526004016107c190612cef565b60405180910390fd5b6000835167ffffffffffffffff8111156107e7576107e661327f565b5b6040519080825280602002602001820160405280156108155781602001602082028036833780820191505090505b50905060005b84518110156108925761086285828151811061083a57610839613250565b5b602002602001015185838151811061085557610854613250565b5b6020026020010151610246565b82828151811061087557610874613250565b5b6020026020010181815250508061088b9061317a565b905061081b565b508091505092915050565b80600060010160006108ad610de9565b73ffffffffffffffffffffffffffffffffffffffff1673ffffffffffffffffffffffffffffffffffffffff16815260200190815260200160002060008473ffffffffffffffffffffffffffffffffffffffff1673ffffffffffffffffffffffffffffffffffffffff16815260200190815260200160002060006101000a81548160ff0219169083151502179055508173ffffffffffffffffffffffffffffffffffffffff1661095a610de9565b73ffffffffffffffffffffffffffffffffffffffff167f17307eab39ab6107e8899845ad3d59bd9653f200f220920489ca2b5937696c318360405161099f9190612af2565b60405180910390a35050565b60006109b5611329565b905060006109c161111b565b905060008160020180546109d490613117565b90501480156109f3575060008160030180546109ef90613117565b9050145b610a32576040517f08c379a0000000000000000000000000000000000000000000000000000000008152600401610a2990612baf565b60405180910390fd5b6000845114158015610a4657506000835114155b610a85576040517f08c379a0000000000000000000000000000000000000000000000000000000008152600401610a7c90612ccf565b60405180910390fd5b8160040160009054906101000a900473ffffffffffffffffffffffffffffffffffffffff1673ffffffffffffffffffffffffffffffffffffffff163373ffffffffffffffffffffffffffffffffffffffff1614610b17576040517f08c379a0000000000000000000000000000000000000000000000000000000008152600401610b0e90612b6f565b60405180910390fd5b83816002019080519060200190610b2f929190611c9b565b5082816003019080519060200190610b48929190611c9b565b5050505050565b6060806000610b5c61111b565b90506000816006016000878152602001908152602001600020600001805480602002602001604051908101604052809291908181526020018280548015610bf857602002820191906000526020600020905b8160009054906101000a900473ffffffffffffffffffffffffffffffffffffffff1673ffffffffffffffffffffffffffffffffffffffff1681526020019060010190808311610bae575b505050505090506000826006016000888152602001908152602001600020600101805480602002602001604051908101604052809291908181526020018280548015610c9f57602002820191906000526020600020906000905b82829054906101000a90046bffffffffffffffffffffffff166bffffffffffffffffffffffff16815260200190600c0190602082600b01049283019260010382029150808411610c525790505b505050505090506000815167ffffffffffffffff811115610cc357610cc261327f565b5b604051908082528060200260200182016040528015610cf15781602001602082028036833780820191505090505b50905060005b8251811015610d8657610d08611356565b6bffffffffffffffffffffffff16838281518110610d2957610d28613250565b5b60200260200101516bffffffffffffffffffffffff1689610d4a9190612fef565b610d549190612fbe565b828281518110610d6757610d66613250565b5b6020026020010181815250508080610d7e9061317a565b915050610cf7565b50828195509550505050509250929050565b610da58585858585611360565b5050505050565b610db78383836115f8565b505050565b6000807fd1fd1ec9eb6f457e5e32da0d2921ff6daf7fd2085ec060a076b391ca2400b28290508091505090565b600033905090565b8151835114610e35576040517f08c379a0000000000000000000000000000000000000000000000000000000008152600401610e2c90612d0f565b60405180910390fd5b600073ffffffffffffffffffffffffffffffffffffffff168473ffffffffffffffffffffffffffffffffffffffff161415610ea5576040517f08c379a0000000000000000000000000000000000000000000000000000000008152600401610e9c90612c0f565b60405180910390fd5b6000610eaf610de9565b9050610ebf818787878787611828565b6000610ec9610dbc565b905060005b8551811015611085576000868281518110610eec57610eeb613250565b5b602002602001015190506000868381518110610f0b57610f0a613250565b5b60200260200101519050600084600201600084815260200190815260200160002060008c73ffffffffffffffffffffffffffffffffffffffff1673ffffffffffffffffffffffffffffffffffffffff16815260200190815260200160002054905081811015610faf576040517f08c379a0000000000000000000000000000000000000000000000000000000008152600401610fa690612c8f565b60405180910390fd5b81810385600201600085815260200190815260200160002060008d73ffffffffffffffffffffffffffffffffffffffff1673ffffffffffffffffffffffffffffffffffffffff168152602001908152602001600020819055508185600201600085815260200190815260200160002060008c73ffffffffffffffffffffffffffffffffffffffff1673ffffffffffffffffffffffffffffffffffffffff168152602001908152602001600020600082825461106a9190612f68565b925050819055505050508061107e9061317a565b9050610ece565b508573ffffffffffffffffffffffffffffffffffffffff168773ffffffffffffffffffffffffffffffffffffffff168373ffffffffffffffffffffffffffffffffffffffff167f4a39dc06d4c0dbc64b70af90fd698a233a518aa5d07e595d983b8c0526c8f7fb88886040516110fc929190612abb565b60405180910390a4611112828888888888611830565b50505050505050565b6000807fa0302aa70960e6dc7a538844f5df4354a0261cba8bcae9d7c5b34d8719f88c9790508091505090565b600073ffffffffffffffffffffffffffffffffffffffff168473ffffffffffffffffffffffffffffffffffffffff1614156111b8576040517f08c379a00000000000000000000000000000000000000000000000000000000081526004016111af90612d2f565b60405180910390fd5b60006111c2610de9565b90506111e3816000876111d488611a17565b6111dd88611a17565b87611828565b60006111ed610dbc565b90508381600201600087815260200190815260200160002060008873ffffffffffffffffffffffffffffffffffffffff1673ffffffffffffffffffffffffffffffffffffffff16815260200190815260200160002060008282546112519190612f68565b925050819055508573ffffffffffffffffffffffffffffffffffffffff16600073ffffffffffffffffffffffffffffffffffffffff168373ffffffffffffffffffffffffffffffffffffffff167fc3d58168c5ae7397731d063d5bbf3d657854427343f4c083240f7aacaa2d0f6288886040516112cf929190612d8a565b60405180910390a46112e682600088888888611a91565b505050505050565b60006112f861111b565b9050818160040160008581526020019081526020016000209080519060200190611323929190611c9b565b50505050565b6000807fc8fcad8db84d3cc18b4c41d551ea0ee66dd599cde068d998e57d5e09332c131c90508091505090565b6000612710905090565b600073ffffffffffffffffffffffffffffffffffffffff168473ffffffffffffffffffffffffffffffffffffffff1614156113d0576040517f08c379a00000000000000000000000000000000000000000000000000000000081526004016113c790612c0f565b60405180910390fd5b60006113da610de9565b90506113fa8187876113eb88611a17565b6113f488611a17565b87611828565b6000611404610dbc565b9050600081600201600087815260200190815260200160002060008973ffffffffffffffffffffffffffffffffffffffff1673ffffffffffffffffffffffffffffffffffffffff168152602001908152602001600020549050848110156114a0576040517f08c379a000000000000000000000000000000000000000000000000000000000815260040161149790612c8f565b60405180910390fd5b84810382600201600088815260200190815260200160002060008a73ffffffffffffffffffffffffffffffffffffffff1673ffffffffffffffffffffffffffffffffffffffff168152602001908152602001600020819055508482600201600088815260200190815260200160002060008973ffffffffffffffffffffffffffffffffffffffff1673ffffffffffffffffffffffffffffffffffffffff168152602001908152602001600020600082825461155b9190612f68565b925050819055508673ffffffffffffffffffffffffffffffffffffffff168873ffffffffffffffffffffffffffffffffffffffff168473ffffffffffffffffffffffffffffffffffffffff167fc3d58168c5ae7397731d063d5bbf3d657854427343f4c083240f7aacaa2d0f6289896040516115d8929190612d8a565b60405180910390a46115ee838989898989611a91565b5050505050505050565b600073ffffffffffffffffffffffffffffffffffffffff168373ffffffffffffffffffffffffffffffffffffffff161415611668576040517f08c379a000000000000000000000000000000000000000000000000000000000815260040161165f90612c6f565b60405180910390fd5b6000611672610de9565b90506116a28185600061168487611a17565b61168d87611a17565b60405180602001604052806000815250611828565b60006116ac610dbc565b9050600081600201600086815260200190815260200160002060008773ffffffffffffffffffffffffffffffffffffffff1673ffffffffffffffffffffffffffffffffffffffff16815260200190815260200160002054905083811015611748576040517f08c379a000000000000000000000000000000000000000000000000000000000815260040161173f90612bcf565b60405180910390fd5b83810382600201600087815260200190815260200160002060008873ffffffffffffffffffffffffffffffffffffffff1673ffffffffffffffffffffffffffffffffffffffff16815260200190815260200160002081905550600073ffffffffffffffffffffffffffffffffffffffff168673ffffffffffffffffffffffffffffffffffffffff168473ffffffffffffffffffffffffffffffffffffffff167fc3d58168c5ae7397731d063d5bbf3d657854427343f4c083240f7aacaa2d0f628888604051611818929190612d8a565b60405180910390a4505050505050565b505050505050565b61184f8473ffffffffffffffffffffffffffffffffffffffff16611c78565b15611a0f578373ffffffffffffffffffffffffffffffffffffffff1663bc197c8187878686866040518663ffffffff1660e01b81526004016118959594939291906129a0565b602060405180830381600087803b1580156118af57600080fd5b505af19250505080156118e057506040513d601f19601f820116820180604052508101906118dd9190612379565b60015b611986576118ec6132ae565b806308c379a014156119495750611901613849565b8061190c575061194b565b806040517f08c379a00000000000000000000000000000000000000000000000000000000081526004016119409190612b0d565b60405180910390fd5b505b6040517f08c379a000000000000000000000000000000000000000000000000000000000815260040161197d90612b2f565b60405180910390fd5b63bc197c8160e01b7bffffffffffffffffffffffffffffffffffffffffffffffffffffffff1916817bffffffffffffffffffffffffffffffffffffffffffffffffffffffff191614611a0d576040517f08c379a0000000000000000000000000000000000000000000000000000000008152600401611a0490612b4f565b60405180910390fd5b505b505050505050565b60606000600167ffffffffffffffff811115611a3657611a3561327f565b5b604051908082528060200260200182016040528015611a645781602001602082028036833780820191505090505b5090508281600081518110611a7c57611a7b613250565b5b60200260200101818152505080915050919050565b611ab08473ffffffffffffffffffffffffffffffffffffffff16611c78565b15611c70578373ffffffffffffffffffffffffffffffffffffffff1663f23a6e6187878686866040518663ffffffff1660e01b8152600401611af6959493929190612a08565b602060405180830381600087803b158015611b1057600080fd5b505af1925050508015611b4157506040513d601f19601f82011682018060405250810190611b3e9190612379565b60015b611be757611b4d6132ae565b806308c379a01415611baa5750611b62613849565b80611b6d5750611bac565b806040517f08c379a0000000000000000000000000000000000000000000000000000000008152600401611ba19190612b0d565b60405180910390fd5b505b6040517f08c379a0000000000000000000000000000000000000000000000000000000008152600401611bde90612b2f565b60405180910390fd5b63f23a6e6160e01b7bffffffffffffffffffffffffffffffffffffffffffffffffffffffff1916817bffffffffffffffffffffffffffffffffffffffffffffffffffffffff191614611c6e576040517f08c379a0000000000000000000000000000000000000000000000000000000008152600401611c6590612b4f565b60405180910390fd5b505b505050505050565b6000808273ffffffffffffffffffffffffffffffffffffffff163b119050919050565b828054611ca790613117565b90600052602060002090601f016020900481019282611cc95760008555611d10565b82601f10611ce257805160ff1916838001178555611d10565b82800160010185558215611d10579182015b82811115611d0f578251825591602001919060010190611cf4565b5b509050611d1d9190611d21565b5090565b5b80821115611d3a576000816000905550600101611d22565b5090565b6000611d51611d4c84612dd8565b612db3565b90508083825260208201905082856020860282011115611d7457611d736132d5565b5b60005b85811015611da45781611d8a8882611f12565b845260208401935060208301925050600181019050611d77565b5050509392505050565b6000611dc1611dbc84612e04565b612db3565b90508083825260208201905082856020860282011115611de457611de36132d5565b5b60005b85811015611e145781611dfa8882612037565b845260208401935060208301925050600181019050611de7565b5050509392505050565b6000611e31611e2c84612e30565b612db3565b90508083825260208201905082856020860282011115611e5457611e536132d5565b5b60005b85811015611e845781611e6a888261204c565b845260208401935060208301925050600181019050611e57565b5050509392505050565b6000611ea1611e9c84612e5c565b612db3565b905082815260208101848484011115611ebd57611ebc6132da565b5b611ec88482856130d5565b509392505050565b6000611ee3611ede84612e8d565b612db3565b905082815260208101848484011115611eff57611efe6132da565b5b611f0a8482856130d5565b509392505050565b600081359050611f21816138df565b92915050565b600082601f830112611f3c57611f3b6132d0565b5b8135611f4c848260208601611d3e565b91505092915050565b600082601f830112611f6a57611f696132d0565b5b8135611f7a848260208601611dae565b91505092915050565b600082601f830112611f9857611f976132d0565b5b8135611fa8848260208601611e1e565b91505092915050565b600081359050611fc0816138f6565b92915050565b600081519050611fd58161390d565b92915050565b600082601f830112611ff057611fef6132d0565b5b8135612000848260208601611e8e565b91505092915050565b600082601f83011261201e5761201d6132d0565b5b813561202e848260208601611ed0565b91505092915050565b60008135905061204681613924565b92915050565b60008135905061205b8161393b565b92915050565b600080600080600060a0868803121561207d5761207c6132e4565b5b600061208b88828901611f12565b955050602061209c88828901611f12565b945050604086013567ffffffffffffffff8111156120bd576120bc6132df565b5b6120c988828901611f55565b935050606086013567ffffffffffffffff8111156120ea576120e96132df565b5b6120f688828901611f55565b925050608086013567ffffffffffffffff811115612117576121166132df565b5b61212388828901611fdb565b9150509295509295909350565b6000806000806080858703121561214a576121496132e4565b5b600061215887828801611f12565b945050602061216987828801611f12565b935050604061217a87828801612037565b925050606061218b87828801612037565b91505092959194509250565b600080600080600060a086880312156121b3576121b26132e4565b5b60006121c188828901611f12565b95505060206121d288828901611f12565b94505060406121e388828901612037565b93505060606121f488828901612037565b925050608086013567ffffffffffffffff811115612215576122146132df565b5b61222188828901611fdb565b9150509295509295909350565b60008060408385031215612245576122446132e4565b5b600061225385828601611f12565b925050602061226485828601611fb1565b9150509250929050565b60008060408385031215612285576122846132e4565b5b600061229385828601611f12565b92505060206122a485828601612037565b9150509250929050565b6000806000606084860312156122c7576122c66132e4565b5b60006122d586828701611f12565b93505060206122e686828701612037565b92505060406122f786828701612037565b9150509250925092565b60008060408385031215612318576123176132e4565b5b600083013567ffffffffffffffff811115612336576123356132df565b5b61234285828601611f27565b925050602083013567ffffffffffffffff811115612363576123626132df565b5b61236f85828601611f55565b9150509250929050565b60006020828403121561238f5761238e6132e4565b5b600061239d84828501611fc6565b91505092915050565b600080604083850312156123bd576123bc6132e4565b5b600083013567ffffffffffffffff8111156123db576123da6132df565b5b6123e785828601612009565b925050602083013567ffffffffffffffff811115612408576124076132df565b5b61241485828601612009565b9150509250929050565b600060208284031215612434576124336132e4565b5b600061244284828501612037565b91505092915050565b600080600080600080600060e0888a03121561246a576124696132e4565b5b60006124788a828b01612037565b97505060206124898a828b01611f12565b965050604061249a8a828b01612037565b955050606088013567ffffffffffffffff8111156124bb576124ba6132df565b5b6124c78a828b01612009565b94505060806124d88a828b01611fb1565b93505060a088013567ffffffffffffffff8111156124f9576124f86132df565b5b6125058a828b01611f27565b92505060c088013567ffffffffffffffff811115612526576125256132df565b5b6125328a828b01611f83565b91505092959891949750929550565b60008060408385031215612558576125576132e4565b5b600061256685828601612037565b925050602061257785828601612037565b9150509250929050565b600061258d83836125b1565b60208301905092915050565b60006125a58383612982565b60208301905092915050565b6125ba81613049565b82525050565b6125c981613049565b82525050565b60006125da82612ede565b6125e48185612f24565b93506125ef83612ebe565b8060005b838110156126205781516126078882612581565b975061261283612f0a565b9250506001810190506125f3565b5085935050505092915050565b600061263882612ee9565b6126428185612f35565b935061264d83612ece565b8060005b8381101561267e5781516126658882612599565b975061267083612f17565b925050600181019050612651565b5085935050505092915050565b6126948161305b565b82525050565b60006126a582612ef4565b6126af8185612f46565b93506126bf8185602086016130e4565b6126c8816132e9565b840191505092915050565b60006126de82612eff565b6126e88185612f57565b93506126f88185602086016130e4565b612701816132e9565b840191505092915050565b6000612719603483612f57565b915061272482613307565b604082019050919050565b600061273c602883612f57565b915061274782613356565b604082019050919050565b600061275f601683612f57565b915061276a826133a5565b602082019050919050565b6000612782602b83612f57565b915061278d826133ce565b604082019050919050565b60006127a5601383612f57565b91506127b08261341d565b602082019050919050565b60006127c8602483612f57565b91506127d382613446565b604082019050919050565b60006127eb604d83612f57565b91506127f682613495565b606082019050919050565b600061280e602583612f57565b91506128198261350a565b604082019050919050565b6000612831603283612f57565b915061283c82613559565b604082019050919050565b6000612854602383612f57565b915061285f826135a8565b604082019050919050565b6000612877602383612f57565b9150612882826135f7565b604082019050919050565b600061289a602a83612f57565b91506128a582613646565b604082019050919050565b60006128bd603083612f57565b91506128c882613695565b604082019050919050565b60006128e0600e83612f57565b91506128eb826136e4565b602082019050919050565b6000612903602983612f57565b915061290e8261370d565b604082019050919050565b6000612926602883612f57565b91506129318261375c565b604082019050919050565b6000612949602183612f57565b9150612954826137ab565b604082019050919050565b600061296c602583612f57565b9150612977826137fa565b604082019050919050565b61298b816130b3565b82525050565b61299a816130b3565b82525050565b600060a0820190506129b560008301886125c0565b6129c260208301876125c0565b81810360408301526129d4818661262d565b905081810360608301526129e8818561262d565b905081810360808301526129fc818461269a565b90509695505050505050565b600060a082019050612a1d60008301886125c0565b612a2a60208301876125c0565b612a376040830186612991565b612a446060830185612991565b8181036080830152612a56818461269a565b90509695505050505050565b60006040820190508181036000830152612a7c81856125cf565b90508181036020830152612a90818461262d565b90509392505050565b60006020820190508181036000830152612ab3818461262d565b905092915050565b60006040820190508181036000830152612ad5818561262d565b90508181036020830152612ae9818461262d565b90509392505050565b6000602082019050612b07600083018461268b565b92915050565b60006020820190508181036000830152612b2781846126d3565b905092915050565b60006020820190508181036000830152612b488161270c565b9050919050565b60006020820190508181036000830152612b688161272f565b9050919050565b60006020820190508181036000830152612b8881612752565b9050919050565b60006020820190508181036000830152612ba881612775565b9050919050565b60006020820190508181036000830152612bc881612798565b9050919050565b60006020820190508181036000830152612be8816127bb565b9050919050565b60006020820190508181036000830152612c08816127de565b9050919050565b60006020820190508181036000830152612c2881612801565b9050919050565b60006020820190508181036000830152612c4881612824565b9050919050565b60006020820190508181036000830152612c6881612847565b9050919050565b60006020820190508181036000830152612c888161286a565b9050919050565b60006020820190508181036000830152612ca88161288d565b9050919050565b60006020820190508181036000830152612cc8816128b0565b9050919050565b60006020820190508181036000830152612ce8816128d3565b9050919050565b60006020820190508181036000830152612d08816128f6565b9050919050565b60006020820190508181036000830152612d2881612919565b9050919050565b60006020820190508181036000830152612d488161293c565b9050919050565b60006020820190508181036000830152612d688161295f565b9050919050565b6000602082019050612d846000830184612991565b92915050565b6000604082019050612d9f6000830185612991565b612dac6020830184612991565b9392505050565b6000612dbd612dce565b9050612dc98282613149565b919050565b6000604051905090565b600067ffffffffffffffff821115612df357612df261327f565b5b602082029050602081019050919050565b600067ffffffffffffffff821115612e1f57612e1e61327f565b5b602082029050602081019050919050565b600067ffffffffffffffff821115612e4b57612e4a61327f565b5b602082029050602081019050919050565b600067ffffffffffffffff821115612e7757612e7661327f565b5b612e80826132e9565b9050602081019050919050565b600067ffffffffffffffff821115612ea857612ea761327f565b5b612eb1826132e9565b9050602081019050919050565b6000819050602082019050919050565b6000819050602082019050919050565b600081519050919050565b600081519050919050565b600081519050919050565b600081519050919050565b6000602082019050919050565b6000602082019050919050565b600082825260208201905092915050565b600082825260208201905092915050565b600082825260208201905092915050565b600082825260208201905092915050565b6000612f73826130b3565b9150612f7e836130b3565b9250827fffffffffffffffffffffffffffffffffffffffffffffffffffffffffffffffff03821115612fb357612fb26131c3565b5b828201905092915050565b6000612fc9826130b3565b9150612fd4836130b3565b925082612fe457612fe36131f2565b5b828204905092915050565b6000612ffa826130b3565b9150613005836130b3565b9250817fffffffffffffffffffffffffffffffffffffffffffffffffffffffffffffffff048311821515161561303e5761303d6131c3565b5b828202905092915050565b600061305482613093565b9050919050565b60008115159050919050565b60007fffffffff0000000000000000000000000000000000000000000000000000000082169050919050565b600073ffffffffffffffffffffffffffffffffffffffff82169050919050565b6000819050919050565b60006bffffffffffffffffffffffff82169050919050565b82818337600083830152505050565b60005b838110156131025780820151818401526020810190506130e7565b83811115613111576000848401525b50505050565b6000600282049050600182168061312f57607f821691505b6020821081141561314357613142613221565b5b50919050565b613152826132e9565b810181811067ffffffffffffffff821117156131715761317061327f565b5b80604052505050565b6000613185826130b3565b91507fffffffffffffffffffffffffffffffffffffffffffffffffffffffffffffffff8214156131b8576131b76131c3565b5b600182019050919050565b7f4e487b7100000000000000000000000000000000000000000000000000000000600052601160045260246000fd5b7f4e487b7100000000000000000000000000000000000000000000000000000000600052601260045260246000fd5b7f4e487b7100000000000000000000000000000000000000000000000000000000600052602260045260246000fd5b7f4e487b7100000000000000000000000000000000000000000000000000000000600052603260045260246000fd5b7f4e487b7100000000000000000000000000000000000000000000000000000000600052604160045260246000fd5b600060033d11156132cd5760046000803e6132ca6000516132fa565b90505b90565b600080fd5b600080fd5b600080fd5b600080fd5b600080fd5b6000601f19601f8301169050919050565b60008160e01c9050919050565b7f455243313135353a207472616e7366657220746f206e6f6e204552433131353560008201527f526563656976657220696d706c656d656e746572000000000000000000000000602082015250565b7f455243313135353a204552433131353552656365697665722072656a6563746560008201527f6420746f6b656e73000000000000000000000000000000000000000000000000602082015250565b7f4d757374206f776e2074686520636f6e74726163742e00000000000000000000600082015250565b7f455243313135353a2062616c616e636520717565727920666f7220746865207a60008201527f65726f2061646472657373000000000000000000000000000000000000000000602082015250565b7f414c52454144595f494e495449414c495a454400000000000000000000000000600082015250565b7f455243313135353a206275726e20616d6f756e7420657863656564732062616c60008201527f616e636500000000000000000000000000000000000000000000000000000000602082015250565b7f455243313135353a20746865206c656e677468206f6620726f79616c7479206160008201527f6464726573736573206973206e6f7420657175616c20746f20746865206c656e60208201527f677468206f662073686172657300000000000000000000000000000000000000604082015250565b7f455243313135353a207472616e7366657220746f20746865207a65726f20616460008201527f6472657373000000000000000000000000000000000000000000000000000000602082015250565b7f455243313135353a207472616e736665722063616c6c6572206973206e6f742060008201527f6f776e6572206e6f7220617070726f7665640000000000000000000000000000602082015250565b7f455243373231466163746f72793a20556e617574686f72697a6564204163636560008201527f7373210000000000000000000000000000000000000000000000000000000000602082015250565b7f455243313135353a206275726e2066726f6d20746865207a65726f206164647260008201527f6573730000000000000000000000000000000000000000000000000000000000602082015250565b7f455243313135353a20696e73756666696369656e742062616c616e636520666f60008201527f72207472616e7366657200000000000000000000000000000000000000000000602082015250565b7f455243313135353a20746f6f206d616e7920726f79616c74792061646472657360008201527f73657320686173206265656e2073657400000000000000000000000000000000602082015250565b7f494e56414c49445f504152414d53000000000000000000000000000000000000600082015250565b7f455243313135353a206163636f756e747320616e6420696473206c656e67746860008201527f206d69736d617463680000000000000000000000000000000000000000000000602082015250565b7f455243313135353a2069647320616e6420616d6f756e7473206c656e6774682060008201527f6d69736d61746368000000000000000000000000000000000000000000000000602082015250565b7f455243313135353a206d696e7420746f20746865207a65726f2061646472657360008201527f7300000000000000000000000000000000000000000000000000000000000000602082015250565b7f45524331313535466163746f72793a205f746f206d757374206265206e6f6e2d60008201527f7a65726f2e000000000000000000000000000000000000000000000000000000602082015250565b600060443d1015613859576138dc565b613861612dce565b60043d036004823e80513d602482011167ffffffffffffffff821117156138895750506138dc565b808201805167ffffffffffffffff8111156138a757505050506138dc565b80602083010160043d0385018111156138c45750505050506138dc565b6138d382602001850186613149565b82955050505050505b90565b6138e881613049565b81146138f357600080fd5b50565b6138ff8161305b565b811461390a57600080fd5b50565b61391681613067565b811461392157600080fd5b50565b61392d816130b3565b811461393857600080fd5b50565b613944816130bd565b811461394f57600080fd5b5056fea26469706673582212203f1328df6826d46bd82827465fb4679f2053a791f66e83bc1b087ea545c2e9aa64736f6c63430008060033",
  "linkReferences": {},
  "deployedLinkReferences": {}
}