{
  "_format": "hh-sol-artifact-1",
  "contractName": "ERC1155FactoryFacet",
  "sourceName": "contracts/facets/ERC1155Factory/ERC1155FactoryFacet.sol",
  "abi": [
    {
      "anonymous": false,
      "inputs": [
        {
          "indexed": true,
          "internalType": "address",
          "name": "account",
          "type": "address"
        },
        {
          "indexed": true,
          "internalType": "address",
          "name": "operator",
          "type": "address"
        },
        {
          "indexed": false,
          "internalType": "bool",
          "name": "approved",
          "type": "bool"
        }
      ],
      "name": "ApprovalForAll",
      "type": "event"
    },
    {
      "anonymous": false,
      "inputs": [
        {
          "indexed": true,
          "internalType": "address",
          "name": "operator",
          "type": "address"
        },
        {
          "indexed": true,
          "internalType": "address",
          "name": "from",
          "type": "address"
        },
        {
          "indexed": true,
          "internalType": "address",
          "name": "to",
          "type": "address"
        },
        {
          "indexed": false,
          "internalType": "uint256[]",
          "name": "ids",
          "type": "uint256[]"
        },
        {
          "indexed": false,
          "internalType": "uint256[]",
          "name": "values",
          "type": "uint256[]"
        }
      ],
      "name": "TransferBatch",
      "type": "event"
    },
    {
      "anonymous": false,
      "inputs": [
        {
          "indexed": true,
          "internalType": "address",
          "name": "operator",
          "type": "address"
        },
        {
          "indexed": true,
          "internalType": "address",
          "name": "from",
          "type": "address"
        },
        {
          "indexed": true,
          "internalType": "address",
          "name": "to",
          "type": "address"
        },
        {
          "indexed": false,
          "internalType": "uint256",
          "name": "id",
          "type": "uint256"
        },
        {
          "indexed": false,
          "internalType": "uint256",
          "name": "value",
          "type": "uint256"
        }
      ],
      "name": "TransferSingle",
      "type": "event"
    },
    {
      "inputs": [
        {
          "internalType": "address",
          "name": "account",
          "type": "address"
        },
        {
          "internalType": "uint256",
          "name": "id",
          "type": "uint256"
        }
      ],
      "name": "balanceOf",
      "outputs": [
        {
          "internalType": "uint256",
          "name": "",
          "type": "uint256"
        }
      ],
      "stateMutability": "view",
      "type": "function"
    },
    {
      "inputs": [
        {
          "internalType": "address[]",
          "name": "accounts",
          "type": "address[]"
        },
        {
          "internalType": "uint256[]",
          "name": "ids",
          "type": "uint256[]"
        }
      ],
      "name": "balanceOfBatch",
      "outputs": [
        {
          "internalType": "uint256[]",
          "name": "",
          "type": "uint256[]"
        }
      ],
      "stateMutability": "view",
      "type": "function"
    },
    {
      "inputs": [
        {
          "internalType": "address",
          "name": "from",
          "type": "address"
        },
        {
          "internalType": "uint256",
          "name": "tokenId",
          "type": "uint256"
        },
        {
          "internalType": "uint256",
          "name": "amount",
          "type": "uint256"
        }
      ],
      "name": "burn",
      "outputs": [],
      "stateMutability": "nonpayable",
      "type": "function"
    },
    {
      "inputs": [
        {
          "internalType": "string",
          "name": "name_",
          "type": "string"
        },
        {
          "internalType": "string",
          "name": "symbol_",
          "type": "string"
        }
      ],
      "name": "erc1155FactoryFacetInit",
      "outputs": [],
      "stateMutability": "nonpayable",
      "type": "function"
    },
    {
      "inputs": [
        {
          "internalType": "uint256",
          "name": "tokenId",
          "type": "uint256"
        },
        {
          "internalType": "address",
          "name": "creator",
          "type": "address"
        },
        {
          "internalType": "uint256",
          "name": "totalSupply",
          "type": "uint256"
        },
        {
          "internalType": "string",
          "name": "tokenURI",
          "type": "string"
        },
        {
          "internalType": "address[]",
          "name": "royaltyReceiver",
          "type": "address[]"
        },
        {
          "internalType": "uint96[]",
          "name": "tokenRoyaltyInBips",
          "type": "uint96[]"
        }
      ],
      "name": "mint",
      "outputs": [],
      "stateMutability": "nonpayable",
      "type": "function"
    },
    {
      "inputs": [
        {
          "internalType": "address",
          "name": "from",
          "type": "address"
        },
        {
          "internalType": "address",
          "name": "to",
          "type": "address"
        },
        {
          "internalType": "uint256[]",
          "name": "ids",
          "type": "uint256[]"
        },
        {
          "internalType": "uint256[]",
          "name": "amounts",
          "type": "uint256[]"
        },
        {
          "internalType": "bytes",
          "name": "data",
          "type": "bytes"
        }
      ],
      "name": "safeBatchTransferFrom",
      "outputs": [],
      "stateMutability": "nonpayable",
      "type": "function"
    },
    {
      "inputs": [
        {
          "internalType": "address",
          "name": "from",
          "type": "address"
        },
        {
          "internalType": "address",
          "name": "to",
          "type": "address"
        },
        {
          "internalType": "uint256",
          "name": "id",
          "type": "uint256"
        },
        {
          "internalType": "uint256",
          "name": "amount",
          "type": "uint256"
        },
        {
          "internalType": "bytes",
          "name": "data",
          "type": "bytes"
        }
      ],
      "name": "safeTransferFrom",
      "outputs": [],
      "stateMutability": "nonpayable",
      "type": "function"
    },
    {
      "inputs": [
        {
          "internalType": "address",
          "name": "operator",
          "type": "address"
        },
        {
          "internalType": "bool",
          "name": "approved",
          "type": "bool"
        }
      ],
      "name": "setApprovalForAll",
      "outputs": [],
      "stateMutability": "nonpayable",
      "type": "function"
    },
    {
      "inputs": [
        {
          "internalType": "address",
          "name": "_from",
          "type": "address"
        },
        {
          "internalType": "address",
          "name": "_to",
          "type": "address"
        },
        {
          "internalType": "uint256",
          "name": "_tokenID",
          "type": "uint256"
        },
        {
          "internalType": "uint256",
          "name": "_amount",
          "type": "uint256"
        }
      ],
      "name": "transfer",
      "outputs": [
        {
          "internalType": "bool",
          "name": "",
          "type": "bool"
        }
      ],
      "stateMutability": "nonpayable",
      "type": "function"
    },
    {
      "inputs": [
        {
          "internalType": "uint256",
          "name": "",
          "type": "uint256"
        }
      ],
      "name": "uri",
      "outputs": [
        {
          "internalType": "string",
          "name": "",
          "type": "string"
        }
      ],
      "stateMutability": "view",
      "type": "function"
    }
  ],
  "bytecode": "0x608060405234801561001057600080fd5b506130f8806100206000396000f3fe608060405234801561001057600080fd5b506004361061009d5760003560e01c806370839f791161006657806370839f791461017e578063a22cb4651461019a578063dcbb855e146101b6578063f242432a146101d2578063f5298aca146101ee5761009d565b8062fdd58e146100a25780630411b252146100d25780630e89341c146101025780632eb2c2d6146101325780634e1273f41461014e575b600080fd5b6100bc60048036038101906100b79190611e2a565b61020a565b6040516100c9919061270e565b60405180910390f35b6100ec60048036038101906100e79190611cec565b6102e3565b6040516100f99190612511565b60405180910390f35b61011c60048036038101906101179190611fda565b61037c565b604051610129919061252c565b60405180910390f35b61014c60048036038101906101479190611c1d565b61041f565b005b61016860048036038101906101639190611ebd565b610543565b60405161017591906124b8565b60405180910390f35b61019860048036038101906101939190612007565b61065c565b005b6101b460048036038101906101af9190611dea565b61073e565b005b6101d060048036038101906101cb9190611f62565b61084c565b005b6101ec60048036038101906101e79190611d53565b61095e565b005b61020860048036038101906102039190611e6a565b610972565b005b60008073ffffffffffffffffffffffffffffffffffffffff168373ffffffffffffffffffffffffffffffffffffffff16141561027b576040517f08c379a00000000000000000000000000000000000000000000000000000000081526004016102729061258e565b60405180910390fd5b6000610285610982565b905080600201600084815260200190815260200160002060008573ffffffffffffffffffffffffffffffffffffffff1673ffffffffffffffffffffffffffffffffffffffff1681526020019081526020016000205491505092915050565b60008073ffffffffffffffffffffffffffffffffffffffff168473ffffffffffffffffffffffffffffffffffffffff161415610354576040517f08c379a000000000000000000000000000000000000000000000000000000000815260040161034b906126ee565b60405180910390fd5b610370858585856040518060200160405280600081525061095e565b60019050949350505050565b60606000610388610982565b9050806003018054610399906129f2565b80601f01602080910402602001604051908101604052809291908181526020018280546103c5906129f2565b80156104125780601f106103e757610100808354040283529160200191610412565b820191906000526020600020905b8154815290600101906020018083116103f557829003601f168201915b5050505050915050919050565b6104276109af565b73ffffffffffffffffffffffffffffffffffffffff168573ffffffffffffffffffffffffffffffffffffffff1614806104f05750600060010160008673ffffffffffffffffffffffffffffffffffffffff1673ffffffffffffffffffffffffffffffffffffffff16815260200190815260200160002060006104a76109af565b73ffffffffffffffffffffffffffffffffffffffff1673ffffffffffffffffffffffffffffffffffffffff16815260200190815260200160002060009054906101000a900460ff165b61052f576040517f08c379a00000000000000000000000000000000000000000000000000000000081526004016105269061260e565b60405180910390fd5b61053c85858585856109b7565b5050505050565b60608151835114610589576040517f08c379a00000000000000000000000000000000000000000000000000000000081526004016105809061268e565b60405180910390fd5b6000835167ffffffffffffffff8111156105a6576105a5612b2b565b5b6040519080825280602002602001820160405280156105d45781602001602082028036833780820191505090505b50905060005b8451811015610651576106218582815181106105f9576105f8612afc565b5b602002602001015185838151811061061457610613612afc565b5b602002602001015161020a565b82828151811061063457610633612afc565b5b6020026020010181815250508061064a90612a55565b90506105da565b508091505092915050565b6000610666610ce1565b90508581600001600089815260200190815260200160002060006101000a81548173ffffffffffffffffffffffffffffffffffffffff021916908373ffffffffffffffffffffffffffffffffffffffff1602179055508581600101600089815260200190815260200160002060006101000a81548173ffffffffffffffffffffffffffffffffffffffff021916908373ffffffffffffffffffffffffffffffffffffffff16021790555061072b86888760405180602001604052806000815250610d0e565b6107358785610eb4565b50505050505050565b806000600101600061074e6109af565b73ffffffffffffffffffffffffffffffffffffffff1673ffffffffffffffffffffffffffffffffffffffff16815260200190815260200160002060008473ffffffffffffffffffffffffffffffffffffffff1673ffffffffffffffffffffffffffffffffffffffff16815260200190815260200160002060006101000a81548160ff0219169083151502179055508173ffffffffffffffffffffffffffffffffffffffff166107fb6109af565b73ffffffffffffffffffffffffffffffffffffffff167f17307eab39ab6107e8899845ad3d59bd9653f200f220920489ca2b5937696c31836040516108409190612511565b60405180910390a35050565b6000610856610eef565b90506000610862610ce1565b90506000816002018054610875906129f2565b905014801561089457506000816003018054610890906129f2565b9050145b6108d3576040517f08c379a00000000000000000000000000000000000000000000000000000000081526004016108ca906125ae565b60405180910390fd5b60008451141580156108e757506000835114155b610926576040517f08c379a000000000000000000000000000000000000000000000000000000000815260040161091d9061266e565b60405180910390fd5b8381600201908051906020019061093e929190611857565b5082816003019080519060200190610957929190611857565b5050505050565b61096b8585858585610f1c565b5050505050565b61097d8383836111b4565b505050565b6000807fd1fd1ec9eb6f457e5e32da0d2921ff6daf7fd2085ec060a076b391ca2400b28290508091505090565b600033905090565b81518351146109fb576040517f08c379a00000000000000000000000000000000000000000000000000000000081526004016109f2906126ae565b60405180910390fd5b600073ffffffffffffffffffffffffffffffffffffffff168473ffffffffffffffffffffffffffffffffffffffff161415610a6b576040517f08c379a0000000000000000000000000000000000000000000000000000000008152600401610a62906125ee565b60405180910390fd5b6000610a756109af565b9050610a858187878787876113e4565b6000610a8f610982565b905060005b8551811015610c4b576000868281518110610ab257610ab1612afc565b5b602002602001015190506000868381518110610ad157610ad0612afc565b5b60200260200101519050600084600201600084815260200190815260200160002060008c73ffffffffffffffffffffffffffffffffffffffff1673ffffffffffffffffffffffffffffffffffffffff16815260200190815260200160002054905081811015610b75576040517f08c379a0000000000000000000000000000000000000000000000000000000008152600401610b6c9061264e565b60405180910390fd5b81810385600201600085815260200190815260200160002060008d73ffffffffffffffffffffffffffffffffffffffff1673ffffffffffffffffffffffffffffffffffffffff168152602001908152602001600020819055508185600201600085815260200190815260200160002060008c73ffffffffffffffffffffffffffffffffffffffff1673ffffffffffffffffffffffffffffffffffffffff1681526020019081526020016000206000828254610c3091906128ce565b9250508190555050505080610c4490612a55565b9050610a94565b508573ffffffffffffffffffffffffffffffffffffffff168773ffffffffffffffffffffffffffffffffffffffff168373ffffffffffffffffffffffffffffffffffffffff167f4a39dc06d4c0dbc64b70af90fd698a233a518aa5d07e595d983b8c0526c8f7fb8888604051610cc29291906124da565b60405180910390a4610cd88288888888886113ec565b50505050505050565b6000807fa0302aa70960e6dc7a538844f5df4354a0261cba8bcae9d7c5b34d8719f88c9790508091505090565b600073ffffffffffffffffffffffffffffffffffffffff168473ffffffffffffffffffffffffffffffffffffffff161415610d7e576040517f08c379a0000000000000000000000000000000000000000000000000000000008152600401610d75906126ce565b60405180910390fd5b6000610d886109af565b9050610da981600087610d9a886115d3565b610da3886115d3565b876113e4565b6000610db3610982565b90508381600201600087815260200190815260200160002060008873ffffffffffffffffffffffffffffffffffffffff1673ffffffffffffffffffffffffffffffffffffffff1681526020019081526020016000206000828254610e1791906128ce565b925050819055508573ffffffffffffffffffffffffffffffffffffffff16600073ffffffffffffffffffffffffffffffffffffffff168373ffffffffffffffffffffffffffffffffffffffff167fc3d58168c5ae7397731d063d5bbf3d657854427343f4c083240f7aacaa2d0f628888604051610e95929190612729565b60405180910390a4610eac8260008888888861164d565b505050505050565b6000610ebe610ce1565b9050818160040160008581526020019081526020016000209080519060200190610ee9929190611857565b50505050565b6000807fc8fcad8db84d3cc18b4c41d551ea0ee66dd599cde068d998e57d5e09332c131c90508091505090565b600073ffffffffffffffffffffffffffffffffffffffff168473ffffffffffffffffffffffffffffffffffffffff161415610f8c576040517f08c379a0000000000000000000000000000000000000000000000000000000008152600401610f83906125ee565b60405180910390fd5b6000610f966109af565b9050610fb6818787610fa7886115d3565b610fb0886115d3565b876113e4565b6000610fc0610982565b9050600081600201600087815260200190815260200160002060008973ffffffffffffffffffffffffffffffffffffffff1673ffffffffffffffffffffffffffffffffffffffff1681526020019081526020016000205490508481101561105c576040517f08c379a00000000000000000000000000000000000000000000000000000000081526004016110539061264e565b60405180910390fd5b84810382600201600088815260200190815260200160002060008a73ffffffffffffffffffffffffffffffffffffffff1673ffffffffffffffffffffffffffffffffffffffff168152602001908152602001600020819055508482600201600088815260200190815260200160002060008973ffffffffffffffffffffffffffffffffffffffff1673ffffffffffffffffffffffffffffffffffffffff168152602001908152602001600020600082825461111791906128ce565b925050819055508673ffffffffffffffffffffffffffffffffffffffff168873ffffffffffffffffffffffffffffffffffffffff168473ffffffffffffffffffffffffffffffffffffffff167fc3d58168c5ae7397731d063d5bbf3d657854427343f4c083240f7aacaa2d0f628989604051611194929190612729565b60405180910390a46111aa83898989898961164d565b5050505050505050565b600073ffffffffffffffffffffffffffffffffffffffff168373ffffffffffffffffffffffffffffffffffffffff161415611224576040517f08c379a000000000000000000000000000000000000000000000000000000000815260040161121b9061262e565b60405180910390fd5b600061122e6109af565b905061125e81856000611240876115d3565b611249876115d3565b604051806020016040528060008152506113e4565b6000611268610982565b9050600081600201600086815260200190815260200160002060008773ffffffffffffffffffffffffffffffffffffffff1673ffffffffffffffffffffffffffffffffffffffff16815260200190815260200160002054905083811015611304576040517f08c379a00000000000000000000000000000000000000000000000000000000081526004016112fb906125ce565b60405180910390fd5b83810382600201600087815260200190815260200160002060008873ffffffffffffffffffffffffffffffffffffffff1673ffffffffffffffffffffffffffffffffffffffff16815260200190815260200160002081905550600073ffffffffffffffffffffffffffffffffffffffff168673ffffffffffffffffffffffffffffffffffffffff168473ffffffffffffffffffffffffffffffffffffffff167fc3d58168c5ae7397731d063d5bbf3d657854427343f4c083240f7aacaa2d0f6288886040516113d4929190612729565b60405180910390a4505050505050565b505050505050565b61140b8473ffffffffffffffffffffffffffffffffffffffff16611834565b156115cb578373ffffffffffffffffffffffffffffffffffffffff1663bc197c8187878686866040518663ffffffff1660e01b81526004016114519594939291906123f6565b602060405180830381600087803b15801561146b57600080fd5b505af192505050801561149c57506040513d601f19601f820116820180604052508101906114999190611f35565b60015b611542576114a8612b5a565b806308c379a0141561150557506114bd612fb9565b806114c85750611507565b806040517f08c379a00000000000000000000000000000000000000000000000000000000081526004016114fc919061252c565b60405180910390fd5b505b6040517f08c379a00000000000000000000000000000000000000000000000000000000081526004016115399061254e565b60405180910390fd5b63bc197c8160e01b7bffffffffffffffffffffffffffffffffffffffffffffffffffffffff1916817bffffffffffffffffffffffffffffffffffffffffffffffffffffffff1916146115c9576040517f08c379a00000000000000000000000000000000000000000000000000000000081526004016115c09061256e565b60405180910390fd5b505b505050505050565b60606000600167ffffffffffffffff8111156115f2576115f1612b2b565b5b6040519080825280602002602001820160405280156116205781602001602082028036833780820191505090505b509050828160008151811061163857611637612afc565b5b60200260200101818152505080915050919050565b61166c8473ffffffffffffffffffffffffffffffffffffffff16611834565b1561182c578373ffffffffffffffffffffffffffffffffffffffff1663f23a6e6187878686866040518663ffffffff1660e01b81526004016116b295949392919061245e565b602060405180830381600087803b1580156116cc57600080fd5b505af19250505080156116fd57506040513d601f19601f820116820180604052508101906116fa9190611f35565b60015b6117a357611709612b5a565b806308c379a01415611766575061171e612fb9565b806117295750611768565b806040517f08c379a000000000000000000000000000000000000000000000000000000000815260040161175d919061252c565b60405180910390fd5b505b6040517f08c379a000000000000000000000000000000000000000000000000000000000815260040161179a9061254e565b60405180910390fd5b63f23a6e6160e01b7bffffffffffffffffffffffffffffffffffffffffffffffffffffffff1916817bffffffffffffffffffffffffffffffffffffffffffffffffffffffff19161461182a576040517f08c379a00000000000000000000000000000000000000000000000000000000081526004016118219061256e565b60405180910390fd5b505b505050505050565b6000808273ffffffffffffffffffffffffffffffffffffffff163b119050919050565b828054611863906129f2565b90600052602060002090601f01602090048101928261188557600085556118cc565b82601f1061189e57805160ff19168380011785556118cc565b828001600101855582156118cc579182015b828111156118cb5782518255916020019190600101906118b0565b5b5090506118d991906118dd565b5090565b5b808211156118f65760008160009055506001016118de565b5090565b600061190d61190884612777565b612752565b905080838252602082019050828560208602820111156119305761192f612b81565b5b60005b8581101561196057816119468882611ace565b845260208401935060208301925050600181019050611933565b5050509392505050565b600061197d611978846127a3565b612752565b905080838252602082019050828560208602820111156119a05761199f612b81565b5b60005b858110156119d057816119b68882611bf3565b8452602084019350602083019250506001810190506119a3565b5050509392505050565b60006119ed6119e8846127cf565b612752565b90508083825260208201905082856020860282011115611a1057611a0f612b81565b5b60005b85811015611a405781611a268882611c08565b845260208401935060208301925050600181019050611a13565b5050509392505050565b6000611a5d611a58846127fb565b612752565b905082815260208101848484011115611a7957611a78612b86565b5b611a848482856129b0565b509392505050565b6000611a9f611a9a8461282c565b612752565b905082815260208101848484011115611abb57611aba612b86565b5b611ac68482856129b0565b509392505050565b600081359050611add8161304f565b92915050565b600082601f830112611af857611af7612b7c565b5b8135611b088482602086016118fa565b91505092915050565b600082601f830112611b2657611b25612b7c565b5b8135611b3684826020860161196a565b91505092915050565b600082601f830112611b5457611b53612b7c565b5b8135611b648482602086016119da565b91505092915050565b600081359050611b7c81613066565b92915050565b600081519050611b918161307d565b92915050565b600082601f830112611bac57611bab612b7c565b5b8135611bbc848260208601611a4a565b91505092915050565b600082601f830112611bda57611bd9612b7c565b5b8135611bea848260208601611a8c565b91505092915050565b600081359050611c0281613094565b92915050565b600081359050611c17816130ab565b92915050565b600080600080600060a08688031215611c3957611c38612b90565b5b6000611c4788828901611ace565b9550506020611c5888828901611ace565b945050604086013567ffffffffffffffff811115611c7957611c78612b8b565b5b611c8588828901611b11565b935050606086013567ffffffffffffffff811115611ca657611ca5612b8b565b5b611cb288828901611b11565b925050608086013567ffffffffffffffff811115611cd357611cd2612b8b565b5b611cdf88828901611b97565b9150509295509295909350565b60008060008060808587031215611d0657611d05612b90565b5b6000611d1487828801611ace565b9450506020611d2587828801611ace565b9350506040611d3687828801611bf3565b9250506060611d4787828801611bf3565b91505092959194509250565b600080600080600060a08688031215611d6f57611d6e612b90565b5b6000611d7d88828901611ace565b9550506020611d8e88828901611ace565b9450506040611d9f88828901611bf3565b9350506060611db088828901611bf3565b925050608086013567ffffffffffffffff811115611dd157611dd0612b8b565b5b611ddd88828901611b97565b9150509295509295909350565b60008060408385031215611e0157611e00612b90565b5b6000611e0f85828601611ace565b9250506020611e2085828601611b6d565b9150509250929050565b60008060408385031215611e4157611e40612b90565b5b6000611e4f85828601611ace565b9250506020611e6085828601611bf3565b9150509250929050565b600080600060608486031215611e8357611e82612b90565b5b6000611e9186828701611ace565b9350506020611ea286828701611bf3565b9250506040611eb386828701611bf3565b9150509250925092565b60008060408385031215611ed457611ed3612b90565b5b600083013567ffffffffffffffff811115611ef257611ef1612b8b565b5b611efe85828601611ae3565b925050602083013567ffffffffffffffff811115611f1f57611f1e612b8b565b5b611f2b85828601611b11565b9150509250929050565b600060208284031215611f4b57611f4a612b90565b5b6000611f5984828501611b82565b91505092915050565b60008060408385031215611f7957611f78612b90565b5b600083013567ffffffffffffffff811115611f9757611f96612b8b565b5b611fa385828601611bc5565b925050602083013567ffffffffffffffff811115611fc457611fc3612b8b565b5b611fd085828601611bc5565b9150509250929050565b600060208284031215611ff057611fef612b90565b5b6000611ffe84828501611bf3565b91505092915050565b60008060008060008060c0878903121561202457612023612b90565b5b600061203289828a01611bf3565b965050602061204389828a01611ace565b955050604061205489828a01611bf3565b945050606087013567ffffffffffffffff81111561207557612074612b8b565b5b61208189828a01611bc5565b935050608087013567ffffffffffffffff8111156120a2576120a1612b8b565b5b6120ae89828a01611ae3565b92505060a087013567ffffffffffffffff8111156120cf576120ce612b8b565b5b6120db89828a01611b3f565b9150509295509295509295565b60006120f483836123d8565b60208301905092915050565b61210981612924565b82525050565b600061211a8261286d565b612124818561289b565b935061212f8361285d565b8060005b8381101561216057815161214788826120e8565b97506121528361288e565b925050600181019050612133565b5085935050505092915050565b61217681612936565b82525050565b600061218782612878565b61219181856128ac565b93506121a18185602086016129bf565b6121aa81612b95565b840191505092915050565b60006121c082612883565b6121ca81856128bd565b93506121da8185602086016129bf565b6121e381612b95565b840191505092915050565b60006121fb6034836128bd565b915061220682612bb3565b604082019050919050565b600061221e6028836128bd565b915061222982612c02565b604082019050919050565b6000612241602b836128bd565b915061224c82612c51565b604082019050919050565b60006122646013836128bd565b915061226f82612ca0565b602082019050919050565b60006122876024836128bd565b915061229282612cc9565b604082019050919050565b60006122aa6025836128bd565b91506122b582612d18565b604082019050919050565b60006122cd6032836128bd565b91506122d882612d67565b604082019050919050565b60006122f06023836128bd565b91506122fb82612db6565b604082019050919050565b6000612313602a836128bd565b915061231e82612e05565b604082019050919050565b6000612336600e836128bd565b915061234182612e54565b602082019050919050565b60006123596029836128bd565b915061236482612e7d565b604082019050919050565b600061237c6028836128bd565b915061238782612ecc565b604082019050919050565b600061239f6021836128bd565b91506123aa82612f1b565b604082019050919050565b60006123c26025836128bd565b91506123cd82612f6a565b604082019050919050565b6123e18161298e565b82525050565b6123f08161298e565b82525050565b600060a08201905061240b6000830188612100565b6124186020830187612100565b818103604083015261242a818661210f565b9050818103606083015261243e818561210f565b90508181036080830152612452818461217c565b90509695505050505050565b600060a0820190506124736000830188612100565b6124806020830187612100565b61248d60408301866123e7565b61249a60608301856123e7565b81810360808301526124ac818461217c565b90509695505050505050565b600060208201905081810360008301526124d2818461210f565b905092915050565b600060408201905081810360008301526124f4818561210f565b90508181036020830152612508818461210f565b90509392505050565b6000602082019050612526600083018461216d565b92915050565b6000602082019050818103600083015261254681846121b5565b905092915050565b60006020820190508181036000830152612567816121ee565b9050919050565b6000602082019050818103600083015261258781612211565b9050919050565b600060208201905081810360008301526125a781612234565b9050919050565b600060208201905081810360008301526125c781612257565b9050919050565b600060208201905081810360008301526125e78161227a565b9050919050565b600060208201905081810360008301526126078161229d565b9050919050565b60006020820190508181036000830152612627816122c0565b9050919050565b60006020820190508181036000830152612647816122e3565b9050919050565b6000602082019050818103600083015261266781612306565b9050919050565b6000602082019050818103600083015261268781612329565b9050919050565b600060208201905081810360008301526126a78161234c565b9050919050565b600060208201905081810360008301526126c78161236f565b9050919050565b600060208201905081810360008301526126e781612392565b9050919050565b60006020820190508181036000830152612707816123b5565b9050919050565b600060208201905061272360008301846123e7565b92915050565b600060408201905061273e60008301856123e7565b61274b60208301846123e7565b9392505050565b600061275c61276d565b90506127688282612a24565b919050565b6000604051905090565b600067ffffffffffffffff82111561279257612791612b2b565b5b602082029050602081019050919050565b600067ffffffffffffffff8211156127be576127bd612b2b565b5b602082029050602081019050919050565b600067ffffffffffffffff8211156127ea576127e9612b2b565b5b602082029050602081019050919050565b600067ffffffffffffffff82111561281657612815612b2b565b5b61281f82612b95565b9050602081019050919050565b600067ffffffffffffffff82111561284757612846612b2b565b5b61285082612b95565b9050602081019050919050565b6000819050602082019050919050565b600081519050919050565b600081519050919050565b600081519050919050565b6000602082019050919050565b600082825260208201905092915050565b600082825260208201905092915050565b600082825260208201905092915050565b60006128d98261298e565b91506128e48361298e565b9250827fffffffffffffffffffffffffffffffffffffffffffffffffffffffffffffffff0382111561291957612918612a9e565b5b828201905092915050565b600061292f8261296e565b9050919050565b60008115159050919050565b60007fffffffff0000000000000000000000000000000000000000000000000000000082169050919050565b600073ffffffffffffffffffffffffffffffffffffffff82169050919050565b6000819050919050565b60006bffffffffffffffffffffffff82169050919050565b82818337600083830152505050565b60005b838110156129dd5780820151818401526020810190506129c2565b838111156129ec576000848401525b50505050565b60006002820490506001821680612a0a57607f821691505b60208210811415612a1e57612a1d612acd565b5b50919050565b612a2d82612b95565b810181811067ffffffffffffffff82111715612a4c57612a4b612b2b565b5b80604052505050565b6000612a608261298e565b91507fffffffffffffffffffffffffffffffffffffffffffffffffffffffffffffffff821415612a9357612a92612a9e565b5b600182019050919050565b7f4e487b7100000000000000000000000000000000000000000000000000000000600052601160045260246000fd5b7f4e487b7100000000000000000000000000000000000000000000000000000000600052602260045260246000fd5b7f4e487b7100000000000000000000000000000000000000000000000000000000600052603260045260246000fd5b7f4e487b7100000000000000000000000000000000000000000000000000000000600052604160045260246000fd5b600060033d1115612b795760046000803e612b76600051612ba6565b90505b90565b600080fd5b600080fd5b600080fd5b600080fd5b600080fd5b6000601f19601f8301169050919050565b60008160e01c9050919050565b7f455243313135353a207472616e7366657220746f206e6f6e204552433131353560008201527f526563656976657220696d706c656d656e746572000000000000000000000000602082015250565b7f455243313135353a204552433131353552656365697665722072656a6563746560008201527f6420746f6b656e73000000000000000000000000000000000000000000000000602082015250565b7f455243313135353a2062616c616e636520717565727920666f7220746865207a60008201527f65726f2061646472657373000000000000000000000000000000000000000000602082015250565b7f414c52454144595f494e495449414c495a454400000000000000000000000000600082015250565b7f455243313135353a206275726e20616d6f756e7420657863656564732062616c60008201527f616e636500000000000000000000000000000000000000000000000000000000602082015250565b7f455243313135353a207472616e7366657220746f20746865207a65726f20616460008201527f6472657373000000000000000000000000000000000000000000000000000000602082015250565b7f455243313135353a207472616e736665722063616c6c6572206973206e6f742060008201527f6f776e6572206e6f7220617070726f7665640000000000000000000000000000602082015250565b7f455243313135353a206275726e2066726f6d20746865207a65726f206164647260008201527f6573730000000000000000000000000000000000000000000000000000000000602082015250565b7f455243313135353a20696e73756666696369656e742062616c616e636520666f60008201527f72207472616e7366657200000000000000000000000000000000000000000000602082015250565b7f494e56414c49445f504152414d53000000000000000000000000000000000000600082015250565b7f455243313135353a206163636f756e747320616e6420696473206c656e67746860008201527f206d69736d617463680000000000000000000000000000000000000000000000602082015250565b7f455243313135353a2069647320616e6420616d6f756e7473206c656e6774682060008201527f6d69736d61746368000000000000000000000000000000000000000000000000602082015250565b7f455243313135353a206d696e7420746f20746865207a65726f2061646472657360008201527f7300000000000000000000000000000000000000000000000000000000000000602082015250565b7f45524331313535466163746f72793a205f746f206d757374206265206e6f6e2d60008201527f7a65726f2e000000000000000000000000000000000000000000000000000000602082015250565b600060443d1015612fc95761304c565b612fd161276d565b60043d036004823e80513d602482011167ffffffffffffffff82111715612ff957505061304c565b808201805167ffffffffffffffff811115613017575050505061304c565b80602083010160043d03850181111561303457505050505061304c565b61304382602001850186612a24565b82955050505050505b90565b61305881612924565b811461306357600080fd5b50565b61306f81612936565b811461307a57600080fd5b50565b61308681612942565b811461309157600080fd5b50565b61309d8161298e565b81146130a857600080fd5b50565b6130b481612998565b81146130bf57600080fd5b5056fea264697066735822122041237d622907d33cb1b9804aa05306b0387301e98cdbee2741e72ef38040935064736f6c63430008060033",
  "linkReferences": {},
  "deployedLinkReferences": {}
}