{
  "_format": "hh-sol-artifact-1",
  "contractName": "ERC1155FactoryFacet",
  "sourceName": "contracts/facets/ERC1155Factory/ERC1155FactoryFacet.sol",
  "abi": [
    {
      "anonymous": false,
      "inputs": [
        {
          "indexed": true,
          "internalType": "address",
          "name": "account",
          "type": "address"
        },
        {
          "indexed": true,
          "internalType": "address",
          "name": "operator",
          "type": "address"
        },
        {
          "indexed": false,
          "internalType": "bool",
          "name": "approved",
          "type": "bool"
        }
      ],
      "name": "ApprovalForAll",
      "type": "event"
    },
    {
      "anonymous": false,
      "inputs": [
        {
          "indexed": false,
          "internalType": "address",
          "name": "account",
          "type": "address"
        }
      ],
      "name": "Paused",
      "type": "event"
    },
    {
      "anonymous": false,
      "inputs": [
        {
          "indexed": true,
          "internalType": "address",
          "name": "operator",
          "type": "address"
        },
        {
          "indexed": true,
          "internalType": "address",
          "name": "from",
          "type": "address"
        },
        {
          "indexed": true,
          "internalType": "address",
          "name": "to",
          "type": "address"
        },
        {
          "indexed": false,
          "internalType": "uint256[]",
          "name": "ids",
          "type": "uint256[]"
        },
        {
          "indexed": false,
          "internalType": "uint256[]",
          "name": "values",
          "type": "uint256[]"
        }
      ],
      "name": "TransferBatch",
      "type": "event"
    },
    {
      "anonymous": false,
      "inputs": [
        {
          "indexed": true,
          "internalType": "address",
          "name": "operator",
          "type": "address"
        },
        {
          "indexed": true,
          "internalType": "address",
          "name": "from",
          "type": "address"
        },
        {
          "indexed": true,
          "internalType": "address",
          "name": "to",
          "type": "address"
        },
        {
          "indexed": false,
          "internalType": "uint256",
          "name": "id",
          "type": "uint256"
        },
        {
          "indexed": false,
          "internalType": "uint256",
          "name": "value",
          "type": "uint256"
        }
      ],
      "name": "TransferSingle",
      "type": "event"
    },
    {
      "anonymous": false,
      "inputs": [
        {
          "indexed": false,
          "internalType": "address",
          "name": "account",
          "type": "address"
        }
      ],
      "name": "Unpaused",
      "type": "event"
    },
    {
      "inputs": [
        {
          "internalType": "address",
          "name": "account",
          "type": "address"
        },
        {
          "internalType": "uint256",
          "name": "id",
          "type": "uint256"
        }
      ],
      "name": "balanceOf",
      "outputs": [
        {
          "internalType": "uint256",
          "name": "",
          "type": "uint256"
        }
      ],
      "stateMutability": "view",
      "type": "function"
    },
    {
      "inputs": [
        {
          "internalType": "address[]",
          "name": "accounts",
          "type": "address[]"
        },
        {
          "internalType": "uint256[]",
          "name": "ids",
          "type": "uint256[]"
        }
      ],
      "name": "balanceOfBatch",
      "outputs": [
        {
          "internalType": "uint256[]",
          "name": "",
          "type": "uint256[]"
        }
      ],
      "stateMutability": "view",
      "type": "function"
    },
    {
      "inputs": [
        {
          "internalType": "string",
          "name": "name_",
          "type": "string"
        },
        {
          "internalType": "string",
          "name": "symbol_",
          "type": "string"
        }
      ],
      "name": "erc1155FactoryFacetInit",
      "outputs": [],
      "stateMutability": "nonpayable",
      "type": "function"
    },
    {
      "inputs": [
        {
          "internalType": "uint256",
          "name": "_tokenID",
          "type": "uint256"
        },
        {
          "internalType": "address",
          "name": "_owner",
          "type": "address"
        },
        {
          "internalType": "uint256",
          "name": "_totalSupply",
          "type": "uint256"
        },
        {
          "internalType": "string",
          "name": "_tokenURI",
          "type": "string"
        }
      ],
      "name": "mint",
      "outputs": [],
      "stateMutability": "nonpayable",
      "type": "function"
    },
    {
      "inputs": [],
      "name": "paused",
      "outputs": [
        {
          "internalType": "bool",
          "name": "",
          "type": "bool"
        }
      ],
      "stateMutability": "view",
      "type": "function"
    },
    {
      "inputs": [
        {
          "internalType": "address",
          "name": "from",
          "type": "address"
        },
        {
          "internalType": "address",
          "name": "to",
          "type": "address"
        },
        {
          "internalType": "uint256[]",
          "name": "ids",
          "type": "uint256[]"
        },
        {
          "internalType": "uint256[]",
          "name": "amounts",
          "type": "uint256[]"
        },
        {
          "internalType": "bytes",
          "name": "data",
          "type": "bytes"
        }
      ],
      "name": "safeBatchTransferFrom",
      "outputs": [],
      "stateMutability": "nonpayable",
      "type": "function"
    },
    {
      "inputs": [
        {
          "internalType": "address",
          "name": "from",
          "type": "address"
        },
        {
          "internalType": "address",
          "name": "to",
          "type": "address"
        },
        {
          "internalType": "uint256",
          "name": "id",
          "type": "uint256"
        },
        {
          "internalType": "uint256",
          "name": "amount",
          "type": "uint256"
        },
        {
          "internalType": "bytes",
          "name": "data",
          "type": "bytes"
        }
      ],
      "name": "safeTransferFrom",
      "outputs": [],
      "stateMutability": "nonpayable",
      "type": "function"
    },
    {
      "inputs": [
        {
          "internalType": "address",
          "name": "operator",
          "type": "address"
        },
        {
          "internalType": "bool",
          "name": "approved",
          "type": "bool"
        }
      ],
      "name": "setApprovalForAll",
      "outputs": [],
      "stateMutability": "nonpayable",
      "type": "function"
    },
    {
      "inputs": [
        {
          "internalType": "address",
          "name": "_from",
          "type": "address"
        },
        {
          "internalType": "address",
          "name": "_to",
          "type": "address"
        },
        {
          "internalType": "uint256",
          "name": "_tokenID",
          "type": "uint256"
        },
        {
          "internalType": "uint256",
          "name": "_amount",
          "type": "uint256"
        }
      ],
      "name": "transferFrom",
      "outputs": [
        {
          "internalType": "bool",
          "name": "",
          "type": "bool"
        }
      ],
      "stateMutability": "nonpayable",
      "type": "function"
    },
    {
      "inputs": [
        {
          "internalType": "uint256",
          "name": "",
          "type": "uint256"
        }
      ],
      "name": "uri",
      "outputs": [
        {
          "internalType": "string",
          "name": "",
          "type": "string"
        }
      ],
      "stateMutability": "view",
      "type": "function"
    }
  ],
  "bytecode": "0x608060405234801561001057600080fd5b506000600260006101000a81548160ff021916908315150217905550612bec8061003b6000396000f3fe608060405234801561001057600080fd5b506004361061009d5760003560e01c8063a22cb46511610066578063a22cb4651461016c578063af131f5014610188578063dcbb855e146101a4578063f242432a146101c0578063fe99049a146101dc5761009d565b8062fdd58e146100a25780630e89341c146100d25780632eb2c2d6146101025780634e1273f41461011e5780635c975abb1461014e575b600080fd5b6100bc60048036038101906100b79190611b4e565b61020c565b6040516100c991906122fb565b60405180910390f35b6100ec60048036038101906100e79190611cab565b6102e5565b6040516100f99190612159565b60405180910390f35b61011c60048036038101906101179190611941565b610388565b005b61013860048036038101906101339190611b8e565b6104ac565b60405161014591906120e5565b60405180910390f35b6101566105c5565b604051610163919061213e565b60405180910390f35b61018660048036038101906101819190611b0e565b6105dc565b005b6101a2600480360381019061019d9190611cd8565b6106ea565b005b6101be60048036038101906101b99190611c33565b6107ca565b005b6101da60048036038101906101d59190611a77565b6108dc565b005b6101f660048036038101906101f19190611a10565b6108f0565b604051610203919061213e565b60405180910390f35b60008073ffffffffffffffffffffffffffffffffffffffff168373ffffffffffffffffffffffffffffffffffffffff16141561027d576040517f08c379a0000000000000000000000000000000000000000000000000000000008152600401610274906121bb565b60405180910390fd5b6000610287610989565b905080600201600084815260200190815260200160002060008573ffffffffffffffffffffffffffffffffffffffff1673ffffffffffffffffffffffffffffffffffffffff1681526020019081526020016000205491505092915050565b606060006102f1610989565b90508060030180546103029061259b565b80601f016020809104026020016040519081016040528092919081815260200182805461032e9061259b565b801561037b5780601f106103505761010080835404028352916020019161037b565b820191906000526020600020905b81548152906001019060200180831161035e57829003601f168201915b5050505050915050919050565b6103906109b6565b73ffffffffffffffffffffffffffffffffffffffff168573ffffffffffffffffffffffffffffffffffffffff1614806104595750600060010160008673ffffffffffffffffffffffffffffffffffffffff1673ffffffffffffffffffffffffffffffffffffffff16815260200190815260200160002060006104106109b6565b73ffffffffffffffffffffffffffffffffffffffff1673ffffffffffffffffffffffffffffffffffffffff16815260200190815260200160002060009054906101000a900460ff165b610498576040517f08c379a000000000000000000000000000000000000000000000000000000000815260040161048f9061221b565b60405180910390fd5b6104a585858585856109be565b5050505050565b606081518351146104f2576040517f08c379a00000000000000000000000000000000000000000000000000000000081526004016104e99061227b565b60405180910390fd5b6000835167ffffffffffffffff81111561050f5761050e6126d4565b5b60405190808252806020026020018201604052801561053d5781602001602082028036833780820191505090505b50905060005b84518110156105ba5761058a858281518110610562576105616126a5565b5b602002602001015185838151811061057d5761057c6126a5565b5b602002602001015161020c565b82828151811061059d5761059c6126a5565b5b602002602001018181525050806105b3906125fe565b9050610543565b508091505092915050565b6000600260009054906101000a900460ff16905090565b80600060010160006105ec6109b6565b73ffffffffffffffffffffffffffffffffffffffff1673ffffffffffffffffffffffffffffffffffffffff16815260200190815260200160002060008473ffffffffffffffffffffffffffffffffffffffff1673ffffffffffffffffffffffffffffffffffffffff16815260200190815260200160002060006101000a81548160ff0219169083151502179055508173ffffffffffffffffffffffffffffffffffffffff166106996109b6565b73ffffffffffffffffffffffffffffffffffffffff167f17307eab39ab6107e8899845ad3d59bd9653f200f220920489ca2b5937696c31836040516106de919061213e565b60405180910390a35050565b60006106f4610ce8565b90508381600001600087815260200190815260200160002060006101000a81548173ffffffffffffffffffffffffffffffffffffffff021916908373ffffffffffffffffffffffffffffffffffffffff1602179055508381600101600087815260200190815260200160002060006101000a81548173ffffffffffffffffffffffffffffffffffffffff021916908373ffffffffffffffffffffffffffffffffffffffff1602179055506107b984868560405180602001604052806000815250610d15565b6107c38583610ebb565b5050505050565b60006107d4610ef6565b905060006107e0610ce8565b905060008160020180546107f39061259b565b90501480156108125750600081600301805461080e9061259b565b9050145b610851576040517f08c379a0000000000000000000000000000000000000000000000000000000008152600401610848906121db565b60405180910390fd5b600084511415801561086557506000835114155b6108a4576040517f08c379a000000000000000000000000000000000000000000000000000000000815260040161089b9061225b565b60405180910390fd5b838160020190805190602001906108bc92919061162e565b50828160030190805190602001906108d592919061162e565b5050505050565b6108e98585858585610f23565b5050505050565b60008073ffffffffffffffffffffffffffffffffffffffff168473ffffffffffffffffffffffffffffffffffffffff161415610961576040517f08c379a0000000000000000000000000000000000000000000000000000000008152600401610958906122db565b60405180910390fd5b61097d85858585604051806020016040528060008152506108dc565b60019050949350505050565b6000807fd1fd1ec9eb6f457e5e32da0d2921ff6daf7fd2085ec060a076b391ca2400b28290508091505090565b600033905090565b8151835114610a02576040517f08c379a00000000000000000000000000000000000000000000000000000000081526004016109f99061229b565b60405180910390fd5b600073ffffffffffffffffffffffffffffffffffffffff168473ffffffffffffffffffffffffffffffffffffffff161415610a72576040517f08c379a0000000000000000000000000000000000000000000000000000000008152600401610a69906121fb565b60405180910390fd5b6000610a7c6109b6565b9050610a8c8187878787876111bb565b6000610a96610989565b905060005b8551811015610c52576000868281518110610ab957610ab86126a5565b5b602002602001015190506000868381518110610ad857610ad76126a5565b5b60200260200101519050600084600201600084815260200190815260200160002060008c73ffffffffffffffffffffffffffffffffffffffff1673ffffffffffffffffffffffffffffffffffffffff16815260200190815260200160002054905081811015610b7c576040517f08c379a0000000000000000000000000000000000000000000000000000000008152600401610b739061223b565b60405180910390fd5b81810385600201600085815260200190815260200160002060008d73ffffffffffffffffffffffffffffffffffffffff1673ffffffffffffffffffffffffffffffffffffffff168152602001908152602001600020819055508185600201600085815260200190815260200160002060008c73ffffffffffffffffffffffffffffffffffffffff1673ffffffffffffffffffffffffffffffffffffffff1681526020019081526020016000206000828254610c37919061248f565b9250508190555050505080610c4b906125fe565b9050610a9b565b508573ffffffffffffffffffffffffffffffffffffffff168773ffffffffffffffffffffffffffffffffffffffff168373ffffffffffffffffffffffffffffffffffffffff167f4a39dc06d4c0dbc64b70af90fd698a233a518aa5d07e595d983b8c0526c8f7fb8888604051610cc9929190612107565b60405180910390a4610cdf8288888888886111c3565b50505050505050565b6000807fa0302aa70960e6dc7a538844f5df4354a0261cba8bcae9d7c5b34d8719f88c9790508091505090565b600073ffffffffffffffffffffffffffffffffffffffff168473ffffffffffffffffffffffffffffffffffffffff161415610d85576040517f08c379a0000000000000000000000000000000000000000000000000000000008152600401610d7c906122bb565b60405180910390fd5b6000610d8f6109b6565b9050610db081600087610da1886113aa565b610daa886113aa565b876111bb565b6000610dba610989565b90508381600201600087815260200190815260200160002060008873ffffffffffffffffffffffffffffffffffffffff1673ffffffffffffffffffffffffffffffffffffffff1681526020019081526020016000206000828254610e1e919061248f565b925050819055508573ffffffffffffffffffffffffffffffffffffffff16600073ffffffffffffffffffffffffffffffffffffffff168373ffffffffffffffffffffffffffffffffffffffff167fc3d58168c5ae7397731d063d5bbf3d657854427343f4c083240f7aacaa2d0f628888604051610e9c929190612316565b60405180910390a4610eb382600088888888611424565b505050505050565b6000610ec5610ce8565b9050818160040160008581526020019081526020016000209080519060200190610ef092919061162e565b50505050565b6000807fc8fcad8db84d3cc18b4c41d551ea0ee66dd599cde068d998e57d5e09332c131c90508091505090565b600073ffffffffffffffffffffffffffffffffffffffff168473ffffffffffffffffffffffffffffffffffffffff161415610f93576040517f08c379a0000000000000000000000000000000000000000000000000000000008152600401610f8a906121fb565b60405180910390fd5b6000610f9d6109b6565b9050610fbd818787610fae886113aa565b610fb7886113aa565b876111bb565b6000610fc7610989565b9050600081600201600087815260200190815260200160002060008973ffffffffffffffffffffffffffffffffffffffff1673ffffffffffffffffffffffffffffffffffffffff16815260200190815260200160002054905084811015611063576040517f08c379a000000000000000000000000000000000000000000000000000000000815260040161105a9061223b565b60405180910390fd5b84810382600201600088815260200190815260200160002060008a73ffffffffffffffffffffffffffffffffffffffff1673ffffffffffffffffffffffffffffffffffffffff168152602001908152602001600020819055508482600201600088815260200190815260200160002060008973ffffffffffffffffffffffffffffffffffffffff1673ffffffffffffffffffffffffffffffffffffffff168152602001908152602001600020600082825461111e919061248f565b925050819055508673ffffffffffffffffffffffffffffffffffffffff168873ffffffffffffffffffffffffffffffffffffffff168473ffffffffffffffffffffffffffffffffffffffff167fc3d58168c5ae7397731d063d5bbf3d657854427343f4c083240f7aacaa2d0f62898960405161119b929190612316565b60405180910390a46111b1838989898989611424565b5050505050505050565b505050505050565b6111e28473ffffffffffffffffffffffffffffffffffffffff1661160b565b156113a2578373ffffffffffffffffffffffffffffffffffffffff1663bc197c8187878686866040518663ffffffff1660e01b8152600401611228959493929190612023565b602060405180830381600087803b15801561124257600080fd5b505af192505050801561127357506040513d601f19601f820116820180604052508101906112709190611c06565b60015b6113195761127f612703565b806308c379a014156112dc5750611294612ac4565b8061129f57506112de565b806040517f08c379a00000000000000000000000000000000000000000000000000000000081526004016112d39190612159565b60405180910390fd5b505b6040517f08c379a00000000000000000000000000000000000000000000000000000000081526004016113109061217b565b60405180910390fd5b63bc197c8160e01b7bffffffffffffffffffffffffffffffffffffffffffffffffffffffff1916817bffffffffffffffffffffffffffffffffffffffffffffffffffffffff1916146113a0576040517f08c379a00000000000000000000000000000000000000000000000000000000081526004016113979061219b565b60405180910390fd5b505b505050505050565b60606000600167ffffffffffffffff8111156113c9576113c86126d4565b5b6040519080825280602002602001820160405280156113f75781602001602082028036833780820191505090505b509050828160008151811061140f5761140e6126a5565b5b60200260200101818152505080915050919050565b6114438473ffffffffffffffffffffffffffffffffffffffff1661160b565b15611603578373ffffffffffffffffffffffffffffffffffffffff1663f23a6e6187878686866040518663ffffffff1660e01b815260040161148995949392919061208b565b602060405180830381600087803b1580156114a357600080fd5b505af19250505080156114d457506040513d601f19601f820116820180604052508101906114d19190611c06565b60015b61157a576114e0612703565b806308c379a0141561153d57506114f5612ac4565b80611500575061153f565b806040517f08c379a00000000000000000000000000000000000000000000000000000000081526004016115349190612159565b60405180910390fd5b505b6040517f08c379a00000000000000000000000000000000000000000000000000000000081526004016115719061217b565b60405180910390fd5b63f23a6e6160e01b7bffffffffffffffffffffffffffffffffffffffffffffffffffffffff1916817bffffffffffffffffffffffffffffffffffffffffffffffffffffffff191614611601576040517f08c379a00000000000000000000000000000000000000000000000000000000081526004016115f89061219b565b60405180910390fd5b505b505050505050565b6000808273ffffffffffffffffffffffffffffffffffffffff163b119050919050565b82805461163a9061259b565b90600052602060002090601f01602090048101928261165c57600085556116a3565b82601f1061167557805160ff19168380011785556116a3565b828001600101855582156116a3579182015b828111156116a2578251825591602001919060010190611687565b5b5090506116b091906116b4565b5090565b5b808211156116cd5760008160009055506001016116b5565b5090565b60006116e46116df84612364565b61233f565b905080838252602082019050828560208602820111156117075761170661272a565b5b60005b85811015611737578161171d8882611835565b84526020840193506020830192505060018101905061170a565b5050509392505050565b600061175461174f84612390565b61233f565b905080838252602082019050828560208602820111156117775761177661272a565b5b60005b858110156117a7578161178d888261192c565b84526020840193506020830192505060018101905061177a565b5050509392505050565b60006117c46117bf846123bc565b61233f565b9050828152602081018484840111156117e0576117df61272f565b5b6117eb848285612559565b509392505050565b6000611806611801846123ed565b61233f565b9050828152602081018484840111156118225761182161272f565b5b61182d848285612559565b509392505050565b60008135905061184481612b5a565b92915050565b600082601f83011261185f5761185e612725565b5b813561186f8482602086016116d1565b91505092915050565b600082601f83011261188d5761188c612725565b5b813561189d848260208601611741565b91505092915050565b6000813590506118b581612b71565b92915050565b6000815190506118ca81612b88565b92915050565b600082601f8301126118e5576118e4612725565b5b81356118f58482602086016117b1565b91505092915050565b600082601f83011261191357611912612725565b5b81356119238482602086016117f3565b91505092915050565b60008135905061193b81612b9f565b92915050565b600080600080600060a0868803121561195d5761195c612739565b5b600061196b88828901611835565b955050602061197c88828901611835565b945050604086013567ffffffffffffffff81111561199d5761199c612734565b5b6119a988828901611878565b935050606086013567ffffffffffffffff8111156119ca576119c9612734565b5b6119d688828901611878565b925050608086013567ffffffffffffffff8111156119f7576119f6612734565b5b611a03888289016118d0565b9150509295509295909350565b60008060008060808587031215611a2a57611a29612739565b5b6000611a3887828801611835565b9450506020611a4987828801611835565b9350506040611a5a8782880161192c565b9250506060611a6b8782880161192c565b91505092959194509250565b600080600080600060a08688031215611a9357611a92612739565b5b6000611aa188828901611835565b9550506020611ab288828901611835565b9450506040611ac38882890161192c565b9350506060611ad48882890161192c565b925050608086013567ffffffffffffffff811115611af557611af4612734565b5b611b01888289016118d0565b9150509295509295909350565b60008060408385031215611b2557611b24612739565b5b6000611b3385828601611835565b9250506020611b44858286016118a6565b9150509250929050565b60008060408385031215611b6557611b64612739565b5b6000611b7385828601611835565b9250506020611b848582860161192c565b9150509250929050565b60008060408385031215611ba557611ba4612739565b5b600083013567ffffffffffffffff811115611bc357611bc2612734565b5b611bcf8582860161184a565b925050602083013567ffffffffffffffff811115611bf057611bef612734565b5b611bfc85828601611878565b9150509250929050565b600060208284031215611c1c57611c1b612739565b5b6000611c2a848285016118bb565b91505092915050565b60008060408385031215611c4a57611c49612739565b5b600083013567ffffffffffffffff811115611c6857611c67612734565b5b611c74858286016118fe565b925050602083013567ffffffffffffffff811115611c9557611c94612734565b5b611ca1858286016118fe565b9150509250929050565b600060208284031215611cc157611cc0612739565b5b6000611ccf8482850161192c565b91505092915050565b60008060008060808587031215611cf257611cf1612739565b5b6000611d008782880161192c565b9450506020611d1187828801611835565b9350506040611d228782880161192c565b925050606085013567ffffffffffffffff811115611d4357611d42612734565b5b611d4f878288016118fe565b91505092959194509250565b6000611d678383612005565b60208301905092915050565b611d7c816124e5565b82525050565b6000611d8d8261242e565b611d97818561245c565b9350611da28361241e565b8060005b83811015611dd3578151611dba8882611d5b565b9750611dc58361244f565b925050600181019050611da6565b5085935050505092915050565b611de9816124f7565b82525050565b6000611dfa82612439565b611e04818561246d565b9350611e14818560208601612568565b611e1d8161273e565b840191505092915050565b6000611e3382612444565b611e3d818561247e565b9350611e4d818560208601612568565b611e568161273e565b840191505092915050565b6000611e6e60348361247e565b9150611e798261275c565b604082019050919050565b6000611e9160288361247e565b9150611e9c826127ab565b604082019050919050565b6000611eb4602b8361247e565b9150611ebf826127fa565b604082019050919050565b6000611ed760138361247e565b9150611ee282612849565b602082019050919050565b6000611efa60258361247e565b9150611f0582612872565b604082019050919050565b6000611f1d60328361247e565b9150611f28826128c1565b604082019050919050565b6000611f40602a8361247e565b9150611f4b82612910565b604082019050919050565b6000611f63600e8361247e565b9150611f6e8261295f565b602082019050919050565b6000611f8660298361247e565b9150611f9182612988565b604082019050919050565b6000611fa960288361247e565b9150611fb4826129d7565b604082019050919050565b6000611fcc60218361247e565b9150611fd782612a26565b604082019050919050565b6000611fef60258361247e565b9150611ffa82612a75565b604082019050919050565b61200e8161254f565b82525050565b61201d8161254f565b82525050565b600060a0820190506120386000830188611d73565b6120456020830187611d73565b81810360408301526120578186611d82565b9050818103606083015261206b8185611d82565b9050818103608083015261207f8184611def565b90509695505050505050565b600060a0820190506120a06000830188611d73565b6120ad6020830187611d73565b6120ba6040830186612014565b6120c76060830185612014565b81810360808301526120d98184611def565b90509695505050505050565b600060208201905081810360008301526120ff8184611d82565b905092915050565b600060408201905081810360008301526121218185611d82565b905081810360208301526121358184611d82565b90509392505050565b60006020820190506121536000830184611de0565b92915050565b600060208201905081810360008301526121738184611e28565b905092915050565b6000602082019050818103600083015261219481611e61565b9050919050565b600060208201905081810360008301526121b481611e84565b9050919050565b600060208201905081810360008301526121d481611ea7565b9050919050565b600060208201905081810360008301526121f481611eca565b9050919050565b6000602082019050818103600083015261221481611eed565b9050919050565b6000602082019050818103600083015261223481611f10565b9050919050565b6000602082019050818103600083015261225481611f33565b9050919050565b6000602082019050818103600083015261227481611f56565b9050919050565b6000602082019050818103600083015261229481611f79565b9050919050565b600060208201905081810360008301526122b481611f9c565b9050919050565b600060208201905081810360008301526122d481611fbf565b9050919050565b600060208201905081810360008301526122f481611fe2565b9050919050565b60006020820190506123106000830184612014565b92915050565b600060408201905061232b6000830185612014565b6123386020830184612014565b9392505050565b600061234961235a565b905061235582826125cd565b919050565b6000604051905090565b600067ffffffffffffffff82111561237f5761237e6126d4565b5b602082029050602081019050919050565b600067ffffffffffffffff8211156123ab576123aa6126d4565b5b602082029050602081019050919050565b600067ffffffffffffffff8211156123d7576123d66126d4565b5b6123e08261273e565b9050602081019050919050565b600067ffffffffffffffff821115612408576124076126d4565b5b6124118261273e565b9050602081019050919050565b6000819050602082019050919050565b600081519050919050565b600081519050919050565b600081519050919050565b6000602082019050919050565b600082825260208201905092915050565b600082825260208201905092915050565b600082825260208201905092915050565b600061249a8261254f565b91506124a58361254f565b9250827fffffffffffffffffffffffffffffffffffffffffffffffffffffffffffffffff038211156124da576124d9612647565b5b828201905092915050565b60006124f08261252f565b9050919050565b60008115159050919050565b60007fffffffff0000000000000000000000000000000000000000000000000000000082169050919050565b600073ffffffffffffffffffffffffffffffffffffffff82169050919050565b6000819050919050565b82818337600083830152505050565b60005b8381101561258657808201518184015260208101905061256b565b83811115612595576000848401525b50505050565b600060028204905060018216806125b357607f821691505b602082108114156125c7576125c6612676565b5b50919050565b6125d68261273e565b810181811067ffffffffffffffff821117156125f5576125f46126d4565b5b80604052505050565b60006126098261254f565b91507fffffffffffffffffffffffffffffffffffffffffffffffffffffffffffffffff82141561263c5761263b612647565b5b600182019050919050565b7f4e487b7100000000000000000000000000000000000000000000000000000000600052601160045260246000fd5b7f4e487b7100000000000000000000000000000000000000000000000000000000600052602260045260246000fd5b7f4e487b7100000000000000000000000000000000000000000000000000000000600052603260045260246000fd5b7f4e487b7100000000000000000000000000000000000000000000000000000000600052604160045260246000fd5b600060033d11156127225760046000803e61271f60005161274f565b90505b90565b600080fd5b600080fd5b600080fd5b600080fd5b600080fd5b6000601f19601f8301169050919050565b60008160e01c9050919050565b7f455243313135353a207472616e7366657220746f206e6f6e204552433131353560008201527f526563656976657220696d706c656d656e746572000000000000000000000000602082015250565b7f455243313135353a204552433131353552656365697665722072656a6563746560008201527f6420746f6b656e73000000000000000000000000000000000000000000000000602082015250565b7f455243313135353a2062616c616e636520717565727920666f7220746865207a60008201527f65726f2061646472657373000000000000000000000000000000000000000000602082015250565b7f414c52454144595f494e495449414c495a454400000000000000000000000000600082015250565b7f455243313135353a207472616e7366657220746f20746865207a65726f20616460008201527f6472657373000000000000000000000000000000000000000000000000000000602082015250565b7f455243313135353a207472616e736665722063616c6c6572206973206e6f742060008201527f6f776e6572206e6f7220617070726f7665640000000000000000000000000000602082015250565b7f455243313135353a20696e73756666696369656e742062616c616e636520666f60008201527f72207472616e7366657200000000000000000000000000000000000000000000602082015250565b7f494e56414c49445f504152414d53000000000000000000000000000000000000600082015250565b7f455243313135353a206163636f756e747320616e6420696473206c656e67746860008201527f206d69736d617463680000000000000000000000000000000000000000000000602082015250565b7f455243313135353a2069647320616e6420616d6f756e7473206c656e6774682060008201527f6d69736d61746368000000000000000000000000000000000000000000000000602082015250565b7f455243313135353a206d696e7420746f20746865207a65726f2061646472657360008201527f7300000000000000000000000000000000000000000000000000000000000000602082015250565b7f45524331313535466163746f72793a205f746f206d757374206265206e6f6e2d60008201527f7a65726f2e000000000000000000000000000000000000000000000000000000602082015250565b600060443d1015612ad457612b57565b612adc61235a565b60043d036004823e80513d602482011167ffffffffffffffff82111715612b04575050612b57565b808201805167ffffffffffffffff811115612b225750505050612b57565b80602083010160043d038501811115612b3f575050505050612b57565b612b4e826020018501866125cd565b82955050505050505b90565b612b63816124e5565b8114612b6e57600080fd5b50565b612b7a816124f7565b8114612b8557600080fd5b50565b612b9181612503565b8114612b9c57600080fd5b50565b612ba88161254f565b8114612bb357600080fd5b5056fea26469706673582212205bf793212d55334abe92a6d1655470640c0150aa53529741666286c29c4daa5964736f6c63430008060033",
  "linkReferences": {},
  "deployedLinkReferences": {}
}