{
  "_format": "hh-sol-artifact-1",
  "contractName": "ERC1155FactoryFacet",
  "sourceName": "contracts/facets/ERC1155Factory/ERC1155FactoryFacet.sol",
  "abi": [
    {
      "anonymous": false,
      "inputs": [
        {
          "indexed": true,
          "internalType": "address",
          "name": "account",
          "type": "address"
        },
        {
          "indexed": true,
          "internalType": "address",
          "name": "operator",
          "type": "address"
        },
        {
          "indexed": false,
          "internalType": "bool",
          "name": "approved",
          "type": "bool"
        }
      ],
      "name": "ApprovalForAll",
      "type": "event"
    },
    {
      "anonymous": false,
      "inputs": [
        {
          "indexed": true,
          "internalType": "address",
          "name": "operator",
          "type": "address"
        },
        {
          "indexed": true,
          "internalType": "address",
          "name": "from",
          "type": "address"
        },
        {
          "indexed": true,
          "internalType": "address",
          "name": "to",
          "type": "address"
        },
        {
          "indexed": false,
          "internalType": "uint256[]",
          "name": "ids",
          "type": "uint256[]"
        },
        {
          "indexed": false,
          "internalType": "uint256[]",
          "name": "values",
          "type": "uint256[]"
        }
      ],
      "name": "TransferBatch",
      "type": "event"
    },
    {
      "anonymous": false,
      "inputs": [
        {
          "indexed": true,
          "internalType": "address",
          "name": "operator",
          "type": "address"
        },
        {
          "indexed": true,
          "internalType": "address",
          "name": "from",
          "type": "address"
        },
        {
          "indexed": true,
          "internalType": "address",
          "name": "to",
          "type": "address"
        },
        {
          "indexed": false,
          "internalType": "uint256",
          "name": "id",
          "type": "uint256"
        },
        {
          "indexed": false,
          "internalType": "uint256",
          "name": "value",
          "type": "uint256"
        }
      ],
      "name": "TransferSingle",
      "type": "event"
    },
    {
      "inputs": [
        {
          "internalType": "address",
          "name": "account",
          "type": "address"
        },
        {
          "internalType": "uint256",
          "name": "id",
          "type": "uint256"
        }
      ],
      "name": "balanceOf1155",
      "outputs": [
        {
          "internalType": "uint256",
          "name": "",
          "type": "uint256"
        }
      ],
      "stateMutability": "view",
      "type": "function"
    },
    {
      "inputs": [
        {
          "internalType": "address[]",
          "name": "accounts",
          "type": "address[]"
        },
        {
          "internalType": "uint256[]",
          "name": "ids",
          "type": "uint256[]"
        }
      ],
      "name": "balanceOfBatch",
      "outputs": [
        {
          "internalType": "uint256[]",
          "name": "",
          "type": "uint256[]"
        }
      ],
      "stateMutability": "view",
      "type": "function"
    },
    {
      "inputs": [
        {
          "internalType": "address",
          "name": "from",
          "type": "address"
        },
        {
          "internalType": "uint256",
          "name": "tokenId",
          "type": "uint256"
        },
        {
          "internalType": "uint256",
          "name": "amount",
          "type": "uint256"
        }
      ],
      "name": "burn1155",
      "outputs": [],
      "stateMutability": "nonpayable",
      "type": "function"
    },
    {
      "inputs": [
        {
          "internalType": "string",
          "name": "name_",
          "type": "string"
        },
        {
          "internalType": "string",
          "name": "symbol_",
          "type": "string"
        }
      ],
      "name": "erc1155FactoryFacetInit",
      "outputs": [],
      "stateMutability": "nonpayable",
      "type": "function"
    },
    {
      "inputs": [
        {
          "internalType": "uint256",
          "name": "tokenId",
          "type": "uint256"
        },
        {
          "internalType": "address",
          "name": "creator",
          "type": "address"
        },
        {
          "internalType": "uint256",
          "name": "totalSupply",
          "type": "uint256"
        },
        {
          "internalType": "string",
          "name": "tokenURI",
          "type": "string"
        },
        {
          "internalType": "address[]",
          "name": "royaltyReceiver",
          "type": "address[]"
        },
        {
          "internalType": "uint96[]",
          "name": "tokenRoyaltyInBips",
          "type": "uint96[]"
        }
      ],
      "name": "mint1155",
      "outputs": [],
      "stateMutability": "nonpayable",
      "type": "function"
    },
    {
      "inputs": [
        {
          "internalType": "address",
          "name": "from",
          "type": "address"
        },
        {
          "internalType": "address",
          "name": "to",
          "type": "address"
        },
        {
          "internalType": "uint256[]",
          "name": "ids",
          "type": "uint256[]"
        },
        {
          "internalType": "uint256[]",
          "name": "amounts",
          "type": "uint256[]"
        },
        {
          "internalType": "bytes",
          "name": "data",
          "type": "bytes"
        }
      ],
      "name": "safeBatchTransferFrom",
      "outputs": [],
      "stateMutability": "nonpayable",
      "type": "function"
    },
    {
      "inputs": [
        {
          "internalType": "address",
          "name": "from",
          "type": "address"
        },
        {
          "internalType": "address",
          "name": "to",
          "type": "address"
        },
        {
          "internalType": "uint256",
          "name": "id",
          "type": "uint256"
        },
        {
          "internalType": "uint256",
          "name": "amount",
          "type": "uint256"
        },
        {
          "internalType": "bytes",
          "name": "data",
          "type": "bytes"
        }
      ],
      "name": "safeTransferFrom1155",
      "outputs": [],
      "stateMutability": "nonpayable",
      "type": "function"
    },
    {
      "inputs": [
        {
          "internalType": "address",
          "name": "operator",
          "type": "address"
        },
        {
          "internalType": "bool",
          "name": "approved",
          "type": "bool"
        }
      ],
      "name": "setApprovalForAll1155",
      "outputs": [],
      "stateMutability": "nonpayable",
      "type": "function"
    },
    {
      "inputs": [
        {
          "internalType": "address",
          "name": "_from",
          "type": "address"
        },
        {
          "internalType": "address",
          "name": "_to",
          "type": "address"
        },
        {
          "internalType": "uint256",
          "name": "_tokenID",
          "type": "uint256"
        },
        {
          "internalType": "uint256",
          "name": "_amount",
          "type": "uint256"
        }
      ],
      "name": "transfer",
      "outputs": [
        {
          "internalType": "bool",
          "name": "",
          "type": "bool"
        }
      ],
      "stateMutability": "nonpayable",
      "type": "function"
    },
    {
      "inputs": [
        {
          "internalType": "uint256",
          "name": "",
          "type": "uint256"
        }
      ],
      "name": "uri",
      "outputs": [
        {
          "internalType": "string",
          "name": "",
          "type": "string"
        }
      ],
      "stateMutability": "view",
      "type": "function"
    }
  ],
  "bytecode": "0x608060405234801561001057600080fd5b506132e8806100206000396000f3fe608060405234801561001057600080fd5b506004361061009e5760003560e01c80638161549211610066578063816154921461016b5780639722385614610187578063c7e2311b146101a3578063dcbb855e146101bf578063ea9db068146101db5761009e565b80630411b252146100a35780630e89341c146100d35780632eb2c2d6146101035780633db332101461011f5780634e1273f41461013b575b600080fd5b6100bd60048036038101906100b89190611aa9565b61020b565b6040516100ca9190611b2b565b60405180910390f35b6100ed60048036038101906100e89190611b46565b6102a4565b6040516100fa9190611c0c565b60405180910390f35b61011d60048036038101906101189190611e2b565b610347565b005b61013960048036038101906101349190611f26565b61046b565b005b61015560048036038101906101509190612029565b610579565b604051610162919061215f565b60405180910390f35b61018560048036038101906101809190612181565b610692565b005b6101a1600480360381019061019c9190612218565b6106a6565b005b6101bd60048036038101906101b89190612413565b6106b6565b005b6101d960048036038101906101d491906124f4565b61082a565b005b6101f560048036038101906101f0919061256c565b6109ce565b60405161020291906125bb565b60405180910390f35b60008073ffffffffffffffffffffffffffffffffffffffff168473ffffffffffffffffffffffffffffffffffffffff16141561027c576040517f08c379a000000000000000000000000000000000000000000000000000000000815260040161027390612648565b60405180910390fd5b6102988585858560405180602001604052806000815250610692565b60019050949350505050565b606060006102b0610aa7565b90508060030180546102c190612697565b80601f01602080910402602001604051908101604052809291908181526020018280546102ed90612697565b801561033a5780601f1061030f5761010080835404028352916020019161033a565b820191906000526020600020905b81548152906001019060200180831161031d57829003601f168201915b5050505050915050919050565b61034f610ad4565b73ffffffffffffffffffffffffffffffffffffffff168573ffffffffffffffffffffffffffffffffffffffff1614806104185750600060010160008673ffffffffffffffffffffffffffffffffffffffff1673ffffffffffffffffffffffffffffffffffffffff16815260200190815260200160002060006103cf610ad4565b73ffffffffffffffffffffffffffffffffffffffff1673ffffffffffffffffffffffffffffffffffffffff16815260200190815260200160002060009054906101000a900460ff165b610457576040517f08c379a000000000000000000000000000000000000000000000000000000000815260040161044e9061273b565b60405180910390fd5b6104648585858585610adc565b5050505050565b806000600101600061047b610ad4565b73ffffffffffffffffffffffffffffffffffffffff1673ffffffffffffffffffffffffffffffffffffffff16815260200190815260200160002060008473ffffffffffffffffffffffffffffffffffffffff1673ffffffffffffffffffffffffffffffffffffffff16815260200190815260200160002060006101000a81548160ff0219169083151502179055508173ffffffffffffffffffffffffffffffffffffffff16610528610ad4565b73ffffffffffffffffffffffffffffffffffffffff167f17307eab39ab6107e8899845ad3d59bd9653f200f220920489ca2b5937696c318360405161056d9190611b2b565b60405180910390a35050565b606081518351146105bf576040517f08c379a00000000000000000000000000000000000000000000000000000000081526004016105b6906127cd565b60405180910390fd5b6000835167ffffffffffffffff8111156105dc576105db611c33565b5b60405190808252806020026020018201604052801561060a5781602001602082028036833780820191505090505b50905060005b84518110156106875761065785828151811061062f5761062e6127ed565b5b602002602001015185838151811061064a576106496127ed565b5b60200260200101516109ce565b82828151811061066a576106696127ed565b5b602002602001018181525050806106809061284b565b9050610610565b508091505092915050565b61069f8585858585610e06565b5050505050565b6106b183838361109e565b505050565b6000800160009054906101000a900473ffffffffffffffffffffffffffffffffffffffff1673ffffffffffffffffffffffffffffffffffffffff163373ffffffffffffffffffffffffffffffffffffffff1614610748576040517f08c379a000000000000000000000000000000000000000000000000000000000815260040161073f90612906565b60405180910390fd5b60006107526112ce565b90508581600001600089815260200190815260200160002060006101000a81548173ffffffffffffffffffffffffffffffffffffffff021916908373ffffffffffffffffffffffffffffffffffffffff1602179055508581600101600089815260200190815260200160002060006101000a81548173ffffffffffffffffffffffffffffffffffffffff021916908373ffffffffffffffffffffffffffffffffffffffff160217905550610817868887604051806020016040528060008152506112fb565b61082187856114a1565b50505050505050565b60006108346114dc565b905060006108406112ce565b9050600081600201805461085390612697565b90501480156108725750600081600301805461086e90612697565b9050145b6108b1576040517f08c379a00000000000000000000000000000000000000000000000000000000081526004016108a890612972565b60405180910390fd5b60008451141580156108c557506000835114155b610904576040517f08c379a00000000000000000000000000000000000000000000000000000000081526004016108fb906129de565b60405180910390fd5b8160040160009054906101000a900473ffffffffffffffffffffffffffffffffffffffff1673ffffffffffffffffffffffffffffffffffffffff163373ffffffffffffffffffffffffffffffffffffffff1614610996576040517f08c379a000000000000000000000000000000000000000000000000000000000815260040161098d90612a4a565b60405180910390fd5b838160020190805190602001906109ae92919061195e565b50828160030190805190602001906109c792919061195e565b5050505050565b60008073ffffffffffffffffffffffffffffffffffffffff168373ffffffffffffffffffffffffffffffffffffffff161415610a3f576040517f08c379a0000000000000000000000000000000000000000000000000000000008152600401610a3690612adc565b60405180910390fd5b6000610a49610aa7565b905080600201600084815260200190815260200160002060008573ffffffffffffffffffffffffffffffffffffffff1673ffffffffffffffffffffffffffffffffffffffff1681526020019081526020016000205491505092915050565b6000807fd1fd1ec9eb6f457e5e32da0d2921ff6daf7fd2085ec060a076b391ca2400b28290508091505090565b600033905090565b8151835114610b20576040517f08c379a0000000000000000000000000000000000000000000000000000000008152600401610b1790612b6e565b60405180910390fd5b600073ffffffffffffffffffffffffffffffffffffffff168473ffffffffffffffffffffffffffffffffffffffff161415610b90576040517f08c379a0000000000000000000000000000000000000000000000000000000008152600401610b8790612c00565b60405180910390fd5b6000610b9a610ad4565b9050610baa818787878787611509565b6000610bb4610aa7565b905060005b8551811015610d70576000868281518110610bd757610bd66127ed565b5b602002602001015190506000868381518110610bf657610bf56127ed565b5b60200260200101519050600084600201600084815260200190815260200160002060008c73ffffffffffffffffffffffffffffffffffffffff1673ffffffffffffffffffffffffffffffffffffffff16815260200190815260200160002054905081811015610c9a576040517f08c379a0000000000000000000000000000000000000000000000000000000008152600401610c9190612c92565b60405180910390fd5b81810385600201600085815260200190815260200160002060008d73ffffffffffffffffffffffffffffffffffffffff1673ffffffffffffffffffffffffffffffffffffffff168152602001908152602001600020819055508185600201600085815260200190815260200160002060008c73ffffffffffffffffffffffffffffffffffffffff1673ffffffffffffffffffffffffffffffffffffffff1681526020019081526020016000206000828254610d559190612cb2565b9250508190555050505080610d699061284b565b9050610bb9565b508573ffffffffffffffffffffffffffffffffffffffff168773ffffffffffffffffffffffffffffffffffffffff168373ffffffffffffffffffffffffffffffffffffffff167f4a39dc06d4c0dbc64b70af90fd698a233a518aa5d07e595d983b8c0526c8f7fb8888604051610de7929190612d08565b60405180910390a4610dfd828888888888611511565b50505050505050565b600073ffffffffffffffffffffffffffffffffffffffff168473ffffffffffffffffffffffffffffffffffffffff161415610e76576040517f08c379a0000000000000000000000000000000000000000000000000000000008152600401610e6d90612c00565b60405180910390fd5b6000610e80610ad4565b9050610ea0818787610e91886116e9565b610e9a886116e9565b87611509565b6000610eaa610aa7565b9050600081600201600087815260200190815260200160002060008973ffffffffffffffffffffffffffffffffffffffff1673ffffffffffffffffffffffffffffffffffffffff16815260200190815260200160002054905084811015610f46576040517f08c379a0000000000000000000000000000000000000000000000000000000008152600401610f3d90612c92565b60405180910390fd5b84810382600201600088815260200190815260200160002060008a73ffffffffffffffffffffffffffffffffffffffff1673ffffffffffffffffffffffffffffffffffffffff168152602001908152602001600020819055508482600201600088815260200190815260200160002060008973ffffffffffffffffffffffffffffffffffffffff1673ffffffffffffffffffffffffffffffffffffffff16815260200190815260200160002060008282546110019190612cb2565b925050819055508673ffffffffffffffffffffffffffffffffffffffff168873ffffffffffffffffffffffffffffffffffffffff168473ffffffffffffffffffffffffffffffffffffffff167fc3d58168c5ae7397731d063d5bbf3d657854427343f4c083240f7aacaa2d0f62898960405161107e929190612d3f565b60405180910390a4611094838989898989611763565b5050505050505050565b600073ffffffffffffffffffffffffffffffffffffffff168373ffffffffffffffffffffffffffffffffffffffff16141561110e576040517f08c379a000000000000000000000000000000000000000000000000000000000815260040161110590612dda565b60405180910390fd5b6000611118610ad4565b90506111488185600061112a876116e9565b611133876116e9565b60405180602001604052806000815250611509565b6000611152610aa7565b9050600081600201600086815260200190815260200160002060008773ffffffffffffffffffffffffffffffffffffffff1673ffffffffffffffffffffffffffffffffffffffff168152602001908152602001600020549050838110156111ee576040517f08c379a00000000000000000000000000000000000000000000000000000000081526004016111e590612e6c565b60405180910390fd5b83810382600201600087815260200190815260200160002060008873ffffffffffffffffffffffffffffffffffffffff1673ffffffffffffffffffffffffffffffffffffffff16815260200190815260200160002081905550600073ffffffffffffffffffffffffffffffffffffffff168673ffffffffffffffffffffffffffffffffffffffff168473ffffffffffffffffffffffffffffffffffffffff167fc3d58168c5ae7397731d063d5bbf3d657854427343f4c083240f7aacaa2d0f6288886040516112be929190612d3f565b60405180910390a4505050505050565b6000807fa0302aa70960e6dc7a538844f5df4354a0261cba8bcae9d7c5b34d8719f88c9790508091505090565b600073ffffffffffffffffffffffffffffffffffffffff168473ffffffffffffffffffffffffffffffffffffffff16141561136b576040517f08c379a000000000000000000000000000000000000000000000000000000000815260040161136290612efe565b60405180910390fd5b6000611375610ad4565b905061139681600087611387886116e9565b611390886116e9565b87611509565b60006113a0610aa7565b90508381600201600087815260200190815260200160002060008873ffffffffffffffffffffffffffffffffffffffff1673ffffffffffffffffffffffffffffffffffffffff16815260200190815260200160002060008282546114049190612cb2565b925050819055508573ffffffffffffffffffffffffffffffffffffffff16600073ffffffffffffffffffffffffffffffffffffffff168373ffffffffffffffffffffffffffffffffffffffff167fc3d58168c5ae7397731d063d5bbf3d657854427343f4c083240f7aacaa2d0f628888604051611482929190612d3f565b60405180910390a461149982600088888888611763565b505050505050565b60006114ab6112ce565b90508181600401600085815260200190815260200160002090805190602001906114d692919061195e565b50505050565b6000807fc8fcad8db84d3cc18b4c41d551ea0ee66dd599cde068d998e57d5e09332c131c90508091505090565b505050505050565b6115308473ffffffffffffffffffffffffffffffffffffffff1661193b565b156116e1578373ffffffffffffffffffffffffffffffffffffffff1663bc197c8187878686866040518663ffffffff1660e01b8152600401611576959493929190612f82565b6020604051808303816000875af19250505080156115b257506040513d601f19601f820116820180604052508101906115af9190613042565b60015b611658576115be61307c565b806308c379a0141561161b57506115d361309e565b806115de575061161d565b806040517f08c379a00000000000000000000000000000000000000000000000000000000081526004016116129190611c0c565b60405180910390fd5b505b6040517f08c379a000000000000000000000000000000000000000000000000000000000815260040161164f906131a6565b60405180910390fd5b63bc197c8160e01b7bffffffffffffffffffffffffffffffffffffffffffffffffffffffff1916817bffffffffffffffffffffffffffffffffffffffffffffffffffffffff1916146116df576040517f08c379a00000000000000000000000000000000000000000000000000000000081526004016116d690613238565b60405180910390fd5b505b505050505050565b60606000600167ffffffffffffffff81111561170857611707611c33565b5b6040519080825280602002602001820160405280156117365781602001602082028036833780820191505090505b509050828160008151811061174e5761174d6127ed565b5b60200260200101818152505080915050919050565b6117828473ffffffffffffffffffffffffffffffffffffffff1661193b565b15611933578373ffffffffffffffffffffffffffffffffffffffff1663f23a6e6187878686866040518663ffffffff1660e01b81526004016117c8959493929190613258565b6020604051808303816000875af192505050801561180457506040513d601f19601f820116820180604052508101906118019190613042565b60015b6118aa5761181061307c565b806308c379a0141561186d575061182561309e565b80611830575061186f565b806040517f08c379a00000000000000000000000000000000000000000000000000000000081526004016118649190611c0c565b60405180910390fd5b505b6040517f08c379a00000000000000000000000000000000000000000000000000000000081526004016118a1906131a6565b60405180910390fd5b63f23a6e6160e01b7bffffffffffffffffffffffffffffffffffffffffffffffffffffffff1916817bffffffffffffffffffffffffffffffffffffffffffffffffffffffff191614611931576040517f08c379a000000000000000000000000000000000000000000000000000000000815260040161192890613238565b60405180910390fd5b505b505050505050565b6000808273ffffffffffffffffffffffffffffffffffffffff163b119050919050565b82805461196a90612697565b90600052602060002090601f01602090048101928261198c57600085556119d3565b82601f106119a557805160ff19168380011785556119d3565b828001600101855582156119d3579182015b828111156119d25782518255916020019190600101906119b7565b5b5090506119e091906119e4565b5090565b5b808211156119fd5760008160009055506001016119e5565b5090565b6000604051905090565b600080fd5b600080fd5b600073ffffffffffffffffffffffffffffffffffffffff82169050919050565b6000611a4082611a15565b9050919050565b611a5081611a35565b8114611a5b57600080fd5b50565b600081359050611a6d81611a47565b92915050565b6000819050919050565b611a8681611a73565b8114611a9157600080fd5b50565b600081359050611aa381611a7d565b92915050565b60008060008060808587031215611ac357611ac2611a0b565b5b6000611ad187828801611a5e565b9450506020611ae287828801611a5e565b9350506040611af387828801611a94565b9250506060611b0487828801611a94565b91505092959194509250565b60008115159050919050565b611b2581611b10565b82525050565b6000602082019050611b406000830184611b1c565b92915050565b600060208284031215611b5c57611b5b611a0b565b5b6000611b6a84828501611a94565b91505092915050565b600081519050919050565b600082825260208201905092915050565b60005b83811015611bad578082015181840152602081019050611b92565b83811115611bbc576000848401525b50505050565b6000601f19601f8301169050919050565b6000611bde82611b73565b611be88185611b7e565b9350611bf8818560208601611b8f565b611c0181611bc2565b840191505092915050565b60006020820190508181036000830152611c268184611bd3565b905092915050565b600080fd5b7f4e487b7100000000000000000000000000000000000000000000000000000000600052604160045260246000fd5b611c6b82611bc2565b810181811067ffffffffffffffff82111715611c8a57611c89611c33565b5b80604052505050565b6000611c9d611a01565b9050611ca98282611c62565b919050565b600067ffffffffffffffff821115611cc957611cc8611c33565b5b602082029050602081019050919050565b600080fd5b6000611cf2611ced84611cae565b611c93565b90508083825260208201905060208402830185811115611d1557611d14611cda565b5b835b81811015611d3e5780611d2a8882611a94565b845260208401935050602081019050611d17565b5050509392505050565b600082601f830112611d5d57611d5c611c2e565b5b8135611d6d848260208601611cdf565b91505092915050565b600080fd5b600067ffffffffffffffff821115611d9657611d95611c33565b5b611d9f82611bc2565b9050602081019050919050565b82818337600083830152505050565b6000611dce611dc984611d7b565b611c93565b905082815260208101848484011115611dea57611de9611d76565b5b611df5848285611dac565b509392505050565b600082601f830112611e1257611e11611c2e565b5b8135611e22848260208601611dbb565b91505092915050565b600080600080600060a08688031215611e4757611e46611a0b565b5b6000611e5588828901611a5e565b9550506020611e6688828901611a5e565b945050604086013567ffffffffffffffff811115611e8757611e86611a10565b5b611e9388828901611d48565b935050606086013567ffffffffffffffff811115611eb457611eb3611a10565b5b611ec088828901611d48565b925050608086013567ffffffffffffffff811115611ee157611ee0611a10565b5b611eed88828901611dfd565b9150509295509295909350565b611f0381611b10565b8114611f0e57600080fd5b50565b600081359050611f2081611efa565b92915050565b60008060408385031215611f3d57611f3c611a0b565b5b6000611f4b85828601611a5e565b9250506020611f5c85828601611f11565b9150509250929050565b600067ffffffffffffffff821115611f8157611f80611c33565b5b602082029050602081019050919050565b6000611fa5611fa084611f66565b611c93565b90508083825260208201905060208402830185811115611fc857611fc7611cda565b5b835b81811015611ff15780611fdd8882611a5e565b845260208401935050602081019050611fca565b5050509392505050565b600082601f8301126120105761200f611c2e565b5b8135612020848260208601611f92565b91505092915050565b600080604083850312156120405761203f611a0b565b5b600083013567ffffffffffffffff81111561205e5761205d611a10565b5b61206a85828601611ffb565b925050602083013567ffffffffffffffff81111561208b5761208a611a10565b5b61209785828601611d48565b9150509250929050565b600081519050919050565b600082825260208201905092915050565b6000819050602082019050919050565b6120d681611a73565b82525050565b60006120e883836120cd565b60208301905092915050565b6000602082019050919050565b600061210c826120a1565b61211681856120ac565b9350612121836120bd565b8060005b8381101561215257815161213988826120dc565b9750612144836120f4565b925050600181019050612125565b5085935050505092915050565b600060208201905081810360008301526121798184612101565b905092915050565b600080600080600060a0868803121561219d5761219c611a0b565b5b60006121ab88828901611a5e565b95505060206121bc88828901611a5e565b94505060406121cd88828901611a94565b93505060606121de88828901611a94565b925050608086013567ffffffffffffffff8111156121ff576121fe611a10565b5b61220b88828901611dfd565b9150509295509295909350565b60008060006060848603121561223157612230611a0b565b5b600061223f86828701611a5e565b935050602061225086828701611a94565b925050604061226186828701611a94565b9150509250925092565b600067ffffffffffffffff82111561228657612285611c33565b5b61228f82611bc2565b9050602081019050919050565b60006122af6122aa8461226b565b611c93565b9050828152602081018484840111156122cb576122ca611d76565b5b6122d6848285611dac565b509392505050565b600082601f8301126122f3576122f2611c2e565b5b813561230384826020860161229c565b91505092915050565b600067ffffffffffffffff82111561232757612326611c33565b5b602082029050602081019050919050565b60006bffffffffffffffffffffffff82169050919050565b61235981612338565b811461236457600080fd5b50565b60008135905061237681612350565b92915050565b600061238f61238a8461230c565b611c93565b905080838252602082019050602084028301858111156123b2576123b1611cda565b5b835b818110156123db57806123c78882612367565b8452602084019350506020810190506123b4565b5050509392505050565b600082601f8301126123fa576123f9611c2e565b5b813561240a84826020860161237c565b91505092915050565b60008060008060008060c087890312156124305761242f611a0b565b5b600061243e89828a01611a94565b965050602061244f89828a01611a5e565b955050604061246089828a01611a94565b945050606087013567ffffffffffffffff81111561248157612480611a10565b5b61248d89828a016122de565b935050608087013567ffffffffffffffff8111156124ae576124ad611a10565b5b6124ba89828a01611ffb565b92505060a087013567ffffffffffffffff8111156124db576124da611a10565b5b6124e789828a016123e5565b9150509295509295509295565b6000806040838503121561250b5761250a611a0b565b5b600083013567ffffffffffffffff81111561252957612528611a10565b5b612535858286016122de565b925050602083013567ffffffffffffffff81111561255657612555611a10565b5b612562858286016122de565b9150509250929050565b6000806040838503121561258357612582611a0b565b5b600061259185828601611a5e565b92505060206125a285828601611a94565b9150509250929050565b6125b581611a73565b82525050565b60006020820190506125d060008301846125ac565b92915050565b7f45524331313535466163746f72793a205f746f206d757374206265206e6f6e2d60008201527f7a65726f2e000000000000000000000000000000000000000000000000000000602082015250565b6000612632602583611b7e565b915061263d826125d6565b604082019050919050565b6000602082019050818103600083015261266181612625565b9050919050565b7f4e487b7100000000000000000000000000000000000000000000000000000000600052602260045260246000fd5b600060028204905060018216806126af57607f821691505b602082108114156126c3576126c2612668565b5b50919050565b7f455243313135353a207472616e736665722063616c6c6572206973206e6f742060008201527f6f776e6572206e6f7220617070726f7665640000000000000000000000000000602082015250565b6000612725603283611b7e565b9150612730826126c9565b604082019050919050565b6000602082019050818103600083015261275481612718565b9050919050565b7f455243313135353a206163636f756e747320616e6420696473206c656e67746860008201527f206d69736d617463680000000000000000000000000000000000000000000000602082015250565b60006127b7602983611b7e565b91506127c28261275b565b604082019050919050565b600060208201905081810360008301526127e6816127aa565b9050919050565b7f4e487b7100000000000000000000000000000000000000000000000000000000600052603260045260246000fd5b7f4e487b7100000000000000000000000000000000000000000000000000000000600052601160045260246000fd5b600061285682611a73565b91507fffffffffffffffffffffffffffffffffffffffffffffffffffffffffffffffff8214156128895761288861281c565b5b600182019050919050565b7f455243373231466163746f72793a20556e617574686f72697a6564204163636560008201527f7373210000000000000000000000000000000000000000000000000000000000602082015250565b60006128f0602383611b7e565b91506128fb82612894565b604082019050919050565b6000602082019050818103600083015261291f816128e3565b9050919050565b7f414c52454144595f494e495449414c495a454400000000000000000000000000600082015250565b600061295c601383611b7e565b915061296782612926565b602082019050919050565b6000602082019050818103600083015261298b8161294f565b9050919050565b7f494e56414c49445f504152414d53000000000000000000000000000000000000600082015250565b60006129c8600e83611b7e565b91506129d382612992565b602082019050919050565b600060208201905081810360008301526129f7816129bb565b9050919050565b7f4d757374206f776e2074686520636f6e74726163742e00000000000000000000600082015250565b6000612a34601683611b7e565b9150612a3f826129fe565b602082019050919050565b60006020820190508181036000830152612a6381612a27565b9050919050565b7f455243313135353a2062616c616e636520717565727920666f7220746865207a60008201527f65726f2061646472657373000000000000000000000000000000000000000000602082015250565b6000612ac6602b83611b7e565b9150612ad182612a6a565b604082019050919050565b60006020820190508181036000830152612af581612ab9565b9050919050565b7f455243313135353a2069647320616e6420616d6f756e7473206c656e6774682060008201527f6d69736d61746368000000000000000000000000000000000000000000000000602082015250565b6000612b58602883611b7e565b9150612b6382612afc565b604082019050919050565b60006020820190508181036000830152612b8781612b4b565b9050919050565b7f455243313135353a207472616e7366657220746f20746865207a65726f20616460008201527f6472657373000000000000000000000000000000000000000000000000000000602082015250565b6000612bea602583611b7e565b9150612bf582612b8e565b604082019050919050565b60006020820190508181036000830152612c1981612bdd565b9050919050565b7f455243313135353a20696e73756666696369656e742062616c616e636520666f60008201527f72207472616e7366657200000000000000000000000000000000000000000000602082015250565b6000612c7c602a83611b7e565b9150612c8782612c20565b604082019050919050565b60006020820190508181036000830152612cab81612c6f565b9050919050565b6000612cbd82611a73565b9150612cc883611a73565b9250827fffffffffffffffffffffffffffffffffffffffffffffffffffffffffffffffff03821115612cfd57612cfc61281c565b5b828201905092915050565b60006040820190508181036000830152612d228185612101565b90508181036020830152612d368184612101565b90509392505050565b6000604082019050612d5460008301856125ac565b612d6160208301846125ac565b9392505050565b7f455243313135353a206275726e2066726f6d20746865207a65726f206164647260008201527f6573730000000000000000000000000000000000000000000000000000000000602082015250565b6000612dc4602383611b7e565b9150612dcf82612d68565b604082019050919050565b60006020820190508181036000830152612df381612db7565b9050919050565b7f455243313135353a206275726e20616d6f756e7420657863656564732062616c60008201527f616e636500000000000000000000000000000000000000000000000000000000602082015250565b6000612e56602483611b7e565b9150612e6182612dfa565b604082019050919050565b60006020820190508181036000830152612e8581612e49565b9050919050565b7f455243313135353a206d696e7420746f20746865207a65726f2061646472657360008201527f7300000000000000000000000000000000000000000000000000000000000000602082015250565b6000612ee8602183611b7e565b9150612ef382612e8c565b604082019050919050565b60006020820190508181036000830152612f1781612edb565b9050919050565b612f2781611a35565b82525050565b600081519050919050565b600082825260208201905092915050565b6000612f5482612f2d565b612f5e8185612f38565b9350612f6e818560208601611b8f565b612f7781611bc2565b840191505092915050565b600060a082019050612f976000830188612f1e565b612fa46020830187612f1e565b8181036040830152612fb68186612101565b90508181036060830152612fca8185612101565b90508181036080830152612fde8184612f49565b90509695505050505050565b60007fffffffff0000000000000000000000000000000000000000000000000000000082169050919050565b61301f81612fea565b811461302a57600080fd5b50565b60008151905061303c81613016565b92915050565b60006020828403121561305857613057611a0b565b5b60006130668482850161302d565b91505092915050565b60008160e01c9050919050565b600060033d111561309b5760046000803e61309860005161306f565b90505b90565b600060443d10156130ae57613131565b6130b6611a01565b60043d036004823e80513d602482011167ffffffffffffffff821117156130de575050613131565b808201805167ffffffffffffffff8111156130fc5750505050613131565b80602083010160043d038501811115613119575050505050613131565b61312882602001850186611c62565b82955050505050505b90565b7f455243313135353a207472616e7366657220746f206e6f6e204552433131353560008201527f526563656976657220696d706c656d656e746572000000000000000000000000602082015250565b6000613190603483611b7e565b915061319b82613134565b604082019050919050565b600060208201905081810360008301526131bf81613183565b9050919050565b7f455243313135353a204552433131353552656365697665722072656a6563746560008201527f6420746f6b656e73000000000000000000000000000000000000000000000000602082015250565b6000613222602883611b7e565b915061322d826131c6565b604082019050919050565b6000602082019050818103600083015261325181613215565b9050919050565b600060a08201905061326d6000830188612f1e565b61327a6020830187612f1e565b61328760408301866125ac565b61329460608301856125ac565b81810360808301526132a68184612f49565b9050969550505050505056fea26469706673582212206e04ef6a19aa631cb8f4cdcb7fcff10a2b5c2ae7c6d0c4ef46c062d52029f31764736f6c634300080a0033",
  "linkReferences": {},
  "deployedLinkReferences": {}
}